{
	"format": "sphinx-sol-ct-artifact-1",
	"merkleRoot": "0x39242e78705c698b1eb92f4858b2399f60092478449ec6858083760bce6be56a",
	"address": "0x60b4f5595ee509c4c22921c7b7999f1616e6a4f6",
	"sourceName": "src/JBSwapTerminalRegistry.sol",
	"contractName": "JBSwapTerminalRegistry",
	"chainId": "0x66eee",
	"abi": [
		{
			"inputs": [
				{
					"internalType": "contract IJBPermissions",
					"name": "permissions",
					"type": "address"
				},
				{
					"internalType": "contract IJBProjects",
					"name": "projects",
					"type": "address"
				},
				{
					"internalType": "contract IPermit2",
					"name": "permit2",
					"type": "address"
				},
				{
					"internalType": "address",
					"name": "owner",
					"type": "address"
				},
				{
					"internalType": "address",
					"name": "trustedForwarder",
					"type": "address"
				}
			],
			"stateMutability": "nonpayable",
			"type": "constructor"
		},
		{
			"inputs": [],
			"name": "PERMISSIONS",
			"outputs": [
				{
					"internalType": "contract IJBPermissions",
					"name": "",
					"type": "address"
				}
			],
			"stateMutability": "view",
			"type": "function"
		},
		{
			"inputs": [],
			"name": "PERMIT2",
			"outputs": [
				{
					"internalType": "contract IPermit2",
					"name": "",
					"type": "address"
				}
			],
			"stateMutability": "view",
			"type": "function"
		},
		{
			"inputs": [],
			"name": "PROJECTS",
			"outputs": [
				{
					"internalType": "contract IJBProjects",
					"name": "",
					"type": "address"
				}
			],
			"stateMutability": "view",
			"type": "function"
		},
		{
			"inputs": [
				{
					"internalType": "uint256",
					"name": "projectId",
					"type": "uint256"
				},
				{
					"internalType": "address",
					"name": "token",
					"type": "address"
				}
			],
			"name": "accountingContextForTokenOf",
			"outputs": [
				{
					"components": [
						{
							"internalType": "address",
							"name": "token",
							"type": "address"
						},
						{
							"internalType": "uint8",
							"name": "decimals",
							"type": "uint8"
						},
						{
							"internalType": "uint32",
							"name": "currency",
							"type": "uint32"
						}
					],
					"internalType": "struct JBAccountingContext",
					"name": "context",
					"type": "tuple"
				}
			],
			"stateMutability": "view",
			"type": "function"
		},
		{
			"inputs": [
				{
					"internalType": "uint256",
					"name": "projectId",
					"type": "uint256"
				}
			],
			"name": "accountingContextsOf",
			"outputs": [
				{
					"components": [
						{
							"internalType": "address",
							"name": "token",
							"type": "address"
						},
						{
							"internalType": "uint8",
							"name": "decimals",
							"type": "uint8"
						},
						{
							"internalType": "uint32",
							"name": "currency",
							"type": "uint32"
						}
					],
					"internalType": "struct JBAccountingContext[]",
					"name": "contexts",
					"type": "tuple[]"
				}
			],
			"stateMutability": "view",
			"type": "function"
		},
		{
			"inputs": [
				{
					"internalType": "uint256",
					"name": "projectId",
					"type": "uint256"
				},
				{
					"components": [
						{
							"internalType": "address",
							"name": "token",
							"type": "address"
						},
						{
							"internalType": "uint8",
							"name": "decimals",
							"type": "uint8"
						},
						{
							"internalType": "uint32",
							"name": "currency",
							"type": "uint32"
						}
					],
					"internalType": "struct JBAccountingContext[]",
					"name": "accountingContexts",
					"type": "tuple[]"
				}
			],
			"name": "addAccountingContextsFor",
			"outputs": [],
			"stateMutability": "nonpayable",
			"type": "function"
		},
		{
			"inputs": [
				{
					"internalType": "uint256",
					"name": "projectId",
					"type": "uint256"
				},
				{
					"internalType": "address",
					"name": "token",
					"type": "address"
				},
				{
					"internalType": "uint256",
					"name": "amount",
					"type": "uint256"
				},
				{
					"internalType": "bool",
					"name": "shouldReturnHeldFees",
					"type": "bool"
				},
				{
					"internalType": "string",
					"name": "memo",
					"type": "string"
				},
				{
					"internalType": "bytes",
					"name": "metadata",
					"type": "bytes"
				}
			],
			"name": "addToBalanceOf",
			"outputs": [],
			"stateMutability": "payable",
			"type": "function"
		},
		{
			"inputs": [
				{
					"internalType": "contract IJBTerminal",
					"name": "terminal",
					"type": "address"
				}
			],
			"name": "allowTerminal",
			"outputs": [],
			"stateMutability": "nonpayable",
			"type": "function"
		},
		{
			"inputs": [
				{
					"internalType": "uint256",
					"name": "projectId",
					"type": "uint256"
				},
				{
					"components": [
						{
							"internalType": "address",
							"name": "token",
							"type": "address"
						},
						{
							"internalType": "uint8",
							"name": "decimals",
							"type": "uint8"
						},
						{
							"internalType": "uint32",
							"name": "currency",
							"type": "uint32"
						}
					],
					"internalType": "struct JBAccountingContext[]",
					"name": "accountingContexts",
					"type": "tuple[]"
				},
				{
					"internalType": "uint256",
					"name": "decimals",
					"type": "uint256"
				},
				{
					"internalType": "uint256",
					"name": "currency",
					"type": "uint256"
				}
			],
			"name": "currentSurplusOf",
			"outputs": [
				{
					"internalType": "uint256",
					"name": "",
					"type": "uint256"
				}
			],
			"stateMutability": "view",
			"type": "function"
		},
		{
			"inputs": [],
			"name": "defaultTerminal",
			"outputs": [
				{
					"internalType": "contract IJBTerminal",
					"name": "",
					"type": "address"
				}
			],
			"stateMutability": "view",
			"type": "function"
		},
		{
			"inputs": [
				{
					"internalType": "contract IJBTerminal",
					"name": "terminal",
					"type": "address"
				}
			],
			"name": "disallowTerminal",
			"outputs": [],
			"stateMutability": "nonpayable",
			"type": "function"
		},
		{
			"inputs": [
				{
					"internalType": "uint256",
					"name": "projectId",
					"type": "uint256"
				}
			],
			"name": "hasLockedTerminal",
			"outputs": [
				{
					"internalType": "bool",
					"name": "",
					"type": "bool"
				}
			],
			"stateMutability": "view",
			"type": "function"
		},
		{
			"inputs": [
				{
					"internalType": "contract IJBTerminal",
					"name": "terminal",
					"type": "address"
				}
			],
			"name": "isTerminalAllowed",
			"outputs": [
				{
					"internalType": "bool",
					"name": "",
					"type": "bool"
				}
			],
			"stateMutability": "view",
			"type": "function"
		},
		{
			"inputs": [
				{
					"internalType": "address",
					"name": "forwarder",
					"type": "address"
				}
			],
			"name": "isTrustedForwarder",
			"outputs": [
				{
					"internalType": "bool",
					"name": "",
					"type": "bool"
				}
			],
			"stateMutability": "view",
			"type": "function"
		},
		{
			"inputs": [
				{
					"internalType": "uint256",
					"name": "projectId",
					"type": "uint256"
				}
			],
			"name": "lockTerminalFor",
			"outputs": [],
			"stateMutability": "nonpayable",
			"type": "function"
		},
		{
			"inputs": [
				{
					"internalType": "uint256",
					"name": "projectId",
					"type": "uint256"
				},
				{
					"internalType": "address",
					"name": "token",
					"type": "address"
				},
				{
					"internalType": "contract IJBTerminal",
					"name": "to",
					"type": "address"
				}
			],
			"name": "migrateBalanceOf",
			"outputs": [
				{
					"internalType": "uint256",
					"name": "balance",
					"type": "uint256"
				}
			],
			"stateMutability": "nonpayable",
			"type": "function"
		},
		{
			"inputs": [],
			"name": "owner",
			"outputs": [
				{
					"internalType": "address",
					"name": "",
					"type": "address"
				}
			],
			"stateMutability": "view",
			"type": "function"
		},
		{
			"inputs": [
				{
					"internalType": "uint256",
					"name": "projectId",
					"type": "uint256"
				},
				{
					"internalType": "address",
					"name": "token",
					"type": "address"
				},
				{
					"internalType": "uint256",
					"name": "amount",
					"type": "uint256"
				},
				{
					"internalType": "address",
					"name": "beneficiary",
					"type": "address"
				},
				{
					"internalType": "uint256",
					"name": "minReturnedTokens",
					"type": "uint256"
				},
				{
					"internalType": "string",
					"name": "memo",
					"type": "string"
				},
				{
					"internalType": "bytes",
					"name": "metadata",
					"type": "bytes"
				}
			],
			"name": "pay",
			"outputs": [
				{
					"internalType": "uint256",
					"name": "",
					"type": "uint256"
				}
			],
			"stateMutability": "payable",
			"type": "function"
		},
		{
			"inputs": [],
			"name": "renounceOwnership",
			"outputs": [],
			"stateMutability": "nonpayable",
			"type": "function"
		},
		{
			"inputs": [
				{
					"internalType": "contract IJBTerminal",
					"name": "terminal",
					"type": "address"
				}
			],
			"name": "setDefaultTerminal",
			"outputs": [],
			"stateMutability": "nonpayable",
			"type": "function"
		},
		{
			"inputs": [
				{
					"internalType": "uint256",
					"name": "projectId",
					"type": "uint256"
				},
				{
					"internalType": "contract IJBTerminal",
					"name": "terminal",
					"type": "address"
				}
			],
			"name": "setTerminalFor",
			"outputs": [],
			"stateMutability": "nonpayable",
			"type": "function"
		},
		{
			"inputs": [
				{
					"internalType": "bytes4",
					"name": "interfaceId",
					"type": "bytes4"
				}
			],
			"name": "supportsInterface",
			"outputs": [
				{
					"internalType": "bool",
					"name": "",
					"type": "bool"
				}
			],
			"stateMutability": "pure",
			"type": "function"
		},
		{
			"inputs": [
				{
					"internalType": "uint256",
					"name": "projectId",
					"type": "uint256"
				}
			],
			"name": "terminalOf",
			"outputs": [
				{
					"internalType": "contract IJBTerminal",
					"name": "",
					"type": "address"
				}
			],
			"stateMutability": "view",
			"type": "function"
		},
		{
			"inputs": [
				{
					"internalType": "address",
					"name": "newOwner",
					"type": "address"
				}
			],
			"name": "transferOwnership",
			"outputs": [],
			"stateMutability": "nonpayable",
			"type": "function"
		},
		{
			"inputs": [],
			"name": "trustedForwarder",
			"outputs": [
				{
					"internalType": "address",
					"name": "",
					"type": "address"
				}
			],
			"stateMutability": "view",
			"type": "function"
		},
		{
			"anonymous": false,
			"inputs": [
				{
					"indexed": true,
					"internalType": "uint256",
					"name": "projectId",
					"type": "uint256"
				},
				{
					"indexed": false,
					"internalType": "uint256",
					"name": "amount",
					"type": "uint256"
				},
				{
					"indexed": false,
					"internalType": "uint256",
					"name": "returnedFees",
					"type": "uint256"
				},
				{
					"indexed": false,
					"internalType": "string",
					"name": "memo",
					"type": "string"
				},
				{
					"indexed": false,
					"internalType": "bytes",
					"name": "metadata",
					"type": "bytes"
				},
				{
					"indexed": false,
					"internalType": "address",
					"name": "caller",
					"type": "address"
				}
			],
			"name": "AddToBalance",
			"type": "event"
		},
		{
			"anonymous": false,
			"inputs": [
				{
					"indexed": true,
					"internalType": "contract IJBPayHook",
					"name": "hook",
					"type": "address"
				},
				{
					"components": [
						{
							"internalType": "address",
							"name": "payer",
							"type": "address"
						},
						{
							"internalType": "uint256",
							"name": "projectId",
							"type": "uint256"
						},
						{
							"internalType": "uint256",
							"name": "rulesetId",
							"type": "uint256"
						},
						{
							"components": [
								{
									"internalType": "address",
									"name": "token",
									"type": "address"
								},
								{
									"internalType": "uint8",
									"name": "decimals",
									"type": "uint8"
								},
								{
									"internalType": "uint32",
									"name": "currency",
									"type": "uint32"
								},
								{
									"internalType": "uint256",
									"name": "value",
									"type": "uint256"
								}
							],
							"internalType": "struct JBTokenAmount",
							"name": "amount",
							"type": "tuple"
						},
						{
							"components": [
								{
									"internalType": "address",
									"name": "token",
									"type": "address"
								},
								{
									"internalType": "uint8",
									"name": "decimals",
									"type": "uint8"
								},
								{
									"internalType": "uint32",
									"name": "currency",
									"type": "uint32"
								},
								{
									"internalType": "uint256",
									"name": "value",
									"type": "uint256"
								}
							],
							"internalType": "struct JBTokenAmount",
							"name": "forwardedAmount",
							"type": "tuple"
						},
						{
							"internalType": "uint256",
							"name": "weight",
							"type": "uint256"
						},
						{
							"internalType": "uint256",
							"name": "newlyIssuedTokenCount",
							"type": "uint256"
						},
						{
							"internalType": "address",
							"name": "beneficiary",
							"type": "address"
						},
						{
							"internalType": "bytes",
							"name": "hookMetadata",
							"type": "bytes"
						},
						{
							"internalType": "bytes",
							"name": "payerMetadata",
							"type": "bytes"
						}
					],
					"indexed": false,
					"internalType": "struct JBAfterPayRecordedContext",
					"name": "context",
					"type": "tuple"
				},
				{
					"indexed": false,
					"internalType": "uint256",
					"name": "specificationAmount",
					"type": "uint256"
				},
				{
					"indexed": false,
					"internalType": "address",
					"name": "caller",
					"type": "address"
				}
			],
			"name": "HookAfterRecordPay",
			"type": "event"
		},
		{
			"anonymous": false,
			"inputs": [
				{
					"indexed": false,
					"internalType": "contract IJBTerminal",
					"name": "terminal",
					"type": "address"
				}
			],
			"name": "JBSwapTerminalRegistry_AllowTerminal",
			"type": "event"
		},
		{
			"anonymous": false,
			"inputs": [
				{
					"indexed": false,
					"internalType": "contract IJBTerminal",
					"name": "terminal",
					"type": "address"
				}
			],
			"name": "JBSwapTerminalRegistry_DisallowTerminal",
			"type": "event"
		},
		{
			"anonymous": false,
			"inputs": [
				{
					"indexed": false,
					"internalType": "uint256",
					"name": "projectId",
					"type": "uint256"
				}
			],
			"name": "JBSwapTerminalRegistry_LockTerminal",
			"type": "event"
		},
		{
			"anonymous": false,
			"inputs": [
				{
					"indexed": false,
					"internalType": "contract IJBTerminal",
					"name": "terminal",
					"type": "address"
				}
			],
			"name": "JBSwapTerminalRegistry_SetDefaultTerminal",
			"type": "event"
		},
		{
			"anonymous": false,
			"inputs": [
				{
					"indexed": true,
					"internalType": "uint256",
					"name": "projectId",
					"type": "uint256"
				},
				{
					"indexed": false,
					"internalType": "contract IJBTerminal",
					"name": "terminal",
					"type": "address"
				}
			],
			"name": "JBSwapTerminalRegistry_SetTerminal",
			"type": "event"
		},
		{
			"anonymous": false,
			"inputs": [
				{
					"indexed": true,
					"internalType": "uint256",
					"name": "projectId",
					"type": "uint256"
				},
				{
					"indexed": true,
					"internalType": "address",
					"name": "token",
					"type": "address"
				},
				{
					"indexed": true,
					"internalType": "contract IJBTerminal",
					"name": "to",
					"type": "address"
				},
				{
					"indexed": false,
					"internalType": "uint256",
					"name": "amount",
					"type": "uint256"
				},
				{
					"indexed": false,
					"internalType": "address",
					"name": "caller",
					"type": "address"
				}
			],
			"name": "MigrateTerminal",
			"type": "event"
		},
		{
			"anonymous": false,
			"inputs": [
				{
					"indexed": true,
					"internalType": "address",
					"name": "previousOwner",
					"type": "address"
				},
				{
					"indexed": true,
					"internalType": "address",
					"name": "newOwner",
					"type": "address"
				}
			],
			"name": "OwnershipTransferred",
			"type": "event"
		},
		{
			"anonymous": false,
			"inputs": [
				{
					"indexed": true,
					"internalType": "uint256",
					"name": "rulesetId",
					"type": "uint256"
				},
				{
					"indexed": true,
					"internalType": "uint256",
					"name": "rulesetCycleNumber",
					"type": "uint256"
				},
				{
					"indexed": true,
					"internalType": "uint256",
					"name": "projectId",
					"type": "uint256"
				},
				{
					"indexed": false,
					"internalType": "address",
					"name": "payer",
					"type": "address"
				},
				{
					"indexed": false,
					"internalType": "address",
					"name": "beneficiary",
					"type": "address"
				},
				{
					"indexed": false,
					"internalType": "uint256",
					"name": "amount",
					"type": "uint256"
				},
				{
					"indexed": false,
					"internalType": "uint256",
					"name": "newlyIssuedTokenCount",
					"type": "uint256"
				},
				{
					"indexed": false,
					"internalType": "string",
					"name": "memo",
					"type": "string"
				},
				{
					"indexed": false,
					"internalType": "bytes",
					"name": "metadata",
					"type": "bytes"
				},
				{
					"indexed": false,
					"internalType": "address",
					"name": "caller",
					"type": "address"
				}
			],
			"name": "Pay",
			"type": "event"
		},
		{
			"anonymous": false,
			"inputs": [
				{
					"indexed": true,
					"internalType": "uint256",
					"name": "projectId",
					"type": "uint256"
				},
				{
					"components": [
						{
							"internalType": "address",
							"name": "token",
							"type": "address"
						},
						{
							"internalType": "uint8",
							"name": "decimals",
							"type": "uint8"
						},
						{
							"internalType": "uint32",
							"name": "currency",
							"type": "uint32"
						}
					],
					"indexed": false,
					"internalType": "struct JBAccountingContext",
					"name": "context",
					"type": "tuple"
				},
				{
					"indexed": false,
					"internalType": "address",
					"name": "caller",
					"type": "address"
				}
			],
			"name": "SetAccountingContext",
			"type": "event"
		},
		{
			"inputs": [],
			"name": "FailedCall",
			"type": "error"
		},
		{
			"inputs": [
				{
					"internalType": "uint256",
					"name": "balance",
					"type": "uint256"
				},
				{
					"internalType": "uint256",
					"name": "needed",
					"type": "uint256"
				}
			],
			"name": "InsufficientBalance",
			"type": "error"
		},
		{
			"inputs": [
				{
					"internalType": "address",
					"name": "account",
					"type": "address"
				},
				{
					"internalType": "address",
					"name": "sender",
					"type": "address"
				},
				{
					"internalType": "uint256",
					"name": "projectId",
					"type": "uint256"
				},
				{
					"internalType": "uint256",
					"name": "permissionId",
					"type": "uint256"
				}
			],
			"name": "JBPermissioned_Unauthorized",
			"type": "error"
		},
		{
			"inputs": [
				{
					"internalType": "uint256",
					"name": "value",
					"type": "uint256"
				}
			],
			"name": "JBSwapTerminalRegistry_NoMsgValueAllowed",
			"type": "error"
		},
		{
			"inputs": [
				{
					"internalType": "uint256",
					"name": "amount",
					"type": "uint256"
				},
				{
					"internalType": "uint256",
					"name": "allowanceAmount",
					"type": "uint256"
				}
			],
			"name": "JBSwapTerminalRegistry_PermitAllowanceNotEnough",
			"type": "error"
		},
		{
			"inputs": [
				{
					"internalType": "uint256",
					"name": "projectId",
					"type": "uint256"
				}
			],
			"name": "JBSwapTerminalRegistry_TerminalLocked",
			"type": "error"
		},
		{
			"inputs": [
				{
					"internalType": "contract IJBTerminal",
					"name": "terminal",
					"type": "address"
				}
			],
			"name": "JBSwapTerminalRegistry_TerminalNotAllowed",
			"type": "error"
		},
		{
			"inputs": [
				{
					"internalType": "uint256",
					"name": "projectId",
					"type": "uint256"
				}
			],
			"name": "JBSwapTerminalRegistry_TerminalNotSet",
			"type": "error"
		},
		{
			"inputs": [
				{
					"internalType": "address",
					"name": "owner",
					"type": "address"
				}
			],
			"name": "OwnableInvalidOwner",
			"type": "error"
		},
		{
			"inputs": [
				{
					"internalType": "address",
					"name": "account",
					"type": "address"
				}
			],
			"name": "OwnableUnauthorizedAccount",
			"type": "error"
		},
		{
			"inputs": [
				{
					"internalType": "address",
					"name": "token",
					"type": "address"
				}
			],
			"name": "SafeERC20FailedOperation",
			"type": "error"
		}
	],
	"args": [],
	"solcInputHash": "310e47174e7c0590b39b1f425b1e1bc2",
	"bytecode": "0x61010060405234801562000011575f80fd5b5060405162002ce738038062002ce7833981016040819052620000349162000100565b6001600160a01b038086166080528190839081166200006c57604051631e4fbdf760e01b81525f600482015260240160405180910390fd5b620000778162000099565b506001600160a01b0390811660a05293841660c05250501660e052506200017c565b5f80546001600160a01b038381166001600160a01b0319831681178455604051919092169283917f8be0079c531659141344cd1fd0a4f28419497f9722a3daafe3b4186f6b6457e09190a35050565b6001600160a01b0381168114620000fd575f80fd5b50565b5f805f805f60a0868803121562000115575f80fd5b85516200012281620000e8565b60208701519095506200013581620000e8565b60408701519094506200014881620000e8565b60608701519093506200015b81620000e8565b60808701519092506200016e81620000e8565b809150509295509295909350565b60805160a05160c05160e051612b06620001e15f395f81816103cd015281816114ef0152611a3301525f81816101f80152818161085f0152610e4601525f8181610351015281816104300152611b5901525f818161058c01526111a40152612b065ff3fe60806040526004361061018e575f3560e01c8063715018a6116100dc578063b4996ee311610087578063f2fde38b11610062578063f2fde38b1461053d578063f3e37d011461055c578063f434c9141461057b578063fef43257146105ae575f80fd5b8063b4996ee3146104bc578063e28b5411146104ea578063edb409501461051a575f80fd5b80638da5cb5b116100b75780638da5cb5b146104545780639e6eec051461047d578063a887538714610490575f80fd5b8063715018a6146103ef57806377d4ad4f146104035780637da0a87714610422575f80fd5b80634e96e7af1161013c578063572b6c0511610117578063572b6c051461033557806368f6ee6c1461038e5780636afdd850146103bc575f80fd5b80634e96e7af146102a95780634fe0eced146102c8578063515a929314610309575f80fd5b806330c236e81161016c57806330c236e81461023f5780633a01714f1461025e5780633b6ece751461028a575f80fd5b806301ffc9a714610192578063253721c8146101c6578063293c4999146101e7575b5f80fd5b34801561019d575f80fd5b506101b16101ac366004611f89565b6105c1565b60405190151581526020015b60405180910390f35b3480156101d1575f80fd5b506101e56101e0366004611fc8565b505050565b005b3480156101f2575f80fd5b5061021a7f000000000000000000000000000000000000000000000000000000000000000081565b60405173ffffffffffffffffffffffffffffffffffffffff90911681526020016101bd565b34801561024a575f80fd5b506101e5610259366004612061565b6106a5565b348015610269575f80fd5b5061027d61027836600461207c565b61072f565b6040516101bd91906120aa565b348015610295575f80fd5b506101e56102a43660046120ea565b61082c565b3480156102b4575f80fd5b506101e56102c3366004612061565b6109c3565b3480156102d3575f80fd5b5061021a6102e23660046120ea565b60036020525f908152604090205473ffffffffffffffffffffffffffffffffffffffff1681565b348015610314575f80fd5b506103286103233660046120ea565b610a74565b6040516101bd9190612101565b348015610340575f80fd5b506101b161034f366004612061565b7f000000000000000000000000000000000000000000000000000000000000000073ffffffffffffffffffffffffffffffffffffffff90811691161490565b348015610399575f80fd5b506101b16103a8366004612061565b60046020525f908152604090205460ff1681565b3480156103c7575f80fd5b5061021a7f000000000000000000000000000000000000000000000000000000000000000081565b3480156103fa575f80fd5b506101e5610b6f565b34801561040e575f80fd5b506101e561041d366004612061565b610b82565b34801561042d575f80fd5b507f000000000000000000000000000000000000000000000000000000000000000061021a565b34801561045f575f80fd5b505f5473ffffffffffffffffffffffffffffffffffffffff1661021a565b6101e561048b3660046121cc565b610c08565b34801561049b575f80fd5b5060015461021a9073ffffffffffffffffffffffffffffffffffffffff1681565b3480156104c7575f80fd5b506101b16104d63660046120ea565b60026020525f908152604090205460ff1681565b3480156104f5575f80fd5b5061050c61050436600461226d565b5f9392505050565b6040519081526020016101bd565b348015610525575f80fd5b5061050c6105343660046123b6565b5f949350505050565b348015610548575f80fd5b506101e5610557366004612061565b610cea565b348015610567575f80fd5b506101e561057636600461207c565b610d52565b348015610586575f80fd5b5061021a7f000000000000000000000000000000000000000000000000000000000000000081565b61050c6105bc3660046124a6565b610f54565b5f7fffffffff0000000000000000000000000000000000000000000000000000000082167fd339b90000000000000000000000000000000000000000000000000000000000148061065357507fffffffff0000000000000000000000000000000000000000000000000000000082167f21c9410700000000000000000000000000000000000000000000000000000000145b8061069f57507fffffffff0000000000000000000000000000000000000000000000000000000082167f01ffc9a700000000000000000000000000000000000000000000000000000000145b92915050565b6106ad61104f565b73ffffffffffffffffffffffffffffffffffffffff81165f8181526004602090815260409182902080547fffffffffffffffffffffffffffffffffffffffffffffffffffffffffffffff0016905590519182527f081c9106b7938f48ebb1fc9bc57dd0ca565739f83976b06e588ba90be5e0093e91015b60405180910390a150565b604080516060810182525f80825260208201819052918101919091525f8381526003602052604090205473ffffffffffffffffffffffffffffffffffffffff168061078f575060015473ffffffffffffffffffffffffffffffffffffffff165b6040517f3a01714f0000000000000000000000000000000000000000000000000000000081526004810185905273ffffffffffffffffffffffffffffffffffffffff8481166024830152821690633a01714f90604401606060405180830381865afa158015610800573d5f803e3d5ffd5b505050506040513d601f19601f8201168201806040525081019061082491906125a5565b949350505050565b6040517f6352211e000000000000000000000000000000000000000000000000000000008152600481018290526108e5907f000000000000000000000000000000000000000000000000000000000000000073ffffffffffffffffffffffffffffffffffffffff1690636352211e90602401602060405180830381865afa1580156108b9573d5f803e3d5ffd5b505050506040513d601f19601f820116820180604052508101906108dd91906125bf565b82601a6110f9565b5f81815260026020908152604080832080547fffffffffffffffffffffffffffffffffffffffffffffffffffffffffffffff00166001179055600390915290205473ffffffffffffffffffffffffffffffffffffffff16610993576001545f82815260036020526040902080547fffffffffffffffffffffffff00000000000000000000000000000000000000001673ffffffffffffffffffffffffffffffffffffffff9092169190911790555b6040518181527f2a012daa3ad82fec3db860bb9dde3b37e52c3fbb8faedc62ef5a748ada2af99090602001610724565b6109cb61104f565b600180547fffffffffffffffffffffffff00000000000000000000000000000000000000001673ffffffffffffffffffffffffffffffffffffffff831690811782555f8181526004602090815260409182902080547fffffffffffffffffffffffffffffffffffffffffffffffffffffffffffffff0016909417909355519081527fa9025e4b22d5e3ad459681f7fa0a422df24c6dcf6146f920de489f42a98c171f9101610724565b5f8181526003602052604090205460609073ffffffffffffffffffffffffffffffffffffffff1680610abb575060015473ffffffffffffffffffffffffffffffffffffffff165b6040517f515a92930000000000000000000000000000000000000000000000000000000081526004810184905273ffffffffffffffffffffffffffffffffffffffff82169063515a9293906024015f60405180830381865afa158015610b23573d5f803e3d5ffd5b505050506040513d5f823e601f3d9081017fffffffffffffffffffffffffffffffffffffffffffffffffffffffffffffffe0168201604052610b6891908101906125da565b9392505050565b610b7761104f565b610b805f61127a565b565b610b8a61104f565b73ffffffffffffffffffffffffffffffffffffffff81165f8181526004602090815260409182902080547fffffffffffffffffffffffffffffffffffffffffffffffffffffffffffffff0016600117905590519182527f853f2dbda0acc2e0a0aa55f3486133966cd4fd55a17bdb8d1335017cbedfd0a09101610724565b5f8881526003602052604090205473ffffffffffffffffffffffffffffffffffffffff1680610c4c575060015473ffffffffffffffffffffffffffffffffffffffff165b610c58888885856112ee565b96505f610c66828a8a611616565b90508173ffffffffffffffffffffffffffffffffffffffff16639e6eec05828c8c8c8c8c8c8c8c6040518a63ffffffff1660e01b8152600401610cb09897969594939291906126bd565b5f604051808303818588803b158015610cc7575f80fd5b505af1158015610cd9573d5f803e3d5ffd5b505050505050505050505050505050565b610cf261104f565b73ffffffffffffffffffffffffffffffffffffffff8116610d46576040517f1e4fbdf70000000000000000000000000000000000000000000000000000000081525f60048201526024015b60405180910390fd5b610d4f8161127a565b50565b5f8281526002602052604090205460ff1615610d9d576040517f38c272ec00000000000000000000000000000000000000000000000000000000815260048101839052602401610d3d565b73ffffffffffffffffffffffffffffffffffffffff81165f9081526004602052604090205460ff16610e13576040517f5e6b610d00000000000000000000000000000000000000000000000000000000815273ffffffffffffffffffffffffffffffffffffffff82166004820152602401610d3d565b6040517f6352211e00000000000000000000000000000000000000000000000000000000815260048101839052610ecc907f000000000000000000000000000000000000000000000000000000000000000073ffffffffffffffffffffffffffffffffffffffff1690636352211e90602401602060405180830381865afa158015610ea0573d5f803e3d5ffd5b505050506040513d601f19601f82011682018060405250810190610ec491906125bf565b83601a6110f9565b5f8281526003602090815260409182902080547fffffffffffffffffffffffff00000000000000000000000000000000000000001673ffffffffffffffffffffffffffffffffffffffff8516908117909155915191825283917f92b23dbea87c2600ada32dc8979118d79dc2fb31cc7ae7917f6413c81171095b910160405180910390a25050565b5f8981526003602052604081205473ffffffffffffffffffffffffffffffffffffffff1680610f98575060015473ffffffffffffffffffffffffffffffffffffffff165b610fa48a8a86866112ee565b98505f610fb2828c8c611616565b90508173ffffffffffffffffffffffffffffffffffffffff1663fef43257828e8e8e8e8e8e8e8e8e6040518b63ffffffff1660e01b8152600401610ffe99989796959493929190612722565b60206040518083038185885af115801561101a573d5f803e3d5ffd5b50505050506040513d601f19601f8201168201806040525081019061103f9190612780565b9c9b505050505050505050505050565b611057611685565b73ffffffffffffffffffffffffffffffffffffffff1661108b5f5473ffffffffffffffffffffffffffffffffffffffff1690565b73ffffffffffffffffffffffffffffffffffffffff1614610b80576110ae611685565b6040517f118cdaa700000000000000000000000000000000000000000000000000000000815273ffffffffffffffffffffffffffffffffffffffff9091166004820152602401610d3d565b5f611102611685565b90508373ffffffffffffffffffffffffffffffffffffffff168173ffffffffffffffffffffffffffffffffffffffff161415801561120f57506040517f348b684e00000000000000000000000000000000000000000000000000000000815273ffffffffffffffffffffffffffffffffffffffff82811660048301528581166024830152604482018590526064820184905260016084830181905260a48301527f0000000000000000000000000000000000000000000000000000000000000000169063348b684e9060c401602060405180830381865afa1580156111e9573d5f803e3d5ffd5b505050506040513d601f19601f8201168201806040525081019061120d9190612797565b155b15611274576040517f264deeaa00000000000000000000000000000000000000000000000000000000815273ffffffffffffffffffffffffffffffffffffffff8086166004830152821660248201526044810184905260648101839052608401610d3d565b50505050565b5f805473ffffffffffffffffffffffffffffffffffffffff8381167fffffffffffffffffffffffff0000000000000000000000000000000000000000831681178455604051919092169283917f8be0079c531659141344cd1fd0a4f28419497f9722a3daafe3b4186f6b6457e09190a35050565b5f7fffffffffffffffffffffffffffffffffffffffffffffffffffffffffffff111273ffffffffffffffffffffffffffffffffffffffff861601611333575034610824565b341561136d576040517fab181333000000000000000000000000000000000000000000000000000000008152346004820152602401610d3d565b5f806113eb6113b06040518060400160405280600781526020017f7065726d69743200000000000000000000000000000000000000000000000000815250611693565b86868080601f0160208091040260200160405190810160405280939291908181526020018383808284375f920191909152506116a692505050565b91509150811561156c575f8180602001905181019061140a91906127ee565b9050806020015173ffffffffffffffffffffffffffffffffffffffff168711156114855760208101516040517f0f14d60f0000000000000000000000000000000000000000000000000000000081526004810189905273ffffffffffffffffffffffffffffffffffffffff9091166024820152604401610d3d565b6040805160e08101825273ffffffffffffffffffffffffffffffffffffffff808b166060808401918252602086810151841660808601528686015165ffffffffffff90811660a08701529187015190911660c08501529083523090830152835192820192909252907f000000000000000000000000000000000000000000000000000000000000000016632b67b57061151c611685565b8385608001516040518463ffffffff1660e01b815260040161154093929190612905565b5f604051808303815f87803b158015611557575f80fd5b505af1925050508015611568575060015b5050505b61157f611577611685565b30898961188e565b6040517f70a0823100000000000000000000000000000000000000000000000000000000815230600482015273ffffffffffffffffffffffffffffffffffffffff8816906370a0823190602401602060405180830381865afa1580156115e7573d5f803e3d5ffd5b505050506040513d601f19601f8201168201806040525081019061160b9190612780565b979650505050505050565b5f7fffffffffffffffffffffffffffffffffffffffffffffffffffffffffffff111273ffffffffffffffffffffffffffffffffffffffff84160161165b575080610b68565b61167c73ffffffffffffffffffffffffffffffffffffffff84168584611a90565b505f9392505050565b5f61168e611b3d565b905090565b805160208201205f903060601b1861069f565b5f606060258351116116c957505060408051602081019091525f80825290611887565b5f836116d7600460206129f7565b815181106116e7576116e7612a0a565b0160209081015160f81c91505b5f856117016004846129f7565b8151811061171157611711612a0a565b01602001517fff00000000000000000000000000000000000000000000000000000000000000161480159061174f575061174c602083612a37565b81105b15611884575f856117616004846129f7565b8151811061177157611771612a0a565b016020908101518784019091015160f89190911c91507fffffffff000000000000000000000000000000000000000000000000000000008089169082160361187a575f6117bf602086612a37565b6117ca6009866129f7565b1015806118175750876117de6009866129f7565b815181106117ee576117ee612a0a565b01602001517fff0000000000000000000000000000000000000000000000000000000000000016155b611850576020886118296009876129f7565b8151811061183957611839612a0a565b016020015161184b919060f81c612a37565b611853565b87515b9050600161186c89611866602087612a37565b84611bbd565b965096505050505050611887565b50506005016116f4565b50505b9250929050565b3073ffffffffffffffffffffffffffffffffffffffff851603611918577fffffffffffffffffffffffffffffffffffffffffffffffffffffffffffff111273ffffffffffffffffffffffffffffffffffffffff8316016118f7576118f28382611c02565b611274565b6118f273ffffffffffffffffffffffffffffffffffffffff83168483611cb4565b6040517fdd62ed3e00000000000000000000000000000000000000000000000000000000815273ffffffffffffffffffffffffffffffffffffffff858116600483015230602483015282919084169063dd62ed3e90604401602060405180830381865afa15801561198b573d5f803e3d5ffd5b505050506040513d601f19601f820116820180604052508101906119af9190612780565b106119d6576118f273ffffffffffffffffffffffffffffffffffffffff8316858584611d35565b6040517f36c7851600000000000000000000000000000000000000000000000000000000815273ffffffffffffffffffffffffffffffffffffffff85811660048301528481166024830152828116604483015283811660648301527f000000000000000000000000000000000000000000000000000000000000000016906336c78516906084015f604051808303815f87803b158015611a74575f80fd5b505af1158015611a86573d5f803e3d5ffd5b5050505050505050565b6040517fdd62ed3e00000000000000000000000000000000000000000000000000000000815230600482015273ffffffffffffffffffffffffffffffffffffffff83811660248301525f919085169063dd62ed3e90604401602060405180830381865afa158015611b03573d5f803e3d5ffd5b505050506040513d601f19601f82011682018060405250810190611b279190612780565b90506112748484611b3885856129f7565b611d7b565b5f3660143373ffffffffffffffffffffffffffffffffffffffff7f000000000000000000000000000000000000000000000000000000000000000016148015611b865750808210155b15611bb5575f36611b978385612a4e565b611ba2928290612a61565b611bab91612a88565b60601c9250505090565b339250505090565b6060828203604051915060208183010160405280825250826020850101602082015f5b84811015611bf8578281015182820152602001611be0565b5050509392505050565b80471015611c45576040517fcf47918100000000000000000000000000000000000000000000000000000000815247600482015260248101829052604401610d3d565b5f808373ffffffffffffffffffffffffffffffffffffffff16836040515f6040518083038185875af1925050503d805f8114611c9c576040519150601f19603f3d011682016040523d82523d5f602084013e611ca1565b606091505b5091509150816112745761127481611e52565b60405173ffffffffffffffffffffffffffffffffffffffff8381166024830152604482018390526101e091859182169063a9059cbb906064015b604051602081830303815290604052915060e01b6020820180517bffffffffffffffffffffffffffffffffffffffffffffffffffffffff8381831617835250505050611e94565b60405173ffffffffffffffffffffffffffffffffffffffff84811660248301528381166044830152606482018390526112749186918216906323b872dd90608401611cee565b6040805173ffffffffffffffffffffffffffffffffffffffff8416602482015260448082018490528251808303909101815260649091019091526020810180517bffffffffffffffffffffffffffffffffffffffffffffffffffffffff167f095ea7b300000000000000000000000000000000000000000000000000000000179052611e078482611f33565b6112745760405173ffffffffffffffffffffffffffffffffffffffff84811660248301525f6044830152611e4891869182169063095ea7b390606401611cee565b6112748482611e94565b805115611e625780518082602001fd5b6040517fd6bda27500000000000000000000000000000000000000000000000000000000815260040160405180910390fd5b5f8060205f8451602086015f885af180611eb3576040513d5f823e3d81fd5b50505f513d91508115611eca578060011415611ee4565b73ffffffffffffffffffffffffffffffffffffffff84163b155b15611274576040517f5274afe700000000000000000000000000000000000000000000000000000000815273ffffffffffffffffffffffffffffffffffffffff85166004820152602401610d3d565b5f805f8060205f8651602088015f8a5af192503d91505f519050828015611f7f57508115611f645780600114611f7f565b5f8673ffffffffffffffffffffffffffffffffffffffff163b115b9695505050505050565b5f60208284031215611f99575f80fd5b81357fffffffff0000000000000000000000000000000000000000000000000000000081168114610b68575f80fd5b5f805f60408486031215611fda575f80fd5b83359250602084013567ffffffffffffffff80821115611ff8575f80fd5b818601915086601f83011261200b575f80fd5b813581811115612019575f80fd5b87602060608302850101111561202d575f80fd5b6020830194508093505050509250925092565b73ffffffffffffffffffffffffffffffffffffffff81168114610d4f575f80fd5b5f60208284031215612071575f80fd5b8135610b6881612040565b5f806040838503121561208d575f80fd5b82359150602083013561209f81612040565b809150509250929050565b815173ffffffffffffffffffffffffffffffffffffffff16815260208083015160ff169082015260408083015163ffffffff16908201526060810161069f565b5f602082840312156120fa575f80fd5b5035919050565b602080825282518282018190525f9190848201906040850190845b8181101561217557612162838551805173ffffffffffffffffffffffffffffffffffffffff16825260208082015160ff169083015260409081015163ffffffff16910152565b928401926060929092019160010161211c565b50909695505050505050565b8015158114610d4f575f80fd5b5f8083601f84011261219e575f80fd5b50813567ffffffffffffffff8111156121b5575f80fd5b602083019150836020828501011115611887575f80fd5b5f805f805f805f8060c0898b0312156121e3575f80fd5b8835975060208901356121f581612040565b965060408901359550606089013561220c81612181565b9450608089013567ffffffffffffffff80821115612228575f80fd5b6122348c838d0161218e565b909650945060a08b013591508082111561224c575f80fd5b506122598b828c0161218e565b999c989b5096995094979396929594505050565b5f805f6060848603121561227f575f80fd5b83359250602084013561229181612040565b915060408401356122a181612040565b809150509250925092565b7f4e487b71000000000000000000000000000000000000000000000000000000005f52604160045260245ffd5b6040516060810167ffffffffffffffff811182821017156122fc576122fc6122ac565b60405290565b60405160a0810167ffffffffffffffff811182821017156122fc576122fc6122ac565b604051601f82017fffffffffffffffffffffffffffffffffffffffffffffffffffffffffffffffe016810167ffffffffffffffff8111828210171561236c5761236c6122ac565b604052919050565b5f67ffffffffffffffff82111561238d5761238d6122ac565b5060051b60200190565b60ff81168114610d4f575f80fd5b63ffffffff81168114610d4f575f80fd5b5f805f80608085870312156123c9575f80fd5b8435935060208086013567ffffffffffffffff8111156123e7575f80fd5b8601601f810188136123f7575f80fd5b803561240a61240582612374565b612325565b8181526060918202830184019184820191908b841115612428575f80fd5b938501935b8385101561248b5780858d031215612443575f80fd5b61244b6122d9565b853561245681612040565b81528587013561246581612397565b81880152604086810135612478816123a5565b908201528352938401939185019161242d565b50979a97995050505060408601359560600135949350505050565b5f805f805f805f805f60e08a8c0312156124be575f80fd5b8935985060208a01356124d081612040565b975060408a0135965060608a01356124e781612040565b955060808a0135945060a08a013567ffffffffffffffff8082111561250a575f80fd5b6125168d838e0161218e565b909650945060c08c013591508082111561252e575f80fd5b5061253b8c828d0161218e565b915080935050809150509295985092959850929598565b5f60608284031215612562575f80fd5b61256a6122d9565b9050815161257781612040565b8152602082015161258781612397565b6020820152604082015161259a816123a5565b604082015292915050565b5f606082840312156125b5575f80fd5b610b688383612552565b5f602082840312156125cf575f80fd5b8151610b6881612040565b5f60208083850312156125eb575f80fd5b825167ffffffffffffffff811115612601575f80fd5b8301601f81018513612611575f80fd5b805161261f61240582612374565b808282526020820191506060602060608502860101935088841115612642575f80fd5b6020850194505b8385101561266a5761265b8986612552565b83529384019391850191612649565b50979650505050505050565b81835281816020850137505f602082840101525f60207fffffffffffffffffffffffffffffffffffffffffffffffffffffffffffffffe0601f840116840101905092915050565b88815273ffffffffffffffffffffffffffffffffffffffff88166020820152866040820152851515606082015260c060808201525f61270060c083018688612676565b82810360a0840152612713818587612676565b9b9a5050505050505050505050565b8981525f73ffffffffffffffffffffffffffffffffffffffff808b16602084015289604084015280891660608401525086608083015260e060a083015261276d60e083018688612676565b82810360c084015261103f818587612676565b5f60208284031215612790575f80fd5b5051919050565b5f602082840312156127a7575f80fd5b8151610b6881612181565b805165ffffffffffff811681146127c7575f80fd5b919050565b5f5b838110156127e65781810151838201526020016127ce565b50505f910152565b5f60208083850312156127ff575f80fd5b825167ffffffffffffffff80821115612816575f80fd5b9084019060a08287031215612829575f80fd5b612831612302565b825181528383015161284281612040565b81850152612852604084016127b2565b6040820152612863606084016127b2565b6060820152608083015182811115612879575f80fd5b80840193505086601f84011261288d575f80fd5b82518281111561289f5761289f6122ac565b6128cf857fffffffffffffffffffffffffffffffffffffffffffffffffffffffffffffffe0601f84011601612325565b925080835287858286010111156128e4575f80fd5b6128f3818685018787016127cc565b50608081019190915295945050505050565b5f61010073ffffffffffffffffffffffffffffffffffffffff80871684528551818151166020860152816020820151166040860152604081015165ffffffffffff80821660608801528060608401511660808801525050508060208701511660a085015250604085015160c08401528060e084015283518082850152610120915061299681838601602088016127cc565b601f017fffffffffffffffffffffffffffffffffffffffffffffffffffffffffffffffe01692909201909101949350505050565b7f4e487b71000000000000000000000000000000000000000000000000000000005f52601160045260245ffd5b8082018082111561069f5761069f6129ca565b7f4e487b71000000000000000000000000000000000000000000000000000000005f52603260045260245ffd5b808202811582820484141761069f5761069f6129ca565b8181038181111561069f5761069f6129ca565b5f8085851115612a6f575f80fd5b83861115612a7b575f80fd5b5050820193919092039150565b7fffffffffffffffffffffffffffffffffffffffff0000000000000000000000008135818116916014851015612ac85780818660140360031b1b83161692505b50509291505056fea2646970667358221220cf8baab716201f840b0344cc7a2e2398290c845acf1c79b5a747fd344eb77b9c64736f6c63430008170033",
	"deployedBytecode": "0x60806040526004361061018e575f3560e01c8063715018a6116100dc578063b4996ee311610087578063f2fde38b11610062578063f2fde38b1461053d578063f3e37d011461055c578063f434c9141461057b578063fef43257146105ae575f80fd5b8063b4996ee3146104bc578063e28b5411146104ea578063edb409501461051a575f80fd5b80638da5cb5b116100b75780638da5cb5b146104545780639e6eec051461047d578063a887538714610490575f80fd5b8063715018a6146103ef57806377d4ad4f146104035780637da0a87714610422575f80fd5b80634e96e7af1161013c578063572b6c0511610117578063572b6c051461033557806368f6ee6c1461038e5780636afdd850146103bc575f80fd5b80634e96e7af146102a95780634fe0eced146102c8578063515a929314610309575f80fd5b806330c236e81161016c57806330c236e81461023f5780633a01714f1461025e5780633b6ece751461028a575f80fd5b806301ffc9a714610192578063253721c8146101c6578063293c4999146101e7575b5f80fd5b34801561019d575f80fd5b506101b16101ac366004611f89565b6105c1565b60405190151581526020015b60405180910390f35b3480156101d1575f80fd5b506101e56101e0366004611fc8565b505050565b005b3480156101f2575f80fd5b5061021a7f000000000000000000000000885f707efa18d2cb12f05a3a8eba6b4b26c8c1d481565b60405173ffffffffffffffffffffffffffffffffffffffff90911681526020016101bd565b34801561024a575f80fd5b506101e5610259366004612061565b6106a5565b348015610269575f80fd5b5061027d61027836600461207c565b61072f565b6040516101bd91906120aa565b348015610295575f80fd5b506101e56102a43660046120ea565b61082c565b3480156102b4575f80fd5b506101e56102c3366004612061565b6109c3565b3480156102d3575f80fd5b5061021a6102e23660046120ea565b60036020525f908152604090205473ffffffffffffffffffffffffffffffffffffffff1681565b348015610314575f80fd5b506103286103233660046120ea565b610a74565b6040516101bd9190612101565b348015610340575f80fd5b506101b161034f366004612061565b7f000000000000000000000000c29d6995ab3b0df4650ad643adeac55e7acbb56673ffffffffffffffffffffffffffffffffffffffff90811691161490565b348015610399575f80fd5b506101b16103a8366004612061565b60046020525f908152604090205460ff1681565b3480156103c7575f80fd5b5061021a7f000000000000000000000000000000000022d473030f116ddee9f6b43ac78ba381565b3480156103fa575f80fd5b506101e5610b6f565b34801561040e575f80fd5b506101e561041d366004612061565b610b82565b34801561042d575f80fd5b507f000000000000000000000000c29d6995ab3b0df4650ad643adeac55e7acbb56661021a565b34801561045f575f80fd5b505f5473ffffffffffffffffffffffffffffffffffffffff1661021a565b6101e561048b3660046121cc565b610c08565b34801561049b575f80fd5b5060015461021a9073ffffffffffffffffffffffffffffffffffffffff1681565b3480156104c7575f80fd5b506101b16104d63660046120ea565b60026020525f908152604090205460ff1681565b3480156104f5575f80fd5b5061050c61050436600461226d565b5f9392505050565b6040519081526020016101bd565b348015610525575f80fd5b5061050c6105343660046123b6565b5f949350505050565b348015610548575f80fd5b506101e5610557366004612061565b610cea565b348015610567575f80fd5b506101e561057636600461207c565b610d52565b348015610586575f80fd5b5061021a7f00000000000000000000000004fd6913d6c32d8c216e153a43c04b1857a7793d81565b61050c6105bc3660046124a6565b610f54565b5f7fffffffff0000000000000000000000000000000000000000000000000000000082167fd339b90000000000000000000000000000000000000000000000000000000000148061065357507fffffffff0000000000000000000000000000000000000000000000000000000082167f21c9410700000000000000000000000000000000000000000000000000000000145b8061069f57507fffffffff0000000000000000000000000000000000000000000000000000000082167f01ffc9a700000000000000000000000000000000000000000000000000000000145b92915050565b6106ad61104f565b73ffffffffffffffffffffffffffffffffffffffff81165f8181526004602090815260409182902080547fffffffffffffffffffffffffffffffffffffffffffffffffffffffffffffff0016905590519182527f081c9106b7938f48ebb1fc9bc57dd0ca565739f83976b06e588ba90be5e0093e91015b60405180910390a150565b604080516060810182525f80825260208201819052918101919091525f8381526003602052604090205473ffffffffffffffffffffffffffffffffffffffff168061078f575060015473ffffffffffffffffffffffffffffffffffffffff165b6040517f3a01714f0000000000000000000000000000000000000000000000000000000081526004810185905273ffffffffffffffffffffffffffffffffffffffff8481166024830152821690633a01714f90604401606060405180830381865afa158015610800573d5f803e3d5ffd5b505050506040513d601f19601f8201168201806040525081019061082491906125a5565b949350505050565b6040517f6352211e000000000000000000000000000000000000000000000000000000008152600481018290526108e5907f000000000000000000000000885f707efa18d2cb12f05a3a8eba6b4b26c8c1d473ffffffffffffffffffffffffffffffffffffffff1690636352211e90602401602060405180830381865afa1580156108b9573d5f803e3d5ffd5b505050506040513d601f19601f820116820180604052508101906108dd91906125bf565b82601a6110f9565b5f81815260026020908152604080832080547fffffffffffffffffffffffffffffffffffffffffffffffffffffffffffffff00166001179055600390915290205473ffffffffffffffffffffffffffffffffffffffff16610993576001545f82815260036020526040902080547fffffffffffffffffffffffff00000000000000000000000000000000000000001673ffffffffffffffffffffffffffffffffffffffff9092169190911790555b6040518181527f2a012daa3ad82fec3db860bb9dde3b37e52c3fbb8faedc62ef5a748ada2af99090602001610724565b6109cb61104f565b600180547fffffffffffffffffffffffff00000000000000000000000000000000000000001673ffffffffffffffffffffffffffffffffffffffff831690811782555f8181526004602090815260409182902080547fffffffffffffffffffffffffffffffffffffffffffffffffffffffffffffff0016909417909355519081527fa9025e4b22d5e3ad459681f7fa0a422df24c6dcf6146f920de489f42a98c171f9101610724565b5f8181526003602052604090205460609073ffffffffffffffffffffffffffffffffffffffff1680610abb575060015473ffffffffffffffffffffffffffffffffffffffff165b6040517f515a92930000000000000000000000000000000000000000000000000000000081526004810184905273ffffffffffffffffffffffffffffffffffffffff82169063515a9293906024015f60405180830381865afa158015610b23573d5f803e3d5ffd5b505050506040513d5f823e601f3d9081017fffffffffffffffffffffffffffffffffffffffffffffffffffffffffffffffe0168201604052610b6891908101906125da565b9392505050565b610b7761104f565b610b805f61127a565b565b610b8a61104f565b73ffffffffffffffffffffffffffffffffffffffff81165f8181526004602090815260409182902080547fffffffffffffffffffffffffffffffffffffffffffffffffffffffffffffff0016600117905590519182527f853f2dbda0acc2e0a0aa55f3486133966cd4fd55a17bdb8d1335017cbedfd0a09101610724565b5f8881526003602052604090205473ffffffffffffffffffffffffffffffffffffffff1680610c4c575060015473ffffffffffffffffffffffffffffffffffffffff165b610c58888885856112ee565b96505f610c66828a8a611616565b90508173ffffffffffffffffffffffffffffffffffffffff16639e6eec05828c8c8c8c8c8c8c8c6040518a63ffffffff1660e01b8152600401610cb09897969594939291906126bd565b5f604051808303818588803b158015610cc7575f80fd5b505af1158015610cd9573d5f803e3d5ffd5b505050505050505050505050505050565b610cf261104f565b73ffffffffffffffffffffffffffffffffffffffff8116610d46576040517f1e4fbdf70000000000000000000000000000000000000000000000000000000081525f60048201526024015b60405180910390fd5b610d4f8161127a565b50565b5f8281526002602052604090205460ff1615610d9d576040517f38c272ec00000000000000000000000000000000000000000000000000000000815260048101839052602401610d3d565b73ffffffffffffffffffffffffffffffffffffffff81165f9081526004602052604090205460ff16610e13576040517f5e6b610d00000000000000000000000000000000000000000000000000000000815273ffffffffffffffffffffffffffffffffffffffff82166004820152602401610d3d565b6040517f6352211e00000000000000000000000000000000000000000000000000000000815260048101839052610ecc907f000000000000000000000000885f707efa18d2cb12f05a3a8eba6b4b26c8c1d473ffffffffffffffffffffffffffffffffffffffff1690636352211e90602401602060405180830381865afa158015610ea0573d5f803e3d5ffd5b505050506040513d601f19601f82011682018060405250810190610ec491906125bf565b83601a6110f9565b5f8281526003602090815260409182902080547fffffffffffffffffffffffff00000000000000000000000000000000000000001673ffffffffffffffffffffffffffffffffffffffff8516908117909155915191825283917f92b23dbea87c2600ada32dc8979118d79dc2fb31cc7ae7917f6413c81171095b910160405180910390a25050565b5f8981526003602052604081205473ffffffffffffffffffffffffffffffffffffffff1680610f98575060015473ffffffffffffffffffffffffffffffffffffffff165b610fa48a8a86866112ee565b98505f610fb2828c8c611616565b90508173ffffffffffffffffffffffffffffffffffffffff1663fef43257828e8e8e8e8e8e8e8e8e6040518b63ffffffff1660e01b8152600401610ffe99989796959493929190612722565b60206040518083038185885af115801561101a573d5f803e3d5ffd5b50505050506040513d601f19601f8201168201806040525081019061103f9190612780565b9c9b505050505050505050505050565b611057611685565b73ffffffffffffffffffffffffffffffffffffffff1661108b5f5473ffffffffffffffffffffffffffffffffffffffff1690565b73ffffffffffffffffffffffffffffffffffffffff1614610b80576110ae611685565b6040517f118cdaa700000000000000000000000000000000000000000000000000000000815273ffffffffffffffffffffffffffffffffffffffff9091166004820152602401610d3d565b5f611102611685565b90508373ffffffffffffffffffffffffffffffffffffffff168173ffffffffffffffffffffffffffffffffffffffff161415801561120f57506040517f348b684e00000000000000000000000000000000000000000000000000000000815273ffffffffffffffffffffffffffffffffffffffff82811660048301528581166024830152604482018590526064820184905260016084830181905260a48301527f00000000000000000000000004fd6913d6c32d8c216e153a43c04b1857a7793d169063348b684e9060c401602060405180830381865afa1580156111e9573d5f803e3d5ffd5b505050506040513d601f19601f8201168201806040525081019061120d9190612797565b155b15611274576040517f264deeaa00000000000000000000000000000000000000000000000000000000815273ffffffffffffffffffffffffffffffffffffffff8086166004830152821660248201526044810184905260648101839052608401610d3d565b50505050565b5f805473ffffffffffffffffffffffffffffffffffffffff8381167fffffffffffffffffffffffff0000000000000000000000000000000000000000831681178455604051919092169283917f8be0079c531659141344cd1fd0a4f28419497f9722a3daafe3b4186f6b6457e09190a35050565b5f7fffffffffffffffffffffffffffffffffffffffffffffffffffffffffffff111273ffffffffffffffffffffffffffffffffffffffff861601611333575034610824565b341561136d576040517fab181333000000000000000000000000000000000000000000000000000000008152346004820152602401610d3d565b5f806113eb6113b06040518060400160405280600781526020017f7065726d69743200000000000000000000000000000000000000000000000000815250611693565b86868080601f0160208091040260200160405190810160405280939291908181526020018383808284375f920191909152506116a692505050565b91509150811561156c575f8180602001905181019061140a91906127ee565b9050806020015173ffffffffffffffffffffffffffffffffffffffff168711156114855760208101516040517f0f14d60f0000000000000000000000000000000000000000000000000000000081526004810189905273ffffffffffffffffffffffffffffffffffffffff9091166024820152604401610d3d565b6040805160e08101825273ffffffffffffffffffffffffffffffffffffffff808b166060808401918252602086810151841660808601528686015165ffffffffffff90811660a08701529187015190911660c08501529083523090830152835192820192909252907f000000000000000000000000000000000022d473030f116ddee9f6b43ac78ba316632b67b57061151c611685565b8385608001516040518463ffffffff1660e01b815260040161154093929190612905565b5f604051808303815f87803b158015611557575f80fd5b505af1925050508015611568575060015b5050505b61157f611577611685565b30898961188e565b6040517f70a0823100000000000000000000000000000000000000000000000000000000815230600482015273ffffffffffffffffffffffffffffffffffffffff8816906370a0823190602401602060405180830381865afa1580156115e7573d5f803e3d5ffd5b505050506040513d601f19601f8201168201806040525081019061160b9190612780565b979650505050505050565b5f7fffffffffffffffffffffffffffffffffffffffffffffffffffffffffffff111273ffffffffffffffffffffffffffffffffffffffff84160161165b575080610b68565b61167c73ffffffffffffffffffffffffffffffffffffffff84168584611a90565b505f9392505050565b5f61168e611b3d565b905090565b805160208201205f903060601b1861069f565b5f606060258351116116c957505060408051602081019091525f80825290611887565b5f836116d7600460206129f7565b815181106116e7576116e7612a0a565b0160209081015160f81c91505b5f856117016004846129f7565b8151811061171157611711612a0a565b01602001517fff00000000000000000000000000000000000000000000000000000000000000161480159061174f575061174c602083612a37565b81105b15611884575f856117616004846129f7565b8151811061177157611771612a0a565b016020908101518784019091015160f89190911c91507fffffffff000000000000000000000000000000000000000000000000000000008089169082160361187a575f6117bf602086612a37565b6117ca6009866129f7565b1015806118175750876117de6009866129f7565b815181106117ee576117ee612a0a565b01602001517fff0000000000000000000000000000000000000000000000000000000000000016155b611850576020886118296009876129f7565b8151811061183957611839612a0a565b016020015161184b919060f81c612a37565b611853565b87515b9050600161186c89611866602087612a37565b84611bbd565b965096505050505050611887565b50506005016116f4565b50505b9250929050565b3073ffffffffffffffffffffffffffffffffffffffff851603611918577fffffffffffffffffffffffffffffffffffffffffffffffffffffffffffff111273ffffffffffffffffffffffffffffffffffffffff8316016118f7576118f28382611c02565b611274565b6118f273ffffffffffffffffffffffffffffffffffffffff83168483611cb4565b6040517fdd62ed3e00000000000000000000000000000000000000000000000000000000815273ffffffffffffffffffffffffffffffffffffffff858116600483015230602483015282919084169063dd62ed3e90604401602060405180830381865afa15801561198b573d5f803e3d5ffd5b505050506040513d601f19601f820116820180604052508101906119af9190612780565b106119d6576118f273ffffffffffffffffffffffffffffffffffffffff8316858584611d35565b6040517f36c7851600000000000000000000000000000000000000000000000000000000815273ffffffffffffffffffffffffffffffffffffffff85811660048301528481166024830152828116604483015283811660648301527f000000000000000000000000000000000022d473030f116ddee9f6b43ac78ba316906336c78516906084015f604051808303815f87803b158015611a74575f80fd5b505af1158015611a86573d5f803e3d5ffd5b5050505050505050565b6040517fdd62ed3e00000000000000000000000000000000000000000000000000000000815230600482015273ffffffffffffffffffffffffffffffffffffffff83811660248301525f919085169063dd62ed3e90604401602060405180830381865afa158015611b03573d5f803e3d5ffd5b505050506040513d601f19601f82011682018060405250810190611b279190612780565b90506112748484611b3885856129f7565b611d7b565b5f3660143373ffffffffffffffffffffffffffffffffffffffff7f000000000000000000000000c29d6995ab3b0df4650ad643adeac55e7acbb56616148015611b865750808210155b15611bb5575f36611b978385612a4e565b611ba2928290612a61565b611bab91612a88565b60601c9250505090565b339250505090565b6060828203604051915060208183010160405280825250826020850101602082015f5b84811015611bf8578281015182820152602001611be0565b5050509392505050565b80471015611c45576040517fcf47918100000000000000000000000000000000000000000000000000000000815247600482015260248101829052604401610d3d565b5f808373ffffffffffffffffffffffffffffffffffffffff16836040515f6040518083038185875af1925050503d805f8114611c9c576040519150601f19603f3d011682016040523d82523d5f602084013e611ca1565b606091505b5091509150816112745761127481611e52565b60405173ffffffffffffffffffffffffffffffffffffffff8381166024830152604482018390526101e091859182169063a9059cbb906064015b604051602081830303815290604052915060e01b6020820180517bffffffffffffffffffffffffffffffffffffffffffffffffffffffff8381831617835250505050611e94565b60405173ffffffffffffffffffffffffffffffffffffffff84811660248301528381166044830152606482018390526112749186918216906323b872dd90608401611cee565b6040805173ffffffffffffffffffffffffffffffffffffffff8416602482015260448082018490528251808303909101815260649091019091526020810180517bffffffffffffffffffffffffffffffffffffffffffffffffffffffff167f095ea7b300000000000000000000000000000000000000000000000000000000179052611e078482611f33565b6112745760405173ffffffffffffffffffffffffffffffffffffffff84811660248301525f6044830152611e4891869182169063095ea7b390606401611cee565b6112748482611e94565b805115611e625780518082602001fd5b6040517fd6bda27500000000000000000000000000000000000000000000000000000000815260040160405180910390fd5b5f8060205f8451602086015f885af180611eb3576040513d5f823e3d81fd5b50505f513d91508115611eca578060011415611ee4565b73ffffffffffffffffffffffffffffffffffffffff84163b155b15611274576040517f5274afe700000000000000000000000000000000000000000000000000000000815273ffffffffffffffffffffffffffffffffffffffff85166004820152602401610d3d565b5f805f8060205f8651602088015f8a5af192503d91505f519050828015611f7f57508115611f645780600114611f7f565b5f8673ffffffffffffffffffffffffffffffffffffffff163b115b9695505050505050565b5f60208284031215611f99575f80fd5b81357fffffffff0000000000000000000000000000000000000000000000000000000081168114610b68575f80fd5b5f805f60408486031215611fda575f80fd5b83359250602084013567ffffffffffffffff80821115611ff8575f80fd5b818601915086601f83011261200b575f80fd5b813581811115612019575f80fd5b87602060608302850101111561202d575f80fd5b6020830194508093505050509250925092565b73ffffffffffffffffffffffffffffffffffffffff81168114610d4f575f80fd5b5f60208284031215612071575f80fd5b8135610b6881612040565b5f806040838503121561208d575f80fd5b82359150602083013561209f81612040565b809150509250929050565b815173ffffffffffffffffffffffffffffffffffffffff16815260208083015160ff169082015260408083015163ffffffff16908201526060810161069f565b5f602082840312156120fa575f80fd5b5035919050565b602080825282518282018190525f9190848201906040850190845b8181101561217557612162838551805173ffffffffffffffffffffffffffffffffffffffff16825260208082015160ff169083015260409081015163ffffffff16910152565b928401926060929092019160010161211c565b50909695505050505050565b8015158114610d4f575f80fd5b5f8083601f84011261219e575f80fd5b50813567ffffffffffffffff8111156121b5575f80fd5b602083019150836020828501011115611887575f80fd5b5f805f805f805f8060c0898b0312156121e3575f80fd5b8835975060208901356121f581612040565b965060408901359550606089013561220c81612181565b9450608089013567ffffffffffffffff80821115612228575f80fd5b6122348c838d0161218e565b909650945060a08b013591508082111561224c575f80fd5b506122598b828c0161218e565b999c989b5096995094979396929594505050565b5f805f6060848603121561227f575f80fd5b83359250602084013561229181612040565b915060408401356122a181612040565b809150509250925092565b7f4e487b71000000000000000000000000000000000000000000000000000000005f52604160045260245ffd5b6040516060810167ffffffffffffffff811182821017156122fc576122fc6122ac565b60405290565b60405160a0810167ffffffffffffffff811182821017156122fc576122fc6122ac565b604051601f82017fffffffffffffffffffffffffffffffffffffffffffffffffffffffffffffffe016810167ffffffffffffffff8111828210171561236c5761236c6122ac565b604052919050565b5f67ffffffffffffffff82111561238d5761238d6122ac565b5060051b60200190565b60ff81168114610d4f575f80fd5b63ffffffff81168114610d4f575f80fd5b5f805f80608085870312156123c9575f80fd5b8435935060208086013567ffffffffffffffff8111156123e7575f80fd5b8601601f810188136123f7575f80fd5b803561240a61240582612374565b612325565b8181526060918202830184019184820191908b841115612428575f80fd5b938501935b8385101561248b5780858d031215612443575f80fd5b61244b6122d9565b853561245681612040565b81528587013561246581612397565b81880152604086810135612478816123a5565b908201528352938401939185019161242d565b50979a97995050505060408601359560600135949350505050565b5f805f805f805f805f60e08a8c0312156124be575f80fd5b8935985060208a01356124d081612040565b975060408a0135965060608a01356124e781612040565b955060808a0135945060a08a013567ffffffffffffffff8082111561250a575f80fd5b6125168d838e0161218e565b909650945060c08c013591508082111561252e575f80fd5b5061253b8c828d0161218e565b915080935050809150509295985092959850929598565b5f60608284031215612562575f80fd5b61256a6122d9565b9050815161257781612040565b8152602082015161258781612397565b6020820152604082015161259a816123a5565b604082015292915050565b5f606082840312156125b5575f80fd5b610b688383612552565b5f602082840312156125cf575f80fd5b8151610b6881612040565b5f60208083850312156125eb575f80fd5b825167ffffffffffffffff811115612601575f80fd5b8301601f81018513612611575f80fd5b805161261f61240582612374565b808282526020820191506060602060608502860101935088841115612642575f80fd5b6020850194505b8385101561266a5761265b8986612552565b83529384019391850191612649565b50979650505050505050565b81835281816020850137505f602082840101525f60207fffffffffffffffffffffffffffffffffffffffffffffffffffffffffffffffe0601f840116840101905092915050565b88815273ffffffffffffffffffffffffffffffffffffffff88166020820152866040820152851515606082015260c060808201525f61270060c083018688612676565b82810360a0840152612713818587612676565b9b9a5050505050505050505050565b8981525f73ffffffffffffffffffffffffffffffffffffffff808b16602084015289604084015280891660608401525086608083015260e060a083015261276d60e083018688612676565b82810360c084015261103f818587612676565b5f60208284031215612790575f80fd5b5051919050565b5f602082840312156127a7575f80fd5b8151610b6881612181565b805165ffffffffffff811681146127c7575f80fd5b919050565b5f5b838110156127e65781810151838201526020016127ce565b50505f910152565b5f60208083850312156127ff575f80fd5b825167ffffffffffffffff80821115612816575f80fd5b9084019060a08287031215612829575f80fd5b612831612302565b825181528383015161284281612040565b81850152612852604084016127b2565b6040820152612863606084016127b2565b6060820152608083015182811115612879575f80fd5b80840193505086601f84011261288d575f80fd5b82518281111561289f5761289f6122ac565b6128cf857fffffffffffffffffffffffffffffffffffffffffffffffffffffffffffffffe0601f84011601612325565b925080835287858286010111156128e4575f80fd5b6128f3818685018787016127cc565b50608081019190915295945050505050565b5f61010073ffffffffffffffffffffffffffffffffffffffff80871684528551818151166020860152816020820151166040860152604081015165ffffffffffff80821660608801528060608401511660808801525050508060208701511660a085015250604085015160c08401528060e084015283518082850152610120915061299681838601602088016127cc565b601f017fffffffffffffffffffffffffffffffffffffffffffffffffffffffffffffffe01692909201909101949350505050565b7f4e487b71000000000000000000000000000000000000000000000000000000005f52601160045260245ffd5b8082018082111561069f5761069f6129ca565b7f4e487b71000000000000000000000000000000000000000000000000000000005f52603260045260245ffd5b808202811582820484141761069f5761069f6129ca565b8181038181111561069f5761069f6129ca565b5f8085851115612a6f575f80fd5b83861115612a7b575f80fd5b5050820193919092039150565b7fffffffffffffffffffffffffffffffffffffffff0000000000000000000000008135818116916014851015612ac85780818660140360031b1b83161692505b50509291505056fea2646970667358221220cf8baab716201f840b0344cc7a2e2398290c845acf1c79b5a747fd344eb77b9c64736f6c63430008170033",
	"gitCommit": "9bac2aac5daca5cf136b964de9a6ce20c75e9516",
	"history": []
}