{
	"_format": "sphinx-sol-ct-artifact-1",
	"merkleRoot": "0xc084e537049e417476f8f496daa240250d5d8ea8d647546bc316a7613a02d0a6",
	"contractName": "JBSwapTerminal",
	"address": "0xAD1f73D33F10f2A57034065218b29310555f0600",
	"abi": [
		{
			"type": "constructor",
			"inputs": [
				{
					"name": "projects",
					"type": "address",
					"internalType": "contract IJBProjects"
				},
				{
					"name": "permissions",
					"type": "address",
					"internalType": "contract IJBPermissions"
				},
				{
					"name": "directory",
					"type": "address",
					"internalType": "contract IJBDirectory"
				},
				{
					"name": "permit2",
					"type": "address",
					"internalType": "contract IPermit2"
				},
				{
					"name": "_owner",
					"type": "address",
					"internalType": "address"
				},
				{
					"name": "weth",
					"type": "address",
					"internalType": "contract IWETH9"
				}
			],
			"stateMutability": "nonpayable"
		},
		{
			"type": "receive",
			"stateMutability": "payable"
		},
		{
			"type": "function",
			"name": "DIRECTORY",
			"inputs": [],
			"outputs": [
				{
					"name": "",
					"type": "address",
					"internalType": "contract IJBDirectory"
				}
			],
			"stateMutability": "view"
		},
		{
			"type": "function",
			"name": "PERMISSIONS",
			"inputs": [],
			"outputs": [
				{
					"name": "",
					"type": "address",
					"internalType": "contract IJBPermissions"
				}
			],
			"stateMutability": "view"
		},
		{
			"type": "function",
			"name": "PERMIT2",
			"inputs": [],
			"outputs": [
				{
					"name": "",
					"type": "address",
					"internalType": "contract IPermit2"
				}
			],
			"stateMutability": "view"
		},
		{
			"type": "function",
			"name": "PROJECTS",
			"inputs": [],
			"outputs": [
				{
					"name": "",
					"type": "address",
					"internalType": "contract IJBProjects"
				}
			],
			"stateMutability": "view"
		},
		{
			"type": "function",
			"name": "STORE",
			"inputs": [],
			"outputs": [
				{
					"name": "",
					"type": "address",
					"internalType": "contract IJBTerminalStore"
				}
			],
			"stateMutability": "view"
		},
		{
			"type": "function",
			"name": "WETH",
			"inputs": [],
			"outputs": [
				{
					"name": "",
					"type": "address",
					"internalType": "contract IWETH9"
				}
			],
			"stateMutability": "view"
		},
		{
			"type": "function",
			"name": "accountingContextForTokenOf",
			"inputs": [
				{
					"name": "projectId",
					"type": "uint256",
					"internalType": "uint256"
				},
				{
					"name": "token",
					"type": "address",
					"internalType": "address"
				}
			],
			"outputs": [
				{
					"name": "",
					"type": "tuple",
					"internalType": "struct JBAccountingContext",
					"components": [
						{
							"name": "token",
							"type": "address",
							"internalType": "address"
						},
						{
							"name": "decimals",
							"type": "uint8",
							"internalType": "uint8"
						},
						{
							"name": "currency",
							"type": "uint32",
							"internalType": "uint32"
						}
					]
				}
			],
			"stateMutability": "view"
		},
		{
			"type": "function",
			"name": "accountingContextsOf",
			"inputs": [
				{
					"name": "projectId",
					"type": "uint256",
					"internalType": "uint256"
				}
			],
			"outputs": [
				{
					"name": "",
					"type": "tuple[]",
					"internalType": "struct JBAccountingContext[]",
					"components": [
						{
							"name": "token",
							"type": "address",
							"internalType": "address"
						},
						{
							"name": "decimals",
							"type": "uint8",
							"internalType": "uint8"
						},
						{
							"name": "currency",
							"type": "uint32",
							"internalType": "uint32"
						}
					]
				}
			],
			"stateMutability": "view"
		},
		{
			"type": "function",
			"name": "addAccountingContextsFor",
			"inputs": [
				{
					"name": "projectId",
					"type": "uint256",
					"internalType": "uint256"
				},
				{
					"name": "tokens",
					"type": "address[]",
					"internalType": "address[]"
				}
			],
			"outputs": [],
			"stateMutability": "nonpayable"
		},
		{
			"type": "function",
			"name": "addDefaultPool",
			"inputs": [
				{
					"name": "projectId",
					"type": "uint256",
					"internalType": "uint256"
				},
				{
					"name": "token",
					"type": "address",
					"internalType": "address"
				},
				{
					"name": "pool",
					"type": "address",
					"internalType": "contract IUniswapV3Pool"
				}
			],
			"outputs": [],
			"stateMutability": "nonpayable"
		},
		{
			"type": "function",
			"name": "addToBalanceOf",
			"inputs": [
				{
					"name": "",
					"type": "uint256",
					"internalType": "uint256"
				},
				{
					"name": "",
					"type": "address",
					"internalType": "address"
				},
				{
					"name": "",
					"type": "uint256",
					"internalType": "uint256"
				},
				{
					"name": "",
					"type": "bool",
					"internalType": "bool"
				},
				{
					"name": "",
					"type": "string",
					"internalType": "string"
				},
				{
					"name": "",
					"type": "bytes",
					"internalType": "bytes"
				}
			],
			"outputs": [],
			"stateMutability": "payable"
		},
		{
			"type": "function",
			"name": "addTwapParamsFor",
			"inputs": [
				{
					"name": "projectId",
					"type": "uint256",
					"internalType": "uint256"
				},
				{
					"name": "pool",
					"type": "address",
					"internalType": "contract IUniswapV3Pool"
				},
				{
					"name": "secondsAgo",
					"type": "uint32",
					"internalType": "uint32"
				},
				{
					"name": "slippageTolerance",
					"type": "uint160",
					"internalType": "uint160"
				}
			],
			"outputs": [],
			"stateMutability": "nonpayable"
		},
		{
			"type": "function",
			"name": "currentSurplusOf",
			"inputs": [
				{
					"name": "projectId",
					"type": "uint256",
					"internalType": "uint256"
				},
				{
					"name": "decimals",
					"type": "uint256",
					"internalType": "uint256"
				},
				{
					"name": "currency",
					"type": "uint256",
					"internalType": "uint256"
				}
			],
			"outputs": [
				{
					"name": "",
					"type": "uint256",
					"internalType": "uint256"
				}
			],
			"stateMutability": "view"
		},
		{
			"type": "function",
			"name": "getPoolFor",
			"inputs": [
				{
					"name": "projectId",
					"type": "uint256",
					"internalType": "uint256"
				},
				{
					"name": "tokenIn",
					"type": "address",
					"internalType": "address"
				}
			],
			"outputs": [
				{
					"name": "",
					"type": "address",
					"internalType": "contract IUniswapV3Pool"
				}
			],
			"stateMutability": "view"
		},
		{
			"type": "function",
			"name": "migrateBalanceOf",
			"inputs": [
				{
					"name": "projectId",
					"type": "uint256",
					"internalType": "uint256"
				},
				{
					"name": "token",
					"type": "address",
					"internalType": "address"
				},
				{
					"name": "to",
					"type": "address",
					"internalType": "contract IJBTerminal"
				}
			],
			"outputs": [
				{
					"name": "balance",
					"type": "uint256",
					"internalType": "uint256"
				}
			],
			"stateMutability": "nonpayable"
		},
		{
			"type": "function",
			"name": "owner",
			"inputs": [],
			"outputs": [
				{
					"name": "",
					"type": "address",
					"internalType": "address"
				}
			],
			"stateMutability": "view"
		},
		{
			"type": "function",
			"name": "pay",
			"inputs": [
				{
					"name": "projectId",
					"type": "uint256",
					"internalType": "uint256"
				},
				{
					"name": "token",
					"type": "address",
					"internalType": "address"
				},
				{
					"name": "amount",
					"type": "uint256",
					"internalType": "uint256"
				},
				{
					"name": "beneficiary",
					"type": "address",
					"internalType": "address"
				},
				{
					"name": "minReturnedTokens",
					"type": "uint256",
					"internalType": "uint256"
				},
				{
					"name": "memo",
					"type": "string",
					"internalType": "string"
				},
				{
					"name": "metadata",
					"type": "bytes",
					"internalType": "bytes"
				}
			],
			"outputs": [
				{
					"name": "",
					"type": "uint256",
					"internalType": "uint256"
				}
			],
			"stateMutability": "payable"
		},
		{
			"type": "function",
			"name": "renounceOwnership",
			"inputs": [],
			"outputs": [],
			"stateMutability": "nonpayable"
		},
		{
			"type": "function",
			"name": "supportsInterface",
			"inputs": [
				{
					"name": "interfaceId",
					"type": "bytes4",
					"internalType": "bytes4"
				}
			],
			"outputs": [
				{
					"name": "",
					"type": "bool",
					"internalType": "bool"
				}
			],
			"stateMutability": "view"
		},
		{
			"type": "function",
			"name": "transferOwnership",
			"inputs": [
				{
					"name": "newOwner",
					"type": "address",
					"internalType": "address"
				}
			],
			"outputs": [],
			"stateMutability": "nonpayable"
		},
		{
			"type": "function",
			"name": "twapParamsOf",
			"inputs": [
				{
					"name": "projectId",
					"type": "uint256",
					"internalType": "uint256"
				},
				{
					"name": "pool",
					"type": "address",
					"internalType": "contract IUniswapV3Pool"
				}
			],
			"outputs": [
				{
					"name": "secondsAgo",
					"type": "uint32",
					"internalType": "uint32"
				},
				{
					"name": "slippageTolerance",
					"type": "uint160",
					"internalType": "uint160"
				}
			],
			"stateMutability": "view"
		},
		{
			"type": "function",
			"name": "uniswapV3SwapCallback",
			"inputs": [
				{
					"name": "amount0Delta",
					"type": "int256",
					"internalType": "int256"
				},
				{
					"name": "amount1Delta",
					"type": "int256",
					"internalType": "int256"
				},
				{
					"name": "data",
					"type": "bytes",
					"internalType": "bytes"
				}
			],
			"outputs": [],
			"stateMutability": "nonpayable"
		},
		{
			"type": "event",
			"name": "AddToBalance",
			"inputs": [
				{
					"name": "projectId",
					"type": "uint256",
					"indexed": true,
					"internalType": "uint256"
				},
				{
					"name": "amount",
					"type": "uint256",
					"indexed": false,
					"internalType": "uint256"
				},
				{
					"name": "unlockedFees",
					"type": "uint256",
					"indexed": false,
					"internalType": "uint256"
				},
				{
					"name": "memo",
					"type": "string",
					"indexed": false,
					"internalType": "string"
				},
				{
					"name": "metadata",
					"type": "bytes",
					"indexed": false,
					"internalType": "bytes"
				},
				{
					"name": "caller",
					"type": "address",
					"indexed": false,
					"internalType": "address"
				}
			],
			"anonymous": false
		},
		{
			"type": "event",
			"name": "HookAfterRecordPay",
			"inputs": [
				{
					"name": "hook",
					"type": "address",
					"indexed": true,
					"internalType": "contract IJBPayHook"
				},
				{
					"name": "context",
					"type": "tuple",
					"indexed": false,
					"internalType": "struct JBAfterPayRecordedContext",
					"components": [
						{
							"name": "payer",
							"type": "address",
							"internalType": "address"
						},
						{
							"name": "projectId",
							"type": "uint256",
							"internalType": "uint256"
						},
						{
							"name": "rulesetId",
							"type": "uint256",
							"internalType": "uint256"
						},
						{
							"name": "amount",
							"type": "tuple",
							"internalType": "struct JBTokenAmount",
							"components": [
								{
									"name": "token",
									"type": "address",
									"internalType": "address"
								},
								{
									"name": "value",
									"type": "uint256",
									"internalType": "uint256"
								},
								{
									"name": "decimals",
									"type": "uint256",
									"internalType": "uint256"
								},
								{
									"name": "currency",
									"type": "uint256",
									"internalType": "uint256"
								}
							]
						},
						{
							"name": "forwardedAmount",
							"type": "tuple",
							"internalType": "struct JBTokenAmount",
							"components": [
								{
									"name": "token",
									"type": "address",
									"internalType": "address"
								},
								{
									"name": "value",
									"type": "uint256",
									"internalType": "uint256"
								},
								{
									"name": "decimals",
									"type": "uint256",
									"internalType": "uint256"
								},
								{
									"name": "currency",
									"type": "uint256",
									"internalType": "uint256"
								}
							]
						},
						{
							"name": "weight",
							"type": "uint256",
							"internalType": "uint256"
						},
						{
							"name": "projectTokenCount",
							"type": "uint256",
							"internalType": "uint256"
						},
						{
							"name": "beneficiary",
							"type": "address",
							"internalType": "address"
						},
						{
							"name": "hookMetadata",
							"type": "bytes",
							"internalType": "bytes"
						},
						{
							"name": "payerMetadata",
							"type": "bytes",
							"internalType": "bytes"
						}
					]
				},
				{
					"name": "specificationAmount",
					"type": "uint256",
					"indexed": false,
					"internalType": "uint256"
				},
				{
					"name": "caller",
					"type": "address",
					"indexed": false,
					"internalType": "address"
				}
			],
			"anonymous": false
		},
		{
			"type": "event",
			"name": "MigrateTerminal",
			"inputs": [
				{
					"name": "projectId",
					"type": "uint256",
					"indexed": true,
					"internalType": "uint256"
				},
				{
					"name": "token",
					"type": "address",
					"indexed": true,
					"internalType": "address"
				},
				{
					"name": "to",
					"type": "address",
					"indexed": true,
					"internalType": "contract IJBTerminal"
				},
				{
					"name": "amount",
					"type": "uint256",
					"indexed": false,
					"internalType": "uint256"
				},
				{
					"name": "caller",
					"type": "address",
					"indexed": false,
					"internalType": "address"
				}
			],
			"anonymous": false
		},
		{
			"type": "event",
			"name": "OwnershipTransferred",
			"inputs": [
				{
					"name": "previousOwner",
					"type": "address",
					"indexed": true,
					"internalType": "address"
				},
				{
					"name": "newOwner",
					"type": "address",
					"indexed": true,
					"internalType": "address"
				}
			],
			"anonymous": false
		},
		{
			"type": "event",
			"name": "Pay",
			"inputs": [
				{
					"name": "rulesetId",
					"type": "uint256",
					"indexed": true,
					"internalType": "uint256"
				},
				{
					"name": "rulesetCycleNumber",
					"type": "uint256",
					"indexed": true,
					"internalType": "uint256"
				},
				{
					"name": "projectId",
					"type": "uint256",
					"indexed": true,
					"internalType": "uint256"
				},
				{
					"name": "payer",
					"type": "address",
					"indexed": false,
					"internalType": "address"
				},
				{
					"name": "beneficiary",
					"type": "address",
					"indexed": false,
					"internalType": "address"
				},
				{
					"name": "amount",
					"type": "uint256",
					"indexed": false,
					"internalType": "uint256"
				},
				{
					"name": "beneficiaryTokenCount",
					"type": "uint256",
					"indexed": false,
					"internalType": "uint256"
				},
				{
					"name": "memo",
					"type": "string",
					"indexed": false,
					"internalType": "string"
				},
				{
					"name": "metadata",
					"type": "bytes",
					"indexed": false,
					"internalType": "bytes"
				},
				{
					"name": "caller",
					"type": "address",
					"indexed": false,
					"internalType": "address"
				}
			],
			"anonymous": false
		},
		{
			"type": "event",
			"name": "SetAccountingContext",
			"inputs": [
				{
					"name": "projectId",
					"type": "uint256",
					"indexed": true,
					"internalType": "uint256"
				},
				{
					"name": "token",
					"type": "address",
					"indexed": true,
					"internalType": "address"
				},
				{
					"name": "context",
					"type": "tuple",
					"indexed": false,
					"internalType": "struct JBAccountingContext",
					"components": [
						{
							"name": "token",
							"type": "address",
							"internalType": "address"
						},
						{
							"name": "decimals",
							"type": "uint8",
							"internalType": "uint8"
						},
						{
							"name": "currency",
							"type": "uint32",
							"internalType": "uint32"
						}
					]
				},
				{
					"name": "caller",
					"type": "address",
					"indexed": false,
					"internalType": "address"
				}
			],
			"anonymous": false
		},
		{
			"type": "error",
			"name": "AddressEmptyCode",
			"inputs": [
				{
					"name": "target",
					"type": "address",
					"internalType": "address"
				}
			]
		},
		{
			"type": "error",
			"name": "AddressInsufficientBalance",
			"inputs": [
				{
					"name": "account",
					"type": "address",
					"internalType": "address"
				}
			]
		},
		{
			"type": "error",
			"name": "FailedInnerCall",
			"inputs": []
		},
		{
			"type": "error",
			"name": "MAX_SLIPPAGE",
			"inputs": [
				{
					"name": "",
					"type": "uint256",
					"internalType": "uint256"
				},
				{
					"name": "",
					"type": "uint256",
					"internalType": "uint256"
				}
			]
		},
		{
			"type": "error",
			"name": "NO_DEFAULT_POOL_DEFINED",
			"inputs": []
		},
		{
			"type": "error",
			"name": "NO_MSG_VALUE_ALLOWED",
			"inputs": []
		},
		{
			"type": "error",
			"name": "OwnableInvalidOwner",
			"inputs": [
				{
					"name": "owner",
					"type": "address",
					"internalType": "address"
				}
			]
		},
		{
			"type": "error",
			"name": "OwnableUnauthorizedAccount",
			"inputs": [
				{
					"name": "account",
					"type": "address",
					"internalType": "address"
				}
			]
		},
		{
			"type": "error",
			"name": "PERMIT_ALLOWANCE_NOT_ENOUGH",
			"inputs": []
		},
		{
			"type": "error",
			"name": "SafeERC20FailedOperation",
			"inputs": [
				{
					"name": "token",
					"type": "address",
					"internalType": "address"
				}
			]
		},
		{
			"type": "error",
			"name": "T",
			"inputs": []
		},
		{
			"type": "error",
			"name": "TOKEN_NOT_ACCEPTED",
			"inputs": []
		},
		{
			"type": "error",
			"name": "TOKEN_NOT_IN_POOL",
			"inputs": []
		},
		{
			"type": "error",
			"name": "UNAUTHORIZED",
			"inputs": []
		},
		{
			"type": "error",
			"name": "UNSUPPORTED",
			"inputs": []
		}
	],
	"solcInputHash": "596e07c1c6e9262b7d393e6e6672bdd9",
	"args": [
		"0x45452B26fe78D2b83247279F87c847F4F4A8FCEb",
		"0xa1Ba58fcA530D0b011646167C9EB81F54d9C9dF6",
		"0x6A6988E79a621Fc7Ea74D67a31E9cefCcC98e949",
		"0x000000000022D473030F116dDEE9F6B43aC78BA3",
		"0x823b92d6a4b2AED4b15675c7917c9f922ea8ADAD",
		"0x7b79995e5f793A07Bc00c21412e50Ecae098E7f9"
	],
	"bytecode": "0x610140604052600580546001600160a01b0319166127101790553480156200002657600080fd5b50604051620037a8380380620037a883398101604081905262000049916200011e565b6001600160a01b03808616608052829081166200008057604051631e4fbdf760e01b81526000600482015260240160405180910390fd5b6200008b81620000b5565b506001600160a01b0395861660a05292851660c052508316610100529091166101205250620001b2565b600080546001600160a01b038381166001600160a01b0319831681178455604051919092169283917f8be0079c531659141344cd1fd0a4f28419497f9722a3daafe3b4186f6b6457e09190a35050565b6001600160a01b03811681146200011b57600080fd5b50565b60008060008060008060c087890312156200013857600080fd5b8651620001458162000105565b6020880151909650620001588162000105565b60408801519095506200016b8162000105565b60608801519094506200017e8162000105565b6080880151909350620001918162000105565b60a0880151909250620001a48162000105565b809150509295509295509295565b60805160a05160c05160e051610100516101205161355262000256600039600081816101490152818161046701528181610dca01528181610f1501528181610ffd0152611b85015260008181610379015281816121d501526123dc015260006103180152600081816103e2015261122e0152600081816101f5015281816106050152610c9901526000818161052801528181611481015261152a01526135526000f3fe6080604052600436106101395760003560e01c80638da5cb5b116100ab578063cc6801271161006f578063cc680127146104a9578063e28b5411146104db578063f2fde38b146104f6578063f434c91414610516578063fa461e331461054a578063fef432571461056a57600080fd5b80638da5cb5b1461040457806398ea47fc146104225780639e6eec0514610442578063ad5c464814610455578063c361534c1461048957600080fd5b8063507f1465116100fd578063507f146514610306578063515a92931461033a5780636afdd85014610367578063715018a61461039b5780637c5e9c24146103b057806388bc2ef3146103d057600080fd5b806301ffc9a71461018e57806324e26dc5146101c3578063293c4999146101e35780633a01714f1461022f57806340873cb5146102c257600080fd5b3661018957336001600160a01b037f0000000000000000000000000000000000000000000000000000000000000000161461018757604051635e7e9adf60e11b815260040160405180910390fd5b005b600080fd5b34801561019a57600080fd5b506101ae6101a936600461287c565b61057d565b60405190151581526020015b60405180910390f35b3480156101cf57600080fd5b506101876101de3660046128bb565b6105cf565b3480156101ef57600080fd5b506102177f000000000000000000000000000000000000000000000000000000000000000081565b6040516001600160a01b0390911681526020016101ba565b34801561023b57600080fd5b506102b561024a3660046128fd565b604080516060808201835260008083526020808401829052928401819052948552600382528285206001600160a01b03948516865282529382902082519485018352549283168452600160a01b830460ff1690840152600160a81b90910463ffffffff169082015290565b6040516101ba919061292d565b3480156102ce57600080fd5b506102e26102dd3660046128fd565b6107d5565b6040805163ffffffff90931683526001600160a01b039091166020830152016101ba565b34801561031257600080fd5b506102177f000000000000000000000000000000000000000000000000000000000000000081565b34801561034657600080fd5b5061035a610355366004612960565b61084b565b6040516101ba9190612979565b34801561037357600080fd5b506102177f000000000000000000000000000000000000000000000000000000000000000081565b3480156103a757600080fd5b50610187610bca565b3480156103bc57600080fd5b506102176103cb3660046128fd565b610bde565b3480156103dc57600080fd5b506102177f000000000000000000000000000000000000000000000000000000000000000081565b34801561041057600080fd5b506000546001600160a01b0316610217565b34801561042e57600080fd5b5061018761043d3660046129ed565b505050565b610187610450366004612abc565b610c4a565b34801561046157600080fd5b506102177f000000000000000000000000000000000000000000000000000000000000000081565b34801561049557600080fd5b506101876104a4366004612b64565b610c63565b3480156104b557600080fd5b506104cd6104c4366004612bc0565b60009392505050565b6040519081526020016101ba565b3480156104e757600080fd5b506104cd6104c43660046128bb565b34801561050257600080fd5b50610187610511366004612bec565b610d59565b34801561052257600080fd5b506102177f000000000000000000000000000000000000000000000000000000000000000081565b34801561055657600080fd5b50610187610565366004612c09565b610d9c565b6104cd610578366004612c5c565b610eb8565b60006001600160e01b03198216632f720bd160e21b14806105ae57506001600160e01b031982166306afdd8560e41b145b806105c957506001600160e01b031982166301ffc9a760e01b145b92915050565b821580156105e757506000546001600160a01b031633145b610680576040516331a9108f60e11b815260048101849052610680907f00000000000000000000000000000000000000000000000000000000000000006001600160a01b031690636352211e90602401602060405180830381865afa158015610654573d6000803e3d6000fd5b505050506040513d601f19601f820116820180604052508101906106789190612d10565b84601b611437565b60008381526002602090815260408083206001600160a01b038681168086529184529382902080546001600160a01b031916948616949094179093558051606081018252838152815163313ce56760e01b81529151909384840193909263313ce56792600480830193928290030181865afa158015610703573d6000803e3d6000fd5b505050506040513d601f19601f820116820180604052508101906107279190612d2d565b60ff908116825263ffffffff80861660209384015260008781526003845260408082206001600160a01b03988916808452908652818320875181548989015199850151909616600160a81b0263ffffffff60a81b1999909716600160a01b026001600160a81b03199096169a1699909917939093179590951692909217909555948552600481529084208054600181018255908552932090920180546001600160a01b031916909117905550565b60008281526001602090815260408083206001600160a01b0385168452909152812054819080820361083b57506001600160a01b03831660009081527fa6eef7e35abe7026729641147f7915573c7e97b47efa546f5f6e3230263bcb4960205260409020545b915050602081901c5b9250929050565b60008181526004602090815260408083208054825181850281018501909352808352606094938301828280156108aa57602002820191906000526020600020905b81546001600160a01b0316815260019091019060200180831161088c575b50506000808052600460209081527f17ef568e3e12ab5b9c7254a8d58478811de00f9e6eb34345acd53bf8fd09d3ec8054604080518285028101850190915281815297985092969550935090915083018282801561093157602002820191906000526020600020905b81546001600160a01b03168152600190910190602001808311610913575b505050505090506000815183516109489190612d66565b67ffffffffffffffff81111561096057610960612d79565b6040519080825280602002602001820160405280156109ab57816020015b604080516060810182526000808252602080830182905292820152825260001990920191018161097e5790505b50835190915060005b8451811015610a65576003600088815260200190815260200160002060008683815181106109e4576109e4612d8f565b6020908102919091018101516001600160a01b039081168352828201939093526040918201600020825160608101845290549384168152600160a01b840460ff1691810191909152600160a81b90920463ffffffff16908201528351849083908110610a5257610a52612d8f565b60209081029190910101526001016109b4565b5060005b8351811015610bb3576000805b8651811015610adb57858381518110610a9157610a91612d8f565b60200260200101516001600160a01b0316878281518110610ab457610ab4612d8f565b60200260200101516001600160a01b031603610ad35760019150610adb565b600101610a76565b5080610baa576000808052600360205285517f3617319a054d772f909f7c479a2cebe5066e836a939412e32403c99029b92eff9190879085908110610b2257610b22612d8f565b6020908102919091018101516001600160a01b039081168352828201939093526040918201600020825160608101845290549384168152600160a01b840460ff1691810191909152600160a81b90920463ffffffff16908201528451859085908110610b9057610b90612d8f565b60200260200101819052508280610ba690612da5565b9350505b50600101610a69565b508151811015610bc1578082525b50949350505050565b610bd26115bb565b610bdc60006115e8565b565b60008281526002602090815260408083206001600160a01b03808616855292528220541680610c4357506001600160a01b0380831660009081527fac33ff75c19e70fe83507db0d683fd3465c996598dc972688b7ace676c89077b6020526040902054165b9392505050565b604051630d831b5560e11b815260040160405180910390fd5b83158015610c7b57506000546001600160a01b031633145b610d14576040516331a9108f60e11b815260048101859052610d14907f00000000000000000000000000000000000000000000000000000000000000006001600160a01b031690636352211e90602401602060405180830381865afa158015610ce8573d6000803e3d6000fd5b505050506040513d601f19601f82011682018060405250810190610d0c9190612d10565b85601c611437565b60009384526001602090815260408086206001600160a01b03959095168652938152929093209290911b640100000000600160c01b031663ffffffff91909116179055565b610d616115bb565b6001600160a01b038116610d9057604051631e4fbdf760e01b8152600060048201526024015b60405180910390fd5b610d99816115e8565b50565b600080610dab83850185612dbe565b915091506000808712610dbe5786610dc0565b855b90508115610e3d577f00000000000000000000000000000000000000000000000000000000000000006001600160a01b031663d0e30db0826040518263ffffffff1660e01b81526004016000604051808303818588803b158015610e2357600080fd5b505af1158015610e37573d6000803e3d6000fd5b50505050505b60405163a9059cbb60e01b8152336004820152602481018290526001600160a01b0384169063a9059cbb906044016020604051808303816000875af1158015610e8a573d6000803e3d6000fd5b505050506040513d601f19601f82011682018060405250810190610eae9190612dec565b5050505050505050565b6040805161010081018252600060208201819052918101829052606081018290526080810182905260a0810182905260c0810182905260e081018290528a81526001600160a01b038a1661eeed1901610f4c576001600160a01b037f0000000000000000000000000000000000000000000000000000000000000000166040820152600160608201523460c0820152610f63565b6001600160a01b038a16604082015260c081018990525b600080610fad630535741560e41b87878080601f01602080910402602001604051908101604052809392919081815260200183838082843760009201919091525061163892505050565b91509150811561104457600081806020019051810190610fcd9190612e09565b6001600160a01b03918216602088015260e0870192909252909150811661eeed190161102e576001600160a01b037f0000000000000000000000000000000000000000000000000000000000000000166080850152600160a085015261103e565b6001600160a01b03811660808501525b50611228565b6000600260008f815260200190815260200160002060008e6001600160a01b03166001600160a01b0316815260200190815260200160002060009054906101000a90046001600160a01b0316905060006001600160a01b0316816001600160a01b03160361110557506001600160a01b03808d1660009081527fac33ff75c19e70fe83507db0d683fd3465c996598dc972688b7ace676c89077b6020526040902054168061110557604051632a12044160e21b815260040160405180910390fd5b6001600160a01b038116602080860182905260408051630dfe168160e01b8152905160009384939092630dfe168192600480830193928290030181865afa158015611154573d6000803e3d6000fd5b505050506040513d601f19601f820116820180604052508101906111789190612d10565b836001600160a01b031663d21220a76040518163ffffffff1660e01b8152600401602060405180830381865afa1580156111b6573d6000803e3d6000fd5b505050506040513d601f19601f820116820180604052508101906111da9190612d10565b915091508e6001600160a01b0316826001600160a01b0316146111fd57816111ff565b805b6001600160a01b03166080870152611216866117dd565b6001600160a01b031660e08701525050505b505060007f00000000000000000000000000000000000000000000000000000000000000006001600160a01b031663862026508d8460a0015161126f578460800151611273565b61eeee5b6040516001600160e01b031960e085901b16815260048101929092526001600160a01b03166024820152604401602060405180830381865afa1580156112bd573d6000803e3d6000fd5b505050506040513d601f19601f820116820180604052508101906112e19190612d10565b90506001600160a01b03811661130a57604051630faa917b60e11b815260040160405180910390fd5b61131582868661189c565b60c08301526060820151600090801561132f57508260a001515b80611353575082608001516001600160a01b031683604001516001600160a01b0316145b15611363575060c082015161136f565b61136c83611a00565b90505b61137e82846080015183611bf4565b816001600160a01b031663fef432578460a0015161139d57600061139f565b825b855160a08701516113b45786608001516113b8565b61eeee5b858f8f8f8f8f8f6040518b63ffffffff1660e01b81526004016113e399989796959493929190612e6a565b60206040518083038185885af1158015611401573d6000803e3d6000fd5b50505050506040513d601f19601f820116820180604052508101906114269190612ece565b509c9b505050505050505050505050565b336001600160a01b03841681148015906114ee575060405163c161c93f60e01b81526001600160a01b038281166004830152858116602483015260448201859052606482018490527f0000000000000000000000000000000000000000000000000000000000000000169063c161c93f90608401602060405180830381865afa1580156114c8573d6000803e3d6000fd5b505050506040513d601f19601f820116820180604052508101906114ec9190612dec565b155b8015611597575060405163c161c93f60e01b81526001600160a01b038281166004830152858116602483015260006044830152606482018490527f0000000000000000000000000000000000000000000000000000000000000000169063c161c93f90608401602060405180830381865afa158015611571573d6000803e3d6000fd5b505050506040513d601f19601f820116820180604052508101906115959190612dec565b155b156115b55760405163075fd2b160e01b815260040160405180910390fd5b50505050565b6000546001600160a01b03163314610bdc5760405163118cdaa760e01b8152336004820152602401610d87565b600080546001600160a01b038381166001600160a01b0319831681178455604051919092169283917f8be0079c531659141344cd1fd0a4f28419497f9722a3daafe3b4186f6b6457e09190a35050565b60006060602583511161165d5750506040805160208101909152600080825290610844565b60008361166c60046020612d66565b8151811061167c5761167c612d8f565b0160209081015160f81c91505b600085611697600484612d66565b815181106116a7576116a7612d8f565b01602001516001600160f81b031916148015906116cd57506116ca602083612ee7565b81105b156117d4576000856116e0600484612d66565b815181106116f0576116f0612d8f565b016020908101518784019091015160f89190911c91506001600160e01b0319808916908216036117ca576000611727602086612ee7565b611732600986612d66565b101580611767575087611746600986612d66565b8151811061175657611756612d8f565b01602001516001600160f81b031916155b6117a057602088611779600987612d66565b8151811061178957611789612d8f565b016020015161179b919060f81c612ee7565b6117a3565b87515b905060016117bc896117b6602087612ee7565b84611c20565b965096505050505050610844565b5050600501611689565b50509250929050565b60008060006117f4846000015185602001516107d5565b915091506000611808856020015184611c66565b509050600061181682611eb0565b905085608001516001600160a01b031686604001516001600160a01b031610611868576005546001600160a01b031661184f8483612efe565b6118599190612f46565b6118639082612f6c565b611892565b6005546001600160a01b031661187e8483612efe565b6118889190612f46565b6118929082612f93565b9695505050505050565b6040830151606084015160009190156118b85734915050610c43565b34156118d757604051635e7e9adf60e11b815260040160405180910390fd5b60008061191d3060e01b87878080601f01602080910402602001604051908101604052809392919081815260200183838082843760009201919091525061163892505050565b91509150811561197d5760008180602001905181019061193d919061304c565b90508760c0015181602001516001600160a01b03161015611971576040516317e415a160e11b815260040160405180910390fd5b61197b81856121d3565b505b61198d3330858a60c001516122d2565b6040516370a0823160e01b81523060048201526001600160a01b038416906370a0823190602401602060405180830381865afa1580156119d1573d6000803e3d6000fd5b505050506040513d601f19601f820116820180604052508101906119f59190612ece565b979650505050505050565b600080826040015190506000836080015190506000816001600160a01b0316836001600160a01b031610905060008086602001516001600160a01b031663128acb0830858a60c0015187611a7257611a6d600173fffd8963efd1fc6a506488495d951d5263988d26612f93565b611a82565b611a826401000276a36001612f6c565b60608d810151604080516001600160a01b038f16602082015291151590820152016040516020818303038152906040526040518663ffffffff1660e01b8152600401611ad2959493929190613178565b60408051808303816000875af1158015611af0573d6000803e3d6000fd5b505050506040513d601f19601f82011682018060405250810190611b1491906131b3565b9150915082611b235781611b25565b805b611b2e906131d7565b95508660e00151861015611b655760e0870151604051630bb50c5d60e41b8152610d87918891600401918252602082015260400190565b8660a0015115611bea57604051632e1a7d4d60e01b8152600481018790527f00000000000000000000000000000000000000000000000000000000000000006001600160a01b031690632e1a7d4d90602401600060405180830381600087803b158015611bd157600080fd5b505af1158015611be5573d6000803e3d6000fd5b505050505b5050505050919050565b61eeed196001600160a01b03831601611c0c57505050565b61043d6001600160a01b0383168483612434565b60608282036040519150602081830101604052808252508260208501016020820160005b84811015611c5c578281015182820152602001611c44565b5050509392505050565b6000808263ffffffff16600003611ca45760405162461bcd60e51b8152602060048201526002602482015261042560f41b6044820152606401610d87565b6040805160028082526060820183526000926020830190803683370190505090508381600081518110611cd957611cd9612d8f565b602002602001019063ffffffff16908163ffffffff1681525050600081600181518110611d0857611d08612d8f565b602002602001019063ffffffff16908163ffffffff1681525050600080866001600160a01b031663883bdbfd846040518263ffffffff1660e01b8152600401611d5191906131f3565b600060405180830381865afa158015611d6e573d6000803e3d6000fd5b505050506040513d6000823e601f3d908101601f19168201604052611d9691908101906132cd565b91509150600082600081518110611daf57611daf612d8f565b602002602001015183600181518110611dca57611dca612d8f565b6020026020010151611ddc9190613399565b9050600082600081518110611df357611df3612d8f565b602002602001015183600181518110611e0e57611e0e612d8f565b6020026020010151611e209190612f93565b9050611e3263ffffffff8916836133c6565b965060008260060b128015611e585750611e5263ffffffff891683613404565b60060b15155b15611e6b5786611e6781613426565b9750505b6000611e846001600160a01b0363ffffffff8b16613449565b9050611ea1640100000000600160c01b03602084901b1682613472565b96505050505050509250929050565b60008060008360020b12611ec7578260020b611ecf565b8260020b6000035b9050620d89e8811115611ef5576040516315e4079d60e11b815260040160405180910390fd5b600081600116600003611f0c57600160801b611f1e565b6ffffcb933bd6fad37aa2d162d1a5940015b70ffffffffffffffffffffffffffffffffff1690506002821615611f52576ffff97272373d413259a46990580e213a0260801c5b6004821615611f71576ffff2e50f5f656932ef12357cf3c7fdcc0260801c5b6008821615611f90576fffe5caca7e10e4e61c3624eaa0941cd00260801c5b6010821615611faf576fffcb9843d60f6159c9db58835c9266440260801c5b6020821615611fce576fff973b41fa98c081472e6896dfb254c00260801c5b6040821615611fed576fff2ea16466c96a3843ec78b326b528610260801c5b608082161561200c576ffe5dee046a99a2a811c461f1969c30530260801c5b61010082161561202c576ffcbe86c7900a88aedcffc83b479aa3a40260801c5b61020082161561204c576ff987a7253ac413176f2b074cf7815e540260801c5b61040082161561206c576ff3392b0822b70005940c7a398e4b70f30260801c5b61080082161561208c576fe7159475a2c29b7443b29c7fa6e889d90260801c5b6110008216156120ac576fd097f3bdfd2022b8845ad8f792aa58250260801c5b6120008216156120cc576fa9f746462d870fdf8a65dc1f90e061e50260801c5b6140008216156120ec576f70d869a156d2a1b890bb3df62baf32f70260801c5b61800082161561210c576f31be135f97d08fd981231505542fcfa60260801c5b6201000082161561212d576f09aa508b5b7a84e1c677de54f3e99bc90260801c5b6202000082161561214d576e5d6af8dedb81196699c329225ee6040260801c5b6204000082161561216c576d2216e584f5fa1ea926041bedfe980260801c5b62080000821615612189576b048a170391f7dc42444e8fa20260801c5b60008460020b13156121aa5780600019816121a6576121a6612f30565b0490505b6401000000008106156121be5760016121c1565b60005b60ff16602082901c0192505050919050565b7f00000000000000000000000000000000000000000000000000000000000000006001600160a01b0316632b67b5703360405180606001604052806040518060800160405280876001600160a01b0316815260200188602001516001600160a01b03168152602001886040015165ffffffffffff168152602001886060015165ffffffffffff168152508152602001306001600160a01b03168152602001866000015181525085608001516040518463ffffffff1660e01b815260040161229c9392919061348c565b600060405180830381600087803b1580156122b657600080fd5b505af11580156122ca573d6000803e3d6000fd5b505050505050565b61eeed196001600160a01b038316016122f4576122ef83826124be565b6115b5565b306001600160a01b03851603612318576122ef6001600160a01b0383168483612555565b604051636eb1769f60e11b81526001600160a01b03858116600483015230602483015282919084169063dd62ed3e90604401602060405180830381865afa158015612367573d6000803e3d6000fd5b505050506040513d601f19601f8201168201806040525081019061238b9190612ece565b106123a5576122ef6001600160a01b0383168585846125b4565b604051631b63c28b60e11b81526001600160a01b0385811660048301528481166024830152828116604483015283811660648301527f000000000000000000000000000000000000000000000000000000000000000016906336c7851690608401600060405180830381600087803b15801561242057600080fd5b505af1158015610eae573d6000803e3d6000fd5b604051636eb1769f60e11b81523060048201526001600160a01b0383811660248301526000919085169063dd62ed3e90604401602060405180830381865afa158015612484573d6000803e3d6000fd5b505050506040513d601f19601f820116820180604052508101906124a89190612ece565b90506115b584846124b98585612d66565b6125ed565b804710156124e15760405163cd78605960e01b8152306004820152602401610d87565b6000826001600160a01b03168260405160006040518083038185875af1925050503d806000811461252e576040519150601f19603f3d011682016040523d82523d6000602084013e612533565b606091505b505090508061043d57604051630a12f52160e11b815260040160405180910390fd5b6040516001600160a01b0383811660248301526044820183905261043d91859182169063a9059cbb906064015b604051602081830303815290604052915060e01b6020820180516001600160e01b038381831617835250505050612679565b6040516001600160a01b0384811660248301528381166044830152606482018390526115b59186918216906323b872dd90608401612582565b604080516001600160a01b038416602482015260448082018490528251808303909101815260649091019091526020810180516001600160e01b031663095ea7b360e01b17905261263e84826126dc565b6115b5576040516001600160a01b0384811660248301526000604483015261267391869182169063095ea7b390606401612582565b6115b584825b600061268e6001600160a01b03841683612784565b905080516000141580156126b35750808060200190518101906126b19190612dec565b155b1561043d57604051635274afe760e01b81526001600160a01b0384166004820152602401610d87565b6000806000846001600160a01b0316846040516126f99190613500565b6000604051808303816000865af19150503d8060008114612736576040519150601f19603f3d011682016040523d82523d6000602084013e61273b565b606091505b50915091508180156127655750805115806127655750808060200190518101906127659190612dec565b801561277b57506000856001600160a01b03163b115b95945050505050565b6060610c438383600084600080856001600160a01b031684866040516127aa9190613500565b60006040518083038185875af1925050503d80600081146127e7576040519150601f19603f3d011682016040523d82523d6000602084013e6127ec565b606091505b509150915061189286838360608261280c5761280782612853565b610c43565b815115801561282357506001600160a01b0384163b155b1561284c57604051639996b31560e01b81526001600160a01b0385166004820152602401610d87565b5080610c43565b8051156128635780518082602001fd5b604051630a12f52160e11b815260040160405180910390fd5b60006020828403121561288e57600080fd5b81356001600160e01b031981168114610c4357600080fd5b6001600160a01b0381168114610d9957600080fd5b6000806000606084860312156128d057600080fd5b8335925060208401356128e2816128a6565b915060408401356128f2816128a6565b809150509250925092565b6000806040838503121561291057600080fd5b823591506020830135612922816128a6565b809150509250929050565b81516001600160a01b0316815260208083015160ff169082015260408083015163ffffffff1690820152606081016105c9565b60006020828403121561297257600080fd5b5035919050565b6020808252825182820181905260009190848201906040850190845b818110156129e1576129ce83855180516001600160a01b0316825260208082015160ff169083015260409081015163ffffffff16910152565b9284019260609290920191600101612995565b50909695505050505050565b600080600060408486031215612a0257600080fd5b83359250602084013567ffffffffffffffff80821115612a2157600080fd5b818601915086601f830112612a3557600080fd5b813581811115612a4457600080fd5b8760208260051b8501011115612a5957600080fd5b6020830194508093505050509250925092565b8015158114610d9957600080fd5b60008083601f840112612a8c57600080fd5b50813567ffffffffffffffff811115612aa457600080fd5b60208301915083602082850101111561084457600080fd5b60008060008060008060008060c0898b031215612ad857600080fd5b883597506020890135612aea816128a6565b9650604089013595506060890135612b0181612a6c565b9450608089013567ffffffffffffffff80821115612b1e57600080fd5b612b2a8c838d01612a7a565b909650945060a08b0135915080821115612b4357600080fd5b50612b508b828c01612a7a565b999c989b5096995094979396929594505050565b60008060008060808587031215612b7a57600080fd5b843593506020850135612b8c816128a6565b9250604085013563ffffffff81168114612ba557600080fd5b91506060850135612bb5816128a6565b939692955090935050565b600080600060608486031215612bd557600080fd5b505081359360208301359350604090920135919050565b600060208284031215612bfe57600080fd5b8135610c43816128a6565b60008060008060608587031215612c1f57600080fd5b8435935060208501359250604085013567ffffffffffffffff811115612c4457600080fd5b612c5087828801612a7a565b95989497509550505050565b600080600080600080600080600060e08a8c031215612c7a57600080fd5b8935985060208a0135612c8c816128a6565b975060408a0135965060608a0135612ca3816128a6565b955060808a0135945060a08a013567ffffffffffffffff80821115612cc757600080fd5b612cd38d838e01612a7a565b909650945060c08c0135915080821115612cec57600080fd5b50612cf98c828d01612a7a565b915080935050809150509295985092959850929598565b600060208284031215612d2257600080fd5b8151610c43816128a6565b600060208284031215612d3f57600080fd5b815160ff81168114610c4357600080fd5b634e487b7160e01b600052601160045260246000fd5b808201808211156105c9576105c9612d50565b634e487b7160e01b600052604160045260246000fd5b634e487b7160e01b600052603260045260246000fd5b600060018201612db757612db7612d50565b5060010190565b60008060408385031215612dd157600080fd5b8235612ddc816128a6565b9150602083013561292281612a6c565b600060208284031215612dfe57600080fd5b8151610c4381612a6c565b600080600060608486031215612e1e57600080fd5b835192506020840151612e30816128a6565b60408501519092506128f2816128a6565b81835281816020850137506000828201602090810191909152601f909101601f19169091010190565b8981526001600160a01b03898116602083015260408201899052871660608201526080810186905260e060a08201819052600090612eab9083018688612e41565b82810360c0840152612ebe818587612e41565b9c9b505050505050505050505050565b600060208284031215612ee057600080fd5b5051919050565b80820281158282048414176105c9576105c9612d50565b6001600160a01b03828116828216818102831692918115828504821417612f2757612f27612d50565b50505092915050565b634e487b7160e01b600052601260045260246000fd5b60006001600160a01b0383811680612f6057612f60612f30565b92169190910492915050565b6001600160a01b03818116838216019080821115612f8c57612f8c612d50565b5092915050565b6001600160a01b03828116828216039080821115612f8c57612f8c612d50565b60405160a0810167ffffffffffffffff81118282101715612fd657612fd6612d79565b60405290565b604051601f8201601f1916810167ffffffffffffffff8111828210171561300557613005612d79565b604052919050565b805165ffffffffffff8116811461302357600080fd5b919050565b60005b8381101561304357818101518382015260200161302b565b50506000910152565b6000602080838503121561305f57600080fd5b825167ffffffffffffffff8082111561307757600080fd5b9084019060a0828703121561308b57600080fd5b613093612fb3565b82518152838301516130a4816128a6565b818501526130b46040840161300d565b60408201526130c56060840161300d565b60608201526080830151828111156130dc57600080fd5b80840193505086601f8401126130f157600080fd5b82518281111561310357613103612d79565b613115601f8201601f19168601612fdc565b9250808352878582860101111561312b57600080fd5b61313a81868501878701613028565b50608081019190915295945050505050565b60008151808452613164816020860160208601613028565b601f01601f19169290920160200192915050565b6001600160a01b0386811682528515156020830152604082018590528316606082015260a0608082018190526000906119f59083018461314c565b600080604083850312156131c657600080fd5b505080516020909101519092909150565b6000600160ff1b82016131ec576131ec612d50565b5060000390565b6020808252825182820181905260009190848201906040850190845b818110156129e157835163ffffffff168352928401929184019160010161320f565b600067ffffffffffffffff82111561324b5761324b612d79565b5060051b60200190565b600082601f83011261326657600080fd5b8151602061327b61327683613231565b612fdc565b8083825260208201915060208460051b87010193508684111561329d57600080fd5b602086015b848110156132c25780516132b5816128a6565b83529183019183016132a2565b509695505050505050565b600080604083850312156132e057600080fd5b825167ffffffffffffffff808211156132f857600080fd5b818501915085601f83011261330c57600080fd5b8151602061331c61327683613231565b82815260059290921b8401810191818101908984111561333b57600080fd5b948201945b838610156133695785518060060b811461335a5760008081fd5b82529482019490820190613340565b9188015191965090935050508082111561338257600080fd5b5061338f85828601613255565b9150509250929050565b600682810b9082900b03667fffffffffffff198112667fffffffffffff821317156105c9576105c9612d50565b60008160060b8360060b806133dd576133dd612f30565b667fffffffffffff198214600019821416156133fb576133fb612d50565b90059392505050565b60008260060b8061341757613417612f30565b808360060b0791505092915050565b60008160020b627fffff19810361343f5761343f612d50565b6000190192915050565b6001600160c01b03828116828216818102831692918115828504821417612f2757612f27612d50565b60006001600160c01b0383811680612f6057612f60612f30565b600061010060018060a01b0380871684528551818151166020860152816020820151166040860152604081015165ffffffffffff80821660608801528060608401511660808801525050508060208701511660a085015250604085015160c08401528060e08401526118928184018561314c565b60008251613512818460208701613028565b919091019291505056fea2646970667358221220046538978b688e779aeda014390216e8bd2f236684d37b610398ac90726b731e64736f6c63430008170033",
	"deployedBytecode": "0x6080604052600436106101395760003560e01c80638da5cb5b116100ab578063cc6801271161006f578063cc680127146104a9578063e28b5411146104db578063f2fde38b146104f6578063f434c91414610516578063fa461e331461054a578063fef432571461056a57600080fd5b80638da5cb5b1461040457806398ea47fc146104225780639e6eec0514610442578063ad5c464814610455578063c361534c1461048957600080fd5b8063507f1465116100fd578063507f146514610306578063515a92931461033a5780636afdd85014610367578063715018a61461039b5780637c5e9c24146103b057806388bc2ef3146103d057600080fd5b806301ffc9a71461018e57806324e26dc5146101c3578063293c4999146101e35780633a01714f1461022f57806340873cb5146102c257600080fd5b3661018957336001600160a01b037f0000000000000000000000007b79995e5f793a07bc00c21412e50ecae098e7f9161461018757604051635e7e9adf60e11b815260040160405180910390fd5b005b600080fd5b34801561019a57600080fd5b506101ae6101a936600461287c565b61057d565b60405190151581526020015b60405180910390f35b3480156101cf57600080fd5b506101876101de3660046128bb565b6105cf565b3480156101ef57600080fd5b506102177f00000000000000000000000045452b26fe78d2b83247279f87c847f4f4a8fceb81565b6040516001600160a01b0390911681526020016101ba565b34801561023b57600080fd5b506102b561024a3660046128fd565b604080516060808201835260008083526020808401829052928401819052948552600382528285206001600160a01b03948516865282529382902082519485018352549283168452600160a01b830460ff1690840152600160a81b90910463ffffffff169082015290565b6040516101ba919061292d565b3480156102ce57600080fd5b506102e26102dd3660046128fd565b6107d5565b6040805163ffffffff90931683526001600160a01b039091166020830152016101ba565b34801561031257600080fd5b506102177f000000000000000000000000000000000000000000000000000000000000000081565b34801561034657600080fd5b5061035a610355366004612960565b61084b565b6040516101ba9190612979565b34801561037357600080fd5b506102177f000000000000000000000000000000000022d473030f116ddee9f6b43ac78ba381565b3480156103a757600080fd5b50610187610bca565b3480156103bc57600080fd5b506102176103cb3660046128fd565b610bde565b3480156103dc57600080fd5b506102177f0000000000000000000000006a6988e79a621fc7ea74d67a31e9cefccc98e94981565b34801561041057600080fd5b506000546001600160a01b0316610217565b34801561042e57600080fd5b5061018761043d3660046129ed565b505050565b610187610450366004612abc565b610c4a565b34801561046157600080fd5b506102177f0000000000000000000000007b79995e5f793a07bc00c21412e50ecae098e7f981565b34801561049557600080fd5b506101876104a4366004612b64565b610c63565b3480156104b557600080fd5b506104cd6104c4366004612bc0565b60009392505050565b6040519081526020016101ba565b3480156104e757600080fd5b506104cd6104c43660046128bb565b34801561050257600080fd5b50610187610511366004612bec565b610d59565b34801561052257600080fd5b506102177f000000000000000000000000a1ba58fca530d0b011646167c9eb81f54d9c9df681565b34801561055657600080fd5b50610187610565366004612c09565b610d9c565b6104cd610578366004612c5c565b610eb8565b60006001600160e01b03198216632f720bd160e21b14806105ae57506001600160e01b031982166306afdd8560e41b145b806105c957506001600160e01b031982166301ffc9a760e01b145b92915050565b821580156105e757506000546001600160a01b031633145b610680576040516331a9108f60e11b815260048101849052610680907f00000000000000000000000045452b26fe78d2b83247279f87c847f4f4a8fceb6001600160a01b031690636352211e90602401602060405180830381865afa158015610654573d6000803e3d6000fd5b505050506040513d601f19601f820116820180604052508101906106789190612d10565b84601b611437565b60008381526002602090815260408083206001600160a01b038681168086529184529382902080546001600160a01b031916948616949094179093558051606081018252838152815163313ce56760e01b81529151909384840193909263313ce56792600480830193928290030181865afa158015610703573d6000803e3d6000fd5b505050506040513d601f19601f820116820180604052508101906107279190612d2d565b60ff908116825263ffffffff80861660209384015260008781526003845260408082206001600160a01b03988916808452908652818320875181548989015199850151909616600160a81b0263ffffffff60a81b1999909716600160a01b026001600160a81b03199096169a1699909917939093179590951692909217909555948552600481529084208054600181018255908552932090920180546001600160a01b031916909117905550565b60008281526001602090815260408083206001600160a01b0385168452909152812054819080820361083b57506001600160a01b03831660009081527fa6eef7e35abe7026729641147f7915573c7e97b47efa546f5f6e3230263bcb4960205260409020545b915050602081901c5b9250929050565b60008181526004602090815260408083208054825181850281018501909352808352606094938301828280156108aa57602002820191906000526020600020905b81546001600160a01b0316815260019091019060200180831161088c575b50506000808052600460209081527f17ef568e3e12ab5b9c7254a8d58478811de00f9e6eb34345acd53bf8fd09d3ec8054604080518285028101850190915281815297985092969550935090915083018282801561093157602002820191906000526020600020905b81546001600160a01b03168152600190910190602001808311610913575b505050505090506000815183516109489190612d66565b67ffffffffffffffff81111561096057610960612d79565b6040519080825280602002602001820160405280156109ab57816020015b604080516060810182526000808252602080830182905292820152825260001990920191018161097e5790505b50835190915060005b8451811015610a65576003600088815260200190815260200160002060008683815181106109e4576109e4612d8f565b6020908102919091018101516001600160a01b039081168352828201939093526040918201600020825160608101845290549384168152600160a01b840460ff1691810191909152600160a81b90920463ffffffff16908201528351849083908110610a5257610a52612d8f565b60209081029190910101526001016109b4565b5060005b8351811015610bb3576000805b8651811015610adb57858381518110610a9157610a91612d8f565b60200260200101516001600160a01b0316878281518110610ab457610ab4612d8f565b60200260200101516001600160a01b031603610ad35760019150610adb565b600101610a76565b5080610baa576000808052600360205285517f3617319a054d772f909f7c479a2cebe5066e836a939412e32403c99029b92eff9190879085908110610b2257610b22612d8f565b6020908102919091018101516001600160a01b039081168352828201939093526040918201600020825160608101845290549384168152600160a01b840460ff1691810191909152600160a81b90920463ffffffff16908201528451859085908110610b9057610b90612d8f565b60200260200101819052508280610ba690612da5565b9350505b50600101610a69565b508151811015610bc1578082525b50949350505050565b610bd26115bb565b610bdc60006115e8565b565b60008281526002602090815260408083206001600160a01b03808616855292528220541680610c4357506001600160a01b0380831660009081527fac33ff75c19e70fe83507db0d683fd3465c996598dc972688b7ace676c89077b6020526040902054165b9392505050565b604051630d831b5560e11b815260040160405180910390fd5b83158015610c7b57506000546001600160a01b031633145b610d14576040516331a9108f60e11b815260048101859052610d14907f00000000000000000000000045452b26fe78d2b83247279f87c847f4f4a8fceb6001600160a01b031690636352211e90602401602060405180830381865afa158015610ce8573d6000803e3d6000fd5b505050506040513d601f19601f82011682018060405250810190610d0c9190612d10565b85601c611437565b60009384526001602090815260408086206001600160a01b03959095168652938152929093209290911b640100000000600160c01b031663ffffffff91909116179055565b610d616115bb565b6001600160a01b038116610d9057604051631e4fbdf760e01b8152600060048201526024015b60405180910390fd5b610d99816115e8565b50565b600080610dab83850185612dbe565b915091506000808712610dbe5786610dc0565b855b90508115610e3d577f0000000000000000000000007b79995e5f793a07bc00c21412e50ecae098e7f96001600160a01b031663d0e30db0826040518263ffffffff1660e01b81526004016000604051808303818588803b158015610e2357600080fd5b505af1158015610e37573d6000803e3d6000fd5b50505050505b60405163a9059cbb60e01b8152336004820152602481018290526001600160a01b0384169063a9059cbb906044016020604051808303816000875af1158015610e8a573d6000803e3d6000fd5b505050506040513d601f19601f82011682018060405250810190610eae9190612dec565b5050505050505050565b6040805161010081018252600060208201819052918101829052606081018290526080810182905260a0810182905260c0810182905260e081018290528a81526001600160a01b038a1661eeed1901610f4c576001600160a01b037f0000000000000000000000007b79995e5f793a07bc00c21412e50ecae098e7f9166040820152600160608201523460c0820152610f63565b6001600160a01b038a16604082015260c081018990525b600080610fad630535741560e41b87878080601f01602080910402602001604051908101604052809392919081815260200183838082843760009201919091525061163892505050565b91509150811561104457600081806020019051810190610fcd9190612e09565b6001600160a01b03918216602088015260e0870192909252909150811661eeed190161102e576001600160a01b037f0000000000000000000000007b79995e5f793a07bc00c21412e50ecae098e7f9166080850152600160a085015261103e565b6001600160a01b03811660808501525b50611228565b6000600260008f815260200190815260200160002060008e6001600160a01b03166001600160a01b0316815260200190815260200160002060009054906101000a90046001600160a01b0316905060006001600160a01b0316816001600160a01b03160361110557506001600160a01b03808d1660009081527fac33ff75c19e70fe83507db0d683fd3465c996598dc972688b7ace676c89077b6020526040902054168061110557604051632a12044160e21b815260040160405180910390fd5b6001600160a01b038116602080860182905260408051630dfe168160e01b8152905160009384939092630dfe168192600480830193928290030181865afa158015611154573d6000803e3d6000fd5b505050506040513d601f19601f820116820180604052508101906111789190612d10565b836001600160a01b031663d21220a76040518163ffffffff1660e01b8152600401602060405180830381865afa1580156111b6573d6000803e3d6000fd5b505050506040513d601f19601f820116820180604052508101906111da9190612d10565b915091508e6001600160a01b0316826001600160a01b0316146111fd57816111ff565b805b6001600160a01b03166080870152611216866117dd565b6001600160a01b031660e08701525050505b505060007f0000000000000000000000006a6988e79a621fc7ea74d67a31e9cefccc98e9496001600160a01b031663862026508d8460a0015161126f578460800151611273565b61eeee5b6040516001600160e01b031960e085901b16815260048101929092526001600160a01b03166024820152604401602060405180830381865afa1580156112bd573d6000803e3d6000fd5b505050506040513d601f19601f820116820180604052508101906112e19190612d10565b90506001600160a01b03811661130a57604051630faa917b60e11b815260040160405180910390fd5b61131582868661189c565b60c08301526060820151600090801561132f57508260a001515b80611353575082608001516001600160a01b031683604001516001600160a01b0316145b15611363575060c082015161136f565b61136c83611a00565b90505b61137e82846080015183611bf4565b816001600160a01b031663fef432578460a0015161139d57600061139f565b825b855160a08701516113b45786608001516113b8565b61eeee5b858f8f8f8f8f8f6040518b63ffffffff1660e01b81526004016113e399989796959493929190612e6a565b60206040518083038185885af1158015611401573d6000803e3d6000fd5b50505050506040513d601f19601f820116820180604052508101906114269190612ece565b509c9b505050505050505050505050565b336001600160a01b03841681148015906114ee575060405163c161c93f60e01b81526001600160a01b038281166004830152858116602483015260448201859052606482018490527f000000000000000000000000a1ba58fca530d0b011646167c9eb81f54d9c9df6169063c161c93f90608401602060405180830381865afa1580156114c8573d6000803e3d6000fd5b505050506040513d601f19601f820116820180604052508101906114ec9190612dec565b155b8015611597575060405163c161c93f60e01b81526001600160a01b038281166004830152858116602483015260006044830152606482018490527f000000000000000000000000a1ba58fca530d0b011646167c9eb81f54d9c9df6169063c161c93f90608401602060405180830381865afa158015611571573d6000803e3d6000fd5b505050506040513d601f19601f820116820180604052508101906115959190612dec565b155b156115b55760405163075fd2b160e01b815260040160405180910390fd5b50505050565b6000546001600160a01b03163314610bdc5760405163118cdaa760e01b8152336004820152602401610d87565b600080546001600160a01b038381166001600160a01b0319831681178455604051919092169283917f8be0079c531659141344cd1fd0a4f28419497f9722a3daafe3b4186f6b6457e09190a35050565b60006060602583511161165d5750506040805160208101909152600080825290610844565b60008361166c60046020612d66565b8151811061167c5761167c612d8f565b0160209081015160f81c91505b600085611697600484612d66565b815181106116a7576116a7612d8f565b01602001516001600160f81b031916148015906116cd57506116ca602083612ee7565b81105b156117d4576000856116e0600484612d66565b815181106116f0576116f0612d8f565b016020908101518784019091015160f89190911c91506001600160e01b0319808916908216036117ca576000611727602086612ee7565b611732600986612d66565b101580611767575087611746600986612d66565b8151811061175657611756612d8f565b01602001516001600160f81b031916155b6117a057602088611779600987612d66565b8151811061178957611789612d8f565b016020015161179b919060f81c612ee7565b6117a3565b87515b905060016117bc896117b6602087612ee7565b84611c20565b965096505050505050610844565b5050600501611689565b50509250929050565b60008060006117f4846000015185602001516107d5565b915091506000611808856020015184611c66565b509050600061181682611eb0565b905085608001516001600160a01b031686604001516001600160a01b031610611868576005546001600160a01b031661184f8483612efe565b6118599190612f46565b6118639082612f6c565b611892565b6005546001600160a01b031661187e8483612efe565b6118889190612f46565b6118929082612f93565b9695505050505050565b6040830151606084015160009190156118b85734915050610c43565b34156118d757604051635e7e9adf60e11b815260040160405180910390fd5b60008061191d3060e01b87878080601f01602080910402602001604051908101604052809392919081815260200183838082843760009201919091525061163892505050565b91509150811561197d5760008180602001905181019061193d919061304c565b90508760c0015181602001516001600160a01b03161015611971576040516317e415a160e11b815260040160405180910390fd5b61197b81856121d3565b505b61198d3330858a60c001516122d2565b6040516370a0823160e01b81523060048201526001600160a01b038416906370a0823190602401602060405180830381865afa1580156119d1573d6000803e3d6000fd5b505050506040513d601f19601f820116820180604052508101906119f59190612ece565b979650505050505050565b600080826040015190506000836080015190506000816001600160a01b0316836001600160a01b031610905060008086602001516001600160a01b031663128acb0830858a60c0015187611a7257611a6d600173fffd8963efd1fc6a506488495d951d5263988d26612f93565b611a82565b611a826401000276a36001612f6c565b60608d810151604080516001600160a01b038f16602082015291151590820152016040516020818303038152906040526040518663ffffffff1660e01b8152600401611ad2959493929190613178565b60408051808303816000875af1158015611af0573d6000803e3d6000fd5b505050506040513d601f19601f82011682018060405250810190611b1491906131b3565b9150915082611b235781611b25565b805b611b2e906131d7565b95508660e00151861015611b655760e0870151604051630bb50c5d60e41b8152610d87918891600401918252602082015260400190565b8660a0015115611bea57604051632e1a7d4d60e01b8152600481018790527f0000000000000000000000007b79995e5f793a07bc00c21412e50ecae098e7f96001600160a01b031690632e1a7d4d90602401600060405180830381600087803b158015611bd157600080fd5b505af1158015611be5573d6000803e3d6000fd5b505050505b5050505050919050565b61eeed196001600160a01b03831601611c0c57505050565b61043d6001600160a01b0383168483612434565b60608282036040519150602081830101604052808252508260208501016020820160005b84811015611c5c578281015182820152602001611c44565b5050509392505050565b6000808263ffffffff16600003611ca45760405162461bcd60e51b8152602060048201526002602482015261042560f41b6044820152606401610d87565b6040805160028082526060820183526000926020830190803683370190505090508381600081518110611cd957611cd9612d8f565b602002602001019063ffffffff16908163ffffffff1681525050600081600181518110611d0857611d08612d8f565b602002602001019063ffffffff16908163ffffffff1681525050600080866001600160a01b031663883bdbfd846040518263ffffffff1660e01b8152600401611d5191906131f3565b600060405180830381865afa158015611d6e573d6000803e3d6000fd5b505050506040513d6000823e601f3d908101601f19168201604052611d9691908101906132cd565b91509150600082600081518110611daf57611daf612d8f565b602002602001015183600181518110611dca57611dca612d8f565b6020026020010151611ddc9190613399565b9050600082600081518110611df357611df3612d8f565b602002602001015183600181518110611e0e57611e0e612d8f565b6020026020010151611e209190612f93565b9050611e3263ffffffff8916836133c6565b965060008260060b128015611e585750611e5263ffffffff891683613404565b60060b15155b15611e6b5786611e6781613426565b9750505b6000611e846001600160a01b0363ffffffff8b16613449565b9050611ea1640100000000600160c01b03602084901b1682613472565b96505050505050509250929050565b60008060008360020b12611ec7578260020b611ecf565b8260020b6000035b9050620d89e8811115611ef5576040516315e4079d60e11b815260040160405180910390fd5b600081600116600003611f0c57600160801b611f1e565b6ffffcb933bd6fad37aa2d162d1a5940015b70ffffffffffffffffffffffffffffffffff1690506002821615611f52576ffff97272373d413259a46990580e213a0260801c5b6004821615611f71576ffff2e50f5f656932ef12357cf3c7fdcc0260801c5b6008821615611f90576fffe5caca7e10e4e61c3624eaa0941cd00260801c5b6010821615611faf576fffcb9843d60f6159c9db58835c9266440260801c5b6020821615611fce576fff973b41fa98c081472e6896dfb254c00260801c5b6040821615611fed576fff2ea16466c96a3843ec78b326b528610260801c5b608082161561200c576ffe5dee046a99a2a811c461f1969c30530260801c5b61010082161561202c576ffcbe86c7900a88aedcffc83b479aa3a40260801c5b61020082161561204c576ff987a7253ac413176f2b074cf7815e540260801c5b61040082161561206c576ff3392b0822b70005940c7a398e4b70f30260801c5b61080082161561208c576fe7159475a2c29b7443b29c7fa6e889d90260801c5b6110008216156120ac576fd097f3bdfd2022b8845ad8f792aa58250260801c5b6120008216156120cc576fa9f746462d870fdf8a65dc1f90e061e50260801c5b6140008216156120ec576f70d869a156d2a1b890bb3df62baf32f70260801c5b61800082161561210c576f31be135f97d08fd981231505542fcfa60260801c5b6201000082161561212d576f09aa508b5b7a84e1c677de54f3e99bc90260801c5b6202000082161561214d576e5d6af8dedb81196699c329225ee6040260801c5b6204000082161561216c576d2216e584f5fa1ea926041bedfe980260801c5b62080000821615612189576b048a170391f7dc42444e8fa20260801c5b60008460020b13156121aa5780600019816121a6576121a6612f30565b0490505b6401000000008106156121be5760016121c1565b60005b60ff16602082901c0192505050919050565b7f000000000000000000000000000000000022d473030f116ddee9f6b43ac78ba36001600160a01b0316632b67b5703360405180606001604052806040518060800160405280876001600160a01b0316815260200188602001516001600160a01b03168152602001886040015165ffffffffffff168152602001886060015165ffffffffffff168152508152602001306001600160a01b03168152602001866000015181525085608001516040518463ffffffff1660e01b815260040161229c9392919061348c565b600060405180830381600087803b1580156122b657600080fd5b505af11580156122ca573d6000803e3d6000fd5b505050505050565b61eeed196001600160a01b038316016122f4576122ef83826124be565b6115b5565b306001600160a01b03851603612318576122ef6001600160a01b0383168483612555565b604051636eb1769f60e11b81526001600160a01b03858116600483015230602483015282919084169063dd62ed3e90604401602060405180830381865afa158015612367573d6000803e3d6000fd5b505050506040513d601f19601f8201168201806040525081019061238b9190612ece565b106123a5576122ef6001600160a01b0383168585846125b4565b604051631b63c28b60e11b81526001600160a01b0385811660048301528481166024830152828116604483015283811660648301527f000000000000000000000000000000000022d473030f116ddee9f6b43ac78ba316906336c7851690608401600060405180830381600087803b15801561242057600080fd5b505af1158015610eae573d6000803e3d6000fd5b604051636eb1769f60e11b81523060048201526001600160a01b0383811660248301526000919085169063dd62ed3e90604401602060405180830381865afa158015612484573d6000803e3d6000fd5b505050506040513d601f19601f820116820180604052508101906124a89190612ece565b90506115b584846124b98585612d66565b6125ed565b804710156124e15760405163cd78605960e01b8152306004820152602401610d87565b6000826001600160a01b03168260405160006040518083038185875af1925050503d806000811461252e576040519150601f19603f3d011682016040523d82523d6000602084013e612533565b606091505b505090508061043d57604051630a12f52160e11b815260040160405180910390fd5b6040516001600160a01b0383811660248301526044820183905261043d91859182169063a9059cbb906064015b604051602081830303815290604052915060e01b6020820180516001600160e01b038381831617835250505050612679565b6040516001600160a01b0384811660248301528381166044830152606482018390526115b59186918216906323b872dd90608401612582565b604080516001600160a01b038416602482015260448082018490528251808303909101815260649091019091526020810180516001600160e01b031663095ea7b360e01b17905261263e84826126dc565b6115b5576040516001600160a01b0384811660248301526000604483015261267391869182169063095ea7b390606401612582565b6115b584825b600061268e6001600160a01b03841683612784565b905080516000141580156126b35750808060200190518101906126b19190612dec565b155b1561043d57604051635274afe760e01b81526001600160a01b0384166004820152602401610d87565b6000806000846001600160a01b0316846040516126f99190613500565b6000604051808303816000865af19150503d8060008114612736576040519150601f19603f3d011682016040523d82523d6000602084013e61273b565b606091505b50915091508180156127655750805115806127655750808060200190518101906127659190612dec565b801561277b57506000856001600160a01b03163b115b95945050505050565b6060610c438383600084600080856001600160a01b031684866040516127aa9190613500565b60006040518083038185875af1925050503d80600081146127e7576040519150601f19603f3d011682016040523d82523d6000602084013e6127ec565b606091505b509150915061189286838360608261280c5761280782612853565b610c43565b815115801561282357506001600160a01b0384163b155b1561284c57604051639996b31560e01b81526001600160a01b0385166004820152602401610d87565b5080610c43565b8051156128635780518082602001fd5b604051630a12f52160e11b815260040160405180910390fd5b60006020828403121561288e57600080fd5b81356001600160e01b031981168114610c4357600080fd5b6001600160a01b0381168114610d9957600080fd5b6000806000606084860312156128d057600080fd5b8335925060208401356128e2816128a6565b915060408401356128f2816128a6565b809150509250925092565b6000806040838503121561291057600080fd5b823591506020830135612922816128a6565b809150509250929050565b81516001600160a01b0316815260208083015160ff169082015260408083015163ffffffff1690820152606081016105c9565b60006020828403121561297257600080fd5b5035919050565b6020808252825182820181905260009190848201906040850190845b818110156129e1576129ce83855180516001600160a01b0316825260208082015160ff169083015260409081015163ffffffff16910152565b9284019260609290920191600101612995565b50909695505050505050565b600080600060408486031215612a0257600080fd5b83359250602084013567ffffffffffffffff80821115612a2157600080fd5b818601915086601f830112612a3557600080fd5b813581811115612a4457600080fd5b8760208260051b8501011115612a5957600080fd5b6020830194508093505050509250925092565b8015158114610d9957600080fd5b60008083601f840112612a8c57600080fd5b50813567ffffffffffffffff811115612aa457600080fd5b60208301915083602082850101111561084457600080fd5b60008060008060008060008060c0898b031215612ad857600080fd5b883597506020890135612aea816128a6565b9650604089013595506060890135612b0181612a6c565b9450608089013567ffffffffffffffff80821115612b1e57600080fd5b612b2a8c838d01612a7a565b909650945060a08b0135915080821115612b4357600080fd5b50612b508b828c01612a7a565b999c989b5096995094979396929594505050565b60008060008060808587031215612b7a57600080fd5b843593506020850135612b8c816128a6565b9250604085013563ffffffff81168114612ba557600080fd5b91506060850135612bb5816128a6565b939692955090935050565b600080600060608486031215612bd557600080fd5b505081359360208301359350604090920135919050565b600060208284031215612bfe57600080fd5b8135610c43816128a6565b60008060008060608587031215612c1f57600080fd5b8435935060208501359250604085013567ffffffffffffffff811115612c4457600080fd5b612c5087828801612a7a565b95989497509550505050565b600080600080600080600080600060e08a8c031215612c7a57600080fd5b8935985060208a0135612c8c816128a6565b975060408a0135965060608a0135612ca3816128a6565b955060808a0135945060a08a013567ffffffffffffffff80821115612cc757600080fd5b612cd38d838e01612a7a565b909650945060c08c0135915080821115612cec57600080fd5b50612cf98c828d01612a7a565b915080935050809150509295985092959850929598565b600060208284031215612d2257600080fd5b8151610c43816128a6565b600060208284031215612d3f57600080fd5b815160ff81168114610c4357600080fd5b634e487b7160e01b600052601160045260246000fd5b808201808211156105c9576105c9612d50565b634e487b7160e01b600052604160045260246000fd5b634e487b7160e01b600052603260045260246000fd5b600060018201612db757612db7612d50565b5060010190565b60008060408385031215612dd157600080fd5b8235612ddc816128a6565b9150602083013561292281612a6c565b600060208284031215612dfe57600080fd5b8151610c4381612a6c565b600080600060608486031215612e1e57600080fd5b835192506020840151612e30816128a6565b60408501519092506128f2816128a6565b81835281816020850137506000828201602090810191909152601f909101601f19169091010190565b8981526001600160a01b03898116602083015260408201899052871660608201526080810186905260e060a08201819052600090612eab9083018688612e41565b82810360c0840152612ebe818587612e41565b9c9b505050505050505050505050565b600060208284031215612ee057600080fd5b5051919050565b80820281158282048414176105c9576105c9612d50565b6001600160a01b03828116828216818102831692918115828504821417612f2757612f27612d50565b50505092915050565b634e487b7160e01b600052601260045260246000fd5b60006001600160a01b0383811680612f6057612f60612f30565b92169190910492915050565b6001600160a01b03818116838216019080821115612f8c57612f8c612d50565b5092915050565b6001600160a01b03828116828216039080821115612f8c57612f8c612d50565b60405160a0810167ffffffffffffffff81118282101715612fd657612fd6612d79565b60405290565b604051601f8201601f1916810167ffffffffffffffff8111828210171561300557613005612d79565b604052919050565b805165ffffffffffff8116811461302357600080fd5b919050565b60005b8381101561304357818101518382015260200161302b565b50506000910152565b6000602080838503121561305f57600080fd5b825167ffffffffffffffff8082111561307757600080fd5b9084019060a0828703121561308b57600080fd5b613093612fb3565b82518152838301516130a4816128a6565b818501526130b46040840161300d565b60408201526130c56060840161300d565b60608201526080830151828111156130dc57600080fd5b80840193505086601f8401126130f157600080fd5b82518281111561310357613103612d79565b613115601f8201601f19168601612fdc565b9250808352878582860101111561312b57600080fd5b61313a81868501878701613028565b50608081019190915295945050505050565b60008151808452613164816020860160208601613028565b601f01601f19169290920160200192915050565b6001600160a01b0386811682528515156020830152604082018590528316606082015260a0608082018190526000906119f59083018461314c565b600080604083850312156131c657600080fd5b505080516020909101519092909150565b6000600160ff1b82016131ec576131ec612d50565b5060000390565b6020808252825182820181905260009190848201906040850190845b818110156129e157835163ffffffff168352928401929184019160010161320f565b600067ffffffffffffffff82111561324b5761324b612d79565b5060051b60200190565b600082601f83011261326657600080fd5b8151602061327b61327683613231565b612fdc565b8083825260208201915060208460051b87010193508684111561329d57600080fd5b602086015b848110156132c25780516132b5816128a6565b83529183019183016132a2565b509695505050505050565b600080604083850312156132e057600080fd5b825167ffffffffffffffff808211156132f857600080fd5b818501915085601f83011261330c57600080fd5b8151602061331c61327683613231565b82815260059290921b8401810191818101908984111561333b57600080fd5b948201945b838610156133695785518060060b811461335a5760008081fd5b82529482019490820190613340565b9188015191965090935050508082111561338257600080fd5b5061338f85828601613255565b9150509250929050565b600682810b9082900b03667fffffffffffff198112667fffffffffffff821317156105c9576105c9612d50565b60008160060b8360060b806133dd576133dd612f30565b667fffffffffffff198214600019821416156133fb576133fb612d50565b90059392505050565b60008260060b8061341757613417612f30565b808360060b0791505092915050565b60008160020b627fffff19810361343f5761343f612d50565b6000190192915050565b6001600160c01b03828116828216818102831692918115828504821417612f2757612f27612d50565b60006001600160c01b0383811680612f6057612f60612f30565b600061010060018060a01b0380871684528551818151166020860152816020820151166040860152604081015165ffffffffffff80821660608801528060608401511660808801525050508060208701511660a085015250604085015160c08401528060e08401526118928184018561314c565b60008251613512818460208701613028565b919091019291505056fea2646970667358221220046538978b688e779aeda014390216e8bd2f236684d37b610398ac90726b731e64736f6c63430008170033",
	"devdoc": {
		"kind": "dev",
		"methods": {
			"accountingContextForTokenOf(uint256,address)": {
				"details": "Accounting contexts are set up in `addDefaultPool(...)`.",
				"params": {
					"projectId": "The ID of the project to get the accounting context for.",
					"token": "The address of the token to get the accounting context for."
				},
				"returns": {
					"_0": "A `JBAccountingContext` containing the accounting context for the project ID and token."
				}
			},
			"accountingContextsOf(uint256)": {
				"details": "This includes both project-specific and generic accounting contexts, with the project-specific contexts         taking precedence.",
				"params": {
					"projectId": "The ID of the project to get the accounting contexts for."
				},
				"returns": {
					"_0": "An array of `JBAccountingContext` containing the accounting contexts for the project ID."
				}
			},
			"addDefaultPool(uint256,address,address)": {
				"params": {
					"pool": "The Uniswap V3 pool to set as the default for the specified token.",
					"projectId": "The ID of the project to set the default pool for. The project 0 acts as a catch-all, where non-set pools are defaulted to.",
					"token": "The address of the token to set the default pool for."
				}
			},
			"addTwapParamsFor(uint256,address,uint32,uint160)": {
				"params": {
					"projectId": "The ID of the project to set the TWAP-based quote rules for.",
					"secondsAgo": "The period of time over which the TWAP is calculated, in seconds.",
					"slippageTolerance": "The maximum spread allowed between the amount received and the TWAP (as a fraction out of `SLIPPAGE_DENOMINATOR`)."
				}
			},
			"getPoolFor(uint256,address)": {
				"params": {
					"projectId": "The ID of the project to retrieve the default pool for.",
					"tokenIn": "The address of the token to retrieve the default pool for."
				},
				"returns": {
					"_0": "pool The default pool for the token, or the overall default pool for the token if the"
				}
			},
			"owner()": {
				"details": "Returns the address of the current owner."
			},
			"pay(uint256,address,uint256,address,uint256,string,bytes)": {
				"params": {
					"amount": "The amount of tokens being paid in, as a fixed point number with the same amount of decimals as the `token`. If `token` is the native token, `amount` is ignored and `msg.value` is used in its place.",
					"beneficiary": "The beneficiary address to pass along to the other terminal. If the other terminal mints tokens, for example, they will be minted for this address.",
					"memo": "A memo to pass along to the emitted event.",
					"metadata": "Bytes in `JBMetadataResolver`'s format which can contain a quote from the user/client. The quote should contain a minimum amount of tokens to receive from the swap and the pool to use. This metadata is also passed to the other terminal's emitted event, as well as its data hook and pay hook if applicable.",
					"minReturnedTokens": "The minimum number of project tokens expected in return, as a fixed point number with the same number of decimals as the other terminal. This value will be passed along to the other terminal.",
					"projectId": "The ID of the project being paid.",
					"token": "The address of the token being paid in."
				},
				"returns": {
					"_0": "The number of tokens received from the swap, as a fixed point number with the same amount of decimals as that token."
				}
			},
			"renounceOwnership()": {
				"details": "Leaves the contract without owner. It will not be possible to call `onlyOwner` functions. Can only be called by the current owner. NOTE: Renouncing ownership will leave the contract without an owner, thereby disabling any functionality that is only available to the owner."
			},
			"supportsInterface(bytes4)": {
				"details": "See {IERC165-supportsInterface}.",
				"params": {
					"interfaceId": "The ID of the interface to check for adherance to."
				},
				"returns": {
					"_0": "A flag indicating if the provided interface ID is supported."
				}
			},
			"transferOwnership(address)": {
				"details": "Transfers ownership of the contract to a new account (`newOwner`). Can only be called by the current owner."
			},
			"twapParamsOf(uint256,address)": {
				"params": {
					"projectId": "The ID of the project to retrieve TWAP parameters for."
				},
				"returns": {
					"secondsAgo": "The period of time in the past to calculate the TWAP from.",
					"slippageTolerance": "The maximum allowed slippage tolerance when calculating the TWAP, as a fraction out of `SLIPPAGE_DENOMINATOR`."
				}
			},
			"uniswapV3SwapCallback(int256,int256,bytes)": {
				"params": {
					"amount0Delta": "The amount of token 0 being used for the swap.",
					"amount1Delta": "The amount of token 1 being used for the swap.",
					"data": "Data passed in by the swap operation."
				}
			}
		},
		"version": 1
	},
	"userdoc": {
		"kind": "user",
		"methods": {
			"DIRECTORY()": {
				"notice": "The directory of terminals and controllers for `PROJECTS`."
			},
			"PERMISSIONS()": {
				"notice": "A contract storing permissions."
			},
			"PERMIT2()": {
				"notice": "The permit2 utility."
			},
			"PROJECTS()": {
				"notice": "Mints ERC-721s that represent project ownership and transfers."
			},
			"STORE()": {
				"notice": "The contract that stores and manages this terminal's data."
			},
			"WETH()": {
				"notice": "The ERC-20 wrapper for the native token."
			},
			"accountingContextForTokenOf(uint256,address)": {
				"notice": "Get the accounting context for the specified project ID and token."
			},
			"accountingContextsOf(uint256)": {
				"notice": "Return all the accounting contexts for a specified project ID."
			},
			"addAccountingContextsFor(uint256,address[])": {
				"notice": "Empty implementation to satisfy the interface. Accounting contexts are set in `addDefaultPool(...)`."
			},
			"addDefaultPool(uint256,address,address)": {
				"notice": "Set a project's default pool and accounting context for the specified token. Only the project's owner, an address with `MODIFY_DEFAULT_POOL` permission from the owner or the terminal owner can call this function."
			},
			"addToBalanceOf(uint256,address,uint256,bool,string,bytes)": {
				"notice": "This terminal does not support adding to balances."
			},
			"addTwapParamsFor(uint256,address,uint32,uint160)": {
				"notice": "Set the specified project's rules for calculating a quote based on the TWAP. Only the project's owner or an address with `MODIFY_TWAP_PARAMS` permission from the owner  or the terminal owner can call this function."
			},
			"currentSurplusOf(uint256,uint256,uint256)": {
				"notice": "Empty implementation to satisfy the interface. This terminal has no surplus."
			},
			"getPoolFor(uint256,address)": {
				"notice": "Returns the default pool for a given project and token or, if a project has no default pool for the         token, the overal default pool for the token"
			},
			"migrateBalanceOf(uint256,address,address)": {
				"notice": "Empty implementation to satisfy the interface."
			},
			"pay(uint256,address,uint256,address,uint256,string,bytes)": {
				"notice": "Pay a project by swapping the incoming tokens for tokens that one of the project's other terminals accepts, passing along the funds received from the swap and the specified parameters."
			},
			"supportsInterface(bytes4)": {
				"notice": "Indicates if this contract adheres to the specified interface."
			},
			"twapParamsOf(uint256,address)": {
				"notice": "Returns the default twap parameters for a given pool project."
			},
			"uniswapV3SwapCallback(int256,int256,bytes)": {
				"notice": "The Uniswap v3 pool callback where the token transfer is expected to happen."
			}
		},
		"version": 1
	},
	"gitCommit": "2c9386d1500d8876809a390c1266db4abd67e258",
	"sourceName": "src/JBSwapTerminal.sol",
	"chainId": "11155111",
	"linkReferences": {},
	"deployedLinkReferences": {},
	"history": [
		{
			"_format": "sphinx-sol-ct-artifact-1",
			"merkleRoot": "0x66ead23d7446586786c6ec6fbe79883cd2f094ebbc498c94fa3085ed8d8e8f1d",
			"contractName": "JBSwapTerminal",
			"address": "0x292897faF48510eB7B66E75B54e6450A1E7F9314",
			"abi": [
				{
					"type": "constructor",
					"inputs": [
						{
							"name": "projects",
							"type": "address",
							"internalType": "contract IJBProjects"
						},
						{
							"name": "permissions",
							"type": "address",
							"internalType": "contract IJBPermissions"
						},
						{
							"name": "directory",
							"type": "address",
							"internalType": "contract IJBDirectory"
						},
						{
							"name": "permit2",
							"type": "address",
							"internalType": "contract IPermit2"
						},
						{
							"name": "_owner",
							"type": "address",
							"internalType": "address"
						},
						{
							"name": "weth",
							"type": "address",
							"internalType": "contract IWETH9"
						}
					],
					"stateMutability": "nonpayable"
				},
				{
					"type": "receive",
					"stateMutability": "payable"
				},
				{
					"type": "function",
					"name": "DIRECTORY",
					"inputs": [],
					"outputs": [
						{
							"name": "",
							"type": "address",
							"internalType": "contract IJBDirectory"
						}
					],
					"stateMutability": "view"
				},
				{
					"type": "function",
					"name": "PERMISSIONS",
					"inputs": [],
					"outputs": [
						{
							"name": "",
							"type": "address",
							"internalType": "contract IJBPermissions"
						}
					],
					"stateMutability": "view"
				},
				{
					"type": "function",
					"name": "PERMIT2",
					"inputs": [],
					"outputs": [
						{
							"name": "",
							"type": "address",
							"internalType": "contract IPermit2"
						}
					],
					"stateMutability": "view"
				},
				{
					"type": "function",
					"name": "PROJECTS",
					"inputs": [],
					"outputs": [
						{
							"name": "",
							"type": "address",
							"internalType": "contract IJBProjects"
						}
					],
					"stateMutability": "view"
				},
				{
					"type": "function",
					"name": "STORE",
					"inputs": [],
					"outputs": [
						{
							"name": "",
							"type": "address",
							"internalType": "contract IJBTerminalStore"
						}
					],
					"stateMutability": "view"
				},
				{
					"type": "function",
					"name": "WETH",
					"inputs": [],
					"outputs": [
						{
							"name": "",
							"type": "address",
							"internalType": "contract IWETH9"
						}
					],
					"stateMutability": "view"
				},
				{
					"type": "function",
					"name": "accountingContextForTokenOf",
					"inputs": [
						{
							"name": "projectId",
							"type": "uint256",
							"internalType": "uint256"
						},
						{
							"name": "token",
							"type": "address",
							"internalType": "address"
						}
					],
					"outputs": [
						{
							"name": "",
							"type": "tuple",
							"internalType": "struct JBAccountingContext",
							"components": [
								{
									"name": "token",
									"type": "address",
									"internalType": "address"
								},
								{
									"name": "decimals",
									"type": "uint8",
									"internalType": "uint8"
								},
								{
									"name": "currency",
									"type": "uint32",
									"internalType": "uint32"
								}
							]
						}
					],
					"stateMutability": "view"
				},
				{
					"type": "function",
					"name": "accountingContextsOf",
					"inputs": [
						{
							"name": "projectId",
							"type": "uint256",
							"internalType": "uint256"
						}
					],
					"outputs": [
						{
							"name": "",
							"type": "tuple[]",
							"internalType": "struct JBAccountingContext[]",
							"components": [
								{
									"name": "token",
									"type": "address",
									"internalType": "address"
								},
								{
									"name": "decimals",
									"type": "uint8",
									"internalType": "uint8"
								},
								{
									"name": "currency",
									"type": "uint32",
									"internalType": "uint32"
								}
							]
						}
					],
					"stateMutability": "view"
				},
				{
					"type": "function",
					"name": "addAccountingContextsFor",
					"inputs": [
						{
							"name": "projectId",
							"type": "uint256",
							"internalType": "uint256"
						},
						{
							"name": "tokens",
							"type": "address[]",
							"internalType": "address[]"
						}
					],
					"outputs": [],
					"stateMutability": "nonpayable"
				},
				{
					"type": "function",
					"name": "addDefaultPool",
					"inputs": [
						{
							"name": "projectId",
							"type": "uint256",
							"internalType": "uint256"
						},
						{
							"name": "token",
							"type": "address",
							"internalType": "address"
						},
						{
							"name": "pool",
							"type": "address",
							"internalType": "contract IUniswapV3Pool"
						}
					],
					"outputs": [],
					"stateMutability": "nonpayable"
				},
				{
					"type": "function",
					"name": "addToBalanceOf",
					"inputs": [
						{
							"name": "",
							"type": "uint256",
							"internalType": "uint256"
						},
						{
							"name": "",
							"type": "address",
							"internalType": "address"
						},
						{
							"name": "",
							"type": "uint256",
							"internalType": "uint256"
						},
						{
							"name": "",
							"type": "bool",
							"internalType": "bool"
						},
						{
							"name": "",
							"type": "string",
							"internalType": "string"
						},
						{
							"name": "",
							"type": "bytes",
							"internalType": "bytes"
						}
					],
					"outputs": [],
					"stateMutability": "payable"
				},
				{
					"type": "function",
					"name": "addTwapParamsFor",
					"inputs": [
						{
							"name": "projectId",
							"type": "uint256",
							"internalType": "uint256"
						},
						{
							"name": "pool",
							"type": "address",
							"internalType": "contract IUniswapV3Pool"
						},
						{
							"name": "secondsAgo",
							"type": "uint32",
							"internalType": "uint32"
						},
						{
							"name": "slippageTolerance",
							"type": "uint160",
							"internalType": "uint160"
						}
					],
					"outputs": [],
					"stateMutability": "nonpayable"
				},
				{
					"type": "function",
					"name": "currentSurplusOf",
					"inputs": [
						{
							"name": "projectId",
							"type": "uint256",
							"internalType": "uint256"
						},
						{
							"name": "decimals",
							"type": "uint256",
							"internalType": "uint256"
						},
						{
							"name": "currency",
							"type": "uint256",
							"internalType": "uint256"
						}
					],
					"outputs": [
						{
							"name": "",
							"type": "uint256",
							"internalType": "uint256"
						}
					],
					"stateMutability": "view"
				},
				{
					"type": "function",
					"name": "getPoolFor",
					"inputs": [
						{
							"name": "projectId",
							"type": "uint256",
							"internalType": "uint256"
						},
						{
							"name": "tokenIn",
							"type": "address",
							"internalType": "address"
						}
					],
					"outputs": [
						{
							"name": "",
							"type": "address",
							"internalType": "contract IUniswapV3Pool"
						}
					],
					"stateMutability": "view"
				},
				{
					"type": "function",
					"name": "migrateBalanceOf",
					"inputs": [
						{
							"name": "projectId",
							"type": "uint256",
							"internalType": "uint256"
						},
						{
							"name": "token",
							"type": "address",
							"internalType": "address"
						},
						{
							"name": "to",
							"type": "address",
							"internalType": "contract IJBTerminal"
						}
					],
					"outputs": [
						{
							"name": "balance",
							"type": "uint256",
							"internalType": "uint256"
						}
					],
					"stateMutability": "nonpayable"
				},
				{
					"type": "function",
					"name": "owner",
					"inputs": [],
					"outputs": [
						{
							"name": "",
							"type": "address",
							"internalType": "address"
						}
					],
					"stateMutability": "view"
				},
				{
					"type": "function",
					"name": "pay",
					"inputs": [
						{
							"name": "projectId",
							"type": "uint256",
							"internalType": "uint256"
						},
						{
							"name": "token",
							"type": "address",
							"internalType": "address"
						},
						{
							"name": "amount",
							"type": "uint256",
							"internalType": "uint256"
						},
						{
							"name": "beneficiary",
							"type": "address",
							"internalType": "address"
						},
						{
							"name": "minReturnedTokens",
							"type": "uint256",
							"internalType": "uint256"
						},
						{
							"name": "memo",
							"type": "string",
							"internalType": "string"
						},
						{
							"name": "metadata",
							"type": "bytes",
							"internalType": "bytes"
						}
					],
					"outputs": [
						{
							"name": "",
							"type": "uint256",
							"internalType": "uint256"
						}
					],
					"stateMutability": "payable"
				},
				{
					"type": "function",
					"name": "renounceOwnership",
					"inputs": [],
					"outputs": [],
					"stateMutability": "nonpayable"
				},
				{
					"type": "function",
					"name": "supportsInterface",
					"inputs": [
						{
							"name": "interfaceId",
							"type": "bytes4",
							"internalType": "bytes4"
						}
					],
					"outputs": [
						{
							"name": "",
							"type": "bool",
							"internalType": "bool"
						}
					],
					"stateMutability": "view"
				},
				{
					"type": "function",
					"name": "transferOwnership",
					"inputs": [
						{
							"name": "newOwner",
							"type": "address",
							"internalType": "address"
						}
					],
					"outputs": [],
					"stateMutability": "nonpayable"
				},
				{
					"type": "function",
					"name": "twapParamsOf",
					"inputs": [
						{
							"name": "projectId",
							"type": "uint256",
							"internalType": "uint256"
						},
						{
							"name": "pool",
							"type": "address",
							"internalType": "contract IUniswapV3Pool"
						}
					],
					"outputs": [
						{
							"name": "secondsAgo",
							"type": "uint32",
							"internalType": "uint32"
						},
						{
							"name": "slippageTolerance",
							"type": "uint160",
							"internalType": "uint160"
						}
					],
					"stateMutability": "view"
				},
				{
					"type": "function",
					"name": "uniswapV3SwapCallback",
					"inputs": [
						{
							"name": "amount0Delta",
							"type": "int256",
							"internalType": "int256"
						},
						{
							"name": "amount1Delta",
							"type": "int256",
							"internalType": "int256"
						},
						{
							"name": "data",
							"type": "bytes",
							"internalType": "bytes"
						}
					],
					"outputs": [],
					"stateMutability": "nonpayable"
				},
				{
					"type": "event",
					"name": "AddToBalance",
					"inputs": [
						{
							"name": "projectId",
							"type": "uint256",
							"indexed": true,
							"internalType": "uint256"
						},
						{
							"name": "amount",
							"type": "uint256",
							"indexed": false,
							"internalType": "uint256"
						},
						{
							"name": "unlockedFees",
							"type": "uint256",
							"indexed": false,
							"internalType": "uint256"
						},
						{
							"name": "memo",
							"type": "string",
							"indexed": false,
							"internalType": "string"
						},
						{
							"name": "metadata",
							"type": "bytes",
							"indexed": false,
							"internalType": "bytes"
						},
						{
							"name": "caller",
							"type": "address",
							"indexed": false,
							"internalType": "address"
						}
					],
					"anonymous": false
				},
				{
					"type": "event",
					"name": "HookAfterRecordPay",
					"inputs": [
						{
							"name": "hook",
							"type": "address",
							"indexed": true,
							"internalType": "contract IJBPayHook"
						},
						{
							"name": "context",
							"type": "tuple",
							"indexed": false,
							"internalType": "struct JBAfterPayRecordedContext",
							"components": [
								{
									"name": "payer",
									"type": "address",
									"internalType": "address"
								},
								{
									"name": "projectId",
									"type": "uint256",
									"internalType": "uint256"
								},
								{
									"name": "rulesetId",
									"type": "uint256",
									"internalType": "uint256"
								},
								{
									"name": "amount",
									"type": "tuple",
									"internalType": "struct JBTokenAmount",
									"components": [
										{
											"name": "token",
											"type": "address",
											"internalType": "address"
										},
										{
											"name": "value",
											"type": "uint256",
											"internalType": "uint256"
										},
										{
											"name": "decimals",
											"type": "uint256",
											"internalType": "uint256"
										},
										{
											"name": "currency",
											"type": "uint256",
											"internalType": "uint256"
										}
									]
								},
								{
									"name": "forwardedAmount",
									"type": "tuple",
									"internalType": "struct JBTokenAmount",
									"components": [
										{
											"name": "token",
											"type": "address",
											"internalType": "address"
										},
										{
											"name": "value",
											"type": "uint256",
											"internalType": "uint256"
										},
										{
											"name": "decimals",
											"type": "uint256",
											"internalType": "uint256"
										},
										{
											"name": "currency",
											"type": "uint256",
											"internalType": "uint256"
										}
									]
								},
								{
									"name": "weight",
									"type": "uint256",
									"internalType": "uint256"
								},
								{
									"name": "projectTokenCount",
									"type": "uint256",
									"internalType": "uint256"
								},
								{
									"name": "beneficiary",
									"type": "address",
									"internalType": "address"
								},
								{
									"name": "hookMetadata",
									"type": "bytes",
									"internalType": "bytes"
								},
								{
									"name": "payerMetadata",
									"type": "bytes",
									"internalType": "bytes"
								}
							]
						},
						{
							"name": "specificationAmount",
							"type": "uint256",
							"indexed": false,
							"internalType": "uint256"
						},
						{
							"name": "caller",
							"type": "address",
							"indexed": false,
							"internalType": "address"
						}
					],
					"anonymous": false
				},
				{
					"type": "event",
					"name": "MigrateTerminal",
					"inputs": [
						{
							"name": "projectId",
							"type": "uint256",
							"indexed": true,
							"internalType": "uint256"
						},
						{
							"name": "token",
							"type": "address",
							"indexed": true,
							"internalType": "address"
						},
						{
							"name": "to",
							"type": "address",
							"indexed": true,
							"internalType": "contract IJBTerminal"
						},
						{
							"name": "amount",
							"type": "uint256",
							"indexed": false,
							"internalType": "uint256"
						},
						{
							"name": "caller",
							"type": "address",
							"indexed": false,
							"internalType": "address"
						}
					],
					"anonymous": false
				},
				{
					"type": "event",
					"name": "OwnershipTransferred",
					"inputs": [
						{
							"name": "previousOwner",
							"type": "address",
							"indexed": true,
							"internalType": "address"
						},
						{
							"name": "newOwner",
							"type": "address",
							"indexed": true,
							"internalType": "address"
						}
					],
					"anonymous": false
				},
				{
					"type": "event",
					"name": "Pay",
					"inputs": [
						{
							"name": "rulesetId",
							"type": "uint256",
							"indexed": true,
							"internalType": "uint256"
						},
						{
							"name": "rulesetCycleNumber",
							"type": "uint256",
							"indexed": true,
							"internalType": "uint256"
						},
						{
							"name": "projectId",
							"type": "uint256",
							"indexed": true,
							"internalType": "uint256"
						},
						{
							"name": "payer",
							"type": "address",
							"indexed": false,
							"internalType": "address"
						},
						{
							"name": "beneficiary",
							"type": "address",
							"indexed": false,
							"internalType": "address"
						},
						{
							"name": "amount",
							"type": "uint256",
							"indexed": false,
							"internalType": "uint256"
						},
						{
							"name": "beneficiaryTokenCount",
							"type": "uint256",
							"indexed": false,
							"internalType": "uint256"
						},
						{
							"name": "memo",
							"type": "string",
							"indexed": false,
							"internalType": "string"
						},
						{
							"name": "metadata",
							"type": "bytes",
							"indexed": false,
							"internalType": "bytes"
						},
						{
							"name": "caller",
							"type": "address",
							"indexed": false,
							"internalType": "address"
						}
					],
					"anonymous": false
				},
				{
					"type": "event",
					"name": "SetAccountingContext",
					"inputs": [
						{
							"name": "projectId",
							"type": "uint256",
							"indexed": true,
							"internalType": "uint256"
						},
						{
							"name": "token",
							"type": "address",
							"indexed": true,
							"internalType": "address"
						},
						{
							"name": "context",
							"type": "tuple",
							"indexed": false,
							"internalType": "struct JBAccountingContext",
							"components": [
								{
									"name": "token",
									"type": "address",
									"internalType": "address"
								},
								{
									"name": "decimals",
									"type": "uint8",
									"internalType": "uint8"
								},
								{
									"name": "currency",
									"type": "uint32",
									"internalType": "uint32"
								}
							]
						},
						{
							"name": "caller",
							"type": "address",
							"indexed": false,
							"internalType": "address"
						}
					],
					"anonymous": false
				},
				{
					"type": "error",
					"name": "AddressEmptyCode",
					"inputs": [
						{
							"name": "target",
							"type": "address",
							"internalType": "address"
						}
					]
				},
				{
					"type": "error",
					"name": "AddressInsufficientBalance",
					"inputs": [
						{
							"name": "account",
							"type": "address",
							"internalType": "address"
						}
					]
				},
				{
					"type": "error",
					"name": "FailedInnerCall",
					"inputs": []
				},
				{
					"type": "error",
					"name": "MAX_SLIPPAGE",
					"inputs": [
						{
							"name": "",
							"type": "uint256",
							"internalType": "uint256"
						},
						{
							"name": "",
							"type": "uint256",
							"internalType": "uint256"
						}
					]
				},
				{
					"type": "error",
					"name": "NO_DEFAULT_POOL_DEFINED",
					"inputs": []
				},
				{
					"type": "error",
					"name": "NO_MSG_VALUE_ALLOWED",
					"inputs": []
				},
				{
					"type": "error",
					"name": "OwnableInvalidOwner",
					"inputs": [
						{
							"name": "owner",
							"type": "address",
							"internalType": "address"
						}
					]
				},
				{
					"type": "error",
					"name": "OwnableUnauthorizedAccount",
					"inputs": [
						{
							"name": "account",
							"type": "address",
							"internalType": "address"
						}
					]
				},
				{
					"type": "error",
					"name": "PERMIT_ALLOWANCE_NOT_ENOUGH",
					"inputs": []
				},
				{
					"type": "error",
					"name": "SafeERC20FailedOperation",
					"inputs": [
						{
							"name": "token",
							"type": "address",
							"internalType": "address"
						}
					]
				},
				{
					"type": "error",
					"name": "T",
					"inputs": []
				},
				{
					"type": "error",
					"name": "TOKEN_NOT_ACCEPTED",
					"inputs": []
				},
				{
					"type": "error",
					"name": "TOKEN_NOT_IN_POOL",
					"inputs": []
				},
				{
					"type": "error",
					"name": "UNAUTHORIZED",
					"inputs": []
				},
				{
					"type": "error",
					"name": "UNSUPPORTED",
					"inputs": []
				}
			],
			"solcInputHash": "7f4c6e44fd30511fa09b8ca63fd6e223",
			"receipt": {
				"blockHash": "0x1d3e704b2639f4b04eb68e8211e24b4f41a448493f52c975757591d40972cc3e",
				"blockNumber": 5506648,
				"contractAddress": null,
				"cumulativeGasUsed": "21371293",
				"from": "0xC034550B542b83BA1De312b21d1C94a9a52B1595",
				"gasPrice": "1290444087",
				"gasUsed": "3261405",
				"hash": "0x55b8a42ee53875edb680edb278019a5a11a43b3d6131f17b56a1258f54c2b077",
				"index": 95,
				"logs": [
					{
						"address": "0xB5E96127D417b1B3ef8438496a38A143167209c7",
						"blockHash": "0x1d3e704b2639f4b04eb68e8211e24b4f41a448493f52c975757591d40972cc3e",
						"blockNumber": 5506648,
						"data": "0x0000000000000000000000000000000000000000000000000000000000000000",
						"index": 257,
						"topics": [
							"0x572f161235911da04685a68c06adf558fc7e4a36909dca394650e0adc19cc93d",
							"0x000000000000000000000000c034550b542b83ba1de312b21d1c94a9a52b1595",
							"0x0000000000000000000000003f6eb31c3cafeb9163d09242a27d52e8cca6fa73",
							"0x38d217629ec0d7b64197226e5c13230db6b55db0a0c0415b29e3b20e65cdd6a7"
						],
						"transactionHash": "0x55b8a42ee53875edb680edb278019a5a11a43b3d6131f17b56a1258f54c2b077",
						"transactionIndex": 95
					},
					{
						"address": "0x292897faF48510eB7B66E75B54e6450A1E7F9314",
						"blockHash": "0x1d3e704b2639f4b04eb68e8211e24b4f41a448493f52c975757591d40972cc3e",
						"blockNumber": 5506648,
						"data": "0x",
						"index": 258,
						"topics": [
							"0x8be0079c531659141344cd1fd0a4f28419497f9722a3daafe3b4186f6b6457e0",
							"0x0000000000000000000000000000000000000000000000000000000000000000",
							"0x000000000000000000000000823b92d6a4b2aed4b15675c7917c9f922ea8adad"
						],
						"transactionHash": "0x55b8a42ee53875edb680edb278019a5a11a43b3d6131f17b56a1258f54c2b077",
						"transactionIndex": 95
					},
					{
						"address": "0x21CD04c712ca1206baE783EC9B715361DfC28026",
						"blockHash": "0x1d3e704b2639f4b04eb68e8211e24b4f41a448493f52c975757591d40972cc3e",
						"blockNumber": 5506648,
						"data": "0x",
						"index": 259,
						"topics": [
							"0x6895c13664aa4f67288b25d7a21d7aaa34916e355fb9b6fae0a139a9085becb8",
							"0x0000000000000000000000003f6eb31c3cafeb9163d09242a27d52e8cca6fa73"
						],
						"transactionHash": "0x55b8a42ee53875edb680edb278019a5a11a43b3d6131f17b56a1258f54c2b077",
						"transactionIndex": 95
					},
					{
						"address": "0x3f6eB31C3cAFEb9163d09242A27D52E8cCa6Fa73",
						"blockHash": "0x1d3e704b2639f4b04eb68e8211e24b4f41a448493f52c975757591d40972cc3e",
						"blockNumber": 5506648,
						"data": "0x0000000000000000000000000000000000000000000000000000000000000001",
						"index": 260,
						"topics": [
							"0xa65fb05c5808f5f389d72edeaf719ce38f4cc55c1f69ca3cbfb31c21501caa07",
							"0x66ead23d7446586786c6ec6fbe79883cd2f094ebbc498c94fa3085ed8d8e8f1d"
						],
						"transactionHash": "0x55b8a42ee53875edb680edb278019a5a11a43b3d6131f17b56a1258f54c2b077",
						"transactionIndex": 95
					},
					{
						"address": "0x3f6eB31C3cAFEb9163d09242A27D52E8cCa6Fa73",
						"blockHash": "0x1d3e704b2639f4b04eb68e8211e24b4f41a448493f52c975757591d40972cc3e",
						"blockNumber": 5506648,
						"data": "0x",
						"index": 261,
						"topics": [
							"0x4383d976757d67ca920616be0b6430a681ea9d3dcce8d6d61d4603ca4a9bff63",
							"0x66ead23d7446586786c6ec6fbe79883cd2f094ebbc498c94fa3085ed8d8e8f1d"
						],
						"transactionHash": "0x55b8a42ee53875edb680edb278019a5a11a43b3d6131f17b56a1258f54c2b077",
						"transactionIndex": 95
					}
				],
				"logsBloom": "0x00000000080010000000000000080000000008000008000000800000004000000000000000000000008000000140000000000000000000000000100000001000000000000020200000000000800000000001000000000000000000800000100000000000020000000000000000000c0010000000000000000000040000000040000800000000000200010000000000000000000001000000000000000000000100400088001000000000000000000002020004000000008000000000000400000000000000000000000000000c000000000000000000000000000200000020000000000000000008000000000000000200000000000000000000000008000000",
				"status": 1,
				"to": "0xB5E96127D417b1B3ef8438496a38A143167209c7"
			},
			"metadata": "{\"compiler\":{\"version\":\"0.8.23+commit.f704f362\"},\"language\":\"Solidity\",\"output\":{\"abi\":[{\"inputs\":[{\"internalType\":\"contract IJBProjects\",\"name\":\"projects\",\"type\":\"address\"},{\"internalType\":\"contract IJBPermissions\",\"name\":\"permissions\",\"type\":\"address\"},{\"internalType\":\"contract IJBDirectory\",\"name\":\"directory\",\"type\":\"address\"},{\"internalType\":\"contract IPermit2\",\"name\":\"permit2\",\"type\":\"address\"},{\"internalType\":\"address\",\"name\":\"_owner\",\"type\":\"address\"},{\"internalType\":\"contract IWETH9\",\"name\":\"weth\",\"type\":\"address\"}],\"stateMutability\":\"nonpayable\",\"type\":\"constructor\"},{\"inputs\":[{\"internalType\":\"address\",\"name\":\"target\",\"type\":\"address\"}],\"type\":\"error\",\"name\":\"AddressEmptyCode\"},{\"inputs\":[{\"internalType\":\"address\",\"name\":\"account\",\"type\":\"address\"}],\"type\":\"error\",\"name\":\"AddressInsufficientBalance\"},{\"inputs\":[],\"type\":\"error\",\"name\":\"FailedInnerCall\"},{\"inputs\":[{\"internalType\":\"uint256\",\"name\":\"\",\"type\":\"uint256\"},{\"internalType\":\"uint256\",\"name\":\"\",\"type\":\"uint256\"}],\"type\":\"error\",\"name\":\"MAX_SLIPPAGE\"},{\"inputs\":[],\"type\":\"error\",\"name\":\"NO_DEFAULT_POOL_DEFINED\"},{\"inputs\":[],\"type\":\"error\",\"name\":\"NO_MSG_VALUE_ALLOWED\"},{\"inputs\":[{\"internalType\":\"address\",\"name\":\"owner\",\"type\":\"address\"}],\"type\":\"error\",\"name\":\"OwnableInvalidOwner\"},{\"inputs\":[{\"internalType\":\"address\",\"name\":\"account\",\"type\":\"address\"}],\"type\":\"error\",\"name\":\"OwnableUnauthorizedAccount\"},{\"inputs\":[],\"type\":\"error\",\"name\":\"PERMIT_ALLOWANCE_NOT_ENOUGH\"},{\"inputs\":[{\"internalType\":\"address\",\"name\":\"token\",\"type\":\"address\"}],\"type\":\"error\",\"name\":\"SafeERC20FailedOperation\"},{\"inputs\":[],\"type\":\"error\",\"name\":\"T\"},{\"inputs\":[],\"type\":\"error\",\"name\":\"TOKEN_NOT_ACCEPTED\"},{\"inputs\":[],\"type\":\"error\",\"name\":\"TOKEN_NOT_IN_POOL\"},{\"inputs\":[],\"type\":\"error\",\"name\":\"UNAUTHORIZED\"},{\"inputs\":[],\"type\":\"error\",\"name\":\"UNSUPPORTED\"},{\"inputs\":[{\"internalType\":\"uint256\",\"name\":\"projectId\",\"type\":\"uint256\",\"indexed\":true},{\"internalType\":\"uint256\",\"name\":\"amount\",\"type\":\"uint256\",\"indexed\":false},{\"internalType\":\"uint256\",\"name\":\"unlockedFees\",\"type\":\"uint256\",\"indexed\":false},{\"internalType\":\"string\",\"name\":\"memo\",\"type\":\"string\",\"indexed\":false},{\"internalType\":\"bytes\",\"name\":\"metadata\",\"type\":\"bytes\",\"indexed\":false},{\"internalType\":\"address\",\"name\":\"caller\",\"type\":\"address\",\"indexed\":false}],\"type\":\"event\",\"name\":\"AddToBalance\",\"anonymous\":false},{\"inputs\":[{\"internalType\":\"contract IJBPayHook\",\"name\":\"hook\",\"type\":\"address\",\"indexed\":true},{\"internalType\":\"struct JBAfterPayRecordedContext\",\"name\":\"context\",\"type\":\"tuple\",\"components\":[{\"internalType\":\"address\",\"name\":\"payer\",\"type\":\"address\"},{\"internalType\":\"uint256\",\"name\":\"projectId\",\"type\":\"uint256\"},{\"internalType\":\"uint256\",\"name\":\"rulesetId\",\"type\":\"uint256\"},{\"internalType\":\"struct JBTokenAmount\",\"name\":\"amount\",\"type\":\"tuple\",\"components\":[{\"internalType\":\"address\",\"name\":\"token\",\"type\":\"address\"},{\"internalType\":\"uint256\",\"name\":\"value\",\"type\":\"uint256\"},{\"internalType\":\"uint256\",\"name\":\"decimals\",\"type\":\"uint256\"},{\"internalType\":\"uint256\",\"name\":\"currency\",\"type\":\"uint256\"}]},{\"internalType\":\"struct JBTokenAmount\",\"name\":\"forwardedAmount\",\"type\":\"tuple\",\"components\":[{\"internalType\":\"address\",\"name\":\"token\",\"type\":\"address\"},{\"internalType\":\"uint256\",\"name\":\"value\",\"type\":\"uint256\"},{\"internalType\":\"uint256\",\"name\":\"decimals\",\"type\":\"uint256\"},{\"internalType\":\"uint256\",\"name\":\"currency\",\"type\":\"uint256\"}]},{\"internalType\":\"uint256\",\"name\":\"weight\",\"type\":\"uint256\"},{\"internalType\":\"uint256\",\"name\":\"projectTokenCount\",\"type\":\"uint256\"},{\"internalType\":\"address\",\"name\":\"beneficiary\",\"type\":\"address\"},{\"internalType\":\"bytes\",\"name\":\"hookMetadata\",\"type\":\"bytes\"},{\"internalType\":\"bytes\",\"name\":\"payerMetadata\",\"type\":\"bytes\"}],\"indexed\":false},{\"internalType\":\"uint256\",\"name\":\"specificationAmount\",\"type\":\"uint256\",\"indexed\":false},{\"internalType\":\"address\",\"name\":\"caller\",\"type\":\"address\",\"indexed\":false}],\"type\":\"event\",\"name\":\"HookAfterRecordPay\",\"anonymous\":false},{\"inputs\":[{\"internalType\":\"uint256\",\"name\":\"projectId\",\"type\":\"uint256\",\"indexed\":true},{\"internalType\":\"address\",\"name\":\"token\",\"type\":\"address\",\"indexed\":true},{\"internalType\":\"contract IJBTerminal\",\"name\":\"to\",\"type\":\"address\",\"indexed\":true},{\"internalType\":\"uint256\",\"name\":\"amount\",\"type\":\"uint256\",\"indexed\":false},{\"internalType\":\"address\",\"name\":\"caller\",\"type\":\"address\",\"indexed\":false}],\"type\":\"event\",\"name\":\"MigrateTerminal\",\"anonymous\":false},{\"inputs\":[{\"internalType\":\"address\",\"name\":\"previousOwner\",\"type\":\"address\",\"indexed\":true},{\"internalType\":\"address\",\"name\":\"newOwner\",\"type\":\"address\",\"indexed\":true}],\"type\":\"event\",\"name\":\"OwnershipTransferred\",\"anonymous\":false},{\"inputs\":[{\"internalType\":\"uint256\",\"name\":\"rulesetId\",\"type\":\"uint256\",\"indexed\":true},{\"internalType\":\"uint256\",\"name\":\"rulesetCycleNumber\",\"type\":\"uint256\",\"indexed\":true},{\"internalType\":\"uint256\",\"name\":\"projectId\",\"type\":\"uint256\",\"indexed\":true},{\"internalType\":\"address\",\"name\":\"payer\",\"type\":\"address\",\"indexed\":false},{\"internalType\":\"address\",\"name\":\"beneficiary\",\"type\":\"address\",\"indexed\":false},{\"internalType\":\"uint256\",\"name\":\"amount\",\"type\":\"uint256\",\"indexed\":false},{\"internalType\":\"uint256\",\"name\":\"beneficiaryTokenCount\",\"type\":\"uint256\",\"indexed\":false},{\"internalType\":\"string\",\"name\":\"memo\",\"type\":\"string\",\"indexed\":false},{\"internalType\":\"bytes\",\"name\":\"metadata\",\"type\":\"bytes\",\"indexed\":false},{\"internalType\":\"address\",\"name\":\"caller\",\"type\":\"address\",\"indexed\":false}],\"type\":\"event\",\"name\":\"Pay\",\"anonymous\":false},{\"inputs\":[{\"internalType\":\"uint256\",\"name\":\"projectId\",\"type\":\"uint256\",\"indexed\":true},{\"internalType\":\"address\",\"name\":\"token\",\"type\":\"address\",\"indexed\":true},{\"internalType\":\"struct JBAccountingContext\",\"name\":\"context\",\"type\":\"tuple\",\"components\":[{\"internalType\":\"address\",\"name\":\"token\",\"type\":\"address\"},{\"internalType\":\"uint8\",\"name\":\"decimals\",\"type\":\"uint8\"},{\"internalType\":\"uint32\",\"name\":\"currency\",\"type\":\"uint32\"}],\"indexed\":false},{\"internalType\":\"address\",\"name\":\"caller\",\"type\":\"address\",\"indexed\":false}],\"type\":\"event\",\"name\":\"SetAccountingContext\",\"anonymous\":false},{\"inputs\":[],\"stateMutability\":\"view\",\"type\":\"function\",\"name\":\"DIRECTORY\",\"outputs\":[{\"internalType\":\"contract IJBDirectory\",\"name\":\"\",\"type\":\"address\"}]},{\"inputs\":[],\"stateMutability\":\"view\",\"type\":\"function\",\"name\":\"PERMISSIONS\",\"outputs\":[{\"internalType\":\"contract IJBPermissions\",\"name\":\"\",\"type\":\"address\"}]},{\"inputs\":[],\"stateMutability\":\"view\",\"type\":\"function\",\"name\":\"PERMIT2\",\"outputs\":[{\"internalType\":\"contract IPermit2\",\"name\":\"\",\"type\":\"address\"}]},{\"inputs\":[],\"stateMutability\":\"view\",\"type\":\"function\",\"name\":\"PROJECTS\",\"outputs\":[{\"internalType\":\"contract IJBProjects\",\"name\":\"\",\"type\":\"address\"}]},{\"inputs\":[],\"stateMutability\":\"view\",\"type\":\"function\",\"name\":\"STORE\",\"outputs\":[{\"internalType\":\"contract IJBTerminalStore\",\"name\":\"\",\"type\":\"address\"}]},{\"inputs\":[],\"stateMutability\":\"view\",\"type\":\"function\",\"name\":\"WETH\",\"outputs\":[{\"internalType\":\"contract IWETH9\",\"name\":\"\",\"type\":\"address\"}]},{\"inputs\":[{\"internalType\":\"uint256\",\"name\":\"projectId\",\"type\":\"uint256\"},{\"internalType\":\"address\",\"name\":\"token\",\"type\":\"address\"}],\"stateMutability\":\"view\",\"type\":\"function\",\"name\":\"accountingContextForTokenOf\",\"outputs\":[{\"internalType\":\"struct JBAccountingContext\",\"name\":\"\",\"type\":\"tuple\",\"components\":[{\"internalType\":\"address\",\"name\":\"token\",\"type\":\"address\"},{\"internalType\":\"uint8\",\"name\":\"decimals\",\"type\":\"uint8\"},{\"internalType\":\"uint32\",\"name\":\"currency\",\"type\":\"uint32\"}]}]},{\"inputs\":[{\"internalType\":\"uint256\",\"name\":\"projectId\",\"type\":\"uint256\"}],\"stateMutability\":\"view\",\"type\":\"function\",\"name\":\"accountingContextsOf\",\"outputs\":[{\"internalType\":\"struct JBAccountingContext[]\",\"name\":\"\",\"type\":\"tuple[]\",\"components\":[{\"internalType\":\"address\",\"name\":\"token\",\"type\":\"address\"},{\"internalType\":\"uint8\",\"name\":\"decimals\",\"type\":\"uint8\"},{\"internalType\":\"uint32\",\"name\":\"currency\",\"type\":\"uint32\"}]}]},{\"inputs\":[{\"internalType\":\"uint256\",\"name\":\"projectId\",\"type\":\"uint256\"},{\"internalType\":\"address[]\",\"name\":\"tokens\",\"type\":\"address[]\"}],\"stateMutability\":\"nonpayable\",\"type\":\"function\",\"name\":\"addAccountingContextsFor\"},{\"inputs\":[{\"internalType\":\"uint256\",\"name\":\"projectId\",\"type\":\"uint256\"},{\"internalType\":\"address\",\"name\":\"token\",\"type\":\"address\"},{\"internalType\":\"contract IUniswapV3Pool\",\"name\":\"pool\",\"type\":\"address\"}],\"stateMutability\":\"nonpayable\",\"type\":\"function\",\"name\":\"addDefaultPool\"},{\"inputs\":[{\"internalType\":\"uint256\",\"name\":\"\",\"type\":\"uint256\"},{\"internalType\":\"address\",\"name\":\"\",\"type\":\"address\"},{\"internalType\":\"uint256\",\"name\":\"\",\"type\":\"uint256\"},{\"internalType\":\"bool\",\"name\":\"\",\"type\":\"bool\"},{\"internalType\":\"string\",\"name\":\"\",\"type\":\"string\"},{\"internalType\":\"bytes\",\"name\":\"\",\"type\":\"bytes\"}],\"stateMutability\":\"payable\",\"type\":\"function\",\"name\":\"addToBalanceOf\"},{\"inputs\":[{\"internalType\":\"uint256\",\"name\":\"projectId\",\"type\":\"uint256\"},{\"internalType\":\"contract IUniswapV3Pool\",\"name\":\"pool\",\"type\":\"address\"},{\"internalType\":\"uint32\",\"name\":\"secondsAgo\",\"type\":\"uint32\"},{\"internalType\":\"uint160\",\"name\":\"slippageTolerance\",\"type\":\"uint160\"}],\"stateMutability\":\"nonpayable\",\"type\":\"function\",\"name\":\"addTwapParamsFor\"},{\"inputs\":[{\"internalType\":\"uint256\",\"name\":\"projectId\",\"type\":\"uint256\"},{\"internalType\":\"uint256\",\"name\":\"decimals\",\"type\":\"uint256\"},{\"internalType\":\"uint256\",\"name\":\"currency\",\"type\":\"uint256\"}],\"stateMutability\":\"view\",\"type\":\"function\",\"name\":\"currentSurplusOf\",\"outputs\":[{\"internalType\":\"uint256\",\"name\":\"\",\"type\":\"uint256\"}]},{\"inputs\":[{\"internalType\":\"uint256\",\"name\":\"projectId\",\"type\":\"uint256\"},{\"internalType\":\"address\",\"name\":\"tokenIn\",\"type\":\"address\"}],\"stateMutability\":\"view\",\"type\":\"function\",\"name\":\"getPoolFor\",\"outputs\":[{\"internalType\":\"contract IUniswapV3Pool\",\"name\":\"\",\"type\":\"address\"}]},{\"inputs\":[{\"internalType\":\"uint256\",\"name\":\"projectId\",\"type\":\"uint256\"},{\"internalType\":\"address\",\"name\":\"token\",\"type\":\"address\"},{\"internalType\":\"contract IJBTerminal\",\"name\":\"to\",\"type\":\"address\"}],\"stateMutability\":\"nonpayable\",\"type\":\"function\",\"name\":\"migrateBalanceOf\",\"outputs\":[{\"internalType\":\"uint256\",\"name\":\"balance\",\"type\":\"uint256\"}]},{\"inputs\":[],\"stateMutability\":\"view\",\"type\":\"function\",\"name\":\"owner\",\"outputs\":[{\"internalType\":\"address\",\"name\":\"\",\"type\":\"address\"}]},{\"inputs\":[{\"internalType\":\"uint256\",\"name\":\"projectId\",\"type\":\"uint256\"},{\"internalType\":\"address\",\"name\":\"token\",\"type\":\"address\"},{\"internalType\":\"uint256\",\"name\":\"amount\",\"type\":\"uint256\"},{\"internalType\":\"address\",\"name\":\"beneficiary\",\"type\":\"address\"},{\"internalType\":\"uint256\",\"name\":\"minReturnedTokens\",\"type\":\"uint256\"},{\"internalType\":\"string\",\"name\":\"memo\",\"type\":\"string\"},{\"internalType\":\"bytes\",\"name\":\"metadata\",\"type\":\"bytes\"}],\"stateMutability\":\"payable\",\"type\":\"function\",\"name\":\"pay\",\"outputs\":[{\"internalType\":\"uint256\",\"name\":\"\",\"type\":\"uint256\"}]},{\"inputs\":[],\"stateMutability\":\"nonpayable\",\"type\":\"function\",\"name\":\"renounceOwnership\"},{\"inputs\":[{\"internalType\":\"bytes4\",\"name\":\"interfaceId\",\"type\":\"bytes4\"}],\"stateMutability\":\"view\",\"type\":\"function\",\"name\":\"supportsInterface\",\"outputs\":[{\"internalType\":\"bool\",\"name\":\"\",\"type\":\"bool\"}]},{\"inputs\":[{\"internalType\":\"address\",\"name\":\"newOwner\",\"type\":\"address\"}],\"stateMutability\":\"nonpayable\",\"type\":\"function\",\"name\":\"transferOwnership\"},{\"inputs\":[{\"internalType\":\"uint256\",\"name\":\"projectId\",\"type\":\"uint256\"},{\"internalType\":\"contract IUniswapV3Pool\",\"name\":\"pool\",\"type\":\"address\"}],\"stateMutability\":\"view\",\"type\":\"function\",\"name\":\"twapParamsOf\",\"outputs\":[{\"internalType\":\"uint32\",\"name\":\"secondsAgo\",\"type\":\"uint32\"},{\"internalType\":\"uint160\",\"name\":\"slippageTolerance\",\"type\":\"uint160\"}]},{\"inputs\":[{\"internalType\":\"int256\",\"name\":\"amount0Delta\",\"type\":\"int256\"},{\"internalType\":\"int256\",\"name\":\"amount1Delta\",\"type\":\"int256\"},{\"internalType\":\"bytes\",\"name\":\"data\",\"type\":\"bytes\"}],\"stateMutability\":\"nonpayable\",\"type\":\"function\",\"name\":\"uniswapV3SwapCallback\"},{\"inputs\":[],\"stateMutability\":\"payable\",\"type\":\"receive\"}],\"devdoc\":{\"kind\":\"dev\",\"methods\":{\"accountingContextForTokenOf(uint256,address)\":{\"details\":\"Accounting contexts are set up in `addDefaultPool(...)`.\",\"params\":{\"projectId\":\"The ID of the project to get the accounting context for.\",\"token\":\"The address of the token to get the accounting context for.\"},\"returns\":{\"_0\":\"A `JBAccountingContext` containing the accounting context for the project ID and token.\"}},\"accountingContextsOf(uint256)\":{\"details\":\"This includes both project-specific and generic accounting contexts, with the project-specific contexts         taking precedence.\",\"params\":{\"projectId\":\"The ID of the project to get the accounting contexts for.\"},\"returns\":{\"_0\":\"An array of `JBAccountingContext` containing the accounting contexts for the project ID.\"}},\"addDefaultPool(uint256,address,address)\":{\"params\":{\"pool\":\"The Uniswap V3 pool to set as the default for the specified token.\",\"projectId\":\"The ID of the project to set the default pool for. The project 0 acts as a catch-all, where non-set pools are defaulted to.\",\"token\":\"The address of the token to set the default pool for.\"}},\"addTwapParamsFor(uint256,address,uint32,uint160)\":{\"params\":{\"projectId\":\"The ID of the project to set the TWAP-based quote rules for.\",\"secondsAgo\":\"The period of time over which the TWAP is calculated, in seconds.\",\"slippageTolerance\":\"The maximum spread allowed between the amount received and the TWAP (as a fraction out of `SLIPPAGE_DENOMINATOR`).\"}},\"getPoolFor(uint256,address)\":{\"params\":{\"projectId\":\"The ID of the project to retrieve the default pool for.\",\"tokenIn\":\"The address of the token to retrieve the default pool for.\"},\"returns\":{\"_0\":\"pool The default pool for the token, or the overall default pool for the token if the\"}},\"owner()\":{\"details\":\"Returns the address of the current owner.\"},\"pay(uint256,address,uint256,address,uint256,string,bytes)\":{\"params\":{\"amount\":\"The amount of tokens being paid in, as a fixed point number with the same amount of decimals as the `token`. If `token` is the native token, `amount` is ignored and `msg.value` is used in its place.\",\"beneficiary\":\"The beneficiary address to pass along to the other terminal. If the other terminal mints tokens, for example, they will be minted for this address.\",\"memo\":\"A memo to pass along to the emitted event.\",\"metadata\":\"Bytes in `JBMetadataResolver`'s format which can contain a quote from the user/client. The quote should contain a minimum amount of tokens to receive from the swap and the pool to use. This metadata is also passed to the other terminal's emitted event, as well as its data hook and pay hook if applicable.\",\"minReturnedTokens\":\"The minimum number of project tokens expected in return, as a fixed point number with the same number of decimals as the other terminal. This value will be passed along to the other terminal.\",\"projectId\":\"The ID of the project being paid.\",\"token\":\"The address of the token being paid in.\"},\"returns\":{\"_0\":\"The number of tokens received from the swap, as a fixed point number with the same amount of decimals as that token.\"}},\"renounceOwnership()\":{\"details\":\"Leaves the contract without owner. It will not be possible to call `onlyOwner` functions. Can only be called by the current owner. NOTE: Renouncing ownership will leave the contract without an owner, thereby disabling any functionality that is only available to the owner.\"},\"supportsInterface(bytes4)\":{\"details\":\"See {IERC165-supportsInterface}.\",\"params\":{\"interfaceId\":\"The ID of the interface to check for adherance to.\"},\"returns\":{\"_0\":\"A flag indicating if the provided interface ID is supported.\"}},\"transferOwnership(address)\":{\"details\":\"Transfers ownership of the contract to a new account (`newOwner`). Can only be called by the current owner.\"},\"twapParamsOf(uint256,address)\":{\"params\":{\"projectId\":\"The ID of the project to retrieve TWAP parameters for.\"},\"returns\":{\"secondsAgo\":\"The period of time in the past to calculate the TWAP from.\",\"slippageTolerance\":\"The maximum allowed slippage tolerance when calculating the TWAP, as a fraction out of `SLIPPAGE_DENOMINATOR`.\"}},\"uniswapV3SwapCallback(int256,int256,bytes)\":{\"params\":{\"amount0Delta\":\"The amount of token 0 being used for the swap.\",\"amount1Delta\":\"The amount of token 1 being used for the swap.\",\"data\":\"Data passed in by the swap operation.\"}}},\"version\":1},\"userdoc\":{\"kind\":\"user\",\"methods\":{\"DIRECTORY()\":{\"notice\":\"The directory of terminals and controllers for `PROJECTS`.\"},\"PERMISSIONS()\":{\"notice\":\"A contract storing permissions.\"},\"PERMIT2()\":{\"notice\":\"The permit2 utility.\"},\"PROJECTS()\":{\"notice\":\"Mints ERC-721s that represent project ownership and transfers.\"},\"STORE()\":{\"notice\":\"The contract that stores and manages this terminal's data.\"},\"WETH()\":{\"notice\":\"The ERC-20 wrapper for the native token.\"},\"accountingContextForTokenOf(uint256,address)\":{\"notice\":\"Get the accounting context for the specified project ID and token.\"},\"accountingContextsOf(uint256)\":{\"notice\":\"Return all the accounting contexts for a specified project ID.\"},\"addAccountingContextsFor(uint256,address[])\":{\"notice\":\"Empty implementation to satisfy the interface. Accounting contexts are set in `addDefaultPool(...)`.\"},\"addDefaultPool(uint256,address,address)\":{\"notice\":\"Set a project's default pool and accounting context for the specified token. Only the project's owner, an address with `MODIFY_DEFAULT_POOL` permission from the owner or the terminal owner can call this function.\"},\"addToBalanceOf(uint256,address,uint256,bool,string,bytes)\":{\"notice\":\"This terminal does not support adding to balances.\"},\"addTwapParamsFor(uint256,address,uint32,uint160)\":{\"notice\":\"Set the specified project's rules for calculating a quote based on the TWAP. Only the project's owner or an address with `MODIFY_TWAP_PARAMS` permission from the owner  or the terminal owner can call this function.\"},\"currentSurplusOf(uint256,uint256,uint256)\":{\"notice\":\"Empty implementation to satisfy the interface. This terminal has no surplus.\"},\"getPoolFor(uint256,address)\":{\"notice\":\"Returns the default pool for a given project and token or, if a project has no default pool for the         token, the overal default pool for the token\"},\"migrateBalanceOf(uint256,address,address)\":{\"notice\":\"Empty implementation to satisfy the interface.\"},\"pay(uint256,address,uint256,address,uint256,string,bytes)\":{\"notice\":\"Pay a project by swapping the incoming tokens for tokens that one of the project's other terminals accepts, passing along the funds received from the swap and the specified parameters.\"},\"supportsInterface(bytes4)\":{\"notice\":\"Indicates if this contract adheres to the specified interface.\"},\"twapParamsOf(uint256,address)\":{\"notice\":\"Returns the default twap parameters for a given pool project.\"},\"uniswapV3SwapCallback(int256,int256,bytes)\":{\"notice\":\"The Uniswap v3 pool callback where the token transfer is expected to happen.\"}},\"version\":1}},\"settings\":{\"remappings\":[\"@bananapus/=node_modules/@bananapus/\",\"@chainlink/=node_modules/@chainlink/\",\"@eth-optimism/=node_modules/@eth-optimism/\",\"@exhausted-pigeon/=node_modules/@exhausted-pigeon/\",\"@gnosis.pm/=node_modules/@gnosis.pm/\",\"@openzeppelin/=node_modules/@openzeppelin/\",\"@prb/=node_modules/@prb/\",\"@sphinx-labs/contracts/=node_modules/@sphinx-labs/contracts/contracts/foundry/\",\"@uniswap/=node_modules/@uniswap/\",\"base64-sol/=node_modules/base64-sol/\",\"ds-test/=lib/forge-std/lib/ds-test/src/\",\"forge-std/=lib/forge-std/src/\",\"hardhat/=node_modules/hardhat/\",\"solmate/=node_modules/solmate/\",\"sphinx-forge-std/=node_modules/sphinx-forge-std/\",\"sphinx-solmate/=node_modules/sphinx-solmate/\",\"sphinx/=lib/sphinx/packages/contracts/contracts/forge-std/src/\"],\"optimizer\":{\"enabled\":true,\"runs\":200},\"metadata\":{\"bytecodeHash\":\"ipfs\"},\"compilationTarget\":{\"src/JBSwapTerminal.sol\":\"JBSwapTerminal\"},\"evmVersion\":\"paris\",\"libraries\":{}},\"sources\":{\"node_modules/@bananapus/core/src/abstract/JBPermissioned.sol\":{\"keccak256\":\"0xbe593894bc9893f7fe5c96f14c013add8f50df762538e3d7cb96ed39ad195664\",\"urls\":[\"bzz-raw://efb81264b24776e6be537680abaeb8c4893e70d8a62231748d860e25a7c2340d\",\"dweb:/ipfs/QmacN9gFgPqkhTEwRD7Zben3whq9DRr2ZkSmScGvioTXXR\"],\"license\":\"MIT\"},\"node_modules/@bananapus/core/src/enums/JBApprovalStatus.sol\":{\"keccak256\":\"0x61c69b6bac7d24b566d87cda23a77e4ca9cdb87200b106aba8534cb9a0973e33\",\"urls\":[\"bzz-raw://6a9ca7249de76f77a8252eefe6bd1b63d47952f25a2acfa2c8db967cdff4470c\",\"dweb:/ipfs/QmaxSxptRQNj8bNy96EreENmrnRWdKmhyihBcxyWzBX5BN\"],\"license\":\"MIT\"},\"node_modules/@bananapus/core/src/interfaces/IJBControlled.sol\":{\"keccak256\":\"0x79fb8de7b3f809f1c3c7189f578b7331ec4dfe3350151d5b50240ecb3a2a907b\",\"urls\":[\"bzz-raw://45c82240dd4f0e9aec00d0d86f6b44bdda231db098ebdac17e922771b3e6f342\",\"dweb:/ipfs/QmPUvT8HZeVenrZDpP14HsZofaXPJjih8UAd35rTg3tU7E\"],\"license\":\"MIT\"},\"node_modules/@bananapus/core/src/interfaces/IJBDirectory.sol\":{\"keccak256\":\"0xd15957cc32974cde4f9f194b92574df2ad8a7aeec049d947136ce3381f9145f6\",\"urls\":[\"bzz-raw://7543e5cbde75ff777b16067016ff9ac5e995752842f03662137eb4ef3fc3c868\",\"dweb:/ipfs/QmPJZAmqNKRcj1JQ4Kc9hExbMtPPzrRB5hZ787utCfBmXg\"],\"license\":\"MIT\"},\"node_modules/@bananapus/core/src/interfaces/IJBPayHook.sol\":{\"keccak256\":\"0xe24aa2ca52f7a5f24f24ccae101cfc94d0f76705b2d23222f87c7852f8be4267\",\"urls\":[\"bzz-raw://6888140e9a7d4156fd22635654d5d08e21819af8b0356b5415f37b75083b3eb9\",\"dweb:/ipfs/QmbuwBNhar7rEbRhTJPiyo5PVsfaM5nqLow9NAkHhyvjV5\"],\"license\":\"MIT\"},\"node_modules/@bananapus/core/src/interfaces/IJBPermissioned.sol\":{\"keccak256\":\"0x5b038d4dee116584e88b230920e56d48e135053e3f7e5642eaea14a775c1dad7\",\"urls\":[\"bzz-raw://19e43102f349fd4a1da1c0943ffb8f2950007fe4bb4bb7e8f74fc142575d091b\",\"dweb:/ipfs/QmXHAt4KzDTdDZgDDefEXH2WKi7NcfkJb9R7nxW5uDqsNp\"],\"license\":\"MIT\"},\"node_modules/@bananapus/core/src/interfaces/IJBPermissions.sol\":{\"keccak256\":\"0x18870e500edf0fbadc353e273a5574701fb80466376b908c65e7cc3f11044d4d\",\"urls\":[\"bzz-raw://352a47c45853aec80e7acf0d286ade3106eb4cb456776b28a3c2f3f1091bed90\",\"dweb:/ipfs/QmQeYd3YbudYZy2hfbfht9kwhxhw4tuuLKMEYy9UY6dcSy\"],\"license\":\"MIT\"},\"node_modules/@bananapus/core/src/interfaces/IJBPriceFeed.sol\":{\"keccak256\":\"0x4bd84c0f1a5d4729ed709bcddd43f4c50ec4a165ece79780af8dce482ed07d4a\",\"urls\":[\"bzz-raw://62bac4bfb6982fb002f620c77e5c445e62d50241a5aa64a07e51d929f5a42180\",\"dweb:/ipfs/QmWgJUDreVY2BuMX38a1iUUR5kNbMwGnKG3VvurB7oZtuM\"],\"license\":\"MIT\"},\"node_modules/@bananapus/core/src/interfaces/IJBPrices.sol\":{\"keccak256\":\"0x99525f31440b955742dce84ba57de9fc1221139b5367c1f834723bef9e13e6e1\",\"urls\":[\"bzz-raw://6fa03f0cd4ad87dd7cbae7bf7f54463450874291773c8f70f2c31ef2cae62bb0\",\"dweb:/ipfs/QmSPajPV5ismteJuB6Spzm9VmhTj2iS3eVrfpJC1Zuzg8n\"],\"license\":\"MIT\"},\"node_modules/@bananapus/core/src/interfaces/IJBProjects.sol\":{\"keccak256\":\"0x85539f72c5871c53a919edc7db78931155464e9e00fccd30079b17e75820ddb9\",\"urls\":[\"bzz-raw://505466dbfbdeec77f948ce065676897a5b4a74b70bb234c1053b893c4849f3a1\",\"dweb:/ipfs/QmYBpZQub3Mv19xsRWqvzgiQSBAp4UNaKcqWQ2wwH62H95\"],\"license\":\"MIT\"},\"node_modules/@bananapus/core/src/interfaces/IJBRedeemHook.sol\":{\"keccak256\":\"0x4ea5b7ed510c9d29aca47ae3f8b41ef075dff4b9909779ec2c0e5b7bc30250c6\",\"urls\":[\"bzz-raw://770b785134ba71e3284dc7e05e44f429e7a8393423ad45cf8fe540408a5b9633\",\"dweb:/ipfs/QmRjXJxZPA1qZos7QjeCxJZ8sCfXfkyDFbzkdqzaqCD9Ds\"],\"license\":\"MIT\"},\"node_modules/@bananapus/core/src/interfaces/IJBRulesetApprovalHook.sol\":{\"keccak256\":\"0x5e9f921a6aa5d9396a12bbc0a878c3f5e8ae0a4ce8a3abe0de12e300718838d7\",\"urls\":[\"bzz-raw://6c9f0610f5bbe07554a1bdc39041be1284c20d81d930bec1eee2d374b86e03f4\",\"dweb:/ipfs/QmPH57wBoPERwDWkBCcj9c5tEUdeeLNe2kv1oFM7cTKVrd\"],\"license\":\"MIT\"},\"node_modules/@bananapus/core/src/interfaces/IJBRulesets.sol\":{\"keccak256\":\"0xda1a9aef337cf9fede3f638ffa58aea2815b87fde0f79628834aa03af9f582d7\",\"urls\":[\"bzz-raw://7941690ba6d94500474978ff0f02ecc56335eae5937759878e25cc1ac30a8ecc\",\"dweb:/ipfs/QmZFc7wof6PzfBTkVyNkjaQrQbjc36CK4uC3Ee2vgihqyK\"],\"license\":\"MIT\"},\"node_modules/@bananapus/core/src/interfaces/IJBTerminalStore.sol\":{\"keccak256\":\"0x81d5eb6c877f535143d26d2bef7be97dabf95122db4b1c6fdd0adc32ddc704ca\",\"urls\":[\"bzz-raw://551ab223b3498a20ae7e2bb3da7169ffa2c0a9ab3bd22c7387b19d69915809a4\",\"dweb:/ipfs/Qma2n7QtVAHmB7pWQavQnSBCouAfh171KezhYbNNmdT3wH\"],\"license\":\"MIT\"},\"node_modules/@bananapus/core/src/interfaces/IJBTokenUriResolver.sol\":{\"keccak256\":\"0xfa5cb00dcd6085d1ef912d071fe73c63f9478a2cd0f9d8bddaf659b6af2d0967\",\"urls\":[\"bzz-raw://282e4e7c342d65f77cde0e9a08fcaf20ef5cf379c7a48b639842c0ffd0b2afb8\",\"dweb:/ipfs/QmbnN3PEQeZaXdPLT75V1J79kMg7KqSMru37RHrL3z8Yf2\"],\"license\":\"MIT\"},\"node_modules/@bananapus/core/src/interfaces/terminal/IJBPermitTerminal.sol\":{\"keccak256\":\"0x9efd208aad91b74041850bfeef658b0cb64e756bf00cb811ea758fb6da0d1e76\",\"urls\":[\"bzz-raw://16160e253dfd77c4c00b56b34349519a60def039319ac4a6ae977e0fd409ad14\",\"dweb:/ipfs/QmQhjX4HzeMT1x9JixjpmusxBYiDxr9oh8ySj4fLwjnJoK\"],\"license\":\"MIT\"},\"node_modules/@bananapus/core/src/interfaces/terminal/IJBTerminal.sol\":{\"keccak256\":\"0x36f23bc27e56fa86d100281a75f5a6ce73f39f32e6a1667ce69f902da1d005ee\",\"urls\":[\"bzz-raw://e8ffa2e264fa12444799cb5706ca577034f3f8be9ff7a2f072981de6a61d706d\",\"dweb:/ipfs/QmR6gQDymvk8JQ77J8VxpFD1Hnxga4w7LLiRvAT3m4LG6T\"],\"license\":\"MIT\"},\"node_modules/@bananapus/core/src/libraries/JBConstants.sol\":{\"keccak256\":\"0x9d3a9a953f859d8ec79a599577f8972de6da7199cc1bfa7fdad017d4d722bcb4\",\"urls\":[\"bzz-raw://f151fcb53a8d2684eff8b9e56ac790bcbcadd8199a4fd4d17c5b224b22936722\",\"dweb:/ipfs/QmdAz1ZtCE8nTiC4AxQNLfJhnY3ndGum2Lbef7seKdvTdR\"],\"license\":\"MIT\"},\"node_modules/@bananapus/core/src/libraries/JBMetadataResolver.sol\":{\"keccak256\":\"0xdbe40563934ac1618c9ba15f92d3efc47383534b5b8889bf5aae092927be9e87\",\"urls\":[\"bzz-raw://630534d226e7b1f86907f48c70b0d5593ad5682936330fe2737082e4383e8a56\",\"dweb:/ipfs/QmfTVQ6M3eVYBJRZH3693Axo7yBoR5mr2YvHHwx6nvJojZ\"],\"license\":\"MIT\"},\"node_modules/@bananapus/core/src/structs/JBAccountingContext.sol\":{\"keccak256\":\"0x2907ff54d1e903cc7e0390dd88c3975884702dc2673642aacbe22b66560b56de\",\"urls\":[\"bzz-raw://a66a5381ce877b32f0e0058ceeaf843e9b6b2bc8af666c0c9f4a9d01091da004\",\"dweb:/ipfs/QmQynCetUr37dBkS1YwDS8evxuXGiqanW6THmeUxXtim8w\"],\"license\":\"MIT\"},\"node_modules/@bananapus/core/src/structs/JBAfterPayRecordedContext.sol\":{\"keccak256\":\"0xd26c3a774ff38be79064085970454fe2603a23a638c76270d5b1b3829206c3e8\",\"urls\":[\"bzz-raw://3b55dbe3bf1ef625b7ca04efab3de35406e6041d5b3d82c7265469c500e2b702\",\"dweb:/ipfs/QmUdBDo4Lt3mcsFcsXT2mqq3czFwZjQJFPLM89YA2VtD7k\"],\"license\":\"MIT\"},\"node_modules/@bananapus/core/src/structs/JBAfterRedeemRecordedContext.sol\":{\"keccak256\":\"0x521f5d23a36f0da72362cd84890cc867bd83baa8dc836ba6c5066d51dba2f163\",\"urls\":[\"bzz-raw://6cc461313286dde62d045d6288e87bae5032e035796326f5b1ed6218e58aa9da\",\"dweb:/ipfs/QmQS2AkQwf2ANQieDuaUnpJEdXChoLv4CCbZqHkfywYPSR\"],\"license\":\"MIT\"},\"node_modules/@bananapus/core/src/structs/JBPayHookSpecification.sol\":{\"keccak256\":\"0x955f0bfca97300b9e5927dc181753830ee362f83fa9ca32a90daade32aa0cfd5\",\"urls\":[\"bzz-raw://f517af1597c7c40f8d3da53f7a6684a3e162950a16559d6bf6ea3b727bb11546\",\"dweb:/ipfs/QmRWo2ZTYXmVZTzNJDYhsJNsEaHphjpUfx9eNz2cciyz86\"],\"license\":\"MIT\"},\"node_modules/@bananapus/core/src/structs/JBPermissionsData.sol\":{\"keccak256\":\"0x8f0f69a6ebf5f3704e3dfcb3712fb9d3f94ae7c1ab89bf3e37bad42a3e7a0487\",\"urls\":[\"bzz-raw://57b0c5e52843e2217082889ed47b4da3943e0da4590d5768dcebfe3edad4a6b8\",\"dweb:/ipfs/QmRz48vuWLw81kUP836rh1qzqWiJFGbksgRUA9xGEDNKTY\"],\"license\":\"MIT\"},\"node_modules/@bananapus/core/src/structs/JBRedeemHookSpecification.sol\":{\"keccak256\":\"0x673d16ee1a91bf8de3b37e57284e60451b70a9c2d748c9cdc7a151f5624af18f\",\"urls\":[\"bzz-raw://ceeb5e81effa0f076c5630c756dfcf1548d09f822b255a0a6ee01e54de8c8ae2\",\"dweb:/ipfs/QmSMoMNPRhPMnuJNvWa6S59XRfycGz9o2ApNp63bUW6TdX\"],\"license\":\"MIT\"},\"node_modules/@bananapus/core/src/structs/JBRuleset.sol\":{\"keccak256\":\"0x15b2bf3174d84846a91ccbf5a344dfb125b55ed9cf50102db8d6868844225189\",\"urls\":[\"bzz-raw://647416b025dbd941094db89cbc69f755c155bd6c87be3f322394ccc4a8e0442d\",\"dweb:/ipfs/QmTCL9xcHnxQ4t5AmCPoZvXDUPW5xhzhyyXYbkMdyg44au\"],\"license\":\"MIT\"},\"node_modules/@bananapus/core/src/structs/JBSingleAllowanceContext.sol\":{\"keccak256\":\"0x5bcd5b3abafe9137ee451b112fcac473b4d48858544279d38d0c56dea5271f44\",\"urls\":[\"bzz-raw://5f17a870c2f1797a18918ab3dc6f404f0224d9e415815c708654a17686cd62c0\",\"dweb:/ipfs/QmWMDffMMrj7ZXquTHSQt8VQm5owo94BdPpJ93NfSp2jrn\"],\"license\":\"MIT\"},\"node_modules/@bananapus/core/src/structs/JBTokenAmount.sol\":{\"keccak256\":\"0x5cf0626b73a596c1e2da17c89ae039a7c0374310b060d48568d3b6c11fbe6180\",\"urls\":[\"bzz-raw://63348b50be95e2995409394a17caffc563a646f0972650a1230bf864fbd3219b\",\"dweb:/ipfs/QmZXZpS3SbFD5nWaCauf6AqbEhLURv5qsKHpThBvQgDU6u\"],\"license\":\"MIT\"},\"node_modules/@bananapus/permission-ids/src/JBPermissionIds.sol\":{\"keccak256\":\"0xcc68735b4c801e953cb7962e069933f369515e7a4a09aea5b2170a268125a898\",\"urls\":[\"bzz-raw://e51f839d96be200efeca40ca4fb1d5b6096303564cdde5cf67aecf58e2d36db3\",\"dweb:/ipfs/QmRnJ5s974eUeyvTuLUpt4TK8t5TjVmz7DyDSAKxgYTnA5\"],\"license\":\"UNLICENSED\"},\"node_modules/@openzeppelin/contracts/access/Ownable.sol\":{\"keccak256\":\"0xff6d0bb2e285473e5311d9d3caacb525ae3538a80758c10649a4d61029b017bb\",\"urls\":[\"bzz-raw://8ed324d3920bb545059d66ab97d43e43ee85fd3bd52e03e401f020afb0b120f6\",\"dweb:/ipfs/QmfEckWLmZkDDcoWrkEvMWhms66xwTLff9DDhegYpvHo1a\"],\"license\":\"MIT\"},\"node_modules/@openzeppelin/contracts/token/ERC20/IERC20.sol\":{\"keccak256\":\"0xc6a8ff0ea489379b61faa647490411b80102578440ab9d84e9a957cc12164e70\",\"urls\":[\"bzz-raw://0ea104e577e63faea3b69c415637e99e755dcbf64c5833d7140c35a714d6d90c\",\"dweb:/ipfs/Qmau6x4Ns9XdyynRCNNp3RhLqijJjFm7z5fyZazfYFGYdq\"],\"license\":\"MIT\"},\"node_modules/@openzeppelin/contracts/token/ERC20/extensions/IERC20Metadata.sol\":{\"keccak256\":\"0xaa761817f6cd7892fcf158b3c776b34551cde36f48ff9703d53898bc45a94ea2\",\"urls\":[\"bzz-raw://0ad7c8d4d08938c8dfc43d75a148863fb324b80cf53e0a36f7e5a4ac29008850\",\"dweb:/ipfs/QmcrhfPgVNf5mkdhQvy1pMv51TFokD3Y4Wa5WZhFqVh8UV\"],\"license\":\"MIT\"},\"node_modules/@openzeppelin/contracts/token/ERC20/extensions/IERC20Permit.sol\":{\"keccak256\":\"0x6008dabfe393240d73d7dd7688033f72740d570aa422254d29a7dce8568f3aff\",\"urls\":[\"bzz-raw://f5196ec75139918c6c7bb4251b36395e668f1fa6d206beba7e7520e74913940d\",\"dweb:/ipfs/QmSyqjksXxmm2mCG6qRd1yuwLykypkSVBbnBnGqJRcuJMi\"],\"license\":\"MIT\"},\"node_modules/@openzeppelin/contracts/token/ERC20/utils/SafeERC20.sol\":{\"keccak256\":\"0x37bb49513c49c87c4642a891b13b63571bc87013dde806617aa1efb54605f386\",\"urls\":[\"bzz-raw://b3036b3a83b7c48f96641f2a9002b9f2dcb6a5958dd670894ada21ae8229b3d0\",\"dweb:/ipfs/QmUNfSBdoVtjhETaUJCYcaC7pTMgbhht926tJ2uXJbiVd3\"],\"license\":\"MIT\"},\"node_modules/@openzeppelin/contracts/token/ERC721/IERC721.sol\":{\"keccak256\":\"0x5ef46daa3b58ef2702279d514780316efaa952915ee1aa3396f041ee2982b0b4\",\"urls\":[\"bzz-raw://2f8f2a76e23b02fc69e8cd24c3cb47da6c7af3a2d6c3a382f8ac25c6e094ade7\",\"dweb:/ipfs/QmPV4ZS4tPVv4mTCf9ejyZ1ai57EEibDRj7mN2ARDCLV5n\"],\"license\":\"MIT\"},\"node_modules/@openzeppelin/contracts/utils/Address.sol\":{\"keccak256\":\"0xaf28a975a78550e45f65e559a3ad6a5ad43b9b8a37366999abd1b7084eb70721\",\"urls\":[\"bzz-raw://b7bd24e224f67f65bfadf85dc2929fa965456bb2415478bd0125471b5ce35245\",\"dweb:/ipfs/QmRaydGr8BTHs1kvaZfsNU69pKzUAGFrvABn1KiRSbE51y\"],\"license\":\"MIT\"},\"node_modules/@openzeppelin/contracts/utils/Context.sol\":{\"keccak256\":\"0x493033a8d1b176a037b2cc6a04dad01a5c157722049bbecf632ca876224dd4b2\",\"urls\":[\"bzz-raw://6a708e8a5bdb1011c2c381c9a5cfd8a9a956d7d0a9dc1bd8bcdaf52f76ef2f12\",\"dweb:/ipfs/Qmax9WHBnVsZP46ZxEMNRQpLQnrdE4dK8LehML1Py8FowF\"],\"license\":\"MIT\"},\"node_modules/@openzeppelin/contracts/utils/introspection/IERC165.sol\":{\"keccak256\":\"0x4296879f55019b23e135000eb36896057e7101fb7fb859c5ef690cf14643757b\",\"urls\":[\"bzz-raw://87b3541437c8c443ccd36795e56a338ed12855eec17f8da624511b8d1a7e14df\",\"dweb:/ipfs/QmeJQCtZrQjtJLr6u7ZHWeH3pBnjtLWzvRrKViAi7UZqxL\"],\"license\":\"MIT\"},\"node_modules/@uniswap/permit2/src/interfaces/IAllowanceTransfer.sol\":{\"keccak256\":\"0x37f0ac203b6ef605c9533e1a739477e8e9dcea90710b40e645a367f8a21ace29\",\"urls\":[\"bzz-raw://e0104d72aeaec1cd66cc232e7de7b7ead08608efcc179491b8a66387614670b0\",\"dweb:/ipfs/QmfAZDyuNC9FXXbnJUwqHNwmAK6uRrXxtWEytLsxjskPsN\"],\"license\":\"MIT\"},\"node_modules/@uniswap/permit2/src/interfaces/IEIP712.sol\":{\"keccak256\":\"0xfdccf2b9639070803cd0e4198427fb0df3cc452ca59bd3b8a0d957a9a4254138\",\"urls\":[\"bzz-raw://f7c936ac42ce89e827db905a1544397f8bdf46db34cdb6aa1b90dea42fdb4c72\",\"dweb:/ipfs/QmVgurxo1N31qZqkPBirw9Z7S9tLYmv6jSwQp8R8ur2cBk\"],\"license\":\"MIT\"},\"node_modules/@uniswap/permit2/src/interfaces/IPermit2.sol\":{\"keccak256\":\"0xaa631cc9f53e699301d94233007110a345e6779011def484e8dd97b8fe0af771\",\"urls\":[\"bzz-raw://fc0502cf19c9c18f320a3001201e89e350393b75837f6b7971de18b2de06f30d\",\"dweb:/ipfs/QmT9SfhdJ7VJNNrf94g4H5usyi7ShqWGx7Cqsz9jZTjX96\"],\"license\":\"MIT\"},\"node_modules/@uniswap/permit2/src/interfaces/ISignatureTransfer.sol\":{\"keccak256\":\"0xe6df9966f8841dc3958ee86169c89de97e7f614c81c28b9dc947b12d732df64e\",\"urls\":[\"bzz-raw://3d4eafdee7f48c3be8350a94eb6edd0bfb2af2c105df65787a77174f356c0317\",\"dweb:/ipfs/QmY1j2adeeAhNpn6cUuthemxGCdLXHTfyMh9yTKsY4mZ2d\"],\"license\":\"MIT\"},\"node_modules/@uniswap/v3-core/contracts/interfaces/IUniswapV3Pool.sol\":{\"keccak256\":\"0x4e64844c56061cd90e0a80de73534a9166704c43eed579eb83f90bc2780ce968\",\"urls\":[\"bzz-raw://cba4fab5cebdddf644b901994a7f0f52b98885d4c56012f4dc51d52c2bf9de0e\",\"dweb:/ipfs/QmVyyrRmqXrAiapewWunRVgiPVFJHpH2hKiE1py1svMSNV\"],\"license\":\"GPL-2.0-or-later\"},\"node_modules/@uniswap/v3-core/contracts/interfaces/callback/IUniswapV3SwapCallback.sol\":{\"keccak256\":\"0x3f485fb1a44e8fbeadefb5da07d66edab3cfe809f0ac4074b1e54e3eb3c4cf69\",\"urls\":[\"bzz-raw://095ce0626b41318c772b3ebf19d548282607f6a8f3d6c41c13edfbd5370c8652\",\"dweb:/ipfs/QmVDZfJJ89UUCE1hMyzqpkZAtQ8jUsBgZNE5AMRG7RzRFS\"],\"license\":\"GPL-2.0-or-later\"},\"node_modules/@uniswap/v3-core/contracts/interfaces/pool/IUniswapV3PoolActions.sol\":{\"keccak256\":\"0x9453dd0e7442188667d01d9b65de3f1e14e9511ff3e303179a15f6fc267f7634\",\"urls\":[\"bzz-raw://982f4328f956c3e60e67501e759eb292ac487f76460c774c50e9ae4fcc92aae5\",\"dweb:/ipfs/QmRnzEDsaqtd9PJEVcgQi7p5aV5pMSvRUoGZJAdwFUJxgZ\"],\"license\":\"GPL-2.0-or-later\"},\"node_modules/@uniswap/v3-core/contracts/interfaces/pool/IUniswapV3PoolDerivedState.sol\":{\"keccak256\":\"0xe603ac5b17ecdee73ba2b27efdf386c257a19c14206e87eee77e2017b742d9e5\",\"urls\":[\"bzz-raw://8febc9bdb399a4d94bb89f5377732652e2400e4a8dee808201ade6848f9004e7\",\"dweb:/ipfs/QmaKDqYYFU4d2W2iN77aDHptfbFmYZRrMYXHeGpJmM8C1c\"],\"license\":\"GPL-2.0-or-later\"},\"node_modules/@uniswap/v3-core/contracts/interfaces/pool/IUniswapV3PoolErrors.sol\":{\"keccak256\":\"0xf80abf13fb1fafc127ba4e792f240dd8ea7c8c893978cdfd8439c27fae9a037b\",\"urls\":[\"bzz-raw://b04fc72a656bbf3631e9c2e67b9870a2d9d235185e833fe050e9606e6816a9aa\",\"dweb:/ipfs/QmUcz4bkEkJ9pwzFu1C3n97hBQ3st9U6qTAqCdyFwddKco\"],\"license\":\"GPL-2.0-or-later\"},\"node_modules/@uniswap/v3-core/contracts/interfaces/pool/IUniswapV3PoolEvents.sol\":{\"keccak256\":\"0x8071514d0fe5d17d6fbd31c191cdfb703031c24e0ece3621d88ab10e871375cd\",\"urls\":[\"bzz-raw://d0b571930cc7488b1d546a7e9cea7c52d8b3c4e207da657ed0e0db7343b8cd03\",\"dweb:/ipfs/QmaGK6vVwB95QSTR1XMYvrh7ivYAYZxi3fD7v6VMA4jZ39\"],\"license\":\"GPL-2.0-or-later\"},\"node_modules/@uniswap/v3-core/contracts/interfaces/pool/IUniswapV3PoolImmutables.sol\":{\"keccak256\":\"0xf6e5d2cd1139c4c276bdbc8e1d2b256e456c866a91f1b868da265c6d2685c3f7\",\"urls\":[\"bzz-raw://b99c8c9ae8e27ee6559e5866bea82cbc9ffc8247f8d15b7422a4deb287d4d047\",\"dweb:/ipfs/QmfL8gaqt3ffAnm6nVj5ksuNpLygXuL3xq5VBqrkwC2JJ3\"],\"license\":\"GPL-2.0-or-later\"},\"node_modules/@uniswap/v3-core/contracts/interfaces/pool/IUniswapV3PoolOwnerActions.sol\":{\"keccak256\":\"0x759b78a2918af9e99e246dc3af084f654e48ef32bb4e4cb8a966aa3dcaece235\",\"urls\":[\"bzz-raw://64144fb96e1c7fdba87305acadb98a198d26a3d46c097cb3a666e567f6f29735\",\"dweb:/ipfs/QmUnWVwN9FKB9uV5Pr8YfLpWZnYM2DENnRMaadZ492JS9u\"],\"license\":\"GPL-2.0-or-later\"},\"node_modules/@uniswap/v3-core/contracts/interfaces/pool/IUniswapV3PoolState.sol\":{\"keccak256\":\"0x44fa2ce1182f6c2f6bead3d1737804bf7e112252ae86e0f2e92f9b8249603f43\",\"urls\":[\"bzz-raw://54154e8665b98d65f5dc91b256551852cb47882180b501b260657122d207c0ea\",\"dweb:/ipfs/QmcfemK1A2PXYrWB5SBFGERpMCderbFRb8BtTzQDj1sUBp\"],\"license\":\"GPL-2.0-or-later\"},\"node_modules/@uniswap/v3-core/contracts/libraries/FullMath.sol\":{\"keccak256\":\"0x7825565a4bb2a34a1dc96bbfead755785dfb0df8ef81bd934c43023689685645\",\"urls\":[\"bzz-raw://8f44f4614d31e3d4864c7eb13620555253b84f6a69180f8745b7c6e246a9d125\",\"dweb:/ipfs/QmfNQUcXj3KL8h9u5PqbtEC6yRtwDbKNb48uMPjdwxsKnd\"],\"license\":\"MIT\"},\"node_modules/@uniswap/v3-core/contracts/libraries/TickMath.sol\":{\"keccak256\":\"0x5c57de03a91cc2ec8939865dbbcb0197bb6c353b711075eefd8e0fca5e102129\",\"urls\":[\"bzz-raw://1e994c24fd891ef8a3f5dbf5eba42b34feaf05e0376a29f91322faa18054449c\",\"dweb:/ipfs/QmNdUJGUQxd1dPkMbnA5f5UNqakxRkQE5r7bTZJAuHeapS\"],\"license\":\"GPL-2.0-or-later\"},\"node_modules/@uniswap/v3-periphery/contracts/libraries/OracleLibrary.sol\":{\"keccak256\":\"0xe313f89c69c0f1c91f0722868313b4ceb14479b3e7a0abf52a1b9bbd9c18e81b\",\"urls\":[\"bzz-raw://8ad09b061f3f533c116618c20cf01510108eebebb7ff8847b0f245b8ba368d53\",\"dweb:/ipfs/QmU6vdi5JjJfjK2KqonWvRg9NeuQWarj4B1YFN22Dh9VJM\"],\"license\":\"GPL-2.0-or-later\"},\"src/JBSwapTerminal.sol\":{\"keccak256\":\"0x4c45ee88055708a1631fe1588f4df404913d7fb251ebdb9786b77a7d9f662ab6\",\"urls\":[\"bzz-raw://c18355e5ff5be40db4122b031a07479a8cc1e8df4d616313c64175231c25d7cf\",\"dweb:/ipfs/QmXkhdRKDTUX2JBwM4oc8PtqL5LYYjBHCBEXYdpzD7ouiH\"],\"license\":\"MIT\"},\"src/interfaces/IWETH9.sol\":{\"keccak256\":\"0x50083bcaca6c1a8d12c79116fab4f6d8cd452a510cb3f00c4a8bc3a54678efb7\",\"urls\":[\"bzz-raw://726f187112d0953c14bff8099a8c9ce1ead47eb25e90839f77b100feaaf16127\",\"dweb:/ipfs/QmTEnMENpLjcTQLMwz4kEUiQHfiTkaZT3TL37nQ8JiRYh5\"],\"license\":\"GPL-2.0-or-later\"}},\"version\":1}",
			"args": [
				"0x4d9207aBEcA883161A1eAee9DaBeDC0001c198d7",
				"0xBA24624AE5dc821866E9E71Ed050412Ef01E2fe6",
				"0x18017cfeD48E1dC0Adc445cEF8A9e6AfFCb330DA",
				"0x000000000022D473030F116dDEE9F6B43aC78BA3",
				"0x823b92d6a4b2AED4b15675c7917c9f922ea8ADAD",
				"0x7b79995e5f793A07Bc00c21412e50Ecae098E7f9"
			],
			"bytecode": "0x610140604052600580546001600160a01b0319166127101790553480156200002657600080fd5b50604051620037a8380380620037a883398101604081905262000049916200011e565b6001600160a01b03808616608052829081166200008057604051631e4fbdf760e01b81526000600482015260240160405180910390fd5b6200008b81620000b5565b506001600160a01b0395861660a05292851660c052508316610100529091166101205250620001b2565b600080546001600160a01b038381166001600160a01b0319831681178455604051919092169283917f8be0079c531659141344cd1fd0a4f28419497f9722a3daafe3b4186f6b6457e09190a35050565b6001600160a01b03811681146200011b57600080fd5b50565b60008060008060008060c087890312156200013857600080fd5b8651620001458162000105565b6020880151909650620001588162000105565b60408801519095506200016b8162000105565b60608801519094506200017e8162000105565b6080880151909350620001918162000105565b60a0880151909250620001a48162000105565b809150509295509295509295565b60805160a05160c05160e051610100516101205161355262000256600039600081816101490152818161046701528181610dca01528181610f1501528181610ffd0152611b85015260008181610379015281816121d501526123dc015260006103180152600081816103e2015261122e0152600081816101f5015281816106050152610c9901526000818161052801528181611481015261152a01526135526000f3fe6080604052600436106101395760003560e01c80638da5cb5b116100ab578063cc6801271161006f578063cc680127146104a9578063e28b5411146104db578063f2fde38b146104f6578063f434c91414610516578063fa461e331461054a578063fef432571461056a57600080fd5b80638da5cb5b1461040457806398ea47fc146104225780639e6eec0514610442578063ad5c464814610455578063c361534c1461048957600080fd5b8063507f1465116100fd578063507f146514610306578063515a92931461033a5780636afdd85014610367578063715018a61461039b5780637c5e9c24146103b057806388bc2ef3146103d057600080fd5b806301ffc9a71461018e57806324e26dc5146101c3578063293c4999146101e35780633a01714f1461022f57806340873cb5146102c257600080fd5b3661018957336001600160a01b037f0000000000000000000000000000000000000000000000000000000000000000161461018757604051635e7e9adf60e11b815260040160405180910390fd5b005b600080fd5b34801561019a57600080fd5b506101ae6101a936600461287c565b61057d565b60405190151581526020015b60405180910390f35b3480156101cf57600080fd5b506101876101de3660046128bb565b6105cf565b3480156101ef57600080fd5b506102177f000000000000000000000000000000000000000000000000000000000000000081565b6040516001600160a01b0390911681526020016101ba565b34801561023b57600080fd5b506102b561024a3660046128fd565b604080516060808201835260008083526020808401829052928401819052948552600382528285206001600160a01b03948516865282529382902082519485018352549283168452600160a01b830460ff1690840152600160a81b90910463ffffffff169082015290565b6040516101ba919061292d565b3480156102ce57600080fd5b506102e26102dd3660046128fd565b6107d5565b6040805163ffffffff90931683526001600160a01b039091166020830152016101ba565b34801561031257600080fd5b506102177f000000000000000000000000000000000000000000000000000000000000000081565b34801561034657600080fd5b5061035a610355366004612960565b61084b565b6040516101ba9190612979565b34801561037357600080fd5b506102177f000000000000000000000000000000000000000000000000000000000000000081565b3480156103a757600080fd5b50610187610bca565b3480156103bc57600080fd5b506102176103cb3660046128fd565b610bde565b3480156103dc57600080fd5b506102177f000000000000000000000000000000000000000000000000000000000000000081565b34801561041057600080fd5b506000546001600160a01b0316610217565b34801561042e57600080fd5b5061018761043d3660046129ed565b505050565b610187610450366004612abc565b610c4a565b34801561046157600080fd5b506102177f000000000000000000000000000000000000000000000000000000000000000081565b34801561049557600080fd5b506101876104a4366004612b64565b610c63565b3480156104b557600080fd5b506104cd6104c4366004612bc0565b60009392505050565b6040519081526020016101ba565b3480156104e757600080fd5b506104cd6104c43660046128bb565b34801561050257600080fd5b50610187610511366004612bec565b610d59565b34801561052257600080fd5b506102177f000000000000000000000000000000000000000000000000000000000000000081565b34801561055657600080fd5b50610187610565366004612c09565b610d9c565b6104cd610578366004612c5c565b610eb8565b60006001600160e01b03198216632f720bd160e21b14806105ae57506001600160e01b031982166306afdd8560e41b145b806105c957506001600160e01b031982166301ffc9a760e01b145b92915050565b821580156105e757506000546001600160a01b031633145b610680576040516331a9108f60e11b815260048101849052610680907f00000000000000000000000000000000000000000000000000000000000000006001600160a01b031690636352211e90602401602060405180830381865afa158015610654573d6000803e3d6000fd5b505050506040513d601f19601f820116820180604052508101906106789190612d10565b84601b611437565b60008381526002602090815260408083206001600160a01b038681168086529184529382902080546001600160a01b031916948616949094179093558051606081018252838152815163313ce56760e01b81529151909384840193909263313ce56792600480830193928290030181865afa158015610703573d6000803e3d6000fd5b505050506040513d601f19601f820116820180604052508101906107279190612d2d565b60ff908116825263ffffffff80861660209384015260008781526003845260408082206001600160a01b03988916808452908652818320875181548989015199850151909616600160a81b0263ffffffff60a81b1999909716600160a01b026001600160a81b03199096169a1699909917939093179590951692909217909555948552600481529084208054600181018255908552932090920180546001600160a01b031916909117905550565b60008281526001602090815260408083206001600160a01b0385168452909152812054819080820361083b57506001600160a01b03831660009081527fa6eef7e35abe7026729641147f7915573c7e97b47efa546f5f6e3230263bcb4960205260409020545b915050602081901c5b9250929050565b60008181526004602090815260408083208054825181850281018501909352808352606094938301828280156108aa57602002820191906000526020600020905b81546001600160a01b0316815260019091019060200180831161088c575b50506000808052600460209081527f17ef568e3e12ab5b9c7254a8d58478811de00f9e6eb34345acd53bf8fd09d3ec8054604080518285028101850190915281815297985092969550935090915083018282801561093157602002820191906000526020600020905b81546001600160a01b03168152600190910190602001808311610913575b505050505090506000815183516109489190612d66565b67ffffffffffffffff81111561096057610960612d79565b6040519080825280602002602001820160405280156109ab57816020015b604080516060810182526000808252602080830182905292820152825260001990920191018161097e5790505b50835190915060005b8451811015610a65576003600088815260200190815260200160002060008683815181106109e4576109e4612d8f565b6020908102919091018101516001600160a01b039081168352828201939093526040918201600020825160608101845290549384168152600160a01b840460ff1691810191909152600160a81b90920463ffffffff16908201528351849083908110610a5257610a52612d8f565b60209081029190910101526001016109b4565b5060005b8351811015610bb3576000805b8651811015610adb57858381518110610a9157610a91612d8f565b60200260200101516001600160a01b0316878281518110610ab457610ab4612d8f565b60200260200101516001600160a01b031603610ad35760019150610adb565b600101610a76565b5080610baa576000808052600360205285517f3617319a054d772f909f7c479a2cebe5066e836a939412e32403c99029b92eff9190879085908110610b2257610b22612d8f565b6020908102919091018101516001600160a01b039081168352828201939093526040918201600020825160608101845290549384168152600160a01b840460ff1691810191909152600160a81b90920463ffffffff16908201528451859085908110610b9057610b90612d8f565b60200260200101819052508280610ba690612da5565b9350505b50600101610a69565b508151811015610bc1578082525b50949350505050565b610bd26115bb565b610bdc60006115e8565b565b60008281526002602090815260408083206001600160a01b03808616855292528220541680610c4357506001600160a01b0380831660009081527fac33ff75c19e70fe83507db0d683fd3465c996598dc972688b7ace676c89077b6020526040902054165b9392505050565b604051630d831b5560e11b815260040160405180910390fd5b83158015610c7b57506000546001600160a01b031633145b610d14576040516331a9108f60e11b815260048101859052610d14907f00000000000000000000000000000000000000000000000000000000000000006001600160a01b031690636352211e90602401602060405180830381865afa158015610ce8573d6000803e3d6000fd5b505050506040513d601f19601f82011682018060405250810190610d0c9190612d10565b85601c611437565b60009384526001602090815260408086206001600160a01b03959095168652938152929093209290911b640100000000600160c01b031663ffffffff91909116179055565b610d616115bb565b6001600160a01b038116610d9057604051631e4fbdf760e01b8152600060048201526024015b60405180910390fd5b610d99816115e8565b50565b600080610dab83850185612dbe565b915091506000808712610dbe5786610dc0565b855b90508115610e3d577f00000000000000000000000000000000000000000000000000000000000000006001600160a01b031663d0e30db0826040518263ffffffff1660e01b81526004016000604051808303818588803b158015610e2357600080fd5b505af1158015610e37573d6000803e3d6000fd5b50505050505b60405163a9059cbb60e01b8152336004820152602481018290526001600160a01b0384169063a9059cbb906044016020604051808303816000875af1158015610e8a573d6000803e3d6000fd5b505050506040513d601f19601f82011682018060405250810190610eae9190612dec565b5050505050505050565b6040805161010081018252600060208201819052918101829052606081018290526080810182905260a0810182905260c0810182905260e081018290528a81526001600160a01b038a1661eeed1901610f4c576001600160a01b037f0000000000000000000000000000000000000000000000000000000000000000166040820152600160608201523460c0820152610f63565b6001600160a01b038a16604082015260c081018990525b600080610fad630535741560e41b87878080601f01602080910402602001604051908101604052809392919081815260200183838082843760009201919091525061163892505050565b91509150811561104457600081806020019051810190610fcd9190612e09565b6001600160a01b03918216602088015260e0870192909252909150811661eeed190161102e576001600160a01b037f0000000000000000000000000000000000000000000000000000000000000000166080850152600160a085015261103e565b6001600160a01b03811660808501525b50611228565b6000600260008f815260200190815260200160002060008e6001600160a01b03166001600160a01b0316815260200190815260200160002060009054906101000a90046001600160a01b0316905060006001600160a01b0316816001600160a01b03160361110557506001600160a01b03808d1660009081527fac33ff75c19e70fe83507db0d683fd3465c996598dc972688b7ace676c89077b6020526040902054168061110557604051632a12044160e21b815260040160405180910390fd5b6001600160a01b038116602080860182905260408051630dfe168160e01b8152905160009384939092630dfe168192600480830193928290030181865afa158015611154573d6000803e3d6000fd5b505050506040513d601f19601f820116820180604052508101906111789190612d10565b836001600160a01b031663d21220a76040518163ffffffff1660e01b8152600401602060405180830381865afa1580156111b6573d6000803e3d6000fd5b505050506040513d601f19601f820116820180604052508101906111da9190612d10565b915091508e6001600160a01b0316826001600160a01b0316146111fd57816111ff565b805b6001600160a01b03166080870152611216866117dd565b6001600160a01b031660e08701525050505b505060007f00000000000000000000000000000000000000000000000000000000000000006001600160a01b031663862026508d8460a0015161126f578460800151611273565b61eeee5b6040516001600160e01b031960e085901b16815260048101929092526001600160a01b03166024820152604401602060405180830381865afa1580156112bd573d6000803e3d6000fd5b505050506040513d601f19601f820116820180604052508101906112e19190612d10565b90506001600160a01b03811661130a57604051630faa917b60e11b815260040160405180910390fd5b61131582868661189c565b60c08301526060820151600090801561132f57508260a001515b80611353575082608001516001600160a01b031683604001516001600160a01b0316145b15611363575060c082015161136f565b61136c83611a00565b90505b61137e82846080015183611bf4565b816001600160a01b031663fef432578460a0015161139d57600061139f565b825b855160a08701516113b45786608001516113b8565b61eeee5b858f8f8f8f8f8f6040518b63ffffffff1660e01b81526004016113e399989796959493929190612e6a565b60206040518083038185885af1158015611401573d6000803e3d6000fd5b50505050506040513d601f19601f820116820180604052508101906114269190612ece565b509c9b505050505050505050505050565b336001600160a01b03841681148015906114ee575060405163c161c93f60e01b81526001600160a01b038281166004830152858116602483015260448201859052606482018490527f0000000000000000000000000000000000000000000000000000000000000000169063c161c93f90608401602060405180830381865afa1580156114c8573d6000803e3d6000fd5b505050506040513d601f19601f820116820180604052508101906114ec9190612dec565b155b8015611597575060405163c161c93f60e01b81526001600160a01b038281166004830152858116602483015260006044830152606482018490527f0000000000000000000000000000000000000000000000000000000000000000169063c161c93f90608401602060405180830381865afa158015611571573d6000803e3d6000fd5b505050506040513d601f19601f820116820180604052508101906115959190612dec565b155b156115b55760405163075fd2b160e01b815260040160405180910390fd5b50505050565b6000546001600160a01b03163314610bdc5760405163118cdaa760e01b8152336004820152602401610d87565b600080546001600160a01b038381166001600160a01b0319831681178455604051919092169283917f8be0079c531659141344cd1fd0a4f28419497f9722a3daafe3b4186f6b6457e09190a35050565b60006060602583511161165d5750506040805160208101909152600080825290610844565b60008361166c60046020612d66565b8151811061167c5761167c612d8f565b0160209081015160f81c91505b600085611697600484612d66565b815181106116a7576116a7612d8f565b01602001516001600160f81b031916148015906116cd57506116ca602083612ee7565b81105b156117d4576000856116e0600484612d66565b815181106116f0576116f0612d8f565b016020908101518784019091015160f89190911c91506001600160e01b0319808916908216036117ca576000611727602086612ee7565b611732600986612d66565b101580611767575087611746600986612d66565b8151811061175657611756612d8f565b01602001516001600160f81b031916155b6117a057602088611779600987612d66565b8151811061178957611789612d8f565b016020015161179b919060f81c612ee7565b6117a3565b87515b905060016117bc896117b6602087612ee7565b84611c20565b965096505050505050610844565b5050600501611689565b50509250929050565b60008060006117f4846000015185602001516107d5565b915091506000611808856020015184611c66565b509050600061181682611eb0565b905085608001516001600160a01b031686604001516001600160a01b031610611868576005546001600160a01b031661184f8483612efe565b6118599190612f46565b6118639082612f6c565b611892565b6005546001600160a01b031661187e8483612efe565b6118889190612f46565b6118929082612f93565b9695505050505050565b6040830151606084015160009190156118b85734915050610c43565b34156118d757604051635e7e9adf60e11b815260040160405180910390fd5b60008061191d3060e01b87878080601f01602080910402602001604051908101604052809392919081815260200183838082843760009201919091525061163892505050565b91509150811561197d5760008180602001905181019061193d919061304c565b90508760c0015181602001516001600160a01b03161015611971576040516317e415a160e11b815260040160405180910390fd5b61197b81856121d3565b505b61198d3330858a60c001516122d2565b6040516370a0823160e01b81523060048201526001600160a01b038416906370a0823190602401602060405180830381865afa1580156119d1573d6000803e3d6000fd5b505050506040513d601f19601f820116820180604052508101906119f59190612ece565b979650505050505050565b600080826040015190506000836080015190506000816001600160a01b0316836001600160a01b031610905060008086602001516001600160a01b031663128acb0830858a60c0015187611a7257611a6d600173fffd8963efd1fc6a506488495d951d5263988d26612f93565b611a82565b611a826401000276a36001612f6c565b60608d810151604080516001600160a01b038f16602082015291151590820152016040516020818303038152906040526040518663ffffffff1660e01b8152600401611ad2959493929190613178565b60408051808303816000875af1158015611af0573d6000803e3d6000fd5b505050506040513d601f19601f82011682018060405250810190611b1491906131b3565b9150915082611b235781611b25565b805b611b2e906131d7565b95508660e00151861015611b655760e0870151604051630bb50c5d60e41b8152610d87918891600401918252602082015260400190565b8660a0015115611bea57604051632e1a7d4d60e01b8152600481018790527f00000000000000000000000000000000000000000000000000000000000000006001600160a01b031690632e1a7d4d90602401600060405180830381600087803b158015611bd157600080fd5b505af1158015611be5573d6000803e3d6000fd5b505050505b5050505050919050565b61eeed196001600160a01b03831601611c0c57505050565b61043d6001600160a01b0383168483612434565b60608282036040519150602081830101604052808252508260208501016020820160005b84811015611c5c578281015182820152602001611c44565b5050509392505050565b6000808263ffffffff16600003611ca45760405162461bcd60e51b8152602060048201526002602482015261042560f41b6044820152606401610d87565b6040805160028082526060820183526000926020830190803683370190505090508381600081518110611cd957611cd9612d8f565b602002602001019063ffffffff16908163ffffffff1681525050600081600181518110611d0857611d08612d8f565b602002602001019063ffffffff16908163ffffffff1681525050600080866001600160a01b031663883bdbfd846040518263ffffffff1660e01b8152600401611d5191906131f3565b600060405180830381865afa158015611d6e573d6000803e3d6000fd5b505050506040513d6000823e601f3d908101601f19168201604052611d9691908101906132cd565b91509150600082600081518110611daf57611daf612d8f565b602002602001015183600181518110611dca57611dca612d8f565b6020026020010151611ddc9190613399565b9050600082600081518110611df357611df3612d8f565b602002602001015183600181518110611e0e57611e0e612d8f565b6020026020010151611e209190612f93565b9050611e3263ffffffff8916836133c6565b965060008260060b128015611e585750611e5263ffffffff891683613404565b60060b15155b15611e6b5786611e6781613426565b9750505b6000611e846001600160a01b0363ffffffff8b16613449565b9050611ea1640100000000600160c01b03602084901b1682613472565b96505050505050509250929050565b60008060008360020b12611ec7578260020b611ecf565b8260020b6000035b9050620d89e8811115611ef5576040516315e4079d60e11b815260040160405180910390fd5b600081600116600003611f0c57600160801b611f1e565b6ffffcb933bd6fad37aa2d162d1a5940015b70ffffffffffffffffffffffffffffffffff1690506002821615611f52576ffff97272373d413259a46990580e213a0260801c5b6004821615611f71576ffff2e50f5f656932ef12357cf3c7fdcc0260801c5b6008821615611f90576fffe5caca7e10e4e61c3624eaa0941cd00260801c5b6010821615611faf576fffcb9843d60f6159c9db58835c9266440260801c5b6020821615611fce576fff973b41fa98c081472e6896dfb254c00260801c5b6040821615611fed576fff2ea16466c96a3843ec78b326b528610260801c5b608082161561200c576ffe5dee046a99a2a811c461f1969c30530260801c5b61010082161561202c576ffcbe86c7900a88aedcffc83b479aa3a40260801c5b61020082161561204c576ff987a7253ac413176f2b074cf7815e540260801c5b61040082161561206c576ff3392b0822b70005940c7a398e4b70f30260801c5b61080082161561208c576fe7159475a2c29b7443b29c7fa6e889d90260801c5b6110008216156120ac576fd097f3bdfd2022b8845ad8f792aa58250260801c5b6120008216156120cc576fa9f746462d870fdf8a65dc1f90e061e50260801c5b6140008216156120ec576f70d869a156d2a1b890bb3df62baf32f70260801c5b61800082161561210c576f31be135f97d08fd981231505542fcfa60260801c5b6201000082161561212d576f09aa508b5b7a84e1c677de54f3e99bc90260801c5b6202000082161561214d576e5d6af8dedb81196699c329225ee6040260801c5b6204000082161561216c576d2216e584f5fa1ea926041bedfe980260801c5b62080000821615612189576b048a170391f7dc42444e8fa20260801c5b60008460020b13156121aa5780600019816121a6576121a6612f30565b0490505b6401000000008106156121be5760016121c1565b60005b60ff16602082901c0192505050919050565b7f00000000000000000000000000000000000000000000000000000000000000006001600160a01b0316632b67b5703360405180606001604052806040518060800160405280876001600160a01b0316815260200188602001516001600160a01b03168152602001886040015165ffffffffffff168152602001886060015165ffffffffffff168152508152602001306001600160a01b03168152602001866000015181525085608001516040518463ffffffff1660e01b815260040161229c9392919061348c565b600060405180830381600087803b1580156122b657600080fd5b505af11580156122ca573d6000803e3d6000fd5b505050505050565b61eeed196001600160a01b038316016122f4576122ef83826124be565b6115b5565b306001600160a01b03851603612318576122ef6001600160a01b0383168483612555565b604051636eb1769f60e11b81526001600160a01b03858116600483015230602483015282919084169063dd62ed3e90604401602060405180830381865afa158015612367573d6000803e3d6000fd5b505050506040513d601f19601f8201168201806040525081019061238b9190612ece565b106123a5576122ef6001600160a01b0383168585846125b4565b604051631b63c28b60e11b81526001600160a01b0385811660048301528481166024830152828116604483015283811660648301527f000000000000000000000000000000000000000000000000000000000000000016906336c7851690608401600060405180830381600087803b15801561242057600080fd5b505af1158015610eae573d6000803e3d6000fd5b604051636eb1769f60e11b81523060048201526001600160a01b0383811660248301526000919085169063dd62ed3e90604401602060405180830381865afa158015612484573d6000803e3d6000fd5b505050506040513d601f19601f820116820180604052508101906124a89190612ece565b90506115b584846124b98585612d66565b6125ed565b804710156124e15760405163cd78605960e01b8152306004820152602401610d87565b6000826001600160a01b03168260405160006040518083038185875af1925050503d806000811461252e576040519150601f19603f3d011682016040523d82523d6000602084013e612533565b606091505b505090508061043d57604051630a12f52160e11b815260040160405180910390fd5b6040516001600160a01b0383811660248301526044820183905261043d91859182169063a9059cbb906064015b604051602081830303815290604052915060e01b6020820180516001600160e01b038381831617835250505050612679565b6040516001600160a01b0384811660248301528381166044830152606482018390526115b59186918216906323b872dd90608401612582565b604080516001600160a01b038416602482015260448082018490528251808303909101815260649091019091526020810180516001600160e01b031663095ea7b360e01b17905261263e84826126dc565b6115b5576040516001600160a01b0384811660248301526000604483015261267391869182169063095ea7b390606401612582565b6115b584825b600061268e6001600160a01b03841683612784565b905080516000141580156126b35750808060200190518101906126b19190612dec565b155b1561043d57604051635274afe760e01b81526001600160a01b0384166004820152602401610d87565b6000806000846001600160a01b0316846040516126f99190613500565b6000604051808303816000865af19150503d8060008114612736576040519150601f19603f3d011682016040523d82523d6000602084013e61273b565b606091505b50915091508180156127655750805115806127655750808060200190518101906127659190612dec565b801561277b57506000856001600160a01b03163b115b95945050505050565b6060610c438383600084600080856001600160a01b031684866040516127aa9190613500565b60006040518083038185875af1925050503d80600081146127e7576040519150601f19603f3d011682016040523d82523d6000602084013e6127ec565b606091505b509150915061189286838360608261280c5761280782612853565b610c43565b815115801561282357506001600160a01b0384163b155b1561284c57604051639996b31560e01b81526001600160a01b0385166004820152602401610d87565b5080610c43565b8051156128635780518082602001fd5b604051630a12f52160e11b815260040160405180910390fd5b60006020828403121561288e57600080fd5b81356001600160e01b031981168114610c4357600080fd5b6001600160a01b0381168114610d9957600080fd5b6000806000606084860312156128d057600080fd5b8335925060208401356128e2816128a6565b915060408401356128f2816128a6565b809150509250925092565b6000806040838503121561291057600080fd5b823591506020830135612922816128a6565b809150509250929050565b81516001600160a01b0316815260208083015160ff169082015260408083015163ffffffff1690820152606081016105c9565b60006020828403121561297257600080fd5b5035919050565b6020808252825182820181905260009190848201906040850190845b818110156129e1576129ce83855180516001600160a01b0316825260208082015160ff169083015260409081015163ffffffff16910152565b9284019260609290920191600101612995565b50909695505050505050565b600080600060408486031215612a0257600080fd5b83359250602084013567ffffffffffffffff80821115612a2157600080fd5b818601915086601f830112612a3557600080fd5b813581811115612a4457600080fd5b8760208260051b8501011115612a5957600080fd5b6020830194508093505050509250925092565b8015158114610d9957600080fd5b60008083601f840112612a8c57600080fd5b50813567ffffffffffffffff811115612aa457600080fd5b60208301915083602082850101111561084457600080fd5b60008060008060008060008060c0898b031215612ad857600080fd5b883597506020890135612aea816128a6565b9650604089013595506060890135612b0181612a6c565b9450608089013567ffffffffffffffff80821115612b1e57600080fd5b612b2a8c838d01612a7a565b909650945060a08b0135915080821115612b4357600080fd5b50612b508b828c01612a7a565b999c989b5096995094979396929594505050565b60008060008060808587031215612b7a57600080fd5b843593506020850135612b8c816128a6565b9250604085013563ffffffff81168114612ba557600080fd5b91506060850135612bb5816128a6565b939692955090935050565b600080600060608486031215612bd557600080fd5b505081359360208301359350604090920135919050565b600060208284031215612bfe57600080fd5b8135610c43816128a6565b60008060008060608587031215612c1f57600080fd5b8435935060208501359250604085013567ffffffffffffffff811115612c4457600080fd5b612c5087828801612a7a565b95989497509550505050565b600080600080600080600080600060e08a8c031215612c7a57600080fd5b8935985060208a0135612c8c816128a6565b975060408a0135965060608a0135612ca3816128a6565b955060808a0135945060a08a013567ffffffffffffffff80821115612cc757600080fd5b612cd38d838e01612a7a565b909650945060c08c0135915080821115612cec57600080fd5b50612cf98c828d01612a7a565b915080935050809150509295985092959850929598565b600060208284031215612d2257600080fd5b8151610c43816128a6565b600060208284031215612d3f57600080fd5b815160ff81168114610c4357600080fd5b634e487b7160e01b600052601160045260246000fd5b808201808211156105c9576105c9612d50565b634e487b7160e01b600052604160045260246000fd5b634e487b7160e01b600052603260045260246000fd5b600060018201612db757612db7612d50565b5060010190565b60008060408385031215612dd157600080fd5b8235612ddc816128a6565b9150602083013561292281612a6c565b600060208284031215612dfe57600080fd5b8151610c4381612a6c565b600080600060608486031215612e1e57600080fd5b835192506020840151612e30816128a6565b60408501519092506128f2816128a6565b81835281816020850137506000828201602090810191909152601f909101601f19169091010190565b8981526001600160a01b03898116602083015260408201899052871660608201526080810186905260e060a08201819052600090612eab9083018688612e41565b82810360c0840152612ebe818587612e41565b9c9b505050505050505050505050565b600060208284031215612ee057600080fd5b5051919050565b80820281158282048414176105c9576105c9612d50565b6001600160a01b03828116828216818102831692918115828504821417612f2757612f27612d50565b50505092915050565b634e487b7160e01b600052601260045260246000fd5b60006001600160a01b0383811680612f6057612f60612f30565b92169190910492915050565b6001600160a01b03818116838216019080821115612f8c57612f8c612d50565b5092915050565b6001600160a01b03828116828216039080821115612f8c57612f8c612d50565b60405160a0810167ffffffffffffffff81118282101715612fd657612fd6612d79565b60405290565b604051601f8201601f1916810167ffffffffffffffff8111828210171561300557613005612d79565b604052919050565b805165ffffffffffff8116811461302357600080fd5b919050565b60005b8381101561304357818101518382015260200161302b565b50506000910152565b6000602080838503121561305f57600080fd5b825167ffffffffffffffff8082111561307757600080fd5b9084019060a0828703121561308b57600080fd5b613093612fb3565b82518152838301516130a4816128a6565b818501526130b46040840161300d565b60408201526130c56060840161300d565b60608201526080830151828111156130dc57600080fd5b80840193505086601f8401126130f157600080fd5b82518281111561310357613103612d79565b613115601f8201601f19168601612fdc565b9250808352878582860101111561312b57600080fd5b61313a81868501878701613028565b50608081019190915295945050505050565b60008151808452613164816020860160208601613028565b601f01601f19169290920160200192915050565b6001600160a01b0386811682528515156020830152604082018590528316606082015260a0608082018190526000906119f59083018461314c565b600080604083850312156131c657600080fd5b505080516020909101519092909150565b6000600160ff1b82016131ec576131ec612d50565b5060000390565b6020808252825182820181905260009190848201906040850190845b818110156129e157835163ffffffff168352928401929184019160010161320f565b600067ffffffffffffffff82111561324b5761324b612d79565b5060051b60200190565b600082601f83011261326657600080fd5b8151602061327b61327683613231565b612fdc565b8083825260208201915060208460051b87010193508684111561329d57600080fd5b602086015b848110156132c25780516132b5816128a6565b83529183019183016132a2565b509695505050505050565b600080604083850312156132e057600080fd5b825167ffffffffffffffff808211156132f857600080fd5b818501915085601f83011261330c57600080fd5b8151602061331c61327683613231565b82815260059290921b8401810191818101908984111561333b57600080fd5b948201945b838610156133695785518060060b811461335a5760008081fd5b82529482019490820190613340565b9188015191965090935050508082111561338257600080fd5b5061338f85828601613255565b9150509250929050565b600682810b9082900b03667fffffffffffff198112667fffffffffffff821317156105c9576105c9612d50565b60008160060b8360060b806133dd576133dd612f30565b667fffffffffffff198214600019821416156133fb576133fb612d50565b90059392505050565b60008260060b8061341757613417612f30565b808360060b0791505092915050565b60008160020b627fffff19810361343f5761343f612d50565b6000190192915050565b6001600160c01b03828116828216818102831692918115828504821417612f2757612f27612d50565b60006001600160c01b0383811680612f6057612f60612f30565b600061010060018060a01b0380871684528551818151166020860152816020820151166040860152604081015165ffffffffffff80821660608801528060608401511660808801525050508060208701511660a085015250604085015160c08401528060e08401526118928184018561314c565b60008251613512818460208701613028565b919091019291505056fea2646970667358221220046538978b688e779aeda014390216e8bd2f236684d37b610398ac90726b731e64736f6c63430008170033",
			"deployedBytecode": "0x6080604052600436106101395760003560e01c80638da5cb5b116100ab578063cc6801271161006f578063cc680127146104a9578063e28b5411146104db578063f2fde38b146104f6578063f434c91414610516578063fa461e331461054a578063fef432571461056a57600080fd5b80638da5cb5b1461040457806398ea47fc146104225780639e6eec0514610442578063ad5c464814610455578063c361534c1461048957600080fd5b8063507f1465116100fd578063507f146514610306578063515a92931461033a5780636afdd85014610367578063715018a61461039b5780637c5e9c24146103b057806388bc2ef3146103d057600080fd5b806301ffc9a71461018e57806324e26dc5146101c3578063293c4999146101e35780633a01714f1461022f57806340873cb5146102c257600080fd5b3661018957336001600160a01b037f0000000000000000000000007b79995e5f793a07bc00c21412e50ecae098e7f9161461018757604051635e7e9adf60e11b815260040160405180910390fd5b005b600080fd5b34801561019a57600080fd5b506101ae6101a936600461287c565b61057d565b60405190151581526020015b60405180910390f35b3480156101cf57600080fd5b506101876101de3660046128bb565b6105cf565b3480156101ef57600080fd5b506102177f0000000000000000000000004d9207abeca883161a1eaee9dabedc0001c198d781565b6040516001600160a01b0390911681526020016101ba565b34801561023b57600080fd5b506102b561024a3660046128fd565b604080516060808201835260008083526020808401829052928401819052948552600382528285206001600160a01b03948516865282529382902082519485018352549283168452600160a01b830460ff1690840152600160a81b90910463ffffffff169082015290565b6040516101ba919061292d565b3480156102ce57600080fd5b506102e26102dd3660046128fd565b6107d5565b6040805163ffffffff90931683526001600160a01b039091166020830152016101ba565b34801561031257600080fd5b506102177f000000000000000000000000000000000000000000000000000000000000000081565b34801561034657600080fd5b5061035a610355366004612960565b61084b565b6040516101ba9190612979565b34801561037357600080fd5b506102177f000000000000000000000000000000000022d473030f116ddee9f6b43ac78ba381565b3480156103a757600080fd5b50610187610bca565b3480156103bc57600080fd5b506102176103cb3660046128fd565b610bde565b3480156103dc57600080fd5b506102177f00000000000000000000000018017cfed48e1dc0adc445cef8a9e6affcb330da81565b34801561041057600080fd5b506000546001600160a01b0316610217565b34801561042e57600080fd5b5061018761043d3660046129ed565b505050565b610187610450366004612abc565b610c4a565b34801561046157600080fd5b506102177f0000000000000000000000007b79995e5f793a07bc00c21412e50ecae098e7f981565b34801561049557600080fd5b506101876104a4366004612b64565b610c63565b3480156104b557600080fd5b506104cd6104c4366004612bc0565b60009392505050565b6040519081526020016101ba565b3480156104e757600080fd5b506104cd6104c43660046128bb565b34801561050257600080fd5b50610187610511366004612bec565b610d59565b34801561052257600080fd5b506102177f000000000000000000000000ba24624ae5dc821866e9e71ed050412ef01e2fe681565b34801561055657600080fd5b50610187610565366004612c09565b610d9c565b6104cd610578366004612c5c565b610eb8565b60006001600160e01b03198216632f720bd160e21b14806105ae57506001600160e01b031982166306afdd8560e41b145b806105c957506001600160e01b031982166301ffc9a760e01b145b92915050565b821580156105e757506000546001600160a01b031633145b610680576040516331a9108f60e11b815260048101849052610680907f0000000000000000000000004d9207abeca883161a1eaee9dabedc0001c198d76001600160a01b031690636352211e90602401602060405180830381865afa158015610654573d6000803e3d6000fd5b505050506040513d601f19601f820116820180604052508101906106789190612d10565b84601b611437565b60008381526002602090815260408083206001600160a01b038681168086529184529382902080546001600160a01b031916948616949094179093558051606081018252838152815163313ce56760e01b81529151909384840193909263313ce56792600480830193928290030181865afa158015610703573d6000803e3d6000fd5b505050506040513d601f19601f820116820180604052508101906107279190612d2d565b60ff908116825263ffffffff80861660209384015260008781526003845260408082206001600160a01b03988916808452908652818320875181548989015199850151909616600160a81b0263ffffffff60a81b1999909716600160a01b026001600160a81b03199096169a1699909917939093179590951692909217909555948552600481529084208054600181018255908552932090920180546001600160a01b031916909117905550565b60008281526001602090815260408083206001600160a01b0385168452909152812054819080820361083b57506001600160a01b03831660009081527fa6eef7e35abe7026729641147f7915573c7e97b47efa546f5f6e3230263bcb4960205260409020545b915050602081901c5b9250929050565b60008181526004602090815260408083208054825181850281018501909352808352606094938301828280156108aa57602002820191906000526020600020905b81546001600160a01b0316815260019091019060200180831161088c575b50506000808052600460209081527f17ef568e3e12ab5b9c7254a8d58478811de00f9e6eb34345acd53bf8fd09d3ec8054604080518285028101850190915281815297985092969550935090915083018282801561093157602002820191906000526020600020905b81546001600160a01b03168152600190910190602001808311610913575b505050505090506000815183516109489190612d66565b67ffffffffffffffff81111561096057610960612d79565b6040519080825280602002602001820160405280156109ab57816020015b604080516060810182526000808252602080830182905292820152825260001990920191018161097e5790505b50835190915060005b8451811015610a65576003600088815260200190815260200160002060008683815181106109e4576109e4612d8f565b6020908102919091018101516001600160a01b039081168352828201939093526040918201600020825160608101845290549384168152600160a01b840460ff1691810191909152600160a81b90920463ffffffff16908201528351849083908110610a5257610a52612d8f565b60209081029190910101526001016109b4565b5060005b8351811015610bb3576000805b8651811015610adb57858381518110610a9157610a91612d8f565b60200260200101516001600160a01b0316878281518110610ab457610ab4612d8f565b60200260200101516001600160a01b031603610ad35760019150610adb565b600101610a76565b5080610baa576000808052600360205285517f3617319a054d772f909f7c479a2cebe5066e836a939412e32403c99029b92eff9190879085908110610b2257610b22612d8f565b6020908102919091018101516001600160a01b039081168352828201939093526040918201600020825160608101845290549384168152600160a01b840460ff1691810191909152600160a81b90920463ffffffff16908201528451859085908110610b9057610b90612d8f565b60200260200101819052508280610ba690612da5565b9350505b50600101610a69565b508151811015610bc1578082525b50949350505050565b610bd26115bb565b610bdc60006115e8565b565b60008281526002602090815260408083206001600160a01b03808616855292528220541680610c4357506001600160a01b0380831660009081527fac33ff75c19e70fe83507db0d683fd3465c996598dc972688b7ace676c89077b6020526040902054165b9392505050565b604051630d831b5560e11b815260040160405180910390fd5b83158015610c7b57506000546001600160a01b031633145b610d14576040516331a9108f60e11b815260048101859052610d14907f0000000000000000000000004d9207abeca883161a1eaee9dabedc0001c198d76001600160a01b031690636352211e90602401602060405180830381865afa158015610ce8573d6000803e3d6000fd5b505050506040513d601f19601f82011682018060405250810190610d0c9190612d10565b85601c611437565b60009384526001602090815260408086206001600160a01b03959095168652938152929093209290911b640100000000600160c01b031663ffffffff91909116179055565b610d616115bb565b6001600160a01b038116610d9057604051631e4fbdf760e01b8152600060048201526024015b60405180910390fd5b610d99816115e8565b50565b600080610dab83850185612dbe565b915091506000808712610dbe5786610dc0565b855b90508115610e3d577f0000000000000000000000007b79995e5f793a07bc00c21412e50ecae098e7f96001600160a01b031663d0e30db0826040518263ffffffff1660e01b81526004016000604051808303818588803b158015610e2357600080fd5b505af1158015610e37573d6000803e3d6000fd5b50505050505b60405163a9059cbb60e01b8152336004820152602481018290526001600160a01b0384169063a9059cbb906044016020604051808303816000875af1158015610e8a573d6000803e3d6000fd5b505050506040513d601f19601f82011682018060405250810190610eae9190612dec565b5050505050505050565b6040805161010081018252600060208201819052918101829052606081018290526080810182905260a0810182905260c0810182905260e081018290528a81526001600160a01b038a1661eeed1901610f4c576001600160a01b037f0000000000000000000000007b79995e5f793a07bc00c21412e50ecae098e7f9166040820152600160608201523460c0820152610f63565b6001600160a01b038a16604082015260c081018990525b600080610fad630535741560e41b87878080601f01602080910402602001604051908101604052809392919081815260200183838082843760009201919091525061163892505050565b91509150811561104457600081806020019051810190610fcd9190612e09565b6001600160a01b03918216602088015260e0870192909252909150811661eeed190161102e576001600160a01b037f0000000000000000000000007b79995e5f793a07bc00c21412e50ecae098e7f9166080850152600160a085015261103e565b6001600160a01b03811660808501525b50611228565b6000600260008f815260200190815260200160002060008e6001600160a01b03166001600160a01b0316815260200190815260200160002060009054906101000a90046001600160a01b0316905060006001600160a01b0316816001600160a01b03160361110557506001600160a01b03808d1660009081527fac33ff75c19e70fe83507db0d683fd3465c996598dc972688b7ace676c89077b6020526040902054168061110557604051632a12044160e21b815260040160405180910390fd5b6001600160a01b038116602080860182905260408051630dfe168160e01b8152905160009384939092630dfe168192600480830193928290030181865afa158015611154573d6000803e3d6000fd5b505050506040513d601f19601f820116820180604052508101906111789190612d10565b836001600160a01b031663d21220a76040518163ffffffff1660e01b8152600401602060405180830381865afa1580156111b6573d6000803e3d6000fd5b505050506040513d601f19601f820116820180604052508101906111da9190612d10565b915091508e6001600160a01b0316826001600160a01b0316146111fd57816111ff565b805b6001600160a01b03166080870152611216866117dd565b6001600160a01b031660e08701525050505b505060007f00000000000000000000000018017cfed48e1dc0adc445cef8a9e6affcb330da6001600160a01b031663862026508d8460a0015161126f578460800151611273565b61eeee5b6040516001600160e01b031960e085901b16815260048101929092526001600160a01b03166024820152604401602060405180830381865afa1580156112bd573d6000803e3d6000fd5b505050506040513d601f19601f820116820180604052508101906112e19190612d10565b90506001600160a01b03811661130a57604051630faa917b60e11b815260040160405180910390fd5b61131582868661189c565b60c08301526060820151600090801561132f57508260a001515b80611353575082608001516001600160a01b031683604001516001600160a01b0316145b15611363575060c082015161136f565b61136c83611a00565b90505b61137e82846080015183611bf4565b816001600160a01b031663fef432578460a0015161139d57600061139f565b825b855160a08701516113b45786608001516113b8565b61eeee5b858f8f8f8f8f8f6040518b63ffffffff1660e01b81526004016113e399989796959493929190612e6a565b60206040518083038185885af1158015611401573d6000803e3d6000fd5b50505050506040513d601f19601f820116820180604052508101906114269190612ece565b509c9b505050505050505050505050565b336001600160a01b03841681148015906114ee575060405163c161c93f60e01b81526001600160a01b038281166004830152858116602483015260448201859052606482018490527f000000000000000000000000ba24624ae5dc821866e9e71ed050412ef01e2fe6169063c161c93f90608401602060405180830381865afa1580156114c8573d6000803e3d6000fd5b505050506040513d601f19601f820116820180604052508101906114ec9190612dec565b155b8015611597575060405163c161c93f60e01b81526001600160a01b038281166004830152858116602483015260006044830152606482018490527f000000000000000000000000ba24624ae5dc821866e9e71ed050412ef01e2fe6169063c161c93f90608401602060405180830381865afa158015611571573d6000803e3d6000fd5b505050506040513d601f19601f820116820180604052508101906115959190612dec565b155b156115b55760405163075fd2b160e01b815260040160405180910390fd5b50505050565b6000546001600160a01b03163314610bdc5760405163118cdaa760e01b8152336004820152602401610d87565b600080546001600160a01b038381166001600160a01b0319831681178455604051919092169283917f8be0079c531659141344cd1fd0a4f28419497f9722a3daafe3b4186f6b6457e09190a35050565b60006060602583511161165d5750506040805160208101909152600080825290610844565b60008361166c60046020612d66565b8151811061167c5761167c612d8f565b0160209081015160f81c91505b600085611697600484612d66565b815181106116a7576116a7612d8f565b01602001516001600160f81b031916148015906116cd57506116ca602083612ee7565b81105b156117d4576000856116e0600484612d66565b815181106116f0576116f0612d8f565b016020908101518784019091015160f89190911c91506001600160e01b0319808916908216036117ca576000611727602086612ee7565b611732600986612d66565b101580611767575087611746600986612d66565b8151811061175657611756612d8f565b01602001516001600160f81b031916155b6117a057602088611779600987612d66565b8151811061178957611789612d8f565b016020015161179b919060f81c612ee7565b6117a3565b87515b905060016117bc896117b6602087612ee7565b84611c20565b965096505050505050610844565b5050600501611689565b50509250929050565b60008060006117f4846000015185602001516107d5565b915091506000611808856020015184611c66565b509050600061181682611eb0565b905085608001516001600160a01b031686604001516001600160a01b031610611868576005546001600160a01b031661184f8483612efe565b6118599190612f46565b6118639082612f6c565b611892565b6005546001600160a01b031661187e8483612efe565b6118889190612f46565b6118929082612f93565b9695505050505050565b6040830151606084015160009190156118b85734915050610c43565b34156118d757604051635e7e9adf60e11b815260040160405180910390fd5b60008061191d3060e01b87878080601f01602080910402602001604051908101604052809392919081815260200183838082843760009201919091525061163892505050565b91509150811561197d5760008180602001905181019061193d919061304c565b90508760c0015181602001516001600160a01b03161015611971576040516317e415a160e11b815260040160405180910390fd5b61197b81856121d3565b505b61198d3330858a60c001516122d2565b6040516370a0823160e01b81523060048201526001600160a01b038416906370a0823190602401602060405180830381865afa1580156119d1573d6000803e3d6000fd5b505050506040513d601f19601f820116820180604052508101906119f59190612ece565b979650505050505050565b600080826040015190506000836080015190506000816001600160a01b0316836001600160a01b031610905060008086602001516001600160a01b031663128acb0830858a60c0015187611a7257611a6d600173fffd8963efd1fc6a506488495d951d5263988d26612f93565b611a82565b611a826401000276a36001612f6c565b60608d810151604080516001600160a01b038f16602082015291151590820152016040516020818303038152906040526040518663ffffffff1660e01b8152600401611ad2959493929190613178565b60408051808303816000875af1158015611af0573d6000803e3d6000fd5b505050506040513d601f19601f82011682018060405250810190611b1491906131b3565b9150915082611b235781611b25565b805b611b2e906131d7565b95508660e00151861015611b655760e0870151604051630bb50c5d60e41b8152610d87918891600401918252602082015260400190565b8660a0015115611bea57604051632e1a7d4d60e01b8152600481018790527f0000000000000000000000007b79995e5f793a07bc00c21412e50ecae098e7f96001600160a01b031690632e1a7d4d90602401600060405180830381600087803b158015611bd157600080fd5b505af1158015611be5573d6000803e3d6000fd5b505050505b5050505050919050565b61eeed196001600160a01b03831601611c0c57505050565b61043d6001600160a01b0383168483612434565b60608282036040519150602081830101604052808252508260208501016020820160005b84811015611c5c578281015182820152602001611c44565b5050509392505050565b6000808263ffffffff16600003611ca45760405162461bcd60e51b8152602060048201526002602482015261042560f41b6044820152606401610d87565b6040805160028082526060820183526000926020830190803683370190505090508381600081518110611cd957611cd9612d8f565b602002602001019063ffffffff16908163ffffffff1681525050600081600181518110611d0857611d08612d8f565b602002602001019063ffffffff16908163ffffffff1681525050600080866001600160a01b031663883bdbfd846040518263ffffffff1660e01b8152600401611d5191906131f3565b600060405180830381865afa158015611d6e573d6000803e3d6000fd5b505050506040513d6000823e601f3d908101601f19168201604052611d9691908101906132cd565b91509150600082600081518110611daf57611daf612d8f565b602002602001015183600181518110611dca57611dca612d8f565b6020026020010151611ddc9190613399565b9050600082600081518110611df357611df3612d8f565b602002602001015183600181518110611e0e57611e0e612d8f565b6020026020010151611e209190612f93565b9050611e3263ffffffff8916836133c6565b965060008260060b128015611e585750611e5263ffffffff891683613404565b60060b15155b15611e6b5786611e6781613426565b9750505b6000611e846001600160a01b0363ffffffff8b16613449565b9050611ea1640100000000600160c01b03602084901b1682613472565b96505050505050509250929050565b60008060008360020b12611ec7578260020b611ecf565b8260020b6000035b9050620d89e8811115611ef5576040516315e4079d60e11b815260040160405180910390fd5b600081600116600003611f0c57600160801b611f1e565b6ffffcb933bd6fad37aa2d162d1a5940015b70ffffffffffffffffffffffffffffffffff1690506002821615611f52576ffff97272373d413259a46990580e213a0260801c5b6004821615611f71576ffff2e50f5f656932ef12357cf3c7fdcc0260801c5b6008821615611f90576fffe5caca7e10e4e61c3624eaa0941cd00260801c5b6010821615611faf576fffcb9843d60f6159c9db58835c9266440260801c5b6020821615611fce576fff973b41fa98c081472e6896dfb254c00260801c5b6040821615611fed576fff2ea16466c96a3843ec78b326b528610260801c5b608082161561200c576ffe5dee046a99a2a811c461f1969c30530260801c5b61010082161561202c576ffcbe86c7900a88aedcffc83b479aa3a40260801c5b61020082161561204c576ff987a7253ac413176f2b074cf7815e540260801c5b61040082161561206c576ff3392b0822b70005940c7a398e4b70f30260801c5b61080082161561208c576fe7159475a2c29b7443b29c7fa6e889d90260801c5b6110008216156120ac576fd097f3bdfd2022b8845ad8f792aa58250260801c5b6120008216156120cc576fa9f746462d870fdf8a65dc1f90e061e50260801c5b6140008216156120ec576f70d869a156d2a1b890bb3df62baf32f70260801c5b61800082161561210c576f31be135f97d08fd981231505542fcfa60260801c5b6201000082161561212d576f09aa508b5b7a84e1c677de54f3e99bc90260801c5b6202000082161561214d576e5d6af8dedb81196699c329225ee6040260801c5b6204000082161561216c576d2216e584f5fa1ea926041bedfe980260801c5b62080000821615612189576b048a170391f7dc42444e8fa20260801c5b60008460020b13156121aa5780600019816121a6576121a6612f30565b0490505b6401000000008106156121be5760016121c1565b60005b60ff16602082901c0192505050919050565b7f000000000000000000000000000000000022d473030f116ddee9f6b43ac78ba36001600160a01b0316632b67b5703360405180606001604052806040518060800160405280876001600160a01b0316815260200188602001516001600160a01b03168152602001886040015165ffffffffffff168152602001886060015165ffffffffffff168152508152602001306001600160a01b03168152602001866000015181525085608001516040518463ffffffff1660e01b815260040161229c9392919061348c565b600060405180830381600087803b1580156122b657600080fd5b505af11580156122ca573d6000803e3d6000fd5b505050505050565b61eeed196001600160a01b038316016122f4576122ef83826124be565b6115b5565b306001600160a01b03851603612318576122ef6001600160a01b0383168483612555565b604051636eb1769f60e11b81526001600160a01b03858116600483015230602483015282919084169063dd62ed3e90604401602060405180830381865afa158015612367573d6000803e3d6000fd5b505050506040513d601f19601f8201168201806040525081019061238b9190612ece565b106123a5576122ef6001600160a01b0383168585846125b4565b604051631b63c28b60e11b81526001600160a01b0385811660048301528481166024830152828116604483015283811660648301527f000000000000000000000000000000000022d473030f116ddee9f6b43ac78ba316906336c7851690608401600060405180830381600087803b15801561242057600080fd5b505af1158015610eae573d6000803e3d6000fd5b604051636eb1769f60e11b81523060048201526001600160a01b0383811660248301526000919085169063dd62ed3e90604401602060405180830381865afa158015612484573d6000803e3d6000fd5b505050506040513d601f19601f820116820180604052508101906124a89190612ece565b90506115b584846124b98585612d66565b6125ed565b804710156124e15760405163cd78605960e01b8152306004820152602401610d87565b6000826001600160a01b03168260405160006040518083038185875af1925050503d806000811461252e576040519150601f19603f3d011682016040523d82523d6000602084013e612533565b606091505b505090508061043d57604051630a12f52160e11b815260040160405180910390fd5b6040516001600160a01b0383811660248301526044820183905261043d91859182169063a9059cbb906064015b604051602081830303815290604052915060e01b6020820180516001600160e01b038381831617835250505050612679565b6040516001600160a01b0384811660248301528381166044830152606482018390526115b59186918216906323b872dd90608401612582565b604080516001600160a01b038416602482015260448082018490528251808303909101815260649091019091526020810180516001600160e01b031663095ea7b360e01b17905261263e84826126dc565b6115b5576040516001600160a01b0384811660248301526000604483015261267391869182169063095ea7b390606401612582565b6115b584825b600061268e6001600160a01b03841683612784565b905080516000141580156126b35750808060200190518101906126b19190612dec565b155b1561043d57604051635274afe760e01b81526001600160a01b0384166004820152602401610d87565b6000806000846001600160a01b0316846040516126f99190613500565b6000604051808303816000865af19150503d8060008114612736576040519150601f19603f3d011682016040523d82523d6000602084013e61273b565b606091505b50915091508180156127655750805115806127655750808060200190518101906127659190612dec565b801561277b57506000856001600160a01b03163b115b95945050505050565b6060610c438383600084600080856001600160a01b031684866040516127aa9190613500565b60006040518083038185875af1925050503d80600081146127e7576040519150601f19603f3d011682016040523d82523d6000602084013e6127ec565b606091505b509150915061189286838360608261280c5761280782612853565b610c43565b815115801561282357506001600160a01b0384163b155b1561284c57604051639996b31560e01b81526001600160a01b0385166004820152602401610d87565b5080610c43565b8051156128635780518082602001fd5b604051630a12f52160e11b815260040160405180910390fd5b60006020828403121561288e57600080fd5b81356001600160e01b031981168114610c4357600080fd5b6001600160a01b0381168114610d9957600080fd5b6000806000606084860312156128d057600080fd5b8335925060208401356128e2816128a6565b915060408401356128f2816128a6565b809150509250925092565b6000806040838503121561291057600080fd5b823591506020830135612922816128a6565b809150509250929050565b81516001600160a01b0316815260208083015160ff169082015260408083015163ffffffff1690820152606081016105c9565b60006020828403121561297257600080fd5b5035919050565b6020808252825182820181905260009190848201906040850190845b818110156129e1576129ce83855180516001600160a01b0316825260208082015160ff169083015260409081015163ffffffff16910152565b9284019260609290920191600101612995565b50909695505050505050565b600080600060408486031215612a0257600080fd5b83359250602084013567ffffffffffffffff80821115612a2157600080fd5b818601915086601f830112612a3557600080fd5b813581811115612a4457600080fd5b8760208260051b8501011115612a5957600080fd5b6020830194508093505050509250925092565b8015158114610d9957600080fd5b60008083601f840112612a8c57600080fd5b50813567ffffffffffffffff811115612aa457600080fd5b60208301915083602082850101111561084457600080fd5b60008060008060008060008060c0898b031215612ad857600080fd5b883597506020890135612aea816128a6565b9650604089013595506060890135612b0181612a6c565b9450608089013567ffffffffffffffff80821115612b1e57600080fd5b612b2a8c838d01612a7a565b909650945060a08b0135915080821115612b4357600080fd5b50612b508b828c01612a7a565b999c989b5096995094979396929594505050565b60008060008060808587031215612b7a57600080fd5b843593506020850135612b8c816128a6565b9250604085013563ffffffff81168114612ba557600080fd5b91506060850135612bb5816128a6565b939692955090935050565b600080600060608486031215612bd557600080fd5b505081359360208301359350604090920135919050565b600060208284031215612bfe57600080fd5b8135610c43816128a6565b60008060008060608587031215612c1f57600080fd5b8435935060208501359250604085013567ffffffffffffffff811115612c4457600080fd5b612c5087828801612a7a565b95989497509550505050565b600080600080600080600080600060e08a8c031215612c7a57600080fd5b8935985060208a0135612c8c816128a6565b975060408a0135965060608a0135612ca3816128a6565b955060808a0135945060a08a013567ffffffffffffffff80821115612cc757600080fd5b612cd38d838e01612a7a565b909650945060c08c0135915080821115612cec57600080fd5b50612cf98c828d01612a7a565b915080935050809150509295985092959850929598565b600060208284031215612d2257600080fd5b8151610c43816128a6565b600060208284031215612d3f57600080fd5b815160ff81168114610c4357600080fd5b634e487b7160e01b600052601160045260246000fd5b808201808211156105c9576105c9612d50565b634e487b7160e01b600052604160045260246000fd5b634e487b7160e01b600052603260045260246000fd5b600060018201612db757612db7612d50565b5060010190565b60008060408385031215612dd157600080fd5b8235612ddc816128a6565b9150602083013561292281612a6c565b600060208284031215612dfe57600080fd5b8151610c4381612a6c565b600080600060608486031215612e1e57600080fd5b835192506020840151612e30816128a6565b60408501519092506128f2816128a6565b81835281816020850137506000828201602090810191909152601f909101601f19169091010190565b8981526001600160a01b03898116602083015260408201899052871660608201526080810186905260e060a08201819052600090612eab9083018688612e41565b82810360c0840152612ebe818587612e41565b9c9b505050505050505050505050565b600060208284031215612ee057600080fd5b5051919050565b80820281158282048414176105c9576105c9612d50565b6001600160a01b03828116828216818102831692918115828504821417612f2757612f27612d50565b50505092915050565b634e487b7160e01b600052601260045260246000fd5b60006001600160a01b0383811680612f6057612f60612f30565b92169190910492915050565b6001600160a01b03818116838216019080821115612f8c57612f8c612d50565b5092915050565b6001600160a01b03828116828216039080821115612f8c57612f8c612d50565b60405160a0810167ffffffffffffffff81118282101715612fd657612fd6612d79565b60405290565b604051601f8201601f1916810167ffffffffffffffff8111828210171561300557613005612d79565b604052919050565b805165ffffffffffff8116811461302357600080fd5b919050565b60005b8381101561304357818101518382015260200161302b565b50506000910152565b6000602080838503121561305f57600080fd5b825167ffffffffffffffff8082111561307757600080fd5b9084019060a0828703121561308b57600080fd5b613093612fb3565b82518152838301516130a4816128a6565b818501526130b46040840161300d565b60408201526130c56060840161300d565b60608201526080830151828111156130dc57600080fd5b80840193505086601f8401126130f157600080fd5b82518281111561310357613103612d79565b613115601f8201601f19168601612fdc565b9250808352878582860101111561312b57600080fd5b61313a81868501878701613028565b50608081019190915295945050505050565b60008151808452613164816020860160208601613028565b601f01601f19169290920160200192915050565b6001600160a01b0386811682528515156020830152604082018590528316606082015260a0608082018190526000906119f59083018461314c565b600080604083850312156131c657600080fd5b505080516020909101519092909150565b6000600160ff1b82016131ec576131ec612d50565b5060000390565b6020808252825182820181905260009190848201906040850190845b818110156129e157835163ffffffff168352928401929184019160010161320f565b600067ffffffffffffffff82111561324b5761324b612d79565b5060051b60200190565b600082601f83011261326657600080fd5b8151602061327b61327683613231565b612fdc565b8083825260208201915060208460051b87010193508684111561329d57600080fd5b602086015b848110156132c25780516132b5816128a6565b83529183019183016132a2565b509695505050505050565b600080604083850312156132e057600080fd5b825167ffffffffffffffff808211156132f857600080fd5b818501915085601f83011261330c57600080fd5b8151602061331c61327683613231565b82815260059290921b8401810191818101908984111561333b57600080fd5b948201945b838610156133695785518060060b811461335a5760008081fd5b82529482019490820190613340565b9188015191965090935050508082111561338257600080fd5b5061338f85828601613255565b9150509250929050565b600682810b9082900b03667fffffffffffff198112667fffffffffffff821317156105c9576105c9612d50565b60008160060b8360060b806133dd576133dd612f30565b667fffffffffffff198214600019821416156133fb576133fb612d50565b90059392505050565b60008260060b8061341757613417612f30565b808360060b0791505092915050565b60008160020b627fffff19810361343f5761343f612d50565b6000190192915050565b6001600160c01b03828116828216818102831692918115828504821417612f2757612f27612d50565b60006001600160c01b0383811680612f6057612f60612f30565b600061010060018060a01b0380871684528551818151166020860152816020820151166040860152604081015165ffffffffffff80821660608801528060608401511660808801525050508060208701511660a085015250604085015160c08401528060e08401526118928184018561314c565b60008251613512818460208701613028565b919091019291505056fea2646970667358221220046538978b688e779aeda014390216e8bd2f236684d37b610398ac90726b731e64736f6c63430008170033",
			"devdoc": {
				"kind": "dev",
				"methods": {
					"accountingContextForTokenOf(uint256,address)": {
						"details": "Accounting contexts are set up in `addDefaultPool(...)`.",
						"params": {
							"projectId": "The ID of the project to get the accounting context for.",
							"token": "The address of the token to get the accounting context for."
						},
						"returns": {
							"_0": "A `JBAccountingContext` containing the accounting context for the project ID and token."
						}
					},
					"accountingContextsOf(uint256)": {
						"details": "This includes both project-specific and generic accounting contexts, with the project-specific contexts         taking precedence.",
						"params": {
							"projectId": "The ID of the project to get the accounting contexts for."
						},
						"returns": {
							"_0": "An array of `JBAccountingContext` containing the accounting contexts for the project ID."
						}
					},
					"addDefaultPool(uint256,address,address)": {
						"params": {
							"pool": "The Uniswap V3 pool to set as the default for the specified token.",
							"projectId": "The ID of the project to set the default pool for. The project 0 acts as a catch-all, where non-set pools are defaulted to.",
							"token": "The address of the token to set the default pool for."
						}
					},
					"addTwapParamsFor(uint256,address,uint32,uint160)": {
						"params": {
							"projectId": "The ID of the project to set the TWAP-based quote rules for.",
							"secondsAgo": "The period of time over which the TWAP is calculated, in seconds.",
							"slippageTolerance": "The maximum spread allowed between the amount received and the TWAP (as a fraction out of `SLIPPAGE_DENOMINATOR`)."
						}
					},
					"getPoolFor(uint256,address)": {
						"params": {
							"projectId": "The ID of the project to retrieve the default pool for.",
							"tokenIn": "The address of the token to retrieve the default pool for."
						},
						"returns": {
							"_0": "pool The default pool for the token, or the overall default pool for the token if the"
						}
					},
					"owner()": {
						"details": "Returns the address of the current owner."
					},
					"pay(uint256,address,uint256,address,uint256,string,bytes)": {
						"params": {
							"amount": "The amount of tokens being paid in, as a fixed point number with the same amount of decimals as the `token`. If `token` is the native token, `amount` is ignored and `msg.value` is used in its place.",
							"beneficiary": "The beneficiary address to pass along to the other terminal. If the other terminal mints tokens, for example, they will be minted for this address.",
							"memo": "A memo to pass along to the emitted event.",
							"metadata": "Bytes in `JBMetadataResolver`'s format which can contain a quote from the user/client. The quote should contain a minimum amount of tokens to receive from the swap and the pool to use. This metadata is also passed to the other terminal's emitted event, as well as its data hook and pay hook if applicable.",
							"minReturnedTokens": "The minimum number of project tokens expected in return, as a fixed point number with the same number of decimals as the other terminal. This value will be passed along to the other terminal.",
							"projectId": "The ID of the project being paid.",
							"token": "The address of the token being paid in."
						},
						"returns": {
							"_0": "The number of tokens received from the swap, as a fixed point number with the same amount of decimals as that token."
						}
					},
					"renounceOwnership()": {
						"details": "Leaves the contract without owner. It will not be possible to call `onlyOwner` functions. Can only be called by the current owner. NOTE: Renouncing ownership will leave the contract without an owner, thereby disabling any functionality that is only available to the owner."
					},
					"supportsInterface(bytes4)": {
						"details": "See {IERC165-supportsInterface}.",
						"params": {
							"interfaceId": "The ID of the interface to check for adherance to."
						},
						"returns": {
							"_0": "A flag indicating if the provided interface ID is supported."
						}
					},
					"transferOwnership(address)": {
						"details": "Transfers ownership of the contract to a new account (`newOwner`). Can only be called by the current owner."
					},
					"twapParamsOf(uint256,address)": {
						"params": {
							"projectId": "The ID of the project to retrieve TWAP parameters for."
						},
						"returns": {
							"secondsAgo": "The period of time in the past to calculate the TWAP from.",
							"slippageTolerance": "The maximum allowed slippage tolerance when calculating the TWAP, as a fraction out of `SLIPPAGE_DENOMINATOR`."
						}
					},
					"uniswapV3SwapCallback(int256,int256,bytes)": {
						"params": {
							"amount0Delta": "The amount of token 0 being used for the swap.",
							"amount1Delta": "The amount of token 1 being used for the swap.",
							"data": "Data passed in by the swap operation."
						}
					}
				},
				"version": 1
			},
			"userdoc": {
				"kind": "user",
				"methods": {
					"DIRECTORY()": {
						"notice": "The directory of terminals and controllers for `PROJECTS`."
					},
					"PERMISSIONS()": {
						"notice": "A contract storing permissions."
					},
					"PERMIT2()": {
						"notice": "The permit2 utility."
					},
					"PROJECTS()": {
						"notice": "Mints ERC-721s that represent project ownership and transfers."
					},
					"STORE()": {
						"notice": "The contract that stores and manages this terminal's data."
					},
					"WETH()": {
						"notice": "The ERC-20 wrapper for the native token."
					},
					"accountingContextForTokenOf(uint256,address)": {
						"notice": "Get the accounting context for the specified project ID and token."
					},
					"accountingContextsOf(uint256)": {
						"notice": "Return all the accounting contexts for a specified project ID."
					},
					"addAccountingContextsFor(uint256,address[])": {
						"notice": "Empty implementation to satisfy the interface. Accounting contexts are set in `addDefaultPool(...)`."
					},
					"addDefaultPool(uint256,address,address)": {
						"notice": "Set a project's default pool and accounting context for the specified token. Only the project's owner, an address with `MODIFY_DEFAULT_POOL` permission from the owner or the terminal owner can call this function."
					},
					"addToBalanceOf(uint256,address,uint256,bool,string,bytes)": {
						"notice": "This terminal does not support adding to balances."
					},
					"addTwapParamsFor(uint256,address,uint32,uint160)": {
						"notice": "Set the specified project's rules for calculating a quote based on the TWAP. Only the project's owner or an address with `MODIFY_TWAP_PARAMS` permission from the owner  or the terminal owner can call this function."
					},
					"currentSurplusOf(uint256,uint256,uint256)": {
						"notice": "Empty implementation to satisfy the interface. This terminal has no surplus."
					},
					"getPoolFor(uint256,address)": {
						"notice": "Returns the default pool for a given project and token or, if a project has no default pool for the         token, the overal default pool for the token"
					},
					"migrateBalanceOf(uint256,address,address)": {
						"notice": "Empty implementation to satisfy the interface."
					},
					"pay(uint256,address,uint256,address,uint256,string,bytes)": {
						"notice": "Pay a project by swapping the incoming tokens for tokens that one of the project's other terminals accepts, passing along the funds received from the swap and the specified parameters."
					},
					"supportsInterface(bytes4)": {
						"notice": "Indicates if this contract adheres to the specified interface."
					},
					"twapParamsOf(uint256,address)": {
						"notice": "Returns the default twap parameters for a given pool project."
					},
					"uniswapV3SwapCallback(int256,int256,bytes)": {
						"notice": "The Uniswap v3 pool callback where the token transfer is expected to happen."
					}
				},
				"version": 1
			},
			"gitCommit": "258351a114c3216d92a87e7460452a963b51e45b",
			"sourceName": "src/JBSwapTerminal.sol",
			"chainId": "11155111",
			"linkReferences": {},
			"deployedLinkReferences": {}
		}
	]
}