{
	"format": "sphinx-sol-ct-artifact-1",
	"merkleRoot": "0x7b69471258da8d4d6a706eb3d7c62fae04117db97af47de7845c25fc9c34d046",
	"address": "0x4b75f7c7e9bd65807cbc56419641155c2660b65c",
	"sourceName": "src/JBSwapTerminal1_1.sol",
	"contractName": "JBSwapTerminal1_1",
	"chainId": "0xaa36a7",
	"abi": [
		{
			"inputs": [
				{
					"internalType": "contract IJBDirectory",
					"name": "directory",
					"type": "address"
				},
				{
					"internalType": "contract IJBPermissions",
					"name": "permissions",
					"type": "address"
				},
				{
					"internalType": "contract IJBProjects",
					"name": "projects",
					"type": "address"
				},
				{
					"internalType": "contract IPermit2",
					"name": "permit2",
					"type": "address"
				},
				{
					"internalType": "address",
					"name": "owner",
					"type": "address"
				},
				{
					"internalType": "contract IWETH9",
					"name": "weth",
					"type": "address"
				},
				{
					"internalType": "address",
					"name": "tokenOut",
					"type": "address"
				},
				{
					"internalType": "contract IUniswapV3Factory",
					"name": "factory",
					"type": "address"
				}
			],
			"stateMutability": "nonpayable",
			"type": "constructor"
		},
		{
			"stateMutability": "payable",
			"type": "receive"
		},
		{
			"inputs": [],
			"name": "DEFAULT_PROJECT_ID",
			"outputs": [
				{
					"internalType": "uint256",
					"name": "",
					"type": "uint256"
				}
			],
			"stateMutability": "view",
			"type": "function"
		},
		{
			"inputs": [],
			"name": "DIRECTORY",
			"outputs": [
				{
					"internalType": "contract IJBDirectory",
					"name": "",
					"type": "address"
				}
			],
			"stateMutability": "view",
			"type": "function"
		},
		{
			"inputs": [],
			"name": "FACTORY",
			"outputs": [
				{
					"internalType": "contract IUniswapV3Factory",
					"name": "",
					"type": "address"
				}
			],
			"stateMutability": "view",
			"type": "function"
		},
		{
			"inputs": [],
			"name": "MAX_TWAP_SLIPPAGE_TOLERANCE",
			"outputs": [
				{
					"internalType": "uint256",
					"name": "",
					"type": "uint256"
				}
			],
			"stateMutability": "view",
			"type": "function"
		},
		{
			"inputs": [],
			"name": "MAX_TWAP_WINDOW",
			"outputs": [
				{
					"internalType": "uint256",
					"name": "",
					"type": "uint256"
				}
			],
			"stateMutability": "view",
			"type": "function"
		},
		{
			"inputs": [],
			"name": "MIN_DEFAULT_POOL_CARDINALITY",
			"outputs": [
				{
					"internalType": "uint16",
					"name": "",
					"type": "uint16"
				}
			],
			"stateMutability": "view",
			"type": "function"
		},
		{
			"inputs": [],
			"name": "MIN_TWAP_SLIPPAGE_TOLERANCE",
			"outputs": [
				{
					"internalType": "uint256",
					"name": "",
					"type": "uint256"
				}
			],
			"stateMutability": "view",
			"type": "function"
		},
		{
			"inputs": [],
			"name": "MIN_TWAP_WINDOW",
			"outputs": [
				{
					"internalType": "uint256",
					"name": "",
					"type": "uint256"
				}
			],
			"stateMutability": "view",
			"type": "function"
		},
		{
			"inputs": [],
			"name": "PERMISSIONS",
			"outputs": [
				{
					"internalType": "contract IJBPermissions",
					"name": "",
					"type": "address"
				}
			],
			"stateMutability": "view",
			"type": "function"
		},
		{
			"inputs": [],
			"name": "PERMIT2",
			"outputs": [
				{
					"internalType": "contract IPermit2",
					"name": "",
					"type": "address"
				}
			],
			"stateMutability": "view",
			"type": "function"
		},
		{
			"inputs": [],
			"name": "PROJECTS",
			"outputs": [
				{
					"internalType": "contract IJBProjects",
					"name": "",
					"type": "address"
				}
			],
			"stateMutability": "view",
			"type": "function"
		},
		{
			"inputs": [],
			"name": "SLIPPAGE_DENOMINATOR",
			"outputs": [
				{
					"internalType": "uint160",
					"name": "",
					"type": "uint160"
				}
			],
			"stateMutability": "view",
			"type": "function"
		},
		{
			"inputs": [],
			"name": "TOKEN_OUT",
			"outputs": [
				{
					"internalType": "address",
					"name": "",
					"type": "address"
				}
			],
			"stateMutability": "view",
			"type": "function"
		},
		{
			"inputs": [],
			"name": "WETH",
			"outputs": [
				{
					"internalType": "contract IWETH9",
					"name": "",
					"type": "address"
				}
			],
			"stateMutability": "view",
			"type": "function"
		},
		{
			"inputs": [
				{
					"internalType": "uint256",
					"name": "projectId",
					"type": "uint256"
				},
				{
					"internalType": "address",
					"name": "token",
					"type": "address"
				}
			],
			"name": "accountingContextForTokenOf",
			"outputs": [
				{
					"components": [
						{
							"internalType": "address",
							"name": "token",
							"type": "address"
						},
						{
							"internalType": "uint8",
							"name": "decimals",
							"type": "uint8"
						},
						{
							"internalType": "uint32",
							"name": "currency",
							"type": "uint32"
						}
					],
					"internalType": "struct JBAccountingContext",
					"name": "context",
					"type": "tuple"
				}
			],
			"stateMutability": "view",
			"type": "function"
		},
		{
			"inputs": [
				{
					"internalType": "uint256",
					"name": "projectId",
					"type": "uint256"
				}
			],
			"name": "accountingContextsOf",
			"outputs": [
				{
					"components": [
						{
							"internalType": "address",
							"name": "token",
							"type": "address"
						},
						{
							"internalType": "uint8",
							"name": "decimals",
							"type": "uint8"
						},
						{
							"internalType": "uint32",
							"name": "currency",
							"type": "uint32"
						}
					],
					"internalType": "struct JBAccountingContext[]",
					"name": "contexts",
					"type": "tuple[]"
				}
			],
			"stateMutability": "view",
			"type": "function"
		},
		{
			"inputs": [
				{
					"internalType": "uint256",
					"name": "projectId",
					"type": "uint256"
				},
				{
					"components": [
						{
							"internalType": "address",
							"name": "token",
							"type": "address"
						},
						{
							"internalType": "uint8",
							"name": "decimals",
							"type": "uint8"
						},
						{
							"internalType": "uint32",
							"name": "currency",
							"type": "uint32"
						}
					],
					"internalType": "struct JBAccountingContext[]",
					"name": "accountingContexts",
					"type": "tuple[]"
				}
			],
			"name": "addAccountingContextsFor",
			"outputs": [],
			"stateMutability": "nonpayable",
			"type": "function"
		},
		{
			"inputs": [
				{
					"internalType": "uint256",
					"name": "projectId",
					"type": "uint256"
				},
				{
					"internalType": "address",
					"name": "token",
					"type": "address"
				},
				{
					"internalType": "contract IUniswapV3Pool",
					"name": "pool",
					"type": "address"
				}
			],
			"name": "addDefaultPool",
			"outputs": [],
			"stateMutability": "nonpayable",
			"type": "function"
		},
		{
			"inputs": [
				{
					"internalType": "uint256",
					"name": "projectId",
					"type": "uint256"
				},
				{
					"internalType": "address",
					"name": "token",
					"type": "address"
				},
				{
					"internalType": "uint256",
					"name": "amount",
					"type": "uint256"
				},
				{
					"internalType": "bool",
					"name": "shouldReturnHeldFees",
					"type": "bool"
				},
				{
					"internalType": "string",
					"name": "memo",
					"type": "string"
				},
				{
					"internalType": "bytes",
					"name": "metadata",
					"type": "bytes"
				}
			],
			"name": "addToBalanceOf",
			"outputs": [],
			"stateMutability": "payable",
			"type": "function"
		},
		{
			"inputs": [
				{
					"internalType": "uint256",
					"name": "projectId",
					"type": "uint256"
				},
				{
					"internalType": "contract IUniswapV3Pool",
					"name": "pool",
					"type": "address"
				},
				{
					"internalType": "uint256",
					"name": "twapWindow",
					"type": "uint256"
				},
				{
					"internalType": "uint256",
					"name": "slippageTolerance",
					"type": "uint256"
				}
			],
			"name": "addTwapParamsFor",
			"outputs": [],
			"stateMutability": "nonpayable",
			"type": "function"
		},
		{
			"inputs": [
				{
					"internalType": "uint256",
					"name": "projectId",
					"type": "uint256"
				},
				{
					"components": [
						{
							"internalType": "address",
							"name": "token",
							"type": "address"
						},
						{
							"internalType": "uint8",
							"name": "decimals",
							"type": "uint8"
						},
						{
							"internalType": "uint32",
							"name": "currency",
							"type": "uint32"
						}
					],
					"internalType": "struct JBAccountingContext[]",
					"name": "accountingContexts",
					"type": "tuple[]"
				},
				{
					"internalType": "uint256",
					"name": "decimals",
					"type": "uint256"
				},
				{
					"internalType": "uint256",
					"name": "currency",
					"type": "uint256"
				}
			],
			"name": "currentSurplusOf",
			"outputs": [
				{
					"internalType": "uint256",
					"name": "",
					"type": "uint256"
				}
			],
			"stateMutability": "view",
			"type": "function"
		},
		{
			"inputs": [
				{
					"internalType": "uint256",
					"name": "projectId",
					"type": "uint256"
				},
				{
					"internalType": "address",
					"name": "tokenIn",
					"type": "address"
				}
			],
			"name": "getPoolFor",
			"outputs": [
				{
					"internalType": "contract IUniswapV3Pool",
					"name": "pool",
					"type": "address"
				},
				{
					"internalType": "bool",
					"name": "zeroForOne",
					"type": "bool"
				}
			],
			"stateMutability": "view",
			"type": "function"
		},
		{
			"inputs": [
				{
					"internalType": "uint256",
					"name": "projectId",
					"type": "uint256"
				},
				{
					"internalType": "address",
					"name": "token",
					"type": "address"
				},
				{
					"internalType": "contract IJBTerminal",
					"name": "to",
					"type": "address"
				}
			],
			"name": "migrateBalanceOf",
			"outputs": [
				{
					"internalType": "uint256",
					"name": "balance",
					"type": "uint256"
				}
			],
			"stateMutability": "nonpayable",
			"type": "function"
		},
		{
			"inputs": [],
			"name": "owner",
			"outputs": [
				{
					"internalType": "address",
					"name": "",
					"type": "address"
				}
			],
			"stateMutability": "view",
			"type": "function"
		},
		{
			"inputs": [
				{
					"internalType": "uint256",
					"name": "projectId",
					"type": "uint256"
				},
				{
					"internalType": "address",
					"name": "token",
					"type": "address"
				},
				{
					"internalType": "uint256",
					"name": "amount",
					"type": "uint256"
				},
				{
					"internalType": "address",
					"name": "beneficiary",
					"type": "address"
				},
				{
					"internalType": "uint256",
					"name": "minReturnedTokens",
					"type": "uint256"
				},
				{
					"internalType": "string",
					"name": "memo",
					"type": "string"
				},
				{
					"internalType": "bytes",
					"name": "metadata",
					"type": "bytes"
				}
			],
			"name": "pay",
			"outputs": [
				{
					"internalType": "uint256",
					"name": "",
					"type": "uint256"
				}
			],
			"stateMutability": "payable",
			"type": "function"
		},
		{
			"inputs": [],
			"name": "renounceOwnership",
			"outputs": [],
			"stateMutability": "nonpayable",
			"type": "function"
		},
		{
			"inputs": [
				{
					"internalType": "bytes4",
					"name": "interfaceId",
					"type": "bytes4"
				}
			],
			"name": "supportsInterface",
			"outputs": [
				{
					"internalType": "bool",
					"name": "",
					"type": "bool"
				}
			],
			"stateMutability": "view",
			"type": "function"
		},
		{
			"inputs": [
				{
					"internalType": "address",
					"name": "newOwner",
					"type": "address"
				}
			],
			"name": "transferOwnership",
			"outputs": [],
			"stateMutability": "nonpayable",
			"type": "function"
		},
		{
			"inputs": [
				{
					"internalType": "uint256",
					"name": "projectId",
					"type": "uint256"
				},
				{
					"internalType": "contract IUniswapV3Pool",
					"name": "pool",
					"type": "address"
				}
			],
			"name": "twapParamsOf",
			"outputs": [
				{
					"internalType": "uint32",
					"name": "",
					"type": "uint32"
				},
				{
					"internalType": "uint160",
					"name": "",
					"type": "uint160"
				}
			],
			"stateMutability": "view",
			"type": "function"
		},
		{
			"inputs": [
				{
					"internalType": "int256",
					"name": "amount0Delta",
					"type": "int256"
				},
				{
					"internalType": "int256",
					"name": "amount1Delta",
					"type": "int256"
				},
				{
					"internalType": "bytes",
					"name": "data",
					"type": "bytes"
				}
			],
			"name": "uniswapV3SwapCallback",
			"outputs": [],
			"stateMutability": "nonpayable",
			"type": "function"
		},
		{
			"anonymous": false,
			"inputs": [
				{
					"indexed": true,
					"internalType": "uint256",
					"name": "projectId",
					"type": "uint256"
				},
				{
					"indexed": false,
					"internalType": "uint256",
					"name": "amount",
					"type": "uint256"
				},
				{
					"indexed": false,
					"internalType": "uint256",
					"name": "returnedFees",
					"type": "uint256"
				},
				{
					"indexed": false,
					"internalType": "string",
					"name": "memo",
					"type": "string"
				},
				{
					"indexed": false,
					"internalType": "bytes",
					"name": "metadata",
					"type": "bytes"
				},
				{
					"indexed": false,
					"internalType": "address",
					"name": "caller",
					"type": "address"
				}
			],
			"name": "AddToBalance",
			"type": "event"
		},
		{
			"anonymous": false,
			"inputs": [
				{
					"indexed": true,
					"internalType": "contract IJBPayHook",
					"name": "hook",
					"type": "address"
				},
				{
					"components": [
						{
							"internalType": "address",
							"name": "payer",
							"type": "address"
						},
						{
							"internalType": "uint256",
							"name": "projectId",
							"type": "uint256"
						},
						{
							"internalType": "uint256",
							"name": "rulesetId",
							"type": "uint256"
						},
						{
							"components": [
								{
									"internalType": "address",
									"name": "token",
									"type": "address"
								},
								{
									"internalType": "uint8",
									"name": "decimals",
									"type": "uint8"
								},
								{
									"internalType": "uint32",
									"name": "currency",
									"type": "uint32"
								},
								{
									"internalType": "uint256",
									"name": "value",
									"type": "uint256"
								}
							],
							"internalType": "struct JBTokenAmount",
							"name": "amount",
							"type": "tuple"
						},
						{
							"components": [
								{
									"internalType": "address",
									"name": "token",
									"type": "address"
								},
								{
									"internalType": "uint8",
									"name": "decimals",
									"type": "uint8"
								},
								{
									"internalType": "uint32",
									"name": "currency",
									"type": "uint32"
								},
								{
									"internalType": "uint256",
									"name": "value",
									"type": "uint256"
								}
							],
							"internalType": "struct JBTokenAmount",
							"name": "forwardedAmount",
							"type": "tuple"
						},
						{
							"internalType": "uint256",
							"name": "weight",
							"type": "uint256"
						},
						{
							"internalType": "uint256",
							"name": "newlyIssuedTokenCount",
							"type": "uint256"
						},
						{
							"internalType": "address",
							"name": "beneficiary",
							"type": "address"
						},
						{
							"internalType": "bytes",
							"name": "hookMetadata",
							"type": "bytes"
						},
						{
							"internalType": "bytes",
							"name": "payerMetadata",
							"type": "bytes"
						}
					],
					"indexed": false,
					"internalType": "struct JBAfterPayRecordedContext",
					"name": "context",
					"type": "tuple"
				},
				{
					"indexed": false,
					"internalType": "uint256",
					"name": "specificationAmount",
					"type": "uint256"
				},
				{
					"indexed": false,
					"internalType": "address",
					"name": "caller",
					"type": "address"
				}
			],
			"name": "HookAfterRecordPay",
			"type": "event"
		},
		{
			"anonymous": false,
			"inputs": [
				{
					"indexed": true,
					"internalType": "uint256",
					"name": "projectId",
					"type": "uint256"
				},
				{
					"indexed": true,
					"internalType": "address",
					"name": "token",
					"type": "address"
				},
				{
					"indexed": true,
					"internalType": "contract IJBTerminal",
					"name": "to",
					"type": "address"
				},
				{
					"indexed": false,
					"internalType": "uint256",
					"name": "amount",
					"type": "uint256"
				},
				{
					"indexed": false,
					"internalType": "address",
					"name": "caller",
					"type": "address"
				}
			],
			"name": "MigrateTerminal",
			"type": "event"
		},
		{
			"anonymous": false,
			"inputs": [
				{
					"indexed": true,
					"internalType": "address",
					"name": "previousOwner",
					"type": "address"
				},
				{
					"indexed": true,
					"internalType": "address",
					"name": "newOwner",
					"type": "address"
				}
			],
			"name": "OwnershipTransferred",
			"type": "event"
		},
		{
			"anonymous": false,
			"inputs": [
				{
					"indexed": true,
					"internalType": "uint256",
					"name": "rulesetId",
					"type": "uint256"
				},
				{
					"indexed": true,
					"internalType": "uint256",
					"name": "rulesetCycleNumber",
					"type": "uint256"
				},
				{
					"indexed": true,
					"internalType": "uint256",
					"name": "projectId",
					"type": "uint256"
				},
				{
					"indexed": false,
					"internalType": "address",
					"name": "payer",
					"type": "address"
				},
				{
					"indexed": false,
					"internalType": "address",
					"name": "beneficiary",
					"type": "address"
				},
				{
					"indexed": false,
					"internalType": "uint256",
					"name": "amount",
					"type": "uint256"
				},
				{
					"indexed": false,
					"internalType": "uint256",
					"name": "newlyIssuedTokenCount",
					"type": "uint256"
				},
				{
					"indexed": false,
					"internalType": "string",
					"name": "memo",
					"type": "string"
				},
				{
					"indexed": false,
					"internalType": "bytes",
					"name": "metadata",
					"type": "bytes"
				},
				{
					"indexed": false,
					"internalType": "address",
					"name": "caller",
					"type": "address"
				}
			],
			"name": "Pay",
			"type": "event"
		},
		{
			"anonymous": false,
			"inputs": [
				{
					"indexed": true,
					"internalType": "uint256",
					"name": "projectId",
					"type": "uint256"
				},
				{
					"components": [
						{
							"internalType": "address",
							"name": "token",
							"type": "address"
						},
						{
							"internalType": "uint8",
							"name": "decimals",
							"type": "uint8"
						},
						{
							"internalType": "uint32",
							"name": "currency",
							"type": "uint32"
						}
					],
					"indexed": false,
					"internalType": "struct JBAccountingContext",
					"name": "context",
					"type": "tuple"
				},
				{
					"indexed": false,
					"internalType": "address",
					"name": "caller",
					"type": "address"
				}
			],
			"name": "SetAccountingContext",
			"type": "event"
		},
		{
			"inputs": [],
			"name": "FailedCall",
			"type": "error"
		},
		{
			"inputs": [
				{
					"internalType": "uint256",
					"name": "balance",
					"type": "uint256"
				},
				{
					"internalType": "uint256",
					"name": "needed",
					"type": "uint256"
				}
			],
			"name": "InsufficientBalance",
			"type": "error"
		},
		{
			"inputs": [
				{
					"internalType": "address",
					"name": "account",
					"type": "address"
				},
				{
					"internalType": "address",
					"name": "sender",
					"type": "address"
				},
				{
					"internalType": "uint256",
					"name": "projectId",
					"type": "uint256"
				},
				{
					"internalType": "uint256",
					"name": "permissionId",
					"type": "uint256"
				}
			],
			"name": "JBPermissioned_Unauthorized",
			"type": "error"
		},
		{
			"inputs": [
				{
					"internalType": "address",
					"name": "caller",
					"type": "address"
				}
			],
			"name": "JBSwapTerminal_CallerNotPool",
			"type": "error"
		},
		{
			"inputs": [
				{
					"internalType": "uint256",
					"name": "slippageTolerance",
					"type": "uint256"
				},
				{
					"internalType": "uint256",
					"name": "minSlippageTolerance",
					"type": "uint256"
				},
				{
					"internalType": "uint256",
					"name": "maxSlippageTolerance",
					"type": "uint256"
				}
			],
			"name": "JBSwapTerminal_InvalidTwapSlippageTolerance",
			"type": "error"
		},
		{
			"inputs": [
				{
					"internalType": "uint256",
					"name": "window",
					"type": "uint256"
				},
				{
					"internalType": "uint256",
					"name": "minWindow",
					"type": "uint256"
				},
				{
					"internalType": "uint256",
					"name": "maxWindow",
					"type": "uint256"
				}
			],
			"name": "JBSwapTerminal_InvalidTwapWindow",
			"type": "error"
		},
		{
			"inputs": [
				{
					"internalType": "uint256",
					"name": "projectId",
					"type": "uint256"
				},
				{
					"internalType": "address",
					"name": "token",
					"type": "address"
				}
			],
			"name": "JBSwapTerminal_NoDefaultPoolDefined",
			"type": "error"
		},
		{
			"inputs": [
				{
					"internalType": "uint256",
					"name": "value",
					"type": "uint256"
				}
			],
			"name": "JBSwapTerminal_NoMsgValueAllowed",
			"type": "error"
		},
		{
			"inputs": [
				{
					"internalType": "uint256",
					"name": "amount",
					"type": "uint256"
				},
				{
					"internalType": "uint256",
					"name": "allowance",
					"type": "uint256"
				}
			],
			"name": "JBSwapTerminal_PermitAllowanceNotEnough",
			"type": "error"
		},
		{
			"inputs": [
				{
					"internalType": "uint256",
					"name": "amount",
					"type": "uint256"
				},
				{
					"internalType": "uint256",
					"name": "minimum",
					"type": "uint256"
				}
			],
			"name": "JBSwapTerminal_SpecifiedSlippageExceeded",
			"type": "error"
		},
		{
			"inputs": [
				{
					"internalType": "uint256",
					"name": "projectId",
					"type": "uint256"
				},
				{
					"internalType": "address",
					"name": "token",
					"type": "address"
				}
			],
			"name": "JBSwapTerminal_TokenNotAccepted",
			"type": "error"
		},
		{
			"inputs": [
				{
					"internalType": "address",
					"name": "caller",
					"type": "address"
				}
			],
			"name": "JBSwapTerminal_UnexpectedCall",
			"type": "error"
		},
		{
			"inputs": [
				{
					"internalType": "address",
					"name": "pool",
					"type": "address"
				},
				{
					"internalType": "address",
					"name": "expectedPool",
					"type": "address"
				}
			],
			"name": "JBSwapTerminal_WrongPool",
			"type": "error"
		},
		{
			"inputs": [],
			"name": "JBSwapTerminal_ZeroToken",
			"type": "error"
		},
		{
			"inputs": [
				{
					"internalType": "address",
					"name": "owner",
					"type": "address"
				}
			],
			"name": "OwnableInvalidOwner",
			"type": "error"
		},
		{
			"inputs": [
				{
					"internalType": "address",
					"name": "account",
					"type": "address"
				}
			],
			"name": "OwnableUnauthorizedAccount",
			"type": "error"
		},
		{
			"inputs": [
				{
					"internalType": "address",
					"name": "token",
					"type": "address"
				}
			],
			"name": "SafeERC20FailedOperation",
			"type": "error"
		},
		{
			"inputs": [],
			"name": "T",
			"type": "error"
		}
	],
	"args": [],
	"solcInputHash": "70056f0485c28af39e8457cc165fdaf1",
	"bytecode": "0x61018060405234801562000011575f80fd5b50604051620054d2380380620054d2833981016040819052620000349162000144565b6001600160a01b03808816608052849081166200006a57604051631e4fbdf760e01b81525f600482015260240160405180910390fd5b6200007581620000dd565b506001600160a01b0382166200009e57604051635cd24a5760e11b815260040160405180910390fd5b6001600160a01b0397881660a0529487166101005292861660e05285166101405250831661012081905261eeee146101605290911660c0525062000200565b5f80546001600160a01b038381166001600160a01b0319831681178455604051919092169283917f8be0079c531659141344cd1fd0a4f28419497f9722a3daafe3b4186f6b6457e09190a35050565b6001600160a01b038116811462000141575f80fd5b50565b5f805f805f805f80610100898b0312156200015d575f80fd5b88516200016a816200012c565b60208a01519098506200017d816200012c565b60408a015190975062000190816200012c565b60608a0151909650620001a3816200012c565b60808a0151909550620001b6816200012c565b60a08a0151909450620001c9816200012c565b60c08a0151909350620001dc816200012c565b60e08a0151909250620001ef816200012c565b809150509295985092959890939650565b60805160a05160c05160e051610100516101205161014051610160516151ab620003275f395f8181612163015281816126260152818161286e015261313a01525f81816101e5015281816105b9015281816109b401528181611b5601528181611c99015281816121ae015281816125d5015281816127e1015261318d01525f818161028e015281816116ef015281816117e5015281816118340152818161187b01528181611d8501528181611e7b01528181611eca01528181611f11015261218901525f8181610346015281816108ee015261193701525f818161048e0152818161247c0152612ce401525f818161038c015281816109f90152610b6101525f8181610535015281816117190152611db101525f8181610699015261203801526151ab5ff3fe6080604052600436106101c8575f3560e01c80637c5e9c24116100f2578063b88a92b411610092578063f2fde38b11610062578063f2fde38b14610669578063f434c91414610688578063fa461e33146106bb578063fef43257146106da575f80fd5b8063b88a92b4146105ef578063be6963f214610605578063e28b541114610624578063edb4095014610646575f80fd5b80639e6eec05116100cd5780639e6eec0514610580578063ac90511414610593578063ad5c4648146105a8578063af471880146105db575f80fd5b80637c5e9c24146104d957806388bc2ef3146105245780638da5cb5b14610557575f80fd5b80632dd3100011610168578063515a929311610138578063515a9293146104515780636afdd8501461047d578063715018a6146104b0578063754baf96146104c4575f80fd5b80632dd310001461037b5780632e4c3cbf146103ae5780633a01714f146103d557806340873cb514610401575f80fd5b806324e26dc5116101a357806324e26dc5146102f7578063253721c814610316578063293c4999146103355780632c1ae88214610368575f80fd5b806301ffc9a7146102495780630392ef941461027d5780631a65893b146102d5575f80fd5b36610245573373ffffffffffffffffffffffffffffffffffffffff7f00000000000000000000000000000000000000000000000000000000000000001614610243576040517fb320fe970000000000000000000000000000000000000000000000000000000081523360048201526024015b60405180910390fd5b005b5f80fd5b348015610254575f80fd5b506102686102633660046140ea565b6106ed565b60405190151581526020015b60405180910390f35b348015610288575f80fd5b506102b07f000000000000000000000000000000000000000000000000000000000000000081565b60405173ffffffffffffffffffffffffffffffffffffffff9091168152602001610274565b3480156102e0575f80fd5b506102e9607881565b604051908152602001610274565b348015610302575f80fd5b5061024361031136600461414a565b6108b5565b348015610321575f80fd5b50610243610330366004614189565b505050565b348015610340575f80fd5b506102b07f000000000000000000000000000000000000000000000000000000000000000081565b348015610373575f80fd5b506102e95f81565b348015610386575f80fd5b506102b07f000000000000000000000000000000000000000000000000000000000000000081565b3480156103b9575f80fd5b506103c2600a81565b60405161ffff9091168152602001610274565b3480156103e0575f80fd5b506103f46103ef366004614201565b610feb565b604051610274919061422f565b34801561040c575f80fd5b5061042061041b366004614201565b611131565b6040805163ffffffff909316835273ffffffffffffffffffffffffffffffffffffffff909116602083015201610274565b34801561045c575f80fd5b5061047061046b36600461426f565b6111bf565b6040516102749190614286565b348015610488575f80fd5b506102b07f000000000000000000000000000000000000000000000000000000000000000081565b3480156104bb575f80fd5b506102436115da565b3480156104cf575f80fd5b506102e961232881565b3480156104e4575f80fd5b506104f86104f3366004614201565b6115ed565b6040805173ffffffffffffffffffffffffffffffffffffffff9093168352901515602083015201610274565b34801561052f575f80fd5b506102b07f000000000000000000000000000000000000000000000000000000000000000081565b348015610562575f80fd5b505f5473ffffffffffffffffffffffffffffffffffffffff166102b0565b61024361058e366004614351565b6116ab565b34801561059e575f80fd5b506102b061271081565b3480156105b3575f80fd5b506102b07f000000000000000000000000000000000000000000000000000000000000000081565b3480156105e6575f80fd5b506102e9606481565b3480156105fa575f80fd5b506102e96202a30081565b348015610610575f80fd5b5061024361061f3660046143f2565b6118fe565b34801561062f575f80fd5b506102e961063e36600461414a565b5f9392505050565b348015610651575f80fd5b506102e9610660366004614536565b5f949350505050565b348015610674575f80fd5b50610243610683366004614626565b611ab8565b348015610693575f80fd5b506102b07f000000000000000000000000000000000000000000000000000000000000000081565b3480156106c6575f80fd5b506102436106d5366004614641565b611b1b565b6102e96106e8366004614690565b611d41565b5f7fffffffff0000000000000000000000000000000000000000000000000000000082167f21c9410700000000000000000000000000000000000000000000000000000000148061077f57507fffffffff0000000000000000000000000000000000000000000000000000000082167f6afdd85000000000000000000000000000000000000000000000000000000000145b806107cb57507fffffffff0000000000000000000000000000000000000000000000000000000082167f01ffc9a700000000000000000000000000000000000000000000000000000000145b8061081757507fffffffff0000000000000000000000000000000000000000000000000000000082167ffa461e3300000000000000000000000000000000000000000000000000000000145b8061086357507fffffffff0000000000000000000000000000000000000000000000000000000082167ff434c91400000000000000000000000000000000000000000000000000000000145b806108af57507fffffffff0000000000000000000000000000000000000000000000000000000082167f4cae278700000000000000000000000000000000000000000000000000000000145b92915050565b8215610979576040517f6352211e00000000000000000000000000000000000000000000000000000000815260048101849052610974907f000000000000000000000000000000000000000000000000000000000000000073ffffffffffffffffffffffffffffffffffffffff1690636352211e90602401602060405180830381865afa158015610948573d5f803e3d5ffd5b505050506040513d601f19601f8201168201806040525081019061096c919061473c565b84601a611fad565b610981565b61098161210e565b5f61098a612160565b90505f73ffffffffffffffffffffffffffffffffffffffff841661eeee146109b257836109d4565b7f00000000000000000000000000000000000000000000000000000000000000005b905073ffffffffffffffffffffffffffffffffffffffff8083168582161090848116907f000000000000000000000000000000000000000000000000000000000000000016631698ee8283610a295785610a2b565b845b84610a365785610a38565b865b8873ffffffffffffffffffffffffffffffffffffffff1663ddca3f436040518163ffffffff1660e01b8152600401602060405180830381865afa158015610a81573d5f803e3d5ffd5b505050506040513d601f19601f82011682018060405250810190610aa59190614757565b6040517fffffffff0000000000000000000000000000000000000000000000000000000060e086901b16815273ffffffffffffffffffffffffffffffffffffffff938416600482015292909116602483015262ffffff166044820152606401602060405180830381865afa158015610b1f573d5f803e3d5ffd5b505050506040513d601f19601f82011682018060405250810190610b43919061473c565b73ffffffffffffffffffffffffffffffffffffffff1614610d1257837f000000000000000000000000000000000000000000000000000000000000000073ffffffffffffffffffffffffffffffffffffffff16631698ee8283610ba65785610ba8565b845b84610bb35785610bb5565b865b8873ffffffffffffffffffffffffffffffffffffffff1663ddca3f436040518163ffffffff1660e01b8152600401602060405180830381865afa158015610bfe573d5f803e3d5ffd5b505050506040513d601f19601f82011682018060405250810190610c229190614757565b6040517fffffffff0000000000000000000000000000000000000000000000000000000060e086901b16815273ffffffffffffffffffffffffffffffffffffffff938416600482015292909116602483015262ffffff166044820152606401602060405180830381865afa158015610c9c573d5f803e3d5ffd5b505050506040513d601f19601f82011682018060405250810190610cc0919061473c565b6040517fe2bbe4ec00000000000000000000000000000000000000000000000000000000815273ffffffffffffffffffffffffffffffffffffffff92831660048201529116602482015260440161023a565b6040517f32148f67000000000000000000000000000000000000000000000000000000008152600a600482015273ffffffffffffffffffffffffffffffffffffffff8516906332148f67906024015f604051808303815f87803b158015610d77575f80fd5b505af1158015610d89573d5f803e3d5ffd5b5050505f87815260026020908152604080832073ffffffffffffffffffffffffffffffffffffffff8781168552925290912054169050610e1f575f8681526003602090815260408220805460018101825590835291200180547fffffffffffffffffffffffff00000000000000000000000000000000000000001673ffffffffffffffffffffffffffffffffffffffff87161790555b5f86815260026020908152604080832073ffffffffffffffffffffffffffffffffffffffff86811685529083529281902080547fffffffffffffffffffffffff0000000000000000000000000000000000000000168885161790558051606081019091529187168083529082019061eeee14610f07578673ffffffffffffffffffffffffffffffffffffffff1663313ce5676040518163ffffffff1660e01b8152600401602060405180830381865afa158015610ede573d5f803e3d5ffd5b505050506040513d601f19601f82011682018060405250810190610f029190614779565b610f0a565b60125b60ff908116825263ffffffff8089166020938401525f998a52600183526040808b2073ffffffffffffffffffffffffffffffffffffffff9a8b168c528452998a9020845181549486015195909b01519091167501000000000000000000000000000000000000000000027fffffffffffffff00000000ffffffffffffffffffffffffffffffffffffffffff9490921674010000000000000000000000000000000000000000027fffffffffffffffffffffff000000000000000000000000000000000000000000909316999098169890981717169590951790935550505050565b60408051606080820183525f80835260208084018290529284018190528581526001835283812073ffffffffffffffffffffffffffffffffffffffff868116835290845290849020845192830185525490811680835274010000000000000000000000000000000000000000820460ff16938301939093527501000000000000000000000000000000000000000000900463ffffffff16928101929092526108af575073ffffffffffffffffffffffffffffffffffffffff8181165f9081527fa6eef7e35abe7026729641147f7915573c7e97b47efa546f5f6e3230263bcb49602090815260409182902082516060810184529054938416815274010000000000000000000000000000000000000000840460ff1691810191909152750100000000000000000000000000000000000000000090920463ffffffff169082015292915050565b5f82815260046020908152604080832073ffffffffffffffffffffffffffffffffffffffff8516845290915281205481908082036111af575073ffffffffffffffffffffffffffffffffffffffff83165f9081527f17ef568e3e12ab5b9c7254a8d58478811de00f9e6eb34345acd53bf8fd09d3ec60205260409020545b915050602081901c5b9250929050565b5f81815260036020908152604080832080548251818502810185019093528083526060949383018282801561122857602002820191905f5260205f20905b815473ffffffffffffffffffffffffffffffffffffffff1681526001909101906020018083116111fd575b50505f808052600360209081527f3617319a054d772f909f7c479a2cebe5066e836a939412e32403c99029b92eff805460408051828502810185019091528181529798509296955093509091508301828280156112b957602002820191905f5260205f20905b815473ffffffffffffffffffffffffffffffffffffffff16815260019091019060200180831161128e575b5050855184519495509392506112d39150829050836147c1565b67ffffffffffffffff8111156112eb576112eb61442c565b60405190808252806020026020018201604052801561135357816020015b604080516060810182525f80825260208083018290529282015282527fffffffffffffffffffffffffffffffffffffffffffffffffffffffffffffffff9092019101816113095790505b5094505f5b828110156114345760015f8881526020019081526020015f205f868381518110611384576113846147d4565b60209081029190910181015173ffffffffffffffffffffffffffffffffffffffff90811683528282019390935260409182015f2082516060810184529054938416815274010000000000000000000000000000000000000000840460ff1691810191909152750100000000000000000000000000000000000000000090920463ffffffff16908201528651879083908110611421576114216147d4565b6020908102919091010152600101611358565b50815f5b828110156115c2575f805b858110156114c15786838151811061145d5761145d6147d4565b602002602001015173ffffffffffffffffffffffffffffffffffffffff1688828151811061148d5761148d6147d4565b602002602001015173ffffffffffffffffffffffffffffffffffffffff16036114b957600191506114c1565b600101611443565b50806115b9575f808052600160205286517fa6eef7e35abe7026729641147f7915573c7e97b47efa546f5f6e3230263bcb499190889085908110611507576115076147d4565b60209081029190910181015173ffffffffffffffffffffffffffffffffffffffff90811683528282019390935260409182015f2082516060810184529054938416815274010000000000000000000000000000000000000000840460ff1691810191909152750100000000000000000000000000000000000000000090920463ffffffff1690820152888461159b81614801565b9550815181106115ad576115ad6147d4565b60200260200101819052505b50600101611438565b5085518110156115d0578086525b5050505050919050565b6115e261210e565b6115eb5f6121d0565b565b5f82815260026020908152604080832073ffffffffffffffffffffffffffffffffffffffff8086168552925282205416908161166c5773ffffffffffffffffffffffffffffffffffffffff8084165f9081527fac33ff75c19e70fe83507db0d683fd3465c996598dc972688b7ace676c89077b60205260409020541691505b611674612160565b73ffffffffffffffffffffffffffffffffffffffff168373ffffffffffffffffffffffffffffffffffffffff161090509250929050565b6040517f862026500000000000000000000000000000000000000000000000000000000081526004810189905273ffffffffffffffffffffffffffffffffffffffff7f0000000000000000000000000000000000000000000000000000000000000000811660248301525f917f000000000000000000000000000000000000000000000000000000000000000090911690638620265090604401602060405180830381865afa158015611760573d5f803e3d5ffd5b505050506040513d601f19601f82011682018060405250810190611784919061473c565b905073ffffffffffffffffffffffffffffffffffffffff8116611812576040517fcf78a6fc000000000000000000000000000000000000000000000000000000008152600481018a905273ffffffffffffffffffffffffffffffffffffffff7f000000000000000000000000000000000000000000000000000000000000000016602482015260440161023a565b5f61182b8a8a6118248c8c8989612244565b87876125ac565b90505f611859837f00000000000000000000000000000000000000000000000000000000000000008461286b565b90508273ffffffffffffffffffffffffffffffffffffffff16639e6eec05828d7f0000000000000000000000000000000000000000000000000000000000000000868d8d8d8d8d6040518a63ffffffff1660e01b81526004016118c398979695949392919061487f565b5f604051808303818588803b1580156118da575f80fd5b505af11580156118ec573d5f803e3d5ffd5b50505050505050505050505050505050565b83156119c2576040517f6352211e000000000000000000000000000000000000000000000000000000008152600481018590526119bd907f000000000000000000000000000000000000000000000000000000000000000073ffffffffffffffffffffffffffffffffffffffff1690636352211e90602401602060405180830381865afa158015611991573d5f803e3d5ffd5b505050506040513d601f19601f820116820180604052508101906119b5919061473c565b85601b611fad565b6119ca565b6119ca61210e565b60788210806119db57506202a30082115b15611a25576040517f9442583100000000000000000000000000000000000000000000000000000000815260048101839052607860248201526202a300604482015260640161023a565b6064811080611a35575061232881115b15611a7e576040517f1f463fad0000000000000000000000000000000000000000000000000000000081526004810182905260646024820181905261232860448301520161023a565b5f93845260046020908152604080862073ffffffffffffffffffffffffffffffffffffffff9095168652938152929093209290911b179055565b611ac061210e565b73ffffffffffffffffffffffffffffffffffffffff8116611b0f576040517f1e4fbdf70000000000000000000000000000000000000000000000000000000081525f600482015260240161023a565b611b18816121d0565b50565b5f80611b2983850185614201565b90925090505f73ffffffffffffffffffffffffffffffffffffffff821661eeee14611b545781611b76565b7f00000000000000000000000000000000000000000000000000000000000000005b5f84815260026020908152604080832073ffffffffffffffffffffffffffffffffffffffff80861685529252909120549192501680611bf7575073ffffffffffffffffffffffffffffffffffffffff8082165f9081527fac33ff75c19e70fe83507db0d683fd3465c996598dc972688b7ace676c89077b6020526040902054165b3373ffffffffffffffffffffffffffffffffffffffff821614611c48576040517fbca42a5400000000000000000000000000000000000000000000000000000000815233600482015260240161023a565b5f808912611c565788611c58565b875b90507fffffffffffffffffffffffffffffffffffffffffffffffffffffffffffff111273ffffffffffffffffffffffffffffffffffffffff851601611d15577f000000000000000000000000000000000000000000000000000000000000000073ffffffffffffffffffffffffffffffffffffffff1663d0e30db0826040518263ffffffff1660e01b81526004015f604051808303818588803b158015611cfd575f80fd5b505af1158015611d0f573d5f803e3d5ffd5b50505050505b611d3673ffffffffffffffffffffffffffffffffffffffff841633836128c4565b505050505050505050565b6040517f86202650000000000000000000000000000000000000000000000000000000008152600481018a905273ffffffffffffffffffffffffffffffffffffffff7f0000000000000000000000000000000000000000000000000000000000000000811660248301525f9182917f00000000000000000000000000000000000000000000000000000000000000001690638620265090604401602060405180830381865afa158015611df6573d5f803e3d5ffd5b505050506040513d601f19601f82011682018060405250810190611e1a919061473c565b905073ffffffffffffffffffffffffffffffffffffffff8116611ea8576040517fcf78a6fc000000000000000000000000000000000000000000000000000000008152600481018c905273ffffffffffffffffffffffffffffffffffffffff7f000000000000000000000000000000000000000000000000000000000000000016602482015260440161023a565b5f611ec18c8c611eba8e8e8a8a612244565b88886125ac565b90505f611eef837f00000000000000000000000000000000000000000000000000000000000000008461286b565b90508273ffffffffffffffffffffffffffffffffffffffff1663fef43257828f7f0000000000000000000000000000000000000000000000000000000000000000868f8f8f8f8f8f6040518b63ffffffff1660e01b8152600401611f5b999897969594939291906148e4565b60206040518083038185885af1158015611f77573d5f803e3d5ffd5b50505050506040513d601f19601f82011682018060405250810190611f9c9190614952565b9d9c50505050505050505050505050565b3373ffffffffffffffffffffffffffffffffffffffff841681148015906120a357506040517f348b684e00000000000000000000000000000000000000000000000000000000815273ffffffffffffffffffffffffffffffffffffffff82811660048301528581166024830152604482018590526064820184905260016084830181905260a48301527f0000000000000000000000000000000000000000000000000000000000000000169063348b684e9060c401602060405180830381865afa15801561207d573d5f803e3d5ffd5b505050506040513d601f19601f820116820180604052508101906120a19190614969565b155b15612108576040517f264deeaa00000000000000000000000000000000000000000000000000000000815273ffffffffffffffffffffffffffffffffffffffff808616600483015282166024820152604481018490526064810183905260840161023a565b50505050565b5f5473ffffffffffffffffffffffffffffffffffffffff1633146115eb576040517f118cdaa700000000000000000000000000000000000000000000000000000000815233600482015260240161023a565b5f7f00000000000000000000000000000000000000000000000000000000000000006121ab57507f000000000000000000000000000000000000000000000000000000000000000090565b507f000000000000000000000000000000000000000000000000000000000000000090565b5f805473ffffffffffffffffffffffffffffffffffffffff8381167fffffffffffffffffffffffff0000000000000000000000000000000000000000831681178455604051919092169283917f8be0079c531659141344cd1fd0a4f28419497f9722a3daafe3b4186f6b6457e09190a35050565b5f7fffffffffffffffffffffffffffffffffffffffffffffffffffffffffffff111273ffffffffffffffffffffffffffffffffffffffff8616016122895750346125a4565b34156122c3576040517f15f828f800000000000000000000000000000000000000000000000000000000815234600482015260240161023a565b5f806123416123066040518060400160405280600781526020017f7065726d69743200000000000000000000000000000000000000000000000000815250612945565b86868080601f0160208091040260200160405190810160405280939291908181526020018383808284375f9201919091525061295892505050565b915091508115612507575f8180602001905181019061236091906149c0565b9050806020015173ffffffffffffffffffffffffffffffffffffffff168711156123db5760208101516040517f6efd58f80000000000000000000000000000000000000000000000000000000081526004810189905273ffffffffffffffffffffffffffffffffffffffff909116602482015260440161023a565b5f604051806060016040528060405180608001604052808c73ffffffffffffffffffffffffffffffffffffffff168152602001856020015173ffffffffffffffffffffffffffffffffffffffff168152602001856040015165ffffffffffff168152602001856060015165ffffffffffff1681525081526020013073ffffffffffffffffffffffffffffffffffffffff168152602001835f015181525090507f000000000000000000000000000000000000000000000000000000000000000073ffffffffffffffffffffffffffffffffffffffff16632b67b570338385608001516040518463ffffffff1660e01b81526004016124db93929190614b20565b5f604051808303815f87803b1580156124f2575f80fd5b505af1925050508015612503575060015b5050505b61251333308989612b3f565b6040517f70a0823100000000000000000000000000000000000000000000000000000000815230600482015273ffffffffffffffffffffffffffffffffffffffff8816906370a0823190602401602060405180830381865afa15801561257b573d5f803e3d5ffd5b505050506040513d601f19601f8201168201806040525081019061259f9190614952565b925050505b949350505050565b5f8073ffffffffffffffffffffffffffffffffffffffff861661eeee146125d357856125f5565b7f00000000000000000000000000000000000000000000000000000000000000005b90505f612600612160565b905073ffffffffffffffffffffffffffffffffffffffff871661eeee14801561264657507f00000000000000000000000000000000000000000000000000000000000000005b8061267c57508073ffffffffffffffffffffffffffffffffffffffff168273ffffffffffffffffffffffffffffffffffffffff16145b1561268b578592505050612862565b5f8061269b87878c878c88612d41565b915091505f6126dc8a8a858773ffffffffffffffffffffffffffffffffffffffff168973ffffffffffffffffffffffffffffffffffffffff16108f87612fdd565b6040517f70a082310000000000000000000000000000000000000000000000000000000081523060048201529091505f9073ffffffffffffffffffffffffffffffffffffffff8716906370a0823190602401602060405180830381865afa158015612749573d5f803e3d5ffd5b505050506040513d601f19601f8201168201806040525081019061276d9190614952565b9050801561285a577fffffffffffffffffffffffffffffffffffffffffffffffffffffffffffff111273ffffffffffffffffffffffffffffffffffffffff8c160161284e576040517f2e1a7d4d000000000000000000000000000000000000000000000000000000008152600481018290527f000000000000000000000000000000000000000000000000000000000000000073ffffffffffffffffffffffffffffffffffffffff1690632e1a7d4d906024015f604051808303815f87803b158015612837575f80fd5b505af1158015612849573d5f803e3d5ffd5b505050505b61285a30338d84612b3f565b509450505050505b95945050505050565b5f7f0000000000000000000000000000000000000000000000000000000000000000156128995750806128bd565b6128ba73ffffffffffffffffffffffffffffffffffffffff84168584613206565b505f5b9392505050565b60405173ffffffffffffffffffffffffffffffffffffffff83811660248301526044820183905261033091859182169063a9059cbb906064015b604051602081830303815290604052915060e01b6020820180517bffffffffffffffffffffffffffffffffffffffffffffffffffffffff83818316178352505050506132b3565b805160208201205f903060601b186108af565b5f6060602583511161297b57505060408051602081019091525f808252906111b8565b5f83612989600460206147c1565b81518110612999576129996147d4565b0160209081015160f81c91505b5f856129b36004846147c1565b815181106129c3576129c36147d4565b01602001517fff000000000000000000000000000000000000000000000000000000000000001614801590612a0157506129fe602083614ba1565b81105b15612b36575f85612a136004846147c1565b81518110612a2357612a236147d4565b016020908101518784019091015160f89190911c91507fffffffff0000000000000000000000000000000000000000000000000000000080891690821603612b2c575f612a71602086614ba1565b612a7c6009866147c1565b101580612ac9575087612a906009866147c1565b81518110612aa057612aa06147d4565b01602001517fff0000000000000000000000000000000000000000000000000000000000000016155b612b0257602088612adb6009876147c1565b81518110612aeb57612aeb6147d4565b0160200151612afd919060f81c614ba1565b612b05565b87515b90506001612b1e89612b18602087614ba1565b84613352565b9650965050505050506111b8565b50506005016129a6565b50509250929050565b3073ffffffffffffffffffffffffffffffffffffffff851603612bc9577fffffffffffffffffffffffffffffffffffffffffffffffffffffffffffff111273ffffffffffffffffffffffffffffffffffffffff831601612ba857612ba38382613397565b612108565b612ba373ffffffffffffffffffffffffffffffffffffffff831684836128c4565b6040517fdd62ed3e00000000000000000000000000000000000000000000000000000000815273ffffffffffffffffffffffffffffffffffffffff858116600483015230602483015282919084169063dd62ed3e90604401602060405180830381865afa158015612c3c573d5f803e3d5ffd5b505050506040513d601f19601f82011682018060405250810190612c609190614952565b10612c8757612ba373ffffffffffffffffffffffffffffffffffffffff8316858584613449565b6040517f36c7851600000000000000000000000000000000000000000000000000000000815273ffffffffffffffffffffffffffffffffffffffff85811660048301528481166024830152828116604483015283811660648301527f000000000000000000000000000000000000000000000000000000000000000016906336c78516906084015f604051808303815f87803b158015612d25575f80fd5b505af1158015612d37573d5f803e3d5ffd5b5050505050505050565b5f84815260026020908152604080832073ffffffffffffffffffffffffffffffffffffffff808816855292528220541680612e13575073ffffffffffffffffffffffffffffffffffffffff8085165f9081527fac33ff75c19e70fe83507db0d683fd3465c996598dc972688b7ace676c89077b60205260409020541680612e13576040517f891773860000000000000000000000000000000000000000000000000000000081526004810187905273ffffffffffffffffffffffffffffffffffffffff8616602482015260440161023a565b5f80612e91612e566040518060400160405280600c81526020017f71756f7465466f72537761700000000000000000000000000000000000000000815250612945565b8b8b8080601f0160208091040260200160405190810160405280939291908181526020018383808284375f9201919091525061295892505050565b915091508115612eb65780806020019051810190612eaf9190614952565b9350612fd0565b5f80612ec28a86611131565b915091505f612ed08661348f565b90508263ffffffff168163ffffffff161015612eea578092505b5f8163ffffffff165f03612f76575f8773ffffffffffffffffffffffffffffffffffffffff16633850c7bd6040518163ffffffff1660e01b815260040160e060405180830381865afa158015612f42573d5f803e3d5ffd5b505050506040513d601f19601f82011682018060405250810190612f669190614bc9565b50939650612f8495505050505050565b612f8087856136cb565b5090505b612f90818b8d8c61397f565b9750612710612fb573ffffffffffffffffffffffffffffffffffffffff85168a614ba1565b612fbf9190614c89565b612fc99089614c9c565b9750505050505b5050965096945050505050565b5f805f8373ffffffffffffffffffffffffffffffffffffffff1663128acb0830888b8a61302857613023600173fffd8963efd1fc6a506488495d951d5263988d26614caf565b613038565b6130386401000276a36001614ce3565b8a8f60405160200161306a92919091825273ffffffffffffffffffffffffffffffffffffffff16602082015260400190565b6040516020818303038152906040526040518663ffffffff1660e01b8152600401613099959493929190614d10565b60408051808303815f875af11580156130b4573d5f803e3d5ffd5b505050506040513d601f19601f820116820180604052508101906130d89190614d61565b91509150856130e757816130e9565b805b6130f290614d83565b925086831015613138576040517f371d1b7a000000000000000000000000000000000000000000000000000000008152600481018490526024810188905260440161023a565b7f0000000000000000000000000000000000000000000000000000000000000000156131fa576040517f2e1a7d4d000000000000000000000000000000000000000000000000000000008152600481018490527f000000000000000000000000000000000000000000000000000000000000000073ffffffffffffffffffffffffffffffffffffffff1690632e1a7d4d906024015f604051808303815f87803b1580156131e3575f80fd5b505af11580156131f5573d5f803e3d5ffd5b505050505b50509695505050505050565b6040517fdd62ed3e00000000000000000000000000000000000000000000000000000000815230600482015273ffffffffffffffffffffffffffffffffffffffff83811660248301525f919085169063dd62ed3e90604401602060405180830381865afa158015613279573d5f803e3d5ffd5b505050506040513d601f19601f8201168201806040525081019061329d9190614952565b905061210884846132ae85856147c1565b613b52565b5f8060205f8451602086015f885af1806132d2576040513d5f823e3d81fd5b50505f513d915081156132e9578060011415613303565b73ffffffffffffffffffffffffffffffffffffffff84163b155b15612108576040517f5274afe700000000000000000000000000000000000000000000000000000000815273ffffffffffffffffffffffffffffffffffffffff8516600482015260240161023a565b6060828203604051915060208183010160405280825250826020850101602082015f5b8481101561338d578281015182820152602001613375565b5050509392505050565b804710156133da576040517fcf4791810000000000000000000000000000000000000000000000000000000081524760048201526024810182905260440161023a565b5f808373ffffffffffffffffffffffffffffffffffffffff16836040515f6040518083038185875af1925050503d805f8114613431576040519150601f19603f3d011682016040523d82523d5f602084013e613436565b606091505b5091509150816121085761210881613c29565b60405173ffffffffffffffffffffffffffffffffffffffff84811660248301528381166044830152606482018390526121089186918216906323b872dd906084016128fe565b5f805f8373ffffffffffffffffffffffffffffffffffffffff16633850c7bd6040518163ffffffff1660e01b815260040160e060405180830381865afa1580156134db573d5f803e3d5ffd5b505050506040513d601f19601f820116820180604052508101906134ff9190614bc9565b5050509350935050505f8161ffff1611613575576040517f08c379a000000000000000000000000000000000000000000000000000000000815260206004820152600260248201527f4e49000000000000000000000000000000000000000000000000000000000000604482015260640161023a565b5f8073ffffffffffffffffffffffffffffffffffffffff861663252c09d78461359f876001614db9565b6135a99190614dd4565b6040517fffffffff0000000000000000000000000000000000000000000000000000000060e084901b16815261ffff9091166004820152602401608060405180830381865afa1580156135fe573d5f803e3d5ffd5b505050506040513d601f19601f820116820180604052508101906136229190614e05565b935050509150806136c0576040517f252c09d70000000000000000000000000000000000000000000000000000000081525f600482015273ffffffffffffffffffffffffffffffffffffffff87169063252c09d790602401608060405180830381865afa158015613695573d5f803e3d5ffd5b505050506040513d601f19601f820116820180604052508101906136b99190614e05565b5091935050505b504203949350505050565b5f808263ffffffff165f0361373c576040517f08c379a000000000000000000000000000000000000000000000000000000000815260206004820152600260248201527f4250000000000000000000000000000000000000000000000000000000000000604482015260640161023a565b6040805160028082526060820183525f9260208301908036833701905050905083815f8151811061376f5761376f6147d4565b602002602001019063ffffffff16908163ffffffff16815250505f8160018151811061379d5761379d6147d4565b602002602001019063ffffffff16908163ffffffff16815250505f808673ffffffffffffffffffffffffffffffffffffffff1663883bdbfd846040518263ffffffff1660e01b81526004016137f29190614e5d565b5f60405180830381865afa15801561380c573d5f803e3d5ffd5b505050506040513d5f823e601f3d9081017fffffffffffffffffffffffffffffffffffffffffffffffffffffffffffffffe01682016040526138519190810190614f0a565b915091505f825f81518110613868576138686147d4565b602002602001015183600181518110613883576138836147d4565b60200260200101516138959190614fc7565b90505f825f815181106138aa576138aa6147d4565b6020026020010151836001815181106138c5576138c56147d4565b60200260200101516138d79190614caf565b90506138e963ffffffff89168361500c565b96505f8260060b12801561390e575061390863ffffffff89168361507f565b60060b15155b15613921578661391d816150a0565b9750505b5f61394673ffffffffffffffffffffffffffffffffffffffff63ffffffff8b166150fc565b905061397077ffffffffffffffffffffffffffffffffffffffff00000000602084901b168261513f565b96505050505050509250929050565b5f8061398a86613c6b565b90506fffffffffffffffffffffffffffffffff73ffffffffffffffffffffffffffffffffffffffff821611613a88575f6139da73ffffffffffffffffffffffffffffffffffffffff831680614ba1565b90508373ffffffffffffffffffffffffffffffffffffffff168573ffffffffffffffffffffffffffffffffffffffff1610613a4a57613a457801000000000000000000000000000000000000000000000000876fffffffffffffffffffffffffffffffff1683613fcb565b613a80565b613a8081876fffffffffffffffffffffffffffffffff167801000000000000000000000000000000000000000000000000613fcb565b925050613b49565b5f613ab373ffffffffffffffffffffffffffffffffffffffff83168068010000000000000000613fcb565b90508373ffffffffffffffffffffffffffffffffffffffff168573ffffffffffffffffffffffffffffffffffffffff1610613b1b57613b16700100000000000000000000000000000000876fffffffffffffffffffffffffffffffff1683613fcb565b61259f565b61259f81876fffffffffffffffffffffffffffffffff16700100000000000000000000000000000000613fcb565b50949350505050565b6040805173ffffffffffffffffffffffffffffffffffffffff8416602482015260448082018490528251808303909101815260649091019091526020810180517bffffffffffffffffffffffffffffffffffffffffffffffffffffffff167f095ea7b300000000000000000000000000000000000000000000000000000000179052613bde8482614094565b6121085760405173ffffffffffffffffffffffffffffffffffffffff84811660248301525f6044830152613c1f91869182169063095ea7b3906064016128fe565b61210884826132b3565b805115613c395780518082602001fd5b6040517fd6bda27500000000000000000000000000000000000000000000000000000000815260040160405180910390fd5b5f805f8360020b12613c80578260020b613c87565b8260020b5f035b9050620d89e8811115613cc6576040517f2bc80f3a00000000000000000000000000000000000000000000000000000000815260040160405180910390fd5b5f816001165f03613ce857700100000000000000000000000000000000613cfa565b6ffffcb933bd6fad37aa2d162d1a5940015b70ffffffffffffffffffffffffffffffffff1690506002821615613d2e576ffff97272373d413259a46990580e213a0260801c5b6004821615613d4d576ffff2e50f5f656932ef12357cf3c7fdcc0260801c5b6008821615613d6c576fffe5caca7e10e4e61c3624eaa0941cd00260801c5b6010821615613d8b576fffcb9843d60f6159c9db58835c9266440260801c5b6020821615613daa576fff973b41fa98c081472e6896dfb254c00260801c5b6040821615613dc9576fff2ea16466c96a3843ec78b326b528610260801c5b6080821615613de8576ffe5dee046a99a2a811c461f1969c30530260801c5b610100821615613e08576ffcbe86c7900a88aedcffc83b479aa3a40260801c5b610200821615613e28576ff987a7253ac413176f2b074cf7815e540260801c5b610400821615613e48576ff3392b0822b70005940c7a398e4b70f30260801c5b610800821615613e68576fe7159475a2c29b7443b29c7fa6e889d90260801c5b611000821615613e88576fd097f3bdfd2022b8845ad8f792aa58250260801c5b612000821615613ea8576fa9f746462d870fdf8a65dc1f90e061e50260801c5b614000821615613ec8576f70d869a156d2a1b890bb3df62baf32f70260801c5b618000821615613ee8576f31be135f97d08fd981231505542fcfa60260801c5b62010000821615613f09576f09aa508b5b7a84e1c677de54f3e99bc90260801c5b62020000821615613f29576e5d6af8dedb81196699c329225ee6040260801c5b62040000821615613f48576d2216e584f5fa1ea926041bedfe980260801c5b62080000821615613f65576b048a170391f7dc42444e8fa20260801c5b5f8460020b1315613fa357807fffffffffffffffffffffffffffffffffffffffffffffffffffffffffffffffff81613f9f57613f9f614c5c565b0490505b640100000000810615613fb7576001613fb9565b5f5b60ff16602082901c0192505050919050565b5f80807fffffffffffffffffffffffffffffffffffffffffffffffffffffffffffffffff858709858702925082811083820303915050805f0361401e575f8411614013575f80fd5b5082900490506128bd565b808411614029575f80fd5b5f848688095f868103871696879004966002600389028118808a02820302808a02820302808a02820302808a02820302808a02820302808a02909103029181900381900460010186841190950394909402919094039290920491909117919091029150509392505050565b5f805f8060205f8651602088015f8a5af192503d91505f5190508280156140e0575081156140c557806001146140e0565b5f8673ffffffffffffffffffffffffffffffffffffffff163b115b9695505050505050565b5f602082840312156140fa575f80fd5b81357fffffffff00000000000000000000000000000000000000000000000000000000811681146128bd575f80fd5b73ffffffffffffffffffffffffffffffffffffffff81168114611b18575f80fd5b5f805f6060848603121561415c575f80fd5b83359250602084013561416e81614129565b9150604084013561417e81614129565b809150509250925092565b5f805f6040848603121561419b575f80fd5b83359250602084013567ffffffffffffffff808211156141b9575f80fd5b818601915086601f8301126141cc575f80fd5b8135818111156141da575f80fd5b8760206060830285010111156141ee575f80fd5b6020830194508093505050509250925092565b5f8060408385031215614212575f80fd5b82359150602083013561422481614129565b809150509250929050565b815173ffffffffffffffffffffffffffffffffffffffff16815260208083015160ff169082015260408083015163ffffffff1690820152606081016108af565b5f6020828403121561427f575f80fd5b5035919050565b602080825282518282018190525f9190848201906040850190845b818110156142fa576142e7838551805173ffffffffffffffffffffffffffffffffffffffff16825260208082015160ff169083015260409081015163ffffffff16910152565b92840192606092909201916001016142a1565b50909695505050505050565b8015158114611b18575f80fd5b5f8083601f840112614323575f80fd5b50813567ffffffffffffffff81111561433a575f80fd5b6020830191508360208285010111156111b8575f80fd5b5f805f805f805f8060c0898b031215614368575f80fd5b88359750602089013561437a81614129565b965060408901359550606089013561439181614306565b9450608089013567ffffffffffffffff808211156143ad575f80fd5b6143b98c838d01614313565b909650945060a08b01359150808211156143d1575f80fd5b506143de8b828c01614313565b999c989b5096995094979396929594505050565b5f805f8060808587031215614405575f80fd5b84359350602085013561441781614129565b93969395505050506040820135916060013590565b7f4e487b71000000000000000000000000000000000000000000000000000000005f52604160045260245ffd5b6040516060810167ffffffffffffffff8111828210171561447c5761447c61442c565b60405290565b60405160a0810167ffffffffffffffff8111828210171561447c5761447c61442c565b604051601f82017fffffffffffffffffffffffffffffffffffffffffffffffffffffffffffffffe016810167ffffffffffffffff811182821017156144ec576144ec61442c565b604052919050565b5f67ffffffffffffffff82111561450d5761450d61442c565b5060051b60200190565b60ff81168114611b18575f80fd5b63ffffffff81168114611b18575f80fd5b5f805f8060808587031215614549575f80fd5b8435935060208086013567ffffffffffffffff811115614567575f80fd5b8601601f81018813614577575f80fd5b803561458a614585826144f4565b6144a5565b8181526060918202830184019184820191908b8411156145a8575f80fd5b938501935b8385101561460b5780858d0312156145c3575f80fd5b6145cb614459565b85356145d681614129565b8152858701356145e581614517565b818801526040868101356145f881614525565b90820152835293840193918501916145ad565b50979a97995050505060408601359560600135949350505050565b5f60208284031215614636575f80fd5b81356128bd81614129565b5f805f8060608587031215614654575f80fd5b8435935060208501359250604085013567ffffffffffffffff811115614678575f80fd5b61468487828801614313565b95989497509550505050565b5f805f805f805f805f60e08a8c0312156146a8575f80fd5b8935985060208a01356146ba81614129565b975060408a0135965060608a01356146d181614129565b955060808a0135945060a08a013567ffffffffffffffff808211156146f4575f80fd5b6147008d838e01614313565b909650945060c08c0135915080821115614718575f80fd5b506147258c828d01614313565b915080935050809150509295985092959850929598565b5f6020828403121561474c575f80fd5b81516128bd81614129565b5f60208284031215614767575f80fd5b815162ffffff811681146128bd575f80fd5b5f60208284031215614789575f80fd5b81516128bd81614517565b7f4e487b71000000000000000000000000000000000000000000000000000000005f52601160045260245ffd5b808201808211156108af576108af614794565b7f4e487b71000000000000000000000000000000000000000000000000000000005f52603260045260245ffd5b5f7fffffffffffffffffffffffffffffffffffffffffffffffffffffffffffffffff820361483157614831614794565b5060010190565b81835281816020850137505f602082840101525f60207fffffffffffffffffffffffffffffffffffffffffffffffffffffffffffffffe0601f840116840101905092915050565b88815273ffffffffffffffffffffffffffffffffffffffff88166020820152866040820152851515606082015260c060808201525f6148c260c083018688614838565b82810360a08401526148d5818587614838565b9b9a5050505050505050505050565b8981525f73ffffffffffffffffffffffffffffffffffffffff808b16602084015289604084015280891660608401525086608083015260e060a083015261492f60e083018688614838565b82810360c0840152614942818587614838565b9c9b505050505050505050505050565b5f60208284031215614962575f80fd5b5051919050565b5f60208284031215614979575f80fd5b81516128bd81614306565b805165ffffffffffff81168114614999575f80fd5b919050565b5f5b838110156149b85781810151838201526020016149a0565b50505f910152565b5f60208083850312156149d1575f80fd5b825167ffffffffffffffff808211156149e8575f80fd5b9084019060a082870312156149fb575f80fd5b614a03614482565b8251815283830151614a1481614129565b81850152614a2460408401614984565b6040820152614a3560608401614984565b6060820152608083015182811115614a4b575f80fd5b80840193505086601f840112614a5f575f80fd5b825182811115614a7157614a7161442c565b614aa1857fffffffffffffffffffffffffffffffffffffffffffffffffffffffffffffffe0601f840116016144a5565b92508083528785828601011115614ab6575f80fd5b614ac58186850187870161499e565b50608081019190915295945050505050565b5f8151808452614aee81602086016020860161499e565b601f017fffffffffffffffffffffffffffffffffffffffffffffffffffffffffffffffe0169290920160200192915050565b5f61010073ffffffffffffffffffffffffffffffffffffffff80871684528551818151166020860152816020820151166040860152604081015165ffffffffffff80821660608801528060608401511660808801525050508060208701511660a085015250604085015160c08401528060e08401526140e081840185614ad7565b80820281158282048414176108af576108af614794565b805161ffff81168114614999575f80fd5b5f805f805f805f60e0888a031215614bdf575f80fd5b8751614bea81614129565b8097505060208801518060020b8114614c01575f80fd5b9550614c0f60408901614bb8565b9450614c1d60608901614bb8565b9350614c2b60808901614bb8565b925060a0880151614c3b81614517565b60c0890151909250614c4c81614306565b8091505092959891949750929550565b7f4e487b71000000000000000000000000000000000000000000000000000000005f52601260045260245ffd5b5f82614c9757614c97614c5c565b500490565b818103818111156108af576108af614794565b73ffffffffffffffffffffffffffffffffffffffff828116828216039080821115614cdc57614cdc614794565b5092915050565b73ffffffffffffffffffffffffffffffffffffffff818116838216019080821115614cdc57614cdc614794565b5f73ffffffffffffffffffffffffffffffffffffffff8088168352861515602084015285604084015280851660608401525060a06080830152614d5660a0830184614ad7565b979650505050505050565b5f8060408385031215614d72575f80fd5b505080516020909101519092909150565b5f7f80000000000000000000000000000000000000000000000000000000000000008203614db357614db3614794565b505f0390565b61ffff818116838216019080821115614cdc57614cdc614794565b5f61ffff80841680614de857614de8614c5c565b92169190910692915050565b8051600681900b8114614999575f80fd5b5f805f8060808587031215614e18575f80fd5b8451614e2381614525565b9350614e3160208601614df4565b92506040850151614e4181614129565b6060860151909250614e5281614306565b939692955090935050565b602080825282518282018190525f9190848201906040850190845b818110156142fa57835163ffffffff1683529284019291840191600101614e78565b5f82601f830112614ea9575f80fd5b81516020614eb9614585836144f4565b8083825260208201915060208460051b870101935086841115614eda575f80fd5b602086015b84811015614eff578051614ef281614129565b8352918301918301614edf565b509695505050505050565b5f8060408385031215614f1b575f80fd5b825167ffffffffffffffff80821115614f32575f80fd5b818501915085601f830112614f45575f80fd5b81516020614f55614585836144f4565b82815260059290921b84018101918181019089841115614f73575f80fd5b948201945b83861015614f9857614f8986614df4565b82529482019490820190614f78565b91880151919650909350505080821115614fb0575f80fd5b50614fbd85828601614e9a565b9150509250929050565b600682810b9082900b037fffffffffffffffffffffffffffffffffffffffffffffffffff800000000000008112667fffffffffffff821317156108af576108af614794565b5f8160060b8360060b8061502257615022614c5c565b7fffffffffffffffffffffffffffffffffffffffffffffffffffffffffffffffff81147fffffffffffffffffffffffffffffffffffffffffffffffffff800000000000008314161561507657615076614794565b90059392505050565b5f8260060b8061509157615091614c5c565b808360060b0791505092915050565b5f8160020b7fffffffffffffffffffffffffffffffffffffffffffffffffffffffffff80000081036150d4576150d4614794565b7fffffffffffffffffffffffffffffffffffffffffffffffffffffffffffffffff0192915050565b77ffffffffffffffffffffffffffffffffffffffffffffffff82811682821681810283169291811582850482141761513657615136614794565b50505092915050565b5f77ffffffffffffffffffffffffffffffffffffffffffffffff8084168061516957615169614c5c565b9216919091049291505056fea26469706673582212205a9426edfb038652a3b3b6108f7943aa27596462182dc32689cc805ee57aeeac64736f6c63430008170033",
	"deployedBytecode": "0x6080604052600436106101c8575f3560e01c80637c5e9c24116100f2578063b88a92b411610092578063f2fde38b11610062578063f2fde38b14610669578063f434c91414610688578063fa461e33146106bb578063fef43257146106da575f80fd5b8063b88a92b4146105ef578063be6963f214610605578063e28b541114610624578063edb4095014610646575f80fd5b80639e6eec05116100cd5780639e6eec0514610580578063ac90511414610593578063ad5c4648146105a8578063af471880146105db575f80fd5b80637c5e9c24146104d957806388bc2ef3146105245780638da5cb5b14610557575f80fd5b80632dd3100011610168578063515a929311610138578063515a9293146104515780636afdd8501461047d578063715018a6146104b0578063754baf96146104c4575f80fd5b80632dd310001461037b5780632e4c3cbf146103ae5780633a01714f146103d557806340873cb514610401575f80fd5b806324e26dc5116101a357806324e26dc5146102f7578063253721c814610316578063293c4999146103355780632c1ae88214610368575f80fd5b806301ffc9a7146102495780630392ef941461027d5780631a65893b146102d5575f80fd5b36610245573373ffffffffffffffffffffffffffffffffffffffff7f0000000000000000000000007b79995e5f793a07bc00c21412e50ecae098e7f91614610243576040517fb320fe970000000000000000000000000000000000000000000000000000000081523360048201526024015b60405180910390fd5b005b5f80fd5b348015610254575f80fd5b506102686102633660046140ea565b6106ed565b60405190151581526020015b60405180910390f35b348015610288575f80fd5b506102b07f0000000000000000000000001c7d4b196cb0c7b01d743fbc6116a902379c723881565b60405173ffffffffffffffffffffffffffffffffffffffff9091168152602001610274565b3480156102e0575f80fd5b506102e9607881565b604051908152602001610274565b348015610302575f80fd5b5061024361031136600461414a565b6108b5565b348015610321575f80fd5b50610243610330366004614189565b505050565b348015610340575f80fd5b506102b07f0000000000000000000000000b538a02610d7d3cc91ce2870f423e0a34d646ad81565b348015610373575f80fd5b506102e95f81565b348015610386575f80fd5b506102b07f0000000000000000000000000227628f3f023bb0b980b67d528571c95c6dac1c81565b3480156103b9575f80fd5b506103c2600a81565b60405161ffff9091168152602001610274565b3480156103e0575f80fd5b506103f46103ef366004614201565b610feb565b604051610274919061422f565b34801561040c575f80fd5b5061042061041b366004614201565b611131565b6040805163ffffffff909316835273ffffffffffffffffffffffffffffffffffffffff909116602083015201610274565b34801561045c575f80fd5b5061047061046b36600461426f565b6111bf565b6040516102749190614286565b348015610488575f80fd5b506102b07f000000000000000000000000000000000022d473030f116ddee9f6b43ac78ba381565b3480156104bb575f80fd5b506102436115da565b3480156104cf575f80fd5b506102e961232881565b3480156104e4575f80fd5b506104f86104f3366004614201565b6115ed565b6040805173ffffffffffffffffffffffffffffffffffffffff9093168352901515602083015201610274565b34801561052f575f80fd5b506102b07f0000000000000000000000000bc9f153dee4d3d474ce0903775b9b2aaae9aa4181565b348015610562575f80fd5b505f5473ffffffffffffffffffffffffffffffffffffffff166102b0565b61024361058e366004614351565b6116ab565b34801561059e575f80fd5b506102b061271081565b3480156105b3575f80fd5b506102b07f0000000000000000000000007b79995e5f793a07bc00c21412e50ecae098e7f981565b3480156105e6575f80fd5b506102e9606481565b3480156105fa575f80fd5b506102e96202a30081565b348015610610575f80fd5b5061024361061f3660046143f2565b6118fe565b34801561062f575f80fd5b506102e961063e36600461414a565b5f9392505050565b348015610651575f80fd5b506102e9610660366004614536565b5f949350505050565b348015610674575f80fd5b50610243610683366004614626565b611ab8565b348015610693575f80fd5b506102b07f000000000000000000000000f5ca295dc286a176e35ebb7833031fd95550eb1481565b3480156106c6575f80fd5b506102436106d5366004614641565b611b1b565b6102e96106e8366004614690565b611d41565b5f7fffffffff0000000000000000000000000000000000000000000000000000000082167f21c9410700000000000000000000000000000000000000000000000000000000148061077f57507fffffffff0000000000000000000000000000000000000000000000000000000082167f6afdd85000000000000000000000000000000000000000000000000000000000145b806107cb57507fffffffff0000000000000000000000000000000000000000000000000000000082167f01ffc9a700000000000000000000000000000000000000000000000000000000145b8061081757507fffffffff0000000000000000000000000000000000000000000000000000000082167ffa461e3300000000000000000000000000000000000000000000000000000000145b8061086357507fffffffff0000000000000000000000000000000000000000000000000000000082167ff434c91400000000000000000000000000000000000000000000000000000000145b806108af57507fffffffff0000000000000000000000000000000000000000000000000000000082167f4cae278700000000000000000000000000000000000000000000000000000000145b92915050565b8215610979576040517f6352211e00000000000000000000000000000000000000000000000000000000815260048101849052610974907f0000000000000000000000000b538a02610d7d3cc91ce2870f423e0a34d646ad73ffffffffffffffffffffffffffffffffffffffff1690636352211e90602401602060405180830381865afa158015610948573d5f803e3d5ffd5b505050506040513d601f19601f8201168201806040525081019061096c919061473c565b84601a611fad565b610981565b61098161210e565b5f61098a612160565b90505f73ffffffffffffffffffffffffffffffffffffffff841661eeee146109b257836109d4565b7f0000000000000000000000007b79995e5f793a07bc00c21412e50ecae098e7f95b905073ffffffffffffffffffffffffffffffffffffffff8083168582161090848116907f0000000000000000000000000227628f3f023bb0b980b67d528571c95c6dac1c16631698ee8283610a295785610a2b565b845b84610a365785610a38565b865b8873ffffffffffffffffffffffffffffffffffffffff1663ddca3f436040518163ffffffff1660e01b8152600401602060405180830381865afa158015610a81573d5f803e3d5ffd5b505050506040513d601f19601f82011682018060405250810190610aa59190614757565b6040517fffffffff0000000000000000000000000000000000000000000000000000000060e086901b16815273ffffffffffffffffffffffffffffffffffffffff938416600482015292909116602483015262ffffff166044820152606401602060405180830381865afa158015610b1f573d5f803e3d5ffd5b505050506040513d601f19601f82011682018060405250810190610b43919061473c565b73ffffffffffffffffffffffffffffffffffffffff1614610d1257837f0000000000000000000000000227628f3f023bb0b980b67d528571c95c6dac1c73ffffffffffffffffffffffffffffffffffffffff16631698ee8283610ba65785610ba8565b845b84610bb35785610bb5565b865b8873ffffffffffffffffffffffffffffffffffffffff1663ddca3f436040518163ffffffff1660e01b8152600401602060405180830381865afa158015610bfe573d5f803e3d5ffd5b505050506040513d601f19601f82011682018060405250810190610c229190614757565b6040517fffffffff0000000000000000000000000000000000000000000000000000000060e086901b16815273ffffffffffffffffffffffffffffffffffffffff938416600482015292909116602483015262ffffff166044820152606401602060405180830381865afa158015610c9c573d5f803e3d5ffd5b505050506040513d601f19601f82011682018060405250810190610cc0919061473c565b6040517fe2bbe4ec00000000000000000000000000000000000000000000000000000000815273ffffffffffffffffffffffffffffffffffffffff92831660048201529116602482015260440161023a565b6040517f32148f67000000000000000000000000000000000000000000000000000000008152600a600482015273ffffffffffffffffffffffffffffffffffffffff8516906332148f67906024015f604051808303815f87803b158015610d77575f80fd5b505af1158015610d89573d5f803e3d5ffd5b5050505f87815260026020908152604080832073ffffffffffffffffffffffffffffffffffffffff8781168552925290912054169050610e1f575f8681526003602090815260408220805460018101825590835291200180547fffffffffffffffffffffffff00000000000000000000000000000000000000001673ffffffffffffffffffffffffffffffffffffffff87161790555b5f86815260026020908152604080832073ffffffffffffffffffffffffffffffffffffffff86811685529083529281902080547fffffffffffffffffffffffff0000000000000000000000000000000000000000168885161790558051606081019091529187168083529082019061eeee14610f07578673ffffffffffffffffffffffffffffffffffffffff1663313ce5676040518163ffffffff1660e01b8152600401602060405180830381865afa158015610ede573d5f803e3d5ffd5b505050506040513d601f19601f82011682018060405250810190610f029190614779565b610f0a565b60125b60ff908116825263ffffffff8089166020938401525f998a52600183526040808b2073ffffffffffffffffffffffffffffffffffffffff9a8b168c528452998a9020845181549486015195909b01519091167501000000000000000000000000000000000000000000027fffffffffffffff00000000ffffffffffffffffffffffffffffffffffffffffff9490921674010000000000000000000000000000000000000000027fffffffffffffffffffffff000000000000000000000000000000000000000000909316999098169890981717169590951790935550505050565b60408051606080820183525f80835260208084018290529284018190528581526001835283812073ffffffffffffffffffffffffffffffffffffffff868116835290845290849020845192830185525490811680835274010000000000000000000000000000000000000000820460ff16938301939093527501000000000000000000000000000000000000000000900463ffffffff16928101929092526108af575073ffffffffffffffffffffffffffffffffffffffff8181165f9081527fa6eef7e35abe7026729641147f7915573c7e97b47efa546f5f6e3230263bcb49602090815260409182902082516060810184529054938416815274010000000000000000000000000000000000000000840460ff1691810191909152750100000000000000000000000000000000000000000090920463ffffffff169082015292915050565b5f82815260046020908152604080832073ffffffffffffffffffffffffffffffffffffffff8516845290915281205481908082036111af575073ffffffffffffffffffffffffffffffffffffffff83165f9081527f17ef568e3e12ab5b9c7254a8d58478811de00f9e6eb34345acd53bf8fd09d3ec60205260409020545b915050602081901c5b9250929050565b5f81815260036020908152604080832080548251818502810185019093528083526060949383018282801561122857602002820191905f5260205f20905b815473ffffffffffffffffffffffffffffffffffffffff1681526001909101906020018083116111fd575b50505f808052600360209081527f3617319a054d772f909f7c479a2cebe5066e836a939412e32403c99029b92eff805460408051828502810185019091528181529798509296955093509091508301828280156112b957602002820191905f5260205f20905b815473ffffffffffffffffffffffffffffffffffffffff16815260019091019060200180831161128e575b5050855184519495509392506112d39150829050836147c1565b67ffffffffffffffff8111156112eb576112eb61442c565b60405190808252806020026020018201604052801561135357816020015b604080516060810182525f80825260208083018290529282015282527fffffffffffffffffffffffffffffffffffffffffffffffffffffffffffffffff9092019101816113095790505b5094505f5b828110156114345760015f8881526020019081526020015f205f868381518110611384576113846147d4565b60209081029190910181015173ffffffffffffffffffffffffffffffffffffffff90811683528282019390935260409182015f2082516060810184529054938416815274010000000000000000000000000000000000000000840460ff1691810191909152750100000000000000000000000000000000000000000090920463ffffffff16908201528651879083908110611421576114216147d4565b6020908102919091010152600101611358565b50815f5b828110156115c2575f805b858110156114c15786838151811061145d5761145d6147d4565b602002602001015173ffffffffffffffffffffffffffffffffffffffff1688828151811061148d5761148d6147d4565b602002602001015173ffffffffffffffffffffffffffffffffffffffff16036114b957600191506114c1565b600101611443565b50806115b9575f808052600160205286517fa6eef7e35abe7026729641147f7915573c7e97b47efa546f5f6e3230263bcb499190889085908110611507576115076147d4565b60209081029190910181015173ffffffffffffffffffffffffffffffffffffffff90811683528282019390935260409182015f2082516060810184529054938416815274010000000000000000000000000000000000000000840460ff1691810191909152750100000000000000000000000000000000000000000090920463ffffffff1690820152888461159b81614801565b9550815181106115ad576115ad6147d4565b60200260200101819052505b50600101611438565b5085518110156115d0578086525b5050505050919050565b6115e261210e565b6115eb5f6121d0565b565b5f82815260026020908152604080832073ffffffffffffffffffffffffffffffffffffffff8086168552925282205416908161166c5773ffffffffffffffffffffffffffffffffffffffff8084165f9081527fac33ff75c19e70fe83507db0d683fd3465c996598dc972688b7ace676c89077b60205260409020541691505b611674612160565b73ffffffffffffffffffffffffffffffffffffffff168373ffffffffffffffffffffffffffffffffffffffff161090509250929050565b6040517f862026500000000000000000000000000000000000000000000000000000000081526004810189905273ffffffffffffffffffffffffffffffffffffffff7f0000000000000000000000001c7d4b196cb0c7b01d743fbc6116a902379c7238811660248301525f917f0000000000000000000000000bc9f153dee4d3d474ce0903775b9b2aaae9aa4190911690638620265090604401602060405180830381865afa158015611760573d5f803e3d5ffd5b505050506040513d601f19601f82011682018060405250810190611784919061473c565b905073ffffffffffffffffffffffffffffffffffffffff8116611812576040517fcf78a6fc000000000000000000000000000000000000000000000000000000008152600481018a905273ffffffffffffffffffffffffffffffffffffffff7f0000000000000000000000001c7d4b196cb0c7b01d743fbc6116a902379c723816602482015260440161023a565b5f61182b8a8a6118248c8c8989612244565b87876125ac565b90505f611859837f0000000000000000000000001c7d4b196cb0c7b01d743fbc6116a902379c72388461286b565b90508273ffffffffffffffffffffffffffffffffffffffff16639e6eec05828d7f0000000000000000000000001c7d4b196cb0c7b01d743fbc6116a902379c7238868d8d8d8d8d6040518a63ffffffff1660e01b81526004016118c398979695949392919061487f565b5f604051808303818588803b1580156118da575f80fd5b505af11580156118ec573d5f803e3d5ffd5b50505050505050505050505050505050565b83156119c2576040517f6352211e000000000000000000000000000000000000000000000000000000008152600481018590526119bd907f0000000000000000000000000b538a02610d7d3cc91ce2870f423e0a34d646ad73ffffffffffffffffffffffffffffffffffffffff1690636352211e90602401602060405180830381865afa158015611991573d5f803e3d5ffd5b505050506040513d601f19601f820116820180604052508101906119b5919061473c565b85601b611fad565b6119ca565b6119ca61210e565b60788210806119db57506202a30082115b15611a25576040517f9442583100000000000000000000000000000000000000000000000000000000815260048101839052607860248201526202a300604482015260640161023a565b6064811080611a35575061232881115b15611a7e576040517f1f463fad0000000000000000000000000000000000000000000000000000000081526004810182905260646024820181905261232860448301520161023a565b5f93845260046020908152604080862073ffffffffffffffffffffffffffffffffffffffff9095168652938152929093209290911b179055565b611ac061210e565b73ffffffffffffffffffffffffffffffffffffffff8116611b0f576040517f1e4fbdf70000000000000000000000000000000000000000000000000000000081525f600482015260240161023a565b611b18816121d0565b50565b5f80611b2983850185614201565b90925090505f73ffffffffffffffffffffffffffffffffffffffff821661eeee14611b545781611b76565b7f0000000000000000000000007b79995e5f793a07bc00c21412e50ecae098e7f95b5f84815260026020908152604080832073ffffffffffffffffffffffffffffffffffffffff80861685529252909120549192501680611bf7575073ffffffffffffffffffffffffffffffffffffffff8082165f9081527fac33ff75c19e70fe83507db0d683fd3465c996598dc972688b7ace676c89077b6020526040902054165b3373ffffffffffffffffffffffffffffffffffffffff821614611c48576040517fbca42a5400000000000000000000000000000000000000000000000000000000815233600482015260240161023a565b5f808912611c565788611c58565b875b90507fffffffffffffffffffffffffffffffffffffffffffffffffffffffffffff111273ffffffffffffffffffffffffffffffffffffffff851601611d15577f0000000000000000000000007b79995e5f793a07bc00c21412e50ecae098e7f973ffffffffffffffffffffffffffffffffffffffff1663d0e30db0826040518263ffffffff1660e01b81526004015f604051808303818588803b158015611cfd575f80fd5b505af1158015611d0f573d5f803e3d5ffd5b50505050505b611d3673ffffffffffffffffffffffffffffffffffffffff841633836128c4565b505050505050505050565b6040517f86202650000000000000000000000000000000000000000000000000000000008152600481018a905273ffffffffffffffffffffffffffffffffffffffff7f0000000000000000000000001c7d4b196cb0c7b01d743fbc6116a902379c7238811660248301525f9182917f0000000000000000000000000bc9f153dee4d3d474ce0903775b9b2aaae9aa411690638620265090604401602060405180830381865afa158015611df6573d5f803e3d5ffd5b505050506040513d601f19601f82011682018060405250810190611e1a919061473c565b905073ffffffffffffffffffffffffffffffffffffffff8116611ea8576040517fcf78a6fc000000000000000000000000000000000000000000000000000000008152600481018c905273ffffffffffffffffffffffffffffffffffffffff7f0000000000000000000000001c7d4b196cb0c7b01d743fbc6116a902379c723816602482015260440161023a565b5f611ec18c8c611eba8e8e8a8a612244565b88886125ac565b90505f611eef837f0000000000000000000000001c7d4b196cb0c7b01d743fbc6116a902379c72388461286b565b90508273ffffffffffffffffffffffffffffffffffffffff1663fef43257828f7f0000000000000000000000001c7d4b196cb0c7b01d743fbc6116a902379c7238868f8f8f8f8f8f6040518b63ffffffff1660e01b8152600401611f5b999897969594939291906148e4565b60206040518083038185885af1158015611f77573d5f803e3d5ffd5b50505050506040513d601f19601f82011682018060405250810190611f9c9190614952565b9d9c50505050505050505050505050565b3373ffffffffffffffffffffffffffffffffffffffff841681148015906120a357506040517f348b684e00000000000000000000000000000000000000000000000000000000815273ffffffffffffffffffffffffffffffffffffffff82811660048301528581166024830152604482018590526064820184905260016084830181905260a48301527f000000000000000000000000f5ca295dc286a176e35ebb7833031fd95550eb14169063348b684e9060c401602060405180830381865afa15801561207d573d5f803e3d5ffd5b505050506040513d601f19601f820116820180604052508101906120a19190614969565b155b15612108576040517f264deeaa00000000000000000000000000000000000000000000000000000000815273ffffffffffffffffffffffffffffffffffffffff808616600483015282166024820152604481018490526064810183905260840161023a565b50505050565b5f5473ffffffffffffffffffffffffffffffffffffffff1633146115eb576040517f118cdaa700000000000000000000000000000000000000000000000000000000815233600482015260240161023a565b5f7f00000000000000000000000000000000000000000000000000000000000000006121ab57507f0000000000000000000000001c7d4b196cb0c7b01d743fbc6116a902379c723890565b507f0000000000000000000000007b79995e5f793a07bc00c21412e50ecae098e7f990565b5f805473ffffffffffffffffffffffffffffffffffffffff8381167fffffffffffffffffffffffff0000000000000000000000000000000000000000831681178455604051919092169283917f8be0079c531659141344cd1fd0a4f28419497f9722a3daafe3b4186f6b6457e09190a35050565b5f7fffffffffffffffffffffffffffffffffffffffffffffffffffffffffffff111273ffffffffffffffffffffffffffffffffffffffff8616016122895750346125a4565b34156122c3576040517f15f828f800000000000000000000000000000000000000000000000000000000815234600482015260240161023a565b5f806123416123066040518060400160405280600781526020017f7065726d69743200000000000000000000000000000000000000000000000000815250612945565b86868080601f0160208091040260200160405190810160405280939291908181526020018383808284375f9201919091525061295892505050565b915091508115612507575f8180602001905181019061236091906149c0565b9050806020015173ffffffffffffffffffffffffffffffffffffffff168711156123db5760208101516040517f6efd58f80000000000000000000000000000000000000000000000000000000081526004810189905273ffffffffffffffffffffffffffffffffffffffff909116602482015260440161023a565b5f604051806060016040528060405180608001604052808c73ffffffffffffffffffffffffffffffffffffffff168152602001856020015173ffffffffffffffffffffffffffffffffffffffff168152602001856040015165ffffffffffff168152602001856060015165ffffffffffff1681525081526020013073ffffffffffffffffffffffffffffffffffffffff168152602001835f015181525090507f000000000000000000000000000000000022d473030f116ddee9f6b43ac78ba373ffffffffffffffffffffffffffffffffffffffff16632b67b570338385608001516040518463ffffffff1660e01b81526004016124db93929190614b20565b5f604051808303815f87803b1580156124f2575f80fd5b505af1925050508015612503575060015b5050505b61251333308989612b3f565b6040517f70a0823100000000000000000000000000000000000000000000000000000000815230600482015273ffffffffffffffffffffffffffffffffffffffff8816906370a0823190602401602060405180830381865afa15801561257b573d5f803e3d5ffd5b505050506040513d601f19601f8201168201806040525081019061259f9190614952565b925050505b949350505050565b5f8073ffffffffffffffffffffffffffffffffffffffff861661eeee146125d357856125f5565b7f0000000000000000000000007b79995e5f793a07bc00c21412e50ecae098e7f95b90505f612600612160565b905073ffffffffffffffffffffffffffffffffffffffff871661eeee14801561264657507f00000000000000000000000000000000000000000000000000000000000000005b8061267c57508073ffffffffffffffffffffffffffffffffffffffff168273ffffffffffffffffffffffffffffffffffffffff16145b1561268b578592505050612862565b5f8061269b87878c878c88612d41565b915091505f6126dc8a8a858773ffffffffffffffffffffffffffffffffffffffff168973ffffffffffffffffffffffffffffffffffffffff16108f87612fdd565b6040517f70a082310000000000000000000000000000000000000000000000000000000081523060048201529091505f9073ffffffffffffffffffffffffffffffffffffffff8716906370a0823190602401602060405180830381865afa158015612749573d5f803e3d5ffd5b505050506040513d601f19601f8201168201806040525081019061276d9190614952565b9050801561285a577fffffffffffffffffffffffffffffffffffffffffffffffffffffffffffff111273ffffffffffffffffffffffffffffffffffffffff8c160161284e576040517f2e1a7d4d000000000000000000000000000000000000000000000000000000008152600481018290527f0000000000000000000000007b79995e5f793a07bc00c21412e50ecae098e7f973ffffffffffffffffffffffffffffffffffffffff1690632e1a7d4d906024015f604051808303815f87803b158015612837575f80fd5b505af1158015612849573d5f803e3d5ffd5b505050505b61285a30338d84612b3f565b509450505050505b95945050505050565b5f7f0000000000000000000000000000000000000000000000000000000000000000156128995750806128bd565b6128ba73ffffffffffffffffffffffffffffffffffffffff84168584613206565b505f5b9392505050565b60405173ffffffffffffffffffffffffffffffffffffffff83811660248301526044820183905261033091859182169063a9059cbb906064015b604051602081830303815290604052915060e01b6020820180517bffffffffffffffffffffffffffffffffffffffffffffffffffffffff83818316178352505050506132b3565b805160208201205f903060601b186108af565b5f6060602583511161297b57505060408051602081019091525f808252906111b8565b5f83612989600460206147c1565b81518110612999576129996147d4565b0160209081015160f81c91505b5f856129b36004846147c1565b815181106129c3576129c36147d4565b01602001517fff000000000000000000000000000000000000000000000000000000000000001614801590612a0157506129fe602083614ba1565b81105b15612b36575f85612a136004846147c1565b81518110612a2357612a236147d4565b016020908101518784019091015160f89190911c91507fffffffff0000000000000000000000000000000000000000000000000000000080891690821603612b2c575f612a71602086614ba1565b612a7c6009866147c1565b101580612ac9575087612a906009866147c1565b81518110612aa057612aa06147d4565b01602001517fff0000000000000000000000000000000000000000000000000000000000000016155b612b0257602088612adb6009876147c1565b81518110612aeb57612aeb6147d4565b0160200151612afd919060f81c614ba1565b612b05565b87515b90506001612b1e89612b18602087614ba1565b84613352565b9650965050505050506111b8565b50506005016129a6565b50509250929050565b3073ffffffffffffffffffffffffffffffffffffffff851603612bc9577fffffffffffffffffffffffffffffffffffffffffffffffffffffffffffff111273ffffffffffffffffffffffffffffffffffffffff831601612ba857612ba38382613397565b612108565b612ba373ffffffffffffffffffffffffffffffffffffffff831684836128c4565b6040517fdd62ed3e00000000000000000000000000000000000000000000000000000000815273ffffffffffffffffffffffffffffffffffffffff858116600483015230602483015282919084169063dd62ed3e90604401602060405180830381865afa158015612c3c573d5f803e3d5ffd5b505050506040513d601f19601f82011682018060405250810190612c609190614952565b10612c8757612ba373ffffffffffffffffffffffffffffffffffffffff8316858584613449565b6040517f36c7851600000000000000000000000000000000000000000000000000000000815273ffffffffffffffffffffffffffffffffffffffff85811660048301528481166024830152828116604483015283811660648301527f000000000000000000000000000000000022d473030f116ddee9f6b43ac78ba316906336c78516906084015f604051808303815f87803b158015612d25575f80fd5b505af1158015612d37573d5f803e3d5ffd5b5050505050505050565b5f84815260026020908152604080832073ffffffffffffffffffffffffffffffffffffffff808816855292528220541680612e13575073ffffffffffffffffffffffffffffffffffffffff8085165f9081527fac33ff75c19e70fe83507db0d683fd3465c996598dc972688b7ace676c89077b60205260409020541680612e13576040517f891773860000000000000000000000000000000000000000000000000000000081526004810187905273ffffffffffffffffffffffffffffffffffffffff8616602482015260440161023a565b5f80612e91612e566040518060400160405280600c81526020017f71756f7465466f72537761700000000000000000000000000000000000000000815250612945565b8b8b8080601f0160208091040260200160405190810160405280939291908181526020018383808284375f9201919091525061295892505050565b915091508115612eb65780806020019051810190612eaf9190614952565b9350612fd0565b5f80612ec28a86611131565b915091505f612ed08661348f565b90508263ffffffff168163ffffffff161015612eea578092505b5f8163ffffffff165f03612f76575f8773ffffffffffffffffffffffffffffffffffffffff16633850c7bd6040518163ffffffff1660e01b815260040160e060405180830381865afa158015612f42573d5f803e3d5ffd5b505050506040513d601f19601f82011682018060405250810190612f669190614bc9565b50939650612f8495505050505050565b612f8087856136cb565b5090505b612f90818b8d8c61397f565b9750612710612fb573ffffffffffffffffffffffffffffffffffffffff85168a614ba1565b612fbf9190614c89565b612fc99089614c9c565b9750505050505b5050965096945050505050565b5f805f8373ffffffffffffffffffffffffffffffffffffffff1663128acb0830888b8a61302857613023600173fffd8963efd1fc6a506488495d951d5263988d26614caf565b613038565b6130386401000276a36001614ce3565b8a8f60405160200161306a92919091825273ffffffffffffffffffffffffffffffffffffffff16602082015260400190565b6040516020818303038152906040526040518663ffffffff1660e01b8152600401613099959493929190614d10565b60408051808303815f875af11580156130b4573d5f803e3d5ffd5b505050506040513d601f19601f820116820180604052508101906130d89190614d61565b91509150856130e757816130e9565b805b6130f290614d83565b925086831015613138576040517f371d1b7a000000000000000000000000000000000000000000000000000000008152600481018490526024810188905260440161023a565b7f0000000000000000000000000000000000000000000000000000000000000000156131fa576040517f2e1a7d4d000000000000000000000000000000000000000000000000000000008152600481018490527f0000000000000000000000007b79995e5f793a07bc00c21412e50ecae098e7f973ffffffffffffffffffffffffffffffffffffffff1690632e1a7d4d906024015f604051808303815f87803b1580156131e3575f80fd5b505af11580156131f5573d5f803e3d5ffd5b505050505b50509695505050505050565b6040517fdd62ed3e00000000000000000000000000000000000000000000000000000000815230600482015273ffffffffffffffffffffffffffffffffffffffff83811660248301525f919085169063dd62ed3e90604401602060405180830381865afa158015613279573d5f803e3d5ffd5b505050506040513d601f19601f8201168201806040525081019061329d9190614952565b905061210884846132ae85856147c1565b613b52565b5f8060205f8451602086015f885af1806132d2576040513d5f823e3d81fd5b50505f513d915081156132e9578060011415613303565b73ffffffffffffffffffffffffffffffffffffffff84163b155b15612108576040517f5274afe700000000000000000000000000000000000000000000000000000000815273ffffffffffffffffffffffffffffffffffffffff8516600482015260240161023a565b6060828203604051915060208183010160405280825250826020850101602082015f5b8481101561338d578281015182820152602001613375565b5050509392505050565b804710156133da576040517fcf4791810000000000000000000000000000000000000000000000000000000081524760048201526024810182905260440161023a565b5f808373ffffffffffffffffffffffffffffffffffffffff16836040515f6040518083038185875af1925050503d805f8114613431576040519150601f19603f3d011682016040523d82523d5f602084013e613436565b606091505b5091509150816121085761210881613c29565b60405173ffffffffffffffffffffffffffffffffffffffff84811660248301528381166044830152606482018390526121089186918216906323b872dd906084016128fe565b5f805f8373ffffffffffffffffffffffffffffffffffffffff16633850c7bd6040518163ffffffff1660e01b815260040160e060405180830381865afa1580156134db573d5f803e3d5ffd5b505050506040513d601f19601f820116820180604052508101906134ff9190614bc9565b5050509350935050505f8161ffff1611613575576040517f08c379a000000000000000000000000000000000000000000000000000000000815260206004820152600260248201527f4e49000000000000000000000000000000000000000000000000000000000000604482015260640161023a565b5f8073ffffffffffffffffffffffffffffffffffffffff861663252c09d78461359f876001614db9565b6135a99190614dd4565b6040517fffffffff0000000000000000000000000000000000000000000000000000000060e084901b16815261ffff9091166004820152602401608060405180830381865afa1580156135fe573d5f803e3d5ffd5b505050506040513d601f19601f820116820180604052508101906136229190614e05565b935050509150806136c0576040517f252c09d70000000000000000000000000000000000000000000000000000000081525f600482015273ffffffffffffffffffffffffffffffffffffffff87169063252c09d790602401608060405180830381865afa158015613695573d5f803e3d5ffd5b505050506040513d601f19601f820116820180604052508101906136b99190614e05565b5091935050505b504203949350505050565b5f808263ffffffff165f0361373c576040517f08c379a000000000000000000000000000000000000000000000000000000000815260206004820152600260248201527f4250000000000000000000000000000000000000000000000000000000000000604482015260640161023a565b6040805160028082526060820183525f9260208301908036833701905050905083815f8151811061376f5761376f6147d4565b602002602001019063ffffffff16908163ffffffff16815250505f8160018151811061379d5761379d6147d4565b602002602001019063ffffffff16908163ffffffff16815250505f808673ffffffffffffffffffffffffffffffffffffffff1663883bdbfd846040518263ffffffff1660e01b81526004016137f29190614e5d565b5f60405180830381865afa15801561380c573d5f803e3d5ffd5b505050506040513d5f823e601f3d9081017fffffffffffffffffffffffffffffffffffffffffffffffffffffffffffffffe01682016040526138519190810190614f0a565b915091505f825f81518110613868576138686147d4565b602002602001015183600181518110613883576138836147d4565b60200260200101516138959190614fc7565b90505f825f815181106138aa576138aa6147d4565b6020026020010151836001815181106138c5576138c56147d4565b60200260200101516138d79190614caf565b90506138e963ffffffff89168361500c565b96505f8260060b12801561390e575061390863ffffffff89168361507f565b60060b15155b15613921578661391d816150a0565b9750505b5f61394673ffffffffffffffffffffffffffffffffffffffff63ffffffff8b166150fc565b905061397077ffffffffffffffffffffffffffffffffffffffff00000000602084901b168261513f565b96505050505050509250929050565b5f8061398a86613c6b565b90506fffffffffffffffffffffffffffffffff73ffffffffffffffffffffffffffffffffffffffff821611613a88575f6139da73ffffffffffffffffffffffffffffffffffffffff831680614ba1565b90508373ffffffffffffffffffffffffffffffffffffffff168573ffffffffffffffffffffffffffffffffffffffff1610613a4a57613a457801000000000000000000000000000000000000000000000000876fffffffffffffffffffffffffffffffff1683613fcb565b613a80565b613a8081876fffffffffffffffffffffffffffffffff167801000000000000000000000000000000000000000000000000613fcb565b925050613b49565b5f613ab373ffffffffffffffffffffffffffffffffffffffff83168068010000000000000000613fcb565b90508373ffffffffffffffffffffffffffffffffffffffff168573ffffffffffffffffffffffffffffffffffffffff1610613b1b57613b16700100000000000000000000000000000000876fffffffffffffffffffffffffffffffff1683613fcb565b61259f565b61259f81876fffffffffffffffffffffffffffffffff16700100000000000000000000000000000000613fcb565b50949350505050565b6040805173ffffffffffffffffffffffffffffffffffffffff8416602482015260448082018490528251808303909101815260649091019091526020810180517bffffffffffffffffffffffffffffffffffffffffffffffffffffffff167f095ea7b300000000000000000000000000000000000000000000000000000000179052613bde8482614094565b6121085760405173ffffffffffffffffffffffffffffffffffffffff84811660248301525f6044830152613c1f91869182169063095ea7b3906064016128fe565b61210884826132b3565b805115613c395780518082602001fd5b6040517fd6bda27500000000000000000000000000000000000000000000000000000000815260040160405180910390fd5b5f805f8360020b12613c80578260020b613c87565b8260020b5f035b9050620d89e8811115613cc6576040517f2bc80f3a00000000000000000000000000000000000000000000000000000000815260040160405180910390fd5b5f816001165f03613ce857700100000000000000000000000000000000613cfa565b6ffffcb933bd6fad37aa2d162d1a5940015b70ffffffffffffffffffffffffffffffffff1690506002821615613d2e576ffff97272373d413259a46990580e213a0260801c5b6004821615613d4d576ffff2e50f5f656932ef12357cf3c7fdcc0260801c5b6008821615613d6c576fffe5caca7e10e4e61c3624eaa0941cd00260801c5b6010821615613d8b576fffcb9843d60f6159c9db58835c9266440260801c5b6020821615613daa576fff973b41fa98c081472e6896dfb254c00260801c5b6040821615613dc9576fff2ea16466c96a3843ec78b326b528610260801c5b6080821615613de8576ffe5dee046a99a2a811c461f1969c30530260801c5b610100821615613e08576ffcbe86c7900a88aedcffc83b479aa3a40260801c5b610200821615613e28576ff987a7253ac413176f2b074cf7815e540260801c5b610400821615613e48576ff3392b0822b70005940c7a398e4b70f30260801c5b610800821615613e68576fe7159475a2c29b7443b29c7fa6e889d90260801c5b611000821615613e88576fd097f3bdfd2022b8845ad8f792aa58250260801c5b612000821615613ea8576fa9f746462d870fdf8a65dc1f90e061e50260801c5b614000821615613ec8576f70d869a156d2a1b890bb3df62baf32f70260801c5b618000821615613ee8576f31be135f97d08fd981231505542fcfa60260801c5b62010000821615613f09576f09aa508b5b7a84e1c677de54f3e99bc90260801c5b62020000821615613f29576e5d6af8dedb81196699c329225ee6040260801c5b62040000821615613f48576d2216e584f5fa1ea926041bedfe980260801c5b62080000821615613f65576b048a170391f7dc42444e8fa20260801c5b5f8460020b1315613fa357807fffffffffffffffffffffffffffffffffffffffffffffffffffffffffffffffff81613f9f57613f9f614c5c565b0490505b640100000000810615613fb7576001613fb9565b5f5b60ff16602082901c0192505050919050565b5f80807fffffffffffffffffffffffffffffffffffffffffffffffffffffffffffffffff858709858702925082811083820303915050805f0361401e575f8411614013575f80fd5b5082900490506128bd565b808411614029575f80fd5b5f848688095f868103871696879004966002600389028118808a02820302808a02820302808a02820302808a02820302808a02820302808a02909103029181900381900460010186841190950394909402919094039290920491909117919091029150509392505050565b5f805f8060205f8651602088015f8a5af192503d91505f5190508280156140e0575081156140c557806001146140e0565b5f8673ffffffffffffffffffffffffffffffffffffffff163b115b9695505050505050565b5f602082840312156140fa575f80fd5b81357fffffffff00000000000000000000000000000000000000000000000000000000811681146128bd575f80fd5b73ffffffffffffffffffffffffffffffffffffffff81168114611b18575f80fd5b5f805f6060848603121561415c575f80fd5b83359250602084013561416e81614129565b9150604084013561417e81614129565b809150509250925092565b5f805f6040848603121561419b575f80fd5b83359250602084013567ffffffffffffffff808211156141b9575f80fd5b818601915086601f8301126141cc575f80fd5b8135818111156141da575f80fd5b8760206060830285010111156141ee575f80fd5b6020830194508093505050509250925092565b5f8060408385031215614212575f80fd5b82359150602083013561422481614129565b809150509250929050565b815173ffffffffffffffffffffffffffffffffffffffff16815260208083015160ff169082015260408083015163ffffffff1690820152606081016108af565b5f6020828403121561427f575f80fd5b5035919050565b602080825282518282018190525f9190848201906040850190845b818110156142fa576142e7838551805173ffffffffffffffffffffffffffffffffffffffff16825260208082015160ff169083015260409081015163ffffffff16910152565b92840192606092909201916001016142a1565b50909695505050505050565b8015158114611b18575f80fd5b5f8083601f840112614323575f80fd5b50813567ffffffffffffffff81111561433a575f80fd5b6020830191508360208285010111156111b8575f80fd5b5f805f805f805f8060c0898b031215614368575f80fd5b88359750602089013561437a81614129565b965060408901359550606089013561439181614306565b9450608089013567ffffffffffffffff808211156143ad575f80fd5b6143b98c838d01614313565b909650945060a08b01359150808211156143d1575f80fd5b506143de8b828c01614313565b999c989b5096995094979396929594505050565b5f805f8060808587031215614405575f80fd5b84359350602085013561441781614129565b93969395505050506040820135916060013590565b7f4e487b71000000000000000000000000000000000000000000000000000000005f52604160045260245ffd5b6040516060810167ffffffffffffffff8111828210171561447c5761447c61442c565b60405290565b60405160a0810167ffffffffffffffff8111828210171561447c5761447c61442c565b604051601f82017fffffffffffffffffffffffffffffffffffffffffffffffffffffffffffffffe016810167ffffffffffffffff811182821017156144ec576144ec61442c565b604052919050565b5f67ffffffffffffffff82111561450d5761450d61442c565b5060051b60200190565b60ff81168114611b18575f80fd5b63ffffffff81168114611b18575f80fd5b5f805f8060808587031215614549575f80fd5b8435935060208086013567ffffffffffffffff811115614567575f80fd5b8601601f81018813614577575f80fd5b803561458a614585826144f4565b6144a5565b8181526060918202830184019184820191908b8411156145a8575f80fd5b938501935b8385101561460b5780858d0312156145c3575f80fd5b6145cb614459565b85356145d681614129565b8152858701356145e581614517565b818801526040868101356145f881614525565b90820152835293840193918501916145ad565b50979a97995050505060408601359560600135949350505050565b5f60208284031215614636575f80fd5b81356128bd81614129565b5f805f8060608587031215614654575f80fd5b8435935060208501359250604085013567ffffffffffffffff811115614678575f80fd5b61468487828801614313565b95989497509550505050565b5f805f805f805f805f60e08a8c0312156146a8575f80fd5b8935985060208a01356146ba81614129565b975060408a0135965060608a01356146d181614129565b955060808a0135945060a08a013567ffffffffffffffff808211156146f4575f80fd5b6147008d838e01614313565b909650945060c08c0135915080821115614718575f80fd5b506147258c828d01614313565b915080935050809150509295985092959850929598565b5f6020828403121561474c575f80fd5b81516128bd81614129565b5f60208284031215614767575f80fd5b815162ffffff811681146128bd575f80fd5b5f60208284031215614789575f80fd5b81516128bd81614517565b7f4e487b71000000000000000000000000000000000000000000000000000000005f52601160045260245ffd5b808201808211156108af576108af614794565b7f4e487b71000000000000000000000000000000000000000000000000000000005f52603260045260245ffd5b5f7fffffffffffffffffffffffffffffffffffffffffffffffffffffffffffffffff820361483157614831614794565b5060010190565b81835281816020850137505f602082840101525f60207fffffffffffffffffffffffffffffffffffffffffffffffffffffffffffffffe0601f840116840101905092915050565b88815273ffffffffffffffffffffffffffffffffffffffff88166020820152866040820152851515606082015260c060808201525f6148c260c083018688614838565b82810360a08401526148d5818587614838565b9b9a5050505050505050505050565b8981525f73ffffffffffffffffffffffffffffffffffffffff808b16602084015289604084015280891660608401525086608083015260e060a083015261492f60e083018688614838565b82810360c0840152614942818587614838565b9c9b505050505050505050505050565b5f60208284031215614962575f80fd5b5051919050565b5f60208284031215614979575f80fd5b81516128bd81614306565b805165ffffffffffff81168114614999575f80fd5b919050565b5f5b838110156149b85781810151838201526020016149a0565b50505f910152565b5f60208083850312156149d1575f80fd5b825167ffffffffffffffff808211156149e8575f80fd5b9084019060a082870312156149fb575f80fd5b614a03614482565b8251815283830151614a1481614129565b81850152614a2460408401614984565b6040820152614a3560608401614984565b6060820152608083015182811115614a4b575f80fd5b80840193505086601f840112614a5f575f80fd5b825182811115614a7157614a7161442c565b614aa1857fffffffffffffffffffffffffffffffffffffffffffffffffffffffffffffffe0601f840116016144a5565b92508083528785828601011115614ab6575f80fd5b614ac58186850187870161499e565b50608081019190915295945050505050565b5f8151808452614aee81602086016020860161499e565b601f017fffffffffffffffffffffffffffffffffffffffffffffffffffffffffffffffe0169290920160200192915050565b5f61010073ffffffffffffffffffffffffffffffffffffffff80871684528551818151166020860152816020820151166040860152604081015165ffffffffffff80821660608801528060608401511660808801525050508060208701511660a085015250604085015160c08401528060e08401526140e081840185614ad7565b80820281158282048414176108af576108af614794565b805161ffff81168114614999575f80fd5b5f805f805f805f60e0888a031215614bdf575f80fd5b8751614bea81614129565b8097505060208801518060020b8114614c01575f80fd5b9550614c0f60408901614bb8565b9450614c1d60608901614bb8565b9350614c2b60808901614bb8565b925060a0880151614c3b81614517565b60c0890151909250614c4c81614306565b8091505092959891949750929550565b7f4e487b71000000000000000000000000000000000000000000000000000000005f52601260045260245ffd5b5f82614c9757614c97614c5c565b500490565b818103818111156108af576108af614794565b73ffffffffffffffffffffffffffffffffffffffff828116828216039080821115614cdc57614cdc614794565b5092915050565b73ffffffffffffffffffffffffffffffffffffffff818116838216019080821115614cdc57614cdc614794565b5f73ffffffffffffffffffffffffffffffffffffffff8088168352861515602084015285604084015280851660608401525060a06080830152614d5660a0830184614ad7565b979650505050505050565b5f8060408385031215614d72575f80fd5b505080516020909101519092909150565b5f7f80000000000000000000000000000000000000000000000000000000000000008203614db357614db3614794565b505f0390565b61ffff818116838216019080821115614cdc57614cdc614794565b5f61ffff80841680614de857614de8614c5c565b92169190910692915050565b8051600681900b8114614999575f80fd5b5f805f8060808587031215614e18575f80fd5b8451614e2381614525565b9350614e3160208601614df4565b92506040850151614e4181614129565b6060860151909250614e5281614306565b939692955090935050565b602080825282518282018190525f9190848201906040850190845b818110156142fa57835163ffffffff1683529284019291840191600101614e78565b5f82601f830112614ea9575f80fd5b81516020614eb9614585836144f4565b8083825260208201915060208460051b870101935086841115614eda575f80fd5b602086015b84811015614eff578051614ef281614129565b8352918301918301614edf565b509695505050505050565b5f8060408385031215614f1b575f80fd5b825167ffffffffffffffff80821115614f32575f80fd5b818501915085601f830112614f45575f80fd5b81516020614f55614585836144f4565b82815260059290921b84018101918181019089841115614f73575f80fd5b948201945b83861015614f9857614f8986614df4565b82529482019490820190614f78565b91880151919650909350505080821115614fb0575f80fd5b50614fbd85828601614e9a565b9150509250929050565b600682810b9082900b037fffffffffffffffffffffffffffffffffffffffffffffffffff800000000000008112667fffffffffffff821317156108af576108af614794565b5f8160060b8360060b8061502257615022614c5c565b7fffffffffffffffffffffffffffffffffffffffffffffffffffffffffffffffff81147fffffffffffffffffffffffffffffffffffffffffffffffffff800000000000008314161561507657615076614794565b90059392505050565b5f8260060b8061509157615091614c5c565b808360060b0791505092915050565b5f8160020b7fffffffffffffffffffffffffffffffffffffffffffffffffffffffffff80000081036150d4576150d4614794565b7fffffffffffffffffffffffffffffffffffffffffffffffffffffffffffffffff0192915050565b77ffffffffffffffffffffffffffffffffffffffffffffffff82811682821681810283169291811582850482141761513657615136614794565b50505092915050565b5f77ffffffffffffffffffffffffffffffffffffffffffffffff8084168061516957615169614c5c565b9216919091049291505056fea26469706673582212205a9426edfb038652a3b3b6108f7943aa27596462182dc32689cc805ee57aeeac64736f6c63430008170033",
	"gitCommit": "4b089286291acebebc1a7b130acd1a58cd13b9c6",
	"history": []
}