{
	"_format": "sphinx-sol-ct-artifact-1",
	"merkleRoot": "0x34535b0067a62bd7489ecdac93346926fb6c4e9829c1c2030a3c4441526f98be",
	"contractName": "JBSwapTerminal",
	"address": "0xF541D0cb634b5eBeB4B70B10aEc85a0fbcc3f5c7",
	"abi": [
		{
			"type": "constructor",
			"inputs": [
				{
					"name": "projects",
					"type": "address",
					"internalType": "contract IJBProjects"
				},
				{
					"name": "permissions",
					"type": "address",
					"internalType": "contract IJBPermissions"
				},
				{
					"name": "directory",
					"type": "address",
					"internalType": "contract IJBDirectory"
				},
				{
					"name": "permit2",
					"type": "address",
					"internalType": "contract IPermit2"
				},
				{
					"name": "owner",
					"type": "address",
					"internalType": "address"
				},
				{
					"name": "weth",
					"type": "address",
					"internalType": "contract IWETH9"
				},
				{
					"name": "tokenOut",
					"type": "address",
					"internalType": "address"
				}
			],
			"stateMutability": "nonpayable"
		},
		{
			"type": "receive",
			"stateMutability": "payable"
		},
		{
			"type": "function",
			"name": "DEFAULT_PROJECT_ID",
			"inputs": [],
			"outputs": [
				{
					"name": "",
					"type": "uint256",
					"internalType": "uint256"
				}
			],
			"stateMutability": "view"
		},
		{
			"type": "function",
			"name": "DIRECTORY",
			"inputs": [],
			"outputs": [
				{
					"name": "",
					"type": "address",
					"internalType": "contract IJBDirectory"
				}
			],
			"stateMutability": "view"
		},
		{
			"type": "function",
			"name": "PERMISSIONS",
			"inputs": [],
			"outputs": [
				{
					"name": "",
					"type": "address",
					"internalType": "contract IJBPermissions"
				}
			],
			"stateMutability": "view"
		},
		{
			"type": "function",
			"name": "PERMIT2",
			"inputs": [],
			"outputs": [
				{
					"name": "",
					"type": "address",
					"internalType": "contract IPermit2"
				}
			],
			"stateMutability": "view"
		},
		{
			"type": "function",
			"name": "PROJECTS",
			"inputs": [],
			"outputs": [
				{
					"name": "",
					"type": "address",
					"internalType": "contract IJBProjects"
				}
			],
			"stateMutability": "view"
		},
		{
			"type": "function",
			"name": "SLIPPAGE_DENOMINATOR",
			"inputs": [],
			"outputs": [
				{
					"name": "",
					"type": "uint160",
					"internalType": "uint160"
				}
			],
			"stateMutability": "view"
		},
		{
			"type": "function",
			"name": "TOKEN_OUT",
			"inputs": [],
			"outputs": [
				{
					"name": "",
					"type": "address",
					"internalType": "address"
				}
			],
			"stateMutability": "view"
		},
		{
			"type": "function",
			"name": "WETH",
			"inputs": [],
			"outputs": [
				{
					"name": "",
					"type": "address",
					"internalType": "contract IWETH9"
				}
			],
			"stateMutability": "view"
		},
		{
			"type": "function",
			"name": "accountingContextForTokenOf",
			"inputs": [
				{
					"name": "projectId",
					"type": "uint256",
					"internalType": "uint256"
				},
				{
					"name": "token",
					"type": "address",
					"internalType": "address"
				}
			],
			"outputs": [
				{
					"name": "",
					"type": "tuple",
					"internalType": "struct JBAccountingContext",
					"components": [
						{
							"name": "token",
							"type": "address",
							"internalType": "address"
						},
						{
							"name": "decimals",
							"type": "uint8",
							"internalType": "uint8"
						},
						{
							"name": "currency",
							"type": "uint32",
							"internalType": "uint32"
						}
					]
				}
			],
			"stateMutability": "view"
		},
		{
			"type": "function",
			"name": "accountingContextsOf",
			"inputs": [
				{
					"name": "projectId",
					"type": "uint256",
					"internalType": "uint256"
				}
			],
			"outputs": [
				{
					"name": "",
					"type": "tuple[]",
					"internalType": "struct JBAccountingContext[]",
					"components": [
						{
							"name": "token",
							"type": "address",
							"internalType": "address"
						},
						{
							"name": "decimals",
							"type": "uint8",
							"internalType": "uint8"
						},
						{
							"name": "currency",
							"type": "uint32",
							"internalType": "uint32"
						}
					]
				}
			],
			"stateMutability": "view"
		},
		{
			"type": "function",
			"name": "addAccountingContextsFor",
			"inputs": [
				{
					"name": "projectId",
					"type": "uint256",
					"internalType": "uint256"
				},
				{
					"name": "tokens",
					"type": "address[]",
					"internalType": "address[]"
				}
			],
			"outputs": [],
			"stateMutability": "nonpayable"
		},
		{
			"type": "function",
			"name": "addDefaultPool",
			"inputs": [
				{
					"name": "projectId",
					"type": "uint256",
					"internalType": "uint256"
				},
				{
					"name": "token",
					"type": "address",
					"internalType": "address"
				},
				{
					"name": "pool",
					"type": "address",
					"internalType": "contract IUniswapV3Pool"
				}
			],
			"outputs": [],
			"stateMutability": "nonpayable"
		},
		{
			"type": "function",
			"name": "addToBalanceOf",
			"inputs": [
				{
					"name": "projectId",
					"type": "uint256",
					"internalType": "uint256"
				},
				{
					"name": "token",
					"type": "address",
					"internalType": "address"
				},
				{
					"name": "amount",
					"type": "uint256",
					"internalType": "uint256"
				},
				{
					"name": "shouldReturnHeldFees",
					"type": "bool",
					"internalType": "bool"
				},
				{
					"name": "memo",
					"type": "string",
					"internalType": "string"
				},
				{
					"name": "metadata",
					"type": "bytes",
					"internalType": "bytes"
				}
			],
			"outputs": [],
			"stateMutability": "payable"
		},
		{
			"type": "function",
			"name": "addTwapParamsFor",
			"inputs": [
				{
					"name": "projectId",
					"type": "uint256",
					"internalType": "uint256"
				},
				{
					"name": "pool",
					"type": "address",
					"internalType": "contract IUniswapV3Pool"
				},
				{
					"name": "secondsAgo",
					"type": "uint32",
					"internalType": "uint32"
				},
				{
					"name": "slippageTolerance",
					"type": "uint160",
					"internalType": "uint160"
				}
			],
			"outputs": [],
			"stateMutability": "nonpayable"
		},
		{
			"type": "function",
			"name": "currentSurplusOf",
			"inputs": [
				{
					"name": "projectId",
					"type": "uint256",
					"internalType": "uint256"
				},
				{
					"name": "decimals",
					"type": "uint256",
					"internalType": "uint256"
				},
				{
					"name": "currency",
					"type": "uint256",
					"internalType": "uint256"
				}
			],
			"outputs": [
				{
					"name": "",
					"type": "uint256",
					"internalType": "uint256"
				}
			],
			"stateMutability": "view"
		},
		{
			"type": "function",
			"name": "getPoolFor",
			"inputs": [
				{
					"name": "projectId",
					"type": "uint256",
					"internalType": "uint256"
				},
				{
					"name": "tokenIn",
					"type": "address",
					"internalType": "address"
				}
			],
			"outputs": [
				{
					"name": "pool",
					"type": "address",
					"internalType": "contract IUniswapV3Pool"
				},
				{
					"name": "zeroForOne",
					"type": "bool",
					"internalType": "bool"
				}
			],
			"stateMutability": "view"
		},
		{
			"type": "function",
			"name": "migrateBalanceOf",
			"inputs": [
				{
					"name": "projectId",
					"type": "uint256",
					"internalType": "uint256"
				},
				{
					"name": "token",
					"type": "address",
					"internalType": "address"
				},
				{
					"name": "to",
					"type": "address",
					"internalType": "contract IJBTerminal"
				}
			],
			"outputs": [
				{
					"name": "balance",
					"type": "uint256",
					"internalType": "uint256"
				}
			],
			"stateMutability": "nonpayable"
		},
		{
			"type": "function",
			"name": "owner",
			"inputs": [],
			"outputs": [
				{
					"name": "",
					"type": "address",
					"internalType": "address"
				}
			],
			"stateMutability": "view"
		},
		{
			"type": "function",
			"name": "pay",
			"inputs": [
				{
					"name": "projectId",
					"type": "uint256",
					"internalType": "uint256"
				},
				{
					"name": "token",
					"type": "address",
					"internalType": "address"
				},
				{
					"name": "amount",
					"type": "uint256",
					"internalType": "uint256"
				},
				{
					"name": "beneficiary",
					"type": "address",
					"internalType": "address"
				},
				{
					"name": "minReturnedTokens",
					"type": "uint256",
					"internalType": "uint256"
				},
				{
					"name": "memo",
					"type": "string",
					"internalType": "string"
				},
				{
					"name": "metadata",
					"type": "bytes",
					"internalType": "bytes"
				}
			],
			"outputs": [
				{
					"name": "",
					"type": "uint256",
					"internalType": "uint256"
				}
			],
			"stateMutability": "payable"
		},
		{
			"type": "function",
			"name": "renounceOwnership",
			"inputs": [],
			"outputs": [],
			"stateMutability": "nonpayable"
		},
		{
			"type": "function",
			"name": "supportsInterface",
			"inputs": [
				{
					"name": "interfaceId",
					"type": "bytes4",
					"internalType": "bytes4"
				}
			],
			"outputs": [
				{
					"name": "",
					"type": "bool",
					"internalType": "bool"
				}
			],
			"stateMutability": "view"
		},
		{
			"type": "function",
			"name": "transferOwnership",
			"inputs": [
				{
					"name": "newOwner",
					"type": "address",
					"internalType": "address"
				}
			],
			"outputs": [],
			"stateMutability": "nonpayable"
		},
		{
			"type": "function",
			"name": "twapParamsOf",
			"inputs": [
				{
					"name": "projectId",
					"type": "uint256",
					"internalType": "uint256"
				},
				{
					"name": "pool",
					"type": "address",
					"internalType": "contract IUniswapV3Pool"
				}
			],
			"outputs": [
				{
					"name": "secondsAgo",
					"type": "uint32",
					"internalType": "uint32"
				},
				{
					"name": "slippageTolerance",
					"type": "uint160",
					"internalType": "uint160"
				}
			],
			"stateMutability": "view"
		},
		{
			"type": "function",
			"name": "uniswapV3SwapCallback",
			"inputs": [
				{
					"name": "amount0Delta",
					"type": "int256",
					"internalType": "int256"
				},
				{
					"name": "amount1Delta",
					"type": "int256",
					"internalType": "int256"
				},
				{
					"name": "data",
					"type": "bytes",
					"internalType": "bytes"
				}
			],
			"outputs": [],
			"stateMutability": "nonpayable"
		},
		{
			"type": "event",
			"name": "AddToBalance",
			"inputs": [
				{
					"name": "projectId",
					"type": "uint256",
					"indexed": true,
					"internalType": "uint256"
				},
				{
					"name": "amount",
					"type": "uint256",
					"indexed": false,
					"internalType": "uint256"
				},
				{
					"name": "unlockedFees",
					"type": "uint256",
					"indexed": false,
					"internalType": "uint256"
				},
				{
					"name": "memo",
					"type": "string",
					"indexed": false,
					"internalType": "string"
				},
				{
					"name": "metadata",
					"type": "bytes",
					"indexed": false,
					"internalType": "bytes"
				},
				{
					"name": "caller",
					"type": "address",
					"indexed": false,
					"internalType": "address"
				}
			],
			"anonymous": false
		},
		{
			"type": "event",
			"name": "HookAfterRecordPay",
			"inputs": [
				{
					"name": "hook",
					"type": "address",
					"indexed": true,
					"internalType": "contract IJBPayHook"
				},
				{
					"name": "context",
					"type": "tuple",
					"indexed": false,
					"internalType": "struct JBAfterPayRecordedContext",
					"components": [
						{
							"name": "payer",
							"type": "address",
							"internalType": "address"
						},
						{
							"name": "projectId",
							"type": "uint256",
							"internalType": "uint256"
						},
						{
							"name": "rulesetId",
							"type": "uint256",
							"internalType": "uint256"
						},
						{
							"name": "amount",
							"type": "tuple",
							"internalType": "struct JBTokenAmount",
							"components": [
								{
									"name": "token",
									"type": "address",
									"internalType": "address"
								},
								{
									"name": "value",
									"type": "uint256",
									"internalType": "uint256"
								},
								{
									"name": "decimals",
									"type": "uint256",
									"internalType": "uint256"
								},
								{
									"name": "currency",
									"type": "uint256",
									"internalType": "uint256"
								}
							]
						},
						{
							"name": "forwardedAmount",
							"type": "tuple",
							"internalType": "struct JBTokenAmount",
							"components": [
								{
									"name": "token",
									"type": "address",
									"internalType": "address"
								},
								{
									"name": "value",
									"type": "uint256",
									"internalType": "uint256"
								},
								{
									"name": "decimals",
									"type": "uint256",
									"internalType": "uint256"
								},
								{
									"name": "currency",
									"type": "uint256",
									"internalType": "uint256"
								}
							]
						},
						{
							"name": "weight",
							"type": "uint256",
							"internalType": "uint256"
						},
						{
							"name": "projectTokenCount",
							"type": "uint256",
							"internalType": "uint256"
						},
						{
							"name": "beneficiary",
							"type": "address",
							"internalType": "address"
						},
						{
							"name": "hookMetadata",
							"type": "bytes",
							"internalType": "bytes"
						},
						{
							"name": "payerMetadata",
							"type": "bytes",
							"internalType": "bytes"
						}
					]
				},
				{
					"name": "specificationAmount",
					"type": "uint256",
					"indexed": false,
					"internalType": "uint256"
				},
				{
					"name": "caller",
					"type": "address",
					"indexed": false,
					"internalType": "address"
				}
			],
			"anonymous": false
		},
		{
			"type": "event",
			"name": "MigrateTerminal",
			"inputs": [
				{
					"name": "projectId",
					"type": "uint256",
					"indexed": true,
					"internalType": "uint256"
				},
				{
					"name": "token",
					"type": "address",
					"indexed": true,
					"internalType": "address"
				},
				{
					"name": "to",
					"type": "address",
					"indexed": true,
					"internalType": "contract IJBTerminal"
				},
				{
					"name": "amount",
					"type": "uint256",
					"indexed": false,
					"internalType": "uint256"
				},
				{
					"name": "caller",
					"type": "address",
					"indexed": false,
					"internalType": "address"
				}
			],
			"anonymous": false
		},
		{
			"type": "event",
			"name": "OwnershipTransferred",
			"inputs": [
				{
					"name": "previousOwner",
					"type": "address",
					"indexed": true,
					"internalType": "address"
				},
				{
					"name": "newOwner",
					"type": "address",
					"indexed": true,
					"internalType": "address"
				}
			],
			"anonymous": false
		},
		{
			"type": "event",
			"name": "Pay",
			"inputs": [
				{
					"name": "rulesetId",
					"type": "uint256",
					"indexed": true,
					"internalType": "uint256"
				},
				{
					"name": "rulesetCycleNumber",
					"type": "uint256",
					"indexed": true,
					"internalType": "uint256"
				},
				{
					"name": "projectId",
					"type": "uint256",
					"indexed": true,
					"internalType": "uint256"
				},
				{
					"name": "payer",
					"type": "address",
					"indexed": false,
					"internalType": "address"
				},
				{
					"name": "beneficiary",
					"type": "address",
					"indexed": false,
					"internalType": "address"
				},
				{
					"name": "amount",
					"type": "uint256",
					"indexed": false,
					"internalType": "uint256"
				},
				{
					"name": "beneficiaryTokenCount",
					"type": "uint256",
					"indexed": false,
					"internalType": "uint256"
				},
				{
					"name": "memo",
					"type": "string",
					"indexed": false,
					"internalType": "string"
				},
				{
					"name": "metadata",
					"type": "bytes",
					"indexed": false,
					"internalType": "bytes"
				},
				{
					"name": "caller",
					"type": "address",
					"indexed": false,
					"internalType": "address"
				}
			],
			"anonymous": false
		},
		{
			"type": "event",
			"name": "SetAccountingContext",
			"inputs": [
				{
					"name": "projectId",
					"type": "uint256",
					"indexed": true,
					"internalType": "uint256"
				},
				{
					"name": "token",
					"type": "address",
					"indexed": true,
					"internalType": "address"
				},
				{
					"name": "context",
					"type": "tuple",
					"indexed": false,
					"internalType": "struct JBAccountingContext",
					"components": [
						{
							"name": "token",
							"type": "address",
							"internalType": "address"
						},
						{
							"name": "decimals",
							"type": "uint8",
							"internalType": "uint8"
						},
						{
							"name": "currency",
							"type": "uint32",
							"internalType": "uint32"
						}
					]
				},
				{
					"name": "caller",
					"type": "address",
					"indexed": false,
					"internalType": "address"
				}
			],
			"anonymous": false
		},
		{
			"type": "error",
			"name": "AddressEmptyCode",
			"inputs": [
				{
					"name": "target",
					"type": "address",
					"internalType": "address"
				}
			]
		},
		{
			"type": "error",
			"name": "AddressInsufficientBalance",
			"inputs": [
				{
					"name": "account",
					"type": "address",
					"internalType": "address"
				}
			]
		},
		{
			"type": "error",
			"name": "FailedInnerCall",
			"inputs": []
		},
		{
			"type": "error",
			"name": "MAX_SLIPPAGE",
			"inputs": [
				{
					"name": "",
					"type": "uint256",
					"internalType": "uint256"
				},
				{
					"name": "",
					"type": "uint256",
					"internalType": "uint256"
				}
			]
		},
		{
			"type": "error",
			"name": "NO_DEFAULT_POOL_DEFINED",
			"inputs": []
		},
		{
			"type": "error",
			"name": "NO_MSG_VALUE_ALLOWED",
			"inputs": []
		},
		{
			"type": "error",
			"name": "OwnableInvalidOwner",
			"inputs": [
				{
					"name": "owner",
					"type": "address",
					"internalType": "address"
				}
			]
		},
		{
			"type": "error",
			"name": "OwnableUnauthorizedAccount",
			"inputs": [
				{
					"name": "account",
					"type": "address",
					"internalType": "address"
				}
			]
		},
		{
			"type": "error",
			"name": "PERMIT_ALLOWANCE_NOT_ENOUGH",
			"inputs": []
		},
		{
			"type": "error",
			"name": "SafeERC20FailedOperation",
			"inputs": [
				{
					"name": "token",
					"type": "address",
					"internalType": "address"
				}
			]
		},
		{
			"type": "error",
			"name": "T",
			"inputs": []
		},
		{
			"type": "error",
			"name": "TOKEN_NOT_ACCEPTED",
			"inputs": []
		},
		{
			"type": "error",
			"name": "UNAUTHORIZED",
			"inputs": []
		},
		{
			"type": "error",
			"name": "UNSUPPORTED",
			"inputs": []
		}
	],
	"solcInputHash": "08926496babba510d0096adb24b79fad",
	"args": [
		"0xC99C2fCc0dC51dd0dAd1fd7B58236bB4d73bAaa8",
		"0xaDa1E1EE4576Da063EAD17d1ACf49254FA881F0E",
		"0xc9cb7a0BAB7569b5B6De26A679D107D4D412B349",
		"0x000000000022D473030F116dDEE9F6B43aC78BA3",
		"0x823b92d6a4b2AED4b15675c7917c9f922ea8ADAD",
		"0x7b79995e5f793A07Bc00c21412e50Ecae098E7f9",
		"0x000000000000000000000000000000000000EEEe"
	],
	"bytecode": "0x6101606040523480156200001257600080fd5b50604051620039fe380380620039fe83398101604081905262000035916200011a565b6001600160a01b03808716608052839081166200006c57604051631e4fbdf760e01b81526000600482015260240160405180910390fd5b6200007781620000b1565b506001600160a01b0396871660a05293861660c05291851660e0525083166101005290911661012081905261eeee146101405250620001c5565b600080546001600160a01b038381166001600160a01b0319831681178455604051919092169283917f8be0079c531659141344cd1fd0a4f28419497f9722a3daafe3b4186f6b6457e09190a35050565b6001600160a01b03811681146200011757600080fd5b50565b600080600080600080600060e0888a0312156200013657600080fd5b8751620001438162000101565b6020890151909750620001568162000101565b6040890151909650620001698162000101565b60608901519095506200017c8162000101565b60808901519094506200018f8162000101565b60a0890151909350620001a28162000101565b60c0890151909250620001b58162000101565b8091505092959891949750929550565b60805160a05160c05160e051610100516101205161014051613744620002ba60003960008181610e0a01528181611216015281816113cf015281816115b001528181611a790152611e9e0152600081816101eb01528181610d2601528181610e39015281816111320152818161124501526113f501526000818161015f015281816104d5015281816110260152818161141a0152818161150e0152611ab30152600081816103b201528181611d8f0152611fa901526000818161043a01528181610d51015261115f015260008181610257015281816106650152610ef5015260008181610588015261133a01526137446000f3fe60806040526004361061014f5760003560e01c80638da5cb5b116100b6578063cc6801271161006f578063cc68012714610517578063e28b54111461053b578063f2fde38b14610556578063f434c91414610576578063fa461e33146105aa578063fef43257146105ca57600080fd5b80638da5cb5b1461045c57806398ea47fc1461047a5780639e6eec051461049a578063ac905114146104ad578063ad5c4648146104c3578063c361534c146104f757600080fd5b806340873cb51161010857806340873cb51461032f578063515a9293146103735780636afdd850146103a0578063715018a6146103d45780637c5e9c24146103e957806388bc2ef31461042857600080fd5b806301ffc9a7146101a45780630392ef94146101d957806324e26dc514610225578063293c4999146102455780632c1ae882146102795780633a01714f1461029c57600080fd5b3661019f57336001600160a01b037f0000000000000000000000000000000000000000000000000000000000000000161461019d57604051635e7e9adf60e11b815260040160405180910390fd5b005b600080fd5b3480156101b057600080fd5b506101c46101bf366004612a0b565b6105dd565b60405190151581526020015b60405180910390f35b3480156101e557600080fd5b5061020d7f000000000000000000000000000000000000000000000000000000000000000081565b6040516001600160a01b0390911681526020016101d0565b34801561023157600080fd5b5061019d610240366004612a4a565b61062f565b34801561025157600080fd5b5061020d7f000000000000000000000000000000000000000000000000000000000000000081565b34801561028557600080fd5b5061028e600081565b6040519081526020016101d0565b3480156102a857600080fd5b506103226102b7366004612a8c565b604080516060808201835260008083526020808401829052928401819052948552600382528285206001600160a01b03948516865282529382902082519485018352549283168452600160a01b830460ff1690840152600160a81b90910463ffffffff169082015290565b6040516101d09190612abc565b34801561033b57600080fd5b5061034f61034a366004612a8c565b610871565b6040805163ffffffff90931683526001600160a01b039091166020830152016101d0565b34801561037f57600080fd5b5061039361038e366004612aef565b6108e7565b6040516101d09190612b08565b3480156103ac57600080fd5b5061020d7f000000000000000000000000000000000000000000000000000000000000000081565b3480156103e057600080fd5b5061019d610c66565b3480156103f557600080fd5b50610409610404366004612a8c565b610c7a565b604080516001600160a01b0390931683529015156020830152016101d0565b34801561043457600080fd5b5061020d7f000000000000000000000000000000000000000000000000000000000000000081565b34801561046857600080fd5b506000546001600160a01b031661020d565b34801561048657600080fd5b5061019d610495366004612b7c565b505050565b61019d6104a8366004612c4b565b610d08565b3480156104b957600080fd5b5061020d61271081565b3480156104cf57600080fd5b5061020d7f000000000000000000000000000000000000000000000000000000000000000081565b34801561050357600080fd5b5061019d610512366004612cf3565b610ebf565b34801561052357600080fd5b5061028e610532366004612d4f565b60009392505050565b34801561054757600080fd5b5061028e610532366004612a4a565b34801561056257600080fd5b5061019d610571366004612d7b565b610fb5565b34801561058257600080fd5b5061020d7f000000000000000000000000000000000000000000000000000000000000000081565b3480156105b657600080fd5b5061019d6105c5366004612d98565b610ff8565b61028e6105d8366004612deb565b611114565b60006001600160e01b03198216632f720bd160e21b148061060e57506001600160e01b031982166306afdd8560e41b145b8061062957506001600160e01b031982166301ffc9a760e01b145b92915050565b8215801561064757506000546001600160a01b031633145b6106e0576040516331a9108f60e11b8152600481018490526106e0907f00000000000000000000000000000000000000000000000000000000000000006001600160a01b031690636352211e90602401602060405180830381865afa1580156106b4573d6000803e3d6000fd5b505050506040513d601f19601f820116820180604052508101906106d89190612e9f565b84601a6112e2565b6040518060400160405280826001600160a01b031681526020016107026113cb565b6001600160a01b03908116858216908110909252600086815260026020908152604080832085845282529182902085518154968301511515600160a01b026001600160a81b0319909716941693909317949094179091558051606081018252828152815163313ce56760e01b815291519093848101939263313ce56792600480830193928290030181865afa15801561079f573d6000803e3d6000fd5b505050506040513d601f19601f820116820180604052508101906107c39190612ebc565b60ff908116825263ffffffff80861660209384015260008781526003845260408082206001600160a01b03988916808452908652818320875181548989015199850151909616600160a81b0263ffffffff60a81b1999909716600160a01b026001600160a81b03199096169a1699909917939093179590951692909217909555948552600481529084208054600181018255908552932090920180546001600160a01b031916909117905550565b60008281526001602090815260408083206001600160a01b038516845290915281205481908082036108d757506001600160a01b03831660009081527fa6eef7e35abe7026729641147f7915573c7e97b47efa546f5f6e3230263bcb4960205260409020545b915050602081901c5b9250929050565b600081815260046020908152604080832080548251818502810185019093528083526060949383018282801561094657602002820191906000526020600020905b81546001600160a01b03168152600190910190602001808311610928575b50506000808052600460209081527f17ef568e3e12ab5b9c7254a8d58478811de00f9e6eb34345acd53bf8fd09d3ec805460408051828502810185019091528181529798509296955093509091508301828280156109cd57602002820191906000526020600020905b81546001600160a01b031681526001909101906020018083116109af575b505050505090506000815183516109e49190612ef5565b67ffffffffffffffff8111156109fc576109fc612f08565b604051908082528060200260200182016040528015610a4757816020015b6040805160608101825260008082526020808301829052928201528252600019909201910181610a1a5790505b50835190915060005b8451811015610b0157600360008881526020019081526020016000206000868381518110610a8057610a80612f1e565b6020908102919091018101516001600160a01b039081168352828201939093526040918201600020825160608101845290549384168152600160a01b840460ff1691810191909152600160a81b90920463ffffffff16908201528351849083908110610aee57610aee612f1e565b6020908102919091010152600101610a50565b5060005b8351811015610c4f576000805b8651811015610b7757858381518110610b2d57610b2d612f1e565b60200260200101516001600160a01b0316878281518110610b5057610b50612f1e565b60200260200101516001600160a01b031603610b6f5760019150610b77565b600101610b12565b5080610c46576000808052600360205285517f3617319a054d772f909f7c479a2cebe5066e836a939412e32403c99029b92eff9190879085908110610bbe57610bbe612f1e565b6020908102919091018101516001600160a01b039081168352828201939093526040918201600020825160608101845290549384168152600160a01b840460ff1691810191909152600160a81b90920463ffffffff16908201528451859085908110610c2c57610c2c612f1e565b60200260200101819052508280610c4290612f34565b9350505b50600101610b05565b508151811015610c5d578082525b50949350505050565b610c6e61143c565b610c786000611469565b565b60008281526002602090815260408083206001600160a01b0385811685529252909120805491821691600160a01b900460ff169082610d00575050506001600160a01b0381811660009081527fac33ff75c19e70fe83507db0d683fd3465c996598dc972688b7ace676c89077b60205260409020805491821691600160a01b900460ff16905b509250929050565b604051630862026560e41b8152600481018990526001600160a01b037f0000000000000000000000000000000000000000000000000000000000000000811660248301526000917f000000000000000000000000000000000000000000000000000000000000000090911690638620265090604401602060405180830381865afa158015610d9a573d6000803e3d6000fd5b505050506040513d601f19601f82011682018060405250810190610dbe9190612e9f565b90506001600160a01b038116610de757604051630faa917b60e11b815260040160405180910390fd5b6000610df78a8a8a8588886114b9565b9050816001600160a01b0316639e6eec057f0000000000000000000000000000000000000000000000000000000000000000610e34576000610e36565b825b8c7f0000000000000000000000000000000000000000000000000000000000000000858c8c8c8c8c6040518a63ffffffff1660e01b8152600401610e81989796959493929190612f76565b6000604051808303818588803b158015610e9a57600080fd5b505af1158015610eae573d6000803e3d6000fd5b505050505050505050505050505050565b83158015610ed757506000546001600160a01b031633145b610f70576040516331a9108f60e11b815260048101859052610f70907f00000000000000000000000000000000000000000000000000000000000000006001600160a01b031690636352211e90602401602060405180830381865afa158015610f44573d6000803e3d6000fd5b505050506040513d601f19601f82011682018060405250810190610f689190612e9f565b85601b6112e2565b60009384526001602090815260408086206001600160a01b03959095168652938152929093209290911b640100000000600160c01b031663ffffffff91909116179055565b610fbd61143c565b6001600160a01b038116610fec57604051631e4fbdf760e01b8152600060048201526024015b60405180910390fd5b610ff581611469565b50565b60008061100783850185612fce565b91509150600080871261101a578661101c565b855b90508115611099577f00000000000000000000000000000000000000000000000000000000000000006001600160a01b031663d0e30db0826040518263ffffffff1660e01b81526004016000604051808303818588803b15801561107f57600080fd5b505af1158015611093573d6000803e3d6000fd5b50505050505b60405163a9059cbb60e01b8152336004820152602481018290526001600160a01b0384169063a9059cbb906044016020604051808303816000875af11580156110e6573d6000803e3d6000fd5b505050506040513d601f19601f8201168201806040525081019061110a9190612ffc565b5050505050505050565b604051630862026560e41b8152600481018a90526001600160a01b037f00000000000000000000000000000000000000000000000000000000000000008116602483015260009182917f00000000000000000000000000000000000000000000000000000000000000001690638620265090604401602060405180830381865afa1580156111a6573d6000803e3d6000fd5b505050506040513d601f19601f820116820180604052508101906111ca9190612e9f565b90506001600160a01b0381166111f357604051630faa917b60e11b815260040160405180910390fd5b60006112038c8c8c8589896114b9565b9050816001600160a01b031663fef432577f0000000000000000000000000000000000000000000000000000000000000000611240576000611242565b825b8e7f0000000000000000000000000000000000000000000000000000000000000000858e8e8e8e8e8e6040518b63ffffffff1660e01b815260040161128f99989796959493929190613019565b60206040518083038185885af11580156112ad573d6000803e3d6000fd5b50505050506040513d601f19601f820116820180604052508101906112d2919061307d565b509b9a5050505050505050505050565b336001600160a01b03841681148015906113a75750604051631a45b42760e11b81526001600160a01b0382811660048301528581166024830152604482018590526064820184905260016084830181905260a48301527f0000000000000000000000000000000000000000000000000000000000000000169063348b684e9060c401602060405180830381865afa158015611381573d6000803e3d6000fd5b505050506040513d601f19601f820116820180604052508101906113a59190612ffc565b155b156113c55760405163075fd2b160e01b815260040160405180910390fd5b50505050565b60007f000000000000000000000000000000000000000000000000000000000000000061141757507f000000000000000000000000000000000000000000000000000000000000000090565b507f000000000000000000000000000000000000000000000000000000000000000090565b6000546001600160a01b03163314610c785760405163118cdaa760e01b8152336004820152602401610fe3565b600080546001600160a01b038381166001600160a01b0319831681178455604051919092169283917f8be0079c531659141344cd1fd0a4f28419497f9722a3daafe3b4186f6b6457e09190a35050565b6040805160e081018252600060208201819052918101829052606081018290526080810182905260a0810182905260c081018290528781526001600160a01b03871661eeed1901611545576001600160a01b037f00000000000000000000000000000000000000000000000000000000000000001660408201526001606082015234608082015261155c565b6001600160a01b0387166040820152608081018690525b61156c84848a8460400151611624565b151560c08401526001600160a01b0316602083015260a082015261159181858561178d565b608082015260006115a06113cb565b9050816060015180156115d057507f00000000000000000000000000000000000000000000000000000000000000005b806115f05750806001600160a01b031682604001516001600160a01b0316145b15611601578160800151925061160d565b61160a82611917565b92505b611618868285611b21565b50509695505050505050565b600080600080600061169861165c6040518060400160405280600c81526020016b071756f7465466f72537761760a41b815250611b4d565b8a8a8080601f016020809104026020016040519081016040528093929190818152602001838380828437600092019190915250611b6192505050565b9150915081156116c257808060200190518101906116b69190613096565b91965094509250611781565b60008781526002602090815260408083206001600160a01b038a81168552925290912080549182169550600160a01b90910460ff1693508461176957506001600160a01b0386811660009081527fac33ff75c19e70fe83507db0d683fd3465c996598dc972688b7ace676c89077b6020526040902080549182169550600160a01b90910460ff1693508461176957604051632a12044160e21b815260040160405180910390fd5b611774858986611d06565b6001600160a01b03169550505b50509450945094915050565b6040830151606084015160009190156117a95734915050611910565b34156117c857604051635e7e9adf60e11b815260040160405180910390fd5b6000806118326117f6604051806040016040528060078152602001663832b936b4ba1960c91b815250611b4d565b87878080601f016020809104026020016040519081016040528093929190818152602001838380828437600092019190915250611b6192505050565b915091508115611892576000818060200190518101906118529190613167565b9050876080015181602001516001600160a01b03161015611886576040516317e415a160e11b815260040160405180910390fd5b6118908185611d8d565b505b6118a23330858a60800151611e8c565b6040516370a0823160e01b81523060048201526001600160a01b038416906370a0823190602401602060405180830381865afa1580156118e6573d6000803e3d6000fd5b505050506040513d601f19601f8201168201806040525081019061190a919061307d565b93505050505b9392505050565b6040810151600090816119286113cb565b6001600160a01b0316826001600160a01b031610905060008085602001516001600160a01b031663128acb0830858960800151876119845761197f600173fffd8963efd1fc6a506488495d951d5263988d26613267565b611994565b6119946401000276a3600161328e565b60608c810151604080516001600160a01b038e16602082015291151590820152016040516020818303038152906040526040518663ffffffff1660e01b81526004016119e49594939291906132da565b60408051808303816000875af1158015611a02573d6000803e3d6000fd5b505050506040513d601f19601f82011682018060405250810190611a269190613320565b9150915082611a355781611a37565b805b611a4090613344565b94508560a00151851015611a775760a0860151604051630bb50c5d60e41b8152610fe3918791600401918252602082015260400190565b7f000000000000000000000000000000000000000000000000000000000000000015611b1857604051632e1a7d4d60e01b8152600481018690527f00000000000000000000000000000000000000000000000000000000000000006001600160a01b031690632e1a7d4d90602401600060405180830381600087803b158015611aff57600080fd5b505af1158015611b13573d6000803e3d6000fd5b505050505b50505050919050565b61eeed196001600160a01b03831601611b3957505050565b6104956001600160a01b0383168483612001565b805160208201206000903060601b18610629565b600060606025835111611b8657505060408051602081019091526000808252906108e0565b600083611b9560046020612ef5565b81518110611ba557611ba5612f1e565b0160209081015160f81c91505b600085611bc0600484612ef5565b81518110611bd057611bd0612f1e565b01602001516001600160f81b03191614801590611bf65750611bf3602083613360565b81105b15611cfd57600085611c09600484612ef5565b81518110611c1957611c19612f1e565b016020908101518784019091015160f89190911c91506001600160e01b031980891690821603611cf3576000611c50602086613360565b611c5b600986612ef5565b101580611c90575087611c6f600986612ef5565b81518110611c7f57611c7f612f1e565b01602001516001600160f81b031916155b611cc957602088611ca2600987612ef5565b81518110611cb257611cb2612f1e565b0160200151611cc4919060f81c613360565b611ccc565b87515b90506001611ce589611cdf602087613360565b8461208b565b9650965050505050506108e0565b5050600501611bb2565b50509250929050565b6000806000611d158587610871565b915091506000611d2587846120d1565b5090506000611d338261231b565b905085611d6057612710611d478483613377565b611d5191906133bf565b611d5b908261328e565b611d81565b612710611d6d8483613377565b611d7791906133bf565b611d819082613267565b98975050505050505050565b7f00000000000000000000000000000000000000000000000000000000000000006001600160a01b0316632b67b5703360405180606001604052806040518060800160405280876001600160a01b0316815260200188602001516001600160a01b03168152602001886040015165ffffffffffff168152602001886060015165ffffffffffff168152508152602001306001600160a01b03168152602001866000015181525085608001516040518463ffffffff1660e01b8152600401611e56939291906133e5565b600060405180830381600087803b158015611e7057600080fd5b505af1158015611e84573d6000803e3d6000fd5b505050505050565b306001600160a01b03851603611ee5577f000000000000000000000000000000000000000000000000000000000000000015611ed157611ecc838261263e565b6113c5565b611ecc6001600160a01b03831684836126d5565b604051636eb1769f60e11b81526001600160a01b03858116600483015230602483015282919084169063dd62ed3e90604401602060405180830381865afa158015611f34573d6000803e3d6000fd5b505050506040513d601f19601f82011682018060405250810190611f58919061307d565b10611f7257611ecc6001600160a01b038316858584612734565b604051631b63c28b60e11b81526001600160a01b0385811660048301528481166024830152828116604483015283811660648301527f000000000000000000000000000000000000000000000000000000000000000016906336c7851690608401600060405180830381600087803b158015611fed57600080fd5b505af115801561110a573d6000803e3d6000fd5b604051636eb1769f60e11b81523060048201526001600160a01b0383811660248301526000919085169063dd62ed3e90604401602060405180830381865afa158015612051573d6000803e3d6000fd5b505050506040513d601f19601f82011682018060405250810190612075919061307d565b90506113c584846120868585612ef5565b61276d565b60608282036040519150602081830101604052808252508260208501016020820160005b848110156120c75782810151828201526020016120af565b5050509392505050565b6000808263ffffffff1660000361210f5760405162461bcd60e51b8152602060048201526002602482015261042560f41b6044820152606401610fe3565b604080516002808252606082018352600092602083019080368337019050509050838160008151811061214457612144612f1e565b602002602001019063ffffffff16908163ffffffff168152505060008160018151811061217357612173612f1e565b602002602001019063ffffffff16908163ffffffff1681525050600080866001600160a01b031663883bdbfd846040518263ffffffff1660e01b81526004016121bc9190613459565b600060405180830381865afa1580156121d9573d6000803e3d6000fd5b505050506040513d6000823e601f3d908101601f191682016040526122019190810190613533565b9150915060008260008151811061221a5761221a612f1e565b60200260200101518360018151811061223557612235612f1e565b602002602001015161224791906135ff565b905060008260008151811061225e5761225e612f1e565b60200260200101518360018151811061227957612279612f1e565b602002602001015161228b9190613267565b905061229d63ffffffff89168361362c565b965060008260060b1280156122c357506122bd63ffffffff89168361366a565b60060b15155b156122d657866122d28161368c565b9750505b60006122ef6001600160a01b0363ffffffff8b166136af565b905061230c640100000000600160c01b03602084901b16826136d8565b96505050505050509250929050565b60008060008360020b12612332578260020b61233a565b8260020b6000035b9050620d89e8811115612360576040516315e4079d60e11b815260040160405180910390fd5b60008160011660000361237757600160801b612389565b6ffffcb933bd6fad37aa2d162d1a5940015b70ffffffffffffffffffffffffffffffffff16905060028216156123bd576ffff97272373d413259a46990580e213a0260801c5b60048216156123dc576ffff2e50f5f656932ef12357cf3c7fdcc0260801c5b60088216156123fb576fffe5caca7e10e4e61c3624eaa0941cd00260801c5b601082161561241a576fffcb9843d60f6159c9db58835c9266440260801c5b6020821615612439576fff973b41fa98c081472e6896dfb254c00260801c5b6040821615612458576fff2ea16466c96a3843ec78b326b528610260801c5b6080821615612477576ffe5dee046a99a2a811c461f1969c30530260801c5b610100821615612497576ffcbe86c7900a88aedcffc83b479aa3a40260801c5b6102008216156124b7576ff987a7253ac413176f2b074cf7815e540260801c5b6104008216156124d7576ff3392b0822b70005940c7a398e4b70f30260801c5b6108008216156124f7576fe7159475a2c29b7443b29c7fa6e889d90260801c5b611000821615612517576fd097f3bdfd2022b8845ad8f792aa58250260801c5b612000821615612537576fa9f746462d870fdf8a65dc1f90e061e50260801c5b614000821615612557576f70d869a156d2a1b890bb3df62baf32f70260801c5b618000821615612577576f31be135f97d08fd981231505542fcfa60260801c5b62010000821615612598576f09aa508b5b7a84e1c677de54f3e99bc90260801c5b620200008216156125b8576e5d6af8dedb81196699c329225ee6040260801c5b620400008216156125d7576d2216e584f5fa1ea926041bedfe980260801c5b620800008216156125f4576b048a170391f7dc42444e8fa20260801c5b60008460020b1315612615578060001981612611576126116133a9565b0490505b64010000000081061561262957600161262c565b60005b60ff16602082901c0192505050919050565b804710156126615760405163cd78605960e01b8152306004820152602401610fe3565b6000826001600160a01b03168260405160006040518083038185875af1925050503d80600081146126ae576040519150601f19603f3d011682016040523d82523d6000602084013e6126b3565b606091505b505090508061049557604051630a12f52160e11b815260040160405180910390fd5b6040516001600160a01b0383811660248301526044820183905261049591859182169063a9059cbb906064015b604051602081830303815290604052915060e01b6020820180516001600160e01b0383818316178352505050506127f9565b6040516001600160a01b0384811660248301528381166044830152606482018390526113c59186918216906323b872dd90608401612702565b604080516001600160a01b038416602482015260448082018490528251808303909101815260649091019091526020810180516001600160e01b031663095ea7b360e01b1790526127be848261285c565b6113c5576040516001600160a01b038481166024830152600060448301526127f391869182169063095ea7b390606401612702565b6113c584825b600061280e6001600160a01b03841683612904565b905080516000141580156128335750808060200190518101906128319190612ffc565b155b1561049557604051635274afe760e01b81526001600160a01b0384166004820152602401610fe3565b6000806000846001600160a01b03168460405161287991906136f2565b6000604051808303816000865af19150503d80600081146128b6576040519150601f19603f3d011682016040523d82523d6000602084013e6128bb565b606091505b50915091508180156128e55750805115806128e55750808060200190518101906128e59190612ffc565b80156128fb57506000856001600160a01b03163b115b95945050505050565b60606119108383600084600080856001600160a01b0316848660405161292a91906136f2565b60006040518083038185875af1925050503d8060008114612967576040519150601f19603f3d011682016040523d82523d6000602084013e61296c565b606091505b509150915061297c868383612986565b9695505050505050565b60608261299b57612996826129e2565b611910565b81511580156129b257506001600160a01b0384163b155b156129db57604051639996b31560e01b81526001600160a01b0385166004820152602401610fe3565b5080611910565b8051156129f25780518082602001fd5b604051630a12f52160e11b815260040160405180910390fd5b600060208284031215612a1d57600080fd5b81356001600160e01b03198116811461191057600080fd5b6001600160a01b0381168114610ff557600080fd5b600080600060608486031215612a5f57600080fd5b833592506020840135612a7181612a35565b91506040840135612a8181612a35565b809150509250925092565b60008060408385031215612a9f57600080fd5b823591506020830135612ab181612a35565b809150509250929050565b81516001600160a01b0316815260208083015160ff169082015260408083015163ffffffff169082015260608101610629565b600060208284031215612b0157600080fd5b5035919050565b6020808252825182820181905260009190848201906040850190845b81811015612b7057612b5d83855180516001600160a01b0316825260208082015160ff169083015260409081015163ffffffff16910152565b9284019260609290920191600101612b24565b50909695505050505050565b600080600060408486031215612b9157600080fd5b83359250602084013567ffffffffffffffff80821115612bb057600080fd5b818601915086601f830112612bc457600080fd5b813581811115612bd357600080fd5b8760208260051b8501011115612be857600080fd5b6020830194508093505050509250925092565b8015158114610ff557600080fd5b60008083601f840112612c1b57600080fd5b50813567ffffffffffffffff811115612c3357600080fd5b6020830191508360208285010111156108e057600080fd5b60008060008060008060008060c0898b031215612c6757600080fd5b883597506020890135612c7981612a35565b9650604089013595506060890135612c9081612bfb565b9450608089013567ffffffffffffffff80821115612cad57600080fd5b612cb98c838d01612c09565b909650945060a08b0135915080821115612cd257600080fd5b50612cdf8b828c01612c09565b999c989b5096995094979396929594505050565b60008060008060808587031215612d0957600080fd5b843593506020850135612d1b81612a35565b9250604085013563ffffffff81168114612d3457600080fd5b91506060850135612d4481612a35565b939692955090935050565b600080600060608486031215612d6457600080fd5b505081359360208301359350604090920135919050565b600060208284031215612d8d57600080fd5b813561191081612a35565b60008060008060608587031215612dae57600080fd5b8435935060208501359250604085013567ffffffffffffffff811115612dd357600080fd5b612ddf87828801612c09565b95989497509550505050565b600080600080600080600080600060e08a8c031215612e0957600080fd5b8935985060208a0135612e1b81612a35565b975060408a0135965060608a0135612e3281612a35565b955060808a0135945060a08a013567ffffffffffffffff80821115612e5657600080fd5b612e628d838e01612c09565b909650945060c08c0135915080821115612e7b57600080fd5b50612e888c828d01612c09565b915080935050809150509295985092959850929598565b600060208284031215612eb157600080fd5b815161191081612a35565b600060208284031215612ece57600080fd5b815160ff8116811461191057600080fd5b634e487b7160e01b600052601160045260246000fd5b8082018082111561062957610629612edf565b634e487b7160e01b600052604160045260246000fd5b634e487b7160e01b600052603260045260246000fd5b600060018201612f4657612f46612edf565b5060010190565b81835281816020850137506000828201602090810191909152601f909101601f19169091010190565b88815260018060a01b0388166020820152866040820152851515606082015260c060808201526000612fac60c083018688612f4d565b82810360a0840152612fbf818587612f4d565b9b9a5050505050505050505050565b60008060408385031215612fe157600080fd5b8235612fec81612a35565b91506020830135612ab181612bfb565b60006020828403121561300e57600080fd5b815161191081612bfb565b8981526001600160a01b03898116602083015260408201899052871660608201526080810186905260e060a0820181905260009061305a9083018688612f4d565b82810360c084015261306d818587612f4d565b9c9b505050505050505050505050565b60006020828403121561308f57600080fd5b5051919050565b6000806000606084860312156130ab57600080fd5b8351925060208401516130bd81612a35565b6040850151909250612a8181612bfb565b60405160a0810167ffffffffffffffff811182821017156130f1576130f1612f08565b60405290565b604051601f8201601f1916810167ffffffffffffffff8111828210171561312057613120612f08565b604052919050565b805165ffffffffffff8116811461313e57600080fd5b919050565b60005b8381101561315e578181015183820152602001613146565b50506000910152565b6000602080838503121561317a57600080fd5b825167ffffffffffffffff8082111561319257600080fd5b9084019060a082870312156131a657600080fd5b6131ae6130ce565b82518152838301516131bf81612a35565b818501526131cf60408401613128565b60408201526131e060608401613128565b60608201526080830151828111156131f757600080fd5b80840193505086601f84011261320c57600080fd5b82518281111561321e5761321e612f08565b613230601f8201601f191686016130f7565b9250808352878582860101111561324657600080fd5b61325581868501878701613143565b50608081019190915295945050505050565b6001600160a01b0382811682821603908082111561328757613287612edf565b5092915050565b6001600160a01b0381811683821601908082111561328757613287612edf565b600081518084526132c6816020860160208601613143565b601f01601f19169290920160200192915050565b6001600160a01b0386811682528515156020830152604082018590528316606082015260a060808201819052600090613315908301846132ae565b979650505050505050565b6000806040838503121561333357600080fd5b505080516020909101519092909150565b6000600160ff1b820161335957613359612edf565b5060000390565b808202811582820484141761062957610629612edf565b6001600160a01b038281168282168181028316929181158285048214176133a0576133a0612edf565b50505092915050565b634e487b7160e01b600052601260045260246000fd5b60006001600160a01b03838116806133d9576133d96133a9565b92169190910492915050565b600061010060018060a01b0380871684528551818151166020860152816020820151166040860152604081015165ffffffffffff80821660608801528060608401511660808801525050508060208701511660a085015250604085015160c08401528060e084015261297c818401856132ae565b6020808252825182820181905260009190848201906040850190845b81811015612b7057835163ffffffff1683529284019291840191600101613475565b600067ffffffffffffffff8211156134b1576134b1612f08565b5060051b60200190565b600082601f8301126134cc57600080fd5b815160206134e16134dc83613497565b6130f7565b8083825260208201915060208460051b87010193508684111561350357600080fd5b602086015b8481101561352857805161351b81612a35565b8352918301918301613508565b509695505050505050565b6000806040838503121561354657600080fd5b825167ffffffffffffffff8082111561355e57600080fd5b818501915085601f83011261357257600080fd5b815160206135826134dc83613497565b82815260059290921b840181019181810190898411156135a157600080fd5b948201945b838610156135cf5785518060060b81146135c05760008081fd5b825294820194908201906135a6565b918801519196509093505050808211156135e857600080fd5b506135f5858286016134bb565b9150509250929050565b600682810b9082900b03667fffffffffffff198112667fffffffffffff8213171561062957610629612edf565b60008160060b8360060b80613643576136436133a9565b667fffffffffffff1982146000198214161561366157613661612edf565b90059392505050565b60008260060b8061367d5761367d6133a9565b808360060b0791505092915050565b60008160020b627fffff1981036136a5576136a5612edf565b6000190192915050565b6001600160c01b038281168282168181028316929181158285048214176133a0576133a0612edf565b60006001600160c01b03838116806133d9576133d96133a9565b60008251613704818460208701613143565b919091019291505056fea26469706673582212207b39915ab585e3e176274250b326d71b38914c91e7044af3221ea38eebdb7d8b64736f6c63430008170033",
	"deployedBytecode": "0x60806040526004361061014f5760003560e01c80638da5cb5b116100b6578063cc6801271161006f578063cc68012714610517578063e28b54111461053b578063f2fde38b14610556578063f434c91414610576578063fa461e33146105aa578063fef43257146105ca57600080fd5b80638da5cb5b1461045c57806398ea47fc1461047a5780639e6eec051461049a578063ac905114146104ad578063ad5c4648146104c3578063c361534c146104f757600080fd5b806340873cb51161010857806340873cb51461032f578063515a9293146103735780636afdd850146103a0578063715018a6146103d45780637c5e9c24146103e957806388bc2ef31461042857600080fd5b806301ffc9a7146101a45780630392ef94146101d957806324e26dc514610225578063293c4999146102455780632c1ae882146102795780633a01714f1461029c57600080fd5b3661019f57336001600160a01b037f0000000000000000000000007b79995e5f793a07bc00c21412e50ecae098e7f9161461019d57604051635e7e9adf60e11b815260040160405180910390fd5b005b600080fd5b3480156101b057600080fd5b506101c46101bf366004612a0b565b6105dd565b60405190151581526020015b60405180910390f35b3480156101e557600080fd5b5061020d7f000000000000000000000000000000000000000000000000000000000000eeee81565b6040516001600160a01b0390911681526020016101d0565b34801561023157600080fd5b5061019d610240366004612a4a565b61062f565b34801561025157600080fd5b5061020d7f000000000000000000000000c99c2fcc0dc51dd0dad1fd7b58236bb4d73baaa881565b34801561028557600080fd5b5061028e600081565b6040519081526020016101d0565b3480156102a857600080fd5b506103226102b7366004612a8c565b604080516060808201835260008083526020808401829052928401819052948552600382528285206001600160a01b03948516865282529382902082519485018352549283168452600160a01b830460ff1690840152600160a81b90910463ffffffff169082015290565b6040516101d09190612abc565b34801561033b57600080fd5b5061034f61034a366004612a8c565b610871565b6040805163ffffffff90931683526001600160a01b039091166020830152016101d0565b34801561037f57600080fd5b5061039361038e366004612aef565b6108e7565b6040516101d09190612b08565b3480156103ac57600080fd5b5061020d7f000000000000000000000000000000000022d473030f116ddee9f6b43ac78ba381565b3480156103e057600080fd5b5061019d610c66565b3480156103f557600080fd5b50610409610404366004612a8c565b610c7a565b604080516001600160a01b0390931683529015156020830152016101d0565b34801561043457600080fd5b5061020d7f000000000000000000000000c9cb7a0bab7569b5b6de26a679d107d4d412b34981565b34801561046857600080fd5b506000546001600160a01b031661020d565b34801561048657600080fd5b5061019d610495366004612b7c565b505050565b61019d6104a8366004612c4b565b610d08565b3480156104b957600080fd5b5061020d61271081565b3480156104cf57600080fd5b5061020d7f0000000000000000000000007b79995e5f793a07bc00c21412e50ecae098e7f981565b34801561050357600080fd5b5061019d610512366004612cf3565b610ebf565b34801561052357600080fd5b5061028e610532366004612d4f565b60009392505050565b34801561054757600080fd5b5061028e610532366004612a4a565b34801561056257600080fd5b5061019d610571366004612d7b565b610fb5565b34801561058257600080fd5b5061020d7f000000000000000000000000ada1e1ee4576da063ead17d1acf49254fa881f0e81565b3480156105b657600080fd5b5061019d6105c5366004612d98565b610ff8565b61028e6105d8366004612deb565b611114565b60006001600160e01b03198216632f720bd160e21b148061060e57506001600160e01b031982166306afdd8560e41b145b8061062957506001600160e01b031982166301ffc9a760e01b145b92915050565b8215801561064757506000546001600160a01b031633145b6106e0576040516331a9108f60e11b8152600481018490526106e0907f000000000000000000000000c99c2fcc0dc51dd0dad1fd7b58236bb4d73baaa86001600160a01b031690636352211e90602401602060405180830381865afa1580156106b4573d6000803e3d6000fd5b505050506040513d601f19601f820116820180604052508101906106d89190612e9f565b84601a6112e2565b6040518060400160405280826001600160a01b031681526020016107026113cb565b6001600160a01b03908116858216908110909252600086815260026020908152604080832085845282529182902085518154968301511515600160a01b026001600160a81b0319909716941693909317949094179091558051606081018252828152815163313ce56760e01b815291519093848101939263313ce56792600480830193928290030181865afa15801561079f573d6000803e3d6000fd5b505050506040513d601f19601f820116820180604052508101906107c39190612ebc565b60ff908116825263ffffffff80861660209384015260008781526003845260408082206001600160a01b03988916808452908652818320875181548989015199850151909616600160a81b0263ffffffff60a81b1999909716600160a01b026001600160a81b03199096169a1699909917939093179590951692909217909555948552600481529084208054600181018255908552932090920180546001600160a01b031916909117905550565b60008281526001602090815260408083206001600160a01b038516845290915281205481908082036108d757506001600160a01b03831660009081527fa6eef7e35abe7026729641147f7915573c7e97b47efa546f5f6e3230263bcb4960205260409020545b915050602081901c5b9250929050565b600081815260046020908152604080832080548251818502810185019093528083526060949383018282801561094657602002820191906000526020600020905b81546001600160a01b03168152600190910190602001808311610928575b50506000808052600460209081527f17ef568e3e12ab5b9c7254a8d58478811de00f9e6eb34345acd53bf8fd09d3ec805460408051828502810185019091528181529798509296955093509091508301828280156109cd57602002820191906000526020600020905b81546001600160a01b031681526001909101906020018083116109af575b505050505090506000815183516109e49190612ef5565b67ffffffffffffffff8111156109fc576109fc612f08565b604051908082528060200260200182016040528015610a4757816020015b6040805160608101825260008082526020808301829052928201528252600019909201910181610a1a5790505b50835190915060005b8451811015610b0157600360008881526020019081526020016000206000868381518110610a8057610a80612f1e565b6020908102919091018101516001600160a01b039081168352828201939093526040918201600020825160608101845290549384168152600160a01b840460ff1691810191909152600160a81b90920463ffffffff16908201528351849083908110610aee57610aee612f1e565b6020908102919091010152600101610a50565b5060005b8351811015610c4f576000805b8651811015610b7757858381518110610b2d57610b2d612f1e565b60200260200101516001600160a01b0316878281518110610b5057610b50612f1e565b60200260200101516001600160a01b031603610b6f5760019150610b77565b600101610b12565b5080610c46576000808052600360205285517f3617319a054d772f909f7c479a2cebe5066e836a939412e32403c99029b92eff9190879085908110610bbe57610bbe612f1e565b6020908102919091018101516001600160a01b039081168352828201939093526040918201600020825160608101845290549384168152600160a01b840460ff1691810191909152600160a81b90920463ffffffff16908201528451859085908110610c2c57610c2c612f1e565b60200260200101819052508280610c4290612f34565b9350505b50600101610b05565b508151811015610c5d578082525b50949350505050565b610c6e61143c565b610c786000611469565b565b60008281526002602090815260408083206001600160a01b0385811685529252909120805491821691600160a01b900460ff169082610d00575050506001600160a01b0381811660009081527fac33ff75c19e70fe83507db0d683fd3465c996598dc972688b7ace676c89077b60205260409020805491821691600160a01b900460ff16905b509250929050565b604051630862026560e41b8152600481018990526001600160a01b037f000000000000000000000000000000000000000000000000000000000000eeee811660248301526000917f000000000000000000000000c9cb7a0bab7569b5b6de26a679d107d4d412b34990911690638620265090604401602060405180830381865afa158015610d9a573d6000803e3d6000fd5b505050506040513d601f19601f82011682018060405250810190610dbe9190612e9f565b90506001600160a01b038116610de757604051630faa917b60e11b815260040160405180910390fd5b6000610df78a8a8a8588886114b9565b9050816001600160a01b0316639e6eec057f0000000000000000000000000000000000000000000000000000000000000001610e34576000610e36565b825b8c7f000000000000000000000000000000000000000000000000000000000000eeee858c8c8c8c8c6040518a63ffffffff1660e01b8152600401610e81989796959493929190612f76565b6000604051808303818588803b158015610e9a57600080fd5b505af1158015610eae573d6000803e3d6000fd5b505050505050505050505050505050565b83158015610ed757506000546001600160a01b031633145b610f70576040516331a9108f60e11b815260048101859052610f70907f000000000000000000000000c99c2fcc0dc51dd0dad1fd7b58236bb4d73baaa86001600160a01b031690636352211e90602401602060405180830381865afa158015610f44573d6000803e3d6000fd5b505050506040513d601f19601f82011682018060405250810190610f689190612e9f565b85601b6112e2565b60009384526001602090815260408086206001600160a01b03959095168652938152929093209290911b640100000000600160c01b031663ffffffff91909116179055565b610fbd61143c565b6001600160a01b038116610fec57604051631e4fbdf760e01b8152600060048201526024015b60405180910390fd5b610ff581611469565b50565b60008061100783850185612fce565b91509150600080871261101a578661101c565b855b90508115611099577f0000000000000000000000007b79995e5f793a07bc00c21412e50ecae098e7f96001600160a01b031663d0e30db0826040518263ffffffff1660e01b81526004016000604051808303818588803b15801561107f57600080fd5b505af1158015611093573d6000803e3d6000fd5b50505050505b60405163a9059cbb60e01b8152336004820152602481018290526001600160a01b0384169063a9059cbb906044016020604051808303816000875af11580156110e6573d6000803e3d6000fd5b505050506040513d601f19601f8201168201806040525081019061110a9190612ffc565b5050505050505050565b604051630862026560e41b8152600481018a90526001600160a01b037f000000000000000000000000000000000000000000000000000000000000eeee8116602483015260009182917f000000000000000000000000c9cb7a0bab7569b5b6de26a679d107d4d412b3491690638620265090604401602060405180830381865afa1580156111a6573d6000803e3d6000fd5b505050506040513d601f19601f820116820180604052508101906111ca9190612e9f565b90506001600160a01b0381166111f357604051630faa917b60e11b815260040160405180910390fd5b60006112038c8c8c8589896114b9565b9050816001600160a01b031663fef432577f0000000000000000000000000000000000000000000000000000000000000001611240576000611242565b825b8e7f000000000000000000000000000000000000000000000000000000000000eeee858e8e8e8e8e8e6040518b63ffffffff1660e01b815260040161128f99989796959493929190613019565b60206040518083038185885af11580156112ad573d6000803e3d6000fd5b50505050506040513d601f19601f820116820180604052508101906112d2919061307d565b509b9a5050505050505050505050565b336001600160a01b03841681148015906113a75750604051631a45b42760e11b81526001600160a01b0382811660048301528581166024830152604482018590526064820184905260016084830181905260a48301527f000000000000000000000000ada1e1ee4576da063ead17d1acf49254fa881f0e169063348b684e9060c401602060405180830381865afa158015611381573d6000803e3d6000fd5b505050506040513d601f19601f820116820180604052508101906113a59190612ffc565b155b156113c55760405163075fd2b160e01b815260040160405180910390fd5b50505050565b60007f000000000000000000000000000000000000000000000000000000000000000161141757507f000000000000000000000000000000000000000000000000000000000000eeee90565b507f0000000000000000000000007b79995e5f793a07bc00c21412e50ecae098e7f990565b6000546001600160a01b03163314610c785760405163118cdaa760e01b8152336004820152602401610fe3565b600080546001600160a01b038381166001600160a01b0319831681178455604051919092169283917f8be0079c531659141344cd1fd0a4f28419497f9722a3daafe3b4186f6b6457e09190a35050565b6040805160e081018252600060208201819052918101829052606081018290526080810182905260a0810182905260c081018290528781526001600160a01b03871661eeed1901611545576001600160a01b037f0000000000000000000000007b79995e5f793a07bc00c21412e50ecae098e7f91660408201526001606082015234608082015261155c565b6001600160a01b0387166040820152608081018690525b61156c84848a8460400151611624565b151560c08401526001600160a01b0316602083015260a082015261159181858561178d565b608082015260006115a06113cb565b9050816060015180156115d057507f00000000000000000000000000000000000000000000000000000000000000015b806115f05750806001600160a01b031682604001516001600160a01b0316145b15611601578160800151925061160d565b61160a82611917565b92505b611618868285611b21565b50509695505050505050565b600080600080600061169861165c6040518060400160405280600c81526020016b071756f7465466f72537761760a41b815250611b4d565b8a8a8080601f016020809104026020016040519081016040528093929190818152602001838380828437600092019190915250611b6192505050565b9150915081156116c257808060200190518101906116b69190613096565b91965094509250611781565b60008781526002602090815260408083206001600160a01b038a81168552925290912080549182169550600160a01b90910460ff1693508461176957506001600160a01b0386811660009081527fac33ff75c19e70fe83507db0d683fd3465c996598dc972688b7ace676c89077b6020526040902080549182169550600160a01b90910460ff1693508461176957604051632a12044160e21b815260040160405180910390fd5b611774858986611d06565b6001600160a01b03169550505b50509450945094915050565b6040830151606084015160009190156117a95734915050611910565b34156117c857604051635e7e9adf60e11b815260040160405180910390fd5b6000806118326117f6604051806040016040528060078152602001663832b936b4ba1960c91b815250611b4d565b87878080601f016020809104026020016040519081016040528093929190818152602001838380828437600092019190915250611b6192505050565b915091508115611892576000818060200190518101906118529190613167565b9050876080015181602001516001600160a01b03161015611886576040516317e415a160e11b815260040160405180910390fd5b6118908185611d8d565b505b6118a23330858a60800151611e8c565b6040516370a0823160e01b81523060048201526001600160a01b038416906370a0823190602401602060405180830381865afa1580156118e6573d6000803e3d6000fd5b505050506040513d601f19601f8201168201806040525081019061190a919061307d565b93505050505b9392505050565b6040810151600090816119286113cb565b6001600160a01b0316826001600160a01b031610905060008085602001516001600160a01b031663128acb0830858960800151876119845761197f600173fffd8963efd1fc6a506488495d951d5263988d26613267565b611994565b6119946401000276a3600161328e565b60608c810151604080516001600160a01b038e16602082015291151590820152016040516020818303038152906040526040518663ffffffff1660e01b81526004016119e49594939291906132da565b60408051808303816000875af1158015611a02573d6000803e3d6000fd5b505050506040513d601f19601f82011682018060405250810190611a269190613320565b9150915082611a355781611a37565b805b611a4090613344565b94508560a00151851015611a775760a0860151604051630bb50c5d60e41b8152610fe3918791600401918252602082015260400190565b7f000000000000000000000000000000000000000000000000000000000000000115611b1857604051632e1a7d4d60e01b8152600481018690527f0000000000000000000000007b79995e5f793a07bc00c21412e50ecae098e7f96001600160a01b031690632e1a7d4d90602401600060405180830381600087803b158015611aff57600080fd5b505af1158015611b13573d6000803e3d6000fd5b505050505b50505050919050565b61eeed196001600160a01b03831601611b3957505050565b6104956001600160a01b0383168483612001565b805160208201206000903060601b18610629565b600060606025835111611b8657505060408051602081019091526000808252906108e0565b600083611b9560046020612ef5565b81518110611ba557611ba5612f1e565b0160209081015160f81c91505b600085611bc0600484612ef5565b81518110611bd057611bd0612f1e565b01602001516001600160f81b03191614801590611bf65750611bf3602083613360565b81105b15611cfd57600085611c09600484612ef5565b81518110611c1957611c19612f1e565b016020908101518784019091015160f89190911c91506001600160e01b031980891690821603611cf3576000611c50602086613360565b611c5b600986612ef5565b101580611c90575087611c6f600986612ef5565b81518110611c7f57611c7f612f1e565b01602001516001600160f81b031916155b611cc957602088611ca2600987612ef5565b81518110611cb257611cb2612f1e565b0160200151611cc4919060f81c613360565b611ccc565b87515b90506001611ce589611cdf602087613360565b8461208b565b9650965050505050506108e0565b5050600501611bb2565b50509250929050565b6000806000611d158587610871565b915091506000611d2587846120d1565b5090506000611d338261231b565b905085611d6057612710611d478483613377565b611d5191906133bf565b611d5b908261328e565b611d81565b612710611d6d8483613377565b611d7791906133bf565b611d819082613267565b98975050505050505050565b7f000000000000000000000000000000000022d473030f116ddee9f6b43ac78ba36001600160a01b0316632b67b5703360405180606001604052806040518060800160405280876001600160a01b0316815260200188602001516001600160a01b03168152602001886040015165ffffffffffff168152602001886060015165ffffffffffff168152508152602001306001600160a01b03168152602001866000015181525085608001516040518463ffffffff1660e01b8152600401611e56939291906133e5565b600060405180830381600087803b158015611e7057600080fd5b505af1158015611e84573d6000803e3d6000fd5b505050505050565b306001600160a01b03851603611ee5577f000000000000000000000000000000000000000000000000000000000000000115611ed157611ecc838261263e565b6113c5565b611ecc6001600160a01b03831684836126d5565b604051636eb1769f60e11b81526001600160a01b03858116600483015230602483015282919084169063dd62ed3e90604401602060405180830381865afa158015611f34573d6000803e3d6000fd5b505050506040513d601f19601f82011682018060405250810190611f58919061307d565b10611f7257611ecc6001600160a01b038316858584612734565b604051631b63c28b60e11b81526001600160a01b0385811660048301528481166024830152828116604483015283811660648301527f000000000000000000000000000000000022d473030f116ddee9f6b43ac78ba316906336c7851690608401600060405180830381600087803b158015611fed57600080fd5b505af115801561110a573d6000803e3d6000fd5b604051636eb1769f60e11b81523060048201526001600160a01b0383811660248301526000919085169063dd62ed3e90604401602060405180830381865afa158015612051573d6000803e3d6000fd5b505050506040513d601f19601f82011682018060405250810190612075919061307d565b90506113c584846120868585612ef5565b61276d565b60608282036040519150602081830101604052808252508260208501016020820160005b848110156120c75782810151828201526020016120af565b5050509392505050565b6000808263ffffffff1660000361210f5760405162461bcd60e51b8152602060048201526002602482015261042560f41b6044820152606401610fe3565b604080516002808252606082018352600092602083019080368337019050509050838160008151811061214457612144612f1e565b602002602001019063ffffffff16908163ffffffff168152505060008160018151811061217357612173612f1e565b602002602001019063ffffffff16908163ffffffff1681525050600080866001600160a01b031663883bdbfd846040518263ffffffff1660e01b81526004016121bc9190613459565b600060405180830381865afa1580156121d9573d6000803e3d6000fd5b505050506040513d6000823e601f3d908101601f191682016040526122019190810190613533565b9150915060008260008151811061221a5761221a612f1e565b60200260200101518360018151811061223557612235612f1e565b602002602001015161224791906135ff565b905060008260008151811061225e5761225e612f1e565b60200260200101518360018151811061227957612279612f1e565b602002602001015161228b9190613267565b905061229d63ffffffff89168361362c565b965060008260060b1280156122c357506122bd63ffffffff89168361366a565b60060b15155b156122d657866122d28161368c565b9750505b60006122ef6001600160a01b0363ffffffff8b166136af565b905061230c640100000000600160c01b03602084901b16826136d8565b96505050505050509250929050565b60008060008360020b12612332578260020b61233a565b8260020b6000035b9050620d89e8811115612360576040516315e4079d60e11b815260040160405180910390fd5b60008160011660000361237757600160801b612389565b6ffffcb933bd6fad37aa2d162d1a5940015b70ffffffffffffffffffffffffffffffffff16905060028216156123bd576ffff97272373d413259a46990580e213a0260801c5b60048216156123dc576ffff2e50f5f656932ef12357cf3c7fdcc0260801c5b60088216156123fb576fffe5caca7e10e4e61c3624eaa0941cd00260801c5b601082161561241a576fffcb9843d60f6159c9db58835c9266440260801c5b6020821615612439576fff973b41fa98c081472e6896dfb254c00260801c5b6040821615612458576fff2ea16466c96a3843ec78b326b528610260801c5b6080821615612477576ffe5dee046a99a2a811c461f1969c30530260801c5b610100821615612497576ffcbe86c7900a88aedcffc83b479aa3a40260801c5b6102008216156124b7576ff987a7253ac413176f2b074cf7815e540260801c5b6104008216156124d7576ff3392b0822b70005940c7a398e4b70f30260801c5b6108008216156124f7576fe7159475a2c29b7443b29c7fa6e889d90260801c5b611000821615612517576fd097f3bdfd2022b8845ad8f792aa58250260801c5b612000821615612537576fa9f746462d870fdf8a65dc1f90e061e50260801c5b614000821615612557576f70d869a156d2a1b890bb3df62baf32f70260801c5b618000821615612577576f31be135f97d08fd981231505542fcfa60260801c5b62010000821615612598576f09aa508b5b7a84e1c677de54f3e99bc90260801c5b620200008216156125b8576e5d6af8dedb81196699c329225ee6040260801c5b620400008216156125d7576d2216e584f5fa1ea926041bedfe980260801c5b620800008216156125f4576b048a170391f7dc42444e8fa20260801c5b60008460020b1315612615578060001981612611576126116133a9565b0490505b64010000000081061561262957600161262c565b60005b60ff16602082901c0192505050919050565b804710156126615760405163cd78605960e01b8152306004820152602401610fe3565b6000826001600160a01b03168260405160006040518083038185875af1925050503d80600081146126ae576040519150601f19603f3d011682016040523d82523d6000602084013e6126b3565b606091505b505090508061049557604051630a12f52160e11b815260040160405180910390fd5b6040516001600160a01b0383811660248301526044820183905261049591859182169063a9059cbb906064015b604051602081830303815290604052915060e01b6020820180516001600160e01b0383818316178352505050506127f9565b6040516001600160a01b0384811660248301528381166044830152606482018390526113c59186918216906323b872dd90608401612702565b604080516001600160a01b038416602482015260448082018490528251808303909101815260649091019091526020810180516001600160e01b031663095ea7b360e01b1790526127be848261285c565b6113c5576040516001600160a01b038481166024830152600060448301526127f391869182169063095ea7b390606401612702565b6113c584825b600061280e6001600160a01b03841683612904565b905080516000141580156128335750808060200190518101906128319190612ffc565b155b1561049557604051635274afe760e01b81526001600160a01b0384166004820152602401610fe3565b6000806000846001600160a01b03168460405161287991906136f2565b6000604051808303816000865af19150503d80600081146128b6576040519150601f19603f3d011682016040523d82523d6000602084013e6128bb565b606091505b50915091508180156128e55750805115806128e55750808060200190518101906128e59190612ffc565b80156128fb57506000856001600160a01b03163b115b95945050505050565b60606119108383600084600080856001600160a01b0316848660405161292a91906136f2565b60006040518083038185875af1925050503d8060008114612967576040519150601f19603f3d011682016040523d82523d6000602084013e61296c565b606091505b509150915061297c868383612986565b9695505050505050565b60608261299b57612996826129e2565b611910565b81511580156129b257506001600160a01b0384163b155b156129db57604051639996b31560e01b81526001600160a01b0385166004820152602401610fe3565b5080611910565b8051156129f25780518082602001fd5b604051630a12f52160e11b815260040160405180910390fd5b600060208284031215612a1d57600080fd5b81356001600160e01b03198116811461191057600080fd5b6001600160a01b0381168114610ff557600080fd5b600080600060608486031215612a5f57600080fd5b833592506020840135612a7181612a35565b91506040840135612a8181612a35565b809150509250925092565b60008060408385031215612a9f57600080fd5b823591506020830135612ab181612a35565b809150509250929050565b81516001600160a01b0316815260208083015160ff169082015260408083015163ffffffff169082015260608101610629565b600060208284031215612b0157600080fd5b5035919050565b6020808252825182820181905260009190848201906040850190845b81811015612b7057612b5d83855180516001600160a01b0316825260208082015160ff169083015260409081015163ffffffff16910152565b9284019260609290920191600101612b24565b50909695505050505050565b600080600060408486031215612b9157600080fd5b83359250602084013567ffffffffffffffff80821115612bb057600080fd5b818601915086601f830112612bc457600080fd5b813581811115612bd357600080fd5b8760208260051b8501011115612be857600080fd5b6020830194508093505050509250925092565b8015158114610ff557600080fd5b60008083601f840112612c1b57600080fd5b50813567ffffffffffffffff811115612c3357600080fd5b6020830191508360208285010111156108e057600080fd5b60008060008060008060008060c0898b031215612c6757600080fd5b883597506020890135612c7981612a35565b9650604089013595506060890135612c9081612bfb565b9450608089013567ffffffffffffffff80821115612cad57600080fd5b612cb98c838d01612c09565b909650945060a08b0135915080821115612cd257600080fd5b50612cdf8b828c01612c09565b999c989b5096995094979396929594505050565b60008060008060808587031215612d0957600080fd5b843593506020850135612d1b81612a35565b9250604085013563ffffffff81168114612d3457600080fd5b91506060850135612d4481612a35565b939692955090935050565b600080600060608486031215612d6457600080fd5b505081359360208301359350604090920135919050565b600060208284031215612d8d57600080fd5b813561191081612a35565b60008060008060608587031215612dae57600080fd5b8435935060208501359250604085013567ffffffffffffffff811115612dd357600080fd5b612ddf87828801612c09565b95989497509550505050565b600080600080600080600080600060e08a8c031215612e0957600080fd5b8935985060208a0135612e1b81612a35565b975060408a0135965060608a0135612e3281612a35565b955060808a0135945060a08a013567ffffffffffffffff80821115612e5657600080fd5b612e628d838e01612c09565b909650945060c08c0135915080821115612e7b57600080fd5b50612e888c828d01612c09565b915080935050809150509295985092959850929598565b600060208284031215612eb157600080fd5b815161191081612a35565b600060208284031215612ece57600080fd5b815160ff8116811461191057600080fd5b634e487b7160e01b600052601160045260246000fd5b8082018082111561062957610629612edf565b634e487b7160e01b600052604160045260246000fd5b634e487b7160e01b600052603260045260246000fd5b600060018201612f4657612f46612edf565b5060010190565b81835281816020850137506000828201602090810191909152601f909101601f19169091010190565b88815260018060a01b0388166020820152866040820152851515606082015260c060808201526000612fac60c083018688612f4d565b82810360a0840152612fbf818587612f4d565b9b9a5050505050505050505050565b60008060408385031215612fe157600080fd5b8235612fec81612a35565b91506020830135612ab181612bfb565b60006020828403121561300e57600080fd5b815161191081612bfb565b8981526001600160a01b03898116602083015260408201899052871660608201526080810186905260e060a0820181905260009061305a9083018688612f4d565b82810360c084015261306d818587612f4d565b9c9b505050505050505050505050565b60006020828403121561308f57600080fd5b5051919050565b6000806000606084860312156130ab57600080fd5b8351925060208401516130bd81612a35565b6040850151909250612a8181612bfb565b60405160a0810167ffffffffffffffff811182821017156130f1576130f1612f08565b60405290565b604051601f8201601f1916810167ffffffffffffffff8111828210171561312057613120612f08565b604052919050565b805165ffffffffffff8116811461313e57600080fd5b919050565b60005b8381101561315e578181015183820152602001613146565b50506000910152565b6000602080838503121561317a57600080fd5b825167ffffffffffffffff8082111561319257600080fd5b9084019060a082870312156131a657600080fd5b6131ae6130ce565b82518152838301516131bf81612a35565b818501526131cf60408401613128565b60408201526131e060608401613128565b60608201526080830151828111156131f757600080fd5b80840193505086601f84011261320c57600080fd5b82518281111561321e5761321e612f08565b613230601f8201601f191686016130f7565b9250808352878582860101111561324657600080fd5b61325581868501878701613143565b50608081019190915295945050505050565b6001600160a01b0382811682821603908082111561328757613287612edf565b5092915050565b6001600160a01b0381811683821601908082111561328757613287612edf565b600081518084526132c6816020860160208601613143565b601f01601f19169290920160200192915050565b6001600160a01b0386811682528515156020830152604082018590528316606082015260a060808201819052600090613315908301846132ae565b979650505050505050565b6000806040838503121561333357600080fd5b505080516020909101519092909150565b6000600160ff1b820161335957613359612edf565b5060000390565b808202811582820484141761062957610629612edf565b6001600160a01b038281168282168181028316929181158285048214176133a0576133a0612edf565b50505092915050565b634e487b7160e01b600052601260045260246000fd5b60006001600160a01b03838116806133d9576133d96133a9565b92169190910492915050565b600061010060018060a01b0380871684528551818151166020860152816020820151166040860152604081015165ffffffffffff80821660608801528060608401511660808801525050508060208701511660a085015250604085015160c08401528060e084015261297c818401856132ae565b6020808252825182820181905260009190848201906040850190845b81811015612b7057835163ffffffff1683529284019291840191600101613475565b600067ffffffffffffffff8211156134b1576134b1612f08565b5060051b60200190565b600082601f8301126134cc57600080fd5b815160206134e16134dc83613497565b6130f7565b8083825260208201915060208460051b87010193508684111561350357600080fd5b602086015b8481101561352857805161351b81612a35565b8352918301918301613508565b509695505050505050565b6000806040838503121561354657600080fd5b825167ffffffffffffffff8082111561355e57600080fd5b818501915085601f83011261357257600080fd5b815160206135826134dc83613497565b82815260059290921b840181019181810190898411156135a157600080fd5b948201945b838610156135cf5785518060060b81146135c05760008081fd5b825294820194908201906135a6565b918801519196509093505050808211156135e857600080fd5b506135f5858286016134bb565b9150509250929050565b600682810b9082900b03667fffffffffffff198112667fffffffffffff8213171561062957610629612edf565b60008160060b8360060b80613643576136436133a9565b667fffffffffffff1982146000198214161561366157613661612edf565b90059392505050565b60008260060b8061367d5761367d6133a9565b808360060b0791505092915050565b60008160020b627fffff1981036136a5576136a5612edf565b6000190192915050565b6001600160c01b038281168282168181028316929181158285048214176133a0576133a0612edf565b60006001600160c01b03838116806133d9576133d96133a9565b60008251613704818460208701613143565b919091019291505056fea26469706673582212207b39915ab585e3e176274250b326d71b38914c91e7044af3221ea38eebdb7d8b64736f6c63430008170033",
	"devdoc": {
		"kind": "dev",
		"methods": {
			"accountingContextForTokenOf(uint256,address)": {
				"details": "Accounting contexts are set up in `addDefaultPool(...)`.",
				"params": {
					"projectId": "The ID of the project to get the accounting context for.",
					"token": "The address of the token to get the accounting context for."
				},
				"returns": {
					"_0": "A `JBAccountingContext` containing the accounting context for the project ID and token."
				}
			},
			"accountingContextsOf(uint256)": {
				"details": "This includes both project-specific and generic accounting contexts, with the project-specific contexts         taking precedence.",
				"params": {
					"projectId": "The ID of the project to get the accounting contexts for."
				},
				"returns": {
					"_0": "An array of `JBAccountingContext` containing the accounting contexts for the project ID."
				}
			},
			"addDefaultPool(uint256,address,address)": {
				"params": {
					"pool": "The Uniswap V3 pool to set as the default for the specified token.",
					"projectId": "The ID of the project to set the default pool for. The project 0 acts as a catch-all, where non-set pools are defaulted to.",
					"token": "The address of the token to set the default pool for."
				}
			},
			"addToBalanceOf(uint256,address,uint256,bool,string,bytes)": {
				"details": "This function handles the token in transfer, potentially swaps the tokens to the desired output token, and then adds the swapped tokens to the project's balance in the specified terminal.",
				"params": {
					"amount": "The amount of tokens being paid in.",
					"memo": "A memo to pass along to the emitted event.",
					"metadata": "Bytes in `JBMetadataResolver`'s format which can contain additional data for the swap and adding to balance.",
					"projectId": "The ID of the project for which funds are being accepted and added to its balance.",
					"shouldReturnHeldFees": "A boolean to indicate whether held fees should be returned.",
					"token": "The address of the token being paid in."
				}
			},
			"addTwapParamsFor(uint256,address,uint32,uint160)": {
				"params": {
					"projectId": "The ID of the project to set the TWAP-based quote rules for.",
					"secondsAgo": "The period of time over which the TWAP is calculated, in seconds.",
					"slippageTolerance": "The maximum spread allowed between the amount received and the TWAP (as a fraction out of `SLIPPAGE_DENOMINATOR`)."
				}
			},
			"getPoolFor(uint256,address)": {
				"params": {
					"projectId": "The ID of the project to retrieve the default pool for.",
					"tokenIn": "The address of the token to retrieve the default pool for."
				},
				"returns": {
					"pool": "The default pool for the token, or the overall default pool for the token if the"
				}
			},
			"owner()": {
				"details": "Returns the address of the current owner."
			},
			"pay(uint256,address,uint256,address,uint256,string,bytes)": {
				"params": {
					"amount": "The amount of tokens being paid in, as a fixed point number with the same amount of decimals as the `token`. If `token` is the native token, `amount` is ignored and `msg.value` is used in its place.",
					"beneficiary": "The beneficiary address to pass along to the other terminal. If the other terminal mints tokens, for example, they will be minted for this address.",
					"memo": "A memo to pass along to the emitted event.",
					"metadata": "Bytes in `JBMetadataResolver`'s format which can contain a quote from the user/client. The quote should contain a minimum amount of tokens to receive from the swap and the pool to use. This metadata is also passed to the other terminal's emitted event, as well as its data hook and pay hook if applicable.",
					"minReturnedTokens": "The minimum number of project tokens expected in return, as a fixed point number with the same number of decimals as the other terminal. This value will be passed along to the other terminal.",
					"projectId": "The ID of the project being paid.",
					"token": "The address of the token being paid in."
				},
				"returns": {
					"_0": "The number of tokens received from the swap, as a fixed point number with the same amount of decimals as that token."
				}
			},
			"renounceOwnership()": {
				"details": "Leaves the contract without owner. It will not be possible to call `onlyOwner` functions. Can only be called by the current owner. NOTE: Renouncing ownership will leave the contract without an owner, thereby disabling any functionality that is only available to the owner."
			},
			"supportsInterface(bytes4)": {
				"details": "See {IERC165-supportsInterface}.",
				"params": {
					"interfaceId": "The ID of the interface to check for adherance to."
				},
				"returns": {
					"_0": "A flag indicating if the provided interface ID is supported."
				}
			},
			"transferOwnership(address)": {
				"details": "Transfers ownership of the contract to a new account (`newOwner`). Can only be called by the current owner."
			},
			"twapParamsOf(uint256,address)": {
				"params": {
					"projectId": "The ID of the project to retrieve TWAP parameters for."
				},
				"returns": {
					"secondsAgo": "The period of time in the past to calculate the TWAP from.",
					"slippageTolerance": "The maximum allowed slippage tolerance when calculating the TWAP, as a fraction out of `SLIPPAGE_DENOMINATOR`."
				}
			},
			"uniswapV3SwapCallback(int256,int256,bytes)": {
				"details": "This function has no access control, care should be taken to ensure that:      - terminal balance is always be 0 between tx (this callback can only be used to sweep accidental leftovers)      - callback cannot pull user funds via a preexisting allowance",
				"params": {
					"amount0Delta": "The amount of token 0 being used for the swap.",
					"amount1Delta": "The amount of token 1 being used for the swap.",
					"data": "Data passed in by the swap operation."
				}
			}
		},
		"version": 1
	},
	"userdoc": {
		"kind": "user",
		"methods": {
			"DEFAULT_PROJECT_ID()": {
				"notice": "The ID to store default values in."
			},
			"DIRECTORY()": {
				"notice": "The directory of terminals and controllers for `PROJECTS`."
			},
			"PERMISSIONS()": {
				"notice": "A contract storing permissions."
			},
			"PERMIT2()": {
				"notice": "The permit2 utility."
			},
			"PROJECTS()": {
				"notice": "Mints ERC-721s that represent project ownership and transfers."
			},
			"SLIPPAGE_DENOMINATOR()": {
				"notice": "The denominator used when calculating TWAP slippage tolerance values."
			},
			"TOKEN_OUT()": {
				"notice": "The token which flows out of this terminal (JBConstants.NATIVE_TOKEN for the chain native token)"
			},
			"WETH()": {
				"notice": "The ERC-20 wrapper for the native token."
			},
			"accountingContextForTokenOf(uint256,address)": {
				"notice": "Get the accounting context for the specified project ID and token."
			},
			"accountingContextsOf(uint256)": {
				"notice": "Return all the accounting contexts for a specified project ID."
			},
			"addAccountingContextsFor(uint256,address[])": {
				"notice": "Empty implementation to satisfy the interface. Accounting contexts are set in `addDefaultPool(...)`."
			},
			"addDefaultPool(uint256,address,address)": {
				"notice": "Set a project's default pool and accounting context for the specified token. Only the project's owner, an address with `MODIFY_DEFAULT_POOL` permission from the owner or the terminal owner can call this function."
			},
			"addToBalanceOf(uint256,address,uint256,bool,string,bytes)": {
				"notice": "Accepts funds for a given project, swaps them if necessary, and adds them to the project's balance in the specified terminal."
			},
			"addTwapParamsFor(uint256,address,uint32,uint160)": {
				"notice": "Set the specified project's rules for calculating a quote based on the TWAP. Only the project's owner or an address with `MODIFY_TWAP_PARAMS` permission from the owner  or the terminal owner can call this function."
			},
			"currentSurplusOf(uint256,uint256,uint256)": {
				"notice": "Empty implementation to satisfy the interface. This terminal has no surplus."
			},
			"getPoolFor(uint256,address)": {
				"notice": "Returns the default pool for a given project and token or, if a project has no default pool for the         token, the overal default pool for the token"
			},
			"migrateBalanceOf(uint256,address,address)": {
				"notice": "Empty implementation to satisfy the interface."
			},
			"pay(uint256,address,uint256,address,uint256,string,bytes)": {
				"notice": "Pay a project by swapping the incoming tokens for tokens that one of the project's other terminals accepts, passing along the funds received from the swap and the specified parameters."
			},
			"supportsInterface(bytes4)": {
				"notice": "Indicates if this contract adheres to the specified interface."
			},
			"twapParamsOf(uint256,address)": {
				"notice": "Returns the default twap parameters for a given pool project."
			},
			"uniswapV3SwapCallback(int256,int256,bytes)": {
				"notice": "The Uniswap v3 pool callback where the token transfer is expected to happen."
			}
		},
		"version": 1
	},
	"gitCommit": "5aa5b21a4c539972605d6eaca9daabc2dbd92581",
	"sourceName": "src/JBSwapTerminal.sol",
	"chainId": "11155111",
	"linkReferences": {},
	"deployedLinkReferences": {},
	"history": [
		{
			"_format": "sphinx-sol-ct-artifact-1",
			"merkleRoot": "0x66ead23d7446586786c6ec6fbe79883cd2f094ebbc498c94fa3085ed8d8e8f1d",
			"contractName": "JBSwapTerminal",
			"address": "0x292897faF48510eB7B66E75B54e6450A1E7F9314",
			"abi": [
				{
					"type": "constructor",
					"inputs": [
						{
							"name": "projects",
							"type": "address",
							"internalType": "contract IJBProjects"
						},
						{
							"name": "permissions",
							"type": "address",
							"internalType": "contract IJBPermissions"
						},
						{
							"name": "directory",
							"type": "address",
							"internalType": "contract IJBDirectory"
						},
						{
							"name": "permit2",
							"type": "address",
							"internalType": "contract IPermit2"
						},
						{
							"name": "_owner",
							"type": "address",
							"internalType": "address"
						},
						{
							"name": "weth",
							"type": "address",
							"internalType": "contract IWETH9"
						}
					],
					"stateMutability": "nonpayable"
				},
				{
					"type": "receive",
					"stateMutability": "payable"
				},
				{
					"type": "function",
					"name": "DIRECTORY",
					"inputs": [],
					"outputs": [
						{
							"name": "",
							"type": "address",
							"internalType": "contract IJBDirectory"
						}
					],
					"stateMutability": "view"
				},
				{
					"type": "function",
					"name": "PERMISSIONS",
					"inputs": [],
					"outputs": [
						{
							"name": "",
							"type": "address",
							"internalType": "contract IJBPermissions"
						}
					],
					"stateMutability": "view"
				},
				{
					"type": "function",
					"name": "PERMIT2",
					"inputs": [],
					"outputs": [
						{
							"name": "",
							"type": "address",
							"internalType": "contract IPermit2"
						}
					],
					"stateMutability": "view"
				},
				{
					"type": "function",
					"name": "PROJECTS",
					"inputs": [],
					"outputs": [
						{
							"name": "",
							"type": "address",
							"internalType": "contract IJBProjects"
						}
					],
					"stateMutability": "view"
				},
				{
					"type": "function",
					"name": "STORE",
					"inputs": [],
					"outputs": [
						{
							"name": "",
							"type": "address",
							"internalType": "contract IJBTerminalStore"
						}
					],
					"stateMutability": "view"
				},
				{
					"type": "function",
					"name": "WETH",
					"inputs": [],
					"outputs": [
						{
							"name": "",
							"type": "address",
							"internalType": "contract IWETH9"
						}
					],
					"stateMutability": "view"
				},
				{
					"type": "function",
					"name": "accountingContextForTokenOf",
					"inputs": [
						{
							"name": "projectId",
							"type": "uint256",
							"internalType": "uint256"
						},
						{
							"name": "token",
							"type": "address",
							"internalType": "address"
						}
					],
					"outputs": [
						{
							"name": "",
							"type": "tuple",
							"internalType": "struct JBAccountingContext",
							"components": [
								{
									"name": "token",
									"type": "address",
									"internalType": "address"
								},
								{
									"name": "decimals",
									"type": "uint8",
									"internalType": "uint8"
								},
								{
									"name": "currency",
									"type": "uint32",
									"internalType": "uint32"
								}
							]
						}
					],
					"stateMutability": "view"
				},
				{
					"type": "function",
					"name": "accountingContextsOf",
					"inputs": [
						{
							"name": "projectId",
							"type": "uint256",
							"internalType": "uint256"
						}
					],
					"outputs": [
						{
							"name": "",
							"type": "tuple[]",
							"internalType": "struct JBAccountingContext[]",
							"components": [
								{
									"name": "token",
									"type": "address",
									"internalType": "address"
								},
								{
									"name": "decimals",
									"type": "uint8",
									"internalType": "uint8"
								},
								{
									"name": "currency",
									"type": "uint32",
									"internalType": "uint32"
								}
							]
						}
					],
					"stateMutability": "view"
				},
				{
					"type": "function",
					"name": "addAccountingContextsFor",
					"inputs": [
						{
							"name": "projectId",
							"type": "uint256",
							"internalType": "uint256"
						},
						{
							"name": "tokens",
							"type": "address[]",
							"internalType": "address[]"
						}
					],
					"outputs": [],
					"stateMutability": "nonpayable"
				},
				{
					"type": "function",
					"name": "addDefaultPool",
					"inputs": [
						{
							"name": "projectId",
							"type": "uint256",
							"internalType": "uint256"
						},
						{
							"name": "token",
							"type": "address",
							"internalType": "address"
						},
						{
							"name": "pool",
							"type": "address",
							"internalType": "contract IUniswapV3Pool"
						}
					],
					"outputs": [],
					"stateMutability": "nonpayable"
				},
				{
					"type": "function",
					"name": "addToBalanceOf",
					"inputs": [
						{
							"name": "",
							"type": "uint256",
							"internalType": "uint256"
						},
						{
							"name": "",
							"type": "address",
							"internalType": "address"
						},
						{
							"name": "",
							"type": "uint256",
							"internalType": "uint256"
						},
						{
							"name": "",
							"type": "bool",
							"internalType": "bool"
						},
						{
							"name": "",
							"type": "string",
							"internalType": "string"
						},
						{
							"name": "",
							"type": "bytes",
							"internalType": "bytes"
						}
					],
					"outputs": [],
					"stateMutability": "payable"
				},
				{
					"type": "function",
					"name": "addTwapParamsFor",
					"inputs": [
						{
							"name": "projectId",
							"type": "uint256",
							"internalType": "uint256"
						},
						{
							"name": "pool",
							"type": "address",
							"internalType": "contract IUniswapV3Pool"
						},
						{
							"name": "secondsAgo",
							"type": "uint32",
							"internalType": "uint32"
						},
						{
							"name": "slippageTolerance",
							"type": "uint160",
							"internalType": "uint160"
						}
					],
					"outputs": [],
					"stateMutability": "nonpayable"
				},
				{
					"type": "function",
					"name": "currentSurplusOf",
					"inputs": [
						{
							"name": "projectId",
							"type": "uint256",
							"internalType": "uint256"
						},
						{
							"name": "decimals",
							"type": "uint256",
							"internalType": "uint256"
						},
						{
							"name": "currency",
							"type": "uint256",
							"internalType": "uint256"
						}
					],
					"outputs": [
						{
							"name": "",
							"type": "uint256",
							"internalType": "uint256"
						}
					],
					"stateMutability": "view"
				},
				{
					"type": "function",
					"name": "getPoolFor",
					"inputs": [
						{
							"name": "projectId",
							"type": "uint256",
							"internalType": "uint256"
						},
						{
							"name": "tokenIn",
							"type": "address",
							"internalType": "address"
						}
					],
					"outputs": [
						{
							"name": "",
							"type": "address",
							"internalType": "contract IUniswapV3Pool"
						}
					],
					"stateMutability": "view"
				},
				{
					"type": "function",
					"name": "migrateBalanceOf",
					"inputs": [
						{
							"name": "projectId",
							"type": "uint256",
							"internalType": "uint256"
						},
						{
							"name": "token",
							"type": "address",
							"internalType": "address"
						},
						{
							"name": "to",
							"type": "address",
							"internalType": "contract IJBTerminal"
						}
					],
					"outputs": [
						{
							"name": "balance",
							"type": "uint256",
							"internalType": "uint256"
						}
					],
					"stateMutability": "nonpayable"
				},
				{
					"type": "function",
					"name": "owner",
					"inputs": [],
					"outputs": [
						{
							"name": "",
							"type": "address",
							"internalType": "address"
						}
					],
					"stateMutability": "view"
				},
				{
					"type": "function",
					"name": "pay",
					"inputs": [
						{
							"name": "projectId",
							"type": "uint256",
							"internalType": "uint256"
						},
						{
							"name": "token",
							"type": "address",
							"internalType": "address"
						},
						{
							"name": "amount",
							"type": "uint256",
							"internalType": "uint256"
						},
						{
							"name": "beneficiary",
							"type": "address",
							"internalType": "address"
						},
						{
							"name": "minReturnedTokens",
							"type": "uint256",
							"internalType": "uint256"
						},
						{
							"name": "memo",
							"type": "string",
							"internalType": "string"
						},
						{
							"name": "metadata",
							"type": "bytes",
							"internalType": "bytes"
						}
					],
					"outputs": [
						{
							"name": "",
							"type": "uint256",
							"internalType": "uint256"
						}
					],
					"stateMutability": "payable"
				},
				{
					"type": "function",
					"name": "renounceOwnership",
					"inputs": [],
					"outputs": [],
					"stateMutability": "nonpayable"
				},
				{
					"type": "function",
					"name": "supportsInterface",
					"inputs": [
						{
							"name": "interfaceId",
							"type": "bytes4",
							"internalType": "bytes4"
						}
					],
					"outputs": [
						{
							"name": "",
							"type": "bool",
							"internalType": "bool"
						}
					],
					"stateMutability": "view"
				},
				{
					"type": "function",
					"name": "transferOwnership",
					"inputs": [
						{
							"name": "newOwner",
							"type": "address",
							"internalType": "address"
						}
					],
					"outputs": [],
					"stateMutability": "nonpayable"
				},
				{
					"type": "function",
					"name": "twapParamsOf",
					"inputs": [
						{
							"name": "projectId",
							"type": "uint256",
							"internalType": "uint256"
						},
						{
							"name": "pool",
							"type": "address",
							"internalType": "contract IUniswapV3Pool"
						}
					],
					"outputs": [
						{
							"name": "secondsAgo",
							"type": "uint32",
							"internalType": "uint32"
						},
						{
							"name": "slippageTolerance",
							"type": "uint160",
							"internalType": "uint160"
						}
					],
					"stateMutability": "view"
				},
				{
					"type": "function",
					"name": "uniswapV3SwapCallback",
					"inputs": [
						{
							"name": "amount0Delta",
							"type": "int256",
							"internalType": "int256"
						},
						{
							"name": "amount1Delta",
							"type": "int256",
							"internalType": "int256"
						},
						{
							"name": "data",
							"type": "bytes",
							"internalType": "bytes"
						}
					],
					"outputs": [],
					"stateMutability": "nonpayable"
				},
				{
					"type": "event",
					"name": "AddToBalance",
					"inputs": [
						{
							"name": "projectId",
							"type": "uint256",
							"indexed": true,
							"internalType": "uint256"
						},
						{
							"name": "amount",
							"type": "uint256",
							"indexed": false,
							"internalType": "uint256"
						},
						{
							"name": "unlockedFees",
							"type": "uint256",
							"indexed": false,
							"internalType": "uint256"
						},
						{
							"name": "memo",
							"type": "string",
							"indexed": false,
							"internalType": "string"
						},
						{
							"name": "metadata",
							"type": "bytes",
							"indexed": false,
							"internalType": "bytes"
						},
						{
							"name": "caller",
							"type": "address",
							"indexed": false,
							"internalType": "address"
						}
					],
					"anonymous": false
				},
				{
					"type": "event",
					"name": "HookAfterRecordPay",
					"inputs": [
						{
							"name": "hook",
							"type": "address",
							"indexed": true,
							"internalType": "contract IJBPayHook"
						},
						{
							"name": "context",
							"type": "tuple",
							"indexed": false,
							"internalType": "struct JBAfterPayRecordedContext",
							"components": [
								{
									"name": "payer",
									"type": "address",
									"internalType": "address"
								},
								{
									"name": "projectId",
									"type": "uint256",
									"internalType": "uint256"
								},
								{
									"name": "rulesetId",
									"type": "uint256",
									"internalType": "uint256"
								},
								{
									"name": "amount",
									"type": "tuple",
									"internalType": "struct JBTokenAmount",
									"components": [
										{
											"name": "token",
											"type": "address",
											"internalType": "address"
										},
										{
											"name": "value",
											"type": "uint256",
											"internalType": "uint256"
										},
										{
											"name": "decimals",
											"type": "uint256",
											"internalType": "uint256"
										},
										{
											"name": "currency",
											"type": "uint256",
											"internalType": "uint256"
										}
									]
								},
								{
									"name": "forwardedAmount",
									"type": "tuple",
									"internalType": "struct JBTokenAmount",
									"components": [
										{
											"name": "token",
											"type": "address",
											"internalType": "address"
										},
										{
											"name": "value",
											"type": "uint256",
											"internalType": "uint256"
										},
										{
											"name": "decimals",
											"type": "uint256",
											"internalType": "uint256"
										},
										{
											"name": "currency",
											"type": "uint256",
											"internalType": "uint256"
										}
									]
								},
								{
									"name": "weight",
									"type": "uint256",
									"internalType": "uint256"
								},
								{
									"name": "projectTokenCount",
									"type": "uint256",
									"internalType": "uint256"
								},
								{
									"name": "beneficiary",
									"type": "address",
									"internalType": "address"
								},
								{
									"name": "hookMetadata",
									"type": "bytes",
									"internalType": "bytes"
								},
								{
									"name": "payerMetadata",
									"type": "bytes",
									"internalType": "bytes"
								}
							]
						},
						{
							"name": "specificationAmount",
							"type": "uint256",
							"indexed": false,
							"internalType": "uint256"
						},
						{
							"name": "caller",
							"type": "address",
							"indexed": false,
							"internalType": "address"
						}
					],
					"anonymous": false
				},
				{
					"type": "event",
					"name": "MigrateTerminal",
					"inputs": [
						{
							"name": "projectId",
							"type": "uint256",
							"indexed": true,
							"internalType": "uint256"
						},
						{
							"name": "token",
							"type": "address",
							"indexed": true,
							"internalType": "address"
						},
						{
							"name": "to",
							"type": "address",
							"indexed": true,
							"internalType": "contract IJBTerminal"
						},
						{
							"name": "amount",
							"type": "uint256",
							"indexed": false,
							"internalType": "uint256"
						},
						{
							"name": "caller",
							"type": "address",
							"indexed": false,
							"internalType": "address"
						}
					],
					"anonymous": false
				},
				{
					"type": "event",
					"name": "OwnershipTransferred",
					"inputs": [
						{
							"name": "previousOwner",
							"type": "address",
							"indexed": true,
							"internalType": "address"
						},
						{
							"name": "newOwner",
							"type": "address",
							"indexed": true,
							"internalType": "address"
						}
					],
					"anonymous": false
				},
				{
					"type": "event",
					"name": "Pay",
					"inputs": [
						{
							"name": "rulesetId",
							"type": "uint256",
							"indexed": true,
							"internalType": "uint256"
						},
						{
							"name": "rulesetCycleNumber",
							"type": "uint256",
							"indexed": true,
							"internalType": "uint256"
						},
						{
							"name": "projectId",
							"type": "uint256",
							"indexed": true,
							"internalType": "uint256"
						},
						{
							"name": "payer",
							"type": "address",
							"indexed": false,
							"internalType": "address"
						},
						{
							"name": "beneficiary",
							"type": "address",
							"indexed": false,
							"internalType": "address"
						},
						{
							"name": "amount",
							"type": "uint256",
							"indexed": false,
							"internalType": "uint256"
						},
						{
							"name": "beneficiaryTokenCount",
							"type": "uint256",
							"indexed": false,
							"internalType": "uint256"
						},
						{
							"name": "memo",
							"type": "string",
							"indexed": false,
							"internalType": "string"
						},
						{
							"name": "metadata",
							"type": "bytes",
							"indexed": false,
							"internalType": "bytes"
						},
						{
							"name": "caller",
							"type": "address",
							"indexed": false,
							"internalType": "address"
						}
					],
					"anonymous": false
				},
				{
					"type": "event",
					"name": "SetAccountingContext",
					"inputs": [
						{
							"name": "projectId",
							"type": "uint256",
							"indexed": true,
							"internalType": "uint256"
						},
						{
							"name": "token",
							"type": "address",
							"indexed": true,
							"internalType": "address"
						},
						{
							"name": "context",
							"type": "tuple",
							"indexed": false,
							"internalType": "struct JBAccountingContext",
							"components": [
								{
									"name": "token",
									"type": "address",
									"internalType": "address"
								},
								{
									"name": "decimals",
									"type": "uint8",
									"internalType": "uint8"
								},
								{
									"name": "currency",
									"type": "uint32",
									"internalType": "uint32"
								}
							]
						},
						{
							"name": "caller",
							"type": "address",
							"indexed": false,
							"internalType": "address"
						}
					],
					"anonymous": false
				},
				{
					"type": "error",
					"name": "AddressEmptyCode",
					"inputs": [
						{
							"name": "target",
							"type": "address",
							"internalType": "address"
						}
					]
				},
				{
					"type": "error",
					"name": "AddressInsufficientBalance",
					"inputs": [
						{
							"name": "account",
							"type": "address",
							"internalType": "address"
						}
					]
				},
				{
					"type": "error",
					"name": "FailedInnerCall",
					"inputs": []
				},
				{
					"type": "error",
					"name": "MAX_SLIPPAGE",
					"inputs": [
						{
							"name": "",
							"type": "uint256",
							"internalType": "uint256"
						},
						{
							"name": "",
							"type": "uint256",
							"internalType": "uint256"
						}
					]
				},
				{
					"type": "error",
					"name": "NO_DEFAULT_POOL_DEFINED",
					"inputs": []
				},
				{
					"type": "error",
					"name": "NO_MSG_VALUE_ALLOWED",
					"inputs": []
				},
				{
					"type": "error",
					"name": "OwnableInvalidOwner",
					"inputs": [
						{
							"name": "owner",
							"type": "address",
							"internalType": "address"
						}
					]
				},
				{
					"type": "error",
					"name": "OwnableUnauthorizedAccount",
					"inputs": [
						{
							"name": "account",
							"type": "address",
							"internalType": "address"
						}
					]
				},
				{
					"type": "error",
					"name": "PERMIT_ALLOWANCE_NOT_ENOUGH",
					"inputs": []
				},
				{
					"type": "error",
					"name": "SafeERC20FailedOperation",
					"inputs": [
						{
							"name": "token",
							"type": "address",
							"internalType": "address"
						}
					]
				},
				{
					"type": "error",
					"name": "T",
					"inputs": []
				},
				{
					"type": "error",
					"name": "TOKEN_NOT_ACCEPTED",
					"inputs": []
				},
				{
					"type": "error",
					"name": "TOKEN_NOT_IN_POOL",
					"inputs": []
				},
				{
					"type": "error",
					"name": "UNAUTHORIZED",
					"inputs": []
				},
				{
					"type": "error",
					"name": "UNSUPPORTED",
					"inputs": []
				}
			],
			"solcInputHash": "7f4c6e44fd30511fa09b8ca63fd6e223",
			"receipt": {
				"blockHash": "0x1d3e704b2639f4b04eb68e8211e24b4f41a448493f52c975757591d40972cc3e",
				"blockNumber": 5506648,
				"contractAddress": null,
				"cumulativeGasUsed": "21371293",
				"from": "0xC034550B542b83BA1De312b21d1C94a9a52B1595",
				"gasPrice": "1290444087",
				"gasUsed": "3261405",
				"hash": "0x55b8a42ee53875edb680edb278019a5a11a43b3d6131f17b56a1258f54c2b077",
				"index": 95,
				"logs": [
					{
						"address": "0xB5E96127D417b1B3ef8438496a38A143167209c7",
						"blockHash": "0x1d3e704b2639f4b04eb68e8211e24b4f41a448493f52c975757591d40972cc3e",
						"blockNumber": 5506648,
						"data": "0x0000000000000000000000000000000000000000000000000000000000000000",
						"index": 257,
						"topics": [
							"0x572f161235911da04685a68c06adf558fc7e4a36909dca394650e0adc19cc93d",
							"0x000000000000000000000000c034550b542b83ba1de312b21d1c94a9a52b1595",
							"0x0000000000000000000000003f6eb31c3cafeb9163d09242a27d52e8cca6fa73",
							"0x38d217629ec0d7b64197226e5c13230db6b55db0a0c0415b29e3b20e65cdd6a7"
						],
						"transactionHash": "0x55b8a42ee53875edb680edb278019a5a11a43b3d6131f17b56a1258f54c2b077",
						"transactionIndex": 95
					},
					{
						"address": "0x292897faF48510eB7B66E75B54e6450A1E7F9314",
						"blockHash": "0x1d3e704b2639f4b04eb68e8211e24b4f41a448493f52c975757591d40972cc3e",
						"blockNumber": 5506648,
						"data": "0x",
						"index": 258,
						"topics": [
							"0x8be0079c531659141344cd1fd0a4f28419497f9722a3daafe3b4186f6b6457e0",
							"0x0000000000000000000000000000000000000000000000000000000000000000",
							"0x000000000000000000000000823b92d6a4b2aed4b15675c7917c9f922ea8adad"
						],
						"transactionHash": "0x55b8a42ee53875edb680edb278019a5a11a43b3d6131f17b56a1258f54c2b077",
						"transactionIndex": 95
					},
					{
						"address": "0x21CD04c712ca1206baE783EC9B715361DfC28026",
						"blockHash": "0x1d3e704b2639f4b04eb68e8211e24b4f41a448493f52c975757591d40972cc3e",
						"blockNumber": 5506648,
						"data": "0x",
						"index": 259,
						"topics": [
							"0x6895c13664aa4f67288b25d7a21d7aaa34916e355fb9b6fae0a139a9085becb8",
							"0x0000000000000000000000003f6eb31c3cafeb9163d09242a27d52e8cca6fa73"
						],
						"transactionHash": "0x55b8a42ee53875edb680edb278019a5a11a43b3d6131f17b56a1258f54c2b077",
						"transactionIndex": 95
					},
					{
						"address": "0x3f6eB31C3cAFEb9163d09242A27D52E8cCa6Fa73",
						"blockHash": "0x1d3e704b2639f4b04eb68e8211e24b4f41a448493f52c975757591d40972cc3e",
						"blockNumber": 5506648,
						"data": "0x0000000000000000000000000000000000000000000000000000000000000001",
						"index": 260,
						"topics": [
							"0xa65fb05c5808f5f389d72edeaf719ce38f4cc55c1f69ca3cbfb31c21501caa07",
							"0x66ead23d7446586786c6ec6fbe79883cd2f094ebbc498c94fa3085ed8d8e8f1d"
						],
						"transactionHash": "0x55b8a42ee53875edb680edb278019a5a11a43b3d6131f17b56a1258f54c2b077",
						"transactionIndex": 95
					},
					{
						"address": "0x3f6eB31C3cAFEb9163d09242A27D52E8cCa6Fa73",
						"blockHash": "0x1d3e704b2639f4b04eb68e8211e24b4f41a448493f52c975757591d40972cc3e",
						"blockNumber": 5506648,
						"data": "0x",
						"index": 261,
						"topics": [
							"0x4383d976757d67ca920616be0b6430a681ea9d3dcce8d6d61d4603ca4a9bff63",
							"0x66ead23d7446586786c6ec6fbe79883cd2f094ebbc498c94fa3085ed8d8e8f1d"
						],
						"transactionHash": "0x55b8a42ee53875edb680edb278019a5a11a43b3d6131f17b56a1258f54c2b077",
						"transactionIndex": 95
					}
				],
				"logsBloom": "0x00000000080010000000000000080000000008000008000000800000004000000000000000000000008000000140000000000000000000000000100000001000000000000020200000000000800000000001000000000000000000800000100000000000020000000000000000000c0010000000000000000000040000000040000800000000000200010000000000000000000001000000000000000000000100400088001000000000000000000002020004000000008000000000000400000000000000000000000000000c000000000000000000000000000200000020000000000000000008000000000000000200000000000000000000000008000000",
				"status": 1,
				"to": "0xB5E96127D417b1B3ef8438496a38A143167209c7"
			},
			"metadata": "{\"compiler\":{\"version\":\"0.8.23+commit.f704f362\"},\"language\":\"Solidity\",\"output\":{\"abi\":[{\"inputs\":[{\"internalType\":\"contract IJBProjects\",\"name\":\"projects\",\"type\":\"address\"},{\"internalType\":\"contract IJBPermissions\",\"name\":\"permissions\",\"type\":\"address\"},{\"internalType\":\"contract IJBDirectory\",\"name\":\"directory\",\"type\":\"address\"},{\"internalType\":\"contract IPermit2\",\"name\":\"permit2\",\"type\":\"address\"},{\"internalType\":\"address\",\"name\":\"_owner\",\"type\":\"address\"},{\"internalType\":\"contract IWETH9\",\"name\":\"weth\",\"type\":\"address\"}],\"stateMutability\":\"nonpayable\",\"type\":\"constructor\"},{\"inputs\":[{\"internalType\":\"address\",\"name\":\"target\",\"type\":\"address\"}],\"type\":\"error\",\"name\":\"AddressEmptyCode\"},{\"inputs\":[{\"internalType\":\"address\",\"name\":\"account\",\"type\":\"address\"}],\"type\":\"error\",\"name\":\"AddressInsufficientBalance\"},{\"inputs\":[],\"type\":\"error\",\"name\":\"FailedInnerCall\"},{\"inputs\":[{\"internalType\":\"uint256\",\"name\":\"\",\"type\":\"uint256\"},{\"internalType\":\"uint256\",\"name\":\"\",\"type\":\"uint256\"}],\"type\":\"error\",\"name\":\"MAX_SLIPPAGE\"},{\"inputs\":[],\"type\":\"error\",\"name\":\"NO_DEFAULT_POOL_DEFINED\"},{\"inputs\":[],\"type\":\"error\",\"name\":\"NO_MSG_VALUE_ALLOWED\"},{\"inputs\":[{\"internalType\":\"address\",\"name\":\"owner\",\"type\":\"address\"}],\"type\":\"error\",\"name\":\"OwnableInvalidOwner\"},{\"inputs\":[{\"internalType\":\"address\",\"name\":\"account\",\"type\":\"address\"}],\"type\":\"error\",\"name\":\"OwnableUnauthorizedAccount\"},{\"inputs\":[],\"type\":\"error\",\"name\":\"PERMIT_ALLOWANCE_NOT_ENOUGH\"},{\"inputs\":[{\"internalType\":\"address\",\"name\":\"token\",\"type\":\"address\"}],\"type\":\"error\",\"name\":\"SafeERC20FailedOperation\"},{\"inputs\":[],\"type\":\"error\",\"name\":\"T\"},{\"inputs\":[],\"type\":\"error\",\"name\":\"TOKEN_NOT_ACCEPTED\"},{\"inputs\":[],\"type\":\"error\",\"name\":\"TOKEN_NOT_IN_POOL\"},{\"inputs\":[],\"type\":\"error\",\"name\":\"UNAUTHORIZED\"},{\"inputs\":[],\"type\":\"error\",\"name\":\"UNSUPPORTED\"},{\"inputs\":[{\"internalType\":\"uint256\",\"name\":\"projectId\",\"type\":\"uint256\",\"indexed\":true},{\"internalType\":\"uint256\",\"name\":\"amount\",\"type\":\"uint256\",\"indexed\":false},{\"internalType\":\"uint256\",\"name\":\"unlockedFees\",\"type\":\"uint256\",\"indexed\":false},{\"internalType\":\"string\",\"name\":\"memo\",\"type\":\"string\",\"indexed\":false},{\"internalType\":\"bytes\",\"name\":\"metadata\",\"type\":\"bytes\",\"indexed\":false},{\"internalType\":\"address\",\"name\":\"caller\",\"type\":\"address\",\"indexed\":false}],\"type\":\"event\",\"name\":\"AddToBalance\",\"anonymous\":false},{\"inputs\":[{\"internalType\":\"contract IJBPayHook\",\"name\":\"hook\",\"type\":\"address\",\"indexed\":true},{\"internalType\":\"struct JBAfterPayRecordedContext\",\"name\":\"context\",\"type\":\"tuple\",\"components\":[{\"internalType\":\"address\",\"name\":\"payer\",\"type\":\"address\"},{\"internalType\":\"uint256\",\"name\":\"projectId\",\"type\":\"uint256\"},{\"internalType\":\"uint256\",\"name\":\"rulesetId\",\"type\":\"uint256\"},{\"internalType\":\"struct JBTokenAmount\",\"name\":\"amount\",\"type\":\"tuple\",\"components\":[{\"internalType\":\"address\",\"name\":\"token\",\"type\":\"address\"},{\"internalType\":\"uint256\",\"name\":\"value\",\"type\":\"uint256\"},{\"internalType\":\"uint256\",\"name\":\"decimals\",\"type\":\"uint256\"},{\"internalType\":\"uint256\",\"name\":\"currency\",\"type\":\"uint256\"}]},{\"internalType\":\"struct JBTokenAmount\",\"name\":\"forwardedAmount\",\"type\":\"tuple\",\"components\":[{\"internalType\":\"address\",\"name\":\"token\",\"type\":\"address\"},{\"internalType\":\"uint256\",\"name\":\"value\",\"type\":\"uint256\"},{\"internalType\":\"uint256\",\"name\":\"decimals\",\"type\":\"uint256\"},{\"internalType\":\"uint256\",\"name\":\"currency\",\"type\":\"uint256\"}]},{\"internalType\":\"uint256\",\"name\":\"weight\",\"type\":\"uint256\"},{\"internalType\":\"uint256\",\"name\":\"projectTokenCount\",\"type\":\"uint256\"},{\"internalType\":\"address\",\"name\":\"beneficiary\",\"type\":\"address\"},{\"internalType\":\"bytes\",\"name\":\"hookMetadata\",\"type\":\"bytes\"},{\"internalType\":\"bytes\",\"name\":\"payerMetadata\",\"type\":\"bytes\"}],\"indexed\":false},{\"internalType\":\"uint256\",\"name\":\"specificationAmount\",\"type\":\"uint256\",\"indexed\":false},{\"internalType\":\"address\",\"name\":\"caller\",\"type\":\"address\",\"indexed\":false}],\"type\":\"event\",\"name\":\"HookAfterRecordPay\",\"anonymous\":false},{\"inputs\":[{\"internalType\":\"uint256\",\"name\":\"projectId\",\"type\":\"uint256\",\"indexed\":true},{\"internalType\":\"address\",\"name\":\"token\",\"type\":\"address\",\"indexed\":true},{\"internalType\":\"contract IJBTerminal\",\"name\":\"to\",\"type\":\"address\",\"indexed\":true},{\"internalType\":\"uint256\",\"name\":\"amount\",\"type\":\"uint256\",\"indexed\":false},{\"internalType\":\"address\",\"name\":\"caller\",\"type\":\"address\",\"indexed\":false}],\"type\":\"event\",\"name\":\"MigrateTerminal\",\"anonymous\":false},{\"inputs\":[{\"internalType\":\"address\",\"name\":\"previousOwner\",\"type\":\"address\",\"indexed\":true},{\"internalType\":\"address\",\"name\":\"newOwner\",\"type\":\"address\",\"indexed\":true}],\"type\":\"event\",\"name\":\"OwnershipTransferred\",\"anonymous\":false},{\"inputs\":[{\"internalType\":\"uint256\",\"name\":\"rulesetId\",\"type\":\"uint256\",\"indexed\":true},{\"internalType\":\"uint256\",\"name\":\"rulesetCycleNumber\",\"type\":\"uint256\",\"indexed\":true},{\"internalType\":\"uint256\",\"name\":\"projectId\",\"type\":\"uint256\",\"indexed\":true},{\"internalType\":\"address\",\"name\":\"payer\",\"type\":\"address\",\"indexed\":false},{\"internalType\":\"address\",\"name\":\"beneficiary\",\"type\":\"address\",\"indexed\":false},{\"internalType\":\"uint256\",\"name\":\"amount\",\"type\":\"uint256\",\"indexed\":false},{\"internalType\":\"uint256\",\"name\":\"beneficiaryTokenCount\",\"type\":\"uint256\",\"indexed\":false},{\"internalType\":\"string\",\"name\":\"memo\",\"type\":\"string\",\"indexed\":false},{\"internalType\":\"bytes\",\"name\":\"metadata\",\"type\":\"bytes\",\"indexed\":false},{\"internalType\":\"address\",\"name\":\"caller\",\"type\":\"address\",\"indexed\":false}],\"type\":\"event\",\"name\":\"Pay\",\"anonymous\":false},{\"inputs\":[{\"internalType\":\"uint256\",\"name\":\"projectId\",\"type\":\"uint256\",\"indexed\":true},{\"internalType\":\"address\",\"name\":\"token\",\"type\":\"address\",\"indexed\":true},{\"internalType\":\"struct JBAccountingContext\",\"name\":\"context\",\"type\":\"tuple\",\"components\":[{\"internalType\":\"address\",\"name\":\"token\",\"type\":\"address\"},{\"internalType\":\"uint8\",\"name\":\"decimals\",\"type\":\"uint8\"},{\"internalType\":\"uint32\",\"name\":\"currency\",\"type\":\"uint32\"}],\"indexed\":false},{\"internalType\":\"address\",\"name\":\"caller\",\"type\":\"address\",\"indexed\":false}],\"type\":\"event\",\"name\":\"SetAccountingContext\",\"anonymous\":false},{\"inputs\":[],\"stateMutability\":\"view\",\"type\":\"function\",\"name\":\"DIRECTORY\",\"outputs\":[{\"internalType\":\"contract IJBDirectory\",\"name\":\"\",\"type\":\"address\"}]},{\"inputs\":[],\"stateMutability\":\"view\",\"type\":\"function\",\"name\":\"PERMISSIONS\",\"outputs\":[{\"internalType\":\"contract IJBPermissions\",\"name\":\"\",\"type\":\"address\"}]},{\"inputs\":[],\"stateMutability\":\"view\",\"type\":\"function\",\"name\":\"PERMIT2\",\"outputs\":[{\"internalType\":\"contract IPermit2\",\"name\":\"\",\"type\":\"address\"}]},{\"inputs\":[],\"stateMutability\":\"view\",\"type\":\"function\",\"name\":\"PROJECTS\",\"outputs\":[{\"internalType\":\"contract IJBProjects\",\"name\":\"\",\"type\":\"address\"}]},{\"inputs\":[],\"stateMutability\":\"view\",\"type\":\"function\",\"name\":\"STORE\",\"outputs\":[{\"internalType\":\"contract IJBTerminalStore\",\"name\":\"\",\"type\":\"address\"}]},{\"inputs\":[],\"stateMutability\":\"view\",\"type\":\"function\",\"name\":\"WETH\",\"outputs\":[{\"internalType\":\"contract IWETH9\",\"name\":\"\",\"type\":\"address\"}]},{\"inputs\":[{\"internalType\":\"uint256\",\"name\":\"projectId\",\"type\":\"uint256\"},{\"internalType\":\"address\",\"name\":\"token\",\"type\":\"address\"}],\"stateMutability\":\"view\",\"type\":\"function\",\"name\":\"accountingContextForTokenOf\",\"outputs\":[{\"internalType\":\"struct JBAccountingContext\",\"name\":\"\",\"type\":\"tuple\",\"components\":[{\"internalType\":\"address\",\"name\":\"token\",\"type\":\"address\"},{\"internalType\":\"uint8\",\"name\":\"decimals\",\"type\":\"uint8\"},{\"internalType\":\"uint32\",\"name\":\"currency\",\"type\":\"uint32\"}]}]},{\"inputs\":[{\"internalType\":\"uint256\",\"name\":\"projectId\",\"type\":\"uint256\"}],\"stateMutability\":\"view\",\"type\":\"function\",\"name\":\"accountingContextsOf\",\"outputs\":[{\"internalType\":\"struct JBAccountingContext[]\",\"name\":\"\",\"type\":\"tuple[]\",\"components\":[{\"internalType\":\"address\",\"name\":\"token\",\"type\":\"address\"},{\"internalType\":\"uint8\",\"name\":\"decimals\",\"type\":\"uint8\"},{\"internalType\":\"uint32\",\"name\":\"currency\",\"type\":\"uint32\"}]}]},{\"inputs\":[{\"internalType\":\"uint256\",\"name\":\"projectId\",\"type\":\"uint256\"},{\"internalType\":\"address[]\",\"name\":\"tokens\",\"type\":\"address[]\"}],\"stateMutability\":\"nonpayable\",\"type\":\"function\",\"name\":\"addAccountingContextsFor\"},{\"inputs\":[{\"internalType\":\"uint256\",\"name\":\"projectId\",\"type\":\"uint256\"},{\"internalType\":\"address\",\"name\":\"token\",\"type\":\"address\"},{\"internalType\":\"contract IUniswapV3Pool\",\"name\":\"pool\",\"type\":\"address\"}],\"stateMutability\":\"nonpayable\",\"type\":\"function\",\"name\":\"addDefaultPool\"},{\"inputs\":[{\"internalType\":\"uint256\",\"name\":\"\",\"type\":\"uint256\"},{\"internalType\":\"address\",\"name\":\"\",\"type\":\"address\"},{\"internalType\":\"uint256\",\"name\":\"\",\"type\":\"uint256\"},{\"internalType\":\"bool\",\"name\":\"\",\"type\":\"bool\"},{\"internalType\":\"string\",\"name\":\"\",\"type\":\"string\"},{\"internalType\":\"bytes\",\"name\":\"\",\"type\":\"bytes\"}],\"stateMutability\":\"payable\",\"type\":\"function\",\"name\":\"addToBalanceOf\"},{\"inputs\":[{\"internalType\":\"uint256\",\"name\":\"projectId\",\"type\":\"uint256\"},{\"internalType\":\"contract IUniswapV3Pool\",\"name\":\"pool\",\"type\":\"address\"},{\"internalType\":\"uint32\",\"name\":\"secondsAgo\",\"type\":\"uint32\"},{\"internalType\":\"uint160\",\"name\":\"slippageTolerance\",\"type\":\"uint160\"}],\"stateMutability\":\"nonpayable\",\"type\":\"function\",\"name\":\"addTwapParamsFor\"},{\"inputs\":[{\"internalType\":\"uint256\",\"name\":\"projectId\",\"type\":\"uint256\"},{\"internalType\":\"uint256\",\"name\":\"decimals\",\"type\":\"uint256\"},{\"internalType\":\"uint256\",\"name\":\"currency\",\"type\":\"uint256\"}],\"stateMutability\":\"view\",\"type\":\"function\",\"name\":\"currentSurplusOf\",\"outputs\":[{\"internalType\":\"uint256\",\"name\":\"\",\"type\":\"uint256\"}]},{\"inputs\":[{\"internalType\":\"uint256\",\"name\":\"projectId\",\"type\":\"uint256\"},{\"internalType\":\"address\",\"name\":\"tokenIn\",\"type\":\"address\"}],\"stateMutability\":\"view\",\"type\":\"function\",\"name\":\"getPoolFor\",\"outputs\":[{\"internalType\":\"contract IUniswapV3Pool\",\"name\":\"\",\"type\":\"address\"}]},{\"inputs\":[{\"internalType\":\"uint256\",\"name\":\"projectId\",\"type\":\"uint256\"},{\"internalType\":\"address\",\"name\":\"token\",\"type\":\"address\"},{\"internalType\":\"contract IJBTerminal\",\"name\":\"to\",\"type\":\"address\"}],\"stateMutability\":\"nonpayable\",\"type\":\"function\",\"name\":\"migrateBalanceOf\",\"outputs\":[{\"internalType\":\"uint256\",\"name\":\"balance\",\"type\":\"uint256\"}]},{\"inputs\":[],\"stateMutability\":\"view\",\"type\":\"function\",\"name\":\"owner\",\"outputs\":[{\"internalType\":\"address\",\"name\":\"\",\"type\":\"address\"}]},{\"inputs\":[{\"internalType\":\"uint256\",\"name\":\"projectId\",\"type\":\"uint256\"},{\"internalType\":\"address\",\"name\":\"token\",\"type\":\"address\"},{\"internalType\":\"uint256\",\"name\":\"amount\",\"type\":\"uint256\"},{\"internalType\":\"address\",\"name\":\"beneficiary\",\"type\":\"address\"},{\"internalType\":\"uint256\",\"name\":\"minReturnedTokens\",\"type\":\"uint256\"},{\"internalType\":\"string\",\"name\":\"memo\",\"type\":\"string\"},{\"internalType\":\"bytes\",\"name\":\"metadata\",\"type\":\"bytes\"}],\"stateMutability\":\"payable\",\"type\":\"function\",\"name\":\"pay\",\"outputs\":[{\"internalType\":\"uint256\",\"name\":\"\",\"type\":\"uint256\"}]},{\"inputs\":[],\"stateMutability\":\"nonpayable\",\"type\":\"function\",\"name\":\"renounceOwnership\"},{\"inputs\":[{\"internalType\":\"bytes4\",\"name\":\"interfaceId\",\"type\":\"bytes4\"}],\"stateMutability\":\"view\",\"type\":\"function\",\"name\":\"supportsInterface\",\"outputs\":[{\"internalType\":\"bool\",\"name\":\"\",\"type\":\"bool\"}]},{\"inputs\":[{\"internalType\":\"address\",\"name\":\"newOwner\",\"type\":\"address\"}],\"stateMutability\":\"nonpayable\",\"type\":\"function\",\"name\":\"transferOwnership\"},{\"inputs\":[{\"internalType\":\"uint256\",\"name\":\"projectId\",\"type\":\"uint256\"},{\"internalType\":\"contract IUniswapV3Pool\",\"name\":\"pool\",\"type\":\"address\"}],\"stateMutability\":\"view\",\"type\":\"function\",\"name\":\"twapParamsOf\",\"outputs\":[{\"internalType\":\"uint32\",\"name\":\"secondsAgo\",\"type\":\"uint32\"},{\"internalType\":\"uint160\",\"name\":\"slippageTolerance\",\"type\":\"uint160\"}]},{\"inputs\":[{\"internalType\":\"int256\",\"name\":\"amount0Delta\",\"type\":\"int256\"},{\"internalType\":\"int256\",\"name\":\"amount1Delta\",\"type\":\"int256\"},{\"internalType\":\"bytes\",\"name\":\"data\",\"type\":\"bytes\"}],\"stateMutability\":\"nonpayable\",\"type\":\"function\",\"name\":\"uniswapV3SwapCallback\"},{\"inputs\":[],\"stateMutability\":\"payable\",\"type\":\"receive\"}],\"devdoc\":{\"kind\":\"dev\",\"methods\":{\"accountingContextForTokenOf(uint256,address)\":{\"details\":\"Accounting contexts are set up in `addDefaultPool(...)`.\",\"params\":{\"projectId\":\"The ID of the project to get the accounting context for.\",\"token\":\"The address of the token to get the accounting context for.\"},\"returns\":{\"_0\":\"A `JBAccountingContext` containing the accounting context for the project ID and token.\"}},\"accountingContextsOf(uint256)\":{\"details\":\"This includes both project-specific and generic accounting contexts, with the project-specific contexts         taking precedence.\",\"params\":{\"projectId\":\"The ID of the project to get the accounting contexts for.\"},\"returns\":{\"_0\":\"An array of `JBAccountingContext` containing the accounting contexts for the project ID.\"}},\"addDefaultPool(uint256,address,address)\":{\"params\":{\"pool\":\"The Uniswap V3 pool to set as the default for the specified token.\",\"projectId\":\"The ID of the project to set the default pool for. The project 0 acts as a catch-all, where non-set pools are defaulted to.\",\"token\":\"The address of the token to set the default pool for.\"}},\"addTwapParamsFor(uint256,address,uint32,uint160)\":{\"params\":{\"projectId\":\"The ID of the project to set the TWAP-based quote rules for.\",\"secondsAgo\":\"The period of time over which the TWAP is calculated, in seconds.\",\"slippageTolerance\":\"The maximum spread allowed between the amount received and the TWAP (as a fraction out of `SLIPPAGE_DENOMINATOR`).\"}},\"getPoolFor(uint256,address)\":{\"params\":{\"projectId\":\"The ID of the project to retrieve the default pool for.\",\"tokenIn\":\"The address of the token to retrieve the default pool for.\"},\"returns\":{\"_0\":\"pool The default pool for the token, or the overall default pool for the token if the\"}},\"owner()\":{\"details\":\"Returns the address of the current owner.\"},\"pay(uint256,address,uint256,address,uint256,string,bytes)\":{\"params\":{\"amount\":\"The amount of tokens being paid in, as a fixed point number with the same amount of decimals as the `token`. If `token` is the native token, `amount` is ignored and `msg.value` is used in its place.\",\"beneficiary\":\"The beneficiary address to pass along to the other terminal. If the other terminal mints tokens, for example, they will be minted for this address.\",\"memo\":\"A memo to pass along to the emitted event.\",\"metadata\":\"Bytes in `JBMetadataResolver`'s format which can contain a quote from the user/client. The quote should contain a minimum amount of tokens to receive from the swap and the pool to use. This metadata is also passed to the other terminal's emitted event, as well as its data hook and pay hook if applicable.\",\"minReturnedTokens\":\"The minimum number of project tokens expected in return, as a fixed point number with the same number of decimals as the other terminal. This value will be passed along to the other terminal.\",\"projectId\":\"The ID of the project being paid.\",\"token\":\"The address of the token being paid in.\"},\"returns\":{\"_0\":\"The number of tokens received from the swap, as a fixed point number with the same amount of decimals as that token.\"}},\"renounceOwnership()\":{\"details\":\"Leaves the contract without owner. It will not be possible to call `onlyOwner` functions. Can only be called by the current owner. NOTE: Renouncing ownership will leave the contract without an owner, thereby disabling any functionality that is only available to the owner.\"},\"supportsInterface(bytes4)\":{\"details\":\"See {IERC165-supportsInterface}.\",\"params\":{\"interfaceId\":\"The ID of the interface to check for adherance to.\"},\"returns\":{\"_0\":\"A flag indicating if the provided interface ID is supported.\"}},\"transferOwnership(address)\":{\"details\":\"Transfers ownership of the contract to a new account (`newOwner`). Can only be called by the current owner.\"},\"twapParamsOf(uint256,address)\":{\"params\":{\"projectId\":\"The ID of the project to retrieve TWAP parameters for.\"},\"returns\":{\"secondsAgo\":\"The period of time in the past to calculate the TWAP from.\",\"slippageTolerance\":\"The maximum allowed slippage tolerance when calculating the TWAP, as a fraction out of `SLIPPAGE_DENOMINATOR`.\"}},\"uniswapV3SwapCallback(int256,int256,bytes)\":{\"params\":{\"amount0Delta\":\"The amount of token 0 being used for the swap.\",\"amount1Delta\":\"The amount of token 1 being used for the swap.\",\"data\":\"Data passed in by the swap operation.\"}}},\"version\":1},\"userdoc\":{\"kind\":\"user\",\"methods\":{\"DIRECTORY()\":{\"notice\":\"The directory of terminals and controllers for `PROJECTS`.\"},\"PERMISSIONS()\":{\"notice\":\"A contract storing permissions.\"},\"PERMIT2()\":{\"notice\":\"The permit2 utility.\"},\"PROJECTS()\":{\"notice\":\"Mints ERC-721s that represent project ownership and transfers.\"},\"STORE()\":{\"notice\":\"The contract that stores and manages this terminal's data.\"},\"WETH()\":{\"notice\":\"The ERC-20 wrapper for the native token.\"},\"accountingContextForTokenOf(uint256,address)\":{\"notice\":\"Get the accounting context for the specified project ID and token.\"},\"accountingContextsOf(uint256)\":{\"notice\":\"Return all the accounting contexts for a specified project ID.\"},\"addAccountingContextsFor(uint256,address[])\":{\"notice\":\"Empty implementation to satisfy the interface. Accounting contexts are set in `addDefaultPool(...)`.\"},\"addDefaultPool(uint256,address,address)\":{\"notice\":\"Set a project's default pool and accounting context for the specified token. Only the project's owner, an address with `MODIFY_DEFAULT_POOL` permission from the owner or the terminal owner can call this function.\"},\"addToBalanceOf(uint256,address,uint256,bool,string,bytes)\":{\"notice\":\"This terminal does not support adding to balances.\"},\"addTwapParamsFor(uint256,address,uint32,uint160)\":{\"notice\":\"Set the specified project's rules for calculating a quote based on the TWAP. Only the project's owner or an address with `MODIFY_TWAP_PARAMS` permission from the owner  or the terminal owner can call this function.\"},\"currentSurplusOf(uint256,uint256,uint256)\":{\"notice\":\"Empty implementation to satisfy the interface. This terminal has no surplus.\"},\"getPoolFor(uint256,address)\":{\"notice\":\"Returns the default pool for a given project and token or, if a project has no default pool for the         token, the overal default pool for the token\"},\"migrateBalanceOf(uint256,address,address)\":{\"notice\":\"Empty implementation to satisfy the interface.\"},\"pay(uint256,address,uint256,address,uint256,string,bytes)\":{\"notice\":\"Pay a project by swapping the incoming tokens for tokens that one of the project's other terminals accepts, passing along the funds received from the swap and the specified parameters.\"},\"supportsInterface(bytes4)\":{\"notice\":\"Indicates if this contract adheres to the specified interface.\"},\"twapParamsOf(uint256,address)\":{\"notice\":\"Returns the default twap parameters for a given pool project.\"},\"uniswapV3SwapCallback(int256,int256,bytes)\":{\"notice\":\"The Uniswap v3 pool callback where the token transfer is expected to happen.\"}},\"version\":1}},\"settings\":{\"remappings\":[\"@bananapus/=node_modules/@bananapus/\",\"@chainlink/=node_modules/@chainlink/\",\"@eth-optimism/=node_modules/@eth-optimism/\",\"@exhausted-pigeon/=node_modules/@exhausted-pigeon/\",\"@gnosis.pm/=node_modules/@gnosis.pm/\",\"@openzeppelin/=node_modules/@openzeppelin/\",\"@prb/=node_modules/@prb/\",\"@sphinx-labs/contracts/=node_modules/@sphinx-labs/contracts/contracts/foundry/\",\"@uniswap/=node_modules/@uniswap/\",\"base64-sol/=node_modules/base64-sol/\",\"ds-test/=lib/forge-std/lib/ds-test/src/\",\"forge-std/=lib/forge-std/src/\",\"hardhat/=node_modules/hardhat/\",\"solmate/=node_modules/solmate/\",\"sphinx-forge-std/=node_modules/sphinx-forge-std/\",\"sphinx-solmate/=node_modules/sphinx-solmate/\",\"sphinx/=lib/sphinx/packages/contracts/contracts/forge-std/src/\"],\"optimizer\":{\"enabled\":true,\"runs\":200},\"metadata\":{\"bytecodeHash\":\"ipfs\"},\"compilationTarget\":{\"src/JBSwapTerminal.sol\":\"JBSwapTerminal\"},\"evmVersion\":\"paris\",\"libraries\":{}},\"sources\":{\"node_modules/@bananapus/core/src/abstract/JBPermissioned.sol\":{\"keccak256\":\"0xbe593894bc9893f7fe5c96f14c013add8f50df762538e3d7cb96ed39ad195664\",\"urls\":[\"bzz-raw://efb81264b24776e6be537680abaeb8c4893e70d8a62231748d860e25a7c2340d\",\"dweb:/ipfs/QmacN9gFgPqkhTEwRD7Zben3whq9DRr2ZkSmScGvioTXXR\"],\"license\":\"MIT\"},\"node_modules/@bananapus/core/src/enums/JBApprovalStatus.sol\":{\"keccak256\":\"0x61c69b6bac7d24b566d87cda23a77e4ca9cdb87200b106aba8534cb9a0973e33\",\"urls\":[\"bzz-raw://6a9ca7249de76f77a8252eefe6bd1b63d47952f25a2acfa2c8db967cdff4470c\",\"dweb:/ipfs/QmaxSxptRQNj8bNy96EreENmrnRWdKmhyihBcxyWzBX5BN\"],\"license\":\"MIT\"},\"node_modules/@bananapus/core/src/interfaces/IJBControlled.sol\":{\"keccak256\":\"0x79fb8de7b3f809f1c3c7189f578b7331ec4dfe3350151d5b50240ecb3a2a907b\",\"urls\":[\"bzz-raw://45c82240dd4f0e9aec00d0d86f6b44bdda231db098ebdac17e922771b3e6f342\",\"dweb:/ipfs/QmPUvT8HZeVenrZDpP14HsZofaXPJjih8UAd35rTg3tU7E\"],\"license\":\"MIT\"},\"node_modules/@bananapus/core/src/interfaces/IJBDirectory.sol\":{\"keccak256\":\"0xd15957cc32974cde4f9f194b92574df2ad8a7aeec049d947136ce3381f9145f6\",\"urls\":[\"bzz-raw://7543e5cbde75ff777b16067016ff9ac5e995752842f03662137eb4ef3fc3c868\",\"dweb:/ipfs/QmPJZAmqNKRcj1JQ4Kc9hExbMtPPzrRB5hZ787utCfBmXg\"],\"license\":\"MIT\"},\"node_modules/@bananapus/core/src/interfaces/IJBPayHook.sol\":{\"keccak256\":\"0xe24aa2ca52f7a5f24f24ccae101cfc94d0f76705b2d23222f87c7852f8be4267\",\"urls\":[\"bzz-raw://6888140e9a7d4156fd22635654d5d08e21819af8b0356b5415f37b75083b3eb9\",\"dweb:/ipfs/QmbuwBNhar7rEbRhTJPiyo5PVsfaM5nqLow9NAkHhyvjV5\"],\"license\":\"MIT\"},\"node_modules/@bananapus/core/src/interfaces/IJBPermissioned.sol\":{\"keccak256\":\"0x5b038d4dee116584e88b230920e56d48e135053e3f7e5642eaea14a775c1dad7\",\"urls\":[\"bzz-raw://19e43102f349fd4a1da1c0943ffb8f2950007fe4bb4bb7e8f74fc142575d091b\",\"dweb:/ipfs/QmXHAt4KzDTdDZgDDefEXH2WKi7NcfkJb9R7nxW5uDqsNp\"],\"license\":\"MIT\"},\"node_modules/@bananapus/core/src/interfaces/IJBPermissions.sol\":{\"keccak256\":\"0x18870e500edf0fbadc353e273a5574701fb80466376b908c65e7cc3f11044d4d\",\"urls\":[\"bzz-raw://352a47c45853aec80e7acf0d286ade3106eb4cb456776b28a3c2f3f1091bed90\",\"dweb:/ipfs/QmQeYd3YbudYZy2hfbfht9kwhxhw4tuuLKMEYy9UY6dcSy\"],\"license\":\"MIT\"},\"node_modules/@bananapus/core/src/interfaces/IJBPriceFeed.sol\":{\"keccak256\":\"0x4bd84c0f1a5d4729ed709bcddd43f4c50ec4a165ece79780af8dce482ed07d4a\",\"urls\":[\"bzz-raw://62bac4bfb6982fb002f620c77e5c445e62d50241a5aa64a07e51d929f5a42180\",\"dweb:/ipfs/QmWgJUDreVY2BuMX38a1iUUR5kNbMwGnKG3VvurB7oZtuM\"],\"license\":\"MIT\"},\"node_modules/@bananapus/core/src/interfaces/IJBPrices.sol\":{\"keccak256\":\"0x99525f31440b955742dce84ba57de9fc1221139b5367c1f834723bef9e13e6e1\",\"urls\":[\"bzz-raw://6fa03f0cd4ad87dd7cbae7bf7f54463450874291773c8f70f2c31ef2cae62bb0\",\"dweb:/ipfs/QmSPajPV5ismteJuB6Spzm9VmhTj2iS3eVrfpJC1Zuzg8n\"],\"license\":\"MIT\"},\"node_modules/@bananapus/core/src/interfaces/IJBProjects.sol\":{\"keccak256\":\"0x85539f72c5871c53a919edc7db78931155464e9e00fccd30079b17e75820ddb9\",\"urls\":[\"bzz-raw://505466dbfbdeec77f948ce065676897a5b4a74b70bb234c1053b893c4849f3a1\",\"dweb:/ipfs/QmYBpZQub3Mv19xsRWqvzgiQSBAp4UNaKcqWQ2wwH62H95\"],\"license\":\"MIT\"},\"node_modules/@bananapus/core/src/interfaces/IJBRedeemHook.sol\":{\"keccak256\":\"0x4ea5b7ed510c9d29aca47ae3f8b41ef075dff4b9909779ec2c0e5b7bc30250c6\",\"urls\":[\"bzz-raw://770b785134ba71e3284dc7e05e44f429e7a8393423ad45cf8fe540408a5b9633\",\"dweb:/ipfs/QmRjXJxZPA1qZos7QjeCxJZ8sCfXfkyDFbzkdqzaqCD9Ds\"],\"license\":\"MIT\"},\"node_modules/@bananapus/core/src/interfaces/IJBRulesetApprovalHook.sol\":{\"keccak256\":\"0x5e9f921a6aa5d9396a12bbc0a878c3f5e8ae0a4ce8a3abe0de12e300718838d7\",\"urls\":[\"bzz-raw://6c9f0610f5bbe07554a1bdc39041be1284c20d81d930bec1eee2d374b86e03f4\",\"dweb:/ipfs/QmPH57wBoPERwDWkBCcj9c5tEUdeeLNe2kv1oFM7cTKVrd\"],\"license\":\"MIT\"},\"node_modules/@bananapus/core/src/interfaces/IJBRulesets.sol\":{\"keccak256\":\"0xda1a9aef337cf9fede3f638ffa58aea2815b87fde0f79628834aa03af9f582d7\",\"urls\":[\"bzz-raw://7941690ba6d94500474978ff0f02ecc56335eae5937759878e25cc1ac30a8ecc\",\"dweb:/ipfs/QmZFc7wof6PzfBTkVyNkjaQrQbjc36CK4uC3Ee2vgihqyK\"],\"license\":\"MIT\"},\"node_modules/@bananapus/core/src/interfaces/IJBTerminalStore.sol\":{\"keccak256\":\"0x81d5eb6c877f535143d26d2bef7be97dabf95122db4b1c6fdd0adc32ddc704ca\",\"urls\":[\"bzz-raw://551ab223b3498a20ae7e2bb3da7169ffa2c0a9ab3bd22c7387b19d69915809a4\",\"dweb:/ipfs/Qma2n7QtVAHmB7pWQavQnSBCouAfh171KezhYbNNmdT3wH\"],\"license\":\"MIT\"},\"node_modules/@bananapus/core/src/interfaces/IJBTokenUriResolver.sol\":{\"keccak256\":\"0xfa5cb00dcd6085d1ef912d071fe73c63f9478a2cd0f9d8bddaf659b6af2d0967\",\"urls\":[\"bzz-raw://282e4e7c342d65f77cde0e9a08fcaf20ef5cf379c7a48b639842c0ffd0b2afb8\",\"dweb:/ipfs/QmbnN3PEQeZaXdPLT75V1J79kMg7KqSMru37RHrL3z8Yf2\"],\"license\":\"MIT\"},\"node_modules/@bananapus/core/src/interfaces/terminal/IJBPermitTerminal.sol\":{\"keccak256\":\"0x9efd208aad91b74041850bfeef658b0cb64e756bf00cb811ea758fb6da0d1e76\",\"urls\":[\"bzz-raw://16160e253dfd77c4c00b56b34349519a60def039319ac4a6ae977e0fd409ad14\",\"dweb:/ipfs/QmQhjX4HzeMT1x9JixjpmusxBYiDxr9oh8ySj4fLwjnJoK\"],\"license\":\"MIT\"},\"node_modules/@bananapus/core/src/interfaces/terminal/IJBTerminal.sol\":{\"keccak256\":\"0x36f23bc27e56fa86d100281a75f5a6ce73f39f32e6a1667ce69f902da1d005ee\",\"urls\":[\"bzz-raw://e8ffa2e264fa12444799cb5706ca577034f3f8be9ff7a2f072981de6a61d706d\",\"dweb:/ipfs/QmR6gQDymvk8JQ77J8VxpFD1Hnxga4w7LLiRvAT3m4LG6T\"],\"license\":\"MIT\"},\"node_modules/@bananapus/core/src/libraries/JBConstants.sol\":{\"keccak256\":\"0x9d3a9a953f859d8ec79a599577f8972de6da7199cc1bfa7fdad017d4d722bcb4\",\"urls\":[\"bzz-raw://f151fcb53a8d2684eff8b9e56ac790bcbcadd8199a4fd4d17c5b224b22936722\",\"dweb:/ipfs/QmdAz1ZtCE8nTiC4AxQNLfJhnY3ndGum2Lbef7seKdvTdR\"],\"license\":\"MIT\"},\"node_modules/@bananapus/core/src/libraries/JBMetadataResolver.sol\":{\"keccak256\":\"0xdbe40563934ac1618c9ba15f92d3efc47383534b5b8889bf5aae092927be9e87\",\"urls\":[\"bzz-raw://630534d226e7b1f86907f48c70b0d5593ad5682936330fe2737082e4383e8a56\",\"dweb:/ipfs/QmfTVQ6M3eVYBJRZH3693Axo7yBoR5mr2YvHHwx6nvJojZ\"],\"license\":\"MIT\"},\"node_modules/@bananapus/core/src/structs/JBAccountingContext.sol\":{\"keccak256\":\"0x2907ff54d1e903cc7e0390dd88c3975884702dc2673642aacbe22b66560b56de\",\"urls\":[\"bzz-raw://a66a5381ce877b32f0e0058ceeaf843e9b6b2bc8af666c0c9f4a9d01091da004\",\"dweb:/ipfs/QmQynCetUr37dBkS1YwDS8evxuXGiqanW6THmeUxXtim8w\"],\"license\":\"MIT\"},\"node_modules/@bananapus/core/src/structs/JBAfterPayRecordedContext.sol\":{\"keccak256\":\"0xd26c3a774ff38be79064085970454fe2603a23a638c76270d5b1b3829206c3e8\",\"urls\":[\"bzz-raw://3b55dbe3bf1ef625b7ca04efab3de35406e6041d5b3d82c7265469c500e2b702\",\"dweb:/ipfs/QmUdBDo4Lt3mcsFcsXT2mqq3czFwZjQJFPLM89YA2VtD7k\"],\"license\":\"MIT\"},\"node_modules/@bananapus/core/src/structs/JBAfterRedeemRecordedContext.sol\":{\"keccak256\":\"0x521f5d23a36f0da72362cd84890cc867bd83baa8dc836ba6c5066d51dba2f163\",\"urls\":[\"bzz-raw://6cc461313286dde62d045d6288e87bae5032e035796326f5b1ed6218e58aa9da\",\"dweb:/ipfs/QmQS2AkQwf2ANQieDuaUnpJEdXChoLv4CCbZqHkfywYPSR\"],\"license\":\"MIT\"},\"node_modules/@bananapus/core/src/structs/JBPayHookSpecification.sol\":{\"keccak256\":\"0x955f0bfca97300b9e5927dc181753830ee362f83fa9ca32a90daade32aa0cfd5\",\"urls\":[\"bzz-raw://f517af1597c7c40f8d3da53f7a6684a3e162950a16559d6bf6ea3b727bb11546\",\"dweb:/ipfs/QmRWo2ZTYXmVZTzNJDYhsJNsEaHphjpUfx9eNz2cciyz86\"],\"license\":\"MIT\"},\"node_modules/@bananapus/core/src/structs/JBPermissionsData.sol\":{\"keccak256\":\"0x8f0f69a6ebf5f3704e3dfcb3712fb9d3f94ae7c1ab89bf3e37bad42a3e7a0487\",\"urls\":[\"bzz-raw://57b0c5e52843e2217082889ed47b4da3943e0da4590d5768dcebfe3edad4a6b8\",\"dweb:/ipfs/QmRz48vuWLw81kUP836rh1qzqWiJFGbksgRUA9xGEDNKTY\"],\"license\":\"MIT\"},\"node_modules/@bananapus/core/src/structs/JBRedeemHookSpecification.sol\":{\"keccak256\":\"0x673d16ee1a91bf8de3b37e57284e60451b70a9c2d748c9cdc7a151f5624af18f\",\"urls\":[\"bzz-raw://ceeb5e81effa0f076c5630c756dfcf1548d09f822b255a0a6ee01e54de8c8ae2\",\"dweb:/ipfs/QmSMoMNPRhPMnuJNvWa6S59XRfycGz9o2ApNp63bUW6TdX\"],\"license\":\"MIT\"},\"node_modules/@bananapus/core/src/structs/JBRuleset.sol\":{\"keccak256\":\"0x15b2bf3174d84846a91ccbf5a344dfb125b55ed9cf50102db8d6868844225189\",\"urls\":[\"bzz-raw://647416b025dbd941094db89cbc69f755c155bd6c87be3f322394ccc4a8e0442d\",\"dweb:/ipfs/QmTCL9xcHnxQ4t5AmCPoZvXDUPW5xhzhyyXYbkMdyg44au\"],\"license\":\"MIT\"},\"node_modules/@bananapus/core/src/structs/JBSingleAllowanceContext.sol\":{\"keccak256\":\"0x5bcd5b3abafe9137ee451b112fcac473b4d48858544279d38d0c56dea5271f44\",\"urls\":[\"bzz-raw://5f17a870c2f1797a18918ab3dc6f404f0224d9e415815c708654a17686cd62c0\",\"dweb:/ipfs/QmWMDffMMrj7ZXquTHSQt8VQm5owo94BdPpJ93NfSp2jrn\"],\"license\":\"MIT\"},\"node_modules/@bananapus/core/src/structs/JBTokenAmount.sol\":{\"keccak256\":\"0x5cf0626b73a596c1e2da17c89ae039a7c0374310b060d48568d3b6c11fbe6180\",\"urls\":[\"bzz-raw://63348b50be95e2995409394a17caffc563a646f0972650a1230bf864fbd3219b\",\"dweb:/ipfs/QmZXZpS3SbFD5nWaCauf6AqbEhLURv5qsKHpThBvQgDU6u\"],\"license\":\"MIT\"},\"node_modules/@bananapus/permission-ids/src/JBPermissionIds.sol\":{\"keccak256\":\"0xcc68735b4c801e953cb7962e069933f369515e7a4a09aea5b2170a268125a898\",\"urls\":[\"bzz-raw://e51f839d96be200efeca40ca4fb1d5b6096303564cdde5cf67aecf58e2d36db3\",\"dweb:/ipfs/QmRnJ5s974eUeyvTuLUpt4TK8t5TjVmz7DyDSAKxgYTnA5\"],\"license\":\"UNLICENSED\"},\"node_modules/@openzeppelin/contracts/access/Ownable.sol\":{\"keccak256\":\"0xff6d0bb2e285473e5311d9d3caacb525ae3538a80758c10649a4d61029b017bb\",\"urls\":[\"bzz-raw://8ed324d3920bb545059d66ab97d43e43ee85fd3bd52e03e401f020afb0b120f6\",\"dweb:/ipfs/QmfEckWLmZkDDcoWrkEvMWhms66xwTLff9DDhegYpvHo1a\"],\"license\":\"MIT\"},\"node_modules/@openzeppelin/contracts/token/ERC20/IERC20.sol\":{\"keccak256\":\"0xc6a8ff0ea489379b61faa647490411b80102578440ab9d84e9a957cc12164e70\",\"urls\":[\"bzz-raw://0ea104e577e63faea3b69c415637e99e755dcbf64c5833d7140c35a714d6d90c\",\"dweb:/ipfs/Qmau6x4Ns9XdyynRCNNp3RhLqijJjFm7z5fyZazfYFGYdq\"],\"license\":\"MIT\"},\"node_modules/@openzeppelin/contracts/token/ERC20/extensions/IERC20Metadata.sol\":{\"keccak256\":\"0xaa761817f6cd7892fcf158b3c776b34551cde36f48ff9703d53898bc45a94ea2\",\"urls\":[\"bzz-raw://0ad7c8d4d08938c8dfc43d75a148863fb324b80cf53e0a36f7e5a4ac29008850\",\"dweb:/ipfs/QmcrhfPgVNf5mkdhQvy1pMv51TFokD3Y4Wa5WZhFqVh8UV\"],\"license\":\"MIT\"},\"node_modules/@openzeppelin/contracts/token/ERC20/extensions/IERC20Permit.sol\":{\"keccak256\":\"0x6008dabfe393240d73d7dd7688033f72740d570aa422254d29a7dce8568f3aff\",\"urls\":[\"bzz-raw://f5196ec75139918c6c7bb4251b36395e668f1fa6d206beba7e7520e74913940d\",\"dweb:/ipfs/QmSyqjksXxmm2mCG6qRd1yuwLykypkSVBbnBnGqJRcuJMi\"],\"license\":\"MIT\"},\"node_modules/@openzeppelin/contracts/token/ERC20/utils/SafeERC20.sol\":{\"keccak256\":\"0x37bb49513c49c87c4642a891b13b63571bc87013dde806617aa1efb54605f386\",\"urls\":[\"bzz-raw://b3036b3a83b7c48f96641f2a9002b9f2dcb6a5958dd670894ada21ae8229b3d0\",\"dweb:/ipfs/QmUNfSBdoVtjhETaUJCYcaC7pTMgbhht926tJ2uXJbiVd3\"],\"license\":\"MIT\"},\"node_modules/@openzeppelin/contracts/token/ERC721/IERC721.sol\":{\"keccak256\":\"0x5ef46daa3b58ef2702279d514780316efaa952915ee1aa3396f041ee2982b0b4\",\"urls\":[\"bzz-raw://2f8f2a76e23b02fc69e8cd24c3cb47da6c7af3a2d6c3a382f8ac25c6e094ade7\",\"dweb:/ipfs/QmPV4ZS4tPVv4mTCf9ejyZ1ai57EEibDRj7mN2ARDCLV5n\"],\"license\":\"MIT\"},\"node_modules/@openzeppelin/contracts/utils/Address.sol\":{\"keccak256\":\"0xaf28a975a78550e45f65e559a3ad6a5ad43b9b8a37366999abd1b7084eb70721\",\"urls\":[\"bzz-raw://b7bd24e224f67f65bfadf85dc2929fa965456bb2415478bd0125471b5ce35245\",\"dweb:/ipfs/QmRaydGr8BTHs1kvaZfsNU69pKzUAGFrvABn1KiRSbE51y\"],\"license\":\"MIT\"},\"node_modules/@openzeppelin/contracts/utils/Context.sol\":{\"keccak256\":\"0x493033a8d1b176a037b2cc6a04dad01a5c157722049bbecf632ca876224dd4b2\",\"urls\":[\"bzz-raw://6a708e8a5bdb1011c2c381c9a5cfd8a9a956d7d0a9dc1bd8bcdaf52f76ef2f12\",\"dweb:/ipfs/Qmax9WHBnVsZP46ZxEMNRQpLQnrdE4dK8LehML1Py8FowF\"],\"license\":\"MIT\"},\"node_modules/@openzeppelin/contracts/utils/introspection/IERC165.sol\":{\"keccak256\":\"0x4296879f55019b23e135000eb36896057e7101fb7fb859c5ef690cf14643757b\",\"urls\":[\"bzz-raw://87b3541437c8c443ccd36795e56a338ed12855eec17f8da624511b8d1a7e14df\",\"dweb:/ipfs/QmeJQCtZrQjtJLr6u7ZHWeH3pBnjtLWzvRrKViAi7UZqxL\"],\"license\":\"MIT\"},\"node_modules/@uniswap/permit2/src/interfaces/IAllowanceTransfer.sol\":{\"keccak256\":\"0x37f0ac203b6ef605c9533e1a739477e8e9dcea90710b40e645a367f8a21ace29\",\"urls\":[\"bzz-raw://e0104d72aeaec1cd66cc232e7de7b7ead08608efcc179491b8a66387614670b0\",\"dweb:/ipfs/QmfAZDyuNC9FXXbnJUwqHNwmAK6uRrXxtWEytLsxjskPsN\"],\"license\":\"MIT\"},\"node_modules/@uniswap/permit2/src/interfaces/IEIP712.sol\":{\"keccak256\":\"0xfdccf2b9639070803cd0e4198427fb0df3cc452ca59bd3b8a0d957a9a4254138\",\"urls\":[\"bzz-raw://f7c936ac42ce89e827db905a1544397f8bdf46db34cdb6aa1b90dea42fdb4c72\",\"dweb:/ipfs/QmVgurxo1N31qZqkPBirw9Z7S9tLYmv6jSwQp8R8ur2cBk\"],\"license\":\"MIT\"},\"node_modules/@uniswap/permit2/src/interfaces/IPermit2.sol\":{\"keccak256\":\"0xaa631cc9f53e699301d94233007110a345e6779011def484e8dd97b8fe0af771\",\"urls\":[\"bzz-raw://fc0502cf19c9c18f320a3001201e89e350393b75837f6b7971de18b2de06f30d\",\"dweb:/ipfs/QmT9SfhdJ7VJNNrf94g4H5usyi7ShqWGx7Cqsz9jZTjX96\"],\"license\":\"MIT\"},\"node_modules/@uniswap/permit2/src/interfaces/ISignatureTransfer.sol\":{\"keccak256\":\"0xe6df9966f8841dc3958ee86169c89de97e7f614c81c28b9dc947b12d732df64e\",\"urls\":[\"bzz-raw://3d4eafdee7f48c3be8350a94eb6edd0bfb2af2c105df65787a77174f356c0317\",\"dweb:/ipfs/QmY1j2adeeAhNpn6cUuthemxGCdLXHTfyMh9yTKsY4mZ2d\"],\"license\":\"MIT\"},\"node_modules/@uniswap/v3-core/contracts/interfaces/IUniswapV3Pool.sol\":{\"keccak256\":\"0x4e64844c56061cd90e0a80de73534a9166704c43eed579eb83f90bc2780ce968\",\"urls\":[\"bzz-raw://cba4fab5cebdddf644b901994a7f0f52b98885d4c56012f4dc51d52c2bf9de0e\",\"dweb:/ipfs/QmVyyrRmqXrAiapewWunRVgiPVFJHpH2hKiE1py1svMSNV\"],\"license\":\"GPL-2.0-or-later\"},\"node_modules/@uniswap/v3-core/contracts/interfaces/callback/IUniswapV3SwapCallback.sol\":{\"keccak256\":\"0x3f485fb1a44e8fbeadefb5da07d66edab3cfe809f0ac4074b1e54e3eb3c4cf69\",\"urls\":[\"bzz-raw://095ce0626b41318c772b3ebf19d548282607f6a8f3d6c41c13edfbd5370c8652\",\"dweb:/ipfs/QmVDZfJJ89UUCE1hMyzqpkZAtQ8jUsBgZNE5AMRG7RzRFS\"],\"license\":\"GPL-2.0-or-later\"},\"node_modules/@uniswap/v3-core/contracts/interfaces/pool/IUniswapV3PoolActions.sol\":{\"keccak256\":\"0x9453dd0e7442188667d01d9b65de3f1e14e9511ff3e303179a15f6fc267f7634\",\"urls\":[\"bzz-raw://982f4328f956c3e60e67501e759eb292ac487f76460c774c50e9ae4fcc92aae5\",\"dweb:/ipfs/QmRnzEDsaqtd9PJEVcgQi7p5aV5pMSvRUoGZJAdwFUJxgZ\"],\"license\":\"GPL-2.0-or-later\"},\"node_modules/@uniswap/v3-core/contracts/interfaces/pool/IUniswapV3PoolDerivedState.sol\":{\"keccak256\":\"0xe603ac5b17ecdee73ba2b27efdf386c257a19c14206e87eee77e2017b742d9e5\",\"urls\":[\"bzz-raw://8febc9bdb399a4d94bb89f5377732652e2400e4a8dee808201ade6848f9004e7\",\"dweb:/ipfs/QmaKDqYYFU4d2W2iN77aDHptfbFmYZRrMYXHeGpJmM8C1c\"],\"license\":\"GPL-2.0-or-later\"},\"node_modules/@uniswap/v3-core/contracts/interfaces/pool/IUniswapV3PoolErrors.sol\":{\"keccak256\":\"0xf80abf13fb1fafc127ba4e792f240dd8ea7c8c893978cdfd8439c27fae9a037b\",\"urls\":[\"bzz-raw://b04fc72a656bbf3631e9c2e67b9870a2d9d235185e833fe050e9606e6816a9aa\",\"dweb:/ipfs/QmUcz4bkEkJ9pwzFu1C3n97hBQ3st9U6qTAqCdyFwddKco\"],\"license\":\"GPL-2.0-or-later\"},\"node_modules/@uniswap/v3-core/contracts/interfaces/pool/IUniswapV3PoolEvents.sol\":{\"keccak256\":\"0x8071514d0fe5d17d6fbd31c191cdfb703031c24e0ece3621d88ab10e871375cd\",\"urls\":[\"bzz-raw://d0b571930cc7488b1d546a7e9cea7c52d8b3c4e207da657ed0e0db7343b8cd03\",\"dweb:/ipfs/QmaGK6vVwB95QSTR1XMYvrh7ivYAYZxi3fD7v6VMA4jZ39\"],\"license\":\"GPL-2.0-or-later\"},\"node_modules/@uniswap/v3-core/contracts/interfaces/pool/IUniswapV3PoolImmutables.sol\":{\"keccak256\":\"0xf6e5d2cd1139c4c276bdbc8e1d2b256e456c866a91f1b868da265c6d2685c3f7\",\"urls\":[\"bzz-raw://b99c8c9ae8e27ee6559e5866bea82cbc9ffc8247f8d15b7422a4deb287d4d047\",\"dweb:/ipfs/QmfL8gaqt3ffAnm6nVj5ksuNpLygXuL3xq5VBqrkwC2JJ3\"],\"license\":\"GPL-2.0-or-later\"},\"node_modules/@uniswap/v3-core/contracts/interfaces/pool/IUniswapV3PoolOwnerActions.sol\":{\"keccak256\":\"0x759b78a2918af9e99e246dc3af084f654e48ef32bb4e4cb8a966aa3dcaece235\",\"urls\":[\"bzz-raw://64144fb96e1c7fdba87305acadb98a198d26a3d46c097cb3a666e567f6f29735\",\"dweb:/ipfs/QmUnWVwN9FKB9uV5Pr8YfLpWZnYM2DENnRMaadZ492JS9u\"],\"license\":\"GPL-2.0-or-later\"},\"node_modules/@uniswap/v3-core/contracts/interfaces/pool/IUniswapV3PoolState.sol\":{\"keccak256\":\"0x44fa2ce1182f6c2f6bead3d1737804bf7e112252ae86e0f2e92f9b8249603f43\",\"urls\":[\"bzz-raw://54154e8665b98d65f5dc91b256551852cb47882180b501b260657122d207c0ea\",\"dweb:/ipfs/QmcfemK1A2PXYrWB5SBFGERpMCderbFRb8BtTzQDj1sUBp\"],\"license\":\"GPL-2.0-or-later\"},\"node_modules/@uniswap/v3-core/contracts/libraries/FullMath.sol\":{\"keccak256\":\"0x7825565a4bb2a34a1dc96bbfead755785dfb0df8ef81bd934c43023689685645\",\"urls\":[\"bzz-raw://8f44f4614d31e3d4864c7eb13620555253b84f6a69180f8745b7c6e246a9d125\",\"dweb:/ipfs/QmfNQUcXj3KL8h9u5PqbtEC6yRtwDbKNb48uMPjdwxsKnd\"],\"license\":\"MIT\"},\"node_modules/@uniswap/v3-core/contracts/libraries/TickMath.sol\":{\"keccak256\":\"0x5c57de03a91cc2ec8939865dbbcb0197bb6c353b711075eefd8e0fca5e102129\",\"urls\":[\"bzz-raw://1e994c24fd891ef8a3f5dbf5eba42b34feaf05e0376a29f91322faa18054449c\",\"dweb:/ipfs/QmNdUJGUQxd1dPkMbnA5f5UNqakxRkQE5r7bTZJAuHeapS\"],\"license\":\"GPL-2.0-or-later\"},\"node_modules/@uniswap/v3-periphery/contracts/libraries/OracleLibrary.sol\":{\"keccak256\":\"0xe313f89c69c0f1c91f0722868313b4ceb14479b3e7a0abf52a1b9bbd9c18e81b\",\"urls\":[\"bzz-raw://8ad09b061f3f533c116618c20cf01510108eebebb7ff8847b0f245b8ba368d53\",\"dweb:/ipfs/QmU6vdi5JjJfjK2KqonWvRg9NeuQWarj4B1YFN22Dh9VJM\"],\"license\":\"GPL-2.0-or-later\"},\"src/JBSwapTerminal.sol\":{\"keccak256\":\"0x4c45ee88055708a1631fe1588f4df404913d7fb251ebdb9786b77a7d9f662ab6\",\"urls\":[\"bzz-raw://c18355e5ff5be40db4122b031a07479a8cc1e8df4d616313c64175231c25d7cf\",\"dweb:/ipfs/QmXkhdRKDTUX2JBwM4oc8PtqL5LYYjBHCBEXYdpzD7ouiH\"],\"license\":\"MIT\"},\"src/interfaces/IWETH9.sol\":{\"keccak256\":\"0x50083bcaca6c1a8d12c79116fab4f6d8cd452a510cb3f00c4a8bc3a54678efb7\",\"urls\":[\"bzz-raw://726f187112d0953c14bff8099a8c9ce1ead47eb25e90839f77b100feaaf16127\",\"dweb:/ipfs/QmTEnMENpLjcTQLMwz4kEUiQHfiTkaZT3TL37nQ8JiRYh5\"],\"license\":\"GPL-2.0-or-later\"}},\"version\":1}",
			"args": [
				"0x4d9207aBEcA883161A1eAee9DaBeDC0001c198d7",
				"0xBA24624AE5dc821866E9E71Ed050412Ef01E2fe6",
				"0x18017cfeD48E1dC0Adc445cEF8A9e6AfFCb330DA",
				"0x000000000022D473030F116dDEE9F6B43aC78BA3",
				"0x823b92d6a4b2AED4b15675c7917c9f922ea8ADAD",
				"0x7b79995e5f793A07Bc00c21412e50Ecae098E7f9"
			],
			"bytecode": "0x610140604052600580546001600160a01b0319166127101790553480156200002657600080fd5b50604051620037a8380380620037a883398101604081905262000049916200011e565b6001600160a01b03808616608052829081166200008057604051631e4fbdf760e01b81526000600482015260240160405180910390fd5b6200008b81620000b5565b506001600160a01b0395861660a05292851660c052508316610100529091166101205250620001b2565b600080546001600160a01b038381166001600160a01b0319831681178455604051919092169283917f8be0079c531659141344cd1fd0a4f28419497f9722a3daafe3b4186f6b6457e09190a35050565b6001600160a01b03811681146200011b57600080fd5b50565b60008060008060008060c087890312156200013857600080fd5b8651620001458162000105565b6020880151909650620001588162000105565b60408801519095506200016b8162000105565b60608801519094506200017e8162000105565b6080880151909350620001918162000105565b60a0880151909250620001a48162000105565b809150509295509295509295565b60805160a05160c05160e051610100516101205161355262000256600039600081816101490152818161046701528181610dca01528181610f1501528181610ffd0152611b85015260008181610379015281816121d501526123dc015260006103180152600081816103e2015261122e0152600081816101f5015281816106050152610c9901526000818161052801528181611481015261152a01526135526000f3fe6080604052600436106101395760003560e01c80638da5cb5b116100ab578063cc6801271161006f578063cc680127146104a9578063e28b5411146104db578063f2fde38b146104f6578063f434c91414610516578063fa461e331461054a578063fef432571461056a57600080fd5b80638da5cb5b1461040457806398ea47fc146104225780639e6eec0514610442578063ad5c464814610455578063c361534c1461048957600080fd5b8063507f1465116100fd578063507f146514610306578063515a92931461033a5780636afdd85014610367578063715018a61461039b5780637c5e9c24146103b057806388bc2ef3146103d057600080fd5b806301ffc9a71461018e57806324e26dc5146101c3578063293c4999146101e35780633a01714f1461022f57806340873cb5146102c257600080fd5b3661018957336001600160a01b037f0000000000000000000000000000000000000000000000000000000000000000161461018757604051635e7e9adf60e11b815260040160405180910390fd5b005b600080fd5b34801561019a57600080fd5b506101ae6101a936600461287c565b61057d565b60405190151581526020015b60405180910390f35b3480156101cf57600080fd5b506101876101de3660046128bb565b6105cf565b3480156101ef57600080fd5b506102177f000000000000000000000000000000000000000000000000000000000000000081565b6040516001600160a01b0390911681526020016101ba565b34801561023b57600080fd5b506102b561024a3660046128fd565b604080516060808201835260008083526020808401829052928401819052948552600382528285206001600160a01b03948516865282529382902082519485018352549283168452600160a01b830460ff1690840152600160a81b90910463ffffffff169082015290565b6040516101ba919061292d565b3480156102ce57600080fd5b506102e26102dd3660046128fd565b6107d5565b6040805163ffffffff90931683526001600160a01b039091166020830152016101ba565b34801561031257600080fd5b506102177f000000000000000000000000000000000000000000000000000000000000000081565b34801561034657600080fd5b5061035a610355366004612960565b61084b565b6040516101ba9190612979565b34801561037357600080fd5b506102177f000000000000000000000000000000000000000000000000000000000000000081565b3480156103a757600080fd5b50610187610bca565b3480156103bc57600080fd5b506102176103cb3660046128fd565b610bde565b3480156103dc57600080fd5b506102177f000000000000000000000000000000000000000000000000000000000000000081565b34801561041057600080fd5b506000546001600160a01b0316610217565b34801561042e57600080fd5b5061018761043d3660046129ed565b505050565b610187610450366004612abc565b610c4a565b34801561046157600080fd5b506102177f000000000000000000000000000000000000000000000000000000000000000081565b34801561049557600080fd5b506101876104a4366004612b64565b610c63565b3480156104b557600080fd5b506104cd6104c4366004612bc0565b60009392505050565b6040519081526020016101ba565b3480156104e757600080fd5b506104cd6104c43660046128bb565b34801561050257600080fd5b50610187610511366004612bec565b610d59565b34801561052257600080fd5b506102177f000000000000000000000000000000000000000000000000000000000000000081565b34801561055657600080fd5b50610187610565366004612c09565b610d9c565b6104cd610578366004612c5c565b610eb8565b60006001600160e01b03198216632f720bd160e21b14806105ae57506001600160e01b031982166306afdd8560e41b145b806105c957506001600160e01b031982166301ffc9a760e01b145b92915050565b821580156105e757506000546001600160a01b031633145b610680576040516331a9108f60e11b815260048101849052610680907f00000000000000000000000000000000000000000000000000000000000000006001600160a01b031690636352211e90602401602060405180830381865afa158015610654573d6000803e3d6000fd5b505050506040513d601f19601f820116820180604052508101906106789190612d10565b84601b611437565b60008381526002602090815260408083206001600160a01b038681168086529184529382902080546001600160a01b031916948616949094179093558051606081018252838152815163313ce56760e01b81529151909384840193909263313ce56792600480830193928290030181865afa158015610703573d6000803e3d6000fd5b505050506040513d601f19601f820116820180604052508101906107279190612d2d565b60ff908116825263ffffffff80861660209384015260008781526003845260408082206001600160a01b03988916808452908652818320875181548989015199850151909616600160a81b0263ffffffff60a81b1999909716600160a01b026001600160a81b03199096169a1699909917939093179590951692909217909555948552600481529084208054600181018255908552932090920180546001600160a01b031916909117905550565b60008281526001602090815260408083206001600160a01b0385168452909152812054819080820361083b57506001600160a01b03831660009081527fa6eef7e35abe7026729641147f7915573c7e97b47efa546f5f6e3230263bcb4960205260409020545b915050602081901c5b9250929050565b60008181526004602090815260408083208054825181850281018501909352808352606094938301828280156108aa57602002820191906000526020600020905b81546001600160a01b0316815260019091019060200180831161088c575b50506000808052600460209081527f17ef568e3e12ab5b9c7254a8d58478811de00f9e6eb34345acd53bf8fd09d3ec8054604080518285028101850190915281815297985092969550935090915083018282801561093157602002820191906000526020600020905b81546001600160a01b03168152600190910190602001808311610913575b505050505090506000815183516109489190612d66565b67ffffffffffffffff81111561096057610960612d79565b6040519080825280602002602001820160405280156109ab57816020015b604080516060810182526000808252602080830182905292820152825260001990920191018161097e5790505b50835190915060005b8451811015610a65576003600088815260200190815260200160002060008683815181106109e4576109e4612d8f565b6020908102919091018101516001600160a01b039081168352828201939093526040918201600020825160608101845290549384168152600160a01b840460ff1691810191909152600160a81b90920463ffffffff16908201528351849083908110610a5257610a52612d8f565b60209081029190910101526001016109b4565b5060005b8351811015610bb3576000805b8651811015610adb57858381518110610a9157610a91612d8f565b60200260200101516001600160a01b0316878281518110610ab457610ab4612d8f565b60200260200101516001600160a01b031603610ad35760019150610adb565b600101610a76565b5080610baa576000808052600360205285517f3617319a054d772f909f7c479a2cebe5066e836a939412e32403c99029b92eff9190879085908110610b2257610b22612d8f565b6020908102919091018101516001600160a01b039081168352828201939093526040918201600020825160608101845290549384168152600160a01b840460ff1691810191909152600160a81b90920463ffffffff16908201528451859085908110610b9057610b90612d8f565b60200260200101819052508280610ba690612da5565b9350505b50600101610a69565b508151811015610bc1578082525b50949350505050565b610bd26115bb565b610bdc60006115e8565b565b60008281526002602090815260408083206001600160a01b03808616855292528220541680610c4357506001600160a01b0380831660009081527fac33ff75c19e70fe83507db0d683fd3465c996598dc972688b7ace676c89077b6020526040902054165b9392505050565b604051630d831b5560e11b815260040160405180910390fd5b83158015610c7b57506000546001600160a01b031633145b610d14576040516331a9108f60e11b815260048101859052610d14907f00000000000000000000000000000000000000000000000000000000000000006001600160a01b031690636352211e90602401602060405180830381865afa158015610ce8573d6000803e3d6000fd5b505050506040513d601f19601f82011682018060405250810190610d0c9190612d10565b85601c611437565b60009384526001602090815260408086206001600160a01b03959095168652938152929093209290911b640100000000600160c01b031663ffffffff91909116179055565b610d616115bb565b6001600160a01b038116610d9057604051631e4fbdf760e01b8152600060048201526024015b60405180910390fd5b610d99816115e8565b50565b600080610dab83850185612dbe565b915091506000808712610dbe5786610dc0565b855b90508115610e3d577f00000000000000000000000000000000000000000000000000000000000000006001600160a01b031663d0e30db0826040518263ffffffff1660e01b81526004016000604051808303818588803b158015610e2357600080fd5b505af1158015610e37573d6000803e3d6000fd5b50505050505b60405163a9059cbb60e01b8152336004820152602481018290526001600160a01b0384169063a9059cbb906044016020604051808303816000875af1158015610e8a573d6000803e3d6000fd5b505050506040513d601f19601f82011682018060405250810190610eae9190612dec565b5050505050505050565b6040805161010081018252600060208201819052918101829052606081018290526080810182905260a0810182905260c0810182905260e081018290528a81526001600160a01b038a1661eeed1901610f4c576001600160a01b037f0000000000000000000000000000000000000000000000000000000000000000166040820152600160608201523460c0820152610f63565b6001600160a01b038a16604082015260c081018990525b600080610fad630535741560e41b87878080601f01602080910402602001604051908101604052809392919081815260200183838082843760009201919091525061163892505050565b91509150811561104457600081806020019051810190610fcd9190612e09565b6001600160a01b03918216602088015260e0870192909252909150811661eeed190161102e576001600160a01b037f0000000000000000000000000000000000000000000000000000000000000000166080850152600160a085015261103e565b6001600160a01b03811660808501525b50611228565b6000600260008f815260200190815260200160002060008e6001600160a01b03166001600160a01b0316815260200190815260200160002060009054906101000a90046001600160a01b0316905060006001600160a01b0316816001600160a01b03160361110557506001600160a01b03808d1660009081527fac33ff75c19e70fe83507db0d683fd3465c996598dc972688b7ace676c89077b6020526040902054168061110557604051632a12044160e21b815260040160405180910390fd5b6001600160a01b038116602080860182905260408051630dfe168160e01b8152905160009384939092630dfe168192600480830193928290030181865afa158015611154573d6000803e3d6000fd5b505050506040513d601f19601f820116820180604052508101906111789190612d10565b836001600160a01b031663d21220a76040518163ffffffff1660e01b8152600401602060405180830381865afa1580156111b6573d6000803e3d6000fd5b505050506040513d601f19601f820116820180604052508101906111da9190612d10565b915091508e6001600160a01b0316826001600160a01b0316146111fd57816111ff565b805b6001600160a01b03166080870152611216866117dd565b6001600160a01b031660e08701525050505b505060007f00000000000000000000000000000000000000000000000000000000000000006001600160a01b031663862026508d8460a0015161126f578460800151611273565b61eeee5b6040516001600160e01b031960e085901b16815260048101929092526001600160a01b03166024820152604401602060405180830381865afa1580156112bd573d6000803e3d6000fd5b505050506040513d601f19601f820116820180604052508101906112e19190612d10565b90506001600160a01b03811661130a57604051630faa917b60e11b815260040160405180910390fd5b61131582868661189c565b60c08301526060820151600090801561132f57508260a001515b80611353575082608001516001600160a01b031683604001516001600160a01b0316145b15611363575060c082015161136f565b61136c83611a00565b90505b61137e82846080015183611bf4565b816001600160a01b031663fef432578460a0015161139d57600061139f565b825b855160a08701516113b45786608001516113b8565b61eeee5b858f8f8f8f8f8f6040518b63ffffffff1660e01b81526004016113e399989796959493929190612e6a565b60206040518083038185885af1158015611401573d6000803e3d6000fd5b50505050506040513d601f19601f820116820180604052508101906114269190612ece565b509c9b505050505050505050505050565b336001600160a01b03841681148015906114ee575060405163c161c93f60e01b81526001600160a01b038281166004830152858116602483015260448201859052606482018490527f0000000000000000000000000000000000000000000000000000000000000000169063c161c93f90608401602060405180830381865afa1580156114c8573d6000803e3d6000fd5b505050506040513d601f19601f820116820180604052508101906114ec9190612dec565b155b8015611597575060405163c161c93f60e01b81526001600160a01b038281166004830152858116602483015260006044830152606482018490527f0000000000000000000000000000000000000000000000000000000000000000169063c161c93f90608401602060405180830381865afa158015611571573d6000803e3d6000fd5b505050506040513d601f19601f820116820180604052508101906115959190612dec565b155b156115b55760405163075fd2b160e01b815260040160405180910390fd5b50505050565b6000546001600160a01b03163314610bdc5760405163118cdaa760e01b8152336004820152602401610d87565b600080546001600160a01b038381166001600160a01b0319831681178455604051919092169283917f8be0079c531659141344cd1fd0a4f28419497f9722a3daafe3b4186f6b6457e09190a35050565b60006060602583511161165d5750506040805160208101909152600080825290610844565b60008361166c60046020612d66565b8151811061167c5761167c612d8f565b0160209081015160f81c91505b600085611697600484612d66565b815181106116a7576116a7612d8f565b01602001516001600160f81b031916148015906116cd57506116ca602083612ee7565b81105b156117d4576000856116e0600484612d66565b815181106116f0576116f0612d8f565b016020908101518784019091015160f89190911c91506001600160e01b0319808916908216036117ca576000611727602086612ee7565b611732600986612d66565b101580611767575087611746600986612d66565b8151811061175657611756612d8f565b01602001516001600160f81b031916155b6117a057602088611779600987612d66565b8151811061178957611789612d8f565b016020015161179b919060f81c612ee7565b6117a3565b87515b905060016117bc896117b6602087612ee7565b84611c20565b965096505050505050610844565b5050600501611689565b50509250929050565b60008060006117f4846000015185602001516107d5565b915091506000611808856020015184611c66565b509050600061181682611eb0565b905085608001516001600160a01b031686604001516001600160a01b031610611868576005546001600160a01b031661184f8483612efe565b6118599190612f46565b6118639082612f6c565b611892565b6005546001600160a01b031661187e8483612efe565b6118889190612f46565b6118929082612f93565b9695505050505050565b6040830151606084015160009190156118b85734915050610c43565b34156118d757604051635e7e9adf60e11b815260040160405180910390fd5b60008061191d3060e01b87878080601f01602080910402602001604051908101604052809392919081815260200183838082843760009201919091525061163892505050565b91509150811561197d5760008180602001905181019061193d919061304c565b90508760c0015181602001516001600160a01b03161015611971576040516317e415a160e11b815260040160405180910390fd5b61197b81856121d3565b505b61198d3330858a60c001516122d2565b6040516370a0823160e01b81523060048201526001600160a01b038416906370a0823190602401602060405180830381865afa1580156119d1573d6000803e3d6000fd5b505050506040513d601f19601f820116820180604052508101906119f59190612ece565b979650505050505050565b600080826040015190506000836080015190506000816001600160a01b0316836001600160a01b031610905060008086602001516001600160a01b031663128acb0830858a60c0015187611a7257611a6d600173fffd8963efd1fc6a506488495d951d5263988d26612f93565b611a82565b611a826401000276a36001612f6c565b60608d810151604080516001600160a01b038f16602082015291151590820152016040516020818303038152906040526040518663ffffffff1660e01b8152600401611ad2959493929190613178565b60408051808303816000875af1158015611af0573d6000803e3d6000fd5b505050506040513d601f19601f82011682018060405250810190611b1491906131b3565b9150915082611b235781611b25565b805b611b2e906131d7565b95508660e00151861015611b655760e0870151604051630bb50c5d60e41b8152610d87918891600401918252602082015260400190565b8660a0015115611bea57604051632e1a7d4d60e01b8152600481018790527f00000000000000000000000000000000000000000000000000000000000000006001600160a01b031690632e1a7d4d90602401600060405180830381600087803b158015611bd157600080fd5b505af1158015611be5573d6000803e3d6000fd5b505050505b5050505050919050565b61eeed196001600160a01b03831601611c0c57505050565b61043d6001600160a01b0383168483612434565b60608282036040519150602081830101604052808252508260208501016020820160005b84811015611c5c578281015182820152602001611c44565b5050509392505050565b6000808263ffffffff16600003611ca45760405162461bcd60e51b8152602060048201526002602482015261042560f41b6044820152606401610d87565b6040805160028082526060820183526000926020830190803683370190505090508381600081518110611cd957611cd9612d8f565b602002602001019063ffffffff16908163ffffffff1681525050600081600181518110611d0857611d08612d8f565b602002602001019063ffffffff16908163ffffffff1681525050600080866001600160a01b031663883bdbfd846040518263ffffffff1660e01b8152600401611d5191906131f3565b600060405180830381865afa158015611d6e573d6000803e3d6000fd5b505050506040513d6000823e601f3d908101601f19168201604052611d9691908101906132cd565b91509150600082600081518110611daf57611daf612d8f565b602002602001015183600181518110611dca57611dca612d8f565b6020026020010151611ddc9190613399565b9050600082600081518110611df357611df3612d8f565b602002602001015183600181518110611e0e57611e0e612d8f565b6020026020010151611e209190612f93565b9050611e3263ffffffff8916836133c6565b965060008260060b128015611e585750611e5263ffffffff891683613404565b60060b15155b15611e6b5786611e6781613426565b9750505b6000611e846001600160a01b0363ffffffff8b16613449565b9050611ea1640100000000600160c01b03602084901b1682613472565b96505050505050509250929050565b60008060008360020b12611ec7578260020b611ecf565b8260020b6000035b9050620d89e8811115611ef5576040516315e4079d60e11b815260040160405180910390fd5b600081600116600003611f0c57600160801b611f1e565b6ffffcb933bd6fad37aa2d162d1a5940015b70ffffffffffffffffffffffffffffffffff1690506002821615611f52576ffff97272373d413259a46990580e213a0260801c5b6004821615611f71576ffff2e50f5f656932ef12357cf3c7fdcc0260801c5b6008821615611f90576fffe5caca7e10e4e61c3624eaa0941cd00260801c5b6010821615611faf576fffcb9843d60f6159c9db58835c9266440260801c5b6020821615611fce576fff973b41fa98c081472e6896dfb254c00260801c5b6040821615611fed576fff2ea16466c96a3843ec78b326b528610260801c5b608082161561200c576ffe5dee046a99a2a811c461f1969c30530260801c5b61010082161561202c576ffcbe86c7900a88aedcffc83b479aa3a40260801c5b61020082161561204c576ff987a7253ac413176f2b074cf7815e540260801c5b61040082161561206c576ff3392b0822b70005940c7a398e4b70f30260801c5b61080082161561208c576fe7159475a2c29b7443b29c7fa6e889d90260801c5b6110008216156120ac576fd097f3bdfd2022b8845ad8f792aa58250260801c5b6120008216156120cc576fa9f746462d870fdf8a65dc1f90e061e50260801c5b6140008216156120ec576f70d869a156d2a1b890bb3df62baf32f70260801c5b61800082161561210c576f31be135f97d08fd981231505542fcfa60260801c5b6201000082161561212d576f09aa508b5b7a84e1c677de54f3e99bc90260801c5b6202000082161561214d576e5d6af8dedb81196699c329225ee6040260801c5b6204000082161561216c576d2216e584f5fa1ea926041bedfe980260801c5b62080000821615612189576b048a170391f7dc42444e8fa20260801c5b60008460020b13156121aa5780600019816121a6576121a6612f30565b0490505b6401000000008106156121be5760016121c1565b60005b60ff16602082901c0192505050919050565b7f00000000000000000000000000000000000000000000000000000000000000006001600160a01b0316632b67b5703360405180606001604052806040518060800160405280876001600160a01b0316815260200188602001516001600160a01b03168152602001886040015165ffffffffffff168152602001886060015165ffffffffffff168152508152602001306001600160a01b03168152602001866000015181525085608001516040518463ffffffff1660e01b815260040161229c9392919061348c565b600060405180830381600087803b1580156122b657600080fd5b505af11580156122ca573d6000803e3d6000fd5b505050505050565b61eeed196001600160a01b038316016122f4576122ef83826124be565b6115b5565b306001600160a01b03851603612318576122ef6001600160a01b0383168483612555565b604051636eb1769f60e11b81526001600160a01b03858116600483015230602483015282919084169063dd62ed3e90604401602060405180830381865afa158015612367573d6000803e3d6000fd5b505050506040513d601f19601f8201168201806040525081019061238b9190612ece565b106123a5576122ef6001600160a01b0383168585846125b4565b604051631b63c28b60e11b81526001600160a01b0385811660048301528481166024830152828116604483015283811660648301527f000000000000000000000000000000000000000000000000000000000000000016906336c7851690608401600060405180830381600087803b15801561242057600080fd5b505af1158015610eae573d6000803e3d6000fd5b604051636eb1769f60e11b81523060048201526001600160a01b0383811660248301526000919085169063dd62ed3e90604401602060405180830381865afa158015612484573d6000803e3d6000fd5b505050506040513d601f19601f820116820180604052508101906124a89190612ece565b90506115b584846124b98585612d66565b6125ed565b804710156124e15760405163cd78605960e01b8152306004820152602401610d87565b6000826001600160a01b03168260405160006040518083038185875af1925050503d806000811461252e576040519150601f19603f3d011682016040523d82523d6000602084013e612533565b606091505b505090508061043d57604051630a12f52160e11b815260040160405180910390fd5b6040516001600160a01b0383811660248301526044820183905261043d91859182169063a9059cbb906064015b604051602081830303815290604052915060e01b6020820180516001600160e01b038381831617835250505050612679565b6040516001600160a01b0384811660248301528381166044830152606482018390526115b59186918216906323b872dd90608401612582565b604080516001600160a01b038416602482015260448082018490528251808303909101815260649091019091526020810180516001600160e01b031663095ea7b360e01b17905261263e84826126dc565b6115b5576040516001600160a01b0384811660248301526000604483015261267391869182169063095ea7b390606401612582565b6115b584825b600061268e6001600160a01b03841683612784565b905080516000141580156126b35750808060200190518101906126b19190612dec565b155b1561043d57604051635274afe760e01b81526001600160a01b0384166004820152602401610d87565b6000806000846001600160a01b0316846040516126f99190613500565b6000604051808303816000865af19150503d8060008114612736576040519150601f19603f3d011682016040523d82523d6000602084013e61273b565b606091505b50915091508180156127655750805115806127655750808060200190518101906127659190612dec565b801561277b57506000856001600160a01b03163b115b95945050505050565b6060610c438383600084600080856001600160a01b031684866040516127aa9190613500565b60006040518083038185875af1925050503d80600081146127e7576040519150601f19603f3d011682016040523d82523d6000602084013e6127ec565b606091505b509150915061189286838360608261280c5761280782612853565b610c43565b815115801561282357506001600160a01b0384163b155b1561284c57604051639996b31560e01b81526001600160a01b0385166004820152602401610d87565b5080610c43565b8051156128635780518082602001fd5b604051630a12f52160e11b815260040160405180910390fd5b60006020828403121561288e57600080fd5b81356001600160e01b031981168114610c4357600080fd5b6001600160a01b0381168114610d9957600080fd5b6000806000606084860312156128d057600080fd5b8335925060208401356128e2816128a6565b915060408401356128f2816128a6565b809150509250925092565b6000806040838503121561291057600080fd5b823591506020830135612922816128a6565b809150509250929050565b81516001600160a01b0316815260208083015160ff169082015260408083015163ffffffff1690820152606081016105c9565b60006020828403121561297257600080fd5b5035919050565b6020808252825182820181905260009190848201906040850190845b818110156129e1576129ce83855180516001600160a01b0316825260208082015160ff169083015260409081015163ffffffff16910152565b9284019260609290920191600101612995565b50909695505050505050565b600080600060408486031215612a0257600080fd5b83359250602084013567ffffffffffffffff80821115612a2157600080fd5b818601915086601f830112612a3557600080fd5b813581811115612a4457600080fd5b8760208260051b8501011115612a5957600080fd5b6020830194508093505050509250925092565b8015158114610d9957600080fd5b60008083601f840112612a8c57600080fd5b50813567ffffffffffffffff811115612aa457600080fd5b60208301915083602082850101111561084457600080fd5b60008060008060008060008060c0898b031215612ad857600080fd5b883597506020890135612aea816128a6565b9650604089013595506060890135612b0181612a6c565b9450608089013567ffffffffffffffff80821115612b1e57600080fd5b612b2a8c838d01612a7a565b909650945060a08b0135915080821115612b4357600080fd5b50612b508b828c01612a7a565b999c989b5096995094979396929594505050565b60008060008060808587031215612b7a57600080fd5b843593506020850135612b8c816128a6565b9250604085013563ffffffff81168114612ba557600080fd5b91506060850135612bb5816128a6565b939692955090935050565b600080600060608486031215612bd557600080fd5b505081359360208301359350604090920135919050565b600060208284031215612bfe57600080fd5b8135610c43816128a6565b60008060008060608587031215612c1f57600080fd5b8435935060208501359250604085013567ffffffffffffffff811115612c4457600080fd5b612c5087828801612a7a565b95989497509550505050565b600080600080600080600080600060e08a8c031215612c7a57600080fd5b8935985060208a0135612c8c816128a6565b975060408a0135965060608a0135612ca3816128a6565b955060808a0135945060a08a013567ffffffffffffffff80821115612cc757600080fd5b612cd38d838e01612a7a565b909650945060c08c0135915080821115612cec57600080fd5b50612cf98c828d01612a7a565b915080935050809150509295985092959850929598565b600060208284031215612d2257600080fd5b8151610c43816128a6565b600060208284031215612d3f57600080fd5b815160ff81168114610c4357600080fd5b634e487b7160e01b600052601160045260246000fd5b808201808211156105c9576105c9612d50565b634e487b7160e01b600052604160045260246000fd5b634e487b7160e01b600052603260045260246000fd5b600060018201612db757612db7612d50565b5060010190565b60008060408385031215612dd157600080fd5b8235612ddc816128a6565b9150602083013561292281612a6c565b600060208284031215612dfe57600080fd5b8151610c4381612a6c565b600080600060608486031215612e1e57600080fd5b835192506020840151612e30816128a6565b60408501519092506128f2816128a6565b81835281816020850137506000828201602090810191909152601f909101601f19169091010190565b8981526001600160a01b03898116602083015260408201899052871660608201526080810186905260e060a08201819052600090612eab9083018688612e41565b82810360c0840152612ebe818587612e41565b9c9b505050505050505050505050565b600060208284031215612ee057600080fd5b5051919050565b80820281158282048414176105c9576105c9612d50565b6001600160a01b03828116828216818102831692918115828504821417612f2757612f27612d50565b50505092915050565b634e487b7160e01b600052601260045260246000fd5b60006001600160a01b0383811680612f6057612f60612f30565b92169190910492915050565b6001600160a01b03818116838216019080821115612f8c57612f8c612d50565b5092915050565b6001600160a01b03828116828216039080821115612f8c57612f8c612d50565b60405160a0810167ffffffffffffffff81118282101715612fd657612fd6612d79565b60405290565b604051601f8201601f1916810167ffffffffffffffff8111828210171561300557613005612d79565b604052919050565b805165ffffffffffff8116811461302357600080fd5b919050565b60005b8381101561304357818101518382015260200161302b565b50506000910152565b6000602080838503121561305f57600080fd5b825167ffffffffffffffff8082111561307757600080fd5b9084019060a0828703121561308b57600080fd5b613093612fb3565b82518152838301516130a4816128a6565b818501526130b46040840161300d565b60408201526130c56060840161300d565b60608201526080830151828111156130dc57600080fd5b80840193505086601f8401126130f157600080fd5b82518281111561310357613103612d79565b613115601f8201601f19168601612fdc565b9250808352878582860101111561312b57600080fd5b61313a81868501878701613028565b50608081019190915295945050505050565b60008151808452613164816020860160208601613028565b601f01601f19169290920160200192915050565b6001600160a01b0386811682528515156020830152604082018590528316606082015260a0608082018190526000906119f59083018461314c565b600080604083850312156131c657600080fd5b505080516020909101519092909150565b6000600160ff1b82016131ec576131ec612d50565b5060000390565b6020808252825182820181905260009190848201906040850190845b818110156129e157835163ffffffff168352928401929184019160010161320f565b600067ffffffffffffffff82111561324b5761324b612d79565b5060051b60200190565b600082601f83011261326657600080fd5b8151602061327b61327683613231565b612fdc565b8083825260208201915060208460051b87010193508684111561329d57600080fd5b602086015b848110156132c25780516132b5816128a6565b83529183019183016132a2565b509695505050505050565b600080604083850312156132e057600080fd5b825167ffffffffffffffff808211156132f857600080fd5b818501915085601f83011261330c57600080fd5b8151602061331c61327683613231565b82815260059290921b8401810191818101908984111561333b57600080fd5b948201945b838610156133695785518060060b811461335a5760008081fd5b82529482019490820190613340565b9188015191965090935050508082111561338257600080fd5b5061338f85828601613255565b9150509250929050565b600682810b9082900b03667fffffffffffff198112667fffffffffffff821317156105c9576105c9612d50565b60008160060b8360060b806133dd576133dd612f30565b667fffffffffffff198214600019821416156133fb576133fb612d50565b90059392505050565b60008260060b8061341757613417612f30565b808360060b0791505092915050565b60008160020b627fffff19810361343f5761343f612d50565b6000190192915050565b6001600160c01b03828116828216818102831692918115828504821417612f2757612f27612d50565b60006001600160c01b0383811680612f6057612f60612f30565b600061010060018060a01b0380871684528551818151166020860152816020820151166040860152604081015165ffffffffffff80821660608801528060608401511660808801525050508060208701511660a085015250604085015160c08401528060e08401526118928184018561314c565b60008251613512818460208701613028565b919091019291505056fea2646970667358221220046538978b688e779aeda014390216e8bd2f236684d37b610398ac90726b731e64736f6c63430008170033",
			"deployedBytecode": "0x6080604052600436106101395760003560e01c80638da5cb5b116100ab578063cc6801271161006f578063cc680127146104a9578063e28b5411146104db578063f2fde38b146104f6578063f434c91414610516578063fa461e331461054a578063fef432571461056a57600080fd5b80638da5cb5b1461040457806398ea47fc146104225780639e6eec0514610442578063ad5c464814610455578063c361534c1461048957600080fd5b8063507f1465116100fd578063507f146514610306578063515a92931461033a5780636afdd85014610367578063715018a61461039b5780637c5e9c24146103b057806388bc2ef3146103d057600080fd5b806301ffc9a71461018e57806324e26dc5146101c3578063293c4999146101e35780633a01714f1461022f57806340873cb5146102c257600080fd5b3661018957336001600160a01b037f0000000000000000000000007b79995e5f793a07bc00c21412e50ecae098e7f9161461018757604051635e7e9adf60e11b815260040160405180910390fd5b005b600080fd5b34801561019a57600080fd5b506101ae6101a936600461287c565b61057d565b60405190151581526020015b60405180910390f35b3480156101cf57600080fd5b506101876101de3660046128bb565b6105cf565b3480156101ef57600080fd5b506102177f0000000000000000000000004d9207abeca883161a1eaee9dabedc0001c198d781565b6040516001600160a01b0390911681526020016101ba565b34801561023b57600080fd5b506102b561024a3660046128fd565b604080516060808201835260008083526020808401829052928401819052948552600382528285206001600160a01b03948516865282529382902082519485018352549283168452600160a01b830460ff1690840152600160a81b90910463ffffffff169082015290565b6040516101ba919061292d565b3480156102ce57600080fd5b506102e26102dd3660046128fd565b6107d5565b6040805163ffffffff90931683526001600160a01b039091166020830152016101ba565b34801561031257600080fd5b506102177f000000000000000000000000000000000000000000000000000000000000000081565b34801561034657600080fd5b5061035a610355366004612960565b61084b565b6040516101ba9190612979565b34801561037357600080fd5b506102177f000000000000000000000000000000000022d473030f116ddee9f6b43ac78ba381565b3480156103a757600080fd5b50610187610bca565b3480156103bc57600080fd5b506102176103cb3660046128fd565b610bde565b3480156103dc57600080fd5b506102177f00000000000000000000000018017cfed48e1dc0adc445cef8a9e6affcb330da81565b34801561041057600080fd5b506000546001600160a01b0316610217565b34801561042e57600080fd5b5061018761043d3660046129ed565b505050565b610187610450366004612abc565b610c4a565b34801561046157600080fd5b506102177f0000000000000000000000007b79995e5f793a07bc00c21412e50ecae098e7f981565b34801561049557600080fd5b506101876104a4366004612b64565b610c63565b3480156104b557600080fd5b506104cd6104c4366004612bc0565b60009392505050565b6040519081526020016101ba565b3480156104e757600080fd5b506104cd6104c43660046128bb565b34801561050257600080fd5b50610187610511366004612bec565b610d59565b34801561052257600080fd5b506102177f000000000000000000000000ba24624ae5dc821866e9e71ed050412ef01e2fe681565b34801561055657600080fd5b50610187610565366004612c09565b610d9c565b6104cd610578366004612c5c565b610eb8565b60006001600160e01b03198216632f720bd160e21b14806105ae57506001600160e01b031982166306afdd8560e41b145b806105c957506001600160e01b031982166301ffc9a760e01b145b92915050565b821580156105e757506000546001600160a01b031633145b610680576040516331a9108f60e11b815260048101849052610680907f0000000000000000000000004d9207abeca883161a1eaee9dabedc0001c198d76001600160a01b031690636352211e90602401602060405180830381865afa158015610654573d6000803e3d6000fd5b505050506040513d601f19601f820116820180604052508101906106789190612d10565b84601b611437565b60008381526002602090815260408083206001600160a01b038681168086529184529382902080546001600160a01b031916948616949094179093558051606081018252838152815163313ce56760e01b81529151909384840193909263313ce56792600480830193928290030181865afa158015610703573d6000803e3d6000fd5b505050506040513d601f19601f820116820180604052508101906107279190612d2d565b60ff908116825263ffffffff80861660209384015260008781526003845260408082206001600160a01b03988916808452908652818320875181548989015199850151909616600160a81b0263ffffffff60a81b1999909716600160a01b026001600160a81b03199096169a1699909917939093179590951692909217909555948552600481529084208054600181018255908552932090920180546001600160a01b031916909117905550565b60008281526001602090815260408083206001600160a01b0385168452909152812054819080820361083b57506001600160a01b03831660009081527fa6eef7e35abe7026729641147f7915573c7e97b47efa546f5f6e3230263bcb4960205260409020545b915050602081901c5b9250929050565b60008181526004602090815260408083208054825181850281018501909352808352606094938301828280156108aa57602002820191906000526020600020905b81546001600160a01b0316815260019091019060200180831161088c575b50506000808052600460209081527f17ef568e3e12ab5b9c7254a8d58478811de00f9e6eb34345acd53bf8fd09d3ec8054604080518285028101850190915281815297985092969550935090915083018282801561093157602002820191906000526020600020905b81546001600160a01b03168152600190910190602001808311610913575b505050505090506000815183516109489190612d66565b67ffffffffffffffff81111561096057610960612d79565b6040519080825280602002602001820160405280156109ab57816020015b604080516060810182526000808252602080830182905292820152825260001990920191018161097e5790505b50835190915060005b8451811015610a65576003600088815260200190815260200160002060008683815181106109e4576109e4612d8f565b6020908102919091018101516001600160a01b039081168352828201939093526040918201600020825160608101845290549384168152600160a01b840460ff1691810191909152600160a81b90920463ffffffff16908201528351849083908110610a5257610a52612d8f565b60209081029190910101526001016109b4565b5060005b8351811015610bb3576000805b8651811015610adb57858381518110610a9157610a91612d8f565b60200260200101516001600160a01b0316878281518110610ab457610ab4612d8f565b60200260200101516001600160a01b031603610ad35760019150610adb565b600101610a76565b5080610baa576000808052600360205285517f3617319a054d772f909f7c479a2cebe5066e836a939412e32403c99029b92eff9190879085908110610b2257610b22612d8f565b6020908102919091018101516001600160a01b039081168352828201939093526040918201600020825160608101845290549384168152600160a01b840460ff1691810191909152600160a81b90920463ffffffff16908201528451859085908110610b9057610b90612d8f565b60200260200101819052508280610ba690612da5565b9350505b50600101610a69565b508151811015610bc1578082525b50949350505050565b610bd26115bb565b610bdc60006115e8565b565b60008281526002602090815260408083206001600160a01b03808616855292528220541680610c4357506001600160a01b0380831660009081527fac33ff75c19e70fe83507db0d683fd3465c996598dc972688b7ace676c89077b6020526040902054165b9392505050565b604051630d831b5560e11b815260040160405180910390fd5b83158015610c7b57506000546001600160a01b031633145b610d14576040516331a9108f60e11b815260048101859052610d14907f0000000000000000000000004d9207abeca883161a1eaee9dabedc0001c198d76001600160a01b031690636352211e90602401602060405180830381865afa158015610ce8573d6000803e3d6000fd5b505050506040513d601f19601f82011682018060405250810190610d0c9190612d10565b85601c611437565b60009384526001602090815260408086206001600160a01b03959095168652938152929093209290911b640100000000600160c01b031663ffffffff91909116179055565b610d616115bb565b6001600160a01b038116610d9057604051631e4fbdf760e01b8152600060048201526024015b60405180910390fd5b610d99816115e8565b50565b600080610dab83850185612dbe565b915091506000808712610dbe5786610dc0565b855b90508115610e3d577f0000000000000000000000007b79995e5f793a07bc00c21412e50ecae098e7f96001600160a01b031663d0e30db0826040518263ffffffff1660e01b81526004016000604051808303818588803b158015610e2357600080fd5b505af1158015610e37573d6000803e3d6000fd5b50505050505b60405163a9059cbb60e01b8152336004820152602481018290526001600160a01b0384169063a9059cbb906044016020604051808303816000875af1158015610e8a573d6000803e3d6000fd5b505050506040513d601f19601f82011682018060405250810190610eae9190612dec565b5050505050505050565b6040805161010081018252600060208201819052918101829052606081018290526080810182905260a0810182905260c0810182905260e081018290528a81526001600160a01b038a1661eeed1901610f4c576001600160a01b037f0000000000000000000000007b79995e5f793a07bc00c21412e50ecae098e7f9166040820152600160608201523460c0820152610f63565b6001600160a01b038a16604082015260c081018990525b600080610fad630535741560e41b87878080601f01602080910402602001604051908101604052809392919081815260200183838082843760009201919091525061163892505050565b91509150811561104457600081806020019051810190610fcd9190612e09565b6001600160a01b03918216602088015260e0870192909252909150811661eeed190161102e576001600160a01b037f0000000000000000000000007b79995e5f793a07bc00c21412e50ecae098e7f9166080850152600160a085015261103e565b6001600160a01b03811660808501525b50611228565b6000600260008f815260200190815260200160002060008e6001600160a01b03166001600160a01b0316815260200190815260200160002060009054906101000a90046001600160a01b0316905060006001600160a01b0316816001600160a01b03160361110557506001600160a01b03808d1660009081527fac33ff75c19e70fe83507db0d683fd3465c996598dc972688b7ace676c89077b6020526040902054168061110557604051632a12044160e21b815260040160405180910390fd5b6001600160a01b038116602080860182905260408051630dfe168160e01b8152905160009384939092630dfe168192600480830193928290030181865afa158015611154573d6000803e3d6000fd5b505050506040513d601f19601f820116820180604052508101906111789190612d10565b836001600160a01b031663d21220a76040518163ffffffff1660e01b8152600401602060405180830381865afa1580156111b6573d6000803e3d6000fd5b505050506040513d601f19601f820116820180604052508101906111da9190612d10565b915091508e6001600160a01b0316826001600160a01b0316146111fd57816111ff565b805b6001600160a01b03166080870152611216866117dd565b6001600160a01b031660e08701525050505b505060007f00000000000000000000000018017cfed48e1dc0adc445cef8a9e6affcb330da6001600160a01b031663862026508d8460a0015161126f578460800151611273565b61eeee5b6040516001600160e01b031960e085901b16815260048101929092526001600160a01b03166024820152604401602060405180830381865afa1580156112bd573d6000803e3d6000fd5b505050506040513d601f19601f820116820180604052508101906112e19190612d10565b90506001600160a01b03811661130a57604051630faa917b60e11b815260040160405180910390fd5b61131582868661189c565b60c08301526060820151600090801561132f57508260a001515b80611353575082608001516001600160a01b031683604001516001600160a01b0316145b15611363575060c082015161136f565b61136c83611a00565b90505b61137e82846080015183611bf4565b816001600160a01b031663fef432578460a0015161139d57600061139f565b825b855160a08701516113b45786608001516113b8565b61eeee5b858f8f8f8f8f8f6040518b63ffffffff1660e01b81526004016113e399989796959493929190612e6a565b60206040518083038185885af1158015611401573d6000803e3d6000fd5b50505050506040513d601f19601f820116820180604052508101906114269190612ece565b509c9b505050505050505050505050565b336001600160a01b03841681148015906114ee575060405163c161c93f60e01b81526001600160a01b038281166004830152858116602483015260448201859052606482018490527f000000000000000000000000ba24624ae5dc821866e9e71ed050412ef01e2fe6169063c161c93f90608401602060405180830381865afa1580156114c8573d6000803e3d6000fd5b505050506040513d601f19601f820116820180604052508101906114ec9190612dec565b155b8015611597575060405163c161c93f60e01b81526001600160a01b038281166004830152858116602483015260006044830152606482018490527f000000000000000000000000ba24624ae5dc821866e9e71ed050412ef01e2fe6169063c161c93f90608401602060405180830381865afa158015611571573d6000803e3d6000fd5b505050506040513d601f19601f820116820180604052508101906115959190612dec565b155b156115b55760405163075fd2b160e01b815260040160405180910390fd5b50505050565b6000546001600160a01b03163314610bdc5760405163118cdaa760e01b8152336004820152602401610d87565b600080546001600160a01b038381166001600160a01b0319831681178455604051919092169283917f8be0079c531659141344cd1fd0a4f28419497f9722a3daafe3b4186f6b6457e09190a35050565b60006060602583511161165d5750506040805160208101909152600080825290610844565b60008361166c60046020612d66565b8151811061167c5761167c612d8f565b0160209081015160f81c91505b600085611697600484612d66565b815181106116a7576116a7612d8f565b01602001516001600160f81b031916148015906116cd57506116ca602083612ee7565b81105b156117d4576000856116e0600484612d66565b815181106116f0576116f0612d8f565b016020908101518784019091015160f89190911c91506001600160e01b0319808916908216036117ca576000611727602086612ee7565b611732600986612d66565b101580611767575087611746600986612d66565b8151811061175657611756612d8f565b01602001516001600160f81b031916155b6117a057602088611779600987612d66565b8151811061178957611789612d8f565b016020015161179b919060f81c612ee7565b6117a3565b87515b905060016117bc896117b6602087612ee7565b84611c20565b965096505050505050610844565b5050600501611689565b50509250929050565b60008060006117f4846000015185602001516107d5565b915091506000611808856020015184611c66565b509050600061181682611eb0565b905085608001516001600160a01b031686604001516001600160a01b031610611868576005546001600160a01b031661184f8483612efe565b6118599190612f46565b6118639082612f6c565b611892565b6005546001600160a01b031661187e8483612efe565b6118889190612f46565b6118929082612f93565b9695505050505050565b6040830151606084015160009190156118b85734915050610c43565b34156118d757604051635e7e9adf60e11b815260040160405180910390fd5b60008061191d3060e01b87878080601f01602080910402602001604051908101604052809392919081815260200183838082843760009201919091525061163892505050565b91509150811561197d5760008180602001905181019061193d919061304c565b90508760c0015181602001516001600160a01b03161015611971576040516317e415a160e11b815260040160405180910390fd5b61197b81856121d3565b505b61198d3330858a60c001516122d2565b6040516370a0823160e01b81523060048201526001600160a01b038416906370a0823190602401602060405180830381865afa1580156119d1573d6000803e3d6000fd5b505050506040513d601f19601f820116820180604052508101906119f59190612ece565b979650505050505050565b600080826040015190506000836080015190506000816001600160a01b0316836001600160a01b031610905060008086602001516001600160a01b031663128acb0830858a60c0015187611a7257611a6d600173fffd8963efd1fc6a506488495d951d5263988d26612f93565b611a82565b611a826401000276a36001612f6c565b60608d810151604080516001600160a01b038f16602082015291151590820152016040516020818303038152906040526040518663ffffffff1660e01b8152600401611ad2959493929190613178565b60408051808303816000875af1158015611af0573d6000803e3d6000fd5b505050506040513d601f19601f82011682018060405250810190611b1491906131b3565b9150915082611b235781611b25565b805b611b2e906131d7565b95508660e00151861015611b655760e0870151604051630bb50c5d60e41b8152610d87918891600401918252602082015260400190565b8660a0015115611bea57604051632e1a7d4d60e01b8152600481018790527f0000000000000000000000007b79995e5f793a07bc00c21412e50ecae098e7f96001600160a01b031690632e1a7d4d90602401600060405180830381600087803b158015611bd157600080fd5b505af1158015611be5573d6000803e3d6000fd5b505050505b5050505050919050565b61eeed196001600160a01b03831601611c0c57505050565b61043d6001600160a01b0383168483612434565b60608282036040519150602081830101604052808252508260208501016020820160005b84811015611c5c578281015182820152602001611c44565b5050509392505050565b6000808263ffffffff16600003611ca45760405162461bcd60e51b8152602060048201526002602482015261042560f41b6044820152606401610d87565b6040805160028082526060820183526000926020830190803683370190505090508381600081518110611cd957611cd9612d8f565b602002602001019063ffffffff16908163ffffffff1681525050600081600181518110611d0857611d08612d8f565b602002602001019063ffffffff16908163ffffffff1681525050600080866001600160a01b031663883bdbfd846040518263ffffffff1660e01b8152600401611d5191906131f3565b600060405180830381865afa158015611d6e573d6000803e3d6000fd5b505050506040513d6000823e601f3d908101601f19168201604052611d9691908101906132cd565b91509150600082600081518110611daf57611daf612d8f565b602002602001015183600181518110611dca57611dca612d8f565b6020026020010151611ddc9190613399565b9050600082600081518110611df357611df3612d8f565b602002602001015183600181518110611e0e57611e0e612d8f565b6020026020010151611e209190612f93565b9050611e3263ffffffff8916836133c6565b965060008260060b128015611e585750611e5263ffffffff891683613404565b60060b15155b15611e6b5786611e6781613426565b9750505b6000611e846001600160a01b0363ffffffff8b16613449565b9050611ea1640100000000600160c01b03602084901b1682613472565b96505050505050509250929050565b60008060008360020b12611ec7578260020b611ecf565b8260020b6000035b9050620d89e8811115611ef5576040516315e4079d60e11b815260040160405180910390fd5b600081600116600003611f0c57600160801b611f1e565b6ffffcb933bd6fad37aa2d162d1a5940015b70ffffffffffffffffffffffffffffffffff1690506002821615611f52576ffff97272373d413259a46990580e213a0260801c5b6004821615611f71576ffff2e50f5f656932ef12357cf3c7fdcc0260801c5b6008821615611f90576fffe5caca7e10e4e61c3624eaa0941cd00260801c5b6010821615611faf576fffcb9843d60f6159c9db58835c9266440260801c5b6020821615611fce576fff973b41fa98c081472e6896dfb254c00260801c5b6040821615611fed576fff2ea16466c96a3843ec78b326b528610260801c5b608082161561200c576ffe5dee046a99a2a811c461f1969c30530260801c5b61010082161561202c576ffcbe86c7900a88aedcffc83b479aa3a40260801c5b61020082161561204c576ff987a7253ac413176f2b074cf7815e540260801c5b61040082161561206c576ff3392b0822b70005940c7a398e4b70f30260801c5b61080082161561208c576fe7159475a2c29b7443b29c7fa6e889d90260801c5b6110008216156120ac576fd097f3bdfd2022b8845ad8f792aa58250260801c5b6120008216156120cc576fa9f746462d870fdf8a65dc1f90e061e50260801c5b6140008216156120ec576f70d869a156d2a1b890bb3df62baf32f70260801c5b61800082161561210c576f31be135f97d08fd981231505542fcfa60260801c5b6201000082161561212d576f09aa508b5b7a84e1c677de54f3e99bc90260801c5b6202000082161561214d576e5d6af8dedb81196699c329225ee6040260801c5b6204000082161561216c576d2216e584f5fa1ea926041bedfe980260801c5b62080000821615612189576b048a170391f7dc42444e8fa20260801c5b60008460020b13156121aa5780600019816121a6576121a6612f30565b0490505b6401000000008106156121be5760016121c1565b60005b60ff16602082901c0192505050919050565b7f000000000000000000000000000000000022d473030f116ddee9f6b43ac78ba36001600160a01b0316632b67b5703360405180606001604052806040518060800160405280876001600160a01b0316815260200188602001516001600160a01b03168152602001886040015165ffffffffffff168152602001886060015165ffffffffffff168152508152602001306001600160a01b03168152602001866000015181525085608001516040518463ffffffff1660e01b815260040161229c9392919061348c565b600060405180830381600087803b1580156122b657600080fd5b505af11580156122ca573d6000803e3d6000fd5b505050505050565b61eeed196001600160a01b038316016122f4576122ef83826124be565b6115b5565b306001600160a01b03851603612318576122ef6001600160a01b0383168483612555565b604051636eb1769f60e11b81526001600160a01b03858116600483015230602483015282919084169063dd62ed3e90604401602060405180830381865afa158015612367573d6000803e3d6000fd5b505050506040513d601f19601f8201168201806040525081019061238b9190612ece565b106123a5576122ef6001600160a01b0383168585846125b4565b604051631b63c28b60e11b81526001600160a01b0385811660048301528481166024830152828116604483015283811660648301527f000000000000000000000000000000000022d473030f116ddee9f6b43ac78ba316906336c7851690608401600060405180830381600087803b15801561242057600080fd5b505af1158015610eae573d6000803e3d6000fd5b604051636eb1769f60e11b81523060048201526001600160a01b0383811660248301526000919085169063dd62ed3e90604401602060405180830381865afa158015612484573d6000803e3d6000fd5b505050506040513d601f19601f820116820180604052508101906124a89190612ece565b90506115b584846124b98585612d66565b6125ed565b804710156124e15760405163cd78605960e01b8152306004820152602401610d87565b6000826001600160a01b03168260405160006040518083038185875af1925050503d806000811461252e576040519150601f19603f3d011682016040523d82523d6000602084013e612533565b606091505b505090508061043d57604051630a12f52160e11b815260040160405180910390fd5b6040516001600160a01b0383811660248301526044820183905261043d91859182169063a9059cbb906064015b604051602081830303815290604052915060e01b6020820180516001600160e01b038381831617835250505050612679565b6040516001600160a01b0384811660248301528381166044830152606482018390526115b59186918216906323b872dd90608401612582565b604080516001600160a01b038416602482015260448082018490528251808303909101815260649091019091526020810180516001600160e01b031663095ea7b360e01b17905261263e84826126dc565b6115b5576040516001600160a01b0384811660248301526000604483015261267391869182169063095ea7b390606401612582565b6115b584825b600061268e6001600160a01b03841683612784565b905080516000141580156126b35750808060200190518101906126b19190612dec565b155b1561043d57604051635274afe760e01b81526001600160a01b0384166004820152602401610d87565b6000806000846001600160a01b0316846040516126f99190613500565b6000604051808303816000865af19150503d8060008114612736576040519150601f19603f3d011682016040523d82523d6000602084013e61273b565b606091505b50915091508180156127655750805115806127655750808060200190518101906127659190612dec565b801561277b57506000856001600160a01b03163b115b95945050505050565b6060610c438383600084600080856001600160a01b031684866040516127aa9190613500565b60006040518083038185875af1925050503d80600081146127e7576040519150601f19603f3d011682016040523d82523d6000602084013e6127ec565b606091505b509150915061189286838360608261280c5761280782612853565b610c43565b815115801561282357506001600160a01b0384163b155b1561284c57604051639996b31560e01b81526001600160a01b0385166004820152602401610d87565b5080610c43565b8051156128635780518082602001fd5b604051630a12f52160e11b815260040160405180910390fd5b60006020828403121561288e57600080fd5b81356001600160e01b031981168114610c4357600080fd5b6001600160a01b0381168114610d9957600080fd5b6000806000606084860312156128d057600080fd5b8335925060208401356128e2816128a6565b915060408401356128f2816128a6565b809150509250925092565b6000806040838503121561291057600080fd5b823591506020830135612922816128a6565b809150509250929050565b81516001600160a01b0316815260208083015160ff169082015260408083015163ffffffff1690820152606081016105c9565b60006020828403121561297257600080fd5b5035919050565b6020808252825182820181905260009190848201906040850190845b818110156129e1576129ce83855180516001600160a01b0316825260208082015160ff169083015260409081015163ffffffff16910152565b9284019260609290920191600101612995565b50909695505050505050565b600080600060408486031215612a0257600080fd5b83359250602084013567ffffffffffffffff80821115612a2157600080fd5b818601915086601f830112612a3557600080fd5b813581811115612a4457600080fd5b8760208260051b8501011115612a5957600080fd5b6020830194508093505050509250925092565b8015158114610d9957600080fd5b60008083601f840112612a8c57600080fd5b50813567ffffffffffffffff811115612aa457600080fd5b60208301915083602082850101111561084457600080fd5b60008060008060008060008060c0898b031215612ad857600080fd5b883597506020890135612aea816128a6565b9650604089013595506060890135612b0181612a6c565b9450608089013567ffffffffffffffff80821115612b1e57600080fd5b612b2a8c838d01612a7a565b909650945060a08b0135915080821115612b4357600080fd5b50612b508b828c01612a7a565b999c989b5096995094979396929594505050565b60008060008060808587031215612b7a57600080fd5b843593506020850135612b8c816128a6565b9250604085013563ffffffff81168114612ba557600080fd5b91506060850135612bb5816128a6565b939692955090935050565b600080600060608486031215612bd557600080fd5b505081359360208301359350604090920135919050565b600060208284031215612bfe57600080fd5b8135610c43816128a6565b60008060008060608587031215612c1f57600080fd5b8435935060208501359250604085013567ffffffffffffffff811115612c4457600080fd5b612c5087828801612a7a565b95989497509550505050565b600080600080600080600080600060e08a8c031215612c7a57600080fd5b8935985060208a0135612c8c816128a6565b975060408a0135965060608a0135612ca3816128a6565b955060808a0135945060a08a013567ffffffffffffffff80821115612cc757600080fd5b612cd38d838e01612a7a565b909650945060c08c0135915080821115612cec57600080fd5b50612cf98c828d01612a7a565b915080935050809150509295985092959850929598565b600060208284031215612d2257600080fd5b8151610c43816128a6565b600060208284031215612d3f57600080fd5b815160ff81168114610c4357600080fd5b634e487b7160e01b600052601160045260246000fd5b808201808211156105c9576105c9612d50565b634e487b7160e01b600052604160045260246000fd5b634e487b7160e01b600052603260045260246000fd5b600060018201612db757612db7612d50565b5060010190565b60008060408385031215612dd157600080fd5b8235612ddc816128a6565b9150602083013561292281612a6c565b600060208284031215612dfe57600080fd5b8151610c4381612a6c565b600080600060608486031215612e1e57600080fd5b835192506020840151612e30816128a6565b60408501519092506128f2816128a6565b81835281816020850137506000828201602090810191909152601f909101601f19169091010190565b8981526001600160a01b03898116602083015260408201899052871660608201526080810186905260e060a08201819052600090612eab9083018688612e41565b82810360c0840152612ebe818587612e41565b9c9b505050505050505050505050565b600060208284031215612ee057600080fd5b5051919050565b80820281158282048414176105c9576105c9612d50565b6001600160a01b03828116828216818102831692918115828504821417612f2757612f27612d50565b50505092915050565b634e487b7160e01b600052601260045260246000fd5b60006001600160a01b0383811680612f6057612f60612f30565b92169190910492915050565b6001600160a01b03818116838216019080821115612f8c57612f8c612d50565b5092915050565b6001600160a01b03828116828216039080821115612f8c57612f8c612d50565b60405160a0810167ffffffffffffffff81118282101715612fd657612fd6612d79565b60405290565b604051601f8201601f1916810167ffffffffffffffff8111828210171561300557613005612d79565b604052919050565b805165ffffffffffff8116811461302357600080fd5b919050565b60005b8381101561304357818101518382015260200161302b565b50506000910152565b6000602080838503121561305f57600080fd5b825167ffffffffffffffff8082111561307757600080fd5b9084019060a0828703121561308b57600080fd5b613093612fb3565b82518152838301516130a4816128a6565b818501526130b46040840161300d565b60408201526130c56060840161300d565b60608201526080830151828111156130dc57600080fd5b80840193505086601f8401126130f157600080fd5b82518281111561310357613103612d79565b613115601f8201601f19168601612fdc565b9250808352878582860101111561312b57600080fd5b61313a81868501878701613028565b50608081019190915295945050505050565b60008151808452613164816020860160208601613028565b601f01601f19169290920160200192915050565b6001600160a01b0386811682528515156020830152604082018590528316606082015260a0608082018190526000906119f59083018461314c565b600080604083850312156131c657600080fd5b505080516020909101519092909150565b6000600160ff1b82016131ec576131ec612d50565b5060000390565b6020808252825182820181905260009190848201906040850190845b818110156129e157835163ffffffff168352928401929184019160010161320f565b600067ffffffffffffffff82111561324b5761324b612d79565b5060051b60200190565b600082601f83011261326657600080fd5b8151602061327b61327683613231565b612fdc565b8083825260208201915060208460051b87010193508684111561329d57600080fd5b602086015b848110156132c25780516132b5816128a6565b83529183019183016132a2565b509695505050505050565b600080604083850312156132e057600080fd5b825167ffffffffffffffff808211156132f857600080fd5b818501915085601f83011261330c57600080fd5b8151602061331c61327683613231565b82815260059290921b8401810191818101908984111561333b57600080fd5b948201945b838610156133695785518060060b811461335a5760008081fd5b82529482019490820190613340565b9188015191965090935050508082111561338257600080fd5b5061338f85828601613255565b9150509250929050565b600682810b9082900b03667fffffffffffff198112667fffffffffffff821317156105c9576105c9612d50565b60008160060b8360060b806133dd576133dd612f30565b667fffffffffffff198214600019821416156133fb576133fb612d50565b90059392505050565b60008260060b8061341757613417612f30565b808360060b0791505092915050565b60008160020b627fffff19810361343f5761343f612d50565b6000190192915050565b6001600160c01b03828116828216818102831692918115828504821417612f2757612f27612d50565b60006001600160c01b0383811680612f6057612f60612f30565b600061010060018060a01b0380871684528551818151166020860152816020820151166040860152604081015165ffffffffffff80821660608801528060608401511660808801525050508060208701511660a085015250604085015160c08401528060e08401526118928184018561314c565b60008251613512818460208701613028565b919091019291505056fea2646970667358221220046538978b688e779aeda014390216e8bd2f236684d37b610398ac90726b731e64736f6c63430008170033",
			"devdoc": {
				"kind": "dev",
				"methods": {
					"accountingContextForTokenOf(uint256,address)": {
						"details": "Accounting contexts are set up in `addDefaultPool(...)`.",
						"params": {
							"projectId": "The ID of the project to get the accounting context for.",
							"token": "The address of the token to get the accounting context for."
						},
						"returns": {
							"_0": "A `JBAccountingContext` containing the accounting context for the project ID and token."
						}
					},
					"accountingContextsOf(uint256)": {
						"details": "This includes both project-specific and generic accounting contexts, with the project-specific contexts         taking precedence.",
						"params": {
							"projectId": "The ID of the project to get the accounting contexts for."
						},
						"returns": {
							"_0": "An array of `JBAccountingContext` containing the accounting contexts for the project ID."
						}
					},
					"addDefaultPool(uint256,address,address)": {
						"params": {
							"pool": "The Uniswap V3 pool to set as the default for the specified token.",
							"projectId": "The ID of the project to set the default pool for. The project 0 acts as a catch-all, where non-set pools are defaulted to.",
							"token": "The address of the token to set the default pool for."
						}
					},
					"addTwapParamsFor(uint256,address,uint32,uint160)": {
						"params": {
							"projectId": "The ID of the project to set the TWAP-based quote rules for.",
							"secondsAgo": "The period of time over which the TWAP is calculated, in seconds.",
							"slippageTolerance": "The maximum spread allowed between the amount received and the TWAP (as a fraction out of `SLIPPAGE_DENOMINATOR`)."
						}
					},
					"getPoolFor(uint256,address)": {
						"params": {
							"projectId": "The ID of the project to retrieve the default pool for.",
							"tokenIn": "The address of the token to retrieve the default pool for."
						},
						"returns": {
							"_0": "pool The default pool for the token, or the overall default pool for the token if the"
						}
					},
					"owner()": {
						"details": "Returns the address of the current owner."
					},
					"pay(uint256,address,uint256,address,uint256,string,bytes)": {
						"params": {
							"amount": "The amount of tokens being paid in, as a fixed point number with the same amount of decimals as the `token`. If `token` is the native token, `amount` is ignored and `msg.value` is used in its place.",
							"beneficiary": "The beneficiary address to pass along to the other terminal. If the other terminal mints tokens, for example, they will be minted for this address.",
							"memo": "A memo to pass along to the emitted event.",
							"metadata": "Bytes in `JBMetadataResolver`'s format which can contain a quote from the user/client. The quote should contain a minimum amount of tokens to receive from the swap and the pool to use. This metadata is also passed to the other terminal's emitted event, as well as its data hook and pay hook if applicable.",
							"minReturnedTokens": "The minimum number of project tokens expected in return, as a fixed point number with the same number of decimals as the other terminal. This value will be passed along to the other terminal.",
							"projectId": "The ID of the project being paid.",
							"token": "The address of the token being paid in."
						},
						"returns": {
							"_0": "The number of tokens received from the swap, as a fixed point number with the same amount of decimals as that token."
						}
					},
					"renounceOwnership()": {
						"details": "Leaves the contract without owner. It will not be possible to call `onlyOwner` functions. Can only be called by the current owner. NOTE: Renouncing ownership will leave the contract without an owner, thereby disabling any functionality that is only available to the owner."
					},
					"supportsInterface(bytes4)": {
						"details": "See {IERC165-supportsInterface}.",
						"params": {
							"interfaceId": "The ID of the interface to check for adherance to."
						},
						"returns": {
							"_0": "A flag indicating if the provided interface ID is supported."
						}
					},
					"transferOwnership(address)": {
						"details": "Transfers ownership of the contract to a new account (`newOwner`). Can only be called by the current owner."
					},
					"twapParamsOf(uint256,address)": {
						"params": {
							"projectId": "The ID of the project to retrieve TWAP parameters for."
						},
						"returns": {
							"secondsAgo": "The period of time in the past to calculate the TWAP from.",
							"slippageTolerance": "The maximum allowed slippage tolerance when calculating the TWAP, as a fraction out of `SLIPPAGE_DENOMINATOR`."
						}
					},
					"uniswapV3SwapCallback(int256,int256,bytes)": {
						"params": {
							"amount0Delta": "The amount of token 0 being used for the swap.",
							"amount1Delta": "The amount of token 1 being used for the swap.",
							"data": "Data passed in by the swap operation."
						}
					}
				},
				"version": 1
			},
			"userdoc": {
				"kind": "user",
				"methods": {
					"DIRECTORY()": {
						"notice": "The directory of terminals and controllers for `PROJECTS`."
					},
					"PERMISSIONS()": {
						"notice": "A contract storing permissions."
					},
					"PERMIT2()": {
						"notice": "The permit2 utility."
					},
					"PROJECTS()": {
						"notice": "Mints ERC-721s that represent project ownership and transfers."
					},
					"STORE()": {
						"notice": "The contract that stores and manages this terminal's data."
					},
					"WETH()": {
						"notice": "The ERC-20 wrapper for the native token."
					},
					"accountingContextForTokenOf(uint256,address)": {
						"notice": "Get the accounting context for the specified project ID and token."
					},
					"accountingContextsOf(uint256)": {
						"notice": "Return all the accounting contexts for a specified project ID."
					},
					"addAccountingContextsFor(uint256,address[])": {
						"notice": "Empty implementation to satisfy the interface. Accounting contexts are set in `addDefaultPool(...)`."
					},
					"addDefaultPool(uint256,address,address)": {
						"notice": "Set a project's default pool and accounting context for the specified token. Only the project's owner, an address with `MODIFY_DEFAULT_POOL` permission from the owner or the terminal owner can call this function."
					},
					"addToBalanceOf(uint256,address,uint256,bool,string,bytes)": {
						"notice": "This terminal does not support adding to balances."
					},
					"addTwapParamsFor(uint256,address,uint32,uint160)": {
						"notice": "Set the specified project's rules for calculating a quote based on the TWAP. Only the project's owner or an address with `MODIFY_TWAP_PARAMS` permission from the owner  or the terminal owner can call this function."
					},
					"currentSurplusOf(uint256,uint256,uint256)": {
						"notice": "Empty implementation to satisfy the interface. This terminal has no surplus."
					},
					"getPoolFor(uint256,address)": {
						"notice": "Returns the default pool for a given project and token or, if a project has no default pool for the         token, the overal default pool for the token"
					},
					"migrateBalanceOf(uint256,address,address)": {
						"notice": "Empty implementation to satisfy the interface."
					},
					"pay(uint256,address,uint256,address,uint256,string,bytes)": {
						"notice": "Pay a project by swapping the incoming tokens for tokens that one of the project's other terminals accepts, passing along the funds received from the swap and the specified parameters."
					},
					"supportsInterface(bytes4)": {
						"notice": "Indicates if this contract adheres to the specified interface."
					},
					"twapParamsOf(uint256,address)": {
						"notice": "Returns the default twap parameters for a given pool project."
					},
					"uniswapV3SwapCallback(int256,int256,bytes)": {
						"notice": "The Uniswap v3 pool callback where the token transfer is expected to happen."
					}
				},
				"version": 1
			},
			"gitCommit": "258351a114c3216d92a87e7460452a963b51e45b",
			"sourceName": "src/JBSwapTerminal.sol",
			"chainId": "11155111",
			"linkReferences": {},
			"deployedLinkReferences": {}
		},
		{
			"_format": "sphinx-sol-ct-artifact-1",
			"merkleRoot": "0xc084e537049e417476f8f496daa240250d5d8ea8d647546bc316a7613a02d0a6",
			"contractName": "JBSwapTerminal",
			"address": "0xAD1f73D33F10f2A57034065218b29310555f0600",
			"abi": [
				{
					"type": "constructor",
					"inputs": [
						{
							"name": "projects",
							"type": "address",
							"internalType": "contract IJBProjects"
						},
						{
							"name": "permissions",
							"type": "address",
							"internalType": "contract IJBPermissions"
						},
						{
							"name": "directory",
							"type": "address",
							"internalType": "contract IJBDirectory"
						},
						{
							"name": "permit2",
							"type": "address",
							"internalType": "contract IPermit2"
						},
						{
							"name": "_owner",
							"type": "address",
							"internalType": "address"
						},
						{
							"name": "weth",
							"type": "address",
							"internalType": "contract IWETH9"
						}
					],
					"stateMutability": "nonpayable"
				},
				{
					"type": "receive",
					"stateMutability": "payable"
				},
				{
					"type": "function",
					"name": "DIRECTORY",
					"inputs": [],
					"outputs": [
						{
							"name": "",
							"type": "address",
							"internalType": "contract IJBDirectory"
						}
					],
					"stateMutability": "view"
				},
				{
					"type": "function",
					"name": "PERMISSIONS",
					"inputs": [],
					"outputs": [
						{
							"name": "",
							"type": "address",
							"internalType": "contract IJBPermissions"
						}
					],
					"stateMutability": "view"
				},
				{
					"type": "function",
					"name": "PERMIT2",
					"inputs": [],
					"outputs": [
						{
							"name": "",
							"type": "address",
							"internalType": "contract IPermit2"
						}
					],
					"stateMutability": "view"
				},
				{
					"type": "function",
					"name": "PROJECTS",
					"inputs": [],
					"outputs": [
						{
							"name": "",
							"type": "address",
							"internalType": "contract IJBProjects"
						}
					],
					"stateMutability": "view"
				},
				{
					"type": "function",
					"name": "STORE",
					"inputs": [],
					"outputs": [
						{
							"name": "",
							"type": "address",
							"internalType": "contract IJBTerminalStore"
						}
					],
					"stateMutability": "view"
				},
				{
					"type": "function",
					"name": "WETH",
					"inputs": [],
					"outputs": [
						{
							"name": "",
							"type": "address",
							"internalType": "contract IWETH9"
						}
					],
					"stateMutability": "view"
				},
				{
					"type": "function",
					"name": "accountingContextForTokenOf",
					"inputs": [
						{
							"name": "projectId",
							"type": "uint256",
							"internalType": "uint256"
						},
						{
							"name": "token",
							"type": "address",
							"internalType": "address"
						}
					],
					"outputs": [
						{
							"name": "",
							"type": "tuple",
							"internalType": "struct JBAccountingContext",
							"components": [
								{
									"name": "token",
									"type": "address",
									"internalType": "address"
								},
								{
									"name": "decimals",
									"type": "uint8",
									"internalType": "uint8"
								},
								{
									"name": "currency",
									"type": "uint32",
									"internalType": "uint32"
								}
							]
						}
					],
					"stateMutability": "view"
				},
				{
					"type": "function",
					"name": "accountingContextsOf",
					"inputs": [
						{
							"name": "projectId",
							"type": "uint256",
							"internalType": "uint256"
						}
					],
					"outputs": [
						{
							"name": "",
							"type": "tuple[]",
							"internalType": "struct JBAccountingContext[]",
							"components": [
								{
									"name": "token",
									"type": "address",
									"internalType": "address"
								},
								{
									"name": "decimals",
									"type": "uint8",
									"internalType": "uint8"
								},
								{
									"name": "currency",
									"type": "uint32",
									"internalType": "uint32"
								}
							]
						}
					],
					"stateMutability": "view"
				},
				{
					"type": "function",
					"name": "addAccountingContextsFor",
					"inputs": [
						{
							"name": "projectId",
							"type": "uint256",
							"internalType": "uint256"
						},
						{
							"name": "tokens",
							"type": "address[]",
							"internalType": "address[]"
						}
					],
					"outputs": [],
					"stateMutability": "nonpayable"
				},
				{
					"type": "function",
					"name": "addDefaultPool",
					"inputs": [
						{
							"name": "projectId",
							"type": "uint256",
							"internalType": "uint256"
						},
						{
							"name": "token",
							"type": "address",
							"internalType": "address"
						},
						{
							"name": "pool",
							"type": "address",
							"internalType": "contract IUniswapV3Pool"
						}
					],
					"outputs": [],
					"stateMutability": "nonpayable"
				},
				{
					"type": "function",
					"name": "addToBalanceOf",
					"inputs": [
						{
							"name": "",
							"type": "uint256",
							"internalType": "uint256"
						},
						{
							"name": "",
							"type": "address",
							"internalType": "address"
						},
						{
							"name": "",
							"type": "uint256",
							"internalType": "uint256"
						},
						{
							"name": "",
							"type": "bool",
							"internalType": "bool"
						},
						{
							"name": "",
							"type": "string",
							"internalType": "string"
						},
						{
							"name": "",
							"type": "bytes",
							"internalType": "bytes"
						}
					],
					"outputs": [],
					"stateMutability": "payable"
				},
				{
					"type": "function",
					"name": "addTwapParamsFor",
					"inputs": [
						{
							"name": "projectId",
							"type": "uint256",
							"internalType": "uint256"
						},
						{
							"name": "pool",
							"type": "address",
							"internalType": "contract IUniswapV3Pool"
						},
						{
							"name": "secondsAgo",
							"type": "uint32",
							"internalType": "uint32"
						},
						{
							"name": "slippageTolerance",
							"type": "uint160",
							"internalType": "uint160"
						}
					],
					"outputs": [],
					"stateMutability": "nonpayable"
				},
				{
					"type": "function",
					"name": "currentSurplusOf",
					"inputs": [
						{
							"name": "projectId",
							"type": "uint256",
							"internalType": "uint256"
						},
						{
							"name": "decimals",
							"type": "uint256",
							"internalType": "uint256"
						},
						{
							"name": "currency",
							"type": "uint256",
							"internalType": "uint256"
						}
					],
					"outputs": [
						{
							"name": "",
							"type": "uint256",
							"internalType": "uint256"
						}
					],
					"stateMutability": "view"
				},
				{
					"type": "function",
					"name": "getPoolFor",
					"inputs": [
						{
							"name": "projectId",
							"type": "uint256",
							"internalType": "uint256"
						},
						{
							"name": "tokenIn",
							"type": "address",
							"internalType": "address"
						}
					],
					"outputs": [
						{
							"name": "",
							"type": "address",
							"internalType": "contract IUniswapV3Pool"
						}
					],
					"stateMutability": "view"
				},
				{
					"type": "function",
					"name": "migrateBalanceOf",
					"inputs": [
						{
							"name": "projectId",
							"type": "uint256",
							"internalType": "uint256"
						},
						{
							"name": "token",
							"type": "address",
							"internalType": "address"
						},
						{
							"name": "to",
							"type": "address",
							"internalType": "contract IJBTerminal"
						}
					],
					"outputs": [
						{
							"name": "balance",
							"type": "uint256",
							"internalType": "uint256"
						}
					],
					"stateMutability": "nonpayable"
				},
				{
					"type": "function",
					"name": "owner",
					"inputs": [],
					"outputs": [
						{
							"name": "",
							"type": "address",
							"internalType": "address"
						}
					],
					"stateMutability": "view"
				},
				{
					"type": "function",
					"name": "pay",
					"inputs": [
						{
							"name": "projectId",
							"type": "uint256",
							"internalType": "uint256"
						},
						{
							"name": "token",
							"type": "address",
							"internalType": "address"
						},
						{
							"name": "amount",
							"type": "uint256",
							"internalType": "uint256"
						},
						{
							"name": "beneficiary",
							"type": "address",
							"internalType": "address"
						},
						{
							"name": "minReturnedTokens",
							"type": "uint256",
							"internalType": "uint256"
						},
						{
							"name": "memo",
							"type": "string",
							"internalType": "string"
						},
						{
							"name": "metadata",
							"type": "bytes",
							"internalType": "bytes"
						}
					],
					"outputs": [
						{
							"name": "",
							"type": "uint256",
							"internalType": "uint256"
						}
					],
					"stateMutability": "payable"
				},
				{
					"type": "function",
					"name": "renounceOwnership",
					"inputs": [],
					"outputs": [],
					"stateMutability": "nonpayable"
				},
				{
					"type": "function",
					"name": "supportsInterface",
					"inputs": [
						{
							"name": "interfaceId",
							"type": "bytes4",
							"internalType": "bytes4"
						}
					],
					"outputs": [
						{
							"name": "",
							"type": "bool",
							"internalType": "bool"
						}
					],
					"stateMutability": "view"
				},
				{
					"type": "function",
					"name": "transferOwnership",
					"inputs": [
						{
							"name": "newOwner",
							"type": "address",
							"internalType": "address"
						}
					],
					"outputs": [],
					"stateMutability": "nonpayable"
				},
				{
					"type": "function",
					"name": "twapParamsOf",
					"inputs": [
						{
							"name": "projectId",
							"type": "uint256",
							"internalType": "uint256"
						},
						{
							"name": "pool",
							"type": "address",
							"internalType": "contract IUniswapV3Pool"
						}
					],
					"outputs": [
						{
							"name": "secondsAgo",
							"type": "uint32",
							"internalType": "uint32"
						},
						{
							"name": "slippageTolerance",
							"type": "uint160",
							"internalType": "uint160"
						}
					],
					"stateMutability": "view"
				},
				{
					"type": "function",
					"name": "uniswapV3SwapCallback",
					"inputs": [
						{
							"name": "amount0Delta",
							"type": "int256",
							"internalType": "int256"
						},
						{
							"name": "amount1Delta",
							"type": "int256",
							"internalType": "int256"
						},
						{
							"name": "data",
							"type": "bytes",
							"internalType": "bytes"
						}
					],
					"outputs": [],
					"stateMutability": "nonpayable"
				},
				{
					"type": "event",
					"name": "AddToBalance",
					"inputs": [
						{
							"name": "projectId",
							"type": "uint256",
							"indexed": true,
							"internalType": "uint256"
						},
						{
							"name": "amount",
							"type": "uint256",
							"indexed": false,
							"internalType": "uint256"
						},
						{
							"name": "unlockedFees",
							"type": "uint256",
							"indexed": false,
							"internalType": "uint256"
						},
						{
							"name": "memo",
							"type": "string",
							"indexed": false,
							"internalType": "string"
						},
						{
							"name": "metadata",
							"type": "bytes",
							"indexed": false,
							"internalType": "bytes"
						},
						{
							"name": "caller",
							"type": "address",
							"indexed": false,
							"internalType": "address"
						}
					],
					"anonymous": false
				},
				{
					"type": "event",
					"name": "HookAfterRecordPay",
					"inputs": [
						{
							"name": "hook",
							"type": "address",
							"indexed": true,
							"internalType": "contract IJBPayHook"
						},
						{
							"name": "context",
							"type": "tuple",
							"indexed": false,
							"internalType": "struct JBAfterPayRecordedContext",
							"components": [
								{
									"name": "payer",
									"type": "address",
									"internalType": "address"
								},
								{
									"name": "projectId",
									"type": "uint256",
									"internalType": "uint256"
								},
								{
									"name": "rulesetId",
									"type": "uint256",
									"internalType": "uint256"
								},
								{
									"name": "amount",
									"type": "tuple",
									"internalType": "struct JBTokenAmount",
									"components": [
										{
											"name": "token",
											"type": "address",
											"internalType": "address"
										},
										{
											"name": "value",
											"type": "uint256",
											"internalType": "uint256"
										},
										{
											"name": "decimals",
											"type": "uint256",
											"internalType": "uint256"
										},
										{
											"name": "currency",
											"type": "uint256",
											"internalType": "uint256"
										}
									]
								},
								{
									"name": "forwardedAmount",
									"type": "tuple",
									"internalType": "struct JBTokenAmount",
									"components": [
										{
											"name": "token",
											"type": "address",
											"internalType": "address"
										},
										{
											"name": "value",
											"type": "uint256",
											"internalType": "uint256"
										},
										{
											"name": "decimals",
											"type": "uint256",
											"internalType": "uint256"
										},
										{
											"name": "currency",
											"type": "uint256",
											"internalType": "uint256"
										}
									]
								},
								{
									"name": "weight",
									"type": "uint256",
									"internalType": "uint256"
								},
								{
									"name": "projectTokenCount",
									"type": "uint256",
									"internalType": "uint256"
								},
								{
									"name": "beneficiary",
									"type": "address",
									"internalType": "address"
								},
								{
									"name": "hookMetadata",
									"type": "bytes",
									"internalType": "bytes"
								},
								{
									"name": "payerMetadata",
									"type": "bytes",
									"internalType": "bytes"
								}
							]
						},
						{
							"name": "specificationAmount",
							"type": "uint256",
							"indexed": false,
							"internalType": "uint256"
						},
						{
							"name": "caller",
							"type": "address",
							"indexed": false,
							"internalType": "address"
						}
					],
					"anonymous": false
				},
				{
					"type": "event",
					"name": "MigrateTerminal",
					"inputs": [
						{
							"name": "projectId",
							"type": "uint256",
							"indexed": true,
							"internalType": "uint256"
						},
						{
							"name": "token",
							"type": "address",
							"indexed": true,
							"internalType": "address"
						},
						{
							"name": "to",
							"type": "address",
							"indexed": true,
							"internalType": "contract IJBTerminal"
						},
						{
							"name": "amount",
							"type": "uint256",
							"indexed": false,
							"internalType": "uint256"
						},
						{
							"name": "caller",
							"type": "address",
							"indexed": false,
							"internalType": "address"
						}
					],
					"anonymous": false
				},
				{
					"type": "event",
					"name": "OwnershipTransferred",
					"inputs": [
						{
							"name": "previousOwner",
							"type": "address",
							"indexed": true,
							"internalType": "address"
						},
						{
							"name": "newOwner",
							"type": "address",
							"indexed": true,
							"internalType": "address"
						}
					],
					"anonymous": false
				},
				{
					"type": "event",
					"name": "Pay",
					"inputs": [
						{
							"name": "rulesetId",
							"type": "uint256",
							"indexed": true,
							"internalType": "uint256"
						},
						{
							"name": "rulesetCycleNumber",
							"type": "uint256",
							"indexed": true,
							"internalType": "uint256"
						},
						{
							"name": "projectId",
							"type": "uint256",
							"indexed": true,
							"internalType": "uint256"
						},
						{
							"name": "payer",
							"type": "address",
							"indexed": false,
							"internalType": "address"
						},
						{
							"name": "beneficiary",
							"type": "address",
							"indexed": false,
							"internalType": "address"
						},
						{
							"name": "amount",
							"type": "uint256",
							"indexed": false,
							"internalType": "uint256"
						},
						{
							"name": "beneficiaryTokenCount",
							"type": "uint256",
							"indexed": false,
							"internalType": "uint256"
						},
						{
							"name": "memo",
							"type": "string",
							"indexed": false,
							"internalType": "string"
						},
						{
							"name": "metadata",
							"type": "bytes",
							"indexed": false,
							"internalType": "bytes"
						},
						{
							"name": "caller",
							"type": "address",
							"indexed": false,
							"internalType": "address"
						}
					],
					"anonymous": false
				},
				{
					"type": "event",
					"name": "SetAccountingContext",
					"inputs": [
						{
							"name": "projectId",
							"type": "uint256",
							"indexed": true,
							"internalType": "uint256"
						},
						{
							"name": "token",
							"type": "address",
							"indexed": true,
							"internalType": "address"
						},
						{
							"name": "context",
							"type": "tuple",
							"indexed": false,
							"internalType": "struct JBAccountingContext",
							"components": [
								{
									"name": "token",
									"type": "address",
									"internalType": "address"
								},
								{
									"name": "decimals",
									"type": "uint8",
									"internalType": "uint8"
								},
								{
									"name": "currency",
									"type": "uint32",
									"internalType": "uint32"
								}
							]
						},
						{
							"name": "caller",
							"type": "address",
							"indexed": false,
							"internalType": "address"
						}
					],
					"anonymous": false
				},
				{
					"type": "error",
					"name": "AddressEmptyCode",
					"inputs": [
						{
							"name": "target",
							"type": "address",
							"internalType": "address"
						}
					]
				},
				{
					"type": "error",
					"name": "AddressInsufficientBalance",
					"inputs": [
						{
							"name": "account",
							"type": "address",
							"internalType": "address"
						}
					]
				},
				{
					"type": "error",
					"name": "FailedInnerCall",
					"inputs": []
				},
				{
					"type": "error",
					"name": "MAX_SLIPPAGE",
					"inputs": [
						{
							"name": "",
							"type": "uint256",
							"internalType": "uint256"
						},
						{
							"name": "",
							"type": "uint256",
							"internalType": "uint256"
						}
					]
				},
				{
					"type": "error",
					"name": "NO_DEFAULT_POOL_DEFINED",
					"inputs": []
				},
				{
					"type": "error",
					"name": "NO_MSG_VALUE_ALLOWED",
					"inputs": []
				},
				{
					"type": "error",
					"name": "OwnableInvalidOwner",
					"inputs": [
						{
							"name": "owner",
							"type": "address",
							"internalType": "address"
						}
					]
				},
				{
					"type": "error",
					"name": "OwnableUnauthorizedAccount",
					"inputs": [
						{
							"name": "account",
							"type": "address",
							"internalType": "address"
						}
					]
				},
				{
					"type": "error",
					"name": "PERMIT_ALLOWANCE_NOT_ENOUGH",
					"inputs": []
				},
				{
					"type": "error",
					"name": "SafeERC20FailedOperation",
					"inputs": [
						{
							"name": "token",
							"type": "address",
							"internalType": "address"
						}
					]
				},
				{
					"type": "error",
					"name": "T",
					"inputs": []
				},
				{
					"type": "error",
					"name": "TOKEN_NOT_ACCEPTED",
					"inputs": []
				},
				{
					"type": "error",
					"name": "TOKEN_NOT_IN_POOL",
					"inputs": []
				},
				{
					"type": "error",
					"name": "UNAUTHORIZED",
					"inputs": []
				},
				{
					"type": "error",
					"name": "UNSUPPORTED",
					"inputs": []
				}
			],
			"solcInputHash": "596e07c1c6e9262b7d393e6e6672bdd9",
			"receipt": {
				"blockHash": "0x63ca22b8c4e86973c267ca35a2d220e332a9c5d30d425e20872c4030e557b82c",
				"blockNumber": 5520682,
				"contractAddress": null,
				"cumulativeGasUsed": "7894708",
				"from": "0xC034550B542b83BA1De312b21d1C94a9a52B1595",
				"gasPrice": "50696262",
				"gasUsed": "3260221",
				"hash": "0x6bf7a848b11383ef552e576c24024c6c9eadc235833fa6f20354a188fde8b88f",
				"index": 52,
				"logs": [
					{
						"address": "0xB5E96127D417b1B3ef8438496a38A143167209c7",
						"blockHash": "0x63ca22b8c4e86973c267ca35a2d220e332a9c5d30d425e20872c4030e557b82c",
						"blockNumber": 5520682,
						"data": "0x0000000000000000000000000000000000000000000000000000000000000000",
						"index": 55,
						"topics": [
							"0x572f161235911da04685a68c06adf558fc7e4a36909dca394650e0adc19cc93d",
							"0x000000000000000000000000c034550b542b83ba1de312b21d1c94a9a52b1595",
							"0x0000000000000000000000003f6eb31c3cafeb9163d09242a27d52e8cca6fa73",
							"0x41e39e0f90a50c67b78a312afaabaa4bcbca975938351b4bbe5f9f176ec6e4d2"
						],
						"transactionHash": "0x6bf7a848b11383ef552e576c24024c6c9eadc235833fa6f20354a188fde8b88f",
						"transactionIndex": 52
					},
					{
						"address": "0xAD1f73D33F10f2A57034065218b29310555f0600",
						"blockHash": "0x63ca22b8c4e86973c267ca35a2d220e332a9c5d30d425e20872c4030e557b82c",
						"blockNumber": 5520682,
						"data": "0x",
						"index": 56,
						"topics": [
							"0x8be0079c531659141344cd1fd0a4f28419497f9722a3daafe3b4186f6b6457e0",
							"0x0000000000000000000000000000000000000000000000000000000000000000",
							"0x000000000000000000000000823b92d6a4b2aed4b15675c7917c9f922ea8adad"
						],
						"transactionHash": "0x6bf7a848b11383ef552e576c24024c6c9eadc235833fa6f20354a188fde8b88f",
						"transactionIndex": 52
					},
					{
						"address": "0x21CD04c712ca1206baE783EC9B715361DfC28026",
						"blockHash": "0x63ca22b8c4e86973c267ca35a2d220e332a9c5d30d425e20872c4030e557b82c",
						"blockNumber": 5520682,
						"data": "0x",
						"index": 57,
						"topics": [
							"0x6895c13664aa4f67288b25d7a21d7aaa34916e355fb9b6fae0a139a9085becb8",
							"0x0000000000000000000000003f6eb31c3cafeb9163d09242a27d52e8cca6fa73"
						],
						"transactionHash": "0x6bf7a848b11383ef552e576c24024c6c9eadc235833fa6f20354a188fde8b88f",
						"transactionIndex": 52
					},
					{
						"address": "0x3f6eB31C3cAFEb9163d09242A27D52E8cCa6Fa73",
						"blockHash": "0x63ca22b8c4e86973c267ca35a2d220e332a9c5d30d425e20872c4030e557b82c",
						"blockNumber": 5520682,
						"data": "0x0000000000000000000000000000000000000000000000000000000000000001",
						"index": 58,
						"topics": [
							"0xa65fb05c5808f5f389d72edeaf719ce38f4cc55c1f69ca3cbfb31c21501caa07",
							"0xc084e537049e417476f8f496daa240250d5d8ea8d647546bc316a7613a02d0a6"
						],
						"transactionHash": "0x6bf7a848b11383ef552e576c24024c6c9eadc235833fa6f20354a188fde8b88f",
						"transactionIndex": 52
					},
					{
						"address": "0x3f6eB31C3cAFEb9163d09242A27D52E8cCa6Fa73",
						"blockHash": "0x63ca22b8c4e86973c267ca35a2d220e332a9c5d30d425e20872c4030e557b82c",
						"blockNumber": 5520682,
						"data": "0x",
						"index": 59,
						"topics": [
							"0x4383d976757d67ca920616be0b6430a681ea9d3dcce8d6d61d4603ca4a9bff63",
							"0xc084e537049e417476f8f496daa240250d5d8ea8d647546bc316a7613a02d0a6"
						],
						"transactionHash": "0x6bf7a848b11383ef552e576c24024c6c9eadc235833fa6f20354a188fde8b88f",
						"transactionIndex": 52
					}
				],
				"logsBloom": "0x00000000080010000000000000080000000000000008000000c0000000400000000000000000000100800000014000000000000000020000000010000000000000000000000020000000000080000000000100000000000000000080000000000000000002000000000000000000080010000000000000000000000010000040020000000800000200010000000000000000000000000000000000000000000100400088001000000000000000080002020000000000008000000000000400000000000080000000000000000c000000000000000000000000000200000020000000000000000008000100000000000200000000000000000000000008000000",
				"status": 1,
				"to": "0xB5E96127D417b1B3ef8438496a38A143167209c7"
			},
			"metadata": "{\"compiler\":{\"version\":\"0.8.23+commit.f704f362\"},\"language\":\"Solidity\",\"output\":{\"abi\":[{\"inputs\":[{\"internalType\":\"contract IJBProjects\",\"name\":\"projects\",\"type\":\"address\"},{\"internalType\":\"contract IJBPermissions\",\"name\":\"permissions\",\"type\":\"address\"},{\"internalType\":\"contract IJBDirectory\",\"name\":\"directory\",\"type\":\"address\"},{\"internalType\":\"contract IPermit2\",\"name\":\"permit2\",\"type\":\"address\"},{\"internalType\":\"address\",\"name\":\"_owner\",\"type\":\"address\"},{\"internalType\":\"contract IWETH9\",\"name\":\"weth\",\"type\":\"address\"}],\"stateMutability\":\"nonpayable\",\"type\":\"constructor\"},{\"inputs\":[{\"internalType\":\"address\",\"name\":\"target\",\"type\":\"address\"}],\"type\":\"error\",\"name\":\"AddressEmptyCode\"},{\"inputs\":[{\"internalType\":\"address\",\"name\":\"account\",\"type\":\"address\"}],\"type\":\"error\",\"name\":\"AddressInsufficientBalance\"},{\"inputs\":[],\"type\":\"error\",\"name\":\"FailedInnerCall\"},{\"inputs\":[{\"internalType\":\"uint256\",\"name\":\"\",\"type\":\"uint256\"},{\"internalType\":\"uint256\",\"name\":\"\",\"type\":\"uint256\"}],\"type\":\"error\",\"name\":\"MAX_SLIPPAGE\"},{\"inputs\":[],\"type\":\"error\",\"name\":\"NO_DEFAULT_POOL_DEFINED\"},{\"inputs\":[],\"type\":\"error\",\"name\":\"NO_MSG_VALUE_ALLOWED\"},{\"inputs\":[{\"internalType\":\"address\",\"name\":\"owner\",\"type\":\"address\"}],\"type\":\"error\",\"name\":\"OwnableInvalidOwner\"},{\"inputs\":[{\"internalType\":\"address\",\"name\":\"account\",\"type\":\"address\"}],\"type\":\"error\",\"name\":\"OwnableUnauthorizedAccount\"},{\"inputs\":[],\"type\":\"error\",\"name\":\"PERMIT_ALLOWANCE_NOT_ENOUGH\"},{\"inputs\":[{\"internalType\":\"address\",\"name\":\"token\",\"type\":\"address\"}],\"type\":\"error\",\"name\":\"SafeERC20FailedOperation\"},{\"inputs\":[],\"type\":\"error\",\"name\":\"T\"},{\"inputs\":[],\"type\":\"error\",\"name\":\"TOKEN_NOT_ACCEPTED\"},{\"inputs\":[],\"type\":\"error\",\"name\":\"TOKEN_NOT_IN_POOL\"},{\"inputs\":[],\"type\":\"error\",\"name\":\"UNAUTHORIZED\"},{\"inputs\":[],\"type\":\"error\",\"name\":\"UNSUPPORTED\"},{\"inputs\":[{\"internalType\":\"uint256\",\"name\":\"projectId\",\"type\":\"uint256\",\"indexed\":true},{\"internalType\":\"uint256\",\"name\":\"amount\",\"type\":\"uint256\",\"indexed\":false},{\"internalType\":\"uint256\",\"name\":\"unlockedFees\",\"type\":\"uint256\",\"indexed\":false},{\"internalType\":\"string\",\"name\":\"memo\",\"type\":\"string\",\"indexed\":false},{\"internalType\":\"bytes\",\"name\":\"metadata\",\"type\":\"bytes\",\"indexed\":false},{\"internalType\":\"address\",\"name\":\"caller\",\"type\":\"address\",\"indexed\":false}],\"type\":\"event\",\"name\":\"AddToBalance\",\"anonymous\":false},{\"inputs\":[{\"internalType\":\"contract IJBPayHook\",\"name\":\"hook\",\"type\":\"address\",\"indexed\":true},{\"internalType\":\"struct JBAfterPayRecordedContext\",\"name\":\"context\",\"type\":\"tuple\",\"components\":[{\"internalType\":\"address\",\"name\":\"payer\",\"type\":\"address\"},{\"internalType\":\"uint256\",\"name\":\"projectId\",\"type\":\"uint256\"},{\"internalType\":\"uint256\",\"name\":\"rulesetId\",\"type\":\"uint256\"},{\"internalType\":\"struct JBTokenAmount\",\"name\":\"amount\",\"type\":\"tuple\",\"components\":[{\"internalType\":\"address\",\"name\":\"token\",\"type\":\"address\"},{\"internalType\":\"uint256\",\"name\":\"value\",\"type\":\"uint256\"},{\"internalType\":\"uint256\",\"name\":\"decimals\",\"type\":\"uint256\"},{\"internalType\":\"uint256\",\"name\":\"currency\",\"type\":\"uint256\"}]},{\"internalType\":\"struct JBTokenAmount\",\"name\":\"forwardedAmount\",\"type\":\"tuple\",\"components\":[{\"internalType\":\"address\",\"name\":\"token\",\"type\":\"address\"},{\"internalType\":\"uint256\",\"name\":\"value\",\"type\":\"uint256\"},{\"internalType\":\"uint256\",\"name\":\"decimals\",\"type\":\"uint256\"},{\"internalType\":\"uint256\",\"name\":\"currency\",\"type\":\"uint256\"}]},{\"internalType\":\"uint256\",\"name\":\"weight\",\"type\":\"uint256\"},{\"internalType\":\"uint256\",\"name\":\"projectTokenCount\",\"type\":\"uint256\"},{\"internalType\":\"address\",\"name\":\"beneficiary\",\"type\":\"address\"},{\"internalType\":\"bytes\",\"name\":\"hookMetadata\",\"type\":\"bytes\"},{\"internalType\":\"bytes\",\"name\":\"payerMetadata\",\"type\":\"bytes\"}],\"indexed\":false},{\"internalType\":\"uint256\",\"name\":\"specificationAmount\",\"type\":\"uint256\",\"indexed\":false},{\"internalType\":\"address\",\"name\":\"caller\",\"type\":\"address\",\"indexed\":false}],\"type\":\"event\",\"name\":\"HookAfterRecordPay\",\"anonymous\":false},{\"inputs\":[{\"internalType\":\"uint256\",\"name\":\"projectId\",\"type\":\"uint256\",\"indexed\":true},{\"internalType\":\"address\",\"name\":\"token\",\"type\":\"address\",\"indexed\":true},{\"internalType\":\"contract IJBTerminal\",\"name\":\"to\",\"type\":\"address\",\"indexed\":true},{\"internalType\":\"uint256\",\"name\":\"amount\",\"type\":\"uint256\",\"indexed\":false},{\"internalType\":\"address\",\"name\":\"caller\",\"type\":\"address\",\"indexed\":false}],\"type\":\"event\",\"name\":\"MigrateTerminal\",\"anonymous\":false},{\"inputs\":[{\"internalType\":\"address\",\"name\":\"previousOwner\",\"type\":\"address\",\"indexed\":true},{\"internalType\":\"address\",\"name\":\"newOwner\",\"type\":\"address\",\"indexed\":true}],\"type\":\"event\",\"name\":\"OwnershipTransferred\",\"anonymous\":false},{\"inputs\":[{\"internalType\":\"uint256\",\"name\":\"rulesetId\",\"type\":\"uint256\",\"indexed\":true},{\"internalType\":\"uint256\",\"name\":\"rulesetCycleNumber\",\"type\":\"uint256\",\"indexed\":true},{\"internalType\":\"uint256\",\"name\":\"projectId\",\"type\":\"uint256\",\"indexed\":true},{\"internalType\":\"address\",\"name\":\"payer\",\"type\":\"address\",\"indexed\":false},{\"internalType\":\"address\",\"name\":\"beneficiary\",\"type\":\"address\",\"indexed\":false},{\"internalType\":\"uint256\",\"name\":\"amount\",\"type\":\"uint256\",\"indexed\":false},{\"internalType\":\"uint256\",\"name\":\"beneficiaryTokenCount\",\"type\":\"uint256\",\"indexed\":false},{\"internalType\":\"string\",\"name\":\"memo\",\"type\":\"string\",\"indexed\":false},{\"internalType\":\"bytes\",\"name\":\"metadata\",\"type\":\"bytes\",\"indexed\":false},{\"internalType\":\"address\",\"name\":\"caller\",\"type\":\"address\",\"indexed\":false}],\"type\":\"event\",\"name\":\"Pay\",\"anonymous\":false},{\"inputs\":[{\"internalType\":\"uint256\",\"name\":\"projectId\",\"type\":\"uint256\",\"indexed\":true},{\"internalType\":\"address\",\"name\":\"token\",\"type\":\"address\",\"indexed\":true},{\"internalType\":\"struct JBAccountingContext\",\"name\":\"context\",\"type\":\"tuple\",\"components\":[{\"internalType\":\"address\",\"name\":\"token\",\"type\":\"address\"},{\"internalType\":\"uint8\",\"name\":\"decimals\",\"type\":\"uint8\"},{\"internalType\":\"uint32\",\"name\":\"currency\",\"type\":\"uint32\"}],\"indexed\":false},{\"internalType\":\"address\",\"name\":\"caller\",\"type\":\"address\",\"indexed\":false}],\"type\":\"event\",\"name\":\"SetAccountingContext\",\"anonymous\":false},{\"inputs\":[],\"stateMutability\":\"view\",\"type\":\"function\",\"name\":\"DIRECTORY\",\"outputs\":[{\"internalType\":\"contract IJBDirectory\",\"name\":\"\",\"type\":\"address\"}]},{\"inputs\":[],\"stateMutability\":\"view\",\"type\":\"function\",\"name\":\"PERMISSIONS\",\"outputs\":[{\"internalType\":\"contract IJBPermissions\",\"name\":\"\",\"type\":\"address\"}]},{\"inputs\":[],\"stateMutability\":\"view\",\"type\":\"function\",\"name\":\"PERMIT2\",\"outputs\":[{\"internalType\":\"contract IPermit2\",\"name\":\"\",\"type\":\"address\"}]},{\"inputs\":[],\"stateMutability\":\"view\",\"type\":\"function\",\"name\":\"PROJECTS\",\"outputs\":[{\"internalType\":\"contract IJBProjects\",\"name\":\"\",\"type\":\"address\"}]},{\"inputs\":[],\"stateMutability\":\"view\",\"type\":\"function\",\"name\":\"STORE\",\"outputs\":[{\"internalType\":\"contract IJBTerminalStore\",\"name\":\"\",\"type\":\"address\"}]},{\"inputs\":[],\"stateMutability\":\"view\",\"type\":\"function\",\"name\":\"WETH\",\"outputs\":[{\"internalType\":\"contract IWETH9\",\"name\":\"\",\"type\":\"address\"}]},{\"inputs\":[{\"internalType\":\"uint256\",\"name\":\"projectId\",\"type\":\"uint256\"},{\"internalType\":\"address\",\"name\":\"token\",\"type\":\"address\"}],\"stateMutability\":\"view\",\"type\":\"function\",\"name\":\"accountingContextForTokenOf\",\"outputs\":[{\"internalType\":\"struct JBAccountingContext\",\"name\":\"\",\"type\":\"tuple\",\"components\":[{\"internalType\":\"address\",\"name\":\"token\",\"type\":\"address\"},{\"internalType\":\"uint8\",\"name\":\"decimals\",\"type\":\"uint8\"},{\"internalType\":\"uint32\",\"name\":\"currency\",\"type\":\"uint32\"}]}]},{\"inputs\":[{\"internalType\":\"uint256\",\"name\":\"projectId\",\"type\":\"uint256\"}],\"stateMutability\":\"view\",\"type\":\"function\",\"name\":\"accountingContextsOf\",\"outputs\":[{\"internalType\":\"struct JBAccountingContext[]\",\"name\":\"\",\"type\":\"tuple[]\",\"components\":[{\"internalType\":\"address\",\"name\":\"token\",\"type\":\"address\"},{\"internalType\":\"uint8\",\"name\":\"decimals\",\"type\":\"uint8\"},{\"internalType\":\"uint32\",\"name\":\"currency\",\"type\":\"uint32\"}]}]},{\"inputs\":[{\"internalType\":\"uint256\",\"name\":\"projectId\",\"type\":\"uint256\"},{\"internalType\":\"address[]\",\"name\":\"tokens\",\"type\":\"address[]\"}],\"stateMutability\":\"nonpayable\",\"type\":\"function\",\"name\":\"addAccountingContextsFor\"},{\"inputs\":[{\"internalType\":\"uint256\",\"name\":\"projectId\",\"type\":\"uint256\"},{\"internalType\":\"address\",\"name\":\"token\",\"type\":\"address\"},{\"internalType\":\"contract IUniswapV3Pool\",\"name\":\"pool\",\"type\":\"address\"}],\"stateMutability\":\"nonpayable\",\"type\":\"function\",\"name\":\"addDefaultPool\"},{\"inputs\":[{\"internalType\":\"uint256\",\"name\":\"\",\"type\":\"uint256\"},{\"internalType\":\"address\",\"name\":\"\",\"type\":\"address\"},{\"internalType\":\"uint256\",\"name\":\"\",\"type\":\"uint256\"},{\"internalType\":\"bool\",\"name\":\"\",\"type\":\"bool\"},{\"internalType\":\"string\",\"name\":\"\",\"type\":\"string\"},{\"internalType\":\"bytes\",\"name\":\"\",\"type\":\"bytes\"}],\"stateMutability\":\"payable\",\"type\":\"function\",\"name\":\"addToBalanceOf\"},{\"inputs\":[{\"internalType\":\"uint256\",\"name\":\"projectId\",\"type\":\"uint256\"},{\"internalType\":\"contract IUniswapV3Pool\",\"name\":\"pool\",\"type\":\"address\"},{\"internalType\":\"uint32\",\"name\":\"secondsAgo\",\"type\":\"uint32\"},{\"internalType\":\"uint160\",\"name\":\"slippageTolerance\",\"type\":\"uint160\"}],\"stateMutability\":\"nonpayable\",\"type\":\"function\",\"name\":\"addTwapParamsFor\"},{\"inputs\":[{\"internalType\":\"uint256\",\"name\":\"projectId\",\"type\":\"uint256\"},{\"internalType\":\"uint256\",\"name\":\"decimals\",\"type\":\"uint256\"},{\"internalType\":\"uint256\",\"name\":\"currency\",\"type\":\"uint256\"}],\"stateMutability\":\"view\",\"type\":\"function\",\"name\":\"currentSurplusOf\",\"outputs\":[{\"internalType\":\"uint256\",\"name\":\"\",\"type\":\"uint256\"}]},{\"inputs\":[{\"internalType\":\"uint256\",\"name\":\"projectId\",\"type\":\"uint256\"},{\"internalType\":\"address\",\"name\":\"tokenIn\",\"type\":\"address\"}],\"stateMutability\":\"view\",\"type\":\"function\",\"name\":\"getPoolFor\",\"outputs\":[{\"internalType\":\"contract IUniswapV3Pool\",\"name\":\"\",\"type\":\"address\"}]},{\"inputs\":[{\"internalType\":\"uint256\",\"name\":\"projectId\",\"type\":\"uint256\"},{\"internalType\":\"address\",\"name\":\"token\",\"type\":\"address\"},{\"internalType\":\"contract IJBTerminal\",\"name\":\"to\",\"type\":\"address\"}],\"stateMutability\":\"nonpayable\",\"type\":\"function\",\"name\":\"migrateBalanceOf\",\"outputs\":[{\"internalType\":\"uint256\",\"name\":\"balance\",\"type\":\"uint256\"}]},{\"inputs\":[],\"stateMutability\":\"view\",\"type\":\"function\",\"name\":\"owner\",\"outputs\":[{\"internalType\":\"address\",\"name\":\"\",\"type\":\"address\"}]},{\"inputs\":[{\"internalType\":\"uint256\",\"name\":\"projectId\",\"type\":\"uint256\"},{\"internalType\":\"address\",\"name\":\"token\",\"type\":\"address\"},{\"internalType\":\"uint256\",\"name\":\"amount\",\"type\":\"uint256\"},{\"internalType\":\"address\",\"name\":\"beneficiary\",\"type\":\"address\"},{\"internalType\":\"uint256\",\"name\":\"minReturnedTokens\",\"type\":\"uint256\"},{\"internalType\":\"string\",\"name\":\"memo\",\"type\":\"string\"},{\"internalType\":\"bytes\",\"name\":\"metadata\",\"type\":\"bytes\"}],\"stateMutability\":\"payable\",\"type\":\"function\",\"name\":\"pay\",\"outputs\":[{\"internalType\":\"uint256\",\"name\":\"\",\"type\":\"uint256\"}]},{\"inputs\":[],\"stateMutability\":\"nonpayable\",\"type\":\"function\",\"name\":\"renounceOwnership\"},{\"inputs\":[{\"internalType\":\"bytes4\",\"name\":\"interfaceId\",\"type\":\"bytes4\"}],\"stateMutability\":\"view\",\"type\":\"function\",\"name\":\"supportsInterface\",\"outputs\":[{\"internalType\":\"bool\",\"name\":\"\",\"type\":\"bool\"}]},{\"inputs\":[{\"internalType\":\"address\",\"name\":\"newOwner\",\"type\":\"address\"}],\"stateMutability\":\"nonpayable\",\"type\":\"function\",\"name\":\"transferOwnership\"},{\"inputs\":[{\"internalType\":\"uint256\",\"name\":\"projectId\",\"type\":\"uint256\"},{\"internalType\":\"contract IUniswapV3Pool\",\"name\":\"pool\",\"type\":\"address\"}],\"stateMutability\":\"view\",\"type\":\"function\",\"name\":\"twapParamsOf\",\"outputs\":[{\"internalType\":\"uint32\",\"name\":\"secondsAgo\",\"type\":\"uint32\"},{\"internalType\":\"uint160\",\"name\":\"slippageTolerance\",\"type\":\"uint160\"}]},{\"inputs\":[{\"internalType\":\"int256\",\"name\":\"amount0Delta\",\"type\":\"int256\"},{\"internalType\":\"int256\",\"name\":\"amount1Delta\",\"type\":\"int256\"},{\"internalType\":\"bytes\",\"name\":\"data\",\"type\":\"bytes\"}],\"stateMutability\":\"nonpayable\",\"type\":\"function\",\"name\":\"uniswapV3SwapCallback\"},{\"inputs\":[],\"stateMutability\":\"payable\",\"type\":\"receive\"}],\"devdoc\":{\"kind\":\"dev\",\"methods\":{\"accountingContextForTokenOf(uint256,address)\":{\"details\":\"Accounting contexts are set up in `addDefaultPool(...)`.\",\"params\":{\"projectId\":\"The ID of the project to get the accounting context for.\",\"token\":\"The address of the token to get the accounting context for.\"},\"returns\":{\"_0\":\"A `JBAccountingContext` containing the accounting context for the project ID and token.\"}},\"accountingContextsOf(uint256)\":{\"details\":\"This includes both project-specific and generic accounting contexts, with the project-specific contexts         taking precedence.\",\"params\":{\"projectId\":\"The ID of the project to get the accounting contexts for.\"},\"returns\":{\"_0\":\"An array of `JBAccountingContext` containing the accounting contexts for the project ID.\"}},\"addDefaultPool(uint256,address,address)\":{\"params\":{\"pool\":\"The Uniswap V3 pool to set as the default for the specified token.\",\"projectId\":\"The ID of the project to set the default pool for. The project 0 acts as a catch-all, where non-set pools are defaulted to.\",\"token\":\"The address of the token to set the default pool for.\"}},\"addTwapParamsFor(uint256,address,uint32,uint160)\":{\"params\":{\"projectId\":\"The ID of the project to set the TWAP-based quote rules for.\",\"secondsAgo\":\"The period of time over which the TWAP is calculated, in seconds.\",\"slippageTolerance\":\"The maximum spread allowed between the amount received and the TWAP (as a fraction out of `SLIPPAGE_DENOMINATOR`).\"}},\"getPoolFor(uint256,address)\":{\"params\":{\"projectId\":\"The ID of the project to retrieve the default pool for.\",\"tokenIn\":\"The address of the token to retrieve the default pool for.\"},\"returns\":{\"_0\":\"pool The default pool for the token, or the overall default pool for the token if the\"}},\"owner()\":{\"details\":\"Returns the address of the current owner.\"},\"pay(uint256,address,uint256,address,uint256,string,bytes)\":{\"params\":{\"amount\":\"The amount of tokens being paid in, as a fixed point number with the same amount of decimals as the `token`. If `token` is the native token, `amount` is ignored and `msg.value` is used in its place.\",\"beneficiary\":\"The beneficiary address to pass along to the other terminal. If the other terminal mints tokens, for example, they will be minted for this address.\",\"memo\":\"A memo to pass along to the emitted event.\",\"metadata\":\"Bytes in `JBMetadataResolver`'s format which can contain a quote from the user/client. The quote should contain a minimum amount of tokens to receive from the swap and the pool to use. This metadata is also passed to the other terminal's emitted event, as well as its data hook and pay hook if applicable.\",\"minReturnedTokens\":\"The minimum number of project tokens expected in return, as a fixed point number with the same number of decimals as the other terminal. This value will be passed along to the other terminal.\",\"projectId\":\"The ID of the project being paid.\",\"token\":\"The address of the token being paid in.\"},\"returns\":{\"_0\":\"The number of tokens received from the swap, as a fixed point number with the same amount of decimals as that token.\"}},\"renounceOwnership()\":{\"details\":\"Leaves the contract without owner. It will not be possible to call `onlyOwner` functions. Can only be called by the current owner. NOTE: Renouncing ownership will leave the contract without an owner, thereby disabling any functionality that is only available to the owner.\"},\"supportsInterface(bytes4)\":{\"details\":\"See {IERC165-supportsInterface}.\",\"params\":{\"interfaceId\":\"The ID of the interface to check for adherance to.\"},\"returns\":{\"_0\":\"A flag indicating if the provided interface ID is supported.\"}},\"transferOwnership(address)\":{\"details\":\"Transfers ownership of the contract to a new account (`newOwner`). Can only be called by the current owner.\"},\"twapParamsOf(uint256,address)\":{\"params\":{\"projectId\":\"The ID of the project to retrieve TWAP parameters for.\"},\"returns\":{\"secondsAgo\":\"The period of time in the past to calculate the TWAP from.\",\"slippageTolerance\":\"The maximum allowed slippage tolerance when calculating the TWAP, as a fraction out of `SLIPPAGE_DENOMINATOR`.\"}},\"uniswapV3SwapCallback(int256,int256,bytes)\":{\"params\":{\"amount0Delta\":\"The amount of token 0 being used for the swap.\",\"amount1Delta\":\"The amount of token 1 being used for the swap.\",\"data\":\"Data passed in by the swap operation.\"}}},\"version\":1},\"userdoc\":{\"kind\":\"user\",\"methods\":{\"DIRECTORY()\":{\"notice\":\"The directory of terminals and controllers for `PROJECTS`.\"},\"PERMISSIONS()\":{\"notice\":\"A contract storing permissions.\"},\"PERMIT2()\":{\"notice\":\"The permit2 utility.\"},\"PROJECTS()\":{\"notice\":\"Mints ERC-721s that represent project ownership and transfers.\"},\"STORE()\":{\"notice\":\"The contract that stores and manages this terminal's data.\"},\"WETH()\":{\"notice\":\"The ERC-20 wrapper for the native token.\"},\"accountingContextForTokenOf(uint256,address)\":{\"notice\":\"Get the accounting context for the specified project ID and token.\"},\"accountingContextsOf(uint256)\":{\"notice\":\"Return all the accounting contexts for a specified project ID.\"},\"addAccountingContextsFor(uint256,address[])\":{\"notice\":\"Empty implementation to satisfy the interface. Accounting contexts are set in `addDefaultPool(...)`.\"},\"addDefaultPool(uint256,address,address)\":{\"notice\":\"Set a project's default pool and accounting context for the specified token. Only the project's owner, an address with `MODIFY_DEFAULT_POOL` permission from the owner or the terminal owner can call this function.\"},\"addToBalanceOf(uint256,address,uint256,bool,string,bytes)\":{\"notice\":\"This terminal does not support adding to balances.\"},\"addTwapParamsFor(uint256,address,uint32,uint160)\":{\"notice\":\"Set the specified project's rules for calculating a quote based on the TWAP. Only the project's owner or an address with `MODIFY_TWAP_PARAMS` permission from the owner  or the terminal owner can call this function.\"},\"currentSurplusOf(uint256,uint256,uint256)\":{\"notice\":\"Empty implementation to satisfy the interface. This terminal has no surplus.\"},\"getPoolFor(uint256,address)\":{\"notice\":\"Returns the default pool for a given project and token or, if a project has no default pool for the         token, the overal default pool for the token\"},\"migrateBalanceOf(uint256,address,address)\":{\"notice\":\"Empty implementation to satisfy the interface.\"},\"pay(uint256,address,uint256,address,uint256,string,bytes)\":{\"notice\":\"Pay a project by swapping the incoming tokens for tokens that one of the project's other terminals accepts, passing along the funds received from the swap and the specified parameters.\"},\"supportsInterface(bytes4)\":{\"notice\":\"Indicates if this contract adheres to the specified interface.\"},\"twapParamsOf(uint256,address)\":{\"notice\":\"Returns the default twap parameters for a given pool project.\"},\"uniswapV3SwapCallback(int256,int256,bytes)\":{\"notice\":\"The Uniswap v3 pool callback where the token transfer is expected to happen.\"}},\"version\":1}},\"settings\":{\"remappings\":[\"@bananapus/=node_modules/@bananapus/\",\"@chainlink/=node_modules/@chainlink/\",\"@eth-optimism/=node_modules/@eth-optimism/\",\"@exhausted-pigeon/=node_modules/@exhausted-pigeon/\",\"@gnosis.pm/=node_modules/@gnosis.pm/\",\"@openzeppelin/=node_modules/@openzeppelin/\",\"@prb/=node_modules/@prb/\",\"@sphinx-labs/contracts/=node_modules/@sphinx-labs/contracts/contracts/foundry/\",\"@uniswap/=node_modules/@uniswap/\",\"base64-sol/=node_modules/base64-sol/\",\"ds-test/=lib/forge-std/lib/ds-test/src/\",\"forge-std/=lib/forge-std/src/\",\"hardhat/=node_modules/hardhat/\",\"solmate/=node_modules/solmate/\",\"sphinx-forge-std/=node_modules/sphinx-forge-std/\",\"sphinx-solmate/=node_modules/sphinx-solmate/\",\"sphinx/=lib/sphinx/packages/contracts/contracts/forge-std/src/\"],\"optimizer\":{\"enabled\":true,\"runs\":200},\"metadata\":{\"bytecodeHash\":\"ipfs\"},\"compilationTarget\":{\"src/JBSwapTerminal.sol\":\"JBSwapTerminal\"},\"evmVersion\":\"paris\",\"libraries\":{}},\"sources\":{\"node_modules/@bananapus/core/src/abstract/JBPermissioned.sol\":{\"keccak256\":\"0xbe593894bc9893f7fe5c96f14c013add8f50df762538e3d7cb96ed39ad195664\",\"urls\":[\"bzz-raw://efb81264b24776e6be537680abaeb8c4893e70d8a62231748d860e25a7c2340d\",\"dweb:/ipfs/QmacN9gFgPqkhTEwRD7Zben3whq9DRr2ZkSmScGvioTXXR\"],\"license\":\"MIT\"},\"node_modules/@bananapus/core/src/enums/JBApprovalStatus.sol\":{\"keccak256\":\"0x61c69b6bac7d24b566d87cda23a77e4ca9cdb87200b106aba8534cb9a0973e33\",\"urls\":[\"bzz-raw://6a9ca7249de76f77a8252eefe6bd1b63d47952f25a2acfa2c8db967cdff4470c\",\"dweb:/ipfs/QmaxSxptRQNj8bNy96EreENmrnRWdKmhyihBcxyWzBX5BN\"],\"license\":\"MIT\"},\"node_modules/@bananapus/core/src/interfaces/IJBControlled.sol\":{\"keccak256\":\"0x79fb8de7b3f809f1c3c7189f578b7331ec4dfe3350151d5b50240ecb3a2a907b\",\"urls\":[\"bzz-raw://45c82240dd4f0e9aec00d0d86f6b44bdda231db098ebdac17e922771b3e6f342\",\"dweb:/ipfs/QmPUvT8HZeVenrZDpP14HsZofaXPJjih8UAd35rTg3tU7E\"],\"license\":\"MIT\"},\"node_modules/@bananapus/core/src/interfaces/IJBDirectory.sol\":{\"keccak256\":\"0xd15957cc32974cde4f9f194b92574df2ad8a7aeec049d947136ce3381f9145f6\",\"urls\":[\"bzz-raw://7543e5cbde75ff777b16067016ff9ac5e995752842f03662137eb4ef3fc3c868\",\"dweb:/ipfs/QmPJZAmqNKRcj1JQ4Kc9hExbMtPPzrRB5hZ787utCfBmXg\"],\"license\":\"MIT\"},\"node_modules/@bananapus/core/src/interfaces/IJBPayHook.sol\":{\"keccak256\":\"0xe24aa2ca52f7a5f24f24ccae101cfc94d0f76705b2d23222f87c7852f8be4267\",\"urls\":[\"bzz-raw://6888140e9a7d4156fd22635654d5d08e21819af8b0356b5415f37b75083b3eb9\",\"dweb:/ipfs/QmbuwBNhar7rEbRhTJPiyo5PVsfaM5nqLow9NAkHhyvjV5\"],\"license\":\"MIT\"},\"node_modules/@bananapus/core/src/interfaces/IJBPermissioned.sol\":{\"keccak256\":\"0x5b038d4dee116584e88b230920e56d48e135053e3f7e5642eaea14a775c1dad7\",\"urls\":[\"bzz-raw://19e43102f349fd4a1da1c0943ffb8f2950007fe4bb4bb7e8f74fc142575d091b\",\"dweb:/ipfs/QmXHAt4KzDTdDZgDDefEXH2WKi7NcfkJb9R7nxW5uDqsNp\"],\"license\":\"MIT\"},\"node_modules/@bananapus/core/src/interfaces/IJBPermissions.sol\":{\"keccak256\":\"0x18870e500edf0fbadc353e273a5574701fb80466376b908c65e7cc3f11044d4d\",\"urls\":[\"bzz-raw://352a47c45853aec80e7acf0d286ade3106eb4cb456776b28a3c2f3f1091bed90\",\"dweb:/ipfs/QmQeYd3YbudYZy2hfbfht9kwhxhw4tuuLKMEYy9UY6dcSy\"],\"license\":\"MIT\"},\"node_modules/@bananapus/core/src/interfaces/IJBPriceFeed.sol\":{\"keccak256\":\"0x4bd84c0f1a5d4729ed709bcddd43f4c50ec4a165ece79780af8dce482ed07d4a\",\"urls\":[\"bzz-raw://62bac4bfb6982fb002f620c77e5c445e62d50241a5aa64a07e51d929f5a42180\",\"dweb:/ipfs/QmWgJUDreVY2BuMX38a1iUUR5kNbMwGnKG3VvurB7oZtuM\"],\"license\":\"MIT\"},\"node_modules/@bananapus/core/src/interfaces/IJBPrices.sol\":{\"keccak256\":\"0x99525f31440b955742dce84ba57de9fc1221139b5367c1f834723bef9e13e6e1\",\"urls\":[\"bzz-raw://6fa03f0cd4ad87dd7cbae7bf7f54463450874291773c8f70f2c31ef2cae62bb0\",\"dweb:/ipfs/QmSPajPV5ismteJuB6Spzm9VmhTj2iS3eVrfpJC1Zuzg8n\"],\"license\":\"MIT\"},\"node_modules/@bananapus/core/src/interfaces/IJBProjects.sol\":{\"keccak256\":\"0x85539f72c5871c53a919edc7db78931155464e9e00fccd30079b17e75820ddb9\",\"urls\":[\"bzz-raw://505466dbfbdeec77f948ce065676897a5b4a74b70bb234c1053b893c4849f3a1\",\"dweb:/ipfs/QmYBpZQub3Mv19xsRWqvzgiQSBAp4UNaKcqWQ2wwH62H95\"],\"license\":\"MIT\"},\"node_modules/@bananapus/core/src/interfaces/IJBRedeemHook.sol\":{\"keccak256\":\"0x4ea5b7ed510c9d29aca47ae3f8b41ef075dff4b9909779ec2c0e5b7bc30250c6\",\"urls\":[\"bzz-raw://770b785134ba71e3284dc7e05e44f429e7a8393423ad45cf8fe540408a5b9633\",\"dweb:/ipfs/QmRjXJxZPA1qZos7QjeCxJZ8sCfXfkyDFbzkdqzaqCD9Ds\"],\"license\":\"MIT\"},\"node_modules/@bananapus/core/src/interfaces/IJBRulesetApprovalHook.sol\":{\"keccak256\":\"0x5e9f921a6aa5d9396a12bbc0a878c3f5e8ae0a4ce8a3abe0de12e300718838d7\",\"urls\":[\"bzz-raw://6c9f0610f5bbe07554a1bdc39041be1284c20d81d930bec1eee2d374b86e03f4\",\"dweb:/ipfs/QmPH57wBoPERwDWkBCcj9c5tEUdeeLNe2kv1oFM7cTKVrd\"],\"license\":\"MIT\"},\"node_modules/@bananapus/core/src/interfaces/IJBRulesets.sol\":{\"keccak256\":\"0xda1a9aef337cf9fede3f638ffa58aea2815b87fde0f79628834aa03af9f582d7\",\"urls\":[\"bzz-raw://7941690ba6d94500474978ff0f02ecc56335eae5937759878e25cc1ac30a8ecc\",\"dweb:/ipfs/QmZFc7wof6PzfBTkVyNkjaQrQbjc36CK4uC3Ee2vgihqyK\"],\"license\":\"MIT\"},\"node_modules/@bananapus/core/src/interfaces/IJBTerminalStore.sol\":{\"keccak256\":\"0x81d5eb6c877f535143d26d2bef7be97dabf95122db4b1c6fdd0adc32ddc704ca\",\"urls\":[\"bzz-raw://551ab223b3498a20ae7e2bb3da7169ffa2c0a9ab3bd22c7387b19d69915809a4\",\"dweb:/ipfs/Qma2n7QtVAHmB7pWQavQnSBCouAfh171KezhYbNNmdT3wH\"],\"license\":\"MIT\"},\"node_modules/@bananapus/core/src/interfaces/IJBTokenUriResolver.sol\":{\"keccak256\":\"0xfa5cb00dcd6085d1ef912d071fe73c63f9478a2cd0f9d8bddaf659b6af2d0967\",\"urls\":[\"bzz-raw://282e4e7c342d65f77cde0e9a08fcaf20ef5cf379c7a48b639842c0ffd0b2afb8\",\"dweb:/ipfs/QmbnN3PEQeZaXdPLT75V1J79kMg7KqSMru37RHrL3z8Yf2\"],\"license\":\"MIT\"},\"node_modules/@bananapus/core/src/interfaces/terminal/IJBPermitTerminal.sol\":{\"keccak256\":\"0x9efd208aad91b74041850bfeef658b0cb64e756bf00cb811ea758fb6da0d1e76\",\"urls\":[\"bzz-raw://16160e253dfd77c4c00b56b34349519a60def039319ac4a6ae977e0fd409ad14\",\"dweb:/ipfs/QmQhjX4HzeMT1x9JixjpmusxBYiDxr9oh8ySj4fLwjnJoK\"],\"license\":\"MIT\"},\"node_modules/@bananapus/core/src/interfaces/terminal/IJBTerminal.sol\":{\"keccak256\":\"0x36f23bc27e56fa86d100281a75f5a6ce73f39f32e6a1667ce69f902da1d005ee\",\"urls\":[\"bzz-raw://e8ffa2e264fa12444799cb5706ca577034f3f8be9ff7a2f072981de6a61d706d\",\"dweb:/ipfs/QmR6gQDymvk8JQ77J8VxpFD1Hnxga4w7LLiRvAT3m4LG6T\"],\"license\":\"MIT\"},\"node_modules/@bananapus/core/src/libraries/JBConstants.sol\":{\"keccak256\":\"0x9d3a9a953f859d8ec79a599577f8972de6da7199cc1bfa7fdad017d4d722bcb4\",\"urls\":[\"bzz-raw://f151fcb53a8d2684eff8b9e56ac790bcbcadd8199a4fd4d17c5b224b22936722\",\"dweb:/ipfs/QmdAz1ZtCE8nTiC4AxQNLfJhnY3ndGum2Lbef7seKdvTdR\"],\"license\":\"MIT\"},\"node_modules/@bananapus/core/src/libraries/JBMetadataResolver.sol\":{\"keccak256\":\"0xdbe40563934ac1618c9ba15f92d3efc47383534b5b8889bf5aae092927be9e87\",\"urls\":[\"bzz-raw://630534d226e7b1f86907f48c70b0d5593ad5682936330fe2737082e4383e8a56\",\"dweb:/ipfs/QmfTVQ6M3eVYBJRZH3693Axo7yBoR5mr2YvHHwx6nvJojZ\"],\"license\":\"MIT\"},\"node_modules/@bananapus/core/src/structs/JBAccountingContext.sol\":{\"keccak256\":\"0x2907ff54d1e903cc7e0390dd88c3975884702dc2673642aacbe22b66560b56de\",\"urls\":[\"bzz-raw://a66a5381ce877b32f0e0058ceeaf843e9b6b2bc8af666c0c9f4a9d01091da004\",\"dweb:/ipfs/QmQynCetUr37dBkS1YwDS8evxuXGiqanW6THmeUxXtim8w\"],\"license\":\"MIT\"},\"node_modules/@bananapus/core/src/structs/JBAfterPayRecordedContext.sol\":{\"keccak256\":\"0xd26c3a774ff38be79064085970454fe2603a23a638c76270d5b1b3829206c3e8\",\"urls\":[\"bzz-raw://3b55dbe3bf1ef625b7ca04efab3de35406e6041d5b3d82c7265469c500e2b702\",\"dweb:/ipfs/QmUdBDo4Lt3mcsFcsXT2mqq3czFwZjQJFPLM89YA2VtD7k\"],\"license\":\"MIT\"},\"node_modules/@bananapus/core/src/structs/JBAfterRedeemRecordedContext.sol\":{\"keccak256\":\"0x521f5d23a36f0da72362cd84890cc867bd83baa8dc836ba6c5066d51dba2f163\",\"urls\":[\"bzz-raw://6cc461313286dde62d045d6288e87bae5032e035796326f5b1ed6218e58aa9da\",\"dweb:/ipfs/QmQS2AkQwf2ANQieDuaUnpJEdXChoLv4CCbZqHkfywYPSR\"],\"license\":\"MIT\"},\"node_modules/@bananapus/core/src/structs/JBPayHookSpecification.sol\":{\"keccak256\":\"0x955f0bfca97300b9e5927dc181753830ee362f83fa9ca32a90daade32aa0cfd5\",\"urls\":[\"bzz-raw://f517af1597c7c40f8d3da53f7a6684a3e162950a16559d6bf6ea3b727bb11546\",\"dweb:/ipfs/QmRWo2ZTYXmVZTzNJDYhsJNsEaHphjpUfx9eNz2cciyz86\"],\"license\":\"MIT\"},\"node_modules/@bananapus/core/src/structs/JBPermissionsData.sol\":{\"keccak256\":\"0x8f0f69a6ebf5f3704e3dfcb3712fb9d3f94ae7c1ab89bf3e37bad42a3e7a0487\",\"urls\":[\"bzz-raw://57b0c5e52843e2217082889ed47b4da3943e0da4590d5768dcebfe3edad4a6b8\",\"dweb:/ipfs/QmRz48vuWLw81kUP836rh1qzqWiJFGbksgRUA9xGEDNKTY\"],\"license\":\"MIT\"},\"node_modules/@bananapus/core/src/structs/JBRedeemHookSpecification.sol\":{\"keccak256\":\"0x673d16ee1a91bf8de3b37e57284e60451b70a9c2d748c9cdc7a151f5624af18f\",\"urls\":[\"bzz-raw://ceeb5e81effa0f076c5630c756dfcf1548d09f822b255a0a6ee01e54de8c8ae2\",\"dweb:/ipfs/QmSMoMNPRhPMnuJNvWa6S59XRfycGz9o2ApNp63bUW6TdX\"],\"license\":\"MIT\"},\"node_modules/@bananapus/core/src/structs/JBRuleset.sol\":{\"keccak256\":\"0x15b2bf3174d84846a91ccbf5a344dfb125b55ed9cf50102db8d6868844225189\",\"urls\":[\"bzz-raw://647416b025dbd941094db89cbc69f755c155bd6c87be3f322394ccc4a8e0442d\",\"dweb:/ipfs/QmTCL9xcHnxQ4t5AmCPoZvXDUPW5xhzhyyXYbkMdyg44au\"],\"license\":\"MIT\"},\"node_modules/@bananapus/core/src/structs/JBSingleAllowanceContext.sol\":{\"keccak256\":\"0x5bcd5b3abafe9137ee451b112fcac473b4d48858544279d38d0c56dea5271f44\",\"urls\":[\"bzz-raw://5f17a870c2f1797a18918ab3dc6f404f0224d9e415815c708654a17686cd62c0\",\"dweb:/ipfs/QmWMDffMMrj7ZXquTHSQt8VQm5owo94BdPpJ93NfSp2jrn\"],\"license\":\"MIT\"},\"node_modules/@bananapus/core/src/structs/JBTokenAmount.sol\":{\"keccak256\":\"0x5cf0626b73a596c1e2da17c89ae039a7c0374310b060d48568d3b6c11fbe6180\",\"urls\":[\"bzz-raw://63348b50be95e2995409394a17caffc563a646f0972650a1230bf864fbd3219b\",\"dweb:/ipfs/QmZXZpS3SbFD5nWaCauf6AqbEhLURv5qsKHpThBvQgDU6u\"],\"license\":\"MIT\"},\"node_modules/@bananapus/permission-ids/src/JBPermissionIds.sol\":{\"keccak256\":\"0xcc68735b4c801e953cb7962e069933f369515e7a4a09aea5b2170a268125a898\",\"urls\":[\"bzz-raw://e51f839d96be200efeca40ca4fb1d5b6096303564cdde5cf67aecf58e2d36db3\",\"dweb:/ipfs/QmRnJ5s974eUeyvTuLUpt4TK8t5TjVmz7DyDSAKxgYTnA5\"],\"license\":\"UNLICENSED\"},\"node_modules/@openzeppelin/contracts/access/Ownable.sol\":{\"keccak256\":\"0xff6d0bb2e285473e5311d9d3caacb525ae3538a80758c10649a4d61029b017bb\",\"urls\":[\"bzz-raw://8ed324d3920bb545059d66ab97d43e43ee85fd3bd52e03e401f020afb0b120f6\",\"dweb:/ipfs/QmfEckWLmZkDDcoWrkEvMWhms66xwTLff9DDhegYpvHo1a\"],\"license\":\"MIT\"},\"node_modules/@openzeppelin/contracts/token/ERC20/IERC20.sol\":{\"keccak256\":\"0xc6a8ff0ea489379b61faa647490411b80102578440ab9d84e9a957cc12164e70\",\"urls\":[\"bzz-raw://0ea104e577e63faea3b69c415637e99e755dcbf64c5833d7140c35a714d6d90c\",\"dweb:/ipfs/Qmau6x4Ns9XdyynRCNNp3RhLqijJjFm7z5fyZazfYFGYdq\"],\"license\":\"MIT\"},\"node_modules/@openzeppelin/contracts/token/ERC20/extensions/IERC20Metadata.sol\":{\"keccak256\":\"0xaa761817f6cd7892fcf158b3c776b34551cde36f48ff9703d53898bc45a94ea2\",\"urls\":[\"bzz-raw://0ad7c8d4d08938c8dfc43d75a148863fb324b80cf53e0a36f7e5a4ac29008850\",\"dweb:/ipfs/QmcrhfPgVNf5mkdhQvy1pMv51TFokD3Y4Wa5WZhFqVh8UV\"],\"license\":\"MIT\"},\"node_modules/@openzeppelin/contracts/token/ERC20/extensions/IERC20Permit.sol\":{\"keccak256\":\"0x6008dabfe393240d73d7dd7688033f72740d570aa422254d29a7dce8568f3aff\",\"urls\":[\"bzz-raw://f5196ec75139918c6c7bb4251b36395e668f1fa6d206beba7e7520e74913940d\",\"dweb:/ipfs/QmSyqjksXxmm2mCG6qRd1yuwLykypkSVBbnBnGqJRcuJMi\"],\"license\":\"MIT\"},\"node_modules/@openzeppelin/contracts/token/ERC20/utils/SafeERC20.sol\":{\"keccak256\":\"0x37bb49513c49c87c4642a891b13b63571bc87013dde806617aa1efb54605f386\",\"urls\":[\"bzz-raw://b3036b3a83b7c48f96641f2a9002b9f2dcb6a5958dd670894ada21ae8229b3d0\",\"dweb:/ipfs/QmUNfSBdoVtjhETaUJCYcaC7pTMgbhht926tJ2uXJbiVd3\"],\"license\":\"MIT\"},\"node_modules/@openzeppelin/contracts/token/ERC721/IERC721.sol\":{\"keccak256\":\"0x5ef46daa3b58ef2702279d514780316efaa952915ee1aa3396f041ee2982b0b4\",\"urls\":[\"bzz-raw://2f8f2a76e23b02fc69e8cd24c3cb47da6c7af3a2d6c3a382f8ac25c6e094ade7\",\"dweb:/ipfs/QmPV4ZS4tPVv4mTCf9ejyZ1ai57EEibDRj7mN2ARDCLV5n\"],\"license\":\"MIT\"},\"node_modules/@openzeppelin/contracts/utils/Address.sol\":{\"keccak256\":\"0xaf28a975a78550e45f65e559a3ad6a5ad43b9b8a37366999abd1b7084eb70721\",\"urls\":[\"bzz-raw://b7bd24e224f67f65bfadf85dc2929fa965456bb2415478bd0125471b5ce35245\",\"dweb:/ipfs/QmRaydGr8BTHs1kvaZfsNU69pKzUAGFrvABn1KiRSbE51y\"],\"license\":\"MIT\"},\"node_modules/@openzeppelin/contracts/utils/Context.sol\":{\"keccak256\":\"0x493033a8d1b176a037b2cc6a04dad01a5c157722049bbecf632ca876224dd4b2\",\"urls\":[\"bzz-raw://6a708e8a5bdb1011c2c381c9a5cfd8a9a956d7d0a9dc1bd8bcdaf52f76ef2f12\",\"dweb:/ipfs/Qmax9WHBnVsZP46ZxEMNRQpLQnrdE4dK8LehML1Py8FowF\"],\"license\":\"MIT\"},\"node_modules/@openzeppelin/contracts/utils/introspection/IERC165.sol\":{\"keccak256\":\"0x4296879f55019b23e135000eb36896057e7101fb7fb859c5ef690cf14643757b\",\"urls\":[\"bzz-raw://87b3541437c8c443ccd36795e56a338ed12855eec17f8da624511b8d1a7e14df\",\"dweb:/ipfs/QmeJQCtZrQjtJLr6u7ZHWeH3pBnjtLWzvRrKViAi7UZqxL\"],\"license\":\"MIT\"},\"node_modules/@uniswap/permit2/src/interfaces/IAllowanceTransfer.sol\":{\"keccak256\":\"0x37f0ac203b6ef605c9533e1a739477e8e9dcea90710b40e645a367f8a21ace29\",\"urls\":[\"bzz-raw://e0104d72aeaec1cd66cc232e7de7b7ead08608efcc179491b8a66387614670b0\",\"dweb:/ipfs/QmfAZDyuNC9FXXbnJUwqHNwmAK6uRrXxtWEytLsxjskPsN\"],\"license\":\"MIT\"},\"node_modules/@uniswap/permit2/src/interfaces/IEIP712.sol\":{\"keccak256\":\"0xfdccf2b9639070803cd0e4198427fb0df3cc452ca59bd3b8a0d957a9a4254138\",\"urls\":[\"bzz-raw://f7c936ac42ce89e827db905a1544397f8bdf46db34cdb6aa1b90dea42fdb4c72\",\"dweb:/ipfs/QmVgurxo1N31qZqkPBirw9Z7S9tLYmv6jSwQp8R8ur2cBk\"],\"license\":\"MIT\"},\"node_modules/@uniswap/permit2/src/interfaces/IPermit2.sol\":{\"keccak256\":\"0xaa631cc9f53e699301d94233007110a345e6779011def484e8dd97b8fe0af771\",\"urls\":[\"bzz-raw://fc0502cf19c9c18f320a3001201e89e350393b75837f6b7971de18b2de06f30d\",\"dweb:/ipfs/QmT9SfhdJ7VJNNrf94g4H5usyi7ShqWGx7Cqsz9jZTjX96\"],\"license\":\"MIT\"},\"node_modules/@uniswap/permit2/src/interfaces/ISignatureTransfer.sol\":{\"keccak256\":\"0xe6df9966f8841dc3958ee86169c89de97e7f614c81c28b9dc947b12d732df64e\",\"urls\":[\"bzz-raw://3d4eafdee7f48c3be8350a94eb6edd0bfb2af2c105df65787a77174f356c0317\",\"dweb:/ipfs/QmY1j2adeeAhNpn6cUuthemxGCdLXHTfyMh9yTKsY4mZ2d\"],\"license\":\"MIT\"},\"node_modules/@uniswap/v3-core/contracts/interfaces/IUniswapV3Pool.sol\":{\"keccak256\":\"0x4e64844c56061cd90e0a80de73534a9166704c43eed579eb83f90bc2780ce968\",\"urls\":[\"bzz-raw://cba4fab5cebdddf644b901994a7f0f52b98885d4c56012f4dc51d52c2bf9de0e\",\"dweb:/ipfs/QmVyyrRmqXrAiapewWunRVgiPVFJHpH2hKiE1py1svMSNV\"],\"license\":\"GPL-2.0-or-later\"},\"node_modules/@uniswap/v3-core/contracts/interfaces/callback/IUniswapV3SwapCallback.sol\":{\"keccak256\":\"0x3f485fb1a44e8fbeadefb5da07d66edab3cfe809f0ac4074b1e54e3eb3c4cf69\",\"urls\":[\"bzz-raw://095ce0626b41318c772b3ebf19d548282607f6a8f3d6c41c13edfbd5370c8652\",\"dweb:/ipfs/QmVDZfJJ89UUCE1hMyzqpkZAtQ8jUsBgZNE5AMRG7RzRFS\"],\"license\":\"GPL-2.0-or-later\"},\"node_modules/@uniswap/v3-core/contracts/interfaces/pool/IUniswapV3PoolActions.sol\":{\"keccak256\":\"0x9453dd0e7442188667d01d9b65de3f1e14e9511ff3e303179a15f6fc267f7634\",\"urls\":[\"bzz-raw://982f4328f956c3e60e67501e759eb292ac487f76460c774c50e9ae4fcc92aae5\",\"dweb:/ipfs/QmRnzEDsaqtd9PJEVcgQi7p5aV5pMSvRUoGZJAdwFUJxgZ\"],\"license\":\"GPL-2.0-or-later\"},\"node_modules/@uniswap/v3-core/contracts/interfaces/pool/IUniswapV3PoolDerivedState.sol\":{\"keccak256\":\"0xe603ac5b17ecdee73ba2b27efdf386c257a19c14206e87eee77e2017b742d9e5\",\"urls\":[\"bzz-raw://8febc9bdb399a4d94bb89f5377732652e2400e4a8dee808201ade6848f9004e7\",\"dweb:/ipfs/QmaKDqYYFU4d2W2iN77aDHptfbFmYZRrMYXHeGpJmM8C1c\"],\"license\":\"GPL-2.0-or-later\"},\"node_modules/@uniswap/v3-core/contracts/interfaces/pool/IUniswapV3PoolErrors.sol\":{\"keccak256\":\"0xf80abf13fb1fafc127ba4e792f240dd8ea7c8c893978cdfd8439c27fae9a037b\",\"urls\":[\"bzz-raw://b04fc72a656bbf3631e9c2e67b9870a2d9d235185e833fe050e9606e6816a9aa\",\"dweb:/ipfs/QmUcz4bkEkJ9pwzFu1C3n97hBQ3st9U6qTAqCdyFwddKco\"],\"license\":\"GPL-2.0-or-later\"},\"node_modules/@uniswap/v3-core/contracts/interfaces/pool/IUniswapV3PoolEvents.sol\":{\"keccak256\":\"0x8071514d0fe5d17d6fbd31c191cdfb703031c24e0ece3621d88ab10e871375cd\",\"urls\":[\"bzz-raw://d0b571930cc7488b1d546a7e9cea7c52d8b3c4e207da657ed0e0db7343b8cd03\",\"dweb:/ipfs/QmaGK6vVwB95QSTR1XMYvrh7ivYAYZxi3fD7v6VMA4jZ39\"],\"license\":\"GPL-2.0-or-later\"},\"node_modules/@uniswap/v3-core/contracts/interfaces/pool/IUniswapV3PoolImmutables.sol\":{\"keccak256\":\"0xf6e5d2cd1139c4c276bdbc8e1d2b256e456c866a91f1b868da265c6d2685c3f7\",\"urls\":[\"bzz-raw://b99c8c9ae8e27ee6559e5866bea82cbc9ffc8247f8d15b7422a4deb287d4d047\",\"dweb:/ipfs/QmfL8gaqt3ffAnm6nVj5ksuNpLygXuL3xq5VBqrkwC2JJ3\"],\"license\":\"GPL-2.0-or-later\"},\"node_modules/@uniswap/v3-core/contracts/interfaces/pool/IUniswapV3PoolOwnerActions.sol\":{\"keccak256\":\"0x759b78a2918af9e99e246dc3af084f654e48ef32bb4e4cb8a966aa3dcaece235\",\"urls\":[\"bzz-raw://64144fb96e1c7fdba87305acadb98a198d26a3d46c097cb3a666e567f6f29735\",\"dweb:/ipfs/QmUnWVwN9FKB9uV5Pr8YfLpWZnYM2DENnRMaadZ492JS9u\"],\"license\":\"GPL-2.0-or-later\"},\"node_modules/@uniswap/v3-core/contracts/interfaces/pool/IUniswapV3PoolState.sol\":{\"keccak256\":\"0x44fa2ce1182f6c2f6bead3d1737804bf7e112252ae86e0f2e92f9b8249603f43\",\"urls\":[\"bzz-raw://54154e8665b98d65f5dc91b256551852cb47882180b501b260657122d207c0ea\",\"dweb:/ipfs/QmcfemK1A2PXYrWB5SBFGERpMCderbFRb8BtTzQDj1sUBp\"],\"license\":\"GPL-2.0-or-later\"},\"node_modules/@uniswap/v3-core/contracts/libraries/FullMath.sol\":{\"keccak256\":\"0x7825565a4bb2a34a1dc96bbfead755785dfb0df8ef81bd934c43023689685645\",\"urls\":[\"bzz-raw://8f44f4614d31e3d4864c7eb13620555253b84f6a69180f8745b7c6e246a9d125\",\"dweb:/ipfs/QmfNQUcXj3KL8h9u5PqbtEC6yRtwDbKNb48uMPjdwxsKnd\"],\"license\":\"MIT\"},\"node_modules/@uniswap/v3-core/contracts/libraries/TickMath.sol\":{\"keccak256\":\"0x5c57de03a91cc2ec8939865dbbcb0197bb6c353b711075eefd8e0fca5e102129\",\"urls\":[\"bzz-raw://1e994c24fd891ef8a3f5dbf5eba42b34feaf05e0376a29f91322faa18054449c\",\"dweb:/ipfs/QmNdUJGUQxd1dPkMbnA5f5UNqakxRkQE5r7bTZJAuHeapS\"],\"license\":\"GPL-2.0-or-later\"},\"node_modules/@uniswap/v3-periphery/contracts/libraries/OracleLibrary.sol\":{\"keccak256\":\"0xe313f89c69c0f1c91f0722868313b4ceb14479b3e7a0abf52a1b9bbd9c18e81b\",\"urls\":[\"bzz-raw://8ad09b061f3f533c116618c20cf01510108eebebb7ff8847b0f245b8ba368d53\",\"dweb:/ipfs/QmU6vdi5JjJfjK2KqonWvRg9NeuQWarj4B1YFN22Dh9VJM\"],\"license\":\"GPL-2.0-or-later\"},\"src/JBSwapTerminal.sol\":{\"keccak256\":\"0x4c45ee88055708a1631fe1588f4df404913d7fb251ebdb9786b77a7d9f662ab6\",\"urls\":[\"bzz-raw://c18355e5ff5be40db4122b031a07479a8cc1e8df4d616313c64175231c25d7cf\",\"dweb:/ipfs/QmXkhdRKDTUX2JBwM4oc8PtqL5LYYjBHCBEXYdpzD7ouiH\"],\"license\":\"MIT\"},\"src/interfaces/IWETH9.sol\":{\"keccak256\":\"0x50083bcaca6c1a8d12c79116fab4f6d8cd452a510cb3f00c4a8bc3a54678efb7\",\"urls\":[\"bzz-raw://726f187112d0953c14bff8099a8c9ce1ead47eb25e90839f77b100feaaf16127\",\"dweb:/ipfs/QmTEnMENpLjcTQLMwz4kEUiQHfiTkaZT3TL37nQ8JiRYh5\"],\"license\":\"GPL-2.0-or-later\"}},\"version\":1}",
			"args": [
				"0x45452B26fe78D2b83247279F87c847F4F4A8FCEb",
				"0xa1Ba58fcA530D0b011646167C9EB81F54d9C9dF6",
				"0x6A6988E79a621Fc7Ea74D67a31E9cefCcC98e949",
				"0x000000000022D473030F116dDEE9F6B43aC78BA3",
				"0x823b92d6a4b2AED4b15675c7917c9f922ea8ADAD",
				"0x7b79995e5f793A07Bc00c21412e50Ecae098E7f9"
			],
			"bytecode": "0x610140604052600580546001600160a01b0319166127101790553480156200002657600080fd5b50604051620037a8380380620037a883398101604081905262000049916200011e565b6001600160a01b03808616608052829081166200008057604051631e4fbdf760e01b81526000600482015260240160405180910390fd5b6200008b81620000b5565b506001600160a01b0395861660a05292851660c052508316610100529091166101205250620001b2565b600080546001600160a01b038381166001600160a01b0319831681178455604051919092169283917f8be0079c531659141344cd1fd0a4f28419497f9722a3daafe3b4186f6b6457e09190a35050565b6001600160a01b03811681146200011b57600080fd5b50565b60008060008060008060c087890312156200013857600080fd5b8651620001458162000105565b6020880151909650620001588162000105565b60408801519095506200016b8162000105565b60608801519094506200017e8162000105565b6080880151909350620001918162000105565b60a0880151909250620001a48162000105565b809150509295509295509295565b60805160a05160c05160e051610100516101205161355262000256600039600081816101490152818161046701528181610dca01528181610f1501528181610ffd0152611b85015260008181610379015281816121d501526123dc015260006103180152600081816103e2015261122e0152600081816101f5015281816106050152610c9901526000818161052801528181611481015261152a01526135526000f3fe6080604052600436106101395760003560e01c80638da5cb5b116100ab578063cc6801271161006f578063cc680127146104a9578063e28b5411146104db578063f2fde38b146104f6578063f434c91414610516578063fa461e331461054a578063fef432571461056a57600080fd5b80638da5cb5b1461040457806398ea47fc146104225780639e6eec0514610442578063ad5c464814610455578063c361534c1461048957600080fd5b8063507f1465116100fd578063507f146514610306578063515a92931461033a5780636afdd85014610367578063715018a61461039b5780637c5e9c24146103b057806388bc2ef3146103d057600080fd5b806301ffc9a71461018e57806324e26dc5146101c3578063293c4999146101e35780633a01714f1461022f57806340873cb5146102c257600080fd5b3661018957336001600160a01b037f0000000000000000000000000000000000000000000000000000000000000000161461018757604051635e7e9adf60e11b815260040160405180910390fd5b005b600080fd5b34801561019a57600080fd5b506101ae6101a936600461287c565b61057d565b60405190151581526020015b60405180910390f35b3480156101cf57600080fd5b506101876101de3660046128bb565b6105cf565b3480156101ef57600080fd5b506102177f000000000000000000000000000000000000000000000000000000000000000081565b6040516001600160a01b0390911681526020016101ba565b34801561023b57600080fd5b506102b561024a3660046128fd565b604080516060808201835260008083526020808401829052928401819052948552600382528285206001600160a01b03948516865282529382902082519485018352549283168452600160a01b830460ff1690840152600160a81b90910463ffffffff169082015290565b6040516101ba919061292d565b3480156102ce57600080fd5b506102e26102dd3660046128fd565b6107d5565b6040805163ffffffff90931683526001600160a01b039091166020830152016101ba565b34801561031257600080fd5b506102177f000000000000000000000000000000000000000000000000000000000000000081565b34801561034657600080fd5b5061035a610355366004612960565b61084b565b6040516101ba9190612979565b34801561037357600080fd5b506102177f000000000000000000000000000000000000000000000000000000000000000081565b3480156103a757600080fd5b50610187610bca565b3480156103bc57600080fd5b506102176103cb3660046128fd565b610bde565b3480156103dc57600080fd5b506102177f000000000000000000000000000000000000000000000000000000000000000081565b34801561041057600080fd5b506000546001600160a01b0316610217565b34801561042e57600080fd5b5061018761043d3660046129ed565b505050565b610187610450366004612abc565b610c4a565b34801561046157600080fd5b506102177f000000000000000000000000000000000000000000000000000000000000000081565b34801561049557600080fd5b506101876104a4366004612b64565b610c63565b3480156104b557600080fd5b506104cd6104c4366004612bc0565b60009392505050565b6040519081526020016101ba565b3480156104e757600080fd5b506104cd6104c43660046128bb565b34801561050257600080fd5b50610187610511366004612bec565b610d59565b34801561052257600080fd5b506102177f000000000000000000000000000000000000000000000000000000000000000081565b34801561055657600080fd5b50610187610565366004612c09565b610d9c565b6104cd610578366004612c5c565b610eb8565b60006001600160e01b03198216632f720bd160e21b14806105ae57506001600160e01b031982166306afdd8560e41b145b806105c957506001600160e01b031982166301ffc9a760e01b145b92915050565b821580156105e757506000546001600160a01b031633145b610680576040516331a9108f60e11b815260048101849052610680907f00000000000000000000000000000000000000000000000000000000000000006001600160a01b031690636352211e90602401602060405180830381865afa158015610654573d6000803e3d6000fd5b505050506040513d601f19601f820116820180604052508101906106789190612d10565b84601b611437565b60008381526002602090815260408083206001600160a01b038681168086529184529382902080546001600160a01b031916948616949094179093558051606081018252838152815163313ce56760e01b81529151909384840193909263313ce56792600480830193928290030181865afa158015610703573d6000803e3d6000fd5b505050506040513d601f19601f820116820180604052508101906107279190612d2d565b60ff908116825263ffffffff80861660209384015260008781526003845260408082206001600160a01b03988916808452908652818320875181548989015199850151909616600160a81b0263ffffffff60a81b1999909716600160a01b026001600160a81b03199096169a1699909917939093179590951692909217909555948552600481529084208054600181018255908552932090920180546001600160a01b031916909117905550565b60008281526001602090815260408083206001600160a01b0385168452909152812054819080820361083b57506001600160a01b03831660009081527fa6eef7e35abe7026729641147f7915573c7e97b47efa546f5f6e3230263bcb4960205260409020545b915050602081901c5b9250929050565b60008181526004602090815260408083208054825181850281018501909352808352606094938301828280156108aa57602002820191906000526020600020905b81546001600160a01b0316815260019091019060200180831161088c575b50506000808052600460209081527f17ef568e3e12ab5b9c7254a8d58478811de00f9e6eb34345acd53bf8fd09d3ec8054604080518285028101850190915281815297985092969550935090915083018282801561093157602002820191906000526020600020905b81546001600160a01b03168152600190910190602001808311610913575b505050505090506000815183516109489190612d66565b67ffffffffffffffff81111561096057610960612d79565b6040519080825280602002602001820160405280156109ab57816020015b604080516060810182526000808252602080830182905292820152825260001990920191018161097e5790505b50835190915060005b8451811015610a65576003600088815260200190815260200160002060008683815181106109e4576109e4612d8f565b6020908102919091018101516001600160a01b039081168352828201939093526040918201600020825160608101845290549384168152600160a01b840460ff1691810191909152600160a81b90920463ffffffff16908201528351849083908110610a5257610a52612d8f565b60209081029190910101526001016109b4565b5060005b8351811015610bb3576000805b8651811015610adb57858381518110610a9157610a91612d8f565b60200260200101516001600160a01b0316878281518110610ab457610ab4612d8f565b60200260200101516001600160a01b031603610ad35760019150610adb565b600101610a76565b5080610baa576000808052600360205285517f3617319a054d772f909f7c479a2cebe5066e836a939412e32403c99029b92eff9190879085908110610b2257610b22612d8f565b6020908102919091018101516001600160a01b039081168352828201939093526040918201600020825160608101845290549384168152600160a01b840460ff1691810191909152600160a81b90920463ffffffff16908201528451859085908110610b9057610b90612d8f565b60200260200101819052508280610ba690612da5565b9350505b50600101610a69565b508151811015610bc1578082525b50949350505050565b610bd26115bb565b610bdc60006115e8565b565b60008281526002602090815260408083206001600160a01b03808616855292528220541680610c4357506001600160a01b0380831660009081527fac33ff75c19e70fe83507db0d683fd3465c996598dc972688b7ace676c89077b6020526040902054165b9392505050565b604051630d831b5560e11b815260040160405180910390fd5b83158015610c7b57506000546001600160a01b031633145b610d14576040516331a9108f60e11b815260048101859052610d14907f00000000000000000000000000000000000000000000000000000000000000006001600160a01b031690636352211e90602401602060405180830381865afa158015610ce8573d6000803e3d6000fd5b505050506040513d601f19601f82011682018060405250810190610d0c9190612d10565b85601c611437565b60009384526001602090815260408086206001600160a01b03959095168652938152929093209290911b640100000000600160c01b031663ffffffff91909116179055565b610d616115bb565b6001600160a01b038116610d9057604051631e4fbdf760e01b8152600060048201526024015b60405180910390fd5b610d99816115e8565b50565b600080610dab83850185612dbe565b915091506000808712610dbe5786610dc0565b855b90508115610e3d577f00000000000000000000000000000000000000000000000000000000000000006001600160a01b031663d0e30db0826040518263ffffffff1660e01b81526004016000604051808303818588803b158015610e2357600080fd5b505af1158015610e37573d6000803e3d6000fd5b50505050505b60405163a9059cbb60e01b8152336004820152602481018290526001600160a01b0384169063a9059cbb906044016020604051808303816000875af1158015610e8a573d6000803e3d6000fd5b505050506040513d601f19601f82011682018060405250810190610eae9190612dec565b5050505050505050565b6040805161010081018252600060208201819052918101829052606081018290526080810182905260a0810182905260c0810182905260e081018290528a81526001600160a01b038a1661eeed1901610f4c576001600160a01b037f0000000000000000000000000000000000000000000000000000000000000000166040820152600160608201523460c0820152610f63565b6001600160a01b038a16604082015260c081018990525b600080610fad630535741560e41b87878080601f01602080910402602001604051908101604052809392919081815260200183838082843760009201919091525061163892505050565b91509150811561104457600081806020019051810190610fcd9190612e09565b6001600160a01b03918216602088015260e0870192909252909150811661eeed190161102e576001600160a01b037f0000000000000000000000000000000000000000000000000000000000000000166080850152600160a085015261103e565b6001600160a01b03811660808501525b50611228565b6000600260008f815260200190815260200160002060008e6001600160a01b03166001600160a01b0316815260200190815260200160002060009054906101000a90046001600160a01b0316905060006001600160a01b0316816001600160a01b03160361110557506001600160a01b03808d1660009081527fac33ff75c19e70fe83507db0d683fd3465c996598dc972688b7ace676c89077b6020526040902054168061110557604051632a12044160e21b815260040160405180910390fd5b6001600160a01b038116602080860182905260408051630dfe168160e01b8152905160009384939092630dfe168192600480830193928290030181865afa158015611154573d6000803e3d6000fd5b505050506040513d601f19601f820116820180604052508101906111789190612d10565b836001600160a01b031663d21220a76040518163ffffffff1660e01b8152600401602060405180830381865afa1580156111b6573d6000803e3d6000fd5b505050506040513d601f19601f820116820180604052508101906111da9190612d10565b915091508e6001600160a01b0316826001600160a01b0316146111fd57816111ff565b805b6001600160a01b03166080870152611216866117dd565b6001600160a01b031660e08701525050505b505060007f00000000000000000000000000000000000000000000000000000000000000006001600160a01b031663862026508d8460a0015161126f578460800151611273565b61eeee5b6040516001600160e01b031960e085901b16815260048101929092526001600160a01b03166024820152604401602060405180830381865afa1580156112bd573d6000803e3d6000fd5b505050506040513d601f19601f820116820180604052508101906112e19190612d10565b90506001600160a01b03811661130a57604051630faa917b60e11b815260040160405180910390fd5b61131582868661189c565b60c08301526060820151600090801561132f57508260a001515b80611353575082608001516001600160a01b031683604001516001600160a01b0316145b15611363575060c082015161136f565b61136c83611a00565b90505b61137e82846080015183611bf4565b816001600160a01b031663fef432578460a0015161139d57600061139f565b825b855160a08701516113b45786608001516113b8565b61eeee5b858f8f8f8f8f8f6040518b63ffffffff1660e01b81526004016113e399989796959493929190612e6a565b60206040518083038185885af1158015611401573d6000803e3d6000fd5b50505050506040513d601f19601f820116820180604052508101906114269190612ece565b509c9b505050505050505050505050565b336001600160a01b03841681148015906114ee575060405163c161c93f60e01b81526001600160a01b038281166004830152858116602483015260448201859052606482018490527f0000000000000000000000000000000000000000000000000000000000000000169063c161c93f90608401602060405180830381865afa1580156114c8573d6000803e3d6000fd5b505050506040513d601f19601f820116820180604052508101906114ec9190612dec565b155b8015611597575060405163c161c93f60e01b81526001600160a01b038281166004830152858116602483015260006044830152606482018490527f0000000000000000000000000000000000000000000000000000000000000000169063c161c93f90608401602060405180830381865afa158015611571573d6000803e3d6000fd5b505050506040513d601f19601f820116820180604052508101906115959190612dec565b155b156115b55760405163075fd2b160e01b815260040160405180910390fd5b50505050565b6000546001600160a01b03163314610bdc5760405163118cdaa760e01b8152336004820152602401610d87565b600080546001600160a01b038381166001600160a01b0319831681178455604051919092169283917f8be0079c531659141344cd1fd0a4f28419497f9722a3daafe3b4186f6b6457e09190a35050565b60006060602583511161165d5750506040805160208101909152600080825290610844565b60008361166c60046020612d66565b8151811061167c5761167c612d8f565b0160209081015160f81c91505b600085611697600484612d66565b815181106116a7576116a7612d8f565b01602001516001600160f81b031916148015906116cd57506116ca602083612ee7565b81105b156117d4576000856116e0600484612d66565b815181106116f0576116f0612d8f565b016020908101518784019091015160f89190911c91506001600160e01b0319808916908216036117ca576000611727602086612ee7565b611732600986612d66565b101580611767575087611746600986612d66565b8151811061175657611756612d8f565b01602001516001600160f81b031916155b6117a057602088611779600987612d66565b8151811061178957611789612d8f565b016020015161179b919060f81c612ee7565b6117a3565b87515b905060016117bc896117b6602087612ee7565b84611c20565b965096505050505050610844565b5050600501611689565b50509250929050565b60008060006117f4846000015185602001516107d5565b915091506000611808856020015184611c66565b509050600061181682611eb0565b905085608001516001600160a01b031686604001516001600160a01b031610611868576005546001600160a01b031661184f8483612efe565b6118599190612f46565b6118639082612f6c565b611892565b6005546001600160a01b031661187e8483612efe565b6118889190612f46565b6118929082612f93565b9695505050505050565b6040830151606084015160009190156118b85734915050610c43565b34156118d757604051635e7e9adf60e11b815260040160405180910390fd5b60008061191d3060e01b87878080601f01602080910402602001604051908101604052809392919081815260200183838082843760009201919091525061163892505050565b91509150811561197d5760008180602001905181019061193d919061304c565b90508760c0015181602001516001600160a01b03161015611971576040516317e415a160e11b815260040160405180910390fd5b61197b81856121d3565b505b61198d3330858a60c001516122d2565b6040516370a0823160e01b81523060048201526001600160a01b038416906370a0823190602401602060405180830381865afa1580156119d1573d6000803e3d6000fd5b505050506040513d601f19601f820116820180604052508101906119f59190612ece565b979650505050505050565b600080826040015190506000836080015190506000816001600160a01b0316836001600160a01b031610905060008086602001516001600160a01b031663128acb0830858a60c0015187611a7257611a6d600173fffd8963efd1fc6a506488495d951d5263988d26612f93565b611a82565b611a826401000276a36001612f6c565b60608d810151604080516001600160a01b038f16602082015291151590820152016040516020818303038152906040526040518663ffffffff1660e01b8152600401611ad2959493929190613178565b60408051808303816000875af1158015611af0573d6000803e3d6000fd5b505050506040513d601f19601f82011682018060405250810190611b1491906131b3565b9150915082611b235781611b25565b805b611b2e906131d7565b95508660e00151861015611b655760e0870151604051630bb50c5d60e41b8152610d87918891600401918252602082015260400190565b8660a0015115611bea57604051632e1a7d4d60e01b8152600481018790527f00000000000000000000000000000000000000000000000000000000000000006001600160a01b031690632e1a7d4d90602401600060405180830381600087803b158015611bd157600080fd5b505af1158015611be5573d6000803e3d6000fd5b505050505b5050505050919050565b61eeed196001600160a01b03831601611c0c57505050565b61043d6001600160a01b0383168483612434565b60608282036040519150602081830101604052808252508260208501016020820160005b84811015611c5c578281015182820152602001611c44565b5050509392505050565b6000808263ffffffff16600003611ca45760405162461bcd60e51b8152602060048201526002602482015261042560f41b6044820152606401610d87565b6040805160028082526060820183526000926020830190803683370190505090508381600081518110611cd957611cd9612d8f565b602002602001019063ffffffff16908163ffffffff1681525050600081600181518110611d0857611d08612d8f565b602002602001019063ffffffff16908163ffffffff1681525050600080866001600160a01b031663883bdbfd846040518263ffffffff1660e01b8152600401611d5191906131f3565b600060405180830381865afa158015611d6e573d6000803e3d6000fd5b505050506040513d6000823e601f3d908101601f19168201604052611d9691908101906132cd565b91509150600082600081518110611daf57611daf612d8f565b602002602001015183600181518110611dca57611dca612d8f565b6020026020010151611ddc9190613399565b9050600082600081518110611df357611df3612d8f565b602002602001015183600181518110611e0e57611e0e612d8f565b6020026020010151611e209190612f93565b9050611e3263ffffffff8916836133c6565b965060008260060b128015611e585750611e5263ffffffff891683613404565b60060b15155b15611e6b5786611e6781613426565b9750505b6000611e846001600160a01b0363ffffffff8b16613449565b9050611ea1640100000000600160c01b03602084901b1682613472565b96505050505050509250929050565b60008060008360020b12611ec7578260020b611ecf565b8260020b6000035b9050620d89e8811115611ef5576040516315e4079d60e11b815260040160405180910390fd5b600081600116600003611f0c57600160801b611f1e565b6ffffcb933bd6fad37aa2d162d1a5940015b70ffffffffffffffffffffffffffffffffff1690506002821615611f52576ffff97272373d413259a46990580e213a0260801c5b6004821615611f71576ffff2e50f5f656932ef12357cf3c7fdcc0260801c5b6008821615611f90576fffe5caca7e10e4e61c3624eaa0941cd00260801c5b6010821615611faf576fffcb9843d60f6159c9db58835c9266440260801c5b6020821615611fce576fff973b41fa98c081472e6896dfb254c00260801c5b6040821615611fed576fff2ea16466c96a3843ec78b326b528610260801c5b608082161561200c576ffe5dee046a99a2a811c461f1969c30530260801c5b61010082161561202c576ffcbe86c7900a88aedcffc83b479aa3a40260801c5b61020082161561204c576ff987a7253ac413176f2b074cf7815e540260801c5b61040082161561206c576ff3392b0822b70005940c7a398e4b70f30260801c5b61080082161561208c576fe7159475a2c29b7443b29c7fa6e889d90260801c5b6110008216156120ac576fd097f3bdfd2022b8845ad8f792aa58250260801c5b6120008216156120cc576fa9f746462d870fdf8a65dc1f90e061e50260801c5b6140008216156120ec576f70d869a156d2a1b890bb3df62baf32f70260801c5b61800082161561210c576f31be135f97d08fd981231505542fcfa60260801c5b6201000082161561212d576f09aa508b5b7a84e1c677de54f3e99bc90260801c5b6202000082161561214d576e5d6af8dedb81196699c329225ee6040260801c5b6204000082161561216c576d2216e584f5fa1ea926041bedfe980260801c5b62080000821615612189576b048a170391f7dc42444e8fa20260801c5b60008460020b13156121aa5780600019816121a6576121a6612f30565b0490505b6401000000008106156121be5760016121c1565b60005b60ff16602082901c0192505050919050565b7f00000000000000000000000000000000000000000000000000000000000000006001600160a01b0316632b67b5703360405180606001604052806040518060800160405280876001600160a01b0316815260200188602001516001600160a01b03168152602001886040015165ffffffffffff168152602001886060015165ffffffffffff168152508152602001306001600160a01b03168152602001866000015181525085608001516040518463ffffffff1660e01b815260040161229c9392919061348c565b600060405180830381600087803b1580156122b657600080fd5b505af11580156122ca573d6000803e3d6000fd5b505050505050565b61eeed196001600160a01b038316016122f4576122ef83826124be565b6115b5565b306001600160a01b03851603612318576122ef6001600160a01b0383168483612555565b604051636eb1769f60e11b81526001600160a01b03858116600483015230602483015282919084169063dd62ed3e90604401602060405180830381865afa158015612367573d6000803e3d6000fd5b505050506040513d601f19601f8201168201806040525081019061238b9190612ece565b106123a5576122ef6001600160a01b0383168585846125b4565b604051631b63c28b60e11b81526001600160a01b0385811660048301528481166024830152828116604483015283811660648301527f000000000000000000000000000000000000000000000000000000000000000016906336c7851690608401600060405180830381600087803b15801561242057600080fd5b505af1158015610eae573d6000803e3d6000fd5b604051636eb1769f60e11b81523060048201526001600160a01b0383811660248301526000919085169063dd62ed3e90604401602060405180830381865afa158015612484573d6000803e3d6000fd5b505050506040513d601f19601f820116820180604052508101906124a89190612ece565b90506115b584846124b98585612d66565b6125ed565b804710156124e15760405163cd78605960e01b8152306004820152602401610d87565b6000826001600160a01b03168260405160006040518083038185875af1925050503d806000811461252e576040519150601f19603f3d011682016040523d82523d6000602084013e612533565b606091505b505090508061043d57604051630a12f52160e11b815260040160405180910390fd5b6040516001600160a01b0383811660248301526044820183905261043d91859182169063a9059cbb906064015b604051602081830303815290604052915060e01b6020820180516001600160e01b038381831617835250505050612679565b6040516001600160a01b0384811660248301528381166044830152606482018390526115b59186918216906323b872dd90608401612582565b604080516001600160a01b038416602482015260448082018490528251808303909101815260649091019091526020810180516001600160e01b031663095ea7b360e01b17905261263e84826126dc565b6115b5576040516001600160a01b0384811660248301526000604483015261267391869182169063095ea7b390606401612582565b6115b584825b600061268e6001600160a01b03841683612784565b905080516000141580156126b35750808060200190518101906126b19190612dec565b155b1561043d57604051635274afe760e01b81526001600160a01b0384166004820152602401610d87565b6000806000846001600160a01b0316846040516126f99190613500565b6000604051808303816000865af19150503d8060008114612736576040519150601f19603f3d011682016040523d82523d6000602084013e61273b565b606091505b50915091508180156127655750805115806127655750808060200190518101906127659190612dec565b801561277b57506000856001600160a01b03163b115b95945050505050565b6060610c438383600084600080856001600160a01b031684866040516127aa9190613500565b60006040518083038185875af1925050503d80600081146127e7576040519150601f19603f3d011682016040523d82523d6000602084013e6127ec565b606091505b509150915061189286838360608261280c5761280782612853565b610c43565b815115801561282357506001600160a01b0384163b155b1561284c57604051639996b31560e01b81526001600160a01b0385166004820152602401610d87565b5080610c43565b8051156128635780518082602001fd5b604051630a12f52160e11b815260040160405180910390fd5b60006020828403121561288e57600080fd5b81356001600160e01b031981168114610c4357600080fd5b6001600160a01b0381168114610d9957600080fd5b6000806000606084860312156128d057600080fd5b8335925060208401356128e2816128a6565b915060408401356128f2816128a6565b809150509250925092565b6000806040838503121561291057600080fd5b823591506020830135612922816128a6565b809150509250929050565b81516001600160a01b0316815260208083015160ff169082015260408083015163ffffffff1690820152606081016105c9565b60006020828403121561297257600080fd5b5035919050565b6020808252825182820181905260009190848201906040850190845b818110156129e1576129ce83855180516001600160a01b0316825260208082015160ff169083015260409081015163ffffffff16910152565b9284019260609290920191600101612995565b50909695505050505050565b600080600060408486031215612a0257600080fd5b83359250602084013567ffffffffffffffff80821115612a2157600080fd5b818601915086601f830112612a3557600080fd5b813581811115612a4457600080fd5b8760208260051b8501011115612a5957600080fd5b6020830194508093505050509250925092565b8015158114610d9957600080fd5b60008083601f840112612a8c57600080fd5b50813567ffffffffffffffff811115612aa457600080fd5b60208301915083602082850101111561084457600080fd5b60008060008060008060008060c0898b031215612ad857600080fd5b883597506020890135612aea816128a6565b9650604089013595506060890135612b0181612a6c565b9450608089013567ffffffffffffffff80821115612b1e57600080fd5b612b2a8c838d01612a7a565b909650945060a08b0135915080821115612b4357600080fd5b50612b508b828c01612a7a565b999c989b5096995094979396929594505050565b60008060008060808587031215612b7a57600080fd5b843593506020850135612b8c816128a6565b9250604085013563ffffffff81168114612ba557600080fd5b91506060850135612bb5816128a6565b939692955090935050565b600080600060608486031215612bd557600080fd5b505081359360208301359350604090920135919050565b600060208284031215612bfe57600080fd5b8135610c43816128a6565b60008060008060608587031215612c1f57600080fd5b8435935060208501359250604085013567ffffffffffffffff811115612c4457600080fd5b612c5087828801612a7a565b95989497509550505050565b600080600080600080600080600060e08a8c031215612c7a57600080fd5b8935985060208a0135612c8c816128a6565b975060408a0135965060608a0135612ca3816128a6565b955060808a0135945060a08a013567ffffffffffffffff80821115612cc757600080fd5b612cd38d838e01612a7a565b909650945060c08c0135915080821115612cec57600080fd5b50612cf98c828d01612a7a565b915080935050809150509295985092959850929598565b600060208284031215612d2257600080fd5b8151610c43816128a6565b600060208284031215612d3f57600080fd5b815160ff81168114610c4357600080fd5b634e487b7160e01b600052601160045260246000fd5b808201808211156105c9576105c9612d50565b634e487b7160e01b600052604160045260246000fd5b634e487b7160e01b600052603260045260246000fd5b600060018201612db757612db7612d50565b5060010190565b60008060408385031215612dd157600080fd5b8235612ddc816128a6565b9150602083013561292281612a6c565b600060208284031215612dfe57600080fd5b8151610c4381612a6c565b600080600060608486031215612e1e57600080fd5b835192506020840151612e30816128a6565b60408501519092506128f2816128a6565b81835281816020850137506000828201602090810191909152601f909101601f19169091010190565b8981526001600160a01b03898116602083015260408201899052871660608201526080810186905260e060a08201819052600090612eab9083018688612e41565b82810360c0840152612ebe818587612e41565b9c9b505050505050505050505050565b600060208284031215612ee057600080fd5b5051919050565b80820281158282048414176105c9576105c9612d50565b6001600160a01b03828116828216818102831692918115828504821417612f2757612f27612d50565b50505092915050565b634e487b7160e01b600052601260045260246000fd5b60006001600160a01b0383811680612f6057612f60612f30565b92169190910492915050565b6001600160a01b03818116838216019080821115612f8c57612f8c612d50565b5092915050565b6001600160a01b03828116828216039080821115612f8c57612f8c612d50565b60405160a0810167ffffffffffffffff81118282101715612fd657612fd6612d79565b60405290565b604051601f8201601f1916810167ffffffffffffffff8111828210171561300557613005612d79565b604052919050565b805165ffffffffffff8116811461302357600080fd5b919050565b60005b8381101561304357818101518382015260200161302b565b50506000910152565b6000602080838503121561305f57600080fd5b825167ffffffffffffffff8082111561307757600080fd5b9084019060a0828703121561308b57600080fd5b613093612fb3565b82518152838301516130a4816128a6565b818501526130b46040840161300d565b60408201526130c56060840161300d565b60608201526080830151828111156130dc57600080fd5b80840193505086601f8401126130f157600080fd5b82518281111561310357613103612d79565b613115601f8201601f19168601612fdc565b9250808352878582860101111561312b57600080fd5b61313a81868501878701613028565b50608081019190915295945050505050565b60008151808452613164816020860160208601613028565b601f01601f19169290920160200192915050565b6001600160a01b0386811682528515156020830152604082018590528316606082015260a0608082018190526000906119f59083018461314c565b600080604083850312156131c657600080fd5b505080516020909101519092909150565b6000600160ff1b82016131ec576131ec612d50565b5060000390565b6020808252825182820181905260009190848201906040850190845b818110156129e157835163ffffffff168352928401929184019160010161320f565b600067ffffffffffffffff82111561324b5761324b612d79565b5060051b60200190565b600082601f83011261326657600080fd5b8151602061327b61327683613231565b612fdc565b8083825260208201915060208460051b87010193508684111561329d57600080fd5b602086015b848110156132c25780516132b5816128a6565b83529183019183016132a2565b509695505050505050565b600080604083850312156132e057600080fd5b825167ffffffffffffffff808211156132f857600080fd5b818501915085601f83011261330c57600080fd5b8151602061331c61327683613231565b82815260059290921b8401810191818101908984111561333b57600080fd5b948201945b838610156133695785518060060b811461335a5760008081fd5b82529482019490820190613340565b9188015191965090935050508082111561338257600080fd5b5061338f85828601613255565b9150509250929050565b600682810b9082900b03667fffffffffffff198112667fffffffffffff821317156105c9576105c9612d50565b60008160060b8360060b806133dd576133dd612f30565b667fffffffffffff198214600019821416156133fb576133fb612d50565b90059392505050565b60008260060b8061341757613417612f30565b808360060b0791505092915050565b60008160020b627fffff19810361343f5761343f612d50565b6000190192915050565b6001600160c01b03828116828216818102831692918115828504821417612f2757612f27612d50565b60006001600160c01b0383811680612f6057612f60612f30565b600061010060018060a01b0380871684528551818151166020860152816020820151166040860152604081015165ffffffffffff80821660608801528060608401511660808801525050508060208701511660a085015250604085015160c08401528060e08401526118928184018561314c565b60008251613512818460208701613028565b919091019291505056fea2646970667358221220046538978b688e779aeda014390216e8bd2f236684d37b610398ac90726b731e64736f6c63430008170033",
			"deployedBytecode": "0x6080604052600436106101395760003560e01c80638da5cb5b116100ab578063cc6801271161006f578063cc680127146104a9578063e28b5411146104db578063f2fde38b146104f6578063f434c91414610516578063fa461e331461054a578063fef432571461056a57600080fd5b80638da5cb5b1461040457806398ea47fc146104225780639e6eec0514610442578063ad5c464814610455578063c361534c1461048957600080fd5b8063507f1465116100fd578063507f146514610306578063515a92931461033a5780636afdd85014610367578063715018a61461039b5780637c5e9c24146103b057806388bc2ef3146103d057600080fd5b806301ffc9a71461018e57806324e26dc5146101c3578063293c4999146101e35780633a01714f1461022f57806340873cb5146102c257600080fd5b3661018957336001600160a01b037f0000000000000000000000007b79995e5f793a07bc00c21412e50ecae098e7f9161461018757604051635e7e9adf60e11b815260040160405180910390fd5b005b600080fd5b34801561019a57600080fd5b506101ae6101a936600461287c565b61057d565b60405190151581526020015b60405180910390f35b3480156101cf57600080fd5b506101876101de3660046128bb565b6105cf565b3480156101ef57600080fd5b506102177f00000000000000000000000045452b26fe78d2b83247279f87c847f4f4a8fceb81565b6040516001600160a01b0390911681526020016101ba565b34801561023b57600080fd5b506102b561024a3660046128fd565b604080516060808201835260008083526020808401829052928401819052948552600382528285206001600160a01b03948516865282529382902082519485018352549283168452600160a01b830460ff1690840152600160a81b90910463ffffffff169082015290565b6040516101ba919061292d565b3480156102ce57600080fd5b506102e26102dd3660046128fd565b6107d5565b6040805163ffffffff90931683526001600160a01b039091166020830152016101ba565b34801561031257600080fd5b506102177f000000000000000000000000000000000000000000000000000000000000000081565b34801561034657600080fd5b5061035a610355366004612960565b61084b565b6040516101ba9190612979565b34801561037357600080fd5b506102177f000000000000000000000000000000000022d473030f116ddee9f6b43ac78ba381565b3480156103a757600080fd5b50610187610bca565b3480156103bc57600080fd5b506102176103cb3660046128fd565b610bde565b3480156103dc57600080fd5b506102177f0000000000000000000000006a6988e79a621fc7ea74d67a31e9cefccc98e94981565b34801561041057600080fd5b506000546001600160a01b0316610217565b34801561042e57600080fd5b5061018761043d3660046129ed565b505050565b610187610450366004612abc565b610c4a565b34801561046157600080fd5b506102177f0000000000000000000000007b79995e5f793a07bc00c21412e50ecae098e7f981565b34801561049557600080fd5b506101876104a4366004612b64565b610c63565b3480156104b557600080fd5b506104cd6104c4366004612bc0565b60009392505050565b6040519081526020016101ba565b3480156104e757600080fd5b506104cd6104c43660046128bb565b34801561050257600080fd5b50610187610511366004612bec565b610d59565b34801561052257600080fd5b506102177f000000000000000000000000a1ba58fca530d0b011646167c9eb81f54d9c9df681565b34801561055657600080fd5b50610187610565366004612c09565b610d9c565b6104cd610578366004612c5c565b610eb8565b60006001600160e01b03198216632f720bd160e21b14806105ae57506001600160e01b031982166306afdd8560e41b145b806105c957506001600160e01b031982166301ffc9a760e01b145b92915050565b821580156105e757506000546001600160a01b031633145b610680576040516331a9108f60e11b815260048101849052610680907f00000000000000000000000045452b26fe78d2b83247279f87c847f4f4a8fceb6001600160a01b031690636352211e90602401602060405180830381865afa158015610654573d6000803e3d6000fd5b505050506040513d601f19601f820116820180604052508101906106789190612d10565b84601b611437565b60008381526002602090815260408083206001600160a01b038681168086529184529382902080546001600160a01b031916948616949094179093558051606081018252838152815163313ce56760e01b81529151909384840193909263313ce56792600480830193928290030181865afa158015610703573d6000803e3d6000fd5b505050506040513d601f19601f820116820180604052508101906107279190612d2d565b60ff908116825263ffffffff80861660209384015260008781526003845260408082206001600160a01b03988916808452908652818320875181548989015199850151909616600160a81b0263ffffffff60a81b1999909716600160a01b026001600160a81b03199096169a1699909917939093179590951692909217909555948552600481529084208054600181018255908552932090920180546001600160a01b031916909117905550565b60008281526001602090815260408083206001600160a01b0385168452909152812054819080820361083b57506001600160a01b03831660009081527fa6eef7e35abe7026729641147f7915573c7e97b47efa546f5f6e3230263bcb4960205260409020545b915050602081901c5b9250929050565b60008181526004602090815260408083208054825181850281018501909352808352606094938301828280156108aa57602002820191906000526020600020905b81546001600160a01b0316815260019091019060200180831161088c575b50506000808052600460209081527f17ef568e3e12ab5b9c7254a8d58478811de00f9e6eb34345acd53bf8fd09d3ec8054604080518285028101850190915281815297985092969550935090915083018282801561093157602002820191906000526020600020905b81546001600160a01b03168152600190910190602001808311610913575b505050505090506000815183516109489190612d66565b67ffffffffffffffff81111561096057610960612d79565b6040519080825280602002602001820160405280156109ab57816020015b604080516060810182526000808252602080830182905292820152825260001990920191018161097e5790505b50835190915060005b8451811015610a65576003600088815260200190815260200160002060008683815181106109e4576109e4612d8f565b6020908102919091018101516001600160a01b039081168352828201939093526040918201600020825160608101845290549384168152600160a01b840460ff1691810191909152600160a81b90920463ffffffff16908201528351849083908110610a5257610a52612d8f565b60209081029190910101526001016109b4565b5060005b8351811015610bb3576000805b8651811015610adb57858381518110610a9157610a91612d8f565b60200260200101516001600160a01b0316878281518110610ab457610ab4612d8f565b60200260200101516001600160a01b031603610ad35760019150610adb565b600101610a76565b5080610baa576000808052600360205285517f3617319a054d772f909f7c479a2cebe5066e836a939412e32403c99029b92eff9190879085908110610b2257610b22612d8f565b6020908102919091018101516001600160a01b039081168352828201939093526040918201600020825160608101845290549384168152600160a01b840460ff1691810191909152600160a81b90920463ffffffff16908201528451859085908110610b9057610b90612d8f565b60200260200101819052508280610ba690612da5565b9350505b50600101610a69565b508151811015610bc1578082525b50949350505050565b610bd26115bb565b610bdc60006115e8565b565b60008281526002602090815260408083206001600160a01b03808616855292528220541680610c4357506001600160a01b0380831660009081527fac33ff75c19e70fe83507db0d683fd3465c996598dc972688b7ace676c89077b6020526040902054165b9392505050565b604051630d831b5560e11b815260040160405180910390fd5b83158015610c7b57506000546001600160a01b031633145b610d14576040516331a9108f60e11b815260048101859052610d14907f00000000000000000000000045452b26fe78d2b83247279f87c847f4f4a8fceb6001600160a01b031690636352211e90602401602060405180830381865afa158015610ce8573d6000803e3d6000fd5b505050506040513d601f19601f82011682018060405250810190610d0c9190612d10565b85601c611437565b60009384526001602090815260408086206001600160a01b03959095168652938152929093209290911b640100000000600160c01b031663ffffffff91909116179055565b610d616115bb565b6001600160a01b038116610d9057604051631e4fbdf760e01b8152600060048201526024015b60405180910390fd5b610d99816115e8565b50565b600080610dab83850185612dbe565b915091506000808712610dbe5786610dc0565b855b90508115610e3d577f0000000000000000000000007b79995e5f793a07bc00c21412e50ecae098e7f96001600160a01b031663d0e30db0826040518263ffffffff1660e01b81526004016000604051808303818588803b158015610e2357600080fd5b505af1158015610e37573d6000803e3d6000fd5b50505050505b60405163a9059cbb60e01b8152336004820152602481018290526001600160a01b0384169063a9059cbb906044016020604051808303816000875af1158015610e8a573d6000803e3d6000fd5b505050506040513d601f19601f82011682018060405250810190610eae9190612dec565b5050505050505050565b6040805161010081018252600060208201819052918101829052606081018290526080810182905260a0810182905260c0810182905260e081018290528a81526001600160a01b038a1661eeed1901610f4c576001600160a01b037f0000000000000000000000007b79995e5f793a07bc00c21412e50ecae098e7f9166040820152600160608201523460c0820152610f63565b6001600160a01b038a16604082015260c081018990525b600080610fad630535741560e41b87878080601f01602080910402602001604051908101604052809392919081815260200183838082843760009201919091525061163892505050565b91509150811561104457600081806020019051810190610fcd9190612e09565b6001600160a01b03918216602088015260e0870192909252909150811661eeed190161102e576001600160a01b037f0000000000000000000000007b79995e5f793a07bc00c21412e50ecae098e7f9166080850152600160a085015261103e565b6001600160a01b03811660808501525b50611228565b6000600260008f815260200190815260200160002060008e6001600160a01b03166001600160a01b0316815260200190815260200160002060009054906101000a90046001600160a01b0316905060006001600160a01b0316816001600160a01b03160361110557506001600160a01b03808d1660009081527fac33ff75c19e70fe83507db0d683fd3465c996598dc972688b7ace676c89077b6020526040902054168061110557604051632a12044160e21b815260040160405180910390fd5b6001600160a01b038116602080860182905260408051630dfe168160e01b8152905160009384939092630dfe168192600480830193928290030181865afa158015611154573d6000803e3d6000fd5b505050506040513d601f19601f820116820180604052508101906111789190612d10565b836001600160a01b031663d21220a76040518163ffffffff1660e01b8152600401602060405180830381865afa1580156111b6573d6000803e3d6000fd5b505050506040513d601f19601f820116820180604052508101906111da9190612d10565b915091508e6001600160a01b0316826001600160a01b0316146111fd57816111ff565b805b6001600160a01b03166080870152611216866117dd565b6001600160a01b031660e08701525050505b505060007f0000000000000000000000006a6988e79a621fc7ea74d67a31e9cefccc98e9496001600160a01b031663862026508d8460a0015161126f578460800151611273565b61eeee5b6040516001600160e01b031960e085901b16815260048101929092526001600160a01b03166024820152604401602060405180830381865afa1580156112bd573d6000803e3d6000fd5b505050506040513d601f19601f820116820180604052508101906112e19190612d10565b90506001600160a01b03811661130a57604051630faa917b60e11b815260040160405180910390fd5b61131582868661189c565b60c08301526060820151600090801561132f57508260a001515b80611353575082608001516001600160a01b031683604001516001600160a01b0316145b15611363575060c082015161136f565b61136c83611a00565b90505b61137e82846080015183611bf4565b816001600160a01b031663fef432578460a0015161139d57600061139f565b825b855160a08701516113b45786608001516113b8565b61eeee5b858f8f8f8f8f8f6040518b63ffffffff1660e01b81526004016113e399989796959493929190612e6a565b60206040518083038185885af1158015611401573d6000803e3d6000fd5b50505050506040513d601f19601f820116820180604052508101906114269190612ece565b509c9b505050505050505050505050565b336001600160a01b03841681148015906114ee575060405163c161c93f60e01b81526001600160a01b038281166004830152858116602483015260448201859052606482018490527f000000000000000000000000a1ba58fca530d0b011646167c9eb81f54d9c9df6169063c161c93f90608401602060405180830381865afa1580156114c8573d6000803e3d6000fd5b505050506040513d601f19601f820116820180604052508101906114ec9190612dec565b155b8015611597575060405163c161c93f60e01b81526001600160a01b038281166004830152858116602483015260006044830152606482018490527f000000000000000000000000a1ba58fca530d0b011646167c9eb81f54d9c9df6169063c161c93f90608401602060405180830381865afa158015611571573d6000803e3d6000fd5b505050506040513d601f19601f820116820180604052508101906115959190612dec565b155b156115b55760405163075fd2b160e01b815260040160405180910390fd5b50505050565b6000546001600160a01b03163314610bdc5760405163118cdaa760e01b8152336004820152602401610d87565b600080546001600160a01b038381166001600160a01b0319831681178455604051919092169283917f8be0079c531659141344cd1fd0a4f28419497f9722a3daafe3b4186f6b6457e09190a35050565b60006060602583511161165d5750506040805160208101909152600080825290610844565b60008361166c60046020612d66565b8151811061167c5761167c612d8f565b0160209081015160f81c91505b600085611697600484612d66565b815181106116a7576116a7612d8f565b01602001516001600160f81b031916148015906116cd57506116ca602083612ee7565b81105b156117d4576000856116e0600484612d66565b815181106116f0576116f0612d8f565b016020908101518784019091015160f89190911c91506001600160e01b0319808916908216036117ca576000611727602086612ee7565b611732600986612d66565b101580611767575087611746600986612d66565b8151811061175657611756612d8f565b01602001516001600160f81b031916155b6117a057602088611779600987612d66565b8151811061178957611789612d8f565b016020015161179b919060f81c612ee7565b6117a3565b87515b905060016117bc896117b6602087612ee7565b84611c20565b965096505050505050610844565b5050600501611689565b50509250929050565b60008060006117f4846000015185602001516107d5565b915091506000611808856020015184611c66565b509050600061181682611eb0565b905085608001516001600160a01b031686604001516001600160a01b031610611868576005546001600160a01b031661184f8483612efe565b6118599190612f46565b6118639082612f6c565b611892565b6005546001600160a01b031661187e8483612efe565b6118889190612f46565b6118929082612f93565b9695505050505050565b6040830151606084015160009190156118b85734915050610c43565b34156118d757604051635e7e9adf60e11b815260040160405180910390fd5b60008061191d3060e01b87878080601f01602080910402602001604051908101604052809392919081815260200183838082843760009201919091525061163892505050565b91509150811561197d5760008180602001905181019061193d919061304c565b90508760c0015181602001516001600160a01b03161015611971576040516317e415a160e11b815260040160405180910390fd5b61197b81856121d3565b505b61198d3330858a60c001516122d2565b6040516370a0823160e01b81523060048201526001600160a01b038416906370a0823190602401602060405180830381865afa1580156119d1573d6000803e3d6000fd5b505050506040513d601f19601f820116820180604052508101906119f59190612ece565b979650505050505050565b600080826040015190506000836080015190506000816001600160a01b0316836001600160a01b031610905060008086602001516001600160a01b031663128acb0830858a60c0015187611a7257611a6d600173fffd8963efd1fc6a506488495d951d5263988d26612f93565b611a82565b611a826401000276a36001612f6c565b60608d810151604080516001600160a01b038f16602082015291151590820152016040516020818303038152906040526040518663ffffffff1660e01b8152600401611ad2959493929190613178565b60408051808303816000875af1158015611af0573d6000803e3d6000fd5b505050506040513d601f19601f82011682018060405250810190611b1491906131b3565b9150915082611b235781611b25565b805b611b2e906131d7565b95508660e00151861015611b655760e0870151604051630bb50c5d60e41b8152610d87918891600401918252602082015260400190565b8660a0015115611bea57604051632e1a7d4d60e01b8152600481018790527f0000000000000000000000007b79995e5f793a07bc00c21412e50ecae098e7f96001600160a01b031690632e1a7d4d90602401600060405180830381600087803b158015611bd157600080fd5b505af1158015611be5573d6000803e3d6000fd5b505050505b5050505050919050565b61eeed196001600160a01b03831601611c0c57505050565b61043d6001600160a01b0383168483612434565b60608282036040519150602081830101604052808252508260208501016020820160005b84811015611c5c578281015182820152602001611c44565b5050509392505050565b6000808263ffffffff16600003611ca45760405162461bcd60e51b8152602060048201526002602482015261042560f41b6044820152606401610d87565b6040805160028082526060820183526000926020830190803683370190505090508381600081518110611cd957611cd9612d8f565b602002602001019063ffffffff16908163ffffffff1681525050600081600181518110611d0857611d08612d8f565b602002602001019063ffffffff16908163ffffffff1681525050600080866001600160a01b031663883bdbfd846040518263ffffffff1660e01b8152600401611d5191906131f3565b600060405180830381865afa158015611d6e573d6000803e3d6000fd5b505050506040513d6000823e601f3d908101601f19168201604052611d9691908101906132cd565b91509150600082600081518110611daf57611daf612d8f565b602002602001015183600181518110611dca57611dca612d8f565b6020026020010151611ddc9190613399565b9050600082600081518110611df357611df3612d8f565b602002602001015183600181518110611e0e57611e0e612d8f565b6020026020010151611e209190612f93565b9050611e3263ffffffff8916836133c6565b965060008260060b128015611e585750611e5263ffffffff891683613404565b60060b15155b15611e6b5786611e6781613426565b9750505b6000611e846001600160a01b0363ffffffff8b16613449565b9050611ea1640100000000600160c01b03602084901b1682613472565b96505050505050509250929050565b60008060008360020b12611ec7578260020b611ecf565b8260020b6000035b9050620d89e8811115611ef5576040516315e4079d60e11b815260040160405180910390fd5b600081600116600003611f0c57600160801b611f1e565b6ffffcb933bd6fad37aa2d162d1a5940015b70ffffffffffffffffffffffffffffffffff1690506002821615611f52576ffff97272373d413259a46990580e213a0260801c5b6004821615611f71576ffff2e50f5f656932ef12357cf3c7fdcc0260801c5b6008821615611f90576fffe5caca7e10e4e61c3624eaa0941cd00260801c5b6010821615611faf576fffcb9843d60f6159c9db58835c9266440260801c5b6020821615611fce576fff973b41fa98c081472e6896dfb254c00260801c5b6040821615611fed576fff2ea16466c96a3843ec78b326b528610260801c5b608082161561200c576ffe5dee046a99a2a811c461f1969c30530260801c5b61010082161561202c576ffcbe86c7900a88aedcffc83b479aa3a40260801c5b61020082161561204c576ff987a7253ac413176f2b074cf7815e540260801c5b61040082161561206c576ff3392b0822b70005940c7a398e4b70f30260801c5b61080082161561208c576fe7159475a2c29b7443b29c7fa6e889d90260801c5b6110008216156120ac576fd097f3bdfd2022b8845ad8f792aa58250260801c5b6120008216156120cc576fa9f746462d870fdf8a65dc1f90e061e50260801c5b6140008216156120ec576f70d869a156d2a1b890bb3df62baf32f70260801c5b61800082161561210c576f31be135f97d08fd981231505542fcfa60260801c5b6201000082161561212d576f09aa508b5b7a84e1c677de54f3e99bc90260801c5b6202000082161561214d576e5d6af8dedb81196699c329225ee6040260801c5b6204000082161561216c576d2216e584f5fa1ea926041bedfe980260801c5b62080000821615612189576b048a170391f7dc42444e8fa20260801c5b60008460020b13156121aa5780600019816121a6576121a6612f30565b0490505b6401000000008106156121be5760016121c1565b60005b60ff16602082901c0192505050919050565b7f000000000000000000000000000000000022d473030f116ddee9f6b43ac78ba36001600160a01b0316632b67b5703360405180606001604052806040518060800160405280876001600160a01b0316815260200188602001516001600160a01b03168152602001886040015165ffffffffffff168152602001886060015165ffffffffffff168152508152602001306001600160a01b03168152602001866000015181525085608001516040518463ffffffff1660e01b815260040161229c9392919061348c565b600060405180830381600087803b1580156122b657600080fd5b505af11580156122ca573d6000803e3d6000fd5b505050505050565b61eeed196001600160a01b038316016122f4576122ef83826124be565b6115b5565b306001600160a01b03851603612318576122ef6001600160a01b0383168483612555565b604051636eb1769f60e11b81526001600160a01b03858116600483015230602483015282919084169063dd62ed3e90604401602060405180830381865afa158015612367573d6000803e3d6000fd5b505050506040513d601f19601f8201168201806040525081019061238b9190612ece565b106123a5576122ef6001600160a01b0383168585846125b4565b604051631b63c28b60e11b81526001600160a01b0385811660048301528481166024830152828116604483015283811660648301527f000000000000000000000000000000000022d473030f116ddee9f6b43ac78ba316906336c7851690608401600060405180830381600087803b15801561242057600080fd5b505af1158015610eae573d6000803e3d6000fd5b604051636eb1769f60e11b81523060048201526001600160a01b0383811660248301526000919085169063dd62ed3e90604401602060405180830381865afa158015612484573d6000803e3d6000fd5b505050506040513d601f19601f820116820180604052508101906124a89190612ece565b90506115b584846124b98585612d66565b6125ed565b804710156124e15760405163cd78605960e01b8152306004820152602401610d87565b6000826001600160a01b03168260405160006040518083038185875af1925050503d806000811461252e576040519150601f19603f3d011682016040523d82523d6000602084013e612533565b606091505b505090508061043d57604051630a12f52160e11b815260040160405180910390fd5b6040516001600160a01b0383811660248301526044820183905261043d91859182169063a9059cbb906064015b604051602081830303815290604052915060e01b6020820180516001600160e01b038381831617835250505050612679565b6040516001600160a01b0384811660248301528381166044830152606482018390526115b59186918216906323b872dd90608401612582565b604080516001600160a01b038416602482015260448082018490528251808303909101815260649091019091526020810180516001600160e01b031663095ea7b360e01b17905261263e84826126dc565b6115b5576040516001600160a01b0384811660248301526000604483015261267391869182169063095ea7b390606401612582565b6115b584825b600061268e6001600160a01b03841683612784565b905080516000141580156126b35750808060200190518101906126b19190612dec565b155b1561043d57604051635274afe760e01b81526001600160a01b0384166004820152602401610d87565b6000806000846001600160a01b0316846040516126f99190613500565b6000604051808303816000865af19150503d8060008114612736576040519150601f19603f3d011682016040523d82523d6000602084013e61273b565b606091505b50915091508180156127655750805115806127655750808060200190518101906127659190612dec565b801561277b57506000856001600160a01b03163b115b95945050505050565b6060610c438383600084600080856001600160a01b031684866040516127aa9190613500565b60006040518083038185875af1925050503d80600081146127e7576040519150601f19603f3d011682016040523d82523d6000602084013e6127ec565b606091505b509150915061189286838360608261280c5761280782612853565b610c43565b815115801561282357506001600160a01b0384163b155b1561284c57604051639996b31560e01b81526001600160a01b0385166004820152602401610d87565b5080610c43565b8051156128635780518082602001fd5b604051630a12f52160e11b815260040160405180910390fd5b60006020828403121561288e57600080fd5b81356001600160e01b031981168114610c4357600080fd5b6001600160a01b0381168114610d9957600080fd5b6000806000606084860312156128d057600080fd5b8335925060208401356128e2816128a6565b915060408401356128f2816128a6565b809150509250925092565b6000806040838503121561291057600080fd5b823591506020830135612922816128a6565b809150509250929050565b81516001600160a01b0316815260208083015160ff169082015260408083015163ffffffff1690820152606081016105c9565b60006020828403121561297257600080fd5b5035919050565b6020808252825182820181905260009190848201906040850190845b818110156129e1576129ce83855180516001600160a01b0316825260208082015160ff169083015260409081015163ffffffff16910152565b9284019260609290920191600101612995565b50909695505050505050565b600080600060408486031215612a0257600080fd5b83359250602084013567ffffffffffffffff80821115612a2157600080fd5b818601915086601f830112612a3557600080fd5b813581811115612a4457600080fd5b8760208260051b8501011115612a5957600080fd5b6020830194508093505050509250925092565b8015158114610d9957600080fd5b60008083601f840112612a8c57600080fd5b50813567ffffffffffffffff811115612aa457600080fd5b60208301915083602082850101111561084457600080fd5b60008060008060008060008060c0898b031215612ad857600080fd5b883597506020890135612aea816128a6565b9650604089013595506060890135612b0181612a6c565b9450608089013567ffffffffffffffff80821115612b1e57600080fd5b612b2a8c838d01612a7a565b909650945060a08b0135915080821115612b4357600080fd5b50612b508b828c01612a7a565b999c989b5096995094979396929594505050565b60008060008060808587031215612b7a57600080fd5b843593506020850135612b8c816128a6565b9250604085013563ffffffff81168114612ba557600080fd5b91506060850135612bb5816128a6565b939692955090935050565b600080600060608486031215612bd557600080fd5b505081359360208301359350604090920135919050565b600060208284031215612bfe57600080fd5b8135610c43816128a6565b60008060008060608587031215612c1f57600080fd5b8435935060208501359250604085013567ffffffffffffffff811115612c4457600080fd5b612c5087828801612a7a565b95989497509550505050565b600080600080600080600080600060e08a8c031215612c7a57600080fd5b8935985060208a0135612c8c816128a6565b975060408a0135965060608a0135612ca3816128a6565b955060808a0135945060a08a013567ffffffffffffffff80821115612cc757600080fd5b612cd38d838e01612a7a565b909650945060c08c0135915080821115612cec57600080fd5b50612cf98c828d01612a7a565b915080935050809150509295985092959850929598565b600060208284031215612d2257600080fd5b8151610c43816128a6565b600060208284031215612d3f57600080fd5b815160ff81168114610c4357600080fd5b634e487b7160e01b600052601160045260246000fd5b808201808211156105c9576105c9612d50565b634e487b7160e01b600052604160045260246000fd5b634e487b7160e01b600052603260045260246000fd5b600060018201612db757612db7612d50565b5060010190565b60008060408385031215612dd157600080fd5b8235612ddc816128a6565b9150602083013561292281612a6c565b600060208284031215612dfe57600080fd5b8151610c4381612a6c565b600080600060608486031215612e1e57600080fd5b835192506020840151612e30816128a6565b60408501519092506128f2816128a6565b81835281816020850137506000828201602090810191909152601f909101601f19169091010190565b8981526001600160a01b03898116602083015260408201899052871660608201526080810186905260e060a08201819052600090612eab9083018688612e41565b82810360c0840152612ebe818587612e41565b9c9b505050505050505050505050565b600060208284031215612ee057600080fd5b5051919050565b80820281158282048414176105c9576105c9612d50565b6001600160a01b03828116828216818102831692918115828504821417612f2757612f27612d50565b50505092915050565b634e487b7160e01b600052601260045260246000fd5b60006001600160a01b0383811680612f6057612f60612f30565b92169190910492915050565b6001600160a01b03818116838216019080821115612f8c57612f8c612d50565b5092915050565b6001600160a01b03828116828216039080821115612f8c57612f8c612d50565b60405160a0810167ffffffffffffffff81118282101715612fd657612fd6612d79565b60405290565b604051601f8201601f1916810167ffffffffffffffff8111828210171561300557613005612d79565b604052919050565b805165ffffffffffff8116811461302357600080fd5b919050565b60005b8381101561304357818101518382015260200161302b565b50506000910152565b6000602080838503121561305f57600080fd5b825167ffffffffffffffff8082111561307757600080fd5b9084019060a0828703121561308b57600080fd5b613093612fb3565b82518152838301516130a4816128a6565b818501526130b46040840161300d565b60408201526130c56060840161300d565b60608201526080830151828111156130dc57600080fd5b80840193505086601f8401126130f157600080fd5b82518281111561310357613103612d79565b613115601f8201601f19168601612fdc565b9250808352878582860101111561312b57600080fd5b61313a81868501878701613028565b50608081019190915295945050505050565b60008151808452613164816020860160208601613028565b601f01601f19169290920160200192915050565b6001600160a01b0386811682528515156020830152604082018590528316606082015260a0608082018190526000906119f59083018461314c565b600080604083850312156131c657600080fd5b505080516020909101519092909150565b6000600160ff1b82016131ec576131ec612d50565b5060000390565b6020808252825182820181905260009190848201906040850190845b818110156129e157835163ffffffff168352928401929184019160010161320f565b600067ffffffffffffffff82111561324b5761324b612d79565b5060051b60200190565b600082601f83011261326657600080fd5b8151602061327b61327683613231565b612fdc565b8083825260208201915060208460051b87010193508684111561329d57600080fd5b602086015b848110156132c25780516132b5816128a6565b83529183019183016132a2565b509695505050505050565b600080604083850312156132e057600080fd5b825167ffffffffffffffff808211156132f857600080fd5b818501915085601f83011261330c57600080fd5b8151602061331c61327683613231565b82815260059290921b8401810191818101908984111561333b57600080fd5b948201945b838610156133695785518060060b811461335a5760008081fd5b82529482019490820190613340565b9188015191965090935050508082111561338257600080fd5b5061338f85828601613255565b9150509250929050565b600682810b9082900b03667fffffffffffff198112667fffffffffffff821317156105c9576105c9612d50565b60008160060b8360060b806133dd576133dd612f30565b667fffffffffffff198214600019821416156133fb576133fb612d50565b90059392505050565b60008260060b8061341757613417612f30565b808360060b0791505092915050565b60008160020b627fffff19810361343f5761343f612d50565b6000190192915050565b6001600160c01b03828116828216818102831692918115828504821417612f2757612f27612d50565b60006001600160c01b0383811680612f6057612f60612f30565b600061010060018060a01b0380871684528551818151166020860152816020820151166040860152604081015165ffffffffffff80821660608801528060608401511660808801525050508060208701511660a085015250604085015160c08401528060e08401526118928184018561314c565b60008251613512818460208701613028565b919091019291505056fea2646970667358221220046538978b688e779aeda014390216e8bd2f236684d37b610398ac90726b731e64736f6c63430008170033",
			"devdoc": {
				"kind": "dev",
				"methods": {
					"accountingContextForTokenOf(uint256,address)": {
						"details": "Accounting contexts are set up in `addDefaultPool(...)`.",
						"params": {
							"projectId": "The ID of the project to get the accounting context for.",
							"token": "The address of the token to get the accounting context for."
						},
						"returns": {
							"_0": "A `JBAccountingContext` containing the accounting context for the project ID and token."
						}
					},
					"accountingContextsOf(uint256)": {
						"details": "This includes both project-specific and generic accounting contexts, with the project-specific contexts         taking precedence.",
						"params": {
							"projectId": "The ID of the project to get the accounting contexts for."
						},
						"returns": {
							"_0": "An array of `JBAccountingContext` containing the accounting contexts for the project ID."
						}
					},
					"addDefaultPool(uint256,address,address)": {
						"params": {
							"pool": "The Uniswap V3 pool to set as the default for the specified token.",
							"projectId": "The ID of the project to set the default pool for. The project 0 acts as a catch-all, where non-set pools are defaulted to.",
							"token": "The address of the token to set the default pool for."
						}
					},
					"addTwapParamsFor(uint256,address,uint32,uint160)": {
						"params": {
							"projectId": "The ID of the project to set the TWAP-based quote rules for.",
							"secondsAgo": "The period of time over which the TWAP is calculated, in seconds.",
							"slippageTolerance": "The maximum spread allowed between the amount received and the TWAP (as a fraction out of `SLIPPAGE_DENOMINATOR`)."
						}
					},
					"getPoolFor(uint256,address)": {
						"params": {
							"projectId": "The ID of the project to retrieve the default pool for.",
							"tokenIn": "The address of the token to retrieve the default pool for."
						},
						"returns": {
							"_0": "pool The default pool for the token, or the overall default pool for the token if the"
						}
					},
					"owner()": {
						"details": "Returns the address of the current owner."
					},
					"pay(uint256,address,uint256,address,uint256,string,bytes)": {
						"params": {
							"amount": "The amount of tokens being paid in, as a fixed point number with the same amount of decimals as the `token`. If `token` is the native token, `amount` is ignored and `msg.value` is used in its place.",
							"beneficiary": "The beneficiary address to pass along to the other terminal. If the other terminal mints tokens, for example, they will be minted for this address.",
							"memo": "A memo to pass along to the emitted event.",
							"metadata": "Bytes in `JBMetadataResolver`'s format which can contain a quote from the user/client. The quote should contain a minimum amount of tokens to receive from the swap and the pool to use. This metadata is also passed to the other terminal's emitted event, as well as its data hook and pay hook if applicable.",
							"minReturnedTokens": "The minimum number of project tokens expected in return, as a fixed point number with the same number of decimals as the other terminal. This value will be passed along to the other terminal.",
							"projectId": "The ID of the project being paid.",
							"token": "The address of the token being paid in."
						},
						"returns": {
							"_0": "The number of tokens received from the swap, as a fixed point number with the same amount of decimals as that token."
						}
					},
					"renounceOwnership()": {
						"details": "Leaves the contract without owner. It will not be possible to call `onlyOwner` functions. Can only be called by the current owner. NOTE: Renouncing ownership will leave the contract without an owner, thereby disabling any functionality that is only available to the owner."
					},
					"supportsInterface(bytes4)": {
						"details": "See {IERC165-supportsInterface}.",
						"params": {
							"interfaceId": "The ID of the interface to check for adherance to."
						},
						"returns": {
							"_0": "A flag indicating if the provided interface ID is supported."
						}
					},
					"transferOwnership(address)": {
						"details": "Transfers ownership of the contract to a new account (`newOwner`). Can only be called by the current owner."
					},
					"twapParamsOf(uint256,address)": {
						"params": {
							"projectId": "The ID of the project to retrieve TWAP parameters for."
						},
						"returns": {
							"secondsAgo": "The period of time in the past to calculate the TWAP from.",
							"slippageTolerance": "The maximum allowed slippage tolerance when calculating the TWAP, as a fraction out of `SLIPPAGE_DENOMINATOR`."
						}
					},
					"uniswapV3SwapCallback(int256,int256,bytes)": {
						"params": {
							"amount0Delta": "The amount of token 0 being used for the swap.",
							"amount1Delta": "The amount of token 1 being used for the swap.",
							"data": "Data passed in by the swap operation."
						}
					}
				},
				"version": 1
			},
			"userdoc": {
				"kind": "user",
				"methods": {
					"DIRECTORY()": {
						"notice": "The directory of terminals and controllers for `PROJECTS`."
					},
					"PERMISSIONS()": {
						"notice": "A contract storing permissions."
					},
					"PERMIT2()": {
						"notice": "The permit2 utility."
					},
					"PROJECTS()": {
						"notice": "Mints ERC-721s that represent project ownership and transfers."
					},
					"STORE()": {
						"notice": "The contract that stores and manages this terminal's data."
					},
					"WETH()": {
						"notice": "The ERC-20 wrapper for the native token."
					},
					"accountingContextForTokenOf(uint256,address)": {
						"notice": "Get the accounting context for the specified project ID and token."
					},
					"accountingContextsOf(uint256)": {
						"notice": "Return all the accounting contexts for a specified project ID."
					},
					"addAccountingContextsFor(uint256,address[])": {
						"notice": "Empty implementation to satisfy the interface. Accounting contexts are set in `addDefaultPool(...)`."
					},
					"addDefaultPool(uint256,address,address)": {
						"notice": "Set a project's default pool and accounting context for the specified token. Only the project's owner, an address with `MODIFY_DEFAULT_POOL` permission from the owner or the terminal owner can call this function."
					},
					"addToBalanceOf(uint256,address,uint256,bool,string,bytes)": {
						"notice": "This terminal does not support adding to balances."
					},
					"addTwapParamsFor(uint256,address,uint32,uint160)": {
						"notice": "Set the specified project's rules for calculating a quote based on the TWAP. Only the project's owner or an address with `MODIFY_TWAP_PARAMS` permission from the owner  or the terminal owner can call this function."
					},
					"currentSurplusOf(uint256,uint256,uint256)": {
						"notice": "Empty implementation to satisfy the interface. This terminal has no surplus."
					},
					"getPoolFor(uint256,address)": {
						"notice": "Returns the default pool for a given project and token or, if a project has no default pool for the         token, the overal default pool for the token"
					},
					"migrateBalanceOf(uint256,address,address)": {
						"notice": "Empty implementation to satisfy the interface."
					},
					"pay(uint256,address,uint256,address,uint256,string,bytes)": {
						"notice": "Pay a project by swapping the incoming tokens for tokens that one of the project's other terminals accepts, passing along the funds received from the swap and the specified parameters."
					},
					"supportsInterface(bytes4)": {
						"notice": "Indicates if this contract adheres to the specified interface."
					},
					"twapParamsOf(uint256,address)": {
						"notice": "Returns the default twap parameters for a given pool project."
					},
					"uniswapV3SwapCallback(int256,int256,bytes)": {
						"notice": "The Uniswap v3 pool callback where the token transfer is expected to happen."
					}
				},
				"version": 1
			},
			"gitCommit": "2c9386d1500d8876809a390c1266db4abd67e258",
			"sourceName": "src/JBSwapTerminal.sol",
			"chainId": "11155111",
			"linkReferences": {},
			"deployedLinkReferences": {}
		},
		{
			"_format": "sphinx-sol-ct-artifact-1",
			"merkleRoot": "0xe59ae7a6df450f181d840076a61c0c4c548c552359d272fed57295fb532d716c",
			"contractName": "JBSwapTerminal",
			"address": "0x042e4Eef809058EE0a16699f35CC73508Ae5e9f4",
			"abi": [
				{
					"type": "constructor",
					"inputs": [
						{
							"name": "projects",
							"type": "address",
							"internalType": "contract IJBProjects"
						},
						{
							"name": "permissions",
							"type": "address",
							"internalType": "contract IJBPermissions"
						},
						{
							"name": "directory",
							"type": "address",
							"internalType": "contract IJBDirectory"
						},
						{
							"name": "permit2",
							"type": "address",
							"internalType": "contract IPermit2"
						},
						{
							"name": "_owner",
							"type": "address",
							"internalType": "address"
						},
						{
							"name": "weth",
							"type": "address",
							"internalType": "contract IWETH9"
						},
						{
							"name": "_tokenOut",
							"type": "address",
							"internalType": "address"
						}
					],
					"stateMutability": "nonpayable"
				},
				{
					"type": "receive",
					"stateMutability": "payable"
				},
				{
					"type": "function",
					"name": "DEFAULT_PROJECT_ID",
					"inputs": [],
					"outputs": [
						{
							"name": "",
							"type": "uint256",
							"internalType": "uint256"
						}
					],
					"stateMutability": "view"
				},
				{
					"type": "function",
					"name": "DIRECTORY",
					"inputs": [],
					"outputs": [
						{
							"name": "",
							"type": "address",
							"internalType": "contract IJBDirectory"
						}
					],
					"stateMutability": "view"
				},
				{
					"type": "function",
					"name": "PERMISSIONS",
					"inputs": [],
					"outputs": [
						{
							"name": "",
							"type": "address",
							"internalType": "contract IJBPermissions"
						}
					],
					"stateMutability": "view"
				},
				{
					"type": "function",
					"name": "PERMIT2",
					"inputs": [],
					"outputs": [
						{
							"name": "",
							"type": "address",
							"internalType": "contract IPermit2"
						}
					],
					"stateMutability": "view"
				},
				{
					"type": "function",
					"name": "PROJECTS",
					"inputs": [],
					"outputs": [
						{
							"name": "",
							"type": "address",
							"internalType": "contract IJBProjects"
						}
					],
					"stateMutability": "view"
				},
				{
					"type": "function",
					"name": "SLIPPAGE_DENOMINATOR",
					"inputs": [],
					"outputs": [
						{
							"name": "",
							"type": "uint160",
							"internalType": "uint160"
						}
					],
					"stateMutability": "view"
				},
				{
					"type": "function",
					"name": "WETH",
					"inputs": [],
					"outputs": [
						{
							"name": "",
							"type": "address",
							"internalType": "contract IWETH9"
						}
					],
					"stateMutability": "view"
				},
				{
					"type": "function",
					"name": "accountingContextForTokenOf",
					"inputs": [
						{
							"name": "projectId",
							"type": "uint256",
							"internalType": "uint256"
						},
						{
							"name": "token",
							"type": "address",
							"internalType": "address"
						}
					],
					"outputs": [
						{
							"name": "",
							"type": "tuple",
							"internalType": "struct JBAccountingContext",
							"components": [
								{
									"name": "token",
									"type": "address",
									"internalType": "address"
								},
								{
									"name": "decimals",
									"type": "uint8",
									"internalType": "uint8"
								},
								{
									"name": "currency",
									"type": "uint32",
									"internalType": "uint32"
								}
							]
						}
					],
					"stateMutability": "view"
				},
				{
					"type": "function",
					"name": "accountingContextsOf",
					"inputs": [
						{
							"name": "projectId",
							"type": "uint256",
							"internalType": "uint256"
						}
					],
					"outputs": [
						{
							"name": "",
							"type": "tuple[]",
							"internalType": "struct JBAccountingContext[]",
							"components": [
								{
									"name": "token",
									"type": "address",
									"internalType": "address"
								},
								{
									"name": "decimals",
									"type": "uint8",
									"internalType": "uint8"
								},
								{
									"name": "currency",
									"type": "uint32",
									"internalType": "uint32"
								}
							]
						}
					],
					"stateMutability": "view"
				},
				{
					"type": "function",
					"name": "addAccountingContextsFor",
					"inputs": [
						{
							"name": "projectId",
							"type": "uint256",
							"internalType": "uint256"
						},
						{
							"name": "tokens",
							"type": "address[]",
							"internalType": "address[]"
						}
					],
					"outputs": [],
					"stateMutability": "nonpayable"
				},
				{
					"type": "function",
					"name": "addDefaultPool",
					"inputs": [
						{
							"name": "projectId",
							"type": "uint256",
							"internalType": "uint256"
						},
						{
							"name": "token",
							"type": "address",
							"internalType": "address"
						},
						{
							"name": "pool",
							"type": "address",
							"internalType": "contract IUniswapV3Pool"
						}
					],
					"outputs": [],
					"stateMutability": "nonpayable"
				},
				{
					"type": "function",
					"name": "addToBalanceOf",
					"inputs": [
						{
							"name": "projectId",
							"type": "uint256",
							"internalType": "uint256"
						},
						{
							"name": "token",
							"type": "address",
							"internalType": "address"
						},
						{
							"name": "amount",
							"type": "uint256",
							"internalType": "uint256"
						},
						{
							"name": "shouldReturnHeldFees",
							"type": "bool",
							"internalType": "bool"
						},
						{
							"name": "memo",
							"type": "string",
							"internalType": "string"
						},
						{
							"name": "metadata",
							"type": "bytes",
							"internalType": "bytes"
						}
					],
					"outputs": [],
					"stateMutability": "payable"
				},
				{
					"type": "function",
					"name": "addTwapParamsFor",
					"inputs": [
						{
							"name": "projectId",
							"type": "uint256",
							"internalType": "uint256"
						},
						{
							"name": "pool",
							"type": "address",
							"internalType": "contract IUniswapV3Pool"
						},
						{
							"name": "secondsAgo",
							"type": "uint32",
							"internalType": "uint32"
						},
						{
							"name": "slippageTolerance",
							"type": "uint160",
							"internalType": "uint160"
						}
					],
					"outputs": [],
					"stateMutability": "nonpayable"
				},
				{
					"type": "function",
					"name": "currentSurplusOf",
					"inputs": [
						{
							"name": "projectId",
							"type": "uint256",
							"internalType": "uint256"
						},
						{
							"name": "decimals",
							"type": "uint256",
							"internalType": "uint256"
						},
						{
							"name": "currency",
							"type": "uint256",
							"internalType": "uint256"
						}
					],
					"outputs": [
						{
							"name": "",
							"type": "uint256",
							"internalType": "uint256"
						}
					],
					"stateMutability": "view"
				},
				{
					"type": "function",
					"name": "getPoolFor",
					"inputs": [
						{
							"name": "projectId",
							"type": "uint256",
							"internalType": "uint256"
						},
						{
							"name": "tokenIn",
							"type": "address",
							"internalType": "address"
						}
					],
					"outputs": [
						{
							"name": "pool",
							"type": "address",
							"internalType": "contract IUniswapV3Pool"
						},
						{
							"name": "zeroForOne",
							"type": "bool",
							"internalType": "bool"
						}
					],
					"stateMutability": "view"
				},
				{
					"type": "function",
					"name": "migrateBalanceOf",
					"inputs": [
						{
							"name": "projectId",
							"type": "uint256",
							"internalType": "uint256"
						},
						{
							"name": "token",
							"type": "address",
							"internalType": "address"
						},
						{
							"name": "to",
							"type": "address",
							"internalType": "contract IJBTerminal"
						}
					],
					"outputs": [
						{
							"name": "balance",
							"type": "uint256",
							"internalType": "uint256"
						}
					],
					"stateMutability": "nonpayable"
				},
				{
					"type": "function",
					"name": "owner",
					"inputs": [],
					"outputs": [
						{
							"name": "",
							"type": "address",
							"internalType": "address"
						}
					],
					"stateMutability": "view"
				},
				{
					"type": "function",
					"name": "pay",
					"inputs": [
						{
							"name": "projectId",
							"type": "uint256",
							"internalType": "uint256"
						},
						{
							"name": "token",
							"type": "address",
							"internalType": "address"
						},
						{
							"name": "amount",
							"type": "uint256",
							"internalType": "uint256"
						},
						{
							"name": "beneficiary",
							"type": "address",
							"internalType": "address"
						},
						{
							"name": "minReturnedTokens",
							"type": "uint256",
							"internalType": "uint256"
						},
						{
							"name": "memo",
							"type": "string",
							"internalType": "string"
						},
						{
							"name": "metadata",
							"type": "bytes",
							"internalType": "bytes"
						}
					],
					"outputs": [
						{
							"name": "",
							"type": "uint256",
							"internalType": "uint256"
						}
					],
					"stateMutability": "payable"
				},
				{
					"type": "function",
					"name": "renounceOwnership",
					"inputs": [],
					"outputs": [],
					"stateMutability": "nonpayable"
				},
				{
					"type": "function",
					"name": "supportsInterface",
					"inputs": [
						{
							"name": "interfaceId",
							"type": "bytes4",
							"internalType": "bytes4"
						}
					],
					"outputs": [
						{
							"name": "",
							"type": "bool",
							"internalType": "bool"
						}
					],
					"stateMutability": "view"
				},
				{
					"type": "function",
					"name": "tokenOut",
					"inputs": [],
					"outputs": [
						{
							"name": "",
							"type": "address",
							"internalType": "address"
						}
					],
					"stateMutability": "view"
				},
				{
					"type": "function",
					"name": "transferOwnership",
					"inputs": [
						{
							"name": "newOwner",
							"type": "address",
							"internalType": "address"
						}
					],
					"outputs": [],
					"stateMutability": "nonpayable"
				},
				{
					"type": "function",
					"name": "twapParamsOf",
					"inputs": [
						{
							"name": "projectId",
							"type": "uint256",
							"internalType": "uint256"
						},
						{
							"name": "pool",
							"type": "address",
							"internalType": "contract IUniswapV3Pool"
						}
					],
					"outputs": [
						{
							"name": "secondsAgo",
							"type": "uint32",
							"internalType": "uint32"
						},
						{
							"name": "slippageTolerance",
							"type": "uint160",
							"internalType": "uint160"
						}
					],
					"stateMutability": "view"
				},
				{
					"type": "function",
					"name": "uniswapV3SwapCallback",
					"inputs": [
						{
							"name": "amount0Delta",
							"type": "int256",
							"internalType": "int256"
						},
						{
							"name": "amount1Delta",
							"type": "int256",
							"internalType": "int256"
						},
						{
							"name": "data",
							"type": "bytes",
							"internalType": "bytes"
						}
					],
					"outputs": [],
					"stateMutability": "nonpayable"
				},
				{
					"type": "event",
					"name": "AddToBalance",
					"inputs": [
						{
							"name": "projectId",
							"type": "uint256",
							"indexed": true,
							"internalType": "uint256"
						},
						{
							"name": "amount",
							"type": "uint256",
							"indexed": false,
							"internalType": "uint256"
						},
						{
							"name": "unlockedFees",
							"type": "uint256",
							"indexed": false,
							"internalType": "uint256"
						},
						{
							"name": "memo",
							"type": "string",
							"indexed": false,
							"internalType": "string"
						},
						{
							"name": "metadata",
							"type": "bytes",
							"indexed": false,
							"internalType": "bytes"
						},
						{
							"name": "caller",
							"type": "address",
							"indexed": false,
							"internalType": "address"
						}
					],
					"anonymous": false
				},
				{
					"type": "event",
					"name": "HookAfterRecordPay",
					"inputs": [
						{
							"name": "hook",
							"type": "address",
							"indexed": true,
							"internalType": "contract IJBPayHook"
						},
						{
							"name": "context",
							"type": "tuple",
							"indexed": false,
							"internalType": "struct JBAfterPayRecordedContext",
							"components": [
								{
									"name": "payer",
									"type": "address",
									"internalType": "address"
								},
								{
									"name": "projectId",
									"type": "uint256",
									"internalType": "uint256"
								},
								{
									"name": "rulesetId",
									"type": "uint256",
									"internalType": "uint256"
								},
								{
									"name": "amount",
									"type": "tuple",
									"internalType": "struct JBTokenAmount",
									"components": [
										{
											"name": "token",
											"type": "address",
											"internalType": "address"
										},
										{
											"name": "value",
											"type": "uint256",
											"internalType": "uint256"
										},
										{
											"name": "decimals",
											"type": "uint256",
											"internalType": "uint256"
										},
										{
											"name": "currency",
											"type": "uint256",
											"internalType": "uint256"
										}
									]
								},
								{
									"name": "forwardedAmount",
									"type": "tuple",
									"internalType": "struct JBTokenAmount",
									"components": [
										{
											"name": "token",
											"type": "address",
											"internalType": "address"
										},
										{
											"name": "value",
											"type": "uint256",
											"internalType": "uint256"
										},
										{
											"name": "decimals",
											"type": "uint256",
											"internalType": "uint256"
										},
										{
											"name": "currency",
											"type": "uint256",
											"internalType": "uint256"
										}
									]
								},
								{
									"name": "weight",
									"type": "uint256",
									"internalType": "uint256"
								},
								{
									"name": "projectTokenCount",
									"type": "uint256",
									"internalType": "uint256"
								},
								{
									"name": "beneficiary",
									"type": "address",
									"internalType": "address"
								},
								{
									"name": "hookMetadata",
									"type": "bytes",
									"internalType": "bytes"
								},
								{
									"name": "payerMetadata",
									"type": "bytes",
									"internalType": "bytes"
								}
							]
						},
						{
							"name": "specificationAmount",
							"type": "uint256",
							"indexed": false,
							"internalType": "uint256"
						},
						{
							"name": "caller",
							"type": "address",
							"indexed": false,
							"internalType": "address"
						}
					],
					"anonymous": false
				},
				{
					"type": "event",
					"name": "MigrateTerminal",
					"inputs": [
						{
							"name": "projectId",
							"type": "uint256",
							"indexed": true,
							"internalType": "uint256"
						},
						{
							"name": "token",
							"type": "address",
							"indexed": true,
							"internalType": "address"
						},
						{
							"name": "to",
							"type": "address",
							"indexed": true,
							"internalType": "contract IJBTerminal"
						},
						{
							"name": "amount",
							"type": "uint256",
							"indexed": false,
							"internalType": "uint256"
						},
						{
							"name": "caller",
							"type": "address",
							"indexed": false,
							"internalType": "address"
						}
					],
					"anonymous": false
				},
				{
					"type": "event",
					"name": "OwnershipTransferred",
					"inputs": [
						{
							"name": "previousOwner",
							"type": "address",
							"indexed": true,
							"internalType": "address"
						},
						{
							"name": "newOwner",
							"type": "address",
							"indexed": true,
							"internalType": "address"
						}
					],
					"anonymous": false
				},
				{
					"type": "event",
					"name": "Pay",
					"inputs": [
						{
							"name": "rulesetId",
							"type": "uint256",
							"indexed": true,
							"internalType": "uint256"
						},
						{
							"name": "rulesetCycleNumber",
							"type": "uint256",
							"indexed": true,
							"internalType": "uint256"
						},
						{
							"name": "projectId",
							"type": "uint256",
							"indexed": true,
							"internalType": "uint256"
						},
						{
							"name": "payer",
							"type": "address",
							"indexed": false,
							"internalType": "address"
						},
						{
							"name": "beneficiary",
							"type": "address",
							"indexed": false,
							"internalType": "address"
						},
						{
							"name": "amount",
							"type": "uint256",
							"indexed": false,
							"internalType": "uint256"
						},
						{
							"name": "beneficiaryTokenCount",
							"type": "uint256",
							"indexed": false,
							"internalType": "uint256"
						},
						{
							"name": "memo",
							"type": "string",
							"indexed": false,
							"internalType": "string"
						},
						{
							"name": "metadata",
							"type": "bytes",
							"indexed": false,
							"internalType": "bytes"
						},
						{
							"name": "caller",
							"type": "address",
							"indexed": false,
							"internalType": "address"
						}
					],
					"anonymous": false
				},
				{
					"type": "event",
					"name": "SetAccountingContext",
					"inputs": [
						{
							"name": "projectId",
							"type": "uint256",
							"indexed": true,
							"internalType": "uint256"
						},
						{
							"name": "token",
							"type": "address",
							"indexed": true,
							"internalType": "address"
						},
						{
							"name": "context",
							"type": "tuple",
							"indexed": false,
							"internalType": "struct JBAccountingContext",
							"components": [
								{
									"name": "token",
									"type": "address",
									"internalType": "address"
								},
								{
									"name": "decimals",
									"type": "uint8",
									"internalType": "uint8"
								},
								{
									"name": "currency",
									"type": "uint32",
									"internalType": "uint32"
								}
							]
						},
						{
							"name": "caller",
							"type": "address",
							"indexed": false,
							"internalType": "address"
						}
					],
					"anonymous": false
				},
				{
					"type": "error",
					"name": "AddressEmptyCode",
					"inputs": [
						{
							"name": "target",
							"type": "address",
							"internalType": "address"
						}
					]
				},
				{
					"type": "error",
					"name": "AddressInsufficientBalance",
					"inputs": [
						{
							"name": "account",
							"type": "address",
							"internalType": "address"
						}
					]
				},
				{
					"type": "error",
					"name": "FailedInnerCall",
					"inputs": []
				},
				{
					"type": "error",
					"name": "MAX_SLIPPAGE",
					"inputs": [
						{
							"name": "",
							"type": "uint256",
							"internalType": "uint256"
						},
						{
							"name": "",
							"type": "uint256",
							"internalType": "uint256"
						}
					]
				},
				{
					"type": "error",
					"name": "NO_DEFAULT_POOL_DEFINED",
					"inputs": []
				},
				{
					"type": "error",
					"name": "NO_MSG_VALUE_ALLOWED",
					"inputs": []
				},
				{
					"type": "error",
					"name": "OwnableInvalidOwner",
					"inputs": [
						{
							"name": "owner",
							"type": "address",
							"internalType": "address"
						}
					]
				},
				{
					"type": "error",
					"name": "OwnableUnauthorizedAccount",
					"inputs": [
						{
							"name": "account",
							"type": "address",
							"internalType": "address"
						}
					]
				},
				{
					"type": "error",
					"name": "PERMIT_ALLOWANCE_NOT_ENOUGH",
					"inputs": []
				},
				{
					"type": "error",
					"name": "SafeERC20FailedOperation",
					"inputs": [
						{
							"name": "token",
							"type": "address",
							"internalType": "address"
						}
					]
				},
				{
					"type": "error",
					"name": "T",
					"inputs": []
				},
				{
					"type": "error",
					"name": "TOKEN_NOT_ACCEPTED",
					"inputs": []
				},
				{
					"type": "error",
					"name": "UNAUTHORIZED",
					"inputs": []
				},
				{
					"type": "error",
					"name": "UNSUPPORTED",
					"inputs": []
				}
			],
			"solcInputHash": "9274be448149cd502f125fa25230411b",
			"receipt": {
				"blockHash": "0x297ab50e30bbdc90c9b706dc6fa5b4931025faed24e64edab1fc105e7407bb60",
				"blockNumber": 5617746,
				"contractAddress": null,
				"cumulativeGasUsed": "16472516",
				"from": "0xC034550B542b83BA1De312b21d1C94a9a52B1595",
				"gasPrice": "869416874",
				"gasUsed": "3414680",
				"hash": "0x78d87ed73fbbd981755c1028de3ca98c50e620fe7ecf99fed8f50d75eb62f251",
				"index": 79,
				"logs": [
					{
						"address": "0xB5E96127D417b1B3ef8438496a38A143167209c7",
						"blockHash": "0x297ab50e30bbdc90c9b706dc6fa5b4931025faed24e64edab1fc105e7407bb60",
						"blockNumber": 5617746,
						"data": "0x0000000000000000000000000000000000000000000000000000000000000000",
						"index": 83,
						"topics": [
							"0x572f161235911da04685a68c06adf558fc7e4a36909dca394650e0adc19cc93d",
							"0x000000000000000000000000c034550b542b83ba1de312b21d1c94a9a52b1595",
							"0x0000000000000000000000003f6eb31c3cafeb9163d09242a27d52e8cca6fa73",
							"0xdeaebf2f42ef55755f0aea0df51ced06f360fb19e6d3366e351deebde5c2d1ce"
						],
						"transactionHash": "0x78d87ed73fbbd981755c1028de3ca98c50e620fe7ecf99fed8f50d75eb62f251",
						"transactionIndex": 79
					},
					{
						"address": "0x042e4Eef809058EE0a16699f35CC73508Ae5e9f4",
						"blockHash": "0x297ab50e30bbdc90c9b706dc6fa5b4931025faed24e64edab1fc105e7407bb60",
						"blockNumber": 5617746,
						"data": "0x",
						"index": 84,
						"topics": [
							"0x8be0079c531659141344cd1fd0a4f28419497f9722a3daafe3b4186f6b6457e0",
							"0x0000000000000000000000000000000000000000000000000000000000000000",
							"0x000000000000000000000000823b92d6a4b2aed4b15675c7917c9f922ea8adad"
						],
						"transactionHash": "0x78d87ed73fbbd981755c1028de3ca98c50e620fe7ecf99fed8f50d75eb62f251",
						"transactionIndex": 79
					},
					{
						"address": "0x21CD04c712ca1206baE783EC9B715361DfC28026",
						"blockHash": "0x297ab50e30bbdc90c9b706dc6fa5b4931025faed24e64edab1fc105e7407bb60",
						"blockNumber": 5617746,
						"data": "0x",
						"index": 85,
						"topics": [
							"0x6895c13664aa4f67288b25d7a21d7aaa34916e355fb9b6fae0a139a9085becb8",
							"0x0000000000000000000000003f6eb31c3cafeb9163d09242a27d52e8cca6fa73"
						],
						"transactionHash": "0x78d87ed73fbbd981755c1028de3ca98c50e620fe7ecf99fed8f50d75eb62f251",
						"transactionIndex": 79
					},
					{
						"address": "0x3f6eB31C3cAFEb9163d09242A27D52E8cCa6Fa73",
						"blockHash": "0x297ab50e30bbdc90c9b706dc6fa5b4931025faed24e64edab1fc105e7407bb60",
						"blockNumber": 5617746,
						"data": "0x0000000000000000000000000000000000000000000000000000000000000001",
						"index": 86,
						"topics": [
							"0xa65fb05c5808f5f389d72edeaf719ce38f4cc55c1f69ca3cbfb31c21501caa07",
							"0xe59ae7a6df450f181d840076a61c0c4c548c552359d272fed57295fb532d716c"
						],
						"transactionHash": "0x78d87ed73fbbd981755c1028de3ca98c50e620fe7ecf99fed8f50d75eb62f251",
						"transactionIndex": 79
					},
					{
						"address": "0x3f6eB31C3cAFEb9163d09242A27D52E8cCa6Fa73",
						"blockHash": "0x297ab50e30bbdc90c9b706dc6fa5b4931025faed24e64edab1fc105e7407bb60",
						"blockNumber": 5617746,
						"data": "0x",
						"index": 87,
						"topics": [
							"0x4383d976757d67ca920616be0b6430a681ea9d3dcce8d6d61d4603ca4a9bff63",
							"0xe59ae7a6df450f181d840076a61c0c4c548c552359d272fed57295fb532d716c"
						],
						"transactionHash": "0x78d87ed73fbbd981755c1028de3ca98c50e620fe7ecf99fed8f50d75eb62f251",
						"transactionIndex": 79
					}
				],
				"logsBloom": "0x0000000008001000000000000018000000000000000800000080000000400000000001000000000000800000014000000000000000000000000050000000000000000000000020000000000080000000000100100000000000000080000000000000000002000000000000000000080010000000000000000000000000000040000000000000000200010000100000000000000000000000000000000400000100400088001000000000000000000002020000000000008000000000000400000000000000000000000000000c000000000000000000000000100200000020000000000000000008210000000000000200000000000000000000000008000000",
				"status": 1,
				"to": "0xB5E96127D417b1B3ef8438496a38A143167209c7"
			},
			"metadata": "{\"compiler\":{\"version\":\"0.8.23+commit.f704f362\"},\"language\":\"Solidity\",\"output\":{\"abi\":[{\"inputs\":[{\"internalType\":\"contract IJBProjects\",\"name\":\"projects\",\"type\":\"address\"},{\"internalType\":\"contract IJBPermissions\",\"name\":\"permissions\",\"type\":\"address\"},{\"internalType\":\"contract IJBDirectory\",\"name\":\"directory\",\"type\":\"address\"},{\"internalType\":\"contract IPermit2\",\"name\":\"permit2\",\"type\":\"address\"},{\"internalType\":\"address\",\"name\":\"_owner\",\"type\":\"address\"},{\"internalType\":\"contract IWETH9\",\"name\":\"weth\",\"type\":\"address\"},{\"internalType\":\"address\",\"name\":\"_tokenOut\",\"type\":\"address\"}],\"stateMutability\":\"nonpayable\",\"type\":\"constructor\"},{\"inputs\":[{\"internalType\":\"address\",\"name\":\"target\",\"type\":\"address\"}],\"type\":\"error\",\"name\":\"AddressEmptyCode\"},{\"inputs\":[{\"internalType\":\"address\",\"name\":\"account\",\"type\":\"address\"}],\"type\":\"error\",\"name\":\"AddressInsufficientBalance\"},{\"inputs\":[],\"type\":\"error\",\"name\":\"FailedInnerCall\"},{\"inputs\":[{\"internalType\":\"uint256\",\"name\":\"\",\"type\":\"uint256\"},{\"internalType\":\"uint256\",\"name\":\"\",\"type\":\"uint256\"}],\"type\":\"error\",\"name\":\"MAX_SLIPPAGE\"},{\"inputs\":[],\"type\":\"error\",\"name\":\"NO_DEFAULT_POOL_DEFINED\"},{\"inputs\":[],\"type\":\"error\",\"name\":\"NO_MSG_VALUE_ALLOWED\"},{\"inputs\":[{\"internalType\":\"address\",\"name\":\"owner\",\"type\":\"address\"}],\"type\":\"error\",\"name\":\"OwnableInvalidOwner\"},{\"inputs\":[{\"internalType\":\"address\",\"name\":\"account\",\"type\":\"address\"}],\"type\":\"error\",\"name\":\"OwnableUnauthorizedAccount\"},{\"inputs\":[],\"type\":\"error\",\"name\":\"PERMIT_ALLOWANCE_NOT_ENOUGH\"},{\"inputs\":[{\"internalType\":\"address\",\"name\":\"token\",\"type\":\"address\"}],\"type\":\"error\",\"name\":\"SafeERC20FailedOperation\"},{\"inputs\":[],\"type\":\"error\",\"name\":\"T\"},{\"inputs\":[],\"type\":\"error\",\"name\":\"TOKEN_NOT_ACCEPTED\"},{\"inputs\":[],\"type\":\"error\",\"name\":\"UNAUTHORIZED\"},{\"inputs\":[],\"type\":\"error\",\"name\":\"UNSUPPORTED\"},{\"inputs\":[{\"internalType\":\"uint256\",\"name\":\"projectId\",\"type\":\"uint256\",\"indexed\":true},{\"internalType\":\"uint256\",\"name\":\"amount\",\"type\":\"uint256\",\"indexed\":false},{\"internalType\":\"uint256\",\"name\":\"unlockedFees\",\"type\":\"uint256\",\"indexed\":false},{\"internalType\":\"string\",\"name\":\"memo\",\"type\":\"string\",\"indexed\":false},{\"internalType\":\"bytes\",\"name\":\"metadata\",\"type\":\"bytes\",\"indexed\":false},{\"internalType\":\"address\",\"name\":\"caller\",\"type\":\"address\",\"indexed\":false}],\"type\":\"event\",\"name\":\"AddToBalance\",\"anonymous\":false},{\"inputs\":[{\"internalType\":\"contract IJBPayHook\",\"name\":\"hook\",\"type\":\"address\",\"indexed\":true},{\"internalType\":\"struct JBAfterPayRecordedContext\",\"name\":\"context\",\"type\":\"tuple\",\"components\":[{\"internalType\":\"address\",\"name\":\"payer\",\"type\":\"address\"},{\"internalType\":\"uint256\",\"name\":\"projectId\",\"type\":\"uint256\"},{\"internalType\":\"uint256\",\"name\":\"rulesetId\",\"type\":\"uint256\"},{\"internalType\":\"struct JBTokenAmount\",\"name\":\"amount\",\"type\":\"tuple\",\"components\":[{\"internalType\":\"address\",\"name\":\"token\",\"type\":\"address\"},{\"internalType\":\"uint256\",\"name\":\"value\",\"type\":\"uint256\"},{\"internalType\":\"uint256\",\"name\":\"decimals\",\"type\":\"uint256\"},{\"internalType\":\"uint256\",\"name\":\"currency\",\"type\":\"uint256\"}]},{\"internalType\":\"struct JBTokenAmount\",\"name\":\"forwardedAmount\",\"type\":\"tuple\",\"components\":[{\"internalType\":\"address\",\"name\":\"token\",\"type\":\"address\"},{\"internalType\":\"uint256\",\"name\":\"value\",\"type\":\"uint256\"},{\"internalType\":\"uint256\",\"name\":\"decimals\",\"type\":\"uint256\"},{\"internalType\":\"uint256\",\"name\":\"currency\",\"type\":\"uint256\"}]},{\"internalType\":\"uint256\",\"name\":\"weight\",\"type\":\"uint256\"},{\"internalType\":\"uint256\",\"name\":\"projectTokenCount\",\"type\":\"uint256\"},{\"internalType\":\"address\",\"name\":\"beneficiary\",\"type\":\"address\"},{\"internalType\":\"bytes\",\"name\":\"hookMetadata\",\"type\":\"bytes\"},{\"internalType\":\"bytes\",\"name\":\"payerMetadata\",\"type\":\"bytes\"}],\"indexed\":false},{\"internalType\":\"uint256\",\"name\":\"specificationAmount\",\"type\":\"uint256\",\"indexed\":false},{\"internalType\":\"address\",\"name\":\"caller\",\"type\":\"address\",\"indexed\":false}],\"type\":\"event\",\"name\":\"HookAfterRecordPay\",\"anonymous\":false},{\"inputs\":[{\"internalType\":\"uint256\",\"name\":\"projectId\",\"type\":\"uint256\",\"indexed\":true},{\"internalType\":\"address\",\"name\":\"token\",\"type\":\"address\",\"indexed\":true},{\"internalType\":\"contract IJBTerminal\",\"name\":\"to\",\"type\":\"address\",\"indexed\":true},{\"internalType\":\"uint256\",\"name\":\"amount\",\"type\":\"uint256\",\"indexed\":false},{\"internalType\":\"address\",\"name\":\"caller\",\"type\":\"address\",\"indexed\":false}],\"type\":\"event\",\"name\":\"MigrateTerminal\",\"anonymous\":false},{\"inputs\":[{\"internalType\":\"address\",\"name\":\"previousOwner\",\"type\":\"address\",\"indexed\":true},{\"internalType\":\"address\",\"name\":\"newOwner\",\"type\":\"address\",\"indexed\":true}],\"type\":\"event\",\"name\":\"OwnershipTransferred\",\"anonymous\":false},{\"inputs\":[{\"internalType\":\"uint256\",\"name\":\"rulesetId\",\"type\":\"uint256\",\"indexed\":true},{\"internalType\":\"uint256\",\"name\":\"rulesetCycleNumber\",\"type\":\"uint256\",\"indexed\":true},{\"internalType\":\"uint256\",\"name\":\"projectId\",\"type\":\"uint256\",\"indexed\":true},{\"internalType\":\"address\",\"name\":\"payer\",\"type\":\"address\",\"indexed\":false},{\"internalType\":\"address\",\"name\":\"beneficiary\",\"type\":\"address\",\"indexed\":false},{\"internalType\":\"uint256\",\"name\":\"amount\",\"type\":\"uint256\",\"indexed\":false},{\"internalType\":\"uint256\",\"name\":\"beneficiaryTokenCount\",\"type\":\"uint256\",\"indexed\":false},{\"internalType\":\"string\",\"name\":\"memo\",\"type\":\"string\",\"indexed\":false},{\"internalType\":\"bytes\",\"name\":\"metadata\",\"type\":\"bytes\",\"indexed\":false},{\"internalType\":\"address\",\"name\":\"caller\",\"type\":\"address\",\"indexed\":false}],\"type\":\"event\",\"name\":\"Pay\",\"anonymous\":false},{\"inputs\":[{\"internalType\":\"uint256\",\"name\":\"projectId\",\"type\":\"uint256\",\"indexed\":true},{\"internalType\":\"address\",\"name\":\"token\",\"type\":\"address\",\"indexed\":true},{\"internalType\":\"struct JBAccountingContext\",\"name\":\"context\",\"type\":\"tuple\",\"components\":[{\"internalType\":\"address\",\"name\":\"token\",\"type\":\"address\"},{\"internalType\":\"uint8\",\"name\":\"decimals\",\"type\":\"uint8\"},{\"internalType\":\"uint32\",\"name\":\"currency\",\"type\":\"uint32\"}],\"indexed\":false},{\"internalType\":\"address\",\"name\":\"caller\",\"type\":\"address\",\"indexed\":false}],\"type\":\"event\",\"name\":\"SetAccountingContext\",\"anonymous\":false},{\"inputs\":[],\"stateMutability\":\"view\",\"type\":\"function\",\"name\":\"DEFAULT_PROJECT_ID\",\"outputs\":[{\"internalType\":\"uint256\",\"name\":\"\",\"type\":\"uint256\"}]},{\"inputs\":[],\"stateMutability\":\"view\",\"type\":\"function\",\"name\":\"DIRECTORY\",\"outputs\":[{\"internalType\":\"contract IJBDirectory\",\"name\":\"\",\"type\":\"address\"}]},{\"inputs\":[],\"stateMutability\":\"view\",\"type\":\"function\",\"name\":\"PERMISSIONS\",\"outputs\":[{\"internalType\":\"contract IJBPermissions\",\"name\":\"\",\"type\":\"address\"}]},{\"inputs\":[],\"stateMutability\":\"view\",\"type\":\"function\",\"name\":\"PERMIT2\",\"outputs\":[{\"internalType\":\"contract IPermit2\",\"name\":\"\",\"type\":\"address\"}]},{\"inputs\":[],\"stateMutability\":\"view\",\"type\":\"function\",\"name\":\"PROJECTS\",\"outputs\":[{\"internalType\":\"contract IJBProjects\",\"name\":\"\",\"type\":\"address\"}]},{\"inputs\":[],\"stateMutability\":\"view\",\"type\":\"function\",\"name\":\"SLIPPAGE_DENOMINATOR\",\"outputs\":[{\"internalType\":\"uint160\",\"name\":\"\",\"type\":\"uint160\"}]},{\"inputs\":[],\"stateMutability\":\"view\",\"type\":\"function\",\"name\":\"WETH\",\"outputs\":[{\"internalType\":\"contract IWETH9\",\"name\":\"\",\"type\":\"address\"}]},{\"inputs\":[{\"internalType\":\"uint256\",\"name\":\"projectId\",\"type\":\"uint256\"},{\"internalType\":\"address\",\"name\":\"token\",\"type\":\"address\"}],\"stateMutability\":\"view\",\"type\":\"function\",\"name\":\"accountingContextForTokenOf\",\"outputs\":[{\"internalType\":\"struct JBAccountingContext\",\"name\":\"\",\"type\":\"tuple\",\"components\":[{\"internalType\":\"address\",\"name\":\"token\",\"type\":\"address\"},{\"internalType\":\"uint8\",\"name\":\"decimals\",\"type\":\"uint8\"},{\"internalType\":\"uint32\",\"name\":\"currency\",\"type\":\"uint32\"}]}]},{\"inputs\":[{\"internalType\":\"uint256\",\"name\":\"projectId\",\"type\":\"uint256\"}],\"stateMutability\":\"view\",\"type\":\"function\",\"name\":\"accountingContextsOf\",\"outputs\":[{\"internalType\":\"struct JBAccountingContext[]\",\"name\":\"\",\"type\":\"tuple[]\",\"components\":[{\"internalType\":\"address\",\"name\":\"token\",\"type\":\"address\"},{\"internalType\":\"uint8\",\"name\":\"decimals\",\"type\":\"uint8\"},{\"internalType\":\"uint32\",\"name\":\"currency\",\"type\":\"uint32\"}]}]},{\"inputs\":[{\"internalType\":\"uint256\",\"name\":\"projectId\",\"type\":\"uint256\"},{\"internalType\":\"address[]\",\"name\":\"tokens\",\"type\":\"address[]\"}],\"stateMutability\":\"nonpayable\",\"type\":\"function\",\"name\":\"addAccountingContextsFor\"},{\"inputs\":[{\"internalType\":\"uint256\",\"name\":\"projectId\",\"type\":\"uint256\"},{\"internalType\":\"address\",\"name\":\"token\",\"type\":\"address\"},{\"internalType\":\"contract IUniswapV3Pool\",\"name\":\"pool\",\"type\":\"address\"}],\"stateMutability\":\"nonpayable\",\"type\":\"function\",\"name\":\"addDefaultPool\"},{\"inputs\":[{\"internalType\":\"uint256\",\"name\":\"projectId\",\"type\":\"uint256\"},{\"internalType\":\"address\",\"name\":\"token\",\"type\":\"address\"},{\"internalType\":\"uint256\",\"name\":\"amount\",\"type\":\"uint256\"},{\"internalType\":\"bool\",\"name\":\"shouldReturnHeldFees\",\"type\":\"bool\"},{\"internalType\":\"string\",\"name\":\"memo\",\"type\":\"string\"},{\"internalType\":\"bytes\",\"name\":\"metadata\",\"type\":\"bytes\"}],\"stateMutability\":\"payable\",\"type\":\"function\",\"name\":\"addToBalanceOf\"},{\"inputs\":[{\"internalType\":\"uint256\",\"name\":\"projectId\",\"type\":\"uint256\"},{\"internalType\":\"contract IUniswapV3Pool\",\"name\":\"pool\",\"type\":\"address\"},{\"internalType\":\"uint32\",\"name\":\"secondsAgo\",\"type\":\"uint32\"},{\"internalType\":\"uint160\",\"name\":\"slippageTolerance\",\"type\":\"uint160\"}],\"stateMutability\":\"nonpayable\",\"type\":\"function\",\"name\":\"addTwapParamsFor\"},{\"inputs\":[{\"internalType\":\"uint256\",\"name\":\"projectId\",\"type\":\"uint256\"},{\"internalType\":\"uint256\",\"name\":\"decimals\",\"type\":\"uint256\"},{\"internalType\":\"uint256\",\"name\":\"currency\",\"type\":\"uint256\"}],\"stateMutability\":\"view\",\"type\":\"function\",\"name\":\"currentSurplusOf\",\"outputs\":[{\"internalType\":\"uint256\",\"name\":\"\",\"type\":\"uint256\"}]},{\"inputs\":[{\"internalType\":\"uint256\",\"name\":\"projectId\",\"type\":\"uint256\"},{\"internalType\":\"address\",\"name\":\"tokenIn\",\"type\":\"address\"}],\"stateMutability\":\"view\",\"type\":\"function\",\"name\":\"getPoolFor\",\"outputs\":[{\"internalType\":\"contract IUniswapV3Pool\",\"name\":\"pool\",\"type\":\"address\"},{\"internalType\":\"bool\",\"name\":\"zeroForOne\",\"type\":\"bool\"}]},{\"inputs\":[{\"internalType\":\"uint256\",\"name\":\"projectId\",\"type\":\"uint256\"},{\"internalType\":\"address\",\"name\":\"token\",\"type\":\"address\"},{\"internalType\":\"contract IJBTerminal\",\"name\":\"to\",\"type\":\"address\"}],\"stateMutability\":\"nonpayable\",\"type\":\"function\",\"name\":\"migrateBalanceOf\",\"outputs\":[{\"internalType\":\"uint256\",\"name\":\"balance\",\"type\":\"uint256\"}]},{\"inputs\":[],\"stateMutability\":\"view\",\"type\":\"function\",\"name\":\"owner\",\"outputs\":[{\"internalType\":\"address\",\"name\":\"\",\"type\":\"address\"}]},{\"inputs\":[{\"internalType\":\"uint256\",\"name\":\"projectId\",\"type\":\"uint256\"},{\"internalType\":\"address\",\"name\":\"token\",\"type\":\"address\"},{\"internalType\":\"uint256\",\"name\":\"amount\",\"type\":\"uint256\"},{\"internalType\":\"address\",\"name\":\"beneficiary\",\"type\":\"address\"},{\"internalType\":\"uint256\",\"name\":\"minReturnedTokens\",\"type\":\"uint256\"},{\"internalType\":\"string\",\"name\":\"memo\",\"type\":\"string\"},{\"internalType\":\"bytes\",\"name\":\"metadata\",\"type\":\"bytes\"}],\"stateMutability\":\"payable\",\"type\":\"function\",\"name\":\"pay\",\"outputs\":[{\"internalType\":\"uint256\",\"name\":\"\",\"type\":\"uint256\"}]},{\"inputs\":[],\"stateMutability\":\"nonpayable\",\"type\":\"function\",\"name\":\"renounceOwnership\"},{\"inputs\":[{\"internalType\":\"bytes4\",\"name\":\"interfaceId\",\"type\":\"bytes4\"}],\"stateMutability\":\"view\",\"type\":\"function\",\"name\":\"supportsInterface\",\"outputs\":[{\"internalType\":\"bool\",\"name\":\"\",\"type\":\"bool\"}]},{\"inputs\":[],\"stateMutability\":\"view\",\"type\":\"function\",\"name\":\"tokenOut\",\"outputs\":[{\"internalType\":\"address\",\"name\":\"\",\"type\":\"address\"}]},{\"inputs\":[{\"internalType\":\"address\",\"name\":\"newOwner\",\"type\":\"address\"}],\"stateMutability\":\"nonpayable\",\"type\":\"function\",\"name\":\"transferOwnership\"},{\"inputs\":[{\"internalType\":\"uint256\",\"name\":\"projectId\",\"type\":\"uint256\"},{\"internalType\":\"contract IUniswapV3Pool\",\"name\":\"pool\",\"type\":\"address\"}],\"stateMutability\":\"view\",\"type\":\"function\",\"name\":\"twapParamsOf\",\"outputs\":[{\"internalType\":\"uint32\",\"name\":\"secondsAgo\",\"type\":\"uint32\"},{\"internalType\":\"uint160\",\"name\":\"slippageTolerance\",\"type\":\"uint160\"}]},{\"inputs\":[{\"internalType\":\"int256\",\"name\":\"amount0Delta\",\"type\":\"int256\"},{\"internalType\":\"int256\",\"name\":\"amount1Delta\",\"type\":\"int256\"},{\"internalType\":\"bytes\",\"name\":\"data\",\"type\":\"bytes\"}],\"stateMutability\":\"nonpayable\",\"type\":\"function\",\"name\":\"uniswapV3SwapCallback\"},{\"inputs\":[],\"stateMutability\":\"payable\",\"type\":\"receive\"}],\"devdoc\":{\"kind\":\"dev\",\"methods\":{\"accountingContextForTokenOf(uint256,address)\":{\"details\":\"Accounting contexts are set up in `addDefaultPool(...)`.\",\"params\":{\"projectId\":\"The ID of the project to get the accounting context for.\",\"token\":\"The address of the token to get the accounting context for.\"},\"returns\":{\"_0\":\"A `JBAccountingContext` containing the accounting context for the project ID and token.\"}},\"accountingContextsOf(uint256)\":{\"details\":\"This includes both project-specific and generic accounting contexts, with the project-specific contexts         taking precedence.\",\"params\":{\"projectId\":\"The ID of the project to get the accounting contexts for.\"},\"returns\":{\"_0\":\"An array of `JBAccountingContext` containing the accounting contexts for the project ID.\"}},\"addDefaultPool(uint256,address,address)\":{\"params\":{\"pool\":\"The Uniswap V3 pool to set as the default for the specified token.\",\"projectId\":\"The ID of the project to set the default pool for. The project 0 acts as a catch-all, where non-set pools are defaulted to.\",\"token\":\"The address of the token to set the default pool for.\"}},\"addToBalanceOf(uint256,address,uint256,bool,string,bytes)\":{\"details\":\"This function handles the token in transfer, potentially swaps the tokens to the desired output token, and then adds the swapped tokens to the project's balance in the specified terminal.\",\"params\":{\"amount\":\"The amount of tokens being paid in.\",\"memo\":\"A memo to pass along to the emitted event.\",\"metadata\":\"Bytes in `JBMetadataResolver`'s format which can contain additional data for the swap and adding to balance.\",\"projectId\":\"The ID of the project for which funds are being accepted and added to its balance.\",\"shouldReturnHeldFees\":\"A boolean to indicate whether held fees should be returned.\",\"token\":\"The address of the token being paid in.\"}},\"addTwapParamsFor(uint256,address,uint32,uint160)\":{\"params\":{\"projectId\":\"The ID of the project to set the TWAP-based quote rules for.\",\"secondsAgo\":\"The period of time over which the TWAP is calculated, in seconds.\",\"slippageTolerance\":\"The maximum spread allowed between the amount received and the TWAP (as a fraction out of `SLIPPAGE_DENOMINATOR`).\"}},\"getPoolFor(uint256,address)\":{\"params\":{\"projectId\":\"The ID of the project to retrieve the default pool for.\",\"tokenIn\":\"The address of the token to retrieve the default pool for.\"},\"returns\":{\"pool\":\"The default pool for the token, or the overall default pool for the token if the\"}},\"owner()\":{\"details\":\"Returns the address of the current owner.\"},\"pay(uint256,address,uint256,address,uint256,string,bytes)\":{\"params\":{\"amount\":\"The amount of tokens being paid in, as a fixed point number with the same amount of decimals as the `token`. If `token` is the native token, `amount` is ignored and `msg.value` is used in its place.\",\"beneficiary\":\"The beneficiary address to pass along to the other terminal. If the other terminal mints tokens, for example, they will be minted for this address.\",\"memo\":\"A memo to pass along to the emitted event.\",\"metadata\":\"Bytes in `JBMetadataResolver`'s format which can contain a quote from the user/client. The quote should contain a minimum amount of tokens to receive from the swap and the pool to use. This metadata is also passed to the other terminal's emitted event, as well as its data hook and pay hook if applicable.\",\"minReturnedTokens\":\"The minimum number of project tokens expected in return, as a fixed point number with the same number of decimals as the other terminal. This value will be passed along to the other terminal.\",\"projectId\":\"The ID of the project being paid.\",\"token\":\"The address of the token being paid in.\"},\"returns\":{\"_0\":\"The number of tokens received from the swap, as a fixed point number with the same amount of decimals as that token.\"}},\"renounceOwnership()\":{\"details\":\"Leaves the contract without owner. It will not be possible to call `onlyOwner` functions. Can only be called by the current owner. NOTE: Renouncing ownership will leave the contract without an owner, thereby disabling any functionality that is only available to the owner.\"},\"supportsInterface(bytes4)\":{\"details\":\"See {IERC165-supportsInterface}.\",\"params\":{\"interfaceId\":\"The ID of the interface to check for adherance to.\"},\"returns\":{\"_0\":\"A flag indicating if the provided interface ID is supported.\"}},\"tokenOut()\":{\"details\":\"If the token out is the chain native token (ETH on mainnet), JBConstants NATIVE_TOKEN is returned\",\"returns\":{\"_0\":\"The token that flows out of this terminal.\"}},\"transferOwnership(address)\":{\"details\":\"Transfers ownership of the contract to a new account (`newOwner`). Can only be called by the current owner.\"},\"twapParamsOf(uint256,address)\":{\"params\":{\"projectId\":\"The ID of the project to retrieve TWAP parameters for.\"},\"returns\":{\"secondsAgo\":\"The period of time in the past to calculate the TWAP from.\",\"slippageTolerance\":\"The maximum allowed slippage tolerance when calculating the TWAP, as a fraction out of `SLIPPAGE_DENOMINATOR`.\"}},\"uniswapV3SwapCallback(int256,int256,bytes)\":{\"details\":\"This function has no access control, care should be taken to ensure that:      - terminal balance is always be 0 between tx (this callback can only be used to sweep accidental leftovers)      - callback cannot pull user funds via a preexisting allowance\",\"params\":{\"amount0Delta\":\"The amount of token 0 being used for the swap.\",\"amount1Delta\":\"The amount of token 1 being used for the swap.\",\"data\":\"Data passed in by the swap operation.\"}}},\"version\":1},\"userdoc\":{\"kind\":\"user\",\"methods\":{\"DEFAULT_PROJECT_ID()\":{\"notice\":\"The ID to store default values in.\"},\"DIRECTORY()\":{\"notice\":\"The directory of terminals and controllers for `PROJECTS`.\"},\"PERMISSIONS()\":{\"notice\":\"A contract storing permissions.\"},\"PERMIT2()\":{\"notice\":\"The permit2 utility.\"},\"PROJECTS()\":{\"notice\":\"Mints ERC-721s that represent project ownership and transfers.\"},\"SLIPPAGE_DENOMINATOR()\":{\"notice\":\"The denominator used when calculating TWAP slippage tolerance values.\"},\"WETH()\":{\"notice\":\"The ERC-20 wrapper for the native token.\"},\"accountingContextForTokenOf(uint256,address)\":{\"notice\":\"Get the accounting context for the specified project ID and token.\"},\"accountingContextsOf(uint256)\":{\"notice\":\"Return all the accounting contexts for a specified project ID.\"},\"addAccountingContextsFor(uint256,address[])\":{\"notice\":\"Empty implementation to satisfy the interface. Accounting contexts are set in `addDefaultPool(...)`.\"},\"addDefaultPool(uint256,address,address)\":{\"notice\":\"Set a project's default pool and accounting context for the specified token. Only the project's owner, an address with `MODIFY_DEFAULT_POOL` permission from the owner or the terminal owner can call this function.\"},\"addToBalanceOf(uint256,address,uint256,bool,string,bytes)\":{\"notice\":\"Accepts funds for a given project, swaps them if necessary, and adds them to the project's balance in the specified terminal.\"},\"addTwapParamsFor(uint256,address,uint32,uint160)\":{\"notice\":\"Set the specified project's rules for calculating a quote based on the TWAP. Only the project's owner or an address with `MODIFY_TWAP_PARAMS` permission from the owner  or the terminal owner can call this function.\"},\"currentSurplusOf(uint256,uint256,uint256)\":{\"notice\":\"Empty implementation to satisfy the interface. This terminal has no surplus.\"},\"getPoolFor(uint256,address)\":{\"notice\":\"Returns the default pool for a given project and token or, if a project has no default pool for the         token, the overal default pool for the token\"},\"migrateBalanceOf(uint256,address,address)\":{\"notice\":\"Empty implementation to satisfy the interface.\"},\"pay(uint256,address,uint256,address,uint256,string,bytes)\":{\"notice\":\"Pay a project by swapping the incoming tokens for tokens that one of the project's other terminals accepts, passing along the funds received from the swap and the specified parameters.\"},\"supportsInterface(bytes4)\":{\"notice\":\"Indicates if this contract adheres to the specified interface.\"},\"tokenOut()\":{\"notice\":\"Returns the token that flows out of this terminal.\"},\"twapParamsOf(uint256,address)\":{\"notice\":\"Returns the default twap parameters for a given pool project.\"},\"uniswapV3SwapCallback(int256,int256,bytes)\":{\"notice\":\"The Uniswap v3 pool callback where the token transfer is expected to happen.\"}},\"version\":1}},\"settings\":{\"remappings\":[\"@bananapus/=node_modules/@bananapus/\",\"@chainlink/=node_modules/@chainlink/\",\"@eth-optimism/=node_modules/@eth-optimism/\",\"@exhausted-pigeon/=node_modules/@exhausted-pigeon/\",\"@gnosis.pm/=node_modules/@gnosis.pm/\",\"@openzeppelin/=node_modules/@openzeppelin/\",\"@prb/=node_modules/@prb/\",\"@sphinx-labs/contracts/=node_modules/@sphinx-labs/contracts/contracts/foundry/\",\"@uniswap/=node_modules/@uniswap/\",\"base64-sol/=node_modules/base64-sol/\",\"ds-test/=lib/forge-std/lib/ds-test/src/\",\"forge-std/=lib/forge-std/src/\",\"hardhat/=node_modules/hardhat/\",\"solmate/=node_modules/solmate/\",\"sphinx-forge-std/=node_modules/sphinx-forge-std/\",\"sphinx-solmate/=node_modules/sphinx-solmate/\",\"sphinx/=lib/sphinx/packages/contracts/contracts/forge-std/src/\"],\"optimizer\":{\"enabled\":true,\"runs\":200},\"metadata\":{\"bytecodeHash\":\"ipfs\"},\"compilationTarget\":{\"src/JBSwapTerminal.sol\":\"JBSwapTerminal\"},\"evmVersion\":\"paris\",\"libraries\":{}},\"sources\":{\"node_modules/@bananapus/core/src/abstract/JBPermissioned.sol\":{\"keccak256\":\"0xe08c8a7eeac9d1c7c2e0db6d5b98d1af09889300835a3d47d9f29319fecce703\",\"urls\":[\"bzz-raw://42645cf52bcc45053ef650790916faed5d0a74cecef336b217433fdd2c5c4166\",\"dweb:/ipfs/QmdMmxG1tSGucQwz4LYbVnuj7HU23YvqLH6xfrNWv5Bmus\"],\"license\":\"MIT\"},\"node_modules/@bananapus/core/src/enums/JBApprovalStatus.sol\":{\"keccak256\":\"0x61c69b6bac7d24b566d87cda23a77e4ca9cdb87200b106aba8534cb9a0973e33\",\"urls\":[\"bzz-raw://6a9ca7249de76f77a8252eefe6bd1b63d47952f25a2acfa2c8db967cdff4470c\",\"dweb:/ipfs/QmaxSxptRQNj8bNy96EreENmrnRWdKmhyihBcxyWzBX5BN\"],\"license\":\"MIT\"},\"node_modules/@bananapus/core/src/interfaces/IJBControlled.sol\":{\"keccak256\":\"0x79fb8de7b3f809f1c3c7189f578b7331ec4dfe3350151d5b50240ecb3a2a907b\",\"urls\":[\"bzz-raw://45c82240dd4f0e9aec00d0d86f6b44bdda231db098ebdac17e922771b3e6f342\",\"dweb:/ipfs/QmPUvT8HZeVenrZDpP14HsZofaXPJjih8UAd35rTg3tU7E\"],\"license\":\"MIT\"},\"node_modules/@bananapus/core/src/interfaces/IJBDirectory.sol\":{\"keccak256\":\"0x9cc380844aef60078ee47a61861e55a29c4a8c947efd556ebd36e6909f7b9d62\",\"urls\":[\"bzz-raw://9f5190ec8b6683d9781ee6e9eedcc91294753242748875d4a06349077e4cbaaf\",\"dweb:/ipfs/QmTQrPuXT9TCA4txwrperMeXSGvGxP8iokUK47f62F388i\"],\"license\":\"MIT\"},\"node_modules/@bananapus/core/src/interfaces/IJBPayHook.sol\":{\"keccak256\":\"0x9438866782c652c2942f4d114e35f393cd3c8b0334abce8387eed90bca35e8b2\",\"urls\":[\"bzz-raw://cfd99daf57213f92325aad7d7d16e98476d38e870470e95ba01e3ae3cdecc95d\",\"dweb:/ipfs/QmUKKAVGf7ki8BHksr99tFcRW8APveeB5tNH63ctTbbCW8\"],\"license\":\"MIT\"},\"node_modules/@bananapus/core/src/interfaces/IJBPermissioned.sol\":{\"keccak256\":\"0x5b038d4dee116584e88b230920e56d48e135053e3f7e5642eaea14a775c1dad7\",\"urls\":[\"bzz-raw://19e43102f349fd4a1da1c0943ffb8f2950007fe4bb4bb7e8f74fc142575d091b\",\"dweb:/ipfs/QmXHAt4KzDTdDZgDDefEXH2WKi7NcfkJb9R7nxW5uDqsNp\"],\"license\":\"MIT\"},\"node_modules/@bananapus/core/src/interfaces/IJBPermissions.sol\":{\"keccak256\":\"0x18870e500edf0fbadc353e273a5574701fb80466376b908c65e7cc3f11044d4d\",\"urls\":[\"bzz-raw://352a47c45853aec80e7acf0d286ade3106eb4cb456776b28a3c2f3f1091bed90\",\"dweb:/ipfs/QmQeYd3YbudYZy2hfbfht9kwhxhw4tuuLKMEYy9UY6dcSy\"],\"license\":\"MIT\"},\"node_modules/@bananapus/core/src/interfaces/IJBPermitTerminal.sol\":{\"keccak256\":\"0xd6bd30842273f5b794f82219fefdd4953f5343328d2cfdb684b7d826cc0c769c\",\"urls\":[\"bzz-raw://ca1195fd5572060b36fc7e45f46d59f974e3a908248edcfadeb8cb06247075f0\",\"dweb:/ipfs/QmYTpDXKTXqi8GQFsNqB8LiGFTZjSPY3PA8vKqZBraVdqD\"],\"license\":\"MIT\"},\"node_modules/@bananapus/core/src/interfaces/IJBPriceFeed.sol\":{\"keccak256\":\"0x4bd84c0f1a5d4729ed709bcddd43f4c50ec4a165ece79780af8dce482ed07d4a\",\"urls\":[\"bzz-raw://62bac4bfb6982fb002f620c77e5c445e62d50241a5aa64a07e51d929f5a42180\",\"dweb:/ipfs/QmWgJUDreVY2BuMX38a1iUUR5kNbMwGnKG3VvurB7oZtuM\"],\"license\":\"MIT\"},\"node_modules/@bananapus/core/src/interfaces/IJBPrices.sol\":{\"keccak256\":\"0x99525f31440b955742dce84ba57de9fc1221139b5367c1f834723bef9e13e6e1\",\"urls\":[\"bzz-raw://6fa03f0cd4ad87dd7cbae7bf7f54463450874291773c8f70f2c31ef2cae62bb0\",\"dweb:/ipfs/QmSPajPV5ismteJuB6Spzm9VmhTj2iS3eVrfpJC1Zuzg8n\"],\"license\":\"MIT\"},\"node_modules/@bananapus/core/src/interfaces/IJBProjects.sol\":{\"keccak256\":\"0x735c2fb8f1fa827f054ee77f7a0ae4b312656217acb75b624d2c8fd9dc40151b\",\"urls\":[\"bzz-raw://ee7fc92299a8633a80693ae63ab494dcd125f1789487a54a39dc0e5696e5996f\",\"dweb:/ipfs/QmX7YJD4pS2XhgQb7p3JbBAXynT7YGPXcZe92BiWWRrsCL\"],\"license\":\"MIT\"},\"node_modules/@bananapus/core/src/interfaces/IJBRedeemHook.sol\":{\"keccak256\":\"0x8ab46fcd7d0e739661eb76056ad93ff99106f38420ef0b4eb97fa9f4bb71a68a\",\"urls\":[\"bzz-raw://0ef96fcb7ad26281d444d8e0c677b25114fdd63b1c172d477e030dce8ba53b62\",\"dweb:/ipfs/Qmcx1jRQuwU4pZFuLxsSsx4oMbRaDfktHrPnXextgbWc5m\"],\"license\":\"MIT\"},\"node_modules/@bananapus/core/src/interfaces/IJBRulesetApprovalHook.sol\":{\"keccak256\":\"0x592e95d159494421c6b1bcb362d0cee1df0132921697351304e9cd7af4fbd386\",\"urls\":[\"bzz-raw://5bebfd5fa67c1b6ea16fa2e76e9520e9dfe52a579f48dd94d0c2ec45f78ad178\",\"dweb:/ipfs/QmRUawEGtfYoYSHmHELGhvJoWuMsxLPKtqAXgsrb7fJboP\"],\"license\":\"MIT\"},\"node_modules/@bananapus/core/src/interfaces/IJBRulesets.sol\":{\"keccak256\":\"0xda1a9aef337cf9fede3f638ffa58aea2815b87fde0f79628834aa03af9f582d7\",\"urls\":[\"bzz-raw://7941690ba6d94500474978ff0f02ecc56335eae5937759878e25cc1ac30a8ecc\",\"dweb:/ipfs/QmZFc7wof6PzfBTkVyNkjaQrQbjc36CK4uC3Ee2vgihqyK\"],\"license\":\"MIT\"},\"node_modules/@bananapus/core/src/interfaces/IJBTerminal.sol\":{\"keccak256\":\"0x19dc9bf8cbdc8f13ee5da9dc3a87047eacb94a3fc19740a286c1f0bad2cc39ca\",\"urls\":[\"bzz-raw://0b05ae6fda9a85672508232fd992b8a5f5ffd8096622eeb12c8a7b3317eb3867\",\"dweb:/ipfs/QmNh9Quj37BXYGdTdcCD1Q58PchRsE5TLbEZep56qS3MpV\"],\"license\":\"MIT\"},\"node_modules/@bananapus/core/src/interfaces/IJBTerminalStore.sol\":{\"keccak256\":\"0x140159d66d729f6aeed0fe1f7c655619985146ec00e8c68cbd9b5d30d4dc7d23\",\"urls\":[\"bzz-raw://f972ecb52bcfcd2852c9e7264b1ecc504ce94bd6e12c034b93c1768cd372954e\",\"dweb:/ipfs/QmRu7in5iJSWHLTcFPbJmiK1rCHFbwNY7qzY4cG6kgfYcr\"],\"license\":\"MIT\"},\"node_modules/@bananapus/core/src/interfaces/IJBTokenUriResolver.sol\":{\"keccak256\":\"0xfa5cb00dcd6085d1ef912d071fe73c63f9478a2cd0f9d8bddaf659b6af2d0967\",\"urls\":[\"bzz-raw://282e4e7c342d65f77cde0e9a08fcaf20ef5cf379c7a48b639842c0ffd0b2afb8\",\"dweb:/ipfs/QmbnN3PEQeZaXdPLT75V1J79kMg7KqSMru37RHrL3z8Yf2\"],\"license\":\"MIT\"},\"node_modules/@bananapus/core/src/libraries/JBConstants.sol\":{\"keccak256\":\"0x9d3a9a953f859d8ec79a599577f8972de6da7199cc1bfa7fdad017d4d722bcb4\",\"urls\":[\"bzz-raw://f151fcb53a8d2684eff8b9e56ac790bcbcadd8199a4fd4d17c5b224b22936722\",\"dweb:/ipfs/QmdAz1ZtCE8nTiC4AxQNLfJhnY3ndGum2Lbef7seKdvTdR\"],\"license\":\"MIT\"},\"node_modules/@bananapus/core/src/libraries/JBMetadataResolver.sol\":{\"keccak256\":\"0xdbe40563934ac1618c9ba15f92d3efc47383534b5b8889bf5aae092927be9e87\",\"urls\":[\"bzz-raw://630534d226e7b1f86907f48c70b0d5593ad5682936330fe2737082e4383e8a56\",\"dweb:/ipfs/QmfTVQ6M3eVYBJRZH3693Axo7yBoR5mr2YvHHwx6nvJojZ\"],\"license\":\"MIT\"},\"node_modules/@bananapus/core/src/structs/JBAccountingContext.sol\":{\"keccak256\":\"0x2907ff54d1e903cc7e0390dd88c3975884702dc2673642aacbe22b66560b56de\",\"urls\":[\"bzz-raw://a66a5381ce877b32f0e0058ceeaf843e9b6b2bc8af666c0c9f4a9d01091da004\",\"dweb:/ipfs/QmQynCetUr37dBkS1YwDS8evxuXGiqanW6THmeUxXtim8w\"],\"license\":\"MIT\"},\"node_modules/@bananapus/core/src/structs/JBAfterPayRecordedContext.sol\":{\"keccak256\":\"0xd26c3a774ff38be79064085970454fe2603a23a638c76270d5b1b3829206c3e8\",\"urls\":[\"bzz-raw://3b55dbe3bf1ef625b7ca04efab3de35406e6041d5b3d82c7265469c500e2b702\",\"dweb:/ipfs/QmUdBDo4Lt3mcsFcsXT2mqq3czFwZjQJFPLM89YA2VtD7k\"],\"license\":\"MIT\"},\"node_modules/@bananapus/core/src/structs/JBAfterRedeemRecordedContext.sol\":{\"keccak256\":\"0x521f5d23a36f0da72362cd84890cc867bd83baa8dc836ba6c5066d51dba2f163\",\"urls\":[\"bzz-raw://6cc461313286dde62d045d6288e87bae5032e035796326f5b1ed6218e58aa9da\",\"dweb:/ipfs/QmQS2AkQwf2ANQieDuaUnpJEdXChoLv4CCbZqHkfywYPSR\"],\"license\":\"MIT\"},\"node_modules/@bananapus/core/src/structs/JBPayHookSpecification.sol\":{\"keccak256\":\"0x955f0bfca97300b9e5927dc181753830ee362f83fa9ca32a90daade32aa0cfd5\",\"urls\":[\"bzz-raw://f517af1597c7c40f8d3da53f7a6684a3e162950a16559d6bf6ea3b727bb11546\",\"dweb:/ipfs/QmRWo2ZTYXmVZTzNJDYhsJNsEaHphjpUfx9eNz2cciyz86\"],\"license\":\"MIT\"},\"node_modules/@bananapus/core/src/structs/JBPermissionsData.sol\":{\"keccak256\":\"0x8f0f69a6ebf5f3704e3dfcb3712fb9d3f94ae7c1ab89bf3e37bad42a3e7a0487\",\"urls\":[\"bzz-raw://57b0c5e52843e2217082889ed47b4da3943e0da4590d5768dcebfe3edad4a6b8\",\"dweb:/ipfs/QmRz48vuWLw81kUP836rh1qzqWiJFGbksgRUA9xGEDNKTY\"],\"license\":\"MIT\"},\"node_modules/@bananapus/core/src/structs/JBRedeemHookSpecification.sol\":{\"keccak256\":\"0x673d16ee1a91bf8de3b37e57284e60451b70a9c2d748c9cdc7a151f5624af18f\",\"urls\":[\"bzz-raw://ceeb5e81effa0f076c5630c756dfcf1548d09f822b255a0a6ee01e54de8c8ae2\",\"dweb:/ipfs/QmSMoMNPRhPMnuJNvWa6S59XRfycGz9o2ApNp63bUW6TdX\"],\"license\":\"MIT\"},\"node_modules/@bananapus/core/src/structs/JBRuleset.sol\":{\"keccak256\":\"0x15b2bf3174d84846a91ccbf5a344dfb125b55ed9cf50102db8d6868844225189\",\"urls\":[\"bzz-raw://647416b025dbd941094db89cbc69f755c155bd6c87be3f322394ccc4a8e0442d\",\"dweb:/ipfs/QmTCL9xcHnxQ4t5AmCPoZvXDUPW5xhzhyyXYbkMdyg44au\"],\"license\":\"MIT\"},\"node_modules/@bananapus/core/src/structs/JBSingleAllowanceContext.sol\":{\"keccak256\":\"0x5bcd5b3abafe9137ee451b112fcac473b4d48858544279d38d0c56dea5271f44\",\"urls\":[\"bzz-raw://5f17a870c2f1797a18918ab3dc6f404f0224d9e415815c708654a17686cd62c0\",\"dweb:/ipfs/QmWMDffMMrj7ZXquTHSQt8VQm5owo94BdPpJ93NfSp2jrn\"],\"license\":\"MIT\"},\"node_modules/@bananapus/core/src/structs/JBTokenAmount.sol\":{\"keccak256\":\"0x5cf0626b73a596c1e2da17c89ae039a7c0374310b060d48568d3b6c11fbe6180\",\"urls\":[\"bzz-raw://63348b50be95e2995409394a17caffc563a646f0972650a1230bf864fbd3219b\",\"dweb:/ipfs/QmZXZpS3SbFD5nWaCauf6AqbEhLURv5qsKHpThBvQgDU6u\"],\"license\":\"MIT\"},\"node_modules/@bananapus/permission-ids/src/JBPermissionIds.sol\":{\"keccak256\":\"0xf61109f6b217a80d5e5391f548fb6f2e451f7dbee3fabfc04cf17e88722203bc\",\"urls\":[\"bzz-raw://ac776ab1cd621c22bd7973471acdfa187f3abc659ad9a3ef6ed10b6447dfcf9c\",\"dweb:/ipfs/QmYLbaHt68qcuMzkiKpe96jMjiWUq1F3u8yMhxmZ3pnnWu\"],\"license\":\"MIT\"},\"node_modules/@openzeppelin/contracts/access/Ownable.sol\":{\"keccak256\":\"0xff6d0bb2e285473e5311d9d3caacb525ae3538a80758c10649a4d61029b017bb\",\"urls\":[\"bzz-raw://8ed324d3920bb545059d66ab97d43e43ee85fd3bd52e03e401f020afb0b120f6\",\"dweb:/ipfs/QmfEckWLmZkDDcoWrkEvMWhms66xwTLff9DDhegYpvHo1a\"],\"license\":\"MIT\"},\"node_modules/@openzeppelin/contracts/token/ERC20/IERC20.sol\":{\"keccak256\":\"0xc6a8ff0ea489379b61faa647490411b80102578440ab9d84e9a957cc12164e70\",\"urls\":[\"bzz-raw://0ea104e577e63faea3b69c415637e99e755dcbf64c5833d7140c35a714d6d90c\",\"dweb:/ipfs/Qmau6x4Ns9XdyynRCNNp3RhLqijJjFm7z5fyZazfYFGYdq\"],\"license\":\"MIT\"},\"node_modules/@openzeppelin/contracts/token/ERC20/extensions/IERC20Metadata.sol\":{\"keccak256\":\"0xaa761817f6cd7892fcf158b3c776b34551cde36f48ff9703d53898bc45a94ea2\",\"urls\":[\"bzz-raw://0ad7c8d4d08938c8dfc43d75a148863fb324b80cf53e0a36f7e5a4ac29008850\",\"dweb:/ipfs/QmcrhfPgVNf5mkdhQvy1pMv51TFokD3Y4Wa5WZhFqVh8UV\"],\"license\":\"MIT\"},\"node_modules/@openzeppelin/contracts/token/ERC20/extensions/IERC20Permit.sol\":{\"keccak256\":\"0x6008dabfe393240d73d7dd7688033f72740d570aa422254d29a7dce8568f3aff\",\"urls\":[\"bzz-raw://f5196ec75139918c6c7bb4251b36395e668f1fa6d206beba7e7520e74913940d\",\"dweb:/ipfs/QmSyqjksXxmm2mCG6qRd1yuwLykypkSVBbnBnGqJRcuJMi\"],\"license\":\"MIT\"},\"node_modules/@openzeppelin/contracts/token/ERC20/utils/SafeERC20.sol\":{\"keccak256\":\"0x37bb49513c49c87c4642a891b13b63571bc87013dde806617aa1efb54605f386\",\"urls\":[\"bzz-raw://b3036b3a83b7c48f96641f2a9002b9f2dcb6a5958dd670894ada21ae8229b3d0\",\"dweb:/ipfs/QmUNfSBdoVtjhETaUJCYcaC7pTMgbhht926tJ2uXJbiVd3\"],\"license\":\"MIT\"},\"node_modules/@openzeppelin/contracts/token/ERC721/IERC721.sol\":{\"keccak256\":\"0x5ef46daa3b58ef2702279d514780316efaa952915ee1aa3396f041ee2982b0b4\",\"urls\":[\"bzz-raw://2f8f2a76e23b02fc69e8cd24c3cb47da6c7af3a2d6c3a382f8ac25c6e094ade7\",\"dweb:/ipfs/QmPV4ZS4tPVv4mTCf9ejyZ1ai57EEibDRj7mN2ARDCLV5n\"],\"license\":\"MIT\"},\"node_modules/@openzeppelin/contracts/utils/Address.sol\":{\"keccak256\":\"0xaf28a975a78550e45f65e559a3ad6a5ad43b9b8a37366999abd1b7084eb70721\",\"urls\":[\"bzz-raw://b7bd24e224f67f65bfadf85dc2929fa965456bb2415478bd0125471b5ce35245\",\"dweb:/ipfs/QmRaydGr8BTHs1kvaZfsNU69pKzUAGFrvABn1KiRSbE51y\"],\"license\":\"MIT\"},\"node_modules/@openzeppelin/contracts/utils/Context.sol\":{\"keccak256\":\"0x493033a8d1b176a037b2cc6a04dad01a5c157722049bbecf632ca876224dd4b2\",\"urls\":[\"bzz-raw://6a708e8a5bdb1011c2c381c9a5cfd8a9a956d7d0a9dc1bd8bcdaf52f76ef2f12\",\"dweb:/ipfs/Qmax9WHBnVsZP46ZxEMNRQpLQnrdE4dK8LehML1Py8FowF\"],\"license\":\"MIT\"},\"node_modules/@openzeppelin/contracts/utils/introspection/IERC165.sol\":{\"keccak256\":\"0x4296879f55019b23e135000eb36896057e7101fb7fb859c5ef690cf14643757b\",\"urls\":[\"bzz-raw://87b3541437c8c443ccd36795e56a338ed12855eec17f8da624511b8d1a7e14df\",\"dweb:/ipfs/QmeJQCtZrQjtJLr6u7ZHWeH3pBnjtLWzvRrKViAi7UZqxL\"],\"license\":\"MIT\"},\"node_modules/@uniswap/permit2/src/interfaces/IAllowanceTransfer.sol\":{\"keccak256\":\"0x37f0ac203b6ef605c9533e1a739477e8e9dcea90710b40e645a367f8a21ace29\",\"urls\":[\"bzz-raw://e0104d72aeaec1cd66cc232e7de7b7ead08608efcc179491b8a66387614670b0\",\"dweb:/ipfs/QmfAZDyuNC9FXXbnJUwqHNwmAK6uRrXxtWEytLsxjskPsN\"],\"license\":\"MIT\"},\"node_modules/@uniswap/permit2/src/interfaces/IEIP712.sol\":{\"keccak256\":\"0xfdccf2b9639070803cd0e4198427fb0df3cc452ca59bd3b8a0d957a9a4254138\",\"urls\":[\"bzz-raw://f7c936ac42ce89e827db905a1544397f8bdf46db34cdb6aa1b90dea42fdb4c72\",\"dweb:/ipfs/QmVgurxo1N31qZqkPBirw9Z7S9tLYmv6jSwQp8R8ur2cBk\"],\"license\":\"MIT\"},\"node_modules/@uniswap/permit2/src/interfaces/IPermit2.sol\":{\"keccak256\":\"0xaa631cc9f53e699301d94233007110a345e6779011def484e8dd97b8fe0af771\",\"urls\":[\"bzz-raw://fc0502cf19c9c18f320a3001201e89e350393b75837f6b7971de18b2de06f30d\",\"dweb:/ipfs/QmT9SfhdJ7VJNNrf94g4H5usyi7ShqWGx7Cqsz9jZTjX96\"],\"license\":\"MIT\"},\"node_modules/@uniswap/permit2/src/interfaces/ISignatureTransfer.sol\":{\"keccak256\":\"0xe6df9966f8841dc3958ee86169c89de97e7f614c81c28b9dc947b12d732df64e\",\"urls\":[\"bzz-raw://3d4eafdee7f48c3be8350a94eb6edd0bfb2af2c105df65787a77174f356c0317\",\"dweb:/ipfs/QmY1j2adeeAhNpn6cUuthemxGCdLXHTfyMh9yTKsY4mZ2d\"],\"license\":\"MIT\"},\"node_modules/@uniswap/v3-core/contracts/interfaces/IUniswapV3Pool.sol\":{\"keccak256\":\"0x4e64844c56061cd90e0a80de73534a9166704c43eed579eb83f90bc2780ce968\",\"urls\":[\"bzz-raw://cba4fab5cebdddf644b901994a7f0f52b98885d4c56012f4dc51d52c2bf9de0e\",\"dweb:/ipfs/QmVyyrRmqXrAiapewWunRVgiPVFJHpH2hKiE1py1svMSNV\"],\"license\":\"GPL-2.0-or-later\"},\"node_modules/@uniswap/v3-core/contracts/interfaces/callback/IUniswapV3SwapCallback.sol\":{\"keccak256\":\"0x3f485fb1a44e8fbeadefb5da07d66edab3cfe809f0ac4074b1e54e3eb3c4cf69\",\"urls\":[\"bzz-raw://095ce0626b41318c772b3ebf19d548282607f6a8f3d6c41c13edfbd5370c8652\",\"dweb:/ipfs/QmVDZfJJ89UUCE1hMyzqpkZAtQ8jUsBgZNE5AMRG7RzRFS\"],\"license\":\"GPL-2.0-or-later\"},\"node_modules/@uniswap/v3-core/contracts/interfaces/pool/IUniswapV3PoolActions.sol\":{\"keccak256\":\"0x9453dd0e7442188667d01d9b65de3f1e14e9511ff3e303179a15f6fc267f7634\",\"urls\":[\"bzz-raw://982f4328f956c3e60e67501e759eb292ac487f76460c774c50e9ae4fcc92aae5\",\"dweb:/ipfs/QmRnzEDsaqtd9PJEVcgQi7p5aV5pMSvRUoGZJAdwFUJxgZ\"],\"license\":\"GPL-2.0-or-later\"},\"node_modules/@uniswap/v3-core/contracts/interfaces/pool/IUniswapV3PoolDerivedState.sol\":{\"keccak256\":\"0xe603ac5b17ecdee73ba2b27efdf386c257a19c14206e87eee77e2017b742d9e5\",\"urls\":[\"bzz-raw://8febc9bdb399a4d94bb89f5377732652e2400e4a8dee808201ade6848f9004e7\",\"dweb:/ipfs/QmaKDqYYFU4d2W2iN77aDHptfbFmYZRrMYXHeGpJmM8C1c\"],\"license\":\"GPL-2.0-or-later\"},\"node_modules/@uniswap/v3-core/contracts/interfaces/pool/IUniswapV3PoolErrors.sol\":{\"keccak256\":\"0xf80abf13fb1fafc127ba4e792f240dd8ea7c8c893978cdfd8439c27fae9a037b\",\"urls\":[\"bzz-raw://b04fc72a656bbf3631e9c2e67b9870a2d9d235185e833fe050e9606e6816a9aa\",\"dweb:/ipfs/QmUcz4bkEkJ9pwzFu1C3n97hBQ3st9U6qTAqCdyFwddKco\"],\"license\":\"GPL-2.0-or-later\"},\"node_modules/@uniswap/v3-core/contracts/interfaces/pool/IUniswapV3PoolEvents.sol\":{\"keccak256\":\"0x8071514d0fe5d17d6fbd31c191cdfb703031c24e0ece3621d88ab10e871375cd\",\"urls\":[\"bzz-raw://d0b571930cc7488b1d546a7e9cea7c52d8b3c4e207da657ed0e0db7343b8cd03\",\"dweb:/ipfs/QmaGK6vVwB95QSTR1XMYvrh7ivYAYZxi3fD7v6VMA4jZ39\"],\"license\":\"GPL-2.0-or-later\"},\"node_modules/@uniswap/v3-core/contracts/interfaces/pool/IUniswapV3PoolImmutables.sol\":{\"keccak256\":\"0xf6e5d2cd1139c4c276bdbc8e1d2b256e456c866a91f1b868da265c6d2685c3f7\",\"urls\":[\"bzz-raw://b99c8c9ae8e27ee6559e5866bea82cbc9ffc8247f8d15b7422a4deb287d4d047\",\"dweb:/ipfs/QmfL8gaqt3ffAnm6nVj5ksuNpLygXuL3xq5VBqrkwC2JJ3\"],\"license\":\"GPL-2.0-or-later\"},\"node_modules/@uniswap/v3-core/contracts/interfaces/pool/IUniswapV3PoolOwnerActions.sol\":{\"keccak256\":\"0x759b78a2918af9e99e246dc3af084f654e48ef32bb4e4cb8a966aa3dcaece235\",\"urls\":[\"bzz-raw://64144fb96e1c7fdba87305acadb98a198d26a3d46c097cb3a666e567f6f29735\",\"dweb:/ipfs/QmUnWVwN9FKB9uV5Pr8YfLpWZnYM2DENnRMaadZ492JS9u\"],\"license\":\"GPL-2.0-or-later\"},\"node_modules/@uniswap/v3-core/contracts/interfaces/pool/IUniswapV3PoolState.sol\":{\"keccak256\":\"0x44fa2ce1182f6c2f6bead3d1737804bf7e112252ae86e0f2e92f9b8249603f43\",\"urls\":[\"bzz-raw://54154e8665b98d65f5dc91b256551852cb47882180b501b260657122d207c0ea\",\"dweb:/ipfs/QmcfemK1A2PXYrWB5SBFGERpMCderbFRb8BtTzQDj1sUBp\"],\"license\":\"GPL-2.0-or-later\"},\"node_modules/@uniswap/v3-core/contracts/libraries/FullMath.sol\":{\"keccak256\":\"0x7825565a4bb2a34a1dc96bbfead755785dfb0df8ef81bd934c43023689685645\",\"urls\":[\"bzz-raw://8f44f4614d31e3d4864c7eb13620555253b84f6a69180f8745b7c6e246a9d125\",\"dweb:/ipfs/QmfNQUcXj3KL8h9u5PqbtEC6yRtwDbKNb48uMPjdwxsKnd\"],\"license\":\"MIT\"},\"node_modules/@uniswap/v3-core/contracts/libraries/TickMath.sol\":{\"keccak256\":\"0x5c57de03a91cc2ec8939865dbbcb0197bb6c353b711075eefd8e0fca5e102129\",\"urls\":[\"bzz-raw://1e994c24fd891ef8a3f5dbf5eba42b34feaf05e0376a29f91322faa18054449c\",\"dweb:/ipfs/QmNdUJGUQxd1dPkMbnA5f5UNqakxRkQE5r7bTZJAuHeapS\"],\"license\":\"GPL-2.0-or-later\"},\"node_modules/@uniswap/v3-periphery/contracts/libraries/OracleLibrary.sol\":{\"keccak256\":\"0xe313f89c69c0f1c91f0722868313b4ceb14479b3e7a0abf52a1b9bbd9c18e81b\",\"urls\":[\"bzz-raw://8ad09b061f3f533c116618c20cf01510108eebebb7ff8847b0f245b8ba368d53\",\"dweb:/ipfs/QmU6vdi5JjJfjK2KqonWvRg9NeuQWarj4B1YFN22Dh9VJM\"],\"license\":\"GPL-2.0-or-later\"},\"src/JBSwapTerminal.sol\":{\"keccak256\":\"0xdf78be277474f71842d19d5e15c38a426b5ea1b1f23bb63f2b38313cc5369486\",\"urls\":[\"bzz-raw://bc80250e6a3c0edea3368c6719bcff48f45ee32feca9b5dbb5065461dafd624c\",\"dweb:/ipfs/QmeMHJocad9oSG2C68ka1MxF9oWmNpxh9rcxay2w4eWSZ9\"],\"license\":\"MIT\"},\"src/interfaces/IWETH9.sol\":{\"keccak256\":\"0x50083bcaca6c1a8d12c79116fab4f6d8cd452a510cb3f00c4a8bc3a54678efb7\",\"urls\":[\"bzz-raw://726f187112d0953c14bff8099a8c9ce1ead47eb25e90839f77b100feaaf16127\",\"dweb:/ipfs/QmTEnMENpLjcTQLMwz4kEUiQHfiTkaZT3TL37nQ8JiRYh5\"],\"license\":\"GPL-2.0-or-later\"}},\"version\":1}",
			"args": [
				"0xE9a6F248F9f8854E9f161c84c34F2589Ec362BE9",
				"0x953AB7f10EfE861B21CfB9630768818A04742587",
				"0x71Ff91C8A27b436f7025C053c01A3F6AAE3Fc62E",
				"0x000000000022D473030F116dDEE9F6B43aC78BA3",
				"0x823b92d6a4b2AED4b15675c7917c9f922ea8ADAD",
				"0x7b79995e5f793A07Bc00c21412e50Ecae098E7f9",
				"0x000000000000000000000000000000000000EEEe"
			],
			"bytecode": "0x6101606040523480156200001257600080fd5b5060405162003b7238038062003b72833981016040819052620000359162000144565b6001600160a01b03808716608052839081166200006c57604051631e4fbdf760e01b81526000600482015260240160405180910390fd5b6200007781620000db565b506001600160a01b0387811660a05285811660c05284811660e05282811661010052811661eeed1901620000bf576001610140526001600160a01b03821661012052620000ce565b6001600160a01b038116610120525b50505050505050620001ef565b600080546001600160a01b038381166001600160a01b0319831681178455604051919092169283917f8be0079c531659141344cd1fd0a4f28419497f9722a3daafe3b4186f6b6457e09190a35050565b6001600160a01b03811681146200014157600080fd5b50565b600080600080600080600060e0888a0312156200016057600080fd5b87516200016d816200012b565b602089015190975062000180816200012b565b604089015190965062000193816200012b565b6060890151909550620001a6816200012b565b6080890151909450620001b9816200012b565b60a0890151909350620001cc816200012b565b60c0890151909250620001df816200012b565b8091505092959891949750929550565b60805160a05160c05160e05161010051610120516101405161385d6200031560003960008181610d2201528181610e2901528181610e5801528181611006015281816111e9015281816112f00152818161131f015281816116d601528181611bb10152611fc20152600081816106d901528181610d4701528181610e7d0152818161102c0152818161120e01528181611344015281816116fe015281816117590152611a4101526000818161015f015281816104a1015281816110c6015281816116400152611beb01526000818161037e01528181611eb301526120cd01526000818161040601528181610cf201526111b901526000818161020b015281816106460152610f420152600081816105690152818161143401526114dd015261385d6000f3fe60806040526004361061014f5760003560e01c806398ea47fc116100b6578063d0202d3b1161006f578063d0202d3b14610507578063e28b54111461051c578063f2fde38b14610537578063f434c91414610557578063fa461e331461058b578063fef43257146105ab57600080fd5b806398ea47fc146104465780639e6eec0514610466578063ac90511414610479578063ad5c46481461048f578063c361534c146104c3578063cc680127146104e357600080fd5b8063515a929311610108578063515a92931461033f5780636afdd8501461036c578063715018a6146103a05780637c5e9c24146103b557806388bc2ef3146103f45780638da5cb5b1461042857600080fd5b806301ffc9a7146101a457806324e26dc5146101d9578063293c4999146101f95780632c1ae882146102455780633a01714f1461026857806340873cb5146102fb57600080fd5b3661019f57336001600160a01b037f0000000000000000000000000000000000000000000000000000000000000000161461019d57604051635e7e9adf60e11b815260040160405180910390fd5b005b600080fd5b3480156101b057600080fd5b506101c46101bf366004612b2f565b6105be565b60405190151581526020015b60405180910390f35b3480156101e557600080fd5b5061019d6101f4366004612b6e565b610610565b34801561020557600080fd5b5061022d7f000000000000000000000000000000000000000000000000000000000000000081565b6040516001600160a01b0390911681526020016101d0565b34801561025157600080fd5b5061025a600081565b6040519081526020016101d0565b34801561027457600080fd5b506102ee610283366004612bb0565b604080516060808201835260008083526020808401829052928401819052948552600382528285206001600160a01b03948516865282529382902082519485018352549283168452600160a01b830460ff1690840152600160a81b90910463ffffffff169082015290565b6040516101d09190612be0565b34801561030757600080fd5b5061031b610316366004612bb0565b610857565b6040805163ffffffff90931683526001600160a01b039091166020830152016101d0565b34801561034b57600080fd5b5061035f61035a366004612c13565b6108cd565b6040516101d09190612c2c565b34801561037857600080fd5b5061022d7f000000000000000000000000000000000000000000000000000000000000000081565b3480156103ac57600080fd5b5061019d610c4c565b3480156103c157600080fd5b506103d56103d0366004612bb0565b610c60565b604080516001600160a01b0390931683529015156020830152016101d0565b34801561040057600080fd5b5061022d7f000000000000000000000000000000000000000000000000000000000000000081565b34801561043457600080fd5b506000546001600160a01b031661022d565b34801561045257600080fd5b5061019d610461366004612ca0565b505050565b61019d610474366004612d6f565b610cee565b34801561048557600080fd5b5061022d61271081565b34801561049b57600080fd5b5061022d7f000000000000000000000000000000000000000000000000000000000000000081565b3480156104cf57600080fd5b5061019d6104de366004612e17565b610f0c565b3480156104ef57600080fd5b5061025a6104fe366004612e73565b60009392505050565b34801561051357600080fd5b5061022d611002565b34801561052857600080fd5b5061025a6104fe366004612b6e565b34801561054357600080fd5b5061019d610552366004612e9f565b611055565b34801561056357600080fd5b5061022d7f000000000000000000000000000000000000000000000000000000000000000081565b34801561059757600080fd5b5061019d6105a6366004612ebc565b611098565b61025a6105b9366004612f0f565b6111b4565b60006001600160e01b03198216632f720bd160e21b14806105ef57506001600160e01b031982166306afdd8560e41b145b8061060a57506001600160e01b031982166301ffc9a760e01b145b92915050565b8215801561062857506000546001600160a01b031633145b6106c1576040516331a9108f60e11b8152600481018490526106c1907f00000000000000000000000000000000000000000000000000000000000000006001600160a01b031690636352211e90602401602060405180830381865afa158015610695573d6000803e3d6000fd5b505050506040513d601f19601f820116820180604052508101906106b99190612fc3565b84601a6113ea565b6040805180820182526001600160a01b0380841682527f00000000000000000000000000000000000000000000000000000000000000008116858216908110602080850191825260008981526002825286812084825282528690209451855492511515600160a01b026001600160a81b0319909316941693909317179092558251606081018452828152835163313ce56760e01b815293519093848301939263313ce567926004808401938290030181865afa158015610785573d6000803e3d6000fd5b505050506040513d601f19601f820116820180604052508101906107a99190612fe0565b60ff908116825263ffffffff80861660209384015260008781526003845260408082206001600160a01b03988916808452908652818320875181548989015199850151909616600160a81b0263ffffffff60a81b1999909716600160a01b026001600160a81b03199096169a1699909917939093179590951692909217909555948552600481529084208054600181018255908552932090920180546001600160a01b031916909117905550565b60008281526001602090815260408083206001600160a01b038516845290915281205481908082036108bd57506001600160a01b03831660009081527fa6eef7e35abe7026729641147f7915573c7e97b47efa546f5f6e3230263bcb4960205260409020545b915050602081901c5b9250929050565b600081815260046020908152604080832080548251818502810185019093528083526060949383018282801561092c57602002820191906000526020600020905b81546001600160a01b0316815260019091019060200180831161090e575b50506000808052600460209081527f17ef568e3e12ab5b9c7254a8d58478811de00f9e6eb34345acd53bf8fd09d3ec805460408051828502810185019091528181529798509296955093509091508301828280156109b357602002820191906000526020600020905b81546001600160a01b03168152600190910190602001808311610995575b505050505090506000815183516109ca9190613019565b67ffffffffffffffff8111156109e2576109e261302c565b604051908082528060200260200182016040528015610a2d57816020015b6040805160608101825260008082526020808301829052928201528252600019909201910181610a005790505b50835190915060005b8451811015610ae757600360008881526020019081526020016000206000868381518110610a6657610a66613042565b6020908102919091018101516001600160a01b039081168352828201939093526040918201600020825160608101845290549384168152600160a01b840460ff1691810191909152600160a81b90920463ffffffff16908201528351849083908110610ad457610ad4613042565b6020908102919091010152600101610a36565b5060005b8351811015610c35576000805b8651811015610b5d57858381518110610b1357610b13613042565b60200260200101516001600160a01b0316878281518110610b3657610b36613042565b60200260200101516001600160a01b031603610b555760019150610b5d565b600101610af8565b5080610c2c576000808052600360205285517f3617319a054d772f909f7c479a2cebe5066e836a939412e32403c99029b92eff9190879085908110610ba457610ba4613042565b6020908102919091018101516001600160a01b039081168352828201939093526040918201600020825160608101845290549384168152600160a01b840460ff1691810191909152600160a81b90920463ffffffff16908201528451859085908110610c1257610c12613042565b60200260200101819052508280610c2890613058565b9350505b50600101610aeb565b508151811015610c43578082525b50949350505050565b610c5461156e565b610c5e600061159b565b565b60008281526002602090815260408083206001600160a01b0385811685529252909120805491821691600160a01b900460ff169082610ce6575050506001600160a01b0381811660009081527fac33ff75c19e70fe83507db0d683fd3465c996598dc972688b7ace676c89077b60205260409020805491821691600160a01b900460ff16905b509250929050565b60007f00000000000000000000000000000000000000000000000000000000000000006001600160a01b031663862026508a7f0000000000000000000000000000000000000000000000000000000000000000610d6b577f0000000000000000000000000000000000000000000000000000000000000000610d6f565b61eeee5b6040516001600160e01b031960e085901b16815260048101929092526001600160a01b03166024820152604401602060405180830381865afa158015610db9573d6000803e3d6000fd5b505050506040513d601f19601f82011682018060405250810190610ddd9190612fc3565b90506001600160a01b038116610e0657604051630faa917b60e11b815260040160405180910390fd5b6000610e168a8a8a8588886115eb565b9050816001600160a01b0316639e6eec057f0000000000000000000000000000000000000000000000000000000000000000610e53576000610e55565b825b8c7f0000000000000000000000000000000000000000000000000000000000000000610ea1577f0000000000000000000000000000000000000000000000000000000000000000610ea5565b61eeee5b858c8c8c8c8c6040518a63ffffffff1660e01b8152600401610ece98979695949392919061309a565b6000604051808303818588803b158015610ee757600080fd5b505af1158015610efb573d6000803e3d6000fd5b505050505050505050505050505050565b83158015610f2457506000546001600160a01b031633145b610fbd576040516331a9108f60e11b815260048101859052610fbd907f00000000000000000000000000000000000000000000000000000000000000006001600160a01b031690636352211e90602401602060405180830381865afa158015610f91573d6000803e3d6000fd5b505050506040513d601f19601f82011682018060405250810190610fb59190612fc3565b85601b6113ea565b60009384526001602090815260408086206001600160a01b03959095168652938152929093209290911b640100000000600160c01b031663ffffffff91909116179055565b60007f000000000000000000000000000000000000000000000000000000000000000061104e57507f000000000000000000000000000000000000000000000000000000000000000090565b5061eeee90565b61105d61156e565b6001600160a01b03811661108c57604051631e4fbdf760e01b8152600060048201526024015b60405180910390fd5b6110958161159b565b50565b6000806110a7838501856130f2565b9150915060008087126110ba57866110bc565b855b90508115611139577f00000000000000000000000000000000000000000000000000000000000000006001600160a01b031663d0e30db0826040518263ffffffff1660e01b81526004016000604051808303818588803b15801561111f57600080fd5b505af1158015611133573d6000803e3d6000fd5b50505050505b60405163a9059cbb60e01b8152336004820152602481018290526001600160a01b0384169063a9059cbb906044016020604051808303816000875af1158015611186573d6000803e3d6000fd5b505050506040513d601f19601f820116820180604052508101906111aa9190613120565b5050505050505050565b6000807f00000000000000000000000000000000000000000000000000000000000000006001600160a01b031663862026508c7f0000000000000000000000000000000000000000000000000000000000000000611232577f0000000000000000000000000000000000000000000000000000000000000000611236565b61eeee5b6040516001600160e01b031960e085901b16815260048101929092526001600160a01b03166024820152604401602060405180830381865afa158015611280573d6000803e3d6000fd5b505050506040513d601f19601f820116820180604052508101906112a49190612fc3565b90506001600160a01b0381166112cd57604051630faa917b60e11b815260040160405180910390fd5b60006112dd8c8c8c8589896115eb565b9050816001600160a01b031663fef432577f000000000000000000000000000000000000000000000000000000000000000061131a57600061131c565b825b8e7f0000000000000000000000000000000000000000000000000000000000000000611368577f000000000000000000000000000000000000000000000000000000000000000061136c565b61eeee5b858e8e8e8e8e8e6040518b63ffffffff1660e01b81526004016113979998979695949392919061313d565b60206040518083038185885af11580156113b5573d6000803e3d6000fd5b50505050506040513d601f19601f820116820180604052508101906113da91906131a1565b509b9a5050505050505050505050565b336001600160a01b03841681148015906114a1575060405163c161c93f60e01b81526001600160a01b038281166004830152858116602483015260448201859052606482018490527f0000000000000000000000000000000000000000000000000000000000000000169063c161c93f90608401602060405180830381865afa15801561147b573d6000803e3d6000fd5b505050506040513d601f19601f8201168201806040525081019061149f9190613120565b155b801561154a575060405163c161c93f60e01b81526001600160a01b038281166004830152858116602483015260006044830152606482018490527f0000000000000000000000000000000000000000000000000000000000000000169063c161c93f90608401602060405180830381865afa158015611524573d6000803e3d6000fd5b505050506040513d601f19601f820116820180604052508101906115489190613120565b155b156115685760405163075fd2b160e01b815260040160405180910390fd5b50505050565b6000546001600160a01b03163314610c5e5760405163118cdaa760e01b8152336004820152602401611083565b600080546001600160a01b038381166001600160a01b0319831681178455604051919092169283917f8be0079c531659141344cd1fd0a4f28419497f9722a3daafe3b4186f6b6457e09190a35050565b6040805160e081018252600060208201819052918101829052606081018290526080810182905260a0810182905260c081018290528781526001600160a01b03871661eeed1901611677576001600160a01b037f00000000000000000000000000000000000000000000000000000000000000001660408201526001606082015234608082015261168e565b6001600160a01b0387166040820152608081018690525b61169e84848a8460400151611789565b151560c08401526001600160a01b0316602083015260a08201526116c38185856118cd565b6080820152606081015180156116f657507f00000000000000000000000000000000000000000000000000000000000000005b8061173657507f00000000000000000000000000000000000000000000000000000000000000006001600160a01b031681604001516001600160a01b0316145b156117475780608001519150611753565b61175081611a33565b91505b61177e857f000000000000000000000000000000000000000000000000000000000000000084611c59565b509695505050505050565b60008060008060006117d8630535741560e41b8a8a8080601f016020809104026020016040519081016040528093929190818152602001838380828437600092019190915250611c8592505050565b91509150811561180257808060200190518101906117f691906131ba565b919650945092506118c1565b60008781526002602090815260408083206001600160a01b038a81168552925290912080549182169550600160a01b90910460ff169350846118a957506001600160a01b0386811660009081527fac33ff75c19e70fe83507db0d683fd3465c996598dc972688b7ace676c89077b6020526040902080549182169550600160a01b90910460ff169350846118a957604051632a12044160e21b815260040160405180910390fd5b6118b4858986611e2a565b6001600160a01b03169550505b50509450945094915050565b6040830151606084015160009190156118e95734915050611a2c565b341561190857604051635e7e9adf60e11b815260040160405180910390fd5b60008061194e3060e01b87878080601f016020809104026020016040519081016040528093929190818152602001838380828437600092019190915250611c8592505050565b9150915081156119ae5760008180602001905181019061196e919061328b565b9050876080015181602001516001600160a01b031610156119a2576040516317e415a160e11b815260040160405180910390fd5b6119ac8185611eb1565b505b6119be3330858a60800151611fb0565b6040516370a0823160e01b81523060048201526001600160a01b038416906370a0823190602401602060405180830381865afa158015611a02573d6000803e3d6000fd5b505050506040513d601f19601f82011682018060405250810190611a2691906131a1565b93505050505b9392505050565b6000808260400151905060007f00000000000000000000000000000000000000000000000000000000000000006001600160a01b0316826001600160a01b031610905060008085602001516001600160a01b031663128acb083085896080015187611abc57611ab7600173fffd8963efd1fc6a506488495d951d5263988d2661338b565b611acc565b611acc6401000276a360016133b2565b60608c810151604080516001600160a01b038e16602082015291151590820152016040516020818303038152906040526040518663ffffffff1660e01b8152600401611b1c9594939291906133fe565b60408051808303816000875af1158015611b3a573d6000803e3d6000fd5b505050506040513d601f19601f82011682018060405250810190611b5e9190613444565b9150915082611b6d5781611b6f565b805b611b7890613468565b94508560a00151851015611baf5760a0860151604051630bb50c5d60e41b8152611083918791600401918252602082015260400190565b7f000000000000000000000000000000000000000000000000000000000000000015611c5057604051632e1a7d4d60e01b8152600481018690527f00000000000000000000000000000000000000000000000000000000000000006001600160a01b031690632e1a7d4d90602401600060405180830381600087803b158015611c3757600080fd5b505af1158015611c4b573d6000803e3d6000fd5b505050505b50505050919050565b61eeed196001600160a01b03831601611c7157505050565b6104616001600160a01b0383168483612125565b600060606025835111611caa57505060408051602081019091526000808252906108c6565b600083611cb960046020613019565b81518110611cc957611cc9613042565b0160209081015160f81c91505b600085611ce4600484613019565b81518110611cf457611cf4613042565b01602001516001600160f81b03191614801590611d1a5750611d17602083613484565b81105b15611e2157600085611d2d600484613019565b81518110611d3d57611d3d613042565b016020908101518784019091015160f89190911c91506001600160e01b031980891690821603611e17576000611d74602086613484565b611d7f600986613019565b101580611db4575087611d93600986613019565b81518110611da357611da3613042565b01602001516001600160f81b031916155b611ded57602088611dc6600987613019565b81518110611dd657611dd6613042565b0160200151611de8919060f81c613484565b611df0565b87515b90506001611e0989611e03602087613484565b846121af565b9650965050505050506108c6565b5050600501611cd6565b50509250929050565b6000806000611e398587610857565b915091506000611e4987846121f5565b5090506000611e578261243f565b905085611e8457612710611e6b848361349b565b611e7591906134e3565b611e7f90826133b2565b611ea5565b612710611e91848361349b565b611e9b91906134e3565b611ea5908261338b565b98975050505050505050565b7f00000000000000000000000000000000000000000000000000000000000000006001600160a01b0316632b67b5703360405180606001604052806040518060800160405280876001600160a01b0316815260200188602001516001600160a01b03168152602001886040015165ffffffffffff168152602001886060015165ffffffffffff168152508152602001306001600160a01b03168152602001866000015181525085608001516040518463ffffffff1660e01b8152600401611f7a93929190613509565b600060405180830381600087803b158015611f9457600080fd5b505af1158015611fa8573d6000803e3d6000fd5b505050505050565b306001600160a01b03851603612009577f000000000000000000000000000000000000000000000000000000000000000015611ff557611ff08382612762565b611568565b611ff06001600160a01b03831684836127f9565b604051636eb1769f60e11b81526001600160a01b03858116600483015230602483015282919084169063dd62ed3e90604401602060405180830381865afa158015612058573d6000803e3d6000fd5b505050506040513d601f19601f8201168201806040525081019061207c91906131a1565b1061209657611ff06001600160a01b038316858584612858565b604051631b63c28b60e11b81526001600160a01b0385811660048301528481166024830152828116604483015283811660648301527f000000000000000000000000000000000000000000000000000000000000000016906336c7851690608401600060405180830381600087803b15801561211157600080fd5b505af11580156111aa573d6000803e3d6000fd5b604051636eb1769f60e11b81523060048201526001600160a01b0383811660248301526000919085169063dd62ed3e90604401602060405180830381865afa158015612175573d6000803e3d6000fd5b505050506040513d601f19601f8201168201806040525081019061219991906131a1565b905061156884846121aa8585613019565b612891565b60608282036040519150602081830101604052808252508260208501016020820160005b848110156121eb5782810151828201526020016121d3565b5050509392505050565b6000808263ffffffff166000036122335760405162461bcd60e51b8152602060048201526002602482015261042560f41b6044820152606401611083565b604080516002808252606082018352600092602083019080368337019050509050838160008151811061226857612268613042565b602002602001019063ffffffff16908163ffffffff168152505060008160018151811061229757612297613042565b602002602001019063ffffffff16908163ffffffff1681525050600080866001600160a01b031663883bdbfd846040518263ffffffff1660e01b81526004016122e0919061357d565b600060405180830381865afa1580156122fd573d6000803e3d6000fd5b505050506040513d6000823e601f3d908101601f19168201604052612325919081019061364c565b9150915060008260008151811061233e5761233e613042565b60200260200101518360018151811061235957612359613042565b602002602001015161236b9190613718565b905060008260008151811061238257612382613042565b60200260200101518360018151811061239d5761239d613042565b60200260200101516123af919061338b565b90506123c163ffffffff891683613745565b965060008260060b1280156123e757506123e163ffffffff891683613783565b60060b15155b156123fa57866123f6816137a5565b9750505b60006124136001600160a01b0363ffffffff8b166137c8565b9050612430640100000000600160c01b03602084901b16826137f1565b96505050505050509250929050565b60008060008360020b12612456578260020b61245e565b8260020b6000035b9050620d89e8811115612484576040516315e4079d60e11b815260040160405180910390fd5b60008160011660000361249b57600160801b6124ad565b6ffffcb933bd6fad37aa2d162d1a5940015b70ffffffffffffffffffffffffffffffffff16905060028216156124e1576ffff97272373d413259a46990580e213a0260801c5b6004821615612500576ffff2e50f5f656932ef12357cf3c7fdcc0260801c5b600882161561251f576fffe5caca7e10e4e61c3624eaa0941cd00260801c5b601082161561253e576fffcb9843d60f6159c9db58835c9266440260801c5b602082161561255d576fff973b41fa98c081472e6896dfb254c00260801c5b604082161561257c576fff2ea16466c96a3843ec78b326b528610260801c5b608082161561259b576ffe5dee046a99a2a811c461f1969c30530260801c5b6101008216156125bb576ffcbe86c7900a88aedcffc83b479aa3a40260801c5b6102008216156125db576ff987a7253ac413176f2b074cf7815e540260801c5b6104008216156125fb576ff3392b0822b70005940c7a398e4b70f30260801c5b61080082161561261b576fe7159475a2c29b7443b29c7fa6e889d90260801c5b61100082161561263b576fd097f3bdfd2022b8845ad8f792aa58250260801c5b61200082161561265b576fa9f746462d870fdf8a65dc1f90e061e50260801c5b61400082161561267b576f70d869a156d2a1b890bb3df62baf32f70260801c5b61800082161561269b576f31be135f97d08fd981231505542fcfa60260801c5b620100008216156126bc576f09aa508b5b7a84e1c677de54f3e99bc90260801c5b620200008216156126dc576e5d6af8dedb81196699c329225ee6040260801c5b620400008216156126fb576d2216e584f5fa1ea926041bedfe980260801c5b62080000821615612718576b048a170391f7dc42444e8fa20260801c5b60008460020b1315612739578060001981612735576127356134cd565b0490505b64010000000081061561274d576001612750565b60005b60ff16602082901c0192505050919050565b804710156127855760405163cd78605960e01b8152306004820152602401611083565b6000826001600160a01b03168260405160006040518083038185875af1925050503d80600081146127d2576040519150601f19603f3d011682016040523d82523d6000602084013e6127d7565b606091505b505090508061046157604051630a12f52160e11b815260040160405180910390fd5b6040516001600160a01b0383811660248301526044820183905261046191859182169063a9059cbb906064015b604051602081830303815290604052915060e01b6020820180516001600160e01b03838183161783525050505061291d565b6040516001600160a01b0384811660248301528381166044830152606482018390526115689186918216906323b872dd90608401612826565b604080516001600160a01b038416602482015260448082018490528251808303909101815260649091019091526020810180516001600160e01b031663095ea7b360e01b1790526128e28482612980565b611568576040516001600160a01b0384811660248301526000604483015261291791869182169063095ea7b390606401612826565b61156884825b60006129326001600160a01b03841683612a28565b905080516000141580156129575750808060200190518101906129559190613120565b155b1561046157604051635274afe760e01b81526001600160a01b0384166004820152602401611083565b6000806000846001600160a01b03168460405161299d919061380b565b6000604051808303816000865af19150503d80600081146129da576040519150601f19603f3d011682016040523d82523d6000602084013e6129df565b606091505b5091509150818015612a09575080511580612a09575080806020019051810190612a099190613120565b8015612a1f57506000856001600160a01b03163b115b95945050505050565b6060611a2c8383600084600080856001600160a01b03168486604051612a4e919061380b565b60006040518083038185875af1925050503d8060008114612a8b576040519150601f19603f3d011682016040523d82523d6000602084013e612a90565b606091505b5091509150612aa0868383612aaa565b9695505050505050565b606082612abf57612aba82612b06565b611a2c565b8151158015612ad657506001600160a01b0384163b155b15612aff57604051639996b31560e01b81526001600160a01b0385166004820152602401611083565b5080611a2c565b805115612b165780518082602001fd5b604051630a12f52160e11b815260040160405180910390fd5b600060208284031215612b4157600080fd5b81356001600160e01b031981168114611a2c57600080fd5b6001600160a01b038116811461109557600080fd5b600080600060608486031215612b8357600080fd5b833592506020840135612b9581612b59565b91506040840135612ba581612b59565b809150509250925092565b60008060408385031215612bc357600080fd5b823591506020830135612bd581612b59565b809150509250929050565b81516001600160a01b0316815260208083015160ff169082015260408083015163ffffffff16908201526060810161060a565b600060208284031215612c2557600080fd5b5035919050565b6020808252825182820181905260009190848201906040850190845b81811015612c9457612c8183855180516001600160a01b0316825260208082015160ff169083015260409081015163ffffffff16910152565b9284019260609290920191600101612c48565b50909695505050505050565b600080600060408486031215612cb557600080fd5b83359250602084013567ffffffffffffffff80821115612cd457600080fd5b818601915086601f830112612ce857600080fd5b813581811115612cf757600080fd5b8760208260051b8501011115612d0c57600080fd5b6020830194508093505050509250925092565b801515811461109557600080fd5b60008083601f840112612d3f57600080fd5b50813567ffffffffffffffff811115612d5757600080fd5b6020830191508360208285010111156108c657600080fd5b60008060008060008060008060c0898b031215612d8b57600080fd5b883597506020890135612d9d81612b59565b9650604089013595506060890135612db481612d1f565b9450608089013567ffffffffffffffff80821115612dd157600080fd5b612ddd8c838d01612d2d565b909650945060a08b0135915080821115612df657600080fd5b50612e038b828c01612d2d565b999c989b5096995094979396929594505050565b60008060008060808587031215612e2d57600080fd5b843593506020850135612e3f81612b59565b9250604085013563ffffffff81168114612e5857600080fd5b91506060850135612e6881612b59565b939692955090935050565b600080600060608486031215612e8857600080fd5b505081359360208301359350604090920135919050565b600060208284031215612eb157600080fd5b8135611a2c81612b59565b60008060008060608587031215612ed257600080fd5b8435935060208501359250604085013567ffffffffffffffff811115612ef757600080fd5b612f0387828801612d2d565b95989497509550505050565b600080600080600080600080600060e08a8c031215612f2d57600080fd5b8935985060208a0135612f3f81612b59565b975060408a0135965060608a0135612f5681612b59565b955060808a0135945060a08a013567ffffffffffffffff80821115612f7a57600080fd5b612f868d838e01612d2d565b909650945060c08c0135915080821115612f9f57600080fd5b50612fac8c828d01612d2d565b915080935050809150509295985092959850929598565b600060208284031215612fd557600080fd5b8151611a2c81612b59565b600060208284031215612ff257600080fd5b815160ff81168114611a2c57600080fd5b634e487b7160e01b600052601160045260246000fd5b8082018082111561060a5761060a613003565b634e487b7160e01b600052604160045260246000fd5b634e487b7160e01b600052603260045260246000fd5b60006001820161306a5761306a613003565b5060010190565b81835281816020850137506000828201602090810191909152601f909101601f19169091010190565b88815260018060a01b0388166020820152866040820152851515606082015260c0608082015260006130d060c083018688613071565b82810360a08401526130e3818587613071565b9b9a5050505050505050505050565b6000806040838503121561310557600080fd5b823561311081612b59565b91506020830135612bd581612d1f565b60006020828403121561313257600080fd5b8151611a2c81612d1f565b8981526001600160a01b03898116602083015260408201899052871660608201526080810186905260e060a0820181905260009061317e9083018688613071565b82810360c0840152613191818587613071565b9c9b505050505050505050505050565b6000602082840312156131b357600080fd5b5051919050565b6000806000606084860312156131cf57600080fd5b8351925060208401516131e181612b59565b6040850151909250612ba581612d1f565b60405160a0810167ffffffffffffffff811182821017156132155761321561302c565b60405290565b604051601f8201601f1916810167ffffffffffffffff811182821017156132445761324461302c565b604052919050565b805165ffffffffffff8116811461326257600080fd5b919050565b60005b8381101561328257818101518382015260200161326a565b50506000910152565b6000602080838503121561329e57600080fd5b825167ffffffffffffffff808211156132b657600080fd5b9084019060a082870312156132ca57600080fd5b6132d26131f2565b82518152838301516132e381612b59565b818501526132f36040840161324c565b60408201526133046060840161324c565b606082015260808301518281111561331b57600080fd5b80840193505086601f84011261333057600080fd5b8251828111156133425761334261302c565b613354601f8201601f1916860161321b565b9250808352878582860101111561336a57600080fd5b61337981868501878701613267565b50608081019190915295945050505050565b6001600160a01b038281168282160390808211156133ab576133ab613003565b5092915050565b6001600160a01b038181168382160190808211156133ab576133ab613003565b600081518084526133ea816020860160208601613267565b601f01601f19169290920160200192915050565b6001600160a01b0386811682528515156020830152604082018590528316606082015260a060808201819052600090613439908301846133d2565b979650505050505050565b6000806040838503121561345757600080fd5b505080516020909101519092909150565b6000600160ff1b820161347d5761347d613003565b5060000390565b808202811582820484141761060a5761060a613003565b6001600160a01b038281168282168181028316929181158285048214176134c4576134c4613003565b50505092915050565b634e487b7160e01b600052601260045260246000fd5b60006001600160a01b03838116806134fd576134fd6134cd565b92169190910492915050565b600061010060018060a01b0380871684528551818151166020860152816020820151166040860152604081015165ffffffffffff80821660608801528060608401511660808801525050508060208701511660a085015250604085015160c08401528060e0840152612aa0818401856133d2565b6020808252825182820181905260009190848201906040850190845b81811015612c9457835163ffffffff1683529284019291840191600101613599565b600067ffffffffffffffff8211156135d5576135d561302c565b5060051b60200190565b600082601f8301126135f057600080fd5b81516020613605613600836135bb565b61321b565b8083825260208201915060208460051b87010193508684111561362757600080fd5b602086015b8481101561177e57805161363f81612b59565b835291830191830161362c565b6000806040838503121561365f57600080fd5b825167ffffffffffffffff8082111561367757600080fd5b818501915085601f83011261368b57600080fd5b8151602061369b613600836135bb565b82815260059290921b840181019181810190898411156136ba57600080fd5b948201945b838610156136e85785518060060b81146136d95760008081fd5b825294820194908201906136bf565b9188015191965090935050508082111561370157600080fd5b5061370e858286016135df565b9150509250929050565b600682810b9082900b03667fffffffffffff198112667fffffffffffff8213171561060a5761060a613003565b60008160060b8360060b8061375c5761375c6134cd565b667fffffffffffff1982146000198214161561377a5761377a613003565b90059392505050565b60008260060b80613796576137966134cd565b808360060b0791505092915050565b60008160020b627fffff1981036137be576137be613003565b6000190192915050565b6001600160c01b038281168282168181028316929181158285048214176134c4576134c4613003565b60006001600160c01b03838116806134fd576134fd6134cd565b6000825161381d818460208701613267565b919091019291505056fea26469706673582212202305c2e055954bffbf141e9c266870ac999f015e414e7ebe9f43c386928ac1aa64736f6c63430008170033",
			"deployedBytecode": "0x60806040526004361061014f5760003560e01c806398ea47fc116100b6578063d0202d3b1161006f578063d0202d3b14610507578063e28b54111461051c578063f2fde38b14610537578063f434c91414610557578063fa461e331461058b578063fef43257146105ab57600080fd5b806398ea47fc146104465780639e6eec0514610466578063ac90511414610479578063ad5c46481461048f578063c361534c146104c3578063cc680127146104e357600080fd5b8063515a929311610108578063515a92931461033f5780636afdd8501461036c578063715018a6146103a05780637c5e9c24146103b557806388bc2ef3146103f45780638da5cb5b1461042857600080fd5b806301ffc9a7146101a457806324e26dc5146101d9578063293c4999146101f95780632c1ae882146102455780633a01714f1461026857806340873cb5146102fb57600080fd5b3661019f57336001600160a01b037f0000000000000000000000007b79995e5f793a07bc00c21412e50ecae098e7f9161461019d57604051635e7e9adf60e11b815260040160405180910390fd5b005b600080fd5b3480156101b057600080fd5b506101c46101bf366004612b2f565b6105be565b60405190151581526020015b60405180910390f35b3480156101e557600080fd5b5061019d6101f4366004612b6e565b610610565b34801561020557600080fd5b5061022d7f000000000000000000000000e9a6f248f9f8854e9f161c84c34f2589ec362be981565b6040516001600160a01b0390911681526020016101d0565b34801561025157600080fd5b5061025a600081565b6040519081526020016101d0565b34801561027457600080fd5b506102ee610283366004612bb0565b604080516060808201835260008083526020808401829052928401819052948552600382528285206001600160a01b03948516865282529382902082519485018352549283168452600160a01b830460ff1690840152600160a81b90910463ffffffff169082015290565b6040516101d09190612be0565b34801561030757600080fd5b5061031b610316366004612bb0565b610857565b6040805163ffffffff90931683526001600160a01b039091166020830152016101d0565b34801561034b57600080fd5b5061035f61035a366004612c13565b6108cd565b6040516101d09190612c2c565b34801561037857600080fd5b5061022d7f000000000000000000000000000000000022d473030f116ddee9f6b43ac78ba381565b3480156103ac57600080fd5b5061019d610c4c565b3480156103c157600080fd5b506103d56103d0366004612bb0565b610c60565b604080516001600160a01b0390931683529015156020830152016101d0565b34801561040057600080fd5b5061022d7f00000000000000000000000071ff91c8a27b436f7025c053c01a3f6aae3fc62e81565b34801561043457600080fd5b506000546001600160a01b031661022d565b34801561045257600080fd5b5061019d610461366004612ca0565b505050565b61019d610474366004612d6f565b610cee565b34801561048557600080fd5b5061022d61271081565b34801561049b57600080fd5b5061022d7f0000000000000000000000007b79995e5f793a07bc00c21412e50ecae098e7f981565b3480156104cf57600080fd5b5061019d6104de366004612e17565b610f0c565b3480156104ef57600080fd5b5061025a6104fe366004612e73565b60009392505050565b34801561051357600080fd5b5061022d611002565b34801561052857600080fd5b5061025a6104fe366004612b6e565b34801561054357600080fd5b5061019d610552366004612e9f565b611055565b34801561056357600080fd5b5061022d7f000000000000000000000000953ab7f10efe861b21cfb9630768818a0474258781565b34801561059757600080fd5b5061019d6105a6366004612ebc565b611098565b61025a6105b9366004612f0f565b6111b4565b60006001600160e01b03198216632f720bd160e21b14806105ef57506001600160e01b031982166306afdd8560e41b145b8061060a57506001600160e01b031982166301ffc9a760e01b145b92915050565b8215801561062857506000546001600160a01b031633145b6106c1576040516331a9108f60e11b8152600481018490526106c1907f000000000000000000000000e9a6f248f9f8854e9f161c84c34f2589ec362be96001600160a01b031690636352211e90602401602060405180830381865afa158015610695573d6000803e3d6000fd5b505050506040513d601f19601f820116820180604052508101906106b99190612fc3565b84601a6113ea565b6040805180820182526001600160a01b0380841682527f0000000000000000000000007b79995e5f793a07bc00c21412e50ecae098e7f98116858216908110602080850191825260008981526002825286812084825282528690209451855492511515600160a01b026001600160a81b0319909316941693909317179092558251606081018452828152835163313ce56760e01b815293519093848301939263313ce567926004808401938290030181865afa158015610785573d6000803e3d6000fd5b505050506040513d601f19601f820116820180604052508101906107a99190612fe0565b60ff908116825263ffffffff80861660209384015260008781526003845260408082206001600160a01b03988916808452908652818320875181548989015199850151909616600160a81b0263ffffffff60a81b1999909716600160a01b026001600160a81b03199096169a1699909917939093179590951692909217909555948552600481529084208054600181018255908552932090920180546001600160a01b031916909117905550565b60008281526001602090815260408083206001600160a01b038516845290915281205481908082036108bd57506001600160a01b03831660009081527fa6eef7e35abe7026729641147f7915573c7e97b47efa546f5f6e3230263bcb4960205260409020545b915050602081901c5b9250929050565b600081815260046020908152604080832080548251818502810185019093528083526060949383018282801561092c57602002820191906000526020600020905b81546001600160a01b0316815260019091019060200180831161090e575b50506000808052600460209081527f17ef568e3e12ab5b9c7254a8d58478811de00f9e6eb34345acd53bf8fd09d3ec805460408051828502810185019091528181529798509296955093509091508301828280156109b357602002820191906000526020600020905b81546001600160a01b03168152600190910190602001808311610995575b505050505090506000815183516109ca9190613019565b67ffffffffffffffff8111156109e2576109e261302c565b604051908082528060200260200182016040528015610a2d57816020015b6040805160608101825260008082526020808301829052928201528252600019909201910181610a005790505b50835190915060005b8451811015610ae757600360008881526020019081526020016000206000868381518110610a6657610a66613042565b6020908102919091018101516001600160a01b039081168352828201939093526040918201600020825160608101845290549384168152600160a01b840460ff1691810191909152600160a81b90920463ffffffff16908201528351849083908110610ad457610ad4613042565b6020908102919091010152600101610a36565b5060005b8351811015610c35576000805b8651811015610b5d57858381518110610b1357610b13613042565b60200260200101516001600160a01b0316878281518110610b3657610b36613042565b60200260200101516001600160a01b031603610b555760019150610b5d565b600101610af8565b5080610c2c576000808052600360205285517f3617319a054d772f909f7c479a2cebe5066e836a939412e32403c99029b92eff9190879085908110610ba457610ba4613042565b6020908102919091018101516001600160a01b039081168352828201939093526040918201600020825160608101845290549384168152600160a01b840460ff1691810191909152600160a81b90920463ffffffff16908201528451859085908110610c1257610c12613042565b60200260200101819052508280610c2890613058565b9350505b50600101610aeb565b508151811015610c43578082525b50949350505050565b610c5461156e565b610c5e600061159b565b565b60008281526002602090815260408083206001600160a01b0385811685529252909120805491821691600160a01b900460ff169082610ce6575050506001600160a01b0381811660009081527fac33ff75c19e70fe83507db0d683fd3465c996598dc972688b7ace676c89077b60205260409020805491821691600160a01b900460ff16905b509250929050565b60007f00000000000000000000000071ff91c8a27b436f7025c053c01a3f6aae3fc62e6001600160a01b031663862026508a7f0000000000000000000000000000000000000000000000000000000000000001610d6b577f0000000000000000000000007b79995e5f793a07bc00c21412e50ecae098e7f9610d6f565b61eeee5b6040516001600160e01b031960e085901b16815260048101929092526001600160a01b03166024820152604401602060405180830381865afa158015610db9573d6000803e3d6000fd5b505050506040513d601f19601f82011682018060405250810190610ddd9190612fc3565b90506001600160a01b038116610e0657604051630faa917b60e11b815260040160405180910390fd5b6000610e168a8a8a8588886115eb565b9050816001600160a01b0316639e6eec057f0000000000000000000000000000000000000000000000000000000000000001610e53576000610e55565b825b8c7f0000000000000000000000000000000000000000000000000000000000000001610ea1577f0000000000000000000000007b79995e5f793a07bc00c21412e50ecae098e7f9610ea5565b61eeee5b858c8c8c8c8c6040518a63ffffffff1660e01b8152600401610ece98979695949392919061309a565b6000604051808303818588803b158015610ee757600080fd5b505af1158015610efb573d6000803e3d6000fd5b505050505050505050505050505050565b83158015610f2457506000546001600160a01b031633145b610fbd576040516331a9108f60e11b815260048101859052610fbd907f000000000000000000000000e9a6f248f9f8854e9f161c84c34f2589ec362be96001600160a01b031690636352211e90602401602060405180830381865afa158015610f91573d6000803e3d6000fd5b505050506040513d601f19601f82011682018060405250810190610fb59190612fc3565b85601b6113ea565b60009384526001602090815260408086206001600160a01b03959095168652938152929093209290911b640100000000600160c01b031663ffffffff91909116179055565b60007f000000000000000000000000000000000000000000000000000000000000000161104e57507f0000000000000000000000007b79995e5f793a07bc00c21412e50ecae098e7f990565b5061eeee90565b61105d61156e565b6001600160a01b03811661108c57604051631e4fbdf760e01b8152600060048201526024015b60405180910390fd5b6110958161159b565b50565b6000806110a7838501856130f2565b9150915060008087126110ba57866110bc565b855b90508115611139577f0000000000000000000000007b79995e5f793a07bc00c21412e50ecae098e7f96001600160a01b031663d0e30db0826040518263ffffffff1660e01b81526004016000604051808303818588803b15801561111f57600080fd5b505af1158015611133573d6000803e3d6000fd5b50505050505b60405163a9059cbb60e01b8152336004820152602481018290526001600160a01b0384169063a9059cbb906044016020604051808303816000875af1158015611186573d6000803e3d6000fd5b505050506040513d601f19601f820116820180604052508101906111aa9190613120565b5050505050505050565b6000807f00000000000000000000000071ff91c8a27b436f7025c053c01a3f6aae3fc62e6001600160a01b031663862026508c7f0000000000000000000000000000000000000000000000000000000000000001611232577f0000000000000000000000007b79995e5f793a07bc00c21412e50ecae098e7f9611236565b61eeee5b6040516001600160e01b031960e085901b16815260048101929092526001600160a01b03166024820152604401602060405180830381865afa158015611280573d6000803e3d6000fd5b505050506040513d601f19601f820116820180604052508101906112a49190612fc3565b90506001600160a01b0381166112cd57604051630faa917b60e11b815260040160405180910390fd5b60006112dd8c8c8c8589896115eb565b9050816001600160a01b031663fef432577f000000000000000000000000000000000000000000000000000000000000000161131a57600061131c565b825b8e7f0000000000000000000000000000000000000000000000000000000000000001611368577f0000000000000000000000007b79995e5f793a07bc00c21412e50ecae098e7f961136c565b61eeee5b858e8e8e8e8e8e6040518b63ffffffff1660e01b81526004016113979998979695949392919061313d565b60206040518083038185885af11580156113b5573d6000803e3d6000fd5b50505050506040513d601f19601f820116820180604052508101906113da91906131a1565b509b9a5050505050505050505050565b336001600160a01b03841681148015906114a1575060405163c161c93f60e01b81526001600160a01b038281166004830152858116602483015260448201859052606482018490527f000000000000000000000000953ab7f10efe861b21cfb9630768818a04742587169063c161c93f90608401602060405180830381865afa15801561147b573d6000803e3d6000fd5b505050506040513d601f19601f8201168201806040525081019061149f9190613120565b155b801561154a575060405163c161c93f60e01b81526001600160a01b038281166004830152858116602483015260006044830152606482018490527f000000000000000000000000953ab7f10efe861b21cfb9630768818a04742587169063c161c93f90608401602060405180830381865afa158015611524573d6000803e3d6000fd5b505050506040513d601f19601f820116820180604052508101906115489190613120565b155b156115685760405163075fd2b160e01b815260040160405180910390fd5b50505050565b6000546001600160a01b03163314610c5e5760405163118cdaa760e01b8152336004820152602401611083565b600080546001600160a01b038381166001600160a01b0319831681178455604051919092169283917f8be0079c531659141344cd1fd0a4f28419497f9722a3daafe3b4186f6b6457e09190a35050565b6040805160e081018252600060208201819052918101829052606081018290526080810182905260a0810182905260c081018290528781526001600160a01b03871661eeed1901611677576001600160a01b037f0000000000000000000000007b79995e5f793a07bc00c21412e50ecae098e7f91660408201526001606082015234608082015261168e565b6001600160a01b0387166040820152608081018690525b61169e84848a8460400151611789565b151560c08401526001600160a01b0316602083015260a08201526116c38185856118cd565b6080820152606081015180156116f657507f00000000000000000000000000000000000000000000000000000000000000015b8061173657507f0000000000000000000000007b79995e5f793a07bc00c21412e50ecae098e7f96001600160a01b031681604001516001600160a01b0316145b156117475780608001519150611753565b61175081611a33565b91505b61177e857f0000000000000000000000007b79995e5f793a07bc00c21412e50ecae098e7f984611c59565b509695505050505050565b60008060008060006117d8630535741560e41b8a8a8080601f016020809104026020016040519081016040528093929190818152602001838380828437600092019190915250611c8592505050565b91509150811561180257808060200190518101906117f691906131ba565b919650945092506118c1565b60008781526002602090815260408083206001600160a01b038a81168552925290912080549182169550600160a01b90910460ff169350846118a957506001600160a01b0386811660009081527fac33ff75c19e70fe83507db0d683fd3465c996598dc972688b7ace676c89077b6020526040902080549182169550600160a01b90910460ff169350846118a957604051632a12044160e21b815260040160405180910390fd5b6118b4858986611e2a565b6001600160a01b03169550505b50509450945094915050565b6040830151606084015160009190156118e95734915050611a2c565b341561190857604051635e7e9adf60e11b815260040160405180910390fd5b60008061194e3060e01b87878080601f016020809104026020016040519081016040528093929190818152602001838380828437600092019190915250611c8592505050565b9150915081156119ae5760008180602001905181019061196e919061328b565b9050876080015181602001516001600160a01b031610156119a2576040516317e415a160e11b815260040160405180910390fd5b6119ac8185611eb1565b505b6119be3330858a60800151611fb0565b6040516370a0823160e01b81523060048201526001600160a01b038416906370a0823190602401602060405180830381865afa158015611a02573d6000803e3d6000fd5b505050506040513d601f19601f82011682018060405250810190611a2691906131a1565b93505050505b9392505050565b6000808260400151905060007f0000000000000000000000007b79995e5f793a07bc00c21412e50ecae098e7f96001600160a01b0316826001600160a01b031610905060008085602001516001600160a01b031663128acb083085896080015187611abc57611ab7600173fffd8963efd1fc6a506488495d951d5263988d2661338b565b611acc565b611acc6401000276a360016133b2565b60608c810151604080516001600160a01b038e16602082015291151590820152016040516020818303038152906040526040518663ffffffff1660e01b8152600401611b1c9594939291906133fe565b60408051808303816000875af1158015611b3a573d6000803e3d6000fd5b505050506040513d601f19601f82011682018060405250810190611b5e9190613444565b9150915082611b6d5781611b6f565b805b611b7890613468565b94508560a00151851015611baf5760a0860151604051630bb50c5d60e41b8152611083918791600401918252602082015260400190565b7f000000000000000000000000000000000000000000000000000000000000000115611c5057604051632e1a7d4d60e01b8152600481018690527f0000000000000000000000007b79995e5f793a07bc00c21412e50ecae098e7f96001600160a01b031690632e1a7d4d90602401600060405180830381600087803b158015611c3757600080fd5b505af1158015611c4b573d6000803e3d6000fd5b505050505b50505050919050565b61eeed196001600160a01b03831601611c7157505050565b6104616001600160a01b0383168483612125565b600060606025835111611caa57505060408051602081019091526000808252906108c6565b600083611cb960046020613019565b81518110611cc957611cc9613042565b0160209081015160f81c91505b600085611ce4600484613019565b81518110611cf457611cf4613042565b01602001516001600160f81b03191614801590611d1a5750611d17602083613484565b81105b15611e2157600085611d2d600484613019565b81518110611d3d57611d3d613042565b016020908101518784019091015160f89190911c91506001600160e01b031980891690821603611e17576000611d74602086613484565b611d7f600986613019565b101580611db4575087611d93600986613019565b81518110611da357611da3613042565b01602001516001600160f81b031916155b611ded57602088611dc6600987613019565b81518110611dd657611dd6613042565b0160200151611de8919060f81c613484565b611df0565b87515b90506001611e0989611e03602087613484565b846121af565b9650965050505050506108c6565b5050600501611cd6565b50509250929050565b6000806000611e398587610857565b915091506000611e4987846121f5565b5090506000611e578261243f565b905085611e8457612710611e6b848361349b565b611e7591906134e3565b611e7f90826133b2565b611ea5565b612710611e91848361349b565b611e9b91906134e3565b611ea5908261338b565b98975050505050505050565b7f000000000000000000000000000000000022d473030f116ddee9f6b43ac78ba36001600160a01b0316632b67b5703360405180606001604052806040518060800160405280876001600160a01b0316815260200188602001516001600160a01b03168152602001886040015165ffffffffffff168152602001886060015165ffffffffffff168152508152602001306001600160a01b03168152602001866000015181525085608001516040518463ffffffff1660e01b8152600401611f7a93929190613509565b600060405180830381600087803b158015611f9457600080fd5b505af1158015611fa8573d6000803e3d6000fd5b505050505050565b306001600160a01b03851603612009577f000000000000000000000000000000000000000000000000000000000000000115611ff557611ff08382612762565b611568565b611ff06001600160a01b03831684836127f9565b604051636eb1769f60e11b81526001600160a01b03858116600483015230602483015282919084169063dd62ed3e90604401602060405180830381865afa158015612058573d6000803e3d6000fd5b505050506040513d601f19601f8201168201806040525081019061207c91906131a1565b1061209657611ff06001600160a01b038316858584612858565b604051631b63c28b60e11b81526001600160a01b0385811660048301528481166024830152828116604483015283811660648301527f000000000000000000000000000000000022d473030f116ddee9f6b43ac78ba316906336c7851690608401600060405180830381600087803b15801561211157600080fd5b505af11580156111aa573d6000803e3d6000fd5b604051636eb1769f60e11b81523060048201526001600160a01b0383811660248301526000919085169063dd62ed3e90604401602060405180830381865afa158015612175573d6000803e3d6000fd5b505050506040513d601f19601f8201168201806040525081019061219991906131a1565b905061156884846121aa8585613019565b612891565b60608282036040519150602081830101604052808252508260208501016020820160005b848110156121eb5782810151828201526020016121d3565b5050509392505050565b6000808263ffffffff166000036122335760405162461bcd60e51b8152602060048201526002602482015261042560f41b6044820152606401611083565b604080516002808252606082018352600092602083019080368337019050509050838160008151811061226857612268613042565b602002602001019063ffffffff16908163ffffffff168152505060008160018151811061229757612297613042565b602002602001019063ffffffff16908163ffffffff1681525050600080866001600160a01b031663883bdbfd846040518263ffffffff1660e01b81526004016122e0919061357d565b600060405180830381865afa1580156122fd573d6000803e3d6000fd5b505050506040513d6000823e601f3d908101601f19168201604052612325919081019061364c565b9150915060008260008151811061233e5761233e613042565b60200260200101518360018151811061235957612359613042565b602002602001015161236b9190613718565b905060008260008151811061238257612382613042565b60200260200101518360018151811061239d5761239d613042565b60200260200101516123af919061338b565b90506123c163ffffffff891683613745565b965060008260060b1280156123e757506123e163ffffffff891683613783565b60060b15155b156123fa57866123f6816137a5565b9750505b60006124136001600160a01b0363ffffffff8b166137c8565b9050612430640100000000600160c01b03602084901b16826137f1565b96505050505050509250929050565b60008060008360020b12612456578260020b61245e565b8260020b6000035b9050620d89e8811115612484576040516315e4079d60e11b815260040160405180910390fd5b60008160011660000361249b57600160801b6124ad565b6ffffcb933bd6fad37aa2d162d1a5940015b70ffffffffffffffffffffffffffffffffff16905060028216156124e1576ffff97272373d413259a46990580e213a0260801c5b6004821615612500576ffff2e50f5f656932ef12357cf3c7fdcc0260801c5b600882161561251f576fffe5caca7e10e4e61c3624eaa0941cd00260801c5b601082161561253e576fffcb9843d60f6159c9db58835c9266440260801c5b602082161561255d576fff973b41fa98c081472e6896dfb254c00260801c5b604082161561257c576fff2ea16466c96a3843ec78b326b528610260801c5b608082161561259b576ffe5dee046a99a2a811c461f1969c30530260801c5b6101008216156125bb576ffcbe86c7900a88aedcffc83b479aa3a40260801c5b6102008216156125db576ff987a7253ac413176f2b074cf7815e540260801c5b6104008216156125fb576ff3392b0822b70005940c7a398e4b70f30260801c5b61080082161561261b576fe7159475a2c29b7443b29c7fa6e889d90260801c5b61100082161561263b576fd097f3bdfd2022b8845ad8f792aa58250260801c5b61200082161561265b576fa9f746462d870fdf8a65dc1f90e061e50260801c5b61400082161561267b576f70d869a156d2a1b890bb3df62baf32f70260801c5b61800082161561269b576f31be135f97d08fd981231505542fcfa60260801c5b620100008216156126bc576f09aa508b5b7a84e1c677de54f3e99bc90260801c5b620200008216156126dc576e5d6af8dedb81196699c329225ee6040260801c5b620400008216156126fb576d2216e584f5fa1ea926041bedfe980260801c5b62080000821615612718576b048a170391f7dc42444e8fa20260801c5b60008460020b1315612739578060001981612735576127356134cd565b0490505b64010000000081061561274d576001612750565b60005b60ff16602082901c0192505050919050565b804710156127855760405163cd78605960e01b8152306004820152602401611083565b6000826001600160a01b03168260405160006040518083038185875af1925050503d80600081146127d2576040519150601f19603f3d011682016040523d82523d6000602084013e6127d7565b606091505b505090508061046157604051630a12f52160e11b815260040160405180910390fd5b6040516001600160a01b0383811660248301526044820183905261046191859182169063a9059cbb906064015b604051602081830303815290604052915060e01b6020820180516001600160e01b03838183161783525050505061291d565b6040516001600160a01b0384811660248301528381166044830152606482018390526115689186918216906323b872dd90608401612826565b604080516001600160a01b038416602482015260448082018490528251808303909101815260649091019091526020810180516001600160e01b031663095ea7b360e01b1790526128e28482612980565b611568576040516001600160a01b0384811660248301526000604483015261291791869182169063095ea7b390606401612826565b61156884825b60006129326001600160a01b03841683612a28565b905080516000141580156129575750808060200190518101906129559190613120565b155b1561046157604051635274afe760e01b81526001600160a01b0384166004820152602401611083565b6000806000846001600160a01b03168460405161299d919061380b565b6000604051808303816000865af19150503d80600081146129da576040519150601f19603f3d011682016040523d82523d6000602084013e6129df565b606091505b5091509150818015612a09575080511580612a09575080806020019051810190612a099190613120565b8015612a1f57506000856001600160a01b03163b115b95945050505050565b6060611a2c8383600084600080856001600160a01b03168486604051612a4e919061380b565b60006040518083038185875af1925050503d8060008114612a8b576040519150601f19603f3d011682016040523d82523d6000602084013e612a90565b606091505b5091509150612aa0868383612aaa565b9695505050505050565b606082612abf57612aba82612b06565b611a2c565b8151158015612ad657506001600160a01b0384163b155b15612aff57604051639996b31560e01b81526001600160a01b0385166004820152602401611083565b5080611a2c565b805115612b165780518082602001fd5b604051630a12f52160e11b815260040160405180910390fd5b600060208284031215612b4157600080fd5b81356001600160e01b031981168114611a2c57600080fd5b6001600160a01b038116811461109557600080fd5b600080600060608486031215612b8357600080fd5b833592506020840135612b9581612b59565b91506040840135612ba581612b59565b809150509250925092565b60008060408385031215612bc357600080fd5b823591506020830135612bd581612b59565b809150509250929050565b81516001600160a01b0316815260208083015160ff169082015260408083015163ffffffff16908201526060810161060a565b600060208284031215612c2557600080fd5b5035919050565b6020808252825182820181905260009190848201906040850190845b81811015612c9457612c8183855180516001600160a01b0316825260208082015160ff169083015260409081015163ffffffff16910152565b9284019260609290920191600101612c48565b50909695505050505050565b600080600060408486031215612cb557600080fd5b83359250602084013567ffffffffffffffff80821115612cd457600080fd5b818601915086601f830112612ce857600080fd5b813581811115612cf757600080fd5b8760208260051b8501011115612d0c57600080fd5b6020830194508093505050509250925092565b801515811461109557600080fd5b60008083601f840112612d3f57600080fd5b50813567ffffffffffffffff811115612d5757600080fd5b6020830191508360208285010111156108c657600080fd5b60008060008060008060008060c0898b031215612d8b57600080fd5b883597506020890135612d9d81612b59565b9650604089013595506060890135612db481612d1f565b9450608089013567ffffffffffffffff80821115612dd157600080fd5b612ddd8c838d01612d2d565b909650945060a08b0135915080821115612df657600080fd5b50612e038b828c01612d2d565b999c989b5096995094979396929594505050565b60008060008060808587031215612e2d57600080fd5b843593506020850135612e3f81612b59565b9250604085013563ffffffff81168114612e5857600080fd5b91506060850135612e6881612b59565b939692955090935050565b600080600060608486031215612e8857600080fd5b505081359360208301359350604090920135919050565b600060208284031215612eb157600080fd5b8135611a2c81612b59565b60008060008060608587031215612ed257600080fd5b8435935060208501359250604085013567ffffffffffffffff811115612ef757600080fd5b612f0387828801612d2d565b95989497509550505050565b600080600080600080600080600060e08a8c031215612f2d57600080fd5b8935985060208a0135612f3f81612b59565b975060408a0135965060608a0135612f5681612b59565b955060808a0135945060a08a013567ffffffffffffffff80821115612f7a57600080fd5b612f868d838e01612d2d565b909650945060c08c0135915080821115612f9f57600080fd5b50612fac8c828d01612d2d565b915080935050809150509295985092959850929598565b600060208284031215612fd557600080fd5b8151611a2c81612b59565b600060208284031215612ff257600080fd5b815160ff81168114611a2c57600080fd5b634e487b7160e01b600052601160045260246000fd5b8082018082111561060a5761060a613003565b634e487b7160e01b600052604160045260246000fd5b634e487b7160e01b600052603260045260246000fd5b60006001820161306a5761306a613003565b5060010190565b81835281816020850137506000828201602090810191909152601f909101601f19169091010190565b88815260018060a01b0388166020820152866040820152851515606082015260c0608082015260006130d060c083018688613071565b82810360a08401526130e3818587613071565b9b9a5050505050505050505050565b6000806040838503121561310557600080fd5b823561311081612b59565b91506020830135612bd581612d1f565b60006020828403121561313257600080fd5b8151611a2c81612d1f565b8981526001600160a01b03898116602083015260408201899052871660608201526080810186905260e060a0820181905260009061317e9083018688613071565b82810360c0840152613191818587613071565b9c9b505050505050505050505050565b6000602082840312156131b357600080fd5b5051919050565b6000806000606084860312156131cf57600080fd5b8351925060208401516131e181612b59565b6040850151909250612ba581612d1f565b60405160a0810167ffffffffffffffff811182821017156132155761321561302c565b60405290565b604051601f8201601f1916810167ffffffffffffffff811182821017156132445761324461302c565b604052919050565b805165ffffffffffff8116811461326257600080fd5b919050565b60005b8381101561328257818101518382015260200161326a565b50506000910152565b6000602080838503121561329e57600080fd5b825167ffffffffffffffff808211156132b657600080fd5b9084019060a082870312156132ca57600080fd5b6132d26131f2565b82518152838301516132e381612b59565b818501526132f36040840161324c565b60408201526133046060840161324c565b606082015260808301518281111561331b57600080fd5b80840193505086601f84011261333057600080fd5b8251828111156133425761334261302c565b613354601f8201601f1916860161321b565b9250808352878582860101111561336a57600080fd5b61337981868501878701613267565b50608081019190915295945050505050565b6001600160a01b038281168282160390808211156133ab576133ab613003565b5092915050565b6001600160a01b038181168382160190808211156133ab576133ab613003565b600081518084526133ea816020860160208601613267565b601f01601f19169290920160200192915050565b6001600160a01b0386811682528515156020830152604082018590528316606082015260a060808201819052600090613439908301846133d2565b979650505050505050565b6000806040838503121561345757600080fd5b505080516020909101519092909150565b6000600160ff1b820161347d5761347d613003565b5060000390565b808202811582820484141761060a5761060a613003565b6001600160a01b038281168282168181028316929181158285048214176134c4576134c4613003565b50505092915050565b634e487b7160e01b600052601260045260246000fd5b60006001600160a01b03838116806134fd576134fd6134cd565b92169190910492915050565b600061010060018060a01b0380871684528551818151166020860152816020820151166040860152604081015165ffffffffffff80821660608801528060608401511660808801525050508060208701511660a085015250604085015160c08401528060e0840152612aa0818401856133d2565b6020808252825182820181905260009190848201906040850190845b81811015612c9457835163ffffffff1683529284019291840191600101613599565b600067ffffffffffffffff8211156135d5576135d561302c565b5060051b60200190565b600082601f8301126135f057600080fd5b81516020613605613600836135bb565b61321b565b8083825260208201915060208460051b87010193508684111561362757600080fd5b602086015b8481101561177e57805161363f81612b59565b835291830191830161362c565b6000806040838503121561365f57600080fd5b825167ffffffffffffffff8082111561367757600080fd5b818501915085601f83011261368b57600080fd5b8151602061369b613600836135bb565b82815260059290921b840181019181810190898411156136ba57600080fd5b948201945b838610156136e85785518060060b81146136d95760008081fd5b825294820194908201906136bf565b9188015191965090935050508082111561370157600080fd5b5061370e858286016135df565b9150509250929050565b600682810b9082900b03667fffffffffffff198112667fffffffffffff8213171561060a5761060a613003565b60008160060b8360060b8061375c5761375c6134cd565b667fffffffffffff1982146000198214161561377a5761377a613003565b90059392505050565b60008260060b80613796576137966134cd565b808360060b0791505092915050565b60008160020b627fffff1981036137be576137be613003565b6000190192915050565b6001600160c01b038281168282168181028316929181158285048214176134c4576134c4613003565b60006001600160c01b03838116806134fd576134fd6134cd565b6000825161381d818460208701613267565b919091019291505056fea26469706673582212202305c2e055954bffbf141e9c266870ac999f015e414e7ebe9f43c386928ac1aa64736f6c63430008170033",
			"devdoc": {
				"kind": "dev",
				"methods": {
					"accountingContextForTokenOf(uint256,address)": {
						"details": "Accounting contexts are set up in `addDefaultPool(...)`.",
						"params": {
							"projectId": "The ID of the project to get the accounting context for.",
							"token": "The address of the token to get the accounting context for."
						},
						"returns": {
							"_0": "A `JBAccountingContext` containing the accounting context for the project ID and token."
						}
					},
					"accountingContextsOf(uint256)": {
						"details": "This includes both project-specific and generic accounting contexts, with the project-specific contexts         taking precedence.",
						"params": {
							"projectId": "The ID of the project to get the accounting contexts for."
						},
						"returns": {
							"_0": "An array of `JBAccountingContext` containing the accounting contexts for the project ID."
						}
					},
					"addDefaultPool(uint256,address,address)": {
						"params": {
							"pool": "The Uniswap V3 pool to set as the default for the specified token.",
							"projectId": "The ID of the project to set the default pool for. The project 0 acts as a catch-all, where non-set pools are defaulted to.",
							"token": "The address of the token to set the default pool for."
						}
					},
					"addToBalanceOf(uint256,address,uint256,bool,string,bytes)": {
						"details": "This function handles the token in transfer, potentially swaps the tokens to the desired output token, and then adds the swapped tokens to the project's balance in the specified terminal.",
						"params": {
							"amount": "The amount of tokens being paid in.",
							"memo": "A memo to pass along to the emitted event.",
							"metadata": "Bytes in `JBMetadataResolver`'s format which can contain additional data for the swap and adding to balance.",
							"projectId": "The ID of the project for which funds are being accepted and added to its balance.",
							"shouldReturnHeldFees": "A boolean to indicate whether held fees should be returned.",
							"token": "The address of the token being paid in."
						}
					},
					"addTwapParamsFor(uint256,address,uint32,uint160)": {
						"params": {
							"projectId": "The ID of the project to set the TWAP-based quote rules for.",
							"secondsAgo": "The period of time over which the TWAP is calculated, in seconds.",
							"slippageTolerance": "The maximum spread allowed between the amount received and the TWAP (as a fraction out of `SLIPPAGE_DENOMINATOR`)."
						}
					},
					"getPoolFor(uint256,address)": {
						"params": {
							"projectId": "The ID of the project to retrieve the default pool for.",
							"tokenIn": "The address of the token to retrieve the default pool for."
						},
						"returns": {
							"pool": "The default pool for the token, or the overall default pool for the token if the"
						}
					},
					"owner()": {
						"details": "Returns the address of the current owner."
					},
					"pay(uint256,address,uint256,address,uint256,string,bytes)": {
						"params": {
							"amount": "The amount of tokens being paid in, as a fixed point number with the same amount of decimals as the `token`. If `token` is the native token, `amount` is ignored and `msg.value` is used in its place.",
							"beneficiary": "The beneficiary address to pass along to the other terminal. If the other terminal mints tokens, for example, they will be minted for this address.",
							"memo": "A memo to pass along to the emitted event.",
							"metadata": "Bytes in `JBMetadataResolver`'s format which can contain a quote from the user/client. The quote should contain a minimum amount of tokens to receive from the swap and the pool to use. This metadata is also passed to the other terminal's emitted event, as well as its data hook and pay hook if applicable.",
							"minReturnedTokens": "The minimum number of project tokens expected in return, as a fixed point number with the same number of decimals as the other terminal. This value will be passed along to the other terminal.",
							"projectId": "The ID of the project being paid.",
							"token": "The address of the token being paid in."
						},
						"returns": {
							"_0": "The number of tokens received from the swap, as a fixed point number with the same amount of decimals as that token."
						}
					},
					"renounceOwnership()": {
						"details": "Leaves the contract without owner. It will not be possible to call `onlyOwner` functions. Can only be called by the current owner. NOTE: Renouncing ownership will leave the contract without an owner, thereby disabling any functionality that is only available to the owner."
					},
					"supportsInterface(bytes4)": {
						"details": "See {IERC165-supportsInterface}.",
						"params": {
							"interfaceId": "The ID of the interface to check for adherance to."
						},
						"returns": {
							"_0": "A flag indicating if the provided interface ID is supported."
						}
					},
					"tokenOut()": {
						"details": "If the token out is the chain native token (ETH on mainnet), JBConstants NATIVE_TOKEN is returned",
						"returns": {
							"_0": "The token that flows out of this terminal."
						}
					},
					"transferOwnership(address)": {
						"details": "Transfers ownership of the contract to a new account (`newOwner`). Can only be called by the current owner."
					},
					"twapParamsOf(uint256,address)": {
						"params": {
							"projectId": "The ID of the project to retrieve TWAP parameters for."
						},
						"returns": {
							"secondsAgo": "The period of time in the past to calculate the TWAP from.",
							"slippageTolerance": "The maximum allowed slippage tolerance when calculating the TWAP, as a fraction out of `SLIPPAGE_DENOMINATOR`."
						}
					},
					"uniswapV3SwapCallback(int256,int256,bytes)": {
						"details": "This function has no access control, care should be taken to ensure that:      - terminal balance is always be 0 between tx (this callback can only be used to sweep accidental leftovers)      - callback cannot pull user funds via a preexisting allowance",
						"params": {
							"amount0Delta": "The amount of token 0 being used for the swap.",
							"amount1Delta": "The amount of token 1 being used for the swap.",
							"data": "Data passed in by the swap operation."
						}
					}
				},
				"version": 1
			},
			"userdoc": {
				"kind": "user",
				"methods": {
					"DEFAULT_PROJECT_ID()": {
						"notice": "The ID to store default values in."
					},
					"DIRECTORY()": {
						"notice": "The directory of terminals and controllers for `PROJECTS`."
					},
					"PERMISSIONS()": {
						"notice": "A contract storing permissions."
					},
					"PERMIT2()": {
						"notice": "The permit2 utility."
					},
					"PROJECTS()": {
						"notice": "Mints ERC-721s that represent project ownership and transfers."
					},
					"SLIPPAGE_DENOMINATOR()": {
						"notice": "The denominator used when calculating TWAP slippage tolerance values."
					},
					"WETH()": {
						"notice": "The ERC-20 wrapper for the native token."
					},
					"accountingContextForTokenOf(uint256,address)": {
						"notice": "Get the accounting context for the specified project ID and token."
					},
					"accountingContextsOf(uint256)": {
						"notice": "Return all the accounting contexts for a specified project ID."
					},
					"addAccountingContextsFor(uint256,address[])": {
						"notice": "Empty implementation to satisfy the interface. Accounting contexts are set in `addDefaultPool(...)`."
					},
					"addDefaultPool(uint256,address,address)": {
						"notice": "Set a project's default pool and accounting context for the specified token. Only the project's owner, an address with `MODIFY_DEFAULT_POOL` permission from the owner or the terminal owner can call this function."
					},
					"addToBalanceOf(uint256,address,uint256,bool,string,bytes)": {
						"notice": "Accepts funds for a given project, swaps them if necessary, and adds them to the project's balance in the specified terminal."
					},
					"addTwapParamsFor(uint256,address,uint32,uint160)": {
						"notice": "Set the specified project's rules for calculating a quote based on the TWAP. Only the project's owner or an address with `MODIFY_TWAP_PARAMS` permission from the owner  or the terminal owner can call this function."
					},
					"currentSurplusOf(uint256,uint256,uint256)": {
						"notice": "Empty implementation to satisfy the interface. This terminal has no surplus."
					},
					"getPoolFor(uint256,address)": {
						"notice": "Returns the default pool for a given project and token or, if a project has no default pool for the         token, the overal default pool for the token"
					},
					"migrateBalanceOf(uint256,address,address)": {
						"notice": "Empty implementation to satisfy the interface."
					},
					"pay(uint256,address,uint256,address,uint256,string,bytes)": {
						"notice": "Pay a project by swapping the incoming tokens for tokens that one of the project's other terminals accepts, passing along the funds received from the swap and the specified parameters."
					},
					"supportsInterface(bytes4)": {
						"notice": "Indicates if this contract adheres to the specified interface."
					},
					"tokenOut()": {
						"notice": "Returns the token that flows out of this terminal."
					},
					"twapParamsOf(uint256,address)": {
						"notice": "Returns the default twap parameters for a given pool project."
					},
					"uniswapV3SwapCallback(int256,int256,bytes)": {
						"notice": "The Uniswap v3 pool callback where the token transfer is expected to happen."
					}
				},
				"version": 1
			},
			"gitCommit": "4430beccfd5cfcbb2f38975c2612bce42366c8a9",
			"sourceName": "src/JBSwapTerminal.sol",
			"chainId": "11155111",
			"linkReferences": {},
			"deployedLinkReferences": {}
		},
		{
			"_format": "sphinx-sol-ct-artifact-1",
			"merkleRoot": "0xc558e1247e233416b4fc13304eabec5e684daebff4286622c105413baa12effe",
			"contractName": "JBSwapTerminal",
			"address": "0x615A3b0c025C17F7bc1955d57187F4CCb0814a72",
			"abi": [
				{
					"type": "constructor",
					"inputs": [
						{
							"name": "projects",
							"type": "address",
							"internalType": "contract IJBProjects"
						},
						{
							"name": "permissions",
							"type": "address",
							"internalType": "contract IJBPermissions"
						},
						{
							"name": "directory",
							"type": "address",
							"internalType": "contract IJBDirectory"
						},
						{
							"name": "permit2",
							"type": "address",
							"internalType": "contract IPermit2"
						},
						{
							"name": "_owner",
							"type": "address",
							"internalType": "address"
						},
						{
							"name": "weth",
							"type": "address",
							"internalType": "contract IWETH9"
						},
						{
							"name": "_tokenOut",
							"type": "address",
							"internalType": "address"
						}
					],
					"stateMutability": "nonpayable"
				},
				{
					"type": "receive",
					"stateMutability": "payable"
				},
				{
					"type": "function",
					"name": "DEFAULT_PROJECT_ID",
					"inputs": [],
					"outputs": [
						{
							"name": "",
							"type": "uint256",
							"internalType": "uint256"
						}
					],
					"stateMutability": "view"
				},
				{
					"type": "function",
					"name": "DIRECTORY",
					"inputs": [],
					"outputs": [
						{
							"name": "",
							"type": "address",
							"internalType": "contract IJBDirectory"
						}
					],
					"stateMutability": "view"
				},
				{
					"type": "function",
					"name": "PERMISSIONS",
					"inputs": [],
					"outputs": [
						{
							"name": "",
							"type": "address",
							"internalType": "contract IJBPermissions"
						}
					],
					"stateMutability": "view"
				},
				{
					"type": "function",
					"name": "PERMIT2",
					"inputs": [],
					"outputs": [
						{
							"name": "",
							"type": "address",
							"internalType": "contract IPermit2"
						}
					],
					"stateMutability": "view"
				},
				{
					"type": "function",
					"name": "PROJECTS",
					"inputs": [],
					"outputs": [
						{
							"name": "",
							"type": "address",
							"internalType": "contract IJBProjects"
						}
					],
					"stateMutability": "view"
				},
				{
					"type": "function",
					"name": "SLIPPAGE_DENOMINATOR",
					"inputs": [],
					"outputs": [
						{
							"name": "",
							"type": "uint160",
							"internalType": "uint160"
						}
					],
					"stateMutability": "view"
				},
				{
					"type": "function",
					"name": "WETH",
					"inputs": [],
					"outputs": [
						{
							"name": "",
							"type": "address",
							"internalType": "contract IWETH9"
						}
					],
					"stateMutability": "view"
				},
				{
					"type": "function",
					"name": "accountingContextForTokenOf",
					"inputs": [
						{
							"name": "projectId",
							"type": "uint256",
							"internalType": "uint256"
						},
						{
							"name": "token",
							"type": "address",
							"internalType": "address"
						}
					],
					"outputs": [
						{
							"name": "",
							"type": "tuple",
							"internalType": "struct JBAccountingContext",
							"components": [
								{
									"name": "token",
									"type": "address",
									"internalType": "address"
								},
								{
									"name": "decimals",
									"type": "uint8",
									"internalType": "uint8"
								},
								{
									"name": "currency",
									"type": "uint32",
									"internalType": "uint32"
								}
							]
						}
					],
					"stateMutability": "view"
				},
				{
					"type": "function",
					"name": "accountingContextsOf",
					"inputs": [
						{
							"name": "projectId",
							"type": "uint256",
							"internalType": "uint256"
						}
					],
					"outputs": [
						{
							"name": "",
							"type": "tuple[]",
							"internalType": "struct JBAccountingContext[]",
							"components": [
								{
									"name": "token",
									"type": "address",
									"internalType": "address"
								},
								{
									"name": "decimals",
									"type": "uint8",
									"internalType": "uint8"
								},
								{
									"name": "currency",
									"type": "uint32",
									"internalType": "uint32"
								}
							]
						}
					],
					"stateMutability": "view"
				},
				{
					"type": "function",
					"name": "addAccountingContextsFor",
					"inputs": [
						{
							"name": "projectId",
							"type": "uint256",
							"internalType": "uint256"
						},
						{
							"name": "tokens",
							"type": "address[]",
							"internalType": "address[]"
						}
					],
					"outputs": [],
					"stateMutability": "nonpayable"
				},
				{
					"type": "function",
					"name": "addDefaultPool",
					"inputs": [
						{
							"name": "projectId",
							"type": "uint256",
							"internalType": "uint256"
						},
						{
							"name": "token",
							"type": "address",
							"internalType": "address"
						},
						{
							"name": "pool",
							"type": "address",
							"internalType": "contract IUniswapV3Pool"
						}
					],
					"outputs": [],
					"stateMutability": "nonpayable"
				},
				{
					"type": "function",
					"name": "addToBalanceOf",
					"inputs": [
						{
							"name": "projectId",
							"type": "uint256",
							"internalType": "uint256"
						},
						{
							"name": "token",
							"type": "address",
							"internalType": "address"
						},
						{
							"name": "amount",
							"type": "uint256",
							"internalType": "uint256"
						},
						{
							"name": "shouldReturnHeldFees",
							"type": "bool",
							"internalType": "bool"
						},
						{
							"name": "memo",
							"type": "string",
							"internalType": "string"
						},
						{
							"name": "metadata",
							"type": "bytes",
							"internalType": "bytes"
						}
					],
					"outputs": [],
					"stateMutability": "payable"
				},
				{
					"type": "function",
					"name": "addTwapParamsFor",
					"inputs": [
						{
							"name": "projectId",
							"type": "uint256",
							"internalType": "uint256"
						},
						{
							"name": "pool",
							"type": "address",
							"internalType": "contract IUniswapV3Pool"
						},
						{
							"name": "secondsAgo",
							"type": "uint32",
							"internalType": "uint32"
						},
						{
							"name": "slippageTolerance",
							"type": "uint160",
							"internalType": "uint160"
						}
					],
					"outputs": [],
					"stateMutability": "nonpayable"
				},
				{
					"type": "function",
					"name": "currentSurplusOf",
					"inputs": [
						{
							"name": "projectId",
							"type": "uint256",
							"internalType": "uint256"
						},
						{
							"name": "decimals",
							"type": "uint256",
							"internalType": "uint256"
						},
						{
							"name": "currency",
							"type": "uint256",
							"internalType": "uint256"
						}
					],
					"outputs": [
						{
							"name": "",
							"type": "uint256",
							"internalType": "uint256"
						}
					],
					"stateMutability": "view"
				},
				{
					"type": "function",
					"name": "getPoolFor",
					"inputs": [
						{
							"name": "projectId",
							"type": "uint256",
							"internalType": "uint256"
						},
						{
							"name": "tokenIn",
							"type": "address",
							"internalType": "address"
						}
					],
					"outputs": [
						{
							"name": "pool",
							"type": "address",
							"internalType": "contract IUniswapV3Pool"
						},
						{
							"name": "zeroForOne",
							"type": "bool",
							"internalType": "bool"
						}
					],
					"stateMutability": "view"
				},
				{
					"type": "function",
					"name": "migrateBalanceOf",
					"inputs": [
						{
							"name": "projectId",
							"type": "uint256",
							"internalType": "uint256"
						},
						{
							"name": "token",
							"type": "address",
							"internalType": "address"
						},
						{
							"name": "to",
							"type": "address",
							"internalType": "contract IJBTerminal"
						}
					],
					"outputs": [
						{
							"name": "balance",
							"type": "uint256",
							"internalType": "uint256"
						}
					],
					"stateMutability": "nonpayable"
				},
				{
					"type": "function",
					"name": "owner",
					"inputs": [],
					"outputs": [
						{
							"name": "",
							"type": "address",
							"internalType": "address"
						}
					],
					"stateMutability": "view"
				},
				{
					"type": "function",
					"name": "pay",
					"inputs": [
						{
							"name": "projectId",
							"type": "uint256",
							"internalType": "uint256"
						},
						{
							"name": "token",
							"type": "address",
							"internalType": "address"
						},
						{
							"name": "amount",
							"type": "uint256",
							"internalType": "uint256"
						},
						{
							"name": "beneficiary",
							"type": "address",
							"internalType": "address"
						},
						{
							"name": "minReturnedTokens",
							"type": "uint256",
							"internalType": "uint256"
						},
						{
							"name": "memo",
							"type": "string",
							"internalType": "string"
						},
						{
							"name": "metadata",
							"type": "bytes",
							"internalType": "bytes"
						}
					],
					"outputs": [
						{
							"name": "",
							"type": "uint256",
							"internalType": "uint256"
						}
					],
					"stateMutability": "payable"
				},
				{
					"type": "function",
					"name": "renounceOwnership",
					"inputs": [],
					"outputs": [],
					"stateMutability": "nonpayable"
				},
				{
					"type": "function",
					"name": "supportsInterface",
					"inputs": [
						{
							"name": "interfaceId",
							"type": "bytes4",
							"internalType": "bytes4"
						}
					],
					"outputs": [
						{
							"name": "",
							"type": "bool",
							"internalType": "bool"
						}
					],
					"stateMutability": "view"
				},
				{
					"type": "function",
					"name": "tokenOut",
					"inputs": [],
					"outputs": [
						{
							"name": "",
							"type": "address",
							"internalType": "address"
						}
					],
					"stateMutability": "view"
				},
				{
					"type": "function",
					"name": "transferOwnership",
					"inputs": [
						{
							"name": "newOwner",
							"type": "address",
							"internalType": "address"
						}
					],
					"outputs": [],
					"stateMutability": "nonpayable"
				},
				{
					"type": "function",
					"name": "twapParamsOf",
					"inputs": [
						{
							"name": "projectId",
							"type": "uint256",
							"internalType": "uint256"
						},
						{
							"name": "pool",
							"type": "address",
							"internalType": "contract IUniswapV3Pool"
						}
					],
					"outputs": [
						{
							"name": "secondsAgo",
							"type": "uint32",
							"internalType": "uint32"
						},
						{
							"name": "slippageTolerance",
							"type": "uint160",
							"internalType": "uint160"
						}
					],
					"stateMutability": "view"
				},
				{
					"type": "function",
					"name": "uniswapV3SwapCallback",
					"inputs": [
						{
							"name": "amount0Delta",
							"type": "int256",
							"internalType": "int256"
						},
						{
							"name": "amount1Delta",
							"type": "int256",
							"internalType": "int256"
						},
						{
							"name": "data",
							"type": "bytes",
							"internalType": "bytes"
						}
					],
					"outputs": [],
					"stateMutability": "nonpayable"
				},
				{
					"type": "event",
					"name": "AddToBalance",
					"inputs": [
						{
							"name": "projectId",
							"type": "uint256",
							"indexed": true,
							"internalType": "uint256"
						},
						{
							"name": "amount",
							"type": "uint256",
							"indexed": false,
							"internalType": "uint256"
						},
						{
							"name": "unlockedFees",
							"type": "uint256",
							"indexed": false,
							"internalType": "uint256"
						},
						{
							"name": "memo",
							"type": "string",
							"indexed": false,
							"internalType": "string"
						},
						{
							"name": "metadata",
							"type": "bytes",
							"indexed": false,
							"internalType": "bytes"
						},
						{
							"name": "caller",
							"type": "address",
							"indexed": false,
							"internalType": "address"
						}
					],
					"anonymous": false
				},
				{
					"type": "event",
					"name": "HookAfterRecordPay",
					"inputs": [
						{
							"name": "hook",
							"type": "address",
							"indexed": true,
							"internalType": "contract IJBPayHook"
						},
						{
							"name": "context",
							"type": "tuple",
							"indexed": false,
							"internalType": "struct JBAfterPayRecordedContext",
							"components": [
								{
									"name": "payer",
									"type": "address",
									"internalType": "address"
								},
								{
									"name": "projectId",
									"type": "uint256",
									"internalType": "uint256"
								},
								{
									"name": "rulesetId",
									"type": "uint256",
									"internalType": "uint256"
								},
								{
									"name": "amount",
									"type": "tuple",
									"internalType": "struct JBTokenAmount",
									"components": [
										{
											"name": "token",
											"type": "address",
											"internalType": "address"
										},
										{
											"name": "value",
											"type": "uint256",
											"internalType": "uint256"
										},
										{
											"name": "decimals",
											"type": "uint256",
											"internalType": "uint256"
										},
										{
											"name": "currency",
											"type": "uint256",
											"internalType": "uint256"
										}
									]
								},
								{
									"name": "forwardedAmount",
									"type": "tuple",
									"internalType": "struct JBTokenAmount",
									"components": [
										{
											"name": "token",
											"type": "address",
											"internalType": "address"
										},
										{
											"name": "value",
											"type": "uint256",
											"internalType": "uint256"
										},
										{
											"name": "decimals",
											"type": "uint256",
											"internalType": "uint256"
										},
										{
											"name": "currency",
											"type": "uint256",
											"internalType": "uint256"
										}
									]
								},
								{
									"name": "weight",
									"type": "uint256",
									"internalType": "uint256"
								},
								{
									"name": "projectTokenCount",
									"type": "uint256",
									"internalType": "uint256"
								},
								{
									"name": "beneficiary",
									"type": "address",
									"internalType": "address"
								},
								{
									"name": "hookMetadata",
									"type": "bytes",
									"internalType": "bytes"
								},
								{
									"name": "payerMetadata",
									"type": "bytes",
									"internalType": "bytes"
								}
							]
						},
						{
							"name": "specificationAmount",
							"type": "uint256",
							"indexed": false,
							"internalType": "uint256"
						},
						{
							"name": "caller",
							"type": "address",
							"indexed": false,
							"internalType": "address"
						}
					],
					"anonymous": false
				},
				{
					"type": "event",
					"name": "MigrateTerminal",
					"inputs": [
						{
							"name": "projectId",
							"type": "uint256",
							"indexed": true,
							"internalType": "uint256"
						},
						{
							"name": "token",
							"type": "address",
							"indexed": true,
							"internalType": "address"
						},
						{
							"name": "to",
							"type": "address",
							"indexed": true,
							"internalType": "contract IJBTerminal"
						},
						{
							"name": "amount",
							"type": "uint256",
							"indexed": false,
							"internalType": "uint256"
						},
						{
							"name": "caller",
							"type": "address",
							"indexed": false,
							"internalType": "address"
						}
					],
					"anonymous": false
				},
				{
					"type": "event",
					"name": "OwnershipTransferred",
					"inputs": [
						{
							"name": "previousOwner",
							"type": "address",
							"indexed": true,
							"internalType": "address"
						},
						{
							"name": "newOwner",
							"type": "address",
							"indexed": true,
							"internalType": "address"
						}
					],
					"anonymous": false
				},
				{
					"type": "event",
					"name": "Pay",
					"inputs": [
						{
							"name": "rulesetId",
							"type": "uint256",
							"indexed": true,
							"internalType": "uint256"
						},
						{
							"name": "rulesetCycleNumber",
							"type": "uint256",
							"indexed": true,
							"internalType": "uint256"
						},
						{
							"name": "projectId",
							"type": "uint256",
							"indexed": true,
							"internalType": "uint256"
						},
						{
							"name": "payer",
							"type": "address",
							"indexed": false,
							"internalType": "address"
						},
						{
							"name": "beneficiary",
							"type": "address",
							"indexed": false,
							"internalType": "address"
						},
						{
							"name": "amount",
							"type": "uint256",
							"indexed": false,
							"internalType": "uint256"
						},
						{
							"name": "beneficiaryTokenCount",
							"type": "uint256",
							"indexed": false,
							"internalType": "uint256"
						},
						{
							"name": "memo",
							"type": "string",
							"indexed": false,
							"internalType": "string"
						},
						{
							"name": "metadata",
							"type": "bytes",
							"indexed": false,
							"internalType": "bytes"
						},
						{
							"name": "caller",
							"type": "address",
							"indexed": false,
							"internalType": "address"
						}
					],
					"anonymous": false
				},
				{
					"type": "event",
					"name": "SetAccountingContext",
					"inputs": [
						{
							"name": "projectId",
							"type": "uint256",
							"indexed": true,
							"internalType": "uint256"
						},
						{
							"name": "token",
							"type": "address",
							"indexed": true,
							"internalType": "address"
						},
						{
							"name": "context",
							"type": "tuple",
							"indexed": false,
							"internalType": "struct JBAccountingContext",
							"components": [
								{
									"name": "token",
									"type": "address",
									"internalType": "address"
								},
								{
									"name": "decimals",
									"type": "uint8",
									"internalType": "uint8"
								},
								{
									"name": "currency",
									"type": "uint32",
									"internalType": "uint32"
								}
							]
						},
						{
							"name": "caller",
							"type": "address",
							"indexed": false,
							"internalType": "address"
						}
					],
					"anonymous": false
				},
				{
					"type": "error",
					"name": "AddressEmptyCode",
					"inputs": [
						{
							"name": "target",
							"type": "address",
							"internalType": "address"
						}
					]
				},
				{
					"type": "error",
					"name": "AddressInsufficientBalance",
					"inputs": [
						{
							"name": "account",
							"type": "address",
							"internalType": "address"
						}
					]
				},
				{
					"type": "error",
					"name": "FailedInnerCall",
					"inputs": []
				},
				{
					"type": "error",
					"name": "MAX_SLIPPAGE",
					"inputs": [
						{
							"name": "",
							"type": "uint256",
							"internalType": "uint256"
						},
						{
							"name": "",
							"type": "uint256",
							"internalType": "uint256"
						}
					]
				},
				{
					"type": "error",
					"name": "NO_DEFAULT_POOL_DEFINED",
					"inputs": []
				},
				{
					"type": "error",
					"name": "NO_MSG_VALUE_ALLOWED",
					"inputs": []
				},
				{
					"type": "error",
					"name": "OwnableInvalidOwner",
					"inputs": [
						{
							"name": "owner",
							"type": "address",
							"internalType": "address"
						}
					]
				},
				{
					"type": "error",
					"name": "OwnableUnauthorizedAccount",
					"inputs": [
						{
							"name": "account",
							"type": "address",
							"internalType": "address"
						}
					]
				},
				{
					"type": "error",
					"name": "PERMIT_ALLOWANCE_NOT_ENOUGH",
					"inputs": []
				},
				{
					"type": "error",
					"name": "SafeERC20FailedOperation",
					"inputs": [
						{
							"name": "token",
							"type": "address",
							"internalType": "address"
						}
					]
				},
				{
					"type": "error",
					"name": "T",
					"inputs": []
				},
				{
					"type": "error",
					"name": "TOKEN_NOT_ACCEPTED",
					"inputs": []
				},
				{
					"type": "error",
					"name": "UNAUTHORIZED",
					"inputs": []
				},
				{
					"type": "error",
					"name": "UNSUPPORTED",
					"inputs": []
				}
			],
			"solcInputHash": "c3bd09ad52de6e921037092b6490af6b",
			"receipt": {
				"blockHash": "0xfd894e986842add24094b37a73302d667ba73834cb2375183ab5d2dbc2186333",
				"blockNumber": 5671523,
				"contractAddress": null,
				"cumulativeGasUsed": "14575999",
				"from": "0xC034550B542b83BA1De312b21d1C94a9a52B1595",
				"gasPrice": "1000463114",
				"gasUsed": "3435773",
				"hash": "0x462e7a0ce4d9263b3326ad4a3b64d2a9f54138793bb7b899adb3563a71fcf402",
				"index": 87,
				"logs": [
					{
						"address": "0xB5E96127D417b1B3ef8438496a38A143167209c7",
						"blockHash": "0xfd894e986842add24094b37a73302d667ba73834cb2375183ab5d2dbc2186333",
						"blockNumber": 5671523,
						"data": "0x0000000000000000000000000000000000000000000000000000000000000000",
						"index": 110,
						"topics": [
							"0x572f161235911da04685a68c06adf558fc7e4a36909dca394650e0adc19cc93d",
							"0x000000000000000000000000c034550b542b83ba1de312b21d1c94a9a52b1595",
							"0x0000000000000000000000003f6eb31c3cafeb9163d09242a27d52e8cca6fa73",
							"0x1c82cec298001606c107d2a2d53ecef79b8281af9e81e0e920b945593306e4ec"
						],
						"transactionHash": "0x462e7a0ce4d9263b3326ad4a3b64d2a9f54138793bb7b899adb3563a71fcf402",
						"transactionIndex": 87
					},
					{
						"address": "0x615A3b0c025C17F7bc1955d57187F4CCb0814a72",
						"blockHash": "0xfd894e986842add24094b37a73302d667ba73834cb2375183ab5d2dbc2186333",
						"blockNumber": 5671523,
						"data": "0x",
						"index": 111,
						"topics": [
							"0x8be0079c531659141344cd1fd0a4f28419497f9722a3daafe3b4186f6b6457e0",
							"0x0000000000000000000000000000000000000000000000000000000000000000",
							"0x000000000000000000000000823b92d6a4b2aed4b15675c7917c9f922ea8adad"
						],
						"transactionHash": "0x462e7a0ce4d9263b3326ad4a3b64d2a9f54138793bb7b899adb3563a71fcf402",
						"transactionIndex": 87
					},
					{
						"address": "0x21CD04c712ca1206baE783EC9B715361DfC28026",
						"blockHash": "0xfd894e986842add24094b37a73302d667ba73834cb2375183ab5d2dbc2186333",
						"blockNumber": 5671523,
						"data": "0x",
						"index": 112,
						"topics": [
							"0x6895c13664aa4f67288b25d7a21d7aaa34916e355fb9b6fae0a139a9085becb8",
							"0x0000000000000000000000003f6eb31c3cafeb9163d09242a27d52e8cca6fa73"
						],
						"transactionHash": "0x462e7a0ce4d9263b3326ad4a3b64d2a9f54138793bb7b899adb3563a71fcf402",
						"transactionIndex": 87
					},
					{
						"address": "0x3f6eB31C3cAFEb9163d09242A27D52E8cCa6Fa73",
						"blockHash": "0xfd894e986842add24094b37a73302d667ba73834cb2375183ab5d2dbc2186333",
						"blockNumber": 5671523,
						"data": "0x0000000000000000000000000000000000000000000000000000000000000001",
						"index": 113,
						"topics": [
							"0xa65fb05c5808f5f389d72edeaf719ce38f4cc55c1f69ca3cbfb31c21501caa07",
							"0xc558e1247e233416b4fc13304eabec5e684daebff4286622c105413baa12effe"
						],
						"transactionHash": "0x462e7a0ce4d9263b3326ad4a3b64d2a9f54138793bb7b899adb3563a71fcf402",
						"transactionIndex": 87
					},
					{
						"address": "0x3f6eB31C3cAFEb9163d09242A27D52E8cCa6Fa73",
						"blockHash": "0xfd894e986842add24094b37a73302d667ba73834cb2375183ab5d2dbc2186333",
						"blockNumber": 5671523,
						"data": "0x",
						"index": 114,
						"topics": [
							"0x4383d976757d67ca920616be0b6430a681ea9d3dcce8d6d61d4603ca4a9bff63",
							"0xc558e1247e233416b4fc13304eabec5e684daebff4286622c105413baa12effe"
						],
						"transactionHash": "0x462e7a0ce4d9263b3326ad4a3b64d2a9f54138793bb7b899adb3563a71fcf402",
						"transactionIndex": 87
					}
				],
				"logsBloom": "0x0000000008001000000000000008000000000000000800000080000000400000000000000000000000800000014008000000000000000000000010000000000000000000000020000000000080000000000100000000000000000080000000000000200002000008000000000000080010000000000000000000000000000040000000000000000200010000000000000000000000000000000000000000000100400088001000000000000080000002020000000000008000000200000400000000000000000000000000000c000400000000000000000000000208000020000000000000000008000000000040000200000000000000000000000008000000",
				"status": 1,
				"to": "0xB5E96127D417b1B3ef8438496a38A143167209c7"
			},
			"metadata": "{\"compiler\":{\"version\":\"0.8.23+commit.f704f362\"},\"language\":\"Solidity\",\"output\":{\"abi\":[{\"inputs\":[{\"internalType\":\"contract IJBProjects\",\"name\":\"projects\",\"type\":\"address\"},{\"internalType\":\"contract IJBPermissions\",\"name\":\"permissions\",\"type\":\"address\"},{\"internalType\":\"contract IJBDirectory\",\"name\":\"directory\",\"type\":\"address\"},{\"internalType\":\"contract IPermit2\",\"name\":\"permit2\",\"type\":\"address\"},{\"internalType\":\"address\",\"name\":\"_owner\",\"type\":\"address\"},{\"internalType\":\"contract IWETH9\",\"name\":\"weth\",\"type\":\"address\"},{\"internalType\":\"address\",\"name\":\"_tokenOut\",\"type\":\"address\"}],\"stateMutability\":\"nonpayable\",\"type\":\"constructor\"},{\"inputs\":[{\"internalType\":\"address\",\"name\":\"target\",\"type\":\"address\"}],\"type\":\"error\",\"name\":\"AddressEmptyCode\"},{\"inputs\":[{\"internalType\":\"address\",\"name\":\"account\",\"type\":\"address\"}],\"type\":\"error\",\"name\":\"AddressInsufficientBalance\"},{\"inputs\":[],\"type\":\"error\",\"name\":\"FailedInnerCall\"},{\"inputs\":[{\"internalType\":\"uint256\",\"name\":\"\",\"type\":\"uint256\"},{\"internalType\":\"uint256\",\"name\":\"\",\"type\":\"uint256\"}],\"type\":\"error\",\"name\":\"MAX_SLIPPAGE\"},{\"inputs\":[],\"type\":\"error\",\"name\":\"NO_DEFAULT_POOL_DEFINED\"},{\"inputs\":[],\"type\":\"error\",\"name\":\"NO_MSG_VALUE_ALLOWED\"},{\"inputs\":[{\"internalType\":\"address\",\"name\":\"owner\",\"type\":\"address\"}],\"type\":\"error\",\"name\":\"OwnableInvalidOwner\"},{\"inputs\":[{\"internalType\":\"address\",\"name\":\"account\",\"type\":\"address\"}],\"type\":\"error\",\"name\":\"OwnableUnauthorizedAccount\"},{\"inputs\":[],\"type\":\"error\",\"name\":\"PERMIT_ALLOWANCE_NOT_ENOUGH\"},{\"inputs\":[{\"internalType\":\"address\",\"name\":\"token\",\"type\":\"address\"}],\"type\":\"error\",\"name\":\"SafeERC20FailedOperation\"},{\"inputs\":[],\"type\":\"error\",\"name\":\"T\"},{\"inputs\":[],\"type\":\"error\",\"name\":\"TOKEN_NOT_ACCEPTED\"},{\"inputs\":[],\"type\":\"error\",\"name\":\"UNAUTHORIZED\"},{\"inputs\":[],\"type\":\"error\",\"name\":\"UNSUPPORTED\"},{\"inputs\":[{\"internalType\":\"uint256\",\"name\":\"projectId\",\"type\":\"uint256\",\"indexed\":true},{\"internalType\":\"uint256\",\"name\":\"amount\",\"type\":\"uint256\",\"indexed\":false},{\"internalType\":\"uint256\",\"name\":\"unlockedFees\",\"type\":\"uint256\",\"indexed\":false},{\"internalType\":\"string\",\"name\":\"memo\",\"type\":\"string\",\"indexed\":false},{\"internalType\":\"bytes\",\"name\":\"metadata\",\"type\":\"bytes\",\"indexed\":false},{\"internalType\":\"address\",\"name\":\"caller\",\"type\":\"address\",\"indexed\":false}],\"type\":\"event\",\"name\":\"AddToBalance\",\"anonymous\":false},{\"inputs\":[{\"internalType\":\"contract IJBPayHook\",\"name\":\"hook\",\"type\":\"address\",\"indexed\":true},{\"internalType\":\"struct JBAfterPayRecordedContext\",\"name\":\"context\",\"type\":\"tuple\",\"components\":[{\"internalType\":\"address\",\"name\":\"payer\",\"type\":\"address\"},{\"internalType\":\"uint256\",\"name\":\"projectId\",\"type\":\"uint256\"},{\"internalType\":\"uint256\",\"name\":\"rulesetId\",\"type\":\"uint256\"},{\"internalType\":\"struct JBTokenAmount\",\"name\":\"amount\",\"type\":\"tuple\",\"components\":[{\"internalType\":\"address\",\"name\":\"token\",\"type\":\"address\"},{\"internalType\":\"uint256\",\"name\":\"value\",\"type\":\"uint256\"},{\"internalType\":\"uint256\",\"name\":\"decimals\",\"type\":\"uint256\"},{\"internalType\":\"uint256\",\"name\":\"currency\",\"type\":\"uint256\"}]},{\"internalType\":\"struct JBTokenAmount\",\"name\":\"forwardedAmount\",\"type\":\"tuple\",\"components\":[{\"internalType\":\"address\",\"name\":\"token\",\"type\":\"address\"},{\"internalType\":\"uint256\",\"name\":\"value\",\"type\":\"uint256\"},{\"internalType\":\"uint256\",\"name\":\"decimals\",\"type\":\"uint256\"},{\"internalType\":\"uint256\",\"name\":\"currency\",\"type\":\"uint256\"}]},{\"internalType\":\"uint256\",\"name\":\"weight\",\"type\":\"uint256\"},{\"internalType\":\"uint256\",\"name\":\"projectTokenCount\",\"type\":\"uint256\"},{\"internalType\":\"address\",\"name\":\"beneficiary\",\"type\":\"address\"},{\"internalType\":\"bytes\",\"name\":\"hookMetadata\",\"type\":\"bytes\"},{\"internalType\":\"bytes\",\"name\":\"payerMetadata\",\"type\":\"bytes\"}],\"indexed\":false},{\"internalType\":\"uint256\",\"name\":\"specificationAmount\",\"type\":\"uint256\",\"indexed\":false},{\"internalType\":\"address\",\"name\":\"caller\",\"type\":\"address\",\"indexed\":false}],\"type\":\"event\",\"name\":\"HookAfterRecordPay\",\"anonymous\":false},{\"inputs\":[{\"internalType\":\"uint256\",\"name\":\"projectId\",\"type\":\"uint256\",\"indexed\":true},{\"internalType\":\"address\",\"name\":\"token\",\"type\":\"address\",\"indexed\":true},{\"internalType\":\"contract IJBTerminal\",\"name\":\"to\",\"type\":\"address\",\"indexed\":true},{\"internalType\":\"uint256\",\"name\":\"amount\",\"type\":\"uint256\",\"indexed\":false},{\"internalType\":\"address\",\"name\":\"caller\",\"type\":\"address\",\"indexed\":false}],\"type\":\"event\",\"name\":\"MigrateTerminal\",\"anonymous\":false},{\"inputs\":[{\"internalType\":\"address\",\"name\":\"previousOwner\",\"type\":\"address\",\"indexed\":true},{\"internalType\":\"address\",\"name\":\"newOwner\",\"type\":\"address\",\"indexed\":true}],\"type\":\"event\",\"name\":\"OwnershipTransferred\",\"anonymous\":false},{\"inputs\":[{\"internalType\":\"uint256\",\"name\":\"rulesetId\",\"type\":\"uint256\",\"indexed\":true},{\"internalType\":\"uint256\",\"name\":\"rulesetCycleNumber\",\"type\":\"uint256\",\"indexed\":true},{\"internalType\":\"uint256\",\"name\":\"projectId\",\"type\":\"uint256\",\"indexed\":true},{\"internalType\":\"address\",\"name\":\"payer\",\"type\":\"address\",\"indexed\":false},{\"internalType\":\"address\",\"name\":\"beneficiary\",\"type\":\"address\",\"indexed\":false},{\"internalType\":\"uint256\",\"name\":\"amount\",\"type\":\"uint256\",\"indexed\":false},{\"internalType\":\"uint256\",\"name\":\"beneficiaryTokenCount\",\"type\":\"uint256\",\"indexed\":false},{\"internalType\":\"string\",\"name\":\"memo\",\"type\":\"string\",\"indexed\":false},{\"internalType\":\"bytes\",\"name\":\"metadata\",\"type\":\"bytes\",\"indexed\":false},{\"internalType\":\"address\",\"name\":\"caller\",\"type\":\"address\",\"indexed\":false}],\"type\":\"event\",\"name\":\"Pay\",\"anonymous\":false},{\"inputs\":[{\"internalType\":\"uint256\",\"name\":\"projectId\",\"type\":\"uint256\",\"indexed\":true},{\"internalType\":\"address\",\"name\":\"token\",\"type\":\"address\",\"indexed\":true},{\"internalType\":\"struct JBAccountingContext\",\"name\":\"context\",\"type\":\"tuple\",\"components\":[{\"internalType\":\"address\",\"name\":\"token\",\"type\":\"address\"},{\"internalType\":\"uint8\",\"name\":\"decimals\",\"type\":\"uint8\"},{\"internalType\":\"uint32\",\"name\":\"currency\",\"type\":\"uint32\"}],\"indexed\":false},{\"internalType\":\"address\",\"name\":\"caller\",\"type\":\"address\",\"indexed\":false}],\"type\":\"event\",\"name\":\"SetAccountingContext\",\"anonymous\":false},{\"inputs\":[],\"stateMutability\":\"view\",\"type\":\"function\",\"name\":\"DEFAULT_PROJECT_ID\",\"outputs\":[{\"internalType\":\"uint256\",\"name\":\"\",\"type\":\"uint256\"}]},{\"inputs\":[],\"stateMutability\":\"view\",\"type\":\"function\",\"name\":\"DIRECTORY\",\"outputs\":[{\"internalType\":\"contract IJBDirectory\",\"name\":\"\",\"type\":\"address\"}]},{\"inputs\":[],\"stateMutability\":\"view\",\"type\":\"function\",\"name\":\"PERMISSIONS\",\"outputs\":[{\"internalType\":\"contract IJBPermissions\",\"name\":\"\",\"type\":\"address\"}]},{\"inputs\":[],\"stateMutability\":\"view\",\"type\":\"function\",\"name\":\"PERMIT2\",\"outputs\":[{\"internalType\":\"contract IPermit2\",\"name\":\"\",\"type\":\"address\"}]},{\"inputs\":[],\"stateMutability\":\"view\",\"type\":\"function\",\"name\":\"PROJECTS\",\"outputs\":[{\"internalType\":\"contract IJBProjects\",\"name\":\"\",\"type\":\"address\"}]},{\"inputs\":[],\"stateMutability\":\"view\",\"type\":\"function\",\"name\":\"SLIPPAGE_DENOMINATOR\",\"outputs\":[{\"internalType\":\"uint160\",\"name\":\"\",\"type\":\"uint160\"}]},{\"inputs\":[],\"stateMutability\":\"view\",\"type\":\"function\",\"name\":\"WETH\",\"outputs\":[{\"internalType\":\"contract IWETH9\",\"name\":\"\",\"type\":\"address\"}]},{\"inputs\":[{\"internalType\":\"uint256\",\"name\":\"projectId\",\"type\":\"uint256\"},{\"internalType\":\"address\",\"name\":\"token\",\"type\":\"address\"}],\"stateMutability\":\"view\",\"type\":\"function\",\"name\":\"accountingContextForTokenOf\",\"outputs\":[{\"internalType\":\"struct JBAccountingContext\",\"name\":\"\",\"type\":\"tuple\",\"components\":[{\"internalType\":\"address\",\"name\":\"token\",\"type\":\"address\"},{\"internalType\":\"uint8\",\"name\":\"decimals\",\"type\":\"uint8\"},{\"internalType\":\"uint32\",\"name\":\"currency\",\"type\":\"uint32\"}]}]},{\"inputs\":[{\"internalType\":\"uint256\",\"name\":\"projectId\",\"type\":\"uint256\"}],\"stateMutability\":\"view\",\"type\":\"function\",\"name\":\"accountingContextsOf\",\"outputs\":[{\"internalType\":\"struct JBAccountingContext[]\",\"name\":\"\",\"type\":\"tuple[]\",\"components\":[{\"internalType\":\"address\",\"name\":\"token\",\"type\":\"address\"},{\"internalType\":\"uint8\",\"name\":\"decimals\",\"type\":\"uint8\"},{\"internalType\":\"uint32\",\"name\":\"currency\",\"type\":\"uint32\"}]}]},{\"inputs\":[{\"internalType\":\"uint256\",\"name\":\"projectId\",\"type\":\"uint256\"},{\"internalType\":\"address[]\",\"name\":\"tokens\",\"type\":\"address[]\"}],\"stateMutability\":\"nonpayable\",\"type\":\"function\",\"name\":\"addAccountingContextsFor\"},{\"inputs\":[{\"internalType\":\"uint256\",\"name\":\"projectId\",\"type\":\"uint256\"},{\"internalType\":\"address\",\"name\":\"token\",\"type\":\"address\"},{\"internalType\":\"contract IUniswapV3Pool\",\"name\":\"pool\",\"type\":\"address\"}],\"stateMutability\":\"nonpayable\",\"type\":\"function\",\"name\":\"addDefaultPool\"},{\"inputs\":[{\"internalType\":\"uint256\",\"name\":\"projectId\",\"type\":\"uint256\"},{\"internalType\":\"address\",\"name\":\"token\",\"type\":\"address\"},{\"internalType\":\"uint256\",\"name\":\"amount\",\"type\":\"uint256\"},{\"internalType\":\"bool\",\"name\":\"shouldReturnHeldFees\",\"type\":\"bool\"},{\"internalType\":\"string\",\"name\":\"memo\",\"type\":\"string\"},{\"internalType\":\"bytes\",\"name\":\"metadata\",\"type\":\"bytes\"}],\"stateMutability\":\"payable\",\"type\":\"function\",\"name\":\"addToBalanceOf\"},{\"inputs\":[{\"internalType\":\"uint256\",\"name\":\"projectId\",\"type\":\"uint256\"},{\"internalType\":\"contract IUniswapV3Pool\",\"name\":\"pool\",\"type\":\"address\"},{\"internalType\":\"uint32\",\"name\":\"secondsAgo\",\"type\":\"uint32\"},{\"internalType\":\"uint160\",\"name\":\"slippageTolerance\",\"type\":\"uint160\"}],\"stateMutability\":\"nonpayable\",\"type\":\"function\",\"name\":\"addTwapParamsFor\"},{\"inputs\":[{\"internalType\":\"uint256\",\"name\":\"projectId\",\"type\":\"uint256\"},{\"internalType\":\"uint256\",\"name\":\"decimals\",\"type\":\"uint256\"},{\"internalType\":\"uint256\",\"name\":\"currency\",\"type\":\"uint256\"}],\"stateMutability\":\"view\",\"type\":\"function\",\"name\":\"currentSurplusOf\",\"outputs\":[{\"internalType\":\"uint256\",\"name\":\"\",\"type\":\"uint256\"}]},{\"inputs\":[{\"internalType\":\"uint256\",\"name\":\"projectId\",\"type\":\"uint256\"},{\"internalType\":\"address\",\"name\":\"tokenIn\",\"type\":\"address\"}],\"stateMutability\":\"view\",\"type\":\"function\",\"name\":\"getPoolFor\",\"outputs\":[{\"internalType\":\"contract IUniswapV3Pool\",\"name\":\"pool\",\"type\":\"address\"},{\"internalType\":\"bool\",\"name\":\"zeroForOne\",\"type\":\"bool\"}]},{\"inputs\":[{\"internalType\":\"uint256\",\"name\":\"projectId\",\"type\":\"uint256\"},{\"internalType\":\"address\",\"name\":\"token\",\"type\":\"address\"},{\"internalType\":\"contract IJBTerminal\",\"name\":\"to\",\"type\":\"address\"}],\"stateMutability\":\"nonpayable\",\"type\":\"function\",\"name\":\"migrateBalanceOf\",\"outputs\":[{\"internalType\":\"uint256\",\"name\":\"balance\",\"type\":\"uint256\"}]},{\"inputs\":[],\"stateMutability\":\"view\",\"type\":\"function\",\"name\":\"owner\",\"outputs\":[{\"internalType\":\"address\",\"name\":\"\",\"type\":\"address\"}]},{\"inputs\":[{\"internalType\":\"uint256\",\"name\":\"projectId\",\"type\":\"uint256\"},{\"internalType\":\"address\",\"name\":\"token\",\"type\":\"address\"},{\"internalType\":\"uint256\",\"name\":\"amount\",\"type\":\"uint256\"},{\"internalType\":\"address\",\"name\":\"beneficiary\",\"type\":\"address\"},{\"internalType\":\"uint256\",\"name\":\"minReturnedTokens\",\"type\":\"uint256\"},{\"internalType\":\"string\",\"name\":\"memo\",\"type\":\"string\"},{\"internalType\":\"bytes\",\"name\":\"metadata\",\"type\":\"bytes\"}],\"stateMutability\":\"payable\",\"type\":\"function\",\"name\":\"pay\",\"outputs\":[{\"internalType\":\"uint256\",\"name\":\"\",\"type\":\"uint256\"}]},{\"inputs\":[],\"stateMutability\":\"nonpayable\",\"type\":\"function\",\"name\":\"renounceOwnership\"},{\"inputs\":[{\"internalType\":\"bytes4\",\"name\":\"interfaceId\",\"type\":\"bytes4\"}],\"stateMutability\":\"view\",\"type\":\"function\",\"name\":\"supportsInterface\",\"outputs\":[{\"internalType\":\"bool\",\"name\":\"\",\"type\":\"bool\"}]},{\"inputs\":[],\"stateMutability\":\"view\",\"type\":\"function\",\"name\":\"tokenOut\",\"outputs\":[{\"internalType\":\"address\",\"name\":\"\",\"type\":\"address\"}]},{\"inputs\":[{\"internalType\":\"address\",\"name\":\"newOwner\",\"type\":\"address\"}],\"stateMutability\":\"nonpayable\",\"type\":\"function\",\"name\":\"transferOwnership\"},{\"inputs\":[{\"internalType\":\"uint256\",\"name\":\"projectId\",\"type\":\"uint256\"},{\"internalType\":\"contract IUniswapV3Pool\",\"name\":\"pool\",\"type\":\"address\"}],\"stateMutability\":\"view\",\"type\":\"function\",\"name\":\"twapParamsOf\",\"outputs\":[{\"internalType\":\"uint32\",\"name\":\"secondsAgo\",\"type\":\"uint32\"},{\"internalType\":\"uint160\",\"name\":\"slippageTolerance\",\"type\":\"uint160\"}]},{\"inputs\":[{\"internalType\":\"int256\",\"name\":\"amount0Delta\",\"type\":\"int256\"},{\"internalType\":\"int256\",\"name\":\"amount1Delta\",\"type\":\"int256\"},{\"internalType\":\"bytes\",\"name\":\"data\",\"type\":\"bytes\"}],\"stateMutability\":\"nonpayable\",\"type\":\"function\",\"name\":\"uniswapV3SwapCallback\"},{\"inputs\":[],\"stateMutability\":\"payable\",\"type\":\"receive\"}],\"devdoc\":{\"kind\":\"dev\",\"methods\":{\"accountingContextForTokenOf(uint256,address)\":{\"details\":\"Accounting contexts are set up in `addDefaultPool(...)`.\",\"params\":{\"projectId\":\"The ID of the project to get the accounting context for.\",\"token\":\"The address of the token to get the accounting context for.\"},\"returns\":{\"_0\":\"A `JBAccountingContext` containing the accounting context for the project ID and token.\"}},\"accountingContextsOf(uint256)\":{\"details\":\"This includes both project-specific and generic accounting contexts, with the project-specific contexts         taking precedence.\",\"params\":{\"projectId\":\"The ID of the project to get the accounting contexts for.\"},\"returns\":{\"_0\":\"An array of `JBAccountingContext` containing the accounting contexts for the project ID.\"}},\"addDefaultPool(uint256,address,address)\":{\"params\":{\"pool\":\"The Uniswap V3 pool to set as the default for the specified token.\",\"projectId\":\"The ID of the project to set the default pool for. The project 0 acts as a catch-all, where non-set pools are defaulted to.\",\"token\":\"The address of the token to set the default pool for.\"}},\"addToBalanceOf(uint256,address,uint256,bool,string,bytes)\":{\"details\":\"This function handles the token in transfer, potentially swaps the tokens to the desired output token, and then adds the swapped tokens to the project's balance in the specified terminal.\",\"params\":{\"amount\":\"The amount of tokens being paid in.\",\"memo\":\"A memo to pass along to the emitted event.\",\"metadata\":\"Bytes in `JBMetadataResolver`'s format which can contain additional data for the swap and adding to balance.\",\"projectId\":\"The ID of the project for which funds are being accepted and added to its balance.\",\"shouldReturnHeldFees\":\"A boolean to indicate whether held fees should be returned.\",\"token\":\"The address of the token being paid in.\"}},\"addTwapParamsFor(uint256,address,uint32,uint160)\":{\"params\":{\"projectId\":\"The ID of the project to set the TWAP-based quote rules for.\",\"secondsAgo\":\"The period of time over which the TWAP is calculated, in seconds.\",\"slippageTolerance\":\"The maximum spread allowed between the amount received and the TWAP (as a fraction out of `SLIPPAGE_DENOMINATOR`).\"}},\"getPoolFor(uint256,address)\":{\"params\":{\"projectId\":\"The ID of the project to retrieve the default pool for.\",\"tokenIn\":\"The address of the token to retrieve the default pool for.\"},\"returns\":{\"pool\":\"The default pool for the token, or the overall default pool for the token if the\"}},\"owner()\":{\"details\":\"Returns the address of the current owner.\"},\"pay(uint256,address,uint256,address,uint256,string,bytes)\":{\"params\":{\"amount\":\"The amount of tokens being paid in, as a fixed point number with the same amount of decimals as the `token`. If `token` is the native token, `amount` is ignored and `msg.value` is used in its place.\",\"beneficiary\":\"The beneficiary address to pass along to the other terminal. If the other terminal mints tokens, for example, they will be minted for this address.\",\"memo\":\"A memo to pass along to the emitted event.\",\"metadata\":\"Bytes in `JBMetadataResolver`'s format which can contain a quote from the user/client. The quote should contain a minimum amount of tokens to receive from the swap and the pool to use. This metadata is also passed to the other terminal's emitted event, as well as its data hook and pay hook if applicable.\",\"minReturnedTokens\":\"The minimum number of project tokens expected in return, as a fixed point number with the same number of decimals as the other terminal. This value will be passed along to the other terminal.\",\"projectId\":\"The ID of the project being paid.\",\"token\":\"The address of the token being paid in.\"},\"returns\":{\"_0\":\"The number of tokens received from the swap, as a fixed point number with the same amount of decimals as that token.\"}},\"renounceOwnership()\":{\"details\":\"Leaves the contract without owner. It will not be possible to call `onlyOwner` functions. Can only be called by the current owner. NOTE: Renouncing ownership will leave the contract without an owner, thereby disabling any functionality that is only available to the owner.\"},\"supportsInterface(bytes4)\":{\"details\":\"See {IERC165-supportsInterface}.\",\"params\":{\"interfaceId\":\"The ID of the interface to check for adherance to.\"},\"returns\":{\"_0\":\"A flag indicating if the provided interface ID is supported.\"}},\"tokenOut()\":{\"details\":\"If the token out is the chain native token (ETH on mainnet), JBConstants NATIVE_TOKEN is returned\",\"returns\":{\"_0\":\"The token that flows out of this terminal.\"}},\"transferOwnership(address)\":{\"details\":\"Transfers ownership of the contract to a new account (`newOwner`). Can only be called by the current owner.\"},\"twapParamsOf(uint256,address)\":{\"params\":{\"projectId\":\"The ID of the project to retrieve TWAP parameters for.\"},\"returns\":{\"secondsAgo\":\"The period of time in the past to calculate the TWAP from.\",\"slippageTolerance\":\"The maximum allowed slippage tolerance when calculating the TWAP, as a fraction out of `SLIPPAGE_DENOMINATOR`.\"}},\"uniswapV3SwapCallback(int256,int256,bytes)\":{\"details\":\"This function has no access control, care should be taken to ensure that:      - terminal balance is always be 0 between tx (this callback can only be used to sweep accidental leftovers)      - callback cannot pull user funds via a preexisting allowance\",\"params\":{\"amount0Delta\":\"The amount of token 0 being used for the swap.\",\"amount1Delta\":\"The amount of token 1 being used for the swap.\",\"data\":\"Data passed in by the swap operation.\"}}},\"version\":1},\"userdoc\":{\"kind\":\"user\",\"methods\":{\"DEFAULT_PROJECT_ID()\":{\"notice\":\"The ID to store default values in.\"},\"DIRECTORY()\":{\"notice\":\"The directory of terminals and controllers for `PROJECTS`.\"},\"PERMISSIONS()\":{\"notice\":\"A contract storing permissions.\"},\"PERMIT2()\":{\"notice\":\"The permit2 utility.\"},\"PROJECTS()\":{\"notice\":\"Mints ERC-721s that represent project ownership and transfers.\"},\"SLIPPAGE_DENOMINATOR()\":{\"notice\":\"The denominator used when calculating TWAP slippage tolerance values.\"},\"WETH()\":{\"notice\":\"The ERC-20 wrapper for the native token.\"},\"accountingContextForTokenOf(uint256,address)\":{\"notice\":\"Get the accounting context for the specified project ID and token.\"},\"accountingContextsOf(uint256)\":{\"notice\":\"Return all the accounting contexts for a specified project ID.\"},\"addAccountingContextsFor(uint256,address[])\":{\"notice\":\"Empty implementation to satisfy the interface. Accounting contexts are set in `addDefaultPool(...)`.\"},\"addDefaultPool(uint256,address,address)\":{\"notice\":\"Set a project's default pool and accounting context for the specified token. Only the project's owner, an address with `MODIFY_DEFAULT_POOL` permission from the owner or the terminal owner can call this function.\"},\"addToBalanceOf(uint256,address,uint256,bool,string,bytes)\":{\"notice\":\"Accepts funds for a given project, swaps them if necessary, and adds them to the project's balance in the specified terminal.\"},\"addTwapParamsFor(uint256,address,uint32,uint160)\":{\"notice\":\"Set the specified project's rules for calculating a quote based on the TWAP. Only the project's owner or an address with `MODIFY_TWAP_PARAMS` permission from the owner  or the terminal owner can call this function.\"},\"currentSurplusOf(uint256,uint256,uint256)\":{\"notice\":\"Empty implementation to satisfy the interface. This terminal has no surplus.\"},\"getPoolFor(uint256,address)\":{\"notice\":\"Returns the default pool for a given project and token or, if a project has no default pool for the         token, the overal default pool for the token\"},\"migrateBalanceOf(uint256,address,address)\":{\"notice\":\"Empty implementation to satisfy the interface.\"},\"pay(uint256,address,uint256,address,uint256,string,bytes)\":{\"notice\":\"Pay a project by swapping the incoming tokens for tokens that one of the project's other terminals accepts, passing along the funds received from the swap and the specified parameters.\"},\"supportsInterface(bytes4)\":{\"notice\":\"Indicates if this contract adheres to the specified interface.\"},\"tokenOut()\":{\"notice\":\"Returns the token that flows out of this terminal.\"},\"twapParamsOf(uint256,address)\":{\"notice\":\"Returns the default twap parameters for a given pool project.\"},\"uniswapV3SwapCallback(int256,int256,bytes)\":{\"notice\":\"The Uniswap v3 pool callback where the token transfer is expected to happen.\"}},\"version\":1}},\"settings\":{\"remappings\":[\"@bananapus/=node_modules/@bananapus/\",\"@chainlink/=node_modules/@chainlink/\",\"@eth-optimism/=node_modules/@eth-optimism/\",\"@exhausted-pigeon/=node_modules/@exhausted-pigeon/\",\"@openzeppelin/=node_modules/@openzeppelin/\",\"@prb/=node_modules/@prb/\",\"@scroll-tech/=node_modules/@scroll-tech/\",\"@sphinx-labs/contracts/=node_modules/@sphinx-labs/contracts/contracts/foundry/\",\"@uniswap/=node_modules/@uniswap/\",\"base64-sol/=node_modules/base64-sol/\",\"ds-test/=lib/forge-std/lib/ds-test/src/\",\"forge-std/=lib/forge-std/src/\",\"hardhat/=node_modules/hardhat/\",\"solmate/=node_modules/solmate/\",\"sphinx/=lib/sphinx/packages/contracts/contracts/forge-std/src/\"],\"optimizer\":{\"enabled\":true,\"runs\":200},\"metadata\":{\"bytecodeHash\":\"ipfs\"},\"compilationTarget\":{\"src/JBSwapTerminal.sol\":\"JBSwapTerminal\"},\"evmVersion\":\"paris\",\"libraries\":{}},\"sources\":{\"node_modules/@bananapus/core/src/abstract/JBPermissioned.sol\":{\"keccak256\":\"0xe08c8a7eeac9d1c7c2e0db6d5b98d1af09889300835a3d47d9f29319fecce703\",\"urls\":[\"bzz-raw://42645cf52bcc45053ef650790916faed5d0a74cecef336b217433fdd2c5c4166\",\"dweb:/ipfs/QmdMmxG1tSGucQwz4LYbVnuj7HU23YvqLH6xfrNWv5Bmus\"],\"license\":\"MIT\"},\"node_modules/@bananapus/core/src/enums/JBApprovalStatus.sol\":{\"keccak256\":\"0x61c69b6bac7d24b566d87cda23a77e4ca9cdb87200b106aba8534cb9a0973e33\",\"urls\":[\"bzz-raw://6a9ca7249de76f77a8252eefe6bd1b63d47952f25a2acfa2c8db967cdff4470c\",\"dweb:/ipfs/QmaxSxptRQNj8bNy96EreENmrnRWdKmhyihBcxyWzBX5BN\"],\"license\":\"MIT\"},\"node_modules/@bananapus/core/src/interfaces/IJBDirectory.sol\":{\"keccak256\":\"0x9cc380844aef60078ee47a61861e55a29c4a8c947efd556ebd36e6909f7b9d62\",\"urls\":[\"bzz-raw://9f5190ec8b6683d9781ee6e9eedcc91294753242748875d4a06349077e4cbaaf\",\"dweb:/ipfs/QmTQrPuXT9TCA4txwrperMeXSGvGxP8iokUK47f62F388i\"],\"license\":\"MIT\"},\"node_modules/@bananapus/core/src/interfaces/IJBPayHook.sol\":{\"keccak256\":\"0x9438866782c652c2942f4d114e35f393cd3c8b0334abce8387eed90bca35e8b2\",\"urls\":[\"bzz-raw://cfd99daf57213f92325aad7d7d16e98476d38e870470e95ba01e3ae3cdecc95d\",\"dweb:/ipfs/QmUKKAVGf7ki8BHksr99tFcRW8APveeB5tNH63ctTbbCW8\"],\"license\":\"MIT\"},\"node_modules/@bananapus/core/src/interfaces/IJBPermissioned.sol\":{\"keccak256\":\"0x5b038d4dee116584e88b230920e56d48e135053e3f7e5642eaea14a775c1dad7\",\"urls\":[\"bzz-raw://19e43102f349fd4a1da1c0943ffb8f2950007fe4bb4bb7e8f74fc142575d091b\",\"dweb:/ipfs/QmXHAt4KzDTdDZgDDefEXH2WKi7NcfkJb9R7nxW5uDqsNp\"],\"license\":\"MIT\"},\"node_modules/@bananapus/core/src/interfaces/IJBPermissions.sol\":{\"keccak256\":\"0x18870e500edf0fbadc353e273a5574701fb80466376b908c65e7cc3f11044d4d\",\"urls\":[\"bzz-raw://352a47c45853aec80e7acf0d286ade3106eb4cb456776b28a3c2f3f1091bed90\",\"dweb:/ipfs/QmQeYd3YbudYZy2hfbfht9kwhxhw4tuuLKMEYy9UY6dcSy\"],\"license\":\"MIT\"},\"node_modules/@bananapus/core/src/interfaces/IJBPermitTerminal.sol\":{\"keccak256\":\"0xd6bd30842273f5b794f82219fefdd4953f5343328d2cfdb684b7d826cc0c769c\",\"urls\":[\"bzz-raw://ca1195fd5572060b36fc7e45f46d59f974e3a908248edcfadeb8cb06247075f0\",\"dweb:/ipfs/QmYTpDXKTXqi8GQFsNqB8LiGFTZjSPY3PA8vKqZBraVdqD\"],\"license\":\"MIT\"},\"node_modules/@bananapus/core/src/interfaces/IJBPriceFeed.sol\":{\"keccak256\":\"0x4bd84c0f1a5d4729ed709bcddd43f4c50ec4a165ece79780af8dce482ed07d4a\",\"urls\":[\"bzz-raw://62bac4bfb6982fb002f620c77e5c445e62d50241a5aa64a07e51d929f5a42180\",\"dweb:/ipfs/QmWgJUDreVY2BuMX38a1iUUR5kNbMwGnKG3VvurB7oZtuM\"],\"license\":\"MIT\"},\"node_modules/@bananapus/core/src/interfaces/IJBPrices.sol\":{\"keccak256\":\"0x99525f31440b955742dce84ba57de9fc1221139b5367c1f834723bef9e13e6e1\",\"urls\":[\"bzz-raw://6fa03f0cd4ad87dd7cbae7bf7f54463450874291773c8f70f2c31ef2cae62bb0\",\"dweb:/ipfs/QmSPajPV5ismteJuB6Spzm9VmhTj2iS3eVrfpJC1Zuzg8n\"],\"license\":\"MIT\"},\"node_modules/@bananapus/core/src/interfaces/IJBProjects.sol\":{\"keccak256\":\"0x735c2fb8f1fa827f054ee77f7a0ae4b312656217acb75b624d2c8fd9dc40151b\",\"urls\":[\"bzz-raw://ee7fc92299a8633a80693ae63ab494dcd125f1789487a54a39dc0e5696e5996f\",\"dweb:/ipfs/QmX7YJD4pS2XhgQb7p3JbBAXynT7YGPXcZe92BiWWRrsCL\"],\"license\":\"MIT\"},\"node_modules/@bananapus/core/src/interfaces/IJBRedeemHook.sol\":{\"keccak256\":\"0x8ab46fcd7d0e739661eb76056ad93ff99106f38420ef0b4eb97fa9f4bb71a68a\",\"urls\":[\"bzz-raw://0ef96fcb7ad26281d444d8e0c677b25114fdd63b1c172d477e030dce8ba53b62\",\"dweb:/ipfs/Qmcx1jRQuwU4pZFuLxsSsx4oMbRaDfktHrPnXextgbWc5m\"],\"license\":\"MIT\"},\"node_modules/@bananapus/core/src/interfaces/IJBRulesetApprovalHook.sol\":{\"keccak256\":\"0x592e95d159494421c6b1bcb362d0cee1df0132921697351304e9cd7af4fbd386\",\"urls\":[\"bzz-raw://5bebfd5fa67c1b6ea16fa2e76e9520e9dfe52a579f48dd94d0c2ec45f78ad178\",\"dweb:/ipfs/QmRUawEGtfYoYSHmHELGhvJoWuMsxLPKtqAXgsrb7fJboP\"],\"license\":\"MIT\"},\"node_modules/@bananapus/core/src/interfaces/IJBRulesets.sol\":{\"keccak256\":\"0xd3f817d22ecbe24da63c552c069bf0c4fbbf3bcd5c3b5633002afd24aacf6882\",\"urls\":[\"bzz-raw://c1185aec0f6b6f0f4d93ffeeed0972ccf38420b00fe570b5e1838ed2b1f5db49\",\"dweb:/ipfs/QmWz36azGTFnjFXpFSh6BHt4nactgjtF64L3PeTqs4ZqSR\"],\"license\":\"MIT\"},\"node_modules/@bananapus/core/src/interfaces/IJBTerminal.sol\":{\"keccak256\":\"0x19dc9bf8cbdc8f13ee5da9dc3a87047eacb94a3fc19740a286c1f0bad2cc39ca\",\"urls\":[\"bzz-raw://0b05ae6fda9a85672508232fd992b8a5f5ffd8096622eeb12c8a7b3317eb3867\",\"dweb:/ipfs/QmNh9Quj37BXYGdTdcCD1Q58PchRsE5TLbEZep56qS3MpV\"],\"license\":\"MIT\"},\"node_modules/@bananapus/core/src/interfaces/IJBTerminalStore.sol\":{\"keccak256\":\"0x140159d66d729f6aeed0fe1f7c655619985146ec00e8c68cbd9b5d30d4dc7d23\",\"urls\":[\"bzz-raw://f972ecb52bcfcd2852c9e7264b1ecc504ce94bd6e12c034b93c1768cd372954e\",\"dweb:/ipfs/QmRu7in5iJSWHLTcFPbJmiK1rCHFbwNY7qzY4cG6kgfYcr\"],\"license\":\"MIT\"},\"node_modules/@bananapus/core/src/interfaces/IJBTokenUriResolver.sol\":{\"keccak256\":\"0xfa5cb00dcd6085d1ef912d071fe73c63f9478a2cd0f9d8bddaf659b6af2d0967\",\"urls\":[\"bzz-raw://282e4e7c342d65f77cde0e9a08fcaf20ef5cf379c7a48b639842c0ffd0b2afb8\",\"dweb:/ipfs/QmbnN3PEQeZaXdPLT75V1J79kMg7KqSMru37RHrL3z8Yf2\"],\"license\":\"MIT\"},\"node_modules/@bananapus/core/src/libraries/JBConstants.sol\":{\"keccak256\":\"0x9d3a9a953f859d8ec79a599577f8972de6da7199cc1bfa7fdad017d4d722bcb4\",\"urls\":[\"bzz-raw://f151fcb53a8d2684eff8b9e56ac790bcbcadd8199a4fd4d17c5b224b22936722\",\"dweb:/ipfs/QmdAz1ZtCE8nTiC4AxQNLfJhnY3ndGum2Lbef7seKdvTdR\"],\"license\":\"MIT\"},\"node_modules/@bananapus/core/src/libraries/JBMetadataResolver.sol\":{\"keccak256\":\"0x900731084917f812806a35dab2c7ae65a6f07506d6c953ae0cd6d993fe85560f\",\"urls\":[\"bzz-raw://2002892aef205b5192fa5c2d1cf1698ba0836bed7eaba839444cd0f93b4fb050\",\"dweb:/ipfs/QmPRGSNRdpST1xt2brhGWSDsEYD29j5QwaJ3SA518UUXWs\"],\"license\":\"MIT\"},\"node_modules/@bananapus/core/src/structs/JBAccountingContext.sol\":{\"keccak256\":\"0x2907ff54d1e903cc7e0390dd88c3975884702dc2673642aacbe22b66560b56de\",\"urls\":[\"bzz-raw://a66a5381ce877b32f0e0058ceeaf843e9b6b2bc8af666c0c9f4a9d01091da004\",\"dweb:/ipfs/QmQynCetUr37dBkS1YwDS8evxuXGiqanW6THmeUxXtim8w\"],\"license\":\"MIT\"},\"node_modules/@bananapus/core/src/structs/JBAfterPayRecordedContext.sol\":{\"keccak256\":\"0xd26c3a774ff38be79064085970454fe2603a23a638c76270d5b1b3829206c3e8\",\"urls\":[\"bzz-raw://3b55dbe3bf1ef625b7ca04efab3de35406e6041d5b3d82c7265469c500e2b702\",\"dweb:/ipfs/QmUdBDo4Lt3mcsFcsXT2mqq3czFwZjQJFPLM89YA2VtD7k\"],\"license\":\"MIT\"},\"node_modules/@bananapus/core/src/structs/JBAfterRedeemRecordedContext.sol\":{\"keccak256\":\"0x521f5d23a36f0da72362cd84890cc867bd83baa8dc836ba6c5066d51dba2f163\",\"urls\":[\"bzz-raw://6cc461313286dde62d045d6288e87bae5032e035796326f5b1ed6218e58aa9da\",\"dweb:/ipfs/QmQS2AkQwf2ANQieDuaUnpJEdXChoLv4CCbZqHkfywYPSR\"],\"license\":\"MIT\"},\"node_modules/@bananapus/core/src/structs/JBPayHookSpecification.sol\":{\"keccak256\":\"0x955f0bfca97300b9e5927dc181753830ee362f83fa9ca32a90daade32aa0cfd5\",\"urls\":[\"bzz-raw://f517af1597c7c40f8d3da53f7a6684a3e162950a16559d6bf6ea3b727bb11546\",\"dweb:/ipfs/QmRWo2ZTYXmVZTzNJDYhsJNsEaHphjpUfx9eNz2cciyz86\"],\"license\":\"MIT\"},\"node_modules/@bananapus/core/src/structs/JBPermissionsData.sol\":{\"keccak256\":\"0x8f0f69a6ebf5f3704e3dfcb3712fb9d3f94ae7c1ab89bf3e37bad42a3e7a0487\",\"urls\":[\"bzz-raw://57b0c5e52843e2217082889ed47b4da3943e0da4590d5768dcebfe3edad4a6b8\",\"dweb:/ipfs/QmRz48vuWLw81kUP836rh1qzqWiJFGbksgRUA9xGEDNKTY\"],\"license\":\"MIT\"},\"node_modules/@bananapus/core/src/structs/JBRedeemHookSpecification.sol\":{\"keccak256\":\"0x673d16ee1a91bf8de3b37e57284e60451b70a9c2d748c9cdc7a151f5624af18f\",\"urls\":[\"bzz-raw://ceeb5e81effa0f076c5630c756dfcf1548d09f822b255a0a6ee01e54de8c8ae2\",\"dweb:/ipfs/QmSMoMNPRhPMnuJNvWa6S59XRfycGz9o2ApNp63bUW6TdX\"],\"license\":\"MIT\"},\"node_modules/@bananapus/core/src/structs/JBRuleset.sol\":{\"keccak256\":\"0x15b2bf3174d84846a91ccbf5a344dfb125b55ed9cf50102db8d6868844225189\",\"urls\":[\"bzz-raw://647416b025dbd941094db89cbc69f755c155bd6c87be3f322394ccc4a8e0442d\",\"dweb:/ipfs/QmTCL9xcHnxQ4t5AmCPoZvXDUPW5xhzhyyXYbkMdyg44au\"],\"license\":\"MIT\"},\"node_modules/@bananapus/core/src/structs/JBSingleAllowanceContext.sol\":{\"keccak256\":\"0x5bcd5b3abafe9137ee451b112fcac473b4d48858544279d38d0c56dea5271f44\",\"urls\":[\"bzz-raw://5f17a870c2f1797a18918ab3dc6f404f0224d9e415815c708654a17686cd62c0\",\"dweb:/ipfs/QmWMDffMMrj7ZXquTHSQt8VQm5owo94BdPpJ93NfSp2jrn\"],\"license\":\"MIT\"},\"node_modules/@bananapus/core/src/structs/JBTokenAmount.sol\":{\"keccak256\":\"0x5cf0626b73a596c1e2da17c89ae039a7c0374310b060d48568d3b6c11fbe6180\",\"urls\":[\"bzz-raw://63348b50be95e2995409394a17caffc563a646f0972650a1230bf864fbd3219b\",\"dweb:/ipfs/QmZXZpS3SbFD5nWaCauf6AqbEhLURv5qsKHpThBvQgDU6u\"],\"license\":\"MIT\"},\"node_modules/@bananapus/permission-ids/src/JBPermissionIds.sol\":{\"keccak256\":\"0xf61109f6b217a80d5e5391f548fb6f2e451f7dbee3fabfc04cf17e88722203bc\",\"urls\":[\"bzz-raw://ac776ab1cd621c22bd7973471acdfa187f3abc659ad9a3ef6ed10b6447dfcf9c\",\"dweb:/ipfs/QmYLbaHt68qcuMzkiKpe96jMjiWUq1F3u8yMhxmZ3pnnWu\"],\"license\":\"MIT\"},\"node_modules/@openzeppelin/contracts/access/Ownable.sol\":{\"keccak256\":\"0xff6d0bb2e285473e5311d9d3caacb525ae3538a80758c10649a4d61029b017bb\",\"urls\":[\"bzz-raw://8ed324d3920bb545059d66ab97d43e43ee85fd3bd52e03e401f020afb0b120f6\",\"dweb:/ipfs/QmfEckWLmZkDDcoWrkEvMWhms66xwTLff9DDhegYpvHo1a\"],\"license\":\"MIT\"},\"node_modules/@openzeppelin/contracts/token/ERC20/IERC20.sol\":{\"keccak256\":\"0xc6a8ff0ea489379b61faa647490411b80102578440ab9d84e9a957cc12164e70\",\"urls\":[\"bzz-raw://0ea104e577e63faea3b69c415637e99e755dcbf64c5833d7140c35a714d6d90c\",\"dweb:/ipfs/Qmau6x4Ns9XdyynRCNNp3RhLqijJjFm7z5fyZazfYFGYdq\"],\"license\":\"MIT\"},\"node_modules/@openzeppelin/contracts/token/ERC20/extensions/IERC20Metadata.sol\":{\"keccak256\":\"0xaa761817f6cd7892fcf158b3c776b34551cde36f48ff9703d53898bc45a94ea2\",\"urls\":[\"bzz-raw://0ad7c8d4d08938c8dfc43d75a148863fb324b80cf53e0a36f7e5a4ac29008850\",\"dweb:/ipfs/QmcrhfPgVNf5mkdhQvy1pMv51TFokD3Y4Wa5WZhFqVh8UV\"],\"license\":\"MIT\"},\"node_modules/@openzeppelin/contracts/token/ERC20/extensions/IERC20Permit.sol\":{\"keccak256\":\"0x6008dabfe393240d73d7dd7688033f72740d570aa422254d29a7dce8568f3aff\",\"urls\":[\"bzz-raw://f5196ec75139918c6c7bb4251b36395e668f1fa6d206beba7e7520e74913940d\",\"dweb:/ipfs/QmSyqjksXxmm2mCG6qRd1yuwLykypkSVBbnBnGqJRcuJMi\"],\"license\":\"MIT\"},\"node_modules/@openzeppelin/contracts/token/ERC20/utils/SafeERC20.sol\":{\"keccak256\":\"0x37bb49513c49c87c4642a891b13b63571bc87013dde806617aa1efb54605f386\",\"urls\":[\"bzz-raw://b3036b3a83b7c48f96641f2a9002b9f2dcb6a5958dd670894ada21ae8229b3d0\",\"dweb:/ipfs/QmUNfSBdoVtjhETaUJCYcaC7pTMgbhht926tJ2uXJbiVd3\"],\"license\":\"MIT\"},\"node_modules/@openzeppelin/contracts/token/ERC721/IERC721.sol\":{\"keccak256\":\"0x5ef46daa3b58ef2702279d514780316efaa952915ee1aa3396f041ee2982b0b4\",\"urls\":[\"bzz-raw://2f8f2a76e23b02fc69e8cd24c3cb47da6c7af3a2d6c3a382f8ac25c6e094ade7\",\"dweb:/ipfs/QmPV4ZS4tPVv4mTCf9ejyZ1ai57EEibDRj7mN2ARDCLV5n\"],\"license\":\"MIT\"},\"node_modules/@openzeppelin/contracts/utils/Address.sol\":{\"keccak256\":\"0xaf28a975a78550e45f65e559a3ad6a5ad43b9b8a37366999abd1b7084eb70721\",\"urls\":[\"bzz-raw://b7bd24e224f67f65bfadf85dc2929fa965456bb2415478bd0125471b5ce35245\",\"dweb:/ipfs/QmRaydGr8BTHs1kvaZfsNU69pKzUAGFrvABn1KiRSbE51y\"],\"license\":\"MIT\"},\"node_modules/@openzeppelin/contracts/utils/Context.sol\":{\"keccak256\":\"0x493033a8d1b176a037b2cc6a04dad01a5c157722049bbecf632ca876224dd4b2\",\"urls\":[\"bzz-raw://6a708e8a5bdb1011c2c381c9a5cfd8a9a956d7d0a9dc1bd8bcdaf52f76ef2f12\",\"dweb:/ipfs/Qmax9WHBnVsZP46ZxEMNRQpLQnrdE4dK8LehML1Py8FowF\"],\"license\":\"MIT\"},\"node_modules/@openzeppelin/contracts/utils/introspection/IERC165.sol\":{\"keccak256\":\"0x4296879f55019b23e135000eb36896057e7101fb7fb859c5ef690cf14643757b\",\"urls\":[\"bzz-raw://87b3541437c8c443ccd36795e56a338ed12855eec17f8da624511b8d1a7e14df\",\"dweb:/ipfs/QmeJQCtZrQjtJLr6u7ZHWeH3pBnjtLWzvRrKViAi7UZqxL\"],\"license\":\"MIT\"},\"node_modules/@uniswap/permit2/src/interfaces/IAllowanceTransfer.sol\":{\"keccak256\":\"0x37f0ac203b6ef605c9533e1a739477e8e9dcea90710b40e645a367f8a21ace29\",\"urls\":[\"bzz-raw://e0104d72aeaec1cd66cc232e7de7b7ead08608efcc179491b8a66387614670b0\",\"dweb:/ipfs/QmfAZDyuNC9FXXbnJUwqHNwmAK6uRrXxtWEytLsxjskPsN\"],\"license\":\"MIT\"},\"node_modules/@uniswap/permit2/src/interfaces/IEIP712.sol\":{\"keccak256\":\"0xfdccf2b9639070803cd0e4198427fb0df3cc452ca59bd3b8a0d957a9a4254138\",\"urls\":[\"bzz-raw://f7c936ac42ce89e827db905a1544397f8bdf46db34cdb6aa1b90dea42fdb4c72\",\"dweb:/ipfs/QmVgurxo1N31qZqkPBirw9Z7S9tLYmv6jSwQp8R8ur2cBk\"],\"license\":\"MIT\"},\"node_modules/@uniswap/permit2/src/interfaces/IPermit2.sol\":{\"keccak256\":\"0xaa631cc9f53e699301d94233007110a345e6779011def484e8dd97b8fe0af771\",\"urls\":[\"bzz-raw://fc0502cf19c9c18f320a3001201e89e350393b75837f6b7971de18b2de06f30d\",\"dweb:/ipfs/QmT9SfhdJ7VJNNrf94g4H5usyi7ShqWGx7Cqsz9jZTjX96\"],\"license\":\"MIT\"},\"node_modules/@uniswap/permit2/src/interfaces/ISignatureTransfer.sol\":{\"keccak256\":\"0xe6df9966f8841dc3958ee86169c89de97e7f614c81c28b9dc947b12d732df64e\",\"urls\":[\"bzz-raw://3d4eafdee7f48c3be8350a94eb6edd0bfb2af2c105df65787a77174f356c0317\",\"dweb:/ipfs/QmY1j2adeeAhNpn6cUuthemxGCdLXHTfyMh9yTKsY4mZ2d\"],\"license\":\"MIT\"},\"node_modules/@uniswap/v3-core/contracts/interfaces/IUniswapV3Pool.sol\":{\"keccak256\":\"0x4e64844c56061cd90e0a80de73534a9166704c43eed579eb83f90bc2780ce968\",\"urls\":[\"bzz-raw://cba4fab5cebdddf644b901994a7f0f52b98885d4c56012f4dc51d52c2bf9de0e\",\"dweb:/ipfs/QmVyyrRmqXrAiapewWunRVgiPVFJHpH2hKiE1py1svMSNV\"],\"license\":\"GPL-2.0-or-later\"},\"node_modules/@uniswap/v3-core/contracts/interfaces/callback/IUniswapV3SwapCallback.sol\":{\"keccak256\":\"0x3f485fb1a44e8fbeadefb5da07d66edab3cfe809f0ac4074b1e54e3eb3c4cf69\",\"urls\":[\"bzz-raw://095ce0626b41318c772b3ebf19d548282607f6a8f3d6c41c13edfbd5370c8652\",\"dweb:/ipfs/QmVDZfJJ89UUCE1hMyzqpkZAtQ8jUsBgZNE5AMRG7RzRFS\"],\"license\":\"GPL-2.0-or-later\"},\"node_modules/@uniswap/v3-core/contracts/interfaces/pool/IUniswapV3PoolActions.sol\":{\"keccak256\":\"0x9453dd0e7442188667d01d9b65de3f1e14e9511ff3e303179a15f6fc267f7634\",\"urls\":[\"bzz-raw://982f4328f956c3e60e67501e759eb292ac487f76460c774c50e9ae4fcc92aae5\",\"dweb:/ipfs/QmRnzEDsaqtd9PJEVcgQi7p5aV5pMSvRUoGZJAdwFUJxgZ\"],\"license\":\"GPL-2.0-or-later\"},\"node_modules/@uniswap/v3-core/contracts/interfaces/pool/IUniswapV3PoolDerivedState.sol\":{\"keccak256\":\"0xe603ac5b17ecdee73ba2b27efdf386c257a19c14206e87eee77e2017b742d9e5\",\"urls\":[\"bzz-raw://8febc9bdb399a4d94bb89f5377732652e2400e4a8dee808201ade6848f9004e7\",\"dweb:/ipfs/QmaKDqYYFU4d2W2iN77aDHptfbFmYZRrMYXHeGpJmM8C1c\"],\"license\":\"GPL-2.0-or-later\"},\"node_modules/@uniswap/v3-core/contracts/interfaces/pool/IUniswapV3PoolErrors.sol\":{\"keccak256\":\"0xf80abf13fb1fafc127ba4e792f240dd8ea7c8c893978cdfd8439c27fae9a037b\",\"urls\":[\"bzz-raw://b04fc72a656bbf3631e9c2e67b9870a2d9d235185e833fe050e9606e6816a9aa\",\"dweb:/ipfs/QmUcz4bkEkJ9pwzFu1C3n97hBQ3st9U6qTAqCdyFwddKco\"],\"license\":\"GPL-2.0-or-later\"},\"node_modules/@uniswap/v3-core/contracts/interfaces/pool/IUniswapV3PoolEvents.sol\":{\"keccak256\":\"0x8071514d0fe5d17d6fbd31c191cdfb703031c24e0ece3621d88ab10e871375cd\",\"urls\":[\"bzz-raw://d0b571930cc7488b1d546a7e9cea7c52d8b3c4e207da657ed0e0db7343b8cd03\",\"dweb:/ipfs/QmaGK6vVwB95QSTR1XMYvrh7ivYAYZxi3fD7v6VMA4jZ39\"],\"license\":\"GPL-2.0-or-later\"},\"node_modules/@uniswap/v3-core/contracts/interfaces/pool/IUniswapV3PoolImmutables.sol\":{\"keccak256\":\"0xf6e5d2cd1139c4c276bdbc8e1d2b256e456c866a91f1b868da265c6d2685c3f7\",\"urls\":[\"bzz-raw://b99c8c9ae8e27ee6559e5866bea82cbc9ffc8247f8d15b7422a4deb287d4d047\",\"dweb:/ipfs/QmfL8gaqt3ffAnm6nVj5ksuNpLygXuL3xq5VBqrkwC2JJ3\"],\"license\":\"GPL-2.0-or-later\"},\"node_modules/@uniswap/v3-core/contracts/interfaces/pool/IUniswapV3PoolOwnerActions.sol\":{\"keccak256\":\"0x759b78a2918af9e99e246dc3af084f654e48ef32bb4e4cb8a966aa3dcaece235\",\"urls\":[\"bzz-raw://64144fb96e1c7fdba87305acadb98a198d26a3d46c097cb3a666e567f6f29735\",\"dweb:/ipfs/QmUnWVwN9FKB9uV5Pr8YfLpWZnYM2DENnRMaadZ492JS9u\"],\"license\":\"GPL-2.0-or-later\"},\"node_modules/@uniswap/v3-core/contracts/interfaces/pool/IUniswapV3PoolState.sol\":{\"keccak256\":\"0x44fa2ce1182f6c2f6bead3d1737804bf7e112252ae86e0f2e92f9b8249603f43\",\"urls\":[\"bzz-raw://54154e8665b98d65f5dc91b256551852cb47882180b501b260657122d207c0ea\",\"dweb:/ipfs/QmcfemK1A2PXYrWB5SBFGERpMCderbFRb8BtTzQDj1sUBp\"],\"license\":\"GPL-2.0-or-later\"},\"node_modules/@uniswap/v3-core/contracts/libraries/FullMath.sol\":{\"keccak256\":\"0x7825565a4bb2a34a1dc96bbfead755785dfb0df8ef81bd934c43023689685645\",\"urls\":[\"bzz-raw://8f44f4614d31e3d4864c7eb13620555253b84f6a69180f8745b7c6e246a9d125\",\"dweb:/ipfs/QmfNQUcXj3KL8h9u5PqbtEC6yRtwDbKNb48uMPjdwxsKnd\"],\"license\":\"MIT\"},\"node_modules/@uniswap/v3-core/contracts/libraries/TickMath.sol\":{\"keccak256\":\"0x5c57de03a91cc2ec8939865dbbcb0197bb6c353b711075eefd8e0fca5e102129\",\"urls\":[\"bzz-raw://1e994c24fd891ef8a3f5dbf5eba42b34feaf05e0376a29f91322faa18054449c\",\"dweb:/ipfs/QmNdUJGUQxd1dPkMbnA5f5UNqakxRkQE5r7bTZJAuHeapS\"],\"license\":\"GPL-2.0-or-later\"},\"node_modules/@uniswap/v3-periphery/contracts/libraries/OracleLibrary.sol\":{\"keccak256\":\"0xe313f89c69c0f1c91f0722868313b4ceb14479b3e7a0abf52a1b9bbd9c18e81b\",\"urls\":[\"bzz-raw://8ad09b061f3f533c116618c20cf01510108eebebb7ff8847b0f245b8ba368d53\",\"dweb:/ipfs/QmU6vdi5JjJfjK2KqonWvRg9NeuQWarj4B1YFN22Dh9VJM\"],\"license\":\"GPL-2.0-or-later\"},\"src/JBSwapTerminal.sol\":{\"keccak256\":\"0xe36d2836b068860795e6009c0c654bb3cfc5cf5e10ea7650cf214544309f9494\",\"urls\":[\"bzz-raw://05b7dbf42d6bdc4d3f8ea7555ebc04b812e4aab5840985e76ac256d419ca4d5a\",\"dweb:/ipfs/QmYeFoKzxRwEoTp8QiZkeXLAWR6QUcj4bp3X69vvSabRBS\"],\"license\":\"MIT\"},\"src/interfaces/IWETH9.sol\":{\"keccak256\":\"0x50083bcaca6c1a8d12c79116fab4f6d8cd452a510cb3f00c4a8bc3a54678efb7\",\"urls\":[\"bzz-raw://726f187112d0953c14bff8099a8c9ce1ead47eb25e90839f77b100feaaf16127\",\"dweb:/ipfs/QmTEnMENpLjcTQLMwz4kEUiQHfiTkaZT3TL37nQ8JiRYh5\"],\"license\":\"GPL-2.0-or-later\"}},\"version\":1}",
			"args": [
				"0xfa679f5ecdd8bE404c1FbAa7f29aEB2b12F5B662",
				"0x711eda44F3D42F3d255846b5EE36Cf70Fd912E50",
				"0x44d360C8c4105f180e07668bd3374c7A6F812FAF",
				"0x000000000022D473030F116dDEE9F6B43aC78BA3",
				"0x823b92d6a4b2AED4b15675c7917c9f922ea8ADAD",
				"0x7b79995e5f793A07Bc00c21412e50Ecae098E7f9",
				"0x000000000000000000000000000000000000EEEe"
			],
			"bytecode": "0x6101606040523480156200001257600080fd5b5060405162003bcf38038062003bcf833981016040819052620000359162000144565b6001600160a01b03808716608052839081166200006c57604051631e4fbdf760e01b81526000600482015260240160405180910390fd5b6200007781620000db565b506001600160a01b0387811660a05285811660c05284811660e05282811661010052811661eeed1901620000bf576001610140526001600160a01b03821661012052620000ce565b6001600160a01b038116610120525b50505050505050620001ef565b600080546001600160a01b038381166001600160a01b0319831681178455604051919092169283917f8be0079c531659141344cd1fd0a4f28419497f9722a3daafe3b4186f6b6457e09190a35050565b6001600160a01b03811681146200014157600080fd5b50565b600080600080600080600060e0888a0312156200016057600080fd5b87516200016d816200012b565b602089015190975062000180816200012b565b604089015190965062000193816200012b565b6060890151909550620001a6816200012b565b6080890151909450620001b9816200012b565b60a0890151909350620001cc816200012b565b60c0890151909250620001df816200012b565b8091505092959891949750929550565b60805160a05160c05160e0516101005161012051610140516138ba6200031560003960008181610d2201528181610e2901528181610e5801528181611006015281816111e9015281816112f00152818161131f015281816116d601528181611bfa015261201f0152600081816106d901528181610d4701528181610e7d0152818161102c0152818161120e01528181611344015281816116fe015281816117590152611a8a01526000818161015f015281816104a1015281816110c6015281816116400152611c3401526000818161037e01528181611f10015261212a01526000818161040601528181610cf201526111b901526000818161020b015281816106460152610f420152600081816105690152818161143401526114dd01526138ba6000f3fe60806040526004361061014f5760003560e01c806398ea47fc116100b6578063d0202d3b1161006f578063d0202d3b14610507578063e28b54111461051c578063f2fde38b14610537578063f434c91414610557578063fa461e331461058b578063fef43257146105ab57600080fd5b806398ea47fc146104465780639e6eec0514610466578063ac90511414610479578063ad5c46481461048f578063c361534c146104c3578063cc680127146104e357600080fd5b8063515a929311610108578063515a92931461033f5780636afdd8501461036c578063715018a6146103a05780637c5e9c24146103b557806388bc2ef3146103f45780638da5cb5b1461042857600080fd5b806301ffc9a7146101a457806324e26dc5146101d9578063293c4999146101f95780632c1ae882146102455780633a01714f1461026857806340873cb5146102fb57600080fd5b3661019f57336001600160a01b037f0000000000000000000000000000000000000000000000000000000000000000161461019d57604051635e7e9adf60e11b815260040160405180910390fd5b005b600080fd5b3480156101b057600080fd5b506101c46101bf366004612b8c565b6105be565b60405190151581526020015b60405180910390f35b3480156101e557600080fd5b5061019d6101f4366004612bcb565b610610565b34801561020557600080fd5b5061022d7f000000000000000000000000000000000000000000000000000000000000000081565b6040516001600160a01b0390911681526020016101d0565b34801561025157600080fd5b5061025a600081565b6040519081526020016101d0565b34801561027457600080fd5b506102ee610283366004612c0d565b604080516060808201835260008083526020808401829052928401819052948552600382528285206001600160a01b03948516865282529382902082519485018352549283168452600160a01b830460ff1690840152600160a81b90910463ffffffff169082015290565b6040516101d09190612c3d565b34801561030757600080fd5b5061031b610316366004612c0d565b610857565b6040805163ffffffff90931683526001600160a01b039091166020830152016101d0565b34801561034b57600080fd5b5061035f61035a366004612c70565b6108cd565b6040516101d09190612c89565b34801561037857600080fd5b5061022d7f000000000000000000000000000000000000000000000000000000000000000081565b3480156103ac57600080fd5b5061019d610c4c565b3480156103c157600080fd5b506103d56103d0366004612c0d565b610c60565b604080516001600160a01b0390931683529015156020830152016101d0565b34801561040057600080fd5b5061022d7f000000000000000000000000000000000000000000000000000000000000000081565b34801561043457600080fd5b506000546001600160a01b031661022d565b34801561045257600080fd5b5061019d610461366004612cfd565b505050565b61019d610474366004612dcc565b610cee565b34801561048557600080fd5b5061022d61271081565b34801561049b57600080fd5b5061022d7f000000000000000000000000000000000000000000000000000000000000000081565b3480156104cf57600080fd5b5061019d6104de366004612e74565b610f0c565b3480156104ef57600080fd5b5061025a6104fe366004612ed0565b60009392505050565b34801561051357600080fd5b5061022d611002565b34801561052857600080fd5b5061025a6104fe366004612bcb565b34801561054357600080fd5b5061019d610552366004612efc565b611055565b34801561056357600080fd5b5061022d7f000000000000000000000000000000000000000000000000000000000000000081565b34801561059757600080fd5b5061019d6105a6366004612f19565b611098565b61025a6105b9366004612f6c565b6111b4565b60006001600160e01b03198216632f720bd160e21b14806105ef57506001600160e01b031982166306afdd8560e41b145b8061060a57506001600160e01b031982166301ffc9a760e01b145b92915050565b8215801561062857506000546001600160a01b031633145b6106c1576040516331a9108f60e11b8152600481018490526106c1907f00000000000000000000000000000000000000000000000000000000000000006001600160a01b031690636352211e90602401602060405180830381865afa158015610695573d6000803e3d6000fd5b505050506040513d601f19601f820116820180604052508101906106b99190613020565b84601a6113ea565b6040805180820182526001600160a01b0380841682527f00000000000000000000000000000000000000000000000000000000000000008116858216908110602080850191825260008981526002825286812084825282528690209451855492511515600160a01b026001600160a81b0319909316941693909317179092558251606081018452828152835163313ce56760e01b815293519093848301939263313ce567926004808401938290030181865afa158015610785573d6000803e3d6000fd5b505050506040513d601f19601f820116820180604052508101906107a9919061303d565b60ff908116825263ffffffff80861660209384015260008781526003845260408082206001600160a01b03988916808452908652818320875181548989015199850151909616600160a81b0263ffffffff60a81b1999909716600160a01b026001600160a81b03199096169a1699909917939093179590951692909217909555948552600481529084208054600181018255908552932090920180546001600160a01b031916909117905550565b60008281526001602090815260408083206001600160a01b038516845290915281205481908082036108bd57506001600160a01b03831660009081527fa6eef7e35abe7026729641147f7915573c7e97b47efa546f5f6e3230263bcb4960205260409020545b915050602081901c5b9250929050565b600081815260046020908152604080832080548251818502810185019093528083526060949383018282801561092c57602002820191906000526020600020905b81546001600160a01b0316815260019091019060200180831161090e575b50506000808052600460209081527f17ef568e3e12ab5b9c7254a8d58478811de00f9e6eb34345acd53bf8fd09d3ec805460408051828502810185019091528181529798509296955093509091508301828280156109b357602002820191906000526020600020905b81546001600160a01b03168152600190910190602001808311610995575b505050505090506000815183516109ca9190613076565b67ffffffffffffffff8111156109e2576109e2613089565b604051908082528060200260200182016040528015610a2d57816020015b6040805160608101825260008082526020808301829052928201528252600019909201910181610a005790505b50835190915060005b8451811015610ae757600360008881526020019081526020016000206000868381518110610a6657610a6661309f565b6020908102919091018101516001600160a01b039081168352828201939093526040918201600020825160608101845290549384168152600160a01b840460ff1691810191909152600160a81b90920463ffffffff16908201528351849083908110610ad457610ad461309f565b6020908102919091010152600101610a36565b5060005b8351811015610c35576000805b8651811015610b5d57858381518110610b1357610b1361309f565b60200260200101516001600160a01b0316878281518110610b3657610b3661309f565b60200260200101516001600160a01b031603610b555760019150610b5d565b600101610af8565b5080610c2c576000808052600360205285517f3617319a054d772f909f7c479a2cebe5066e836a939412e32403c99029b92eff9190879085908110610ba457610ba461309f565b6020908102919091018101516001600160a01b039081168352828201939093526040918201600020825160608101845290549384168152600160a01b840460ff1691810191909152600160a81b90920463ffffffff16908201528451859085908110610c1257610c1261309f565b60200260200101819052508280610c28906130b5565b9350505b50600101610aeb565b508151811015610c43578082525b50949350505050565b610c5461156e565b610c5e600061159b565b565b60008281526002602090815260408083206001600160a01b0385811685529252909120805491821691600160a01b900460ff169082610ce6575050506001600160a01b0381811660009081527fac33ff75c19e70fe83507db0d683fd3465c996598dc972688b7ace676c89077b60205260409020805491821691600160a01b900460ff16905b509250929050565b60007f00000000000000000000000000000000000000000000000000000000000000006001600160a01b031663862026508a7f0000000000000000000000000000000000000000000000000000000000000000610d6b577f0000000000000000000000000000000000000000000000000000000000000000610d6f565b61eeee5b6040516001600160e01b031960e085901b16815260048101929092526001600160a01b03166024820152604401602060405180830381865afa158015610db9573d6000803e3d6000fd5b505050506040513d601f19601f82011682018060405250810190610ddd9190613020565b90506001600160a01b038116610e0657604051630faa917b60e11b815260040160405180910390fd5b6000610e168a8a8a8588886115eb565b9050816001600160a01b0316639e6eec057f0000000000000000000000000000000000000000000000000000000000000000610e53576000610e55565b825b8c7f0000000000000000000000000000000000000000000000000000000000000000610ea1577f0000000000000000000000000000000000000000000000000000000000000000610ea5565b61eeee5b858c8c8c8c8c6040518a63ffffffff1660e01b8152600401610ece9897969594939291906130f7565b6000604051808303818588803b158015610ee757600080fd5b505af1158015610efb573d6000803e3d6000fd5b505050505050505050505050505050565b83158015610f2457506000546001600160a01b031633145b610fbd576040516331a9108f60e11b815260048101859052610fbd907f00000000000000000000000000000000000000000000000000000000000000006001600160a01b031690636352211e90602401602060405180830381865afa158015610f91573d6000803e3d6000fd5b505050506040513d601f19601f82011682018060405250810190610fb59190613020565b85601b6113ea565b60009384526001602090815260408086206001600160a01b03959095168652938152929093209290911b640100000000600160c01b031663ffffffff91909116179055565b60007f000000000000000000000000000000000000000000000000000000000000000061104e57507f000000000000000000000000000000000000000000000000000000000000000090565b5061eeee90565b61105d61156e565b6001600160a01b03811661108c57604051631e4fbdf760e01b8152600060048201526024015b60405180910390fd5b6110958161159b565b50565b6000806110a78385018561314f565b9150915060008087126110ba57866110bc565b855b90508115611139577f00000000000000000000000000000000000000000000000000000000000000006001600160a01b031663d0e30db0826040518263ffffffff1660e01b81526004016000604051808303818588803b15801561111f57600080fd5b505af1158015611133573d6000803e3d6000fd5b50505050505b60405163a9059cbb60e01b8152336004820152602481018290526001600160a01b0384169063a9059cbb906044016020604051808303816000875af1158015611186573d6000803e3d6000fd5b505050506040513d601f19601f820116820180604052508101906111aa919061317d565b5050505050505050565b6000807f00000000000000000000000000000000000000000000000000000000000000006001600160a01b031663862026508c7f0000000000000000000000000000000000000000000000000000000000000000611232577f0000000000000000000000000000000000000000000000000000000000000000611236565b61eeee5b6040516001600160e01b031960e085901b16815260048101929092526001600160a01b03166024820152604401602060405180830381865afa158015611280573d6000803e3d6000fd5b505050506040513d601f19601f820116820180604052508101906112a49190613020565b90506001600160a01b0381166112cd57604051630faa917b60e11b815260040160405180910390fd5b60006112dd8c8c8c8589896115eb565b9050816001600160a01b031663fef432577f000000000000000000000000000000000000000000000000000000000000000061131a57600061131c565b825b8e7f0000000000000000000000000000000000000000000000000000000000000000611368577f000000000000000000000000000000000000000000000000000000000000000061136c565b61eeee5b858e8e8e8e8e8e6040518b63ffffffff1660e01b81526004016113979998979695949392919061319a565b60206040518083038185885af11580156113b5573d6000803e3d6000fd5b50505050506040513d601f19601f820116820180604052508101906113da91906131fe565b509b9a5050505050505050505050565b336001600160a01b03841681148015906114a1575060405163c161c93f60e01b81526001600160a01b038281166004830152858116602483015260448201859052606482018490527f0000000000000000000000000000000000000000000000000000000000000000169063c161c93f90608401602060405180830381865afa15801561147b573d6000803e3d6000fd5b505050506040513d601f19601f8201168201806040525081019061149f919061317d565b155b801561154a575060405163c161c93f60e01b81526001600160a01b038281166004830152858116602483015260006044830152606482018490527f0000000000000000000000000000000000000000000000000000000000000000169063c161c93f90608401602060405180830381865afa158015611524573d6000803e3d6000fd5b505050506040513d601f19601f82011682018060405250810190611548919061317d565b155b156115685760405163075fd2b160e01b815260040160405180910390fd5b50505050565b6000546001600160a01b03163314610c5e5760405163118cdaa760e01b8152336004820152602401611083565b600080546001600160a01b038381166001600160a01b0319831681178455604051919092169283917f8be0079c531659141344cd1fd0a4f28419497f9722a3daafe3b4186f6b6457e09190a35050565b6040805160e081018252600060208201819052918101829052606081018290526080810182905260a0810182905260c081018290528781526001600160a01b03871661eeed1901611677576001600160a01b037f00000000000000000000000000000000000000000000000000000000000000001660408201526001606082015234608082015261168e565b6001600160a01b0387166040820152608081018690525b61169e84848a8460400151611789565b151560c08401526001600160a01b0316602083015260a08201526116c38185856118f2565b6080820152606081015180156116f657507f00000000000000000000000000000000000000000000000000000000000000005b8061173657507f00000000000000000000000000000000000000000000000000000000000000006001600160a01b031681604001516001600160a01b0316145b156117475780608001519150611753565b61175081611a7c565b91505b61177e857f000000000000000000000000000000000000000000000000000000000000000084611ca2565b509695505050505050565b60008060008060006117fd6117c16040518060400160405280600c81526020016b071756f7465466f72537761760a41b815250611cce565b8a8a8080601f016020809104026020016040519081016040528093929190818152602001838380828437600092019190915250611ce292505050565b915091508115611827578080602001905181019061181b9190613217565b919650945092506118e6565b60008781526002602090815260408083206001600160a01b038a81168552925290912080549182169550600160a01b90910460ff169350846118ce57506001600160a01b0386811660009081527fac33ff75c19e70fe83507db0d683fd3465c996598dc972688b7ace676c89077b6020526040902080549182169550600160a01b90910460ff169350846118ce57604051632a12044160e21b815260040160405180910390fd5b6118d9858986611e87565b6001600160a01b03169550505b50509450945094915050565b60408301516060840151600091901561190e5734915050611a75565b341561192d57604051635e7e9adf60e11b815260040160405180910390fd5b60008061199761195b604051806040016040528060078152602001663832b936b4ba1960c91b815250611cce565b87878080601f016020809104026020016040519081016040528093929190818152602001838380828437600092019190915250611ce292505050565b9150915081156119f7576000818060200190518101906119b791906132e8565b9050876080015181602001516001600160a01b031610156119eb576040516317e415a160e11b815260040160405180910390fd5b6119f58185611f0e565b505b611a073330858a6080015161200d565b6040516370a0823160e01b81523060048201526001600160a01b038416906370a0823190602401602060405180830381865afa158015611a4b573d6000803e3d6000fd5b505050506040513d601f19601f82011682018060405250810190611a6f91906131fe565b93505050505b9392505050565b6000808260400151905060007f00000000000000000000000000000000000000000000000000000000000000006001600160a01b0316826001600160a01b031610905060008085602001516001600160a01b031663128acb083085896080015187611b0557611b00600173fffd8963efd1fc6a506488495d951d5263988d266133e8565b611b15565b611b156401000276a3600161340f565b60608c810151604080516001600160a01b038e16602082015291151590820152016040516020818303038152906040526040518663ffffffff1660e01b8152600401611b6595949392919061345b565b60408051808303816000875af1158015611b83573d6000803e3d6000fd5b505050506040513d601f19601f82011682018060405250810190611ba791906134a1565b9150915082611bb65781611bb8565b805b611bc1906134c5565b94508560a00151851015611bf85760a0860151604051630bb50c5d60e41b8152611083918791600401918252602082015260400190565b7f000000000000000000000000000000000000000000000000000000000000000015611c9957604051632e1a7d4d60e01b8152600481018690527f00000000000000000000000000000000000000000000000000000000000000006001600160a01b031690632e1a7d4d90602401600060405180830381600087803b158015611c8057600080fd5b505af1158015611c94573d6000803e3d6000fd5b505050505b50505050919050565b61eeed196001600160a01b03831601611cba57505050565b6104616001600160a01b0383168483612182565b805160208201206000903060601b1861060a565b600060606025835111611d0757505060408051602081019091526000808252906108c6565b600083611d1660046020613076565b81518110611d2657611d2661309f565b0160209081015160f81c91505b600085611d41600484613076565b81518110611d5157611d5161309f565b01602001516001600160f81b03191614801590611d775750611d746020836134e1565b81105b15611e7e57600085611d8a600484613076565b81518110611d9a57611d9a61309f565b016020908101518784019091015160f89190911c91506001600160e01b031980891690821603611e74576000611dd16020866134e1565b611ddc600986613076565b101580611e11575087611df0600986613076565b81518110611e0057611e0061309f565b01602001516001600160f81b031916155b611e4a57602088611e23600987613076565b81518110611e3357611e3361309f565b0160200151611e45919060f81c6134e1565b611e4d565b87515b90506001611e6689611e606020876134e1565b8461220c565b9650965050505050506108c6565b5050600501611d33565b50509250929050565b6000806000611e968587610857565b915091506000611ea68784612252565b5090506000611eb48261249c565b905085611ee157612710611ec884836134f8565b611ed29190613540565b611edc908261340f565b611f02565b612710611eee84836134f8565b611ef89190613540565b611f0290826133e8565b98975050505050505050565b7f00000000000000000000000000000000000000000000000000000000000000006001600160a01b0316632b67b5703360405180606001604052806040518060800160405280876001600160a01b0316815260200188602001516001600160a01b03168152602001886040015165ffffffffffff168152602001886060015165ffffffffffff168152508152602001306001600160a01b03168152602001866000015181525085608001516040518463ffffffff1660e01b8152600401611fd793929190613566565b600060405180830381600087803b158015611ff157600080fd5b505af1158015612005573d6000803e3d6000fd5b505050505050565b306001600160a01b03851603612066577f0000000000000000000000000000000000000000000000000000000000000000156120525761204d83826127bf565b611568565b61204d6001600160a01b0383168483612856565b604051636eb1769f60e11b81526001600160a01b03858116600483015230602483015282919084169063dd62ed3e90604401602060405180830381865afa1580156120b5573d6000803e3d6000fd5b505050506040513d601f19601f820116820180604052508101906120d991906131fe565b106120f35761204d6001600160a01b0383168585846128b5565b604051631b63c28b60e11b81526001600160a01b0385811660048301528481166024830152828116604483015283811660648301527f000000000000000000000000000000000000000000000000000000000000000016906336c7851690608401600060405180830381600087803b15801561216e57600080fd5b505af11580156111aa573d6000803e3d6000fd5b604051636eb1769f60e11b81523060048201526001600160a01b0383811660248301526000919085169063dd62ed3e90604401602060405180830381865afa1580156121d2573d6000803e3d6000fd5b505050506040513d601f19601f820116820180604052508101906121f691906131fe565b905061156884846122078585613076565b6128ee565b60608282036040519150602081830101604052808252508260208501016020820160005b84811015612248578281015182820152602001612230565b5050509392505050565b6000808263ffffffff166000036122905760405162461bcd60e51b8152602060048201526002602482015261042560f41b6044820152606401611083565b60408051600280825260608201835260009260208301908036833701905050905083816000815181106122c5576122c561309f565b602002602001019063ffffffff16908163ffffffff16815250506000816001815181106122f4576122f461309f565b602002602001019063ffffffff16908163ffffffff1681525050600080866001600160a01b031663883bdbfd846040518263ffffffff1660e01b815260040161233d91906135da565b600060405180830381865afa15801561235a573d6000803e3d6000fd5b505050506040513d6000823e601f3d908101601f1916820160405261238291908101906136a9565b9150915060008260008151811061239b5761239b61309f565b6020026020010151836001815181106123b6576123b661309f565b60200260200101516123c89190613775565b90506000826000815181106123df576123df61309f565b6020026020010151836001815181106123fa576123fa61309f565b602002602001015161240c91906133e8565b905061241e63ffffffff8916836137a2565b965060008260060b128015612444575061243e63ffffffff8916836137e0565b60060b15155b15612457578661245381613802565b9750505b60006124706001600160a01b0363ffffffff8b16613825565b905061248d640100000000600160c01b03602084901b168261384e565b96505050505050509250929050565b60008060008360020b126124b3578260020b6124bb565b8260020b6000035b9050620d89e88111156124e1576040516315e4079d60e11b815260040160405180910390fd5b6000816001166000036124f857600160801b61250a565b6ffffcb933bd6fad37aa2d162d1a5940015b70ffffffffffffffffffffffffffffffffff169050600282161561253e576ffff97272373d413259a46990580e213a0260801c5b600482161561255d576ffff2e50f5f656932ef12357cf3c7fdcc0260801c5b600882161561257c576fffe5caca7e10e4e61c3624eaa0941cd00260801c5b601082161561259b576fffcb9843d60f6159c9db58835c9266440260801c5b60208216156125ba576fff973b41fa98c081472e6896dfb254c00260801c5b60408216156125d9576fff2ea16466c96a3843ec78b326b528610260801c5b60808216156125f8576ffe5dee046a99a2a811c461f1969c30530260801c5b610100821615612618576ffcbe86c7900a88aedcffc83b479aa3a40260801c5b610200821615612638576ff987a7253ac413176f2b074cf7815e540260801c5b610400821615612658576ff3392b0822b70005940c7a398e4b70f30260801c5b610800821615612678576fe7159475a2c29b7443b29c7fa6e889d90260801c5b611000821615612698576fd097f3bdfd2022b8845ad8f792aa58250260801c5b6120008216156126b8576fa9f746462d870fdf8a65dc1f90e061e50260801c5b6140008216156126d8576f70d869a156d2a1b890bb3df62baf32f70260801c5b6180008216156126f8576f31be135f97d08fd981231505542fcfa60260801c5b62010000821615612719576f09aa508b5b7a84e1c677de54f3e99bc90260801c5b62020000821615612739576e5d6af8dedb81196699c329225ee6040260801c5b62040000821615612758576d2216e584f5fa1ea926041bedfe980260801c5b62080000821615612775576b048a170391f7dc42444e8fa20260801c5b60008460020b13156127965780600019816127925761279261352a565b0490505b6401000000008106156127aa5760016127ad565b60005b60ff16602082901c0192505050919050565b804710156127e25760405163cd78605960e01b8152306004820152602401611083565b6000826001600160a01b03168260405160006040518083038185875af1925050503d806000811461282f576040519150601f19603f3d011682016040523d82523d6000602084013e612834565b606091505b505090508061046157604051630a12f52160e11b815260040160405180910390fd5b6040516001600160a01b0383811660248301526044820183905261046191859182169063a9059cbb906064015b604051602081830303815290604052915060e01b6020820180516001600160e01b03838183161783525050505061297a565b6040516001600160a01b0384811660248301528381166044830152606482018390526115689186918216906323b872dd90608401612883565b604080516001600160a01b038416602482015260448082018490528251808303909101815260649091019091526020810180516001600160e01b031663095ea7b360e01b17905261293f84826129dd565b611568576040516001600160a01b0384811660248301526000604483015261297491869182169063095ea7b390606401612883565b61156884825b600061298f6001600160a01b03841683612a85565b905080516000141580156129b45750808060200190518101906129b2919061317d565b155b1561046157604051635274afe760e01b81526001600160a01b0384166004820152602401611083565b6000806000846001600160a01b0316846040516129fa9190613868565b6000604051808303816000865af19150503d8060008114612a37576040519150601f19603f3d011682016040523d82523d6000602084013e612a3c565b606091505b5091509150818015612a66575080511580612a66575080806020019051810190612a66919061317d565b8015612a7c57506000856001600160a01b03163b115b95945050505050565b6060611a758383600084600080856001600160a01b03168486604051612aab9190613868565b60006040518083038185875af1925050503d8060008114612ae8576040519150601f19603f3d011682016040523d82523d6000602084013e612aed565b606091505b5091509150612afd868383612b07565b9695505050505050565b606082612b1c57612b1782612b63565b611a75565b8151158015612b3357506001600160a01b0384163b155b15612b5c57604051639996b31560e01b81526001600160a01b0385166004820152602401611083565b5080611a75565b805115612b735780518082602001fd5b604051630a12f52160e11b815260040160405180910390fd5b600060208284031215612b9e57600080fd5b81356001600160e01b031981168114611a7557600080fd5b6001600160a01b038116811461109557600080fd5b600080600060608486031215612be057600080fd5b833592506020840135612bf281612bb6565b91506040840135612c0281612bb6565b809150509250925092565b60008060408385031215612c2057600080fd5b823591506020830135612c3281612bb6565b809150509250929050565b81516001600160a01b0316815260208083015160ff169082015260408083015163ffffffff16908201526060810161060a565b600060208284031215612c8257600080fd5b5035919050565b6020808252825182820181905260009190848201906040850190845b81811015612cf157612cde83855180516001600160a01b0316825260208082015160ff169083015260409081015163ffffffff16910152565b9284019260609290920191600101612ca5565b50909695505050505050565b600080600060408486031215612d1257600080fd5b83359250602084013567ffffffffffffffff80821115612d3157600080fd5b818601915086601f830112612d4557600080fd5b813581811115612d5457600080fd5b8760208260051b8501011115612d6957600080fd5b6020830194508093505050509250925092565b801515811461109557600080fd5b60008083601f840112612d9c57600080fd5b50813567ffffffffffffffff811115612db457600080fd5b6020830191508360208285010111156108c657600080fd5b60008060008060008060008060c0898b031215612de857600080fd5b883597506020890135612dfa81612bb6565b9650604089013595506060890135612e1181612d7c565b9450608089013567ffffffffffffffff80821115612e2e57600080fd5b612e3a8c838d01612d8a565b909650945060a08b0135915080821115612e5357600080fd5b50612e608b828c01612d8a565b999c989b5096995094979396929594505050565b60008060008060808587031215612e8a57600080fd5b843593506020850135612e9c81612bb6565b9250604085013563ffffffff81168114612eb557600080fd5b91506060850135612ec581612bb6565b939692955090935050565b600080600060608486031215612ee557600080fd5b505081359360208301359350604090920135919050565b600060208284031215612f0e57600080fd5b8135611a7581612bb6565b60008060008060608587031215612f2f57600080fd5b8435935060208501359250604085013567ffffffffffffffff811115612f5457600080fd5b612f6087828801612d8a565b95989497509550505050565b600080600080600080600080600060e08a8c031215612f8a57600080fd5b8935985060208a0135612f9c81612bb6565b975060408a0135965060608a0135612fb381612bb6565b955060808a0135945060a08a013567ffffffffffffffff80821115612fd757600080fd5b612fe38d838e01612d8a565b909650945060c08c0135915080821115612ffc57600080fd5b506130098c828d01612d8a565b915080935050809150509295985092959850929598565b60006020828403121561303257600080fd5b8151611a7581612bb6565b60006020828403121561304f57600080fd5b815160ff81168114611a7557600080fd5b634e487b7160e01b600052601160045260246000fd5b8082018082111561060a5761060a613060565b634e487b7160e01b600052604160045260246000fd5b634e487b7160e01b600052603260045260246000fd5b6000600182016130c7576130c7613060565b5060010190565b81835281816020850137506000828201602090810191909152601f909101601f19169091010190565b88815260018060a01b0388166020820152866040820152851515606082015260c06080820152600061312d60c0830186886130ce565b82810360a08401526131408185876130ce565b9b9a5050505050505050505050565b6000806040838503121561316257600080fd5b823561316d81612bb6565b91506020830135612c3281612d7c565b60006020828403121561318f57600080fd5b8151611a7581612d7c565b8981526001600160a01b03898116602083015260408201899052871660608201526080810186905260e060a082018190526000906131db90830186886130ce565b82810360c08401526131ee8185876130ce565b9c9b505050505050505050505050565b60006020828403121561321057600080fd5b5051919050565b60008060006060848603121561322c57600080fd5b83519250602084015161323e81612bb6565b6040850151909250612c0281612d7c565b60405160a0810167ffffffffffffffff8111828210171561327257613272613089565b60405290565b604051601f8201601f1916810167ffffffffffffffff811182821017156132a1576132a1613089565b604052919050565b805165ffffffffffff811681146132bf57600080fd5b919050565b60005b838110156132df5781810151838201526020016132c7565b50506000910152565b600060208083850312156132fb57600080fd5b825167ffffffffffffffff8082111561331357600080fd5b9084019060a0828703121561332757600080fd5b61332f61324f565b825181528383015161334081612bb6565b81850152613350604084016132a9565b6040820152613361606084016132a9565b606082015260808301518281111561337857600080fd5b80840193505086601f84011261338d57600080fd5b82518281111561339f5761339f613089565b6133b1601f8201601f19168601613278565b925080835287858286010111156133c757600080fd5b6133d6818685018787016132c4565b50608081019190915295945050505050565b6001600160a01b0382811682821603908082111561340857613408613060565b5092915050565b6001600160a01b0381811683821601908082111561340857613408613060565b600081518084526134478160208601602086016132c4565b601f01601f19169290920160200192915050565b6001600160a01b0386811682528515156020830152604082018590528316606082015260a0608082018190526000906134969083018461342f565b979650505050505050565b600080604083850312156134b457600080fd5b505080516020909101519092909150565b6000600160ff1b82016134da576134da613060565b5060000390565b808202811582820484141761060a5761060a613060565b6001600160a01b0382811682821681810283169291811582850482141761352157613521613060565b50505092915050565b634e487b7160e01b600052601260045260246000fd5b60006001600160a01b038381168061355a5761355a61352a565b92169190910492915050565b600061010060018060a01b0380871684528551818151166020860152816020820151166040860152604081015165ffffffffffff80821660608801528060608401511660808801525050508060208701511660a085015250604085015160c08401528060e0840152612afd8184018561342f565b6020808252825182820181905260009190848201906040850190845b81811015612cf157835163ffffffff16835292840192918401916001016135f6565b600067ffffffffffffffff82111561363257613632613089565b5060051b60200190565b600082601f83011261364d57600080fd5b8151602061366261365d83613618565b613278565b8083825260208201915060208460051b87010193508684111561368457600080fd5b602086015b8481101561177e57805161369c81612bb6565b8352918301918301613689565b600080604083850312156136bc57600080fd5b825167ffffffffffffffff808211156136d457600080fd5b818501915085601f8301126136e857600080fd5b815160206136f861365d83613618565b82815260059290921b8401810191818101908984111561371757600080fd5b948201945b838610156137455785518060060b81146137365760008081fd5b8252948201949082019061371c565b9188015191965090935050508082111561375e57600080fd5b5061376b8582860161363c565b9150509250929050565b600682810b9082900b03667fffffffffffff198112667fffffffffffff8213171561060a5761060a613060565b60008160060b8360060b806137b9576137b961352a565b667fffffffffffff198214600019821416156137d7576137d7613060565b90059392505050565b60008260060b806137f3576137f361352a565b808360060b0791505092915050565b60008160020b627fffff19810361381b5761381b613060565b6000190192915050565b6001600160c01b0382811682821681810283169291811582850482141761352157613521613060565b60006001600160c01b038381168061355a5761355a61352a565b6000825161387a8184602087016132c4565b919091019291505056fea26469706673582212203eaaa271f99648caaac00c323ec8349d1176ef3b90bf956e24fd1c111ff22b5264736f6c63430008170033",
			"deployedBytecode": "0x60806040526004361061014f5760003560e01c806398ea47fc116100b6578063d0202d3b1161006f578063d0202d3b14610507578063e28b54111461051c578063f2fde38b14610537578063f434c91414610557578063fa461e331461058b578063fef43257146105ab57600080fd5b806398ea47fc146104465780639e6eec0514610466578063ac90511414610479578063ad5c46481461048f578063c361534c146104c3578063cc680127146104e357600080fd5b8063515a929311610108578063515a92931461033f5780636afdd8501461036c578063715018a6146103a05780637c5e9c24146103b557806388bc2ef3146103f45780638da5cb5b1461042857600080fd5b806301ffc9a7146101a457806324e26dc5146101d9578063293c4999146101f95780632c1ae882146102455780633a01714f1461026857806340873cb5146102fb57600080fd5b3661019f57336001600160a01b037f0000000000000000000000007b79995e5f793a07bc00c21412e50ecae098e7f9161461019d57604051635e7e9adf60e11b815260040160405180910390fd5b005b600080fd5b3480156101b057600080fd5b506101c46101bf366004612b8c565b6105be565b60405190151581526020015b60405180910390f35b3480156101e557600080fd5b5061019d6101f4366004612bcb565b610610565b34801561020557600080fd5b5061022d7f000000000000000000000000fa679f5ecdd8be404c1fbaa7f29aeb2b12f5b66281565b6040516001600160a01b0390911681526020016101d0565b34801561025157600080fd5b5061025a600081565b6040519081526020016101d0565b34801561027457600080fd5b506102ee610283366004612c0d565b604080516060808201835260008083526020808401829052928401819052948552600382528285206001600160a01b03948516865282529382902082519485018352549283168452600160a01b830460ff1690840152600160a81b90910463ffffffff169082015290565b6040516101d09190612c3d565b34801561030757600080fd5b5061031b610316366004612c0d565b610857565b6040805163ffffffff90931683526001600160a01b039091166020830152016101d0565b34801561034b57600080fd5b5061035f61035a366004612c70565b6108cd565b6040516101d09190612c89565b34801561037857600080fd5b5061022d7f000000000000000000000000000000000022d473030f116ddee9f6b43ac78ba381565b3480156103ac57600080fd5b5061019d610c4c565b3480156103c157600080fd5b506103d56103d0366004612c0d565b610c60565b604080516001600160a01b0390931683529015156020830152016101d0565b34801561040057600080fd5b5061022d7f00000000000000000000000044d360c8c4105f180e07668bd3374c7a6f812faf81565b34801561043457600080fd5b506000546001600160a01b031661022d565b34801561045257600080fd5b5061019d610461366004612cfd565b505050565b61019d610474366004612dcc565b610cee565b34801561048557600080fd5b5061022d61271081565b34801561049b57600080fd5b5061022d7f0000000000000000000000007b79995e5f793a07bc00c21412e50ecae098e7f981565b3480156104cf57600080fd5b5061019d6104de366004612e74565b610f0c565b3480156104ef57600080fd5b5061025a6104fe366004612ed0565b60009392505050565b34801561051357600080fd5b5061022d611002565b34801561052857600080fd5b5061025a6104fe366004612bcb565b34801561054357600080fd5b5061019d610552366004612efc565b611055565b34801561056357600080fd5b5061022d7f000000000000000000000000711eda44f3d42f3d255846b5ee36cf70fd912e5081565b34801561059757600080fd5b5061019d6105a6366004612f19565b611098565b61025a6105b9366004612f6c565b6111b4565b60006001600160e01b03198216632f720bd160e21b14806105ef57506001600160e01b031982166306afdd8560e41b145b8061060a57506001600160e01b031982166301ffc9a760e01b145b92915050565b8215801561062857506000546001600160a01b031633145b6106c1576040516331a9108f60e11b8152600481018490526106c1907f000000000000000000000000fa679f5ecdd8be404c1fbaa7f29aeb2b12f5b6626001600160a01b031690636352211e90602401602060405180830381865afa158015610695573d6000803e3d6000fd5b505050506040513d601f19601f820116820180604052508101906106b99190613020565b84601a6113ea565b6040805180820182526001600160a01b0380841682527f0000000000000000000000007b79995e5f793a07bc00c21412e50ecae098e7f98116858216908110602080850191825260008981526002825286812084825282528690209451855492511515600160a01b026001600160a81b0319909316941693909317179092558251606081018452828152835163313ce56760e01b815293519093848301939263313ce567926004808401938290030181865afa158015610785573d6000803e3d6000fd5b505050506040513d601f19601f820116820180604052508101906107a9919061303d565b60ff908116825263ffffffff80861660209384015260008781526003845260408082206001600160a01b03988916808452908652818320875181548989015199850151909616600160a81b0263ffffffff60a81b1999909716600160a01b026001600160a81b03199096169a1699909917939093179590951692909217909555948552600481529084208054600181018255908552932090920180546001600160a01b031916909117905550565b60008281526001602090815260408083206001600160a01b038516845290915281205481908082036108bd57506001600160a01b03831660009081527fa6eef7e35abe7026729641147f7915573c7e97b47efa546f5f6e3230263bcb4960205260409020545b915050602081901c5b9250929050565b600081815260046020908152604080832080548251818502810185019093528083526060949383018282801561092c57602002820191906000526020600020905b81546001600160a01b0316815260019091019060200180831161090e575b50506000808052600460209081527f17ef568e3e12ab5b9c7254a8d58478811de00f9e6eb34345acd53bf8fd09d3ec805460408051828502810185019091528181529798509296955093509091508301828280156109b357602002820191906000526020600020905b81546001600160a01b03168152600190910190602001808311610995575b505050505090506000815183516109ca9190613076565b67ffffffffffffffff8111156109e2576109e2613089565b604051908082528060200260200182016040528015610a2d57816020015b6040805160608101825260008082526020808301829052928201528252600019909201910181610a005790505b50835190915060005b8451811015610ae757600360008881526020019081526020016000206000868381518110610a6657610a6661309f565b6020908102919091018101516001600160a01b039081168352828201939093526040918201600020825160608101845290549384168152600160a01b840460ff1691810191909152600160a81b90920463ffffffff16908201528351849083908110610ad457610ad461309f565b6020908102919091010152600101610a36565b5060005b8351811015610c35576000805b8651811015610b5d57858381518110610b1357610b1361309f565b60200260200101516001600160a01b0316878281518110610b3657610b3661309f565b60200260200101516001600160a01b031603610b555760019150610b5d565b600101610af8565b5080610c2c576000808052600360205285517f3617319a054d772f909f7c479a2cebe5066e836a939412e32403c99029b92eff9190879085908110610ba457610ba461309f565b6020908102919091018101516001600160a01b039081168352828201939093526040918201600020825160608101845290549384168152600160a01b840460ff1691810191909152600160a81b90920463ffffffff16908201528451859085908110610c1257610c1261309f565b60200260200101819052508280610c28906130b5565b9350505b50600101610aeb565b508151811015610c43578082525b50949350505050565b610c5461156e565b610c5e600061159b565b565b60008281526002602090815260408083206001600160a01b0385811685529252909120805491821691600160a01b900460ff169082610ce6575050506001600160a01b0381811660009081527fac33ff75c19e70fe83507db0d683fd3465c996598dc972688b7ace676c89077b60205260409020805491821691600160a01b900460ff16905b509250929050565b60007f00000000000000000000000044d360c8c4105f180e07668bd3374c7a6f812faf6001600160a01b031663862026508a7f0000000000000000000000000000000000000000000000000000000000000001610d6b577f0000000000000000000000007b79995e5f793a07bc00c21412e50ecae098e7f9610d6f565b61eeee5b6040516001600160e01b031960e085901b16815260048101929092526001600160a01b03166024820152604401602060405180830381865afa158015610db9573d6000803e3d6000fd5b505050506040513d601f19601f82011682018060405250810190610ddd9190613020565b90506001600160a01b038116610e0657604051630faa917b60e11b815260040160405180910390fd5b6000610e168a8a8a8588886115eb565b9050816001600160a01b0316639e6eec057f0000000000000000000000000000000000000000000000000000000000000001610e53576000610e55565b825b8c7f0000000000000000000000000000000000000000000000000000000000000001610ea1577f0000000000000000000000007b79995e5f793a07bc00c21412e50ecae098e7f9610ea5565b61eeee5b858c8c8c8c8c6040518a63ffffffff1660e01b8152600401610ece9897969594939291906130f7565b6000604051808303818588803b158015610ee757600080fd5b505af1158015610efb573d6000803e3d6000fd5b505050505050505050505050505050565b83158015610f2457506000546001600160a01b031633145b610fbd576040516331a9108f60e11b815260048101859052610fbd907f000000000000000000000000fa679f5ecdd8be404c1fbaa7f29aeb2b12f5b6626001600160a01b031690636352211e90602401602060405180830381865afa158015610f91573d6000803e3d6000fd5b505050506040513d601f19601f82011682018060405250810190610fb59190613020565b85601b6113ea565b60009384526001602090815260408086206001600160a01b03959095168652938152929093209290911b640100000000600160c01b031663ffffffff91909116179055565b60007f000000000000000000000000000000000000000000000000000000000000000161104e57507f0000000000000000000000007b79995e5f793a07bc00c21412e50ecae098e7f990565b5061eeee90565b61105d61156e565b6001600160a01b03811661108c57604051631e4fbdf760e01b8152600060048201526024015b60405180910390fd5b6110958161159b565b50565b6000806110a78385018561314f565b9150915060008087126110ba57866110bc565b855b90508115611139577f0000000000000000000000007b79995e5f793a07bc00c21412e50ecae098e7f96001600160a01b031663d0e30db0826040518263ffffffff1660e01b81526004016000604051808303818588803b15801561111f57600080fd5b505af1158015611133573d6000803e3d6000fd5b50505050505b60405163a9059cbb60e01b8152336004820152602481018290526001600160a01b0384169063a9059cbb906044016020604051808303816000875af1158015611186573d6000803e3d6000fd5b505050506040513d601f19601f820116820180604052508101906111aa919061317d565b5050505050505050565b6000807f00000000000000000000000044d360c8c4105f180e07668bd3374c7a6f812faf6001600160a01b031663862026508c7f0000000000000000000000000000000000000000000000000000000000000001611232577f0000000000000000000000007b79995e5f793a07bc00c21412e50ecae098e7f9611236565b61eeee5b6040516001600160e01b031960e085901b16815260048101929092526001600160a01b03166024820152604401602060405180830381865afa158015611280573d6000803e3d6000fd5b505050506040513d601f19601f820116820180604052508101906112a49190613020565b90506001600160a01b0381166112cd57604051630faa917b60e11b815260040160405180910390fd5b60006112dd8c8c8c8589896115eb565b9050816001600160a01b031663fef432577f000000000000000000000000000000000000000000000000000000000000000161131a57600061131c565b825b8e7f0000000000000000000000000000000000000000000000000000000000000001611368577f0000000000000000000000007b79995e5f793a07bc00c21412e50ecae098e7f961136c565b61eeee5b858e8e8e8e8e8e6040518b63ffffffff1660e01b81526004016113979998979695949392919061319a565b60206040518083038185885af11580156113b5573d6000803e3d6000fd5b50505050506040513d601f19601f820116820180604052508101906113da91906131fe565b509b9a5050505050505050505050565b336001600160a01b03841681148015906114a1575060405163c161c93f60e01b81526001600160a01b038281166004830152858116602483015260448201859052606482018490527f000000000000000000000000711eda44f3d42f3d255846b5ee36cf70fd912e50169063c161c93f90608401602060405180830381865afa15801561147b573d6000803e3d6000fd5b505050506040513d601f19601f8201168201806040525081019061149f919061317d565b155b801561154a575060405163c161c93f60e01b81526001600160a01b038281166004830152858116602483015260006044830152606482018490527f000000000000000000000000711eda44f3d42f3d255846b5ee36cf70fd912e50169063c161c93f90608401602060405180830381865afa158015611524573d6000803e3d6000fd5b505050506040513d601f19601f82011682018060405250810190611548919061317d565b155b156115685760405163075fd2b160e01b815260040160405180910390fd5b50505050565b6000546001600160a01b03163314610c5e5760405163118cdaa760e01b8152336004820152602401611083565b600080546001600160a01b038381166001600160a01b0319831681178455604051919092169283917f8be0079c531659141344cd1fd0a4f28419497f9722a3daafe3b4186f6b6457e09190a35050565b6040805160e081018252600060208201819052918101829052606081018290526080810182905260a0810182905260c081018290528781526001600160a01b03871661eeed1901611677576001600160a01b037f0000000000000000000000007b79995e5f793a07bc00c21412e50ecae098e7f91660408201526001606082015234608082015261168e565b6001600160a01b0387166040820152608081018690525b61169e84848a8460400151611789565b151560c08401526001600160a01b0316602083015260a08201526116c38185856118f2565b6080820152606081015180156116f657507f00000000000000000000000000000000000000000000000000000000000000015b8061173657507f0000000000000000000000007b79995e5f793a07bc00c21412e50ecae098e7f96001600160a01b031681604001516001600160a01b0316145b156117475780608001519150611753565b61175081611a7c565b91505b61177e857f0000000000000000000000007b79995e5f793a07bc00c21412e50ecae098e7f984611ca2565b509695505050505050565b60008060008060006117fd6117c16040518060400160405280600c81526020016b071756f7465466f72537761760a41b815250611cce565b8a8a8080601f016020809104026020016040519081016040528093929190818152602001838380828437600092019190915250611ce292505050565b915091508115611827578080602001905181019061181b9190613217565b919650945092506118e6565b60008781526002602090815260408083206001600160a01b038a81168552925290912080549182169550600160a01b90910460ff169350846118ce57506001600160a01b0386811660009081527fac33ff75c19e70fe83507db0d683fd3465c996598dc972688b7ace676c89077b6020526040902080549182169550600160a01b90910460ff169350846118ce57604051632a12044160e21b815260040160405180910390fd5b6118d9858986611e87565b6001600160a01b03169550505b50509450945094915050565b60408301516060840151600091901561190e5734915050611a75565b341561192d57604051635e7e9adf60e11b815260040160405180910390fd5b60008061199761195b604051806040016040528060078152602001663832b936b4ba1960c91b815250611cce565b87878080601f016020809104026020016040519081016040528093929190818152602001838380828437600092019190915250611ce292505050565b9150915081156119f7576000818060200190518101906119b791906132e8565b9050876080015181602001516001600160a01b031610156119eb576040516317e415a160e11b815260040160405180910390fd5b6119f58185611f0e565b505b611a073330858a6080015161200d565b6040516370a0823160e01b81523060048201526001600160a01b038416906370a0823190602401602060405180830381865afa158015611a4b573d6000803e3d6000fd5b505050506040513d601f19601f82011682018060405250810190611a6f91906131fe565b93505050505b9392505050565b6000808260400151905060007f0000000000000000000000007b79995e5f793a07bc00c21412e50ecae098e7f96001600160a01b0316826001600160a01b031610905060008085602001516001600160a01b031663128acb083085896080015187611b0557611b00600173fffd8963efd1fc6a506488495d951d5263988d266133e8565b611b15565b611b156401000276a3600161340f565b60608c810151604080516001600160a01b038e16602082015291151590820152016040516020818303038152906040526040518663ffffffff1660e01b8152600401611b6595949392919061345b565b60408051808303816000875af1158015611b83573d6000803e3d6000fd5b505050506040513d601f19601f82011682018060405250810190611ba791906134a1565b9150915082611bb65781611bb8565b805b611bc1906134c5565b94508560a00151851015611bf85760a0860151604051630bb50c5d60e41b8152611083918791600401918252602082015260400190565b7f000000000000000000000000000000000000000000000000000000000000000115611c9957604051632e1a7d4d60e01b8152600481018690527f0000000000000000000000007b79995e5f793a07bc00c21412e50ecae098e7f96001600160a01b031690632e1a7d4d90602401600060405180830381600087803b158015611c8057600080fd5b505af1158015611c94573d6000803e3d6000fd5b505050505b50505050919050565b61eeed196001600160a01b03831601611cba57505050565b6104616001600160a01b0383168483612182565b805160208201206000903060601b1861060a565b600060606025835111611d0757505060408051602081019091526000808252906108c6565b600083611d1660046020613076565b81518110611d2657611d2661309f565b0160209081015160f81c91505b600085611d41600484613076565b81518110611d5157611d5161309f565b01602001516001600160f81b03191614801590611d775750611d746020836134e1565b81105b15611e7e57600085611d8a600484613076565b81518110611d9a57611d9a61309f565b016020908101518784019091015160f89190911c91506001600160e01b031980891690821603611e74576000611dd16020866134e1565b611ddc600986613076565b101580611e11575087611df0600986613076565b81518110611e0057611e0061309f565b01602001516001600160f81b031916155b611e4a57602088611e23600987613076565b81518110611e3357611e3361309f565b0160200151611e45919060f81c6134e1565b611e4d565b87515b90506001611e6689611e606020876134e1565b8461220c565b9650965050505050506108c6565b5050600501611d33565b50509250929050565b6000806000611e968587610857565b915091506000611ea68784612252565b5090506000611eb48261249c565b905085611ee157612710611ec884836134f8565b611ed29190613540565b611edc908261340f565b611f02565b612710611eee84836134f8565b611ef89190613540565b611f0290826133e8565b98975050505050505050565b7f000000000000000000000000000000000022d473030f116ddee9f6b43ac78ba36001600160a01b0316632b67b5703360405180606001604052806040518060800160405280876001600160a01b0316815260200188602001516001600160a01b03168152602001886040015165ffffffffffff168152602001886060015165ffffffffffff168152508152602001306001600160a01b03168152602001866000015181525085608001516040518463ffffffff1660e01b8152600401611fd793929190613566565b600060405180830381600087803b158015611ff157600080fd5b505af1158015612005573d6000803e3d6000fd5b505050505050565b306001600160a01b03851603612066577f0000000000000000000000000000000000000000000000000000000000000001156120525761204d83826127bf565b611568565b61204d6001600160a01b0383168483612856565b604051636eb1769f60e11b81526001600160a01b03858116600483015230602483015282919084169063dd62ed3e90604401602060405180830381865afa1580156120b5573d6000803e3d6000fd5b505050506040513d601f19601f820116820180604052508101906120d991906131fe565b106120f35761204d6001600160a01b0383168585846128b5565b604051631b63c28b60e11b81526001600160a01b0385811660048301528481166024830152828116604483015283811660648301527f000000000000000000000000000000000022d473030f116ddee9f6b43ac78ba316906336c7851690608401600060405180830381600087803b15801561216e57600080fd5b505af11580156111aa573d6000803e3d6000fd5b604051636eb1769f60e11b81523060048201526001600160a01b0383811660248301526000919085169063dd62ed3e90604401602060405180830381865afa1580156121d2573d6000803e3d6000fd5b505050506040513d601f19601f820116820180604052508101906121f691906131fe565b905061156884846122078585613076565b6128ee565b60608282036040519150602081830101604052808252508260208501016020820160005b84811015612248578281015182820152602001612230565b5050509392505050565b6000808263ffffffff166000036122905760405162461bcd60e51b8152602060048201526002602482015261042560f41b6044820152606401611083565b60408051600280825260608201835260009260208301908036833701905050905083816000815181106122c5576122c561309f565b602002602001019063ffffffff16908163ffffffff16815250506000816001815181106122f4576122f461309f565b602002602001019063ffffffff16908163ffffffff1681525050600080866001600160a01b031663883bdbfd846040518263ffffffff1660e01b815260040161233d91906135da565b600060405180830381865afa15801561235a573d6000803e3d6000fd5b505050506040513d6000823e601f3d908101601f1916820160405261238291908101906136a9565b9150915060008260008151811061239b5761239b61309f565b6020026020010151836001815181106123b6576123b661309f565b60200260200101516123c89190613775565b90506000826000815181106123df576123df61309f565b6020026020010151836001815181106123fa576123fa61309f565b602002602001015161240c91906133e8565b905061241e63ffffffff8916836137a2565b965060008260060b128015612444575061243e63ffffffff8916836137e0565b60060b15155b15612457578661245381613802565b9750505b60006124706001600160a01b0363ffffffff8b16613825565b905061248d640100000000600160c01b03602084901b168261384e565b96505050505050509250929050565b60008060008360020b126124b3578260020b6124bb565b8260020b6000035b9050620d89e88111156124e1576040516315e4079d60e11b815260040160405180910390fd5b6000816001166000036124f857600160801b61250a565b6ffffcb933bd6fad37aa2d162d1a5940015b70ffffffffffffffffffffffffffffffffff169050600282161561253e576ffff97272373d413259a46990580e213a0260801c5b600482161561255d576ffff2e50f5f656932ef12357cf3c7fdcc0260801c5b600882161561257c576fffe5caca7e10e4e61c3624eaa0941cd00260801c5b601082161561259b576fffcb9843d60f6159c9db58835c9266440260801c5b60208216156125ba576fff973b41fa98c081472e6896dfb254c00260801c5b60408216156125d9576fff2ea16466c96a3843ec78b326b528610260801c5b60808216156125f8576ffe5dee046a99a2a811c461f1969c30530260801c5b610100821615612618576ffcbe86c7900a88aedcffc83b479aa3a40260801c5b610200821615612638576ff987a7253ac413176f2b074cf7815e540260801c5b610400821615612658576ff3392b0822b70005940c7a398e4b70f30260801c5b610800821615612678576fe7159475a2c29b7443b29c7fa6e889d90260801c5b611000821615612698576fd097f3bdfd2022b8845ad8f792aa58250260801c5b6120008216156126b8576fa9f746462d870fdf8a65dc1f90e061e50260801c5b6140008216156126d8576f70d869a156d2a1b890bb3df62baf32f70260801c5b6180008216156126f8576f31be135f97d08fd981231505542fcfa60260801c5b62010000821615612719576f09aa508b5b7a84e1c677de54f3e99bc90260801c5b62020000821615612739576e5d6af8dedb81196699c329225ee6040260801c5b62040000821615612758576d2216e584f5fa1ea926041bedfe980260801c5b62080000821615612775576b048a170391f7dc42444e8fa20260801c5b60008460020b13156127965780600019816127925761279261352a565b0490505b6401000000008106156127aa5760016127ad565b60005b60ff16602082901c0192505050919050565b804710156127e25760405163cd78605960e01b8152306004820152602401611083565b6000826001600160a01b03168260405160006040518083038185875af1925050503d806000811461282f576040519150601f19603f3d011682016040523d82523d6000602084013e612834565b606091505b505090508061046157604051630a12f52160e11b815260040160405180910390fd5b6040516001600160a01b0383811660248301526044820183905261046191859182169063a9059cbb906064015b604051602081830303815290604052915060e01b6020820180516001600160e01b03838183161783525050505061297a565b6040516001600160a01b0384811660248301528381166044830152606482018390526115689186918216906323b872dd90608401612883565b604080516001600160a01b038416602482015260448082018490528251808303909101815260649091019091526020810180516001600160e01b031663095ea7b360e01b17905261293f84826129dd565b611568576040516001600160a01b0384811660248301526000604483015261297491869182169063095ea7b390606401612883565b61156884825b600061298f6001600160a01b03841683612a85565b905080516000141580156129b45750808060200190518101906129b2919061317d565b155b1561046157604051635274afe760e01b81526001600160a01b0384166004820152602401611083565b6000806000846001600160a01b0316846040516129fa9190613868565b6000604051808303816000865af19150503d8060008114612a37576040519150601f19603f3d011682016040523d82523d6000602084013e612a3c565b606091505b5091509150818015612a66575080511580612a66575080806020019051810190612a66919061317d565b8015612a7c57506000856001600160a01b03163b115b95945050505050565b6060611a758383600084600080856001600160a01b03168486604051612aab9190613868565b60006040518083038185875af1925050503d8060008114612ae8576040519150601f19603f3d011682016040523d82523d6000602084013e612aed565b606091505b5091509150612afd868383612b07565b9695505050505050565b606082612b1c57612b1782612b63565b611a75565b8151158015612b3357506001600160a01b0384163b155b15612b5c57604051639996b31560e01b81526001600160a01b0385166004820152602401611083565b5080611a75565b805115612b735780518082602001fd5b604051630a12f52160e11b815260040160405180910390fd5b600060208284031215612b9e57600080fd5b81356001600160e01b031981168114611a7557600080fd5b6001600160a01b038116811461109557600080fd5b600080600060608486031215612be057600080fd5b833592506020840135612bf281612bb6565b91506040840135612c0281612bb6565b809150509250925092565b60008060408385031215612c2057600080fd5b823591506020830135612c3281612bb6565b809150509250929050565b81516001600160a01b0316815260208083015160ff169082015260408083015163ffffffff16908201526060810161060a565b600060208284031215612c8257600080fd5b5035919050565b6020808252825182820181905260009190848201906040850190845b81811015612cf157612cde83855180516001600160a01b0316825260208082015160ff169083015260409081015163ffffffff16910152565b9284019260609290920191600101612ca5565b50909695505050505050565b600080600060408486031215612d1257600080fd5b83359250602084013567ffffffffffffffff80821115612d3157600080fd5b818601915086601f830112612d4557600080fd5b813581811115612d5457600080fd5b8760208260051b8501011115612d6957600080fd5b6020830194508093505050509250925092565b801515811461109557600080fd5b60008083601f840112612d9c57600080fd5b50813567ffffffffffffffff811115612db457600080fd5b6020830191508360208285010111156108c657600080fd5b60008060008060008060008060c0898b031215612de857600080fd5b883597506020890135612dfa81612bb6565b9650604089013595506060890135612e1181612d7c565b9450608089013567ffffffffffffffff80821115612e2e57600080fd5b612e3a8c838d01612d8a565b909650945060a08b0135915080821115612e5357600080fd5b50612e608b828c01612d8a565b999c989b5096995094979396929594505050565b60008060008060808587031215612e8a57600080fd5b843593506020850135612e9c81612bb6565b9250604085013563ffffffff81168114612eb557600080fd5b91506060850135612ec581612bb6565b939692955090935050565b600080600060608486031215612ee557600080fd5b505081359360208301359350604090920135919050565b600060208284031215612f0e57600080fd5b8135611a7581612bb6565b60008060008060608587031215612f2f57600080fd5b8435935060208501359250604085013567ffffffffffffffff811115612f5457600080fd5b612f6087828801612d8a565b95989497509550505050565b600080600080600080600080600060e08a8c031215612f8a57600080fd5b8935985060208a0135612f9c81612bb6565b975060408a0135965060608a0135612fb381612bb6565b955060808a0135945060a08a013567ffffffffffffffff80821115612fd757600080fd5b612fe38d838e01612d8a565b909650945060c08c0135915080821115612ffc57600080fd5b506130098c828d01612d8a565b915080935050809150509295985092959850929598565b60006020828403121561303257600080fd5b8151611a7581612bb6565b60006020828403121561304f57600080fd5b815160ff81168114611a7557600080fd5b634e487b7160e01b600052601160045260246000fd5b8082018082111561060a5761060a613060565b634e487b7160e01b600052604160045260246000fd5b634e487b7160e01b600052603260045260246000fd5b6000600182016130c7576130c7613060565b5060010190565b81835281816020850137506000828201602090810191909152601f909101601f19169091010190565b88815260018060a01b0388166020820152866040820152851515606082015260c06080820152600061312d60c0830186886130ce565b82810360a08401526131408185876130ce565b9b9a5050505050505050505050565b6000806040838503121561316257600080fd5b823561316d81612bb6565b91506020830135612c3281612d7c565b60006020828403121561318f57600080fd5b8151611a7581612d7c565b8981526001600160a01b03898116602083015260408201899052871660608201526080810186905260e060a082018190526000906131db90830186886130ce565b82810360c08401526131ee8185876130ce565b9c9b505050505050505050505050565b60006020828403121561321057600080fd5b5051919050565b60008060006060848603121561322c57600080fd5b83519250602084015161323e81612bb6565b6040850151909250612c0281612d7c565b60405160a0810167ffffffffffffffff8111828210171561327257613272613089565b60405290565b604051601f8201601f1916810167ffffffffffffffff811182821017156132a1576132a1613089565b604052919050565b805165ffffffffffff811681146132bf57600080fd5b919050565b60005b838110156132df5781810151838201526020016132c7565b50506000910152565b600060208083850312156132fb57600080fd5b825167ffffffffffffffff8082111561331357600080fd5b9084019060a0828703121561332757600080fd5b61332f61324f565b825181528383015161334081612bb6565b81850152613350604084016132a9565b6040820152613361606084016132a9565b606082015260808301518281111561337857600080fd5b80840193505086601f84011261338d57600080fd5b82518281111561339f5761339f613089565b6133b1601f8201601f19168601613278565b925080835287858286010111156133c757600080fd5b6133d6818685018787016132c4565b50608081019190915295945050505050565b6001600160a01b0382811682821603908082111561340857613408613060565b5092915050565b6001600160a01b0381811683821601908082111561340857613408613060565b600081518084526134478160208601602086016132c4565b601f01601f19169290920160200192915050565b6001600160a01b0386811682528515156020830152604082018590528316606082015260a0608082018190526000906134969083018461342f565b979650505050505050565b600080604083850312156134b457600080fd5b505080516020909101519092909150565b6000600160ff1b82016134da576134da613060565b5060000390565b808202811582820484141761060a5761060a613060565b6001600160a01b0382811682821681810283169291811582850482141761352157613521613060565b50505092915050565b634e487b7160e01b600052601260045260246000fd5b60006001600160a01b038381168061355a5761355a61352a565b92169190910492915050565b600061010060018060a01b0380871684528551818151166020860152816020820151166040860152604081015165ffffffffffff80821660608801528060608401511660808801525050508060208701511660a085015250604085015160c08401528060e0840152612afd8184018561342f565b6020808252825182820181905260009190848201906040850190845b81811015612cf157835163ffffffff16835292840192918401916001016135f6565b600067ffffffffffffffff82111561363257613632613089565b5060051b60200190565b600082601f83011261364d57600080fd5b8151602061366261365d83613618565b613278565b8083825260208201915060208460051b87010193508684111561368457600080fd5b602086015b8481101561177e57805161369c81612bb6565b8352918301918301613689565b600080604083850312156136bc57600080fd5b825167ffffffffffffffff808211156136d457600080fd5b818501915085601f8301126136e857600080fd5b815160206136f861365d83613618565b82815260059290921b8401810191818101908984111561371757600080fd5b948201945b838610156137455785518060060b81146137365760008081fd5b8252948201949082019061371c565b9188015191965090935050508082111561375e57600080fd5b5061376b8582860161363c565b9150509250929050565b600682810b9082900b03667fffffffffffff198112667fffffffffffff8213171561060a5761060a613060565b60008160060b8360060b806137b9576137b961352a565b667fffffffffffff198214600019821416156137d7576137d7613060565b90059392505050565b60008260060b806137f3576137f361352a565b808360060b0791505092915050565b60008160020b627fffff19810361381b5761381b613060565b6000190192915050565b6001600160c01b0382811682821681810283169291811582850482141761352157613521613060565b60006001600160c01b038381168061355a5761355a61352a565b6000825161387a8184602087016132c4565b919091019291505056fea26469706673582212203eaaa271f99648caaac00c323ec8349d1176ef3b90bf956e24fd1c111ff22b5264736f6c63430008170033",
			"devdoc": {
				"kind": "dev",
				"methods": {
					"accountingContextForTokenOf(uint256,address)": {
						"details": "Accounting contexts are set up in `addDefaultPool(...)`.",
						"params": {
							"projectId": "The ID of the project to get the accounting context for.",
							"token": "The address of the token to get the accounting context for."
						},
						"returns": {
							"_0": "A `JBAccountingContext` containing the accounting context for the project ID and token."
						}
					},
					"accountingContextsOf(uint256)": {
						"details": "This includes both project-specific and generic accounting contexts, with the project-specific contexts         taking precedence.",
						"params": {
							"projectId": "The ID of the project to get the accounting contexts for."
						},
						"returns": {
							"_0": "An array of `JBAccountingContext` containing the accounting contexts for the project ID."
						}
					},
					"addDefaultPool(uint256,address,address)": {
						"params": {
							"pool": "The Uniswap V3 pool to set as the default for the specified token.",
							"projectId": "The ID of the project to set the default pool for. The project 0 acts as a catch-all, where non-set pools are defaulted to.",
							"token": "The address of the token to set the default pool for."
						}
					},
					"addToBalanceOf(uint256,address,uint256,bool,string,bytes)": {
						"details": "This function handles the token in transfer, potentially swaps the tokens to the desired output token, and then adds the swapped tokens to the project's balance in the specified terminal.",
						"params": {
							"amount": "The amount of tokens being paid in.",
							"memo": "A memo to pass along to the emitted event.",
							"metadata": "Bytes in `JBMetadataResolver`'s format which can contain additional data for the swap and adding to balance.",
							"projectId": "The ID of the project for which funds are being accepted and added to its balance.",
							"shouldReturnHeldFees": "A boolean to indicate whether held fees should be returned.",
							"token": "The address of the token being paid in."
						}
					},
					"addTwapParamsFor(uint256,address,uint32,uint160)": {
						"params": {
							"projectId": "The ID of the project to set the TWAP-based quote rules for.",
							"secondsAgo": "The period of time over which the TWAP is calculated, in seconds.",
							"slippageTolerance": "The maximum spread allowed between the amount received and the TWAP (as a fraction out of `SLIPPAGE_DENOMINATOR`)."
						}
					},
					"getPoolFor(uint256,address)": {
						"params": {
							"projectId": "The ID of the project to retrieve the default pool for.",
							"tokenIn": "The address of the token to retrieve the default pool for."
						},
						"returns": {
							"pool": "The default pool for the token, or the overall default pool for the token if the"
						}
					},
					"owner()": {
						"details": "Returns the address of the current owner."
					},
					"pay(uint256,address,uint256,address,uint256,string,bytes)": {
						"params": {
							"amount": "The amount of tokens being paid in, as a fixed point number with the same amount of decimals as the `token`. If `token` is the native token, `amount` is ignored and `msg.value` is used in its place.",
							"beneficiary": "The beneficiary address to pass along to the other terminal. If the other terminal mints tokens, for example, they will be minted for this address.",
							"memo": "A memo to pass along to the emitted event.",
							"metadata": "Bytes in `JBMetadataResolver`'s format which can contain a quote from the user/client. The quote should contain a minimum amount of tokens to receive from the swap and the pool to use. This metadata is also passed to the other terminal's emitted event, as well as its data hook and pay hook if applicable.",
							"minReturnedTokens": "The minimum number of project tokens expected in return, as a fixed point number with the same number of decimals as the other terminal. This value will be passed along to the other terminal.",
							"projectId": "The ID of the project being paid.",
							"token": "The address of the token being paid in."
						},
						"returns": {
							"_0": "The number of tokens received from the swap, as a fixed point number with the same amount of decimals as that token."
						}
					},
					"renounceOwnership()": {
						"details": "Leaves the contract without owner. It will not be possible to call `onlyOwner` functions. Can only be called by the current owner. NOTE: Renouncing ownership will leave the contract without an owner, thereby disabling any functionality that is only available to the owner."
					},
					"supportsInterface(bytes4)": {
						"details": "See {IERC165-supportsInterface}.",
						"params": {
							"interfaceId": "The ID of the interface to check for adherance to."
						},
						"returns": {
							"_0": "A flag indicating if the provided interface ID is supported."
						}
					},
					"tokenOut()": {
						"details": "If the token out is the chain native token (ETH on mainnet), JBConstants NATIVE_TOKEN is returned",
						"returns": {
							"_0": "The token that flows out of this terminal."
						}
					},
					"transferOwnership(address)": {
						"details": "Transfers ownership of the contract to a new account (`newOwner`). Can only be called by the current owner."
					},
					"twapParamsOf(uint256,address)": {
						"params": {
							"projectId": "The ID of the project to retrieve TWAP parameters for."
						},
						"returns": {
							"secondsAgo": "The period of time in the past to calculate the TWAP from.",
							"slippageTolerance": "The maximum allowed slippage tolerance when calculating the TWAP, as a fraction out of `SLIPPAGE_DENOMINATOR`."
						}
					},
					"uniswapV3SwapCallback(int256,int256,bytes)": {
						"details": "This function has no access control, care should be taken to ensure that:      - terminal balance is always be 0 between tx (this callback can only be used to sweep accidental leftovers)      - callback cannot pull user funds via a preexisting allowance",
						"params": {
							"amount0Delta": "The amount of token 0 being used for the swap.",
							"amount1Delta": "The amount of token 1 being used for the swap.",
							"data": "Data passed in by the swap operation."
						}
					}
				},
				"version": 1
			},
			"userdoc": {
				"kind": "user",
				"methods": {
					"DEFAULT_PROJECT_ID()": {
						"notice": "The ID to store default values in."
					},
					"DIRECTORY()": {
						"notice": "The directory of terminals and controllers for `PROJECTS`."
					},
					"PERMISSIONS()": {
						"notice": "A contract storing permissions."
					},
					"PERMIT2()": {
						"notice": "The permit2 utility."
					},
					"PROJECTS()": {
						"notice": "Mints ERC-721s that represent project ownership and transfers."
					},
					"SLIPPAGE_DENOMINATOR()": {
						"notice": "The denominator used when calculating TWAP slippage tolerance values."
					},
					"WETH()": {
						"notice": "The ERC-20 wrapper for the native token."
					},
					"accountingContextForTokenOf(uint256,address)": {
						"notice": "Get the accounting context for the specified project ID and token."
					},
					"accountingContextsOf(uint256)": {
						"notice": "Return all the accounting contexts for a specified project ID."
					},
					"addAccountingContextsFor(uint256,address[])": {
						"notice": "Empty implementation to satisfy the interface. Accounting contexts are set in `addDefaultPool(...)`."
					},
					"addDefaultPool(uint256,address,address)": {
						"notice": "Set a project's default pool and accounting context for the specified token. Only the project's owner, an address with `MODIFY_DEFAULT_POOL` permission from the owner or the terminal owner can call this function."
					},
					"addToBalanceOf(uint256,address,uint256,bool,string,bytes)": {
						"notice": "Accepts funds for a given project, swaps them if necessary, and adds them to the project's balance in the specified terminal."
					},
					"addTwapParamsFor(uint256,address,uint32,uint160)": {
						"notice": "Set the specified project's rules for calculating a quote based on the TWAP. Only the project's owner or an address with `MODIFY_TWAP_PARAMS` permission from the owner  or the terminal owner can call this function."
					},
					"currentSurplusOf(uint256,uint256,uint256)": {
						"notice": "Empty implementation to satisfy the interface. This terminal has no surplus."
					},
					"getPoolFor(uint256,address)": {
						"notice": "Returns the default pool for a given project and token or, if a project has no default pool for the         token, the overal default pool for the token"
					},
					"migrateBalanceOf(uint256,address,address)": {
						"notice": "Empty implementation to satisfy the interface."
					},
					"pay(uint256,address,uint256,address,uint256,string,bytes)": {
						"notice": "Pay a project by swapping the incoming tokens for tokens that one of the project's other terminals accepts, passing along the funds received from the swap and the specified parameters."
					},
					"supportsInterface(bytes4)": {
						"notice": "Indicates if this contract adheres to the specified interface."
					},
					"tokenOut()": {
						"notice": "Returns the token that flows out of this terminal."
					},
					"twapParamsOf(uint256,address)": {
						"notice": "Returns the default twap parameters for a given pool project."
					},
					"uniswapV3SwapCallback(int256,int256,bytes)": {
						"notice": "The Uniswap v3 pool callback where the token transfer is expected to happen."
					}
				},
				"version": 1
			},
			"gitCommit": "2a99d44b5f807d843eaff7facb030391557971ea",
			"sourceName": "src/JBSwapTerminal.sol",
			"chainId": "11155111",
			"linkReferences": {},
			"deployedLinkReferences": {}
		},
		{
			"_format": "sphinx-sol-ct-artifact-1",
			"merkleRoot": "0x2d52fb76ecd070e7bd29e1a26d40f9e0d59c3e7ee1e19704d514535dc187d02a",
			"contractName": "JBSwapTerminal",
			"address": "0x84526A3B10bFB5cF2b975d99EB8676c942073170",
			"abi": [
				{
					"type": "constructor",
					"inputs": [
						{
							"name": "projects",
							"type": "address",
							"internalType": "contract IJBProjects"
						},
						{
							"name": "permissions",
							"type": "address",
							"internalType": "contract IJBPermissions"
						},
						{
							"name": "directory",
							"type": "address",
							"internalType": "contract IJBDirectory"
						},
						{
							"name": "permit2",
							"type": "address",
							"internalType": "contract IPermit2"
						},
						{
							"name": "owner",
							"type": "address",
							"internalType": "address"
						},
						{
							"name": "weth",
							"type": "address",
							"internalType": "contract IWETH9"
						},
						{
							"name": "tokenOut",
							"type": "address",
							"internalType": "address"
						}
					],
					"stateMutability": "nonpayable"
				},
				{
					"type": "receive",
					"stateMutability": "payable"
				},
				{
					"type": "function",
					"name": "DEFAULT_PROJECT_ID",
					"inputs": [],
					"outputs": [
						{
							"name": "",
							"type": "uint256",
							"internalType": "uint256"
						}
					],
					"stateMutability": "view"
				},
				{
					"type": "function",
					"name": "DIRECTORY",
					"inputs": [],
					"outputs": [
						{
							"name": "",
							"type": "address",
							"internalType": "contract IJBDirectory"
						}
					],
					"stateMutability": "view"
				},
				{
					"type": "function",
					"name": "PERMISSIONS",
					"inputs": [],
					"outputs": [
						{
							"name": "",
							"type": "address",
							"internalType": "contract IJBPermissions"
						}
					],
					"stateMutability": "view"
				},
				{
					"type": "function",
					"name": "PERMIT2",
					"inputs": [],
					"outputs": [
						{
							"name": "",
							"type": "address",
							"internalType": "contract IPermit2"
						}
					],
					"stateMutability": "view"
				},
				{
					"type": "function",
					"name": "PROJECTS",
					"inputs": [],
					"outputs": [
						{
							"name": "",
							"type": "address",
							"internalType": "contract IJBProjects"
						}
					],
					"stateMutability": "view"
				},
				{
					"type": "function",
					"name": "SLIPPAGE_DENOMINATOR",
					"inputs": [],
					"outputs": [
						{
							"name": "",
							"type": "uint160",
							"internalType": "uint160"
						}
					],
					"stateMutability": "view"
				},
				{
					"type": "function",
					"name": "TOKEN_OUT",
					"inputs": [],
					"outputs": [
						{
							"name": "",
							"type": "address",
							"internalType": "address"
						}
					],
					"stateMutability": "view"
				},
				{
					"type": "function",
					"name": "WETH",
					"inputs": [],
					"outputs": [
						{
							"name": "",
							"type": "address",
							"internalType": "contract IWETH9"
						}
					],
					"stateMutability": "view"
				},
				{
					"type": "function",
					"name": "accountingContextForTokenOf",
					"inputs": [
						{
							"name": "projectId",
							"type": "uint256",
							"internalType": "uint256"
						},
						{
							"name": "token",
							"type": "address",
							"internalType": "address"
						}
					],
					"outputs": [
						{
							"name": "",
							"type": "tuple",
							"internalType": "struct JBAccountingContext",
							"components": [
								{
									"name": "token",
									"type": "address",
									"internalType": "address"
								},
								{
									"name": "decimals",
									"type": "uint8",
									"internalType": "uint8"
								},
								{
									"name": "currency",
									"type": "uint32",
									"internalType": "uint32"
								}
							]
						}
					],
					"stateMutability": "view"
				},
				{
					"type": "function",
					"name": "accountingContextsOf",
					"inputs": [
						{
							"name": "projectId",
							"type": "uint256",
							"internalType": "uint256"
						}
					],
					"outputs": [
						{
							"name": "",
							"type": "tuple[]",
							"internalType": "struct JBAccountingContext[]",
							"components": [
								{
									"name": "token",
									"type": "address",
									"internalType": "address"
								},
								{
									"name": "decimals",
									"type": "uint8",
									"internalType": "uint8"
								},
								{
									"name": "currency",
									"type": "uint32",
									"internalType": "uint32"
								}
							]
						}
					],
					"stateMutability": "view"
				},
				{
					"type": "function",
					"name": "addAccountingContextsFor",
					"inputs": [
						{
							"name": "projectId",
							"type": "uint256",
							"internalType": "uint256"
						},
						{
							"name": "tokens",
							"type": "address[]",
							"internalType": "address[]"
						}
					],
					"outputs": [],
					"stateMutability": "nonpayable"
				},
				{
					"type": "function",
					"name": "addDefaultPool",
					"inputs": [
						{
							"name": "projectId",
							"type": "uint256",
							"internalType": "uint256"
						},
						{
							"name": "token",
							"type": "address",
							"internalType": "address"
						},
						{
							"name": "pool",
							"type": "address",
							"internalType": "contract IUniswapV3Pool"
						}
					],
					"outputs": [],
					"stateMutability": "nonpayable"
				},
				{
					"type": "function",
					"name": "addToBalanceOf",
					"inputs": [
						{
							"name": "projectId",
							"type": "uint256",
							"internalType": "uint256"
						},
						{
							"name": "token",
							"type": "address",
							"internalType": "address"
						},
						{
							"name": "amount",
							"type": "uint256",
							"internalType": "uint256"
						},
						{
							"name": "shouldReturnHeldFees",
							"type": "bool",
							"internalType": "bool"
						},
						{
							"name": "memo",
							"type": "string",
							"internalType": "string"
						},
						{
							"name": "metadata",
							"type": "bytes",
							"internalType": "bytes"
						}
					],
					"outputs": [],
					"stateMutability": "payable"
				},
				{
					"type": "function",
					"name": "addTwapParamsFor",
					"inputs": [
						{
							"name": "projectId",
							"type": "uint256",
							"internalType": "uint256"
						},
						{
							"name": "pool",
							"type": "address",
							"internalType": "contract IUniswapV3Pool"
						},
						{
							"name": "secondsAgo",
							"type": "uint32",
							"internalType": "uint32"
						},
						{
							"name": "slippageTolerance",
							"type": "uint160",
							"internalType": "uint160"
						}
					],
					"outputs": [],
					"stateMutability": "nonpayable"
				},
				{
					"type": "function",
					"name": "currentSurplusOf",
					"inputs": [
						{
							"name": "projectId",
							"type": "uint256",
							"internalType": "uint256"
						},
						{
							"name": "decimals",
							"type": "uint256",
							"internalType": "uint256"
						},
						{
							"name": "currency",
							"type": "uint256",
							"internalType": "uint256"
						}
					],
					"outputs": [
						{
							"name": "",
							"type": "uint256",
							"internalType": "uint256"
						}
					],
					"stateMutability": "view"
				},
				{
					"type": "function",
					"name": "getPoolFor",
					"inputs": [
						{
							"name": "projectId",
							"type": "uint256",
							"internalType": "uint256"
						},
						{
							"name": "tokenIn",
							"type": "address",
							"internalType": "address"
						}
					],
					"outputs": [
						{
							"name": "pool",
							"type": "address",
							"internalType": "contract IUniswapV3Pool"
						},
						{
							"name": "zeroForOne",
							"type": "bool",
							"internalType": "bool"
						}
					],
					"stateMutability": "view"
				},
				{
					"type": "function",
					"name": "migrateBalanceOf",
					"inputs": [
						{
							"name": "projectId",
							"type": "uint256",
							"internalType": "uint256"
						},
						{
							"name": "token",
							"type": "address",
							"internalType": "address"
						},
						{
							"name": "to",
							"type": "address",
							"internalType": "contract IJBTerminal"
						}
					],
					"outputs": [
						{
							"name": "balance",
							"type": "uint256",
							"internalType": "uint256"
						}
					],
					"stateMutability": "nonpayable"
				},
				{
					"type": "function",
					"name": "owner",
					"inputs": [],
					"outputs": [
						{
							"name": "",
							"type": "address",
							"internalType": "address"
						}
					],
					"stateMutability": "view"
				},
				{
					"type": "function",
					"name": "pay",
					"inputs": [
						{
							"name": "projectId",
							"type": "uint256",
							"internalType": "uint256"
						},
						{
							"name": "token",
							"type": "address",
							"internalType": "address"
						},
						{
							"name": "amount",
							"type": "uint256",
							"internalType": "uint256"
						},
						{
							"name": "beneficiary",
							"type": "address",
							"internalType": "address"
						},
						{
							"name": "minReturnedTokens",
							"type": "uint256",
							"internalType": "uint256"
						},
						{
							"name": "memo",
							"type": "string",
							"internalType": "string"
						},
						{
							"name": "metadata",
							"type": "bytes",
							"internalType": "bytes"
						}
					],
					"outputs": [
						{
							"name": "",
							"type": "uint256",
							"internalType": "uint256"
						}
					],
					"stateMutability": "payable"
				},
				{
					"type": "function",
					"name": "renounceOwnership",
					"inputs": [],
					"outputs": [],
					"stateMutability": "nonpayable"
				},
				{
					"type": "function",
					"name": "supportsInterface",
					"inputs": [
						{
							"name": "interfaceId",
							"type": "bytes4",
							"internalType": "bytes4"
						}
					],
					"outputs": [
						{
							"name": "",
							"type": "bool",
							"internalType": "bool"
						}
					],
					"stateMutability": "view"
				},
				{
					"type": "function",
					"name": "transferOwnership",
					"inputs": [
						{
							"name": "newOwner",
							"type": "address",
							"internalType": "address"
						}
					],
					"outputs": [],
					"stateMutability": "nonpayable"
				},
				{
					"type": "function",
					"name": "twapParamsOf",
					"inputs": [
						{
							"name": "projectId",
							"type": "uint256",
							"internalType": "uint256"
						},
						{
							"name": "pool",
							"type": "address",
							"internalType": "contract IUniswapV3Pool"
						}
					],
					"outputs": [
						{
							"name": "secondsAgo",
							"type": "uint32",
							"internalType": "uint32"
						},
						{
							"name": "slippageTolerance",
							"type": "uint160",
							"internalType": "uint160"
						}
					],
					"stateMutability": "view"
				},
				{
					"type": "function",
					"name": "uniswapV3SwapCallback",
					"inputs": [
						{
							"name": "amount0Delta",
							"type": "int256",
							"internalType": "int256"
						},
						{
							"name": "amount1Delta",
							"type": "int256",
							"internalType": "int256"
						},
						{
							"name": "data",
							"type": "bytes",
							"internalType": "bytes"
						}
					],
					"outputs": [],
					"stateMutability": "nonpayable"
				},
				{
					"type": "event",
					"name": "AddToBalance",
					"inputs": [
						{
							"name": "projectId",
							"type": "uint256",
							"indexed": true,
							"internalType": "uint256"
						},
						{
							"name": "amount",
							"type": "uint256",
							"indexed": false,
							"internalType": "uint256"
						},
						{
							"name": "unlockedFees",
							"type": "uint256",
							"indexed": false,
							"internalType": "uint256"
						},
						{
							"name": "memo",
							"type": "string",
							"indexed": false,
							"internalType": "string"
						},
						{
							"name": "metadata",
							"type": "bytes",
							"indexed": false,
							"internalType": "bytes"
						},
						{
							"name": "caller",
							"type": "address",
							"indexed": false,
							"internalType": "address"
						}
					],
					"anonymous": false
				},
				{
					"type": "event",
					"name": "HookAfterRecordPay",
					"inputs": [
						{
							"name": "hook",
							"type": "address",
							"indexed": true,
							"internalType": "contract IJBPayHook"
						},
						{
							"name": "context",
							"type": "tuple",
							"indexed": false,
							"internalType": "struct JBAfterPayRecordedContext",
							"components": [
								{
									"name": "payer",
									"type": "address",
									"internalType": "address"
								},
								{
									"name": "projectId",
									"type": "uint256",
									"internalType": "uint256"
								},
								{
									"name": "rulesetId",
									"type": "uint256",
									"internalType": "uint256"
								},
								{
									"name": "amount",
									"type": "tuple",
									"internalType": "struct JBTokenAmount",
									"components": [
										{
											"name": "token",
											"type": "address",
											"internalType": "address"
										},
										{
											"name": "value",
											"type": "uint256",
											"internalType": "uint256"
										},
										{
											"name": "decimals",
											"type": "uint256",
											"internalType": "uint256"
										},
										{
											"name": "currency",
											"type": "uint256",
											"internalType": "uint256"
										}
									]
								},
								{
									"name": "forwardedAmount",
									"type": "tuple",
									"internalType": "struct JBTokenAmount",
									"components": [
										{
											"name": "token",
											"type": "address",
											"internalType": "address"
										},
										{
											"name": "value",
											"type": "uint256",
											"internalType": "uint256"
										},
										{
											"name": "decimals",
											"type": "uint256",
											"internalType": "uint256"
										},
										{
											"name": "currency",
											"type": "uint256",
											"internalType": "uint256"
										}
									]
								},
								{
									"name": "weight",
									"type": "uint256",
									"internalType": "uint256"
								},
								{
									"name": "projectTokenCount",
									"type": "uint256",
									"internalType": "uint256"
								},
								{
									"name": "beneficiary",
									"type": "address",
									"internalType": "address"
								},
								{
									"name": "hookMetadata",
									"type": "bytes",
									"internalType": "bytes"
								},
								{
									"name": "payerMetadata",
									"type": "bytes",
									"internalType": "bytes"
								}
							]
						},
						{
							"name": "specificationAmount",
							"type": "uint256",
							"indexed": false,
							"internalType": "uint256"
						},
						{
							"name": "caller",
							"type": "address",
							"indexed": false,
							"internalType": "address"
						}
					],
					"anonymous": false
				},
				{
					"type": "event",
					"name": "MigrateTerminal",
					"inputs": [
						{
							"name": "projectId",
							"type": "uint256",
							"indexed": true,
							"internalType": "uint256"
						},
						{
							"name": "token",
							"type": "address",
							"indexed": true,
							"internalType": "address"
						},
						{
							"name": "to",
							"type": "address",
							"indexed": true,
							"internalType": "contract IJBTerminal"
						},
						{
							"name": "amount",
							"type": "uint256",
							"indexed": false,
							"internalType": "uint256"
						},
						{
							"name": "caller",
							"type": "address",
							"indexed": false,
							"internalType": "address"
						}
					],
					"anonymous": false
				},
				{
					"type": "event",
					"name": "OwnershipTransferred",
					"inputs": [
						{
							"name": "previousOwner",
							"type": "address",
							"indexed": true,
							"internalType": "address"
						},
						{
							"name": "newOwner",
							"type": "address",
							"indexed": true,
							"internalType": "address"
						}
					],
					"anonymous": false
				},
				{
					"type": "event",
					"name": "Pay",
					"inputs": [
						{
							"name": "rulesetId",
							"type": "uint256",
							"indexed": true,
							"internalType": "uint256"
						},
						{
							"name": "rulesetCycleNumber",
							"type": "uint256",
							"indexed": true,
							"internalType": "uint256"
						},
						{
							"name": "projectId",
							"type": "uint256",
							"indexed": true,
							"internalType": "uint256"
						},
						{
							"name": "payer",
							"type": "address",
							"indexed": false,
							"internalType": "address"
						},
						{
							"name": "beneficiary",
							"type": "address",
							"indexed": false,
							"internalType": "address"
						},
						{
							"name": "amount",
							"type": "uint256",
							"indexed": false,
							"internalType": "uint256"
						},
						{
							"name": "beneficiaryTokenCount",
							"type": "uint256",
							"indexed": false,
							"internalType": "uint256"
						},
						{
							"name": "memo",
							"type": "string",
							"indexed": false,
							"internalType": "string"
						},
						{
							"name": "metadata",
							"type": "bytes",
							"indexed": false,
							"internalType": "bytes"
						},
						{
							"name": "caller",
							"type": "address",
							"indexed": false,
							"internalType": "address"
						}
					],
					"anonymous": false
				},
				{
					"type": "event",
					"name": "SetAccountingContext",
					"inputs": [
						{
							"name": "projectId",
							"type": "uint256",
							"indexed": true,
							"internalType": "uint256"
						},
						{
							"name": "token",
							"type": "address",
							"indexed": true,
							"internalType": "address"
						},
						{
							"name": "context",
							"type": "tuple",
							"indexed": false,
							"internalType": "struct JBAccountingContext",
							"components": [
								{
									"name": "token",
									"type": "address",
									"internalType": "address"
								},
								{
									"name": "decimals",
									"type": "uint8",
									"internalType": "uint8"
								},
								{
									"name": "currency",
									"type": "uint32",
									"internalType": "uint32"
								}
							]
						},
						{
							"name": "caller",
							"type": "address",
							"indexed": false,
							"internalType": "address"
						}
					],
					"anonymous": false
				},
				{
					"type": "error",
					"name": "AddressEmptyCode",
					"inputs": [
						{
							"name": "target",
							"type": "address",
							"internalType": "address"
						}
					]
				},
				{
					"type": "error",
					"name": "AddressInsufficientBalance",
					"inputs": [
						{
							"name": "account",
							"type": "address",
							"internalType": "address"
						}
					]
				},
				{
					"type": "error",
					"name": "FailedInnerCall",
					"inputs": []
				},
				{
					"type": "error",
					"name": "MAX_SLIPPAGE",
					"inputs": [
						{
							"name": "",
							"type": "uint256",
							"internalType": "uint256"
						},
						{
							"name": "",
							"type": "uint256",
							"internalType": "uint256"
						}
					]
				},
				{
					"type": "error",
					"name": "NO_DEFAULT_POOL_DEFINED",
					"inputs": []
				},
				{
					"type": "error",
					"name": "NO_MSG_VALUE_ALLOWED",
					"inputs": []
				},
				{
					"type": "error",
					"name": "OwnableInvalidOwner",
					"inputs": [
						{
							"name": "owner",
							"type": "address",
							"internalType": "address"
						}
					]
				},
				{
					"type": "error",
					"name": "OwnableUnauthorizedAccount",
					"inputs": [
						{
							"name": "account",
							"type": "address",
							"internalType": "address"
						}
					]
				},
				{
					"type": "error",
					"name": "PERMIT_ALLOWANCE_NOT_ENOUGH",
					"inputs": []
				},
				{
					"type": "error",
					"name": "SafeERC20FailedOperation",
					"inputs": [
						{
							"name": "token",
							"type": "address",
							"internalType": "address"
						}
					]
				},
				{
					"type": "error",
					"name": "T",
					"inputs": []
				},
				{
					"type": "error",
					"name": "TOKEN_NOT_ACCEPTED",
					"inputs": []
				},
				{
					"type": "error",
					"name": "UNAUTHORIZED",
					"inputs": []
				},
				{
					"type": "error",
					"name": "UNSUPPORTED",
					"inputs": []
				}
			],
			"solcInputHash": "985d20ce1c49d56e50047d8f70936c1c",
			"receipt": {
				"blockHash": "0x03b5b8cf53a624607f61a239f20d871f2ad795f0e092a0fe9b370e3a78426b31",
				"blockNumber": 5748962,
				"contractAddress": null,
				"cumulativeGasUsed": "17033298",
				"from": "0xC034550B542b83BA1De312b21d1C94a9a52B1595",
				"gasPrice": "1000471244",
				"gasUsed": "3385881",
				"hash": "0xcdab22a5e001d1e6d00c76b115b9e87bdd77016256f9d043699eb73c8c58b1c5",
				"index": 68,
				"logs": [
					{
						"address": "0xB5E96127D417b1B3ef8438496a38A143167209c7",
						"blockHash": "0x03b5b8cf53a624607f61a239f20d871f2ad795f0e092a0fe9b370e3a78426b31",
						"blockNumber": 5748962,
						"data": "0x0000000000000000000000000000000000000000000000000000000000000000",
						"index": 100,
						"topics": [
							"0x572f161235911da04685a68c06adf558fc7e4a36909dca394650e0adc19cc93d",
							"0x000000000000000000000000c034550b542b83ba1de312b21d1c94a9a52b1595",
							"0x0000000000000000000000003f6eb31c3cafeb9163d09242a27d52e8cca6fa73",
							"0xea2cbb7df3569da7a48b91e898e9243fa073dc8d0511026c35e23091bf9a51c1"
						],
						"transactionHash": "0xcdab22a5e001d1e6d00c76b115b9e87bdd77016256f9d043699eb73c8c58b1c5",
						"transactionIndex": 68
					},
					{
						"address": "0x84526A3B10bFB5cF2b975d99EB8676c942073170",
						"blockHash": "0x03b5b8cf53a624607f61a239f20d871f2ad795f0e092a0fe9b370e3a78426b31",
						"blockNumber": 5748962,
						"data": "0x",
						"index": 101,
						"topics": [
							"0x8be0079c531659141344cd1fd0a4f28419497f9722a3daafe3b4186f6b6457e0",
							"0x0000000000000000000000000000000000000000000000000000000000000000",
							"0x000000000000000000000000823b92d6a4b2aed4b15675c7917c9f922ea8adad"
						],
						"transactionHash": "0xcdab22a5e001d1e6d00c76b115b9e87bdd77016256f9d043699eb73c8c58b1c5",
						"transactionIndex": 68
					},
					{
						"address": "0x21CD04c712ca1206baE783EC9B715361DfC28026",
						"blockHash": "0x03b5b8cf53a624607f61a239f20d871f2ad795f0e092a0fe9b370e3a78426b31",
						"blockNumber": 5748962,
						"data": "0x",
						"index": 102,
						"topics": [
							"0x6895c13664aa4f67288b25d7a21d7aaa34916e355fb9b6fae0a139a9085becb8",
							"0x0000000000000000000000003f6eb31c3cafeb9163d09242a27d52e8cca6fa73"
						],
						"transactionHash": "0xcdab22a5e001d1e6d00c76b115b9e87bdd77016256f9d043699eb73c8c58b1c5",
						"transactionIndex": 68
					},
					{
						"address": "0x3f6eB31C3cAFEb9163d09242A27D52E8cCa6Fa73",
						"blockHash": "0x03b5b8cf53a624607f61a239f20d871f2ad795f0e092a0fe9b370e3a78426b31",
						"blockNumber": 5748962,
						"data": "0x0000000000000000000000000000000000000000000000000000000000000001",
						"index": 103,
						"topics": [
							"0xa65fb05c5808f5f389d72edeaf719ce38f4cc55c1f69ca3cbfb31c21501caa07",
							"0x2d52fb76ecd070e7bd29e1a26d40f9e0d59c3e7ee1e19704d514535dc187d02a"
						],
						"transactionHash": "0xcdab22a5e001d1e6d00c76b115b9e87bdd77016256f9d043699eb73c8c58b1c5",
						"transactionIndex": 68
					},
					{
						"address": "0x3f6eB31C3cAFEb9163d09242A27D52E8cCa6Fa73",
						"blockHash": "0x03b5b8cf53a624607f61a239f20d871f2ad795f0e092a0fe9b370e3a78426b31",
						"blockNumber": 5748962,
						"data": "0x",
						"index": 104,
						"topics": [
							"0x4383d976757d67ca920616be0b6430a681ea9d3dcce8d6d61d4603ca4a9bff63",
							"0x2d52fb76ecd070e7bd29e1a26d40f9e0d59c3e7ee1e19704d514535dc187d02a"
						],
						"transactionHash": "0xcdab22a5e001d1e6d00c76b115b9e87bdd77016256f9d043699eb73c8c58b1c5",
						"transactionIndex": 68
					}
				],
				"logsBloom": "0x0000000008001000000000000008000000000000004800000080000000400000000000000000000000800000014000000000000000000000000010000000000000000000000020000000000080000000000100001000000000000080000000000000000002000000000000000000080010000000000000000000000000000040000000000000000210010000000000000000000000000000000000000000000100400088001004000000000000000002020000000000008000008000000400000000000000000000000000000c0000004000000000000000000002000000a0000002000000000008000000000000000200000000000000000000000008000000",
				"status": 1,
				"to": "0xB5E96127D417b1B3ef8438496a38A143167209c7"
			},
			"metadata": "{\"compiler\":{\"version\":\"0.8.23+commit.f704f362\"},\"language\":\"Solidity\",\"output\":{\"abi\":[{\"inputs\":[{\"internalType\":\"contract IJBProjects\",\"name\":\"projects\",\"type\":\"address\"},{\"internalType\":\"contract IJBPermissions\",\"name\":\"permissions\",\"type\":\"address\"},{\"internalType\":\"contract IJBDirectory\",\"name\":\"directory\",\"type\":\"address\"},{\"internalType\":\"contract IPermit2\",\"name\":\"permit2\",\"type\":\"address\"},{\"internalType\":\"address\",\"name\":\"owner\",\"type\":\"address\"},{\"internalType\":\"contract IWETH9\",\"name\":\"weth\",\"type\":\"address\"},{\"internalType\":\"address\",\"name\":\"tokenOut\",\"type\":\"address\"}],\"stateMutability\":\"nonpayable\",\"type\":\"constructor\"},{\"inputs\":[{\"internalType\":\"address\",\"name\":\"target\",\"type\":\"address\"}],\"type\":\"error\",\"name\":\"AddressEmptyCode\"},{\"inputs\":[{\"internalType\":\"address\",\"name\":\"account\",\"type\":\"address\"}],\"type\":\"error\",\"name\":\"AddressInsufficientBalance\"},{\"inputs\":[],\"type\":\"error\",\"name\":\"FailedInnerCall\"},{\"inputs\":[{\"internalType\":\"uint256\",\"name\":\"\",\"type\":\"uint256\"},{\"internalType\":\"uint256\",\"name\":\"\",\"type\":\"uint256\"}],\"type\":\"error\",\"name\":\"MAX_SLIPPAGE\"},{\"inputs\":[],\"type\":\"error\",\"name\":\"NO_DEFAULT_POOL_DEFINED\"},{\"inputs\":[],\"type\":\"error\",\"name\":\"NO_MSG_VALUE_ALLOWED\"},{\"inputs\":[{\"internalType\":\"address\",\"name\":\"owner\",\"type\":\"address\"}],\"type\":\"error\",\"name\":\"OwnableInvalidOwner\"},{\"inputs\":[{\"internalType\":\"address\",\"name\":\"account\",\"type\":\"address\"}],\"type\":\"error\",\"name\":\"OwnableUnauthorizedAccount\"},{\"inputs\":[],\"type\":\"error\",\"name\":\"PERMIT_ALLOWANCE_NOT_ENOUGH\"},{\"inputs\":[{\"internalType\":\"address\",\"name\":\"token\",\"type\":\"address\"}],\"type\":\"error\",\"name\":\"SafeERC20FailedOperation\"},{\"inputs\":[],\"type\":\"error\",\"name\":\"T\"},{\"inputs\":[],\"type\":\"error\",\"name\":\"TOKEN_NOT_ACCEPTED\"},{\"inputs\":[],\"type\":\"error\",\"name\":\"UNAUTHORIZED\"},{\"inputs\":[],\"type\":\"error\",\"name\":\"UNSUPPORTED\"},{\"inputs\":[{\"internalType\":\"uint256\",\"name\":\"projectId\",\"type\":\"uint256\",\"indexed\":true},{\"internalType\":\"uint256\",\"name\":\"amount\",\"type\":\"uint256\",\"indexed\":false},{\"internalType\":\"uint256\",\"name\":\"unlockedFees\",\"type\":\"uint256\",\"indexed\":false},{\"internalType\":\"string\",\"name\":\"memo\",\"type\":\"string\",\"indexed\":false},{\"internalType\":\"bytes\",\"name\":\"metadata\",\"type\":\"bytes\",\"indexed\":false},{\"internalType\":\"address\",\"name\":\"caller\",\"type\":\"address\",\"indexed\":false}],\"type\":\"event\",\"name\":\"AddToBalance\",\"anonymous\":false},{\"inputs\":[{\"internalType\":\"contract IJBPayHook\",\"name\":\"hook\",\"type\":\"address\",\"indexed\":true},{\"internalType\":\"struct JBAfterPayRecordedContext\",\"name\":\"context\",\"type\":\"tuple\",\"components\":[{\"internalType\":\"address\",\"name\":\"payer\",\"type\":\"address\"},{\"internalType\":\"uint256\",\"name\":\"projectId\",\"type\":\"uint256\"},{\"internalType\":\"uint256\",\"name\":\"rulesetId\",\"type\":\"uint256\"},{\"internalType\":\"struct JBTokenAmount\",\"name\":\"amount\",\"type\":\"tuple\",\"components\":[{\"internalType\":\"address\",\"name\":\"token\",\"type\":\"address\"},{\"internalType\":\"uint256\",\"name\":\"value\",\"type\":\"uint256\"},{\"internalType\":\"uint256\",\"name\":\"decimals\",\"type\":\"uint256\"},{\"internalType\":\"uint256\",\"name\":\"currency\",\"type\":\"uint256\"}]},{\"internalType\":\"struct JBTokenAmount\",\"name\":\"forwardedAmount\",\"type\":\"tuple\",\"components\":[{\"internalType\":\"address\",\"name\":\"token\",\"type\":\"address\"},{\"internalType\":\"uint256\",\"name\":\"value\",\"type\":\"uint256\"},{\"internalType\":\"uint256\",\"name\":\"decimals\",\"type\":\"uint256\"},{\"internalType\":\"uint256\",\"name\":\"currency\",\"type\":\"uint256\"}]},{\"internalType\":\"uint256\",\"name\":\"weight\",\"type\":\"uint256\"},{\"internalType\":\"uint256\",\"name\":\"projectTokenCount\",\"type\":\"uint256\"},{\"internalType\":\"address\",\"name\":\"beneficiary\",\"type\":\"address\"},{\"internalType\":\"bytes\",\"name\":\"hookMetadata\",\"type\":\"bytes\"},{\"internalType\":\"bytes\",\"name\":\"payerMetadata\",\"type\":\"bytes\"}],\"indexed\":false},{\"internalType\":\"uint256\",\"name\":\"specificationAmount\",\"type\":\"uint256\",\"indexed\":false},{\"internalType\":\"address\",\"name\":\"caller\",\"type\":\"address\",\"indexed\":false}],\"type\":\"event\",\"name\":\"HookAfterRecordPay\",\"anonymous\":false},{\"inputs\":[{\"internalType\":\"uint256\",\"name\":\"projectId\",\"type\":\"uint256\",\"indexed\":true},{\"internalType\":\"address\",\"name\":\"token\",\"type\":\"address\",\"indexed\":true},{\"internalType\":\"contract IJBTerminal\",\"name\":\"to\",\"type\":\"address\",\"indexed\":true},{\"internalType\":\"uint256\",\"name\":\"amount\",\"type\":\"uint256\",\"indexed\":false},{\"internalType\":\"address\",\"name\":\"caller\",\"type\":\"address\",\"indexed\":false}],\"type\":\"event\",\"name\":\"MigrateTerminal\",\"anonymous\":false},{\"inputs\":[{\"internalType\":\"address\",\"name\":\"previousOwner\",\"type\":\"address\",\"indexed\":true},{\"internalType\":\"address\",\"name\":\"newOwner\",\"type\":\"address\",\"indexed\":true}],\"type\":\"event\",\"name\":\"OwnershipTransferred\",\"anonymous\":false},{\"inputs\":[{\"internalType\":\"uint256\",\"name\":\"rulesetId\",\"type\":\"uint256\",\"indexed\":true},{\"internalType\":\"uint256\",\"name\":\"rulesetCycleNumber\",\"type\":\"uint256\",\"indexed\":true},{\"internalType\":\"uint256\",\"name\":\"projectId\",\"type\":\"uint256\",\"indexed\":true},{\"internalType\":\"address\",\"name\":\"payer\",\"type\":\"address\",\"indexed\":false},{\"internalType\":\"address\",\"name\":\"beneficiary\",\"type\":\"address\",\"indexed\":false},{\"internalType\":\"uint256\",\"name\":\"amount\",\"type\":\"uint256\",\"indexed\":false},{\"internalType\":\"uint256\",\"name\":\"beneficiaryTokenCount\",\"type\":\"uint256\",\"indexed\":false},{\"internalType\":\"string\",\"name\":\"memo\",\"type\":\"string\",\"indexed\":false},{\"internalType\":\"bytes\",\"name\":\"metadata\",\"type\":\"bytes\",\"indexed\":false},{\"internalType\":\"address\",\"name\":\"caller\",\"type\":\"address\",\"indexed\":false}],\"type\":\"event\",\"name\":\"Pay\",\"anonymous\":false},{\"inputs\":[{\"internalType\":\"uint256\",\"name\":\"projectId\",\"type\":\"uint256\",\"indexed\":true},{\"internalType\":\"address\",\"name\":\"token\",\"type\":\"address\",\"indexed\":true},{\"internalType\":\"struct JBAccountingContext\",\"name\":\"context\",\"type\":\"tuple\",\"components\":[{\"internalType\":\"address\",\"name\":\"token\",\"type\":\"address\"},{\"internalType\":\"uint8\",\"name\":\"decimals\",\"type\":\"uint8\"},{\"internalType\":\"uint32\",\"name\":\"currency\",\"type\":\"uint32\"}],\"indexed\":false},{\"internalType\":\"address\",\"name\":\"caller\",\"type\":\"address\",\"indexed\":false}],\"type\":\"event\",\"name\":\"SetAccountingContext\",\"anonymous\":false},{\"inputs\":[],\"stateMutability\":\"view\",\"type\":\"function\",\"name\":\"DEFAULT_PROJECT_ID\",\"outputs\":[{\"internalType\":\"uint256\",\"name\":\"\",\"type\":\"uint256\"}]},{\"inputs\":[],\"stateMutability\":\"view\",\"type\":\"function\",\"name\":\"DIRECTORY\",\"outputs\":[{\"internalType\":\"contract IJBDirectory\",\"name\":\"\",\"type\":\"address\"}]},{\"inputs\":[],\"stateMutability\":\"view\",\"type\":\"function\",\"name\":\"PERMISSIONS\",\"outputs\":[{\"internalType\":\"contract IJBPermissions\",\"name\":\"\",\"type\":\"address\"}]},{\"inputs\":[],\"stateMutability\":\"view\",\"type\":\"function\",\"name\":\"PERMIT2\",\"outputs\":[{\"internalType\":\"contract IPermit2\",\"name\":\"\",\"type\":\"address\"}]},{\"inputs\":[],\"stateMutability\":\"view\",\"type\":\"function\",\"name\":\"PROJECTS\",\"outputs\":[{\"internalType\":\"contract IJBProjects\",\"name\":\"\",\"type\":\"address\"}]},{\"inputs\":[],\"stateMutability\":\"view\",\"type\":\"function\",\"name\":\"SLIPPAGE_DENOMINATOR\",\"outputs\":[{\"internalType\":\"uint160\",\"name\":\"\",\"type\":\"uint160\"}]},{\"inputs\":[],\"stateMutability\":\"view\",\"type\":\"function\",\"name\":\"TOKEN_OUT\",\"outputs\":[{\"internalType\":\"address\",\"name\":\"\",\"type\":\"address\"}]},{\"inputs\":[],\"stateMutability\":\"view\",\"type\":\"function\",\"name\":\"WETH\",\"outputs\":[{\"internalType\":\"contract IWETH9\",\"name\":\"\",\"type\":\"address\"}]},{\"inputs\":[{\"internalType\":\"uint256\",\"name\":\"projectId\",\"type\":\"uint256\"},{\"internalType\":\"address\",\"name\":\"token\",\"type\":\"address\"}],\"stateMutability\":\"view\",\"type\":\"function\",\"name\":\"accountingContextForTokenOf\",\"outputs\":[{\"internalType\":\"struct JBAccountingContext\",\"name\":\"\",\"type\":\"tuple\",\"components\":[{\"internalType\":\"address\",\"name\":\"token\",\"type\":\"address\"},{\"internalType\":\"uint8\",\"name\":\"decimals\",\"type\":\"uint8\"},{\"internalType\":\"uint32\",\"name\":\"currency\",\"type\":\"uint32\"}]}]},{\"inputs\":[{\"internalType\":\"uint256\",\"name\":\"projectId\",\"type\":\"uint256\"}],\"stateMutability\":\"view\",\"type\":\"function\",\"name\":\"accountingContextsOf\",\"outputs\":[{\"internalType\":\"struct JBAccountingContext[]\",\"name\":\"\",\"type\":\"tuple[]\",\"components\":[{\"internalType\":\"address\",\"name\":\"token\",\"type\":\"address\"},{\"internalType\":\"uint8\",\"name\":\"decimals\",\"type\":\"uint8\"},{\"internalType\":\"uint32\",\"name\":\"currency\",\"type\":\"uint32\"}]}]},{\"inputs\":[{\"internalType\":\"uint256\",\"name\":\"projectId\",\"type\":\"uint256\"},{\"internalType\":\"address[]\",\"name\":\"tokens\",\"type\":\"address[]\"}],\"stateMutability\":\"nonpayable\",\"type\":\"function\",\"name\":\"addAccountingContextsFor\"},{\"inputs\":[{\"internalType\":\"uint256\",\"name\":\"projectId\",\"type\":\"uint256\"},{\"internalType\":\"address\",\"name\":\"token\",\"type\":\"address\"},{\"internalType\":\"contract IUniswapV3Pool\",\"name\":\"pool\",\"type\":\"address\"}],\"stateMutability\":\"nonpayable\",\"type\":\"function\",\"name\":\"addDefaultPool\"},{\"inputs\":[{\"internalType\":\"uint256\",\"name\":\"projectId\",\"type\":\"uint256\"},{\"internalType\":\"address\",\"name\":\"token\",\"type\":\"address\"},{\"internalType\":\"uint256\",\"name\":\"amount\",\"type\":\"uint256\"},{\"internalType\":\"bool\",\"name\":\"shouldReturnHeldFees\",\"type\":\"bool\"},{\"internalType\":\"string\",\"name\":\"memo\",\"type\":\"string\"},{\"internalType\":\"bytes\",\"name\":\"metadata\",\"type\":\"bytes\"}],\"stateMutability\":\"payable\",\"type\":\"function\",\"name\":\"addToBalanceOf\"},{\"inputs\":[{\"internalType\":\"uint256\",\"name\":\"projectId\",\"type\":\"uint256\"},{\"internalType\":\"contract IUniswapV3Pool\",\"name\":\"pool\",\"type\":\"address\"},{\"internalType\":\"uint32\",\"name\":\"secondsAgo\",\"type\":\"uint32\"},{\"internalType\":\"uint160\",\"name\":\"slippageTolerance\",\"type\":\"uint160\"}],\"stateMutability\":\"nonpayable\",\"type\":\"function\",\"name\":\"addTwapParamsFor\"},{\"inputs\":[{\"internalType\":\"uint256\",\"name\":\"projectId\",\"type\":\"uint256\"},{\"internalType\":\"uint256\",\"name\":\"decimals\",\"type\":\"uint256\"},{\"internalType\":\"uint256\",\"name\":\"currency\",\"type\":\"uint256\"}],\"stateMutability\":\"view\",\"type\":\"function\",\"name\":\"currentSurplusOf\",\"outputs\":[{\"internalType\":\"uint256\",\"name\":\"\",\"type\":\"uint256\"}]},{\"inputs\":[{\"internalType\":\"uint256\",\"name\":\"projectId\",\"type\":\"uint256\"},{\"internalType\":\"address\",\"name\":\"tokenIn\",\"type\":\"address\"}],\"stateMutability\":\"view\",\"type\":\"function\",\"name\":\"getPoolFor\",\"outputs\":[{\"internalType\":\"contract IUniswapV3Pool\",\"name\":\"pool\",\"type\":\"address\"},{\"internalType\":\"bool\",\"name\":\"zeroForOne\",\"type\":\"bool\"}]},{\"inputs\":[{\"internalType\":\"uint256\",\"name\":\"projectId\",\"type\":\"uint256\"},{\"internalType\":\"address\",\"name\":\"token\",\"type\":\"address\"},{\"internalType\":\"contract IJBTerminal\",\"name\":\"to\",\"type\":\"address\"}],\"stateMutability\":\"nonpayable\",\"type\":\"function\",\"name\":\"migrateBalanceOf\",\"outputs\":[{\"internalType\":\"uint256\",\"name\":\"balance\",\"type\":\"uint256\"}]},{\"inputs\":[],\"stateMutability\":\"view\",\"type\":\"function\",\"name\":\"owner\",\"outputs\":[{\"internalType\":\"address\",\"name\":\"\",\"type\":\"address\"}]},{\"inputs\":[{\"internalType\":\"uint256\",\"name\":\"projectId\",\"type\":\"uint256\"},{\"internalType\":\"address\",\"name\":\"token\",\"type\":\"address\"},{\"internalType\":\"uint256\",\"name\":\"amount\",\"type\":\"uint256\"},{\"internalType\":\"address\",\"name\":\"beneficiary\",\"type\":\"address\"},{\"internalType\":\"uint256\",\"name\":\"minReturnedTokens\",\"type\":\"uint256\"},{\"internalType\":\"string\",\"name\":\"memo\",\"type\":\"string\"},{\"internalType\":\"bytes\",\"name\":\"metadata\",\"type\":\"bytes\"}],\"stateMutability\":\"payable\",\"type\":\"function\",\"name\":\"pay\",\"outputs\":[{\"internalType\":\"uint256\",\"name\":\"\",\"type\":\"uint256\"}]},{\"inputs\":[],\"stateMutability\":\"nonpayable\",\"type\":\"function\",\"name\":\"renounceOwnership\"},{\"inputs\":[{\"internalType\":\"bytes4\",\"name\":\"interfaceId\",\"type\":\"bytes4\"}],\"stateMutability\":\"view\",\"type\":\"function\",\"name\":\"supportsInterface\",\"outputs\":[{\"internalType\":\"bool\",\"name\":\"\",\"type\":\"bool\"}]},{\"inputs\":[{\"internalType\":\"address\",\"name\":\"newOwner\",\"type\":\"address\"}],\"stateMutability\":\"nonpayable\",\"type\":\"function\",\"name\":\"transferOwnership\"},{\"inputs\":[{\"internalType\":\"uint256\",\"name\":\"projectId\",\"type\":\"uint256\"},{\"internalType\":\"contract IUniswapV3Pool\",\"name\":\"pool\",\"type\":\"address\"}],\"stateMutability\":\"view\",\"type\":\"function\",\"name\":\"twapParamsOf\",\"outputs\":[{\"internalType\":\"uint32\",\"name\":\"secondsAgo\",\"type\":\"uint32\"},{\"internalType\":\"uint160\",\"name\":\"slippageTolerance\",\"type\":\"uint160\"}]},{\"inputs\":[{\"internalType\":\"int256\",\"name\":\"amount0Delta\",\"type\":\"int256\"},{\"internalType\":\"int256\",\"name\":\"amount1Delta\",\"type\":\"int256\"},{\"internalType\":\"bytes\",\"name\":\"data\",\"type\":\"bytes\"}],\"stateMutability\":\"nonpayable\",\"type\":\"function\",\"name\":\"uniswapV3SwapCallback\"},{\"inputs\":[],\"stateMutability\":\"payable\",\"type\":\"receive\"}],\"devdoc\":{\"kind\":\"dev\",\"methods\":{\"accountingContextForTokenOf(uint256,address)\":{\"details\":\"Accounting contexts are set up in `addDefaultPool(...)`.\",\"params\":{\"projectId\":\"The ID of the project to get the accounting context for.\",\"token\":\"The address of the token to get the accounting context for.\"},\"returns\":{\"_0\":\"A `JBAccountingContext` containing the accounting context for the project ID and token.\"}},\"accountingContextsOf(uint256)\":{\"details\":\"This includes both project-specific and generic accounting contexts, with the project-specific contexts         taking precedence.\",\"params\":{\"projectId\":\"The ID of the project to get the accounting contexts for.\"},\"returns\":{\"_0\":\"An array of `JBAccountingContext` containing the accounting contexts for the project ID.\"}},\"addDefaultPool(uint256,address,address)\":{\"params\":{\"pool\":\"The Uniswap V3 pool to set as the default for the specified token.\",\"projectId\":\"The ID of the project to set the default pool for. The project 0 acts as a catch-all, where non-set pools are defaulted to.\",\"token\":\"The address of the token to set the default pool for.\"}},\"addToBalanceOf(uint256,address,uint256,bool,string,bytes)\":{\"details\":\"This function handles the token in transfer, potentially swaps the tokens to the desired output token, and then adds the swapped tokens to the project's balance in the specified terminal.\",\"params\":{\"amount\":\"The amount of tokens being paid in.\",\"memo\":\"A memo to pass along to the emitted event.\",\"metadata\":\"Bytes in `JBMetadataResolver`'s format which can contain additional data for the swap and adding to balance.\",\"projectId\":\"The ID of the project for which funds are being accepted and added to its balance.\",\"shouldReturnHeldFees\":\"A boolean to indicate whether held fees should be returned.\",\"token\":\"The address of the token being paid in.\"}},\"addTwapParamsFor(uint256,address,uint32,uint160)\":{\"params\":{\"projectId\":\"The ID of the project to set the TWAP-based quote rules for.\",\"secondsAgo\":\"The period of time over which the TWAP is calculated, in seconds.\",\"slippageTolerance\":\"The maximum spread allowed between the amount received and the TWAP (as a fraction out of `SLIPPAGE_DENOMINATOR`).\"}},\"getPoolFor(uint256,address)\":{\"params\":{\"projectId\":\"The ID of the project to retrieve the default pool for.\",\"tokenIn\":\"The address of the token to retrieve the default pool for.\"},\"returns\":{\"pool\":\"The default pool for the token, or the overall default pool for the token if the\"}},\"owner()\":{\"details\":\"Returns the address of the current owner.\"},\"pay(uint256,address,uint256,address,uint256,string,bytes)\":{\"params\":{\"amount\":\"The amount of tokens being paid in, as a fixed point number with the same amount of decimals as the `token`. If `token` is the native token, `amount` is ignored and `msg.value` is used in its place.\",\"beneficiary\":\"The beneficiary address to pass along to the other terminal. If the other terminal mints tokens, for example, they will be minted for this address.\",\"memo\":\"A memo to pass along to the emitted event.\",\"metadata\":\"Bytes in `JBMetadataResolver`'s format which can contain a quote from the user/client. The quote should contain a minimum amount of tokens to receive from the swap and the pool to use. This metadata is also passed to the other terminal's emitted event, as well as its data hook and pay hook if applicable.\",\"minReturnedTokens\":\"The minimum number of project tokens expected in return, as a fixed point number with the same number of decimals as the other terminal. This value will be passed along to the other terminal.\",\"projectId\":\"The ID of the project being paid.\",\"token\":\"The address of the token being paid in.\"},\"returns\":{\"_0\":\"The number of tokens received from the swap, as a fixed point number with the same amount of decimals as that token.\"}},\"renounceOwnership()\":{\"details\":\"Leaves the contract without owner. It will not be possible to call `onlyOwner` functions. Can only be called by the current owner. NOTE: Renouncing ownership will leave the contract without an owner, thereby disabling any functionality that is only available to the owner.\"},\"supportsInterface(bytes4)\":{\"details\":\"See {IERC165-supportsInterface}.\",\"params\":{\"interfaceId\":\"The ID of the interface to check for adherance to.\"},\"returns\":{\"_0\":\"A flag indicating if the provided interface ID is supported.\"}},\"transferOwnership(address)\":{\"details\":\"Transfers ownership of the contract to a new account (`newOwner`). Can only be called by the current owner.\"},\"twapParamsOf(uint256,address)\":{\"params\":{\"projectId\":\"The ID of the project to retrieve TWAP parameters for.\"},\"returns\":{\"secondsAgo\":\"The period of time in the past to calculate the TWAP from.\",\"slippageTolerance\":\"The maximum allowed slippage tolerance when calculating the TWAP, as a fraction out of `SLIPPAGE_DENOMINATOR`.\"}},\"uniswapV3SwapCallback(int256,int256,bytes)\":{\"details\":\"This function has no access control, care should be taken to ensure that:      - terminal balance is always be 0 between tx (this callback can only be used to sweep accidental leftovers)      - callback cannot pull user funds via a preexisting allowance\",\"params\":{\"amount0Delta\":\"The amount of token 0 being used for the swap.\",\"amount1Delta\":\"The amount of token 1 being used for the swap.\",\"data\":\"Data passed in by the swap operation.\"}}},\"version\":1},\"userdoc\":{\"kind\":\"user\",\"methods\":{\"DEFAULT_PROJECT_ID()\":{\"notice\":\"The ID to store default values in.\"},\"DIRECTORY()\":{\"notice\":\"The directory of terminals and controllers for `PROJECTS`.\"},\"PERMISSIONS()\":{\"notice\":\"A contract storing permissions.\"},\"PERMIT2()\":{\"notice\":\"The permit2 utility.\"},\"PROJECTS()\":{\"notice\":\"Mints ERC-721s that represent project ownership and transfers.\"},\"SLIPPAGE_DENOMINATOR()\":{\"notice\":\"The denominator used when calculating TWAP slippage tolerance values.\"},\"TOKEN_OUT()\":{\"notice\":\"The token which flows out of this terminal (JBConstants.NATIVE_TOKEN for the chain native token)\"},\"WETH()\":{\"notice\":\"The ERC-20 wrapper for the native token.\"},\"accountingContextForTokenOf(uint256,address)\":{\"notice\":\"Get the accounting context for the specified project ID and token.\"},\"accountingContextsOf(uint256)\":{\"notice\":\"Return all the accounting contexts for a specified project ID.\"},\"addAccountingContextsFor(uint256,address[])\":{\"notice\":\"Empty implementation to satisfy the interface. Accounting contexts are set in `addDefaultPool(...)`.\"},\"addDefaultPool(uint256,address,address)\":{\"notice\":\"Set a project's default pool and accounting context for the specified token. Only the project's owner, an address with `MODIFY_DEFAULT_POOL` permission from the owner or the terminal owner can call this function.\"},\"addToBalanceOf(uint256,address,uint256,bool,string,bytes)\":{\"notice\":\"Accepts funds for a given project, swaps them if necessary, and adds them to the project's balance in the specified terminal.\"},\"addTwapParamsFor(uint256,address,uint32,uint160)\":{\"notice\":\"Set the specified project's rules for calculating a quote based on the TWAP. Only the project's owner or an address with `MODIFY_TWAP_PARAMS` permission from the owner  or the terminal owner can call this function.\"},\"currentSurplusOf(uint256,uint256,uint256)\":{\"notice\":\"Empty implementation to satisfy the interface. This terminal has no surplus.\"},\"getPoolFor(uint256,address)\":{\"notice\":\"Returns the default pool for a given project and token or, if a project has no default pool for the         token, the overal default pool for the token\"},\"migrateBalanceOf(uint256,address,address)\":{\"notice\":\"Empty implementation to satisfy the interface.\"},\"pay(uint256,address,uint256,address,uint256,string,bytes)\":{\"notice\":\"Pay a project by swapping the incoming tokens for tokens that one of the project's other terminals accepts, passing along the funds received from the swap and the specified parameters.\"},\"supportsInterface(bytes4)\":{\"notice\":\"Indicates if this contract adheres to the specified interface.\"},\"twapParamsOf(uint256,address)\":{\"notice\":\"Returns the default twap parameters for a given pool project.\"},\"uniswapV3SwapCallback(int256,int256,bytes)\":{\"notice\":\"The Uniswap v3 pool callback where the token transfer is expected to happen.\"}},\"version\":1}},\"settings\":{\"remappings\":[\"@bananapus/=node_modules/@bananapus/\",\"@chainlink/=node_modules/@chainlink/\",\"@eth-optimism/=node_modules/@eth-optimism/\",\"@exhausted-pigeon/=node_modules/@exhausted-pigeon/\",\"@openzeppelin/=node_modules/@openzeppelin/\",\"@prb/=node_modules/@prb/\",\"@scroll-tech/=node_modules/@scroll-tech/\",\"@sphinx-labs/contracts/=node_modules/@sphinx-labs/contracts/contracts/foundry/\",\"@uniswap/=node_modules/@uniswap/\",\"base64-sol/=node_modules/base64-sol/\",\"ds-test/=lib/forge-std/lib/ds-test/src/\",\"forge-std/=lib/forge-std/src/\",\"hardhat/=node_modules/hardhat/\",\"solmate/=node_modules/solmate/\",\"sphinx/=lib/sphinx/packages/contracts/contracts/forge-std/src/\"],\"optimizer\":{\"enabled\":true,\"runs\":200},\"metadata\":{\"bytecodeHash\":\"ipfs\"},\"compilationTarget\":{\"src/JBSwapTerminal.sol\":\"JBSwapTerminal\"},\"evmVersion\":\"paris\",\"libraries\":{}},\"sources\":{\"node_modules/@bananapus/core/src/abstract/JBPermissioned.sol\":{\"keccak256\":\"0xe08c8a7eeac9d1c7c2e0db6d5b98d1af09889300835a3d47d9f29319fecce703\",\"urls\":[\"bzz-raw://42645cf52bcc45053ef650790916faed5d0a74cecef336b217433fdd2c5c4166\",\"dweb:/ipfs/QmdMmxG1tSGucQwz4LYbVnuj7HU23YvqLH6xfrNWv5Bmus\"],\"license\":\"MIT\"},\"node_modules/@bananapus/core/src/enums/JBApprovalStatus.sol\":{\"keccak256\":\"0x61c69b6bac7d24b566d87cda23a77e4ca9cdb87200b106aba8534cb9a0973e33\",\"urls\":[\"bzz-raw://6a9ca7249de76f77a8252eefe6bd1b63d47952f25a2acfa2c8db967cdff4470c\",\"dweb:/ipfs/QmaxSxptRQNj8bNy96EreENmrnRWdKmhyihBcxyWzBX5BN\"],\"license\":\"MIT\"},\"node_modules/@bananapus/core/src/interfaces/IJBDirectory.sol\":{\"keccak256\":\"0x9cc380844aef60078ee47a61861e55a29c4a8c947efd556ebd36e6909f7b9d62\",\"urls\":[\"bzz-raw://9f5190ec8b6683d9781ee6e9eedcc91294753242748875d4a06349077e4cbaaf\",\"dweb:/ipfs/QmTQrPuXT9TCA4txwrperMeXSGvGxP8iokUK47f62F388i\"],\"license\":\"MIT\"},\"node_modules/@bananapus/core/src/interfaces/IJBPayHook.sol\":{\"keccak256\":\"0x9438866782c652c2942f4d114e35f393cd3c8b0334abce8387eed90bca35e8b2\",\"urls\":[\"bzz-raw://cfd99daf57213f92325aad7d7d16e98476d38e870470e95ba01e3ae3cdecc95d\",\"dweb:/ipfs/QmUKKAVGf7ki8BHksr99tFcRW8APveeB5tNH63ctTbbCW8\"],\"license\":\"MIT\"},\"node_modules/@bananapus/core/src/interfaces/IJBPermissioned.sol\":{\"keccak256\":\"0x5b038d4dee116584e88b230920e56d48e135053e3f7e5642eaea14a775c1dad7\",\"urls\":[\"bzz-raw://19e43102f349fd4a1da1c0943ffb8f2950007fe4bb4bb7e8f74fc142575d091b\",\"dweb:/ipfs/QmXHAt4KzDTdDZgDDefEXH2WKi7NcfkJb9R7nxW5uDqsNp\"],\"license\":\"MIT\"},\"node_modules/@bananapus/core/src/interfaces/IJBPermissions.sol\":{\"keccak256\":\"0x18870e500edf0fbadc353e273a5574701fb80466376b908c65e7cc3f11044d4d\",\"urls\":[\"bzz-raw://352a47c45853aec80e7acf0d286ade3106eb4cb456776b28a3c2f3f1091bed90\",\"dweb:/ipfs/QmQeYd3YbudYZy2hfbfht9kwhxhw4tuuLKMEYy9UY6dcSy\"],\"license\":\"MIT\"},\"node_modules/@bananapus/core/src/interfaces/IJBPermitTerminal.sol\":{\"keccak256\":\"0xd6bd30842273f5b794f82219fefdd4953f5343328d2cfdb684b7d826cc0c769c\",\"urls\":[\"bzz-raw://ca1195fd5572060b36fc7e45f46d59f974e3a908248edcfadeb8cb06247075f0\",\"dweb:/ipfs/QmYTpDXKTXqi8GQFsNqB8LiGFTZjSPY3PA8vKqZBraVdqD\"],\"license\":\"MIT\"},\"node_modules/@bananapus/core/src/interfaces/IJBPriceFeed.sol\":{\"keccak256\":\"0x4bd84c0f1a5d4729ed709bcddd43f4c50ec4a165ece79780af8dce482ed07d4a\",\"urls\":[\"bzz-raw://62bac4bfb6982fb002f620c77e5c445e62d50241a5aa64a07e51d929f5a42180\",\"dweb:/ipfs/QmWgJUDreVY2BuMX38a1iUUR5kNbMwGnKG3VvurB7oZtuM\"],\"license\":\"MIT\"},\"node_modules/@bananapus/core/src/interfaces/IJBPrices.sol\":{\"keccak256\":\"0x99525f31440b955742dce84ba57de9fc1221139b5367c1f834723bef9e13e6e1\",\"urls\":[\"bzz-raw://6fa03f0cd4ad87dd7cbae7bf7f54463450874291773c8f70f2c31ef2cae62bb0\",\"dweb:/ipfs/QmSPajPV5ismteJuB6Spzm9VmhTj2iS3eVrfpJC1Zuzg8n\"],\"license\":\"MIT\"},\"node_modules/@bananapus/core/src/interfaces/IJBProjects.sol\":{\"keccak256\":\"0x735c2fb8f1fa827f054ee77f7a0ae4b312656217acb75b624d2c8fd9dc40151b\",\"urls\":[\"bzz-raw://ee7fc92299a8633a80693ae63ab494dcd125f1789487a54a39dc0e5696e5996f\",\"dweb:/ipfs/QmX7YJD4pS2XhgQb7p3JbBAXynT7YGPXcZe92BiWWRrsCL\"],\"license\":\"MIT\"},\"node_modules/@bananapus/core/src/interfaces/IJBRedeemHook.sol\":{\"keccak256\":\"0x8ab46fcd7d0e739661eb76056ad93ff99106f38420ef0b4eb97fa9f4bb71a68a\",\"urls\":[\"bzz-raw://0ef96fcb7ad26281d444d8e0c677b25114fdd63b1c172d477e030dce8ba53b62\",\"dweb:/ipfs/Qmcx1jRQuwU4pZFuLxsSsx4oMbRaDfktHrPnXextgbWc5m\"],\"license\":\"MIT\"},\"node_modules/@bananapus/core/src/interfaces/IJBRulesetApprovalHook.sol\":{\"keccak256\":\"0x592e95d159494421c6b1bcb362d0cee1df0132921697351304e9cd7af4fbd386\",\"urls\":[\"bzz-raw://5bebfd5fa67c1b6ea16fa2e76e9520e9dfe52a579f48dd94d0c2ec45f78ad178\",\"dweb:/ipfs/QmRUawEGtfYoYSHmHELGhvJoWuMsxLPKtqAXgsrb7fJboP\"],\"license\":\"MIT\"},\"node_modules/@bananapus/core/src/interfaces/IJBRulesets.sol\":{\"keccak256\":\"0xd3f817d22ecbe24da63c552c069bf0c4fbbf3bcd5c3b5633002afd24aacf6882\",\"urls\":[\"bzz-raw://c1185aec0f6b6f0f4d93ffeeed0972ccf38420b00fe570b5e1838ed2b1f5db49\",\"dweb:/ipfs/QmWz36azGTFnjFXpFSh6BHt4nactgjtF64L3PeTqs4ZqSR\"],\"license\":\"MIT\"},\"node_modules/@bananapus/core/src/interfaces/IJBTerminal.sol\":{\"keccak256\":\"0x19dc9bf8cbdc8f13ee5da9dc3a87047eacb94a3fc19740a286c1f0bad2cc39ca\",\"urls\":[\"bzz-raw://0b05ae6fda9a85672508232fd992b8a5f5ffd8096622eeb12c8a7b3317eb3867\",\"dweb:/ipfs/QmNh9Quj37BXYGdTdcCD1Q58PchRsE5TLbEZep56qS3MpV\"],\"license\":\"MIT\"},\"node_modules/@bananapus/core/src/interfaces/IJBTerminalStore.sol\":{\"keccak256\":\"0x140159d66d729f6aeed0fe1f7c655619985146ec00e8c68cbd9b5d30d4dc7d23\",\"urls\":[\"bzz-raw://f972ecb52bcfcd2852c9e7264b1ecc504ce94bd6e12c034b93c1768cd372954e\",\"dweb:/ipfs/QmRu7in5iJSWHLTcFPbJmiK1rCHFbwNY7qzY4cG6kgfYcr\"],\"license\":\"MIT\"},\"node_modules/@bananapus/core/src/interfaces/IJBTokenUriResolver.sol\":{\"keccak256\":\"0xfa5cb00dcd6085d1ef912d071fe73c63f9478a2cd0f9d8bddaf659b6af2d0967\",\"urls\":[\"bzz-raw://282e4e7c342d65f77cde0e9a08fcaf20ef5cf379c7a48b639842c0ffd0b2afb8\",\"dweb:/ipfs/QmbnN3PEQeZaXdPLT75V1J79kMg7KqSMru37RHrL3z8Yf2\"],\"license\":\"MIT\"},\"node_modules/@bananapus/core/src/libraries/JBConstants.sol\":{\"keccak256\":\"0x9d3a9a953f859d8ec79a599577f8972de6da7199cc1bfa7fdad017d4d722bcb4\",\"urls\":[\"bzz-raw://f151fcb53a8d2684eff8b9e56ac790bcbcadd8199a4fd4d17c5b224b22936722\",\"dweb:/ipfs/QmdAz1ZtCE8nTiC4AxQNLfJhnY3ndGum2Lbef7seKdvTdR\"],\"license\":\"MIT\"},\"node_modules/@bananapus/core/src/libraries/JBMetadataResolver.sol\":{\"keccak256\":\"0x900731084917f812806a35dab2c7ae65a6f07506d6c953ae0cd6d993fe85560f\",\"urls\":[\"bzz-raw://2002892aef205b5192fa5c2d1cf1698ba0836bed7eaba839444cd0f93b4fb050\",\"dweb:/ipfs/QmPRGSNRdpST1xt2brhGWSDsEYD29j5QwaJ3SA518UUXWs\"],\"license\":\"MIT\"},\"node_modules/@bananapus/core/src/structs/JBAccountingContext.sol\":{\"keccak256\":\"0x2907ff54d1e903cc7e0390dd88c3975884702dc2673642aacbe22b66560b56de\",\"urls\":[\"bzz-raw://a66a5381ce877b32f0e0058ceeaf843e9b6b2bc8af666c0c9f4a9d01091da004\",\"dweb:/ipfs/QmQynCetUr37dBkS1YwDS8evxuXGiqanW6THmeUxXtim8w\"],\"license\":\"MIT\"},\"node_modules/@bananapus/core/src/structs/JBAfterPayRecordedContext.sol\":{\"keccak256\":\"0xd26c3a774ff38be79064085970454fe2603a23a638c76270d5b1b3829206c3e8\",\"urls\":[\"bzz-raw://3b55dbe3bf1ef625b7ca04efab3de35406e6041d5b3d82c7265469c500e2b702\",\"dweb:/ipfs/QmUdBDo4Lt3mcsFcsXT2mqq3czFwZjQJFPLM89YA2VtD7k\"],\"license\":\"MIT\"},\"node_modules/@bananapus/core/src/structs/JBAfterRedeemRecordedContext.sol\":{\"keccak256\":\"0x521f5d23a36f0da72362cd84890cc867bd83baa8dc836ba6c5066d51dba2f163\",\"urls\":[\"bzz-raw://6cc461313286dde62d045d6288e87bae5032e035796326f5b1ed6218e58aa9da\",\"dweb:/ipfs/QmQS2AkQwf2ANQieDuaUnpJEdXChoLv4CCbZqHkfywYPSR\"],\"license\":\"MIT\"},\"node_modules/@bananapus/core/src/structs/JBPayHookSpecification.sol\":{\"keccak256\":\"0x955f0bfca97300b9e5927dc181753830ee362f83fa9ca32a90daade32aa0cfd5\",\"urls\":[\"bzz-raw://f517af1597c7c40f8d3da53f7a6684a3e162950a16559d6bf6ea3b727bb11546\",\"dweb:/ipfs/QmRWo2ZTYXmVZTzNJDYhsJNsEaHphjpUfx9eNz2cciyz86\"],\"license\":\"MIT\"},\"node_modules/@bananapus/core/src/structs/JBPermissionsData.sol\":{\"keccak256\":\"0x8f0f69a6ebf5f3704e3dfcb3712fb9d3f94ae7c1ab89bf3e37bad42a3e7a0487\",\"urls\":[\"bzz-raw://57b0c5e52843e2217082889ed47b4da3943e0da4590d5768dcebfe3edad4a6b8\",\"dweb:/ipfs/QmRz48vuWLw81kUP836rh1qzqWiJFGbksgRUA9xGEDNKTY\"],\"license\":\"MIT\"},\"node_modules/@bananapus/core/src/structs/JBRedeemHookSpecification.sol\":{\"keccak256\":\"0x673d16ee1a91bf8de3b37e57284e60451b70a9c2d748c9cdc7a151f5624af18f\",\"urls\":[\"bzz-raw://ceeb5e81effa0f076c5630c756dfcf1548d09f822b255a0a6ee01e54de8c8ae2\",\"dweb:/ipfs/QmSMoMNPRhPMnuJNvWa6S59XRfycGz9o2ApNp63bUW6TdX\"],\"license\":\"MIT\"},\"node_modules/@bananapus/core/src/structs/JBRuleset.sol\":{\"keccak256\":\"0x15b2bf3174d84846a91ccbf5a344dfb125b55ed9cf50102db8d6868844225189\",\"urls\":[\"bzz-raw://647416b025dbd941094db89cbc69f755c155bd6c87be3f322394ccc4a8e0442d\",\"dweb:/ipfs/QmTCL9xcHnxQ4t5AmCPoZvXDUPW5xhzhyyXYbkMdyg44au\"],\"license\":\"MIT\"},\"node_modules/@bananapus/core/src/structs/JBSingleAllowanceContext.sol\":{\"keccak256\":\"0x5bcd5b3abafe9137ee451b112fcac473b4d48858544279d38d0c56dea5271f44\",\"urls\":[\"bzz-raw://5f17a870c2f1797a18918ab3dc6f404f0224d9e415815c708654a17686cd62c0\",\"dweb:/ipfs/QmWMDffMMrj7ZXquTHSQt8VQm5owo94BdPpJ93NfSp2jrn\"],\"license\":\"MIT\"},\"node_modules/@bananapus/core/src/structs/JBTokenAmount.sol\":{\"keccak256\":\"0x5cf0626b73a596c1e2da17c89ae039a7c0374310b060d48568d3b6c11fbe6180\",\"urls\":[\"bzz-raw://63348b50be95e2995409394a17caffc563a646f0972650a1230bf864fbd3219b\",\"dweb:/ipfs/QmZXZpS3SbFD5nWaCauf6AqbEhLURv5qsKHpThBvQgDU6u\"],\"license\":\"MIT\"},\"node_modules/@bananapus/permission-ids/src/JBPermissionIds.sol\":{\"keccak256\":\"0xf61109f6b217a80d5e5391f548fb6f2e451f7dbee3fabfc04cf17e88722203bc\",\"urls\":[\"bzz-raw://ac776ab1cd621c22bd7973471acdfa187f3abc659ad9a3ef6ed10b6447dfcf9c\",\"dweb:/ipfs/QmYLbaHt68qcuMzkiKpe96jMjiWUq1F3u8yMhxmZ3pnnWu\"],\"license\":\"MIT\"},\"node_modules/@openzeppelin/contracts/access/Ownable.sol\":{\"keccak256\":\"0xff6d0bb2e285473e5311d9d3caacb525ae3538a80758c10649a4d61029b017bb\",\"urls\":[\"bzz-raw://8ed324d3920bb545059d66ab97d43e43ee85fd3bd52e03e401f020afb0b120f6\",\"dweb:/ipfs/QmfEckWLmZkDDcoWrkEvMWhms66xwTLff9DDhegYpvHo1a\"],\"license\":\"MIT\"},\"node_modules/@openzeppelin/contracts/token/ERC20/IERC20.sol\":{\"keccak256\":\"0xc6a8ff0ea489379b61faa647490411b80102578440ab9d84e9a957cc12164e70\",\"urls\":[\"bzz-raw://0ea104e577e63faea3b69c415637e99e755dcbf64c5833d7140c35a714d6d90c\",\"dweb:/ipfs/Qmau6x4Ns9XdyynRCNNp3RhLqijJjFm7z5fyZazfYFGYdq\"],\"license\":\"MIT\"},\"node_modules/@openzeppelin/contracts/token/ERC20/extensions/IERC20Metadata.sol\":{\"keccak256\":\"0xaa761817f6cd7892fcf158b3c776b34551cde36f48ff9703d53898bc45a94ea2\",\"urls\":[\"bzz-raw://0ad7c8d4d08938c8dfc43d75a148863fb324b80cf53e0a36f7e5a4ac29008850\",\"dweb:/ipfs/QmcrhfPgVNf5mkdhQvy1pMv51TFokD3Y4Wa5WZhFqVh8UV\"],\"license\":\"MIT\"},\"node_modules/@openzeppelin/contracts/token/ERC20/extensions/IERC20Permit.sol\":{\"keccak256\":\"0x6008dabfe393240d73d7dd7688033f72740d570aa422254d29a7dce8568f3aff\",\"urls\":[\"bzz-raw://f5196ec75139918c6c7bb4251b36395e668f1fa6d206beba7e7520e74913940d\",\"dweb:/ipfs/QmSyqjksXxmm2mCG6qRd1yuwLykypkSVBbnBnGqJRcuJMi\"],\"license\":\"MIT\"},\"node_modules/@openzeppelin/contracts/token/ERC20/utils/SafeERC20.sol\":{\"keccak256\":\"0x37bb49513c49c87c4642a891b13b63571bc87013dde806617aa1efb54605f386\",\"urls\":[\"bzz-raw://b3036b3a83b7c48f96641f2a9002b9f2dcb6a5958dd670894ada21ae8229b3d0\",\"dweb:/ipfs/QmUNfSBdoVtjhETaUJCYcaC7pTMgbhht926tJ2uXJbiVd3\"],\"license\":\"MIT\"},\"node_modules/@openzeppelin/contracts/token/ERC721/IERC721.sol\":{\"keccak256\":\"0x5ef46daa3b58ef2702279d514780316efaa952915ee1aa3396f041ee2982b0b4\",\"urls\":[\"bzz-raw://2f8f2a76e23b02fc69e8cd24c3cb47da6c7af3a2d6c3a382f8ac25c6e094ade7\",\"dweb:/ipfs/QmPV4ZS4tPVv4mTCf9ejyZ1ai57EEibDRj7mN2ARDCLV5n\"],\"license\":\"MIT\"},\"node_modules/@openzeppelin/contracts/utils/Address.sol\":{\"keccak256\":\"0xaf28a975a78550e45f65e559a3ad6a5ad43b9b8a37366999abd1b7084eb70721\",\"urls\":[\"bzz-raw://b7bd24e224f67f65bfadf85dc2929fa965456bb2415478bd0125471b5ce35245\",\"dweb:/ipfs/QmRaydGr8BTHs1kvaZfsNU69pKzUAGFrvABn1KiRSbE51y\"],\"license\":\"MIT\"},\"node_modules/@openzeppelin/contracts/utils/Context.sol\":{\"keccak256\":\"0x493033a8d1b176a037b2cc6a04dad01a5c157722049bbecf632ca876224dd4b2\",\"urls\":[\"bzz-raw://6a708e8a5bdb1011c2c381c9a5cfd8a9a956d7d0a9dc1bd8bcdaf52f76ef2f12\",\"dweb:/ipfs/Qmax9WHBnVsZP46ZxEMNRQpLQnrdE4dK8LehML1Py8FowF\"],\"license\":\"MIT\"},\"node_modules/@openzeppelin/contracts/utils/introspection/IERC165.sol\":{\"keccak256\":\"0x4296879f55019b23e135000eb36896057e7101fb7fb859c5ef690cf14643757b\",\"urls\":[\"bzz-raw://87b3541437c8c443ccd36795e56a338ed12855eec17f8da624511b8d1a7e14df\",\"dweb:/ipfs/QmeJQCtZrQjtJLr6u7ZHWeH3pBnjtLWzvRrKViAi7UZqxL\"],\"license\":\"MIT\"},\"node_modules/@uniswap/permit2/src/interfaces/IAllowanceTransfer.sol\":{\"keccak256\":\"0x37f0ac203b6ef605c9533e1a739477e8e9dcea90710b40e645a367f8a21ace29\",\"urls\":[\"bzz-raw://e0104d72aeaec1cd66cc232e7de7b7ead08608efcc179491b8a66387614670b0\",\"dweb:/ipfs/QmfAZDyuNC9FXXbnJUwqHNwmAK6uRrXxtWEytLsxjskPsN\"],\"license\":\"MIT\"},\"node_modules/@uniswap/permit2/src/interfaces/IEIP712.sol\":{\"keccak256\":\"0xfdccf2b9639070803cd0e4198427fb0df3cc452ca59bd3b8a0d957a9a4254138\",\"urls\":[\"bzz-raw://f7c936ac42ce89e827db905a1544397f8bdf46db34cdb6aa1b90dea42fdb4c72\",\"dweb:/ipfs/QmVgurxo1N31qZqkPBirw9Z7S9tLYmv6jSwQp8R8ur2cBk\"],\"license\":\"MIT\"},\"node_modules/@uniswap/permit2/src/interfaces/IPermit2.sol\":{\"keccak256\":\"0xaa631cc9f53e699301d94233007110a345e6779011def484e8dd97b8fe0af771\",\"urls\":[\"bzz-raw://fc0502cf19c9c18f320a3001201e89e350393b75837f6b7971de18b2de06f30d\",\"dweb:/ipfs/QmT9SfhdJ7VJNNrf94g4H5usyi7ShqWGx7Cqsz9jZTjX96\"],\"license\":\"MIT\"},\"node_modules/@uniswap/permit2/src/interfaces/ISignatureTransfer.sol\":{\"keccak256\":\"0xe6df9966f8841dc3958ee86169c89de97e7f614c81c28b9dc947b12d732df64e\",\"urls\":[\"bzz-raw://3d4eafdee7f48c3be8350a94eb6edd0bfb2af2c105df65787a77174f356c0317\",\"dweb:/ipfs/QmY1j2adeeAhNpn6cUuthemxGCdLXHTfyMh9yTKsY4mZ2d\"],\"license\":\"MIT\"},\"node_modules/@uniswap/v3-core/contracts/interfaces/IUniswapV3Pool.sol\":{\"keccak256\":\"0x4e64844c56061cd90e0a80de73534a9166704c43eed579eb83f90bc2780ce968\",\"urls\":[\"bzz-raw://cba4fab5cebdddf644b901994a7f0f52b98885d4c56012f4dc51d52c2bf9de0e\",\"dweb:/ipfs/QmVyyrRmqXrAiapewWunRVgiPVFJHpH2hKiE1py1svMSNV\"],\"license\":\"GPL-2.0-or-later\"},\"node_modules/@uniswap/v3-core/contracts/interfaces/callback/IUniswapV3SwapCallback.sol\":{\"keccak256\":\"0x3f485fb1a44e8fbeadefb5da07d66edab3cfe809f0ac4074b1e54e3eb3c4cf69\",\"urls\":[\"bzz-raw://095ce0626b41318c772b3ebf19d548282607f6a8f3d6c41c13edfbd5370c8652\",\"dweb:/ipfs/QmVDZfJJ89UUCE1hMyzqpkZAtQ8jUsBgZNE5AMRG7RzRFS\"],\"license\":\"GPL-2.0-or-later\"},\"node_modules/@uniswap/v3-core/contracts/interfaces/pool/IUniswapV3PoolActions.sol\":{\"keccak256\":\"0x9453dd0e7442188667d01d9b65de3f1e14e9511ff3e303179a15f6fc267f7634\",\"urls\":[\"bzz-raw://982f4328f956c3e60e67501e759eb292ac487f76460c774c50e9ae4fcc92aae5\",\"dweb:/ipfs/QmRnzEDsaqtd9PJEVcgQi7p5aV5pMSvRUoGZJAdwFUJxgZ\"],\"license\":\"GPL-2.0-or-later\"},\"node_modules/@uniswap/v3-core/contracts/interfaces/pool/IUniswapV3PoolDerivedState.sol\":{\"keccak256\":\"0xe603ac5b17ecdee73ba2b27efdf386c257a19c14206e87eee77e2017b742d9e5\",\"urls\":[\"bzz-raw://8febc9bdb399a4d94bb89f5377732652e2400e4a8dee808201ade6848f9004e7\",\"dweb:/ipfs/QmaKDqYYFU4d2W2iN77aDHptfbFmYZRrMYXHeGpJmM8C1c\"],\"license\":\"GPL-2.0-or-later\"},\"node_modules/@uniswap/v3-core/contracts/interfaces/pool/IUniswapV3PoolErrors.sol\":{\"keccak256\":\"0xf80abf13fb1fafc127ba4e792f240dd8ea7c8c893978cdfd8439c27fae9a037b\",\"urls\":[\"bzz-raw://b04fc72a656bbf3631e9c2e67b9870a2d9d235185e833fe050e9606e6816a9aa\",\"dweb:/ipfs/QmUcz4bkEkJ9pwzFu1C3n97hBQ3st9U6qTAqCdyFwddKco\"],\"license\":\"GPL-2.0-or-later\"},\"node_modules/@uniswap/v3-core/contracts/interfaces/pool/IUniswapV3PoolEvents.sol\":{\"keccak256\":\"0x8071514d0fe5d17d6fbd31c191cdfb703031c24e0ece3621d88ab10e871375cd\",\"urls\":[\"bzz-raw://d0b571930cc7488b1d546a7e9cea7c52d8b3c4e207da657ed0e0db7343b8cd03\",\"dweb:/ipfs/QmaGK6vVwB95QSTR1XMYvrh7ivYAYZxi3fD7v6VMA4jZ39\"],\"license\":\"GPL-2.0-or-later\"},\"node_modules/@uniswap/v3-core/contracts/interfaces/pool/IUniswapV3PoolImmutables.sol\":{\"keccak256\":\"0xf6e5d2cd1139c4c276bdbc8e1d2b256e456c866a91f1b868da265c6d2685c3f7\",\"urls\":[\"bzz-raw://b99c8c9ae8e27ee6559e5866bea82cbc9ffc8247f8d15b7422a4deb287d4d047\",\"dweb:/ipfs/QmfL8gaqt3ffAnm6nVj5ksuNpLygXuL3xq5VBqrkwC2JJ3\"],\"license\":\"GPL-2.0-or-later\"},\"node_modules/@uniswap/v3-core/contracts/interfaces/pool/IUniswapV3PoolOwnerActions.sol\":{\"keccak256\":\"0x759b78a2918af9e99e246dc3af084f654e48ef32bb4e4cb8a966aa3dcaece235\",\"urls\":[\"bzz-raw://64144fb96e1c7fdba87305acadb98a198d26a3d46c097cb3a666e567f6f29735\",\"dweb:/ipfs/QmUnWVwN9FKB9uV5Pr8YfLpWZnYM2DENnRMaadZ492JS9u\"],\"license\":\"GPL-2.0-or-later\"},\"node_modules/@uniswap/v3-core/contracts/interfaces/pool/IUniswapV3PoolState.sol\":{\"keccak256\":\"0x44fa2ce1182f6c2f6bead3d1737804bf7e112252ae86e0f2e92f9b8249603f43\",\"urls\":[\"bzz-raw://54154e8665b98d65f5dc91b256551852cb47882180b501b260657122d207c0ea\",\"dweb:/ipfs/QmcfemK1A2PXYrWB5SBFGERpMCderbFRb8BtTzQDj1sUBp\"],\"license\":\"GPL-2.0-or-later\"},\"node_modules/@uniswap/v3-core/contracts/libraries/FullMath.sol\":{\"keccak256\":\"0x7825565a4bb2a34a1dc96bbfead755785dfb0df8ef81bd934c43023689685645\",\"urls\":[\"bzz-raw://8f44f4614d31e3d4864c7eb13620555253b84f6a69180f8745b7c6e246a9d125\",\"dweb:/ipfs/QmfNQUcXj3KL8h9u5PqbtEC6yRtwDbKNb48uMPjdwxsKnd\"],\"license\":\"MIT\"},\"node_modules/@uniswap/v3-core/contracts/libraries/TickMath.sol\":{\"keccak256\":\"0x5c57de03a91cc2ec8939865dbbcb0197bb6c353b711075eefd8e0fca5e102129\",\"urls\":[\"bzz-raw://1e994c24fd891ef8a3f5dbf5eba42b34feaf05e0376a29f91322faa18054449c\",\"dweb:/ipfs/QmNdUJGUQxd1dPkMbnA5f5UNqakxRkQE5r7bTZJAuHeapS\"],\"license\":\"GPL-2.0-or-later\"},\"node_modules/@uniswap/v3-periphery/contracts/libraries/OracleLibrary.sol\":{\"keccak256\":\"0xe313f89c69c0f1c91f0722868313b4ceb14479b3e7a0abf52a1b9bbd9c18e81b\",\"urls\":[\"bzz-raw://8ad09b061f3f533c116618c20cf01510108eebebb7ff8847b0f245b8ba368d53\",\"dweb:/ipfs/QmU6vdi5JjJfjK2KqonWvRg9NeuQWarj4B1YFN22Dh9VJM\"],\"license\":\"GPL-2.0-or-later\"},\"src/JBSwapTerminal.sol\":{\"keccak256\":\"0xcb3ab45bb1f945aff2ef1fdbac403e394c1c1b742a1815f4a4b0ceaf184f65bc\",\"urls\":[\"bzz-raw://956ee430b09f2f6cbc1146272daff0fe0d79a0d6d2c246041a1d848139cbeefd\",\"dweb:/ipfs/QmToBqwYQrJKGcV1Gs3vLkQJ9nYf6v6UCWfyVVtM9bzZyE\"],\"license\":\"MIT\"},\"src/interfaces/IWETH9.sol\":{\"keccak256\":\"0x50083bcaca6c1a8d12c79116fab4f6d8cd452a510cb3f00c4a8bc3a54678efb7\",\"urls\":[\"bzz-raw://726f187112d0953c14bff8099a8c9ce1ead47eb25e90839f77b100feaaf16127\",\"dweb:/ipfs/QmTEnMENpLjcTQLMwz4kEUiQHfiTkaZT3TL37nQ8JiRYh5\"],\"license\":\"GPL-2.0-or-later\"}},\"version\":1}",
			"args": [
				"0xf9dadA4628Eb3992202CF253625d4ECebBC1592f",
				"0x1e2E8562b635fe19978640C784e47865A83d6605",
				"0xCD8c4da77dfb15C05486D3F71Ee4C2C0dfdbc94e",
				"0x000000000022D473030F116dDEE9F6B43aC78BA3",
				"0x823b92d6a4b2AED4b15675c7917c9f922ea8ADAD",
				"0x7b79995e5f793A07Bc00c21412e50Ecae098E7f9",
				"0x000000000000000000000000000000000000EEEe"
			],
			"bytecode": "0x6101606040523480156200001257600080fd5b5060405162003aa038038062003aa083398101604081905262000035916200011a565b6001600160a01b03808716608052839081166200006c57604051631e4fbdf760e01b81526000600482015260240160405180910390fd5b6200007781620000b1565b506001600160a01b0396871660a05293861660c05291851660e0525083166101005290911661012081905261eeee146101405250620001c5565b600080546001600160a01b038381166001600160a01b0319831681178455604051919092169283917f8be0079c531659141344cd1fd0a4f28419497f9722a3daafe3b4186f6b6457e09190a35050565b6001600160a01b03811681146200011757600080fd5b50565b600080600080600080600060e0888a0312156200013657600080fd5b8751620001438162000101565b6020890151909750620001568162000101565b6040890151909650620001698162000101565b60608901519095506200017c8162000101565b60808901519094506200018f8162000101565b60a0890151909350620001a28162000101565b60c0890151909250620001b58162000101565b8091505092959891949750929550565b60805160a05160c05160e0516101005161012051610140516137df620002c160003960008181610e0a015281816112160152818161146a0152818161164b01528181611b140152611f390152600081816101eb01528181610d2601528181610e390152818161113201528181611245015261149001526000818161015f015281816104d501528181611026015281816114b5015281816115a90152611b4e0152600081816103b201528181611e2a015261204401526000818161043a01528181610d51015261115f015260008181610257015281816106650152610ef50152600081816105880152818161132c01526113d501526137df6000f3fe60806040526004361061014f5760003560e01c80638da5cb5b116100b6578063cc6801271161006f578063cc68012714610517578063e28b54111461053b578063f2fde38b14610556578063f434c91414610576578063fa461e33146105aa578063fef43257146105ca57600080fd5b80638da5cb5b1461045c57806398ea47fc1461047a5780639e6eec051461049a578063ac905114146104ad578063ad5c4648146104c3578063c361534c146104f757600080fd5b806340873cb51161010857806340873cb51461032f578063515a9293146103735780636afdd850146103a0578063715018a6146103d45780637c5e9c24146103e957806388bc2ef31461042857600080fd5b806301ffc9a7146101a45780630392ef94146101d957806324e26dc514610225578063293c4999146102455780632c1ae882146102795780633a01714f1461029c57600080fd5b3661019f57336001600160a01b037f0000000000000000000000000000000000000000000000000000000000000000161461019d57604051635e7e9adf60e11b815260040160405180910390fd5b005b600080fd5b3480156101b057600080fd5b506101c46101bf366004612aa6565b6105dd565b60405190151581526020015b60405180910390f35b3480156101e557600080fd5b5061020d7f000000000000000000000000000000000000000000000000000000000000000081565b6040516001600160a01b0390911681526020016101d0565b34801561023157600080fd5b5061019d610240366004612ae5565b61062f565b34801561025157600080fd5b5061020d7f000000000000000000000000000000000000000000000000000000000000000081565b34801561028557600080fd5b5061028e600081565b6040519081526020016101d0565b3480156102a857600080fd5b506103226102b7366004612b27565b604080516060808201835260008083526020808401829052928401819052948552600382528285206001600160a01b03948516865282529382902082519485018352549283168452600160a01b830460ff1690840152600160a81b90910463ffffffff169082015290565b6040516101d09190612b57565b34801561033b57600080fd5b5061034f61034a366004612b27565b610871565b6040805163ffffffff90931683526001600160a01b039091166020830152016101d0565b34801561037f57600080fd5b5061039361038e366004612b8a565b6108e7565b6040516101d09190612ba3565b3480156103ac57600080fd5b5061020d7f000000000000000000000000000000000000000000000000000000000000000081565b3480156103e057600080fd5b5061019d610c66565b3480156103f557600080fd5b50610409610404366004612b27565b610c7a565b604080516001600160a01b0390931683529015156020830152016101d0565b34801561043457600080fd5b5061020d7f000000000000000000000000000000000000000000000000000000000000000081565b34801561046857600080fd5b506000546001600160a01b031661020d565b34801561048657600080fd5b5061019d610495366004612c17565b505050565b61019d6104a8366004612ce6565b610d08565b3480156104b957600080fd5b5061020d61271081565b3480156104cf57600080fd5b5061020d7f000000000000000000000000000000000000000000000000000000000000000081565b34801561050357600080fd5b5061019d610512366004612d8e565b610ebf565b34801561052357600080fd5b5061028e610532366004612dea565b60009392505050565b34801561054757600080fd5b5061028e610532366004612ae5565b34801561056257600080fd5b5061019d610571366004612e16565b610fb5565b34801561058257600080fd5b5061020d7f000000000000000000000000000000000000000000000000000000000000000081565b3480156105b657600080fd5b5061019d6105c5366004612e33565b610ff8565b61028e6105d8366004612e86565b611114565b60006001600160e01b03198216632f720bd160e21b148061060e57506001600160e01b031982166306afdd8560e41b145b8061062957506001600160e01b031982166301ffc9a760e01b145b92915050565b8215801561064757506000546001600160a01b031633145b6106e0576040516331a9108f60e11b8152600481018490526106e0907f00000000000000000000000000000000000000000000000000000000000000006001600160a01b031690636352211e90602401602060405180830381865afa1580156106b4573d6000803e3d6000fd5b505050506040513d601f19601f820116820180604052508101906106d89190612f3a565b84601a6112e2565b6040518060400160405280826001600160a01b03168152602001610702611466565b6001600160a01b03908116858216908110909252600086815260026020908152604080832085845282529182902085518154968301511515600160a01b026001600160a81b0319909716941693909317949094179091558051606081018252828152815163313ce56760e01b815291519093848101939263313ce56792600480830193928290030181865afa15801561079f573d6000803e3d6000fd5b505050506040513d601f19601f820116820180604052508101906107c39190612f57565b60ff908116825263ffffffff80861660209384015260008781526003845260408082206001600160a01b03988916808452908652818320875181548989015199850151909616600160a81b0263ffffffff60a81b1999909716600160a01b026001600160a81b03199096169a1699909917939093179590951692909217909555948552600481529084208054600181018255908552932090920180546001600160a01b031916909117905550565b60008281526001602090815260408083206001600160a01b038516845290915281205481908082036108d757506001600160a01b03831660009081527fa6eef7e35abe7026729641147f7915573c7e97b47efa546f5f6e3230263bcb4960205260409020545b915050602081901c5b9250929050565b600081815260046020908152604080832080548251818502810185019093528083526060949383018282801561094657602002820191906000526020600020905b81546001600160a01b03168152600190910190602001808311610928575b50506000808052600460209081527f17ef568e3e12ab5b9c7254a8d58478811de00f9e6eb34345acd53bf8fd09d3ec805460408051828502810185019091528181529798509296955093509091508301828280156109cd57602002820191906000526020600020905b81546001600160a01b031681526001909101906020018083116109af575b505050505090506000815183516109e49190612f90565b67ffffffffffffffff8111156109fc576109fc612fa3565b604051908082528060200260200182016040528015610a4757816020015b6040805160608101825260008082526020808301829052928201528252600019909201910181610a1a5790505b50835190915060005b8451811015610b0157600360008881526020019081526020016000206000868381518110610a8057610a80612fb9565b6020908102919091018101516001600160a01b039081168352828201939093526040918201600020825160608101845290549384168152600160a01b840460ff1691810191909152600160a81b90920463ffffffff16908201528351849083908110610aee57610aee612fb9565b6020908102919091010152600101610a50565b5060005b8351811015610c4f576000805b8651811015610b7757858381518110610b2d57610b2d612fb9565b60200260200101516001600160a01b0316878281518110610b5057610b50612fb9565b60200260200101516001600160a01b031603610b6f5760019150610b77565b600101610b12565b5080610c46576000808052600360205285517f3617319a054d772f909f7c479a2cebe5066e836a939412e32403c99029b92eff9190879085908110610bbe57610bbe612fb9565b6020908102919091018101516001600160a01b039081168352828201939093526040918201600020825160608101845290549384168152600160a01b840460ff1691810191909152600160a81b90920463ffffffff16908201528451859085908110610c2c57610c2c612fb9565b60200260200101819052508280610c4290612fcf565b9350505b50600101610b05565b508151811015610c5d578082525b50949350505050565b610c6e6114d7565b610c786000611504565b565b60008281526002602090815260408083206001600160a01b0385811685529252909120805491821691600160a01b900460ff169082610d00575050506001600160a01b0381811660009081527fac33ff75c19e70fe83507db0d683fd3465c996598dc972688b7ace676c89077b60205260409020805491821691600160a01b900460ff16905b509250929050565b604051630862026560e41b8152600481018990526001600160a01b037f0000000000000000000000000000000000000000000000000000000000000000811660248301526000917f000000000000000000000000000000000000000000000000000000000000000090911690638620265090604401602060405180830381865afa158015610d9a573d6000803e3d6000fd5b505050506040513d601f19601f82011682018060405250810190610dbe9190612f3a565b90506001600160a01b038116610de757604051630faa917b60e11b815260040160405180910390fd5b6000610df78a8a8a858888611554565b9050816001600160a01b0316639e6eec057f0000000000000000000000000000000000000000000000000000000000000000610e34576000610e36565b825b8c7f0000000000000000000000000000000000000000000000000000000000000000858c8c8c8c8c6040518a63ffffffff1660e01b8152600401610e81989796959493929190613011565b6000604051808303818588803b158015610e9a57600080fd5b505af1158015610eae573d6000803e3d6000fd5b505050505050505050505050505050565b83158015610ed757506000546001600160a01b031633145b610f70576040516331a9108f60e11b815260048101859052610f70907f00000000000000000000000000000000000000000000000000000000000000006001600160a01b031690636352211e90602401602060405180830381865afa158015610f44573d6000803e3d6000fd5b505050506040513d601f19601f82011682018060405250810190610f689190612f3a565b85601b6112e2565b60009384526001602090815260408086206001600160a01b03959095168652938152929093209290911b640100000000600160c01b031663ffffffff91909116179055565b610fbd6114d7565b6001600160a01b038116610fec57604051631e4fbdf760e01b8152600060048201526024015b60405180910390fd5b610ff581611504565b50565b60008061100783850185613069565b91509150600080871261101a578661101c565b855b90508115611099577f00000000000000000000000000000000000000000000000000000000000000006001600160a01b031663d0e30db0826040518263ffffffff1660e01b81526004016000604051808303818588803b15801561107f57600080fd5b505af1158015611093573d6000803e3d6000fd5b50505050505b60405163a9059cbb60e01b8152336004820152602481018290526001600160a01b0384169063a9059cbb906044016020604051808303816000875af11580156110e6573d6000803e3d6000fd5b505050506040513d601f19601f8201168201806040525081019061110a9190613097565b5050505050505050565b604051630862026560e41b8152600481018a90526001600160a01b037f00000000000000000000000000000000000000000000000000000000000000008116602483015260009182917f00000000000000000000000000000000000000000000000000000000000000001690638620265090604401602060405180830381865afa1580156111a6573d6000803e3d6000fd5b505050506040513d601f19601f820116820180604052508101906111ca9190612f3a565b90506001600160a01b0381166111f357604051630faa917b60e11b815260040160405180910390fd5b60006112038c8c8c858989611554565b9050816001600160a01b031663fef432577f0000000000000000000000000000000000000000000000000000000000000000611240576000611242565b825b8e7f0000000000000000000000000000000000000000000000000000000000000000858e8e8e8e8e8e6040518b63ffffffff1660e01b815260040161128f999897969594939291906130b4565b60206040518083038185885af11580156112ad573d6000803e3d6000fd5b50505050506040513d601f19601f820116820180604052508101906112d29190613118565b509b9a5050505050505050505050565b336001600160a01b0384168114801590611399575060405163c161c93f60e01b81526001600160a01b038281166004830152858116602483015260448201859052606482018490527f0000000000000000000000000000000000000000000000000000000000000000169063c161c93f90608401602060405180830381865afa158015611373573d6000803e3d6000fd5b505050506040513d601f19601f820116820180604052508101906113979190613097565b155b8015611442575060405163c161c93f60e01b81526001600160a01b038281166004830152858116602483015260006044830152606482018490527f0000000000000000000000000000000000000000000000000000000000000000169063c161c93f90608401602060405180830381865afa15801561141c573d6000803e3d6000fd5b505050506040513d601f19601f820116820180604052508101906114409190613097565b155b156114605760405163075fd2b160e01b815260040160405180910390fd5b50505050565b60007f00000000000000000000000000000000000000000000000000000000000000006114b257507f000000000000000000000000000000000000000000000000000000000000000090565b507f000000000000000000000000000000000000000000000000000000000000000090565b6000546001600160a01b03163314610c785760405163118cdaa760e01b8152336004820152602401610fe3565b600080546001600160a01b038381166001600160a01b0319831681178455604051919092169283917f8be0079c531659141344cd1fd0a4f28419497f9722a3daafe3b4186f6b6457e09190a35050565b6040805160e081018252600060208201819052918101829052606081018290526080810182905260a0810182905260c081018290528781526001600160a01b03871661eeed19016115e0576001600160a01b037f0000000000000000000000000000000000000000000000000000000000000000166040820152600160608201523460808201526115f7565b6001600160a01b0387166040820152608081018690525b61160784848a84604001516116bf565b151560c08401526001600160a01b0316602083015260a082015261162c818585611828565b6080820152600061163b611466565b90508160600151801561166b57507f00000000000000000000000000000000000000000000000000000000000000005b8061168b5750806001600160a01b031682604001516001600160a01b0316145b1561169c57816080015192506116a8565b6116a5826119b2565b92505b6116b3868285611bbc565b50509695505050505050565b60008060008060006117336116f76040518060400160405280600c81526020016b071756f7465466f72537761760a41b815250611be8565b8a8a8080601f016020809104026020016040519081016040528093929190818152602001838380828437600092019190915250611bfc92505050565b91509150811561175d57808060200190518101906117519190613131565b9196509450925061181c565b60008781526002602090815260408083206001600160a01b038a81168552925290912080549182169550600160a01b90910460ff1693508461180457506001600160a01b0386811660009081527fac33ff75c19e70fe83507db0d683fd3465c996598dc972688b7ace676c89077b6020526040902080549182169550600160a01b90910460ff1693508461180457604051632a12044160e21b815260040160405180910390fd5b61180f858986611da1565b6001600160a01b03169550505b50509450945094915050565b60408301516060840151600091901561184457349150506119ab565b341561186357604051635e7e9adf60e11b815260040160405180910390fd5b6000806118cd611891604051806040016040528060078152602001663832b936b4ba1960c91b815250611be8565b87878080601f016020809104026020016040519081016040528093929190818152602001838380828437600092019190915250611bfc92505050565b91509150811561192d576000818060200190518101906118ed9190613202565b9050876080015181602001516001600160a01b03161015611921576040516317e415a160e11b815260040160405180910390fd5b61192b8185611e28565b505b61193d3330858a60800151611f27565b6040516370a0823160e01b81523060048201526001600160a01b038416906370a0823190602401602060405180830381865afa158015611981573d6000803e3d6000fd5b505050506040513d601f19601f820116820180604052508101906119a59190613118565b93505050505b9392505050565b6040810151600090816119c3611466565b6001600160a01b0316826001600160a01b031610905060008085602001516001600160a01b031663128acb083085896080015187611a1f57611a1a600173fffd8963efd1fc6a506488495d951d5263988d26613302565b611a2f565b611a2f6401000276a36001613329565b60608c810151604080516001600160a01b038e16602082015291151590820152016040516020818303038152906040526040518663ffffffff1660e01b8152600401611a7f959493929190613375565b60408051808303816000875af1158015611a9d573d6000803e3d6000fd5b505050506040513d601f19601f82011682018060405250810190611ac191906133bb565b9150915082611ad05781611ad2565b805b611adb906133df565b94508560a00151851015611b125760a0860151604051630bb50c5d60e41b8152610fe3918791600401918252602082015260400190565b7f000000000000000000000000000000000000000000000000000000000000000015611bb357604051632e1a7d4d60e01b8152600481018690527f00000000000000000000000000000000000000000000000000000000000000006001600160a01b031690632e1a7d4d90602401600060405180830381600087803b158015611b9a57600080fd5b505af1158015611bae573d6000803e3d6000fd5b505050505b50505050919050565b61eeed196001600160a01b03831601611bd457505050565b6104956001600160a01b038316848361209c565b805160208201206000903060601b18610629565b600060606025835111611c2157505060408051602081019091526000808252906108e0565b600083611c3060046020612f90565b81518110611c4057611c40612fb9565b0160209081015160f81c91505b600085611c5b600484612f90565b81518110611c6b57611c6b612fb9565b01602001516001600160f81b03191614801590611c915750611c8e6020836133fb565b81105b15611d9857600085611ca4600484612f90565b81518110611cb457611cb4612fb9565b016020908101518784019091015160f89190911c91506001600160e01b031980891690821603611d8e576000611ceb6020866133fb565b611cf6600986612f90565b101580611d2b575087611d0a600986612f90565b81518110611d1a57611d1a612fb9565b01602001516001600160f81b031916155b611d6457602088611d3d600987612f90565b81518110611d4d57611d4d612fb9565b0160200151611d5f919060f81c6133fb565b611d67565b87515b90506001611d8089611d7a6020876133fb565b84612126565b9650965050505050506108e0565b5050600501611c4d565b50509250929050565b6000806000611db08587610871565b915091506000611dc0878461216c565b5090506000611dce826123b6565b905085611dfb57612710611de28483613412565b611dec919061345a565b611df69082613329565b611e1c565b612710611e088483613412565b611e12919061345a565b611e1c9082613302565b98975050505050505050565b7f00000000000000000000000000000000000000000000000000000000000000006001600160a01b0316632b67b5703360405180606001604052806040518060800160405280876001600160a01b0316815260200188602001516001600160a01b03168152602001886040015165ffffffffffff168152602001886060015165ffffffffffff168152508152602001306001600160a01b03168152602001866000015181525085608001516040518463ffffffff1660e01b8152600401611ef193929190613480565b600060405180830381600087803b158015611f0b57600080fd5b505af1158015611f1f573d6000803e3d6000fd5b505050505050565b306001600160a01b03851603611f80577f000000000000000000000000000000000000000000000000000000000000000015611f6c57611f6783826126d9565b611460565b611f676001600160a01b0383168483612770565b604051636eb1769f60e11b81526001600160a01b03858116600483015230602483015282919084169063dd62ed3e90604401602060405180830381865afa158015611fcf573d6000803e3d6000fd5b505050506040513d601f19601f82011682018060405250810190611ff39190613118565b1061200d57611f676001600160a01b0383168585846127cf565b604051631b63c28b60e11b81526001600160a01b0385811660048301528481166024830152828116604483015283811660648301527f000000000000000000000000000000000000000000000000000000000000000016906336c7851690608401600060405180830381600087803b15801561208857600080fd5b505af115801561110a573d6000803e3d6000fd5b604051636eb1769f60e11b81523060048201526001600160a01b0383811660248301526000919085169063dd62ed3e90604401602060405180830381865afa1580156120ec573d6000803e3d6000fd5b505050506040513d601f19601f820116820180604052508101906121109190613118565b905061146084846121218585612f90565b612808565b60608282036040519150602081830101604052808252508260208501016020820160005b8481101561216257828101518282015260200161214a565b5050509392505050565b6000808263ffffffff166000036121aa5760405162461bcd60e51b8152602060048201526002602482015261042560f41b6044820152606401610fe3565b60408051600280825260608201835260009260208301908036833701905050905083816000815181106121df576121df612fb9565b602002602001019063ffffffff16908163ffffffff168152505060008160018151811061220e5761220e612fb9565b602002602001019063ffffffff16908163ffffffff1681525050600080866001600160a01b031663883bdbfd846040518263ffffffff1660e01b815260040161225791906134f4565b600060405180830381865afa158015612274573d6000803e3d6000fd5b505050506040513d6000823e601f3d908101601f1916820160405261229c91908101906135ce565b915091506000826000815181106122b5576122b5612fb9565b6020026020010151836001815181106122d0576122d0612fb9565b60200260200101516122e2919061369a565b90506000826000815181106122f9576122f9612fb9565b60200260200101518360018151811061231457612314612fb9565b60200260200101516123269190613302565b905061233863ffffffff8916836136c7565b965060008260060b12801561235e575061235863ffffffff891683613705565b60060b15155b15612371578661236d81613727565b9750505b600061238a6001600160a01b0363ffffffff8b1661374a565b90506123a7640100000000600160c01b03602084901b1682613773565b96505050505050509250929050565b60008060008360020b126123cd578260020b6123d5565b8260020b6000035b9050620d89e88111156123fb576040516315e4079d60e11b815260040160405180910390fd5b60008160011660000361241257600160801b612424565b6ffffcb933bd6fad37aa2d162d1a5940015b70ffffffffffffffffffffffffffffffffff1690506002821615612458576ffff97272373d413259a46990580e213a0260801c5b6004821615612477576ffff2e50f5f656932ef12357cf3c7fdcc0260801c5b6008821615612496576fffe5caca7e10e4e61c3624eaa0941cd00260801c5b60108216156124b5576fffcb9843d60f6159c9db58835c9266440260801c5b60208216156124d4576fff973b41fa98c081472e6896dfb254c00260801c5b60408216156124f3576fff2ea16466c96a3843ec78b326b528610260801c5b6080821615612512576ffe5dee046a99a2a811c461f1969c30530260801c5b610100821615612532576ffcbe86c7900a88aedcffc83b479aa3a40260801c5b610200821615612552576ff987a7253ac413176f2b074cf7815e540260801c5b610400821615612572576ff3392b0822b70005940c7a398e4b70f30260801c5b610800821615612592576fe7159475a2c29b7443b29c7fa6e889d90260801c5b6110008216156125b2576fd097f3bdfd2022b8845ad8f792aa58250260801c5b6120008216156125d2576fa9f746462d870fdf8a65dc1f90e061e50260801c5b6140008216156125f2576f70d869a156d2a1b890bb3df62baf32f70260801c5b618000821615612612576f31be135f97d08fd981231505542fcfa60260801c5b62010000821615612633576f09aa508b5b7a84e1c677de54f3e99bc90260801c5b62020000821615612653576e5d6af8dedb81196699c329225ee6040260801c5b62040000821615612672576d2216e584f5fa1ea926041bedfe980260801c5b6208000082161561268f576b048a170391f7dc42444e8fa20260801c5b60008460020b13156126b05780600019816126ac576126ac613444565b0490505b6401000000008106156126c45760016126c7565b60005b60ff16602082901c0192505050919050565b804710156126fc5760405163cd78605960e01b8152306004820152602401610fe3565b6000826001600160a01b03168260405160006040518083038185875af1925050503d8060008114612749576040519150601f19603f3d011682016040523d82523d6000602084013e61274e565b606091505b505090508061049557604051630a12f52160e11b815260040160405180910390fd5b6040516001600160a01b0383811660248301526044820183905261049591859182169063a9059cbb906064015b604051602081830303815290604052915060e01b6020820180516001600160e01b038381831617835250505050612894565b6040516001600160a01b0384811660248301528381166044830152606482018390526114609186918216906323b872dd9060840161279d565b604080516001600160a01b038416602482015260448082018490528251808303909101815260649091019091526020810180516001600160e01b031663095ea7b360e01b17905261285984826128f7565b611460576040516001600160a01b0384811660248301526000604483015261288e91869182169063095ea7b39060640161279d565b61146084825b60006128a96001600160a01b0384168361299f565b905080516000141580156128ce5750808060200190518101906128cc9190613097565b155b1561049557604051635274afe760e01b81526001600160a01b0384166004820152602401610fe3565b6000806000846001600160a01b031684604051612914919061378d565b6000604051808303816000865af19150503d8060008114612951576040519150601f19603f3d011682016040523d82523d6000602084013e612956565b606091505b50915091508180156129805750805115806129805750808060200190518101906129809190613097565b801561299657506000856001600160a01b03163b115b95945050505050565b60606119ab8383600084600080856001600160a01b031684866040516129c5919061378d565b60006040518083038185875af1925050503d8060008114612a02576040519150601f19603f3d011682016040523d82523d6000602084013e612a07565b606091505b5091509150612a17868383612a21565b9695505050505050565b606082612a3657612a3182612a7d565b6119ab565b8151158015612a4d57506001600160a01b0384163b155b15612a7657604051639996b31560e01b81526001600160a01b0385166004820152602401610fe3565b50806119ab565b805115612a8d5780518082602001fd5b604051630a12f52160e11b815260040160405180910390fd5b600060208284031215612ab857600080fd5b81356001600160e01b0319811681146119ab57600080fd5b6001600160a01b0381168114610ff557600080fd5b600080600060608486031215612afa57600080fd5b833592506020840135612b0c81612ad0565b91506040840135612b1c81612ad0565b809150509250925092565b60008060408385031215612b3a57600080fd5b823591506020830135612b4c81612ad0565b809150509250929050565b81516001600160a01b0316815260208083015160ff169082015260408083015163ffffffff169082015260608101610629565b600060208284031215612b9c57600080fd5b5035919050565b6020808252825182820181905260009190848201906040850190845b81811015612c0b57612bf883855180516001600160a01b0316825260208082015160ff169083015260409081015163ffffffff16910152565b9284019260609290920191600101612bbf565b50909695505050505050565b600080600060408486031215612c2c57600080fd5b83359250602084013567ffffffffffffffff80821115612c4b57600080fd5b818601915086601f830112612c5f57600080fd5b813581811115612c6e57600080fd5b8760208260051b8501011115612c8357600080fd5b6020830194508093505050509250925092565b8015158114610ff557600080fd5b60008083601f840112612cb657600080fd5b50813567ffffffffffffffff811115612cce57600080fd5b6020830191508360208285010111156108e057600080fd5b60008060008060008060008060c0898b031215612d0257600080fd5b883597506020890135612d1481612ad0565b9650604089013595506060890135612d2b81612c96565b9450608089013567ffffffffffffffff80821115612d4857600080fd5b612d548c838d01612ca4565b909650945060a08b0135915080821115612d6d57600080fd5b50612d7a8b828c01612ca4565b999c989b5096995094979396929594505050565b60008060008060808587031215612da457600080fd5b843593506020850135612db681612ad0565b9250604085013563ffffffff81168114612dcf57600080fd5b91506060850135612ddf81612ad0565b939692955090935050565b600080600060608486031215612dff57600080fd5b505081359360208301359350604090920135919050565b600060208284031215612e2857600080fd5b81356119ab81612ad0565b60008060008060608587031215612e4957600080fd5b8435935060208501359250604085013567ffffffffffffffff811115612e6e57600080fd5b612e7a87828801612ca4565b95989497509550505050565b600080600080600080600080600060e08a8c031215612ea457600080fd5b8935985060208a0135612eb681612ad0565b975060408a0135965060608a0135612ecd81612ad0565b955060808a0135945060a08a013567ffffffffffffffff80821115612ef157600080fd5b612efd8d838e01612ca4565b909650945060c08c0135915080821115612f1657600080fd5b50612f238c828d01612ca4565b915080935050809150509295985092959850929598565b600060208284031215612f4c57600080fd5b81516119ab81612ad0565b600060208284031215612f6957600080fd5b815160ff811681146119ab57600080fd5b634e487b7160e01b600052601160045260246000fd5b8082018082111561062957610629612f7a565b634e487b7160e01b600052604160045260246000fd5b634e487b7160e01b600052603260045260246000fd5b600060018201612fe157612fe1612f7a565b5060010190565b81835281816020850137506000828201602090810191909152601f909101601f19169091010190565b88815260018060a01b0388166020820152866040820152851515606082015260c06080820152600061304760c083018688612fe8565b82810360a084015261305a818587612fe8565b9b9a5050505050505050505050565b6000806040838503121561307c57600080fd5b823561308781612ad0565b91506020830135612b4c81612c96565b6000602082840312156130a957600080fd5b81516119ab81612c96565b8981526001600160a01b03898116602083015260408201899052871660608201526080810186905260e060a082018190526000906130f59083018688612fe8565b82810360c0840152613108818587612fe8565b9c9b505050505050505050505050565b60006020828403121561312a57600080fd5b5051919050565b60008060006060848603121561314657600080fd5b83519250602084015161315881612ad0565b6040850151909250612b1c81612c96565b60405160a0810167ffffffffffffffff8111828210171561318c5761318c612fa3565b60405290565b604051601f8201601f1916810167ffffffffffffffff811182821017156131bb576131bb612fa3565b604052919050565b805165ffffffffffff811681146131d957600080fd5b919050565b60005b838110156131f95781810151838201526020016131e1565b50506000910152565b6000602080838503121561321557600080fd5b825167ffffffffffffffff8082111561322d57600080fd5b9084019060a0828703121561324157600080fd5b613249613169565b825181528383015161325a81612ad0565b8185015261326a604084016131c3565b604082015261327b606084016131c3565b606082015260808301518281111561329257600080fd5b80840193505086601f8401126132a757600080fd5b8251828111156132b9576132b9612fa3565b6132cb601f8201601f19168601613192565b925080835287858286010111156132e157600080fd5b6132f0818685018787016131de565b50608081019190915295945050505050565b6001600160a01b0382811682821603908082111561332257613322612f7a565b5092915050565b6001600160a01b0381811683821601908082111561332257613322612f7a565b600081518084526133618160208601602086016131de565b601f01601f19169290920160200192915050565b6001600160a01b0386811682528515156020830152604082018590528316606082015260a0608082018190526000906133b090830184613349565b979650505050505050565b600080604083850312156133ce57600080fd5b505080516020909101519092909150565b6000600160ff1b82016133f4576133f4612f7a565b5060000390565b808202811582820484141761062957610629612f7a565b6001600160a01b0382811682821681810283169291811582850482141761343b5761343b612f7a565b50505092915050565b634e487b7160e01b600052601260045260246000fd5b60006001600160a01b038381168061347457613474613444565b92169190910492915050565b600061010060018060a01b0380871684528551818151166020860152816020820151166040860152604081015165ffffffffffff80821660608801528060608401511660808801525050508060208701511660a085015250604085015160c08401528060e0840152612a1781840185613349565b6020808252825182820181905260009190848201906040850190845b81811015612c0b57835163ffffffff1683529284019291840191600101613510565b600067ffffffffffffffff82111561354c5761354c612fa3565b5060051b60200190565b600082601f83011261356757600080fd5b8151602061357c61357783613532565b613192565b8083825260208201915060208460051b87010193508684111561359e57600080fd5b602086015b848110156135c35780516135b681612ad0565b83529183019183016135a3565b509695505050505050565b600080604083850312156135e157600080fd5b825167ffffffffffffffff808211156135f957600080fd5b818501915085601f83011261360d57600080fd5b8151602061361d61357783613532565b82815260059290921b8401810191818101908984111561363c57600080fd5b948201945b8386101561366a5785518060060b811461365b5760008081fd5b82529482019490820190613641565b9188015191965090935050508082111561368357600080fd5b5061369085828601613556565b9150509250929050565b600682810b9082900b03667fffffffffffff198112667fffffffffffff8213171561062957610629612f7a565b60008160060b8360060b806136de576136de613444565b667fffffffffffff198214600019821416156136fc576136fc612f7a565b90059392505050565b60008260060b8061371857613718613444565b808360060b0791505092915050565b60008160020b627fffff19810361374057613740612f7a565b6000190192915050565b6001600160c01b0382811682821681810283169291811582850482141761343b5761343b612f7a565b60006001600160c01b038381168061347457613474613444565b6000825161379f8184602087016131de565b919091019291505056fea2646970667358221220cde7780512ac315a14f21ddf30ae6cc94c51b717223134b198479b34e5f74c1164736f6c63430008170033",
			"deployedBytecode": "0x60806040526004361061014f5760003560e01c80638da5cb5b116100b6578063cc6801271161006f578063cc68012714610517578063e28b54111461053b578063f2fde38b14610556578063f434c91414610576578063fa461e33146105aa578063fef43257146105ca57600080fd5b80638da5cb5b1461045c57806398ea47fc1461047a5780639e6eec051461049a578063ac905114146104ad578063ad5c4648146104c3578063c361534c146104f757600080fd5b806340873cb51161010857806340873cb51461032f578063515a9293146103735780636afdd850146103a0578063715018a6146103d45780637c5e9c24146103e957806388bc2ef31461042857600080fd5b806301ffc9a7146101a45780630392ef94146101d957806324e26dc514610225578063293c4999146102455780632c1ae882146102795780633a01714f1461029c57600080fd5b3661019f57336001600160a01b037f0000000000000000000000007b79995e5f793a07bc00c21412e50ecae098e7f9161461019d57604051635e7e9adf60e11b815260040160405180910390fd5b005b600080fd5b3480156101b057600080fd5b506101c46101bf366004612aa6565b6105dd565b60405190151581526020015b60405180910390f35b3480156101e557600080fd5b5061020d7f000000000000000000000000000000000000000000000000000000000000eeee81565b6040516001600160a01b0390911681526020016101d0565b34801561023157600080fd5b5061019d610240366004612ae5565b61062f565b34801561025157600080fd5b5061020d7f000000000000000000000000f9dada4628eb3992202cf253625d4ecebbc1592f81565b34801561028557600080fd5b5061028e600081565b6040519081526020016101d0565b3480156102a857600080fd5b506103226102b7366004612b27565b604080516060808201835260008083526020808401829052928401819052948552600382528285206001600160a01b03948516865282529382902082519485018352549283168452600160a01b830460ff1690840152600160a81b90910463ffffffff169082015290565b6040516101d09190612b57565b34801561033b57600080fd5b5061034f61034a366004612b27565b610871565b6040805163ffffffff90931683526001600160a01b039091166020830152016101d0565b34801561037f57600080fd5b5061039361038e366004612b8a565b6108e7565b6040516101d09190612ba3565b3480156103ac57600080fd5b5061020d7f000000000000000000000000000000000022d473030f116ddee9f6b43ac78ba381565b3480156103e057600080fd5b5061019d610c66565b3480156103f557600080fd5b50610409610404366004612b27565b610c7a565b604080516001600160a01b0390931683529015156020830152016101d0565b34801561043457600080fd5b5061020d7f000000000000000000000000cd8c4da77dfb15c05486d3f71ee4c2c0dfdbc94e81565b34801561046857600080fd5b506000546001600160a01b031661020d565b34801561048657600080fd5b5061019d610495366004612c17565b505050565b61019d6104a8366004612ce6565b610d08565b3480156104b957600080fd5b5061020d61271081565b3480156104cf57600080fd5b5061020d7f0000000000000000000000007b79995e5f793a07bc00c21412e50ecae098e7f981565b34801561050357600080fd5b5061019d610512366004612d8e565b610ebf565b34801561052357600080fd5b5061028e610532366004612dea565b60009392505050565b34801561054757600080fd5b5061028e610532366004612ae5565b34801561056257600080fd5b5061019d610571366004612e16565b610fb5565b34801561058257600080fd5b5061020d7f0000000000000000000000001e2e8562b635fe19978640c784e47865a83d660581565b3480156105b657600080fd5b5061019d6105c5366004612e33565b610ff8565b61028e6105d8366004612e86565b611114565b60006001600160e01b03198216632f720bd160e21b148061060e57506001600160e01b031982166306afdd8560e41b145b8061062957506001600160e01b031982166301ffc9a760e01b145b92915050565b8215801561064757506000546001600160a01b031633145b6106e0576040516331a9108f60e11b8152600481018490526106e0907f000000000000000000000000f9dada4628eb3992202cf253625d4ecebbc1592f6001600160a01b031690636352211e90602401602060405180830381865afa1580156106b4573d6000803e3d6000fd5b505050506040513d601f19601f820116820180604052508101906106d89190612f3a565b84601a6112e2565b6040518060400160405280826001600160a01b03168152602001610702611466565b6001600160a01b03908116858216908110909252600086815260026020908152604080832085845282529182902085518154968301511515600160a01b026001600160a81b0319909716941693909317949094179091558051606081018252828152815163313ce56760e01b815291519093848101939263313ce56792600480830193928290030181865afa15801561079f573d6000803e3d6000fd5b505050506040513d601f19601f820116820180604052508101906107c39190612f57565b60ff908116825263ffffffff80861660209384015260008781526003845260408082206001600160a01b03988916808452908652818320875181548989015199850151909616600160a81b0263ffffffff60a81b1999909716600160a01b026001600160a81b03199096169a1699909917939093179590951692909217909555948552600481529084208054600181018255908552932090920180546001600160a01b031916909117905550565b60008281526001602090815260408083206001600160a01b038516845290915281205481908082036108d757506001600160a01b03831660009081527fa6eef7e35abe7026729641147f7915573c7e97b47efa546f5f6e3230263bcb4960205260409020545b915050602081901c5b9250929050565b600081815260046020908152604080832080548251818502810185019093528083526060949383018282801561094657602002820191906000526020600020905b81546001600160a01b03168152600190910190602001808311610928575b50506000808052600460209081527f17ef568e3e12ab5b9c7254a8d58478811de00f9e6eb34345acd53bf8fd09d3ec805460408051828502810185019091528181529798509296955093509091508301828280156109cd57602002820191906000526020600020905b81546001600160a01b031681526001909101906020018083116109af575b505050505090506000815183516109e49190612f90565b67ffffffffffffffff8111156109fc576109fc612fa3565b604051908082528060200260200182016040528015610a4757816020015b6040805160608101825260008082526020808301829052928201528252600019909201910181610a1a5790505b50835190915060005b8451811015610b0157600360008881526020019081526020016000206000868381518110610a8057610a80612fb9565b6020908102919091018101516001600160a01b039081168352828201939093526040918201600020825160608101845290549384168152600160a01b840460ff1691810191909152600160a81b90920463ffffffff16908201528351849083908110610aee57610aee612fb9565b6020908102919091010152600101610a50565b5060005b8351811015610c4f576000805b8651811015610b7757858381518110610b2d57610b2d612fb9565b60200260200101516001600160a01b0316878281518110610b5057610b50612fb9565b60200260200101516001600160a01b031603610b6f5760019150610b77565b600101610b12565b5080610c46576000808052600360205285517f3617319a054d772f909f7c479a2cebe5066e836a939412e32403c99029b92eff9190879085908110610bbe57610bbe612fb9565b6020908102919091018101516001600160a01b039081168352828201939093526040918201600020825160608101845290549384168152600160a01b840460ff1691810191909152600160a81b90920463ffffffff16908201528451859085908110610c2c57610c2c612fb9565b60200260200101819052508280610c4290612fcf565b9350505b50600101610b05565b508151811015610c5d578082525b50949350505050565b610c6e6114d7565b610c786000611504565b565b60008281526002602090815260408083206001600160a01b0385811685529252909120805491821691600160a01b900460ff169082610d00575050506001600160a01b0381811660009081527fac33ff75c19e70fe83507db0d683fd3465c996598dc972688b7ace676c89077b60205260409020805491821691600160a01b900460ff16905b509250929050565b604051630862026560e41b8152600481018990526001600160a01b037f000000000000000000000000000000000000000000000000000000000000eeee811660248301526000917f000000000000000000000000cd8c4da77dfb15c05486d3f71ee4c2c0dfdbc94e90911690638620265090604401602060405180830381865afa158015610d9a573d6000803e3d6000fd5b505050506040513d601f19601f82011682018060405250810190610dbe9190612f3a565b90506001600160a01b038116610de757604051630faa917b60e11b815260040160405180910390fd5b6000610df78a8a8a858888611554565b9050816001600160a01b0316639e6eec057f0000000000000000000000000000000000000000000000000000000000000001610e34576000610e36565b825b8c7f000000000000000000000000000000000000000000000000000000000000eeee858c8c8c8c8c6040518a63ffffffff1660e01b8152600401610e81989796959493929190613011565b6000604051808303818588803b158015610e9a57600080fd5b505af1158015610eae573d6000803e3d6000fd5b505050505050505050505050505050565b83158015610ed757506000546001600160a01b031633145b610f70576040516331a9108f60e11b815260048101859052610f70907f000000000000000000000000f9dada4628eb3992202cf253625d4ecebbc1592f6001600160a01b031690636352211e90602401602060405180830381865afa158015610f44573d6000803e3d6000fd5b505050506040513d601f19601f82011682018060405250810190610f689190612f3a565b85601b6112e2565b60009384526001602090815260408086206001600160a01b03959095168652938152929093209290911b640100000000600160c01b031663ffffffff91909116179055565b610fbd6114d7565b6001600160a01b038116610fec57604051631e4fbdf760e01b8152600060048201526024015b60405180910390fd5b610ff581611504565b50565b60008061100783850185613069565b91509150600080871261101a578661101c565b855b90508115611099577f0000000000000000000000007b79995e5f793a07bc00c21412e50ecae098e7f96001600160a01b031663d0e30db0826040518263ffffffff1660e01b81526004016000604051808303818588803b15801561107f57600080fd5b505af1158015611093573d6000803e3d6000fd5b50505050505b60405163a9059cbb60e01b8152336004820152602481018290526001600160a01b0384169063a9059cbb906044016020604051808303816000875af11580156110e6573d6000803e3d6000fd5b505050506040513d601f19601f8201168201806040525081019061110a9190613097565b5050505050505050565b604051630862026560e41b8152600481018a90526001600160a01b037f000000000000000000000000000000000000000000000000000000000000eeee8116602483015260009182917f000000000000000000000000cd8c4da77dfb15c05486d3f71ee4c2c0dfdbc94e1690638620265090604401602060405180830381865afa1580156111a6573d6000803e3d6000fd5b505050506040513d601f19601f820116820180604052508101906111ca9190612f3a565b90506001600160a01b0381166111f357604051630faa917b60e11b815260040160405180910390fd5b60006112038c8c8c858989611554565b9050816001600160a01b031663fef432577f0000000000000000000000000000000000000000000000000000000000000001611240576000611242565b825b8e7f000000000000000000000000000000000000000000000000000000000000eeee858e8e8e8e8e8e6040518b63ffffffff1660e01b815260040161128f999897969594939291906130b4565b60206040518083038185885af11580156112ad573d6000803e3d6000fd5b50505050506040513d601f19601f820116820180604052508101906112d29190613118565b509b9a5050505050505050505050565b336001600160a01b0384168114801590611399575060405163c161c93f60e01b81526001600160a01b038281166004830152858116602483015260448201859052606482018490527f0000000000000000000000001e2e8562b635fe19978640c784e47865a83d6605169063c161c93f90608401602060405180830381865afa158015611373573d6000803e3d6000fd5b505050506040513d601f19601f820116820180604052508101906113979190613097565b155b8015611442575060405163c161c93f60e01b81526001600160a01b038281166004830152858116602483015260006044830152606482018490527f0000000000000000000000001e2e8562b635fe19978640c784e47865a83d6605169063c161c93f90608401602060405180830381865afa15801561141c573d6000803e3d6000fd5b505050506040513d601f19601f820116820180604052508101906114409190613097565b155b156114605760405163075fd2b160e01b815260040160405180910390fd5b50505050565b60007f00000000000000000000000000000000000000000000000000000000000000016114b257507f000000000000000000000000000000000000000000000000000000000000eeee90565b507f0000000000000000000000007b79995e5f793a07bc00c21412e50ecae098e7f990565b6000546001600160a01b03163314610c785760405163118cdaa760e01b8152336004820152602401610fe3565b600080546001600160a01b038381166001600160a01b0319831681178455604051919092169283917f8be0079c531659141344cd1fd0a4f28419497f9722a3daafe3b4186f6b6457e09190a35050565b6040805160e081018252600060208201819052918101829052606081018290526080810182905260a0810182905260c081018290528781526001600160a01b03871661eeed19016115e0576001600160a01b037f0000000000000000000000007b79995e5f793a07bc00c21412e50ecae098e7f9166040820152600160608201523460808201526115f7565b6001600160a01b0387166040820152608081018690525b61160784848a84604001516116bf565b151560c08401526001600160a01b0316602083015260a082015261162c818585611828565b6080820152600061163b611466565b90508160600151801561166b57507f00000000000000000000000000000000000000000000000000000000000000015b8061168b5750806001600160a01b031682604001516001600160a01b0316145b1561169c57816080015192506116a8565b6116a5826119b2565b92505b6116b3868285611bbc565b50509695505050505050565b60008060008060006117336116f76040518060400160405280600c81526020016b071756f7465466f72537761760a41b815250611be8565b8a8a8080601f016020809104026020016040519081016040528093929190818152602001838380828437600092019190915250611bfc92505050565b91509150811561175d57808060200190518101906117519190613131565b9196509450925061181c565b60008781526002602090815260408083206001600160a01b038a81168552925290912080549182169550600160a01b90910460ff1693508461180457506001600160a01b0386811660009081527fac33ff75c19e70fe83507db0d683fd3465c996598dc972688b7ace676c89077b6020526040902080549182169550600160a01b90910460ff1693508461180457604051632a12044160e21b815260040160405180910390fd5b61180f858986611da1565b6001600160a01b03169550505b50509450945094915050565b60408301516060840151600091901561184457349150506119ab565b341561186357604051635e7e9adf60e11b815260040160405180910390fd5b6000806118cd611891604051806040016040528060078152602001663832b936b4ba1960c91b815250611be8565b87878080601f016020809104026020016040519081016040528093929190818152602001838380828437600092019190915250611bfc92505050565b91509150811561192d576000818060200190518101906118ed9190613202565b9050876080015181602001516001600160a01b03161015611921576040516317e415a160e11b815260040160405180910390fd5b61192b8185611e28565b505b61193d3330858a60800151611f27565b6040516370a0823160e01b81523060048201526001600160a01b038416906370a0823190602401602060405180830381865afa158015611981573d6000803e3d6000fd5b505050506040513d601f19601f820116820180604052508101906119a59190613118565b93505050505b9392505050565b6040810151600090816119c3611466565b6001600160a01b0316826001600160a01b031610905060008085602001516001600160a01b031663128acb083085896080015187611a1f57611a1a600173fffd8963efd1fc6a506488495d951d5263988d26613302565b611a2f565b611a2f6401000276a36001613329565b60608c810151604080516001600160a01b038e16602082015291151590820152016040516020818303038152906040526040518663ffffffff1660e01b8152600401611a7f959493929190613375565b60408051808303816000875af1158015611a9d573d6000803e3d6000fd5b505050506040513d601f19601f82011682018060405250810190611ac191906133bb565b9150915082611ad05781611ad2565b805b611adb906133df565b94508560a00151851015611b125760a0860151604051630bb50c5d60e41b8152610fe3918791600401918252602082015260400190565b7f000000000000000000000000000000000000000000000000000000000000000115611bb357604051632e1a7d4d60e01b8152600481018690527f0000000000000000000000007b79995e5f793a07bc00c21412e50ecae098e7f96001600160a01b031690632e1a7d4d90602401600060405180830381600087803b158015611b9a57600080fd5b505af1158015611bae573d6000803e3d6000fd5b505050505b50505050919050565b61eeed196001600160a01b03831601611bd457505050565b6104956001600160a01b038316848361209c565b805160208201206000903060601b18610629565b600060606025835111611c2157505060408051602081019091526000808252906108e0565b600083611c3060046020612f90565b81518110611c4057611c40612fb9565b0160209081015160f81c91505b600085611c5b600484612f90565b81518110611c6b57611c6b612fb9565b01602001516001600160f81b03191614801590611c915750611c8e6020836133fb565b81105b15611d9857600085611ca4600484612f90565b81518110611cb457611cb4612fb9565b016020908101518784019091015160f89190911c91506001600160e01b031980891690821603611d8e576000611ceb6020866133fb565b611cf6600986612f90565b101580611d2b575087611d0a600986612f90565b81518110611d1a57611d1a612fb9565b01602001516001600160f81b031916155b611d6457602088611d3d600987612f90565b81518110611d4d57611d4d612fb9565b0160200151611d5f919060f81c6133fb565b611d67565b87515b90506001611d8089611d7a6020876133fb565b84612126565b9650965050505050506108e0565b5050600501611c4d565b50509250929050565b6000806000611db08587610871565b915091506000611dc0878461216c565b5090506000611dce826123b6565b905085611dfb57612710611de28483613412565b611dec919061345a565b611df69082613329565b611e1c565b612710611e088483613412565b611e12919061345a565b611e1c9082613302565b98975050505050505050565b7f000000000000000000000000000000000022d473030f116ddee9f6b43ac78ba36001600160a01b0316632b67b5703360405180606001604052806040518060800160405280876001600160a01b0316815260200188602001516001600160a01b03168152602001886040015165ffffffffffff168152602001886060015165ffffffffffff168152508152602001306001600160a01b03168152602001866000015181525085608001516040518463ffffffff1660e01b8152600401611ef193929190613480565b600060405180830381600087803b158015611f0b57600080fd5b505af1158015611f1f573d6000803e3d6000fd5b505050505050565b306001600160a01b03851603611f80577f000000000000000000000000000000000000000000000000000000000000000115611f6c57611f6783826126d9565b611460565b611f676001600160a01b0383168483612770565b604051636eb1769f60e11b81526001600160a01b03858116600483015230602483015282919084169063dd62ed3e90604401602060405180830381865afa158015611fcf573d6000803e3d6000fd5b505050506040513d601f19601f82011682018060405250810190611ff39190613118565b1061200d57611f676001600160a01b0383168585846127cf565b604051631b63c28b60e11b81526001600160a01b0385811660048301528481166024830152828116604483015283811660648301527f000000000000000000000000000000000022d473030f116ddee9f6b43ac78ba316906336c7851690608401600060405180830381600087803b15801561208857600080fd5b505af115801561110a573d6000803e3d6000fd5b604051636eb1769f60e11b81523060048201526001600160a01b0383811660248301526000919085169063dd62ed3e90604401602060405180830381865afa1580156120ec573d6000803e3d6000fd5b505050506040513d601f19601f820116820180604052508101906121109190613118565b905061146084846121218585612f90565b612808565b60608282036040519150602081830101604052808252508260208501016020820160005b8481101561216257828101518282015260200161214a565b5050509392505050565b6000808263ffffffff166000036121aa5760405162461bcd60e51b8152602060048201526002602482015261042560f41b6044820152606401610fe3565b60408051600280825260608201835260009260208301908036833701905050905083816000815181106121df576121df612fb9565b602002602001019063ffffffff16908163ffffffff168152505060008160018151811061220e5761220e612fb9565b602002602001019063ffffffff16908163ffffffff1681525050600080866001600160a01b031663883bdbfd846040518263ffffffff1660e01b815260040161225791906134f4565b600060405180830381865afa158015612274573d6000803e3d6000fd5b505050506040513d6000823e601f3d908101601f1916820160405261229c91908101906135ce565b915091506000826000815181106122b5576122b5612fb9565b6020026020010151836001815181106122d0576122d0612fb9565b60200260200101516122e2919061369a565b90506000826000815181106122f9576122f9612fb9565b60200260200101518360018151811061231457612314612fb9565b60200260200101516123269190613302565b905061233863ffffffff8916836136c7565b965060008260060b12801561235e575061235863ffffffff891683613705565b60060b15155b15612371578661236d81613727565b9750505b600061238a6001600160a01b0363ffffffff8b1661374a565b90506123a7640100000000600160c01b03602084901b1682613773565b96505050505050509250929050565b60008060008360020b126123cd578260020b6123d5565b8260020b6000035b9050620d89e88111156123fb576040516315e4079d60e11b815260040160405180910390fd5b60008160011660000361241257600160801b612424565b6ffffcb933bd6fad37aa2d162d1a5940015b70ffffffffffffffffffffffffffffffffff1690506002821615612458576ffff97272373d413259a46990580e213a0260801c5b6004821615612477576ffff2e50f5f656932ef12357cf3c7fdcc0260801c5b6008821615612496576fffe5caca7e10e4e61c3624eaa0941cd00260801c5b60108216156124b5576fffcb9843d60f6159c9db58835c9266440260801c5b60208216156124d4576fff973b41fa98c081472e6896dfb254c00260801c5b60408216156124f3576fff2ea16466c96a3843ec78b326b528610260801c5b6080821615612512576ffe5dee046a99a2a811c461f1969c30530260801c5b610100821615612532576ffcbe86c7900a88aedcffc83b479aa3a40260801c5b610200821615612552576ff987a7253ac413176f2b074cf7815e540260801c5b610400821615612572576ff3392b0822b70005940c7a398e4b70f30260801c5b610800821615612592576fe7159475a2c29b7443b29c7fa6e889d90260801c5b6110008216156125b2576fd097f3bdfd2022b8845ad8f792aa58250260801c5b6120008216156125d2576fa9f746462d870fdf8a65dc1f90e061e50260801c5b6140008216156125f2576f70d869a156d2a1b890bb3df62baf32f70260801c5b618000821615612612576f31be135f97d08fd981231505542fcfa60260801c5b62010000821615612633576f09aa508b5b7a84e1c677de54f3e99bc90260801c5b62020000821615612653576e5d6af8dedb81196699c329225ee6040260801c5b62040000821615612672576d2216e584f5fa1ea926041bedfe980260801c5b6208000082161561268f576b048a170391f7dc42444e8fa20260801c5b60008460020b13156126b05780600019816126ac576126ac613444565b0490505b6401000000008106156126c45760016126c7565b60005b60ff16602082901c0192505050919050565b804710156126fc5760405163cd78605960e01b8152306004820152602401610fe3565b6000826001600160a01b03168260405160006040518083038185875af1925050503d8060008114612749576040519150601f19603f3d011682016040523d82523d6000602084013e61274e565b606091505b505090508061049557604051630a12f52160e11b815260040160405180910390fd5b6040516001600160a01b0383811660248301526044820183905261049591859182169063a9059cbb906064015b604051602081830303815290604052915060e01b6020820180516001600160e01b038381831617835250505050612894565b6040516001600160a01b0384811660248301528381166044830152606482018390526114609186918216906323b872dd9060840161279d565b604080516001600160a01b038416602482015260448082018490528251808303909101815260649091019091526020810180516001600160e01b031663095ea7b360e01b17905261285984826128f7565b611460576040516001600160a01b0384811660248301526000604483015261288e91869182169063095ea7b39060640161279d565b61146084825b60006128a96001600160a01b0384168361299f565b905080516000141580156128ce5750808060200190518101906128cc9190613097565b155b1561049557604051635274afe760e01b81526001600160a01b0384166004820152602401610fe3565b6000806000846001600160a01b031684604051612914919061378d565b6000604051808303816000865af19150503d8060008114612951576040519150601f19603f3d011682016040523d82523d6000602084013e612956565b606091505b50915091508180156129805750805115806129805750808060200190518101906129809190613097565b801561299657506000856001600160a01b03163b115b95945050505050565b60606119ab8383600084600080856001600160a01b031684866040516129c5919061378d565b60006040518083038185875af1925050503d8060008114612a02576040519150601f19603f3d011682016040523d82523d6000602084013e612a07565b606091505b5091509150612a17868383612a21565b9695505050505050565b606082612a3657612a3182612a7d565b6119ab565b8151158015612a4d57506001600160a01b0384163b155b15612a7657604051639996b31560e01b81526001600160a01b0385166004820152602401610fe3565b50806119ab565b805115612a8d5780518082602001fd5b604051630a12f52160e11b815260040160405180910390fd5b600060208284031215612ab857600080fd5b81356001600160e01b0319811681146119ab57600080fd5b6001600160a01b0381168114610ff557600080fd5b600080600060608486031215612afa57600080fd5b833592506020840135612b0c81612ad0565b91506040840135612b1c81612ad0565b809150509250925092565b60008060408385031215612b3a57600080fd5b823591506020830135612b4c81612ad0565b809150509250929050565b81516001600160a01b0316815260208083015160ff169082015260408083015163ffffffff169082015260608101610629565b600060208284031215612b9c57600080fd5b5035919050565b6020808252825182820181905260009190848201906040850190845b81811015612c0b57612bf883855180516001600160a01b0316825260208082015160ff169083015260409081015163ffffffff16910152565b9284019260609290920191600101612bbf565b50909695505050505050565b600080600060408486031215612c2c57600080fd5b83359250602084013567ffffffffffffffff80821115612c4b57600080fd5b818601915086601f830112612c5f57600080fd5b813581811115612c6e57600080fd5b8760208260051b8501011115612c8357600080fd5b6020830194508093505050509250925092565b8015158114610ff557600080fd5b60008083601f840112612cb657600080fd5b50813567ffffffffffffffff811115612cce57600080fd5b6020830191508360208285010111156108e057600080fd5b60008060008060008060008060c0898b031215612d0257600080fd5b883597506020890135612d1481612ad0565b9650604089013595506060890135612d2b81612c96565b9450608089013567ffffffffffffffff80821115612d4857600080fd5b612d548c838d01612ca4565b909650945060a08b0135915080821115612d6d57600080fd5b50612d7a8b828c01612ca4565b999c989b5096995094979396929594505050565b60008060008060808587031215612da457600080fd5b843593506020850135612db681612ad0565b9250604085013563ffffffff81168114612dcf57600080fd5b91506060850135612ddf81612ad0565b939692955090935050565b600080600060608486031215612dff57600080fd5b505081359360208301359350604090920135919050565b600060208284031215612e2857600080fd5b81356119ab81612ad0565b60008060008060608587031215612e4957600080fd5b8435935060208501359250604085013567ffffffffffffffff811115612e6e57600080fd5b612e7a87828801612ca4565b95989497509550505050565b600080600080600080600080600060e08a8c031215612ea457600080fd5b8935985060208a0135612eb681612ad0565b975060408a0135965060608a0135612ecd81612ad0565b955060808a0135945060a08a013567ffffffffffffffff80821115612ef157600080fd5b612efd8d838e01612ca4565b909650945060c08c0135915080821115612f1657600080fd5b50612f238c828d01612ca4565b915080935050809150509295985092959850929598565b600060208284031215612f4c57600080fd5b81516119ab81612ad0565b600060208284031215612f6957600080fd5b815160ff811681146119ab57600080fd5b634e487b7160e01b600052601160045260246000fd5b8082018082111561062957610629612f7a565b634e487b7160e01b600052604160045260246000fd5b634e487b7160e01b600052603260045260246000fd5b600060018201612fe157612fe1612f7a565b5060010190565b81835281816020850137506000828201602090810191909152601f909101601f19169091010190565b88815260018060a01b0388166020820152866040820152851515606082015260c06080820152600061304760c083018688612fe8565b82810360a084015261305a818587612fe8565b9b9a5050505050505050505050565b6000806040838503121561307c57600080fd5b823561308781612ad0565b91506020830135612b4c81612c96565b6000602082840312156130a957600080fd5b81516119ab81612c96565b8981526001600160a01b03898116602083015260408201899052871660608201526080810186905260e060a082018190526000906130f59083018688612fe8565b82810360c0840152613108818587612fe8565b9c9b505050505050505050505050565b60006020828403121561312a57600080fd5b5051919050565b60008060006060848603121561314657600080fd5b83519250602084015161315881612ad0565b6040850151909250612b1c81612c96565b60405160a0810167ffffffffffffffff8111828210171561318c5761318c612fa3565b60405290565b604051601f8201601f1916810167ffffffffffffffff811182821017156131bb576131bb612fa3565b604052919050565b805165ffffffffffff811681146131d957600080fd5b919050565b60005b838110156131f95781810151838201526020016131e1565b50506000910152565b6000602080838503121561321557600080fd5b825167ffffffffffffffff8082111561322d57600080fd5b9084019060a0828703121561324157600080fd5b613249613169565b825181528383015161325a81612ad0565b8185015261326a604084016131c3565b604082015261327b606084016131c3565b606082015260808301518281111561329257600080fd5b80840193505086601f8401126132a757600080fd5b8251828111156132b9576132b9612fa3565b6132cb601f8201601f19168601613192565b925080835287858286010111156132e157600080fd5b6132f0818685018787016131de565b50608081019190915295945050505050565b6001600160a01b0382811682821603908082111561332257613322612f7a565b5092915050565b6001600160a01b0381811683821601908082111561332257613322612f7a565b600081518084526133618160208601602086016131de565b601f01601f19169290920160200192915050565b6001600160a01b0386811682528515156020830152604082018590528316606082015260a0608082018190526000906133b090830184613349565b979650505050505050565b600080604083850312156133ce57600080fd5b505080516020909101519092909150565b6000600160ff1b82016133f4576133f4612f7a565b5060000390565b808202811582820484141761062957610629612f7a565b6001600160a01b0382811682821681810283169291811582850482141761343b5761343b612f7a565b50505092915050565b634e487b7160e01b600052601260045260246000fd5b60006001600160a01b038381168061347457613474613444565b92169190910492915050565b600061010060018060a01b0380871684528551818151166020860152816020820151166040860152604081015165ffffffffffff80821660608801528060608401511660808801525050508060208701511660a085015250604085015160c08401528060e0840152612a1781840185613349565b6020808252825182820181905260009190848201906040850190845b81811015612c0b57835163ffffffff1683529284019291840191600101613510565b600067ffffffffffffffff82111561354c5761354c612fa3565b5060051b60200190565b600082601f83011261356757600080fd5b8151602061357c61357783613532565b613192565b8083825260208201915060208460051b87010193508684111561359e57600080fd5b602086015b848110156135c35780516135b681612ad0565b83529183019183016135a3565b509695505050505050565b600080604083850312156135e157600080fd5b825167ffffffffffffffff808211156135f957600080fd5b818501915085601f83011261360d57600080fd5b8151602061361d61357783613532565b82815260059290921b8401810191818101908984111561363c57600080fd5b948201945b8386101561366a5785518060060b811461365b5760008081fd5b82529482019490820190613641565b9188015191965090935050508082111561368357600080fd5b5061369085828601613556565b9150509250929050565b600682810b9082900b03667fffffffffffff198112667fffffffffffff8213171561062957610629612f7a565b60008160060b8360060b806136de576136de613444565b667fffffffffffff198214600019821416156136fc576136fc612f7a565b90059392505050565b60008260060b8061371857613718613444565b808360060b0791505092915050565b60008160020b627fffff19810361374057613740612f7a565b6000190192915050565b6001600160c01b0382811682821681810283169291811582850482141761343b5761343b612f7a565b60006001600160c01b038381168061347457613474613444565b6000825161379f8184602087016131de565b919091019291505056fea2646970667358221220cde7780512ac315a14f21ddf30ae6cc94c51b717223134b198479b34e5f74c1164736f6c63430008170033",
			"devdoc": {
				"kind": "dev",
				"methods": {
					"accountingContextForTokenOf(uint256,address)": {
						"details": "Accounting contexts are set up in `addDefaultPool(...)`.",
						"params": {
							"projectId": "The ID of the project to get the accounting context for.",
							"token": "The address of the token to get the accounting context for."
						},
						"returns": {
							"_0": "A `JBAccountingContext` containing the accounting context for the project ID and token."
						}
					},
					"accountingContextsOf(uint256)": {
						"details": "This includes both project-specific and generic accounting contexts, with the project-specific contexts         taking precedence.",
						"params": {
							"projectId": "The ID of the project to get the accounting contexts for."
						},
						"returns": {
							"_0": "An array of `JBAccountingContext` containing the accounting contexts for the project ID."
						}
					},
					"addDefaultPool(uint256,address,address)": {
						"params": {
							"pool": "The Uniswap V3 pool to set as the default for the specified token.",
							"projectId": "The ID of the project to set the default pool for. The project 0 acts as a catch-all, where non-set pools are defaulted to.",
							"token": "The address of the token to set the default pool for."
						}
					},
					"addToBalanceOf(uint256,address,uint256,bool,string,bytes)": {
						"details": "This function handles the token in transfer, potentially swaps the tokens to the desired output token, and then adds the swapped tokens to the project's balance in the specified terminal.",
						"params": {
							"amount": "The amount of tokens being paid in.",
							"memo": "A memo to pass along to the emitted event.",
							"metadata": "Bytes in `JBMetadataResolver`'s format which can contain additional data for the swap and adding to balance.",
							"projectId": "The ID of the project for which funds are being accepted and added to its balance.",
							"shouldReturnHeldFees": "A boolean to indicate whether held fees should be returned.",
							"token": "The address of the token being paid in."
						}
					},
					"addTwapParamsFor(uint256,address,uint32,uint160)": {
						"params": {
							"projectId": "The ID of the project to set the TWAP-based quote rules for.",
							"secondsAgo": "The period of time over which the TWAP is calculated, in seconds.",
							"slippageTolerance": "The maximum spread allowed between the amount received and the TWAP (as a fraction out of `SLIPPAGE_DENOMINATOR`)."
						}
					},
					"getPoolFor(uint256,address)": {
						"params": {
							"projectId": "The ID of the project to retrieve the default pool for.",
							"tokenIn": "The address of the token to retrieve the default pool for."
						},
						"returns": {
							"pool": "The default pool for the token, or the overall default pool for the token if the"
						}
					},
					"owner()": {
						"details": "Returns the address of the current owner."
					},
					"pay(uint256,address,uint256,address,uint256,string,bytes)": {
						"params": {
							"amount": "The amount of tokens being paid in, as a fixed point number with the same amount of decimals as the `token`. If `token` is the native token, `amount` is ignored and `msg.value` is used in its place.",
							"beneficiary": "The beneficiary address to pass along to the other terminal. If the other terminal mints tokens, for example, they will be minted for this address.",
							"memo": "A memo to pass along to the emitted event.",
							"metadata": "Bytes in `JBMetadataResolver`'s format which can contain a quote from the user/client. The quote should contain a minimum amount of tokens to receive from the swap and the pool to use. This metadata is also passed to the other terminal's emitted event, as well as its data hook and pay hook if applicable.",
							"minReturnedTokens": "The minimum number of project tokens expected in return, as a fixed point number with the same number of decimals as the other terminal. This value will be passed along to the other terminal.",
							"projectId": "The ID of the project being paid.",
							"token": "The address of the token being paid in."
						},
						"returns": {
							"_0": "The number of tokens received from the swap, as a fixed point number with the same amount of decimals as that token."
						}
					},
					"renounceOwnership()": {
						"details": "Leaves the contract without owner. It will not be possible to call `onlyOwner` functions. Can only be called by the current owner. NOTE: Renouncing ownership will leave the contract without an owner, thereby disabling any functionality that is only available to the owner."
					},
					"supportsInterface(bytes4)": {
						"details": "See {IERC165-supportsInterface}.",
						"params": {
							"interfaceId": "The ID of the interface to check for adherance to."
						},
						"returns": {
							"_0": "A flag indicating if the provided interface ID is supported."
						}
					},
					"transferOwnership(address)": {
						"details": "Transfers ownership of the contract to a new account (`newOwner`). Can only be called by the current owner."
					},
					"twapParamsOf(uint256,address)": {
						"params": {
							"projectId": "The ID of the project to retrieve TWAP parameters for."
						},
						"returns": {
							"secondsAgo": "The period of time in the past to calculate the TWAP from.",
							"slippageTolerance": "The maximum allowed slippage tolerance when calculating the TWAP, as a fraction out of `SLIPPAGE_DENOMINATOR`."
						}
					},
					"uniswapV3SwapCallback(int256,int256,bytes)": {
						"details": "This function has no access control, care should be taken to ensure that:      - terminal balance is always be 0 between tx (this callback can only be used to sweep accidental leftovers)      - callback cannot pull user funds via a preexisting allowance",
						"params": {
							"amount0Delta": "The amount of token 0 being used for the swap.",
							"amount1Delta": "The amount of token 1 being used for the swap.",
							"data": "Data passed in by the swap operation."
						}
					}
				},
				"version": 1
			},
			"userdoc": {
				"kind": "user",
				"methods": {
					"DEFAULT_PROJECT_ID()": {
						"notice": "The ID to store default values in."
					},
					"DIRECTORY()": {
						"notice": "The directory of terminals and controllers for `PROJECTS`."
					},
					"PERMISSIONS()": {
						"notice": "A contract storing permissions."
					},
					"PERMIT2()": {
						"notice": "The permit2 utility."
					},
					"PROJECTS()": {
						"notice": "Mints ERC-721s that represent project ownership and transfers."
					},
					"SLIPPAGE_DENOMINATOR()": {
						"notice": "The denominator used when calculating TWAP slippage tolerance values."
					},
					"TOKEN_OUT()": {
						"notice": "The token which flows out of this terminal (JBConstants.NATIVE_TOKEN for the chain native token)"
					},
					"WETH()": {
						"notice": "The ERC-20 wrapper for the native token."
					},
					"accountingContextForTokenOf(uint256,address)": {
						"notice": "Get the accounting context for the specified project ID and token."
					},
					"accountingContextsOf(uint256)": {
						"notice": "Return all the accounting contexts for a specified project ID."
					},
					"addAccountingContextsFor(uint256,address[])": {
						"notice": "Empty implementation to satisfy the interface. Accounting contexts are set in `addDefaultPool(...)`."
					},
					"addDefaultPool(uint256,address,address)": {
						"notice": "Set a project's default pool and accounting context for the specified token. Only the project's owner, an address with `MODIFY_DEFAULT_POOL` permission from the owner or the terminal owner can call this function."
					},
					"addToBalanceOf(uint256,address,uint256,bool,string,bytes)": {
						"notice": "Accepts funds for a given project, swaps them if necessary, and adds them to the project's balance in the specified terminal."
					},
					"addTwapParamsFor(uint256,address,uint32,uint160)": {
						"notice": "Set the specified project's rules for calculating a quote based on the TWAP. Only the project's owner or an address with `MODIFY_TWAP_PARAMS` permission from the owner  or the terminal owner can call this function."
					},
					"currentSurplusOf(uint256,uint256,uint256)": {
						"notice": "Empty implementation to satisfy the interface. This terminal has no surplus."
					},
					"getPoolFor(uint256,address)": {
						"notice": "Returns the default pool for a given project and token or, if a project has no default pool for the         token, the overal default pool for the token"
					},
					"migrateBalanceOf(uint256,address,address)": {
						"notice": "Empty implementation to satisfy the interface."
					},
					"pay(uint256,address,uint256,address,uint256,string,bytes)": {
						"notice": "Pay a project by swapping the incoming tokens for tokens that one of the project's other terminals accepts, passing along the funds received from the swap and the specified parameters."
					},
					"supportsInterface(bytes4)": {
						"notice": "Indicates if this contract adheres to the specified interface."
					},
					"twapParamsOf(uint256,address)": {
						"notice": "Returns the default twap parameters for a given pool project."
					},
					"uniswapV3SwapCallback(int256,int256,bytes)": {
						"notice": "The Uniswap v3 pool callback where the token transfer is expected to happen."
					}
				},
				"version": 1
			},
			"gitCommit": "ad8ccfee7f44648f471bdcbbeba01d0504acebff",
			"sourceName": "src/JBSwapTerminal.sol",
			"chainId": "11155111",
			"linkReferences": {},
			"deployedLinkReferences": {}
		},
		{
			"_format": "sphinx-sol-ct-artifact-1",
			"merkleRoot": "0x0088a4ca83aae80667b5564428800096aa89fcf330870611a44bf7465d255c77",
			"contractName": "JBSwapTerminal",
			"address": "0xAFE6b3AFd48CD2009e897c8aC64f19F2Ede7D702",
			"abi": [
				{
					"type": "constructor",
					"inputs": [
						{
							"name": "projects",
							"type": "address",
							"internalType": "contract IJBProjects"
						},
						{
							"name": "permissions",
							"type": "address",
							"internalType": "contract IJBPermissions"
						},
						{
							"name": "directory",
							"type": "address",
							"internalType": "contract IJBDirectory"
						},
						{
							"name": "permit2",
							"type": "address",
							"internalType": "contract IPermit2"
						},
						{
							"name": "owner",
							"type": "address",
							"internalType": "address"
						},
						{
							"name": "weth",
							"type": "address",
							"internalType": "contract IWETH9"
						},
						{
							"name": "tokenOut",
							"type": "address",
							"internalType": "address"
						}
					],
					"stateMutability": "nonpayable"
				},
				{
					"type": "receive",
					"stateMutability": "payable"
				},
				{
					"type": "function",
					"name": "DEFAULT_PROJECT_ID",
					"inputs": [],
					"outputs": [
						{
							"name": "",
							"type": "uint256",
							"internalType": "uint256"
						}
					],
					"stateMutability": "view"
				},
				{
					"type": "function",
					"name": "DIRECTORY",
					"inputs": [],
					"outputs": [
						{
							"name": "",
							"type": "address",
							"internalType": "contract IJBDirectory"
						}
					],
					"stateMutability": "view"
				},
				{
					"type": "function",
					"name": "PERMISSIONS",
					"inputs": [],
					"outputs": [
						{
							"name": "",
							"type": "address",
							"internalType": "contract IJBPermissions"
						}
					],
					"stateMutability": "view"
				},
				{
					"type": "function",
					"name": "PERMIT2",
					"inputs": [],
					"outputs": [
						{
							"name": "",
							"type": "address",
							"internalType": "contract IPermit2"
						}
					],
					"stateMutability": "view"
				},
				{
					"type": "function",
					"name": "PROJECTS",
					"inputs": [],
					"outputs": [
						{
							"name": "",
							"type": "address",
							"internalType": "contract IJBProjects"
						}
					],
					"stateMutability": "view"
				},
				{
					"type": "function",
					"name": "SLIPPAGE_DENOMINATOR",
					"inputs": [],
					"outputs": [
						{
							"name": "",
							"type": "uint160",
							"internalType": "uint160"
						}
					],
					"stateMutability": "view"
				},
				{
					"type": "function",
					"name": "TOKEN_OUT",
					"inputs": [],
					"outputs": [
						{
							"name": "",
							"type": "address",
							"internalType": "address"
						}
					],
					"stateMutability": "view"
				},
				{
					"type": "function",
					"name": "WETH",
					"inputs": [],
					"outputs": [
						{
							"name": "",
							"type": "address",
							"internalType": "contract IWETH9"
						}
					],
					"stateMutability": "view"
				},
				{
					"type": "function",
					"name": "accountingContextForTokenOf",
					"inputs": [
						{
							"name": "projectId",
							"type": "uint256",
							"internalType": "uint256"
						},
						{
							"name": "token",
							"type": "address",
							"internalType": "address"
						}
					],
					"outputs": [
						{
							"name": "",
							"type": "tuple",
							"internalType": "struct JBAccountingContext",
							"components": [
								{
									"name": "token",
									"type": "address",
									"internalType": "address"
								},
								{
									"name": "decimals",
									"type": "uint8",
									"internalType": "uint8"
								},
								{
									"name": "currency",
									"type": "uint32",
									"internalType": "uint32"
								}
							]
						}
					],
					"stateMutability": "view"
				},
				{
					"type": "function",
					"name": "accountingContextsOf",
					"inputs": [
						{
							"name": "projectId",
							"type": "uint256",
							"internalType": "uint256"
						}
					],
					"outputs": [
						{
							"name": "",
							"type": "tuple[]",
							"internalType": "struct JBAccountingContext[]",
							"components": [
								{
									"name": "token",
									"type": "address",
									"internalType": "address"
								},
								{
									"name": "decimals",
									"type": "uint8",
									"internalType": "uint8"
								},
								{
									"name": "currency",
									"type": "uint32",
									"internalType": "uint32"
								}
							]
						}
					],
					"stateMutability": "view"
				},
				{
					"type": "function",
					"name": "addAccountingContextsFor",
					"inputs": [
						{
							"name": "projectId",
							"type": "uint256",
							"internalType": "uint256"
						},
						{
							"name": "tokens",
							"type": "address[]",
							"internalType": "address[]"
						}
					],
					"outputs": [],
					"stateMutability": "nonpayable"
				},
				{
					"type": "function",
					"name": "addDefaultPool",
					"inputs": [
						{
							"name": "projectId",
							"type": "uint256",
							"internalType": "uint256"
						},
						{
							"name": "token",
							"type": "address",
							"internalType": "address"
						},
						{
							"name": "pool",
							"type": "address",
							"internalType": "contract IUniswapV3Pool"
						}
					],
					"outputs": [],
					"stateMutability": "nonpayable"
				},
				{
					"type": "function",
					"name": "addToBalanceOf",
					"inputs": [
						{
							"name": "projectId",
							"type": "uint256",
							"internalType": "uint256"
						},
						{
							"name": "token",
							"type": "address",
							"internalType": "address"
						},
						{
							"name": "amount",
							"type": "uint256",
							"internalType": "uint256"
						},
						{
							"name": "shouldReturnHeldFees",
							"type": "bool",
							"internalType": "bool"
						},
						{
							"name": "memo",
							"type": "string",
							"internalType": "string"
						},
						{
							"name": "metadata",
							"type": "bytes",
							"internalType": "bytes"
						}
					],
					"outputs": [],
					"stateMutability": "payable"
				},
				{
					"type": "function",
					"name": "addTwapParamsFor",
					"inputs": [
						{
							"name": "projectId",
							"type": "uint256",
							"internalType": "uint256"
						},
						{
							"name": "pool",
							"type": "address",
							"internalType": "contract IUniswapV3Pool"
						},
						{
							"name": "secondsAgo",
							"type": "uint32",
							"internalType": "uint32"
						},
						{
							"name": "slippageTolerance",
							"type": "uint160",
							"internalType": "uint160"
						}
					],
					"outputs": [],
					"stateMutability": "nonpayable"
				},
				{
					"type": "function",
					"name": "currentSurplusOf",
					"inputs": [
						{
							"name": "projectId",
							"type": "uint256",
							"internalType": "uint256"
						},
						{
							"name": "decimals",
							"type": "uint256",
							"internalType": "uint256"
						},
						{
							"name": "currency",
							"type": "uint256",
							"internalType": "uint256"
						}
					],
					"outputs": [
						{
							"name": "",
							"type": "uint256",
							"internalType": "uint256"
						}
					],
					"stateMutability": "view"
				},
				{
					"type": "function",
					"name": "getPoolFor",
					"inputs": [
						{
							"name": "projectId",
							"type": "uint256",
							"internalType": "uint256"
						},
						{
							"name": "tokenIn",
							"type": "address",
							"internalType": "address"
						}
					],
					"outputs": [
						{
							"name": "pool",
							"type": "address",
							"internalType": "contract IUniswapV3Pool"
						},
						{
							"name": "zeroForOne",
							"type": "bool",
							"internalType": "bool"
						}
					],
					"stateMutability": "view"
				},
				{
					"type": "function",
					"name": "migrateBalanceOf",
					"inputs": [
						{
							"name": "projectId",
							"type": "uint256",
							"internalType": "uint256"
						},
						{
							"name": "token",
							"type": "address",
							"internalType": "address"
						},
						{
							"name": "to",
							"type": "address",
							"internalType": "contract IJBTerminal"
						}
					],
					"outputs": [
						{
							"name": "balance",
							"type": "uint256",
							"internalType": "uint256"
						}
					],
					"stateMutability": "nonpayable"
				},
				{
					"type": "function",
					"name": "owner",
					"inputs": [],
					"outputs": [
						{
							"name": "",
							"type": "address",
							"internalType": "address"
						}
					],
					"stateMutability": "view"
				},
				{
					"type": "function",
					"name": "pay",
					"inputs": [
						{
							"name": "projectId",
							"type": "uint256",
							"internalType": "uint256"
						},
						{
							"name": "token",
							"type": "address",
							"internalType": "address"
						},
						{
							"name": "amount",
							"type": "uint256",
							"internalType": "uint256"
						},
						{
							"name": "beneficiary",
							"type": "address",
							"internalType": "address"
						},
						{
							"name": "minReturnedTokens",
							"type": "uint256",
							"internalType": "uint256"
						},
						{
							"name": "memo",
							"type": "string",
							"internalType": "string"
						},
						{
							"name": "metadata",
							"type": "bytes",
							"internalType": "bytes"
						}
					],
					"outputs": [
						{
							"name": "",
							"type": "uint256",
							"internalType": "uint256"
						}
					],
					"stateMutability": "payable"
				},
				{
					"type": "function",
					"name": "renounceOwnership",
					"inputs": [],
					"outputs": [],
					"stateMutability": "nonpayable"
				},
				{
					"type": "function",
					"name": "supportsInterface",
					"inputs": [
						{
							"name": "interfaceId",
							"type": "bytes4",
							"internalType": "bytes4"
						}
					],
					"outputs": [
						{
							"name": "",
							"type": "bool",
							"internalType": "bool"
						}
					],
					"stateMutability": "view"
				},
				{
					"type": "function",
					"name": "transferOwnership",
					"inputs": [
						{
							"name": "newOwner",
							"type": "address",
							"internalType": "address"
						}
					],
					"outputs": [],
					"stateMutability": "nonpayable"
				},
				{
					"type": "function",
					"name": "twapParamsOf",
					"inputs": [
						{
							"name": "projectId",
							"type": "uint256",
							"internalType": "uint256"
						},
						{
							"name": "pool",
							"type": "address",
							"internalType": "contract IUniswapV3Pool"
						}
					],
					"outputs": [
						{
							"name": "secondsAgo",
							"type": "uint32",
							"internalType": "uint32"
						},
						{
							"name": "slippageTolerance",
							"type": "uint160",
							"internalType": "uint160"
						}
					],
					"stateMutability": "view"
				},
				{
					"type": "function",
					"name": "uniswapV3SwapCallback",
					"inputs": [
						{
							"name": "amount0Delta",
							"type": "int256",
							"internalType": "int256"
						},
						{
							"name": "amount1Delta",
							"type": "int256",
							"internalType": "int256"
						},
						{
							"name": "data",
							"type": "bytes",
							"internalType": "bytes"
						}
					],
					"outputs": [],
					"stateMutability": "nonpayable"
				},
				{
					"type": "event",
					"name": "AddToBalance",
					"inputs": [
						{
							"name": "projectId",
							"type": "uint256",
							"indexed": true,
							"internalType": "uint256"
						},
						{
							"name": "amount",
							"type": "uint256",
							"indexed": false,
							"internalType": "uint256"
						},
						{
							"name": "unlockedFees",
							"type": "uint256",
							"indexed": false,
							"internalType": "uint256"
						},
						{
							"name": "memo",
							"type": "string",
							"indexed": false,
							"internalType": "string"
						},
						{
							"name": "metadata",
							"type": "bytes",
							"indexed": false,
							"internalType": "bytes"
						},
						{
							"name": "caller",
							"type": "address",
							"indexed": false,
							"internalType": "address"
						}
					],
					"anonymous": false
				},
				{
					"type": "event",
					"name": "HookAfterRecordPay",
					"inputs": [
						{
							"name": "hook",
							"type": "address",
							"indexed": true,
							"internalType": "contract IJBPayHook"
						},
						{
							"name": "context",
							"type": "tuple",
							"indexed": false,
							"internalType": "struct JBAfterPayRecordedContext",
							"components": [
								{
									"name": "payer",
									"type": "address",
									"internalType": "address"
								},
								{
									"name": "projectId",
									"type": "uint256",
									"internalType": "uint256"
								},
								{
									"name": "rulesetId",
									"type": "uint256",
									"internalType": "uint256"
								},
								{
									"name": "amount",
									"type": "tuple",
									"internalType": "struct JBTokenAmount",
									"components": [
										{
											"name": "token",
											"type": "address",
											"internalType": "address"
										},
										{
											"name": "value",
											"type": "uint256",
											"internalType": "uint256"
										},
										{
											"name": "decimals",
											"type": "uint256",
											"internalType": "uint256"
										},
										{
											"name": "currency",
											"type": "uint256",
											"internalType": "uint256"
										}
									]
								},
								{
									"name": "forwardedAmount",
									"type": "tuple",
									"internalType": "struct JBTokenAmount",
									"components": [
										{
											"name": "token",
											"type": "address",
											"internalType": "address"
										},
										{
											"name": "value",
											"type": "uint256",
											"internalType": "uint256"
										},
										{
											"name": "decimals",
											"type": "uint256",
											"internalType": "uint256"
										},
										{
											"name": "currency",
											"type": "uint256",
											"internalType": "uint256"
										}
									]
								},
								{
									"name": "weight",
									"type": "uint256",
									"internalType": "uint256"
								},
								{
									"name": "projectTokenCount",
									"type": "uint256",
									"internalType": "uint256"
								},
								{
									"name": "beneficiary",
									"type": "address",
									"internalType": "address"
								},
								{
									"name": "hookMetadata",
									"type": "bytes",
									"internalType": "bytes"
								},
								{
									"name": "payerMetadata",
									"type": "bytes",
									"internalType": "bytes"
								}
							]
						},
						{
							"name": "specificationAmount",
							"type": "uint256",
							"indexed": false,
							"internalType": "uint256"
						},
						{
							"name": "caller",
							"type": "address",
							"indexed": false,
							"internalType": "address"
						}
					],
					"anonymous": false
				},
				{
					"type": "event",
					"name": "MigrateTerminal",
					"inputs": [
						{
							"name": "projectId",
							"type": "uint256",
							"indexed": true,
							"internalType": "uint256"
						},
						{
							"name": "token",
							"type": "address",
							"indexed": true,
							"internalType": "address"
						},
						{
							"name": "to",
							"type": "address",
							"indexed": true,
							"internalType": "contract IJBTerminal"
						},
						{
							"name": "amount",
							"type": "uint256",
							"indexed": false,
							"internalType": "uint256"
						},
						{
							"name": "caller",
							"type": "address",
							"indexed": false,
							"internalType": "address"
						}
					],
					"anonymous": false
				},
				{
					"type": "event",
					"name": "OwnershipTransferred",
					"inputs": [
						{
							"name": "previousOwner",
							"type": "address",
							"indexed": true,
							"internalType": "address"
						},
						{
							"name": "newOwner",
							"type": "address",
							"indexed": true,
							"internalType": "address"
						}
					],
					"anonymous": false
				},
				{
					"type": "event",
					"name": "Pay",
					"inputs": [
						{
							"name": "rulesetId",
							"type": "uint256",
							"indexed": true,
							"internalType": "uint256"
						},
						{
							"name": "rulesetCycleNumber",
							"type": "uint256",
							"indexed": true,
							"internalType": "uint256"
						},
						{
							"name": "projectId",
							"type": "uint256",
							"indexed": true,
							"internalType": "uint256"
						},
						{
							"name": "payer",
							"type": "address",
							"indexed": false,
							"internalType": "address"
						},
						{
							"name": "beneficiary",
							"type": "address",
							"indexed": false,
							"internalType": "address"
						},
						{
							"name": "amount",
							"type": "uint256",
							"indexed": false,
							"internalType": "uint256"
						},
						{
							"name": "beneficiaryTokenCount",
							"type": "uint256",
							"indexed": false,
							"internalType": "uint256"
						},
						{
							"name": "memo",
							"type": "string",
							"indexed": false,
							"internalType": "string"
						},
						{
							"name": "metadata",
							"type": "bytes",
							"indexed": false,
							"internalType": "bytes"
						},
						{
							"name": "caller",
							"type": "address",
							"indexed": false,
							"internalType": "address"
						}
					],
					"anonymous": false
				},
				{
					"type": "event",
					"name": "SetAccountingContext",
					"inputs": [
						{
							"name": "projectId",
							"type": "uint256",
							"indexed": true,
							"internalType": "uint256"
						},
						{
							"name": "token",
							"type": "address",
							"indexed": true,
							"internalType": "address"
						},
						{
							"name": "context",
							"type": "tuple",
							"indexed": false,
							"internalType": "struct JBAccountingContext",
							"components": [
								{
									"name": "token",
									"type": "address",
									"internalType": "address"
								},
								{
									"name": "decimals",
									"type": "uint8",
									"internalType": "uint8"
								},
								{
									"name": "currency",
									"type": "uint32",
									"internalType": "uint32"
								}
							]
						},
						{
							"name": "caller",
							"type": "address",
							"indexed": false,
							"internalType": "address"
						}
					],
					"anonymous": false
				},
				{
					"type": "error",
					"name": "AddressEmptyCode",
					"inputs": [
						{
							"name": "target",
							"type": "address",
							"internalType": "address"
						}
					]
				},
				{
					"type": "error",
					"name": "AddressInsufficientBalance",
					"inputs": [
						{
							"name": "account",
							"type": "address",
							"internalType": "address"
						}
					]
				},
				{
					"type": "error",
					"name": "FailedInnerCall",
					"inputs": []
				},
				{
					"type": "error",
					"name": "MAX_SLIPPAGE",
					"inputs": [
						{
							"name": "",
							"type": "uint256",
							"internalType": "uint256"
						},
						{
							"name": "",
							"type": "uint256",
							"internalType": "uint256"
						}
					]
				},
				{
					"type": "error",
					"name": "NO_DEFAULT_POOL_DEFINED",
					"inputs": []
				},
				{
					"type": "error",
					"name": "NO_MSG_VALUE_ALLOWED",
					"inputs": []
				},
				{
					"type": "error",
					"name": "OwnableInvalidOwner",
					"inputs": [
						{
							"name": "owner",
							"type": "address",
							"internalType": "address"
						}
					]
				},
				{
					"type": "error",
					"name": "OwnableUnauthorizedAccount",
					"inputs": [
						{
							"name": "account",
							"type": "address",
							"internalType": "address"
						}
					]
				},
				{
					"type": "error",
					"name": "PERMIT_ALLOWANCE_NOT_ENOUGH",
					"inputs": []
				},
				{
					"type": "error",
					"name": "SafeERC20FailedOperation",
					"inputs": [
						{
							"name": "token",
							"type": "address",
							"internalType": "address"
						}
					]
				},
				{
					"type": "error",
					"name": "T",
					"inputs": []
				},
				{
					"type": "error",
					"name": "TOKEN_NOT_ACCEPTED",
					"inputs": []
				},
				{
					"type": "error",
					"name": "UNAUTHORIZED",
					"inputs": []
				},
				{
					"type": "error",
					"name": "UNSUPPORTED",
					"inputs": []
				}
			],
			"solcInputHash": "09f9e18c409830b509225223c0d1038d",
			"receipt": {
				"blockHash": "0x9396f6f30612858c88fce82fe23fcefbb8d345ff5a2748ff26c42c890a86105c",
				"blockNumber": 5822633,
				"contractAddress": null,
				"cumulativeGasUsed": "17189085",
				"from": "0xC034550B542b83BA1De312b21d1C94a9a52B1595",
				"gasPrice": "25058334550",
				"gasUsed": "3385901",
				"hash": "0xb8730fa8248dea52b764ef7f69a457806fb970f5e90a02b44194a57f845636fc",
				"index": 117,
				"logs": [
					{
						"address": "0xB5E96127D417b1B3ef8438496a38A143167209c7",
						"blockHash": "0x9396f6f30612858c88fce82fe23fcefbb8d345ff5a2748ff26c42c890a86105c",
						"blockNumber": 5822633,
						"data": "0x0000000000000000000000000000000000000000000000000000000000000000",
						"index": 224,
						"topics": [
							"0x572f161235911da04685a68c06adf558fc7e4a36909dca394650e0adc19cc93d",
							"0x000000000000000000000000c034550b542b83ba1de312b21d1c94a9a52b1595",
							"0x0000000000000000000000003f6eb31c3cafeb9163d09242a27d52e8cca6fa73",
							"0xac4d91c0c03488d4e17899c7a88af3ace5c527dafb0155697303fcf5675fabe4"
						],
						"transactionHash": "0xb8730fa8248dea52b764ef7f69a457806fb970f5e90a02b44194a57f845636fc",
						"transactionIndex": 117
					},
					{
						"address": "0xAFE6b3AFd48CD2009e897c8aC64f19F2Ede7D702",
						"blockHash": "0x9396f6f30612858c88fce82fe23fcefbb8d345ff5a2748ff26c42c890a86105c",
						"blockNumber": 5822633,
						"data": "0x",
						"index": 225,
						"topics": [
							"0x8be0079c531659141344cd1fd0a4f28419497f9722a3daafe3b4186f6b6457e0",
							"0x0000000000000000000000000000000000000000000000000000000000000000",
							"0x000000000000000000000000823b92d6a4b2aed4b15675c7917c9f922ea8adad"
						],
						"transactionHash": "0xb8730fa8248dea52b764ef7f69a457806fb970f5e90a02b44194a57f845636fc",
						"transactionIndex": 117
					},
					{
						"address": "0x21CD04c712ca1206baE783EC9B715361DfC28026",
						"blockHash": "0x9396f6f30612858c88fce82fe23fcefbb8d345ff5a2748ff26c42c890a86105c",
						"blockNumber": 5822633,
						"data": "0x",
						"index": 226,
						"topics": [
							"0x6895c13664aa4f67288b25d7a21d7aaa34916e355fb9b6fae0a139a9085becb8",
							"0x0000000000000000000000003f6eb31c3cafeb9163d09242a27d52e8cca6fa73"
						],
						"transactionHash": "0xb8730fa8248dea52b764ef7f69a457806fb970f5e90a02b44194a57f845636fc",
						"transactionIndex": 117
					},
					{
						"address": "0x3f6eB31C3cAFEb9163d09242A27D52E8cCa6Fa73",
						"blockHash": "0x9396f6f30612858c88fce82fe23fcefbb8d345ff5a2748ff26c42c890a86105c",
						"blockNumber": 5822633,
						"data": "0x0000000000000000000000000000000000000000000000000000000000000001",
						"index": 227,
						"topics": [
							"0xa65fb05c5808f5f389d72edeaf719ce38f4cc55c1f69ca3cbfb31c21501caa07",
							"0x0088a4ca83aae80667b5564428800096aa89fcf330870611a44bf7465d255c77"
						],
						"transactionHash": "0xb8730fa8248dea52b764ef7f69a457806fb970f5e90a02b44194a57f845636fc",
						"transactionIndex": 117
					},
					{
						"address": "0x3f6eB31C3cAFEb9163d09242A27D52E8cCa6Fa73",
						"blockHash": "0x9396f6f30612858c88fce82fe23fcefbb8d345ff5a2748ff26c42c890a86105c",
						"blockNumber": 5822633,
						"data": "0x",
						"index": 228,
						"topics": [
							"0x4383d976757d67ca920616be0b6430a681ea9d3dcce8d6d61d4603ca4a9bff63",
							"0x0088a4ca83aae80667b5564428800096aa89fcf330870611a44bf7465d255c77"
						],
						"transactionHash": "0xb8730fa8248dea52b764ef7f69a457806fb970f5e90a02b44194a57f845636fc",
						"transactionIndex": 117
					}
				],
				"logsBloom": "0x0000000008001000000000000008000000000000000800000080000000400000002000000000000000800000014000000000000010000000000010000000000000000000000020000000000080000000000100000000000000000080000000000000000002000000000000000000080010000000000000000000000000000040000000000000000200010000000000000000080000000000000000000000000100400088001000000000000001000002020000000000008000202000000400000000000000000000000000000c010000000001000000000000000200000020000000000000000008000000000000000200000000000000000000000008000000",
				"status": 1,
				"to": "0xB5E96127D417b1B3ef8438496a38A143167209c7"
			},
			"metadata": "{\"compiler\":{\"version\":\"0.8.23+commit.f704f362\"},\"language\":\"Solidity\",\"output\":{\"abi\":[{\"inputs\":[{\"internalType\":\"contract IJBProjects\",\"name\":\"projects\",\"type\":\"address\"},{\"internalType\":\"contract IJBPermissions\",\"name\":\"permissions\",\"type\":\"address\"},{\"internalType\":\"contract IJBDirectory\",\"name\":\"directory\",\"type\":\"address\"},{\"internalType\":\"contract IPermit2\",\"name\":\"permit2\",\"type\":\"address\"},{\"internalType\":\"address\",\"name\":\"owner\",\"type\":\"address\"},{\"internalType\":\"contract IWETH9\",\"name\":\"weth\",\"type\":\"address\"},{\"internalType\":\"address\",\"name\":\"tokenOut\",\"type\":\"address\"}],\"stateMutability\":\"nonpayable\",\"type\":\"constructor\"},{\"inputs\":[{\"internalType\":\"address\",\"name\":\"target\",\"type\":\"address\"}],\"type\":\"error\",\"name\":\"AddressEmptyCode\"},{\"inputs\":[{\"internalType\":\"address\",\"name\":\"account\",\"type\":\"address\"}],\"type\":\"error\",\"name\":\"AddressInsufficientBalance\"},{\"inputs\":[],\"type\":\"error\",\"name\":\"FailedInnerCall\"},{\"inputs\":[{\"internalType\":\"uint256\",\"name\":\"\",\"type\":\"uint256\"},{\"internalType\":\"uint256\",\"name\":\"\",\"type\":\"uint256\"}],\"type\":\"error\",\"name\":\"MAX_SLIPPAGE\"},{\"inputs\":[],\"type\":\"error\",\"name\":\"NO_DEFAULT_POOL_DEFINED\"},{\"inputs\":[],\"type\":\"error\",\"name\":\"NO_MSG_VALUE_ALLOWED\"},{\"inputs\":[{\"internalType\":\"address\",\"name\":\"owner\",\"type\":\"address\"}],\"type\":\"error\",\"name\":\"OwnableInvalidOwner\"},{\"inputs\":[{\"internalType\":\"address\",\"name\":\"account\",\"type\":\"address\"}],\"type\":\"error\",\"name\":\"OwnableUnauthorizedAccount\"},{\"inputs\":[],\"type\":\"error\",\"name\":\"PERMIT_ALLOWANCE_NOT_ENOUGH\"},{\"inputs\":[{\"internalType\":\"address\",\"name\":\"token\",\"type\":\"address\"}],\"type\":\"error\",\"name\":\"SafeERC20FailedOperation\"},{\"inputs\":[],\"type\":\"error\",\"name\":\"T\"},{\"inputs\":[],\"type\":\"error\",\"name\":\"TOKEN_NOT_ACCEPTED\"},{\"inputs\":[],\"type\":\"error\",\"name\":\"UNAUTHORIZED\"},{\"inputs\":[],\"type\":\"error\",\"name\":\"UNSUPPORTED\"},{\"inputs\":[{\"internalType\":\"uint256\",\"name\":\"projectId\",\"type\":\"uint256\",\"indexed\":true},{\"internalType\":\"uint256\",\"name\":\"amount\",\"type\":\"uint256\",\"indexed\":false},{\"internalType\":\"uint256\",\"name\":\"unlockedFees\",\"type\":\"uint256\",\"indexed\":false},{\"internalType\":\"string\",\"name\":\"memo\",\"type\":\"string\",\"indexed\":false},{\"internalType\":\"bytes\",\"name\":\"metadata\",\"type\":\"bytes\",\"indexed\":false},{\"internalType\":\"address\",\"name\":\"caller\",\"type\":\"address\",\"indexed\":false}],\"type\":\"event\",\"name\":\"AddToBalance\",\"anonymous\":false},{\"inputs\":[{\"internalType\":\"contract IJBPayHook\",\"name\":\"hook\",\"type\":\"address\",\"indexed\":true},{\"internalType\":\"struct JBAfterPayRecordedContext\",\"name\":\"context\",\"type\":\"tuple\",\"components\":[{\"internalType\":\"address\",\"name\":\"payer\",\"type\":\"address\"},{\"internalType\":\"uint256\",\"name\":\"projectId\",\"type\":\"uint256\"},{\"internalType\":\"uint256\",\"name\":\"rulesetId\",\"type\":\"uint256\"},{\"internalType\":\"struct JBTokenAmount\",\"name\":\"amount\",\"type\":\"tuple\",\"components\":[{\"internalType\":\"address\",\"name\":\"token\",\"type\":\"address\"},{\"internalType\":\"uint256\",\"name\":\"value\",\"type\":\"uint256\"},{\"internalType\":\"uint256\",\"name\":\"decimals\",\"type\":\"uint256\"},{\"internalType\":\"uint256\",\"name\":\"currency\",\"type\":\"uint256\"}]},{\"internalType\":\"struct JBTokenAmount\",\"name\":\"forwardedAmount\",\"type\":\"tuple\",\"components\":[{\"internalType\":\"address\",\"name\":\"token\",\"type\":\"address\"},{\"internalType\":\"uint256\",\"name\":\"value\",\"type\":\"uint256\"},{\"internalType\":\"uint256\",\"name\":\"decimals\",\"type\":\"uint256\"},{\"internalType\":\"uint256\",\"name\":\"currency\",\"type\":\"uint256\"}]},{\"internalType\":\"uint256\",\"name\":\"weight\",\"type\":\"uint256\"},{\"internalType\":\"uint256\",\"name\":\"projectTokenCount\",\"type\":\"uint256\"},{\"internalType\":\"address\",\"name\":\"beneficiary\",\"type\":\"address\"},{\"internalType\":\"bytes\",\"name\":\"hookMetadata\",\"type\":\"bytes\"},{\"internalType\":\"bytes\",\"name\":\"payerMetadata\",\"type\":\"bytes\"}],\"indexed\":false},{\"internalType\":\"uint256\",\"name\":\"specificationAmount\",\"type\":\"uint256\",\"indexed\":false},{\"internalType\":\"address\",\"name\":\"caller\",\"type\":\"address\",\"indexed\":false}],\"type\":\"event\",\"name\":\"HookAfterRecordPay\",\"anonymous\":false},{\"inputs\":[{\"internalType\":\"uint256\",\"name\":\"projectId\",\"type\":\"uint256\",\"indexed\":true},{\"internalType\":\"address\",\"name\":\"token\",\"type\":\"address\",\"indexed\":true},{\"internalType\":\"contract IJBTerminal\",\"name\":\"to\",\"type\":\"address\",\"indexed\":true},{\"internalType\":\"uint256\",\"name\":\"amount\",\"type\":\"uint256\",\"indexed\":false},{\"internalType\":\"address\",\"name\":\"caller\",\"type\":\"address\",\"indexed\":false}],\"type\":\"event\",\"name\":\"MigrateTerminal\",\"anonymous\":false},{\"inputs\":[{\"internalType\":\"address\",\"name\":\"previousOwner\",\"type\":\"address\",\"indexed\":true},{\"internalType\":\"address\",\"name\":\"newOwner\",\"type\":\"address\",\"indexed\":true}],\"type\":\"event\",\"name\":\"OwnershipTransferred\",\"anonymous\":false},{\"inputs\":[{\"internalType\":\"uint256\",\"name\":\"rulesetId\",\"type\":\"uint256\",\"indexed\":true},{\"internalType\":\"uint256\",\"name\":\"rulesetCycleNumber\",\"type\":\"uint256\",\"indexed\":true},{\"internalType\":\"uint256\",\"name\":\"projectId\",\"type\":\"uint256\",\"indexed\":true},{\"internalType\":\"address\",\"name\":\"payer\",\"type\":\"address\",\"indexed\":false},{\"internalType\":\"address\",\"name\":\"beneficiary\",\"type\":\"address\",\"indexed\":false},{\"internalType\":\"uint256\",\"name\":\"amount\",\"type\":\"uint256\",\"indexed\":false},{\"internalType\":\"uint256\",\"name\":\"beneficiaryTokenCount\",\"type\":\"uint256\",\"indexed\":false},{\"internalType\":\"string\",\"name\":\"memo\",\"type\":\"string\",\"indexed\":false},{\"internalType\":\"bytes\",\"name\":\"metadata\",\"type\":\"bytes\",\"indexed\":false},{\"internalType\":\"address\",\"name\":\"caller\",\"type\":\"address\",\"indexed\":false}],\"type\":\"event\",\"name\":\"Pay\",\"anonymous\":false},{\"inputs\":[{\"internalType\":\"uint256\",\"name\":\"projectId\",\"type\":\"uint256\",\"indexed\":true},{\"internalType\":\"address\",\"name\":\"token\",\"type\":\"address\",\"indexed\":true},{\"internalType\":\"struct JBAccountingContext\",\"name\":\"context\",\"type\":\"tuple\",\"components\":[{\"internalType\":\"address\",\"name\":\"token\",\"type\":\"address\"},{\"internalType\":\"uint8\",\"name\":\"decimals\",\"type\":\"uint8\"},{\"internalType\":\"uint32\",\"name\":\"currency\",\"type\":\"uint32\"}],\"indexed\":false},{\"internalType\":\"address\",\"name\":\"caller\",\"type\":\"address\",\"indexed\":false}],\"type\":\"event\",\"name\":\"SetAccountingContext\",\"anonymous\":false},{\"inputs\":[],\"stateMutability\":\"view\",\"type\":\"function\",\"name\":\"DEFAULT_PROJECT_ID\",\"outputs\":[{\"internalType\":\"uint256\",\"name\":\"\",\"type\":\"uint256\"}]},{\"inputs\":[],\"stateMutability\":\"view\",\"type\":\"function\",\"name\":\"DIRECTORY\",\"outputs\":[{\"internalType\":\"contract IJBDirectory\",\"name\":\"\",\"type\":\"address\"}]},{\"inputs\":[],\"stateMutability\":\"view\",\"type\":\"function\",\"name\":\"PERMISSIONS\",\"outputs\":[{\"internalType\":\"contract IJBPermissions\",\"name\":\"\",\"type\":\"address\"}]},{\"inputs\":[],\"stateMutability\":\"view\",\"type\":\"function\",\"name\":\"PERMIT2\",\"outputs\":[{\"internalType\":\"contract IPermit2\",\"name\":\"\",\"type\":\"address\"}]},{\"inputs\":[],\"stateMutability\":\"view\",\"type\":\"function\",\"name\":\"PROJECTS\",\"outputs\":[{\"internalType\":\"contract IJBProjects\",\"name\":\"\",\"type\":\"address\"}]},{\"inputs\":[],\"stateMutability\":\"view\",\"type\":\"function\",\"name\":\"SLIPPAGE_DENOMINATOR\",\"outputs\":[{\"internalType\":\"uint160\",\"name\":\"\",\"type\":\"uint160\"}]},{\"inputs\":[],\"stateMutability\":\"view\",\"type\":\"function\",\"name\":\"TOKEN_OUT\",\"outputs\":[{\"internalType\":\"address\",\"name\":\"\",\"type\":\"address\"}]},{\"inputs\":[],\"stateMutability\":\"view\",\"type\":\"function\",\"name\":\"WETH\",\"outputs\":[{\"internalType\":\"contract IWETH9\",\"name\":\"\",\"type\":\"address\"}]},{\"inputs\":[{\"internalType\":\"uint256\",\"name\":\"projectId\",\"type\":\"uint256\"},{\"internalType\":\"address\",\"name\":\"token\",\"type\":\"address\"}],\"stateMutability\":\"view\",\"type\":\"function\",\"name\":\"accountingContextForTokenOf\",\"outputs\":[{\"internalType\":\"struct JBAccountingContext\",\"name\":\"\",\"type\":\"tuple\",\"components\":[{\"internalType\":\"address\",\"name\":\"token\",\"type\":\"address\"},{\"internalType\":\"uint8\",\"name\":\"decimals\",\"type\":\"uint8\"},{\"internalType\":\"uint32\",\"name\":\"currency\",\"type\":\"uint32\"}]}]},{\"inputs\":[{\"internalType\":\"uint256\",\"name\":\"projectId\",\"type\":\"uint256\"}],\"stateMutability\":\"view\",\"type\":\"function\",\"name\":\"accountingContextsOf\",\"outputs\":[{\"internalType\":\"struct JBAccountingContext[]\",\"name\":\"\",\"type\":\"tuple[]\",\"components\":[{\"internalType\":\"address\",\"name\":\"token\",\"type\":\"address\"},{\"internalType\":\"uint8\",\"name\":\"decimals\",\"type\":\"uint8\"},{\"internalType\":\"uint32\",\"name\":\"currency\",\"type\":\"uint32\"}]}]},{\"inputs\":[{\"internalType\":\"uint256\",\"name\":\"projectId\",\"type\":\"uint256\"},{\"internalType\":\"address[]\",\"name\":\"tokens\",\"type\":\"address[]\"}],\"stateMutability\":\"nonpayable\",\"type\":\"function\",\"name\":\"addAccountingContextsFor\"},{\"inputs\":[{\"internalType\":\"uint256\",\"name\":\"projectId\",\"type\":\"uint256\"},{\"internalType\":\"address\",\"name\":\"token\",\"type\":\"address\"},{\"internalType\":\"contract IUniswapV3Pool\",\"name\":\"pool\",\"type\":\"address\"}],\"stateMutability\":\"nonpayable\",\"type\":\"function\",\"name\":\"addDefaultPool\"},{\"inputs\":[{\"internalType\":\"uint256\",\"name\":\"projectId\",\"type\":\"uint256\"},{\"internalType\":\"address\",\"name\":\"token\",\"type\":\"address\"},{\"internalType\":\"uint256\",\"name\":\"amount\",\"type\":\"uint256\"},{\"internalType\":\"bool\",\"name\":\"shouldReturnHeldFees\",\"type\":\"bool\"},{\"internalType\":\"string\",\"name\":\"memo\",\"type\":\"string\"},{\"internalType\":\"bytes\",\"name\":\"metadata\",\"type\":\"bytes\"}],\"stateMutability\":\"payable\",\"type\":\"function\",\"name\":\"addToBalanceOf\"},{\"inputs\":[{\"internalType\":\"uint256\",\"name\":\"projectId\",\"type\":\"uint256\"},{\"internalType\":\"contract IUniswapV3Pool\",\"name\":\"pool\",\"type\":\"address\"},{\"internalType\":\"uint32\",\"name\":\"secondsAgo\",\"type\":\"uint32\"},{\"internalType\":\"uint160\",\"name\":\"slippageTolerance\",\"type\":\"uint160\"}],\"stateMutability\":\"nonpayable\",\"type\":\"function\",\"name\":\"addTwapParamsFor\"},{\"inputs\":[{\"internalType\":\"uint256\",\"name\":\"projectId\",\"type\":\"uint256\"},{\"internalType\":\"uint256\",\"name\":\"decimals\",\"type\":\"uint256\"},{\"internalType\":\"uint256\",\"name\":\"currency\",\"type\":\"uint256\"}],\"stateMutability\":\"view\",\"type\":\"function\",\"name\":\"currentSurplusOf\",\"outputs\":[{\"internalType\":\"uint256\",\"name\":\"\",\"type\":\"uint256\"}]},{\"inputs\":[{\"internalType\":\"uint256\",\"name\":\"projectId\",\"type\":\"uint256\"},{\"internalType\":\"address\",\"name\":\"tokenIn\",\"type\":\"address\"}],\"stateMutability\":\"view\",\"type\":\"function\",\"name\":\"getPoolFor\",\"outputs\":[{\"internalType\":\"contract IUniswapV3Pool\",\"name\":\"pool\",\"type\":\"address\"},{\"internalType\":\"bool\",\"name\":\"zeroForOne\",\"type\":\"bool\"}]},{\"inputs\":[{\"internalType\":\"uint256\",\"name\":\"projectId\",\"type\":\"uint256\"},{\"internalType\":\"address\",\"name\":\"token\",\"type\":\"address\"},{\"internalType\":\"contract IJBTerminal\",\"name\":\"to\",\"type\":\"address\"}],\"stateMutability\":\"nonpayable\",\"type\":\"function\",\"name\":\"migrateBalanceOf\",\"outputs\":[{\"internalType\":\"uint256\",\"name\":\"balance\",\"type\":\"uint256\"}]},{\"inputs\":[],\"stateMutability\":\"view\",\"type\":\"function\",\"name\":\"owner\",\"outputs\":[{\"internalType\":\"address\",\"name\":\"\",\"type\":\"address\"}]},{\"inputs\":[{\"internalType\":\"uint256\",\"name\":\"projectId\",\"type\":\"uint256\"},{\"internalType\":\"address\",\"name\":\"token\",\"type\":\"address\"},{\"internalType\":\"uint256\",\"name\":\"amount\",\"type\":\"uint256\"},{\"internalType\":\"address\",\"name\":\"beneficiary\",\"type\":\"address\"},{\"internalType\":\"uint256\",\"name\":\"minReturnedTokens\",\"type\":\"uint256\"},{\"internalType\":\"string\",\"name\":\"memo\",\"type\":\"string\"},{\"internalType\":\"bytes\",\"name\":\"metadata\",\"type\":\"bytes\"}],\"stateMutability\":\"payable\",\"type\":\"function\",\"name\":\"pay\",\"outputs\":[{\"internalType\":\"uint256\",\"name\":\"\",\"type\":\"uint256\"}]},{\"inputs\":[],\"stateMutability\":\"nonpayable\",\"type\":\"function\",\"name\":\"renounceOwnership\"},{\"inputs\":[{\"internalType\":\"bytes4\",\"name\":\"interfaceId\",\"type\":\"bytes4\"}],\"stateMutability\":\"view\",\"type\":\"function\",\"name\":\"supportsInterface\",\"outputs\":[{\"internalType\":\"bool\",\"name\":\"\",\"type\":\"bool\"}]},{\"inputs\":[{\"internalType\":\"address\",\"name\":\"newOwner\",\"type\":\"address\"}],\"stateMutability\":\"nonpayable\",\"type\":\"function\",\"name\":\"transferOwnership\"},{\"inputs\":[{\"internalType\":\"uint256\",\"name\":\"projectId\",\"type\":\"uint256\"},{\"internalType\":\"contract IUniswapV3Pool\",\"name\":\"pool\",\"type\":\"address\"}],\"stateMutability\":\"view\",\"type\":\"function\",\"name\":\"twapParamsOf\",\"outputs\":[{\"internalType\":\"uint32\",\"name\":\"secondsAgo\",\"type\":\"uint32\"},{\"internalType\":\"uint160\",\"name\":\"slippageTolerance\",\"type\":\"uint160\"}]},{\"inputs\":[{\"internalType\":\"int256\",\"name\":\"amount0Delta\",\"type\":\"int256\"},{\"internalType\":\"int256\",\"name\":\"amount1Delta\",\"type\":\"int256\"},{\"internalType\":\"bytes\",\"name\":\"data\",\"type\":\"bytes\"}],\"stateMutability\":\"nonpayable\",\"type\":\"function\",\"name\":\"uniswapV3SwapCallback\"},{\"inputs\":[],\"stateMutability\":\"payable\",\"type\":\"receive\"}],\"devdoc\":{\"kind\":\"dev\",\"methods\":{\"accountingContextForTokenOf(uint256,address)\":{\"details\":\"Accounting contexts are set up in `addDefaultPool(...)`.\",\"params\":{\"projectId\":\"The ID of the project to get the accounting context for.\",\"token\":\"The address of the token to get the accounting context for.\"},\"returns\":{\"_0\":\"A `JBAccountingContext` containing the accounting context for the project ID and token.\"}},\"accountingContextsOf(uint256)\":{\"details\":\"This includes both project-specific and generic accounting contexts, with the project-specific contexts         taking precedence.\",\"params\":{\"projectId\":\"The ID of the project to get the accounting contexts for.\"},\"returns\":{\"_0\":\"An array of `JBAccountingContext` containing the accounting contexts for the project ID.\"}},\"addDefaultPool(uint256,address,address)\":{\"params\":{\"pool\":\"The Uniswap V3 pool to set as the default for the specified token.\",\"projectId\":\"The ID of the project to set the default pool for. The project 0 acts as a catch-all, where non-set pools are defaulted to.\",\"token\":\"The address of the token to set the default pool for.\"}},\"addToBalanceOf(uint256,address,uint256,bool,string,bytes)\":{\"details\":\"This function handles the token in transfer, potentially swaps the tokens to the desired output token, and then adds the swapped tokens to the project's balance in the specified terminal.\",\"params\":{\"amount\":\"The amount of tokens being paid in.\",\"memo\":\"A memo to pass along to the emitted event.\",\"metadata\":\"Bytes in `JBMetadataResolver`'s format which can contain additional data for the swap and adding to balance.\",\"projectId\":\"The ID of the project for which funds are being accepted and added to its balance.\",\"shouldReturnHeldFees\":\"A boolean to indicate whether held fees should be returned.\",\"token\":\"The address of the token being paid in.\"}},\"addTwapParamsFor(uint256,address,uint32,uint160)\":{\"params\":{\"projectId\":\"The ID of the project to set the TWAP-based quote rules for.\",\"secondsAgo\":\"The period of time over which the TWAP is calculated, in seconds.\",\"slippageTolerance\":\"The maximum spread allowed between the amount received and the TWAP (as a fraction out of `SLIPPAGE_DENOMINATOR`).\"}},\"getPoolFor(uint256,address)\":{\"params\":{\"projectId\":\"The ID of the project to retrieve the default pool for.\",\"tokenIn\":\"The address of the token to retrieve the default pool for.\"},\"returns\":{\"pool\":\"The default pool for the token, or the overall default pool for the token if the\"}},\"owner()\":{\"details\":\"Returns the address of the current owner.\"},\"pay(uint256,address,uint256,address,uint256,string,bytes)\":{\"params\":{\"amount\":\"The amount of tokens being paid in, as a fixed point number with the same amount of decimals as the `token`. If `token` is the native token, `amount` is ignored and `msg.value` is used in its place.\",\"beneficiary\":\"The beneficiary address to pass along to the other terminal. If the other terminal mints tokens, for example, they will be minted for this address.\",\"memo\":\"A memo to pass along to the emitted event.\",\"metadata\":\"Bytes in `JBMetadataResolver`'s format which can contain a quote from the user/client. The quote should contain a minimum amount of tokens to receive from the swap and the pool to use. This metadata is also passed to the other terminal's emitted event, as well as its data hook and pay hook if applicable.\",\"minReturnedTokens\":\"The minimum number of project tokens expected in return, as a fixed point number with the same number of decimals as the other terminal. This value will be passed along to the other terminal.\",\"projectId\":\"The ID of the project being paid.\",\"token\":\"The address of the token being paid in.\"},\"returns\":{\"_0\":\"The number of tokens received from the swap, as a fixed point number with the same amount of decimals as that token.\"}},\"renounceOwnership()\":{\"details\":\"Leaves the contract without owner. It will not be possible to call `onlyOwner` functions. Can only be called by the current owner. NOTE: Renouncing ownership will leave the contract without an owner, thereby disabling any functionality that is only available to the owner.\"},\"supportsInterface(bytes4)\":{\"details\":\"See {IERC165-supportsInterface}.\",\"params\":{\"interfaceId\":\"The ID of the interface to check for adherance to.\"},\"returns\":{\"_0\":\"A flag indicating if the provided interface ID is supported.\"}},\"transferOwnership(address)\":{\"details\":\"Transfers ownership of the contract to a new account (`newOwner`). Can only be called by the current owner.\"},\"twapParamsOf(uint256,address)\":{\"params\":{\"projectId\":\"The ID of the project to retrieve TWAP parameters for.\"},\"returns\":{\"secondsAgo\":\"The period of time in the past to calculate the TWAP from.\",\"slippageTolerance\":\"The maximum allowed slippage tolerance when calculating the TWAP, as a fraction out of `SLIPPAGE_DENOMINATOR`.\"}},\"uniswapV3SwapCallback(int256,int256,bytes)\":{\"details\":\"This function has no access control, care should be taken to ensure that:      - terminal balance is always be 0 between tx (this callback can only be used to sweep accidental leftovers)      - callback cannot pull user funds via a preexisting allowance\",\"params\":{\"amount0Delta\":\"The amount of token 0 being used for the swap.\",\"amount1Delta\":\"The amount of token 1 being used for the swap.\",\"data\":\"Data passed in by the swap operation.\"}}},\"version\":1},\"userdoc\":{\"kind\":\"user\",\"methods\":{\"DEFAULT_PROJECT_ID()\":{\"notice\":\"The ID to store default values in.\"},\"DIRECTORY()\":{\"notice\":\"The directory of terminals and controllers for `PROJECTS`.\"},\"PERMISSIONS()\":{\"notice\":\"A contract storing permissions.\"},\"PERMIT2()\":{\"notice\":\"The permit2 utility.\"},\"PROJECTS()\":{\"notice\":\"Mints ERC-721s that represent project ownership and transfers.\"},\"SLIPPAGE_DENOMINATOR()\":{\"notice\":\"The denominator used when calculating TWAP slippage tolerance values.\"},\"TOKEN_OUT()\":{\"notice\":\"The token which flows out of this terminal (JBConstants.NATIVE_TOKEN for the chain native token)\"},\"WETH()\":{\"notice\":\"The ERC-20 wrapper for the native token.\"},\"accountingContextForTokenOf(uint256,address)\":{\"notice\":\"Get the accounting context for the specified project ID and token.\"},\"accountingContextsOf(uint256)\":{\"notice\":\"Return all the accounting contexts for a specified project ID.\"},\"addAccountingContextsFor(uint256,address[])\":{\"notice\":\"Empty implementation to satisfy the interface. Accounting contexts are set in `addDefaultPool(...)`.\"},\"addDefaultPool(uint256,address,address)\":{\"notice\":\"Set a project's default pool and accounting context for the specified token. Only the project's owner, an address with `MODIFY_DEFAULT_POOL` permission from the owner or the terminal owner can call this function.\"},\"addToBalanceOf(uint256,address,uint256,bool,string,bytes)\":{\"notice\":\"Accepts funds for a given project, swaps them if necessary, and adds them to the project's balance in the specified terminal.\"},\"addTwapParamsFor(uint256,address,uint32,uint160)\":{\"notice\":\"Set the specified project's rules for calculating a quote based on the TWAP. Only the project's owner or an address with `MODIFY_TWAP_PARAMS` permission from the owner  or the terminal owner can call this function.\"},\"currentSurplusOf(uint256,uint256,uint256)\":{\"notice\":\"Empty implementation to satisfy the interface. This terminal has no surplus.\"},\"getPoolFor(uint256,address)\":{\"notice\":\"Returns the default pool for a given project and token or, if a project has no default pool for the         token, the overal default pool for the token\"},\"migrateBalanceOf(uint256,address,address)\":{\"notice\":\"Empty implementation to satisfy the interface.\"},\"pay(uint256,address,uint256,address,uint256,string,bytes)\":{\"notice\":\"Pay a project by swapping the incoming tokens for tokens that one of the project's other terminals accepts, passing along the funds received from the swap and the specified parameters.\"},\"supportsInterface(bytes4)\":{\"notice\":\"Indicates if this contract adheres to the specified interface.\"},\"twapParamsOf(uint256,address)\":{\"notice\":\"Returns the default twap parameters for a given pool project.\"},\"uniswapV3SwapCallback(int256,int256,bytes)\":{\"notice\":\"The Uniswap v3 pool callback where the token transfer is expected to happen.\"}},\"version\":1}},\"settings\":{\"remappings\":[\"@bananapus/=node_modules/@bananapus/\",\"@chainlink/=node_modules/@chainlink/\",\"@eth-optimism/=node_modules/@eth-optimism/\",\"@exhausted-pigeon/=node_modules/@exhausted-pigeon/\",\"@openzeppelin/=node_modules/@openzeppelin/\",\"@prb/=node_modules/@prb/\",\"@scroll-tech/=node_modules/@scroll-tech/\",\"@sphinx-labs/contracts/=node_modules/@sphinx-labs/contracts/contracts/foundry/\",\"@uniswap/=node_modules/@uniswap/\",\"base64-sol/=node_modules/base64-sol/\",\"ds-test/=lib/forge-std/lib/ds-test/src/\",\"forge-std/=lib/forge-std/src/\",\"hardhat/=node_modules/hardhat/\",\"solmate/=node_modules/solmate/\",\"sphinx/=lib/sphinx/packages/contracts/contracts/forge-std/src/\"],\"optimizer\":{\"enabled\":true,\"runs\":200},\"metadata\":{\"bytecodeHash\":\"ipfs\"},\"compilationTarget\":{\"src/JBSwapTerminal.sol\":\"JBSwapTerminal\"},\"evmVersion\":\"paris\",\"libraries\":{}},\"sources\":{\"node_modules/@bananapus/core/src/abstract/JBPermissioned.sol\":{\"keccak256\":\"0xe08c8a7eeac9d1c7c2e0db6d5b98d1af09889300835a3d47d9f29319fecce703\",\"urls\":[\"bzz-raw://42645cf52bcc45053ef650790916faed5d0a74cecef336b217433fdd2c5c4166\",\"dweb:/ipfs/QmdMmxG1tSGucQwz4LYbVnuj7HU23YvqLH6xfrNWv5Bmus\"],\"license\":\"MIT\"},\"node_modules/@bananapus/core/src/enums/JBApprovalStatus.sol\":{\"keccak256\":\"0x61c69b6bac7d24b566d87cda23a77e4ca9cdb87200b106aba8534cb9a0973e33\",\"urls\":[\"bzz-raw://6a9ca7249de76f77a8252eefe6bd1b63d47952f25a2acfa2c8db967cdff4470c\",\"dweb:/ipfs/QmaxSxptRQNj8bNy96EreENmrnRWdKmhyihBcxyWzBX5BN\"],\"license\":\"MIT\"},\"node_modules/@bananapus/core/src/interfaces/IJBDirectory.sol\":{\"keccak256\":\"0x9cc380844aef60078ee47a61861e55a29c4a8c947efd556ebd36e6909f7b9d62\",\"urls\":[\"bzz-raw://9f5190ec8b6683d9781ee6e9eedcc91294753242748875d4a06349077e4cbaaf\",\"dweb:/ipfs/QmTQrPuXT9TCA4txwrperMeXSGvGxP8iokUK47f62F388i\"],\"license\":\"MIT\"},\"node_modules/@bananapus/core/src/interfaces/IJBPayHook.sol\":{\"keccak256\":\"0x9438866782c652c2942f4d114e35f393cd3c8b0334abce8387eed90bca35e8b2\",\"urls\":[\"bzz-raw://cfd99daf57213f92325aad7d7d16e98476d38e870470e95ba01e3ae3cdecc95d\",\"dweb:/ipfs/QmUKKAVGf7ki8BHksr99tFcRW8APveeB5tNH63ctTbbCW8\"],\"license\":\"MIT\"},\"node_modules/@bananapus/core/src/interfaces/IJBPermissioned.sol\":{\"keccak256\":\"0x5b038d4dee116584e88b230920e56d48e135053e3f7e5642eaea14a775c1dad7\",\"urls\":[\"bzz-raw://19e43102f349fd4a1da1c0943ffb8f2950007fe4bb4bb7e8f74fc142575d091b\",\"dweb:/ipfs/QmXHAt4KzDTdDZgDDefEXH2WKi7NcfkJb9R7nxW5uDqsNp\"],\"license\":\"MIT\"},\"node_modules/@bananapus/core/src/interfaces/IJBPermissions.sol\":{\"keccak256\":\"0x18870e500edf0fbadc353e273a5574701fb80466376b908c65e7cc3f11044d4d\",\"urls\":[\"bzz-raw://352a47c45853aec80e7acf0d286ade3106eb4cb456776b28a3c2f3f1091bed90\",\"dweb:/ipfs/QmQeYd3YbudYZy2hfbfht9kwhxhw4tuuLKMEYy9UY6dcSy\"],\"license\":\"MIT\"},\"node_modules/@bananapus/core/src/interfaces/IJBPermitTerminal.sol\":{\"keccak256\":\"0xd6bd30842273f5b794f82219fefdd4953f5343328d2cfdb684b7d826cc0c769c\",\"urls\":[\"bzz-raw://ca1195fd5572060b36fc7e45f46d59f974e3a908248edcfadeb8cb06247075f0\",\"dweb:/ipfs/QmYTpDXKTXqi8GQFsNqB8LiGFTZjSPY3PA8vKqZBraVdqD\"],\"license\":\"MIT\"},\"node_modules/@bananapus/core/src/interfaces/IJBPriceFeed.sol\":{\"keccak256\":\"0x4bd84c0f1a5d4729ed709bcddd43f4c50ec4a165ece79780af8dce482ed07d4a\",\"urls\":[\"bzz-raw://62bac4bfb6982fb002f620c77e5c445e62d50241a5aa64a07e51d929f5a42180\",\"dweb:/ipfs/QmWgJUDreVY2BuMX38a1iUUR5kNbMwGnKG3VvurB7oZtuM\"],\"license\":\"MIT\"},\"node_modules/@bananapus/core/src/interfaces/IJBPrices.sol\":{\"keccak256\":\"0x99525f31440b955742dce84ba57de9fc1221139b5367c1f834723bef9e13e6e1\",\"urls\":[\"bzz-raw://6fa03f0cd4ad87dd7cbae7bf7f54463450874291773c8f70f2c31ef2cae62bb0\",\"dweb:/ipfs/QmSPajPV5ismteJuB6Spzm9VmhTj2iS3eVrfpJC1Zuzg8n\"],\"license\":\"MIT\"},\"node_modules/@bananapus/core/src/interfaces/IJBProjects.sol\":{\"keccak256\":\"0x735c2fb8f1fa827f054ee77f7a0ae4b312656217acb75b624d2c8fd9dc40151b\",\"urls\":[\"bzz-raw://ee7fc92299a8633a80693ae63ab494dcd125f1789487a54a39dc0e5696e5996f\",\"dweb:/ipfs/QmX7YJD4pS2XhgQb7p3JbBAXynT7YGPXcZe92BiWWRrsCL\"],\"license\":\"MIT\"},\"node_modules/@bananapus/core/src/interfaces/IJBRedeemHook.sol\":{\"keccak256\":\"0x8ab46fcd7d0e739661eb76056ad93ff99106f38420ef0b4eb97fa9f4bb71a68a\",\"urls\":[\"bzz-raw://0ef96fcb7ad26281d444d8e0c677b25114fdd63b1c172d477e030dce8ba53b62\",\"dweb:/ipfs/Qmcx1jRQuwU4pZFuLxsSsx4oMbRaDfktHrPnXextgbWc5m\"],\"license\":\"MIT\"},\"node_modules/@bananapus/core/src/interfaces/IJBRulesetApprovalHook.sol\":{\"keccak256\":\"0x592e95d159494421c6b1bcb362d0cee1df0132921697351304e9cd7af4fbd386\",\"urls\":[\"bzz-raw://5bebfd5fa67c1b6ea16fa2e76e9520e9dfe52a579f48dd94d0c2ec45f78ad178\",\"dweb:/ipfs/QmRUawEGtfYoYSHmHELGhvJoWuMsxLPKtqAXgsrb7fJboP\"],\"license\":\"MIT\"},\"node_modules/@bananapus/core/src/interfaces/IJBRulesets.sol\":{\"keccak256\":\"0xd3f817d22ecbe24da63c552c069bf0c4fbbf3bcd5c3b5633002afd24aacf6882\",\"urls\":[\"bzz-raw://c1185aec0f6b6f0f4d93ffeeed0972ccf38420b00fe570b5e1838ed2b1f5db49\",\"dweb:/ipfs/QmWz36azGTFnjFXpFSh6BHt4nactgjtF64L3PeTqs4ZqSR\"],\"license\":\"MIT\"},\"node_modules/@bananapus/core/src/interfaces/IJBTerminal.sol\":{\"keccak256\":\"0x19dc9bf8cbdc8f13ee5da9dc3a87047eacb94a3fc19740a286c1f0bad2cc39ca\",\"urls\":[\"bzz-raw://0b05ae6fda9a85672508232fd992b8a5f5ffd8096622eeb12c8a7b3317eb3867\",\"dweb:/ipfs/QmNh9Quj37BXYGdTdcCD1Q58PchRsE5TLbEZep56qS3MpV\"],\"license\":\"MIT\"},\"node_modules/@bananapus/core/src/interfaces/IJBTerminalStore.sol\":{\"keccak256\":\"0x140159d66d729f6aeed0fe1f7c655619985146ec00e8c68cbd9b5d30d4dc7d23\",\"urls\":[\"bzz-raw://f972ecb52bcfcd2852c9e7264b1ecc504ce94bd6e12c034b93c1768cd372954e\",\"dweb:/ipfs/QmRu7in5iJSWHLTcFPbJmiK1rCHFbwNY7qzY4cG6kgfYcr\"],\"license\":\"MIT\"},\"node_modules/@bananapus/core/src/interfaces/IJBTokenUriResolver.sol\":{\"keccak256\":\"0xfa5cb00dcd6085d1ef912d071fe73c63f9478a2cd0f9d8bddaf659b6af2d0967\",\"urls\":[\"bzz-raw://282e4e7c342d65f77cde0e9a08fcaf20ef5cf379c7a48b639842c0ffd0b2afb8\",\"dweb:/ipfs/QmbnN3PEQeZaXdPLT75V1J79kMg7KqSMru37RHrL3z8Yf2\"],\"license\":\"MIT\"},\"node_modules/@bananapus/core/src/libraries/JBConstants.sol\":{\"keccak256\":\"0x9d3a9a953f859d8ec79a599577f8972de6da7199cc1bfa7fdad017d4d722bcb4\",\"urls\":[\"bzz-raw://f151fcb53a8d2684eff8b9e56ac790bcbcadd8199a4fd4d17c5b224b22936722\",\"dweb:/ipfs/QmdAz1ZtCE8nTiC4AxQNLfJhnY3ndGum2Lbef7seKdvTdR\"],\"license\":\"MIT\"},\"node_modules/@bananapus/core/src/libraries/JBMetadataResolver.sol\":{\"keccak256\":\"0xea4318b305f26587c79aeea37e66735b74c72ebd9846e73980ea93242c717eec\",\"urls\":[\"bzz-raw://d00769ea990593a917f7be9eddc844ed47a4f92aa6bc7006b09c07291d1dc670\",\"dweb:/ipfs/QmNiptYFMPJH6QggcZnLo6ttqeKD7ksujRJRAKFYaRYjpg\"],\"license\":\"MIT\"},\"node_modules/@bananapus/core/src/structs/JBAccountingContext.sol\":{\"keccak256\":\"0x2907ff54d1e903cc7e0390dd88c3975884702dc2673642aacbe22b66560b56de\",\"urls\":[\"bzz-raw://a66a5381ce877b32f0e0058ceeaf843e9b6b2bc8af666c0c9f4a9d01091da004\",\"dweb:/ipfs/QmQynCetUr37dBkS1YwDS8evxuXGiqanW6THmeUxXtim8w\"],\"license\":\"MIT\"},\"node_modules/@bananapus/core/src/structs/JBAfterPayRecordedContext.sol\":{\"keccak256\":\"0xd26c3a774ff38be79064085970454fe2603a23a638c76270d5b1b3829206c3e8\",\"urls\":[\"bzz-raw://3b55dbe3bf1ef625b7ca04efab3de35406e6041d5b3d82c7265469c500e2b702\",\"dweb:/ipfs/QmUdBDo4Lt3mcsFcsXT2mqq3czFwZjQJFPLM89YA2VtD7k\"],\"license\":\"MIT\"},\"node_modules/@bananapus/core/src/structs/JBAfterRedeemRecordedContext.sol\":{\"keccak256\":\"0x521f5d23a36f0da72362cd84890cc867bd83baa8dc836ba6c5066d51dba2f163\",\"urls\":[\"bzz-raw://6cc461313286dde62d045d6288e87bae5032e035796326f5b1ed6218e58aa9da\",\"dweb:/ipfs/QmQS2AkQwf2ANQieDuaUnpJEdXChoLv4CCbZqHkfywYPSR\"],\"license\":\"MIT\"},\"node_modules/@bananapus/core/src/structs/JBPayHookSpecification.sol\":{\"keccak256\":\"0x955f0bfca97300b9e5927dc181753830ee362f83fa9ca32a90daade32aa0cfd5\",\"urls\":[\"bzz-raw://f517af1597c7c40f8d3da53f7a6684a3e162950a16559d6bf6ea3b727bb11546\",\"dweb:/ipfs/QmRWo2ZTYXmVZTzNJDYhsJNsEaHphjpUfx9eNz2cciyz86\"],\"license\":\"MIT\"},\"node_modules/@bananapus/core/src/structs/JBPermissionsData.sol\":{\"keccak256\":\"0x8f0f69a6ebf5f3704e3dfcb3712fb9d3f94ae7c1ab89bf3e37bad42a3e7a0487\",\"urls\":[\"bzz-raw://57b0c5e52843e2217082889ed47b4da3943e0da4590d5768dcebfe3edad4a6b8\",\"dweb:/ipfs/QmRz48vuWLw81kUP836rh1qzqWiJFGbksgRUA9xGEDNKTY\"],\"license\":\"MIT\"},\"node_modules/@bananapus/core/src/structs/JBRedeemHookSpecification.sol\":{\"keccak256\":\"0x673d16ee1a91bf8de3b37e57284e60451b70a9c2d748c9cdc7a151f5624af18f\",\"urls\":[\"bzz-raw://ceeb5e81effa0f076c5630c756dfcf1548d09f822b255a0a6ee01e54de8c8ae2\",\"dweb:/ipfs/QmSMoMNPRhPMnuJNvWa6S59XRfycGz9o2ApNp63bUW6TdX\"],\"license\":\"MIT\"},\"node_modules/@bananapus/core/src/structs/JBRuleset.sol\":{\"keccak256\":\"0x15b2bf3174d84846a91ccbf5a344dfb125b55ed9cf50102db8d6868844225189\",\"urls\":[\"bzz-raw://647416b025dbd941094db89cbc69f755c155bd6c87be3f322394ccc4a8e0442d\",\"dweb:/ipfs/QmTCL9xcHnxQ4t5AmCPoZvXDUPW5xhzhyyXYbkMdyg44au\"],\"license\":\"MIT\"},\"node_modules/@bananapus/core/src/structs/JBSingleAllowanceContext.sol\":{\"keccak256\":\"0x5bcd5b3abafe9137ee451b112fcac473b4d48858544279d38d0c56dea5271f44\",\"urls\":[\"bzz-raw://5f17a870c2f1797a18918ab3dc6f404f0224d9e415815c708654a17686cd62c0\",\"dweb:/ipfs/QmWMDffMMrj7ZXquTHSQt8VQm5owo94BdPpJ93NfSp2jrn\"],\"license\":\"MIT\"},\"node_modules/@bananapus/core/src/structs/JBTokenAmount.sol\":{\"keccak256\":\"0x5cf0626b73a596c1e2da17c89ae039a7c0374310b060d48568d3b6c11fbe6180\",\"urls\":[\"bzz-raw://63348b50be95e2995409394a17caffc563a646f0972650a1230bf864fbd3219b\",\"dweb:/ipfs/QmZXZpS3SbFD5nWaCauf6AqbEhLURv5qsKHpThBvQgDU6u\"],\"license\":\"MIT\"},\"node_modules/@bananapus/permission-ids/src/JBPermissionIds.sol\":{\"keccak256\":\"0xf61109f6b217a80d5e5391f548fb6f2e451f7dbee3fabfc04cf17e88722203bc\",\"urls\":[\"bzz-raw://ac776ab1cd621c22bd7973471acdfa187f3abc659ad9a3ef6ed10b6447dfcf9c\",\"dweb:/ipfs/QmYLbaHt68qcuMzkiKpe96jMjiWUq1F3u8yMhxmZ3pnnWu\"],\"license\":\"MIT\"},\"node_modules/@openzeppelin/contracts/access/Ownable.sol\":{\"keccak256\":\"0xff6d0bb2e285473e5311d9d3caacb525ae3538a80758c10649a4d61029b017bb\",\"urls\":[\"bzz-raw://8ed324d3920bb545059d66ab97d43e43ee85fd3bd52e03e401f020afb0b120f6\",\"dweb:/ipfs/QmfEckWLmZkDDcoWrkEvMWhms66xwTLff9DDhegYpvHo1a\"],\"license\":\"MIT\"},\"node_modules/@openzeppelin/contracts/token/ERC20/IERC20.sol\":{\"keccak256\":\"0xc6a8ff0ea489379b61faa647490411b80102578440ab9d84e9a957cc12164e70\",\"urls\":[\"bzz-raw://0ea104e577e63faea3b69c415637e99e755dcbf64c5833d7140c35a714d6d90c\",\"dweb:/ipfs/Qmau6x4Ns9XdyynRCNNp3RhLqijJjFm7z5fyZazfYFGYdq\"],\"license\":\"MIT\"},\"node_modules/@openzeppelin/contracts/token/ERC20/extensions/IERC20Metadata.sol\":{\"keccak256\":\"0xaa761817f6cd7892fcf158b3c776b34551cde36f48ff9703d53898bc45a94ea2\",\"urls\":[\"bzz-raw://0ad7c8d4d08938c8dfc43d75a148863fb324b80cf53e0a36f7e5a4ac29008850\",\"dweb:/ipfs/QmcrhfPgVNf5mkdhQvy1pMv51TFokD3Y4Wa5WZhFqVh8UV\"],\"license\":\"MIT\"},\"node_modules/@openzeppelin/contracts/token/ERC20/extensions/IERC20Permit.sol\":{\"keccak256\":\"0x6008dabfe393240d73d7dd7688033f72740d570aa422254d29a7dce8568f3aff\",\"urls\":[\"bzz-raw://f5196ec75139918c6c7bb4251b36395e668f1fa6d206beba7e7520e74913940d\",\"dweb:/ipfs/QmSyqjksXxmm2mCG6qRd1yuwLykypkSVBbnBnGqJRcuJMi\"],\"license\":\"MIT\"},\"node_modules/@openzeppelin/contracts/token/ERC20/utils/SafeERC20.sol\":{\"keccak256\":\"0x37bb49513c49c87c4642a891b13b63571bc87013dde806617aa1efb54605f386\",\"urls\":[\"bzz-raw://b3036b3a83b7c48f96641f2a9002b9f2dcb6a5958dd670894ada21ae8229b3d0\",\"dweb:/ipfs/QmUNfSBdoVtjhETaUJCYcaC7pTMgbhht926tJ2uXJbiVd3\"],\"license\":\"MIT\"},\"node_modules/@openzeppelin/contracts/token/ERC721/IERC721.sol\":{\"keccak256\":\"0x5ef46daa3b58ef2702279d514780316efaa952915ee1aa3396f041ee2982b0b4\",\"urls\":[\"bzz-raw://2f8f2a76e23b02fc69e8cd24c3cb47da6c7af3a2d6c3a382f8ac25c6e094ade7\",\"dweb:/ipfs/QmPV4ZS4tPVv4mTCf9ejyZ1ai57EEibDRj7mN2ARDCLV5n\"],\"license\":\"MIT\"},\"node_modules/@openzeppelin/contracts/utils/Address.sol\":{\"keccak256\":\"0xaf28a975a78550e45f65e559a3ad6a5ad43b9b8a37366999abd1b7084eb70721\",\"urls\":[\"bzz-raw://b7bd24e224f67f65bfadf85dc2929fa965456bb2415478bd0125471b5ce35245\",\"dweb:/ipfs/QmRaydGr8BTHs1kvaZfsNU69pKzUAGFrvABn1KiRSbE51y\"],\"license\":\"MIT\"},\"node_modules/@openzeppelin/contracts/utils/Context.sol\":{\"keccak256\":\"0x493033a8d1b176a037b2cc6a04dad01a5c157722049bbecf632ca876224dd4b2\",\"urls\":[\"bzz-raw://6a708e8a5bdb1011c2c381c9a5cfd8a9a956d7d0a9dc1bd8bcdaf52f76ef2f12\",\"dweb:/ipfs/Qmax9WHBnVsZP46ZxEMNRQpLQnrdE4dK8LehML1Py8FowF\"],\"license\":\"MIT\"},\"node_modules/@openzeppelin/contracts/utils/introspection/IERC165.sol\":{\"keccak256\":\"0x4296879f55019b23e135000eb36896057e7101fb7fb859c5ef690cf14643757b\",\"urls\":[\"bzz-raw://87b3541437c8c443ccd36795e56a338ed12855eec17f8da624511b8d1a7e14df\",\"dweb:/ipfs/QmeJQCtZrQjtJLr6u7ZHWeH3pBnjtLWzvRrKViAi7UZqxL\"],\"license\":\"MIT\"},\"node_modules/@uniswap/permit2/src/interfaces/IAllowanceTransfer.sol\":{\"keccak256\":\"0x37f0ac203b6ef605c9533e1a739477e8e9dcea90710b40e645a367f8a21ace29\",\"urls\":[\"bzz-raw://e0104d72aeaec1cd66cc232e7de7b7ead08608efcc179491b8a66387614670b0\",\"dweb:/ipfs/QmfAZDyuNC9FXXbnJUwqHNwmAK6uRrXxtWEytLsxjskPsN\"],\"license\":\"MIT\"},\"node_modules/@uniswap/permit2/src/interfaces/IEIP712.sol\":{\"keccak256\":\"0xfdccf2b9639070803cd0e4198427fb0df3cc452ca59bd3b8a0d957a9a4254138\",\"urls\":[\"bzz-raw://f7c936ac42ce89e827db905a1544397f8bdf46db34cdb6aa1b90dea42fdb4c72\",\"dweb:/ipfs/QmVgurxo1N31qZqkPBirw9Z7S9tLYmv6jSwQp8R8ur2cBk\"],\"license\":\"MIT\"},\"node_modules/@uniswap/permit2/src/interfaces/IPermit2.sol\":{\"keccak256\":\"0xaa631cc9f53e699301d94233007110a345e6779011def484e8dd97b8fe0af771\",\"urls\":[\"bzz-raw://fc0502cf19c9c18f320a3001201e89e350393b75837f6b7971de18b2de06f30d\",\"dweb:/ipfs/QmT9SfhdJ7VJNNrf94g4H5usyi7ShqWGx7Cqsz9jZTjX96\"],\"license\":\"MIT\"},\"node_modules/@uniswap/permit2/src/interfaces/ISignatureTransfer.sol\":{\"keccak256\":\"0xe6df9966f8841dc3958ee86169c89de97e7f614c81c28b9dc947b12d732df64e\",\"urls\":[\"bzz-raw://3d4eafdee7f48c3be8350a94eb6edd0bfb2af2c105df65787a77174f356c0317\",\"dweb:/ipfs/QmY1j2adeeAhNpn6cUuthemxGCdLXHTfyMh9yTKsY4mZ2d\"],\"license\":\"MIT\"},\"node_modules/@uniswap/v3-core/contracts/interfaces/IUniswapV3Pool.sol\":{\"keccak256\":\"0x4e64844c56061cd90e0a80de73534a9166704c43eed579eb83f90bc2780ce968\",\"urls\":[\"bzz-raw://cba4fab5cebdddf644b901994a7f0f52b98885d4c56012f4dc51d52c2bf9de0e\",\"dweb:/ipfs/QmVyyrRmqXrAiapewWunRVgiPVFJHpH2hKiE1py1svMSNV\"],\"license\":\"GPL-2.0-or-later\"},\"node_modules/@uniswap/v3-core/contracts/interfaces/callback/IUniswapV3SwapCallback.sol\":{\"keccak256\":\"0x3f485fb1a44e8fbeadefb5da07d66edab3cfe809f0ac4074b1e54e3eb3c4cf69\",\"urls\":[\"bzz-raw://095ce0626b41318c772b3ebf19d548282607f6a8f3d6c41c13edfbd5370c8652\",\"dweb:/ipfs/QmVDZfJJ89UUCE1hMyzqpkZAtQ8jUsBgZNE5AMRG7RzRFS\"],\"license\":\"GPL-2.0-or-later\"},\"node_modules/@uniswap/v3-core/contracts/interfaces/pool/IUniswapV3PoolActions.sol\":{\"keccak256\":\"0x9453dd0e7442188667d01d9b65de3f1e14e9511ff3e303179a15f6fc267f7634\",\"urls\":[\"bzz-raw://982f4328f956c3e60e67501e759eb292ac487f76460c774c50e9ae4fcc92aae5\",\"dweb:/ipfs/QmRnzEDsaqtd9PJEVcgQi7p5aV5pMSvRUoGZJAdwFUJxgZ\"],\"license\":\"GPL-2.0-or-later\"},\"node_modules/@uniswap/v3-core/contracts/interfaces/pool/IUniswapV3PoolDerivedState.sol\":{\"keccak256\":\"0xe603ac5b17ecdee73ba2b27efdf386c257a19c14206e87eee77e2017b742d9e5\",\"urls\":[\"bzz-raw://8febc9bdb399a4d94bb89f5377732652e2400e4a8dee808201ade6848f9004e7\",\"dweb:/ipfs/QmaKDqYYFU4d2W2iN77aDHptfbFmYZRrMYXHeGpJmM8C1c\"],\"license\":\"GPL-2.0-or-later\"},\"node_modules/@uniswap/v3-core/contracts/interfaces/pool/IUniswapV3PoolErrors.sol\":{\"keccak256\":\"0xf80abf13fb1fafc127ba4e792f240dd8ea7c8c893978cdfd8439c27fae9a037b\",\"urls\":[\"bzz-raw://b04fc72a656bbf3631e9c2e67b9870a2d9d235185e833fe050e9606e6816a9aa\",\"dweb:/ipfs/QmUcz4bkEkJ9pwzFu1C3n97hBQ3st9U6qTAqCdyFwddKco\"],\"license\":\"GPL-2.0-or-later\"},\"node_modules/@uniswap/v3-core/contracts/interfaces/pool/IUniswapV3PoolEvents.sol\":{\"keccak256\":\"0x8071514d0fe5d17d6fbd31c191cdfb703031c24e0ece3621d88ab10e871375cd\",\"urls\":[\"bzz-raw://d0b571930cc7488b1d546a7e9cea7c52d8b3c4e207da657ed0e0db7343b8cd03\",\"dweb:/ipfs/QmaGK6vVwB95QSTR1XMYvrh7ivYAYZxi3fD7v6VMA4jZ39\"],\"license\":\"GPL-2.0-or-later\"},\"node_modules/@uniswap/v3-core/contracts/interfaces/pool/IUniswapV3PoolImmutables.sol\":{\"keccak256\":\"0xf6e5d2cd1139c4c276bdbc8e1d2b256e456c866a91f1b868da265c6d2685c3f7\",\"urls\":[\"bzz-raw://b99c8c9ae8e27ee6559e5866bea82cbc9ffc8247f8d15b7422a4deb287d4d047\",\"dweb:/ipfs/QmfL8gaqt3ffAnm6nVj5ksuNpLygXuL3xq5VBqrkwC2JJ3\"],\"license\":\"GPL-2.0-or-later\"},\"node_modules/@uniswap/v3-core/contracts/interfaces/pool/IUniswapV3PoolOwnerActions.sol\":{\"keccak256\":\"0x759b78a2918af9e99e246dc3af084f654e48ef32bb4e4cb8a966aa3dcaece235\",\"urls\":[\"bzz-raw://64144fb96e1c7fdba87305acadb98a198d26a3d46c097cb3a666e567f6f29735\",\"dweb:/ipfs/QmUnWVwN9FKB9uV5Pr8YfLpWZnYM2DENnRMaadZ492JS9u\"],\"license\":\"GPL-2.0-or-later\"},\"node_modules/@uniswap/v3-core/contracts/interfaces/pool/IUniswapV3PoolState.sol\":{\"keccak256\":\"0x44fa2ce1182f6c2f6bead3d1737804bf7e112252ae86e0f2e92f9b8249603f43\",\"urls\":[\"bzz-raw://54154e8665b98d65f5dc91b256551852cb47882180b501b260657122d207c0ea\",\"dweb:/ipfs/QmcfemK1A2PXYrWB5SBFGERpMCderbFRb8BtTzQDj1sUBp\"],\"license\":\"GPL-2.0-or-later\"},\"node_modules/@uniswap/v3-core/contracts/libraries/FullMath.sol\":{\"keccak256\":\"0x7825565a4bb2a34a1dc96bbfead755785dfb0df8ef81bd934c43023689685645\",\"urls\":[\"bzz-raw://8f44f4614d31e3d4864c7eb13620555253b84f6a69180f8745b7c6e246a9d125\",\"dweb:/ipfs/QmfNQUcXj3KL8h9u5PqbtEC6yRtwDbKNb48uMPjdwxsKnd\"],\"license\":\"MIT\"},\"node_modules/@uniswap/v3-core/contracts/libraries/TickMath.sol\":{\"keccak256\":\"0x5c57de03a91cc2ec8939865dbbcb0197bb6c353b711075eefd8e0fca5e102129\",\"urls\":[\"bzz-raw://1e994c24fd891ef8a3f5dbf5eba42b34feaf05e0376a29f91322faa18054449c\",\"dweb:/ipfs/QmNdUJGUQxd1dPkMbnA5f5UNqakxRkQE5r7bTZJAuHeapS\"],\"license\":\"GPL-2.0-or-later\"},\"node_modules/@uniswap/v3-periphery/contracts/libraries/OracleLibrary.sol\":{\"keccak256\":\"0xe313f89c69c0f1c91f0722868313b4ceb14479b3e7a0abf52a1b9bbd9c18e81b\",\"urls\":[\"bzz-raw://8ad09b061f3f533c116618c20cf01510108eebebb7ff8847b0f245b8ba368d53\",\"dweb:/ipfs/QmU6vdi5JjJfjK2KqonWvRg9NeuQWarj4B1YFN22Dh9VJM\"],\"license\":\"GPL-2.0-or-later\"},\"src/JBSwapTerminal.sol\":{\"keccak256\":\"0xcb3ab45bb1f945aff2ef1fdbac403e394c1c1b742a1815f4a4b0ceaf184f65bc\",\"urls\":[\"bzz-raw://956ee430b09f2f6cbc1146272daff0fe0d79a0d6d2c246041a1d848139cbeefd\",\"dweb:/ipfs/QmToBqwYQrJKGcV1Gs3vLkQJ9nYf6v6UCWfyVVtM9bzZyE\"],\"license\":\"MIT\"},\"src/interfaces/IWETH9.sol\":{\"keccak256\":\"0x50083bcaca6c1a8d12c79116fab4f6d8cd452a510cb3f00c4a8bc3a54678efb7\",\"urls\":[\"bzz-raw://726f187112d0953c14bff8099a8c9ce1ead47eb25e90839f77b100feaaf16127\",\"dweb:/ipfs/QmTEnMENpLjcTQLMwz4kEUiQHfiTkaZT3TL37nQ8JiRYh5\"],\"license\":\"GPL-2.0-or-later\"}},\"version\":1}",
			"args": [
				"0x2ca466eB84DD69A99E25d10BBbdA6e1B3c562c49",
				"0x6B8340b759d72E08b3fb674B48547E80631007cb",
				"0xCd7112aE7c3b2505F0795c1ba965e5694c25d696",
				"0x000000000022D473030F116dDEE9F6B43aC78BA3",
				"0x823b92d6a4b2AED4b15675c7917c9f922ea8ADAD",
				"0x7b79995e5f793A07Bc00c21412e50Ecae098E7f9",
				"0x000000000000000000000000000000000000EEEe"
			],
			"bytecode": "0x6101606040523480156200001257600080fd5b5060405162003aa038038062003aa083398101604081905262000035916200011a565b6001600160a01b03808716608052839081166200006c57604051631e4fbdf760e01b81526000600482015260240160405180910390fd5b6200007781620000b1565b506001600160a01b0396871660a05293861660c05291851660e0525083166101005290911661012081905261eeee146101405250620001c5565b600080546001600160a01b038381166001600160a01b0319831681178455604051919092169283917f8be0079c531659141344cd1fd0a4f28419497f9722a3daafe3b4186f6b6457e09190a35050565b6001600160a01b03811681146200011757600080fd5b50565b600080600080600080600060e0888a0312156200013657600080fd5b8751620001438162000101565b6020890151909750620001568162000101565b6040890151909650620001698162000101565b60608901519095506200017c8162000101565b60808901519094506200018f8162000101565b60a0890151909350620001a28162000101565b60c0890151909250620001b58162000101565b8091505092959891949750929550565b60805160a05160c05160e0516101005161012051610140516137df620002c160003960008181610e0a015281816112160152818161146a0152818161164b01528181611b140152611f390152600081816101eb01528181610d2601528181610e390152818161113201528181611245015261149001526000818161015f015281816104d501528181611026015281816114b5015281816115a90152611b4e0152600081816103b201528181611e2a015261204401526000818161043a01528181610d51015261115f015260008181610257015281816106650152610ef50152600081816105880152818161132c01526113d501526137df6000f3fe60806040526004361061014f5760003560e01c80638da5cb5b116100b6578063cc6801271161006f578063cc68012714610517578063e28b54111461053b578063f2fde38b14610556578063f434c91414610576578063fa461e33146105aa578063fef43257146105ca57600080fd5b80638da5cb5b1461045c57806398ea47fc1461047a5780639e6eec051461049a578063ac905114146104ad578063ad5c4648146104c3578063c361534c146104f757600080fd5b806340873cb51161010857806340873cb51461032f578063515a9293146103735780636afdd850146103a0578063715018a6146103d45780637c5e9c24146103e957806388bc2ef31461042857600080fd5b806301ffc9a7146101a45780630392ef94146101d957806324e26dc514610225578063293c4999146102455780632c1ae882146102795780633a01714f1461029c57600080fd5b3661019f57336001600160a01b037f0000000000000000000000000000000000000000000000000000000000000000161461019d57604051635e7e9adf60e11b815260040160405180910390fd5b005b600080fd5b3480156101b057600080fd5b506101c46101bf366004612aa6565b6105dd565b60405190151581526020015b60405180910390f35b3480156101e557600080fd5b5061020d7f000000000000000000000000000000000000000000000000000000000000000081565b6040516001600160a01b0390911681526020016101d0565b34801561023157600080fd5b5061019d610240366004612ae5565b61062f565b34801561025157600080fd5b5061020d7f000000000000000000000000000000000000000000000000000000000000000081565b34801561028557600080fd5b5061028e600081565b6040519081526020016101d0565b3480156102a857600080fd5b506103226102b7366004612b27565b604080516060808201835260008083526020808401829052928401819052948552600382528285206001600160a01b03948516865282529382902082519485018352549283168452600160a01b830460ff1690840152600160a81b90910463ffffffff169082015290565b6040516101d09190612b57565b34801561033b57600080fd5b5061034f61034a366004612b27565b610871565b6040805163ffffffff90931683526001600160a01b039091166020830152016101d0565b34801561037f57600080fd5b5061039361038e366004612b8a565b6108e7565b6040516101d09190612ba3565b3480156103ac57600080fd5b5061020d7f000000000000000000000000000000000000000000000000000000000000000081565b3480156103e057600080fd5b5061019d610c66565b3480156103f557600080fd5b50610409610404366004612b27565b610c7a565b604080516001600160a01b0390931683529015156020830152016101d0565b34801561043457600080fd5b5061020d7f000000000000000000000000000000000000000000000000000000000000000081565b34801561046857600080fd5b506000546001600160a01b031661020d565b34801561048657600080fd5b5061019d610495366004612c17565b505050565b61019d6104a8366004612ce6565b610d08565b3480156104b957600080fd5b5061020d61271081565b3480156104cf57600080fd5b5061020d7f000000000000000000000000000000000000000000000000000000000000000081565b34801561050357600080fd5b5061019d610512366004612d8e565b610ebf565b34801561052357600080fd5b5061028e610532366004612dea565b60009392505050565b34801561054757600080fd5b5061028e610532366004612ae5565b34801561056257600080fd5b5061019d610571366004612e16565b610fb5565b34801561058257600080fd5b5061020d7f000000000000000000000000000000000000000000000000000000000000000081565b3480156105b657600080fd5b5061019d6105c5366004612e33565b610ff8565b61028e6105d8366004612e86565b611114565b60006001600160e01b03198216632f720bd160e21b148061060e57506001600160e01b031982166306afdd8560e41b145b8061062957506001600160e01b031982166301ffc9a760e01b145b92915050565b8215801561064757506000546001600160a01b031633145b6106e0576040516331a9108f60e11b8152600481018490526106e0907f00000000000000000000000000000000000000000000000000000000000000006001600160a01b031690636352211e90602401602060405180830381865afa1580156106b4573d6000803e3d6000fd5b505050506040513d601f19601f820116820180604052508101906106d89190612f3a565b84601a6112e2565b6040518060400160405280826001600160a01b03168152602001610702611466565b6001600160a01b03908116858216908110909252600086815260026020908152604080832085845282529182902085518154968301511515600160a01b026001600160a81b0319909716941693909317949094179091558051606081018252828152815163313ce56760e01b815291519093848101939263313ce56792600480830193928290030181865afa15801561079f573d6000803e3d6000fd5b505050506040513d601f19601f820116820180604052508101906107c39190612f57565b60ff908116825263ffffffff80861660209384015260008781526003845260408082206001600160a01b03988916808452908652818320875181548989015199850151909616600160a81b0263ffffffff60a81b1999909716600160a01b026001600160a81b03199096169a1699909917939093179590951692909217909555948552600481529084208054600181018255908552932090920180546001600160a01b031916909117905550565b60008281526001602090815260408083206001600160a01b038516845290915281205481908082036108d757506001600160a01b03831660009081527fa6eef7e35abe7026729641147f7915573c7e97b47efa546f5f6e3230263bcb4960205260409020545b915050602081901c5b9250929050565b600081815260046020908152604080832080548251818502810185019093528083526060949383018282801561094657602002820191906000526020600020905b81546001600160a01b03168152600190910190602001808311610928575b50506000808052600460209081527f17ef568e3e12ab5b9c7254a8d58478811de00f9e6eb34345acd53bf8fd09d3ec805460408051828502810185019091528181529798509296955093509091508301828280156109cd57602002820191906000526020600020905b81546001600160a01b031681526001909101906020018083116109af575b505050505090506000815183516109e49190612f90565b67ffffffffffffffff8111156109fc576109fc612fa3565b604051908082528060200260200182016040528015610a4757816020015b6040805160608101825260008082526020808301829052928201528252600019909201910181610a1a5790505b50835190915060005b8451811015610b0157600360008881526020019081526020016000206000868381518110610a8057610a80612fb9565b6020908102919091018101516001600160a01b039081168352828201939093526040918201600020825160608101845290549384168152600160a01b840460ff1691810191909152600160a81b90920463ffffffff16908201528351849083908110610aee57610aee612fb9565b6020908102919091010152600101610a50565b5060005b8351811015610c4f576000805b8651811015610b7757858381518110610b2d57610b2d612fb9565b60200260200101516001600160a01b0316878281518110610b5057610b50612fb9565b60200260200101516001600160a01b031603610b6f5760019150610b77565b600101610b12565b5080610c46576000808052600360205285517f3617319a054d772f909f7c479a2cebe5066e836a939412e32403c99029b92eff9190879085908110610bbe57610bbe612fb9565b6020908102919091018101516001600160a01b039081168352828201939093526040918201600020825160608101845290549384168152600160a01b840460ff1691810191909152600160a81b90920463ffffffff16908201528451859085908110610c2c57610c2c612fb9565b60200260200101819052508280610c4290612fcf565b9350505b50600101610b05565b508151811015610c5d578082525b50949350505050565b610c6e6114d7565b610c786000611504565b565b60008281526002602090815260408083206001600160a01b0385811685529252909120805491821691600160a01b900460ff169082610d00575050506001600160a01b0381811660009081527fac33ff75c19e70fe83507db0d683fd3465c996598dc972688b7ace676c89077b60205260409020805491821691600160a01b900460ff16905b509250929050565b604051630862026560e41b8152600481018990526001600160a01b037f0000000000000000000000000000000000000000000000000000000000000000811660248301526000917f000000000000000000000000000000000000000000000000000000000000000090911690638620265090604401602060405180830381865afa158015610d9a573d6000803e3d6000fd5b505050506040513d601f19601f82011682018060405250810190610dbe9190612f3a565b90506001600160a01b038116610de757604051630faa917b60e11b815260040160405180910390fd5b6000610df78a8a8a858888611554565b9050816001600160a01b0316639e6eec057f0000000000000000000000000000000000000000000000000000000000000000610e34576000610e36565b825b8c7f0000000000000000000000000000000000000000000000000000000000000000858c8c8c8c8c6040518a63ffffffff1660e01b8152600401610e81989796959493929190613011565b6000604051808303818588803b158015610e9a57600080fd5b505af1158015610eae573d6000803e3d6000fd5b505050505050505050505050505050565b83158015610ed757506000546001600160a01b031633145b610f70576040516331a9108f60e11b815260048101859052610f70907f00000000000000000000000000000000000000000000000000000000000000006001600160a01b031690636352211e90602401602060405180830381865afa158015610f44573d6000803e3d6000fd5b505050506040513d601f19601f82011682018060405250810190610f689190612f3a565b85601b6112e2565b60009384526001602090815260408086206001600160a01b03959095168652938152929093209290911b640100000000600160c01b031663ffffffff91909116179055565b610fbd6114d7565b6001600160a01b038116610fec57604051631e4fbdf760e01b8152600060048201526024015b60405180910390fd5b610ff581611504565b50565b60008061100783850185613069565b91509150600080871261101a578661101c565b855b90508115611099577f00000000000000000000000000000000000000000000000000000000000000006001600160a01b031663d0e30db0826040518263ffffffff1660e01b81526004016000604051808303818588803b15801561107f57600080fd5b505af1158015611093573d6000803e3d6000fd5b50505050505b60405163a9059cbb60e01b8152336004820152602481018290526001600160a01b0384169063a9059cbb906044016020604051808303816000875af11580156110e6573d6000803e3d6000fd5b505050506040513d601f19601f8201168201806040525081019061110a9190613097565b5050505050505050565b604051630862026560e41b8152600481018a90526001600160a01b037f00000000000000000000000000000000000000000000000000000000000000008116602483015260009182917f00000000000000000000000000000000000000000000000000000000000000001690638620265090604401602060405180830381865afa1580156111a6573d6000803e3d6000fd5b505050506040513d601f19601f820116820180604052508101906111ca9190612f3a565b90506001600160a01b0381166111f357604051630faa917b60e11b815260040160405180910390fd5b60006112038c8c8c858989611554565b9050816001600160a01b031663fef432577f0000000000000000000000000000000000000000000000000000000000000000611240576000611242565b825b8e7f0000000000000000000000000000000000000000000000000000000000000000858e8e8e8e8e8e6040518b63ffffffff1660e01b815260040161128f999897969594939291906130b4565b60206040518083038185885af11580156112ad573d6000803e3d6000fd5b50505050506040513d601f19601f820116820180604052508101906112d29190613118565b509b9a5050505050505050505050565b336001600160a01b0384168114801590611399575060405163c161c93f60e01b81526001600160a01b038281166004830152858116602483015260448201859052606482018490527f0000000000000000000000000000000000000000000000000000000000000000169063c161c93f90608401602060405180830381865afa158015611373573d6000803e3d6000fd5b505050506040513d601f19601f820116820180604052508101906113979190613097565b155b8015611442575060405163c161c93f60e01b81526001600160a01b038281166004830152858116602483015260006044830152606482018490527f0000000000000000000000000000000000000000000000000000000000000000169063c161c93f90608401602060405180830381865afa15801561141c573d6000803e3d6000fd5b505050506040513d601f19601f820116820180604052508101906114409190613097565b155b156114605760405163075fd2b160e01b815260040160405180910390fd5b50505050565b60007f00000000000000000000000000000000000000000000000000000000000000006114b257507f000000000000000000000000000000000000000000000000000000000000000090565b507f000000000000000000000000000000000000000000000000000000000000000090565b6000546001600160a01b03163314610c785760405163118cdaa760e01b8152336004820152602401610fe3565b600080546001600160a01b038381166001600160a01b0319831681178455604051919092169283917f8be0079c531659141344cd1fd0a4f28419497f9722a3daafe3b4186f6b6457e09190a35050565b6040805160e081018252600060208201819052918101829052606081018290526080810182905260a0810182905260c081018290528781526001600160a01b03871661eeed19016115e0576001600160a01b037f0000000000000000000000000000000000000000000000000000000000000000166040820152600160608201523460808201526115f7565b6001600160a01b0387166040820152608081018690525b61160784848a84604001516116bf565b151560c08401526001600160a01b0316602083015260a082015261162c818585611828565b6080820152600061163b611466565b90508160600151801561166b57507f00000000000000000000000000000000000000000000000000000000000000005b8061168b5750806001600160a01b031682604001516001600160a01b0316145b1561169c57816080015192506116a8565b6116a5826119b2565b92505b6116b3868285611bbc565b50509695505050505050565b60008060008060006117336116f76040518060400160405280600c81526020016b071756f7465466f72537761760a41b815250611be8565b8a8a8080601f016020809104026020016040519081016040528093929190818152602001838380828437600092019190915250611bfc92505050565b91509150811561175d57808060200190518101906117519190613131565b9196509450925061181c565b60008781526002602090815260408083206001600160a01b038a81168552925290912080549182169550600160a01b90910460ff1693508461180457506001600160a01b0386811660009081527fac33ff75c19e70fe83507db0d683fd3465c996598dc972688b7ace676c89077b6020526040902080549182169550600160a01b90910460ff1693508461180457604051632a12044160e21b815260040160405180910390fd5b61180f858986611da1565b6001600160a01b03169550505b50509450945094915050565b60408301516060840151600091901561184457349150506119ab565b341561186357604051635e7e9adf60e11b815260040160405180910390fd5b6000806118cd611891604051806040016040528060078152602001663832b936b4ba1960c91b815250611be8565b87878080601f016020809104026020016040519081016040528093929190818152602001838380828437600092019190915250611bfc92505050565b91509150811561192d576000818060200190518101906118ed9190613202565b9050876080015181602001516001600160a01b03161015611921576040516317e415a160e11b815260040160405180910390fd5b61192b8185611e28565b505b61193d3330858a60800151611f27565b6040516370a0823160e01b81523060048201526001600160a01b038416906370a0823190602401602060405180830381865afa158015611981573d6000803e3d6000fd5b505050506040513d601f19601f820116820180604052508101906119a59190613118565b93505050505b9392505050565b6040810151600090816119c3611466565b6001600160a01b0316826001600160a01b031610905060008085602001516001600160a01b031663128acb083085896080015187611a1f57611a1a600173fffd8963efd1fc6a506488495d951d5263988d26613302565b611a2f565b611a2f6401000276a36001613329565b60608c810151604080516001600160a01b038e16602082015291151590820152016040516020818303038152906040526040518663ffffffff1660e01b8152600401611a7f959493929190613375565b60408051808303816000875af1158015611a9d573d6000803e3d6000fd5b505050506040513d601f19601f82011682018060405250810190611ac191906133bb565b9150915082611ad05781611ad2565b805b611adb906133df565b94508560a00151851015611b125760a0860151604051630bb50c5d60e41b8152610fe3918791600401918252602082015260400190565b7f000000000000000000000000000000000000000000000000000000000000000015611bb357604051632e1a7d4d60e01b8152600481018690527f00000000000000000000000000000000000000000000000000000000000000006001600160a01b031690632e1a7d4d90602401600060405180830381600087803b158015611b9a57600080fd5b505af1158015611bae573d6000803e3d6000fd5b505050505b50505050919050565b61eeed196001600160a01b03831601611bd457505050565b6104956001600160a01b038316848361209c565b805160208201206000903060601b18610629565b600060606025835111611c2157505060408051602081019091526000808252906108e0565b600083611c3060046020612f90565b81518110611c4057611c40612fb9565b0160209081015160f81c91505b600085611c5b600484612f90565b81518110611c6b57611c6b612fb9565b01602001516001600160f81b03191614801590611c915750611c8e6020836133fb565b81105b15611d9857600085611ca4600484612f90565b81518110611cb457611cb4612fb9565b016020908101518784019091015160f89190911c91506001600160e01b031980891690821603611d8e576000611ceb6020866133fb565b611cf6600986612f90565b101580611d2b575087611d0a600986612f90565b81518110611d1a57611d1a612fb9565b01602001516001600160f81b031916155b611d6457602088611d3d600987612f90565b81518110611d4d57611d4d612fb9565b0160200151611d5f919060f81c6133fb565b611d67565b87515b90506001611d8089611d7a6020876133fb565b84612126565b9650965050505050506108e0565b5050600501611c4d565b50509250929050565b6000806000611db08587610871565b915091506000611dc0878461216c565b5090506000611dce826123b6565b905085611dfb57612710611de28483613412565b611dec919061345a565b611df69082613329565b611e1c565b612710611e088483613412565b611e12919061345a565b611e1c9082613302565b98975050505050505050565b7f00000000000000000000000000000000000000000000000000000000000000006001600160a01b0316632b67b5703360405180606001604052806040518060800160405280876001600160a01b0316815260200188602001516001600160a01b03168152602001886040015165ffffffffffff168152602001886060015165ffffffffffff168152508152602001306001600160a01b03168152602001866000015181525085608001516040518463ffffffff1660e01b8152600401611ef193929190613480565b600060405180830381600087803b158015611f0b57600080fd5b505af1158015611f1f573d6000803e3d6000fd5b505050505050565b306001600160a01b03851603611f80577f000000000000000000000000000000000000000000000000000000000000000015611f6c57611f6783826126d9565b611460565b611f676001600160a01b0383168483612770565b604051636eb1769f60e11b81526001600160a01b03858116600483015230602483015282919084169063dd62ed3e90604401602060405180830381865afa158015611fcf573d6000803e3d6000fd5b505050506040513d601f19601f82011682018060405250810190611ff39190613118565b1061200d57611f676001600160a01b0383168585846127cf565b604051631b63c28b60e11b81526001600160a01b0385811660048301528481166024830152828116604483015283811660648301527f000000000000000000000000000000000000000000000000000000000000000016906336c7851690608401600060405180830381600087803b15801561208857600080fd5b505af115801561110a573d6000803e3d6000fd5b604051636eb1769f60e11b81523060048201526001600160a01b0383811660248301526000919085169063dd62ed3e90604401602060405180830381865afa1580156120ec573d6000803e3d6000fd5b505050506040513d601f19601f820116820180604052508101906121109190613118565b905061146084846121218585612f90565b612808565b60608282036040519150602081830101604052808252508260208501016020820160005b8481101561216257828101518282015260200161214a565b5050509392505050565b6000808263ffffffff166000036121aa5760405162461bcd60e51b8152602060048201526002602482015261042560f41b6044820152606401610fe3565b60408051600280825260608201835260009260208301908036833701905050905083816000815181106121df576121df612fb9565b602002602001019063ffffffff16908163ffffffff168152505060008160018151811061220e5761220e612fb9565b602002602001019063ffffffff16908163ffffffff1681525050600080866001600160a01b031663883bdbfd846040518263ffffffff1660e01b815260040161225791906134f4565b600060405180830381865afa158015612274573d6000803e3d6000fd5b505050506040513d6000823e601f3d908101601f1916820160405261229c91908101906135ce565b915091506000826000815181106122b5576122b5612fb9565b6020026020010151836001815181106122d0576122d0612fb9565b60200260200101516122e2919061369a565b90506000826000815181106122f9576122f9612fb9565b60200260200101518360018151811061231457612314612fb9565b60200260200101516123269190613302565b905061233863ffffffff8916836136c7565b965060008260060b12801561235e575061235863ffffffff891683613705565b60060b15155b15612371578661236d81613727565b9750505b600061238a6001600160a01b0363ffffffff8b1661374a565b90506123a7640100000000600160c01b03602084901b1682613773565b96505050505050509250929050565b60008060008360020b126123cd578260020b6123d5565b8260020b6000035b9050620d89e88111156123fb576040516315e4079d60e11b815260040160405180910390fd5b60008160011660000361241257600160801b612424565b6ffffcb933bd6fad37aa2d162d1a5940015b70ffffffffffffffffffffffffffffffffff1690506002821615612458576ffff97272373d413259a46990580e213a0260801c5b6004821615612477576ffff2e50f5f656932ef12357cf3c7fdcc0260801c5b6008821615612496576fffe5caca7e10e4e61c3624eaa0941cd00260801c5b60108216156124b5576fffcb9843d60f6159c9db58835c9266440260801c5b60208216156124d4576fff973b41fa98c081472e6896dfb254c00260801c5b60408216156124f3576fff2ea16466c96a3843ec78b326b528610260801c5b6080821615612512576ffe5dee046a99a2a811c461f1969c30530260801c5b610100821615612532576ffcbe86c7900a88aedcffc83b479aa3a40260801c5b610200821615612552576ff987a7253ac413176f2b074cf7815e540260801c5b610400821615612572576ff3392b0822b70005940c7a398e4b70f30260801c5b610800821615612592576fe7159475a2c29b7443b29c7fa6e889d90260801c5b6110008216156125b2576fd097f3bdfd2022b8845ad8f792aa58250260801c5b6120008216156125d2576fa9f746462d870fdf8a65dc1f90e061e50260801c5b6140008216156125f2576f70d869a156d2a1b890bb3df62baf32f70260801c5b618000821615612612576f31be135f97d08fd981231505542fcfa60260801c5b62010000821615612633576f09aa508b5b7a84e1c677de54f3e99bc90260801c5b62020000821615612653576e5d6af8dedb81196699c329225ee6040260801c5b62040000821615612672576d2216e584f5fa1ea926041bedfe980260801c5b6208000082161561268f576b048a170391f7dc42444e8fa20260801c5b60008460020b13156126b05780600019816126ac576126ac613444565b0490505b6401000000008106156126c45760016126c7565b60005b60ff16602082901c0192505050919050565b804710156126fc5760405163cd78605960e01b8152306004820152602401610fe3565b6000826001600160a01b03168260405160006040518083038185875af1925050503d8060008114612749576040519150601f19603f3d011682016040523d82523d6000602084013e61274e565b606091505b505090508061049557604051630a12f52160e11b815260040160405180910390fd5b6040516001600160a01b0383811660248301526044820183905261049591859182169063a9059cbb906064015b604051602081830303815290604052915060e01b6020820180516001600160e01b038381831617835250505050612894565b6040516001600160a01b0384811660248301528381166044830152606482018390526114609186918216906323b872dd9060840161279d565b604080516001600160a01b038416602482015260448082018490528251808303909101815260649091019091526020810180516001600160e01b031663095ea7b360e01b17905261285984826128f7565b611460576040516001600160a01b0384811660248301526000604483015261288e91869182169063095ea7b39060640161279d565b61146084825b60006128a96001600160a01b0384168361299f565b905080516000141580156128ce5750808060200190518101906128cc9190613097565b155b1561049557604051635274afe760e01b81526001600160a01b0384166004820152602401610fe3565b6000806000846001600160a01b031684604051612914919061378d565b6000604051808303816000865af19150503d8060008114612951576040519150601f19603f3d011682016040523d82523d6000602084013e612956565b606091505b50915091508180156129805750805115806129805750808060200190518101906129809190613097565b801561299657506000856001600160a01b03163b115b95945050505050565b60606119ab8383600084600080856001600160a01b031684866040516129c5919061378d565b60006040518083038185875af1925050503d8060008114612a02576040519150601f19603f3d011682016040523d82523d6000602084013e612a07565b606091505b5091509150612a17868383612a21565b9695505050505050565b606082612a3657612a3182612a7d565b6119ab565b8151158015612a4d57506001600160a01b0384163b155b15612a7657604051639996b31560e01b81526001600160a01b0385166004820152602401610fe3565b50806119ab565b805115612a8d5780518082602001fd5b604051630a12f52160e11b815260040160405180910390fd5b600060208284031215612ab857600080fd5b81356001600160e01b0319811681146119ab57600080fd5b6001600160a01b0381168114610ff557600080fd5b600080600060608486031215612afa57600080fd5b833592506020840135612b0c81612ad0565b91506040840135612b1c81612ad0565b809150509250925092565b60008060408385031215612b3a57600080fd5b823591506020830135612b4c81612ad0565b809150509250929050565b81516001600160a01b0316815260208083015160ff169082015260408083015163ffffffff169082015260608101610629565b600060208284031215612b9c57600080fd5b5035919050565b6020808252825182820181905260009190848201906040850190845b81811015612c0b57612bf883855180516001600160a01b0316825260208082015160ff169083015260409081015163ffffffff16910152565b9284019260609290920191600101612bbf565b50909695505050505050565b600080600060408486031215612c2c57600080fd5b83359250602084013567ffffffffffffffff80821115612c4b57600080fd5b818601915086601f830112612c5f57600080fd5b813581811115612c6e57600080fd5b8760208260051b8501011115612c8357600080fd5b6020830194508093505050509250925092565b8015158114610ff557600080fd5b60008083601f840112612cb657600080fd5b50813567ffffffffffffffff811115612cce57600080fd5b6020830191508360208285010111156108e057600080fd5b60008060008060008060008060c0898b031215612d0257600080fd5b883597506020890135612d1481612ad0565b9650604089013595506060890135612d2b81612c96565b9450608089013567ffffffffffffffff80821115612d4857600080fd5b612d548c838d01612ca4565b909650945060a08b0135915080821115612d6d57600080fd5b50612d7a8b828c01612ca4565b999c989b5096995094979396929594505050565b60008060008060808587031215612da457600080fd5b843593506020850135612db681612ad0565b9250604085013563ffffffff81168114612dcf57600080fd5b91506060850135612ddf81612ad0565b939692955090935050565b600080600060608486031215612dff57600080fd5b505081359360208301359350604090920135919050565b600060208284031215612e2857600080fd5b81356119ab81612ad0565b60008060008060608587031215612e4957600080fd5b8435935060208501359250604085013567ffffffffffffffff811115612e6e57600080fd5b612e7a87828801612ca4565b95989497509550505050565b600080600080600080600080600060e08a8c031215612ea457600080fd5b8935985060208a0135612eb681612ad0565b975060408a0135965060608a0135612ecd81612ad0565b955060808a0135945060a08a013567ffffffffffffffff80821115612ef157600080fd5b612efd8d838e01612ca4565b909650945060c08c0135915080821115612f1657600080fd5b50612f238c828d01612ca4565b915080935050809150509295985092959850929598565b600060208284031215612f4c57600080fd5b81516119ab81612ad0565b600060208284031215612f6957600080fd5b815160ff811681146119ab57600080fd5b634e487b7160e01b600052601160045260246000fd5b8082018082111561062957610629612f7a565b634e487b7160e01b600052604160045260246000fd5b634e487b7160e01b600052603260045260246000fd5b600060018201612fe157612fe1612f7a565b5060010190565b81835281816020850137506000828201602090810191909152601f909101601f19169091010190565b88815260018060a01b0388166020820152866040820152851515606082015260c06080820152600061304760c083018688612fe8565b82810360a084015261305a818587612fe8565b9b9a5050505050505050505050565b6000806040838503121561307c57600080fd5b823561308781612ad0565b91506020830135612b4c81612c96565b6000602082840312156130a957600080fd5b81516119ab81612c96565b8981526001600160a01b03898116602083015260408201899052871660608201526080810186905260e060a082018190526000906130f59083018688612fe8565b82810360c0840152613108818587612fe8565b9c9b505050505050505050505050565b60006020828403121561312a57600080fd5b5051919050565b60008060006060848603121561314657600080fd5b83519250602084015161315881612ad0565b6040850151909250612b1c81612c96565b60405160a0810167ffffffffffffffff8111828210171561318c5761318c612fa3565b60405290565b604051601f8201601f1916810167ffffffffffffffff811182821017156131bb576131bb612fa3565b604052919050565b805165ffffffffffff811681146131d957600080fd5b919050565b60005b838110156131f95781810151838201526020016131e1565b50506000910152565b6000602080838503121561321557600080fd5b825167ffffffffffffffff8082111561322d57600080fd5b9084019060a0828703121561324157600080fd5b613249613169565b825181528383015161325a81612ad0565b8185015261326a604084016131c3565b604082015261327b606084016131c3565b606082015260808301518281111561329257600080fd5b80840193505086601f8401126132a757600080fd5b8251828111156132b9576132b9612fa3565b6132cb601f8201601f19168601613192565b925080835287858286010111156132e157600080fd5b6132f0818685018787016131de565b50608081019190915295945050505050565b6001600160a01b0382811682821603908082111561332257613322612f7a565b5092915050565b6001600160a01b0381811683821601908082111561332257613322612f7a565b600081518084526133618160208601602086016131de565b601f01601f19169290920160200192915050565b6001600160a01b0386811682528515156020830152604082018590528316606082015260a0608082018190526000906133b090830184613349565b979650505050505050565b600080604083850312156133ce57600080fd5b505080516020909101519092909150565b6000600160ff1b82016133f4576133f4612f7a565b5060000390565b808202811582820484141761062957610629612f7a565b6001600160a01b0382811682821681810283169291811582850482141761343b5761343b612f7a565b50505092915050565b634e487b7160e01b600052601260045260246000fd5b60006001600160a01b038381168061347457613474613444565b92169190910492915050565b600061010060018060a01b0380871684528551818151166020860152816020820151166040860152604081015165ffffffffffff80821660608801528060608401511660808801525050508060208701511660a085015250604085015160c08401528060e0840152612a1781840185613349565b6020808252825182820181905260009190848201906040850190845b81811015612c0b57835163ffffffff1683529284019291840191600101613510565b600067ffffffffffffffff82111561354c5761354c612fa3565b5060051b60200190565b600082601f83011261356757600080fd5b8151602061357c61357783613532565b613192565b8083825260208201915060208460051b87010193508684111561359e57600080fd5b602086015b848110156135c35780516135b681612ad0565b83529183019183016135a3565b509695505050505050565b600080604083850312156135e157600080fd5b825167ffffffffffffffff808211156135f957600080fd5b818501915085601f83011261360d57600080fd5b8151602061361d61357783613532565b82815260059290921b8401810191818101908984111561363c57600080fd5b948201945b8386101561366a5785518060060b811461365b5760008081fd5b82529482019490820190613641565b9188015191965090935050508082111561368357600080fd5b5061369085828601613556565b9150509250929050565b600682810b9082900b03667fffffffffffff198112667fffffffffffff8213171561062957610629612f7a565b60008160060b8360060b806136de576136de613444565b667fffffffffffff198214600019821416156136fc576136fc612f7a565b90059392505050565b60008260060b8061371857613718613444565b808360060b0791505092915050565b60008160020b627fffff19810361374057613740612f7a565b6000190192915050565b6001600160c01b0382811682821681810283169291811582850482141761343b5761343b612f7a565b60006001600160c01b038381168061347457613474613444565b6000825161379f8184602087016131de565b919091019291505056fea26469706673582212208edb9ea193876f5e3bc0562d371d3f7950763545ec6da8b615fba513f42b27dd64736f6c63430008170033",
			"deployedBytecode": "0x60806040526004361061014f5760003560e01c80638da5cb5b116100b6578063cc6801271161006f578063cc68012714610517578063e28b54111461053b578063f2fde38b14610556578063f434c91414610576578063fa461e33146105aa578063fef43257146105ca57600080fd5b80638da5cb5b1461045c57806398ea47fc1461047a5780639e6eec051461049a578063ac905114146104ad578063ad5c4648146104c3578063c361534c146104f757600080fd5b806340873cb51161010857806340873cb51461032f578063515a9293146103735780636afdd850146103a0578063715018a6146103d45780637c5e9c24146103e957806388bc2ef31461042857600080fd5b806301ffc9a7146101a45780630392ef94146101d957806324e26dc514610225578063293c4999146102455780632c1ae882146102795780633a01714f1461029c57600080fd5b3661019f57336001600160a01b037f0000000000000000000000007b79995e5f793a07bc00c21412e50ecae098e7f9161461019d57604051635e7e9adf60e11b815260040160405180910390fd5b005b600080fd5b3480156101b057600080fd5b506101c46101bf366004612aa6565b6105dd565b60405190151581526020015b60405180910390f35b3480156101e557600080fd5b5061020d7f000000000000000000000000000000000000000000000000000000000000eeee81565b6040516001600160a01b0390911681526020016101d0565b34801561023157600080fd5b5061019d610240366004612ae5565b61062f565b34801561025157600080fd5b5061020d7f0000000000000000000000002ca466eb84dd69a99e25d10bbbda6e1b3c562c4981565b34801561028557600080fd5b5061028e600081565b6040519081526020016101d0565b3480156102a857600080fd5b506103226102b7366004612b27565b604080516060808201835260008083526020808401829052928401819052948552600382528285206001600160a01b03948516865282529382902082519485018352549283168452600160a01b830460ff1690840152600160a81b90910463ffffffff169082015290565b6040516101d09190612b57565b34801561033b57600080fd5b5061034f61034a366004612b27565b610871565b6040805163ffffffff90931683526001600160a01b039091166020830152016101d0565b34801561037f57600080fd5b5061039361038e366004612b8a565b6108e7565b6040516101d09190612ba3565b3480156103ac57600080fd5b5061020d7f000000000000000000000000000000000022d473030f116ddee9f6b43ac78ba381565b3480156103e057600080fd5b5061019d610c66565b3480156103f557600080fd5b50610409610404366004612b27565b610c7a565b604080516001600160a01b0390931683529015156020830152016101d0565b34801561043457600080fd5b5061020d7f000000000000000000000000cd7112ae7c3b2505f0795c1ba965e5694c25d69681565b34801561046857600080fd5b506000546001600160a01b031661020d565b34801561048657600080fd5b5061019d610495366004612c17565b505050565b61019d6104a8366004612ce6565b610d08565b3480156104b957600080fd5b5061020d61271081565b3480156104cf57600080fd5b5061020d7f0000000000000000000000007b79995e5f793a07bc00c21412e50ecae098e7f981565b34801561050357600080fd5b5061019d610512366004612d8e565b610ebf565b34801561052357600080fd5b5061028e610532366004612dea565b60009392505050565b34801561054757600080fd5b5061028e610532366004612ae5565b34801561056257600080fd5b5061019d610571366004612e16565b610fb5565b34801561058257600080fd5b5061020d7f0000000000000000000000006b8340b759d72e08b3fb674b48547e80631007cb81565b3480156105b657600080fd5b5061019d6105c5366004612e33565b610ff8565b61028e6105d8366004612e86565b611114565b60006001600160e01b03198216632f720bd160e21b148061060e57506001600160e01b031982166306afdd8560e41b145b8061062957506001600160e01b031982166301ffc9a760e01b145b92915050565b8215801561064757506000546001600160a01b031633145b6106e0576040516331a9108f60e11b8152600481018490526106e0907f0000000000000000000000002ca466eb84dd69a99e25d10bbbda6e1b3c562c496001600160a01b031690636352211e90602401602060405180830381865afa1580156106b4573d6000803e3d6000fd5b505050506040513d601f19601f820116820180604052508101906106d89190612f3a565b84601a6112e2565b6040518060400160405280826001600160a01b03168152602001610702611466565b6001600160a01b03908116858216908110909252600086815260026020908152604080832085845282529182902085518154968301511515600160a01b026001600160a81b0319909716941693909317949094179091558051606081018252828152815163313ce56760e01b815291519093848101939263313ce56792600480830193928290030181865afa15801561079f573d6000803e3d6000fd5b505050506040513d601f19601f820116820180604052508101906107c39190612f57565b60ff908116825263ffffffff80861660209384015260008781526003845260408082206001600160a01b03988916808452908652818320875181548989015199850151909616600160a81b0263ffffffff60a81b1999909716600160a01b026001600160a81b03199096169a1699909917939093179590951692909217909555948552600481529084208054600181018255908552932090920180546001600160a01b031916909117905550565b60008281526001602090815260408083206001600160a01b038516845290915281205481908082036108d757506001600160a01b03831660009081527fa6eef7e35abe7026729641147f7915573c7e97b47efa546f5f6e3230263bcb4960205260409020545b915050602081901c5b9250929050565b600081815260046020908152604080832080548251818502810185019093528083526060949383018282801561094657602002820191906000526020600020905b81546001600160a01b03168152600190910190602001808311610928575b50506000808052600460209081527f17ef568e3e12ab5b9c7254a8d58478811de00f9e6eb34345acd53bf8fd09d3ec805460408051828502810185019091528181529798509296955093509091508301828280156109cd57602002820191906000526020600020905b81546001600160a01b031681526001909101906020018083116109af575b505050505090506000815183516109e49190612f90565b67ffffffffffffffff8111156109fc576109fc612fa3565b604051908082528060200260200182016040528015610a4757816020015b6040805160608101825260008082526020808301829052928201528252600019909201910181610a1a5790505b50835190915060005b8451811015610b0157600360008881526020019081526020016000206000868381518110610a8057610a80612fb9565b6020908102919091018101516001600160a01b039081168352828201939093526040918201600020825160608101845290549384168152600160a01b840460ff1691810191909152600160a81b90920463ffffffff16908201528351849083908110610aee57610aee612fb9565b6020908102919091010152600101610a50565b5060005b8351811015610c4f576000805b8651811015610b7757858381518110610b2d57610b2d612fb9565b60200260200101516001600160a01b0316878281518110610b5057610b50612fb9565b60200260200101516001600160a01b031603610b6f5760019150610b77565b600101610b12565b5080610c46576000808052600360205285517f3617319a054d772f909f7c479a2cebe5066e836a939412e32403c99029b92eff9190879085908110610bbe57610bbe612fb9565b6020908102919091018101516001600160a01b039081168352828201939093526040918201600020825160608101845290549384168152600160a01b840460ff1691810191909152600160a81b90920463ffffffff16908201528451859085908110610c2c57610c2c612fb9565b60200260200101819052508280610c4290612fcf565b9350505b50600101610b05565b508151811015610c5d578082525b50949350505050565b610c6e6114d7565b610c786000611504565b565b60008281526002602090815260408083206001600160a01b0385811685529252909120805491821691600160a01b900460ff169082610d00575050506001600160a01b0381811660009081527fac33ff75c19e70fe83507db0d683fd3465c996598dc972688b7ace676c89077b60205260409020805491821691600160a01b900460ff16905b509250929050565b604051630862026560e41b8152600481018990526001600160a01b037f000000000000000000000000000000000000000000000000000000000000eeee811660248301526000917f000000000000000000000000cd7112ae7c3b2505f0795c1ba965e5694c25d69690911690638620265090604401602060405180830381865afa158015610d9a573d6000803e3d6000fd5b505050506040513d601f19601f82011682018060405250810190610dbe9190612f3a565b90506001600160a01b038116610de757604051630faa917b60e11b815260040160405180910390fd5b6000610df78a8a8a858888611554565b9050816001600160a01b0316639e6eec057f0000000000000000000000000000000000000000000000000000000000000001610e34576000610e36565b825b8c7f000000000000000000000000000000000000000000000000000000000000eeee858c8c8c8c8c6040518a63ffffffff1660e01b8152600401610e81989796959493929190613011565b6000604051808303818588803b158015610e9a57600080fd5b505af1158015610eae573d6000803e3d6000fd5b505050505050505050505050505050565b83158015610ed757506000546001600160a01b031633145b610f70576040516331a9108f60e11b815260048101859052610f70907f0000000000000000000000002ca466eb84dd69a99e25d10bbbda6e1b3c562c496001600160a01b031690636352211e90602401602060405180830381865afa158015610f44573d6000803e3d6000fd5b505050506040513d601f19601f82011682018060405250810190610f689190612f3a565b85601b6112e2565b60009384526001602090815260408086206001600160a01b03959095168652938152929093209290911b640100000000600160c01b031663ffffffff91909116179055565b610fbd6114d7565b6001600160a01b038116610fec57604051631e4fbdf760e01b8152600060048201526024015b60405180910390fd5b610ff581611504565b50565b60008061100783850185613069565b91509150600080871261101a578661101c565b855b90508115611099577f0000000000000000000000007b79995e5f793a07bc00c21412e50ecae098e7f96001600160a01b031663d0e30db0826040518263ffffffff1660e01b81526004016000604051808303818588803b15801561107f57600080fd5b505af1158015611093573d6000803e3d6000fd5b50505050505b60405163a9059cbb60e01b8152336004820152602481018290526001600160a01b0384169063a9059cbb906044016020604051808303816000875af11580156110e6573d6000803e3d6000fd5b505050506040513d601f19601f8201168201806040525081019061110a9190613097565b5050505050505050565b604051630862026560e41b8152600481018a90526001600160a01b037f000000000000000000000000000000000000000000000000000000000000eeee8116602483015260009182917f000000000000000000000000cd7112ae7c3b2505f0795c1ba965e5694c25d6961690638620265090604401602060405180830381865afa1580156111a6573d6000803e3d6000fd5b505050506040513d601f19601f820116820180604052508101906111ca9190612f3a565b90506001600160a01b0381166111f357604051630faa917b60e11b815260040160405180910390fd5b60006112038c8c8c858989611554565b9050816001600160a01b031663fef432577f0000000000000000000000000000000000000000000000000000000000000001611240576000611242565b825b8e7f000000000000000000000000000000000000000000000000000000000000eeee858e8e8e8e8e8e6040518b63ffffffff1660e01b815260040161128f999897969594939291906130b4565b60206040518083038185885af11580156112ad573d6000803e3d6000fd5b50505050506040513d601f19601f820116820180604052508101906112d29190613118565b509b9a5050505050505050505050565b336001600160a01b0384168114801590611399575060405163c161c93f60e01b81526001600160a01b038281166004830152858116602483015260448201859052606482018490527f0000000000000000000000006b8340b759d72e08b3fb674b48547e80631007cb169063c161c93f90608401602060405180830381865afa158015611373573d6000803e3d6000fd5b505050506040513d601f19601f820116820180604052508101906113979190613097565b155b8015611442575060405163c161c93f60e01b81526001600160a01b038281166004830152858116602483015260006044830152606482018490527f0000000000000000000000006b8340b759d72e08b3fb674b48547e80631007cb169063c161c93f90608401602060405180830381865afa15801561141c573d6000803e3d6000fd5b505050506040513d601f19601f820116820180604052508101906114409190613097565b155b156114605760405163075fd2b160e01b815260040160405180910390fd5b50505050565b60007f00000000000000000000000000000000000000000000000000000000000000016114b257507f000000000000000000000000000000000000000000000000000000000000eeee90565b507f0000000000000000000000007b79995e5f793a07bc00c21412e50ecae098e7f990565b6000546001600160a01b03163314610c785760405163118cdaa760e01b8152336004820152602401610fe3565b600080546001600160a01b038381166001600160a01b0319831681178455604051919092169283917f8be0079c531659141344cd1fd0a4f28419497f9722a3daafe3b4186f6b6457e09190a35050565b6040805160e081018252600060208201819052918101829052606081018290526080810182905260a0810182905260c081018290528781526001600160a01b03871661eeed19016115e0576001600160a01b037f0000000000000000000000007b79995e5f793a07bc00c21412e50ecae098e7f9166040820152600160608201523460808201526115f7565b6001600160a01b0387166040820152608081018690525b61160784848a84604001516116bf565b151560c08401526001600160a01b0316602083015260a082015261162c818585611828565b6080820152600061163b611466565b90508160600151801561166b57507f00000000000000000000000000000000000000000000000000000000000000015b8061168b5750806001600160a01b031682604001516001600160a01b0316145b1561169c57816080015192506116a8565b6116a5826119b2565b92505b6116b3868285611bbc565b50509695505050505050565b60008060008060006117336116f76040518060400160405280600c81526020016b071756f7465466f72537761760a41b815250611be8565b8a8a8080601f016020809104026020016040519081016040528093929190818152602001838380828437600092019190915250611bfc92505050565b91509150811561175d57808060200190518101906117519190613131565b9196509450925061181c565b60008781526002602090815260408083206001600160a01b038a81168552925290912080549182169550600160a01b90910460ff1693508461180457506001600160a01b0386811660009081527fac33ff75c19e70fe83507db0d683fd3465c996598dc972688b7ace676c89077b6020526040902080549182169550600160a01b90910460ff1693508461180457604051632a12044160e21b815260040160405180910390fd5b61180f858986611da1565b6001600160a01b03169550505b50509450945094915050565b60408301516060840151600091901561184457349150506119ab565b341561186357604051635e7e9adf60e11b815260040160405180910390fd5b6000806118cd611891604051806040016040528060078152602001663832b936b4ba1960c91b815250611be8565b87878080601f016020809104026020016040519081016040528093929190818152602001838380828437600092019190915250611bfc92505050565b91509150811561192d576000818060200190518101906118ed9190613202565b9050876080015181602001516001600160a01b03161015611921576040516317e415a160e11b815260040160405180910390fd5b61192b8185611e28565b505b61193d3330858a60800151611f27565b6040516370a0823160e01b81523060048201526001600160a01b038416906370a0823190602401602060405180830381865afa158015611981573d6000803e3d6000fd5b505050506040513d601f19601f820116820180604052508101906119a59190613118565b93505050505b9392505050565b6040810151600090816119c3611466565b6001600160a01b0316826001600160a01b031610905060008085602001516001600160a01b031663128acb083085896080015187611a1f57611a1a600173fffd8963efd1fc6a506488495d951d5263988d26613302565b611a2f565b611a2f6401000276a36001613329565b60608c810151604080516001600160a01b038e16602082015291151590820152016040516020818303038152906040526040518663ffffffff1660e01b8152600401611a7f959493929190613375565b60408051808303816000875af1158015611a9d573d6000803e3d6000fd5b505050506040513d601f19601f82011682018060405250810190611ac191906133bb565b9150915082611ad05781611ad2565b805b611adb906133df565b94508560a00151851015611b125760a0860151604051630bb50c5d60e41b8152610fe3918791600401918252602082015260400190565b7f000000000000000000000000000000000000000000000000000000000000000115611bb357604051632e1a7d4d60e01b8152600481018690527f0000000000000000000000007b79995e5f793a07bc00c21412e50ecae098e7f96001600160a01b031690632e1a7d4d90602401600060405180830381600087803b158015611b9a57600080fd5b505af1158015611bae573d6000803e3d6000fd5b505050505b50505050919050565b61eeed196001600160a01b03831601611bd457505050565b6104956001600160a01b038316848361209c565b805160208201206000903060601b18610629565b600060606025835111611c2157505060408051602081019091526000808252906108e0565b600083611c3060046020612f90565b81518110611c4057611c40612fb9565b0160209081015160f81c91505b600085611c5b600484612f90565b81518110611c6b57611c6b612fb9565b01602001516001600160f81b03191614801590611c915750611c8e6020836133fb565b81105b15611d9857600085611ca4600484612f90565b81518110611cb457611cb4612fb9565b016020908101518784019091015160f89190911c91506001600160e01b031980891690821603611d8e576000611ceb6020866133fb565b611cf6600986612f90565b101580611d2b575087611d0a600986612f90565b81518110611d1a57611d1a612fb9565b01602001516001600160f81b031916155b611d6457602088611d3d600987612f90565b81518110611d4d57611d4d612fb9565b0160200151611d5f919060f81c6133fb565b611d67565b87515b90506001611d8089611d7a6020876133fb565b84612126565b9650965050505050506108e0565b5050600501611c4d565b50509250929050565b6000806000611db08587610871565b915091506000611dc0878461216c565b5090506000611dce826123b6565b905085611dfb57612710611de28483613412565b611dec919061345a565b611df69082613329565b611e1c565b612710611e088483613412565b611e12919061345a565b611e1c9082613302565b98975050505050505050565b7f000000000000000000000000000000000022d473030f116ddee9f6b43ac78ba36001600160a01b0316632b67b5703360405180606001604052806040518060800160405280876001600160a01b0316815260200188602001516001600160a01b03168152602001886040015165ffffffffffff168152602001886060015165ffffffffffff168152508152602001306001600160a01b03168152602001866000015181525085608001516040518463ffffffff1660e01b8152600401611ef193929190613480565b600060405180830381600087803b158015611f0b57600080fd5b505af1158015611f1f573d6000803e3d6000fd5b505050505050565b306001600160a01b03851603611f80577f000000000000000000000000000000000000000000000000000000000000000115611f6c57611f6783826126d9565b611460565b611f676001600160a01b0383168483612770565b604051636eb1769f60e11b81526001600160a01b03858116600483015230602483015282919084169063dd62ed3e90604401602060405180830381865afa158015611fcf573d6000803e3d6000fd5b505050506040513d601f19601f82011682018060405250810190611ff39190613118565b1061200d57611f676001600160a01b0383168585846127cf565b604051631b63c28b60e11b81526001600160a01b0385811660048301528481166024830152828116604483015283811660648301527f000000000000000000000000000000000022d473030f116ddee9f6b43ac78ba316906336c7851690608401600060405180830381600087803b15801561208857600080fd5b505af115801561110a573d6000803e3d6000fd5b604051636eb1769f60e11b81523060048201526001600160a01b0383811660248301526000919085169063dd62ed3e90604401602060405180830381865afa1580156120ec573d6000803e3d6000fd5b505050506040513d601f19601f820116820180604052508101906121109190613118565b905061146084846121218585612f90565b612808565b60608282036040519150602081830101604052808252508260208501016020820160005b8481101561216257828101518282015260200161214a565b5050509392505050565b6000808263ffffffff166000036121aa5760405162461bcd60e51b8152602060048201526002602482015261042560f41b6044820152606401610fe3565b60408051600280825260608201835260009260208301908036833701905050905083816000815181106121df576121df612fb9565b602002602001019063ffffffff16908163ffffffff168152505060008160018151811061220e5761220e612fb9565b602002602001019063ffffffff16908163ffffffff1681525050600080866001600160a01b031663883bdbfd846040518263ffffffff1660e01b815260040161225791906134f4565b600060405180830381865afa158015612274573d6000803e3d6000fd5b505050506040513d6000823e601f3d908101601f1916820160405261229c91908101906135ce565b915091506000826000815181106122b5576122b5612fb9565b6020026020010151836001815181106122d0576122d0612fb9565b60200260200101516122e2919061369a565b90506000826000815181106122f9576122f9612fb9565b60200260200101518360018151811061231457612314612fb9565b60200260200101516123269190613302565b905061233863ffffffff8916836136c7565b965060008260060b12801561235e575061235863ffffffff891683613705565b60060b15155b15612371578661236d81613727565b9750505b600061238a6001600160a01b0363ffffffff8b1661374a565b90506123a7640100000000600160c01b03602084901b1682613773565b96505050505050509250929050565b60008060008360020b126123cd578260020b6123d5565b8260020b6000035b9050620d89e88111156123fb576040516315e4079d60e11b815260040160405180910390fd5b60008160011660000361241257600160801b612424565b6ffffcb933bd6fad37aa2d162d1a5940015b70ffffffffffffffffffffffffffffffffff1690506002821615612458576ffff97272373d413259a46990580e213a0260801c5b6004821615612477576ffff2e50f5f656932ef12357cf3c7fdcc0260801c5b6008821615612496576fffe5caca7e10e4e61c3624eaa0941cd00260801c5b60108216156124b5576fffcb9843d60f6159c9db58835c9266440260801c5b60208216156124d4576fff973b41fa98c081472e6896dfb254c00260801c5b60408216156124f3576fff2ea16466c96a3843ec78b326b528610260801c5b6080821615612512576ffe5dee046a99a2a811c461f1969c30530260801c5b610100821615612532576ffcbe86c7900a88aedcffc83b479aa3a40260801c5b610200821615612552576ff987a7253ac413176f2b074cf7815e540260801c5b610400821615612572576ff3392b0822b70005940c7a398e4b70f30260801c5b610800821615612592576fe7159475a2c29b7443b29c7fa6e889d90260801c5b6110008216156125b2576fd097f3bdfd2022b8845ad8f792aa58250260801c5b6120008216156125d2576fa9f746462d870fdf8a65dc1f90e061e50260801c5b6140008216156125f2576f70d869a156d2a1b890bb3df62baf32f70260801c5b618000821615612612576f31be135f97d08fd981231505542fcfa60260801c5b62010000821615612633576f09aa508b5b7a84e1c677de54f3e99bc90260801c5b62020000821615612653576e5d6af8dedb81196699c329225ee6040260801c5b62040000821615612672576d2216e584f5fa1ea926041bedfe980260801c5b6208000082161561268f576b048a170391f7dc42444e8fa20260801c5b60008460020b13156126b05780600019816126ac576126ac613444565b0490505b6401000000008106156126c45760016126c7565b60005b60ff16602082901c0192505050919050565b804710156126fc5760405163cd78605960e01b8152306004820152602401610fe3565b6000826001600160a01b03168260405160006040518083038185875af1925050503d8060008114612749576040519150601f19603f3d011682016040523d82523d6000602084013e61274e565b606091505b505090508061049557604051630a12f52160e11b815260040160405180910390fd5b6040516001600160a01b0383811660248301526044820183905261049591859182169063a9059cbb906064015b604051602081830303815290604052915060e01b6020820180516001600160e01b038381831617835250505050612894565b6040516001600160a01b0384811660248301528381166044830152606482018390526114609186918216906323b872dd9060840161279d565b604080516001600160a01b038416602482015260448082018490528251808303909101815260649091019091526020810180516001600160e01b031663095ea7b360e01b17905261285984826128f7565b611460576040516001600160a01b0384811660248301526000604483015261288e91869182169063095ea7b39060640161279d565b61146084825b60006128a96001600160a01b0384168361299f565b905080516000141580156128ce5750808060200190518101906128cc9190613097565b155b1561049557604051635274afe760e01b81526001600160a01b0384166004820152602401610fe3565b6000806000846001600160a01b031684604051612914919061378d565b6000604051808303816000865af19150503d8060008114612951576040519150601f19603f3d011682016040523d82523d6000602084013e612956565b606091505b50915091508180156129805750805115806129805750808060200190518101906129809190613097565b801561299657506000856001600160a01b03163b115b95945050505050565b60606119ab8383600084600080856001600160a01b031684866040516129c5919061378d565b60006040518083038185875af1925050503d8060008114612a02576040519150601f19603f3d011682016040523d82523d6000602084013e612a07565b606091505b5091509150612a17868383612a21565b9695505050505050565b606082612a3657612a3182612a7d565b6119ab565b8151158015612a4d57506001600160a01b0384163b155b15612a7657604051639996b31560e01b81526001600160a01b0385166004820152602401610fe3565b50806119ab565b805115612a8d5780518082602001fd5b604051630a12f52160e11b815260040160405180910390fd5b600060208284031215612ab857600080fd5b81356001600160e01b0319811681146119ab57600080fd5b6001600160a01b0381168114610ff557600080fd5b600080600060608486031215612afa57600080fd5b833592506020840135612b0c81612ad0565b91506040840135612b1c81612ad0565b809150509250925092565b60008060408385031215612b3a57600080fd5b823591506020830135612b4c81612ad0565b809150509250929050565b81516001600160a01b0316815260208083015160ff169082015260408083015163ffffffff169082015260608101610629565b600060208284031215612b9c57600080fd5b5035919050565b6020808252825182820181905260009190848201906040850190845b81811015612c0b57612bf883855180516001600160a01b0316825260208082015160ff169083015260409081015163ffffffff16910152565b9284019260609290920191600101612bbf565b50909695505050505050565b600080600060408486031215612c2c57600080fd5b83359250602084013567ffffffffffffffff80821115612c4b57600080fd5b818601915086601f830112612c5f57600080fd5b813581811115612c6e57600080fd5b8760208260051b8501011115612c8357600080fd5b6020830194508093505050509250925092565b8015158114610ff557600080fd5b60008083601f840112612cb657600080fd5b50813567ffffffffffffffff811115612cce57600080fd5b6020830191508360208285010111156108e057600080fd5b60008060008060008060008060c0898b031215612d0257600080fd5b883597506020890135612d1481612ad0565b9650604089013595506060890135612d2b81612c96565b9450608089013567ffffffffffffffff80821115612d4857600080fd5b612d548c838d01612ca4565b909650945060a08b0135915080821115612d6d57600080fd5b50612d7a8b828c01612ca4565b999c989b5096995094979396929594505050565b60008060008060808587031215612da457600080fd5b843593506020850135612db681612ad0565b9250604085013563ffffffff81168114612dcf57600080fd5b91506060850135612ddf81612ad0565b939692955090935050565b600080600060608486031215612dff57600080fd5b505081359360208301359350604090920135919050565b600060208284031215612e2857600080fd5b81356119ab81612ad0565b60008060008060608587031215612e4957600080fd5b8435935060208501359250604085013567ffffffffffffffff811115612e6e57600080fd5b612e7a87828801612ca4565b95989497509550505050565b600080600080600080600080600060e08a8c031215612ea457600080fd5b8935985060208a0135612eb681612ad0565b975060408a0135965060608a0135612ecd81612ad0565b955060808a0135945060a08a013567ffffffffffffffff80821115612ef157600080fd5b612efd8d838e01612ca4565b909650945060c08c0135915080821115612f1657600080fd5b50612f238c828d01612ca4565b915080935050809150509295985092959850929598565b600060208284031215612f4c57600080fd5b81516119ab81612ad0565b600060208284031215612f6957600080fd5b815160ff811681146119ab57600080fd5b634e487b7160e01b600052601160045260246000fd5b8082018082111561062957610629612f7a565b634e487b7160e01b600052604160045260246000fd5b634e487b7160e01b600052603260045260246000fd5b600060018201612fe157612fe1612f7a565b5060010190565b81835281816020850137506000828201602090810191909152601f909101601f19169091010190565b88815260018060a01b0388166020820152866040820152851515606082015260c06080820152600061304760c083018688612fe8565b82810360a084015261305a818587612fe8565b9b9a5050505050505050505050565b6000806040838503121561307c57600080fd5b823561308781612ad0565b91506020830135612b4c81612c96565b6000602082840312156130a957600080fd5b81516119ab81612c96565b8981526001600160a01b03898116602083015260408201899052871660608201526080810186905260e060a082018190526000906130f59083018688612fe8565b82810360c0840152613108818587612fe8565b9c9b505050505050505050505050565b60006020828403121561312a57600080fd5b5051919050565b60008060006060848603121561314657600080fd5b83519250602084015161315881612ad0565b6040850151909250612b1c81612c96565b60405160a0810167ffffffffffffffff8111828210171561318c5761318c612fa3565b60405290565b604051601f8201601f1916810167ffffffffffffffff811182821017156131bb576131bb612fa3565b604052919050565b805165ffffffffffff811681146131d957600080fd5b919050565b60005b838110156131f95781810151838201526020016131e1565b50506000910152565b6000602080838503121561321557600080fd5b825167ffffffffffffffff8082111561322d57600080fd5b9084019060a0828703121561324157600080fd5b613249613169565b825181528383015161325a81612ad0565b8185015261326a604084016131c3565b604082015261327b606084016131c3565b606082015260808301518281111561329257600080fd5b80840193505086601f8401126132a757600080fd5b8251828111156132b9576132b9612fa3565b6132cb601f8201601f19168601613192565b925080835287858286010111156132e157600080fd5b6132f0818685018787016131de565b50608081019190915295945050505050565b6001600160a01b0382811682821603908082111561332257613322612f7a565b5092915050565b6001600160a01b0381811683821601908082111561332257613322612f7a565b600081518084526133618160208601602086016131de565b601f01601f19169290920160200192915050565b6001600160a01b0386811682528515156020830152604082018590528316606082015260a0608082018190526000906133b090830184613349565b979650505050505050565b600080604083850312156133ce57600080fd5b505080516020909101519092909150565b6000600160ff1b82016133f4576133f4612f7a565b5060000390565b808202811582820484141761062957610629612f7a565b6001600160a01b0382811682821681810283169291811582850482141761343b5761343b612f7a565b50505092915050565b634e487b7160e01b600052601260045260246000fd5b60006001600160a01b038381168061347457613474613444565b92169190910492915050565b600061010060018060a01b0380871684528551818151166020860152816020820151166040860152604081015165ffffffffffff80821660608801528060608401511660808801525050508060208701511660a085015250604085015160c08401528060e0840152612a1781840185613349565b6020808252825182820181905260009190848201906040850190845b81811015612c0b57835163ffffffff1683529284019291840191600101613510565b600067ffffffffffffffff82111561354c5761354c612fa3565b5060051b60200190565b600082601f83011261356757600080fd5b8151602061357c61357783613532565b613192565b8083825260208201915060208460051b87010193508684111561359e57600080fd5b602086015b848110156135c35780516135b681612ad0565b83529183019183016135a3565b509695505050505050565b600080604083850312156135e157600080fd5b825167ffffffffffffffff808211156135f957600080fd5b818501915085601f83011261360d57600080fd5b8151602061361d61357783613532565b82815260059290921b8401810191818101908984111561363c57600080fd5b948201945b8386101561366a5785518060060b811461365b5760008081fd5b82529482019490820190613641565b9188015191965090935050508082111561368357600080fd5b5061369085828601613556565b9150509250929050565b600682810b9082900b03667fffffffffffff198112667fffffffffffff8213171561062957610629612f7a565b60008160060b8360060b806136de576136de613444565b667fffffffffffff198214600019821416156136fc576136fc612f7a565b90059392505050565b60008260060b8061371857613718613444565b808360060b0791505092915050565b60008160020b627fffff19810361374057613740612f7a565b6000190192915050565b6001600160c01b0382811682821681810283169291811582850482141761343b5761343b612f7a565b60006001600160c01b038381168061347457613474613444565b6000825161379f8184602087016131de565b919091019291505056fea26469706673582212208edb9ea193876f5e3bc0562d371d3f7950763545ec6da8b615fba513f42b27dd64736f6c63430008170033",
			"devdoc": {
				"kind": "dev",
				"methods": {
					"accountingContextForTokenOf(uint256,address)": {
						"details": "Accounting contexts are set up in `addDefaultPool(...)`.",
						"params": {
							"projectId": "The ID of the project to get the accounting context for.",
							"token": "The address of the token to get the accounting context for."
						},
						"returns": {
							"_0": "A `JBAccountingContext` containing the accounting context for the project ID and token."
						}
					},
					"accountingContextsOf(uint256)": {
						"details": "This includes both project-specific and generic accounting contexts, with the project-specific contexts         taking precedence.",
						"params": {
							"projectId": "The ID of the project to get the accounting contexts for."
						},
						"returns": {
							"_0": "An array of `JBAccountingContext` containing the accounting contexts for the project ID."
						}
					},
					"addDefaultPool(uint256,address,address)": {
						"params": {
							"pool": "The Uniswap V3 pool to set as the default for the specified token.",
							"projectId": "The ID of the project to set the default pool for. The project 0 acts as a catch-all, where non-set pools are defaulted to.",
							"token": "The address of the token to set the default pool for."
						}
					},
					"addToBalanceOf(uint256,address,uint256,bool,string,bytes)": {
						"details": "This function handles the token in transfer, potentially swaps the tokens to the desired output token, and then adds the swapped tokens to the project's balance in the specified terminal.",
						"params": {
							"amount": "The amount of tokens being paid in.",
							"memo": "A memo to pass along to the emitted event.",
							"metadata": "Bytes in `JBMetadataResolver`'s format which can contain additional data for the swap and adding to balance.",
							"projectId": "The ID of the project for which funds are being accepted and added to its balance.",
							"shouldReturnHeldFees": "A boolean to indicate whether held fees should be returned.",
							"token": "The address of the token being paid in."
						}
					},
					"addTwapParamsFor(uint256,address,uint32,uint160)": {
						"params": {
							"projectId": "The ID of the project to set the TWAP-based quote rules for.",
							"secondsAgo": "The period of time over which the TWAP is calculated, in seconds.",
							"slippageTolerance": "The maximum spread allowed between the amount received and the TWAP (as a fraction out of `SLIPPAGE_DENOMINATOR`)."
						}
					},
					"getPoolFor(uint256,address)": {
						"params": {
							"projectId": "The ID of the project to retrieve the default pool for.",
							"tokenIn": "The address of the token to retrieve the default pool for."
						},
						"returns": {
							"pool": "The default pool for the token, or the overall default pool for the token if the"
						}
					},
					"owner()": {
						"details": "Returns the address of the current owner."
					},
					"pay(uint256,address,uint256,address,uint256,string,bytes)": {
						"params": {
							"amount": "The amount of tokens being paid in, as a fixed point number with the same amount of decimals as the `token`. If `token` is the native token, `amount` is ignored and `msg.value` is used in its place.",
							"beneficiary": "The beneficiary address to pass along to the other terminal. If the other terminal mints tokens, for example, they will be minted for this address.",
							"memo": "A memo to pass along to the emitted event.",
							"metadata": "Bytes in `JBMetadataResolver`'s format which can contain a quote from the user/client. The quote should contain a minimum amount of tokens to receive from the swap and the pool to use. This metadata is also passed to the other terminal's emitted event, as well as its data hook and pay hook if applicable.",
							"minReturnedTokens": "The minimum number of project tokens expected in return, as a fixed point number with the same number of decimals as the other terminal. This value will be passed along to the other terminal.",
							"projectId": "The ID of the project being paid.",
							"token": "The address of the token being paid in."
						},
						"returns": {
							"_0": "The number of tokens received from the swap, as a fixed point number with the same amount of decimals as that token."
						}
					},
					"renounceOwnership()": {
						"details": "Leaves the contract without owner. It will not be possible to call `onlyOwner` functions. Can only be called by the current owner. NOTE: Renouncing ownership will leave the contract without an owner, thereby disabling any functionality that is only available to the owner."
					},
					"supportsInterface(bytes4)": {
						"details": "See {IERC165-supportsInterface}.",
						"params": {
							"interfaceId": "The ID of the interface to check for adherance to."
						},
						"returns": {
							"_0": "A flag indicating if the provided interface ID is supported."
						}
					},
					"transferOwnership(address)": {
						"details": "Transfers ownership of the contract to a new account (`newOwner`). Can only be called by the current owner."
					},
					"twapParamsOf(uint256,address)": {
						"params": {
							"projectId": "The ID of the project to retrieve TWAP parameters for."
						},
						"returns": {
							"secondsAgo": "The period of time in the past to calculate the TWAP from.",
							"slippageTolerance": "The maximum allowed slippage tolerance when calculating the TWAP, as a fraction out of `SLIPPAGE_DENOMINATOR`."
						}
					},
					"uniswapV3SwapCallback(int256,int256,bytes)": {
						"details": "This function has no access control, care should be taken to ensure that:      - terminal balance is always be 0 between tx (this callback can only be used to sweep accidental leftovers)      - callback cannot pull user funds via a preexisting allowance",
						"params": {
							"amount0Delta": "The amount of token 0 being used for the swap.",
							"amount1Delta": "The amount of token 1 being used for the swap.",
							"data": "Data passed in by the swap operation."
						}
					}
				},
				"version": 1
			},
			"userdoc": {
				"kind": "user",
				"methods": {
					"DEFAULT_PROJECT_ID()": {
						"notice": "The ID to store default values in."
					},
					"DIRECTORY()": {
						"notice": "The directory of terminals and controllers for `PROJECTS`."
					},
					"PERMISSIONS()": {
						"notice": "A contract storing permissions."
					},
					"PERMIT2()": {
						"notice": "The permit2 utility."
					},
					"PROJECTS()": {
						"notice": "Mints ERC-721s that represent project ownership and transfers."
					},
					"SLIPPAGE_DENOMINATOR()": {
						"notice": "The denominator used when calculating TWAP slippage tolerance values."
					},
					"TOKEN_OUT()": {
						"notice": "The token which flows out of this terminal (JBConstants.NATIVE_TOKEN for the chain native token)"
					},
					"WETH()": {
						"notice": "The ERC-20 wrapper for the native token."
					},
					"accountingContextForTokenOf(uint256,address)": {
						"notice": "Get the accounting context for the specified project ID and token."
					},
					"accountingContextsOf(uint256)": {
						"notice": "Return all the accounting contexts for a specified project ID."
					},
					"addAccountingContextsFor(uint256,address[])": {
						"notice": "Empty implementation to satisfy the interface. Accounting contexts are set in `addDefaultPool(...)`."
					},
					"addDefaultPool(uint256,address,address)": {
						"notice": "Set a project's default pool and accounting context for the specified token. Only the project's owner, an address with `MODIFY_DEFAULT_POOL` permission from the owner or the terminal owner can call this function."
					},
					"addToBalanceOf(uint256,address,uint256,bool,string,bytes)": {
						"notice": "Accepts funds for a given project, swaps them if necessary, and adds them to the project's balance in the specified terminal."
					},
					"addTwapParamsFor(uint256,address,uint32,uint160)": {
						"notice": "Set the specified project's rules for calculating a quote based on the TWAP. Only the project's owner or an address with `MODIFY_TWAP_PARAMS` permission from the owner  or the terminal owner can call this function."
					},
					"currentSurplusOf(uint256,uint256,uint256)": {
						"notice": "Empty implementation to satisfy the interface. This terminal has no surplus."
					},
					"getPoolFor(uint256,address)": {
						"notice": "Returns the default pool for a given project and token or, if a project has no default pool for the         token, the overal default pool for the token"
					},
					"migrateBalanceOf(uint256,address,address)": {
						"notice": "Empty implementation to satisfy the interface."
					},
					"pay(uint256,address,uint256,address,uint256,string,bytes)": {
						"notice": "Pay a project by swapping the incoming tokens for tokens that one of the project's other terminals accepts, passing along the funds received from the swap and the specified parameters."
					},
					"supportsInterface(bytes4)": {
						"notice": "Indicates if this contract adheres to the specified interface."
					},
					"twapParamsOf(uint256,address)": {
						"notice": "Returns the default twap parameters for a given pool project."
					},
					"uniswapV3SwapCallback(int256,int256,bytes)": {
						"notice": "The Uniswap v3 pool callback where the token transfer is expected to happen."
					}
				},
				"version": 1
			},
			"gitCommit": "ab35949b0aae17b2276298e7e47bea3ed4563e1f",
			"sourceName": "src/JBSwapTerminal.sol",
			"chainId": "11155111",
			"linkReferences": {},
			"deployedLinkReferences": {}
		}
	]
}