{
	"format": "sphinx-sol-ct-artifact-1",
	"merkleRoot": "0x1aab5bc31941dc09ca835f5129631076dc3751c361dd899aba12a48cbef4c66e",
	"address": "0xf7002a2df9bebf629b6093c8a60e28beed4f7b48",
	"sourceName": "src/JBSwapTerminal.sol",
	"contractName": "JBSwapTerminal",
	"chainId": "0xa",
	"abi": [
		{
			"inputs": [
				{
					"internalType": "contract IJBDirectory",
					"name": "directory",
					"type": "address"
				},
				{
					"internalType": "contract IJBPermissions",
					"name": "permissions",
					"type": "address"
				},
				{
					"internalType": "contract IJBProjects",
					"name": "projects",
					"type": "address"
				},
				{
					"internalType": "contract IPermit2",
					"name": "permit2",
					"type": "address"
				},
				{
					"internalType": "address",
					"name": "owner",
					"type": "address"
				},
				{
					"internalType": "contract IWETH9",
					"name": "weth",
					"type": "address"
				},
				{
					"internalType": "address",
					"name": "tokenOut",
					"type": "address"
				},
				{
					"internalType": "contract IUniswapV3Factory",
					"name": "factory",
					"type": "address"
				}
			],
			"stateMutability": "nonpayable",
			"type": "constructor"
		},
		{
			"stateMutability": "payable",
			"type": "receive"
		},
		{
			"inputs": [],
			"name": "DEFAULT_PROJECT_ID",
			"outputs": [
				{
					"internalType": "uint256",
					"name": "",
					"type": "uint256"
				}
			],
			"stateMutability": "view",
			"type": "function"
		},
		{
			"inputs": [],
			"name": "DIRECTORY",
			"outputs": [
				{
					"internalType": "contract IJBDirectory",
					"name": "",
					"type": "address"
				}
			],
			"stateMutability": "view",
			"type": "function"
		},
		{
			"inputs": [],
			"name": "FACTORY",
			"outputs": [
				{
					"internalType": "contract IUniswapV3Factory",
					"name": "",
					"type": "address"
				}
			],
			"stateMutability": "view",
			"type": "function"
		},
		{
			"inputs": [],
			"name": "MAX_TWAP_SLIPPAGE_TOLERANCE",
			"outputs": [
				{
					"internalType": "uint256",
					"name": "",
					"type": "uint256"
				}
			],
			"stateMutability": "view",
			"type": "function"
		},
		{
			"inputs": [],
			"name": "MAX_TWAP_WINDOW",
			"outputs": [
				{
					"internalType": "uint256",
					"name": "",
					"type": "uint256"
				}
			],
			"stateMutability": "view",
			"type": "function"
		},
		{
			"inputs": [],
			"name": "MIN_DEFAULT_POOL_CARDINALITY",
			"outputs": [
				{
					"internalType": "uint16",
					"name": "",
					"type": "uint16"
				}
			],
			"stateMutability": "view",
			"type": "function"
		},
		{
			"inputs": [],
			"name": "MIN_TWAP_SLIPPAGE_TOLERANCE",
			"outputs": [
				{
					"internalType": "uint256",
					"name": "",
					"type": "uint256"
				}
			],
			"stateMutability": "view",
			"type": "function"
		},
		{
			"inputs": [],
			"name": "MIN_TWAP_WINDOW",
			"outputs": [
				{
					"internalType": "uint256",
					"name": "",
					"type": "uint256"
				}
			],
			"stateMutability": "view",
			"type": "function"
		},
		{
			"inputs": [],
			"name": "PERMISSIONS",
			"outputs": [
				{
					"internalType": "contract IJBPermissions",
					"name": "",
					"type": "address"
				}
			],
			"stateMutability": "view",
			"type": "function"
		},
		{
			"inputs": [],
			"name": "PERMIT2",
			"outputs": [
				{
					"internalType": "contract IPermit2",
					"name": "",
					"type": "address"
				}
			],
			"stateMutability": "view",
			"type": "function"
		},
		{
			"inputs": [],
			"name": "PROJECTS",
			"outputs": [
				{
					"internalType": "contract IJBProjects",
					"name": "",
					"type": "address"
				}
			],
			"stateMutability": "view",
			"type": "function"
		},
		{
			"inputs": [],
			"name": "SLIPPAGE_DENOMINATOR",
			"outputs": [
				{
					"internalType": "uint160",
					"name": "",
					"type": "uint160"
				}
			],
			"stateMutability": "view",
			"type": "function"
		},
		{
			"inputs": [],
			"name": "TOKEN_OUT",
			"outputs": [
				{
					"internalType": "address",
					"name": "",
					"type": "address"
				}
			],
			"stateMutability": "view",
			"type": "function"
		},
		{
			"inputs": [],
			"name": "WETH",
			"outputs": [
				{
					"internalType": "contract IWETH9",
					"name": "",
					"type": "address"
				}
			],
			"stateMutability": "view",
			"type": "function"
		},
		{
			"inputs": [
				{
					"internalType": "uint256",
					"name": "projectId",
					"type": "uint256"
				},
				{
					"internalType": "address",
					"name": "token",
					"type": "address"
				}
			],
			"name": "accountingContextForTokenOf",
			"outputs": [
				{
					"components": [
						{
							"internalType": "address",
							"name": "token",
							"type": "address"
						},
						{
							"internalType": "uint8",
							"name": "decimals",
							"type": "uint8"
						},
						{
							"internalType": "uint32",
							"name": "currency",
							"type": "uint32"
						}
					],
					"internalType": "struct JBAccountingContext",
					"name": "context",
					"type": "tuple"
				}
			],
			"stateMutability": "view",
			"type": "function"
		},
		{
			"inputs": [
				{
					"internalType": "uint256",
					"name": "projectId",
					"type": "uint256"
				}
			],
			"name": "accountingContextsOf",
			"outputs": [
				{
					"components": [
						{
							"internalType": "address",
							"name": "token",
							"type": "address"
						},
						{
							"internalType": "uint8",
							"name": "decimals",
							"type": "uint8"
						},
						{
							"internalType": "uint32",
							"name": "currency",
							"type": "uint32"
						}
					],
					"internalType": "struct JBAccountingContext[]",
					"name": "contexts",
					"type": "tuple[]"
				}
			],
			"stateMutability": "view",
			"type": "function"
		},
		{
			"inputs": [
				{
					"internalType": "uint256",
					"name": "projectId",
					"type": "uint256"
				},
				{
					"components": [
						{
							"internalType": "address",
							"name": "token",
							"type": "address"
						},
						{
							"internalType": "uint8",
							"name": "decimals",
							"type": "uint8"
						},
						{
							"internalType": "uint32",
							"name": "currency",
							"type": "uint32"
						}
					],
					"internalType": "struct JBAccountingContext[]",
					"name": "accountingContexts",
					"type": "tuple[]"
				}
			],
			"name": "addAccountingContextsFor",
			"outputs": [],
			"stateMutability": "nonpayable",
			"type": "function"
		},
		{
			"inputs": [
				{
					"internalType": "uint256",
					"name": "projectId",
					"type": "uint256"
				},
				{
					"internalType": "address",
					"name": "token",
					"type": "address"
				},
				{
					"internalType": "contract IUniswapV3Pool",
					"name": "pool",
					"type": "address"
				}
			],
			"name": "addDefaultPool",
			"outputs": [],
			"stateMutability": "nonpayable",
			"type": "function"
		},
		{
			"inputs": [
				{
					"internalType": "uint256",
					"name": "projectId",
					"type": "uint256"
				},
				{
					"internalType": "address",
					"name": "token",
					"type": "address"
				},
				{
					"internalType": "uint256",
					"name": "amount",
					"type": "uint256"
				},
				{
					"internalType": "bool",
					"name": "shouldReturnHeldFees",
					"type": "bool"
				},
				{
					"internalType": "string",
					"name": "memo",
					"type": "string"
				},
				{
					"internalType": "bytes",
					"name": "metadata",
					"type": "bytes"
				}
			],
			"name": "addToBalanceOf",
			"outputs": [],
			"stateMutability": "payable",
			"type": "function"
		},
		{
			"inputs": [
				{
					"internalType": "uint256",
					"name": "projectId",
					"type": "uint256"
				},
				{
					"internalType": "contract IUniswapV3Pool",
					"name": "pool",
					"type": "address"
				},
				{
					"internalType": "uint256",
					"name": "twapWindow",
					"type": "uint256"
				},
				{
					"internalType": "uint256",
					"name": "slippageTolerance",
					"type": "uint256"
				}
			],
			"name": "addTwapParamsFor",
			"outputs": [],
			"stateMutability": "nonpayable",
			"type": "function"
		},
		{
			"inputs": [
				{
					"internalType": "uint256",
					"name": "projectId",
					"type": "uint256"
				},
				{
					"components": [
						{
							"internalType": "address",
							"name": "token",
							"type": "address"
						},
						{
							"internalType": "uint8",
							"name": "decimals",
							"type": "uint8"
						},
						{
							"internalType": "uint32",
							"name": "currency",
							"type": "uint32"
						}
					],
					"internalType": "struct JBAccountingContext[]",
					"name": "accountingContexts",
					"type": "tuple[]"
				},
				{
					"internalType": "uint256",
					"name": "decimals",
					"type": "uint256"
				},
				{
					"internalType": "uint256",
					"name": "currency",
					"type": "uint256"
				}
			],
			"name": "currentSurplusOf",
			"outputs": [
				{
					"internalType": "uint256",
					"name": "",
					"type": "uint256"
				}
			],
			"stateMutability": "view",
			"type": "function"
		},
		{
			"inputs": [
				{
					"internalType": "uint256",
					"name": "projectId",
					"type": "uint256"
				},
				{
					"internalType": "address",
					"name": "tokenIn",
					"type": "address"
				}
			],
			"name": "getPoolFor",
			"outputs": [
				{
					"internalType": "contract IUniswapV3Pool",
					"name": "pool",
					"type": "address"
				},
				{
					"internalType": "bool",
					"name": "zeroForOne",
					"type": "bool"
				}
			],
			"stateMutability": "view",
			"type": "function"
		},
		{
			"inputs": [
				{
					"internalType": "uint256",
					"name": "projectId",
					"type": "uint256"
				},
				{
					"internalType": "address",
					"name": "token",
					"type": "address"
				},
				{
					"internalType": "contract IJBTerminal",
					"name": "to",
					"type": "address"
				}
			],
			"name": "migrateBalanceOf",
			"outputs": [
				{
					"internalType": "uint256",
					"name": "balance",
					"type": "uint256"
				}
			],
			"stateMutability": "nonpayable",
			"type": "function"
		},
		{
			"inputs": [],
			"name": "owner",
			"outputs": [
				{
					"internalType": "address",
					"name": "",
					"type": "address"
				}
			],
			"stateMutability": "view",
			"type": "function"
		},
		{
			"inputs": [
				{
					"internalType": "uint256",
					"name": "projectId",
					"type": "uint256"
				},
				{
					"internalType": "address",
					"name": "token",
					"type": "address"
				},
				{
					"internalType": "uint256",
					"name": "amount",
					"type": "uint256"
				},
				{
					"internalType": "address",
					"name": "beneficiary",
					"type": "address"
				},
				{
					"internalType": "uint256",
					"name": "minReturnedTokens",
					"type": "uint256"
				},
				{
					"internalType": "string",
					"name": "memo",
					"type": "string"
				},
				{
					"internalType": "bytes",
					"name": "metadata",
					"type": "bytes"
				}
			],
			"name": "pay",
			"outputs": [
				{
					"internalType": "uint256",
					"name": "",
					"type": "uint256"
				}
			],
			"stateMutability": "payable",
			"type": "function"
		},
		{
			"inputs": [],
			"name": "renounceOwnership",
			"outputs": [],
			"stateMutability": "nonpayable",
			"type": "function"
		},
		{
			"inputs": [
				{
					"internalType": "bytes4",
					"name": "interfaceId",
					"type": "bytes4"
				}
			],
			"name": "supportsInterface",
			"outputs": [
				{
					"internalType": "bool",
					"name": "",
					"type": "bool"
				}
			],
			"stateMutability": "view",
			"type": "function"
		},
		{
			"inputs": [
				{
					"internalType": "address",
					"name": "newOwner",
					"type": "address"
				}
			],
			"name": "transferOwnership",
			"outputs": [],
			"stateMutability": "nonpayable",
			"type": "function"
		},
		{
			"inputs": [
				{
					"internalType": "uint256",
					"name": "projectId",
					"type": "uint256"
				},
				{
					"internalType": "contract IUniswapV3Pool",
					"name": "pool",
					"type": "address"
				}
			],
			"name": "twapParamsOf",
			"outputs": [
				{
					"internalType": "uint32",
					"name": "",
					"type": "uint32"
				},
				{
					"internalType": "uint160",
					"name": "",
					"type": "uint160"
				}
			],
			"stateMutability": "view",
			"type": "function"
		},
		{
			"inputs": [
				{
					"internalType": "int256",
					"name": "amount0Delta",
					"type": "int256"
				},
				{
					"internalType": "int256",
					"name": "amount1Delta",
					"type": "int256"
				},
				{
					"internalType": "bytes",
					"name": "data",
					"type": "bytes"
				}
			],
			"name": "uniswapV3SwapCallback",
			"outputs": [],
			"stateMutability": "nonpayable",
			"type": "function"
		},
		{
			"anonymous": false,
			"inputs": [
				{
					"indexed": true,
					"internalType": "uint256",
					"name": "projectId",
					"type": "uint256"
				},
				{
					"indexed": false,
					"internalType": "uint256",
					"name": "amount",
					"type": "uint256"
				},
				{
					"indexed": false,
					"internalType": "uint256",
					"name": "returnedFees",
					"type": "uint256"
				},
				{
					"indexed": false,
					"internalType": "string",
					"name": "memo",
					"type": "string"
				},
				{
					"indexed": false,
					"internalType": "bytes",
					"name": "metadata",
					"type": "bytes"
				},
				{
					"indexed": false,
					"internalType": "address",
					"name": "caller",
					"type": "address"
				}
			],
			"name": "AddToBalance",
			"type": "event"
		},
		{
			"anonymous": false,
			"inputs": [
				{
					"indexed": true,
					"internalType": "contract IJBPayHook",
					"name": "hook",
					"type": "address"
				},
				{
					"components": [
						{
							"internalType": "address",
							"name": "payer",
							"type": "address"
						},
						{
							"internalType": "uint256",
							"name": "projectId",
							"type": "uint256"
						},
						{
							"internalType": "uint256",
							"name": "rulesetId",
							"type": "uint256"
						},
						{
							"components": [
								{
									"internalType": "address",
									"name": "token",
									"type": "address"
								},
								{
									"internalType": "uint8",
									"name": "decimals",
									"type": "uint8"
								},
								{
									"internalType": "uint32",
									"name": "currency",
									"type": "uint32"
								},
								{
									"internalType": "uint256",
									"name": "value",
									"type": "uint256"
								}
							],
							"internalType": "struct JBTokenAmount",
							"name": "amount",
							"type": "tuple"
						},
						{
							"components": [
								{
									"internalType": "address",
									"name": "token",
									"type": "address"
								},
								{
									"internalType": "uint8",
									"name": "decimals",
									"type": "uint8"
								},
								{
									"internalType": "uint32",
									"name": "currency",
									"type": "uint32"
								},
								{
									"internalType": "uint256",
									"name": "value",
									"type": "uint256"
								}
							],
							"internalType": "struct JBTokenAmount",
							"name": "forwardedAmount",
							"type": "tuple"
						},
						{
							"internalType": "uint256",
							"name": "weight",
							"type": "uint256"
						},
						{
							"internalType": "uint256",
							"name": "newlyIssuedTokenCount",
							"type": "uint256"
						},
						{
							"internalType": "address",
							"name": "beneficiary",
							"type": "address"
						},
						{
							"internalType": "bytes",
							"name": "hookMetadata",
							"type": "bytes"
						},
						{
							"internalType": "bytes",
							"name": "payerMetadata",
							"type": "bytes"
						}
					],
					"indexed": false,
					"internalType": "struct JBAfterPayRecordedContext",
					"name": "context",
					"type": "tuple"
				},
				{
					"indexed": false,
					"internalType": "uint256",
					"name": "specificationAmount",
					"type": "uint256"
				},
				{
					"indexed": false,
					"internalType": "address",
					"name": "caller",
					"type": "address"
				}
			],
			"name": "HookAfterRecordPay",
			"type": "event"
		},
		{
			"anonymous": false,
			"inputs": [
				{
					"indexed": true,
					"internalType": "uint256",
					"name": "projectId",
					"type": "uint256"
				},
				{
					"indexed": true,
					"internalType": "address",
					"name": "token",
					"type": "address"
				},
				{
					"indexed": true,
					"internalType": "contract IJBTerminal",
					"name": "to",
					"type": "address"
				},
				{
					"indexed": false,
					"internalType": "uint256",
					"name": "amount",
					"type": "uint256"
				},
				{
					"indexed": false,
					"internalType": "address",
					"name": "caller",
					"type": "address"
				}
			],
			"name": "MigrateTerminal",
			"type": "event"
		},
		{
			"anonymous": false,
			"inputs": [
				{
					"indexed": true,
					"internalType": "address",
					"name": "previousOwner",
					"type": "address"
				},
				{
					"indexed": true,
					"internalType": "address",
					"name": "newOwner",
					"type": "address"
				}
			],
			"name": "OwnershipTransferred",
			"type": "event"
		},
		{
			"anonymous": false,
			"inputs": [
				{
					"indexed": true,
					"internalType": "uint256",
					"name": "rulesetId",
					"type": "uint256"
				},
				{
					"indexed": true,
					"internalType": "uint256",
					"name": "rulesetCycleNumber",
					"type": "uint256"
				},
				{
					"indexed": true,
					"internalType": "uint256",
					"name": "projectId",
					"type": "uint256"
				},
				{
					"indexed": false,
					"internalType": "address",
					"name": "payer",
					"type": "address"
				},
				{
					"indexed": false,
					"internalType": "address",
					"name": "beneficiary",
					"type": "address"
				},
				{
					"indexed": false,
					"internalType": "uint256",
					"name": "amount",
					"type": "uint256"
				},
				{
					"indexed": false,
					"internalType": "uint256",
					"name": "newlyIssuedTokenCount",
					"type": "uint256"
				},
				{
					"indexed": false,
					"internalType": "string",
					"name": "memo",
					"type": "string"
				},
				{
					"indexed": false,
					"internalType": "bytes",
					"name": "metadata",
					"type": "bytes"
				},
				{
					"indexed": false,
					"internalType": "address",
					"name": "caller",
					"type": "address"
				}
			],
			"name": "Pay",
			"type": "event"
		},
		{
			"anonymous": false,
			"inputs": [
				{
					"indexed": true,
					"internalType": "uint256",
					"name": "projectId",
					"type": "uint256"
				},
				{
					"components": [
						{
							"internalType": "address",
							"name": "token",
							"type": "address"
						},
						{
							"internalType": "uint8",
							"name": "decimals",
							"type": "uint8"
						},
						{
							"internalType": "uint32",
							"name": "currency",
							"type": "uint32"
						}
					],
					"indexed": false,
					"internalType": "struct JBAccountingContext",
					"name": "context",
					"type": "tuple"
				},
				{
					"indexed": false,
					"internalType": "address",
					"name": "caller",
					"type": "address"
				}
			],
			"name": "SetAccountingContext",
			"type": "event"
		},
		{
			"inputs": [],
			"name": "FailedCall",
			"type": "error"
		},
		{
			"inputs": [
				{
					"internalType": "uint256",
					"name": "balance",
					"type": "uint256"
				},
				{
					"internalType": "uint256",
					"name": "needed",
					"type": "uint256"
				}
			],
			"name": "InsufficientBalance",
			"type": "error"
		},
		{
			"inputs": [
				{
					"internalType": "address",
					"name": "account",
					"type": "address"
				},
				{
					"internalType": "address",
					"name": "sender",
					"type": "address"
				},
				{
					"internalType": "uint256",
					"name": "projectId",
					"type": "uint256"
				},
				{
					"internalType": "uint256",
					"name": "permissionId",
					"type": "uint256"
				}
			],
			"name": "JBPermissioned_Unauthorized",
			"type": "error"
		},
		{
			"inputs": [
				{
					"internalType": "address",
					"name": "caller",
					"type": "address"
				}
			],
			"name": "JBSwapTerminal_CallerNotPool",
			"type": "error"
		},
		{
			"inputs": [
				{
					"internalType": "uint256",
					"name": "slippageTolerance",
					"type": "uint256"
				},
				{
					"internalType": "uint256",
					"name": "minSlippageTolerance",
					"type": "uint256"
				},
				{
					"internalType": "uint256",
					"name": "maxSlippageTolerance",
					"type": "uint256"
				}
			],
			"name": "JBSwapTerminal_InvalidTwapSlippageTolerance",
			"type": "error"
		},
		{
			"inputs": [
				{
					"internalType": "uint256",
					"name": "window",
					"type": "uint256"
				},
				{
					"internalType": "uint256",
					"name": "minWindow",
					"type": "uint256"
				},
				{
					"internalType": "uint256",
					"name": "maxWindow",
					"type": "uint256"
				}
			],
			"name": "JBSwapTerminal_InvalidTwapWindow",
			"type": "error"
		},
		{
			"inputs": [
				{
					"internalType": "uint256",
					"name": "projectId",
					"type": "uint256"
				},
				{
					"internalType": "address",
					"name": "token",
					"type": "address"
				}
			],
			"name": "JBSwapTerminal_NoDefaultPoolDefined",
			"type": "error"
		},
		{
			"inputs": [
				{
					"internalType": "uint256",
					"name": "value",
					"type": "uint256"
				}
			],
			"name": "JBSwapTerminal_NoMsgValueAllowed",
			"type": "error"
		},
		{
			"inputs": [
				{
					"internalType": "uint256",
					"name": "amount",
					"type": "uint256"
				},
				{
					"internalType": "uint256",
					"name": "allowance",
					"type": "uint256"
				}
			],
			"name": "JBSwapTerminal_PermitAllowanceNotEnough",
			"type": "error"
		},
		{
			"inputs": [
				{
					"internalType": "uint256",
					"name": "amount",
					"type": "uint256"
				},
				{
					"internalType": "uint256",
					"name": "minimum",
					"type": "uint256"
				}
			],
			"name": "JBSwapTerminal_SpecifiedSlippageExceeded",
			"type": "error"
		},
		{
			"inputs": [
				{
					"internalType": "uint256",
					"name": "projectId",
					"type": "uint256"
				},
				{
					"internalType": "address",
					"name": "token",
					"type": "address"
				}
			],
			"name": "JBSwapTerminal_TokenNotAccepted",
			"type": "error"
		},
		{
			"inputs": [
				{
					"internalType": "address",
					"name": "caller",
					"type": "address"
				}
			],
			"name": "JBSwapTerminal_UnexpectedCall",
			"type": "error"
		},
		{
			"inputs": [
				{
					"internalType": "address",
					"name": "pool",
					"type": "address"
				},
				{
					"internalType": "address",
					"name": "expectedPool",
					"type": "address"
				}
			],
			"name": "JBSwapTerminal_WrongPool",
			"type": "error"
		},
		{
			"inputs": [],
			"name": "JBSwapTerminal_ZeroToken",
			"type": "error"
		},
		{
			"inputs": [
				{
					"internalType": "address",
					"name": "owner",
					"type": "address"
				}
			],
			"name": "OwnableInvalidOwner",
			"type": "error"
		},
		{
			"inputs": [
				{
					"internalType": "address",
					"name": "account",
					"type": "address"
				}
			],
			"name": "OwnableUnauthorizedAccount",
			"type": "error"
		},
		{
			"inputs": [
				{
					"internalType": "address",
					"name": "token",
					"type": "address"
				}
			],
			"name": "SafeERC20FailedOperation",
			"type": "error"
		},
		{
			"inputs": [],
			"name": "T",
			"type": "error"
		}
	],
	"args": [],
	"solcInputHash": "85498526708ef02d9903504cafde9845",
	"bytecode": "0x61018060405234801562000011575f80fd5b506040516200547738038062005477833981016040819052620000349162000144565b6001600160a01b03808816608052849081166200006a57604051631e4fbdf760e01b81525f600482015260240160405180910390fd5b6200007581620000dd565b506001600160a01b0382166200009e57604051635cd24a5760e11b815260040160405180910390fd5b6001600160a01b0397881660a0529487166101005292861660e05285166101405250831661012081905261eeee146101605290911660c0525062000200565b5f80546001600160a01b038381166001600160a01b0319831681178455604051919092169283917f8be0079c531659141344cd1fd0a4f28419497f9722a3daafe3b4186f6b6457e09190a35050565b6001600160a01b038116811462000141575f80fd5b50565b5f805f805f805f80610100898b0312156200015d575f80fd5b88516200016a816200012c565b60208a01519098506200017d816200012c565b60408a015190975062000190816200012c565b60608a0151909650620001a3816200012c565b60808a0151909550620001b6816200012c565b60a08a0151909450620001c9816200012c565b60c08a0151909350620001dc816200012c565b60e08a0151909250620001ef816200012c565b809150509295985092959890939650565b60805160a05160c05160e05161010051610120516101405161016051615157620003205f395f818161210f015281816125d20152818161281a01526130e601525f81816101e5015281816105b901528181611b0201528181611c450152818161215a015281816125810152818161278d015261313901525f818161028e0152818161169b01528181611791015281816117e00152818161182701528181611d3101528181611e2701528181611e7601528181611ebd015261213501525f8181610346015281816108ee01526118e301525f818161048e015281816124280152612c9001525f818161038c015281816109af0152610b1701525f8181610535015281816116c50152611d5d01525f81816106990152611fe401526151575ff3fe6080604052600436106101c8575f3560e01c80637c5e9c24116100f2578063b88a92b411610092578063f2fde38b11610062578063f2fde38b14610669578063f434c91414610688578063fa461e33146106bb578063fef43257146106da575f80fd5b8063b88a92b4146105ef578063be6963f214610605578063e28b541114610624578063edb4095014610646575f80fd5b80639e6eec05116100cd5780639e6eec0514610580578063ac90511414610593578063ad5c4648146105a8578063af471880146105db575f80fd5b80637c5e9c24146104d957806388bc2ef3146105245780638da5cb5b14610557575f80fd5b80632dd3100011610168578063515a929311610138578063515a9293146104515780636afdd8501461047d578063715018a6146104b0578063754baf96146104c4575f80fd5b80632dd310001461037b5780632e4c3cbf146103ae5780633a01714f146103d557806340873cb514610401575f80fd5b806324e26dc5116101a357806324e26dc5146102f7578063253721c814610316578063293c4999146103355780632c1ae88214610368575f80fd5b806301ffc9a7146102495780630392ef941461027d5780631a65893b146102d5575f80fd5b36610245573373ffffffffffffffffffffffffffffffffffffffff7f00000000000000000000000000000000000000000000000000000000000000001614610243576040517fb320fe970000000000000000000000000000000000000000000000000000000081523360048201526024015b60405180910390fd5b005b5f80fd5b348015610254575f80fd5b50610268610263366004614096565b6106ed565b60405190151581526020015b60405180910390f35b348015610288575f80fd5b506102b07f000000000000000000000000000000000000000000000000000000000000000081565b60405173ffffffffffffffffffffffffffffffffffffffff9091168152602001610274565b3480156102e0575f80fd5b506102e9607881565b604051908152602001610274565b348015610302575f80fd5b506102436103113660046140f6565b6108b5565b348015610321575f80fd5b50610243610330366004614135565b505050565b348015610340575f80fd5b506102b07f000000000000000000000000000000000000000000000000000000000000000081565b348015610373575f80fd5b506102e95f81565b348015610386575f80fd5b506102b07f000000000000000000000000000000000000000000000000000000000000000081565b3480156103b9575f80fd5b506103c2600a81565b60405161ffff9091168152602001610274565b3480156103e0575f80fd5b506103f46103ef3660046141ad565b610f97565b60405161027491906141db565b34801561040c575f80fd5b5061042061041b3660046141ad565b6110dd565b6040805163ffffffff909316835273ffffffffffffffffffffffffffffffffffffffff909116602083015201610274565b34801561045c575f80fd5b5061047061046b36600461421b565b61116b565b6040516102749190614232565b348015610488575f80fd5b506102b07f000000000000000000000000000000000000000000000000000000000000000081565b3480156104bb575f80fd5b50610243611586565b3480156104cf575f80fd5b506102e961232881565b3480156104e4575f80fd5b506104f86104f33660046141ad565b611599565b6040805173ffffffffffffffffffffffffffffffffffffffff9093168352901515602083015201610274565b34801561052f575f80fd5b506102b07f000000000000000000000000000000000000000000000000000000000000000081565b348015610562575f80fd5b505f5473ffffffffffffffffffffffffffffffffffffffff166102b0565b61024361058e3660046142fd565b611657565b34801561059e575f80fd5b506102b061271081565b3480156105b3575f80fd5b506102b07f000000000000000000000000000000000000000000000000000000000000000081565b3480156105e6575f80fd5b506102e9606481565b3480156105fa575f80fd5b506102e96202a30081565b348015610610575f80fd5b5061024361061f36600461439e565b6118aa565b34801561062f575f80fd5b506102e961063e3660046140f6565b5f9392505050565b348015610651575f80fd5b506102e96106603660046144e2565b5f949350505050565b348015610674575f80fd5b506102436106833660046145d2565b611a64565b348015610693575f80fd5b506102b07f000000000000000000000000000000000000000000000000000000000000000081565b3480156106c6575f80fd5b506102436106d53660046145ed565b611ac7565b6102e96106e836600461463c565b611ced565b5f7fffffffff0000000000000000000000000000000000000000000000000000000082167f21c9410700000000000000000000000000000000000000000000000000000000148061077f57507fffffffff0000000000000000000000000000000000000000000000000000000082167f6afdd85000000000000000000000000000000000000000000000000000000000145b806107cb57507fffffffff0000000000000000000000000000000000000000000000000000000082167f01ffc9a700000000000000000000000000000000000000000000000000000000145b8061081757507fffffffff0000000000000000000000000000000000000000000000000000000082167ffa461e3300000000000000000000000000000000000000000000000000000000145b8061086357507fffffffff0000000000000000000000000000000000000000000000000000000082167ff434c91400000000000000000000000000000000000000000000000000000000145b806108af57507fffffffff0000000000000000000000000000000000000000000000000000000082167f4cae278700000000000000000000000000000000000000000000000000000000145b92915050565b8215610979576040517f6352211e00000000000000000000000000000000000000000000000000000000815260048101849052610974907f000000000000000000000000000000000000000000000000000000000000000073ffffffffffffffffffffffffffffffffffffffff1690636352211e90602401602060405180830381865afa158015610948573d5f803e3d5ffd5b505050506040513d601f19601f8201168201806040525081019061096c91906146e8565b84601a611f59565b610981565b6109816120ba565b5f61098a61210c565b905073ffffffffffffffffffffffffffffffffffffffff8082168482161090838116907f000000000000000000000000000000000000000000000000000000000000000016631698ee82836109df57846109e1565b865b846109ec57876109ee565b855b8773ffffffffffffffffffffffffffffffffffffffff1663ddca3f436040518163ffffffff1660e01b8152600401602060405180830381865afa158015610a37573d5f803e3d5ffd5b505050506040513d601f19601f82011682018060405250810190610a5b9190614703565b6040517fffffffff0000000000000000000000000000000000000000000000000000000060e086901b16815273ffffffffffffffffffffffffffffffffffffffff938416600482015292909116602483015262ffffff166044820152606401602060405180830381865afa158015610ad5573d5f803e3d5ffd5b505050506040513d601f19601f82011682018060405250810190610af991906146e8565b73ffffffffffffffffffffffffffffffffffffffff1614610cc857827f000000000000000000000000000000000000000000000000000000000000000073ffffffffffffffffffffffffffffffffffffffff16631698ee8283610b5c5784610b5e565b865b84610b695787610b6b565b855b8773ffffffffffffffffffffffffffffffffffffffff1663ddca3f436040518163ffffffff1660e01b8152600401602060405180830381865afa158015610bb4573d5f803e3d5ffd5b505050506040513d601f19601f82011682018060405250810190610bd89190614703565b6040517fffffffff0000000000000000000000000000000000000000000000000000000060e086901b16815273ffffffffffffffffffffffffffffffffffffffff938416600482015292909116602483015262ffffff166044820152606401602060405180830381865afa158015610c52573d5f803e3d5ffd5b505050506040513d601f19601f82011682018060405250810190610c7691906146e8565b6040517fe2bbe4ec00000000000000000000000000000000000000000000000000000000815273ffffffffffffffffffffffffffffffffffffffff92831660048201529116602482015260440161023a565b6040517f32148f67000000000000000000000000000000000000000000000000000000008152600a600482015273ffffffffffffffffffffffffffffffffffffffff8416906332148f67906024015f604051808303815f87803b158015610d2d575f80fd5b505af1158015610d3f573d5f803e3d5ffd5b5050505f86815260026020908152604080832073ffffffffffffffffffffffffffffffffffffffff8981168552925290912054169050610dd5575f8581526003602090815260408220805460018101825590835291200180547fffffffffffffffffffffffff00000000000000000000000000000000000000001673ffffffffffffffffffffffffffffffffffffffff86161790555b5f85815260026020908152604080832073ffffffffffffffffffffffffffffffffffffffff8881168086529184529382902080547fffffffffffffffffffffffff00000000000000000000000000000000000000001694881694909417909355805160608101825283815281517f313ce5670000000000000000000000000000000000000000000000000000000081529151909384840193909263313ce56792600480830193928290030181865afa158015610e93573d5f803e3d5ffd5b505050506040513d601f19601f82011682018060405250810190610eb79190614725565b60ff908116825263ffffffff8088166020938401525f988952600183526040808a2073ffffffffffffffffffffffffffffffffffffffff998a168b52845298899020845181549486015195909a01519091167501000000000000000000000000000000000000000000027fffffffffffffff00000000ffffffffffffffffffffffffffffffffffffffffff9490921674010000000000000000000000000000000000000000027fffffffffffffffffffffff0000000000000000000000000000000000000000009093169890971697909717171694909417909255505050565b60408051606080820183525f80835260208084018290529284018190528581526001835283812073ffffffffffffffffffffffffffffffffffffffff868116835290845290849020845192830185525490811680835274010000000000000000000000000000000000000000820460ff16938301939093527501000000000000000000000000000000000000000000900463ffffffff16928101929092526108af575073ffffffffffffffffffffffffffffffffffffffff8181165f9081527fa6eef7e35abe7026729641147f7915573c7e97b47efa546f5f6e3230263bcb49602090815260409182902082516060810184529054938416815274010000000000000000000000000000000000000000840460ff1691810191909152750100000000000000000000000000000000000000000090920463ffffffff169082015292915050565b5f82815260046020908152604080832073ffffffffffffffffffffffffffffffffffffffff85168452909152812054819080820361115b575073ffffffffffffffffffffffffffffffffffffffff83165f9081527f17ef568e3e12ab5b9c7254a8d58478811de00f9e6eb34345acd53bf8fd09d3ec60205260409020545b915050602081901c5b9250929050565b5f8181526003602090815260408083208054825181850281018501909352808352606094938301828280156111d457602002820191905f5260205f20905b815473ffffffffffffffffffffffffffffffffffffffff1681526001909101906020018083116111a9575b50505f808052600360209081527f3617319a054d772f909f7c479a2cebe5066e836a939412e32403c99029b92eff8054604080518285028101850190915281815297985092969550935090915083018282801561126557602002820191905f5260205f20905b815473ffffffffffffffffffffffffffffffffffffffff16815260019091019060200180831161123a575b50508551845194955093925061127f91508290508361476d565b67ffffffffffffffff811115611297576112976143d8565b6040519080825280602002602001820160405280156112ff57816020015b604080516060810182525f80825260208083018290529282015282527fffffffffffffffffffffffffffffffffffffffffffffffffffffffffffffffff9092019101816112b55790505b5094505f5b828110156113e05760015f8881526020019081526020015f205f86838151811061133057611330614780565b60209081029190910181015173ffffffffffffffffffffffffffffffffffffffff90811683528282019390935260409182015f2082516060810184529054938416815274010000000000000000000000000000000000000000840460ff1691810191909152750100000000000000000000000000000000000000000090920463ffffffff169082015286518790839081106113cd576113cd614780565b6020908102919091010152600101611304565b50815f5b8281101561156e575f805b8581101561146d5786838151811061140957611409614780565b602002602001015173ffffffffffffffffffffffffffffffffffffffff1688828151811061143957611439614780565b602002602001015173ffffffffffffffffffffffffffffffffffffffff1603611465576001915061146d565b6001016113ef565b5080611565575f808052600160205286517fa6eef7e35abe7026729641147f7915573c7e97b47efa546f5f6e3230263bcb4991908890859081106114b3576114b3614780565b60209081029190910181015173ffffffffffffffffffffffffffffffffffffffff90811683528282019390935260409182015f2082516060810184529054938416815274010000000000000000000000000000000000000000840460ff1691810191909152750100000000000000000000000000000000000000000090920463ffffffff16908201528884611547816147ad565b95508151811061155957611559614780565b60200260200101819052505b506001016113e4565b50855181101561157c578086525b5050505050919050565b61158e6120ba565b6115975f61217c565b565b5f82815260026020908152604080832073ffffffffffffffffffffffffffffffffffffffff808616855292528220541690816116185773ffffffffffffffffffffffffffffffffffffffff8084165f9081527fac33ff75c19e70fe83507db0d683fd3465c996598dc972688b7ace676c89077b60205260409020541691505b61162061210c565b73ffffffffffffffffffffffffffffffffffffffff168373ffffffffffffffffffffffffffffffffffffffff161090509250929050565b6040517f862026500000000000000000000000000000000000000000000000000000000081526004810189905273ffffffffffffffffffffffffffffffffffffffff7f0000000000000000000000000000000000000000000000000000000000000000811660248301525f917f000000000000000000000000000000000000000000000000000000000000000090911690638620265090604401602060405180830381865afa15801561170c573d5f803e3d5ffd5b505050506040513d601f19601f8201168201806040525081019061173091906146e8565b905073ffffffffffffffffffffffffffffffffffffffff81166117be576040517fcf78a6fc000000000000000000000000000000000000000000000000000000008152600481018a905273ffffffffffffffffffffffffffffffffffffffff7f000000000000000000000000000000000000000000000000000000000000000016602482015260440161023a565b5f6117d78a8a6117d08c8c89896121f0565b8787612558565b90505f611805837f000000000000000000000000000000000000000000000000000000000000000084612817565b90508273ffffffffffffffffffffffffffffffffffffffff16639e6eec05828d7f0000000000000000000000000000000000000000000000000000000000000000868d8d8d8d8d6040518a63ffffffff1660e01b815260040161186f98979695949392919061482b565b5f604051808303818588803b158015611886575f80fd5b505af1158015611898573d5f803e3d5ffd5b50505050505050505050505050505050565b831561196e576040517f6352211e00000000000000000000000000000000000000000000000000000000815260048101859052611969907f000000000000000000000000000000000000000000000000000000000000000073ffffffffffffffffffffffffffffffffffffffff1690636352211e90602401602060405180830381865afa15801561193d573d5f803e3d5ffd5b505050506040513d601f19601f8201168201806040525081019061196191906146e8565b85601b611f59565b611976565b6119766120ba565b607882108061198757506202a30082115b156119d1576040517f9442583100000000000000000000000000000000000000000000000000000000815260048101839052607860248201526202a300604482015260640161023a565b60648110806119e1575061232881115b15611a2a576040517f1f463fad0000000000000000000000000000000000000000000000000000000081526004810182905260646024820181905261232860448301520161023a565b5f93845260046020908152604080862073ffffffffffffffffffffffffffffffffffffffff9095168652938152929093209290911b179055565b611a6c6120ba565b73ffffffffffffffffffffffffffffffffffffffff8116611abb576040517f1e4fbdf70000000000000000000000000000000000000000000000000000000081525f600482015260240161023a565b611ac48161217c565b50565b5f80611ad5838501856141ad565b90925090505f73ffffffffffffffffffffffffffffffffffffffff821661eeee14611b005781611b22565b7f00000000000000000000000000000000000000000000000000000000000000005b5f84815260026020908152604080832073ffffffffffffffffffffffffffffffffffffffff80861685529252909120549192501680611ba3575073ffffffffffffffffffffffffffffffffffffffff8082165f9081527fac33ff75c19e70fe83507db0d683fd3465c996598dc972688b7ace676c89077b6020526040902054165b3373ffffffffffffffffffffffffffffffffffffffff821614611bf4576040517fbca42a5400000000000000000000000000000000000000000000000000000000815233600482015260240161023a565b5f808912611c025788611c04565b875b90507fffffffffffffffffffffffffffffffffffffffffffffffffffffffffffff111273ffffffffffffffffffffffffffffffffffffffff851601611cc1577f000000000000000000000000000000000000000000000000000000000000000073ffffffffffffffffffffffffffffffffffffffff1663d0e30db0826040518263ffffffff1660e01b81526004015f604051808303818588803b158015611ca9575f80fd5b505af1158015611cbb573d5f803e3d5ffd5b50505050505b611ce273ffffffffffffffffffffffffffffffffffffffff84163383612870565b505050505050505050565b6040517f86202650000000000000000000000000000000000000000000000000000000008152600481018a905273ffffffffffffffffffffffffffffffffffffffff7f0000000000000000000000000000000000000000000000000000000000000000811660248301525f9182917f00000000000000000000000000000000000000000000000000000000000000001690638620265090604401602060405180830381865afa158015611da2573d5f803e3d5ffd5b505050506040513d601f19601f82011682018060405250810190611dc691906146e8565b905073ffffffffffffffffffffffffffffffffffffffff8116611e54576040517fcf78a6fc000000000000000000000000000000000000000000000000000000008152600481018c905273ffffffffffffffffffffffffffffffffffffffff7f000000000000000000000000000000000000000000000000000000000000000016602482015260440161023a565b5f611e6d8c8c611e668e8e8a8a6121f0565b8888612558565b90505f611e9b837f000000000000000000000000000000000000000000000000000000000000000084612817565b90508273ffffffffffffffffffffffffffffffffffffffff1663fef43257828f7f0000000000000000000000000000000000000000000000000000000000000000868f8f8f8f8f8f6040518b63ffffffff1660e01b8152600401611f0799989796959493929190614890565b60206040518083038185885af1158015611f23573d5f803e3d5ffd5b50505050506040513d601f19601f82011682018060405250810190611f4891906148fe565b9d9c50505050505050505050505050565b3373ffffffffffffffffffffffffffffffffffffffff8416811480159061204f57506040517f348b684e00000000000000000000000000000000000000000000000000000000815273ffffffffffffffffffffffffffffffffffffffff82811660048301528581166024830152604482018590526064820184905260016084830181905260a48301527f0000000000000000000000000000000000000000000000000000000000000000169063348b684e9060c401602060405180830381865afa158015612029573d5f803e3d5ffd5b505050506040513d601f19601f8201168201806040525081019061204d9190614915565b155b156120b4576040517f264deeaa00000000000000000000000000000000000000000000000000000000815273ffffffffffffffffffffffffffffffffffffffff808616600483015282166024820152604481018490526064810183905260840161023a565b50505050565b5f5473ffffffffffffffffffffffffffffffffffffffff163314611597576040517f118cdaa700000000000000000000000000000000000000000000000000000000815233600482015260240161023a565b5f7f000000000000000000000000000000000000000000000000000000000000000061215757507f000000000000000000000000000000000000000000000000000000000000000090565b507f000000000000000000000000000000000000000000000000000000000000000090565b5f805473ffffffffffffffffffffffffffffffffffffffff8381167fffffffffffffffffffffffff0000000000000000000000000000000000000000831681178455604051919092169283917f8be0079c531659141344cd1fd0a4f28419497f9722a3daafe3b4186f6b6457e09190a35050565b5f7fffffffffffffffffffffffffffffffffffffffffffffffffffffffffffff111273ffffffffffffffffffffffffffffffffffffffff861601612235575034612550565b341561226f576040517f15f828f800000000000000000000000000000000000000000000000000000000815234600482015260240161023a565b5f806122ed6122b26040518060400160405280600781526020017f7065726d697432000000000000000000000000000000000000000000000000008152506128f1565b86868080601f0160208091040260200160405190810160405280939291908181526020018383808284375f9201919091525061290492505050565b9150915081156124b3575f8180602001905181019061230c919061496c565b9050806020015173ffffffffffffffffffffffffffffffffffffffff168711156123875760208101516040517f6efd58f80000000000000000000000000000000000000000000000000000000081526004810189905273ffffffffffffffffffffffffffffffffffffffff909116602482015260440161023a565b5f604051806060016040528060405180608001604052808c73ffffffffffffffffffffffffffffffffffffffff168152602001856020015173ffffffffffffffffffffffffffffffffffffffff168152602001856040015165ffffffffffff168152602001856060015165ffffffffffff1681525081526020013073ffffffffffffffffffffffffffffffffffffffff168152602001835f015181525090507f000000000000000000000000000000000000000000000000000000000000000073ffffffffffffffffffffffffffffffffffffffff16632b67b570338385608001516040518463ffffffff1660e01b815260040161248793929190614acc565b5f604051808303815f87803b15801561249e575f80fd5b505af19250505080156124af575060015b5050505b6124bf33308989612aeb565b6040517f70a0823100000000000000000000000000000000000000000000000000000000815230600482015273ffffffffffffffffffffffffffffffffffffffff8816906370a0823190602401602060405180830381865afa158015612527573d5f803e3d5ffd5b505050506040513d601f19601f8201168201806040525081019061254b91906148fe565b925050505b949350505050565b5f8073ffffffffffffffffffffffffffffffffffffffff861661eeee1461257f57856125a1565b7f00000000000000000000000000000000000000000000000000000000000000005b90505f6125ac61210c565b905073ffffffffffffffffffffffffffffffffffffffff871661eeee1480156125f257507f00000000000000000000000000000000000000000000000000000000000000005b8061262857508073ffffffffffffffffffffffffffffffffffffffff168273ffffffffffffffffffffffffffffffffffffffff16145b1561263757859250505061280e565b5f8061264787878c878c88612ced565b915091505f6126888a8a858773ffffffffffffffffffffffffffffffffffffffff168973ffffffffffffffffffffffffffffffffffffffff16108f87612f89565b6040517f70a082310000000000000000000000000000000000000000000000000000000081523060048201529091505f9073ffffffffffffffffffffffffffffffffffffffff8716906370a0823190602401602060405180830381865afa1580156126f5573d5f803e3d5ffd5b505050506040513d601f19601f8201168201806040525081019061271991906148fe565b90508015612806577fffffffffffffffffffffffffffffffffffffffffffffffffffffffffffff111273ffffffffffffffffffffffffffffffffffffffff8c16016127fa576040517f2e1a7d4d000000000000000000000000000000000000000000000000000000008152600481018290527f000000000000000000000000000000000000000000000000000000000000000073ffffffffffffffffffffffffffffffffffffffff1690632e1a7d4d906024015f604051808303815f87803b1580156127e3575f80fd5b505af11580156127f5573d5f803e3d5ffd5b505050505b61280630338d84612aeb565b509450505050505b95945050505050565b5f7f000000000000000000000000000000000000000000000000000000000000000015612845575080612869565b61286673ffffffffffffffffffffffffffffffffffffffff841685846131b2565b505f5b9392505050565b60405173ffffffffffffffffffffffffffffffffffffffff83811660248301526044820183905261033091859182169063a9059cbb906064015b604051602081830303815290604052915060e01b6020820180517bffffffffffffffffffffffffffffffffffffffffffffffffffffffff838183161783525050505061325f565b805160208201205f903060601b186108af565b5f6060602583511161292757505060408051602081019091525f80825290611164565b5f836129356004602061476d565b8151811061294557612945614780565b0160209081015160f81c91505b5f8561295f60048461476d565b8151811061296f5761296f614780565b01602001517fff0000000000000000000000000000000000000000000000000000000000000016148015906129ad57506129aa602083614b4d565b81105b15612ae2575f856129bf60048461476d565b815181106129cf576129cf614780565b016020908101518784019091015160f89190911c91507fffffffff0000000000000000000000000000000000000000000000000000000080891690821603612ad8575f612a1d602086614b4d565b612a2860098661476d565b101580612a75575087612a3c60098661476d565b81518110612a4c57612a4c614780565b01602001517fff0000000000000000000000000000000000000000000000000000000000000016155b612aae57602088612a8760098761476d565b81518110612a9757612a97614780565b0160200151612aa9919060f81c614b4d565b612ab1565b87515b90506001612aca89612ac4602087614b4d565b846132fe565b965096505050505050611164565b5050600501612952565b50509250929050565b3073ffffffffffffffffffffffffffffffffffffffff851603612b75577fffffffffffffffffffffffffffffffffffffffffffffffffffffffffffff111273ffffffffffffffffffffffffffffffffffffffff831601612b5457612b4f8382613343565b6120b4565b612b4f73ffffffffffffffffffffffffffffffffffffffff83168483612870565b6040517fdd62ed3e00000000000000000000000000000000000000000000000000000000815273ffffffffffffffffffffffffffffffffffffffff858116600483015230602483015282919084169063dd62ed3e90604401602060405180830381865afa158015612be8573d5f803e3d5ffd5b505050506040513d601f19601f82011682018060405250810190612c0c91906148fe565b10612c3357612b4f73ffffffffffffffffffffffffffffffffffffffff83168585846133f5565b6040517f36c7851600000000000000000000000000000000000000000000000000000000815273ffffffffffffffffffffffffffffffffffffffff85811660048301528481166024830152828116604483015283811660648301527f000000000000000000000000000000000000000000000000000000000000000016906336c78516906084015f604051808303815f87803b158015612cd1575f80fd5b505af1158015612ce3573d5f803e3d5ffd5b5050505050505050565b5f84815260026020908152604080832073ffffffffffffffffffffffffffffffffffffffff808816855292528220541680612dbf575073ffffffffffffffffffffffffffffffffffffffff8085165f9081527fac33ff75c19e70fe83507db0d683fd3465c996598dc972688b7ace676c89077b60205260409020541680612dbf576040517f891773860000000000000000000000000000000000000000000000000000000081526004810187905273ffffffffffffffffffffffffffffffffffffffff8616602482015260440161023a565b5f80612e3d612e026040518060400160405280600c81526020017f71756f7465466f725377617000000000000000000000000000000000000000008152506128f1565b8b8b8080601f0160208091040260200160405190810160405280939291908181526020018383808284375f9201919091525061290492505050565b915091508115612e625780806020019051810190612e5b91906148fe565b9350612f7c565b5f80612e6e8a866110dd565b915091505f612e7c8661343b565b90508263ffffffff168163ffffffff161015612e96578092505b5f8163ffffffff165f03612f22575f8773ffffffffffffffffffffffffffffffffffffffff16633850c7bd6040518163ffffffff1660e01b815260040160e060405180830381865afa158015612eee573d5f803e3d5ffd5b505050506040513d601f19601f82011682018060405250810190612f129190614b75565b50939650612f3095505050505050565b612f2c8785613677565b5090505b612f3c818b8d8c61392b565b9750612710612f6173ffffffffffffffffffffffffffffffffffffffff85168a614b4d565b612f6b9190614c35565b612f759089614c48565b9750505050505b5050965096945050505050565b5f805f8373ffffffffffffffffffffffffffffffffffffffff1663128acb0830888b8a612fd457612fcf600173fffd8963efd1fc6a506488495d951d5263988d26614c5b565b612fe4565b612fe46401000276a36001614c8f565b8a8f60405160200161301692919091825273ffffffffffffffffffffffffffffffffffffffff16602082015260400190565b6040516020818303038152906040526040518663ffffffff1660e01b8152600401613045959493929190614cbc565b60408051808303815f875af1158015613060573d5f803e3d5ffd5b505050506040513d601f19601f820116820180604052508101906130849190614d0d565b91509150856130935781613095565b805b61309e90614d2f565b9250868310156130e4576040517f371d1b7a000000000000000000000000000000000000000000000000000000008152600481018490526024810188905260440161023a565b7f0000000000000000000000000000000000000000000000000000000000000000156131a6576040517f2e1a7d4d000000000000000000000000000000000000000000000000000000008152600481018490527f000000000000000000000000000000000000000000000000000000000000000073ffffffffffffffffffffffffffffffffffffffff1690632e1a7d4d906024015f604051808303815f87803b15801561318f575f80fd5b505af11580156131a1573d5f803e3d5ffd5b505050505b50509695505050505050565b6040517fdd62ed3e00000000000000000000000000000000000000000000000000000000815230600482015273ffffffffffffffffffffffffffffffffffffffff83811660248301525f919085169063dd62ed3e90604401602060405180830381865afa158015613225573d5f803e3d5ffd5b505050506040513d601f19601f8201168201806040525081019061324991906148fe565b90506120b4848461325a858561476d565b613afe565b5f8060205f8451602086015f885af18061327e576040513d5f823e3d81fd5b50505f513d915081156132955780600114156132af565b73ffffffffffffffffffffffffffffffffffffffff84163b155b156120b4576040517f5274afe700000000000000000000000000000000000000000000000000000000815273ffffffffffffffffffffffffffffffffffffffff8516600482015260240161023a565b6060828203604051915060208183010160405280825250826020850101602082015f5b84811015613339578281015182820152602001613321565b5050509392505050565b80471015613386576040517fcf4791810000000000000000000000000000000000000000000000000000000081524760048201526024810182905260440161023a565b5f808373ffffffffffffffffffffffffffffffffffffffff16836040515f6040518083038185875af1925050503d805f81146133dd576040519150601f19603f3d011682016040523d82523d5f602084013e6133e2565b606091505b5091509150816120b4576120b481613bd5565b60405173ffffffffffffffffffffffffffffffffffffffff84811660248301528381166044830152606482018390526120b49186918216906323b872dd906084016128aa565b5f805f8373ffffffffffffffffffffffffffffffffffffffff16633850c7bd6040518163ffffffff1660e01b815260040160e060405180830381865afa158015613487573d5f803e3d5ffd5b505050506040513d601f19601f820116820180604052508101906134ab9190614b75565b5050509350935050505f8161ffff1611613521576040517f08c379a000000000000000000000000000000000000000000000000000000000815260206004820152600260248201527f4e49000000000000000000000000000000000000000000000000000000000000604482015260640161023a565b5f8073ffffffffffffffffffffffffffffffffffffffff861663252c09d78461354b876001614d65565b6135559190614d80565b6040517fffffffff0000000000000000000000000000000000000000000000000000000060e084901b16815261ffff9091166004820152602401608060405180830381865afa1580156135aa573d5f803e3d5ffd5b505050506040513d601f19601f820116820180604052508101906135ce9190614db1565b9350505091508061366c576040517f252c09d70000000000000000000000000000000000000000000000000000000081525f600482015273ffffffffffffffffffffffffffffffffffffffff87169063252c09d790602401608060405180830381865afa158015613641573d5f803e3d5ffd5b505050506040513d601f19601f820116820180604052508101906136659190614db1565b5091935050505b504203949350505050565b5f808263ffffffff165f036136e8576040517f08c379a000000000000000000000000000000000000000000000000000000000815260206004820152600260248201527f4250000000000000000000000000000000000000000000000000000000000000604482015260640161023a565b6040805160028082526060820183525f9260208301908036833701905050905083815f8151811061371b5761371b614780565b602002602001019063ffffffff16908163ffffffff16815250505f8160018151811061374957613749614780565b602002602001019063ffffffff16908163ffffffff16815250505f808673ffffffffffffffffffffffffffffffffffffffff1663883bdbfd846040518263ffffffff1660e01b815260040161379e9190614e09565b5f60405180830381865afa1580156137b8573d5f803e3d5ffd5b505050506040513d5f823e601f3d9081017fffffffffffffffffffffffffffffffffffffffffffffffffffffffffffffffe01682016040526137fd9190810190614eb6565b915091505f825f8151811061381457613814614780565b60200260200101518360018151811061382f5761382f614780565b60200260200101516138419190614f73565b90505f825f8151811061385657613856614780565b60200260200101518360018151811061387157613871614780565b60200260200101516138839190614c5b565b905061389563ffffffff891683614fb8565b96505f8260060b1280156138ba57506138b463ffffffff89168361502b565b60060b15155b156138cd57866138c98161504c565b9750505b5f6138f273ffffffffffffffffffffffffffffffffffffffff63ffffffff8b166150a8565b905061391c77ffffffffffffffffffffffffffffffffffffffff00000000602084901b16826150eb565b96505050505050509250929050565b5f8061393686613c17565b90506fffffffffffffffffffffffffffffffff73ffffffffffffffffffffffffffffffffffffffff821611613a34575f61398673ffffffffffffffffffffffffffffffffffffffff831680614b4d565b90508373ffffffffffffffffffffffffffffffffffffffff168573ffffffffffffffffffffffffffffffffffffffff16106139f6576139f17801000000000000000000000000000000000000000000000000876fffffffffffffffffffffffffffffffff1683613f77565b613a2c565b613a2c81876fffffffffffffffffffffffffffffffff167801000000000000000000000000000000000000000000000000613f77565b925050613af5565b5f613a5f73ffffffffffffffffffffffffffffffffffffffff83168068010000000000000000613f77565b90508373ffffffffffffffffffffffffffffffffffffffff168573ffffffffffffffffffffffffffffffffffffffff1610613ac757613ac2700100000000000000000000000000000000876fffffffffffffffffffffffffffffffff1683613f77565b61254b565b61254b81876fffffffffffffffffffffffffffffffff16700100000000000000000000000000000000613f77565b50949350505050565b6040805173ffffffffffffffffffffffffffffffffffffffff8416602482015260448082018490528251808303909101815260649091019091526020810180517bffffffffffffffffffffffffffffffffffffffffffffffffffffffff167f095ea7b300000000000000000000000000000000000000000000000000000000179052613b8a8482614040565b6120b45760405173ffffffffffffffffffffffffffffffffffffffff84811660248301525f6044830152613bcb91869182169063095ea7b3906064016128aa565b6120b4848261325f565b805115613be55780518082602001fd5b6040517fd6bda27500000000000000000000000000000000000000000000000000000000815260040160405180910390fd5b5f805f8360020b12613c2c578260020b613c33565b8260020b5f035b9050620d89e8811115613c72576040517f2bc80f3a00000000000000000000000000000000000000000000000000000000815260040160405180910390fd5b5f816001165f03613c9457700100000000000000000000000000000000613ca6565b6ffffcb933bd6fad37aa2d162d1a5940015b70ffffffffffffffffffffffffffffffffff1690506002821615613cda576ffff97272373d413259a46990580e213a0260801c5b6004821615613cf9576ffff2e50f5f656932ef12357cf3c7fdcc0260801c5b6008821615613d18576fffe5caca7e10e4e61c3624eaa0941cd00260801c5b6010821615613d37576fffcb9843d60f6159c9db58835c9266440260801c5b6020821615613d56576fff973b41fa98c081472e6896dfb254c00260801c5b6040821615613d75576fff2ea16466c96a3843ec78b326b528610260801c5b6080821615613d94576ffe5dee046a99a2a811c461f1969c30530260801c5b610100821615613db4576ffcbe86c7900a88aedcffc83b479aa3a40260801c5b610200821615613dd4576ff987a7253ac413176f2b074cf7815e540260801c5b610400821615613df4576ff3392b0822b70005940c7a398e4b70f30260801c5b610800821615613e14576fe7159475a2c29b7443b29c7fa6e889d90260801c5b611000821615613e34576fd097f3bdfd2022b8845ad8f792aa58250260801c5b612000821615613e54576fa9f746462d870fdf8a65dc1f90e061e50260801c5b614000821615613e74576f70d869a156d2a1b890bb3df62baf32f70260801c5b618000821615613e94576f31be135f97d08fd981231505542fcfa60260801c5b62010000821615613eb5576f09aa508b5b7a84e1c677de54f3e99bc90260801c5b62020000821615613ed5576e5d6af8dedb81196699c329225ee6040260801c5b62040000821615613ef4576d2216e584f5fa1ea926041bedfe980260801c5b62080000821615613f11576b048a170391f7dc42444e8fa20260801c5b5f8460020b1315613f4f57807fffffffffffffffffffffffffffffffffffffffffffffffffffffffffffffffff81613f4b57613f4b614c08565b0490505b640100000000810615613f63576001613f65565b5f5b60ff16602082901c0192505050919050565b5f80807fffffffffffffffffffffffffffffffffffffffffffffffffffffffffffffffff858709858702925082811083820303915050805f03613fca575f8411613fbf575f80fd5b508290049050612869565b808411613fd5575f80fd5b5f848688095f868103871696879004966002600389028118808a02820302808a02820302808a02820302808a02820302808a02820302808a02909103029181900381900460010186841190950394909402919094039290920491909117919091029150509392505050565b5f805f8060205f8651602088015f8a5af192503d91505f51905082801561408c57508115614071578060011461408c565b5f8673ffffffffffffffffffffffffffffffffffffffff163b115b9695505050505050565b5f602082840312156140a6575f80fd5b81357fffffffff0000000000000000000000000000000000000000000000000000000081168114612869575f80fd5b73ffffffffffffffffffffffffffffffffffffffff81168114611ac4575f80fd5b5f805f60608486031215614108575f80fd5b83359250602084013561411a816140d5565b9150604084013561412a816140d5565b809150509250925092565b5f805f60408486031215614147575f80fd5b83359250602084013567ffffffffffffffff80821115614165575f80fd5b818601915086601f830112614178575f80fd5b813581811115614186575f80fd5b87602060608302850101111561419a575f80fd5b6020830194508093505050509250925092565b5f80604083850312156141be575f80fd5b8235915060208301356141d0816140d5565b809150509250929050565b815173ffffffffffffffffffffffffffffffffffffffff16815260208083015160ff169082015260408083015163ffffffff1690820152606081016108af565b5f6020828403121561422b575f80fd5b5035919050565b602080825282518282018190525f9190848201906040850190845b818110156142a657614293838551805173ffffffffffffffffffffffffffffffffffffffff16825260208082015160ff169083015260409081015163ffffffff16910152565b928401926060929092019160010161424d565b50909695505050505050565b8015158114611ac4575f80fd5b5f8083601f8401126142cf575f80fd5b50813567ffffffffffffffff8111156142e6575f80fd5b602083019150836020828501011115611164575f80fd5b5f805f805f805f8060c0898b031215614314575f80fd5b883597506020890135614326816140d5565b965060408901359550606089013561433d816142b2565b9450608089013567ffffffffffffffff80821115614359575f80fd5b6143658c838d016142bf565b909650945060a08b013591508082111561437d575f80fd5b5061438a8b828c016142bf565b999c989b5096995094979396929594505050565b5f805f80608085870312156143b1575f80fd5b8435935060208501356143c3816140d5565b93969395505050506040820135916060013590565b7f4e487b71000000000000000000000000000000000000000000000000000000005f52604160045260245ffd5b6040516060810167ffffffffffffffff81118282101715614428576144286143d8565b60405290565b60405160a0810167ffffffffffffffff81118282101715614428576144286143d8565b604051601f82017fffffffffffffffffffffffffffffffffffffffffffffffffffffffffffffffe016810167ffffffffffffffff81118282101715614498576144986143d8565b604052919050565b5f67ffffffffffffffff8211156144b9576144b96143d8565b5060051b60200190565b60ff81168114611ac4575f80fd5b63ffffffff81168114611ac4575f80fd5b5f805f80608085870312156144f5575f80fd5b8435935060208086013567ffffffffffffffff811115614513575f80fd5b8601601f81018813614523575f80fd5b8035614536614531826144a0565b614451565b8181526060918202830184019184820191908b841115614554575f80fd5b938501935b838510156145b75780858d03121561456f575f80fd5b614577614405565b8535614582816140d5565b815285870135614591816144c3565b818801526040868101356145a4816144d1565b9082015283529384019391850191614559565b50979a97995050505060408601359560600135949350505050565b5f602082840312156145e2575f80fd5b8135612869816140d5565b5f805f8060608587031215614600575f80fd5b8435935060208501359250604085013567ffffffffffffffff811115614624575f80fd5b614630878288016142bf565b95989497509550505050565b5f805f805f805f805f60e08a8c031215614654575f80fd5b8935985060208a0135614666816140d5565b975060408a0135965060608a013561467d816140d5565b955060808a0135945060a08a013567ffffffffffffffff808211156146a0575f80fd5b6146ac8d838e016142bf565b909650945060c08c01359150808211156146c4575f80fd5b506146d18c828d016142bf565b915080935050809150509295985092959850929598565b5f602082840312156146f8575f80fd5b8151612869816140d5565b5f60208284031215614713575f80fd5b815162ffffff81168114612869575f80fd5b5f60208284031215614735575f80fd5b8151612869816144c3565b7f4e487b71000000000000000000000000000000000000000000000000000000005f52601160045260245ffd5b808201808211156108af576108af614740565b7f4e487b71000000000000000000000000000000000000000000000000000000005f52603260045260245ffd5b5f7fffffffffffffffffffffffffffffffffffffffffffffffffffffffffffffffff82036147dd576147dd614740565b5060010190565b81835281816020850137505f602082840101525f60207fffffffffffffffffffffffffffffffffffffffffffffffffffffffffffffffe0601f840116840101905092915050565b88815273ffffffffffffffffffffffffffffffffffffffff88166020820152866040820152851515606082015260c060808201525f61486e60c0830186886147e4565b82810360a08401526148818185876147e4565b9b9a5050505050505050505050565b8981525f73ffffffffffffffffffffffffffffffffffffffff808b16602084015289604084015280891660608401525086608083015260e060a08301526148db60e0830186886147e4565b82810360c08401526148ee8185876147e4565b9c9b505050505050505050505050565b5f6020828403121561490e575f80fd5b5051919050565b5f60208284031215614925575f80fd5b8151612869816142b2565b805165ffffffffffff81168114614945575f80fd5b919050565b5f5b8381101561496457818101518382015260200161494c565b50505f910152565b5f602080838503121561497d575f80fd5b825167ffffffffffffffff80821115614994575f80fd5b9084019060a082870312156149a7575f80fd5b6149af61442e565b82518152838301516149c0816140d5565b818501526149d060408401614930565b60408201526149e160608401614930565b60608201526080830151828111156149f7575f80fd5b80840193505086601f840112614a0b575f80fd5b825182811115614a1d57614a1d6143d8565b614a4d857fffffffffffffffffffffffffffffffffffffffffffffffffffffffffffffffe0601f84011601614451565b92508083528785828601011115614a62575f80fd5b614a718186850187870161494a565b50608081019190915295945050505050565b5f8151808452614a9a81602086016020860161494a565b601f017fffffffffffffffffffffffffffffffffffffffffffffffffffffffffffffffe0169290920160200192915050565b5f61010073ffffffffffffffffffffffffffffffffffffffff80871684528551818151166020860152816020820151166040860152604081015165ffffffffffff80821660608801528060608401511660808801525050508060208701511660a085015250604085015160c08401528060e084015261408c81840185614a83565b80820281158282048414176108af576108af614740565b805161ffff81168114614945575f80fd5b5f805f805f805f60e0888a031215614b8b575f80fd5b8751614b96816140d5565b8097505060208801518060020b8114614bad575f80fd5b9550614bbb60408901614b64565b9450614bc960608901614b64565b9350614bd760808901614b64565b925060a0880151614be7816144c3565b60c0890151909250614bf8816142b2565b8091505092959891949750929550565b7f4e487b71000000000000000000000000000000000000000000000000000000005f52601260045260245ffd5b5f82614c4357614c43614c08565b500490565b818103818111156108af576108af614740565b73ffffffffffffffffffffffffffffffffffffffff828116828216039080821115614c8857614c88614740565b5092915050565b73ffffffffffffffffffffffffffffffffffffffff818116838216019080821115614c8857614c88614740565b5f73ffffffffffffffffffffffffffffffffffffffff8088168352861515602084015285604084015280851660608401525060a06080830152614d0260a0830184614a83565b979650505050505050565b5f8060408385031215614d1e575f80fd5b505080516020909101519092909150565b5f7f80000000000000000000000000000000000000000000000000000000000000008203614d5f57614d5f614740565b505f0390565b61ffff818116838216019080821115614c8857614c88614740565b5f61ffff80841680614d9457614d94614c08565b92169190910692915050565b8051600681900b8114614945575f80fd5b5f805f8060808587031215614dc4575f80fd5b8451614dcf816144d1565b9350614ddd60208601614da0565b92506040850151614ded816140d5565b6060860151909250614dfe816142b2565b939692955090935050565b602080825282518282018190525f9190848201906040850190845b818110156142a657835163ffffffff1683529284019291840191600101614e24565b5f82601f830112614e55575f80fd5b81516020614e65614531836144a0565b8083825260208201915060208460051b870101935086841115614e86575f80fd5b602086015b84811015614eab578051614e9e816140d5565b8352918301918301614e8b565b509695505050505050565b5f8060408385031215614ec7575f80fd5b825167ffffffffffffffff80821115614ede575f80fd5b818501915085601f830112614ef1575f80fd5b81516020614f01614531836144a0565b82815260059290921b84018101918181019089841115614f1f575f80fd5b948201945b83861015614f4457614f3586614da0565b82529482019490820190614f24565b91880151919650909350505080821115614f5c575f80fd5b50614f6985828601614e46565b9150509250929050565b600682810b9082900b037fffffffffffffffffffffffffffffffffffffffffffffffffff800000000000008112667fffffffffffff821317156108af576108af614740565b5f8160060b8360060b80614fce57614fce614c08565b7fffffffffffffffffffffffffffffffffffffffffffffffffffffffffffffffff81147fffffffffffffffffffffffffffffffffffffffffffffffffff800000000000008314161561502257615022614740565b90059392505050565b5f8260060b8061503d5761503d614c08565b808360060b0791505092915050565b5f8160020b7fffffffffffffffffffffffffffffffffffffffffffffffffffffffffff800000810361508057615080614740565b7fffffffffffffffffffffffffffffffffffffffffffffffffffffffffffffffff0192915050565b77ffffffffffffffffffffffffffffffffffffffffffffffff8281168282168181028316929181158285048214176150e2576150e2614740565b50505092915050565b5f77ffffffffffffffffffffffffffffffffffffffffffffffff8084168061511557615115614c08565b9216919091049291505056fea26469706673582212208a6e5123636702b6f76e89deefb8cf5a316aef68640f133188627a5fe8ee52e764736f6c63430008170033",
	"deployedBytecode": "0x6080604052600436106101c8575f3560e01c80637c5e9c24116100f2578063b88a92b411610092578063f2fde38b11610062578063f2fde38b14610669578063f434c91414610688578063fa461e33146106bb578063fef43257146106da575f80fd5b8063b88a92b4146105ef578063be6963f214610605578063e28b541114610624578063edb4095014610646575f80fd5b80639e6eec05116100cd5780639e6eec0514610580578063ac90511414610593578063ad5c4648146105a8578063af471880146105db575f80fd5b80637c5e9c24146104d957806388bc2ef3146105245780638da5cb5b14610557575f80fd5b80632dd3100011610168578063515a929311610138578063515a9293146104515780636afdd8501461047d578063715018a6146104b0578063754baf96146104c4575f80fd5b80632dd310001461037b5780632e4c3cbf146103ae5780633a01714f146103d557806340873cb514610401575f80fd5b806324e26dc5116101a357806324e26dc5146102f7578063253721c814610316578063293c4999146103355780632c1ae88214610368575f80fd5b806301ffc9a7146102495780630392ef941461027d5780631a65893b146102d5575f80fd5b36610245573373ffffffffffffffffffffffffffffffffffffffff7f00000000000000000000000042000000000000000000000000000000000000061614610243576040517fb320fe970000000000000000000000000000000000000000000000000000000081523360048201526024015b60405180910390fd5b005b5f80fd5b348015610254575f80fd5b50610268610263366004614096565b6106ed565b60405190151581526020015b60405180910390f35b348015610288575f80fd5b506102b07f000000000000000000000000000000000000000000000000000000000000eeee81565b60405173ffffffffffffffffffffffffffffffffffffffff9091168152602001610274565b3480156102e0575f80fd5b506102e9607881565b604051908152602001610274565b348015610302575f80fd5b506102436103113660046140f6565b6108b5565b348015610321575f80fd5b50610243610330366004614135565b505050565b348015610340575f80fd5b506102b07f0000000000000000000000000b538a02610d7d3cc91ce2870f423e0a34d646ad81565b348015610373575f80fd5b506102e95f81565b348015610386575f80fd5b506102b07f0000000000000000000000001f98431c8ad98523631ae4a59f267346ea31f98481565b3480156103b9575f80fd5b506103c2600a81565b60405161ffff9091168152602001610274565b3480156103e0575f80fd5b506103f46103ef3660046141ad565b610f97565b60405161027491906141db565b34801561040c575f80fd5b5061042061041b3660046141ad565b6110dd565b6040805163ffffffff909316835273ffffffffffffffffffffffffffffffffffffffff909116602083015201610274565b34801561045c575f80fd5b5061047061046b36600461421b565b61116b565b6040516102749190614232565b348015610488575f80fd5b506102b07f000000000000000000000000000000000022d473030f116ddee9f6b43ac78ba381565b3480156104bb575f80fd5b50610243611586565b3480156104cf575f80fd5b506102e961232881565b3480156104e4575f80fd5b506104f86104f33660046141ad565b611599565b6040805173ffffffffffffffffffffffffffffffffffffffff9093168352901515602083015201610274565b34801561052f575f80fd5b506102b07f0000000000000000000000000bc9f153dee4d3d474ce0903775b9b2aaae9aa4181565b348015610562575f80fd5b505f5473ffffffffffffffffffffffffffffffffffffffff166102b0565b61024361058e3660046142fd565b611657565b34801561059e575f80fd5b506102b061271081565b3480156105b3575f80fd5b506102b07f000000000000000000000000420000000000000000000000000000000000000681565b3480156105e6575f80fd5b506102e9606481565b3480156105fa575f80fd5b506102e96202a30081565b348015610610575f80fd5b5061024361061f36600461439e565b6118aa565b34801561062f575f80fd5b506102e961063e3660046140f6565b5f9392505050565b348015610651575f80fd5b506102e96106603660046144e2565b5f949350505050565b348015610674575f80fd5b506102436106833660046145d2565b611a64565b348015610693575f80fd5b506102b07f000000000000000000000000f5ca295dc286a176e35ebb7833031fd95550eb1481565b3480156106c6575f80fd5b506102436106d53660046145ed565b611ac7565b6102e96106e836600461463c565b611ced565b5f7fffffffff0000000000000000000000000000000000000000000000000000000082167f21c9410700000000000000000000000000000000000000000000000000000000148061077f57507fffffffff0000000000000000000000000000000000000000000000000000000082167f6afdd85000000000000000000000000000000000000000000000000000000000145b806107cb57507fffffffff0000000000000000000000000000000000000000000000000000000082167f01ffc9a700000000000000000000000000000000000000000000000000000000145b8061081757507fffffffff0000000000000000000000000000000000000000000000000000000082167ffa461e3300000000000000000000000000000000000000000000000000000000145b8061086357507fffffffff0000000000000000000000000000000000000000000000000000000082167ff434c91400000000000000000000000000000000000000000000000000000000145b806108af57507fffffffff0000000000000000000000000000000000000000000000000000000082167f4cae278700000000000000000000000000000000000000000000000000000000145b92915050565b8215610979576040517f6352211e00000000000000000000000000000000000000000000000000000000815260048101849052610974907f0000000000000000000000000b538a02610d7d3cc91ce2870f423e0a34d646ad73ffffffffffffffffffffffffffffffffffffffff1690636352211e90602401602060405180830381865afa158015610948573d5f803e3d5ffd5b505050506040513d601f19601f8201168201806040525081019061096c91906146e8565b84601a611f59565b610981565b6109816120ba565b5f61098a61210c565b905073ffffffffffffffffffffffffffffffffffffffff8082168482161090838116907f0000000000000000000000001f98431c8ad98523631ae4a59f267346ea31f98416631698ee82836109df57846109e1565b865b846109ec57876109ee565b855b8773ffffffffffffffffffffffffffffffffffffffff1663ddca3f436040518163ffffffff1660e01b8152600401602060405180830381865afa158015610a37573d5f803e3d5ffd5b505050506040513d601f19601f82011682018060405250810190610a5b9190614703565b6040517fffffffff0000000000000000000000000000000000000000000000000000000060e086901b16815273ffffffffffffffffffffffffffffffffffffffff938416600482015292909116602483015262ffffff166044820152606401602060405180830381865afa158015610ad5573d5f803e3d5ffd5b505050506040513d601f19601f82011682018060405250810190610af991906146e8565b73ffffffffffffffffffffffffffffffffffffffff1614610cc857827f0000000000000000000000001f98431c8ad98523631ae4a59f267346ea31f98473ffffffffffffffffffffffffffffffffffffffff16631698ee8283610b5c5784610b5e565b865b84610b695787610b6b565b855b8773ffffffffffffffffffffffffffffffffffffffff1663ddca3f436040518163ffffffff1660e01b8152600401602060405180830381865afa158015610bb4573d5f803e3d5ffd5b505050506040513d601f19601f82011682018060405250810190610bd89190614703565b6040517fffffffff0000000000000000000000000000000000000000000000000000000060e086901b16815273ffffffffffffffffffffffffffffffffffffffff938416600482015292909116602483015262ffffff166044820152606401602060405180830381865afa158015610c52573d5f803e3d5ffd5b505050506040513d601f19601f82011682018060405250810190610c7691906146e8565b6040517fe2bbe4ec00000000000000000000000000000000000000000000000000000000815273ffffffffffffffffffffffffffffffffffffffff92831660048201529116602482015260440161023a565b6040517f32148f67000000000000000000000000000000000000000000000000000000008152600a600482015273ffffffffffffffffffffffffffffffffffffffff8416906332148f67906024015f604051808303815f87803b158015610d2d575f80fd5b505af1158015610d3f573d5f803e3d5ffd5b5050505f86815260026020908152604080832073ffffffffffffffffffffffffffffffffffffffff8981168552925290912054169050610dd5575f8581526003602090815260408220805460018101825590835291200180547fffffffffffffffffffffffff00000000000000000000000000000000000000001673ffffffffffffffffffffffffffffffffffffffff86161790555b5f85815260026020908152604080832073ffffffffffffffffffffffffffffffffffffffff8881168086529184529382902080547fffffffffffffffffffffffff00000000000000000000000000000000000000001694881694909417909355805160608101825283815281517f313ce5670000000000000000000000000000000000000000000000000000000081529151909384840193909263313ce56792600480830193928290030181865afa158015610e93573d5f803e3d5ffd5b505050506040513d601f19601f82011682018060405250810190610eb79190614725565b60ff908116825263ffffffff8088166020938401525f988952600183526040808a2073ffffffffffffffffffffffffffffffffffffffff998a168b52845298899020845181549486015195909a01519091167501000000000000000000000000000000000000000000027fffffffffffffff00000000ffffffffffffffffffffffffffffffffffffffffff9490921674010000000000000000000000000000000000000000027fffffffffffffffffffffff0000000000000000000000000000000000000000009093169890971697909717171694909417909255505050565b60408051606080820183525f80835260208084018290529284018190528581526001835283812073ffffffffffffffffffffffffffffffffffffffff868116835290845290849020845192830185525490811680835274010000000000000000000000000000000000000000820460ff16938301939093527501000000000000000000000000000000000000000000900463ffffffff16928101929092526108af575073ffffffffffffffffffffffffffffffffffffffff8181165f9081527fa6eef7e35abe7026729641147f7915573c7e97b47efa546f5f6e3230263bcb49602090815260409182902082516060810184529054938416815274010000000000000000000000000000000000000000840460ff1691810191909152750100000000000000000000000000000000000000000090920463ffffffff169082015292915050565b5f82815260046020908152604080832073ffffffffffffffffffffffffffffffffffffffff85168452909152812054819080820361115b575073ffffffffffffffffffffffffffffffffffffffff83165f9081527f17ef568e3e12ab5b9c7254a8d58478811de00f9e6eb34345acd53bf8fd09d3ec60205260409020545b915050602081901c5b9250929050565b5f8181526003602090815260408083208054825181850281018501909352808352606094938301828280156111d457602002820191905f5260205f20905b815473ffffffffffffffffffffffffffffffffffffffff1681526001909101906020018083116111a9575b50505f808052600360209081527f3617319a054d772f909f7c479a2cebe5066e836a939412e32403c99029b92eff8054604080518285028101850190915281815297985092969550935090915083018282801561126557602002820191905f5260205f20905b815473ffffffffffffffffffffffffffffffffffffffff16815260019091019060200180831161123a575b50508551845194955093925061127f91508290508361476d565b67ffffffffffffffff811115611297576112976143d8565b6040519080825280602002602001820160405280156112ff57816020015b604080516060810182525f80825260208083018290529282015282527fffffffffffffffffffffffffffffffffffffffffffffffffffffffffffffffff9092019101816112b55790505b5094505f5b828110156113e05760015f8881526020019081526020015f205f86838151811061133057611330614780565b60209081029190910181015173ffffffffffffffffffffffffffffffffffffffff90811683528282019390935260409182015f2082516060810184529054938416815274010000000000000000000000000000000000000000840460ff1691810191909152750100000000000000000000000000000000000000000090920463ffffffff169082015286518790839081106113cd576113cd614780565b6020908102919091010152600101611304565b50815f5b8281101561156e575f805b8581101561146d5786838151811061140957611409614780565b602002602001015173ffffffffffffffffffffffffffffffffffffffff1688828151811061143957611439614780565b602002602001015173ffffffffffffffffffffffffffffffffffffffff1603611465576001915061146d565b6001016113ef565b5080611565575f808052600160205286517fa6eef7e35abe7026729641147f7915573c7e97b47efa546f5f6e3230263bcb4991908890859081106114b3576114b3614780565b60209081029190910181015173ffffffffffffffffffffffffffffffffffffffff90811683528282019390935260409182015f2082516060810184529054938416815274010000000000000000000000000000000000000000840460ff1691810191909152750100000000000000000000000000000000000000000090920463ffffffff16908201528884611547816147ad565b95508151811061155957611559614780565b60200260200101819052505b506001016113e4565b50855181101561157c578086525b5050505050919050565b61158e6120ba565b6115975f61217c565b565b5f82815260026020908152604080832073ffffffffffffffffffffffffffffffffffffffff808616855292528220541690816116185773ffffffffffffffffffffffffffffffffffffffff8084165f9081527fac33ff75c19e70fe83507db0d683fd3465c996598dc972688b7ace676c89077b60205260409020541691505b61162061210c565b73ffffffffffffffffffffffffffffffffffffffff168373ffffffffffffffffffffffffffffffffffffffff161090509250929050565b6040517f862026500000000000000000000000000000000000000000000000000000000081526004810189905273ffffffffffffffffffffffffffffffffffffffff7f000000000000000000000000000000000000000000000000000000000000eeee811660248301525f917f0000000000000000000000000bc9f153dee4d3d474ce0903775b9b2aaae9aa4190911690638620265090604401602060405180830381865afa15801561170c573d5f803e3d5ffd5b505050506040513d601f19601f8201168201806040525081019061173091906146e8565b905073ffffffffffffffffffffffffffffffffffffffff81166117be576040517fcf78a6fc000000000000000000000000000000000000000000000000000000008152600481018a905273ffffffffffffffffffffffffffffffffffffffff7f000000000000000000000000000000000000000000000000000000000000eeee16602482015260440161023a565b5f6117d78a8a6117d08c8c89896121f0565b8787612558565b90505f611805837f000000000000000000000000000000000000000000000000000000000000eeee84612817565b90508273ffffffffffffffffffffffffffffffffffffffff16639e6eec05828d7f000000000000000000000000000000000000000000000000000000000000eeee868d8d8d8d8d6040518a63ffffffff1660e01b815260040161186f98979695949392919061482b565b5f604051808303818588803b158015611886575f80fd5b505af1158015611898573d5f803e3d5ffd5b50505050505050505050505050505050565b831561196e576040517f6352211e00000000000000000000000000000000000000000000000000000000815260048101859052611969907f0000000000000000000000000b538a02610d7d3cc91ce2870f423e0a34d646ad73ffffffffffffffffffffffffffffffffffffffff1690636352211e90602401602060405180830381865afa15801561193d573d5f803e3d5ffd5b505050506040513d601f19601f8201168201806040525081019061196191906146e8565b85601b611f59565b611976565b6119766120ba565b607882108061198757506202a30082115b156119d1576040517f9442583100000000000000000000000000000000000000000000000000000000815260048101839052607860248201526202a300604482015260640161023a565b60648110806119e1575061232881115b15611a2a576040517f1f463fad0000000000000000000000000000000000000000000000000000000081526004810182905260646024820181905261232860448301520161023a565b5f93845260046020908152604080862073ffffffffffffffffffffffffffffffffffffffff9095168652938152929093209290911b179055565b611a6c6120ba565b73ffffffffffffffffffffffffffffffffffffffff8116611abb576040517f1e4fbdf70000000000000000000000000000000000000000000000000000000081525f600482015260240161023a565b611ac48161217c565b50565b5f80611ad5838501856141ad565b90925090505f73ffffffffffffffffffffffffffffffffffffffff821661eeee14611b005781611b22565b7f00000000000000000000000042000000000000000000000000000000000000065b5f84815260026020908152604080832073ffffffffffffffffffffffffffffffffffffffff80861685529252909120549192501680611ba3575073ffffffffffffffffffffffffffffffffffffffff8082165f9081527fac33ff75c19e70fe83507db0d683fd3465c996598dc972688b7ace676c89077b6020526040902054165b3373ffffffffffffffffffffffffffffffffffffffff821614611bf4576040517fbca42a5400000000000000000000000000000000000000000000000000000000815233600482015260240161023a565b5f808912611c025788611c04565b875b90507fffffffffffffffffffffffffffffffffffffffffffffffffffffffffffff111273ffffffffffffffffffffffffffffffffffffffff851601611cc1577f000000000000000000000000420000000000000000000000000000000000000673ffffffffffffffffffffffffffffffffffffffff1663d0e30db0826040518263ffffffff1660e01b81526004015f604051808303818588803b158015611ca9575f80fd5b505af1158015611cbb573d5f803e3d5ffd5b50505050505b611ce273ffffffffffffffffffffffffffffffffffffffff84163383612870565b505050505050505050565b6040517f86202650000000000000000000000000000000000000000000000000000000008152600481018a905273ffffffffffffffffffffffffffffffffffffffff7f000000000000000000000000000000000000000000000000000000000000eeee811660248301525f9182917f0000000000000000000000000bc9f153dee4d3d474ce0903775b9b2aaae9aa411690638620265090604401602060405180830381865afa158015611da2573d5f803e3d5ffd5b505050506040513d601f19601f82011682018060405250810190611dc691906146e8565b905073ffffffffffffffffffffffffffffffffffffffff8116611e54576040517fcf78a6fc000000000000000000000000000000000000000000000000000000008152600481018c905273ffffffffffffffffffffffffffffffffffffffff7f000000000000000000000000000000000000000000000000000000000000eeee16602482015260440161023a565b5f611e6d8c8c611e668e8e8a8a6121f0565b8888612558565b90505f611e9b837f000000000000000000000000000000000000000000000000000000000000eeee84612817565b90508273ffffffffffffffffffffffffffffffffffffffff1663fef43257828f7f000000000000000000000000000000000000000000000000000000000000eeee868f8f8f8f8f8f6040518b63ffffffff1660e01b8152600401611f0799989796959493929190614890565b60206040518083038185885af1158015611f23573d5f803e3d5ffd5b50505050506040513d601f19601f82011682018060405250810190611f4891906148fe565b9d9c50505050505050505050505050565b3373ffffffffffffffffffffffffffffffffffffffff8416811480159061204f57506040517f348b684e00000000000000000000000000000000000000000000000000000000815273ffffffffffffffffffffffffffffffffffffffff82811660048301528581166024830152604482018590526064820184905260016084830181905260a48301527f000000000000000000000000f5ca295dc286a176e35ebb7833031fd95550eb14169063348b684e9060c401602060405180830381865afa158015612029573d5f803e3d5ffd5b505050506040513d601f19601f8201168201806040525081019061204d9190614915565b155b156120b4576040517f264deeaa00000000000000000000000000000000000000000000000000000000815273ffffffffffffffffffffffffffffffffffffffff808616600483015282166024820152604481018490526064810183905260840161023a565b50505050565b5f5473ffffffffffffffffffffffffffffffffffffffff163314611597576040517f118cdaa700000000000000000000000000000000000000000000000000000000815233600482015260240161023a565b5f7f000000000000000000000000000000000000000000000000000000000000000161215757507f000000000000000000000000000000000000000000000000000000000000eeee90565b507f000000000000000000000000420000000000000000000000000000000000000690565b5f805473ffffffffffffffffffffffffffffffffffffffff8381167fffffffffffffffffffffffff0000000000000000000000000000000000000000831681178455604051919092169283917f8be0079c531659141344cd1fd0a4f28419497f9722a3daafe3b4186f6b6457e09190a35050565b5f7fffffffffffffffffffffffffffffffffffffffffffffffffffffffffffff111273ffffffffffffffffffffffffffffffffffffffff861601612235575034612550565b341561226f576040517f15f828f800000000000000000000000000000000000000000000000000000000815234600482015260240161023a565b5f806122ed6122b26040518060400160405280600781526020017f7065726d697432000000000000000000000000000000000000000000000000008152506128f1565b86868080601f0160208091040260200160405190810160405280939291908181526020018383808284375f9201919091525061290492505050565b9150915081156124b3575f8180602001905181019061230c919061496c565b9050806020015173ffffffffffffffffffffffffffffffffffffffff168711156123875760208101516040517f6efd58f80000000000000000000000000000000000000000000000000000000081526004810189905273ffffffffffffffffffffffffffffffffffffffff909116602482015260440161023a565b5f604051806060016040528060405180608001604052808c73ffffffffffffffffffffffffffffffffffffffff168152602001856020015173ffffffffffffffffffffffffffffffffffffffff168152602001856040015165ffffffffffff168152602001856060015165ffffffffffff1681525081526020013073ffffffffffffffffffffffffffffffffffffffff168152602001835f015181525090507f000000000000000000000000000000000022d473030f116ddee9f6b43ac78ba373ffffffffffffffffffffffffffffffffffffffff16632b67b570338385608001516040518463ffffffff1660e01b815260040161248793929190614acc565b5f604051808303815f87803b15801561249e575f80fd5b505af19250505080156124af575060015b5050505b6124bf33308989612aeb565b6040517f70a0823100000000000000000000000000000000000000000000000000000000815230600482015273ffffffffffffffffffffffffffffffffffffffff8816906370a0823190602401602060405180830381865afa158015612527573d5f803e3d5ffd5b505050506040513d601f19601f8201168201806040525081019061254b91906148fe565b925050505b949350505050565b5f8073ffffffffffffffffffffffffffffffffffffffff861661eeee1461257f57856125a1565b7f00000000000000000000000042000000000000000000000000000000000000065b90505f6125ac61210c565b905073ffffffffffffffffffffffffffffffffffffffff871661eeee1480156125f257507f00000000000000000000000000000000000000000000000000000000000000015b8061262857508073ffffffffffffffffffffffffffffffffffffffff168273ffffffffffffffffffffffffffffffffffffffff16145b1561263757859250505061280e565b5f8061264787878c878c88612ced565b915091505f6126888a8a858773ffffffffffffffffffffffffffffffffffffffff168973ffffffffffffffffffffffffffffffffffffffff16108f87612f89565b6040517f70a082310000000000000000000000000000000000000000000000000000000081523060048201529091505f9073ffffffffffffffffffffffffffffffffffffffff8716906370a0823190602401602060405180830381865afa1580156126f5573d5f803e3d5ffd5b505050506040513d601f19601f8201168201806040525081019061271991906148fe565b90508015612806577fffffffffffffffffffffffffffffffffffffffffffffffffffffffffffff111273ffffffffffffffffffffffffffffffffffffffff8c16016127fa576040517f2e1a7d4d000000000000000000000000000000000000000000000000000000008152600481018290527f000000000000000000000000420000000000000000000000000000000000000673ffffffffffffffffffffffffffffffffffffffff1690632e1a7d4d906024015f604051808303815f87803b1580156127e3575f80fd5b505af11580156127f5573d5f803e3d5ffd5b505050505b61280630338d84612aeb565b509450505050505b95945050505050565b5f7f000000000000000000000000000000000000000000000000000000000000000115612845575080612869565b61286673ffffffffffffffffffffffffffffffffffffffff841685846131b2565b505f5b9392505050565b60405173ffffffffffffffffffffffffffffffffffffffff83811660248301526044820183905261033091859182169063a9059cbb906064015b604051602081830303815290604052915060e01b6020820180517bffffffffffffffffffffffffffffffffffffffffffffffffffffffff838183161783525050505061325f565b805160208201205f903060601b186108af565b5f6060602583511161292757505060408051602081019091525f80825290611164565b5f836129356004602061476d565b8151811061294557612945614780565b0160209081015160f81c91505b5f8561295f60048461476d565b8151811061296f5761296f614780565b01602001517fff0000000000000000000000000000000000000000000000000000000000000016148015906129ad57506129aa602083614b4d565b81105b15612ae2575f856129bf60048461476d565b815181106129cf576129cf614780565b016020908101518784019091015160f89190911c91507fffffffff0000000000000000000000000000000000000000000000000000000080891690821603612ad8575f612a1d602086614b4d565b612a2860098661476d565b101580612a75575087612a3c60098661476d565b81518110612a4c57612a4c614780565b01602001517fff0000000000000000000000000000000000000000000000000000000000000016155b612aae57602088612a8760098761476d565b81518110612a9757612a97614780565b0160200151612aa9919060f81c614b4d565b612ab1565b87515b90506001612aca89612ac4602087614b4d565b846132fe565b965096505050505050611164565b5050600501612952565b50509250929050565b3073ffffffffffffffffffffffffffffffffffffffff851603612b75577fffffffffffffffffffffffffffffffffffffffffffffffffffffffffffff111273ffffffffffffffffffffffffffffffffffffffff831601612b5457612b4f8382613343565b6120b4565b612b4f73ffffffffffffffffffffffffffffffffffffffff83168483612870565b6040517fdd62ed3e00000000000000000000000000000000000000000000000000000000815273ffffffffffffffffffffffffffffffffffffffff858116600483015230602483015282919084169063dd62ed3e90604401602060405180830381865afa158015612be8573d5f803e3d5ffd5b505050506040513d601f19601f82011682018060405250810190612c0c91906148fe565b10612c3357612b4f73ffffffffffffffffffffffffffffffffffffffff83168585846133f5565b6040517f36c7851600000000000000000000000000000000000000000000000000000000815273ffffffffffffffffffffffffffffffffffffffff85811660048301528481166024830152828116604483015283811660648301527f000000000000000000000000000000000022d473030f116ddee9f6b43ac78ba316906336c78516906084015f604051808303815f87803b158015612cd1575f80fd5b505af1158015612ce3573d5f803e3d5ffd5b5050505050505050565b5f84815260026020908152604080832073ffffffffffffffffffffffffffffffffffffffff808816855292528220541680612dbf575073ffffffffffffffffffffffffffffffffffffffff8085165f9081527fac33ff75c19e70fe83507db0d683fd3465c996598dc972688b7ace676c89077b60205260409020541680612dbf576040517f891773860000000000000000000000000000000000000000000000000000000081526004810187905273ffffffffffffffffffffffffffffffffffffffff8616602482015260440161023a565b5f80612e3d612e026040518060400160405280600c81526020017f71756f7465466f725377617000000000000000000000000000000000000000008152506128f1565b8b8b8080601f0160208091040260200160405190810160405280939291908181526020018383808284375f9201919091525061290492505050565b915091508115612e625780806020019051810190612e5b91906148fe565b9350612f7c565b5f80612e6e8a866110dd565b915091505f612e7c8661343b565b90508263ffffffff168163ffffffff161015612e96578092505b5f8163ffffffff165f03612f22575f8773ffffffffffffffffffffffffffffffffffffffff16633850c7bd6040518163ffffffff1660e01b815260040160e060405180830381865afa158015612eee573d5f803e3d5ffd5b505050506040513d601f19601f82011682018060405250810190612f129190614b75565b50939650612f3095505050505050565b612f2c8785613677565b5090505b612f3c818b8d8c61392b565b9750612710612f6173ffffffffffffffffffffffffffffffffffffffff85168a614b4d565b612f6b9190614c35565b612f759089614c48565b9750505050505b5050965096945050505050565b5f805f8373ffffffffffffffffffffffffffffffffffffffff1663128acb0830888b8a612fd457612fcf600173fffd8963efd1fc6a506488495d951d5263988d26614c5b565b612fe4565b612fe46401000276a36001614c8f565b8a8f60405160200161301692919091825273ffffffffffffffffffffffffffffffffffffffff16602082015260400190565b6040516020818303038152906040526040518663ffffffff1660e01b8152600401613045959493929190614cbc565b60408051808303815f875af1158015613060573d5f803e3d5ffd5b505050506040513d601f19601f820116820180604052508101906130849190614d0d565b91509150856130935781613095565b805b61309e90614d2f565b9250868310156130e4576040517f371d1b7a000000000000000000000000000000000000000000000000000000008152600481018490526024810188905260440161023a565b7f0000000000000000000000000000000000000000000000000000000000000001156131a6576040517f2e1a7d4d000000000000000000000000000000000000000000000000000000008152600481018490527f000000000000000000000000420000000000000000000000000000000000000673ffffffffffffffffffffffffffffffffffffffff1690632e1a7d4d906024015f604051808303815f87803b15801561318f575f80fd5b505af11580156131a1573d5f803e3d5ffd5b505050505b50509695505050505050565b6040517fdd62ed3e00000000000000000000000000000000000000000000000000000000815230600482015273ffffffffffffffffffffffffffffffffffffffff83811660248301525f919085169063dd62ed3e90604401602060405180830381865afa158015613225573d5f803e3d5ffd5b505050506040513d601f19601f8201168201806040525081019061324991906148fe565b90506120b4848461325a858561476d565b613afe565b5f8060205f8451602086015f885af18061327e576040513d5f823e3d81fd5b50505f513d915081156132955780600114156132af565b73ffffffffffffffffffffffffffffffffffffffff84163b155b156120b4576040517f5274afe700000000000000000000000000000000000000000000000000000000815273ffffffffffffffffffffffffffffffffffffffff8516600482015260240161023a565b6060828203604051915060208183010160405280825250826020850101602082015f5b84811015613339578281015182820152602001613321565b5050509392505050565b80471015613386576040517fcf4791810000000000000000000000000000000000000000000000000000000081524760048201526024810182905260440161023a565b5f808373ffffffffffffffffffffffffffffffffffffffff16836040515f6040518083038185875af1925050503d805f81146133dd576040519150601f19603f3d011682016040523d82523d5f602084013e6133e2565b606091505b5091509150816120b4576120b481613bd5565b60405173ffffffffffffffffffffffffffffffffffffffff84811660248301528381166044830152606482018390526120b49186918216906323b872dd906084016128aa565b5f805f8373ffffffffffffffffffffffffffffffffffffffff16633850c7bd6040518163ffffffff1660e01b815260040160e060405180830381865afa158015613487573d5f803e3d5ffd5b505050506040513d601f19601f820116820180604052508101906134ab9190614b75565b5050509350935050505f8161ffff1611613521576040517f08c379a000000000000000000000000000000000000000000000000000000000815260206004820152600260248201527f4e49000000000000000000000000000000000000000000000000000000000000604482015260640161023a565b5f8073ffffffffffffffffffffffffffffffffffffffff861663252c09d78461354b876001614d65565b6135559190614d80565b6040517fffffffff0000000000000000000000000000000000000000000000000000000060e084901b16815261ffff9091166004820152602401608060405180830381865afa1580156135aa573d5f803e3d5ffd5b505050506040513d601f19601f820116820180604052508101906135ce9190614db1565b9350505091508061366c576040517f252c09d70000000000000000000000000000000000000000000000000000000081525f600482015273ffffffffffffffffffffffffffffffffffffffff87169063252c09d790602401608060405180830381865afa158015613641573d5f803e3d5ffd5b505050506040513d601f19601f820116820180604052508101906136659190614db1565b5091935050505b504203949350505050565b5f808263ffffffff165f036136e8576040517f08c379a000000000000000000000000000000000000000000000000000000000815260206004820152600260248201527f4250000000000000000000000000000000000000000000000000000000000000604482015260640161023a565b6040805160028082526060820183525f9260208301908036833701905050905083815f8151811061371b5761371b614780565b602002602001019063ffffffff16908163ffffffff16815250505f8160018151811061374957613749614780565b602002602001019063ffffffff16908163ffffffff16815250505f808673ffffffffffffffffffffffffffffffffffffffff1663883bdbfd846040518263ffffffff1660e01b815260040161379e9190614e09565b5f60405180830381865afa1580156137b8573d5f803e3d5ffd5b505050506040513d5f823e601f3d9081017fffffffffffffffffffffffffffffffffffffffffffffffffffffffffffffffe01682016040526137fd9190810190614eb6565b915091505f825f8151811061381457613814614780565b60200260200101518360018151811061382f5761382f614780565b60200260200101516138419190614f73565b90505f825f8151811061385657613856614780565b60200260200101518360018151811061387157613871614780565b60200260200101516138839190614c5b565b905061389563ffffffff891683614fb8565b96505f8260060b1280156138ba57506138b463ffffffff89168361502b565b60060b15155b156138cd57866138c98161504c565b9750505b5f6138f273ffffffffffffffffffffffffffffffffffffffff63ffffffff8b166150a8565b905061391c77ffffffffffffffffffffffffffffffffffffffff00000000602084901b16826150eb565b96505050505050509250929050565b5f8061393686613c17565b90506fffffffffffffffffffffffffffffffff73ffffffffffffffffffffffffffffffffffffffff821611613a34575f61398673ffffffffffffffffffffffffffffffffffffffff831680614b4d565b90508373ffffffffffffffffffffffffffffffffffffffff168573ffffffffffffffffffffffffffffffffffffffff16106139f6576139f17801000000000000000000000000000000000000000000000000876fffffffffffffffffffffffffffffffff1683613f77565b613a2c565b613a2c81876fffffffffffffffffffffffffffffffff167801000000000000000000000000000000000000000000000000613f77565b925050613af5565b5f613a5f73ffffffffffffffffffffffffffffffffffffffff83168068010000000000000000613f77565b90508373ffffffffffffffffffffffffffffffffffffffff168573ffffffffffffffffffffffffffffffffffffffff1610613ac757613ac2700100000000000000000000000000000000876fffffffffffffffffffffffffffffffff1683613f77565b61254b565b61254b81876fffffffffffffffffffffffffffffffff16700100000000000000000000000000000000613f77565b50949350505050565b6040805173ffffffffffffffffffffffffffffffffffffffff8416602482015260448082018490528251808303909101815260649091019091526020810180517bffffffffffffffffffffffffffffffffffffffffffffffffffffffff167f095ea7b300000000000000000000000000000000000000000000000000000000179052613b8a8482614040565b6120b45760405173ffffffffffffffffffffffffffffffffffffffff84811660248301525f6044830152613bcb91869182169063095ea7b3906064016128aa565b6120b4848261325f565b805115613be55780518082602001fd5b6040517fd6bda27500000000000000000000000000000000000000000000000000000000815260040160405180910390fd5b5f805f8360020b12613c2c578260020b613c33565b8260020b5f035b9050620d89e8811115613c72576040517f2bc80f3a00000000000000000000000000000000000000000000000000000000815260040160405180910390fd5b5f816001165f03613c9457700100000000000000000000000000000000613ca6565b6ffffcb933bd6fad37aa2d162d1a5940015b70ffffffffffffffffffffffffffffffffff1690506002821615613cda576ffff97272373d413259a46990580e213a0260801c5b6004821615613cf9576ffff2e50f5f656932ef12357cf3c7fdcc0260801c5b6008821615613d18576fffe5caca7e10e4e61c3624eaa0941cd00260801c5b6010821615613d37576fffcb9843d60f6159c9db58835c9266440260801c5b6020821615613d56576fff973b41fa98c081472e6896dfb254c00260801c5b6040821615613d75576fff2ea16466c96a3843ec78b326b528610260801c5b6080821615613d94576ffe5dee046a99a2a811c461f1969c30530260801c5b610100821615613db4576ffcbe86c7900a88aedcffc83b479aa3a40260801c5b610200821615613dd4576ff987a7253ac413176f2b074cf7815e540260801c5b610400821615613df4576ff3392b0822b70005940c7a398e4b70f30260801c5b610800821615613e14576fe7159475a2c29b7443b29c7fa6e889d90260801c5b611000821615613e34576fd097f3bdfd2022b8845ad8f792aa58250260801c5b612000821615613e54576fa9f746462d870fdf8a65dc1f90e061e50260801c5b614000821615613e74576f70d869a156d2a1b890bb3df62baf32f70260801c5b618000821615613e94576f31be135f97d08fd981231505542fcfa60260801c5b62010000821615613eb5576f09aa508b5b7a84e1c677de54f3e99bc90260801c5b62020000821615613ed5576e5d6af8dedb81196699c329225ee6040260801c5b62040000821615613ef4576d2216e584f5fa1ea926041bedfe980260801c5b62080000821615613f11576b048a170391f7dc42444e8fa20260801c5b5f8460020b1315613f4f57807fffffffffffffffffffffffffffffffffffffffffffffffffffffffffffffffff81613f4b57613f4b614c08565b0490505b640100000000810615613f63576001613f65565b5f5b60ff16602082901c0192505050919050565b5f80807fffffffffffffffffffffffffffffffffffffffffffffffffffffffffffffffff858709858702925082811083820303915050805f03613fca575f8411613fbf575f80fd5b508290049050612869565b808411613fd5575f80fd5b5f848688095f868103871696879004966002600389028118808a02820302808a02820302808a02820302808a02820302808a02820302808a02909103029181900381900460010186841190950394909402919094039290920491909117919091029150509392505050565b5f805f8060205f8651602088015f8a5af192503d91505f51905082801561408c57508115614071578060011461408c565b5f8673ffffffffffffffffffffffffffffffffffffffff163b115b9695505050505050565b5f602082840312156140a6575f80fd5b81357fffffffff0000000000000000000000000000000000000000000000000000000081168114612869575f80fd5b73ffffffffffffffffffffffffffffffffffffffff81168114611ac4575f80fd5b5f805f60608486031215614108575f80fd5b83359250602084013561411a816140d5565b9150604084013561412a816140d5565b809150509250925092565b5f805f60408486031215614147575f80fd5b83359250602084013567ffffffffffffffff80821115614165575f80fd5b818601915086601f830112614178575f80fd5b813581811115614186575f80fd5b87602060608302850101111561419a575f80fd5b6020830194508093505050509250925092565b5f80604083850312156141be575f80fd5b8235915060208301356141d0816140d5565b809150509250929050565b815173ffffffffffffffffffffffffffffffffffffffff16815260208083015160ff169082015260408083015163ffffffff1690820152606081016108af565b5f6020828403121561422b575f80fd5b5035919050565b602080825282518282018190525f9190848201906040850190845b818110156142a657614293838551805173ffffffffffffffffffffffffffffffffffffffff16825260208082015160ff169083015260409081015163ffffffff16910152565b928401926060929092019160010161424d565b50909695505050505050565b8015158114611ac4575f80fd5b5f8083601f8401126142cf575f80fd5b50813567ffffffffffffffff8111156142e6575f80fd5b602083019150836020828501011115611164575f80fd5b5f805f805f805f8060c0898b031215614314575f80fd5b883597506020890135614326816140d5565b965060408901359550606089013561433d816142b2565b9450608089013567ffffffffffffffff80821115614359575f80fd5b6143658c838d016142bf565b909650945060a08b013591508082111561437d575f80fd5b5061438a8b828c016142bf565b999c989b5096995094979396929594505050565b5f805f80608085870312156143b1575f80fd5b8435935060208501356143c3816140d5565b93969395505050506040820135916060013590565b7f4e487b71000000000000000000000000000000000000000000000000000000005f52604160045260245ffd5b6040516060810167ffffffffffffffff81118282101715614428576144286143d8565b60405290565b60405160a0810167ffffffffffffffff81118282101715614428576144286143d8565b604051601f82017fffffffffffffffffffffffffffffffffffffffffffffffffffffffffffffffe016810167ffffffffffffffff81118282101715614498576144986143d8565b604052919050565b5f67ffffffffffffffff8211156144b9576144b96143d8565b5060051b60200190565b60ff81168114611ac4575f80fd5b63ffffffff81168114611ac4575f80fd5b5f805f80608085870312156144f5575f80fd5b8435935060208086013567ffffffffffffffff811115614513575f80fd5b8601601f81018813614523575f80fd5b8035614536614531826144a0565b614451565b8181526060918202830184019184820191908b841115614554575f80fd5b938501935b838510156145b75780858d03121561456f575f80fd5b614577614405565b8535614582816140d5565b815285870135614591816144c3565b818801526040868101356145a4816144d1565b9082015283529384019391850191614559565b50979a97995050505060408601359560600135949350505050565b5f602082840312156145e2575f80fd5b8135612869816140d5565b5f805f8060608587031215614600575f80fd5b8435935060208501359250604085013567ffffffffffffffff811115614624575f80fd5b614630878288016142bf565b95989497509550505050565b5f805f805f805f805f60e08a8c031215614654575f80fd5b8935985060208a0135614666816140d5565b975060408a0135965060608a013561467d816140d5565b955060808a0135945060a08a013567ffffffffffffffff808211156146a0575f80fd5b6146ac8d838e016142bf565b909650945060c08c01359150808211156146c4575f80fd5b506146d18c828d016142bf565b915080935050809150509295985092959850929598565b5f602082840312156146f8575f80fd5b8151612869816140d5565b5f60208284031215614713575f80fd5b815162ffffff81168114612869575f80fd5b5f60208284031215614735575f80fd5b8151612869816144c3565b7f4e487b71000000000000000000000000000000000000000000000000000000005f52601160045260245ffd5b808201808211156108af576108af614740565b7f4e487b71000000000000000000000000000000000000000000000000000000005f52603260045260245ffd5b5f7fffffffffffffffffffffffffffffffffffffffffffffffffffffffffffffffff82036147dd576147dd614740565b5060010190565b81835281816020850137505f602082840101525f60207fffffffffffffffffffffffffffffffffffffffffffffffffffffffffffffffe0601f840116840101905092915050565b88815273ffffffffffffffffffffffffffffffffffffffff88166020820152866040820152851515606082015260c060808201525f61486e60c0830186886147e4565b82810360a08401526148818185876147e4565b9b9a5050505050505050505050565b8981525f73ffffffffffffffffffffffffffffffffffffffff808b16602084015289604084015280891660608401525086608083015260e060a08301526148db60e0830186886147e4565b82810360c08401526148ee8185876147e4565b9c9b505050505050505050505050565b5f6020828403121561490e575f80fd5b5051919050565b5f60208284031215614925575f80fd5b8151612869816142b2565b805165ffffffffffff81168114614945575f80fd5b919050565b5f5b8381101561496457818101518382015260200161494c565b50505f910152565b5f602080838503121561497d575f80fd5b825167ffffffffffffffff80821115614994575f80fd5b9084019060a082870312156149a7575f80fd5b6149af61442e565b82518152838301516149c0816140d5565b818501526149d060408401614930565b60408201526149e160608401614930565b60608201526080830151828111156149f7575f80fd5b80840193505086601f840112614a0b575f80fd5b825182811115614a1d57614a1d6143d8565b614a4d857fffffffffffffffffffffffffffffffffffffffffffffffffffffffffffffffe0601f84011601614451565b92508083528785828601011115614a62575f80fd5b614a718186850187870161494a565b50608081019190915295945050505050565b5f8151808452614a9a81602086016020860161494a565b601f017fffffffffffffffffffffffffffffffffffffffffffffffffffffffffffffffe0169290920160200192915050565b5f61010073ffffffffffffffffffffffffffffffffffffffff80871684528551818151166020860152816020820151166040860152604081015165ffffffffffff80821660608801528060608401511660808801525050508060208701511660a085015250604085015160c08401528060e084015261408c81840185614a83565b80820281158282048414176108af576108af614740565b805161ffff81168114614945575f80fd5b5f805f805f805f60e0888a031215614b8b575f80fd5b8751614b96816140d5565b8097505060208801518060020b8114614bad575f80fd5b9550614bbb60408901614b64565b9450614bc960608901614b64565b9350614bd760808901614b64565b925060a0880151614be7816144c3565b60c0890151909250614bf8816142b2565b8091505092959891949750929550565b7f4e487b71000000000000000000000000000000000000000000000000000000005f52601260045260245ffd5b5f82614c4357614c43614c08565b500490565b818103818111156108af576108af614740565b73ffffffffffffffffffffffffffffffffffffffff828116828216039080821115614c8857614c88614740565b5092915050565b73ffffffffffffffffffffffffffffffffffffffff818116838216019080821115614c8857614c88614740565b5f73ffffffffffffffffffffffffffffffffffffffff8088168352861515602084015285604084015280851660608401525060a06080830152614d0260a0830184614a83565b979650505050505050565b5f8060408385031215614d1e575f80fd5b505080516020909101519092909150565b5f7f80000000000000000000000000000000000000000000000000000000000000008203614d5f57614d5f614740565b505f0390565b61ffff818116838216019080821115614c8857614c88614740565b5f61ffff80841680614d9457614d94614c08565b92169190910692915050565b8051600681900b8114614945575f80fd5b5f805f8060808587031215614dc4575f80fd5b8451614dcf816144d1565b9350614ddd60208601614da0565b92506040850151614ded816140d5565b6060860151909250614dfe816142b2565b939692955090935050565b602080825282518282018190525f9190848201906040850190845b818110156142a657835163ffffffff1683529284019291840191600101614e24565b5f82601f830112614e55575f80fd5b81516020614e65614531836144a0565b8083825260208201915060208460051b870101935086841115614e86575f80fd5b602086015b84811015614eab578051614e9e816140d5565b8352918301918301614e8b565b509695505050505050565b5f8060408385031215614ec7575f80fd5b825167ffffffffffffffff80821115614ede575f80fd5b818501915085601f830112614ef1575f80fd5b81516020614f01614531836144a0565b82815260059290921b84018101918181019089841115614f1f575f80fd5b948201945b83861015614f4457614f3586614da0565b82529482019490820190614f24565b91880151919650909350505080821115614f5c575f80fd5b50614f6985828601614e46565b9150509250929050565b600682810b9082900b037fffffffffffffffffffffffffffffffffffffffffffffffffff800000000000008112667fffffffffffff821317156108af576108af614740565b5f8160060b8360060b80614fce57614fce614c08565b7fffffffffffffffffffffffffffffffffffffffffffffffffffffffffffffffff81147fffffffffffffffffffffffffffffffffffffffffffffffffff800000000000008314161561502257615022614740565b90059392505050565b5f8260060b8061503d5761503d614c08565b808360060b0791505092915050565b5f8160020b7fffffffffffffffffffffffffffffffffffffffffffffffffffffffffff800000810361508057615080614740565b7fffffffffffffffffffffffffffffffffffffffffffffffffffffffffffffffff0192915050565b77ffffffffffffffffffffffffffffffffffffffffffffffff8281168282168181028316929181158285048214176150e2576150e2614740565b50505092915050565b5f77ffffffffffffffffffffffffffffffffffffffffffffffff8084168061511557615115614c08565b9216919091049291505056fea26469706673582212208a6e5123636702b6f76e89deefb8cf5a316aef68640f133188627a5fe8ee52e764736f6c63430008170033",
	"gitCommit": "4a28a64a13cddc45d16438f876b10e41975e1a79"
}