{
	"format": "sphinx-sol-ct-artifact-1",
	"merkleRoot": "0x83387602a1336f903bff8612b31571885e6d9344fc1939923ec6b5fc4ea22a98",
	"address": "0x73d04584bde126242c36c2c7b219cbdec7aad774",
	"sourceName": "src/JBSwapTerminal.sol",
	"contractName": "JBSwapTerminal",
	"chainId": "0xa",
	"abi": [
		{
			"inputs": [
				{
					"internalType": "contract IJBDirectory",
					"name": "directory",
					"type": "address"
				},
				{
					"internalType": "contract IJBPermissions",
					"name": "permissions",
					"type": "address"
				},
				{
					"internalType": "contract IJBProjects",
					"name": "projects",
					"type": "address"
				},
				{
					"internalType": "contract IPermit2",
					"name": "permit2",
					"type": "address"
				},
				{
					"internalType": "address",
					"name": "owner",
					"type": "address"
				},
				{
					"internalType": "contract IWETH9",
					"name": "weth",
					"type": "address"
				},
				{
					"internalType": "address",
					"name": "tokenOut",
					"type": "address"
				},
				{
					"internalType": "contract IUniswapV3Factory",
					"name": "factory",
					"type": "address"
				},
				{
					"internalType": "address",
					"name": "trustedForwarder",
					"type": "address"
				}
			],
			"stateMutability": "nonpayable",
			"type": "constructor"
		},
		{
			"stateMutability": "payable",
			"type": "receive"
		},
		{
			"inputs": [],
			"name": "DEFAULT_PROJECT_ID",
			"outputs": [
				{
					"internalType": "uint256",
					"name": "",
					"type": "uint256"
				}
			],
			"stateMutability": "view",
			"type": "function"
		},
		{
			"inputs": [],
			"name": "DIRECTORY",
			"outputs": [
				{
					"internalType": "contract IJBDirectory",
					"name": "",
					"type": "address"
				}
			],
			"stateMutability": "view",
			"type": "function"
		},
		{
			"inputs": [],
			"name": "FACTORY",
			"outputs": [
				{
					"internalType": "contract IUniswapV3Factory",
					"name": "",
					"type": "address"
				}
			],
			"stateMutability": "view",
			"type": "function"
		},
		{
			"inputs": [],
			"name": "MAX_TWAP_WINDOW",
			"outputs": [
				{
					"internalType": "uint256",
					"name": "",
					"type": "uint256"
				}
			],
			"stateMutability": "view",
			"type": "function"
		},
		{
			"inputs": [],
			"name": "MIN_DEFAULT_POOL_CARDINALITY",
			"outputs": [
				{
					"internalType": "uint16",
					"name": "",
					"type": "uint16"
				}
			],
			"stateMutability": "view",
			"type": "function"
		},
		{
			"inputs": [],
			"name": "MIN_TWAP_WINDOW",
			"outputs": [
				{
					"internalType": "uint256",
					"name": "",
					"type": "uint256"
				}
			],
			"stateMutability": "view",
			"type": "function"
		},
		{
			"inputs": [],
			"name": "PERMISSIONS",
			"outputs": [
				{
					"internalType": "contract IJBPermissions",
					"name": "",
					"type": "address"
				}
			],
			"stateMutability": "view",
			"type": "function"
		},
		{
			"inputs": [],
			"name": "PERMIT2",
			"outputs": [
				{
					"internalType": "contract IPermit2",
					"name": "",
					"type": "address"
				}
			],
			"stateMutability": "view",
			"type": "function"
		},
		{
			"inputs": [],
			"name": "PROJECTS",
			"outputs": [
				{
					"internalType": "contract IJBProjects",
					"name": "",
					"type": "address"
				}
			],
			"stateMutability": "view",
			"type": "function"
		},
		{
			"inputs": [],
			"name": "SLIPPAGE_DENOMINATOR",
			"outputs": [
				{
					"internalType": "uint160",
					"name": "",
					"type": "uint160"
				}
			],
			"stateMutability": "view",
			"type": "function"
		},
		{
			"inputs": [],
			"name": "TOKEN_OUT",
			"outputs": [
				{
					"internalType": "address",
					"name": "",
					"type": "address"
				}
			],
			"stateMutability": "view",
			"type": "function"
		},
		{
			"inputs": [],
			"name": "UNCERTAIN_SLIPPAGE_TOLERANCE",
			"outputs": [
				{
					"internalType": "uint256",
					"name": "",
					"type": "uint256"
				}
			],
			"stateMutability": "view",
			"type": "function"
		},
		{
			"inputs": [],
			"name": "WETH",
			"outputs": [
				{
					"internalType": "contract IWETH9",
					"name": "",
					"type": "address"
				}
			],
			"stateMutability": "view",
			"type": "function"
		},
		{
			"inputs": [
				{
					"internalType": "uint256",
					"name": "projectId",
					"type": "uint256"
				},
				{
					"internalType": "address",
					"name": "token",
					"type": "address"
				}
			],
			"name": "accountingContextForTokenOf",
			"outputs": [
				{
					"components": [
						{
							"internalType": "address",
							"name": "token",
							"type": "address"
						},
						{
							"internalType": "uint8",
							"name": "decimals",
							"type": "uint8"
						},
						{
							"internalType": "uint32",
							"name": "currency",
							"type": "uint32"
						}
					],
					"internalType": "struct JBAccountingContext",
					"name": "context",
					"type": "tuple"
				}
			],
			"stateMutability": "view",
			"type": "function"
		},
		{
			"inputs": [
				{
					"internalType": "uint256",
					"name": "projectId",
					"type": "uint256"
				}
			],
			"name": "accountingContextsOf",
			"outputs": [
				{
					"components": [
						{
							"internalType": "address",
							"name": "token",
							"type": "address"
						},
						{
							"internalType": "uint8",
							"name": "decimals",
							"type": "uint8"
						},
						{
							"internalType": "uint32",
							"name": "currency",
							"type": "uint32"
						}
					],
					"internalType": "struct JBAccountingContext[]",
					"name": "contexts",
					"type": "tuple[]"
				}
			],
			"stateMutability": "view",
			"type": "function"
		},
		{
			"inputs": [
				{
					"internalType": "uint256",
					"name": "projectId",
					"type": "uint256"
				},
				{
					"components": [
						{
							"internalType": "address",
							"name": "token",
							"type": "address"
						},
						{
							"internalType": "uint8",
							"name": "decimals",
							"type": "uint8"
						},
						{
							"internalType": "uint32",
							"name": "currency",
							"type": "uint32"
						}
					],
					"internalType": "struct JBAccountingContext[]",
					"name": "accountingContexts",
					"type": "tuple[]"
				}
			],
			"name": "addAccountingContextsFor",
			"outputs": [],
			"stateMutability": "nonpayable",
			"type": "function"
		},
		{
			"inputs": [
				{
					"internalType": "uint256",
					"name": "projectId",
					"type": "uint256"
				},
				{
					"internalType": "address",
					"name": "token",
					"type": "address"
				},
				{
					"internalType": "contract IUniswapV3Pool",
					"name": "pool",
					"type": "address"
				}
			],
			"name": "addDefaultPool",
			"outputs": [],
			"stateMutability": "nonpayable",
			"type": "function"
		},
		{
			"inputs": [
				{
					"internalType": "uint256",
					"name": "projectId",
					"type": "uint256"
				},
				{
					"internalType": "address",
					"name": "token",
					"type": "address"
				},
				{
					"internalType": "uint256",
					"name": "amount",
					"type": "uint256"
				},
				{
					"internalType": "bool",
					"name": "shouldReturnHeldFees",
					"type": "bool"
				},
				{
					"internalType": "string",
					"name": "memo",
					"type": "string"
				},
				{
					"internalType": "bytes",
					"name": "metadata",
					"type": "bytes"
				}
			],
			"name": "addToBalanceOf",
			"outputs": [],
			"stateMutability": "payable",
			"type": "function"
		},
		{
			"inputs": [
				{
					"internalType": "uint256",
					"name": "projectId",
					"type": "uint256"
				},
				{
					"internalType": "contract IUniswapV3Pool",
					"name": "pool",
					"type": "address"
				},
				{
					"internalType": "uint256",
					"name": "twapWindow",
					"type": "uint256"
				}
			],
			"name": "addTwapParamsFor",
			"outputs": [],
			"stateMutability": "nonpayable",
			"type": "function"
		},
		{
			"inputs": [
				{
					"internalType": "uint256",
					"name": "projectId",
					"type": "uint256"
				},
				{
					"components": [
						{
							"internalType": "address",
							"name": "token",
							"type": "address"
						},
						{
							"internalType": "uint8",
							"name": "decimals",
							"type": "uint8"
						},
						{
							"internalType": "uint32",
							"name": "currency",
							"type": "uint32"
						}
					],
					"internalType": "struct JBAccountingContext[]",
					"name": "accountingContexts",
					"type": "tuple[]"
				},
				{
					"internalType": "uint256",
					"name": "decimals",
					"type": "uint256"
				},
				{
					"internalType": "uint256",
					"name": "currency",
					"type": "uint256"
				}
			],
			"name": "currentSurplusOf",
			"outputs": [
				{
					"internalType": "uint256",
					"name": "",
					"type": "uint256"
				}
			],
			"stateMutability": "view",
			"type": "function"
		},
		{
			"inputs": [
				{
					"internalType": "uint256",
					"name": "projectId",
					"type": "uint256"
				},
				{
					"internalType": "address",
					"name": "tokenIn",
					"type": "address"
				}
			],
			"name": "getPoolFor",
			"outputs": [
				{
					"internalType": "contract IUniswapV3Pool",
					"name": "pool",
					"type": "address"
				},
				{
					"internalType": "bool",
					"name": "zeroForOne",
					"type": "bool"
				}
			],
			"stateMutability": "view",
			"type": "function"
		},
		{
			"inputs": [
				{
					"internalType": "address",
					"name": "forwarder",
					"type": "address"
				}
			],
			"name": "isTrustedForwarder",
			"outputs": [
				{
					"internalType": "bool",
					"name": "",
					"type": "bool"
				}
			],
			"stateMutability": "view",
			"type": "function"
		},
		{
			"inputs": [
				{
					"internalType": "uint256",
					"name": "projectId",
					"type": "uint256"
				},
				{
					"internalType": "address",
					"name": "token",
					"type": "address"
				},
				{
					"internalType": "contract IJBTerminal",
					"name": "to",
					"type": "address"
				}
			],
			"name": "migrateBalanceOf",
			"outputs": [
				{
					"internalType": "uint256",
					"name": "balance",
					"type": "uint256"
				}
			],
			"stateMutability": "nonpayable",
			"type": "function"
		},
		{
			"inputs": [],
			"name": "owner",
			"outputs": [
				{
					"internalType": "address",
					"name": "",
					"type": "address"
				}
			],
			"stateMutability": "view",
			"type": "function"
		},
		{
			"inputs": [
				{
					"internalType": "uint256",
					"name": "projectId",
					"type": "uint256"
				},
				{
					"internalType": "address",
					"name": "token",
					"type": "address"
				},
				{
					"internalType": "uint256",
					"name": "amount",
					"type": "uint256"
				},
				{
					"internalType": "address",
					"name": "beneficiary",
					"type": "address"
				},
				{
					"internalType": "uint256",
					"name": "minReturnedTokens",
					"type": "uint256"
				},
				{
					"internalType": "string",
					"name": "memo",
					"type": "string"
				},
				{
					"internalType": "bytes",
					"name": "metadata",
					"type": "bytes"
				}
			],
			"name": "pay",
			"outputs": [
				{
					"internalType": "uint256",
					"name": "",
					"type": "uint256"
				}
			],
			"stateMutability": "payable",
			"type": "function"
		},
		{
			"inputs": [],
			"name": "renounceOwnership",
			"outputs": [],
			"stateMutability": "nonpayable",
			"type": "function"
		},
		{
			"inputs": [
				{
					"internalType": "bytes4",
					"name": "interfaceId",
					"type": "bytes4"
				}
			],
			"name": "supportsInterface",
			"outputs": [
				{
					"internalType": "bool",
					"name": "",
					"type": "bool"
				}
			],
			"stateMutability": "view",
			"type": "function"
		},
		{
			"inputs": [
				{
					"internalType": "address",
					"name": "newOwner",
					"type": "address"
				}
			],
			"name": "transferOwnership",
			"outputs": [],
			"stateMutability": "nonpayable",
			"type": "function"
		},
		{
			"inputs": [],
			"name": "trustedForwarder",
			"outputs": [
				{
					"internalType": "address",
					"name": "",
					"type": "address"
				}
			],
			"stateMutability": "view",
			"type": "function"
		},
		{
			"inputs": [
				{
					"internalType": "uint256",
					"name": "projectId",
					"type": "uint256"
				},
				{
					"internalType": "contract IUniswapV3Pool",
					"name": "pool",
					"type": "address"
				}
			],
			"name": "twapWindowOf",
			"outputs": [
				{
					"internalType": "uint256",
					"name": "",
					"type": "uint256"
				}
			],
			"stateMutability": "view",
			"type": "function"
		},
		{
			"inputs": [
				{
					"internalType": "int256",
					"name": "amount0Delta",
					"type": "int256"
				},
				{
					"internalType": "int256",
					"name": "amount1Delta",
					"type": "int256"
				},
				{
					"internalType": "bytes",
					"name": "data",
					"type": "bytes"
				}
			],
			"name": "uniswapV3SwapCallback",
			"outputs": [],
			"stateMutability": "nonpayable",
			"type": "function"
		},
		{
			"anonymous": false,
			"inputs": [
				{
					"indexed": true,
					"internalType": "uint256",
					"name": "projectId",
					"type": "uint256"
				},
				{
					"indexed": false,
					"internalType": "uint256",
					"name": "amount",
					"type": "uint256"
				},
				{
					"indexed": false,
					"internalType": "uint256",
					"name": "returnedFees",
					"type": "uint256"
				},
				{
					"indexed": false,
					"internalType": "string",
					"name": "memo",
					"type": "string"
				},
				{
					"indexed": false,
					"internalType": "bytes",
					"name": "metadata",
					"type": "bytes"
				},
				{
					"indexed": false,
					"internalType": "address",
					"name": "caller",
					"type": "address"
				}
			],
			"name": "AddToBalance",
			"type": "event"
		},
		{
			"anonymous": false,
			"inputs": [
				{
					"indexed": true,
					"internalType": "contract IJBPayHook",
					"name": "hook",
					"type": "address"
				},
				{
					"components": [
						{
							"internalType": "address",
							"name": "payer",
							"type": "address"
						},
						{
							"internalType": "uint256",
							"name": "projectId",
							"type": "uint256"
						},
						{
							"internalType": "uint256",
							"name": "rulesetId",
							"type": "uint256"
						},
						{
							"components": [
								{
									"internalType": "address",
									"name": "token",
									"type": "address"
								},
								{
									"internalType": "uint8",
									"name": "decimals",
									"type": "uint8"
								},
								{
									"internalType": "uint32",
									"name": "currency",
									"type": "uint32"
								},
								{
									"internalType": "uint256",
									"name": "value",
									"type": "uint256"
								}
							],
							"internalType": "struct JBTokenAmount",
							"name": "amount",
							"type": "tuple"
						},
						{
							"components": [
								{
									"internalType": "address",
									"name": "token",
									"type": "address"
								},
								{
									"internalType": "uint8",
									"name": "decimals",
									"type": "uint8"
								},
								{
									"internalType": "uint32",
									"name": "currency",
									"type": "uint32"
								},
								{
									"internalType": "uint256",
									"name": "value",
									"type": "uint256"
								}
							],
							"internalType": "struct JBTokenAmount",
							"name": "forwardedAmount",
							"type": "tuple"
						},
						{
							"internalType": "uint256",
							"name": "weight",
							"type": "uint256"
						},
						{
							"internalType": "uint256",
							"name": "newlyIssuedTokenCount",
							"type": "uint256"
						},
						{
							"internalType": "address",
							"name": "beneficiary",
							"type": "address"
						},
						{
							"internalType": "bytes",
							"name": "hookMetadata",
							"type": "bytes"
						},
						{
							"internalType": "bytes",
							"name": "payerMetadata",
							"type": "bytes"
						}
					],
					"indexed": false,
					"internalType": "struct JBAfterPayRecordedContext",
					"name": "context",
					"type": "tuple"
				},
				{
					"indexed": false,
					"internalType": "uint256",
					"name": "specificationAmount",
					"type": "uint256"
				},
				{
					"indexed": false,
					"internalType": "address",
					"name": "caller",
					"type": "address"
				}
			],
			"name": "HookAfterRecordPay",
			"type": "event"
		},
		{
			"anonymous": false,
			"inputs": [
				{
					"indexed": true,
					"internalType": "uint256",
					"name": "projectId",
					"type": "uint256"
				},
				{
					"indexed": true,
					"internalType": "address",
					"name": "token",
					"type": "address"
				},
				{
					"indexed": true,
					"internalType": "contract IJBTerminal",
					"name": "to",
					"type": "address"
				},
				{
					"indexed": false,
					"internalType": "uint256",
					"name": "amount",
					"type": "uint256"
				},
				{
					"indexed": false,
					"internalType": "address",
					"name": "caller",
					"type": "address"
				}
			],
			"name": "MigrateTerminal",
			"type": "event"
		},
		{
			"anonymous": false,
			"inputs": [
				{
					"indexed": true,
					"internalType": "address",
					"name": "previousOwner",
					"type": "address"
				},
				{
					"indexed": true,
					"internalType": "address",
					"name": "newOwner",
					"type": "address"
				}
			],
			"name": "OwnershipTransferred",
			"type": "event"
		},
		{
			"anonymous": false,
			"inputs": [
				{
					"indexed": true,
					"internalType": "uint256",
					"name": "rulesetId",
					"type": "uint256"
				},
				{
					"indexed": true,
					"internalType": "uint256",
					"name": "rulesetCycleNumber",
					"type": "uint256"
				},
				{
					"indexed": true,
					"internalType": "uint256",
					"name": "projectId",
					"type": "uint256"
				},
				{
					"indexed": false,
					"internalType": "address",
					"name": "payer",
					"type": "address"
				},
				{
					"indexed": false,
					"internalType": "address",
					"name": "beneficiary",
					"type": "address"
				},
				{
					"indexed": false,
					"internalType": "uint256",
					"name": "amount",
					"type": "uint256"
				},
				{
					"indexed": false,
					"internalType": "uint256",
					"name": "newlyIssuedTokenCount",
					"type": "uint256"
				},
				{
					"indexed": false,
					"internalType": "string",
					"name": "memo",
					"type": "string"
				},
				{
					"indexed": false,
					"internalType": "bytes",
					"name": "metadata",
					"type": "bytes"
				},
				{
					"indexed": false,
					"internalType": "address",
					"name": "caller",
					"type": "address"
				}
			],
			"name": "Pay",
			"type": "event"
		},
		{
			"anonymous": false,
			"inputs": [
				{
					"indexed": true,
					"internalType": "uint256",
					"name": "projectId",
					"type": "uint256"
				},
				{
					"components": [
						{
							"internalType": "address",
							"name": "token",
							"type": "address"
						},
						{
							"internalType": "uint8",
							"name": "decimals",
							"type": "uint8"
						},
						{
							"internalType": "uint32",
							"name": "currency",
							"type": "uint32"
						}
					],
					"indexed": false,
					"internalType": "struct JBAccountingContext",
					"name": "context",
					"type": "tuple"
				},
				{
					"indexed": false,
					"internalType": "address",
					"name": "caller",
					"type": "address"
				}
			],
			"name": "SetAccountingContext",
			"type": "event"
		},
		{
			"inputs": [],
			"name": "FailedCall",
			"type": "error"
		},
		{
			"inputs": [
				{
					"internalType": "uint256",
					"name": "balance",
					"type": "uint256"
				},
				{
					"internalType": "uint256",
					"name": "needed",
					"type": "uint256"
				}
			],
			"name": "InsufficientBalance",
			"type": "error"
		},
		{
			"inputs": [
				{
					"internalType": "address",
					"name": "account",
					"type": "address"
				},
				{
					"internalType": "address",
					"name": "sender",
					"type": "address"
				},
				{
					"internalType": "uint256",
					"name": "projectId",
					"type": "uint256"
				},
				{
					"internalType": "uint256",
					"name": "permissionId",
					"type": "uint256"
				}
			],
			"name": "JBPermissioned_Unauthorized",
			"type": "error"
		},
		{
			"inputs": [
				{
					"internalType": "address",
					"name": "caller",
					"type": "address"
				}
			],
			"name": "JBSwapTerminal_CallerNotPool",
			"type": "error"
		},
		{
			"inputs": [
				{
					"internalType": "uint256",
					"name": "window",
					"type": "uint256"
				},
				{
					"internalType": "uint256",
					"name": "minWindow",
					"type": "uint256"
				},
				{
					"internalType": "uint256",
					"name": "maxWindow",
					"type": "uint256"
				}
			],
			"name": "JBSwapTerminal_InvalidTwapWindow",
			"type": "error"
		},
		{
			"inputs": [
				{
					"internalType": "uint256",
					"name": "projectId",
					"type": "uint256"
				},
				{
					"internalType": "address",
					"name": "token",
					"type": "address"
				}
			],
			"name": "JBSwapTerminal_NoDefaultPoolDefined",
			"type": "error"
		},
		{
			"inputs": [
				{
					"internalType": "uint256",
					"name": "value",
					"type": "uint256"
				}
			],
			"name": "JBSwapTerminal_NoMsgValueAllowed",
			"type": "error"
		},
		{
			"inputs": [
				{
					"internalType": "uint256",
					"name": "amount",
					"type": "uint256"
				},
				{
					"internalType": "uint256",
					"name": "allowance",
					"type": "uint256"
				}
			],
			"name": "JBSwapTerminal_PermitAllowanceNotEnough",
			"type": "error"
		},
		{
			"inputs": [
				{
					"internalType": "uint256",
					"name": "amount",
					"type": "uint256"
				},
				{
					"internalType": "uint256",
					"name": "minimum",
					"type": "uint256"
				}
			],
			"name": "JBSwapTerminal_SpecifiedSlippageExceeded",
			"type": "error"
		},
		{
			"inputs": [
				{
					"internalType": "uint256",
					"name": "projectId",
					"type": "uint256"
				},
				{
					"internalType": "address",
					"name": "token",
					"type": "address"
				}
			],
			"name": "JBSwapTerminal_TokenNotAccepted",
			"type": "error"
		},
		{
			"inputs": [
				{
					"internalType": "address",
					"name": "caller",
					"type": "address"
				}
			],
			"name": "JBSwapTerminal_UnexpectedCall",
			"type": "error"
		},
		{
			"inputs": [
				{
					"internalType": "address",
					"name": "pool",
					"type": "address"
				},
				{
					"internalType": "address",
					"name": "expectedPool",
					"type": "address"
				}
			],
			"name": "JBSwapTerminal_WrongPool",
			"type": "error"
		},
		{
			"inputs": [],
			"name": "JBSwapTerminal_ZeroToken",
			"type": "error"
		},
		{
			"inputs": [
				{
					"internalType": "address",
					"name": "owner",
					"type": "address"
				}
			],
			"name": "OwnableInvalidOwner",
			"type": "error"
		},
		{
			"inputs": [
				{
					"internalType": "address",
					"name": "account",
					"type": "address"
				}
			],
			"name": "OwnableUnauthorizedAccount",
			"type": "error"
		},
		{
			"inputs": [
				{
					"internalType": "uint256",
					"name": "x",
					"type": "uint256"
				},
				{
					"internalType": "uint256",
					"name": "y",
					"type": "uint256"
				},
				{
					"internalType": "uint256",
					"name": "denominator",
					"type": "uint256"
				}
			],
			"name": "PRBMath_MulDiv_Overflow",
			"type": "error"
		},
		{
			"inputs": [
				{
					"internalType": "address",
					"name": "token",
					"type": "address"
				}
			],
			"name": "SafeERC20FailedOperation",
			"type": "error"
		},
		{
			"inputs": [],
			"name": "T",
			"type": "error"
		}
	],
	"args": [],
	"solcInputHash": "310e47174e7c0590b39b1f425b1e1bc2",
	"bytecode": "0x6101a060405234801562000011575f80fd5b5060405162005ba138038062005ba183398101604081905262000034916200014e565b6001600160a01b038089166080528190869081166200006c57604051631e4fbdf760e01b81525f600482015260240160405180910390fd5b6200007781620000e7565b506001600160a01b0390811660a0528316620000a657604051635cd24a5760e11b815260040160405180910390fd5b506001600160a01b0397881660c052948716610120529286166101005285166101605250831661014081905261eeee146101805290911660e052506200021f565b5f80546001600160a01b038381166001600160a01b0319831681178455604051919092169283917f8be0079c531659141344cd1fd0a4f28419497f9722a3daafe3b4186f6b6457e09190a35050565b6001600160a01b03811681146200014b575f80fd5b50565b5f805f805f805f805f6101208a8c03121562000168575f80fd5b8951620001758162000136565b60208b0151909950620001888162000136565b60408b01519098506200019b8162000136565b60608b0151909750620001ae8162000136565b60808b0151909650620001c18162000136565b60a08b0151909550620001d48162000136565b60c08b0151909450620001e78162000136565b60e08b0151909350620001fa8162000136565b6101008b01519092506200020e8162000136565b809150509295985092959850929598565b60805160a05160c05160e05161010051610120516101405161016051610180516158436200035e5f395f81816121c001528181612685015281816128cd01526132aa01525f81816101f00152818161062801528181610b5e01528181611b3b01528181611c7e0152818161220a015281816126340152818161284001526132fd01525f81816102990152818161188e01528181611984015281816119d301528181611a1a01528181611d6a01528181611e6001528181611eaf01528181611ef601526121e601525f81816103700152818161093f0152610a9801525f81816104c1015281816124db0152612d4c01525f81816103b601528181610ba30152610d0b01525f8181610585015281816118b80152611d9601525f81816104730152818161055001526134de01525f81816106ea015261203d01526158435ff3fe6080604052600436106101d3575f3560e01c80637c5e9c24116100fd578063b88a92b411610092578063f2fde38b11610062578063f2fde38b146106ba578063f434c914146106d9578063fa461e331461070c578063fef432571461072b575f80fd5b8063b88a92b41461064a578063d1f00aeb14610660578063e28b541114610675578063edb4095014610697575f80fd5b80639782ed71116100cd5780639782ed71146105d05780639e6eec05146105ef578063ac90511414610602578063ad5c464814610617575f80fd5b80637c5e9c24146104f75780637da0a8771461054257806388bc2ef3146105745780638da5cb5b146105a7575f80fd5b80632c1ae88211610173578063515a929311610143578063515a92931461042b578063572b6c05146104575780636afdd850146104b0578063715018a6146104e3575f80fd5b80632c1ae882146103925780632dd31000146103a55780632e4c3cbf146103d85780633a01714f146103ff575f80fd5b80631a65893b116101ae5780631a65893b146102ff57806324e26dc514610321578063253721c814610340578063293c49991461035f575f80fd5b806301ffc9a7146102545780630392ef94146102885780630e2298ee146102e0575f80fd5b36610250573373ffffffffffffffffffffffffffffffffffffffff7f0000000000000000000000000000000000000000000000000000000000000000161461024e576040517fb320fe970000000000000000000000000000000000000000000000000000000081523360048201526024015b60405180910390fd5b005b5f80fd5b34801561025f575f80fd5b5061027361026e36600461468d565b61073e565b60405190151581526020015b60405180910390f35b348015610293575f80fd5b506102bb7f000000000000000000000000000000000000000000000000000000000000000081565b60405173ffffffffffffffffffffffffffffffffffffffff909116815260200161027f565b3480156102eb575f80fd5b5061024e6102fa3660046146ed565b610906565b34801561030a575f80fd5b50610313607881565b60405190815260200161027f565b34801561032c575f80fd5b5061024e61033b366004614722565b610a5f565b34801561034b575f80fd5b5061024e61035a366004614761565b505050565b34801561036a575f80fd5b506102bb7f000000000000000000000000000000000000000000000000000000000000000081565b34801561039d575f80fd5b506103135f81565b3480156103b0575f80fd5b506102bb7f000000000000000000000000000000000000000000000000000000000000000081565b3480156103e3575f80fd5b506103ec600a81565b60405161ffff909116815260200161027f565b34801561040a575f80fd5b5061041e6104193660046147d9565b611195565b60405161027f9190614807565b348015610436575f80fd5b5061044a610445366004614847565b6112db565b60405161027f919061485e565b348015610462575f80fd5b506102736104713660046148de565b7f000000000000000000000000000000000000000000000000000000000000000073ffffffffffffffffffffffffffffffffffffffff90811691161490565b3480156104bb575f80fd5b506102bb7f000000000000000000000000000000000000000000000000000000000000000081565b3480156104ee575f80fd5b5061024e6116f6565b348015610502575f80fd5b506105166105113660046147d9565b611709565b6040805173ffffffffffffffffffffffffffffffffffffffff909316835290151560208301520161027f565b34801561054d575f80fd5b507f00000000000000000000000000000000000000000000000000000000000000006102bb565b34801561057f575f80fd5b506102bb7f000000000000000000000000000000000000000000000000000000000000000081565b3480156105b2575f80fd5b505f5473ffffffffffffffffffffffffffffffffffffffff166102bb565b3480156105db575f80fd5b506103136105ea3660046147d9565b6117c7565b61024e6105fd366004614944565b61184a565b34801561060d575f80fd5b506102bb61271081565b348015610622575f80fd5b506102bb7f000000000000000000000000000000000000000000000000000000000000000081565b348015610655575f80fd5b506103136202a30081565b34801561066b575f80fd5b5061031361041a81565b348015610680575f80fd5b5061031361068f366004614722565b5f9392505050565b3480156106a2575f80fd5b506103136106b1366004614aef565b5f949350505050565b3480156106c5575f80fd5b5061024e6106d43660046148de565b611a9d565b3480156106e4575f80fd5b506102bb7f000000000000000000000000000000000000000000000000000000000000000081565b348015610717575f80fd5b5061024e610726366004614bdf565b611b00565b610313610739366004614c2e565b611d26565b5f7fffffffff0000000000000000000000000000000000000000000000000000000082167f21c941070000000000000000000000000000000000000000000000000000000014806107d057507fffffffff0000000000000000000000000000000000000000000000000000000082167f6afdd85000000000000000000000000000000000000000000000000000000000145b8061081c57507fffffffff0000000000000000000000000000000000000000000000000000000082167f01ffc9a700000000000000000000000000000000000000000000000000000000145b8061086857507fffffffff0000000000000000000000000000000000000000000000000000000082167ffa461e3300000000000000000000000000000000000000000000000000000000145b806108b457507fffffffff0000000000000000000000000000000000000000000000000000000082167ff434c91400000000000000000000000000000000000000000000000000000000145b8061090057507fffffffff0000000000000000000000000000000000000000000000000000000082167f609b8c1700000000000000000000000000000000000000000000000000000000145b92915050565b82156109ca576040517f6352211e000000000000000000000000000000000000000000000000000000008152600481018490526109c5907f000000000000000000000000000000000000000000000000000000000000000073ffffffffffffffffffffffffffffffffffffffff1690636352211e90602401602060405180830381865afa158015610999573d5f803e3d5ffd5b505050506040513d601f19601f820116820180604052508101906109bd9190614cda565b84601b611f92565b6109d2565b6109d2612113565b60788110806109e357506202a30081115b15610a2d576040517f9442583100000000000000000000000000000000000000000000000000000000815260048101829052607860248201526202a3006044820152606401610245565b5f92835260046020908152604080852073ffffffffffffffffffffffffffffffffffffffff9094168552929052912055565b8215610b23576040517f6352211e00000000000000000000000000000000000000000000000000000000815260048101849052610b1e907f000000000000000000000000000000000000000000000000000000000000000073ffffffffffffffffffffffffffffffffffffffff1690636352211e90602401602060405180830381865afa158015610af2573d5f803e3d5ffd5b505050506040513d601f19601f82011682018060405250810190610b169190614cda565b84601a611f92565b610b2b565b610b2b612113565b5f610b346121bd565b90505f73ffffffffffffffffffffffffffffffffffffffff841661eeee14610b5c5783610b7e565b7f00000000000000000000000000000000000000000000000000000000000000005b905073ffffffffffffffffffffffffffffffffffffffff8083168582161090848116907f000000000000000000000000000000000000000000000000000000000000000016631698ee8283610bd35785610bd5565b845b84610be05785610be2565b865b8873ffffffffffffffffffffffffffffffffffffffff1663ddca3f436040518163ffffffff1660e01b8152600401602060405180830381865afa158015610c2b573d5f803e3d5ffd5b505050506040513d601f19601f82011682018060405250810190610c4f9190614cf5565b6040517fffffffff0000000000000000000000000000000000000000000000000000000060e086901b16815273ffffffffffffffffffffffffffffffffffffffff938416600482015292909116602483015262ffffff166044820152606401602060405180830381865afa158015610cc9573d5f803e3d5ffd5b505050506040513d601f19601f82011682018060405250810190610ced9190614cda565b73ffffffffffffffffffffffffffffffffffffffff1614610ebc57837f000000000000000000000000000000000000000000000000000000000000000073ffffffffffffffffffffffffffffffffffffffff16631698ee8283610d505785610d52565b845b84610d5d5785610d5f565b865b8873ffffffffffffffffffffffffffffffffffffffff1663ddca3f436040518163ffffffff1660e01b8152600401602060405180830381865afa158015610da8573d5f803e3d5ffd5b505050506040513d601f19601f82011682018060405250810190610dcc9190614cf5565b6040517fffffffff0000000000000000000000000000000000000000000000000000000060e086901b16815273ffffffffffffffffffffffffffffffffffffffff938416600482015292909116602483015262ffffff166044820152606401602060405180830381865afa158015610e46573d5f803e3d5ffd5b505050506040513d601f19601f82011682018060405250810190610e6a9190614cda565b6040517fe2bbe4ec00000000000000000000000000000000000000000000000000000000815273ffffffffffffffffffffffffffffffffffffffff928316600482015291166024820152604401610245565b6040517f32148f67000000000000000000000000000000000000000000000000000000008152600a600482015273ffffffffffffffffffffffffffffffffffffffff8516906332148f67906024015f604051808303815f87803b158015610f21575f80fd5b505af1158015610f33573d5f803e3d5ffd5b5050505f87815260026020908152604080832073ffffffffffffffffffffffffffffffffffffffff8781168552925290912054169050610fc9575f8681526003602090815260408220805460018101825590835291200180547fffffffffffffffffffffffff00000000000000000000000000000000000000001673ffffffffffffffffffffffffffffffffffffffff87161790555b5f86815260026020908152604080832073ffffffffffffffffffffffffffffffffffffffff86811685529083529281902080547fffffffffffffffffffffffff0000000000000000000000000000000000000000168885161790558051606081019091529187168083529082019061eeee146110b1578673ffffffffffffffffffffffffffffffffffffffff1663313ce5676040518163ffffffff1660e01b8152600401602060405180830381865afa158015611088573d5f803e3d5ffd5b505050506040513d601f19601f820116820180604052508101906110ac9190614d17565b6110b4565b60125b60ff908116825263ffffffff8089166020938401525f998a52600183526040808b2073ffffffffffffffffffffffffffffffffffffffff9a8b168c528452998a9020845181549486015195909b01519091167501000000000000000000000000000000000000000000027fffffffffffffff00000000ffffffffffffffffffffffffffffffffffffffffff9490921674010000000000000000000000000000000000000000027fffffffffffffffffffffff000000000000000000000000000000000000000000909316999098169890981717169590951790935550505050565b60408051606080820183525f80835260208084018290529284018190528581526001835283812073ffffffffffffffffffffffffffffffffffffffff868116835290845290849020845192830185525490811680835274010000000000000000000000000000000000000000820460ff16938301939093527501000000000000000000000000000000000000000000900463ffffffff1692810192909252610900575073ffffffffffffffffffffffffffffffffffffffff8181165f9081527fa6eef7e35abe7026729641147f7915573c7e97b47efa546f5f6e3230263bcb49602090815260409182902082516060810184529054938416815274010000000000000000000000000000000000000000840460ff1691810191909152750100000000000000000000000000000000000000000090920463ffffffff169082015292915050565b5f81815260036020908152604080832080548251818502810185019093528083526060949383018282801561134457602002820191905f5260205f20905b815473ffffffffffffffffffffffffffffffffffffffff168152600190910190602001808311611319575b50505f808052600360209081527f3617319a054d772f909f7c479a2cebe5066e836a939412e32403c99029b92eff805460408051828502810185019091528181529798509296955093509091508301828280156113d557602002820191905f5260205f20905b815473ffffffffffffffffffffffffffffffffffffffff1681526001909101906020018083116113aa575b5050855184519495509392506113ef915082905083614d5f565b67ffffffffffffffff811115611407576114076149e5565b60405190808252806020026020018201604052801561146f57816020015b604080516060810182525f80825260208083018290529282015282527fffffffffffffffffffffffffffffffffffffffffffffffffffffffffffffffff9092019101816114255790505b5094505f5b828110156115505760015f8881526020019081526020015f205f8683815181106114a0576114a0614d72565b60209081029190910181015173ffffffffffffffffffffffffffffffffffffffff90811683528282019390935260409182015f2082516060810184529054938416815274010000000000000000000000000000000000000000840460ff1691810191909152750100000000000000000000000000000000000000000090920463ffffffff1690820152865187908390811061153d5761153d614d72565b6020908102919091010152600101611474565b50815f5b828110156116de575f805b858110156115dd5786838151811061157957611579614d72565b602002602001015173ffffffffffffffffffffffffffffffffffffffff168882815181106115a9576115a9614d72565b602002602001015173ffffffffffffffffffffffffffffffffffffffff16036115d557600191506115dd565b60010161155f565b50806116d5575f808052600160205286517fa6eef7e35abe7026729641147f7915573c7e97b47efa546f5f6e3230263bcb49919088908590811061162357611623614d72565b60209081029190910181015173ffffffffffffffffffffffffffffffffffffffff90811683528282019390935260409182015f2082516060810184529054938416815274010000000000000000000000000000000000000000840460ff1691810191909152750100000000000000000000000000000000000000000090920463ffffffff169082015288846116b781614d9f565b9550815181106116c9576116c9614d72565b60200260200101819052505b50600101611554565b5085518110156116ec578086525b5050505050919050565b6116fe612113565b6117075f61222f565b565b5f82815260026020908152604080832073ffffffffffffffffffffffffffffffffffffffff808616855292528220541690816117885773ffffffffffffffffffffffffffffffffffffffff8084165f9081527fac33ff75c19e70fe83507db0d683fd3465c996598dc972688b7ace676c89077b60205260409020541691505b6117906121bd565b73ffffffffffffffffffffffffffffffffffffffff168373ffffffffffffffffffffffffffffffffffffffff161090509250929050565b5f82815260046020908152604080832073ffffffffffffffffffffffffffffffffffffffff85168452909152812054808203611843575073ffffffffffffffffffffffffffffffffffffffff82165f9081527f17ef568e3e12ab5b9c7254a8d58478811de00f9e6eb34345acd53bf8fd09d3ec60205260409020545b9392505050565b6040517f862026500000000000000000000000000000000000000000000000000000000081526004810189905273ffffffffffffffffffffffffffffffffffffffff7f0000000000000000000000000000000000000000000000000000000000000000811660248301525f917f000000000000000000000000000000000000000000000000000000000000000090911690638620265090604401602060405180830381865afa1580156118ff573d5f803e3d5ffd5b505050506040513d601f19601f820116820180604052508101906119239190614cda565b905073ffffffffffffffffffffffffffffffffffffffff81166119b1576040517fcf78a6fc000000000000000000000000000000000000000000000000000000008152600481018a905273ffffffffffffffffffffffffffffffffffffffff7f0000000000000000000000000000000000000000000000000000000000000000166024820152604401610245565b5f6119ca8a8a6119c38c8c89896122a3565b878761260b565b90505f6119f8837f0000000000000000000000000000000000000000000000000000000000000000846128ca565b90508273ffffffffffffffffffffffffffffffffffffffff16639e6eec05828d7f0000000000000000000000000000000000000000000000000000000000000000868d8d8d8d8d6040518a63ffffffff1660e01b8152600401611a62989796959493929190614e1d565b5f604051808303818588803b158015611a79575f80fd5b505af1158015611a8b573d5f803e3d5ffd5b50505050505050505050505050505050565b611aa5612113565b73ffffffffffffffffffffffffffffffffffffffff8116611af4576040517f1e4fbdf70000000000000000000000000000000000000000000000000000000081525f6004820152602401610245565b611afd8161222f565b50565b5f80611b0e838501856147d9565b90925090505f73ffffffffffffffffffffffffffffffffffffffff821661eeee14611b395781611b5b565b7f00000000000000000000000000000000000000000000000000000000000000005b5f84815260026020908152604080832073ffffffffffffffffffffffffffffffffffffffff80861685529252909120549192501680611bdc575073ffffffffffffffffffffffffffffffffffffffff8082165f9081527fac33ff75c19e70fe83507db0d683fd3465c996598dc972688b7ace676c89077b6020526040902054165b3373ffffffffffffffffffffffffffffffffffffffff821614611c2d576040517fbca42a54000000000000000000000000000000000000000000000000000000008152336004820152602401610245565b5f808912611c3b5788611c3d565b875b90507fffffffffffffffffffffffffffffffffffffffffffffffffffffffffffff111273ffffffffffffffffffffffffffffffffffffffff851601611cfa577f000000000000000000000000000000000000000000000000000000000000000073ffffffffffffffffffffffffffffffffffffffff1663d0e30db0826040518263ffffffff1660e01b81526004015f604051808303818588803b158015611ce2575f80fd5b505af1158015611cf4573d5f803e3d5ffd5b50505050505b611d1b73ffffffffffffffffffffffffffffffffffffffff84163383612922565b505050505050505050565b6040517f86202650000000000000000000000000000000000000000000000000000000008152600481018a905273ffffffffffffffffffffffffffffffffffffffff7f0000000000000000000000000000000000000000000000000000000000000000811660248301525f9182917f00000000000000000000000000000000000000000000000000000000000000001690638620265090604401602060405180830381865afa158015611ddb573d5f803e3d5ffd5b505050506040513d601f19601f82011682018060405250810190611dff9190614cda565b905073ffffffffffffffffffffffffffffffffffffffff8116611e8d576040517fcf78a6fc000000000000000000000000000000000000000000000000000000008152600481018c905273ffffffffffffffffffffffffffffffffffffffff7f0000000000000000000000000000000000000000000000000000000000000000166024820152604401610245565b5f611ea68c8c611e9f8e8e8a8a6122a3565b888861260b565b90505f611ed4837f0000000000000000000000000000000000000000000000000000000000000000846128ca565b90508273ffffffffffffffffffffffffffffffffffffffff1663fef43257828f7f0000000000000000000000000000000000000000000000000000000000000000868f8f8f8f8f8f6040518b63ffffffff1660e01b8152600401611f4099989796959493929190614e82565b60206040518083038185885af1158015611f5c573d5f803e3d5ffd5b50505050506040513d601f19601f82011682018060405250810190611f819190614ef0565b9d9c50505050505050505050505050565b5f611f9b6129a3565b90508373ffffffffffffffffffffffffffffffffffffffff168173ffffffffffffffffffffffffffffffffffffffff16141580156120a857506040517f348b684e00000000000000000000000000000000000000000000000000000000815273ffffffffffffffffffffffffffffffffffffffff82811660048301528581166024830152604482018590526064820184905260016084830181905260a48301527f0000000000000000000000000000000000000000000000000000000000000000169063348b684e9060c401602060405180830381865afa158015612082573d5f803e3d5ffd5b505050506040513d601f19601f820116820180604052508101906120a69190614f07565b155b1561210d576040517f264deeaa00000000000000000000000000000000000000000000000000000000815273ffffffffffffffffffffffffffffffffffffffff8086166004830152821660248201526044810184905260648101839052608401610245565b50505050565b61211b6129a3565b73ffffffffffffffffffffffffffffffffffffffff1661214f5f5473ffffffffffffffffffffffffffffffffffffffff1690565b73ffffffffffffffffffffffffffffffffffffffff1614611707576121726129a3565b6040517f118cdaa700000000000000000000000000000000000000000000000000000000815273ffffffffffffffffffffffffffffffffffffffff9091166004820152602401610245565b5f7f000000000000000000000000000000000000000000000000000000000000000061220857507f000000000000000000000000000000000000000000000000000000000000000090565b7f00000000000000000000000000000000000000000000000000000000000000005b905090565b5f805473ffffffffffffffffffffffffffffffffffffffff8381167fffffffffffffffffffffffff0000000000000000000000000000000000000000831681178455604051919092169283917f8be0079c531659141344cd1fd0a4f28419497f9722a3daafe3b4186f6b6457e09190a35050565b5f7fffffffffffffffffffffffffffffffffffffffffffffffffffffffffffff111273ffffffffffffffffffffffffffffffffffffffff8616016122e8575034612603565b3415612322576040517f15f828f8000000000000000000000000000000000000000000000000000000008152346004820152602401610245565b5f806123a06123656040518060400160405280600781526020017f7065726d697432000000000000000000000000000000000000000000000000008152506129ac565b86868080601f0160208091040260200160405190810160405280939291908181526020018383808284375f920191909152506129bf92505050565b915091508115612566575f818060200190518101906123bf9190614f5e565b9050806020015173ffffffffffffffffffffffffffffffffffffffff1687111561243a5760208101516040517f6efd58f80000000000000000000000000000000000000000000000000000000081526004810189905273ffffffffffffffffffffffffffffffffffffffff9091166024820152604401610245565b5f604051806060016040528060405180608001604052808c73ffffffffffffffffffffffffffffffffffffffff168152602001856020015173ffffffffffffffffffffffffffffffffffffffff168152602001856040015165ffffffffffff168152602001856060015165ffffffffffff1681525081526020013073ffffffffffffffffffffffffffffffffffffffff168152602001835f015181525090507f000000000000000000000000000000000000000000000000000000000000000073ffffffffffffffffffffffffffffffffffffffff16632b67b570338385608001516040518463ffffffff1660e01b815260040161253a939291906150be565b5f604051808303815f87803b158015612551575f80fd5b505af1925050508015612562575060015b5050505b61257233308989612ba7565b6040517f70a0823100000000000000000000000000000000000000000000000000000000815230600482015273ffffffffffffffffffffffffffffffffffffffff8816906370a0823190602401602060405180830381865afa1580156125da573d5f803e3d5ffd5b505050506040513d601f19601f820116820180604052508101906125fe9190614ef0565b925050505b949350505050565b5f8073ffffffffffffffffffffffffffffffffffffffff861661eeee146126325785612654565b7f00000000000000000000000000000000000000000000000000000000000000005b90505f61265f6121bd565b905073ffffffffffffffffffffffffffffffffffffffff871661eeee1480156126a557507f00000000000000000000000000000000000000000000000000000000000000005b806126db57508073ffffffffffffffffffffffffffffffffffffffff168273ffffffffffffffffffffffffffffffffffffffff16145b156126ea5785925050506128c1565b5f806126fa87878c878c88612da9565b915091505f61273b8a8a858773ffffffffffffffffffffffffffffffffffffffff168973ffffffffffffffffffffffffffffffffffffffff16108f8761314d565b6040517f70a082310000000000000000000000000000000000000000000000000000000081523060048201529091505f9073ffffffffffffffffffffffffffffffffffffffff8716906370a0823190602401602060405180830381865afa1580156127a8573d5f803e3d5ffd5b505050506040513d601f19601f820116820180604052508101906127cc9190614ef0565b905080156128b9577fffffffffffffffffffffffffffffffffffffffffffffffffffffffffffff111273ffffffffffffffffffffffffffffffffffffffff8c16016128ad576040517f2e1a7d4d000000000000000000000000000000000000000000000000000000008152600481018290527f000000000000000000000000000000000000000000000000000000000000000073ffffffffffffffffffffffffffffffffffffffff1690632e1a7d4d906024015f604051808303815f87803b158015612896575f80fd5b505af11580156128a8573d5f803e3d5ffd5b505050505b6128b930338d84612ba7565b509450505050505b95945050505050565b5f7f0000000000000000000000000000000000000000000000000000000000000000156128f8575080611843565b61291973ffffffffffffffffffffffffffffffffffffffff84168584613376565b505f9392505050565b60405173ffffffffffffffffffffffffffffffffffffffff83811660248301526044820183905261035a91859182169063a9059cbb906064015b604051602081830303815290604052915060e01b6020820180517bffffffffffffffffffffffffffffffffffffffffffffffffffffffff8381831617835250505050613423565b5f61222a6134c2565b805160208201205f903060601b18610900565b5f606060258351116129e257505060408051602081019091525f80825290612ba0565b5f836129f060046020614d5f565b81518110612a0057612a00614d72565b0160209081015160f81c91505b5f85612a1a600484614d5f565b81518110612a2a57612a2a614d72565b01602001517fff000000000000000000000000000000000000000000000000000000000000001614801590612a685750612a6560208361513f565b81105b15612b9d575f85612a7a600484614d5f565b81518110612a8a57612a8a614d72565b016020908101518784019091015160f89190911c91507fffffffff0000000000000000000000000000000000000000000000000000000080891690821603612b93575f612ad860208661513f565b612ae3600986614d5f565b101580612b30575087612af7600986614d5f565b81518110612b0757612b07614d72565b01602001517fff0000000000000000000000000000000000000000000000000000000000000016155b612b6957602088612b42600987614d5f565b81518110612b5257612b52614d72565b0160200151612b64919060f81c61513f565b612b6c565b87515b90506001612b8589612b7f60208761513f565b84613542565b965096505050505050612ba0565b5050600501612a0d565b50505b9250929050565b3073ffffffffffffffffffffffffffffffffffffffff851603612c31577fffffffffffffffffffffffffffffffffffffffffffffffffffffffffffff111273ffffffffffffffffffffffffffffffffffffffff831601612c1057612c0b8382613587565b61210d565b612c0b73ffffffffffffffffffffffffffffffffffffffff83168483612922565b6040517fdd62ed3e00000000000000000000000000000000000000000000000000000000815273ffffffffffffffffffffffffffffffffffffffff858116600483015230602483015282919084169063dd62ed3e90604401602060405180830381865afa158015612ca4573d5f803e3d5ffd5b505050506040513d601f19601f82011682018060405250810190612cc89190614ef0565b10612cef57612c0b73ffffffffffffffffffffffffffffffffffffffff8316858584613639565b6040517f36c7851600000000000000000000000000000000000000000000000000000000815273ffffffffffffffffffffffffffffffffffffffff85811660048301528481166024830152828116604483015283811660648301527f000000000000000000000000000000000000000000000000000000000000000016906336c78516906084015f604051808303815f87803b158015612d8d575f80fd5b505af1158015612d9f573d5f803e3d5ffd5b5050505050505050565b5f84815260026020908152604080832073ffffffffffffffffffffffffffffffffffffffff808816855292528220541680612e7b575073ffffffffffffffffffffffffffffffffffffffff8085165f9081527fac33ff75c19e70fe83507db0d683fd3465c996598dc972688b7ace676c89077b60205260409020541680612e7b576040517f891773860000000000000000000000000000000000000000000000000000000081526004810187905273ffffffffffffffffffffffffffffffffffffffff86166024820152604401610245565b5f80612ef9612ebe6040518060400160405280600c81526020017f71756f7465466f725377617000000000000000000000000000000000000000008152506129ac565b8b8b8080601f0160208091040260200160405190810160405280939291908181526020018383808284375f920191909152506129bf92505050565b915091508115612f1e5780806020019051810190612f179190614ef0565b935061313f565b5f88815260046020908152604080832073ffffffffffffffffffffffffffffffffffffffff8716845290915281205490612f578561367f565b9050818163ffffffff161015612f71578063ffffffff1691505b5f808263ffffffff165f0361308b578673ffffffffffffffffffffffffffffffffffffffff16633850c7bd6040518163ffffffff1660e01b815260040160e060405180830381865afa158015612fc9573d5f803e3d5ffd5b505050506040513d601f19601f82011682018060405250810190612fed9190615167565b5050604080517f1a686502000000000000000000000000000000000000000000000000000000008152905194975073ffffffffffffffffffffffffffffffffffffffff8d169550631a686502946004808301955060209450909250908290030181865afa158015613060573d5f803e3d5ffd5b505050506040513d601f19601f8201168201806040525081019061308491906151fa565b905061309b565b61309587856138bb565b90925090505b806fffffffffffffffffffffffffffffffff165f036130c2575f9750505050505050613142565b5f6130d08b838c8f87613b6f565b90507fffffffffffffffffffffffffffffffffffffffffffffffffffffffffffffd8f08101613108575f985050505050505050613142565b613114838c8e8d613e1b565b9850612710613123828b61513f565b61312d9190615256565b613137908a615269565b985050505050505b50505b965096945050505050565b5f805f8373ffffffffffffffffffffffffffffffffffffffff1663128acb0830888b8a61319857613193600173fffd8963efd1fc6a506488495d951d5263988d2661527c565b6131a8565b6131a86401000276a360016152b0565b8a8f6040516020016131da92919091825273ffffffffffffffffffffffffffffffffffffffff16602082015260400190565b6040516020818303038152906040526040518663ffffffff1660e01b81526004016132099594939291906152dd565b60408051808303815f875af1158015613224573d5f803e3d5ffd5b505050506040513d601f19601f82011682018060405250810190613248919061532e565b91509150856132575781613259565b805b61326290615350565b9250868310156132a8576040517f371d1b7a0000000000000000000000000000000000000000000000000000000081526004810184905260248101889052604401610245565b7f00000000000000000000000000000000000000000000000000000000000000001561336a576040517f2e1a7d4d000000000000000000000000000000000000000000000000000000008152600481018490527f000000000000000000000000000000000000000000000000000000000000000073ffffffffffffffffffffffffffffffffffffffff1690632e1a7d4d906024015f604051808303815f87803b158015613353575f80fd5b505af1158015613365573d5f803e3d5ffd5b505050505b50509695505050505050565b6040517fdd62ed3e00000000000000000000000000000000000000000000000000000000815230600482015273ffffffffffffffffffffffffffffffffffffffff83811660248301525f919085169063dd62ed3e90604401602060405180830381865afa1580156133e9573d5f803e3d5ffd5b505050506040513d601f19601f8201168201806040525081019061340d9190614ef0565b905061210d848461341e8585614d5f565b613fee565b5f8060205f8451602086015f885af180613442576040513d5f823e3d81fd5b50505f513d91508115613459578060011415613473565b73ffffffffffffffffffffffffffffffffffffffff84163b155b1561210d576040517f5274afe700000000000000000000000000000000000000000000000000000000815273ffffffffffffffffffffffffffffffffffffffff85166004820152602401610245565b5f3660143373ffffffffffffffffffffffffffffffffffffffff7f00000000000000000000000000000000000000000000000000000000000000001614801561350b5750808210155b1561353a575f3661351c8385615269565b613527928290615386565b613530916153ad565b60601c9250505090565b339250505090565b6060828203604051915060208183010160405280825250826020850101602082015f5b8481101561357d578281015182820152602001613565565b5050509392505050565b804710156135ca576040517fcf47918100000000000000000000000000000000000000000000000000000000815247600482015260248101829052604401610245565b5f808373ffffffffffffffffffffffffffffffffffffffff16836040515f6040518083038185875af1925050503d805f8114613621576040519150601f19603f3d011682016040523d82523d5f602084013e613626565b606091505b50915091508161210d5761210d816140c5565b60405173ffffffffffffffffffffffffffffffffffffffff848116602483015283811660448301526064820183905261210d9186918216906323b872dd9060840161295c565b5f805f8373ffffffffffffffffffffffffffffffffffffffff16633850c7bd6040518163ffffffff1660e01b815260040160e060405180830381865afa1580156136cb573d5f803e3d5ffd5b505050506040513d601f19601f820116820180604052508101906136ef9190615167565b5050509350935050505f8161ffff1611613765576040517f08c379a000000000000000000000000000000000000000000000000000000000815260206004820152600260248201527f4e490000000000000000000000000000000000000000000000000000000000006044820152606401610245565b5f8073ffffffffffffffffffffffffffffffffffffffff861663252c09d78461378f8760016153f5565b6137999190615410565b6040517fffffffff0000000000000000000000000000000000000000000000000000000060e084901b16815261ffff9091166004820152602401608060405180830381865afa1580156137ee573d5f803e3d5ffd5b505050506040513d601f19601f820116820180604052508101906138129190615441565b935050509150806138b0576040517f252c09d70000000000000000000000000000000000000000000000000000000081525f600482015273ffffffffffffffffffffffffffffffffffffffff87169063252c09d790602401608060405180830381865afa158015613885573d5f803e3d5ffd5b505050506040513d601f19601f820116820180604052508101906138a99190615441565b5091935050505b504203949350505050565b5f808263ffffffff165f0361392c576040517f08c379a000000000000000000000000000000000000000000000000000000000815260206004820152600260248201527f42500000000000000000000000000000000000000000000000000000000000006044820152606401610245565b6040805160028082526060820183525f9260208301908036833701905050905083815f8151811061395f5761395f614d72565b602002602001019063ffffffff16908163ffffffff16815250505f8160018151811061398d5761398d614d72565b602002602001019063ffffffff16908163ffffffff16815250505f808673ffffffffffffffffffffffffffffffffffffffff1663883bdbfd846040518263ffffffff1660e01b81526004016139e29190615499565b5f60405180830381865afa1580156139fc573d5f803e3d5ffd5b505050506040513d5f823e601f3d9081017fffffffffffffffffffffffffffffffffffffffffffffffffffffffffffffffe0168201604052613a419190810190615546565b915091505f825f81518110613a5857613a58614d72565b602002602001015183600181518110613a7357613a73614d72565b6020026020010151613a859190615603565b90505f825f81518110613a9a57613a9a614d72565b602002602001015183600181518110613ab557613ab5614d72565b6020026020010151613ac7919061527c565b9050613ad963ffffffff891683615648565b96505f8260060b128015613afe5750613af863ffffffff8916836156bb565b60060b15155b15613b115786613b0d816156dc565b9750505b5f613b3673ffffffffffffffffffffffffffffffffffffffff63ffffffff8b16615738565b9050613b6077ffffffffffffffffffffffffffffffffffffffff00000000602084901b168261577b565b96505050505050509250929050565b5f808373ffffffffffffffffffffffffffffffffffffffff168573ffffffffffffffffffffffffffffffffffffffff1610613bab578385613bae565b84845b50905073ffffffffffffffffffffffffffffffffffffffff848116908216145f613bd785614107565b90508073ffffffffffffffffffffffffffffffffffffffff165f03613c04575061271092506128c1915050565b5f613c448a613c16612710600a6157b1565b73ffffffffffffffffffffffffffffffffffffffff168b6fffffffffffffffffffffffffffffffff16614467565b90505f83613c7f57613c7a826c0100000000000000000000000073ffffffffffffffffffffffffffffffffffffffff8616614467565b613cad565b613cad8273ffffffffffffffffffffffffffffffffffffffff85166c01000000000000000000000000614467565b9050613cbc612710600f6157b1565b73ffffffffffffffffffffffffffffffffffffffff16811115613d14576064613ce861271060586157b1565b613cf291906157e7565b73ffffffffffffffffffffffffffffffffffffffff16955050505050506128c1565b613d21612710600a6157b1565b73ffffffffffffffffffffffffffffffffffffffff16811115613d4d576064613ce861271060436157b1565b617530811115613d6e57613d62600c82615256565b955050505050506128c1565b613a98811115613d8357613d62600a82615256565b612710811115613da457600f613d9a82600261513f565b613d629190615256565b611388811115613dbb576014613d9a82600361513f565b6105dc811115613dd057613d62600582615256565b6101f4811115613df057613de5600582615256565b613d629060c8614d5f565b8015613e0c57613e01600582615256565b613d62906064614d5f565b61041a955050505050506128c1565b5f80613e2686614107565b90506fffffffffffffffffffffffffffffffff73ffffffffffffffffffffffffffffffffffffffff821611613f24575f613e7673ffffffffffffffffffffffffffffffffffffffff83168061513f565b90508373ffffffffffffffffffffffffffffffffffffffff168573ffffffffffffffffffffffffffffffffffffffff1610613ee657613ee17801000000000000000000000000000000000000000000000000876fffffffffffffffffffffffffffffffff168361456e565b613f1c565b613f1c81876fffffffffffffffffffffffffffffffff16780100000000000000000000000000000000000000000000000061456e565b925050613fe5565b5f613f4f73ffffffffffffffffffffffffffffffffffffffff8316806801000000000000000061456e565b90508373ffffffffffffffffffffffffffffffffffffffff168573ffffffffffffffffffffffffffffffffffffffff1610613fb757613fb2700100000000000000000000000000000000876fffffffffffffffffffffffffffffffff168361456e565b6125fe565b6125fe81876fffffffffffffffffffffffffffffffff1670010000000000000000000000000000000061456e565b50949350505050565b6040805173ffffffffffffffffffffffffffffffffffffffff8416602482015260448082018490528251808303909101815260649091019091526020810180517bffffffffffffffffffffffffffffffffffffffffffffffffffffffff167f095ea7b30000000000000000000000000000000000000000000000000000000017905261407a8482614637565b61210d5760405173ffffffffffffffffffffffffffffffffffffffff84811660248301525f60448301526140bb91869182169063095ea7b39060640161295c565b61210d8482613423565b8051156140d55780518082602001fd5b6040517fd6bda27500000000000000000000000000000000000000000000000000000000815260040160405180910390fd5b5f805f8360020b1261411c578260020b614123565b8260020b5f035b9050620d89e8811115614162576040517f2bc80f3a00000000000000000000000000000000000000000000000000000000815260040160405180910390fd5b5f816001165f0361418457700100000000000000000000000000000000614196565b6ffffcb933bd6fad37aa2d162d1a5940015b70ffffffffffffffffffffffffffffffffff16905060028216156141ca576ffff97272373d413259a46990580e213a0260801c5b60048216156141e9576ffff2e50f5f656932ef12357cf3c7fdcc0260801c5b6008821615614208576fffe5caca7e10e4e61c3624eaa0941cd00260801c5b6010821615614227576fffcb9843d60f6159c9db58835c9266440260801c5b6020821615614246576fff973b41fa98c081472e6896dfb254c00260801c5b6040821615614265576fff2ea16466c96a3843ec78b326b528610260801c5b6080821615614284576ffe5dee046a99a2a811c461f1969c30530260801c5b6101008216156142a4576ffcbe86c7900a88aedcffc83b479aa3a40260801c5b6102008216156142c4576ff987a7253ac413176f2b074cf7815e540260801c5b6104008216156142e4576ff3392b0822b70005940c7a398e4b70f30260801c5b610800821615614304576fe7159475a2c29b7443b29c7fa6e889d90260801c5b611000821615614324576fd097f3bdfd2022b8845ad8f792aa58250260801c5b612000821615614344576fa9f746462d870fdf8a65dc1f90e061e50260801c5b614000821615614364576f70d869a156d2a1b890bb3df62baf32f70260801c5b618000821615614384576f31be135f97d08fd981231505542fcfa60260801c5b620100008216156143a5576f09aa508b5b7a84e1c677de54f3e99bc90260801c5b620200008216156143c5576e5d6af8dedb81196699c329225ee6040260801c5b620400008216156143e4576d2216e584f5fa1ea926041bedfe980260801c5b62080000821615614401576b048a170391f7dc42444e8fa20260801c5b5f8460020b131561443f57807fffffffffffffffffffffffffffffffffffffffffffffffffffffffffffffffff8161443b5761443b615229565b0490505b640100000000810615614453576001614455565b5f5b60ff16602082901c0192505050919050565b5f80807fffffffffffffffffffffffffffffffffffffffffffffffffffffffffffffffff858709858702925082811083820303915050805f036144bd578382816144b3576144b3615229565b0492505050611843565b838110614507576040517f63a05778000000000000000000000000000000000000000000000000000000008152600481018790526024810186905260448101859052606401610245565b5f8486880960026001871981018816978890046003810283188082028403028082028403028082028403028082028403028082028403029081029092039091025f889003889004909101858311909403939093029303949094049190911702949350505050565b5f80807fffffffffffffffffffffffffffffffffffffffffffffffffffffffffffffffff858709858702925082811083820303915050805f036145c1575f84116145b6575f80fd5b508290049050611843565b8084116145cc575f80fd5b5f848688095f868103871696879004966002600389028118808a02820302808a02820302808a02820302808a02820302808a02820302808a02909103029181900381900460010186841190950394909402919094039290920491909117919091029150509392505050565b5f805f8060205f8651602088015f8a5af192503d91505f519050828015614683575081156146685780600114614683565b5f8673ffffffffffffffffffffffffffffffffffffffff163b115b9695505050505050565b5f6020828403121561469d575f80fd5b81357fffffffff0000000000000000000000000000000000000000000000000000000081168114611843575f80fd5b73ffffffffffffffffffffffffffffffffffffffff81168114611afd575f80fd5b5f805f606084860312156146ff575f80fd5b833592506020840135614711816146cc565b929592945050506040919091013590565b5f805f60608486031215614734575f80fd5b833592506020840135614746816146cc565b91506040840135614756816146cc565b809150509250925092565b5f805f60408486031215614773575f80fd5b83359250602084013567ffffffffffffffff80821115614791575f80fd5b818601915086601f8301126147a4575f80fd5b8135818111156147b2575f80fd5b8760206060830285010111156147c6575f80fd5b6020830194508093505050509250925092565b5f80604083850312156147ea575f80fd5b8235915060208301356147fc816146cc565b809150509250929050565b815173ffffffffffffffffffffffffffffffffffffffff16815260208083015160ff169082015260408083015163ffffffff169082015260608101610900565b5f60208284031215614857575f80fd5b5035919050565b602080825282518282018190525f9190848201906040850190845b818110156148d2576148bf838551805173ffffffffffffffffffffffffffffffffffffffff16825260208082015160ff169083015260409081015163ffffffff16910152565b9284019260609290920191600101614879565b50909695505050505050565b5f602082840312156148ee575f80fd5b8135611843816146cc565b8015158114611afd575f80fd5b5f8083601f840112614916575f80fd5b50813567ffffffffffffffff81111561492d575f80fd5b602083019150836020828501011115612ba0575f80fd5b5f805f805f805f8060c0898b03121561495b575f80fd5b88359750602089013561496d816146cc565b9650604089013595506060890135614984816148f9565b9450608089013567ffffffffffffffff808211156149a0575f80fd5b6149ac8c838d01614906565b909650945060a08b01359150808211156149c4575f80fd5b506149d18b828c01614906565b999c989b5096995094979396929594505050565b7f4e487b71000000000000000000000000000000000000000000000000000000005f52604160045260245ffd5b6040516060810167ffffffffffffffff81118282101715614a3557614a356149e5565b60405290565b60405160a0810167ffffffffffffffff81118282101715614a3557614a356149e5565b604051601f82017fffffffffffffffffffffffffffffffffffffffffffffffffffffffffffffffe016810167ffffffffffffffff81118282101715614aa557614aa56149e5565b604052919050565b5f67ffffffffffffffff821115614ac657614ac66149e5565b5060051b60200190565b60ff81168114611afd575f80fd5b63ffffffff81168114611afd575f80fd5b5f805f8060808587031215614b02575f80fd5b8435935060208086013567ffffffffffffffff811115614b20575f80fd5b8601601f81018813614b30575f80fd5b8035614b43614b3e82614aad565b614a5e565b8181526060918202830184019184820191908b841115614b61575f80fd5b938501935b83851015614bc45780858d031215614b7c575f80fd5b614b84614a12565b8535614b8f816146cc565b815285870135614b9e81614ad0565b81880152604086810135614bb181614ade565b9082015283529384019391850191614b66565b50979a97995050505060408601359560600135949350505050565b5f805f8060608587031215614bf2575f80fd5b8435935060208501359250604085013567ffffffffffffffff811115614c16575f80fd5b614c2287828801614906565b95989497509550505050565b5f805f805f805f805f60e08a8c031215614c46575f80fd5b8935985060208a0135614c58816146cc565b975060408a0135965060608a0135614c6f816146cc565b955060808a0135945060a08a013567ffffffffffffffff80821115614c92575f80fd5b614c9e8d838e01614906565b909650945060c08c0135915080821115614cb6575f80fd5b50614cc38c828d01614906565b915080935050809150509295985092959850929598565b5f60208284031215614cea575f80fd5b8151611843816146cc565b5f60208284031215614d05575f80fd5b815162ffffff81168114611843575f80fd5b5f60208284031215614d27575f80fd5b815161184381614ad0565b7f4e487b71000000000000000000000000000000000000000000000000000000005f52601160045260245ffd5b8082018082111561090057610900614d32565b7f4e487b71000000000000000000000000000000000000000000000000000000005f52603260045260245ffd5b5f7fffffffffffffffffffffffffffffffffffffffffffffffffffffffffffffffff8203614dcf57614dcf614d32565b5060010190565b81835281816020850137505f602082840101525f60207fffffffffffffffffffffffffffffffffffffffffffffffffffffffffffffffe0601f840116840101905092915050565b88815273ffffffffffffffffffffffffffffffffffffffff88166020820152866040820152851515606082015260c060808201525f614e6060c083018688614dd6565b82810360a0840152614e73818587614dd6565b9b9a5050505050505050505050565b8981525f73ffffffffffffffffffffffffffffffffffffffff808b16602084015289604084015280891660608401525086608083015260e060a0830152614ecd60e083018688614dd6565b82810360c0840152614ee0818587614dd6565b9c9b505050505050505050505050565b5f60208284031215614f00575f80fd5b5051919050565b5f60208284031215614f17575f80fd5b8151611843816148f9565b805165ffffffffffff81168114614f37575f80fd5b919050565b5f5b83811015614f56578181015183820152602001614f3e565b50505f910152565b5f6020808385031215614f6f575f80fd5b825167ffffffffffffffff80821115614f86575f80fd5b9084019060a08287031215614f99575f80fd5b614fa1614a3b565b8251815283830151614fb2816146cc565b81850152614fc260408401614f22565b6040820152614fd360608401614f22565b6060820152608083015182811115614fe9575f80fd5b80840193505086601f840112614ffd575f80fd5b82518281111561500f5761500f6149e5565b61503f857fffffffffffffffffffffffffffffffffffffffffffffffffffffffffffffffe0601f84011601614a5e565b92508083528785828601011115615054575f80fd5b61506381868501878701614f3c565b50608081019190915295945050505050565b5f815180845261508c816020860160208601614f3c565b601f017fffffffffffffffffffffffffffffffffffffffffffffffffffffffffffffffe0169290920160200192915050565b5f61010073ffffffffffffffffffffffffffffffffffffffff80871684528551818151166020860152816020820151166040860152604081015165ffffffffffff80821660608801528060608401511660808801525050508060208701511660a085015250604085015160c08401528060e084015261468381840185615075565b808202811582820484141761090057610900614d32565b805161ffff81168114614f37575f80fd5b5f805f805f805f60e0888a03121561517d575f80fd5b8751615188816146cc565b8097505060208801518060020b811461519f575f80fd5b95506151ad60408901615156565b94506151bb60608901615156565b93506151c960808901615156565b925060a08801516151d981614ad0565b60c08901519092506151ea816148f9565b8091505092959891949750929550565b5f6020828403121561520a575f80fd5b81516fffffffffffffffffffffffffffffffff81168114611843575f80fd5b7f4e487b71000000000000000000000000000000000000000000000000000000005f52601260045260245ffd5b5f8261526457615264615229565b500490565b8181038181111561090057610900614d32565b73ffffffffffffffffffffffffffffffffffffffff8281168282160390808211156152a9576152a9614d32565b5092915050565b73ffffffffffffffffffffffffffffffffffffffff8181168382160190808211156152a9576152a9614d32565b5f73ffffffffffffffffffffffffffffffffffffffff8088168352861515602084015285604084015280851660608401525060a0608083015261532360a0830184615075565b979650505050505050565b5f806040838503121561533f575f80fd5b505080516020909101519092909150565b5f7f8000000000000000000000000000000000000000000000000000000000000000820361538057615380614d32565b505f0390565b5f8085851115615394575f80fd5b838611156153a0575f80fd5b5050820193919092039150565b7fffffffffffffffffffffffffffffffffffffffff00000000000000000000000081358181169160148510156153ed5780818660140360031b1b83161692505b505092915050565b61ffff8181168382160190808211156152a9576152a9614d32565b5f61ffff8084168061542457615424615229565b92169190910692915050565b8051600681900b8114614f37575f80fd5b5f805f8060808587031215615454575f80fd5b845161545f81614ade565b935061546d60208601615430565b9250604085015161547d816146cc565b606086015190925061548e816148f9565b939692955090935050565b602080825282518282018190525f9190848201906040850190845b818110156148d257835163ffffffff16835292840192918401916001016154b4565b5f82601f8301126154e5575f80fd5b815160206154f5614b3e83614aad565b8083825260208201915060208460051b870101935086841115615516575f80fd5b602086015b8481101561553b57805161552e816146cc565b835291830191830161551b565b509695505050505050565b5f8060408385031215615557575f80fd5b825167ffffffffffffffff8082111561556e575f80fd5b818501915085601f830112615581575f80fd5b81516020615591614b3e83614aad565b82815260059290921b840181019181810190898411156155af575f80fd5b948201945b838610156155d4576155c586615430565b825294820194908201906155b4565b918801519196509093505050808211156155ec575f80fd5b506155f9858286016154d6565b9150509250929050565b600682810b9082900b037fffffffffffffffffffffffffffffffffffffffffffffffffff800000000000008112667fffffffffffff8213171561090057610900614d32565b5f8160060b8360060b8061565e5761565e615229565b7fffffffffffffffffffffffffffffffffffffffffffffffffffffffffffffffff81147fffffffffffffffffffffffffffffffffffffffffffffffffff80000000000000831416156156b2576156b2614d32565b90059392505050565b5f8260060b806156cd576156cd615229565b808360060b0791505092915050565b5f8160020b7fffffffffffffffffffffffffffffffffffffffffffffffffffffffffff800000810361571057615710614d32565b7fffffffffffffffffffffffffffffffffffffffffffffffffffffffffffffffff0192915050565b77ffffffffffffffffffffffffffffffffffffffffffffffff82811682821681810283169291811582850482141761577257615772614d32565b50505092915050565b5f77ffffffffffffffffffffffffffffffffffffffffffffffff808416806157a5576157a5615229565b92169190910492915050565b73ffffffffffffffffffffffffffffffffffffffff82811682821681810283169291811582850482141761577257615772614d32565b5f73ffffffffffffffffffffffffffffffffffffffff808416806157a5576157a561522956fea26469706673582212203fd5ba5314a48a514b04ba932e1eb1c64e171f0599300ba44baf1e071c89e1dd64736f6c63430008170033",
	"deployedBytecode": "0x6080604052600436106101d3575f3560e01c80637c5e9c24116100fd578063b88a92b411610092578063f2fde38b11610062578063f2fde38b146106ba578063f434c914146106d9578063fa461e331461070c578063fef432571461072b575f80fd5b8063b88a92b41461064a578063d1f00aeb14610660578063e28b541114610675578063edb4095014610697575f80fd5b80639782ed71116100cd5780639782ed71146105d05780639e6eec05146105ef578063ac90511414610602578063ad5c464814610617575f80fd5b80637c5e9c24146104f75780637da0a8771461054257806388bc2ef3146105745780638da5cb5b146105a7575f80fd5b80632c1ae88211610173578063515a929311610143578063515a92931461042b578063572b6c05146104575780636afdd850146104b0578063715018a6146104e3575f80fd5b80632c1ae882146103925780632dd31000146103a55780632e4c3cbf146103d85780633a01714f146103ff575f80fd5b80631a65893b116101ae5780631a65893b146102ff57806324e26dc514610321578063253721c814610340578063293c49991461035f575f80fd5b806301ffc9a7146102545780630392ef94146102885780630e2298ee146102e0575f80fd5b36610250573373ffffffffffffffffffffffffffffffffffffffff7f0000000000000000000000004200000000000000000000000000000000000006161461024e576040517fb320fe970000000000000000000000000000000000000000000000000000000081523360048201526024015b60405180910390fd5b005b5f80fd5b34801561025f575f80fd5b5061027361026e36600461468d565b61073e565b60405190151581526020015b60405180910390f35b348015610293575f80fd5b506102bb7f000000000000000000000000000000000000000000000000000000000000eeee81565b60405173ffffffffffffffffffffffffffffffffffffffff909116815260200161027f565b3480156102eb575f80fd5b5061024e6102fa3660046146ed565b610906565b34801561030a575f80fd5b50610313607881565b60405190815260200161027f565b34801561032c575f80fd5b5061024e61033b366004614722565b610a5f565b34801561034b575f80fd5b5061024e61035a366004614761565b505050565b34801561036a575f80fd5b506102bb7f000000000000000000000000885f707efa18d2cb12f05a3a8eba6b4b26c8c1d481565b34801561039d575f80fd5b506103135f81565b3480156103b0575f80fd5b506102bb7f0000000000000000000000001f98431c8ad98523631ae4a59f267346ea31f98481565b3480156103e3575f80fd5b506103ec600a81565b60405161ffff909116815260200161027f565b34801561040a575f80fd5b5061041e6104193660046147d9565b611195565b60405161027f9190614807565b348015610436575f80fd5b5061044a610445366004614847565b6112db565b60405161027f919061485e565b348015610462575f80fd5b506102736104713660046148de565b7f000000000000000000000000c29d6995ab3b0df4650ad643adeac55e7acbb56673ffffffffffffffffffffffffffffffffffffffff90811691161490565b3480156104bb575f80fd5b506102bb7f000000000000000000000000000000000022d473030f116ddee9f6b43ac78ba381565b3480156104ee575f80fd5b5061024e6116f6565b348015610502575f80fd5b506105166105113660046147d9565b611709565b6040805173ffffffffffffffffffffffffffffffffffffffff909316835290151560208301520161027f565b34801561054d575f80fd5b507f000000000000000000000000c29d6995ab3b0df4650ad643adeac55e7acbb5666102bb565b34801561057f575f80fd5b506102bb7f0000000000000000000000000061e516886a0540f63157f112c0588ee0651dcf81565b3480156105b2575f80fd5b505f5473ffffffffffffffffffffffffffffffffffffffff166102bb565b3480156105db575f80fd5b506103136105ea3660046147d9565b6117c7565b61024e6105fd366004614944565b61184a565b34801561060d575f80fd5b506102bb61271081565b348015610622575f80fd5b506102bb7f000000000000000000000000420000000000000000000000000000000000000681565b348015610655575f80fd5b506103136202a30081565b34801561066b575f80fd5b5061031361041a81565b348015610680575f80fd5b5061031361068f366004614722565b5f9392505050565b3480156106a2575f80fd5b506103136106b1366004614aef565b5f949350505050565b3480156106c5575f80fd5b5061024e6106d43660046148de565b611a9d565b3480156106e4575f80fd5b506102bb7f00000000000000000000000004fd6913d6c32d8c216e153a43c04b1857a7793d81565b348015610717575f80fd5b5061024e610726366004614bdf565b611b00565b610313610739366004614c2e565b611d26565b5f7fffffffff0000000000000000000000000000000000000000000000000000000082167f21c941070000000000000000000000000000000000000000000000000000000014806107d057507fffffffff0000000000000000000000000000000000000000000000000000000082167f6afdd85000000000000000000000000000000000000000000000000000000000145b8061081c57507fffffffff0000000000000000000000000000000000000000000000000000000082167f01ffc9a700000000000000000000000000000000000000000000000000000000145b8061086857507fffffffff0000000000000000000000000000000000000000000000000000000082167ffa461e3300000000000000000000000000000000000000000000000000000000145b806108b457507fffffffff0000000000000000000000000000000000000000000000000000000082167ff434c91400000000000000000000000000000000000000000000000000000000145b8061090057507fffffffff0000000000000000000000000000000000000000000000000000000082167f609b8c1700000000000000000000000000000000000000000000000000000000145b92915050565b82156109ca576040517f6352211e000000000000000000000000000000000000000000000000000000008152600481018490526109c5907f000000000000000000000000885f707efa18d2cb12f05a3a8eba6b4b26c8c1d473ffffffffffffffffffffffffffffffffffffffff1690636352211e90602401602060405180830381865afa158015610999573d5f803e3d5ffd5b505050506040513d601f19601f820116820180604052508101906109bd9190614cda565b84601b611f92565b6109d2565b6109d2612113565b60788110806109e357506202a30081115b15610a2d576040517f9442583100000000000000000000000000000000000000000000000000000000815260048101829052607860248201526202a3006044820152606401610245565b5f92835260046020908152604080852073ffffffffffffffffffffffffffffffffffffffff9094168552929052912055565b8215610b23576040517f6352211e00000000000000000000000000000000000000000000000000000000815260048101849052610b1e907f000000000000000000000000885f707efa18d2cb12f05a3a8eba6b4b26c8c1d473ffffffffffffffffffffffffffffffffffffffff1690636352211e90602401602060405180830381865afa158015610af2573d5f803e3d5ffd5b505050506040513d601f19601f82011682018060405250810190610b169190614cda565b84601a611f92565b610b2b565b610b2b612113565b5f610b346121bd565b90505f73ffffffffffffffffffffffffffffffffffffffff841661eeee14610b5c5783610b7e565b7f00000000000000000000000042000000000000000000000000000000000000065b905073ffffffffffffffffffffffffffffffffffffffff8083168582161090848116907f0000000000000000000000001f98431c8ad98523631ae4a59f267346ea31f98416631698ee8283610bd35785610bd5565b845b84610be05785610be2565b865b8873ffffffffffffffffffffffffffffffffffffffff1663ddca3f436040518163ffffffff1660e01b8152600401602060405180830381865afa158015610c2b573d5f803e3d5ffd5b505050506040513d601f19601f82011682018060405250810190610c4f9190614cf5565b6040517fffffffff0000000000000000000000000000000000000000000000000000000060e086901b16815273ffffffffffffffffffffffffffffffffffffffff938416600482015292909116602483015262ffffff166044820152606401602060405180830381865afa158015610cc9573d5f803e3d5ffd5b505050506040513d601f19601f82011682018060405250810190610ced9190614cda565b73ffffffffffffffffffffffffffffffffffffffff1614610ebc57837f0000000000000000000000001f98431c8ad98523631ae4a59f267346ea31f98473ffffffffffffffffffffffffffffffffffffffff16631698ee8283610d505785610d52565b845b84610d5d5785610d5f565b865b8873ffffffffffffffffffffffffffffffffffffffff1663ddca3f436040518163ffffffff1660e01b8152600401602060405180830381865afa158015610da8573d5f803e3d5ffd5b505050506040513d601f19601f82011682018060405250810190610dcc9190614cf5565b6040517fffffffff0000000000000000000000000000000000000000000000000000000060e086901b16815273ffffffffffffffffffffffffffffffffffffffff938416600482015292909116602483015262ffffff166044820152606401602060405180830381865afa158015610e46573d5f803e3d5ffd5b505050506040513d601f19601f82011682018060405250810190610e6a9190614cda565b6040517fe2bbe4ec00000000000000000000000000000000000000000000000000000000815273ffffffffffffffffffffffffffffffffffffffff928316600482015291166024820152604401610245565b6040517f32148f67000000000000000000000000000000000000000000000000000000008152600a600482015273ffffffffffffffffffffffffffffffffffffffff8516906332148f67906024015f604051808303815f87803b158015610f21575f80fd5b505af1158015610f33573d5f803e3d5ffd5b5050505f87815260026020908152604080832073ffffffffffffffffffffffffffffffffffffffff8781168552925290912054169050610fc9575f8681526003602090815260408220805460018101825590835291200180547fffffffffffffffffffffffff00000000000000000000000000000000000000001673ffffffffffffffffffffffffffffffffffffffff87161790555b5f86815260026020908152604080832073ffffffffffffffffffffffffffffffffffffffff86811685529083529281902080547fffffffffffffffffffffffff0000000000000000000000000000000000000000168885161790558051606081019091529187168083529082019061eeee146110b1578673ffffffffffffffffffffffffffffffffffffffff1663313ce5676040518163ffffffff1660e01b8152600401602060405180830381865afa158015611088573d5f803e3d5ffd5b505050506040513d601f19601f820116820180604052508101906110ac9190614d17565b6110b4565b60125b60ff908116825263ffffffff8089166020938401525f998a52600183526040808b2073ffffffffffffffffffffffffffffffffffffffff9a8b168c528452998a9020845181549486015195909b01519091167501000000000000000000000000000000000000000000027fffffffffffffff00000000ffffffffffffffffffffffffffffffffffffffffff9490921674010000000000000000000000000000000000000000027fffffffffffffffffffffff000000000000000000000000000000000000000000909316999098169890981717169590951790935550505050565b60408051606080820183525f80835260208084018290529284018190528581526001835283812073ffffffffffffffffffffffffffffffffffffffff868116835290845290849020845192830185525490811680835274010000000000000000000000000000000000000000820460ff16938301939093527501000000000000000000000000000000000000000000900463ffffffff1692810192909252610900575073ffffffffffffffffffffffffffffffffffffffff8181165f9081527fa6eef7e35abe7026729641147f7915573c7e97b47efa546f5f6e3230263bcb49602090815260409182902082516060810184529054938416815274010000000000000000000000000000000000000000840460ff1691810191909152750100000000000000000000000000000000000000000090920463ffffffff169082015292915050565b5f81815260036020908152604080832080548251818502810185019093528083526060949383018282801561134457602002820191905f5260205f20905b815473ffffffffffffffffffffffffffffffffffffffff168152600190910190602001808311611319575b50505f808052600360209081527f3617319a054d772f909f7c479a2cebe5066e836a939412e32403c99029b92eff805460408051828502810185019091528181529798509296955093509091508301828280156113d557602002820191905f5260205f20905b815473ffffffffffffffffffffffffffffffffffffffff1681526001909101906020018083116113aa575b5050855184519495509392506113ef915082905083614d5f565b67ffffffffffffffff811115611407576114076149e5565b60405190808252806020026020018201604052801561146f57816020015b604080516060810182525f80825260208083018290529282015282527fffffffffffffffffffffffffffffffffffffffffffffffffffffffffffffffff9092019101816114255790505b5094505f5b828110156115505760015f8881526020019081526020015f205f8683815181106114a0576114a0614d72565b60209081029190910181015173ffffffffffffffffffffffffffffffffffffffff90811683528282019390935260409182015f2082516060810184529054938416815274010000000000000000000000000000000000000000840460ff1691810191909152750100000000000000000000000000000000000000000090920463ffffffff1690820152865187908390811061153d5761153d614d72565b6020908102919091010152600101611474565b50815f5b828110156116de575f805b858110156115dd5786838151811061157957611579614d72565b602002602001015173ffffffffffffffffffffffffffffffffffffffff168882815181106115a9576115a9614d72565b602002602001015173ffffffffffffffffffffffffffffffffffffffff16036115d557600191506115dd565b60010161155f565b50806116d5575f808052600160205286517fa6eef7e35abe7026729641147f7915573c7e97b47efa546f5f6e3230263bcb49919088908590811061162357611623614d72565b60209081029190910181015173ffffffffffffffffffffffffffffffffffffffff90811683528282019390935260409182015f2082516060810184529054938416815274010000000000000000000000000000000000000000840460ff1691810191909152750100000000000000000000000000000000000000000090920463ffffffff169082015288846116b781614d9f565b9550815181106116c9576116c9614d72565b60200260200101819052505b50600101611554565b5085518110156116ec578086525b5050505050919050565b6116fe612113565b6117075f61222f565b565b5f82815260026020908152604080832073ffffffffffffffffffffffffffffffffffffffff808616855292528220541690816117885773ffffffffffffffffffffffffffffffffffffffff8084165f9081527fac33ff75c19e70fe83507db0d683fd3465c996598dc972688b7ace676c89077b60205260409020541691505b6117906121bd565b73ffffffffffffffffffffffffffffffffffffffff168373ffffffffffffffffffffffffffffffffffffffff161090509250929050565b5f82815260046020908152604080832073ffffffffffffffffffffffffffffffffffffffff85168452909152812054808203611843575073ffffffffffffffffffffffffffffffffffffffff82165f9081527f17ef568e3e12ab5b9c7254a8d58478811de00f9e6eb34345acd53bf8fd09d3ec60205260409020545b9392505050565b6040517f862026500000000000000000000000000000000000000000000000000000000081526004810189905273ffffffffffffffffffffffffffffffffffffffff7f000000000000000000000000000000000000000000000000000000000000eeee811660248301525f917f0000000000000000000000000061e516886a0540f63157f112c0588ee0651dcf90911690638620265090604401602060405180830381865afa1580156118ff573d5f803e3d5ffd5b505050506040513d601f19601f820116820180604052508101906119239190614cda565b905073ffffffffffffffffffffffffffffffffffffffff81166119b1576040517fcf78a6fc000000000000000000000000000000000000000000000000000000008152600481018a905273ffffffffffffffffffffffffffffffffffffffff7f000000000000000000000000000000000000000000000000000000000000eeee166024820152604401610245565b5f6119ca8a8a6119c38c8c89896122a3565b878761260b565b90505f6119f8837f000000000000000000000000000000000000000000000000000000000000eeee846128ca565b90508273ffffffffffffffffffffffffffffffffffffffff16639e6eec05828d7f000000000000000000000000000000000000000000000000000000000000eeee868d8d8d8d8d6040518a63ffffffff1660e01b8152600401611a62989796959493929190614e1d565b5f604051808303818588803b158015611a79575f80fd5b505af1158015611a8b573d5f803e3d5ffd5b50505050505050505050505050505050565b611aa5612113565b73ffffffffffffffffffffffffffffffffffffffff8116611af4576040517f1e4fbdf70000000000000000000000000000000000000000000000000000000081525f6004820152602401610245565b611afd8161222f565b50565b5f80611b0e838501856147d9565b90925090505f73ffffffffffffffffffffffffffffffffffffffff821661eeee14611b395781611b5b565b7f00000000000000000000000042000000000000000000000000000000000000065b5f84815260026020908152604080832073ffffffffffffffffffffffffffffffffffffffff80861685529252909120549192501680611bdc575073ffffffffffffffffffffffffffffffffffffffff8082165f9081527fac33ff75c19e70fe83507db0d683fd3465c996598dc972688b7ace676c89077b6020526040902054165b3373ffffffffffffffffffffffffffffffffffffffff821614611c2d576040517fbca42a54000000000000000000000000000000000000000000000000000000008152336004820152602401610245565b5f808912611c3b5788611c3d565b875b90507fffffffffffffffffffffffffffffffffffffffffffffffffffffffffffff111273ffffffffffffffffffffffffffffffffffffffff851601611cfa577f000000000000000000000000420000000000000000000000000000000000000673ffffffffffffffffffffffffffffffffffffffff1663d0e30db0826040518263ffffffff1660e01b81526004015f604051808303818588803b158015611ce2575f80fd5b505af1158015611cf4573d5f803e3d5ffd5b50505050505b611d1b73ffffffffffffffffffffffffffffffffffffffff84163383612922565b505050505050505050565b6040517f86202650000000000000000000000000000000000000000000000000000000008152600481018a905273ffffffffffffffffffffffffffffffffffffffff7f000000000000000000000000000000000000000000000000000000000000eeee811660248301525f9182917f0000000000000000000000000061e516886a0540f63157f112c0588ee0651dcf1690638620265090604401602060405180830381865afa158015611ddb573d5f803e3d5ffd5b505050506040513d601f19601f82011682018060405250810190611dff9190614cda565b905073ffffffffffffffffffffffffffffffffffffffff8116611e8d576040517fcf78a6fc000000000000000000000000000000000000000000000000000000008152600481018c905273ffffffffffffffffffffffffffffffffffffffff7f000000000000000000000000000000000000000000000000000000000000eeee166024820152604401610245565b5f611ea68c8c611e9f8e8e8a8a6122a3565b888861260b565b90505f611ed4837f000000000000000000000000000000000000000000000000000000000000eeee846128ca565b90508273ffffffffffffffffffffffffffffffffffffffff1663fef43257828f7f000000000000000000000000000000000000000000000000000000000000eeee868f8f8f8f8f8f6040518b63ffffffff1660e01b8152600401611f4099989796959493929190614e82565b60206040518083038185885af1158015611f5c573d5f803e3d5ffd5b50505050506040513d601f19601f82011682018060405250810190611f819190614ef0565b9d9c50505050505050505050505050565b5f611f9b6129a3565b90508373ffffffffffffffffffffffffffffffffffffffff168173ffffffffffffffffffffffffffffffffffffffff16141580156120a857506040517f348b684e00000000000000000000000000000000000000000000000000000000815273ffffffffffffffffffffffffffffffffffffffff82811660048301528581166024830152604482018590526064820184905260016084830181905260a48301527f00000000000000000000000004fd6913d6c32d8c216e153a43c04b1857a7793d169063348b684e9060c401602060405180830381865afa158015612082573d5f803e3d5ffd5b505050506040513d601f19601f820116820180604052508101906120a69190614f07565b155b1561210d576040517f264deeaa00000000000000000000000000000000000000000000000000000000815273ffffffffffffffffffffffffffffffffffffffff8086166004830152821660248201526044810184905260648101839052608401610245565b50505050565b61211b6129a3565b73ffffffffffffffffffffffffffffffffffffffff1661214f5f5473ffffffffffffffffffffffffffffffffffffffff1690565b73ffffffffffffffffffffffffffffffffffffffff1614611707576121726129a3565b6040517f118cdaa700000000000000000000000000000000000000000000000000000000815273ffffffffffffffffffffffffffffffffffffffff9091166004820152602401610245565b5f7f000000000000000000000000000000000000000000000000000000000000000161220857507f000000000000000000000000000000000000000000000000000000000000eeee90565b7f00000000000000000000000042000000000000000000000000000000000000065b905090565b5f805473ffffffffffffffffffffffffffffffffffffffff8381167fffffffffffffffffffffffff0000000000000000000000000000000000000000831681178455604051919092169283917f8be0079c531659141344cd1fd0a4f28419497f9722a3daafe3b4186f6b6457e09190a35050565b5f7fffffffffffffffffffffffffffffffffffffffffffffffffffffffffffff111273ffffffffffffffffffffffffffffffffffffffff8616016122e8575034612603565b3415612322576040517f15f828f8000000000000000000000000000000000000000000000000000000008152346004820152602401610245565b5f806123a06123656040518060400160405280600781526020017f7065726d697432000000000000000000000000000000000000000000000000008152506129ac565b86868080601f0160208091040260200160405190810160405280939291908181526020018383808284375f920191909152506129bf92505050565b915091508115612566575f818060200190518101906123bf9190614f5e565b9050806020015173ffffffffffffffffffffffffffffffffffffffff1687111561243a5760208101516040517f6efd58f80000000000000000000000000000000000000000000000000000000081526004810189905273ffffffffffffffffffffffffffffffffffffffff9091166024820152604401610245565b5f604051806060016040528060405180608001604052808c73ffffffffffffffffffffffffffffffffffffffff168152602001856020015173ffffffffffffffffffffffffffffffffffffffff168152602001856040015165ffffffffffff168152602001856060015165ffffffffffff1681525081526020013073ffffffffffffffffffffffffffffffffffffffff168152602001835f015181525090507f000000000000000000000000000000000022d473030f116ddee9f6b43ac78ba373ffffffffffffffffffffffffffffffffffffffff16632b67b570338385608001516040518463ffffffff1660e01b815260040161253a939291906150be565b5f604051808303815f87803b158015612551575f80fd5b505af1925050508015612562575060015b5050505b61257233308989612ba7565b6040517f70a0823100000000000000000000000000000000000000000000000000000000815230600482015273ffffffffffffffffffffffffffffffffffffffff8816906370a0823190602401602060405180830381865afa1580156125da573d5f803e3d5ffd5b505050506040513d601f19601f820116820180604052508101906125fe9190614ef0565b925050505b949350505050565b5f8073ffffffffffffffffffffffffffffffffffffffff861661eeee146126325785612654565b7f00000000000000000000000042000000000000000000000000000000000000065b90505f61265f6121bd565b905073ffffffffffffffffffffffffffffffffffffffff871661eeee1480156126a557507f00000000000000000000000000000000000000000000000000000000000000015b806126db57508073ffffffffffffffffffffffffffffffffffffffff168273ffffffffffffffffffffffffffffffffffffffff16145b156126ea5785925050506128c1565b5f806126fa87878c878c88612da9565b915091505f61273b8a8a858773ffffffffffffffffffffffffffffffffffffffff168973ffffffffffffffffffffffffffffffffffffffff16108f8761314d565b6040517f70a082310000000000000000000000000000000000000000000000000000000081523060048201529091505f9073ffffffffffffffffffffffffffffffffffffffff8716906370a0823190602401602060405180830381865afa1580156127a8573d5f803e3d5ffd5b505050506040513d601f19601f820116820180604052508101906127cc9190614ef0565b905080156128b9577fffffffffffffffffffffffffffffffffffffffffffffffffffffffffffff111273ffffffffffffffffffffffffffffffffffffffff8c16016128ad576040517f2e1a7d4d000000000000000000000000000000000000000000000000000000008152600481018290527f000000000000000000000000420000000000000000000000000000000000000673ffffffffffffffffffffffffffffffffffffffff1690632e1a7d4d906024015f604051808303815f87803b158015612896575f80fd5b505af11580156128a8573d5f803e3d5ffd5b505050505b6128b930338d84612ba7565b509450505050505b95945050505050565b5f7f0000000000000000000000000000000000000000000000000000000000000001156128f8575080611843565b61291973ffffffffffffffffffffffffffffffffffffffff84168584613376565b505f9392505050565b60405173ffffffffffffffffffffffffffffffffffffffff83811660248301526044820183905261035a91859182169063a9059cbb906064015b604051602081830303815290604052915060e01b6020820180517bffffffffffffffffffffffffffffffffffffffffffffffffffffffff8381831617835250505050613423565b5f61222a6134c2565b805160208201205f903060601b18610900565b5f606060258351116129e257505060408051602081019091525f80825290612ba0565b5f836129f060046020614d5f565b81518110612a0057612a00614d72565b0160209081015160f81c91505b5f85612a1a600484614d5f565b81518110612a2a57612a2a614d72565b01602001517fff000000000000000000000000000000000000000000000000000000000000001614801590612a685750612a6560208361513f565b81105b15612b9d575f85612a7a600484614d5f565b81518110612a8a57612a8a614d72565b016020908101518784019091015160f89190911c91507fffffffff0000000000000000000000000000000000000000000000000000000080891690821603612b93575f612ad860208661513f565b612ae3600986614d5f565b101580612b30575087612af7600986614d5f565b81518110612b0757612b07614d72565b01602001517fff0000000000000000000000000000000000000000000000000000000000000016155b612b6957602088612b42600987614d5f565b81518110612b5257612b52614d72565b0160200151612b64919060f81c61513f565b612b6c565b87515b90506001612b8589612b7f60208761513f565b84613542565b965096505050505050612ba0565b5050600501612a0d565b50505b9250929050565b3073ffffffffffffffffffffffffffffffffffffffff851603612c31577fffffffffffffffffffffffffffffffffffffffffffffffffffffffffffff111273ffffffffffffffffffffffffffffffffffffffff831601612c1057612c0b8382613587565b61210d565b612c0b73ffffffffffffffffffffffffffffffffffffffff83168483612922565b6040517fdd62ed3e00000000000000000000000000000000000000000000000000000000815273ffffffffffffffffffffffffffffffffffffffff858116600483015230602483015282919084169063dd62ed3e90604401602060405180830381865afa158015612ca4573d5f803e3d5ffd5b505050506040513d601f19601f82011682018060405250810190612cc89190614ef0565b10612cef57612c0b73ffffffffffffffffffffffffffffffffffffffff8316858584613639565b6040517f36c7851600000000000000000000000000000000000000000000000000000000815273ffffffffffffffffffffffffffffffffffffffff85811660048301528481166024830152828116604483015283811660648301527f000000000000000000000000000000000022d473030f116ddee9f6b43ac78ba316906336c78516906084015f604051808303815f87803b158015612d8d575f80fd5b505af1158015612d9f573d5f803e3d5ffd5b5050505050505050565b5f84815260026020908152604080832073ffffffffffffffffffffffffffffffffffffffff808816855292528220541680612e7b575073ffffffffffffffffffffffffffffffffffffffff8085165f9081527fac33ff75c19e70fe83507db0d683fd3465c996598dc972688b7ace676c89077b60205260409020541680612e7b576040517f891773860000000000000000000000000000000000000000000000000000000081526004810187905273ffffffffffffffffffffffffffffffffffffffff86166024820152604401610245565b5f80612ef9612ebe6040518060400160405280600c81526020017f71756f7465466f725377617000000000000000000000000000000000000000008152506129ac565b8b8b8080601f0160208091040260200160405190810160405280939291908181526020018383808284375f920191909152506129bf92505050565b915091508115612f1e5780806020019051810190612f179190614ef0565b935061313f565b5f88815260046020908152604080832073ffffffffffffffffffffffffffffffffffffffff8716845290915281205490612f578561367f565b9050818163ffffffff161015612f71578063ffffffff1691505b5f808263ffffffff165f0361308b578673ffffffffffffffffffffffffffffffffffffffff16633850c7bd6040518163ffffffff1660e01b815260040160e060405180830381865afa158015612fc9573d5f803e3d5ffd5b505050506040513d601f19601f82011682018060405250810190612fed9190615167565b5050604080517f1a686502000000000000000000000000000000000000000000000000000000008152905194975073ffffffffffffffffffffffffffffffffffffffff8d169550631a686502946004808301955060209450909250908290030181865afa158015613060573d5f803e3d5ffd5b505050506040513d601f19601f8201168201806040525081019061308491906151fa565b905061309b565b61309587856138bb565b90925090505b806fffffffffffffffffffffffffffffffff165f036130c2575f9750505050505050613142565b5f6130d08b838c8f87613b6f565b90507fffffffffffffffffffffffffffffffffffffffffffffffffffffffffffffd8f08101613108575f985050505050505050613142565b613114838c8e8d613e1b565b9850612710613123828b61513f565b61312d9190615256565b613137908a615269565b985050505050505b50505b965096945050505050565b5f805f8373ffffffffffffffffffffffffffffffffffffffff1663128acb0830888b8a61319857613193600173fffd8963efd1fc6a506488495d951d5263988d2661527c565b6131a8565b6131a86401000276a360016152b0565b8a8f6040516020016131da92919091825273ffffffffffffffffffffffffffffffffffffffff16602082015260400190565b6040516020818303038152906040526040518663ffffffff1660e01b81526004016132099594939291906152dd565b60408051808303815f875af1158015613224573d5f803e3d5ffd5b505050506040513d601f19601f82011682018060405250810190613248919061532e565b91509150856132575781613259565b805b61326290615350565b9250868310156132a8576040517f371d1b7a0000000000000000000000000000000000000000000000000000000081526004810184905260248101889052604401610245565b7f00000000000000000000000000000000000000000000000000000000000000011561336a576040517f2e1a7d4d000000000000000000000000000000000000000000000000000000008152600481018490527f000000000000000000000000420000000000000000000000000000000000000673ffffffffffffffffffffffffffffffffffffffff1690632e1a7d4d906024015f604051808303815f87803b158015613353575f80fd5b505af1158015613365573d5f803e3d5ffd5b505050505b50509695505050505050565b6040517fdd62ed3e00000000000000000000000000000000000000000000000000000000815230600482015273ffffffffffffffffffffffffffffffffffffffff83811660248301525f919085169063dd62ed3e90604401602060405180830381865afa1580156133e9573d5f803e3d5ffd5b505050506040513d601f19601f8201168201806040525081019061340d9190614ef0565b905061210d848461341e8585614d5f565b613fee565b5f8060205f8451602086015f885af180613442576040513d5f823e3d81fd5b50505f513d91508115613459578060011415613473565b73ffffffffffffffffffffffffffffffffffffffff84163b155b1561210d576040517f5274afe700000000000000000000000000000000000000000000000000000000815273ffffffffffffffffffffffffffffffffffffffff85166004820152602401610245565b5f3660143373ffffffffffffffffffffffffffffffffffffffff7f000000000000000000000000c29d6995ab3b0df4650ad643adeac55e7acbb5661614801561350b5750808210155b1561353a575f3661351c8385615269565b613527928290615386565b613530916153ad565b60601c9250505090565b339250505090565b6060828203604051915060208183010160405280825250826020850101602082015f5b8481101561357d578281015182820152602001613565565b5050509392505050565b804710156135ca576040517fcf47918100000000000000000000000000000000000000000000000000000000815247600482015260248101829052604401610245565b5f808373ffffffffffffffffffffffffffffffffffffffff16836040515f6040518083038185875af1925050503d805f8114613621576040519150601f19603f3d011682016040523d82523d5f602084013e613626565b606091505b50915091508161210d5761210d816140c5565b60405173ffffffffffffffffffffffffffffffffffffffff848116602483015283811660448301526064820183905261210d9186918216906323b872dd9060840161295c565b5f805f8373ffffffffffffffffffffffffffffffffffffffff16633850c7bd6040518163ffffffff1660e01b815260040160e060405180830381865afa1580156136cb573d5f803e3d5ffd5b505050506040513d601f19601f820116820180604052508101906136ef9190615167565b5050509350935050505f8161ffff1611613765576040517f08c379a000000000000000000000000000000000000000000000000000000000815260206004820152600260248201527f4e490000000000000000000000000000000000000000000000000000000000006044820152606401610245565b5f8073ffffffffffffffffffffffffffffffffffffffff861663252c09d78461378f8760016153f5565b6137999190615410565b6040517fffffffff0000000000000000000000000000000000000000000000000000000060e084901b16815261ffff9091166004820152602401608060405180830381865afa1580156137ee573d5f803e3d5ffd5b505050506040513d601f19601f820116820180604052508101906138129190615441565b935050509150806138b0576040517f252c09d70000000000000000000000000000000000000000000000000000000081525f600482015273ffffffffffffffffffffffffffffffffffffffff87169063252c09d790602401608060405180830381865afa158015613885573d5f803e3d5ffd5b505050506040513d601f19601f820116820180604052508101906138a99190615441565b5091935050505b504203949350505050565b5f808263ffffffff165f0361392c576040517f08c379a000000000000000000000000000000000000000000000000000000000815260206004820152600260248201527f42500000000000000000000000000000000000000000000000000000000000006044820152606401610245565b6040805160028082526060820183525f9260208301908036833701905050905083815f8151811061395f5761395f614d72565b602002602001019063ffffffff16908163ffffffff16815250505f8160018151811061398d5761398d614d72565b602002602001019063ffffffff16908163ffffffff16815250505f808673ffffffffffffffffffffffffffffffffffffffff1663883bdbfd846040518263ffffffff1660e01b81526004016139e29190615499565b5f60405180830381865afa1580156139fc573d5f803e3d5ffd5b505050506040513d5f823e601f3d9081017fffffffffffffffffffffffffffffffffffffffffffffffffffffffffffffffe0168201604052613a419190810190615546565b915091505f825f81518110613a5857613a58614d72565b602002602001015183600181518110613a7357613a73614d72565b6020026020010151613a859190615603565b90505f825f81518110613a9a57613a9a614d72565b602002602001015183600181518110613ab557613ab5614d72565b6020026020010151613ac7919061527c565b9050613ad963ffffffff891683615648565b96505f8260060b128015613afe5750613af863ffffffff8916836156bb565b60060b15155b15613b115786613b0d816156dc565b9750505b5f613b3673ffffffffffffffffffffffffffffffffffffffff63ffffffff8b16615738565b9050613b6077ffffffffffffffffffffffffffffffffffffffff00000000602084901b168261577b565b96505050505050509250929050565b5f808373ffffffffffffffffffffffffffffffffffffffff168573ffffffffffffffffffffffffffffffffffffffff1610613bab578385613bae565b84845b50905073ffffffffffffffffffffffffffffffffffffffff848116908216145f613bd785614107565b90508073ffffffffffffffffffffffffffffffffffffffff165f03613c04575061271092506128c1915050565b5f613c448a613c16612710600a6157b1565b73ffffffffffffffffffffffffffffffffffffffff168b6fffffffffffffffffffffffffffffffff16614467565b90505f83613c7f57613c7a826c0100000000000000000000000073ffffffffffffffffffffffffffffffffffffffff8616614467565b613cad565b613cad8273ffffffffffffffffffffffffffffffffffffffff85166c01000000000000000000000000614467565b9050613cbc612710600f6157b1565b73ffffffffffffffffffffffffffffffffffffffff16811115613d14576064613ce861271060586157b1565b613cf291906157e7565b73ffffffffffffffffffffffffffffffffffffffff16955050505050506128c1565b613d21612710600a6157b1565b73ffffffffffffffffffffffffffffffffffffffff16811115613d4d576064613ce861271060436157b1565b617530811115613d6e57613d62600c82615256565b955050505050506128c1565b613a98811115613d8357613d62600a82615256565b612710811115613da457600f613d9a82600261513f565b613d629190615256565b611388811115613dbb576014613d9a82600361513f565b6105dc811115613dd057613d62600582615256565b6101f4811115613df057613de5600582615256565b613d629060c8614d5f565b8015613e0c57613e01600582615256565b613d62906064614d5f565b61041a955050505050506128c1565b5f80613e2686614107565b90506fffffffffffffffffffffffffffffffff73ffffffffffffffffffffffffffffffffffffffff821611613f24575f613e7673ffffffffffffffffffffffffffffffffffffffff83168061513f565b90508373ffffffffffffffffffffffffffffffffffffffff168573ffffffffffffffffffffffffffffffffffffffff1610613ee657613ee17801000000000000000000000000000000000000000000000000876fffffffffffffffffffffffffffffffff168361456e565b613f1c565b613f1c81876fffffffffffffffffffffffffffffffff16780100000000000000000000000000000000000000000000000061456e565b925050613fe5565b5f613f4f73ffffffffffffffffffffffffffffffffffffffff8316806801000000000000000061456e565b90508373ffffffffffffffffffffffffffffffffffffffff168573ffffffffffffffffffffffffffffffffffffffff1610613fb757613fb2700100000000000000000000000000000000876fffffffffffffffffffffffffffffffff168361456e565b6125fe565b6125fe81876fffffffffffffffffffffffffffffffff1670010000000000000000000000000000000061456e565b50949350505050565b6040805173ffffffffffffffffffffffffffffffffffffffff8416602482015260448082018490528251808303909101815260649091019091526020810180517bffffffffffffffffffffffffffffffffffffffffffffffffffffffff167f095ea7b30000000000000000000000000000000000000000000000000000000017905261407a8482614637565b61210d5760405173ffffffffffffffffffffffffffffffffffffffff84811660248301525f60448301526140bb91869182169063095ea7b39060640161295c565b61210d8482613423565b8051156140d55780518082602001fd5b6040517fd6bda27500000000000000000000000000000000000000000000000000000000815260040160405180910390fd5b5f805f8360020b1261411c578260020b614123565b8260020b5f035b9050620d89e8811115614162576040517f2bc80f3a00000000000000000000000000000000000000000000000000000000815260040160405180910390fd5b5f816001165f0361418457700100000000000000000000000000000000614196565b6ffffcb933bd6fad37aa2d162d1a5940015b70ffffffffffffffffffffffffffffffffff16905060028216156141ca576ffff97272373d413259a46990580e213a0260801c5b60048216156141e9576ffff2e50f5f656932ef12357cf3c7fdcc0260801c5b6008821615614208576fffe5caca7e10e4e61c3624eaa0941cd00260801c5b6010821615614227576fffcb9843d60f6159c9db58835c9266440260801c5b6020821615614246576fff973b41fa98c081472e6896dfb254c00260801c5b6040821615614265576fff2ea16466c96a3843ec78b326b528610260801c5b6080821615614284576ffe5dee046a99a2a811c461f1969c30530260801c5b6101008216156142a4576ffcbe86c7900a88aedcffc83b479aa3a40260801c5b6102008216156142c4576ff987a7253ac413176f2b074cf7815e540260801c5b6104008216156142e4576ff3392b0822b70005940c7a398e4b70f30260801c5b610800821615614304576fe7159475a2c29b7443b29c7fa6e889d90260801c5b611000821615614324576fd097f3bdfd2022b8845ad8f792aa58250260801c5b612000821615614344576fa9f746462d870fdf8a65dc1f90e061e50260801c5b614000821615614364576f70d869a156d2a1b890bb3df62baf32f70260801c5b618000821615614384576f31be135f97d08fd981231505542fcfa60260801c5b620100008216156143a5576f09aa508b5b7a84e1c677de54f3e99bc90260801c5b620200008216156143c5576e5d6af8dedb81196699c329225ee6040260801c5b620400008216156143e4576d2216e584f5fa1ea926041bedfe980260801c5b62080000821615614401576b048a170391f7dc42444e8fa20260801c5b5f8460020b131561443f57807fffffffffffffffffffffffffffffffffffffffffffffffffffffffffffffffff8161443b5761443b615229565b0490505b640100000000810615614453576001614455565b5f5b60ff16602082901c0192505050919050565b5f80807fffffffffffffffffffffffffffffffffffffffffffffffffffffffffffffffff858709858702925082811083820303915050805f036144bd578382816144b3576144b3615229565b0492505050611843565b838110614507576040517f63a05778000000000000000000000000000000000000000000000000000000008152600481018790526024810186905260448101859052606401610245565b5f8486880960026001871981018816978890046003810283188082028403028082028403028082028403028082028403028082028403029081029092039091025f889003889004909101858311909403939093029303949094049190911702949350505050565b5f80807fffffffffffffffffffffffffffffffffffffffffffffffffffffffffffffffff858709858702925082811083820303915050805f036145c1575f84116145b6575f80fd5b508290049050611843565b8084116145cc575f80fd5b5f848688095f868103871696879004966002600389028118808a02820302808a02820302808a02820302808a02820302808a02820302808a02909103029181900381900460010186841190950394909402919094039290920491909117919091029150509392505050565b5f805f8060205f8651602088015f8a5af192503d91505f519050828015614683575081156146685780600114614683565b5f8673ffffffffffffffffffffffffffffffffffffffff163b115b9695505050505050565b5f6020828403121561469d575f80fd5b81357fffffffff0000000000000000000000000000000000000000000000000000000081168114611843575f80fd5b73ffffffffffffffffffffffffffffffffffffffff81168114611afd575f80fd5b5f805f606084860312156146ff575f80fd5b833592506020840135614711816146cc565b929592945050506040919091013590565b5f805f60608486031215614734575f80fd5b833592506020840135614746816146cc565b91506040840135614756816146cc565b809150509250925092565b5f805f60408486031215614773575f80fd5b83359250602084013567ffffffffffffffff80821115614791575f80fd5b818601915086601f8301126147a4575f80fd5b8135818111156147b2575f80fd5b8760206060830285010111156147c6575f80fd5b6020830194508093505050509250925092565b5f80604083850312156147ea575f80fd5b8235915060208301356147fc816146cc565b809150509250929050565b815173ffffffffffffffffffffffffffffffffffffffff16815260208083015160ff169082015260408083015163ffffffff169082015260608101610900565b5f60208284031215614857575f80fd5b5035919050565b602080825282518282018190525f9190848201906040850190845b818110156148d2576148bf838551805173ffffffffffffffffffffffffffffffffffffffff16825260208082015160ff169083015260409081015163ffffffff16910152565b9284019260609290920191600101614879565b50909695505050505050565b5f602082840312156148ee575f80fd5b8135611843816146cc565b8015158114611afd575f80fd5b5f8083601f840112614916575f80fd5b50813567ffffffffffffffff81111561492d575f80fd5b602083019150836020828501011115612ba0575f80fd5b5f805f805f805f8060c0898b03121561495b575f80fd5b88359750602089013561496d816146cc565b9650604089013595506060890135614984816148f9565b9450608089013567ffffffffffffffff808211156149a0575f80fd5b6149ac8c838d01614906565b909650945060a08b01359150808211156149c4575f80fd5b506149d18b828c01614906565b999c989b5096995094979396929594505050565b7f4e487b71000000000000000000000000000000000000000000000000000000005f52604160045260245ffd5b6040516060810167ffffffffffffffff81118282101715614a3557614a356149e5565b60405290565b60405160a0810167ffffffffffffffff81118282101715614a3557614a356149e5565b604051601f82017fffffffffffffffffffffffffffffffffffffffffffffffffffffffffffffffe016810167ffffffffffffffff81118282101715614aa557614aa56149e5565b604052919050565b5f67ffffffffffffffff821115614ac657614ac66149e5565b5060051b60200190565b60ff81168114611afd575f80fd5b63ffffffff81168114611afd575f80fd5b5f805f8060808587031215614b02575f80fd5b8435935060208086013567ffffffffffffffff811115614b20575f80fd5b8601601f81018813614b30575f80fd5b8035614b43614b3e82614aad565b614a5e565b8181526060918202830184019184820191908b841115614b61575f80fd5b938501935b83851015614bc45780858d031215614b7c575f80fd5b614b84614a12565b8535614b8f816146cc565b815285870135614b9e81614ad0565b81880152604086810135614bb181614ade565b9082015283529384019391850191614b66565b50979a97995050505060408601359560600135949350505050565b5f805f8060608587031215614bf2575f80fd5b8435935060208501359250604085013567ffffffffffffffff811115614c16575f80fd5b614c2287828801614906565b95989497509550505050565b5f805f805f805f805f60e08a8c031215614c46575f80fd5b8935985060208a0135614c58816146cc565b975060408a0135965060608a0135614c6f816146cc565b955060808a0135945060a08a013567ffffffffffffffff80821115614c92575f80fd5b614c9e8d838e01614906565b909650945060c08c0135915080821115614cb6575f80fd5b50614cc38c828d01614906565b915080935050809150509295985092959850929598565b5f60208284031215614cea575f80fd5b8151611843816146cc565b5f60208284031215614d05575f80fd5b815162ffffff81168114611843575f80fd5b5f60208284031215614d27575f80fd5b815161184381614ad0565b7f4e487b71000000000000000000000000000000000000000000000000000000005f52601160045260245ffd5b8082018082111561090057610900614d32565b7f4e487b71000000000000000000000000000000000000000000000000000000005f52603260045260245ffd5b5f7fffffffffffffffffffffffffffffffffffffffffffffffffffffffffffffffff8203614dcf57614dcf614d32565b5060010190565b81835281816020850137505f602082840101525f60207fffffffffffffffffffffffffffffffffffffffffffffffffffffffffffffffe0601f840116840101905092915050565b88815273ffffffffffffffffffffffffffffffffffffffff88166020820152866040820152851515606082015260c060808201525f614e6060c083018688614dd6565b82810360a0840152614e73818587614dd6565b9b9a5050505050505050505050565b8981525f73ffffffffffffffffffffffffffffffffffffffff808b16602084015289604084015280891660608401525086608083015260e060a0830152614ecd60e083018688614dd6565b82810360c0840152614ee0818587614dd6565b9c9b505050505050505050505050565b5f60208284031215614f00575f80fd5b5051919050565b5f60208284031215614f17575f80fd5b8151611843816148f9565b805165ffffffffffff81168114614f37575f80fd5b919050565b5f5b83811015614f56578181015183820152602001614f3e565b50505f910152565b5f6020808385031215614f6f575f80fd5b825167ffffffffffffffff80821115614f86575f80fd5b9084019060a08287031215614f99575f80fd5b614fa1614a3b565b8251815283830151614fb2816146cc565b81850152614fc260408401614f22565b6040820152614fd360608401614f22565b6060820152608083015182811115614fe9575f80fd5b80840193505086601f840112614ffd575f80fd5b82518281111561500f5761500f6149e5565b61503f857fffffffffffffffffffffffffffffffffffffffffffffffffffffffffffffffe0601f84011601614a5e565b92508083528785828601011115615054575f80fd5b61506381868501878701614f3c565b50608081019190915295945050505050565b5f815180845261508c816020860160208601614f3c565b601f017fffffffffffffffffffffffffffffffffffffffffffffffffffffffffffffffe0169290920160200192915050565b5f61010073ffffffffffffffffffffffffffffffffffffffff80871684528551818151166020860152816020820151166040860152604081015165ffffffffffff80821660608801528060608401511660808801525050508060208701511660a085015250604085015160c08401528060e084015261468381840185615075565b808202811582820484141761090057610900614d32565b805161ffff81168114614f37575f80fd5b5f805f805f805f60e0888a03121561517d575f80fd5b8751615188816146cc565b8097505060208801518060020b811461519f575f80fd5b95506151ad60408901615156565b94506151bb60608901615156565b93506151c960808901615156565b925060a08801516151d981614ad0565b60c08901519092506151ea816148f9565b8091505092959891949750929550565b5f6020828403121561520a575f80fd5b81516fffffffffffffffffffffffffffffffff81168114611843575f80fd5b7f4e487b71000000000000000000000000000000000000000000000000000000005f52601260045260245ffd5b5f8261526457615264615229565b500490565b8181038181111561090057610900614d32565b73ffffffffffffffffffffffffffffffffffffffff8281168282160390808211156152a9576152a9614d32565b5092915050565b73ffffffffffffffffffffffffffffffffffffffff8181168382160190808211156152a9576152a9614d32565b5f73ffffffffffffffffffffffffffffffffffffffff8088168352861515602084015285604084015280851660608401525060a0608083015261532360a0830184615075565b979650505050505050565b5f806040838503121561533f575f80fd5b505080516020909101519092909150565b5f7f8000000000000000000000000000000000000000000000000000000000000000820361538057615380614d32565b505f0390565b5f8085851115615394575f80fd5b838611156153a0575f80fd5b5050820193919092039150565b7fffffffffffffffffffffffffffffffffffffffff00000000000000000000000081358181169160148510156153ed5780818660140360031b1b83161692505b505092915050565b61ffff8181168382160190808211156152a9576152a9614d32565b5f61ffff8084168061542457615424615229565b92169190910692915050565b8051600681900b8114614f37575f80fd5b5f805f8060808587031215615454575f80fd5b845161545f81614ade565b935061546d60208601615430565b9250604085015161547d816146cc565b606086015190925061548e816148f9565b939692955090935050565b602080825282518282018190525f9190848201906040850190845b818110156148d257835163ffffffff16835292840192918401916001016154b4565b5f82601f8301126154e5575f80fd5b815160206154f5614b3e83614aad565b8083825260208201915060208460051b870101935086841115615516575f80fd5b602086015b8481101561553b57805161552e816146cc565b835291830191830161551b565b509695505050505050565b5f8060408385031215615557575f80fd5b825167ffffffffffffffff8082111561556e575f80fd5b818501915085601f830112615581575f80fd5b81516020615591614b3e83614aad565b82815260059290921b840181019181810190898411156155af575f80fd5b948201945b838610156155d4576155c586615430565b825294820194908201906155b4565b918801519196509093505050808211156155ec575f80fd5b506155f9858286016154d6565b9150509250929050565b600682810b9082900b037fffffffffffffffffffffffffffffffffffffffffffffffffff800000000000008112667fffffffffffff8213171561090057610900614d32565b5f8160060b8360060b8061565e5761565e615229565b7fffffffffffffffffffffffffffffffffffffffffffffffffffffffffffffffff81147fffffffffffffffffffffffffffffffffffffffffffffffffff80000000000000831416156156b2576156b2614d32565b90059392505050565b5f8260060b806156cd576156cd615229565b808360060b0791505092915050565b5f8160020b7fffffffffffffffffffffffffffffffffffffffffffffffffffffffffff800000810361571057615710614d32565b7fffffffffffffffffffffffffffffffffffffffffffffffffffffffffffffffff0192915050565b77ffffffffffffffffffffffffffffffffffffffffffffffff82811682821681810283169291811582850482141761577257615772614d32565b50505092915050565b5f77ffffffffffffffffffffffffffffffffffffffffffffffff808416806157a5576157a5615229565b92169190910492915050565b73ffffffffffffffffffffffffffffffffffffffff82811682821681810283169291811582850482141761577257615772614d32565b5f73ffffffffffffffffffffffffffffffffffffffff808416806157a5576157a561522956fea26469706673582212203fd5ba5314a48a514b04ba932e1eb1c64e171f0599300ba44baf1e071c89e1dd64736f6c63430008170033",
	"gitCommit": "9bac2aac5daca5cf136b964de9a6ce20c75e9516",
	"history": []
}