{
	"_format": "sphinx-sol-ct-artifact-1",
	"merkleRoot": "0xc6de7b1379cbaffd86703ff9d54a93db62837ece004c72bd07da4ac4676b2da7",
	"contractName": "JBSwapTerminal",
	"address": "0x8C7c25687eAdeaA79C729d5bdd1c067094576FEc",
	"abi": [
		{
			"type": "constructor",
			"inputs": [
				{
					"name": "projects",
					"type": "address",
					"internalType": "contract IJBProjects"
				},
				{
					"name": "permissions",
					"type": "address",
					"internalType": "contract IJBPermissions"
				},
				{
					"name": "directory",
					"type": "address",
					"internalType": "contract IJBDirectory"
				},
				{
					"name": "permit2",
					"type": "address",
					"internalType": "contract IPermit2"
				},
				{
					"name": "owner",
					"type": "address",
					"internalType": "address"
				},
				{
					"name": "weth",
					"type": "address",
					"internalType": "contract IWETH9"
				},
				{
					"name": "tokenOut",
					"type": "address",
					"internalType": "address"
				}
			],
			"stateMutability": "nonpayable"
		},
		{
			"type": "receive",
			"stateMutability": "payable"
		},
		{
			"type": "function",
			"name": "DEFAULT_PROJECT_ID",
			"inputs": [],
			"outputs": [
				{
					"name": "",
					"type": "uint256",
					"internalType": "uint256"
				}
			],
			"stateMutability": "view"
		},
		{
			"type": "function",
			"name": "DIRECTORY",
			"inputs": [],
			"outputs": [
				{
					"name": "",
					"type": "address",
					"internalType": "contract IJBDirectory"
				}
			],
			"stateMutability": "view"
		},
		{
			"type": "function",
			"name": "PERMISSIONS",
			"inputs": [],
			"outputs": [
				{
					"name": "",
					"type": "address",
					"internalType": "contract IJBPermissions"
				}
			],
			"stateMutability": "view"
		},
		{
			"type": "function",
			"name": "PERMIT2",
			"inputs": [],
			"outputs": [
				{
					"name": "",
					"type": "address",
					"internalType": "contract IPermit2"
				}
			],
			"stateMutability": "view"
		},
		{
			"type": "function",
			"name": "PROJECTS",
			"inputs": [],
			"outputs": [
				{
					"name": "",
					"type": "address",
					"internalType": "contract IJBProjects"
				}
			],
			"stateMutability": "view"
		},
		{
			"type": "function",
			"name": "SLIPPAGE_DENOMINATOR",
			"inputs": [],
			"outputs": [
				{
					"name": "",
					"type": "uint160",
					"internalType": "uint160"
				}
			],
			"stateMutability": "view"
		},
		{
			"type": "function",
			"name": "TOKEN_OUT",
			"inputs": [],
			"outputs": [
				{
					"name": "",
					"type": "address",
					"internalType": "address"
				}
			],
			"stateMutability": "view"
		},
		{
			"type": "function",
			"name": "WETH",
			"inputs": [],
			"outputs": [
				{
					"name": "",
					"type": "address",
					"internalType": "contract IWETH9"
				}
			],
			"stateMutability": "view"
		},
		{
			"type": "function",
			"name": "accountingContextForTokenOf",
			"inputs": [
				{
					"name": "projectId",
					"type": "uint256",
					"internalType": "uint256"
				},
				{
					"name": "token",
					"type": "address",
					"internalType": "address"
				}
			],
			"outputs": [
				{
					"name": "",
					"type": "tuple",
					"internalType": "struct JBAccountingContext",
					"components": [
						{
							"name": "token",
							"type": "address",
							"internalType": "address"
						},
						{
							"name": "decimals",
							"type": "uint8",
							"internalType": "uint8"
						},
						{
							"name": "currency",
							"type": "uint32",
							"internalType": "uint32"
						}
					]
				}
			],
			"stateMutability": "view"
		},
		{
			"type": "function",
			"name": "accountingContextsOf",
			"inputs": [
				{
					"name": "projectId",
					"type": "uint256",
					"internalType": "uint256"
				}
			],
			"outputs": [
				{
					"name": "",
					"type": "tuple[]",
					"internalType": "struct JBAccountingContext[]",
					"components": [
						{
							"name": "token",
							"type": "address",
							"internalType": "address"
						},
						{
							"name": "decimals",
							"type": "uint8",
							"internalType": "uint8"
						},
						{
							"name": "currency",
							"type": "uint32",
							"internalType": "uint32"
						}
					]
				}
			],
			"stateMutability": "view"
		},
		{
			"type": "function",
			"name": "addAccountingContextsFor",
			"inputs": [
				{
					"name": "projectId",
					"type": "uint256",
					"internalType": "uint256"
				},
				{
					"name": "tokens",
					"type": "address[]",
					"internalType": "address[]"
				}
			],
			"outputs": [],
			"stateMutability": "nonpayable"
		},
		{
			"type": "function",
			"name": "addDefaultPool",
			"inputs": [
				{
					"name": "projectId",
					"type": "uint256",
					"internalType": "uint256"
				},
				{
					"name": "token",
					"type": "address",
					"internalType": "address"
				},
				{
					"name": "pool",
					"type": "address",
					"internalType": "contract IUniswapV3Pool"
				}
			],
			"outputs": [],
			"stateMutability": "nonpayable"
		},
		{
			"type": "function",
			"name": "addToBalanceOf",
			"inputs": [
				{
					"name": "projectId",
					"type": "uint256",
					"internalType": "uint256"
				},
				{
					"name": "token",
					"type": "address",
					"internalType": "address"
				},
				{
					"name": "amount",
					"type": "uint256",
					"internalType": "uint256"
				},
				{
					"name": "shouldReturnHeldFees",
					"type": "bool",
					"internalType": "bool"
				},
				{
					"name": "memo",
					"type": "string",
					"internalType": "string"
				},
				{
					"name": "metadata",
					"type": "bytes",
					"internalType": "bytes"
				}
			],
			"outputs": [],
			"stateMutability": "payable"
		},
		{
			"type": "function",
			"name": "addTwapParamsFor",
			"inputs": [
				{
					"name": "projectId",
					"type": "uint256",
					"internalType": "uint256"
				},
				{
					"name": "pool",
					"type": "address",
					"internalType": "contract IUniswapV3Pool"
				},
				{
					"name": "secondsAgo",
					"type": "uint32",
					"internalType": "uint32"
				},
				{
					"name": "slippageTolerance",
					"type": "uint160",
					"internalType": "uint160"
				}
			],
			"outputs": [],
			"stateMutability": "nonpayable"
		},
		{
			"type": "function",
			"name": "currentSurplusOf",
			"inputs": [
				{
					"name": "projectId",
					"type": "uint256",
					"internalType": "uint256"
				},
				{
					"name": "decimals",
					"type": "uint256",
					"internalType": "uint256"
				},
				{
					"name": "currency",
					"type": "uint256",
					"internalType": "uint256"
				}
			],
			"outputs": [
				{
					"name": "",
					"type": "uint256",
					"internalType": "uint256"
				}
			],
			"stateMutability": "view"
		},
		{
			"type": "function",
			"name": "getPoolFor",
			"inputs": [
				{
					"name": "projectId",
					"type": "uint256",
					"internalType": "uint256"
				},
				{
					"name": "tokenIn",
					"type": "address",
					"internalType": "address"
				}
			],
			"outputs": [
				{
					"name": "pool",
					"type": "address",
					"internalType": "contract IUniswapV3Pool"
				},
				{
					"name": "zeroForOne",
					"type": "bool",
					"internalType": "bool"
				}
			],
			"stateMutability": "view"
		},
		{
			"type": "function",
			"name": "migrateBalanceOf",
			"inputs": [
				{
					"name": "projectId",
					"type": "uint256",
					"internalType": "uint256"
				},
				{
					"name": "token",
					"type": "address",
					"internalType": "address"
				},
				{
					"name": "to",
					"type": "address",
					"internalType": "contract IJBTerminal"
				}
			],
			"outputs": [
				{
					"name": "balance",
					"type": "uint256",
					"internalType": "uint256"
				}
			],
			"stateMutability": "nonpayable"
		},
		{
			"type": "function",
			"name": "owner",
			"inputs": [],
			"outputs": [
				{
					"name": "",
					"type": "address",
					"internalType": "address"
				}
			],
			"stateMutability": "view"
		},
		{
			"type": "function",
			"name": "pay",
			"inputs": [
				{
					"name": "projectId",
					"type": "uint256",
					"internalType": "uint256"
				},
				{
					"name": "token",
					"type": "address",
					"internalType": "address"
				},
				{
					"name": "amount",
					"type": "uint256",
					"internalType": "uint256"
				},
				{
					"name": "beneficiary",
					"type": "address",
					"internalType": "address"
				},
				{
					"name": "minReturnedTokens",
					"type": "uint256",
					"internalType": "uint256"
				},
				{
					"name": "memo",
					"type": "string",
					"internalType": "string"
				},
				{
					"name": "metadata",
					"type": "bytes",
					"internalType": "bytes"
				}
			],
			"outputs": [
				{
					"name": "",
					"type": "uint256",
					"internalType": "uint256"
				}
			],
			"stateMutability": "payable"
		},
		{
			"type": "function",
			"name": "renounceOwnership",
			"inputs": [],
			"outputs": [],
			"stateMutability": "nonpayable"
		},
		{
			"type": "function",
			"name": "supportsInterface",
			"inputs": [
				{
					"name": "interfaceId",
					"type": "bytes4",
					"internalType": "bytes4"
				}
			],
			"outputs": [
				{
					"name": "",
					"type": "bool",
					"internalType": "bool"
				}
			],
			"stateMutability": "view"
		},
		{
			"type": "function",
			"name": "transferOwnership",
			"inputs": [
				{
					"name": "newOwner",
					"type": "address",
					"internalType": "address"
				}
			],
			"outputs": [],
			"stateMutability": "nonpayable"
		},
		{
			"type": "function",
			"name": "twapParamsOf",
			"inputs": [
				{
					"name": "projectId",
					"type": "uint256",
					"internalType": "uint256"
				},
				{
					"name": "pool",
					"type": "address",
					"internalType": "contract IUniswapV3Pool"
				}
			],
			"outputs": [
				{
					"name": "secondsAgo",
					"type": "uint32",
					"internalType": "uint32"
				},
				{
					"name": "slippageTolerance",
					"type": "uint160",
					"internalType": "uint160"
				}
			],
			"stateMutability": "view"
		},
		{
			"type": "function",
			"name": "uniswapV3SwapCallback",
			"inputs": [
				{
					"name": "amount0Delta",
					"type": "int256",
					"internalType": "int256"
				},
				{
					"name": "amount1Delta",
					"type": "int256",
					"internalType": "int256"
				},
				{
					"name": "data",
					"type": "bytes",
					"internalType": "bytes"
				}
			],
			"outputs": [],
			"stateMutability": "nonpayable"
		},
		{
			"type": "event",
			"name": "AddToBalance",
			"inputs": [
				{
					"name": "projectId",
					"type": "uint256",
					"indexed": true,
					"internalType": "uint256"
				},
				{
					"name": "amount",
					"type": "uint256",
					"indexed": false,
					"internalType": "uint256"
				},
				{
					"name": "unlockedFees",
					"type": "uint256",
					"indexed": false,
					"internalType": "uint256"
				},
				{
					"name": "memo",
					"type": "string",
					"indexed": false,
					"internalType": "string"
				},
				{
					"name": "metadata",
					"type": "bytes",
					"indexed": false,
					"internalType": "bytes"
				},
				{
					"name": "caller",
					"type": "address",
					"indexed": false,
					"internalType": "address"
				}
			],
			"anonymous": false
		},
		{
			"type": "event",
			"name": "HookAfterRecordPay",
			"inputs": [
				{
					"name": "hook",
					"type": "address",
					"indexed": true,
					"internalType": "contract IJBPayHook"
				},
				{
					"name": "context",
					"type": "tuple",
					"indexed": false,
					"internalType": "struct JBAfterPayRecordedContext",
					"components": [
						{
							"name": "payer",
							"type": "address",
							"internalType": "address"
						},
						{
							"name": "projectId",
							"type": "uint256",
							"internalType": "uint256"
						},
						{
							"name": "rulesetId",
							"type": "uint256",
							"internalType": "uint256"
						},
						{
							"name": "amount",
							"type": "tuple",
							"internalType": "struct JBTokenAmount",
							"components": [
								{
									"name": "token",
									"type": "address",
									"internalType": "address"
								},
								{
									"name": "value",
									"type": "uint256",
									"internalType": "uint256"
								},
								{
									"name": "decimals",
									"type": "uint256",
									"internalType": "uint256"
								},
								{
									"name": "currency",
									"type": "uint256",
									"internalType": "uint256"
								}
							]
						},
						{
							"name": "forwardedAmount",
							"type": "tuple",
							"internalType": "struct JBTokenAmount",
							"components": [
								{
									"name": "token",
									"type": "address",
									"internalType": "address"
								},
								{
									"name": "value",
									"type": "uint256",
									"internalType": "uint256"
								},
								{
									"name": "decimals",
									"type": "uint256",
									"internalType": "uint256"
								},
								{
									"name": "currency",
									"type": "uint256",
									"internalType": "uint256"
								}
							]
						},
						{
							"name": "weight",
							"type": "uint256",
							"internalType": "uint256"
						},
						{
							"name": "projectTokenCount",
							"type": "uint256",
							"internalType": "uint256"
						},
						{
							"name": "beneficiary",
							"type": "address",
							"internalType": "address"
						},
						{
							"name": "hookMetadata",
							"type": "bytes",
							"internalType": "bytes"
						},
						{
							"name": "payerMetadata",
							"type": "bytes",
							"internalType": "bytes"
						}
					]
				},
				{
					"name": "specificationAmount",
					"type": "uint256",
					"indexed": false,
					"internalType": "uint256"
				},
				{
					"name": "caller",
					"type": "address",
					"indexed": false,
					"internalType": "address"
				}
			],
			"anonymous": false
		},
		{
			"type": "event",
			"name": "MigrateTerminal",
			"inputs": [
				{
					"name": "projectId",
					"type": "uint256",
					"indexed": true,
					"internalType": "uint256"
				},
				{
					"name": "token",
					"type": "address",
					"indexed": true,
					"internalType": "address"
				},
				{
					"name": "to",
					"type": "address",
					"indexed": true,
					"internalType": "contract IJBTerminal"
				},
				{
					"name": "amount",
					"type": "uint256",
					"indexed": false,
					"internalType": "uint256"
				},
				{
					"name": "caller",
					"type": "address",
					"indexed": false,
					"internalType": "address"
				}
			],
			"anonymous": false
		},
		{
			"type": "event",
			"name": "OwnershipTransferred",
			"inputs": [
				{
					"name": "previousOwner",
					"type": "address",
					"indexed": true,
					"internalType": "address"
				},
				{
					"name": "newOwner",
					"type": "address",
					"indexed": true,
					"internalType": "address"
				}
			],
			"anonymous": false
		},
		{
			"type": "event",
			"name": "Pay",
			"inputs": [
				{
					"name": "rulesetId",
					"type": "uint256",
					"indexed": true,
					"internalType": "uint256"
				},
				{
					"name": "rulesetCycleNumber",
					"type": "uint256",
					"indexed": true,
					"internalType": "uint256"
				},
				{
					"name": "projectId",
					"type": "uint256",
					"indexed": true,
					"internalType": "uint256"
				},
				{
					"name": "payer",
					"type": "address",
					"indexed": false,
					"internalType": "address"
				},
				{
					"name": "beneficiary",
					"type": "address",
					"indexed": false,
					"internalType": "address"
				},
				{
					"name": "amount",
					"type": "uint256",
					"indexed": false,
					"internalType": "uint256"
				},
				{
					"name": "beneficiaryTokenCount",
					"type": "uint256",
					"indexed": false,
					"internalType": "uint256"
				},
				{
					"name": "memo",
					"type": "string",
					"indexed": false,
					"internalType": "string"
				},
				{
					"name": "metadata",
					"type": "bytes",
					"indexed": false,
					"internalType": "bytes"
				},
				{
					"name": "caller",
					"type": "address",
					"indexed": false,
					"internalType": "address"
				}
			],
			"anonymous": false
		},
		{
			"type": "event",
			"name": "SetAccountingContext",
			"inputs": [
				{
					"name": "projectId",
					"type": "uint256",
					"indexed": true,
					"internalType": "uint256"
				},
				{
					"name": "token",
					"type": "address",
					"indexed": true,
					"internalType": "address"
				},
				{
					"name": "context",
					"type": "tuple",
					"indexed": false,
					"internalType": "struct JBAccountingContext",
					"components": [
						{
							"name": "token",
							"type": "address",
							"internalType": "address"
						},
						{
							"name": "decimals",
							"type": "uint8",
							"internalType": "uint8"
						},
						{
							"name": "currency",
							"type": "uint32",
							"internalType": "uint32"
						}
					]
				},
				{
					"name": "caller",
					"type": "address",
					"indexed": false,
					"internalType": "address"
				}
			],
			"anonymous": false
		},
		{
			"type": "error",
			"name": "AddressEmptyCode",
			"inputs": [
				{
					"name": "target",
					"type": "address",
					"internalType": "address"
				}
			]
		},
		{
			"type": "error",
			"name": "AddressInsufficientBalance",
			"inputs": [
				{
					"name": "account",
					"type": "address",
					"internalType": "address"
				}
			]
		},
		{
			"type": "error",
			"name": "FailedInnerCall",
			"inputs": []
		},
		{
			"type": "error",
			"name": "MAX_SLIPPAGE",
			"inputs": [
				{
					"name": "",
					"type": "uint256",
					"internalType": "uint256"
				},
				{
					"name": "",
					"type": "uint256",
					"internalType": "uint256"
				}
			]
		},
		{
			"type": "error",
			"name": "NO_DEFAULT_POOL_DEFINED",
			"inputs": []
		},
		{
			"type": "error",
			"name": "NO_MSG_VALUE_ALLOWED",
			"inputs": []
		},
		{
			"type": "error",
			"name": "OwnableInvalidOwner",
			"inputs": [
				{
					"name": "owner",
					"type": "address",
					"internalType": "address"
				}
			]
		},
		{
			"type": "error",
			"name": "OwnableUnauthorizedAccount",
			"inputs": [
				{
					"name": "account",
					"type": "address",
					"internalType": "address"
				}
			]
		},
		{
			"type": "error",
			"name": "PERMIT_ALLOWANCE_NOT_ENOUGH",
			"inputs": []
		},
		{
			"type": "error",
			"name": "SafeERC20FailedOperation",
			"inputs": [
				{
					"name": "token",
					"type": "address",
					"internalType": "address"
				}
			]
		},
		{
			"type": "error",
			"name": "T",
			"inputs": []
		},
		{
			"type": "error",
			"name": "TOKEN_NOT_ACCEPTED",
			"inputs": []
		},
		{
			"type": "error",
			"name": "UNAUTHORIZED",
			"inputs": []
		},
		{
			"type": "error",
			"name": "UNSUPPORTED",
			"inputs": []
		}
	],
	"solcInputHash": "bf3ea7adcb17740f74ba51590631e095",
	"args": [
		"0x0DD4C75A29147a662656535808b033abC568e33B",
		"0x4475B99b2f6F06c5048fe8c3839dFe2E5d744e65",
		"0x317E962828ddBb27576f6F0cA89Adc3cd56Ed8Cc",
		"0x000000000022D473030F116dDEE9F6B43aC78BA3",
		"0x823b92d6a4b2AED4b15675c7917c9f922ea8ADAD",
		"0x4200000000000000000000000000000000000006",
		"0x000000000000000000000000000000000000EEEe"
	],
	"bytecode": "0x6101606040523480156200001257600080fd5b5060405162003bca38038062003bca83398101604081905262000035916200011a565b6001600160a01b03808716608052839081166200006c57604051631e4fbdf760e01b81526000600482015260240160405180910390fd5b6200007781620000b1565b506001600160a01b0396871660a05293861660c05291851660e0525083166101005290911661012081905261eeee146101405250620001c5565b600080546001600160a01b038381166001600160a01b0319831681178455604051919092169283917f8be0079c531659141344cd1fd0a4f28419497f9722a3daafe3b4186f6b6457e09190a35050565b6001600160a01b03811681146200011757600080fd5b50565b600080600080600080600060e0888a0312156200013657600080fd5b8751620001438162000101565b6020890151909750620001568162000101565b6040890151909650620001698162000101565b60608901519095506200017c8162000101565b60808901519094506200018f8162000101565b60a0890151909350620001a28162000101565b60c0890151909250620001b58162000101565b8091505092959891949750929550565b60805160a05160c05160e0516101005161012051610140516138fb620002cf60003960008181610e0a01528181611216015281816113cf015281816115b101528181611b3a01526122240152600081816101eb01528181610d2601528181610e390152818161113201528181611245015281816113f50152818161179201526117c401526000818161015f015281816104d5015281816110260152818161141a0152818161150e015281816117ea0152611b740152600081816103b20152818161211f015261232f01526000818161043a01528181610d51015261115f015260008181610257015281816106650152610ef5015260008181610588015261133a01526138fb6000f3fe60806040526004361061014f5760003560e01c80638da5cb5b116100b6578063cc6801271161006f578063cc68012714610517578063e28b54111461053b578063f2fde38b14610556578063f434c91414610576578063fa461e33146105aa578063fef43257146105ca57600080fd5b80638da5cb5b1461045c57806398ea47fc1461047a5780639e6eec051461049a578063ac905114146104ad578063ad5c4648146104c3578063c361534c146104f757600080fd5b806340873cb51161010857806340873cb51461032f578063515a9293146103735780636afdd850146103a0578063715018a6146103d45780637c5e9c24146103e957806388bc2ef31461042857600080fd5b806301ffc9a7146101a45780630392ef94146101d957806324e26dc514610225578063293c4999146102455780632c1ae882146102795780633a01714f1461029c57600080fd5b3661019f57336001600160a01b037f0000000000000000000000000000000000000000000000000000000000000000161461019d57604051635e7e9adf60e11b815260040160405180910390fd5b005b600080fd5b3480156101b057600080fd5b506101c46101bf366004612bf9565b6105dd565b60405190151581526020015b60405180910390f35b3480156101e557600080fd5b5061020d7f000000000000000000000000000000000000000000000000000000000000000081565b6040516001600160a01b0390911681526020016101d0565b34801561023157600080fd5b5061019d610240366004612c38565b61062f565b34801561025157600080fd5b5061020d7f000000000000000000000000000000000000000000000000000000000000000081565b34801561028557600080fd5b5061028e600081565b6040519081526020016101d0565b3480156102a857600080fd5b506103226102b7366004612c7a565b604080516060808201835260008083526020808401829052928401819052948552600382528285206001600160a01b03948516865282529382902082519485018352549283168452600160a01b830460ff1690840152600160a81b90910463ffffffff169082015290565b6040516101d09190612caa565b34801561033b57600080fd5b5061034f61034a366004612c7a565b610871565b6040805163ffffffff90931683526001600160a01b039091166020830152016101d0565b34801561037f57600080fd5b5061039361038e366004612cdd565b6108e7565b6040516101d09190612cf6565b3480156103ac57600080fd5b5061020d7f000000000000000000000000000000000000000000000000000000000000000081565b3480156103e057600080fd5b5061019d610c66565b3480156103f557600080fd5b50610409610404366004612c7a565b610c7a565b604080516001600160a01b0390931683529015156020830152016101d0565b34801561043457600080fd5b5061020d7f000000000000000000000000000000000000000000000000000000000000000081565b34801561046857600080fd5b506000546001600160a01b031661020d565b34801561048657600080fd5b5061019d610495366004612d6a565b505050565b61019d6104a8366004612e39565b610d08565b3480156104b957600080fd5b5061020d61271081565b3480156104cf57600080fd5b5061020d7f000000000000000000000000000000000000000000000000000000000000000081565b34801561050357600080fd5b5061019d610512366004612ee1565b610ebf565b34801561052357600080fd5b5061028e610532366004612f3d565b60009392505050565b34801561054757600080fd5b5061028e610532366004612c38565b34801561056257600080fd5b5061019d610571366004612f69565b610fb5565b34801561058257600080fd5b5061020d7f000000000000000000000000000000000000000000000000000000000000000081565b3480156105b657600080fd5b5061019d6105c5366004612f86565b610ff8565b61028e6105d8366004612fd9565b611114565b60006001600160e01b03198216632f720bd160e21b148061060e57506001600160e01b031982166306afdd8560e41b145b8061062957506001600160e01b031982166301ffc9a760e01b145b92915050565b8215801561064757506000546001600160a01b031633145b6106e0576040516331a9108f60e11b8152600481018490526106e0907f00000000000000000000000000000000000000000000000000000000000000006001600160a01b031690636352211e90602401602060405180830381865afa1580156106b4573d6000803e3d6000fd5b505050506040513d601f19601f820116820180604052508101906106d8919061308d565b8460196112e2565b6040518060400160405280826001600160a01b031681526020016107026113cb565b6001600160a01b03908116858216908110909252600086815260026020908152604080832085845282529182902085518154968301511515600160a01b026001600160a81b0319909716941693909317949094179091558051606081018252828152815163313ce56760e01b815291519093848101939263313ce56792600480830193928290030181865afa15801561079f573d6000803e3d6000fd5b505050506040513d601f19601f820116820180604052508101906107c391906130aa565b60ff908116825263ffffffff80861660209384015260008781526003845260408082206001600160a01b03988916808452908652818320875181548989015199850151909616600160a81b0263ffffffff60a81b1999909716600160a01b026001600160a81b03199096169a1699909917939093179590951692909217909555948552600481529084208054600181018255908552932090920180546001600160a01b031916909117905550565b60008281526001602090815260408083206001600160a01b038516845290915281205481908082036108d757506001600160a01b03831660009081527fa6eef7e35abe7026729641147f7915573c7e97b47efa546f5f6e3230263bcb4960205260409020545b915050602081901c5b9250929050565b600081815260046020908152604080832080548251818502810185019093528083526060949383018282801561094657602002820191906000526020600020905b81546001600160a01b03168152600190910190602001808311610928575b50506000808052600460209081527f17ef568e3e12ab5b9c7254a8d58478811de00f9e6eb34345acd53bf8fd09d3ec805460408051828502810185019091528181529798509296955093509091508301828280156109cd57602002820191906000526020600020905b81546001600160a01b031681526001909101906020018083116109af575b505050505090506000815183516109e491906130e3565b67ffffffffffffffff8111156109fc576109fc6130f6565b604051908082528060200260200182016040528015610a4757816020015b6040805160608101825260008082526020808301829052928201528252600019909201910181610a1a5790505b50835190915060005b8451811015610b0157600360008881526020019081526020016000206000868381518110610a8057610a8061310c565b6020908102919091018101516001600160a01b039081168352828201939093526040918201600020825160608101845290549384168152600160a01b840460ff1691810191909152600160a81b90920463ffffffff16908201528351849083908110610aee57610aee61310c565b6020908102919091010152600101610a50565b5060005b8351811015610c4f576000805b8651811015610b7757858381518110610b2d57610b2d61310c565b60200260200101516001600160a01b0316878281518110610b5057610b5061310c565b60200260200101516001600160a01b031603610b6f5760019150610b77565b600101610b12565b5080610c46576000808052600360205285517f3617319a054d772f909f7c479a2cebe5066e836a939412e32403c99029b92eff9190879085908110610bbe57610bbe61310c565b6020908102919091018101516001600160a01b039081168352828201939093526040918201600020825160608101845290549384168152600160a01b840460ff1691810191909152600160a81b90920463ffffffff16908201528451859085908110610c2c57610c2c61310c565b60200260200101819052508280610c4290613122565b9350505b50600101610b05565b508151811015610c5d578082525b50949350505050565b610c6e61143c565b610c786000611469565b565b60008281526002602090815260408083206001600160a01b0385811685529252909120805491821691600160a01b900460ff169082610d00575050506001600160a01b0381811660009081527fac33ff75c19e70fe83507db0d683fd3465c996598dc972688b7ace676c89077b60205260409020805491821691600160a01b900460ff16905b509250929050565b604051630862026560e41b8152600481018990526001600160a01b037f0000000000000000000000000000000000000000000000000000000000000000811660248301526000917f000000000000000000000000000000000000000000000000000000000000000090911690638620265090604401602060405180830381865afa158015610d9a573d6000803e3d6000fd5b505050506040513d601f19601f82011682018060405250810190610dbe919061308d565b90506001600160a01b038116610de757604051630faa917b60e11b815260040160405180910390fd5b6000610df78a8a8a8588886114b9565b9050816001600160a01b0316639e6eec057f0000000000000000000000000000000000000000000000000000000000000000610e34576000610e36565b825b8c7f0000000000000000000000000000000000000000000000000000000000000000858c8c8c8c8c6040518a63ffffffff1660e01b8152600401610e81989796959493929190613164565b6000604051808303818588803b158015610e9a57600080fd5b505af1158015610eae573d6000803e3d6000fd5b505050505050505050505050505050565b83158015610ed757506000546001600160a01b031633145b610f70576040516331a9108f60e11b815260048101859052610f70907f00000000000000000000000000000000000000000000000000000000000000006001600160a01b031690636352211e90602401602060405180830381865afa158015610f44573d6000803e3d6000fd5b505050506040513d601f19601f82011682018060405250810190610f68919061308d565b85601a6112e2565b60009384526001602090815260408086206001600160a01b03959095168652938152929093209290911b640100000000600160c01b031663ffffffff91909116179055565b610fbd61143c565b6001600160a01b038116610fec57604051631e4fbdf760e01b8152600060048201526024015b60405180910390fd5b610ff581611469565b50565b600080611007838501856131bc565b91509150600080871261101a578661101c565b855b90508115611099577f00000000000000000000000000000000000000000000000000000000000000006001600160a01b031663d0e30db0826040518263ffffffff1660e01b81526004016000604051808303818588803b15801561107f57600080fd5b505af1158015611093573d6000803e3d6000fd5b50505050505b60405163a9059cbb60e01b8152336004820152602481018290526001600160a01b0384169063a9059cbb906044016020604051808303816000875af11580156110e6573d6000803e3d6000fd5b505050506040513d601f19601f8201168201806040525081019061110a91906131ea565b5050505050505050565b604051630862026560e41b8152600481018a90526001600160a01b037f00000000000000000000000000000000000000000000000000000000000000008116602483015260009182917f00000000000000000000000000000000000000000000000000000000000000001690638620265090604401602060405180830381865afa1580156111a6573d6000803e3d6000fd5b505050506040513d601f19601f820116820180604052508101906111ca919061308d565b90506001600160a01b0381166111f357604051630faa917b60e11b815260040160405180910390fd5b60006112038c8c8c8589896114b9565b9050816001600160a01b031663fef432577f0000000000000000000000000000000000000000000000000000000000000000611240576000611242565b825b8e7f0000000000000000000000000000000000000000000000000000000000000000858e8e8e8e8e8e6040518b63ffffffff1660e01b815260040161128f99989796959493929190613207565b60206040518083038185885af11580156112ad573d6000803e3d6000fd5b50505050506040513d601f19601f820116820180604052508101906112d2919061325b565b9c9b505050505050505050505050565b336001600160a01b03841681148015906113a75750604051631a45b42760e11b81526001600160a01b0382811660048301528581166024830152604482018590526064820184905260016084830181905260a48301527f0000000000000000000000000000000000000000000000000000000000000000169063348b684e9060c401602060405180830381865afa158015611381573d6000803e3d6000fd5b505050506040513d601f19601f820116820180604052508101906113a591906131ea565b155b156113c55760405163075fd2b160e01b815260040160405180910390fd5b50505050565b60007f000000000000000000000000000000000000000000000000000000000000000061141757507f000000000000000000000000000000000000000000000000000000000000000090565b507f000000000000000000000000000000000000000000000000000000000000000090565b6000546001600160a01b03163314610c785760405163118cdaa760e01b8152336004820152602401610fe3565b600080546001600160a01b038381166001600160a01b0319831681178455604051919092169283917f8be0079c531659141344cd1fd0a4f28419497f9722a3daafe3b4186f6b6457e09190a35050565b6040805160e081018252600060208201819052918101829052606081018290526080810182905260a0810182905260c081018290528781526001600160a01b03871661eeed1901611545576001600160a01b037f00000000000000000000000000000000000000000000000000000000000000001660408201526001606082015234608082015261155c565b6001600160a01b0387166040820152608081018690525b61156d84848a84604001518a611625565b151560c08401526001600160a01b0316602083015260a082015261159281858561184e565b608082015260006115a16113cb565b9050816060015180156115d157507f00000000000000000000000000000000000000000000000000000000000000005b806115f15750806001600160a01b031682604001516001600160a01b0316145b15611602578160800151925061160e565b61160b826119d8565b92505b611619868285611be2565b50509695505050505050565b600080600080600061169961165d6040518060400160405280600c81526020016b071756f7465466f72537761760a41b815250611c0e565b8b8b8080601f016020809104026020016040519081016040528093929190818152602001838380828437600092019190915250611c2292505050565b9150915081156116c357808060200190518101906116b79190613274565b91965094509250611841565b60008881526002602090815260408083206001600160a01b038b81168552925290912080549182169550600160a01b90910460ff1693508461176a57506001600160a01b0387811660009081527fac33ff75c19e70fe83507db0d683fd3465c996598dc972688b7ace676c89077b6020526040902080549182169550600160a01b90910460ff1693508461176a57604051632a12044160e21b815260040160405180910390fd5b6000806117778b88610871565b9150915060006117878884611dc7565b50905061180e818b8d7f00000000000000000000000000000000000000000000000000000000000000006001600160a01b031661eeee146117e8577f0000000000000000000000000000000000000000000000000000000000000000612011565b7f0000000000000000000000000000000000000000000000000000000000000000612011565b98506127106118266001600160a01b0384168b6132ac565b61183091906132d9565b61183a908a6132ed565b9850505050505b5050955095509592505050565b60408301516060840151600091901561186a57349150506119d1565b341561188957604051635e7e9adf60e11b815260040160405180910390fd5b6000806118f36118b7604051806040016040528060078152602001663832b936b4ba1960c91b815250611c0e565b87878080601f016020809104026020016040519081016040528093929190818152602001838380828437600092019190915250611c2292505050565b915091508115611953576000818060200190518101906119139190613399565b9050876080015181602001516001600160a01b03161015611947576040516317e415a160e11b815260040160405180910390fd5b611951818561211d565b505b6119633330858a60800151612212565b6040516370a0823160e01b81523060048201526001600160a01b038416906370a0823190602401602060405180830381865afa1580156119a7573d6000803e3d6000fd5b505050506040513d601f19601f820116820180604052508101906119cb919061325b565b93505050505b9392505050565b6040810151600090816119e96113cb565b6001600160a01b0316826001600160a01b031610905060008085602001516001600160a01b031663128acb083085896080015187611a4557611a40600173fffd8963efd1fc6a506488495d951d5263988d26613499565b611a55565b611a556401000276a360016134c0565b60608c810151604080516001600160a01b038e16602082015291151590820152016040516020818303038152906040526040518663ffffffff1660e01b8152600401611aa595949392919061350c565b60408051808303816000875af1158015611ac3573d6000803e3d6000fd5b505050506040513d601f19601f82011682018060405250810190611ae79190613547565b9150915082611af65781611af8565b805b611b019061356b565b94508560a00151851015611b385760a0860151604051630bb50c5d60e41b8152610fe3918791600401918252602082015260400190565b7f000000000000000000000000000000000000000000000000000000000000000015611bd957604051632e1a7d4d60e01b8152600481018690527f00000000000000000000000000000000000000000000000000000000000000006001600160a01b031690632e1a7d4d90602401600060405180830381600087803b158015611bc057600080fd5b505af1158015611bd4573d6000803e3d6000fd5b505050505b50505050919050565b61eeed196001600160a01b03831601611bfa57505050565b6104956001600160a01b0383168483612387565b805160208201206000903060601b18610629565b600060606025835111611c4757505060408051602081019091526000808252906108e0565b600083611c56600460206130e3565b81518110611c6657611c6661310c565b0160209081015160f81c91505b600085611c816004846130e3565b81518110611c9157611c9161310c565b01602001516001600160f81b03191614801590611cb75750611cb46020836132ac565b81105b15611dbe57600085611cca6004846130e3565b81518110611cda57611cda61310c565b016020908101518784019091015160f89190911c91506001600160e01b031980891690821603611db4576000611d116020866132ac565b611d1c6009866130e3565b101580611d51575087611d306009866130e3565b81518110611d4057611d4061310c565b01602001516001600160f81b031916155b611d8a57602088611d636009876130e3565b81518110611d7357611d7361310c565b0160200151611d85919060f81c6132ac565b611d8d565b87515b90506001611da689611da06020876132ac565b84612411565b9650965050505050506108e0565b5050600501611c73565b50509250929050565b6000808263ffffffff16600003611e055760405162461bcd60e51b8152602060048201526002602482015261042560f41b6044820152606401610fe3565b6040805160028082526060820183526000926020830190803683370190505090508381600081518110611e3a57611e3a61310c565b602002602001019063ffffffff16908163ffffffff1681525050600081600181518110611e6957611e6961310c565b602002602001019063ffffffff16908163ffffffff1681525050600080866001600160a01b031663883bdbfd846040518263ffffffff1660e01b8152600401611eb29190613587565b600060405180830381865afa158015611ecf573d6000803e3d6000fd5b505050506040513d6000823e601f3d908101601f19168201604052611ef79190810190613661565b91509150600082600081518110611f1057611f1061310c565b602002602001015183600181518110611f2b57611f2b61310c565b6020026020010151611f3d919061372d565b9050600082600081518110611f5457611f5461310c565b602002602001015183600181518110611f6f57611f6f61310c565b6020026020010151611f819190613499565b9050611f9363ffffffff89168361375a565b965060008260060b128015611fb95750611fb363ffffffff891683613798565b60060b15155b15611fcc5786611fc8816137ba565b9750505b6000611fe56001600160a01b0363ffffffff8b166137dd565b9050612002640100000000600160c01b03602084901b168261380f565b96505050505050509250929050565b60008061201d86612457565b90506001600160801b036001600160a01b038216116120a357600061204b6001600160a01b038316806132ac565b9050836001600160a01b0316856001600160a01b0316106120835761207e600160c01b876001600160801b03168361277a565b61209b565b61209b81876001600160801b0316600160c01b61277a565b925050610c5d565b60006120c26001600160a01b038316806801000000000000000061277a565b9050836001600160a01b0316856001600160a01b0316106120fa576120f5600160801b876001600160801b03168361277a565b612112565b61211281876001600160801b0316600160801b61277a565b979650505050505050565b7f00000000000000000000000000000000000000000000000000000000000000006001600160a01b0316632b67b5703360405180606001604052806040518060800160405280876001600160a01b0316815260200188602001516001600160a01b03168152602001886040015165ffffffffffff168152602001886060015165ffffffffffff168152508152602001306001600160a01b03168152602001866000015181525085608001516040518463ffffffff1660e01b81526004016121e693929190613835565b600060405180830381600087803b15801561220057600080fd5b505af192505050801561049557505050565b306001600160a01b0385160361226b577f00000000000000000000000000000000000000000000000000000000000000001561225757612252838261282c565b6113c5565b6122526001600160a01b03831684836128c3565b604051636eb1769f60e11b81526001600160a01b03858116600483015230602483015282919084169063dd62ed3e90604401602060405180830381865afa1580156122ba573d6000803e3d6000fd5b505050506040513d601f19601f820116820180604052508101906122de919061325b565b106122f8576122526001600160a01b038316858584612922565b604051631b63c28b60e11b81526001600160a01b0385811660048301528481166024830152828116604483015283811660648301527f000000000000000000000000000000000000000000000000000000000000000016906336c7851690608401600060405180830381600087803b15801561237357600080fd5b505af115801561110a573d6000803e3d6000fd5b604051636eb1769f60e11b81523060048201526001600160a01b0383811660248301526000919085169063dd62ed3e90604401602060405180830381865afa1580156123d7573d6000803e3d6000fd5b505050506040513d601f19601f820116820180604052508101906123fb919061325b565b90506113c5848461240c85856130e3565b61295b565b60608282036040519150602081830101604052808252508260208501016020820160005b8481101561244d578281015182820152602001612435565b5050509392505050565b60008060008360020b1261246e578260020b612476565b8260020b6000035b9050620d89e881111561249c576040516315e4079d60e11b815260040160405180910390fd5b6000816001166000036124b357600160801b6124c5565b6ffffcb933bd6fad37aa2d162d1a5940015b70ffffffffffffffffffffffffffffffffff16905060028216156124f9576ffff97272373d413259a46990580e213a0260801c5b6004821615612518576ffff2e50f5f656932ef12357cf3c7fdcc0260801c5b6008821615612537576fffe5caca7e10e4e61c3624eaa0941cd00260801c5b6010821615612556576fffcb9843d60f6159c9db58835c9266440260801c5b6020821615612575576fff973b41fa98c081472e6896dfb254c00260801c5b6040821615612594576fff2ea16466c96a3843ec78b326b528610260801c5b60808216156125b3576ffe5dee046a99a2a811c461f1969c30530260801c5b6101008216156125d3576ffcbe86c7900a88aedcffc83b479aa3a40260801c5b6102008216156125f3576ff987a7253ac413176f2b074cf7815e540260801c5b610400821615612613576ff3392b0822b70005940c7a398e4b70f30260801c5b610800821615612633576fe7159475a2c29b7443b29c7fa6e889d90260801c5b611000821615612653576fd097f3bdfd2022b8845ad8f792aa58250260801c5b612000821615612673576fa9f746462d870fdf8a65dc1f90e061e50260801c5b614000821615612693576f70d869a156d2a1b890bb3df62baf32f70260801c5b6180008216156126b3576f31be135f97d08fd981231505542fcfa60260801c5b620100008216156126d4576f09aa508b5b7a84e1c677de54f3e99bc90260801c5b620200008216156126f4576e5d6af8dedb81196699c329225ee6040260801c5b62040000821615612713576d2216e584f5fa1ea926041bedfe980260801c5b62080000821615612730576b048a170391f7dc42444e8fa20260801c5b60008460020b131561275157806000198161274d5761274d6132c3565b0490505b640100000000810615612765576001612768565b60005b60ff16602082901c0192505050919050565b60008080600019858709858702925082811083820303915050806000036127b357600084116127a857600080fd5b5082900490506119d1565b8084116127bf57600080fd5b6000848688096000868103871696879004966002600389028118808a02820302808a02820302808a02820302808a02820302808a02820302808a02909103029181900381900460010186841190950394909402919094039290920491909117919091029150509392505050565b8047101561284f5760405163cd78605960e01b8152306004820152602401610fe3565b6000826001600160a01b03168260405160006040518083038185875af1925050503d806000811461289c576040519150601f19603f3d011682016040523d82523d6000602084013e6128a1565b606091505b505090508061049557604051630a12f52160e11b815260040160405180910390fd5b6040516001600160a01b0383811660248301526044820183905261049591859182169063a9059cbb906064015b604051602081830303815290604052915060e01b6020820180516001600160e01b0383818316178352505050506129e7565b6040516001600160a01b0384811660248301528381166044830152606482018390526113c59186918216906323b872dd906084016128f0565b604080516001600160a01b038416602482015260448082018490528251808303909101815260649091019091526020810180516001600160e01b031663095ea7b360e01b1790526129ac8482612a4a565b6113c5576040516001600160a01b038481166024830152600060448301526129e191869182169063095ea7b3906064016128f0565b6113c584825b60006129fc6001600160a01b03841683612af2565b90508051600014158015612a21575080806020019051810190612a1f91906131ea565b155b1561049557604051635274afe760e01b81526001600160a01b0384166004820152602401610fe3565b6000806000846001600160a01b031684604051612a6791906138a9565b6000604051808303816000865af19150503d8060008114612aa4576040519150601f19603f3d011682016040523d82523d6000602084013e612aa9565b606091505b5091509150818015612ad3575080511580612ad3575080806020019051810190612ad391906131ea565b8015612ae957506000856001600160a01b03163b115b95945050505050565b60606119d18383600084600080856001600160a01b03168486604051612b1891906138a9565b60006040518083038185875af1925050503d8060008114612b55576040519150601f19603f3d011682016040523d82523d6000602084013e612b5a565b606091505b5091509150612b6a868383612b74565b9695505050505050565b606082612b8957612b8482612bd0565b6119d1565b8151158015612ba057506001600160a01b0384163b155b15612bc957604051639996b31560e01b81526001600160a01b0385166004820152602401610fe3565b50806119d1565b805115612be05780518082602001fd5b604051630a12f52160e11b815260040160405180910390fd5b600060208284031215612c0b57600080fd5b81356001600160e01b0319811681146119d157600080fd5b6001600160a01b0381168114610ff557600080fd5b600080600060608486031215612c4d57600080fd5b833592506020840135612c5f81612c23565b91506040840135612c6f81612c23565b809150509250925092565b60008060408385031215612c8d57600080fd5b823591506020830135612c9f81612c23565b809150509250929050565b81516001600160a01b0316815260208083015160ff169082015260408083015163ffffffff169082015260608101610629565b600060208284031215612cef57600080fd5b5035919050565b6020808252825182820181905260009190848201906040850190845b81811015612d5e57612d4b83855180516001600160a01b0316825260208082015160ff169083015260409081015163ffffffff16910152565b9284019260609290920191600101612d12565b50909695505050505050565b600080600060408486031215612d7f57600080fd5b83359250602084013567ffffffffffffffff80821115612d9e57600080fd5b818601915086601f830112612db257600080fd5b813581811115612dc157600080fd5b8760208260051b8501011115612dd657600080fd5b6020830194508093505050509250925092565b8015158114610ff557600080fd5b60008083601f840112612e0957600080fd5b50813567ffffffffffffffff811115612e2157600080fd5b6020830191508360208285010111156108e057600080fd5b60008060008060008060008060c0898b031215612e5557600080fd5b883597506020890135612e6781612c23565b9650604089013595506060890135612e7e81612de9565b9450608089013567ffffffffffffffff80821115612e9b57600080fd5b612ea78c838d01612df7565b909650945060a08b0135915080821115612ec057600080fd5b50612ecd8b828c01612df7565b999c989b5096995094979396929594505050565b60008060008060808587031215612ef757600080fd5b843593506020850135612f0981612c23565b9250604085013563ffffffff81168114612f2257600080fd5b91506060850135612f3281612c23565b939692955090935050565b600080600060608486031215612f5257600080fd5b505081359360208301359350604090920135919050565b600060208284031215612f7b57600080fd5b81356119d181612c23565b60008060008060608587031215612f9c57600080fd5b8435935060208501359250604085013567ffffffffffffffff811115612fc157600080fd5b612fcd87828801612df7565b95989497509550505050565b600080600080600080600080600060e08a8c031215612ff757600080fd5b8935985060208a013561300981612c23565b975060408a0135965060608a013561302081612c23565b955060808a0135945060a08a013567ffffffffffffffff8082111561304457600080fd5b6130508d838e01612df7565b909650945060c08c013591508082111561306957600080fd5b506130768c828d01612df7565b915080935050809150509295985092959850929598565b60006020828403121561309f57600080fd5b81516119d181612c23565b6000602082840312156130bc57600080fd5b815160ff811681146119d157600080fd5b634e487b7160e01b600052601160045260246000fd5b80820180821115610629576106296130cd565b634e487b7160e01b600052604160045260246000fd5b634e487b7160e01b600052603260045260246000fd5b600060018201613134576131346130cd565b5060010190565b81835281816020850137506000828201602090810191909152601f909101601f19169091010190565b88815260018060a01b0388166020820152866040820152851515606082015260c06080820152600061319a60c08301868861313b565b82810360a08401526131ad81858761313b565b9b9a5050505050505050505050565b600080604083850312156131cf57600080fd5b82356131da81612c23565b91506020830135612c9f81612de9565b6000602082840312156131fc57600080fd5b81516119d181612de9565b8981526001600160a01b03898116602083015260408201899052871660608201526080810186905260e060a08201819052600090613248908301868861313b565b82810360c08401526112d281858761313b565b60006020828403121561326d57600080fd5b5051919050565b60008060006060848603121561328957600080fd5b83519250602084015161329b81612c23565b6040850151909250612c6f81612de9565b8082028115828204841417610629576106296130cd565b634e487b7160e01b600052601260045260246000fd5b6000826132e8576132e86132c3565b500490565b81810381811115610629576106296130cd565b60405160a0810167ffffffffffffffff81118282101715613323576133236130f6565b60405290565b604051601f8201601f1916810167ffffffffffffffff81118282101715613352576133526130f6565b604052919050565b805165ffffffffffff8116811461337057600080fd5b919050565b60005b83811015613390578181015183820152602001613378565b50506000910152565b600060208083850312156133ac57600080fd5b825167ffffffffffffffff808211156133c457600080fd5b9084019060a082870312156133d857600080fd5b6133e0613300565b82518152838301516133f181612c23565b818501526134016040840161335a565b60408201526134126060840161335a565b606082015260808301518281111561342957600080fd5b80840193505086601f84011261343e57600080fd5b825182811115613450576134506130f6565b613462601f8201601f19168601613329565b9250808352878582860101111561347857600080fd5b61348781868501878701613375565b50608081019190915295945050505050565b6001600160a01b038281168282160390808211156134b9576134b96130cd565b5092915050565b6001600160a01b038181168382160190808211156134b9576134b96130cd565b600081518084526134f8816020860160208601613375565b601f01601f19169290920160200192915050565b6001600160a01b0386811682528515156020830152604082018590528316606082015260a060808201819052600090612112908301846134e0565b6000806040838503121561355a57600080fd5b505080516020909101519092909150565b6000600160ff1b8201613580576135806130cd565b5060000390565b6020808252825182820181905260009190848201906040850190845b81811015612d5e57835163ffffffff16835292840192918401916001016135a3565b600067ffffffffffffffff8211156135df576135df6130f6565b5060051b60200190565b600082601f8301126135fa57600080fd5b8151602061360f61360a836135c5565b613329565b8083825260208201915060208460051b87010193508684111561363157600080fd5b602086015b8481101561365657805161364981612c23565b8352918301918301613636565b509695505050505050565b6000806040838503121561367457600080fd5b825167ffffffffffffffff8082111561368c57600080fd5b818501915085601f8301126136a057600080fd5b815160206136b061360a836135c5565b82815260059290921b840181019181810190898411156136cf57600080fd5b948201945b838610156136fd5785518060060b81146136ee5760008081fd5b825294820194908201906136d4565b9188015191965090935050508082111561371657600080fd5b50613723858286016135e9565b9150509250929050565b600682810b9082900b03667fffffffffffff198112667fffffffffffff82131715610629576106296130cd565b60008160060b8360060b80613771576137716132c3565b667fffffffffffff1982146000198214161561378f5761378f6130cd565b90059392505050565b60008260060b806137ab576137ab6132c3565b808360060b0791505092915050565b60008160020b627fffff1981036137d3576137d36130cd565b6000190192915050565b6001600160c01b03828116828216818102831692918115828504821417613806576138066130cd565b50505092915050565b60006001600160c01b0383811680613829576138296132c3565b92169190910492915050565b600061010060018060a01b0380871684528551818151166020860152816020820151166040860152604081015165ffffffffffff80821660608801528060608401511660808801525050508060208701511660a085015250604085015160c08401528060e0840152612b6a818401856134e0565b600082516138bb818460208701613375565b919091019291505056fea2646970667358221220dfb1c193cf4ddbf4d03b19b71301e842cd819b15822a406ec96f82de24ac9a6c64736f6c63430008170033",
	"deployedBytecode": "0x60806040526004361061014f5760003560e01c80638da5cb5b116100b6578063cc6801271161006f578063cc68012714610517578063e28b54111461053b578063f2fde38b14610556578063f434c91414610576578063fa461e33146105aa578063fef43257146105ca57600080fd5b80638da5cb5b1461045c57806398ea47fc1461047a5780639e6eec051461049a578063ac905114146104ad578063ad5c4648146104c3578063c361534c146104f757600080fd5b806340873cb51161010857806340873cb51461032f578063515a9293146103735780636afdd850146103a0578063715018a6146103d45780637c5e9c24146103e957806388bc2ef31461042857600080fd5b806301ffc9a7146101a45780630392ef94146101d957806324e26dc514610225578063293c4999146102455780632c1ae882146102795780633a01714f1461029c57600080fd5b3661019f57336001600160a01b037f0000000000000000000000004200000000000000000000000000000000000006161461019d57604051635e7e9adf60e11b815260040160405180910390fd5b005b600080fd5b3480156101b057600080fd5b506101c46101bf366004612bf9565b6105dd565b60405190151581526020015b60405180910390f35b3480156101e557600080fd5b5061020d7f000000000000000000000000000000000000000000000000000000000000eeee81565b6040516001600160a01b0390911681526020016101d0565b34801561023157600080fd5b5061019d610240366004612c38565b61062f565b34801561025157600080fd5b5061020d7f0000000000000000000000000dd4c75a29147a662656535808b033abc568e33b81565b34801561028557600080fd5b5061028e600081565b6040519081526020016101d0565b3480156102a857600080fd5b506103226102b7366004612c7a565b604080516060808201835260008083526020808401829052928401819052948552600382528285206001600160a01b03948516865282529382902082519485018352549283168452600160a01b830460ff1690840152600160a81b90910463ffffffff169082015290565b6040516101d09190612caa565b34801561033b57600080fd5b5061034f61034a366004612c7a565b610871565b6040805163ffffffff90931683526001600160a01b039091166020830152016101d0565b34801561037f57600080fd5b5061039361038e366004612cdd565b6108e7565b6040516101d09190612cf6565b3480156103ac57600080fd5b5061020d7f000000000000000000000000000000000022d473030f116ddee9f6b43ac78ba381565b3480156103e057600080fd5b5061019d610c66565b3480156103f557600080fd5b50610409610404366004612c7a565b610c7a565b604080516001600160a01b0390931683529015156020830152016101d0565b34801561043457600080fd5b5061020d7f000000000000000000000000317e962828ddbb27576f6f0ca89adc3cd56ed8cc81565b34801561046857600080fd5b506000546001600160a01b031661020d565b34801561048657600080fd5b5061019d610495366004612d6a565b505050565b61019d6104a8366004612e39565b610d08565b3480156104b957600080fd5b5061020d61271081565b3480156104cf57600080fd5b5061020d7f000000000000000000000000420000000000000000000000000000000000000681565b34801561050357600080fd5b5061019d610512366004612ee1565b610ebf565b34801561052357600080fd5b5061028e610532366004612f3d565b60009392505050565b34801561054757600080fd5b5061028e610532366004612c38565b34801561056257600080fd5b5061019d610571366004612f69565b610fb5565b34801561058257600080fd5b5061020d7f0000000000000000000000004475b99b2f6f06c5048fe8c3839dfe2e5d744e6581565b3480156105b657600080fd5b5061019d6105c5366004612f86565b610ff8565b61028e6105d8366004612fd9565b611114565b60006001600160e01b03198216632f720bd160e21b148061060e57506001600160e01b031982166306afdd8560e41b145b8061062957506001600160e01b031982166301ffc9a760e01b145b92915050565b8215801561064757506000546001600160a01b031633145b6106e0576040516331a9108f60e11b8152600481018490526106e0907f0000000000000000000000000dd4c75a29147a662656535808b033abc568e33b6001600160a01b031690636352211e90602401602060405180830381865afa1580156106b4573d6000803e3d6000fd5b505050506040513d601f19601f820116820180604052508101906106d8919061308d565b8460196112e2565b6040518060400160405280826001600160a01b031681526020016107026113cb565b6001600160a01b03908116858216908110909252600086815260026020908152604080832085845282529182902085518154968301511515600160a01b026001600160a81b0319909716941693909317949094179091558051606081018252828152815163313ce56760e01b815291519093848101939263313ce56792600480830193928290030181865afa15801561079f573d6000803e3d6000fd5b505050506040513d601f19601f820116820180604052508101906107c391906130aa565b60ff908116825263ffffffff80861660209384015260008781526003845260408082206001600160a01b03988916808452908652818320875181548989015199850151909616600160a81b0263ffffffff60a81b1999909716600160a01b026001600160a81b03199096169a1699909917939093179590951692909217909555948552600481529084208054600181018255908552932090920180546001600160a01b031916909117905550565b60008281526001602090815260408083206001600160a01b038516845290915281205481908082036108d757506001600160a01b03831660009081527fa6eef7e35abe7026729641147f7915573c7e97b47efa546f5f6e3230263bcb4960205260409020545b915050602081901c5b9250929050565b600081815260046020908152604080832080548251818502810185019093528083526060949383018282801561094657602002820191906000526020600020905b81546001600160a01b03168152600190910190602001808311610928575b50506000808052600460209081527f17ef568e3e12ab5b9c7254a8d58478811de00f9e6eb34345acd53bf8fd09d3ec805460408051828502810185019091528181529798509296955093509091508301828280156109cd57602002820191906000526020600020905b81546001600160a01b031681526001909101906020018083116109af575b505050505090506000815183516109e491906130e3565b67ffffffffffffffff8111156109fc576109fc6130f6565b604051908082528060200260200182016040528015610a4757816020015b6040805160608101825260008082526020808301829052928201528252600019909201910181610a1a5790505b50835190915060005b8451811015610b0157600360008881526020019081526020016000206000868381518110610a8057610a8061310c565b6020908102919091018101516001600160a01b039081168352828201939093526040918201600020825160608101845290549384168152600160a01b840460ff1691810191909152600160a81b90920463ffffffff16908201528351849083908110610aee57610aee61310c565b6020908102919091010152600101610a50565b5060005b8351811015610c4f576000805b8651811015610b7757858381518110610b2d57610b2d61310c565b60200260200101516001600160a01b0316878281518110610b5057610b5061310c565b60200260200101516001600160a01b031603610b6f5760019150610b77565b600101610b12565b5080610c46576000808052600360205285517f3617319a054d772f909f7c479a2cebe5066e836a939412e32403c99029b92eff9190879085908110610bbe57610bbe61310c565b6020908102919091018101516001600160a01b039081168352828201939093526040918201600020825160608101845290549384168152600160a01b840460ff1691810191909152600160a81b90920463ffffffff16908201528451859085908110610c2c57610c2c61310c565b60200260200101819052508280610c4290613122565b9350505b50600101610b05565b508151811015610c5d578082525b50949350505050565b610c6e61143c565b610c786000611469565b565b60008281526002602090815260408083206001600160a01b0385811685529252909120805491821691600160a01b900460ff169082610d00575050506001600160a01b0381811660009081527fac33ff75c19e70fe83507db0d683fd3465c996598dc972688b7ace676c89077b60205260409020805491821691600160a01b900460ff16905b509250929050565b604051630862026560e41b8152600481018990526001600160a01b037f000000000000000000000000000000000000000000000000000000000000eeee811660248301526000917f000000000000000000000000317e962828ddbb27576f6f0ca89adc3cd56ed8cc90911690638620265090604401602060405180830381865afa158015610d9a573d6000803e3d6000fd5b505050506040513d601f19601f82011682018060405250810190610dbe919061308d565b90506001600160a01b038116610de757604051630faa917b60e11b815260040160405180910390fd5b6000610df78a8a8a8588886114b9565b9050816001600160a01b0316639e6eec057f0000000000000000000000000000000000000000000000000000000000000001610e34576000610e36565b825b8c7f000000000000000000000000000000000000000000000000000000000000eeee858c8c8c8c8c6040518a63ffffffff1660e01b8152600401610e81989796959493929190613164565b6000604051808303818588803b158015610e9a57600080fd5b505af1158015610eae573d6000803e3d6000fd5b505050505050505050505050505050565b83158015610ed757506000546001600160a01b031633145b610f70576040516331a9108f60e11b815260048101859052610f70907f0000000000000000000000000dd4c75a29147a662656535808b033abc568e33b6001600160a01b031690636352211e90602401602060405180830381865afa158015610f44573d6000803e3d6000fd5b505050506040513d601f19601f82011682018060405250810190610f68919061308d565b85601a6112e2565b60009384526001602090815260408086206001600160a01b03959095168652938152929093209290911b640100000000600160c01b031663ffffffff91909116179055565b610fbd61143c565b6001600160a01b038116610fec57604051631e4fbdf760e01b8152600060048201526024015b60405180910390fd5b610ff581611469565b50565b600080611007838501856131bc565b91509150600080871261101a578661101c565b855b90508115611099577f00000000000000000000000042000000000000000000000000000000000000066001600160a01b031663d0e30db0826040518263ffffffff1660e01b81526004016000604051808303818588803b15801561107f57600080fd5b505af1158015611093573d6000803e3d6000fd5b50505050505b60405163a9059cbb60e01b8152336004820152602481018290526001600160a01b0384169063a9059cbb906044016020604051808303816000875af11580156110e6573d6000803e3d6000fd5b505050506040513d601f19601f8201168201806040525081019061110a91906131ea565b5050505050505050565b604051630862026560e41b8152600481018a90526001600160a01b037f000000000000000000000000000000000000000000000000000000000000eeee8116602483015260009182917f000000000000000000000000317e962828ddbb27576f6f0ca89adc3cd56ed8cc1690638620265090604401602060405180830381865afa1580156111a6573d6000803e3d6000fd5b505050506040513d601f19601f820116820180604052508101906111ca919061308d565b90506001600160a01b0381166111f357604051630faa917b60e11b815260040160405180910390fd5b60006112038c8c8c8589896114b9565b9050816001600160a01b031663fef432577f0000000000000000000000000000000000000000000000000000000000000001611240576000611242565b825b8e7f000000000000000000000000000000000000000000000000000000000000eeee858e8e8e8e8e8e6040518b63ffffffff1660e01b815260040161128f99989796959493929190613207565b60206040518083038185885af11580156112ad573d6000803e3d6000fd5b50505050506040513d601f19601f820116820180604052508101906112d2919061325b565b9c9b505050505050505050505050565b336001600160a01b03841681148015906113a75750604051631a45b42760e11b81526001600160a01b0382811660048301528581166024830152604482018590526064820184905260016084830181905260a48301527f0000000000000000000000004475b99b2f6f06c5048fe8c3839dfe2e5d744e65169063348b684e9060c401602060405180830381865afa158015611381573d6000803e3d6000fd5b505050506040513d601f19601f820116820180604052508101906113a591906131ea565b155b156113c55760405163075fd2b160e01b815260040160405180910390fd5b50505050565b60007f000000000000000000000000000000000000000000000000000000000000000161141757507f000000000000000000000000000000000000000000000000000000000000eeee90565b507f000000000000000000000000420000000000000000000000000000000000000690565b6000546001600160a01b03163314610c785760405163118cdaa760e01b8152336004820152602401610fe3565b600080546001600160a01b038381166001600160a01b0319831681178455604051919092169283917f8be0079c531659141344cd1fd0a4f28419497f9722a3daafe3b4186f6b6457e09190a35050565b6040805160e081018252600060208201819052918101829052606081018290526080810182905260a0810182905260c081018290528781526001600160a01b03871661eeed1901611545576001600160a01b037f00000000000000000000000042000000000000000000000000000000000000061660408201526001606082015234608082015261155c565b6001600160a01b0387166040820152608081018690525b61156d84848a84604001518a611625565b151560c08401526001600160a01b0316602083015260a082015261159281858561184e565b608082015260006115a16113cb565b9050816060015180156115d157507f00000000000000000000000000000000000000000000000000000000000000015b806115f15750806001600160a01b031682604001516001600160a01b0316145b15611602578160800151925061160e565b61160b826119d8565b92505b611619868285611be2565b50509695505050505050565b600080600080600061169961165d6040518060400160405280600c81526020016b071756f7465466f72537761760a41b815250611c0e565b8b8b8080601f016020809104026020016040519081016040528093929190818152602001838380828437600092019190915250611c2292505050565b9150915081156116c357808060200190518101906116b79190613274565b91965094509250611841565b60008881526002602090815260408083206001600160a01b038b81168552925290912080549182169550600160a01b90910460ff1693508461176a57506001600160a01b0387811660009081527fac33ff75c19e70fe83507db0d683fd3465c996598dc972688b7ace676c89077b6020526040902080549182169550600160a01b90910460ff1693508461176a57604051632a12044160e21b815260040160405180910390fd5b6000806117778b88610871565b9150915060006117878884611dc7565b50905061180e818b8d7f000000000000000000000000000000000000000000000000000000000000eeee6001600160a01b031661eeee146117e8577f000000000000000000000000000000000000000000000000000000000000eeee612011565b7f0000000000000000000000004200000000000000000000000000000000000006612011565b98506127106118266001600160a01b0384168b6132ac565b61183091906132d9565b61183a908a6132ed565b9850505050505b5050955095509592505050565b60408301516060840151600091901561186a57349150506119d1565b341561188957604051635e7e9adf60e11b815260040160405180910390fd5b6000806118f36118b7604051806040016040528060078152602001663832b936b4ba1960c91b815250611c0e565b87878080601f016020809104026020016040519081016040528093929190818152602001838380828437600092019190915250611c2292505050565b915091508115611953576000818060200190518101906119139190613399565b9050876080015181602001516001600160a01b03161015611947576040516317e415a160e11b815260040160405180910390fd5b611951818561211d565b505b6119633330858a60800151612212565b6040516370a0823160e01b81523060048201526001600160a01b038416906370a0823190602401602060405180830381865afa1580156119a7573d6000803e3d6000fd5b505050506040513d601f19601f820116820180604052508101906119cb919061325b565b93505050505b9392505050565b6040810151600090816119e96113cb565b6001600160a01b0316826001600160a01b031610905060008085602001516001600160a01b031663128acb083085896080015187611a4557611a40600173fffd8963efd1fc6a506488495d951d5263988d26613499565b611a55565b611a556401000276a360016134c0565b60608c810151604080516001600160a01b038e16602082015291151590820152016040516020818303038152906040526040518663ffffffff1660e01b8152600401611aa595949392919061350c565b60408051808303816000875af1158015611ac3573d6000803e3d6000fd5b505050506040513d601f19601f82011682018060405250810190611ae79190613547565b9150915082611af65781611af8565b805b611b019061356b565b94508560a00151851015611b385760a0860151604051630bb50c5d60e41b8152610fe3918791600401918252602082015260400190565b7f000000000000000000000000000000000000000000000000000000000000000115611bd957604051632e1a7d4d60e01b8152600481018690527f00000000000000000000000042000000000000000000000000000000000000066001600160a01b031690632e1a7d4d90602401600060405180830381600087803b158015611bc057600080fd5b505af1158015611bd4573d6000803e3d6000fd5b505050505b50505050919050565b61eeed196001600160a01b03831601611bfa57505050565b6104956001600160a01b0383168483612387565b805160208201206000903060601b18610629565b600060606025835111611c4757505060408051602081019091526000808252906108e0565b600083611c56600460206130e3565b81518110611c6657611c6661310c565b0160209081015160f81c91505b600085611c816004846130e3565b81518110611c9157611c9161310c565b01602001516001600160f81b03191614801590611cb75750611cb46020836132ac565b81105b15611dbe57600085611cca6004846130e3565b81518110611cda57611cda61310c565b016020908101518784019091015160f89190911c91506001600160e01b031980891690821603611db4576000611d116020866132ac565b611d1c6009866130e3565b101580611d51575087611d306009866130e3565b81518110611d4057611d4061310c565b01602001516001600160f81b031916155b611d8a57602088611d636009876130e3565b81518110611d7357611d7361310c565b0160200151611d85919060f81c6132ac565b611d8d565b87515b90506001611da689611da06020876132ac565b84612411565b9650965050505050506108e0565b5050600501611c73565b50509250929050565b6000808263ffffffff16600003611e055760405162461bcd60e51b8152602060048201526002602482015261042560f41b6044820152606401610fe3565b6040805160028082526060820183526000926020830190803683370190505090508381600081518110611e3a57611e3a61310c565b602002602001019063ffffffff16908163ffffffff1681525050600081600181518110611e6957611e6961310c565b602002602001019063ffffffff16908163ffffffff1681525050600080866001600160a01b031663883bdbfd846040518263ffffffff1660e01b8152600401611eb29190613587565b600060405180830381865afa158015611ecf573d6000803e3d6000fd5b505050506040513d6000823e601f3d908101601f19168201604052611ef79190810190613661565b91509150600082600081518110611f1057611f1061310c565b602002602001015183600181518110611f2b57611f2b61310c565b6020026020010151611f3d919061372d565b9050600082600081518110611f5457611f5461310c565b602002602001015183600181518110611f6f57611f6f61310c565b6020026020010151611f819190613499565b9050611f9363ffffffff89168361375a565b965060008260060b128015611fb95750611fb363ffffffff891683613798565b60060b15155b15611fcc5786611fc8816137ba565b9750505b6000611fe56001600160a01b0363ffffffff8b166137dd565b9050612002640100000000600160c01b03602084901b168261380f565b96505050505050509250929050565b60008061201d86612457565b90506001600160801b036001600160a01b038216116120a357600061204b6001600160a01b038316806132ac565b9050836001600160a01b0316856001600160a01b0316106120835761207e600160c01b876001600160801b03168361277a565b61209b565b61209b81876001600160801b0316600160c01b61277a565b925050610c5d565b60006120c26001600160a01b038316806801000000000000000061277a565b9050836001600160a01b0316856001600160a01b0316106120fa576120f5600160801b876001600160801b03168361277a565b612112565b61211281876001600160801b0316600160801b61277a565b979650505050505050565b7f000000000000000000000000000000000022d473030f116ddee9f6b43ac78ba36001600160a01b0316632b67b5703360405180606001604052806040518060800160405280876001600160a01b0316815260200188602001516001600160a01b03168152602001886040015165ffffffffffff168152602001886060015165ffffffffffff168152508152602001306001600160a01b03168152602001866000015181525085608001516040518463ffffffff1660e01b81526004016121e693929190613835565b600060405180830381600087803b15801561220057600080fd5b505af192505050801561049557505050565b306001600160a01b0385160361226b577f00000000000000000000000000000000000000000000000000000000000000011561225757612252838261282c565b6113c5565b6122526001600160a01b03831684836128c3565b604051636eb1769f60e11b81526001600160a01b03858116600483015230602483015282919084169063dd62ed3e90604401602060405180830381865afa1580156122ba573d6000803e3d6000fd5b505050506040513d601f19601f820116820180604052508101906122de919061325b565b106122f8576122526001600160a01b038316858584612922565b604051631b63c28b60e11b81526001600160a01b0385811660048301528481166024830152828116604483015283811660648301527f000000000000000000000000000000000022d473030f116ddee9f6b43ac78ba316906336c7851690608401600060405180830381600087803b15801561237357600080fd5b505af115801561110a573d6000803e3d6000fd5b604051636eb1769f60e11b81523060048201526001600160a01b0383811660248301526000919085169063dd62ed3e90604401602060405180830381865afa1580156123d7573d6000803e3d6000fd5b505050506040513d601f19601f820116820180604052508101906123fb919061325b565b90506113c5848461240c85856130e3565b61295b565b60608282036040519150602081830101604052808252508260208501016020820160005b8481101561244d578281015182820152602001612435565b5050509392505050565b60008060008360020b1261246e578260020b612476565b8260020b6000035b9050620d89e881111561249c576040516315e4079d60e11b815260040160405180910390fd5b6000816001166000036124b357600160801b6124c5565b6ffffcb933bd6fad37aa2d162d1a5940015b70ffffffffffffffffffffffffffffffffff16905060028216156124f9576ffff97272373d413259a46990580e213a0260801c5b6004821615612518576ffff2e50f5f656932ef12357cf3c7fdcc0260801c5b6008821615612537576fffe5caca7e10e4e61c3624eaa0941cd00260801c5b6010821615612556576fffcb9843d60f6159c9db58835c9266440260801c5b6020821615612575576fff973b41fa98c081472e6896dfb254c00260801c5b6040821615612594576fff2ea16466c96a3843ec78b326b528610260801c5b60808216156125b3576ffe5dee046a99a2a811c461f1969c30530260801c5b6101008216156125d3576ffcbe86c7900a88aedcffc83b479aa3a40260801c5b6102008216156125f3576ff987a7253ac413176f2b074cf7815e540260801c5b610400821615612613576ff3392b0822b70005940c7a398e4b70f30260801c5b610800821615612633576fe7159475a2c29b7443b29c7fa6e889d90260801c5b611000821615612653576fd097f3bdfd2022b8845ad8f792aa58250260801c5b612000821615612673576fa9f746462d870fdf8a65dc1f90e061e50260801c5b614000821615612693576f70d869a156d2a1b890bb3df62baf32f70260801c5b6180008216156126b3576f31be135f97d08fd981231505542fcfa60260801c5b620100008216156126d4576f09aa508b5b7a84e1c677de54f3e99bc90260801c5b620200008216156126f4576e5d6af8dedb81196699c329225ee6040260801c5b62040000821615612713576d2216e584f5fa1ea926041bedfe980260801c5b62080000821615612730576b048a170391f7dc42444e8fa20260801c5b60008460020b131561275157806000198161274d5761274d6132c3565b0490505b640100000000810615612765576001612768565b60005b60ff16602082901c0192505050919050565b60008080600019858709858702925082811083820303915050806000036127b357600084116127a857600080fd5b5082900490506119d1565b8084116127bf57600080fd5b6000848688096000868103871696879004966002600389028118808a02820302808a02820302808a02820302808a02820302808a02820302808a02909103029181900381900460010186841190950394909402919094039290920491909117919091029150509392505050565b8047101561284f5760405163cd78605960e01b8152306004820152602401610fe3565b6000826001600160a01b03168260405160006040518083038185875af1925050503d806000811461289c576040519150601f19603f3d011682016040523d82523d6000602084013e6128a1565b606091505b505090508061049557604051630a12f52160e11b815260040160405180910390fd5b6040516001600160a01b0383811660248301526044820183905261049591859182169063a9059cbb906064015b604051602081830303815290604052915060e01b6020820180516001600160e01b0383818316178352505050506129e7565b6040516001600160a01b0384811660248301528381166044830152606482018390526113c59186918216906323b872dd906084016128f0565b604080516001600160a01b038416602482015260448082018490528251808303909101815260649091019091526020810180516001600160e01b031663095ea7b360e01b1790526129ac8482612a4a565b6113c5576040516001600160a01b038481166024830152600060448301526129e191869182169063095ea7b3906064016128f0565b6113c584825b60006129fc6001600160a01b03841683612af2565b90508051600014158015612a21575080806020019051810190612a1f91906131ea565b155b1561049557604051635274afe760e01b81526001600160a01b0384166004820152602401610fe3565b6000806000846001600160a01b031684604051612a6791906138a9565b6000604051808303816000865af19150503d8060008114612aa4576040519150601f19603f3d011682016040523d82523d6000602084013e612aa9565b606091505b5091509150818015612ad3575080511580612ad3575080806020019051810190612ad391906131ea565b8015612ae957506000856001600160a01b03163b115b95945050505050565b60606119d18383600084600080856001600160a01b03168486604051612b1891906138a9565b60006040518083038185875af1925050503d8060008114612b55576040519150601f19603f3d011682016040523d82523d6000602084013e612b5a565b606091505b5091509150612b6a868383612b74565b9695505050505050565b606082612b8957612b8482612bd0565b6119d1565b8151158015612ba057506001600160a01b0384163b155b15612bc957604051639996b31560e01b81526001600160a01b0385166004820152602401610fe3565b50806119d1565b805115612be05780518082602001fd5b604051630a12f52160e11b815260040160405180910390fd5b600060208284031215612c0b57600080fd5b81356001600160e01b0319811681146119d157600080fd5b6001600160a01b0381168114610ff557600080fd5b600080600060608486031215612c4d57600080fd5b833592506020840135612c5f81612c23565b91506040840135612c6f81612c23565b809150509250925092565b60008060408385031215612c8d57600080fd5b823591506020830135612c9f81612c23565b809150509250929050565b81516001600160a01b0316815260208083015160ff169082015260408083015163ffffffff169082015260608101610629565b600060208284031215612cef57600080fd5b5035919050565b6020808252825182820181905260009190848201906040850190845b81811015612d5e57612d4b83855180516001600160a01b0316825260208082015160ff169083015260409081015163ffffffff16910152565b9284019260609290920191600101612d12565b50909695505050505050565b600080600060408486031215612d7f57600080fd5b83359250602084013567ffffffffffffffff80821115612d9e57600080fd5b818601915086601f830112612db257600080fd5b813581811115612dc157600080fd5b8760208260051b8501011115612dd657600080fd5b6020830194508093505050509250925092565b8015158114610ff557600080fd5b60008083601f840112612e0957600080fd5b50813567ffffffffffffffff811115612e2157600080fd5b6020830191508360208285010111156108e057600080fd5b60008060008060008060008060c0898b031215612e5557600080fd5b883597506020890135612e6781612c23565b9650604089013595506060890135612e7e81612de9565b9450608089013567ffffffffffffffff80821115612e9b57600080fd5b612ea78c838d01612df7565b909650945060a08b0135915080821115612ec057600080fd5b50612ecd8b828c01612df7565b999c989b5096995094979396929594505050565b60008060008060808587031215612ef757600080fd5b843593506020850135612f0981612c23565b9250604085013563ffffffff81168114612f2257600080fd5b91506060850135612f3281612c23565b939692955090935050565b600080600060608486031215612f5257600080fd5b505081359360208301359350604090920135919050565b600060208284031215612f7b57600080fd5b81356119d181612c23565b60008060008060608587031215612f9c57600080fd5b8435935060208501359250604085013567ffffffffffffffff811115612fc157600080fd5b612fcd87828801612df7565b95989497509550505050565b600080600080600080600080600060e08a8c031215612ff757600080fd5b8935985060208a013561300981612c23565b975060408a0135965060608a013561302081612c23565b955060808a0135945060a08a013567ffffffffffffffff8082111561304457600080fd5b6130508d838e01612df7565b909650945060c08c013591508082111561306957600080fd5b506130768c828d01612df7565b915080935050809150509295985092959850929598565b60006020828403121561309f57600080fd5b81516119d181612c23565b6000602082840312156130bc57600080fd5b815160ff811681146119d157600080fd5b634e487b7160e01b600052601160045260246000fd5b80820180821115610629576106296130cd565b634e487b7160e01b600052604160045260246000fd5b634e487b7160e01b600052603260045260246000fd5b600060018201613134576131346130cd565b5060010190565b81835281816020850137506000828201602090810191909152601f909101601f19169091010190565b88815260018060a01b0388166020820152866040820152851515606082015260c06080820152600061319a60c08301868861313b565b82810360a08401526131ad81858761313b565b9b9a5050505050505050505050565b600080604083850312156131cf57600080fd5b82356131da81612c23565b91506020830135612c9f81612de9565b6000602082840312156131fc57600080fd5b81516119d181612de9565b8981526001600160a01b03898116602083015260408201899052871660608201526080810186905260e060a08201819052600090613248908301868861313b565b82810360c08401526112d281858761313b565b60006020828403121561326d57600080fd5b5051919050565b60008060006060848603121561328957600080fd5b83519250602084015161329b81612c23565b6040850151909250612c6f81612de9565b8082028115828204841417610629576106296130cd565b634e487b7160e01b600052601260045260246000fd5b6000826132e8576132e86132c3565b500490565b81810381811115610629576106296130cd565b60405160a0810167ffffffffffffffff81118282101715613323576133236130f6565b60405290565b604051601f8201601f1916810167ffffffffffffffff81118282101715613352576133526130f6565b604052919050565b805165ffffffffffff8116811461337057600080fd5b919050565b60005b83811015613390578181015183820152602001613378565b50506000910152565b600060208083850312156133ac57600080fd5b825167ffffffffffffffff808211156133c457600080fd5b9084019060a082870312156133d857600080fd5b6133e0613300565b82518152838301516133f181612c23565b818501526134016040840161335a565b60408201526134126060840161335a565b606082015260808301518281111561342957600080fd5b80840193505086601f84011261343e57600080fd5b825182811115613450576134506130f6565b613462601f8201601f19168601613329565b9250808352878582860101111561347857600080fd5b61348781868501878701613375565b50608081019190915295945050505050565b6001600160a01b038281168282160390808211156134b9576134b96130cd565b5092915050565b6001600160a01b038181168382160190808211156134b9576134b96130cd565b600081518084526134f8816020860160208601613375565b601f01601f19169290920160200192915050565b6001600160a01b0386811682528515156020830152604082018590528316606082015260a060808201819052600090612112908301846134e0565b6000806040838503121561355a57600080fd5b505080516020909101519092909150565b6000600160ff1b8201613580576135806130cd565b5060000390565b6020808252825182820181905260009190848201906040850190845b81811015612d5e57835163ffffffff16835292840192918401916001016135a3565b600067ffffffffffffffff8211156135df576135df6130f6565b5060051b60200190565b600082601f8301126135fa57600080fd5b8151602061360f61360a836135c5565b613329565b8083825260208201915060208460051b87010193508684111561363157600080fd5b602086015b8481101561365657805161364981612c23565b8352918301918301613636565b509695505050505050565b6000806040838503121561367457600080fd5b825167ffffffffffffffff8082111561368c57600080fd5b818501915085601f8301126136a057600080fd5b815160206136b061360a836135c5565b82815260059290921b840181019181810190898411156136cf57600080fd5b948201945b838610156136fd5785518060060b81146136ee5760008081fd5b825294820194908201906136d4565b9188015191965090935050508082111561371657600080fd5b50613723858286016135e9565b9150509250929050565b600682810b9082900b03667fffffffffffff198112667fffffffffffff82131715610629576106296130cd565b60008160060b8360060b80613771576137716132c3565b667fffffffffffff1982146000198214161561378f5761378f6130cd565b90059392505050565b60008260060b806137ab576137ab6132c3565b808360060b0791505092915050565b60008160020b627fffff1981036137d3576137d36130cd565b6000190192915050565b6001600160c01b03828116828216818102831692918115828504821417613806576138066130cd565b50505092915050565b60006001600160c01b0383811680613829576138296132c3565b92169190910492915050565b600061010060018060a01b0380871684528551818151166020860152816020820151166040860152604081015165ffffffffffff80821660608801528060608401511660808801525050508060208701511660a085015250604085015160c08401528060e0840152612b6a818401856134e0565b600082516138bb818460208701613375565b919091019291505056fea2646970667358221220dfb1c193cf4ddbf4d03b19b71301e842cd819b15822a406ec96f82de24ac9a6c64736f6c63430008170033",
	"devdoc": {
		"kind": "dev",
		"methods": {
			"accountingContextForTokenOf(uint256,address)": {
				"details": "Accounting contexts are set up in `addDefaultPool(...)`.",
				"params": {
					"projectId": "The ID of the project to get the accounting context for.",
					"token": "The address of the token to get the accounting context for."
				},
				"returns": {
					"_0": "A `JBAccountingContext` containing the accounting context for the project ID and token."
				}
			},
			"accountingContextsOf(uint256)": {
				"details": "This includes both project-specific and generic accounting contexts, with the project-specific contexts         taking precedence.",
				"params": {
					"projectId": "The ID of the project to get the accounting contexts for."
				},
				"returns": {
					"_0": "An array of `JBAccountingContext` containing the accounting contexts for the project ID."
				}
			},
			"addDefaultPool(uint256,address,address)": {
				"details": "This does not set the twap parameters, they *must* be set using `addTwapParamsFor` (if not, the twap duration will be 0 which will cause the swap to revert).",
				"params": {
					"pool": "The Uniswap V3 pool to set as the default for the specified token.",
					"projectId": "The ID of the project to set the default pool for. The project 0 acts as a catch-all, where non-set pools are defaulted to.",
					"token": "The address of the token to set the default pool for."
				}
			},
			"addToBalanceOf(uint256,address,uint256,bool,string,bytes)": {
				"details": "This function handles the token in transfer, potentially swaps the tokens to the desired output token, and then adds the swapped tokens to the project's balance in the specified terminal.",
				"params": {
					"amount": "The amount of tokens being paid in.",
					"memo": "A memo to pass along to the emitted event.",
					"metadata": "Bytes in `JBMetadataResolver`'s format which can contain additional data for the swap and adding to balance.",
					"projectId": "The ID of the project for which funds are being accepted and added to its balance.",
					"shouldReturnHeldFees": "A boolean to indicate whether held fees should be returned.",
					"token": "The address of the token being paid in."
				}
			},
			"addTwapParamsFor(uint256,address,uint32,uint160)": {
				"params": {
					"projectId": "The ID of the project to set the TWAP-based quote rules for.",
					"secondsAgo": "The period of time over which the TWAP is calculated, in seconds.",
					"slippageTolerance": "The maximum spread allowed between the amount received and the TWAP (as a fraction out of `SLIPPAGE_DENOMINATOR`)."
				}
			},
			"getPoolFor(uint256,address)": {
				"params": {
					"projectId": "The ID of the project to retrieve the default pool for.",
					"tokenIn": "The address of the token to retrieve the default pool for."
				},
				"returns": {
					"pool": "The default pool for the token, or the overall default pool for the token if the"
				}
			},
			"owner()": {
				"details": "Returns the address of the current owner."
			},
			"pay(uint256,address,uint256,address,uint256,string,bytes)": {
				"params": {
					"amount": "The amount of tokens being paid in, as a fixed point number with the same amount of decimals as the `token`. If `token` is the native token, `amount` is ignored and `msg.value` is used in its place.",
					"beneficiary": "The beneficiary address to pass along to the other terminal. If the other terminal mints tokens, for example, they will be minted for this address.",
					"memo": "A memo to pass along to the emitted event.",
					"metadata": "Bytes in `JBMetadataResolver`'s format which can contain a quote from the user/client. The quote should contain a minimum amount of tokens to receive from the swap and the pool to use. This metadata is also passed to the other terminal's emitted event, as well as its data hook and pay hook if applicable.",
					"minReturnedTokens": "The minimum number of project tokens expected in return, as a fixed point number with the same number of decimals as the other terminal. This value will be passed along to the other terminal.",
					"projectId": "The ID of the project being paid.",
					"token": "The address of the token being paid in."
				},
				"returns": {
					"_0": "The number of tokens received from the swap, as a fixed point number with the same amount of decimals as that token."
				}
			},
			"renounceOwnership()": {
				"details": "Leaves the contract without owner. It will not be possible to call `onlyOwner` functions. Can only be called by the current owner. NOTE: Renouncing ownership will leave the contract without an owner, thereby disabling any functionality that is only available to the owner."
			},
			"supportsInterface(bytes4)": {
				"details": "See {IERC165-supportsInterface}.",
				"params": {
					"interfaceId": "The ID of the interface to check for adherance to."
				},
				"returns": {
					"_0": "A flag indicating if the provided interface ID is supported."
				}
			},
			"transferOwnership(address)": {
				"details": "Transfers ownership of the contract to a new account (`newOwner`). Can only be called by the current owner."
			},
			"twapParamsOf(uint256,address)": {
				"params": {
					"projectId": "The ID of the project to retrieve TWAP parameters for."
				},
				"returns": {
					"secondsAgo": "The period of time in the past to calculate the TWAP from.",
					"slippageTolerance": "The maximum allowed slippage tolerance when calculating the TWAP, as a fraction out of `SLIPPAGE_DENOMINATOR`."
				}
			},
			"uniswapV3SwapCallback(int256,int256,bytes)": {
				"details": "This function has no access control, care should be taken to ensure that:      - terminal balance is always be 0 between tx (this callback can only be used to sweep accidental leftovers)      - callback cannot pull user funds via a preexisting allowance",
				"params": {
					"amount0Delta": "The amount of token 0 being used for the swap.",
					"amount1Delta": "The amount of token 1 being used for the swap.",
					"data": "Data passed in by the swap operation."
				}
			}
		},
		"version": 1
	},
	"userdoc": {
		"kind": "user",
		"methods": {
			"DEFAULT_PROJECT_ID()": {
				"notice": "The ID to store default values in."
			},
			"DIRECTORY()": {
				"notice": "The directory of terminals and controllers for `PROJECTS`."
			},
			"PERMISSIONS()": {
				"notice": "A contract storing permissions."
			},
			"PERMIT2()": {
				"notice": "The permit2 utility."
			},
			"PROJECTS()": {
				"notice": "Mints ERC-721s that represent project ownership and transfers."
			},
			"SLIPPAGE_DENOMINATOR()": {
				"notice": "The denominator used when calculating TWAP slippage tolerance values."
			},
			"TOKEN_OUT()": {
				"notice": "The token which flows out of this terminal (JBConstants.NATIVE_TOKEN for the chain native token)"
			},
			"WETH()": {
				"notice": "The ERC-20 wrapper for the native token."
			},
			"accountingContextForTokenOf(uint256,address)": {
				"notice": "Get the accounting context for the specified project ID and token."
			},
			"accountingContextsOf(uint256)": {
				"notice": "Return all the accounting contexts for a specified project ID."
			},
			"addAccountingContextsFor(uint256,address[])": {
				"notice": "Empty implementation to satisfy the interface. Accounting contexts are set in `addDefaultPool(...)`."
			},
			"addDefaultPool(uint256,address,address)": {
				"notice": "Set a project's default pool and accounting context for the specified token. Only the project's owner, an address with `MODIFY_DEFAULT_POOL` permission from the owner or the terminal owner can call this function."
			},
			"addToBalanceOf(uint256,address,uint256,bool,string,bytes)": {
				"notice": "Accepts funds for a given project, swaps them if necessary, and adds them to the project's balance in the specified terminal."
			},
			"addTwapParamsFor(uint256,address,uint32,uint160)": {
				"notice": "Set the specified project's rules for calculating a quote based on the TWAP. Only the project's owner or an address with `MODIFY_TWAP_PARAMS` permission from the owner  or the terminal owner can call this function."
			},
			"currentSurplusOf(uint256,uint256,uint256)": {
				"notice": "Empty implementation to satisfy the interface. This terminal has no surplus."
			},
			"getPoolFor(uint256,address)": {
				"notice": "Returns the default pool for a given project and token or, if a project has no default pool for the         token, the overal default pool for the token"
			},
			"migrateBalanceOf(uint256,address,address)": {
				"notice": "Empty implementation to satisfy the interface."
			},
			"pay(uint256,address,uint256,address,uint256,string,bytes)": {
				"notice": "Pay a project by swapping the incoming tokens for tokens that one of the project's other terminals accepts, passing along the funds received from the swap and the specified parameters."
			},
			"supportsInterface(bytes4)": {
				"notice": "Indicates if this contract adheres to the specified interface."
			},
			"twapParamsOf(uint256,address)": {
				"notice": "Returns the default twap parameters for a given pool project."
			},
			"uniswapV3SwapCallback(int256,int256,bytes)": {
				"notice": "The Uniswap v3 pool callback where the token transfer is expected to happen."
			}
		},
		"version": 1
	},
	"gitCommit": "1078e80f973f1479918458f593d046b60bfde9fe",
	"sourceName": "src/JBSwapTerminal.sol",
	"chainId": "84532",
	"linkReferences": {},
	"deployedLinkReferences": {},
	"history": []
}