{
	"_format": "sphinx-sol-ct-artifact-1",
	"merkleRoot": "0xc82f21533fcb470877f2bd554a85f5b0c5bb796f62fa563d461ac3768b904c8c",
	"contractName": "JBSwapTerminal",
	"address": "0xC61eEe0eE3b0A785E5B4Afb49A969408dE4D01a0",
	"abi": [
		{
			"type": "constructor",
			"inputs": [
				{
					"name": "projects",
					"type": "address",
					"internalType": "contract IJBProjects"
				},
				{
					"name": "permissions",
					"type": "address",
					"internalType": "contract IJBPermissions"
				},
				{
					"name": "directory",
					"type": "address",
					"internalType": "contract IJBDirectory"
				},
				{
					"name": "permit2",
					"type": "address",
					"internalType": "contract IPermit2"
				},
				{
					"name": "owner",
					"type": "address",
					"internalType": "address"
				},
				{
					"name": "weth",
					"type": "address",
					"internalType": "contract IWETH9"
				},
				{
					"name": "tokenOut",
					"type": "address",
					"internalType": "address"
				},
				{
					"name": "factory",
					"type": "address",
					"internalType": "contract IUniswapV3Factory"
				}
			],
			"stateMutability": "nonpayable"
		},
		{
			"type": "receive",
			"stateMutability": "payable"
		},
		{
			"type": "function",
			"name": "DEFAULT_PROJECT_ID",
			"inputs": [],
			"outputs": [
				{
					"name": "",
					"type": "uint256",
					"internalType": "uint256"
				}
			],
			"stateMutability": "view"
		},
		{
			"type": "function",
			"name": "DIRECTORY",
			"inputs": [],
			"outputs": [
				{
					"name": "",
					"type": "address",
					"internalType": "contract IJBDirectory"
				}
			],
			"stateMutability": "view"
		},
		{
			"type": "function",
			"name": "FACTORY",
			"inputs": [],
			"outputs": [
				{
					"name": "",
					"type": "address",
					"internalType": "contract IUniswapV3Factory"
				}
			],
			"stateMutability": "view"
		},
		{
			"type": "function",
			"name": "PERMISSIONS",
			"inputs": [],
			"outputs": [
				{
					"name": "",
					"type": "address",
					"internalType": "contract IJBPermissions"
				}
			],
			"stateMutability": "view"
		},
		{
			"type": "function",
			"name": "PERMIT2",
			"inputs": [],
			"outputs": [
				{
					"name": "",
					"type": "address",
					"internalType": "contract IPermit2"
				}
			],
			"stateMutability": "view"
		},
		{
			"type": "function",
			"name": "PROJECTS",
			"inputs": [],
			"outputs": [
				{
					"name": "",
					"type": "address",
					"internalType": "contract IJBProjects"
				}
			],
			"stateMutability": "view"
		},
		{
			"type": "function",
			"name": "SLIPPAGE_DENOMINATOR",
			"inputs": [],
			"outputs": [
				{
					"name": "",
					"type": "uint160",
					"internalType": "uint160"
				}
			],
			"stateMutability": "view"
		},
		{
			"type": "function",
			"name": "TOKEN_OUT",
			"inputs": [],
			"outputs": [
				{
					"name": "",
					"type": "address",
					"internalType": "address"
				}
			],
			"stateMutability": "view"
		},
		{
			"type": "function",
			"name": "WETH",
			"inputs": [],
			"outputs": [
				{
					"name": "",
					"type": "address",
					"internalType": "contract IWETH9"
				}
			],
			"stateMutability": "view"
		},
		{
			"type": "function",
			"name": "accountingContextForTokenOf",
			"inputs": [
				{
					"name": "projectId",
					"type": "uint256",
					"internalType": "uint256"
				},
				{
					"name": "token",
					"type": "address",
					"internalType": "address"
				}
			],
			"outputs": [
				{
					"name": "context",
					"type": "tuple",
					"internalType": "struct JBAccountingContext",
					"components": [
						{
							"name": "token",
							"type": "address",
							"internalType": "address"
						},
						{
							"name": "decimals",
							"type": "uint8",
							"internalType": "uint8"
						},
						{
							"name": "currency",
							"type": "uint32",
							"internalType": "uint32"
						}
					]
				}
			],
			"stateMutability": "view"
		},
		{
			"type": "function",
			"name": "accountingContextsOf",
			"inputs": [
				{
					"name": "projectId",
					"type": "uint256",
					"internalType": "uint256"
				}
			],
			"outputs": [
				{
					"name": "contexts",
					"type": "tuple[]",
					"internalType": "struct JBAccountingContext[]",
					"components": [
						{
							"name": "token",
							"type": "address",
							"internalType": "address"
						},
						{
							"name": "decimals",
							"type": "uint8",
							"internalType": "uint8"
						},
						{
							"name": "currency",
							"type": "uint32",
							"internalType": "uint32"
						}
					]
				}
			],
			"stateMutability": "view"
		},
		{
			"type": "function",
			"name": "addAccountingContextsFor",
			"inputs": [
				{
					"name": "projectId",
					"type": "uint256",
					"internalType": "uint256"
				},
				{
					"name": "accountingContexts",
					"type": "tuple[]",
					"internalType": "struct JBAccountingContext[]",
					"components": [
						{
							"name": "token",
							"type": "address",
							"internalType": "address"
						},
						{
							"name": "decimals",
							"type": "uint8",
							"internalType": "uint8"
						},
						{
							"name": "currency",
							"type": "uint32",
							"internalType": "uint32"
						}
					]
				}
			],
			"outputs": [],
			"stateMutability": "nonpayable"
		},
		{
			"type": "function",
			"name": "addDefaultPool",
			"inputs": [
				{
					"name": "projectId",
					"type": "uint256",
					"internalType": "uint256"
				},
				{
					"name": "token",
					"type": "address",
					"internalType": "address"
				},
				{
					"name": "pool",
					"type": "address",
					"internalType": "contract IUniswapV3Pool"
				}
			],
			"outputs": [],
			"stateMutability": "nonpayable"
		},
		{
			"type": "function",
			"name": "addToBalanceOf",
			"inputs": [
				{
					"name": "projectId",
					"type": "uint256",
					"internalType": "uint256"
				},
				{
					"name": "token",
					"type": "address",
					"internalType": "address"
				},
				{
					"name": "amount",
					"type": "uint256",
					"internalType": "uint256"
				},
				{
					"name": "shouldReturnHeldFees",
					"type": "bool",
					"internalType": "bool"
				},
				{
					"name": "memo",
					"type": "string",
					"internalType": "string"
				},
				{
					"name": "metadata",
					"type": "bytes",
					"internalType": "bytes"
				}
			],
			"outputs": [],
			"stateMutability": "payable"
		},
		{
			"type": "function",
			"name": "addTwapParamsFor",
			"inputs": [
				{
					"name": "projectId",
					"type": "uint256",
					"internalType": "uint256"
				},
				{
					"name": "pool",
					"type": "address",
					"internalType": "contract IUniswapV3Pool"
				},
				{
					"name": "secondsAgo",
					"type": "uint32",
					"internalType": "uint32"
				},
				{
					"name": "slippageTolerance",
					"type": "uint160",
					"internalType": "uint160"
				}
			],
			"outputs": [],
			"stateMutability": "nonpayable"
		},
		{
			"type": "function",
			"name": "currentSurplusOf",
			"inputs": [
				{
					"name": "projectId",
					"type": "uint256",
					"internalType": "uint256"
				},
				{
					"name": "decimals",
					"type": "uint256",
					"internalType": "uint256"
				},
				{
					"name": "currency",
					"type": "uint256",
					"internalType": "uint256"
				}
			],
			"outputs": [
				{
					"name": "",
					"type": "uint256",
					"internalType": "uint256"
				}
			],
			"stateMutability": "view"
		},
		{
			"type": "function",
			"name": "getPoolFor",
			"inputs": [
				{
					"name": "projectId",
					"type": "uint256",
					"internalType": "uint256"
				},
				{
					"name": "tokenIn",
					"type": "address",
					"internalType": "address"
				}
			],
			"outputs": [
				{
					"name": "pool",
					"type": "address",
					"internalType": "contract IUniswapV3Pool"
				},
				{
					"name": "zeroForOne",
					"type": "bool",
					"internalType": "bool"
				}
			],
			"stateMutability": "view"
		},
		{
			"type": "function",
			"name": "migrateBalanceOf",
			"inputs": [
				{
					"name": "projectId",
					"type": "uint256",
					"internalType": "uint256"
				},
				{
					"name": "token",
					"type": "address",
					"internalType": "address"
				},
				{
					"name": "to",
					"type": "address",
					"internalType": "contract IJBTerminal"
				}
			],
			"outputs": [
				{
					"name": "balance",
					"type": "uint256",
					"internalType": "uint256"
				}
			],
			"stateMutability": "nonpayable"
		},
		{
			"type": "function",
			"name": "owner",
			"inputs": [],
			"outputs": [
				{
					"name": "",
					"type": "address",
					"internalType": "address"
				}
			],
			"stateMutability": "view"
		},
		{
			"type": "function",
			"name": "pay",
			"inputs": [
				{
					"name": "projectId",
					"type": "uint256",
					"internalType": "uint256"
				},
				{
					"name": "token",
					"type": "address",
					"internalType": "address"
				},
				{
					"name": "amount",
					"type": "uint256",
					"internalType": "uint256"
				},
				{
					"name": "beneficiary",
					"type": "address",
					"internalType": "address"
				},
				{
					"name": "minReturnedTokens",
					"type": "uint256",
					"internalType": "uint256"
				},
				{
					"name": "memo",
					"type": "string",
					"internalType": "string"
				},
				{
					"name": "metadata",
					"type": "bytes",
					"internalType": "bytes"
				}
			],
			"outputs": [
				{
					"name": "",
					"type": "uint256",
					"internalType": "uint256"
				}
			],
			"stateMutability": "payable"
		},
		{
			"type": "function",
			"name": "renounceOwnership",
			"inputs": [],
			"outputs": [],
			"stateMutability": "nonpayable"
		},
		{
			"type": "function",
			"name": "supportsInterface",
			"inputs": [
				{
					"name": "interfaceId",
					"type": "bytes4",
					"internalType": "bytes4"
				}
			],
			"outputs": [
				{
					"name": "",
					"type": "bool",
					"internalType": "bool"
				}
			],
			"stateMutability": "view"
		},
		{
			"type": "function",
			"name": "transferOwnership",
			"inputs": [
				{
					"name": "newOwner",
					"type": "address",
					"internalType": "address"
				}
			],
			"outputs": [],
			"stateMutability": "nonpayable"
		},
		{
			"type": "function",
			"name": "twapParamsOf",
			"inputs": [
				{
					"name": "projectId",
					"type": "uint256",
					"internalType": "uint256"
				},
				{
					"name": "pool",
					"type": "address",
					"internalType": "contract IUniswapV3Pool"
				}
			],
			"outputs": [
				{
					"name": "secondsAgo",
					"type": "uint32",
					"internalType": "uint32"
				},
				{
					"name": "slippageTolerance",
					"type": "uint160",
					"internalType": "uint160"
				}
			],
			"stateMutability": "view"
		},
		{
			"type": "function",
			"name": "uniswapV3SwapCallback",
			"inputs": [
				{
					"name": "amount0Delta",
					"type": "int256",
					"internalType": "int256"
				},
				{
					"name": "amount1Delta",
					"type": "int256",
					"internalType": "int256"
				},
				{
					"name": "data",
					"type": "bytes",
					"internalType": "bytes"
				}
			],
			"outputs": [],
			"stateMutability": "nonpayable"
		},
		{
			"type": "event",
			"name": "AddToBalance",
			"inputs": [
				{
					"name": "projectId",
					"type": "uint256",
					"indexed": true,
					"internalType": "uint256"
				},
				{
					"name": "amount",
					"type": "uint256",
					"indexed": false,
					"internalType": "uint256"
				},
				{
					"name": "unlockedFees",
					"type": "uint256",
					"indexed": false,
					"internalType": "uint256"
				},
				{
					"name": "memo",
					"type": "string",
					"indexed": false,
					"internalType": "string"
				},
				{
					"name": "metadata",
					"type": "bytes",
					"indexed": false,
					"internalType": "bytes"
				},
				{
					"name": "caller",
					"type": "address",
					"indexed": false,
					"internalType": "address"
				}
			],
			"anonymous": false
		},
		{
			"type": "event",
			"name": "HookAfterRecordPay",
			"inputs": [
				{
					"name": "hook",
					"type": "address",
					"indexed": true,
					"internalType": "contract IJBPayHook"
				},
				{
					"name": "context",
					"type": "tuple",
					"indexed": false,
					"internalType": "struct JBAfterPayRecordedContext",
					"components": [
						{
							"name": "payer",
							"type": "address",
							"internalType": "address"
						},
						{
							"name": "projectId",
							"type": "uint256",
							"internalType": "uint256"
						},
						{
							"name": "rulesetId",
							"type": "uint256",
							"internalType": "uint256"
						},
						{
							"name": "amount",
							"type": "tuple",
							"internalType": "struct JBTokenAmount",
							"components": [
								{
									"name": "token",
									"type": "address",
									"internalType": "address"
								},
								{
									"name": "decimals",
									"type": "uint8",
									"internalType": "uint8"
								},
								{
									"name": "currency",
									"type": "uint32",
									"internalType": "uint32"
								},
								{
									"name": "value",
									"type": "uint256",
									"internalType": "uint256"
								}
							]
						},
						{
							"name": "forwardedAmount",
							"type": "tuple",
							"internalType": "struct JBTokenAmount",
							"components": [
								{
									"name": "token",
									"type": "address",
									"internalType": "address"
								},
								{
									"name": "decimals",
									"type": "uint8",
									"internalType": "uint8"
								},
								{
									"name": "currency",
									"type": "uint32",
									"internalType": "uint32"
								},
								{
									"name": "value",
									"type": "uint256",
									"internalType": "uint256"
								}
							]
						},
						{
							"name": "weight",
							"type": "uint256",
							"internalType": "uint256"
						},
						{
							"name": "projectTokenCount",
							"type": "uint256",
							"internalType": "uint256"
						},
						{
							"name": "beneficiary",
							"type": "address",
							"internalType": "address"
						},
						{
							"name": "hookMetadata",
							"type": "bytes",
							"internalType": "bytes"
						},
						{
							"name": "payerMetadata",
							"type": "bytes",
							"internalType": "bytes"
						}
					]
				},
				{
					"name": "specificationAmount",
					"type": "uint256",
					"indexed": false,
					"internalType": "uint256"
				},
				{
					"name": "caller",
					"type": "address",
					"indexed": false,
					"internalType": "address"
				}
			],
			"anonymous": false
		},
		{
			"type": "event",
			"name": "MigrateTerminal",
			"inputs": [
				{
					"name": "projectId",
					"type": "uint256",
					"indexed": true,
					"internalType": "uint256"
				},
				{
					"name": "token",
					"type": "address",
					"indexed": true,
					"internalType": "address"
				},
				{
					"name": "to",
					"type": "address",
					"indexed": true,
					"internalType": "contract IJBTerminal"
				},
				{
					"name": "amount",
					"type": "uint256",
					"indexed": false,
					"internalType": "uint256"
				},
				{
					"name": "caller",
					"type": "address",
					"indexed": false,
					"internalType": "address"
				}
			],
			"anonymous": false
		},
		{
			"type": "event",
			"name": "OwnershipTransferred",
			"inputs": [
				{
					"name": "previousOwner",
					"type": "address",
					"indexed": true,
					"internalType": "address"
				},
				{
					"name": "newOwner",
					"type": "address",
					"indexed": true,
					"internalType": "address"
				}
			],
			"anonymous": false
		},
		{
			"type": "event",
			"name": "Pay",
			"inputs": [
				{
					"name": "rulesetId",
					"type": "uint256",
					"indexed": true,
					"internalType": "uint256"
				},
				{
					"name": "rulesetCycleNumber",
					"type": "uint256",
					"indexed": true,
					"internalType": "uint256"
				},
				{
					"name": "projectId",
					"type": "uint256",
					"indexed": true,
					"internalType": "uint256"
				},
				{
					"name": "payer",
					"type": "address",
					"indexed": false,
					"internalType": "address"
				},
				{
					"name": "beneficiary",
					"type": "address",
					"indexed": false,
					"internalType": "address"
				},
				{
					"name": "amount",
					"type": "uint256",
					"indexed": false,
					"internalType": "uint256"
				},
				{
					"name": "beneficiaryTokenCount",
					"type": "uint256",
					"indexed": false,
					"internalType": "uint256"
				},
				{
					"name": "memo",
					"type": "string",
					"indexed": false,
					"internalType": "string"
				},
				{
					"name": "metadata",
					"type": "bytes",
					"indexed": false,
					"internalType": "bytes"
				},
				{
					"name": "caller",
					"type": "address",
					"indexed": false,
					"internalType": "address"
				}
			],
			"anonymous": false
		},
		{
			"type": "event",
			"name": "SetAccountingContext",
			"inputs": [
				{
					"name": "projectId",
					"type": "uint256",
					"indexed": true,
					"internalType": "uint256"
				},
				{
					"name": "context",
					"type": "tuple",
					"indexed": false,
					"internalType": "struct JBAccountingContext",
					"components": [
						{
							"name": "token",
							"type": "address",
							"internalType": "address"
						},
						{
							"name": "decimals",
							"type": "uint8",
							"internalType": "uint8"
						},
						{
							"name": "currency",
							"type": "uint32",
							"internalType": "uint32"
						}
					]
				},
				{
					"name": "caller",
					"type": "address",
					"indexed": false,
					"internalType": "address"
				}
			],
			"anonymous": false
		},
		{
			"type": "error",
			"name": "AddressEmptyCode",
			"inputs": [
				{
					"name": "target",
					"type": "address",
					"internalType": "address"
				}
			]
		},
		{
			"type": "error",
			"name": "AddressInsufficientBalance",
			"inputs": [
				{
					"name": "account",
					"type": "address",
					"internalType": "address"
				}
			]
		},
		{
			"type": "error",
			"name": "CALLER_NOT_POOL",
			"inputs": []
		},
		{
			"type": "error",
			"name": "FailedInnerCall",
			"inputs": []
		},
		{
			"type": "error",
			"name": "MAX_SLIPPAGE",
			"inputs": []
		},
		{
			"type": "error",
			"name": "NO_DEFAULT_POOL_DEFINED",
			"inputs": []
		},
		{
			"type": "error",
			"name": "NO_MSG_VALUE_ALLOWED",
			"inputs": []
		},
		{
			"type": "error",
			"name": "OwnableInvalidOwner",
			"inputs": [
				{
					"name": "owner",
					"type": "address",
					"internalType": "address"
				}
			]
		},
		{
			"type": "error",
			"name": "OwnableUnauthorizedAccount",
			"inputs": [
				{
					"name": "account",
					"type": "address",
					"internalType": "address"
				}
			]
		},
		{
			"type": "error",
			"name": "PERMIT_ALLOWANCE_NOT_ENOUGH",
			"inputs": []
		},
		{
			"type": "error",
			"name": "SafeERC20FailedOperation",
			"inputs": [
				{
					"name": "token",
					"type": "address",
					"internalType": "address"
				}
			]
		},
		{
			"type": "error",
			"name": "T",
			"inputs": []
		},
		{
			"type": "error",
			"name": "TOKEN_NOT_ACCEPTED",
			"inputs": []
		},
		{
			"type": "error",
			"name": "UNAUTHORIZED",
			"inputs": []
		},
		{
			"type": "error",
			"name": "WRONG_POOL",
			"inputs": []
		}
	],
	"solcInputHash": "433424451ebf85eddc672a0b0b74875c",
	"args": [
		"0xf8Ea7BA8d990646420123fEAa2447B534Ab2f53c",
		"0xcfBA13b8DCb2bb4f84C5d2704882009a539Bee9A",
		"0x877e8e31eD1Bf9F628EfA25636c5bC9Dd83BAA77",
		"0x000000000022D473030F116dDEE9F6B43aC78BA3",
		"0x823b92d6a4b2AED4b15675c7917c9f922ea8ADAD",
		"0x4200000000000000000000000000000000000006",
		"0x000000000000000000000000000000000000EEEe",
		"0x4752ba5DBc23f44D87826276BF6Fd6b1C372aD24"
	],
	"bytecode": "0x6101806040523480156200001257600080fd5b5060405162004db438038062004db4833981016040819052620000359162000148565b6001600160a01b03808816608052849081166200006c57604051631e4fbdf760e01b81526000600482015260240160405180910390fd5b6200007781620000df565b506001600160a01b038216620000a057604051630faa917b60e11b815260040160405180910390fd5b6001600160a01b0397881660a05294871660c05292861660e05285166101005250831661012081905261eeee1461016052909116610140525062000209565b600080546001600160a01b038381166001600160a01b0319831681178455604051919092169283917f8be0079c531659141344cd1fd0a4f28419497f9722a3daafe3b4186f6b6457e09190a35050565b6001600160a01b03811681146200014557600080fd5b50565b600080600080600080600080610100898b0312156200016657600080fd5b885162000173816200012f565b60208a015190985062000186816200012f565b60408a015190975062000199816200012f565b60608a0151909650620001ac816200012f565b60808a0151909550620001bf816200012f565b60a08a0151909450620001d2816200012f565b60c08a0151909350620001e5816200012f565b60e08a0151909250620001f8816200012f565b809150509295985092959890939650565b60805160a05160c05160e05161010051610120516101405161016051614a886200032c6000396000818161142701528181611a3501528181611cad0152818161216d015281816123a20152612bab01526000818161034c015261083101526000818161025c015281816112f5015281816113fe015281816114750152818161190301528181611a0c01528181611a830152611cd30152600081816101b701528181610548015281816116cf0152818161181301528181611cf801528181612105015281816123140152612bfe01526000818161042b01528181611fa601526128150152600081816104c00152818161132001526119300152600081816102f50152818161076d01526115350152600081816105fb0152611bac0152614a886000f3fe60806040526004361061019a5760003560e01c80637c5e9c24116100e1578063c361534c1161008a578063f2fde38b11610064578063f2fde38b146105c9578063f434c914146105e9578063fa461e331461061d578063fef432571461063d57600080fd5b8063c361534c1461056a578063cc6801271461058a578063e28b5411146105ae57600080fd5b80639e6eec05116100bb5780639e6eec051461050d578063ac90511414610520578063ad5c46481461053657600080fd5b80637c5e9c241461046257806388bc2ef3146104ae5780638da5cb5b146104e257600080fd5b80632dd3100011610143578063515a92931161011d578063515a9293146103ec5780636afdd85014610419578063715018a61461044d57600080fd5b80632dd310001461033a5780633a01714f1461036e57806340873cb51461039b57600080fd5b8063253721c811610174578063253721c8146102c3578063293c4999146102e35780632c1ae8821461031757600080fd5b806301ffc9a7146102155780630392ef941461024a57806324e26dc5146102a357600080fd5b36610210573373ffffffffffffffffffffffffffffffffffffffff7f0000000000000000000000000000000000000000000000000000000000000000161461020e576040517fbcfd35be00000000000000000000000000000000000000000000000000000000815260040160405180910390fd5b005b600080fd5b34801561022157600080fd5b50610235610230366004613b38565b610650565b60405190151581526020015b60405180910390f35b34801561025657600080fd5b5061027e7f000000000000000000000000000000000000000000000000000000000000000081565b60405173ffffffffffffffffffffffffffffffffffffffff9091168152602001610241565b3480156102af57600080fd5b5061020e6102be366004613b9c565b610734565b3480156102cf57600080fd5b5061020e6102de366004613bde565b505050565b3480156102ef57600080fd5b5061027e7f000000000000000000000000000000000000000000000000000000000000000081565b34801561032357600080fd5b5061032c600081565b604051908152602001610241565b34801561034657600080fd5b5061027e7f000000000000000000000000000000000000000000000000000000000000000081565b34801561037a57600080fd5b5061038e610389366004613c5d565b610bda565b6040516102419190613c8d565b3480156103a757600080fd5b506103bb6103b6366004613c5d565b610d22565b6040805163ffffffff909316835273ffffffffffffffffffffffffffffffffffffffff909116602083015201610241565b3480156103f857600080fd5b5061040c610407366004613ccd565b610db2565b6040516102419190613ce6565b34801561042557600080fd5b5061027e7f000000000000000000000000000000000000000000000000000000000000000081565b34801561045957600080fd5b5061020e6111dd565b34801561046e57600080fd5b5061048261047d366004613c5d565b6111f1565b6040805173ffffffffffffffffffffffffffffffffffffffff9093168352901515602083015201610241565b3480156104ba57600080fd5b5061027e7f000000000000000000000000000000000000000000000000000000000000000081565b3480156104ee57600080fd5b5060005473ffffffffffffffffffffffffffffffffffffffff1661027e565b61020e61051b366004613db7565b6112b1565b34801561052c57600080fd5b5061027e61271081565b34801561054257600080fd5b5061027e7f000000000000000000000000000000000000000000000000000000000000000081565b34801561057657600080fd5b5061020e610585366004613e5f565b6114fc565b34801561059657600080fd5b5061032c6105a5366004613ebb565b60009392505050565b3480156105ba57600080fd5b5061032c6105a5366004613b9c565b3480156105d557600080fd5b5061020e6105e4366004613ee7565b611629565b3480156105f557600080fd5b5061027e7f000000000000000000000000000000000000000000000000000000000000000081565b34801561062957600080fd5b5061020e610638366004613f04565b611692565b61032c61064b366004613f57565b6118bf565b60007fffffffff0000000000000000000000000000000000000000000000000000000082167e1549700000000000000000000000000000000000000000000000000000000014806106e257507fffffffff0000000000000000000000000000000000000000000000000000000082167f6afdd85000000000000000000000000000000000000000000000000000000000145b8061072e57507fffffffff0000000000000000000000000000000000000000000000000000000082167f01ffc9a700000000000000000000000000000000000000000000000000000000145b92915050565b82156107fa576040517f6352211e000000000000000000000000000000000000000000000000000000008152600481018490526107f5907f000000000000000000000000000000000000000000000000000000000000000073ffffffffffffffffffffffffffffffffffffffff1690636352211e90602401602060405180830381865afa1580156107c9573d6000803e3d6000fd5b505050506040513d601f19601f820116820180604052508101906107ed919061400b565b846019611b21565b610802565b610802611c56565b600061080c611ca9565b905073ffffffffffffffffffffffffffffffffffffffff8082168482161090838116907f000000000000000000000000000000000000000000000000000000000000000016631698ee82836108615784610863565b865b8461086e5787610870565b855b8773ffffffffffffffffffffffffffffffffffffffff1663ddca3f436040518163ffffffff1660e01b8152600401602060405180830381865afa1580156108bb573d6000803e3d6000fd5b505050506040513d601f19601f820116820180604052508101906108df9190614028565b6040517fffffffff0000000000000000000000000000000000000000000000000000000060e086901b16815273ffffffffffffffffffffffffffffffffffffffff938416600482015292909116602483015262ffffff166044820152606401602060405180830381865afa15801561095b573d6000803e3d6000fd5b505050506040513d601f19601f8201168201806040525081019061097f919061400b565b73ffffffffffffffffffffffffffffffffffffffff16146109cc576040517fedfc579000000000000000000000000000000000000000000000000000000000815260040160405180910390fd5b600085815260026020908152604080832073ffffffffffffffffffffffffffffffffffffffff8881168086529184529382902080547fffffffffffffffffffffffff00000000000000000000000000000000000000001694881694909417909355805160608101825283815281517f313ce5670000000000000000000000000000000000000000000000000000000081529151909384840193909263313ce56792600480830193928290030181865afa158015610a8d573d6000803e3d6000fd5b505050506040513d601f19601f82011682018060405250810190610ab1919061404d565b60ff908116825263ffffffff808816602093840152600089815260038452604080822073ffffffffffffffffffffffffffffffffffffffff9a8b168084529086528183208751815489890151998501519096167501000000000000000000000000000000000000000000027fffffffffffffff00000000ffffffffffffffffffffffffffffffffffffffffff9990971674010000000000000000000000000000000000000000027fffffffffffffffffffffff0000000000000000000000000000000000000000009096169c169b909b17939093179590951692909217909755968752600481529086208054600181018255908752952090940180547fffffffffffffffffffffffff000000000000000000000000000000000000000016909317909255505050565b6040805160608082018352600080835260208084018290529284018190528581526003835283812073ffffffffffffffffffffffffffffffffffffffff868116835290845290849020845192830185525490811680835274010000000000000000000000000000000000000000820460ff16938301939093527501000000000000000000000000000000000000000000900463ffffffff169281019290925261072e575073ffffffffffffffffffffffffffffffffffffffff81811660009081527f3617319a054d772f909f7c479a2cebe5066e836a939412e32403c99029b92eff602090815260409182902082516060810184529054938416815274010000000000000000000000000000000000000000840460ff1691810191909152750100000000000000000000000000000000000000000090920463ffffffff169082015292915050565b600082815260016020908152604080832073ffffffffffffffffffffffffffffffffffffffff851684529091528120548190808203610da2575073ffffffffffffffffffffffffffffffffffffffff831660009081527fa6eef7e35abe7026729641147f7915573c7e97b47efa546f5f6e3230263bcb4960205260409020545b915050602081901c5b9250929050565b6000818152600460209081526040808320805482518185028101850190935280835260609493830182828015610e1e57602002820191906000526020600020905b815473ffffffffffffffffffffffffffffffffffffffff168152600190910190602001808311610df3575b50506000808052600460209081527f17ef568e3e12ab5b9c7254a8d58478811de00f9e6eb34345acd53bf8fd09d3ec80546040805182850281018501909152818152979850929695509350909150830182828015610eb257602002820191906000526020600020905b815473ffffffffffffffffffffffffffffffffffffffff168152600190910190602001808311610e87575b5050505050905080518251610ec7919061409f565b67ffffffffffffffff811115610edf57610edf6140b2565b604051908082528060200260200182016040528015610f4857816020015b60408051606081018252600080825260208083018290529282015282527fffffffffffffffffffffffffffffffffffffffffffffffffffffffffffffffff909201910181610efd5790505b50825190935060005b8181101561103157600360008781526020019081526020016000206000858381518110610f8057610f806140e1565b60209081029190910181015173ffffffffffffffffffffffffffffffffffffffff908116835282820193909352604091820160002082516060810184529054938416815274010000000000000000000000000000000000000000840460ff1691810191909152750100000000000000000000000000000000000000000090920463ffffffff1690820152855186908390811061101e5761101e6140e1565b6020908102919091010152600101610f51565b5081518160005b828110156111c5576000805b858110156110c25786838151811061105e5761105e6140e1565b602002602001015173ffffffffffffffffffffffffffffffffffffffff1688828151811061108e5761108e6140e1565b602002602001015173ffffffffffffffffffffffffffffffffffffffff16036110ba57600191506110c2565b600101611044565b50806111bc576000808052600360205286517f3617319a054d772f909f7c479a2cebe5066e836a939412e32403c99029b92eff9190889085908110611109576111096140e1565b60209081029190910181015173ffffffffffffffffffffffffffffffffffffffff908116835282820193909352604091820160002082516060810184529054938416815274010000000000000000000000000000000000000000840460ff1691810191909152750100000000000000000000000000000000000000000090920463ffffffff1690820152888461119e81614110565b9550815181106111b0576111b06140e1565b60200260200101819052505b50600101611038565b5085518110156111d3578086525b5050505050919050565b6111e5611c56565b6111ef6000611d1a565b565b600082815260026020908152604080832073ffffffffffffffffffffffffffffffffffffffff808616855292528220541690816112725773ffffffffffffffffffffffffffffffffffffffff80841660009081527fac33ff75c19e70fe83507db0d683fd3465c996598dc972688b7ace676c89077b60205260409020541691505b61127a611ca9565b73ffffffffffffffffffffffffffffffffffffffff168373ffffffffffffffffffffffffffffffffffffffff161090509250929050565b6040517f862026500000000000000000000000000000000000000000000000000000000081526004810189905273ffffffffffffffffffffffffffffffffffffffff7f0000000000000000000000000000000000000000000000000000000000000000811660248301526000917f000000000000000000000000000000000000000000000000000000000000000090911690638620265090604401602060405180830381865afa158015611369573d6000803e3d6000fd5b505050506040513d601f19601f8201168201806040525081019061138d919061400b565b905073ffffffffffffffffffffffffffffffffffffffff81166113dc576040517f1f5522f600000000000000000000000000000000000000000000000000000000815260040160405180910390fd5b60006113f68a8a6113ef8c8c8989611d8f565b87876120db565b9050611423827f0000000000000000000000000000000000000000000000000000000000000000836123a0565b60007f0000000000000000000000000000000000000000000000000000000000000000611451576000611453565b815b90508273ffffffffffffffffffffffffffffffffffffffff16639e6eec05828d7f0000000000000000000000000000000000000000000000000000000000000000868d8d8d8d8d6040518a63ffffffff1660e01b81526004016114bd989796959493929190614191565b6000604051808303818588803b1580156114d657600080fd5b505af11580156114ea573d6000803e3d6000fd5b50505050505050505050505050505050565b83156115c2576040517f6352211e000000000000000000000000000000000000000000000000000000008152600481018590526115bd907f000000000000000000000000000000000000000000000000000000000000000073ffffffffffffffffffffffffffffffffffffffff1690636352211e90602401602060405180830381865afa158015611591573d6000803e3d6000fd5b505050506040513d601f19601f820116820180604052508101906115b5919061400b565b85601a611b21565b6115ca565b6115ca611c56565b600093845260016020908152604080862073ffffffffffffffffffffffffffffffffffffffff959095168652938152929093209290911b77ffffffffffffffffffffffffffffffffffffffff000000001663ffffffff91909116179055565b611631611c56565b73ffffffffffffffffffffffffffffffffffffffff8116611686576040517f1e4fbdf7000000000000000000000000000000000000000000000000000000008152600060048201526024015b60405180910390fd5b61168f81611d1a565b50565b6000806116a183850185613c5d565b9092509050600073ffffffffffffffffffffffffffffffffffffffff821661eeee146116cd57816116ef565b7f00000000000000000000000000000000000000000000000000000000000000005b600084815260026020908152604080832073ffffffffffffffffffffffffffffffffffffffff80861685529252909120549192501680611772575073ffffffffffffffffffffffffffffffffffffffff80821660009081527fac33ff75c19e70fe83507db0d683fd3465c996598dc972688b7ace676c89077b6020526040902054165b3373ffffffffffffffffffffffffffffffffffffffff8216146117c1576040517ffceada9800000000000000000000000000000000000000000000000000000000815260040160405180910390fd5b60008089126117d057886117d2565b875b90507fffffffffffffffffffffffffffffffffffffffffffffffffffffffffffff111273ffffffffffffffffffffffffffffffffffffffff851601611893577f000000000000000000000000000000000000000000000000000000000000000073ffffffffffffffffffffffffffffffffffffffff1663d0e30db0826040518263ffffffff1660e01b81526004016000604051808303818588803b15801561187957600080fd5b505af115801561188d573d6000803e3d6000fd5b50505050505b6118b473ffffffffffffffffffffffffffffffffffffffff841633836123ec565b505050505050505050565b6040517f86202650000000000000000000000000000000000000000000000000000000008152600481018a905273ffffffffffffffffffffffffffffffffffffffff7f00000000000000000000000000000000000000000000000000000000000000008116602483015260009182917f00000000000000000000000000000000000000000000000000000000000000001690638620265090604401602060405180830381865afa158015611977573d6000803e3d6000fd5b505050506040513d601f19601f8201168201806040525081019061199b919061400b565b905073ffffffffffffffffffffffffffffffffffffffff81166119ea576040517f1f5522f600000000000000000000000000000000000000000000000000000000815260040160405180910390fd5b6000611a048c8c6119fd8e8e8a8a611d8f565b88886120db565b9050611a31827f0000000000000000000000000000000000000000000000000000000000000000836123a0565b60007f0000000000000000000000000000000000000000000000000000000000000000611a5f576000611a61565b815b90508273ffffffffffffffffffffffffffffffffffffffff1663fef43257828f7f0000000000000000000000000000000000000000000000000000000000000000868f8f8f8f8f8f6040518b63ffffffff1660e01b8152600401611acd999897969594939291906141f7565b60206040518083038185885af1158015611aeb573d6000803e3d6000fd5b50505050506040513d601f19601f82011682018060405250810190611b109190614266565b9d9c50505050505050505050505050565b3373ffffffffffffffffffffffffffffffffffffffff84168114801590611c1957506040517f348b684e00000000000000000000000000000000000000000000000000000000815273ffffffffffffffffffffffffffffffffffffffff82811660048301528581166024830152604482018590526064820184905260016084830181905260a48301527f0000000000000000000000000000000000000000000000000000000000000000169063348b684e9060c401602060405180830381865afa158015611bf3573d6000803e3d6000fd5b505050506040513d601f19601f82011682018060405250810190611c17919061427f565b155b15611c50576040517f075fd2b100000000000000000000000000000000000000000000000000000000815260040160405180910390fd5b50505050565b60005473ffffffffffffffffffffffffffffffffffffffff1633146111ef576040517f118cdaa700000000000000000000000000000000000000000000000000000000815233600482015260240161167d565b60007f0000000000000000000000000000000000000000000000000000000000000000611cf557507f000000000000000000000000000000000000000000000000000000000000000090565b507f000000000000000000000000000000000000000000000000000000000000000090565b6000805473ffffffffffffffffffffffffffffffffffffffff8381167fffffffffffffffffffffffff0000000000000000000000000000000000000000831681178455604051919092169283917f8be0079c531659141344cd1fd0a4f28419497f9722a3daafe3b4186f6b6457e09190a35050565b60007fffffffffffffffffffffffffffffffffffffffffffffffffffffffffffff111273ffffffffffffffffffffffffffffffffffffffff861601611dd55750346120d3565b3415611e0d576040517fbcfd35be00000000000000000000000000000000000000000000000000000000815260040160405180910390fd5b600080611e8d611e516040518060400160405280600781526020017f7065726d6974320000000000000000000000000000000000000000000000000081525061246d565b86868080601f01602080910402602001604051908101604052809392919081815260200183838082843760009201919091525061248192505050565b91509150811561203457600081806020019051810190611ead9190614353565b905086816020015173ffffffffffffffffffffffffffffffffffffffff161015611f03576040517f2fc82b4200000000000000000000000000000000000000000000000000000000815260040160405180910390fd5b6000604051806060016040528060405180608001604052808c73ffffffffffffffffffffffffffffffffffffffff168152602001856020015173ffffffffffffffffffffffffffffffffffffffff168152602001856040015165ffffffffffff168152602001856060015165ffffffffffff1681525081526020013073ffffffffffffffffffffffffffffffffffffffff168152602001836000015181525090507f000000000000000000000000000000000000000000000000000000000000000073ffffffffffffffffffffffffffffffffffffffff16632b67b570338385608001516040518463ffffffff1660e01b8152600401612005939291906144bb565b600060405180830381600087803b15801561201f57600080fd5b505af1925050508015612030575060015b5050505b6120403330898961266e565b6040517f70a0823100000000000000000000000000000000000000000000000000000000815230600482015273ffffffffffffffffffffffffffffffffffffffff8816906370a0823190602401602060405180830381865afa1580156120aa573d6000803e3d6000fd5b505050506040513d601f19601f820116820180604052508101906120ce9190614266565b925050505b949350505050565b60008073ffffffffffffffffffffffffffffffffffffffff861661eeee146121035785612125565b7f00000000000000000000000000000000000000000000000000000000000000005b90506000612131611ca9565b905060008061214487878c878c88612877565b909250905073ffffffffffffffffffffffffffffffffffffffff891661eeee14801561218d57507f00000000000000000000000000000000000000000000000000000000000000005b806121c357508273ffffffffffffffffffffffffffffffffffffffff168473ffffffffffffffffffffffffffffffffffffffff16145b156121d05787945061220f565b61220c8989848673ffffffffffffffffffffffffffffffffffffffff168873ffffffffffffffffffffffffffffffffffffffff16108e86612a53565b94505b6040517f70a0823100000000000000000000000000000000000000000000000000000000815230600482015260009073ffffffffffffffffffffffffffffffffffffffff8616906370a0823190602401602060405180830381865afa15801561227c573d6000803e3d6000fd5b505050506040513d601f19601f820116820180604052508101906122a09190614266565b90508015612392577fffffffffffffffffffffffffffffffffffffffffffffffffffffffffffff111273ffffffffffffffffffffffffffffffffffffffff8b1601612386576040517f2e1a7d4d000000000000000000000000000000000000000000000000000000008152600481018290527f000000000000000000000000000000000000000000000000000000000000000073ffffffffffffffffffffffffffffffffffffffff1690632e1a7d4d90602401600060405180830381600087803b15801561236d57600080fd5b505af1158015612381573d6000803e3d6000fd5b505050505b61239230338c8461266e565b505050505095945050505050565b7f0000000000000000000000000000000000000000000000000000000000000000156123cb57505050565b6102de73ffffffffffffffffffffffffffffffffffffffff83168483612c7c565b60405173ffffffffffffffffffffffffffffffffffffffff8381166024830152604482018390526102de91859182169063a9059cbb906064015b604051602081830303815290604052915060e01b6020820180517bffffffffffffffffffffffffffffffffffffffffffffffffffffffff8381831617835250505050612d2c565b805160208201206000903060601b1861072e565b6000606060258351116124a65750506040805160208101909152600080825290610dab565b6000836124b56004602061409f565b815181106124c5576124c56140e1565b0160209081015160f81c91505b6000856124e060048461409f565b815181106124f0576124f06140e1565b01602001517fff00000000000000000000000000000000000000000000000000000000000000161480159061252e575061252b60208361453d565b81105b156126655760008561254160048461409f565b81518110612551576125516140e1565b016020908101518784019091015160f89190911c91507fffffffff000000000000000000000000000000000000000000000000000000008089169082160361265b5760006125a060208661453d565b6125ab60098661409f565b1015806125f85750876125bf60098661409f565b815181106125cf576125cf6140e1565b01602001517fff0000000000000000000000000000000000000000000000000000000000000016155b6126315760208861260a60098761409f565b8151811061261a5761261a6140e1565b016020015161262c919060f81c61453d565b612634565b87515b9050600161264d8961264760208761453d565b84612dc2565b965096505050505050610dab565b50506005016124d2565b50509250929050565b3073ffffffffffffffffffffffffffffffffffffffff8516036126f8577fffffffffffffffffffffffffffffffffffffffffffffffffffffffffffff111273ffffffffffffffffffffffffffffffffffffffff8316016126d7576126d28382612e08565b611c50565b6126d273ffffffffffffffffffffffffffffffffffffffff831684836123ec565b6040517fdd62ed3e00000000000000000000000000000000000000000000000000000000815273ffffffffffffffffffffffffffffffffffffffff858116600483015230602483015282919084169063dd62ed3e90604401602060405180830381865afa15801561276d573d6000803e3d6000fd5b505050506040513d601f19601f820116820180604052508101906127919190614266565b106127b8576126d273ffffffffffffffffffffffffffffffffffffffff8316858584612ede565b6040517f36c7851600000000000000000000000000000000000000000000000000000000815273ffffffffffffffffffffffffffffffffffffffff85811660048301528481166024830152828116604483015283811660648301527f000000000000000000000000000000000000000000000000000000000000000016906336c7851690608401600060405180830381600087803b15801561285957600080fd5b505af115801561286d573d6000803e3d6000fd5b5050505050505050565b6000806000806128fa6128be6040518060400160405280600c81526020017f71756f7465466f7253776170000000000000000000000000000000000000000081525061246d565b8b8b8080601f01602080910402602001604051908101604052809392919081815260200183838082843760009201919091525061248192505050565b91509150811561292257808060200190518101906129189190614554565b9094509250612a46565b600088815260026020908152604080832073ffffffffffffffffffffffffffffffffffffffff808c168552925290912054169250826129db5773ffffffffffffffffffffffffffffffffffffffff80881660009081527fac33ff75c19e70fe83507db0d683fd3465c996598dc972688b7ace676c89077b6020526040902054169250826129db576040517fa848110400000000000000000000000000000000000000000000000000000000815260040160405180910390fd5b6000806129e88a86610d22565b9150915060006129f88684612f24565b509050612a07818a8c8b6131e8565b9650612710612a2c73ffffffffffffffffffffffffffffffffffffffff84168961453d565b612a3691906145a8565b612a4090886145bc565b96505050505b5050965096945050505050565b60008060008373ffffffffffffffffffffffffffffffffffffffff1663128acb0830888b8a612aa057612a9b600173fffd8963efd1fc6a506488495d951d5263988d266145cf565b612ab0565b612ab06401000276a36001614603565b8a8f604051602001612ae292919091825273ffffffffffffffffffffffffffffffffffffffff16602082015260400190565b6040516020818303038152906040526040518663ffffffff1660e01b8152600401612b11959493929190614630565b60408051808303816000875af1158015612b2f573d6000803e3d6000fd5b505050506040513d601f19601f82011682018060405250810190612b539190614682565b9150915085612b625781612b64565b805b612b6d906146a6565b925086831015612ba9576040517ff975951800000000000000000000000000000000000000000000000000000000815260040160405180910390fd5b7f000000000000000000000000000000000000000000000000000000000000000015612c70576040517f2e1a7d4d000000000000000000000000000000000000000000000000000000008152600481018490527f000000000000000000000000000000000000000000000000000000000000000073ffffffffffffffffffffffffffffffffffffffff1690632e1a7d4d90602401600060405180830381600087803b158015612c5757600080fd5b505af1158015612c6b573d6000803e3d6000fd5b505050505b50509695505050505050565b6040517fdd62ed3e00000000000000000000000000000000000000000000000000000000815230600482015273ffffffffffffffffffffffffffffffffffffffff83811660248301526000919085169063dd62ed3e90604401602060405180830381865afa158015612cf2573d6000803e3d6000fd5b505050506040513d601f19601f82011682018060405250810190612d169190614266565b9050611c508484612d27858561409f565b6133be565b6000612d4e73ffffffffffffffffffffffffffffffffffffffff841683613496565b90508051600014158015612d73575080806020019051810190612d71919061427f565b155b156102de576040517f5274afe700000000000000000000000000000000000000000000000000000000815273ffffffffffffffffffffffffffffffffffffffff8416600482015260240161167d565b60608282036040519150602081830101604052808252508260208501016020820160005b84811015612dfe578281015182820152602001612de6565b5050509392505050565b80471015612e44576040517fcd78605900000000000000000000000000000000000000000000000000000000815230600482015260240161167d565b60008273ffffffffffffffffffffffffffffffffffffffff168260405160006040518083038185875af1925050503d8060008114612e9e576040519150601f19603f3d011682016040523d82523d6000602084013e612ea3565b606091505b50509050806102de576040517f1425ea4200000000000000000000000000000000000000000000000000000000815260040160405180910390fd5b60405173ffffffffffffffffffffffffffffffffffffffff8481166024830152838116604483015260648201839052611c509186918216906323b872dd90608401612426565b6000808263ffffffff16600003612f97576040517f08c379a000000000000000000000000000000000000000000000000000000000815260206004820152600260248201527f4250000000000000000000000000000000000000000000000000000000000000604482015260640161167d565b6040805160028082526060820183526000926020830190803683370190505090508381600081518110612fcc57612fcc6140e1565b602002602001019063ffffffff16908163ffffffff1681525050600081600181518110612ffb57612ffb6140e1565b602002602001019063ffffffff16908163ffffffff16815250506000808673ffffffffffffffffffffffffffffffffffffffff1663883bdbfd846040518263ffffffff1660e01b815260040161305191906146de565b600060405180830381865afa15801561306e573d6000803e3d6000fd5b505050506040513d6000823e601f3d9081017fffffffffffffffffffffffffffffffffffffffffffffffffffffffffffffffe01682016040526130b491908101906147b8565b915091506000826000815181106130cd576130cd6140e1565b6020026020010151836001815181106130e8576130e86140e1565b60200260200101516130fa9190614884565b9050600082600081518110613111576131116140e1565b60200260200101518360018151811061312c5761312c6140e1565b602002602001015161313e91906145cf565b905061315063ffffffff8916836148c9565b965060008260060b128015613176575061317063ffffffff89168361493d565b60060b15155b1561318957866131858161495f565b9750505b60006131af73ffffffffffffffffffffffffffffffffffffffff63ffffffff8b166149bc565b90506131d977ffffffffffffffffffffffffffffffffffffffff00000000602084901b16826149ff565b96505050505050509250929050565b6000806131f4866134ab565b90506fffffffffffffffffffffffffffffffff73ffffffffffffffffffffffffffffffffffffffff8216116132f357600061324573ffffffffffffffffffffffffffffffffffffffff83168061453d565b90508373ffffffffffffffffffffffffffffffffffffffff168573ffffffffffffffffffffffffffffffffffffffff16106132b5576132b07801000000000000000000000000000000000000000000000000876fffffffffffffffffffffffffffffffff1683613812565b6132eb565b6132eb81876fffffffffffffffffffffffffffffffff167801000000000000000000000000000000000000000000000000613812565b9250506133b5565b600061331f73ffffffffffffffffffffffffffffffffffffffff83168068010000000000000000613812565b90508373ffffffffffffffffffffffffffffffffffffffff168573ffffffffffffffffffffffffffffffffffffffff161061338757613382700100000000000000000000000000000000876fffffffffffffffffffffffffffffffff1683613812565b6120ce565b6120ce81876fffffffffffffffffffffffffffffffff16700100000000000000000000000000000000613812565b50949350505050565b6040805173ffffffffffffffffffffffffffffffffffffffff8416602482015260448082018490528251808303909101815260649091019091526020810180517bffffffffffffffffffffffffffffffffffffffffffffffffffffffff167f095ea7b30000000000000000000000000000000000000000000000000000000017905261344a84826138e2565b611c505760405173ffffffffffffffffffffffffffffffffffffffff84811660248301526000604483015261348c91869182169063095ea7b390606401612426565b611c508482612d2c565b60606134a4838360006139a4565b9392505050565b60008060008360020b126134c2578260020b6134ca565b8260020b6000035b9050620d89e8811115613509576040517f2bc80f3a00000000000000000000000000000000000000000000000000000000815260040160405180910390fd5b60008160011660000361352d5770010000000000000000000000000000000061353f565b6ffffcb933bd6fad37aa2d162d1a5940015b70ffffffffffffffffffffffffffffffffff1690506002821615613573576ffff97272373d413259a46990580e213a0260801c5b6004821615613592576ffff2e50f5f656932ef12357cf3c7fdcc0260801c5b60088216156135b1576fffe5caca7e10e4e61c3624eaa0941cd00260801c5b60108216156135d0576fffcb9843d60f6159c9db58835c9266440260801c5b60208216156135ef576fff973b41fa98c081472e6896dfb254c00260801c5b604082161561360e576fff2ea16466c96a3843ec78b326b528610260801c5b608082161561362d576ffe5dee046a99a2a811c461f1969c30530260801c5b61010082161561364d576ffcbe86c7900a88aedcffc83b479aa3a40260801c5b61020082161561366d576ff987a7253ac413176f2b074cf7815e540260801c5b61040082161561368d576ff3392b0822b70005940c7a398e4b70f30260801c5b6108008216156136ad576fe7159475a2c29b7443b29c7fa6e889d90260801c5b6110008216156136cd576fd097f3bdfd2022b8845ad8f792aa58250260801c5b6120008216156136ed576fa9f746462d870fdf8a65dc1f90e061e50260801c5b61400082161561370d576f70d869a156d2a1b890bb3df62baf32f70260801c5b61800082161561372d576f31be135f97d08fd981231505542fcfa60260801c5b6201000082161561374e576f09aa508b5b7a84e1c677de54f3e99bc90260801c5b6202000082161561376e576e5d6af8dedb81196699c329225ee6040260801c5b6204000082161561378d576d2216e584f5fa1ea926041bedfe980260801c5b620800008216156137aa576b048a170391f7dc42444e8fa20260801c5b60008460020b13156137e957807fffffffffffffffffffffffffffffffffffffffffffffffffffffffffffffffff816137e5576137e5614579565b0490505b6401000000008106156137fd576001613800565b60005b60ff16602082901c0192505050919050565b600080807fffffffffffffffffffffffffffffffffffffffffffffffffffffffffffffffff85870985870292508281108382030391505080600003613869576000841161385e57600080fd5b5082900490506134a4565b80841161387557600080fd5b6000848688096000868103871696879004966002600389028118808a02820302808a02820302808a02820302808a02820302808a02820302808a02909103029181900381900460010186841190950394909402919094039290920491909117919091029150509392505050565b60008060008473ffffffffffffffffffffffffffffffffffffffff168460405161390c9190614a36565b6000604051808303816000865af19150503d8060008114613949576040519150601f19603f3d011682016040523d82523d6000602084013e61394e565b606091505b5091509150818015613978575080511580613978575080806020019051810190613978919061427f565b801561399b575060008573ffffffffffffffffffffffffffffffffffffffff163b115b95945050505050565b6060814710156139e2576040517fcd78605900000000000000000000000000000000000000000000000000000000815230600482015260240161167d565b6000808573ffffffffffffffffffffffffffffffffffffffff168486604051613a0b9190614a36565b60006040518083038185875af1925050503d8060008114613a48576040519150601f19603f3d011682016040523d82523d6000602084013e613a4d565b606091505b5091509150613a5d868383613a67565b9695505050505050565b606082613a7c57613a7782613af6565b6134a4565b8151158015613aa0575073ffffffffffffffffffffffffffffffffffffffff84163b155b15613aef576040517f9996b31500000000000000000000000000000000000000000000000000000000815273ffffffffffffffffffffffffffffffffffffffff8516600482015260240161167d565b50806134a4565b805115613b065780518082602001fd5b6040517f1425ea4200000000000000000000000000000000000000000000000000000000815260040160405180910390fd5b600060208284031215613b4a57600080fd5b81357fffffffff00000000000000000000000000000000000000000000000000000000811681146134a457600080fd5b73ffffffffffffffffffffffffffffffffffffffff8116811461168f57600080fd5b600080600060608486031215613bb157600080fd5b833592506020840135613bc381613b7a565b91506040840135613bd381613b7a565b809150509250925092565b600080600060408486031215613bf357600080fd5b83359250602084013567ffffffffffffffff80821115613c1257600080fd5b818601915086601f830112613c2657600080fd5b813581811115613c3557600080fd5b876020606083028501011115613c4a57600080fd5b6020830194508093505050509250925092565b60008060408385031215613c7057600080fd5b823591506020830135613c8281613b7a565b809150509250929050565b815173ffffffffffffffffffffffffffffffffffffffff16815260208083015160ff169082015260408083015163ffffffff16908201526060810161072e565b600060208284031215613cdf57600080fd5b5035919050565b6020808252825182820181905260009190848201906040850190845b81811015613d5b57613d48838551805173ffffffffffffffffffffffffffffffffffffffff16825260208082015160ff169083015260409081015163ffffffff16910152565b9284019260609290920191600101613d02565b50909695505050505050565b801515811461168f57600080fd5b60008083601f840112613d8757600080fd5b50813567ffffffffffffffff811115613d9f57600080fd5b602083019150836020828501011115610dab57600080fd5b60008060008060008060008060c0898b031215613dd357600080fd5b883597506020890135613de581613b7a565b9650604089013595506060890135613dfc81613d67565b9450608089013567ffffffffffffffff80821115613e1957600080fd5b613e258c838d01613d75565b909650945060a08b0135915080821115613e3e57600080fd5b50613e4b8b828c01613d75565b999c989b5096995094979396929594505050565b60008060008060808587031215613e7557600080fd5b843593506020850135613e8781613b7a565b9250604085013563ffffffff81168114613ea057600080fd5b91506060850135613eb081613b7a565b939692955090935050565b600080600060608486031215613ed057600080fd5b505081359360208301359350604090920135919050565b600060208284031215613ef957600080fd5b81356134a481613b7a565b60008060008060608587031215613f1a57600080fd5b8435935060208501359250604085013567ffffffffffffffff811115613f3f57600080fd5b613f4b87828801613d75565b95989497509550505050565b600080600080600080600080600060e08a8c031215613f7557600080fd5b8935985060208a0135613f8781613b7a565b975060408a0135965060608a0135613f9e81613b7a565b955060808a0135945060a08a013567ffffffffffffffff80821115613fc257600080fd5b613fce8d838e01613d75565b909650945060c08c0135915080821115613fe757600080fd5b50613ff48c828d01613d75565b915080935050809150509295985092959850929598565b60006020828403121561401d57600080fd5b81516134a481613b7a565b60006020828403121561403a57600080fd5b815162ffffff811681146134a457600080fd5b60006020828403121561405f57600080fd5b815160ff811681146134a457600080fd5b7f4e487b7100000000000000000000000000000000000000000000000000000000600052601160045260246000fd5b8082018082111561072e5761072e614070565b7f4e487b7100000000000000000000000000000000000000000000000000000000600052604160045260246000fd5b7f4e487b7100000000000000000000000000000000000000000000000000000000600052603260045260246000fd5b60007fffffffffffffffffffffffffffffffffffffffffffffffffffffffffffffffff820361414157614141614070565b5060010190565b8183528181602085013750600060208284010152600060207fffffffffffffffffffffffffffffffffffffffffffffffffffffffffffffffe0601f840116840101905092915050565b88815273ffffffffffffffffffffffffffffffffffffffff88166020820152866040820152851515606082015260c0608082015260006141d560c083018688614148565b82810360a08401526141e8818587614148565b9b9a5050505050505050505050565b898152600073ffffffffffffffffffffffffffffffffffffffff808b16602084015289604084015280891660608401525086608083015260e060a083015261424360e083018688614148565b82810360c0840152614256818587614148565b9c9b505050505050505050505050565b60006020828403121561427857600080fd5b5051919050565b60006020828403121561429157600080fd5b81516134a481613d67565b60405160a0810167ffffffffffffffff811182821017156142bf576142bf6140b2565b60405290565b604051601f82017fffffffffffffffffffffffffffffffffffffffffffffffffffffffffffffffe016810167ffffffffffffffff8111828210171561430c5761430c6140b2565b604052919050565b805165ffffffffffff8116811461432a57600080fd5b919050565b60005b8381101561434a578181015183820152602001614332565b50506000910152565b6000602080838503121561436657600080fd5b825167ffffffffffffffff8082111561437e57600080fd5b9084019060a0828703121561439257600080fd5b61439a61429c565b82518152838301516143ab81613b7a565b818501526143bb60408401614314565b60408201526143cc60608401614314565b60608201526080830151828111156143e357600080fd5b80840193505086601f8401126143f857600080fd5b82518281111561440a5761440a6140b2565b61443a857fffffffffffffffffffffffffffffffffffffffffffffffffffffffffffffffe0601f840116016142c5565b9250808352878582860101111561445057600080fd5b61445f8186850187870161432f565b50608081019190915295945050505050565b6000815180845261448981602086016020860161432f565b601f017fffffffffffffffffffffffffffffffffffffffffffffffffffffffffffffffe0169290920160200192915050565b600061010073ffffffffffffffffffffffffffffffffffffffff80871684528551818151166020860152816020820151166040860152604081015165ffffffffffff80821660608801528060608401511660808801525050508060208701511660a085015250604085015160c08401528060e0840152613a5d81840185614471565b808202811582820484141761072e5761072e614070565b6000806040838503121561456757600080fd5b825191506020830151613c8281613b7a565b7f4e487b7100000000000000000000000000000000000000000000000000000000600052601260045260246000fd5b6000826145b7576145b7614579565b500490565b8181038181111561072e5761072e614070565b73ffffffffffffffffffffffffffffffffffffffff8281168282160390808211156145fc576145fc614070565b5092915050565b73ffffffffffffffffffffffffffffffffffffffff8181168382160190808211156145fc576145fc614070565b600073ffffffffffffffffffffffffffffffffffffffff8088168352861515602084015285604084015280851660608401525060a0608083015261467760a0830184614471565b979650505050505050565b6000806040838503121561469557600080fd5b505080516020909101519092909150565b60007f800000000000000000000000000000000000000000000000000000000000000082036146d7576146d7614070565b5060000390565b6020808252825182820181905260009190848201906040850190845b81811015613d5b57835163ffffffff16835292840192918401916001016146fa565b600067ffffffffffffffff821115614736576147366140b2565b5060051b60200190565b600082601f83011261475157600080fd5b815160206147666147618361471c565b6142c5565b8083825260208201915060208460051b87010193508684111561478857600080fd5b602086015b848110156147ad5780516147a081613b7a565b835291830191830161478d565b509695505050505050565b600080604083850312156147cb57600080fd5b825167ffffffffffffffff808211156147e357600080fd5b818501915085601f8301126147f757600080fd5b815160206148076147618361471c565b82815260059290921b8401810191818101908984111561482657600080fd5b948201945b838610156148545785518060060b81146148455760008081fd5b8252948201949082019061482b565b9188015191965090935050508082111561486d57600080fd5b5061487a85828601614740565b9150509250929050565b600682810b9082900b037fffffffffffffffffffffffffffffffffffffffffffffffffff800000000000008112667fffffffffffff8213171561072e5761072e614070565b60008160060b8360060b806148e0576148e0614579565b7fffffffffffffffffffffffffffffffffffffffffffffffffffffffffffffffff81147fffffffffffffffffffffffffffffffffffffffffffffffffff800000000000008314161561493457614934614070565b90059392505050565b60008260060b8061495057614950614579565b808360060b0791505092915050565b60008160020b7fffffffffffffffffffffffffffffffffffffffffffffffffffffffffff800000810361499457614994614070565b7fffffffffffffffffffffffffffffffffffffffffffffffffffffffffffffffff0192915050565b77ffffffffffffffffffffffffffffffffffffffffffffffff8281168282168181028316929181158285048214176149f6576149f6614070565b50505092915050565b600077ffffffffffffffffffffffffffffffffffffffffffffffff80841680614a2a57614a2a614579565b92169190910492915050565b60008251614a4881846020870161432f565b919091019291505056fea26469706673582212209d31bdf02a247ceb8f93a8560b93a591c895f20b323400c7b9a8c316f4c7324d64736f6c63430008170033",
	"deployedBytecode": "0x60806040526004361061019a5760003560e01c80637c5e9c24116100e1578063c361534c1161008a578063f2fde38b11610064578063f2fde38b146105c9578063f434c914146105e9578063fa461e331461061d578063fef432571461063d57600080fd5b8063c361534c1461056a578063cc6801271461058a578063e28b5411146105ae57600080fd5b80639e6eec05116100bb5780639e6eec051461050d578063ac90511414610520578063ad5c46481461053657600080fd5b80637c5e9c241461046257806388bc2ef3146104ae5780638da5cb5b146104e257600080fd5b80632dd3100011610143578063515a92931161011d578063515a9293146103ec5780636afdd85014610419578063715018a61461044d57600080fd5b80632dd310001461033a5780633a01714f1461036e57806340873cb51461039b57600080fd5b8063253721c811610174578063253721c8146102c3578063293c4999146102e35780632c1ae8821461031757600080fd5b806301ffc9a7146102155780630392ef941461024a57806324e26dc5146102a357600080fd5b36610210573373ffffffffffffffffffffffffffffffffffffffff7f0000000000000000000000004200000000000000000000000000000000000006161461020e576040517fbcfd35be00000000000000000000000000000000000000000000000000000000815260040160405180910390fd5b005b600080fd5b34801561022157600080fd5b50610235610230366004613b38565b610650565b60405190151581526020015b60405180910390f35b34801561025657600080fd5b5061027e7f000000000000000000000000000000000000000000000000000000000000eeee81565b60405173ffffffffffffffffffffffffffffffffffffffff9091168152602001610241565b3480156102af57600080fd5b5061020e6102be366004613b9c565b610734565b3480156102cf57600080fd5b5061020e6102de366004613bde565b505050565b3480156102ef57600080fd5b5061027e7f000000000000000000000000f8ea7ba8d990646420123feaa2447b534ab2f53c81565b34801561032357600080fd5b5061032c600081565b604051908152602001610241565b34801561034657600080fd5b5061027e7f0000000000000000000000004752ba5dbc23f44d87826276bf6fd6b1c372ad2481565b34801561037a57600080fd5b5061038e610389366004613c5d565b610bda565b6040516102419190613c8d565b3480156103a757600080fd5b506103bb6103b6366004613c5d565b610d22565b6040805163ffffffff909316835273ffffffffffffffffffffffffffffffffffffffff909116602083015201610241565b3480156103f857600080fd5b5061040c610407366004613ccd565b610db2565b6040516102419190613ce6565b34801561042557600080fd5b5061027e7f000000000000000000000000000000000022d473030f116ddee9f6b43ac78ba381565b34801561045957600080fd5b5061020e6111dd565b34801561046e57600080fd5b5061048261047d366004613c5d565b6111f1565b6040805173ffffffffffffffffffffffffffffffffffffffff9093168352901515602083015201610241565b3480156104ba57600080fd5b5061027e7f000000000000000000000000877e8e31ed1bf9f628efa25636c5bc9dd83baa7781565b3480156104ee57600080fd5b5060005473ffffffffffffffffffffffffffffffffffffffff1661027e565b61020e61051b366004613db7565b6112b1565b34801561052c57600080fd5b5061027e61271081565b34801561054257600080fd5b5061027e7f000000000000000000000000420000000000000000000000000000000000000681565b34801561057657600080fd5b5061020e610585366004613e5f565b6114fc565b34801561059657600080fd5b5061032c6105a5366004613ebb565b60009392505050565b3480156105ba57600080fd5b5061032c6105a5366004613b9c565b3480156105d557600080fd5b5061020e6105e4366004613ee7565b611629565b3480156105f557600080fd5b5061027e7f000000000000000000000000cfba13b8dcb2bb4f84c5d2704882009a539bee9a81565b34801561062957600080fd5b5061020e610638366004613f04565b611692565b61032c61064b366004613f57565b6118bf565b60007fffffffff0000000000000000000000000000000000000000000000000000000082167e1549700000000000000000000000000000000000000000000000000000000014806106e257507fffffffff0000000000000000000000000000000000000000000000000000000082167f6afdd85000000000000000000000000000000000000000000000000000000000145b8061072e57507fffffffff0000000000000000000000000000000000000000000000000000000082167f01ffc9a700000000000000000000000000000000000000000000000000000000145b92915050565b82156107fa576040517f6352211e000000000000000000000000000000000000000000000000000000008152600481018490526107f5907f000000000000000000000000f8ea7ba8d990646420123feaa2447b534ab2f53c73ffffffffffffffffffffffffffffffffffffffff1690636352211e90602401602060405180830381865afa1580156107c9573d6000803e3d6000fd5b505050506040513d601f19601f820116820180604052508101906107ed919061400b565b846019611b21565b610802565b610802611c56565b600061080c611ca9565b905073ffffffffffffffffffffffffffffffffffffffff8082168482161090838116907f0000000000000000000000004752ba5dbc23f44d87826276bf6fd6b1c372ad2416631698ee82836108615784610863565b865b8461086e5787610870565b855b8773ffffffffffffffffffffffffffffffffffffffff1663ddca3f436040518163ffffffff1660e01b8152600401602060405180830381865afa1580156108bb573d6000803e3d6000fd5b505050506040513d601f19601f820116820180604052508101906108df9190614028565b6040517fffffffff0000000000000000000000000000000000000000000000000000000060e086901b16815273ffffffffffffffffffffffffffffffffffffffff938416600482015292909116602483015262ffffff166044820152606401602060405180830381865afa15801561095b573d6000803e3d6000fd5b505050506040513d601f19601f8201168201806040525081019061097f919061400b565b73ffffffffffffffffffffffffffffffffffffffff16146109cc576040517fedfc579000000000000000000000000000000000000000000000000000000000815260040160405180910390fd5b600085815260026020908152604080832073ffffffffffffffffffffffffffffffffffffffff8881168086529184529382902080547fffffffffffffffffffffffff00000000000000000000000000000000000000001694881694909417909355805160608101825283815281517f313ce5670000000000000000000000000000000000000000000000000000000081529151909384840193909263313ce56792600480830193928290030181865afa158015610a8d573d6000803e3d6000fd5b505050506040513d601f19601f82011682018060405250810190610ab1919061404d565b60ff908116825263ffffffff808816602093840152600089815260038452604080822073ffffffffffffffffffffffffffffffffffffffff9a8b168084529086528183208751815489890151998501519096167501000000000000000000000000000000000000000000027fffffffffffffff00000000ffffffffffffffffffffffffffffffffffffffffff9990971674010000000000000000000000000000000000000000027fffffffffffffffffffffff0000000000000000000000000000000000000000009096169c169b909b17939093179590951692909217909755968752600481529086208054600181018255908752952090940180547fffffffffffffffffffffffff000000000000000000000000000000000000000016909317909255505050565b6040805160608082018352600080835260208084018290529284018190528581526003835283812073ffffffffffffffffffffffffffffffffffffffff868116835290845290849020845192830185525490811680835274010000000000000000000000000000000000000000820460ff16938301939093527501000000000000000000000000000000000000000000900463ffffffff169281019290925261072e575073ffffffffffffffffffffffffffffffffffffffff81811660009081527f3617319a054d772f909f7c479a2cebe5066e836a939412e32403c99029b92eff602090815260409182902082516060810184529054938416815274010000000000000000000000000000000000000000840460ff1691810191909152750100000000000000000000000000000000000000000090920463ffffffff169082015292915050565b600082815260016020908152604080832073ffffffffffffffffffffffffffffffffffffffff851684529091528120548190808203610da2575073ffffffffffffffffffffffffffffffffffffffff831660009081527fa6eef7e35abe7026729641147f7915573c7e97b47efa546f5f6e3230263bcb4960205260409020545b915050602081901c5b9250929050565b6000818152600460209081526040808320805482518185028101850190935280835260609493830182828015610e1e57602002820191906000526020600020905b815473ffffffffffffffffffffffffffffffffffffffff168152600190910190602001808311610df3575b50506000808052600460209081527f17ef568e3e12ab5b9c7254a8d58478811de00f9e6eb34345acd53bf8fd09d3ec80546040805182850281018501909152818152979850929695509350909150830182828015610eb257602002820191906000526020600020905b815473ffffffffffffffffffffffffffffffffffffffff168152600190910190602001808311610e87575b5050505050905080518251610ec7919061409f565b67ffffffffffffffff811115610edf57610edf6140b2565b604051908082528060200260200182016040528015610f4857816020015b60408051606081018252600080825260208083018290529282015282527fffffffffffffffffffffffffffffffffffffffffffffffffffffffffffffffff909201910181610efd5790505b50825190935060005b8181101561103157600360008781526020019081526020016000206000858381518110610f8057610f806140e1565b60209081029190910181015173ffffffffffffffffffffffffffffffffffffffff908116835282820193909352604091820160002082516060810184529054938416815274010000000000000000000000000000000000000000840460ff1691810191909152750100000000000000000000000000000000000000000090920463ffffffff1690820152855186908390811061101e5761101e6140e1565b6020908102919091010152600101610f51565b5081518160005b828110156111c5576000805b858110156110c25786838151811061105e5761105e6140e1565b602002602001015173ffffffffffffffffffffffffffffffffffffffff1688828151811061108e5761108e6140e1565b602002602001015173ffffffffffffffffffffffffffffffffffffffff16036110ba57600191506110c2565b600101611044565b50806111bc576000808052600360205286517f3617319a054d772f909f7c479a2cebe5066e836a939412e32403c99029b92eff9190889085908110611109576111096140e1565b60209081029190910181015173ffffffffffffffffffffffffffffffffffffffff908116835282820193909352604091820160002082516060810184529054938416815274010000000000000000000000000000000000000000840460ff1691810191909152750100000000000000000000000000000000000000000090920463ffffffff1690820152888461119e81614110565b9550815181106111b0576111b06140e1565b60200260200101819052505b50600101611038565b5085518110156111d3578086525b5050505050919050565b6111e5611c56565b6111ef6000611d1a565b565b600082815260026020908152604080832073ffffffffffffffffffffffffffffffffffffffff808616855292528220541690816112725773ffffffffffffffffffffffffffffffffffffffff80841660009081527fac33ff75c19e70fe83507db0d683fd3465c996598dc972688b7ace676c89077b60205260409020541691505b61127a611ca9565b73ffffffffffffffffffffffffffffffffffffffff168373ffffffffffffffffffffffffffffffffffffffff161090509250929050565b6040517f862026500000000000000000000000000000000000000000000000000000000081526004810189905273ffffffffffffffffffffffffffffffffffffffff7f000000000000000000000000000000000000000000000000000000000000eeee811660248301526000917f000000000000000000000000877e8e31ed1bf9f628efa25636c5bc9dd83baa7790911690638620265090604401602060405180830381865afa158015611369573d6000803e3d6000fd5b505050506040513d601f19601f8201168201806040525081019061138d919061400b565b905073ffffffffffffffffffffffffffffffffffffffff81166113dc576040517f1f5522f600000000000000000000000000000000000000000000000000000000815260040160405180910390fd5b60006113f68a8a6113ef8c8c8989611d8f565b87876120db565b9050611423827f000000000000000000000000000000000000000000000000000000000000eeee836123a0565b60007f0000000000000000000000000000000000000000000000000000000000000001611451576000611453565b815b90508273ffffffffffffffffffffffffffffffffffffffff16639e6eec05828d7f000000000000000000000000000000000000000000000000000000000000eeee868d8d8d8d8d6040518a63ffffffff1660e01b81526004016114bd989796959493929190614191565b6000604051808303818588803b1580156114d657600080fd5b505af11580156114ea573d6000803e3d6000fd5b50505050505050505050505050505050565b83156115c2576040517f6352211e000000000000000000000000000000000000000000000000000000008152600481018590526115bd907f000000000000000000000000f8ea7ba8d990646420123feaa2447b534ab2f53c73ffffffffffffffffffffffffffffffffffffffff1690636352211e90602401602060405180830381865afa158015611591573d6000803e3d6000fd5b505050506040513d601f19601f820116820180604052508101906115b5919061400b565b85601a611b21565b6115ca565b6115ca611c56565b600093845260016020908152604080862073ffffffffffffffffffffffffffffffffffffffff959095168652938152929093209290911b77ffffffffffffffffffffffffffffffffffffffff000000001663ffffffff91909116179055565b611631611c56565b73ffffffffffffffffffffffffffffffffffffffff8116611686576040517f1e4fbdf7000000000000000000000000000000000000000000000000000000008152600060048201526024015b60405180910390fd5b61168f81611d1a565b50565b6000806116a183850185613c5d565b9092509050600073ffffffffffffffffffffffffffffffffffffffff821661eeee146116cd57816116ef565b7f00000000000000000000000042000000000000000000000000000000000000065b600084815260026020908152604080832073ffffffffffffffffffffffffffffffffffffffff80861685529252909120549192501680611772575073ffffffffffffffffffffffffffffffffffffffff80821660009081527fac33ff75c19e70fe83507db0d683fd3465c996598dc972688b7ace676c89077b6020526040902054165b3373ffffffffffffffffffffffffffffffffffffffff8216146117c1576040517ffceada9800000000000000000000000000000000000000000000000000000000815260040160405180910390fd5b60008089126117d057886117d2565b875b90507fffffffffffffffffffffffffffffffffffffffffffffffffffffffffffff111273ffffffffffffffffffffffffffffffffffffffff851601611893577f000000000000000000000000420000000000000000000000000000000000000673ffffffffffffffffffffffffffffffffffffffff1663d0e30db0826040518263ffffffff1660e01b81526004016000604051808303818588803b15801561187957600080fd5b505af115801561188d573d6000803e3d6000fd5b50505050505b6118b473ffffffffffffffffffffffffffffffffffffffff841633836123ec565b505050505050505050565b6040517f86202650000000000000000000000000000000000000000000000000000000008152600481018a905273ffffffffffffffffffffffffffffffffffffffff7f000000000000000000000000000000000000000000000000000000000000eeee8116602483015260009182917f000000000000000000000000877e8e31ed1bf9f628efa25636c5bc9dd83baa771690638620265090604401602060405180830381865afa158015611977573d6000803e3d6000fd5b505050506040513d601f19601f8201168201806040525081019061199b919061400b565b905073ffffffffffffffffffffffffffffffffffffffff81166119ea576040517f1f5522f600000000000000000000000000000000000000000000000000000000815260040160405180910390fd5b6000611a048c8c6119fd8e8e8a8a611d8f565b88886120db565b9050611a31827f000000000000000000000000000000000000000000000000000000000000eeee836123a0565b60007f0000000000000000000000000000000000000000000000000000000000000001611a5f576000611a61565b815b90508273ffffffffffffffffffffffffffffffffffffffff1663fef43257828f7f000000000000000000000000000000000000000000000000000000000000eeee868f8f8f8f8f8f6040518b63ffffffff1660e01b8152600401611acd999897969594939291906141f7565b60206040518083038185885af1158015611aeb573d6000803e3d6000fd5b50505050506040513d601f19601f82011682018060405250810190611b109190614266565b9d9c50505050505050505050505050565b3373ffffffffffffffffffffffffffffffffffffffff84168114801590611c1957506040517f348b684e00000000000000000000000000000000000000000000000000000000815273ffffffffffffffffffffffffffffffffffffffff82811660048301528581166024830152604482018590526064820184905260016084830181905260a48301527f000000000000000000000000cfba13b8dcb2bb4f84c5d2704882009a539bee9a169063348b684e9060c401602060405180830381865afa158015611bf3573d6000803e3d6000fd5b505050506040513d601f19601f82011682018060405250810190611c17919061427f565b155b15611c50576040517f075fd2b100000000000000000000000000000000000000000000000000000000815260040160405180910390fd5b50505050565b60005473ffffffffffffffffffffffffffffffffffffffff1633146111ef576040517f118cdaa700000000000000000000000000000000000000000000000000000000815233600482015260240161167d565b60007f0000000000000000000000000000000000000000000000000000000000000001611cf557507f000000000000000000000000000000000000000000000000000000000000eeee90565b507f000000000000000000000000420000000000000000000000000000000000000690565b6000805473ffffffffffffffffffffffffffffffffffffffff8381167fffffffffffffffffffffffff0000000000000000000000000000000000000000831681178455604051919092169283917f8be0079c531659141344cd1fd0a4f28419497f9722a3daafe3b4186f6b6457e09190a35050565b60007fffffffffffffffffffffffffffffffffffffffffffffffffffffffffffff111273ffffffffffffffffffffffffffffffffffffffff861601611dd55750346120d3565b3415611e0d576040517fbcfd35be00000000000000000000000000000000000000000000000000000000815260040160405180910390fd5b600080611e8d611e516040518060400160405280600781526020017f7065726d6974320000000000000000000000000000000000000000000000000081525061246d565b86868080601f01602080910402602001604051908101604052809392919081815260200183838082843760009201919091525061248192505050565b91509150811561203457600081806020019051810190611ead9190614353565b905086816020015173ffffffffffffffffffffffffffffffffffffffff161015611f03576040517f2fc82b4200000000000000000000000000000000000000000000000000000000815260040160405180910390fd5b6000604051806060016040528060405180608001604052808c73ffffffffffffffffffffffffffffffffffffffff168152602001856020015173ffffffffffffffffffffffffffffffffffffffff168152602001856040015165ffffffffffff168152602001856060015165ffffffffffff1681525081526020013073ffffffffffffffffffffffffffffffffffffffff168152602001836000015181525090507f000000000000000000000000000000000022d473030f116ddee9f6b43ac78ba373ffffffffffffffffffffffffffffffffffffffff16632b67b570338385608001516040518463ffffffff1660e01b8152600401612005939291906144bb565b600060405180830381600087803b15801561201f57600080fd5b505af1925050508015612030575060015b5050505b6120403330898961266e565b6040517f70a0823100000000000000000000000000000000000000000000000000000000815230600482015273ffffffffffffffffffffffffffffffffffffffff8816906370a0823190602401602060405180830381865afa1580156120aa573d6000803e3d6000fd5b505050506040513d601f19601f820116820180604052508101906120ce9190614266565b925050505b949350505050565b60008073ffffffffffffffffffffffffffffffffffffffff861661eeee146121035785612125565b7f00000000000000000000000042000000000000000000000000000000000000065b90506000612131611ca9565b905060008061214487878c878c88612877565b909250905073ffffffffffffffffffffffffffffffffffffffff891661eeee14801561218d57507f00000000000000000000000000000000000000000000000000000000000000015b806121c357508273ffffffffffffffffffffffffffffffffffffffff168473ffffffffffffffffffffffffffffffffffffffff16145b156121d05787945061220f565b61220c8989848673ffffffffffffffffffffffffffffffffffffffff168873ffffffffffffffffffffffffffffffffffffffff16108e86612a53565b94505b6040517f70a0823100000000000000000000000000000000000000000000000000000000815230600482015260009073ffffffffffffffffffffffffffffffffffffffff8616906370a0823190602401602060405180830381865afa15801561227c573d6000803e3d6000fd5b505050506040513d601f19601f820116820180604052508101906122a09190614266565b90508015612392577fffffffffffffffffffffffffffffffffffffffffffffffffffffffffffff111273ffffffffffffffffffffffffffffffffffffffff8b1601612386576040517f2e1a7d4d000000000000000000000000000000000000000000000000000000008152600481018290527f000000000000000000000000420000000000000000000000000000000000000673ffffffffffffffffffffffffffffffffffffffff1690632e1a7d4d90602401600060405180830381600087803b15801561236d57600080fd5b505af1158015612381573d6000803e3d6000fd5b505050505b61239230338c8461266e565b505050505095945050505050565b7f0000000000000000000000000000000000000000000000000000000000000001156123cb57505050565b6102de73ffffffffffffffffffffffffffffffffffffffff83168483612c7c565b60405173ffffffffffffffffffffffffffffffffffffffff8381166024830152604482018390526102de91859182169063a9059cbb906064015b604051602081830303815290604052915060e01b6020820180517bffffffffffffffffffffffffffffffffffffffffffffffffffffffff8381831617835250505050612d2c565b805160208201206000903060601b1861072e565b6000606060258351116124a65750506040805160208101909152600080825290610dab565b6000836124b56004602061409f565b815181106124c5576124c56140e1565b0160209081015160f81c91505b6000856124e060048461409f565b815181106124f0576124f06140e1565b01602001517fff00000000000000000000000000000000000000000000000000000000000000161480159061252e575061252b60208361453d565b81105b156126655760008561254160048461409f565b81518110612551576125516140e1565b016020908101518784019091015160f89190911c91507fffffffff000000000000000000000000000000000000000000000000000000008089169082160361265b5760006125a060208661453d565b6125ab60098661409f565b1015806125f85750876125bf60098661409f565b815181106125cf576125cf6140e1565b01602001517fff0000000000000000000000000000000000000000000000000000000000000016155b6126315760208861260a60098761409f565b8151811061261a5761261a6140e1565b016020015161262c919060f81c61453d565b612634565b87515b9050600161264d8961264760208761453d565b84612dc2565b965096505050505050610dab565b50506005016124d2565b50509250929050565b3073ffffffffffffffffffffffffffffffffffffffff8516036126f8577fffffffffffffffffffffffffffffffffffffffffffffffffffffffffffff111273ffffffffffffffffffffffffffffffffffffffff8316016126d7576126d28382612e08565b611c50565b6126d273ffffffffffffffffffffffffffffffffffffffff831684836123ec565b6040517fdd62ed3e00000000000000000000000000000000000000000000000000000000815273ffffffffffffffffffffffffffffffffffffffff858116600483015230602483015282919084169063dd62ed3e90604401602060405180830381865afa15801561276d573d6000803e3d6000fd5b505050506040513d601f19601f820116820180604052508101906127919190614266565b106127b8576126d273ffffffffffffffffffffffffffffffffffffffff8316858584612ede565b6040517f36c7851600000000000000000000000000000000000000000000000000000000815273ffffffffffffffffffffffffffffffffffffffff85811660048301528481166024830152828116604483015283811660648301527f000000000000000000000000000000000022d473030f116ddee9f6b43ac78ba316906336c7851690608401600060405180830381600087803b15801561285957600080fd5b505af115801561286d573d6000803e3d6000fd5b5050505050505050565b6000806000806128fa6128be6040518060400160405280600c81526020017f71756f7465466f7253776170000000000000000000000000000000000000000081525061246d565b8b8b8080601f01602080910402602001604051908101604052809392919081815260200183838082843760009201919091525061248192505050565b91509150811561292257808060200190518101906129189190614554565b9094509250612a46565b600088815260026020908152604080832073ffffffffffffffffffffffffffffffffffffffff808c168552925290912054169250826129db5773ffffffffffffffffffffffffffffffffffffffff80881660009081527fac33ff75c19e70fe83507db0d683fd3465c996598dc972688b7ace676c89077b6020526040902054169250826129db576040517fa848110400000000000000000000000000000000000000000000000000000000815260040160405180910390fd5b6000806129e88a86610d22565b9150915060006129f88684612f24565b509050612a07818a8c8b6131e8565b9650612710612a2c73ffffffffffffffffffffffffffffffffffffffff84168961453d565b612a3691906145a8565b612a4090886145bc565b96505050505b5050965096945050505050565b60008060008373ffffffffffffffffffffffffffffffffffffffff1663128acb0830888b8a612aa057612a9b600173fffd8963efd1fc6a506488495d951d5263988d266145cf565b612ab0565b612ab06401000276a36001614603565b8a8f604051602001612ae292919091825273ffffffffffffffffffffffffffffffffffffffff16602082015260400190565b6040516020818303038152906040526040518663ffffffff1660e01b8152600401612b11959493929190614630565b60408051808303816000875af1158015612b2f573d6000803e3d6000fd5b505050506040513d601f19601f82011682018060405250810190612b539190614682565b9150915085612b625781612b64565b805b612b6d906146a6565b925086831015612ba9576040517ff975951800000000000000000000000000000000000000000000000000000000815260040160405180910390fd5b7f000000000000000000000000000000000000000000000000000000000000000115612c70576040517f2e1a7d4d000000000000000000000000000000000000000000000000000000008152600481018490527f000000000000000000000000420000000000000000000000000000000000000673ffffffffffffffffffffffffffffffffffffffff1690632e1a7d4d90602401600060405180830381600087803b158015612c5757600080fd5b505af1158015612c6b573d6000803e3d6000fd5b505050505b50509695505050505050565b6040517fdd62ed3e00000000000000000000000000000000000000000000000000000000815230600482015273ffffffffffffffffffffffffffffffffffffffff83811660248301526000919085169063dd62ed3e90604401602060405180830381865afa158015612cf2573d6000803e3d6000fd5b505050506040513d601f19601f82011682018060405250810190612d169190614266565b9050611c508484612d27858561409f565b6133be565b6000612d4e73ffffffffffffffffffffffffffffffffffffffff841683613496565b90508051600014158015612d73575080806020019051810190612d71919061427f565b155b156102de576040517f5274afe700000000000000000000000000000000000000000000000000000000815273ffffffffffffffffffffffffffffffffffffffff8416600482015260240161167d565b60608282036040519150602081830101604052808252508260208501016020820160005b84811015612dfe578281015182820152602001612de6565b5050509392505050565b80471015612e44576040517fcd78605900000000000000000000000000000000000000000000000000000000815230600482015260240161167d565b60008273ffffffffffffffffffffffffffffffffffffffff168260405160006040518083038185875af1925050503d8060008114612e9e576040519150601f19603f3d011682016040523d82523d6000602084013e612ea3565b606091505b50509050806102de576040517f1425ea4200000000000000000000000000000000000000000000000000000000815260040160405180910390fd5b60405173ffffffffffffffffffffffffffffffffffffffff8481166024830152838116604483015260648201839052611c509186918216906323b872dd90608401612426565b6000808263ffffffff16600003612f97576040517f08c379a000000000000000000000000000000000000000000000000000000000815260206004820152600260248201527f4250000000000000000000000000000000000000000000000000000000000000604482015260640161167d565b6040805160028082526060820183526000926020830190803683370190505090508381600081518110612fcc57612fcc6140e1565b602002602001019063ffffffff16908163ffffffff1681525050600081600181518110612ffb57612ffb6140e1565b602002602001019063ffffffff16908163ffffffff16815250506000808673ffffffffffffffffffffffffffffffffffffffff1663883bdbfd846040518263ffffffff1660e01b815260040161305191906146de565b600060405180830381865afa15801561306e573d6000803e3d6000fd5b505050506040513d6000823e601f3d9081017fffffffffffffffffffffffffffffffffffffffffffffffffffffffffffffffe01682016040526130b491908101906147b8565b915091506000826000815181106130cd576130cd6140e1565b6020026020010151836001815181106130e8576130e86140e1565b60200260200101516130fa9190614884565b9050600082600081518110613111576131116140e1565b60200260200101518360018151811061312c5761312c6140e1565b602002602001015161313e91906145cf565b905061315063ffffffff8916836148c9565b965060008260060b128015613176575061317063ffffffff89168361493d565b60060b15155b1561318957866131858161495f565b9750505b60006131af73ffffffffffffffffffffffffffffffffffffffff63ffffffff8b166149bc565b90506131d977ffffffffffffffffffffffffffffffffffffffff00000000602084901b16826149ff565b96505050505050509250929050565b6000806131f4866134ab565b90506fffffffffffffffffffffffffffffffff73ffffffffffffffffffffffffffffffffffffffff8216116132f357600061324573ffffffffffffffffffffffffffffffffffffffff83168061453d565b90508373ffffffffffffffffffffffffffffffffffffffff168573ffffffffffffffffffffffffffffffffffffffff16106132b5576132b07801000000000000000000000000000000000000000000000000876fffffffffffffffffffffffffffffffff1683613812565b6132eb565b6132eb81876fffffffffffffffffffffffffffffffff167801000000000000000000000000000000000000000000000000613812565b9250506133b5565b600061331f73ffffffffffffffffffffffffffffffffffffffff83168068010000000000000000613812565b90508373ffffffffffffffffffffffffffffffffffffffff168573ffffffffffffffffffffffffffffffffffffffff161061338757613382700100000000000000000000000000000000876fffffffffffffffffffffffffffffffff1683613812565b6120ce565b6120ce81876fffffffffffffffffffffffffffffffff16700100000000000000000000000000000000613812565b50949350505050565b6040805173ffffffffffffffffffffffffffffffffffffffff8416602482015260448082018490528251808303909101815260649091019091526020810180517bffffffffffffffffffffffffffffffffffffffffffffffffffffffff167f095ea7b30000000000000000000000000000000000000000000000000000000017905261344a84826138e2565b611c505760405173ffffffffffffffffffffffffffffffffffffffff84811660248301526000604483015261348c91869182169063095ea7b390606401612426565b611c508482612d2c565b60606134a4838360006139a4565b9392505050565b60008060008360020b126134c2578260020b6134ca565b8260020b6000035b9050620d89e8811115613509576040517f2bc80f3a00000000000000000000000000000000000000000000000000000000815260040160405180910390fd5b60008160011660000361352d5770010000000000000000000000000000000061353f565b6ffffcb933bd6fad37aa2d162d1a5940015b70ffffffffffffffffffffffffffffffffff1690506002821615613573576ffff97272373d413259a46990580e213a0260801c5b6004821615613592576ffff2e50f5f656932ef12357cf3c7fdcc0260801c5b60088216156135b1576fffe5caca7e10e4e61c3624eaa0941cd00260801c5b60108216156135d0576fffcb9843d60f6159c9db58835c9266440260801c5b60208216156135ef576fff973b41fa98c081472e6896dfb254c00260801c5b604082161561360e576fff2ea16466c96a3843ec78b326b528610260801c5b608082161561362d576ffe5dee046a99a2a811c461f1969c30530260801c5b61010082161561364d576ffcbe86c7900a88aedcffc83b479aa3a40260801c5b61020082161561366d576ff987a7253ac413176f2b074cf7815e540260801c5b61040082161561368d576ff3392b0822b70005940c7a398e4b70f30260801c5b6108008216156136ad576fe7159475a2c29b7443b29c7fa6e889d90260801c5b6110008216156136cd576fd097f3bdfd2022b8845ad8f792aa58250260801c5b6120008216156136ed576fa9f746462d870fdf8a65dc1f90e061e50260801c5b61400082161561370d576f70d869a156d2a1b890bb3df62baf32f70260801c5b61800082161561372d576f31be135f97d08fd981231505542fcfa60260801c5b6201000082161561374e576f09aa508b5b7a84e1c677de54f3e99bc90260801c5b6202000082161561376e576e5d6af8dedb81196699c329225ee6040260801c5b6204000082161561378d576d2216e584f5fa1ea926041bedfe980260801c5b620800008216156137aa576b048a170391f7dc42444e8fa20260801c5b60008460020b13156137e957807fffffffffffffffffffffffffffffffffffffffffffffffffffffffffffffffff816137e5576137e5614579565b0490505b6401000000008106156137fd576001613800565b60005b60ff16602082901c0192505050919050565b600080807fffffffffffffffffffffffffffffffffffffffffffffffffffffffffffffffff85870985870292508281108382030391505080600003613869576000841161385e57600080fd5b5082900490506134a4565b80841161387557600080fd5b6000848688096000868103871696879004966002600389028118808a02820302808a02820302808a02820302808a02820302808a02820302808a02909103029181900381900460010186841190950394909402919094039290920491909117919091029150509392505050565b60008060008473ffffffffffffffffffffffffffffffffffffffff168460405161390c9190614a36565b6000604051808303816000865af19150503d8060008114613949576040519150601f19603f3d011682016040523d82523d6000602084013e61394e565b606091505b5091509150818015613978575080511580613978575080806020019051810190613978919061427f565b801561399b575060008573ffffffffffffffffffffffffffffffffffffffff163b115b95945050505050565b6060814710156139e2576040517fcd78605900000000000000000000000000000000000000000000000000000000815230600482015260240161167d565b6000808573ffffffffffffffffffffffffffffffffffffffff168486604051613a0b9190614a36565b60006040518083038185875af1925050503d8060008114613a48576040519150601f19603f3d011682016040523d82523d6000602084013e613a4d565b606091505b5091509150613a5d868383613a67565b9695505050505050565b606082613a7c57613a7782613af6565b6134a4565b8151158015613aa0575073ffffffffffffffffffffffffffffffffffffffff84163b155b15613aef576040517f9996b31500000000000000000000000000000000000000000000000000000000815273ffffffffffffffffffffffffffffffffffffffff8516600482015260240161167d565b50806134a4565b805115613b065780518082602001fd5b6040517f1425ea4200000000000000000000000000000000000000000000000000000000815260040160405180910390fd5b600060208284031215613b4a57600080fd5b81357fffffffff00000000000000000000000000000000000000000000000000000000811681146134a457600080fd5b73ffffffffffffffffffffffffffffffffffffffff8116811461168f57600080fd5b600080600060608486031215613bb157600080fd5b833592506020840135613bc381613b7a565b91506040840135613bd381613b7a565b809150509250925092565b600080600060408486031215613bf357600080fd5b83359250602084013567ffffffffffffffff80821115613c1257600080fd5b818601915086601f830112613c2657600080fd5b813581811115613c3557600080fd5b876020606083028501011115613c4a57600080fd5b6020830194508093505050509250925092565b60008060408385031215613c7057600080fd5b823591506020830135613c8281613b7a565b809150509250929050565b815173ffffffffffffffffffffffffffffffffffffffff16815260208083015160ff169082015260408083015163ffffffff16908201526060810161072e565b600060208284031215613cdf57600080fd5b5035919050565b6020808252825182820181905260009190848201906040850190845b81811015613d5b57613d48838551805173ffffffffffffffffffffffffffffffffffffffff16825260208082015160ff169083015260409081015163ffffffff16910152565b9284019260609290920191600101613d02565b50909695505050505050565b801515811461168f57600080fd5b60008083601f840112613d8757600080fd5b50813567ffffffffffffffff811115613d9f57600080fd5b602083019150836020828501011115610dab57600080fd5b60008060008060008060008060c0898b031215613dd357600080fd5b883597506020890135613de581613b7a565b9650604089013595506060890135613dfc81613d67565b9450608089013567ffffffffffffffff80821115613e1957600080fd5b613e258c838d01613d75565b909650945060a08b0135915080821115613e3e57600080fd5b50613e4b8b828c01613d75565b999c989b5096995094979396929594505050565b60008060008060808587031215613e7557600080fd5b843593506020850135613e8781613b7a565b9250604085013563ffffffff81168114613ea057600080fd5b91506060850135613eb081613b7a565b939692955090935050565b600080600060608486031215613ed057600080fd5b505081359360208301359350604090920135919050565b600060208284031215613ef957600080fd5b81356134a481613b7a565b60008060008060608587031215613f1a57600080fd5b8435935060208501359250604085013567ffffffffffffffff811115613f3f57600080fd5b613f4b87828801613d75565b95989497509550505050565b600080600080600080600080600060e08a8c031215613f7557600080fd5b8935985060208a0135613f8781613b7a565b975060408a0135965060608a0135613f9e81613b7a565b955060808a0135945060a08a013567ffffffffffffffff80821115613fc257600080fd5b613fce8d838e01613d75565b909650945060c08c0135915080821115613fe757600080fd5b50613ff48c828d01613d75565b915080935050809150509295985092959850929598565b60006020828403121561401d57600080fd5b81516134a481613b7a565b60006020828403121561403a57600080fd5b815162ffffff811681146134a457600080fd5b60006020828403121561405f57600080fd5b815160ff811681146134a457600080fd5b7f4e487b7100000000000000000000000000000000000000000000000000000000600052601160045260246000fd5b8082018082111561072e5761072e614070565b7f4e487b7100000000000000000000000000000000000000000000000000000000600052604160045260246000fd5b7f4e487b7100000000000000000000000000000000000000000000000000000000600052603260045260246000fd5b60007fffffffffffffffffffffffffffffffffffffffffffffffffffffffffffffffff820361414157614141614070565b5060010190565b8183528181602085013750600060208284010152600060207fffffffffffffffffffffffffffffffffffffffffffffffffffffffffffffffe0601f840116840101905092915050565b88815273ffffffffffffffffffffffffffffffffffffffff88166020820152866040820152851515606082015260c0608082015260006141d560c083018688614148565b82810360a08401526141e8818587614148565b9b9a5050505050505050505050565b898152600073ffffffffffffffffffffffffffffffffffffffff808b16602084015289604084015280891660608401525086608083015260e060a083015261424360e083018688614148565b82810360c0840152614256818587614148565b9c9b505050505050505050505050565b60006020828403121561427857600080fd5b5051919050565b60006020828403121561429157600080fd5b81516134a481613d67565b60405160a0810167ffffffffffffffff811182821017156142bf576142bf6140b2565b60405290565b604051601f82017fffffffffffffffffffffffffffffffffffffffffffffffffffffffffffffffe016810167ffffffffffffffff8111828210171561430c5761430c6140b2565b604052919050565b805165ffffffffffff8116811461432a57600080fd5b919050565b60005b8381101561434a578181015183820152602001614332565b50506000910152565b6000602080838503121561436657600080fd5b825167ffffffffffffffff8082111561437e57600080fd5b9084019060a0828703121561439257600080fd5b61439a61429c565b82518152838301516143ab81613b7a565b818501526143bb60408401614314565b60408201526143cc60608401614314565b60608201526080830151828111156143e357600080fd5b80840193505086601f8401126143f857600080fd5b82518281111561440a5761440a6140b2565b61443a857fffffffffffffffffffffffffffffffffffffffffffffffffffffffffffffffe0601f840116016142c5565b9250808352878582860101111561445057600080fd5b61445f8186850187870161432f565b50608081019190915295945050505050565b6000815180845261448981602086016020860161432f565b601f017fffffffffffffffffffffffffffffffffffffffffffffffffffffffffffffffe0169290920160200192915050565b600061010073ffffffffffffffffffffffffffffffffffffffff80871684528551818151166020860152816020820151166040860152604081015165ffffffffffff80821660608801528060608401511660808801525050508060208701511660a085015250604085015160c08401528060e0840152613a5d81840185614471565b808202811582820484141761072e5761072e614070565b6000806040838503121561456757600080fd5b825191506020830151613c8281613b7a565b7f4e487b7100000000000000000000000000000000000000000000000000000000600052601260045260246000fd5b6000826145b7576145b7614579565b500490565b8181038181111561072e5761072e614070565b73ffffffffffffffffffffffffffffffffffffffff8281168282160390808211156145fc576145fc614070565b5092915050565b73ffffffffffffffffffffffffffffffffffffffff8181168382160190808211156145fc576145fc614070565b600073ffffffffffffffffffffffffffffffffffffffff8088168352861515602084015285604084015280851660608401525060a0608083015261467760a0830184614471565b979650505050505050565b6000806040838503121561469557600080fd5b505080516020909101519092909150565b60007f800000000000000000000000000000000000000000000000000000000000000082036146d7576146d7614070565b5060000390565b6020808252825182820181905260009190848201906040850190845b81811015613d5b57835163ffffffff16835292840192918401916001016146fa565b600067ffffffffffffffff821115614736576147366140b2565b5060051b60200190565b600082601f83011261475157600080fd5b815160206147666147618361471c565b6142c5565b8083825260208201915060208460051b87010193508684111561478857600080fd5b602086015b848110156147ad5780516147a081613b7a565b835291830191830161478d565b509695505050505050565b600080604083850312156147cb57600080fd5b825167ffffffffffffffff808211156147e357600080fd5b818501915085601f8301126147f757600080fd5b815160206148076147618361471c565b82815260059290921b8401810191818101908984111561482657600080fd5b948201945b838610156148545785518060060b81146148455760008081fd5b8252948201949082019061482b565b9188015191965090935050508082111561486d57600080fd5b5061487a85828601614740565b9150509250929050565b600682810b9082900b037fffffffffffffffffffffffffffffffffffffffffffffffffff800000000000008112667fffffffffffff8213171561072e5761072e614070565b60008160060b8360060b806148e0576148e0614579565b7fffffffffffffffffffffffffffffffffffffffffffffffffffffffffffffffff81147fffffffffffffffffffffffffffffffffffffffffffffffffff800000000000008314161561493457614934614070565b90059392505050565b60008260060b8061495057614950614579565b808360060b0791505092915050565b60008160020b7fffffffffffffffffffffffffffffffffffffffffffffffffffffffffff800000810361499457614994614070565b7fffffffffffffffffffffffffffffffffffffffffffffffffffffffffffffffff0192915050565b77ffffffffffffffffffffffffffffffffffffffffffffffff8281168282168181028316929181158285048214176149f6576149f6614070565b50505092915050565b600077ffffffffffffffffffffffffffffffffffffffffffffffff80841680614a2a57614a2a614579565b92169190910492915050565b60008251614a4881846020870161432f565b919091019291505056fea26469706673582212209d31bdf02a247ceb8f93a8560b93a591c895f20b323400c7b9a8c316f4c7324d64736f6c63430008170033",
	"devdoc": {
		"kind": "dev",
		"methods": {
			"accountingContextForTokenOf(uint256,address)": {
				"details": "Accounting contexts are set up in `addDefaultPool(...)`.",
				"params": {
					"projectId": "The ID of the project to get the accounting context for.",
					"token": "The address of the token to get the accounting context for."
				},
				"returns": {
					"context": "A `JBAccountingContext` containing the accounting context for the project ID and token."
				}
			},
			"accountingContextsOf(uint256)": {
				"details": "This includes both project-specific and generic accounting contexts, with the project-specific contexts         taking precedence.",
				"params": {
					"projectId": "The ID of the project to get the accounting contexts for."
				},
				"returns": {
					"contexts": "An array of `JBAccountingContext` containing the accounting contexts for the project ID."
				}
			},
			"addDefaultPool(uint256,address,address)": {
				"details": "The pool should have been deployed by the factory associated to this contract. We don't rely on create2 address as this terminal might be used on other chain, where the factory bytecode might differ or the main dex be a fork.",
				"params": {
					"pool": "The Uniswap V3 pool to set as the default for the specified token.",
					"projectId": "The ID of the project to set the default pool for. The project 0 acts as a catch-all, where non-set pools are defaulted to.",
					"token": "The address of the token to set the default pool for."
				}
			},
			"addToBalanceOf(uint256,address,uint256,bool,string,bytes)": {
				"details": "This function handles the token in transfer, potentially swaps the tokens to the desired output token, and then adds the swapped tokens to the project's balance in the specified terminal.",
				"params": {
					"amount": "The amount of tokens being paid in.",
					"memo": "A memo to pass along to the emitted event.",
					"metadata": "Bytes in `JBMetadataResolver`'s format which can contain additional data for the swap and adding to balance.",
					"projectId": "The ID of the project for which funds are being accepted and added to its balance.",
					"shouldReturnHeldFees": "A boolean to indicate whether held fees should be returned.",
					"token": "The address of the token being paid in."
				}
			},
			"addTwapParamsFor(uint256,address,uint32,uint160)": {
				"params": {
					"projectId": "The ID of the project to set the TWAP-based quote rules for.",
					"secondsAgo": "The period of time over which the TWAP is calculated, in seconds.",
					"slippageTolerance": "The maximum spread allowed between the amount received and the TWAP (as a fraction out of `SLIPPAGE_DENOMINATOR`)."
				}
			},
			"getPoolFor(uint256,address)": {
				"params": {
					"projectId": "The ID of the project to retrieve the default pool for.",
					"tokenIn": "The address of the token to retrieve the default pool for."
				},
				"returns": {
					"pool": "The default pool for the token, or the overall default pool for the token if the"
				}
			},
			"owner()": {
				"details": "Returns the address of the current owner."
			},
			"pay(uint256,address,uint256,address,uint256,string,bytes)": {
				"params": {
					"amount": "The amount of tokens being paid in, as a fixed point number with the same amount of decimals as the `token`. If `token` is the native token, `amount` is ignored and `msg.value` is used in its place.",
					"beneficiary": "The beneficiary address to pass along to the other terminal. If the other terminal mints tokens, for example, they will be minted for this address.",
					"memo": "A memo to pass along to the emitted event.",
					"metadata": "Bytes in `JBMetadataResolver`'s format which can contain a quote from the user/client. The quote should contain a minimum amount of tokens to receive from the swap and the pool to use. This metadata is also passed to the other terminal's emitted event, as well as its data hook and pay hook if applicable.",
					"minReturnedTokens": "The minimum number of project tokens expected in return, as a fixed point number with the same number of decimals as the other terminal. This value will be passed along to the other terminal.",
					"projectId": "The ID of the project being paid.",
					"token": "The address of the token being paid in."
				},
				"returns": {
					"_0": "The number of tokens received from the swap, as a fixed point number with the same amount of decimals as that token."
				}
			},
			"renounceOwnership()": {
				"details": "Leaves the contract without owner. It will not be possible to call `onlyOwner` functions. Can only be called by the current owner. NOTE: Renouncing ownership will leave the contract without an owner, thereby disabling any functionality that is only available to the owner."
			},
			"supportsInterface(bytes4)": {
				"details": "See {IERC165-supportsInterface}.",
				"params": {
					"interfaceId": "The ID of the interface to check for adherance to."
				},
				"returns": {
					"_0": "A flag indicating if the provided interface ID is supported."
				}
			},
			"transferOwnership(address)": {
				"details": "Transfers ownership of the contract to a new account (`newOwner`). Can only be called by the current owner."
			},
			"twapParamsOf(uint256,address)": {
				"params": {
					"projectId": "The ID of the project to retrieve TWAP parameters for."
				},
				"returns": {
					"secondsAgo": "The period of time in the past to calculate the TWAP from.",
					"slippageTolerance": "The maximum allowed slippage tolerance when calculating the TWAP, as a fraction out of `SLIPPAGE_DENOMINATOR`."
				}
			},
			"uniswapV3SwapCallback(int256,int256,bytes)": {
				"details": "Only an uniswap v3 pool can call this function",
				"params": {
					"amount0Delta": "The amount of token 0 being used for the swap.",
					"amount1Delta": "The amount of token 1 being used for the swap.",
					"data": "Data passed in by the swap operation."
				}
			}
		},
		"version": 1
	},
	"userdoc": {
		"kind": "user",
		"methods": {
			"DEFAULT_PROJECT_ID()": {
				"notice": "The ID to store default values in."
			},
			"DIRECTORY()": {
				"notice": "The directory of terminals and controllers for `PROJECTS`."
			},
			"FACTORY()": {
				"notice": "The factory to use for creating new pools"
			},
			"PERMISSIONS()": {
				"notice": "A contract storing permissions."
			},
			"PERMIT2()": {
				"notice": "The permit2 utility."
			},
			"PROJECTS()": {
				"notice": "Mints ERC-721s that represent project ownership and transfers."
			},
			"SLIPPAGE_DENOMINATOR()": {
				"notice": "The denominator used when calculating TWAP slippage tolerance values."
			},
			"TOKEN_OUT()": {
				"notice": "The token which flows out of this terminal (JBConstants.NATIVE_TOKEN for the chain native token)"
			},
			"WETH()": {
				"notice": "The ERC-20 wrapper for the native token."
			},
			"accountingContextForTokenOf(uint256,address)": {
				"notice": "Get the accounting context for the specified project ID and token."
			},
			"accountingContextsOf(uint256)": {
				"notice": "Return all the accounting contexts for a specified project ID."
			},
			"addAccountingContextsFor(uint256,(address,uint8,uint32)[])": {
				"notice": "Empty implementation to satisfy the interface. Accounting contexts are set in `addDefaultPool(...)`."
			},
			"addDefaultPool(uint256,address,address)": {
				"notice": "Set a project's default pool and accounting context for the specified token. Only the project's owner, an address with `MODIFY_DEFAULT_POOL` permission from the owner or the terminal owner can call this function."
			},
			"addToBalanceOf(uint256,address,uint256,bool,string,bytes)": {
				"notice": "Accepts funds for a given project, swaps them if necessary, and adds them to the project's balance in the specified terminal."
			},
			"addTwapParamsFor(uint256,address,uint32,uint160)": {
				"notice": "Set the specified project's rules for calculating a quote based on the TWAP. Only the project's owner or an address with `MODIFY_TWAP_PARAMS` permission from the owner  or the terminal owner can call this function."
			},
			"currentSurplusOf(uint256,uint256,uint256)": {
				"notice": "Empty implementation to satisfy the interface. This terminal has no surplus."
			},
			"getPoolFor(uint256,address)": {
				"notice": "Returns the default pool for a given project and token or, if a project has no default pool for the         token, the overal default pool for the token"
			},
			"migrateBalanceOf(uint256,address,address)": {
				"notice": "Empty implementation to satisfy the interface."
			},
			"pay(uint256,address,uint256,address,uint256,string,bytes)": {
				"notice": "Pay a project by swapping the incoming tokens for tokens that one of the project's other terminals accepts, passing along the funds received from the swap and the specified parameters."
			},
			"supportsInterface(bytes4)": {
				"notice": "Indicates if this contract adheres to the specified interface."
			},
			"twapParamsOf(uint256,address)": {
				"notice": "Returns the default twap parameters for a given pool project."
			},
			"uniswapV3SwapCallback(int256,int256,bytes)": {
				"notice": "The Uniswap v3 pool callback where the token transfer is expected to happen."
			}
		},
		"version": 1
	},
	"gitCommit": "3d0e0157e3ce59499d38f53ab203ba155979c202",
	"sourceName": "src/JBSwapTerminal.sol",
	"chainId": "84532",
	"linkReferences": {},
	"deployedLinkReferences": {},
	"history": []
}