{
	"_format": "sphinx-sol-ct-artifact-1",
	"merkleRoot": "0xa8ad0e14555b6c2d37b7c4182a2de3fd47a2eace0ebd991dd0bb596b54386b2d",
	"address": "0x0acd3d7d88df218c078570c027c25f9e40e118e4",
	"sourceName": "src/JBSwapTerminal.sol",
	"contractName": "JBSwapTerminal",
	"chainId": "0xaa36a7",
	"abi": [
		{
			"inputs": [
				{
					"internalType": "contract IJBDirectory",
					"name": "directory",
					"type": "address"
				},
				{
					"internalType": "contract IJBPermissions",
					"name": "permissions",
					"type": "address"
				},
				{
					"internalType": "contract IJBProjects",
					"name": "projects",
					"type": "address"
				},
				{
					"internalType": "contract IPermit2",
					"name": "permit2",
					"type": "address"
				},
				{
					"internalType": "address",
					"name": "owner",
					"type": "address"
				},
				{
					"internalType": "contract IWETH9",
					"name": "weth",
					"type": "address"
				},
				{
					"internalType": "address",
					"name": "tokenOut",
					"type": "address"
				},
				{
					"internalType": "contract IUniswapV3Factory",
					"name": "factory",
					"type": "address"
				}
			],
			"stateMutability": "nonpayable",
			"type": "constructor"
		},
		{
			"stateMutability": "payable",
			"type": "receive"
		},
		{
			"inputs": [],
			"name": "DEFAULT_PROJECT_ID",
			"outputs": [
				{
					"internalType": "uint256",
					"name": "",
					"type": "uint256"
				}
			],
			"stateMutability": "view",
			"type": "function"
		},
		{
			"inputs": [],
			"name": "DIRECTORY",
			"outputs": [
				{
					"internalType": "contract IJBDirectory",
					"name": "",
					"type": "address"
				}
			],
			"stateMutability": "view",
			"type": "function"
		},
		{
			"inputs": [],
			"name": "FACTORY",
			"outputs": [
				{
					"internalType": "contract IUniswapV3Factory",
					"name": "",
					"type": "address"
				}
			],
			"stateMutability": "view",
			"type": "function"
		},
		{
			"inputs": [],
			"name": "MAX_TWAP_SLIPPAGE_TOLERANCE",
			"outputs": [
				{
					"internalType": "uint256",
					"name": "",
					"type": "uint256"
				}
			],
			"stateMutability": "view",
			"type": "function"
		},
		{
			"inputs": [],
			"name": "MAX_TWAP_WINDOW",
			"outputs": [
				{
					"internalType": "uint256",
					"name": "",
					"type": "uint256"
				}
			],
			"stateMutability": "view",
			"type": "function"
		},
		{
			"inputs": [],
			"name": "MIN_TWAP_SLIPPAGE_TOLERANCE",
			"outputs": [
				{
					"internalType": "uint256",
					"name": "",
					"type": "uint256"
				}
			],
			"stateMutability": "view",
			"type": "function"
		},
		{
			"inputs": [],
			"name": "MIN_TWAP_WINDOW",
			"outputs": [
				{
					"internalType": "uint256",
					"name": "",
					"type": "uint256"
				}
			],
			"stateMutability": "view",
			"type": "function"
		},
		{
			"inputs": [],
			"name": "PERMISSIONS",
			"outputs": [
				{
					"internalType": "contract IJBPermissions",
					"name": "",
					"type": "address"
				}
			],
			"stateMutability": "view",
			"type": "function"
		},
		{
			"inputs": [],
			"name": "PERMIT2",
			"outputs": [
				{
					"internalType": "contract IPermit2",
					"name": "",
					"type": "address"
				}
			],
			"stateMutability": "view",
			"type": "function"
		},
		{
			"inputs": [],
			"name": "PROJECTS",
			"outputs": [
				{
					"internalType": "contract IJBProjects",
					"name": "",
					"type": "address"
				}
			],
			"stateMutability": "view",
			"type": "function"
		},
		{
			"inputs": [],
			"name": "SLIPPAGE_DENOMINATOR",
			"outputs": [
				{
					"internalType": "uint160",
					"name": "",
					"type": "uint160"
				}
			],
			"stateMutability": "view",
			"type": "function"
		},
		{
			"inputs": [],
			"name": "TOKEN_OUT",
			"outputs": [
				{
					"internalType": "address",
					"name": "",
					"type": "address"
				}
			],
			"stateMutability": "view",
			"type": "function"
		},
		{
			"inputs": [],
			"name": "WETH",
			"outputs": [
				{
					"internalType": "contract IWETH9",
					"name": "",
					"type": "address"
				}
			],
			"stateMutability": "view",
			"type": "function"
		},
		{
			"inputs": [
				{
					"internalType": "uint256",
					"name": "projectId",
					"type": "uint256"
				},
				{
					"internalType": "address",
					"name": "token",
					"type": "address"
				}
			],
			"name": "accountingContextForTokenOf",
			"outputs": [
				{
					"components": [
						{
							"internalType": "address",
							"name": "token",
							"type": "address"
						},
						{
							"internalType": "uint8",
							"name": "decimals",
							"type": "uint8"
						},
						{
							"internalType": "uint32",
							"name": "currency",
							"type": "uint32"
						}
					],
					"internalType": "struct JBAccountingContext",
					"name": "context",
					"type": "tuple"
				}
			],
			"stateMutability": "view",
			"type": "function"
		},
		{
			"inputs": [
				{
					"internalType": "uint256",
					"name": "projectId",
					"type": "uint256"
				}
			],
			"name": "accountingContextsOf",
			"outputs": [
				{
					"components": [
						{
							"internalType": "address",
							"name": "token",
							"type": "address"
						},
						{
							"internalType": "uint8",
							"name": "decimals",
							"type": "uint8"
						},
						{
							"internalType": "uint32",
							"name": "currency",
							"type": "uint32"
						}
					],
					"internalType": "struct JBAccountingContext[]",
					"name": "contexts",
					"type": "tuple[]"
				}
			],
			"stateMutability": "view",
			"type": "function"
		},
		{
			"inputs": [
				{
					"internalType": "uint256",
					"name": "projectId",
					"type": "uint256"
				},
				{
					"components": [
						{
							"internalType": "address",
							"name": "token",
							"type": "address"
						},
						{
							"internalType": "uint8",
							"name": "decimals",
							"type": "uint8"
						},
						{
							"internalType": "uint32",
							"name": "currency",
							"type": "uint32"
						}
					],
					"internalType": "struct JBAccountingContext[]",
					"name": "accountingContexts",
					"type": "tuple[]"
				}
			],
			"name": "addAccountingContextsFor",
			"outputs": [],
			"stateMutability": "nonpayable",
			"type": "function"
		},
		{
			"inputs": [
				{
					"internalType": "uint256",
					"name": "projectId",
					"type": "uint256"
				},
				{
					"internalType": "address",
					"name": "token",
					"type": "address"
				},
				{
					"internalType": "contract IUniswapV3Pool",
					"name": "pool",
					"type": "address"
				}
			],
			"name": "addDefaultPool",
			"outputs": [],
			"stateMutability": "nonpayable",
			"type": "function"
		},
		{
			"inputs": [
				{
					"internalType": "uint256",
					"name": "projectId",
					"type": "uint256"
				},
				{
					"internalType": "address",
					"name": "token",
					"type": "address"
				},
				{
					"internalType": "uint256",
					"name": "amount",
					"type": "uint256"
				},
				{
					"internalType": "bool",
					"name": "shouldReturnHeldFees",
					"type": "bool"
				},
				{
					"internalType": "string",
					"name": "memo",
					"type": "string"
				},
				{
					"internalType": "bytes",
					"name": "metadata",
					"type": "bytes"
				}
			],
			"name": "addToBalanceOf",
			"outputs": [],
			"stateMutability": "payable",
			"type": "function"
		},
		{
			"inputs": [
				{
					"internalType": "uint256",
					"name": "projectId",
					"type": "uint256"
				},
				{
					"internalType": "contract IUniswapV3Pool",
					"name": "pool",
					"type": "address"
				},
				{
					"internalType": "uint256",
					"name": "twapWindow",
					"type": "uint256"
				},
				{
					"internalType": "uint256",
					"name": "slippageTolerance",
					"type": "uint256"
				}
			],
			"name": "addTwapParamsFor",
			"outputs": [],
			"stateMutability": "nonpayable",
			"type": "function"
		},
		{
			"inputs": [
				{
					"internalType": "uint256",
					"name": "projectId",
					"type": "uint256"
				},
				{
					"components": [
						{
							"internalType": "address",
							"name": "token",
							"type": "address"
						},
						{
							"internalType": "uint8",
							"name": "decimals",
							"type": "uint8"
						},
						{
							"internalType": "uint32",
							"name": "currency",
							"type": "uint32"
						}
					],
					"internalType": "struct JBAccountingContext[]",
					"name": "accountingContexts",
					"type": "tuple[]"
				},
				{
					"internalType": "uint256",
					"name": "decimals",
					"type": "uint256"
				},
				{
					"internalType": "uint256",
					"name": "currency",
					"type": "uint256"
				}
			],
			"name": "currentSurplusOf",
			"outputs": [
				{
					"internalType": "uint256",
					"name": "",
					"type": "uint256"
				}
			],
			"stateMutability": "view",
			"type": "function"
		},
		{
			"inputs": [
				{
					"internalType": "uint256",
					"name": "projectId",
					"type": "uint256"
				},
				{
					"internalType": "address",
					"name": "tokenIn",
					"type": "address"
				}
			],
			"name": "getPoolFor",
			"outputs": [
				{
					"internalType": "contract IUniswapV3Pool",
					"name": "pool",
					"type": "address"
				},
				{
					"internalType": "bool",
					"name": "zeroForOne",
					"type": "bool"
				}
			],
			"stateMutability": "view",
			"type": "function"
		},
		{
			"inputs": [
				{
					"internalType": "uint256",
					"name": "projectId",
					"type": "uint256"
				},
				{
					"internalType": "address",
					"name": "token",
					"type": "address"
				},
				{
					"internalType": "contract IJBTerminal",
					"name": "to",
					"type": "address"
				}
			],
			"name": "migrateBalanceOf",
			"outputs": [
				{
					"internalType": "uint256",
					"name": "balance",
					"type": "uint256"
				}
			],
			"stateMutability": "nonpayable",
			"type": "function"
		},
		{
			"inputs": [],
			"name": "owner",
			"outputs": [
				{
					"internalType": "address",
					"name": "",
					"type": "address"
				}
			],
			"stateMutability": "view",
			"type": "function"
		},
		{
			"inputs": [
				{
					"internalType": "uint256",
					"name": "projectId",
					"type": "uint256"
				},
				{
					"internalType": "address",
					"name": "token",
					"type": "address"
				},
				{
					"internalType": "uint256",
					"name": "amount",
					"type": "uint256"
				},
				{
					"internalType": "address",
					"name": "beneficiary",
					"type": "address"
				},
				{
					"internalType": "uint256",
					"name": "minReturnedTokens",
					"type": "uint256"
				},
				{
					"internalType": "string",
					"name": "memo",
					"type": "string"
				},
				{
					"internalType": "bytes",
					"name": "metadata",
					"type": "bytes"
				}
			],
			"name": "pay",
			"outputs": [
				{
					"internalType": "uint256",
					"name": "",
					"type": "uint256"
				}
			],
			"stateMutability": "payable",
			"type": "function"
		},
		{
			"inputs": [],
			"name": "renounceOwnership",
			"outputs": [],
			"stateMutability": "nonpayable",
			"type": "function"
		},
		{
			"inputs": [
				{
					"internalType": "bytes4",
					"name": "interfaceId",
					"type": "bytes4"
				}
			],
			"name": "supportsInterface",
			"outputs": [
				{
					"internalType": "bool",
					"name": "",
					"type": "bool"
				}
			],
			"stateMutability": "view",
			"type": "function"
		},
		{
			"inputs": [
				{
					"internalType": "address",
					"name": "newOwner",
					"type": "address"
				}
			],
			"name": "transferOwnership",
			"outputs": [],
			"stateMutability": "nonpayable",
			"type": "function"
		},
		{
			"inputs": [
				{
					"internalType": "uint256",
					"name": "projectId",
					"type": "uint256"
				},
				{
					"internalType": "contract IUniswapV3Pool",
					"name": "pool",
					"type": "address"
				}
			],
			"name": "twapParamsOf",
			"outputs": [
				{
					"internalType": "uint32",
					"name": "",
					"type": "uint32"
				},
				{
					"internalType": "uint160",
					"name": "",
					"type": "uint160"
				}
			],
			"stateMutability": "view",
			"type": "function"
		},
		{
			"inputs": [
				{
					"internalType": "int256",
					"name": "amount0Delta",
					"type": "int256"
				},
				{
					"internalType": "int256",
					"name": "amount1Delta",
					"type": "int256"
				},
				{
					"internalType": "bytes",
					"name": "data",
					"type": "bytes"
				}
			],
			"name": "uniswapV3SwapCallback",
			"outputs": [],
			"stateMutability": "nonpayable",
			"type": "function"
		},
		{
			"anonymous": false,
			"inputs": [
				{
					"indexed": true,
					"internalType": "uint256",
					"name": "projectId",
					"type": "uint256"
				},
				{
					"indexed": false,
					"internalType": "uint256",
					"name": "amount",
					"type": "uint256"
				},
				{
					"indexed": false,
					"internalType": "uint256",
					"name": "returnedFees",
					"type": "uint256"
				},
				{
					"indexed": false,
					"internalType": "string",
					"name": "memo",
					"type": "string"
				},
				{
					"indexed": false,
					"internalType": "bytes",
					"name": "metadata",
					"type": "bytes"
				},
				{
					"indexed": false,
					"internalType": "address",
					"name": "caller",
					"type": "address"
				}
			],
			"name": "AddToBalance",
			"type": "event"
		},
		{
			"anonymous": false,
			"inputs": [
				{
					"indexed": true,
					"internalType": "contract IJBPayHook",
					"name": "hook",
					"type": "address"
				},
				{
					"components": [
						{
							"internalType": "address",
							"name": "payer",
							"type": "address"
						},
						{
							"internalType": "uint256",
							"name": "projectId",
							"type": "uint256"
						},
						{
							"internalType": "uint256",
							"name": "rulesetId",
							"type": "uint256"
						},
						{
							"components": [
								{
									"internalType": "address",
									"name": "token",
									"type": "address"
								},
								{
									"internalType": "uint8",
									"name": "decimals",
									"type": "uint8"
								},
								{
									"internalType": "uint32",
									"name": "currency",
									"type": "uint32"
								},
								{
									"internalType": "uint256",
									"name": "value",
									"type": "uint256"
								}
							],
							"internalType": "struct JBTokenAmount",
							"name": "amount",
							"type": "tuple"
						},
						{
							"components": [
								{
									"internalType": "address",
									"name": "token",
									"type": "address"
								},
								{
									"internalType": "uint8",
									"name": "decimals",
									"type": "uint8"
								},
								{
									"internalType": "uint32",
									"name": "currency",
									"type": "uint32"
								},
								{
									"internalType": "uint256",
									"name": "value",
									"type": "uint256"
								}
							],
							"internalType": "struct JBTokenAmount",
							"name": "forwardedAmount",
							"type": "tuple"
						},
						{
							"internalType": "uint256",
							"name": "weight",
							"type": "uint256"
						},
						{
							"internalType": "uint256",
							"name": "newlyIssuedTokenCount",
							"type": "uint256"
						},
						{
							"internalType": "address",
							"name": "beneficiary",
							"type": "address"
						},
						{
							"internalType": "bytes",
							"name": "hookMetadata",
							"type": "bytes"
						},
						{
							"internalType": "bytes",
							"name": "payerMetadata",
							"type": "bytes"
						}
					],
					"indexed": false,
					"internalType": "struct JBAfterPayRecordedContext",
					"name": "context",
					"type": "tuple"
				},
				{
					"indexed": false,
					"internalType": "uint256",
					"name": "specificationAmount",
					"type": "uint256"
				},
				{
					"indexed": false,
					"internalType": "address",
					"name": "caller",
					"type": "address"
				}
			],
			"name": "HookAfterRecordPay",
			"type": "event"
		},
		{
			"anonymous": false,
			"inputs": [
				{
					"indexed": true,
					"internalType": "uint256",
					"name": "projectId",
					"type": "uint256"
				},
				{
					"indexed": true,
					"internalType": "address",
					"name": "token",
					"type": "address"
				},
				{
					"indexed": true,
					"internalType": "contract IJBTerminal",
					"name": "to",
					"type": "address"
				},
				{
					"indexed": false,
					"internalType": "uint256",
					"name": "amount",
					"type": "uint256"
				},
				{
					"indexed": false,
					"internalType": "address",
					"name": "caller",
					"type": "address"
				}
			],
			"name": "MigrateTerminal",
			"type": "event"
		},
		{
			"anonymous": false,
			"inputs": [
				{
					"indexed": true,
					"internalType": "address",
					"name": "previousOwner",
					"type": "address"
				},
				{
					"indexed": true,
					"internalType": "address",
					"name": "newOwner",
					"type": "address"
				}
			],
			"name": "OwnershipTransferred",
			"type": "event"
		},
		{
			"anonymous": false,
			"inputs": [
				{
					"indexed": true,
					"internalType": "uint256",
					"name": "rulesetId",
					"type": "uint256"
				},
				{
					"indexed": true,
					"internalType": "uint256",
					"name": "rulesetCycleNumber",
					"type": "uint256"
				},
				{
					"indexed": true,
					"internalType": "uint256",
					"name": "projectId",
					"type": "uint256"
				},
				{
					"indexed": false,
					"internalType": "address",
					"name": "payer",
					"type": "address"
				},
				{
					"indexed": false,
					"internalType": "address",
					"name": "beneficiary",
					"type": "address"
				},
				{
					"indexed": false,
					"internalType": "uint256",
					"name": "amount",
					"type": "uint256"
				},
				{
					"indexed": false,
					"internalType": "uint256",
					"name": "newlyIssuedTokenCount",
					"type": "uint256"
				},
				{
					"indexed": false,
					"internalType": "string",
					"name": "memo",
					"type": "string"
				},
				{
					"indexed": false,
					"internalType": "bytes",
					"name": "metadata",
					"type": "bytes"
				},
				{
					"indexed": false,
					"internalType": "address",
					"name": "caller",
					"type": "address"
				}
			],
			"name": "Pay",
			"type": "event"
		},
		{
			"anonymous": false,
			"inputs": [
				{
					"indexed": true,
					"internalType": "uint256",
					"name": "projectId",
					"type": "uint256"
				},
				{
					"components": [
						{
							"internalType": "address",
							"name": "token",
							"type": "address"
						},
						{
							"internalType": "uint8",
							"name": "decimals",
							"type": "uint8"
						},
						{
							"internalType": "uint32",
							"name": "currency",
							"type": "uint32"
						}
					],
					"indexed": false,
					"internalType": "struct JBAccountingContext",
					"name": "context",
					"type": "tuple"
				},
				{
					"indexed": false,
					"internalType": "address",
					"name": "caller",
					"type": "address"
				}
			],
			"name": "SetAccountingContext",
			"type": "event"
		},
		{
			"inputs": [],
			"name": "FailedCall",
			"type": "error"
		},
		{
			"inputs": [
				{
					"internalType": "uint256",
					"name": "balance",
					"type": "uint256"
				},
				{
					"internalType": "uint256",
					"name": "needed",
					"type": "uint256"
				}
			],
			"name": "InsufficientBalance",
			"type": "error"
		},
		{
			"inputs": [
				{
					"internalType": "address",
					"name": "account",
					"type": "address"
				},
				{
					"internalType": "address",
					"name": "sender",
					"type": "address"
				},
				{
					"internalType": "uint256",
					"name": "projectId",
					"type": "uint256"
				},
				{
					"internalType": "uint256",
					"name": "permissionId",
					"type": "uint256"
				}
			],
			"name": "JBPermissioned_Unauthorized",
			"type": "error"
		},
		{
			"inputs": [
				{
					"internalType": "address",
					"name": "caller",
					"type": "address"
				}
			],
			"name": "JBSwapTerminal_CallerNotPool",
			"type": "error"
		},
		{
			"inputs": [
				{
					"internalType": "uint256",
					"name": "slippageTolerance",
					"type": "uint256"
				},
				{
					"internalType": "uint256",
					"name": "minSlippageTolerance",
					"type": "uint256"
				},
				{
					"internalType": "uint256",
					"name": "maxSlippageTolerance",
					"type": "uint256"
				}
			],
			"name": "JBSwapTerminal_InvalidTwapSlippageTolerance",
			"type": "error"
		},
		{
			"inputs": [
				{
					"internalType": "uint256",
					"name": "window",
					"type": "uint256"
				},
				{
					"internalType": "uint256",
					"name": "minWindow",
					"type": "uint256"
				},
				{
					"internalType": "uint256",
					"name": "maxWindow",
					"type": "uint256"
				}
			],
			"name": "JBSwapTerminal_InvalidTwapWindow",
			"type": "error"
		},
		{
			"inputs": [
				{
					"internalType": "uint256",
					"name": "projectId",
					"type": "uint256"
				},
				{
					"internalType": "address",
					"name": "token",
					"type": "address"
				}
			],
			"name": "JBSwapTerminal_NoDefaultPoolDefined",
			"type": "error"
		},
		{
			"inputs": [
				{
					"internalType": "uint256",
					"name": "value",
					"type": "uint256"
				}
			],
			"name": "JBSwapTerminal_NoMsgValueAllowed",
			"type": "error"
		},
		{
			"inputs": [
				{
					"internalType": "uint256",
					"name": "amount",
					"type": "uint256"
				},
				{
					"internalType": "uint256",
					"name": "allowance",
					"type": "uint256"
				}
			],
			"name": "JBSwapTerminal_PermitAllowanceNotEnough",
			"type": "error"
		},
		{
			"inputs": [
				{
					"internalType": "uint256",
					"name": "amount",
					"type": "uint256"
				},
				{
					"internalType": "uint256",
					"name": "minimum",
					"type": "uint256"
				}
			],
			"name": "JBSwapTerminal_SpecifiedSlippageExceeded",
			"type": "error"
		},
		{
			"inputs": [
				{
					"internalType": "uint256",
					"name": "projectId",
					"type": "uint256"
				},
				{
					"internalType": "address",
					"name": "token",
					"type": "address"
				}
			],
			"name": "JBSwapTerminal_TokenNotAccepted",
			"type": "error"
		},
		{
			"inputs": [
				{
					"internalType": "address",
					"name": "caller",
					"type": "address"
				}
			],
			"name": "JBSwapTerminal_UnexpectedCall",
			"type": "error"
		},
		{
			"inputs": [
				{
					"internalType": "address",
					"name": "pool",
					"type": "address"
				},
				{
					"internalType": "address",
					"name": "expectedPool",
					"type": "address"
				}
			],
			"name": "JBSwapTerminal_WrongPool",
			"type": "error"
		},
		{
			"inputs": [],
			"name": "JBSwapTerminal_ZeroToken",
			"type": "error"
		},
		{
			"inputs": [
				{
					"internalType": "address",
					"name": "owner",
					"type": "address"
				}
			],
			"name": "OwnableInvalidOwner",
			"type": "error"
		},
		{
			"inputs": [
				{
					"internalType": "address",
					"name": "account",
					"type": "address"
				}
			],
			"name": "OwnableUnauthorizedAccount",
			"type": "error"
		},
		{
			"inputs": [
				{
					"internalType": "address",
					"name": "token",
					"type": "address"
				}
			],
			"name": "SafeERC20FailedOperation",
			"type": "error"
		},
		{
			"inputs": [],
			"name": "T",
			"type": "error"
		}
	],
	"args": [],
	"solcInputHash": "41975ccdf6835fdf61b3852b097d85a4",
	"bytecode": "0x61018060405234801562000011575f80fd5b506040516200538038038062005380833981016040819052620000349162000144565b6001600160a01b03808816608052849081166200006a57604051631e4fbdf760e01b81525f600482015260240160405180910390fd5b6200007581620000dd565b506001600160a01b0382166200009e57604051635cd24a5760e11b815260040160405180910390fd5b6001600160a01b0397881660a0529487166101005292861660e05285166101405250831661012081905261eeee146101605290911660c0525062000200565b5f80546001600160a01b038381166001600160a01b0319831681178455604051919092169283917f8be0079c531659141344cd1fd0a4f28419497f9722a3daafe3b4186f6b6457e09190a35050565b6001600160a01b038116811462000141575f80fd5b50565b5f805f805f805f80610100898b0312156200015d575f80fd5b88516200016a816200012c565b60208a01519098506200017d816200012c565b60408a015190975062000190816200012c565b60608a0151909650620001a3816200012c565b60808a0151909550620001b6816200012c565b60a08a0151909450620001c9816200012c565b60c08a0151909350620001dc816200012c565b60e08a0151909250620001ef816200012c565b809150509295985092959890939650565b60805160a05160c05160e05161010051610120516101405161016051615060620003205f395f8181612018015281816124db015281816127230152612fef01525f81816101da0152818161058701528181611a0b01528181611b4e015281816120630152818161248a01528181612696015261304201525f8181610283015281816115a40152818161169a015281816116e90152818161173001528181611c3a01528181611d3001528181611d7f01528181611dc6015261203e01525f818161033b015281816108bc01526117ec01525f818161045c015281816123310152612b9901525f81816103810152818161097d0152610ae501525f8181610503015281816115ce0152611c6601525f81816106670152611eed01526150605ff3fe6080604052600436106101bd575f3560e01c80637c5e9c24116100f2578063b88a92b411610092578063f2fde38b11610062578063f2fde38b14610637578063f434c91414610656578063fa461e3314610689578063fef43257146106a8575f80fd5b8063b88a92b4146105bd578063be6963f2146105d3578063e28b5411146105f2578063edb4095014610614575f80fd5b80639e6eec05116100cd5780639e6eec051461054e578063ac90511414610561578063ad5c464814610576578063af471880146105a9575f80fd5b80637c5e9c24146104a757806388bc2ef3146104f25780638da5cb5b14610525575f80fd5b80632dd310001161015d578063515a929311610138578063515a92931461041f5780636afdd8501461044b578063715018a61461047e578063754baf9614610492575f80fd5b80632dd31000146103705780633a01714f146103a357806340873cb5146103cf575f80fd5b806324e26dc51161019857806324e26dc5146102ec578063253721c81461030b578063293c49991461032a5780632c1ae8821461035d575f80fd5b806301ffc9a71461023e5780630392ef94146102725780631a65893b146102ca575f80fd5b3661023a573373ffffffffffffffffffffffffffffffffffffffff7f00000000000000000000000000000000000000000000000000000000000000001614610238576040517fb320fe970000000000000000000000000000000000000000000000000000000081523360048201526024015b60405180910390fd5b005b5f80fd5b348015610249575f80fd5b5061025d610258366004613f9f565b6106bb565b60405190151581526020015b60405180910390f35b34801561027d575f80fd5b506102a57f000000000000000000000000000000000000000000000000000000000000000081565b60405173ffffffffffffffffffffffffffffffffffffffff9091168152602001610269565b3480156102d5575f80fd5b506102de607881565b604051908152602001610269565b3480156102f7575f80fd5b50610238610306366004613fff565b610883565b348015610316575f80fd5b5061023861032536600461403e565b505050565b348015610335575f80fd5b506102a57f000000000000000000000000000000000000000000000000000000000000000081565b348015610368575f80fd5b506102de5f81565b34801561037b575f80fd5b506102a57f000000000000000000000000000000000000000000000000000000000000000081565b3480156103ae575f80fd5b506103c26103bd3660046140b6565b610ea0565b60405161026991906140e4565b3480156103da575f80fd5b506103ee6103e93660046140b6565b610fe6565b6040805163ffffffff909316835273ffffffffffffffffffffffffffffffffffffffff909116602083015201610269565b34801561042a575f80fd5b5061043e610439366004614124565b611074565b604051610269919061413b565b348015610456575f80fd5b506102a57f000000000000000000000000000000000000000000000000000000000000000081565b348015610489575f80fd5b5061023861148f565b34801561049d575f80fd5b506102de61232881565b3480156104b2575f80fd5b506104c66104c13660046140b6565b6114a2565b6040805173ffffffffffffffffffffffffffffffffffffffff9093168352901515602083015201610269565b3480156104fd575f80fd5b506102a57f000000000000000000000000000000000000000000000000000000000000000081565b348015610530575f80fd5b505f5473ffffffffffffffffffffffffffffffffffffffff166102a5565b61023861055c366004614206565b611560565b34801561056c575f80fd5b506102a561271081565b348015610581575f80fd5b506102a57f000000000000000000000000000000000000000000000000000000000000000081565b3480156105b4575f80fd5b506102de606481565b3480156105c8575f80fd5b506102de6202a30081565b3480156105de575f80fd5b506102386105ed3660046142a7565b6117b3565b3480156105fd575f80fd5b506102de61060c366004613fff565b5f9392505050565b34801561061f575f80fd5b506102de61062e3660046143eb565b5f949350505050565b348015610642575f80fd5b506102386106513660046144db565b61196d565b348015610661575f80fd5b506102a57f000000000000000000000000000000000000000000000000000000000000000081565b348015610694575f80fd5b506102386106a33660046144f6565b6119d0565b6102de6106b6366004614545565b611bf6565b5f7fffffffff0000000000000000000000000000000000000000000000000000000082167f21c9410700000000000000000000000000000000000000000000000000000000148061074d57507fffffffff0000000000000000000000000000000000000000000000000000000082167f6afdd85000000000000000000000000000000000000000000000000000000000145b8061079957507fffffffff0000000000000000000000000000000000000000000000000000000082167f01ffc9a700000000000000000000000000000000000000000000000000000000145b806107e557507fffffffff0000000000000000000000000000000000000000000000000000000082167ffa461e3300000000000000000000000000000000000000000000000000000000145b8061083157507fffffffff0000000000000000000000000000000000000000000000000000000082167ff434c91400000000000000000000000000000000000000000000000000000000145b8061087d57507fffffffff0000000000000000000000000000000000000000000000000000000082167f62e21b3800000000000000000000000000000000000000000000000000000000145b92915050565b8215610947576040517f6352211e00000000000000000000000000000000000000000000000000000000815260048101849052610942907f000000000000000000000000000000000000000000000000000000000000000073ffffffffffffffffffffffffffffffffffffffff1690636352211e90602401602060405180830381865afa158015610916573d5f803e3d5ffd5b505050506040513d601f19601f8201168201806040525081019061093a91906145f1565b84601a611e62565b61094f565b61094f611fc3565b5f610958612015565b905073ffffffffffffffffffffffffffffffffffffffff8082168482161090838116907f000000000000000000000000000000000000000000000000000000000000000016631698ee82836109ad57846109af565b865b846109ba57876109bc565b855b8773ffffffffffffffffffffffffffffffffffffffff1663ddca3f436040518163ffffffff1660e01b8152600401602060405180830381865afa158015610a05573d5f803e3d5ffd5b505050506040513d601f19601f82011682018060405250810190610a29919061460c565b6040517fffffffff0000000000000000000000000000000000000000000000000000000060e086901b16815273ffffffffffffffffffffffffffffffffffffffff938416600482015292909116602483015262ffffff166044820152606401602060405180830381865afa158015610aa3573d5f803e3d5ffd5b505050506040513d601f19601f82011682018060405250810190610ac791906145f1565b73ffffffffffffffffffffffffffffffffffffffff1614610c9657827f000000000000000000000000000000000000000000000000000000000000000073ffffffffffffffffffffffffffffffffffffffff16631698ee8283610b2a5784610b2c565b865b84610b375787610b39565b855b8773ffffffffffffffffffffffffffffffffffffffff1663ddca3f436040518163ffffffff1660e01b8152600401602060405180830381865afa158015610b82573d5f803e3d5ffd5b505050506040513d601f19601f82011682018060405250810190610ba6919061460c565b6040517fffffffff0000000000000000000000000000000000000000000000000000000060e086901b16815273ffffffffffffffffffffffffffffffffffffffff938416600482015292909116602483015262ffffff166044820152606401602060405180830381865afa158015610c20573d5f803e3d5ffd5b505050506040513d601f19601f82011682018060405250810190610c4491906145f1565b6040517fe2bbe4ec00000000000000000000000000000000000000000000000000000000815273ffffffffffffffffffffffffffffffffffffffff92831660048201529116602482015260440161022f565b5f85815260026020908152604080832073ffffffffffffffffffffffffffffffffffffffff8881168086529184529382902080547fffffffffffffffffffffffff00000000000000000000000000000000000000001694881694909417909355805160608101825283815281517f313ce5670000000000000000000000000000000000000000000000000000000081529151909384840193909263313ce56792600480830193928290030181865afa158015610d54573d5f803e3d5ffd5b505050506040513d601f19601f82011682018060405250810190610d78919061462e565b60ff908116825263ffffffff8088166020938401525f8981526001808552604080832073ffffffffffffffffffffffffffffffffffffffff9b8c16808552908752818420885181548a8a01519a8501519097167501000000000000000000000000000000000000000000027fffffffffffffff00000000ffffffffffffffffffffffffffffffffffffffffff9a90981674010000000000000000000000000000000000000000027fffffffffffffffffffffff0000000000000000000000000000000000000000009097169d169c909c179490941796909616939093179098559787526003825291862080549283018155865290942090930180547fffffffffffffffffffffffff000000000000000000000000000000000000000016909417909355505050565b60408051606080820183525f80835260208084018290529284018190528581526001835283812073ffffffffffffffffffffffffffffffffffffffff868116835290845290849020845192830185525490811680835274010000000000000000000000000000000000000000820460ff16938301939093527501000000000000000000000000000000000000000000900463ffffffff169281019290925261087d575073ffffffffffffffffffffffffffffffffffffffff8181165f9081527fa6eef7e35abe7026729641147f7915573c7e97b47efa546f5f6e3230263bcb49602090815260409182902082516060810184529054938416815274010000000000000000000000000000000000000000840460ff1691810191909152750100000000000000000000000000000000000000000090920463ffffffff169082015292915050565b5f82815260046020908152604080832073ffffffffffffffffffffffffffffffffffffffff851684529091528120548190808203611064575073ffffffffffffffffffffffffffffffffffffffff83165f9081527f17ef568e3e12ab5b9c7254a8d58478811de00f9e6eb34345acd53bf8fd09d3ec60205260409020545b915050602081901c5b9250929050565b5f8181526003602090815260408083208054825181850281018501909352808352606094938301828280156110dd57602002820191905f5260205f20905b815473ffffffffffffffffffffffffffffffffffffffff1681526001909101906020018083116110b2575b50505f808052600360209081527f3617319a054d772f909f7c479a2cebe5066e836a939412e32403c99029b92eff8054604080518285028101850190915281815297985092969550935090915083018282801561116e57602002820191905f5260205f20905b815473ffffffffffffffffffffffffffffffffffffffff168152600190910190602001808311611143575b50505050509050805182516111839190614676565b67ffffffffffffffff81111561119b5761119b6142e1565b60405190808252806020026020018201604052801561120357816020015b604080516060810182525f80825260208083018290529282015282527fffffffffffffffffffffffffffffffffffffffffffffffffffffffffffffffff9092019101816111b95790505b5082519093505f5b818110156112e75760015f8781526020019081526020015f205f85838151811061123757611237614689565b60209081029190910181015173ffffffffffffffffffffffffffffffffffffffff90811683528282019390935260409182015f2082516060810184529054938416815274010000000000000000000000000000000000000000840460ff1691810191909152750100000000000000000000000000000000000000000090920463ffffffff169082015285518690839081106112d4576112d4614689565b602090810291909101015260010161120b565b508151815f5b82811015611477575f805b858110156113765786838151811061131257611312614689565b602002602001015173ffffffffffffffffffffffffffffffffffffffff1688828151811061134257611342614689565b602002602001015173ffffffffffffffffffffffffffffffffffffffff160361136e5760019150611376565b6001016112f8565b508061146e575f808052600160205286517fa6eef7e35abe7026729641147f7915573c7e97b47efa546f5f6e3230263bcb4991908890859081106113bc576113bc614689565b60209081029190910181015173ffffffffffffffffffffffffffffffffffffffff90811683528282019390935260409182015f2082516060810184529054938416815274010000000000000000000000000000000000000000840460ff1691810191909152750100000000000000000000000000000000000000000090920463ffffffff16908201528884611450816146b6565b95508151811061146257611462614689565b60200260200101819052505b506001016112ed565b508551811015611485578086525b5050505050919050565b611497611fc3565b6114a05f612085565b565b5f82815260026020908152604080832073ffffffffffffffffffffffffffffffffffffffff808616855292528220541690816115215773ffffffffffffffffffffffffffffffffffffffff8084165f9081527fac33ff75c19e70fe83507db0d683fd3465c996598dc972688b7ace676c89077b60205260409020541691505b611529612015565b73ffffffffffffffffffffffffffffffffffffffff168373ffffffffffffffffffffffffffffffffffffffff161090509250929050565b6040517f862026500000000000000000000000000000000000000000000000000000000081526004810189905273ffffffffffffffffffffffffffffffffffffffff7f0000000000000000000000000000000000000000000000000000000000000000811660248301525f917f000000000000000000000000000000000000000000000000000000000000000090911690638620265090604401602060405180830381865afa158015611615573d5f803e3d5ffd5b505050506040513d601f19601f8201168201806040525081019061163991906145f1565b905073ffffffffffffffffffffffffffffffffffffffff81166116c7576040517fcf78a6fc000000000000000000000000000000000000000000000000000000008152600481018a905273ffffffffffffffffffffffffffffffffffffffff7f000000000000000000000000000000000000000000000000000000000000000016602482015260440161022f565b5f6116e08a8a6116d98c8c89896120f9565b8787612461565b90505f61170e837f000000000000000000000000000000000000000000000000000000000000000084612720565b90508273ffffffffffffffffffffffffffffffffffffffff16639e6eec05828d7f0000000000000000000000000000000000000000000000000000000000000000868d8d8d8d8d6040518a63ffffffff1660e01b8152600401611778989796959493929190614734565b5f604051808303818588803b15801561178f575f80fd5b505af11580156117a1573d5f803e3d5ffd5b50505050505050505050505050505050565b8315611877576040517f6352211e00000000000000000000000000000000000000000000000000000000815260048101859052611872907f000000000000000000000000000000000000000000000000000000000000000073ffffffffffffffffffffffffffffffffffffffff1690636352211e90602401602060405180830381865afa158015611846573d5f803e3d5ffd5b505050506040513d601f19601f8201168201806040525081019061186a91906145f1565b85601b611e62565b61187f565b61187f611fc3565b607882108061189057506202a30082115b156118da576040517f9442583100000000000000000000000000000000000000000000000000000000815260048101839052607860248201526202a300604482015260640161022f565b60648110806118ea575061232881115b15611933576040517f1f463fad0000000000000000000000000000000000000000000000000000000081526004810182905260646024820181905261232860448301520161022f565b5f93845260046020908152604080862073ffffffffffffffffffffffffffffffffffffffff9095168652938152929093209290911b179055565b611975611fc3565b73ffffffffffffffffffffffffffffffffffffffff81166119c4576040517f1e4fbdf70000000000000000000000000000000000000000000000000000000081525f600482015260240161022f565b6119cd81612085565b50565b5f806119de838501856140b6565b90925090505f73ffffffffffffffffffffffffffffffffffffffff821661eeee14611a095781611a2b565b7f00000000000000000000000000000000000000000000000000000000000000005b5f84815260026020908152604080832073ffffffffffffffffffffffffffffffffffffffff80861685529252909120549192501680611aac575073ffffffffffffffffffffffffffffffffffffffff8082165f9081527fac33ff75c19e70fe83507db0d683fd3465c996598dc972688b7ace676c89077b6020526040902054165b3373ffffffffffffffffffffffffffffffffffffffff821614611afd576040517fbca42a5400000000000000000000000000000000000000000000000000000000815233600482015260240161022f565b5f808912611b0b5788611b0d565b875b90507fffffffffffffffffffffffffffffffffffffffffffffffffffffffffffff111273ffffffffffffffffffffffffffffffffffffffff851601611bca577f000000000000000000000000000000000000000000000000000000000000000073ffffffffffffffffffffffffffffffffffffffff1663d0e30db0826040518263ffffffff1660e01b81526004015f604051808303818588803b158015611bb2575f80fd5b505af1158015611bc4573d5f803e3d5ffd5b50505050505b611beb73ffffffffffffffffffffffffffffffffffffffff84163383612779565b505050505050505050565b6040517f86202650000000000000000000000000000000000000000000000000000000008152600481018a905273ffffffffffffffffffffffffffffffffffffffff7f0000000000000000000000000000000000000000000000000000000000000000811660248301525f9182917f00000000000000000000000000000000000000000000000000000000000000001690638620265090604401602060405180830381865afa158015611cab573d5f803e3d5ffd5b505050506040513d601f19601f82011682018060405250810190611ccf91906145f1565b905073ffffffffffffffffffffffffffffffffffffffff8116611d5d576040517fcf78a6fc000000000000000000000000000000000000000000000000000000008152600481018c905273ffffffffffffffffffffffffffffffffffffffff7f000000000000000000000000000000000000000000000000000000000000000016602482015260440161022f565b5f611d768c8c611d6f8e8e8a8a6120f9565b8888612461565b90505f611da4837f000000000000000000000000000000000000000000000000000000000000000084612720565b90508273ffffffffffffffffffffffffffffffffffffffff1663fef43257828f7f0000000000000000000000000000000000000000000000000000000000000000868f8f8f8f8f8f6040518b63ffffffff1660e01b8152600401611e1099989796959493929190614799565b60206040518083038185885af1158015611e2c573d5f803e3d5ffd5b50505050506040513d601f19601f82011682018060405250810190611e519190614807565b9d9c50505050505050505050505050565b3373ffffffffffffffffffffffffffffffffffffffff84168114801590611f5857506040517f348b684e00000000000000000000000000000000000000000000000000000000815273ffffffffffffffffffffffffffffffffffffffff82811660048301528581166024830152604482018590526064820184905260016084830181905260a48301527f0000000000000000000000000000000000000000000000000000000000000000169063348b684e9060c401602060405180830381865afa158015611f32573d5f803e3d5ffd5b505050506040513d601f19601f82011682018060405250810190611f56919061481e565b155b15611fbd576040517f264deeaa00000000000000000000000000000000000000000000000000000000815273ffffffffffffffffffffffffffffffffffffffff808616600483015282166024820152604481018490526064810183905260840161022f565b50505050565b5f5473ffffffffffffffffffffffffffffffffffffffff1633146114a0576040517f118cdaa700000000000000000000000000000000000000000000000000000000815233600482015260240161022f565b5f7f000000000000000000000000000000000000000000000000000000000000000061206057507f000000000000000000000000000000000000000000000000000000000000000090565b507f000000000000000000000000000000000000000000000000000000000000000090565b5f805473ffffffffffffffffffffffffffffffffffffffff8381167fffffffffffffffffffffffff0000000000000000000000000000000000000000831681178455604051919092169283917f8be0079c531659141344cd1fd0a4f28419497f9722a3daafe3b4186f6b6457e09190a35050565b5f7fffffffffffffffffffffffffffffffffffffffffffffffffffffffffffff111273ffffffffffffffffffffffffffffffffffffffff86160161213e575034612459565b3415612178576040517f15f828f800000000000000000000000000000000000000000000000000000000815234600482015260240161022f565b5f806121f66121bb6040518060400160405280600781526020017f7065726d697432000000000000000000000000000000000000000000000000008152506127fa565b86868080601f0160208091040260200160405190810160405280939291908181526020018383808284375f9201919091525061280d92505050565b9150915081156123bc575f818060200190518101906122159190614875565b9050806020015173ffffffffffffffffffffffffffffffffffffffff168711156122905760208101516040517f6efd58f80000000000000000000000000000000000000000000000000000000081526004810189905273ffffffffffffffffffffffffffffffffffffffff909116602482015260440161022f565b5f604051806060016040528060405180608001604052808c73ffffffffffffffffffffffffffffffffffffffff168152602001856020015173ffffffffffffffffffffffffffffffffffffffff168152602001856040015165ffffffffffff168152602001856060015165ffffffffffff1681525081526020013073ffffffffffffffffffffffffffffffffffffffff168152602001835f015181525090507f000000000000000000000000000000000000000000000000000000000000000073ffffffffffffffffffffffffffffffffffffffff16632b67b570338385608001516040518463ffffffff1660e01b8152600401612390939291906149d5565b5f604051808303815f87803b1580156123a7575f80fd5b505af19250505080156123b8575060015b5050505b6123c8333089896129f4565b6040517f70a0823100000000000000000000000000000000000000000000000000000000815230600482015273ffffffffffffffffffffffffffffffffffffffff8816906370a0823190602401602060405180830381865afa158015612430573d5f803e3d5ffd5b505050506040513d601f19601f820116820180604052508101906124549190614807565b925050505b949350505050565b5f8073ffffffffffffffffffffffffffffffffffffffff861661eeee1461248857856124aa565b7f00000000000000000000000000000000000000000000000000000000000000005b90505f6124b5612015565b905073ffffffffffffffffffffffffffffffffffffffff871661eeee1480156124fb57507f00000000000000000000000000000000000000000000000000000000000000005b8061253157508073ffffffffffffffffffffffffffffffffffffffff168273ffffffffffffffffffffffffffffffffffffffff16145b15612540578592505050612717565b5f8061255087878c878c88612bf6565b915091505f6125918a8a858773ffffffffffffffffffffffffffffffffffffffff168973ffffffffffffffffffffffffffffffffffffffff16108f87612e92565b6040517f70a082310000000000000000000000000000000000000000000000000000000081523060048201529091505f9073ffffffffffffffffffffffffffffffffffffffff8716906370a0823190602401602060405180830381865afa1580156125fe573d5f803e3d5ffd5b505050506040513d601f19601f820116820180604052508101906126229190614807565b9050801561270f577fffffffffffffffffffffffffffffffffffffffffffffffffffffffffffff111273ffffffffffffffffffffffffffffffffffffffff8c1601612703576040517f2e1a7d4d000000000000000000000000000000000000000000000000000000008152600481018290527f000000000000000000000000000000000000000000000000000000000000000073ffffffffffffffffffffffffffffffffffffffff1690632e1a7d4d906024015f604051808303815f87803b1580156126ec575f80fd5b505af11580156126fe573d5f803e3d5ffd5b505050505b61270f30338d846129f4565b509450505050505b95945050505050565b5f7f00000000000000000000000000000000000000000000000000000000000000001561274e575080612772565b61276f73ffffffffffffffffffffffffffffffffffffffff841685846130bb565b505f5b9392505050565b60405173ffffffffffffffffffffffffffffffffffffffff83811660248301526044820183905261032591859182169063a9059cbb906064015b604051602081830303815290604052915060e01b6020820180517bffffffffffffffffffffffffffffffffffffffffffffffffffffffff8381831617835250505050613168565b805160208201205f903060601b1861087d565b5f6060602583511161283057505060408051602081019091525f8082529061106d565b5f8361283e60046020614676565b8151811061284e5761284e614689565b0160209081015160f81c91505b5f85612868600484614676565b8151811061287857612878614689565b01602001517fff0000000000000000000000000000000000000000000000000000000000000016148015906128b657506128b3602083614a56565b81105b156129eb575f856128c8600484614676565b815181106128d8576128d8614689565b016020908101518784019091015160f89190911c91507fffffffff00000000000000000000000000000000000000000000000000000000808916908216036129e1575f612926602086614a56565b612931600986614676565b10158061297e575087612945600986614676565b8151811061295557612955614689565b01602001517fff0000000000000000000000000000000000000000000000000000000000000016155b6129b757602088612990600987614676565b815181106129a0576129a0614689565b01602001516129b2919060f81c614a56565b6129ba565b87515b905060016129d3896129cd602087614a56565b84613207565b96509650505050505061106d565b505060050161285b565b50509250929050565b3073ffffffffffffffffffffffffffffffffffffffff851603612a7e577fffffffffffffffffffffffffffffffffffffffffffffffffffffffffffff111273ffffffffffffffffffffffffffffffffffffffff831601612a5d57612a58838261324c565b611fbd565b612a5873ffffffffffffffffffffffffffffffffffffffff83168483612779565b6040517fdd62ed3e00000000000000000000000000000000000000000000000000000000815273ffffffffffffffffffffffffffffffffffffffff858116600483015230602483015282919084169063dd62ed3e90604401602060405180830381865afa158015612af1573d5f803e3d5ffd5b505050506040513d601f19601f82011682018060405250810190612b159190614807565b10612b3c57612a5873ffffffffffffffffffffffffffffffffffffffff83168585846132fe565b6040517f36c7851600000000000000000000000000000000000000000000000000000000815273ffffffffffffffffffffffffffffffffffffffff85811660048301528481166024830152828116604483015283811660648301527f000000000000000000000000000000000000000000000000000000000000000016906336c78516906084015f604051808303815f87803b158015612bda575f80fd5b505af1158015612bec573d5f803e3d5ffd5b5050505050505050565b5f84815260026020908152604080832073ffffffffffffffffffffffffffffffffffffffff808816855292528220541680612cc8575073ffffffffffffffffffffffffffffffffffffffff8085165f9081527fac33ff75c19e70fe83507db0d683fd3465c996598dc972688b7ace676c89077b60205260409020541680612cc8576040517f891773860000000000000000000000000000000000000000000000000000000081526004810187905273ffffffffffffffffffffffffffffffffffffffff8616602482015260440161022f565b5f80612d46612d0b6040518060400160405280600c81526020017f71756f7465466f725377617000000000000000000000000000000000000000008152506127fa565b8b8b8080601f0160208091040260200160405190810160405280939291908181526020018383808284375f9201919091525061280d92505050565b915091508115612d6b5780806020019051810190612d649190614807565b9350612e85565b5f80612d778a86610fe6565b915091505f612d8586613344565b90508263ffffffff168163ffffffff161015612d9f578092505b5f8163ffffffff165f03612e2b575f8773ffffffffffffffffffffffffffffffffffffffff16633850c7bd6040518163ffffffff1660e01b815260040160e060405180830381865afa158015612df7573d5f803e3d5ffd5b505050506040513d601f19601f82011682018060405250810190612e1b9190614a7e565b50939650612e3995505050505050565b612e358785613580565b5090505b612e45818b8d8c613834565b9750612710612e6a73ffffffffffffffffffffffffffffffffffffffff85168a614a56565b612e749190614b3e565b612e7e9089614b51565b9750505050505b5050965096945050505050565b5f805f8373ffffffffffffffffffffffffffffffffffffffff1663128acb0830888b8a612edd57612ed8600173fffd8963efd1fc6a506488495d951d5263988d26614b64565b612eed565b612eed6401000276a36001614b98565b8a8f604051602001612f1f92919091825273ffffffffffffffffffffffffffffffffffffffff16602082015260400190565b6040516020818303038152906040526040518663ffffffff1660e01b8152600401612f4e959493929190614bc5565b60408051808303815f875af1158015612f69573d5f803e3d5ffd5b505050506040513d601f19601f82011682018060405250810190612f8d9190614c16565b9150915085612f9c5781612f9e565b805b612fa790614c38565b925086831015612fed576040517f371d1b7a000000000000000000000000000000000000000000000000000000008152600481018490526024810188905260440161022f565b7f0000000000000000000000000000000000000000000000000000000000000000156130af576040517f2e1a7d4d000000000000000000000000000000000000000000000000000000008152600481018490527f000000000000000000000000000000000000000000000000000000000000000073ffffffffffffffffffffffffffffffffffffffff1690632e1a7d4d906024015f604051808303815f87803b158015613098575f80fd5b505af11580156130aa573d5f803e3d5ffd5b505050505b50509695505050505050565b6040517fdd62ed3e00000000000000000000000000000000000000000000000000000000815230600482015273ffffffffffffffffffffffffffffffffffffffff83811660248301525f919085169063dd62ed3e90604401602060405180830381865afa15801561312e573d5f803e3d5ffd5b505050506040513d601f19601f820116820180604052508101906131529190614807565b9050611fbd84846131638585614676565b613a07565b5f8060205f8451602086015f885af180613187576040513d5f823e3d81fd5b50505f513d9150811561319e5780600114156131b8565b73ffffffffffffffffffffffffffffffffffffffff84163b155b15611fbd576040517f5274afe700000000000000000000000000000000000000000000000000000000815273ffffffffffffffffffffffffffffffffffffffff8516600482015260240161022f565b6060828203604051915060208183010160405280825250826020850101602082015f5b8481101561324257828101518282015260200161322a565b5050509392505050565b8047101561328f576040517fcf4791810000000000000000000000000000000000000000000000000000000081524760048201526024810182905260440161022f565b5f808373ffffffffffffffffffffffffffffffffffffffff16836040515f6040518083038185875af1925050503d805f81146132e6576040519150601f19603f3d011682016040523d82523d5f602084013e6132eb565b606091505b509150915081611fbd57611fbd81613ade565b60405173ffffffffffffffffffffffffffffffffffffffff8481166024830152838116604483015260648201839052611fbd9186918216906323b872dd906084016127b3565b5f805f8373ffffffffffffffffffffffffffffffffffffffff16633850c7bd6040518163ffffffff1660e01b815260040160e060405180830381865afa158015613390573d5f803e3d5ffd5b505050506040513d601f19601f820116820180604052508101906133b49190614a7e565b5050509350935050505f8161ffff161161342a576040517f08c379a000000000000000000000000000000000000000000000000000000000815260206004820152600260248201527f4e49000000000000000000000000000000000000000000000000000000000000604482015260640161022f565b5f8073ffffffffffffffffffffffffffffffffffffffff861663252c09d784613454876001614c6e565b61345e9190614c89565b6040517fffffffff0000000000000000000000000000000000000000000000000000000060e084901b16815261ffff9091166004820152602401608060405180830381865afa1580156134b3573d5f803e3d5ffd5b505050506040513d601f19601f820116820180604052508101906134d79190614cba565b93505050915080613575576040517f252c09d70000000000000000000000000000000000000000000000000000000081525f600482015273ffffffffffffffffffffffffffffffffffffffff87169063252c09d790602401608060405180830381865afa15801561354a573d5f803e3d5ffd5b505050506040513d601f19601f8201168201806040525081019061356e9190614cba565b5091935050505b504203949350505050565b5f808263ffffffff165f036135f1576040517f08c379a000000000000000000000000000000000000000000000000000000000815260206004820152600260248201527f4250000000000000000000000000000000000000000000000000000000000000604482015260640161022f565b6040805160028082526060820183525f9260208301908036833701905050905083815f8151811061362457613624614689565b602002602001019063ffffffff16908163ffffffff16815250505f8160018151811061365257613652614689565b602002602001019063ffffffff16908163ffffffff16815250505f808673ffffffffffffffffffffffffffffffffffffffff1663883bdbfd846040518263ffffffff1660e01b81526004016136a79190614d12565b5f60405180830381865afa1580156136c1573d5f803e3d5ffd5b505050506040513d5f823e601f3d9081017fffffffffffffffffffffffffffffffffffffffffffffffffffffffffffffffe01682016040526137069190810190614dbf565b915091505f825f8151811061371d5761371d614689565b60200260200101518360018151811061373857613738614689565b602002602001015161374a9190614e7c565b90505f825f8151811061375f5761375f614689565b60200260200101518360018151811061377a5761377a614689565b602002602001015161378c9190614b64565b905061379e63ffffffff891683614ec1565b96505f8260060b1280156137c357506137bd63ffffffff891683614f34565b60060b15155b156137d657866137d281614f55565b9750505b5f6137fb73ffffffffffffffffffffffffffffffffffffffff63ffffffff8b16614fb1565b905061382577ffffffffffffffffffffffffffffffffffffffff00000000602084901b1682614ff4565b96505050505050509250929050565b5f8061383f86613b20565b90506fffffffffffffffffffffffffffffffff73ffffffffffffffffffffffffffffffffffffffff82161161393d575f61388f73ffffffffffffffffffffffffffffffffffffffff831680614a56565b90508373ffffffffffffffffffffffffffffffffffffffff168573ffffffffffffffffffffffffffffffffffffffff16106138ff576138fa7801000000000000000000000000000000000000000000000000876fffffffffffffffffffffffffffffffff1683613e80565b613935565b61393581876fffffffffffffffffffffffffffffffff167801000000000000000000000000000000000000000000000000613e80565b9250506139fe565b5f61396873ffffffffffffffffffffffffffffffffffffffff83168068010000000000000000613e80565b90508373ffffffffffffffffffffffffffffffffffffffff168573ffffffffffffffffffffffffffffffffffffffff16106139d0576139cb700100000000000000000000000000000000876fffffffffffffffffffffffffffffffff1683613e80565b612454565b61245481876fffffffffffffffffffffffffffffffff16700100000000000000000000000000000000613e80565b50949350505050565b6040805173ffffffffffffffffffffffffffffffffffffffff8416602482015260448082018490528251808303909101815260649091019091526020810180517bffffffffffffffffffffffffffffffffffffffffffffffffffffffff167f095ea7b300000000000000000000000000000000000000000000000000000000179052613a938482613f49565b611fbd5760405173ffffffffffffffffffffffffffffffffffffffff84811660248301525f6044830152613ad491869182169063095ea7b3906064016127b3565b611fbd8482613168565b805115613aee5780518082602001fd5b6040517fd6bda27500000000000000000000000000000000000000000000000000000000815260040160405180910390fd5b5f805f8360020b12613b35578260020b613b3c565b8260020b5f035b9050620d89e8811115613b7b576040517f2bc80f3a00000000000000000000000000000000000000000000000000000000815260040160405180910390fd5b5f816001165f03613b9d57700100000000000000000000000000000000613baf565b6ffffcb933bd6fad37aa2d162d1a5940015b70ffffffffffffffffffffffffffffffffff1690506002821615613be3576ffff97272373d413259a46990580e213a0260801c5b6004821615613c02576ffff2e50f5f656932ef12357cf3c7fdcc0260801c5b6008821615613c21576fffe5caca7e10e4e61c3624eaa0941cd00260801c5b6010821615613c40576fffcb9843d60f6159c9db58835c9266440260801c5b6020821615613c5f576fff973b41fa98c081472e6896dfb254c00260801c5b6040821615613c7e576fff2ea16466c96a3843ec78b326b528610260801c5b6080821615613c9d576ffe5dee046a99a2a811c461f1969c30530260801c5b610100821615613cbd576ffcbe86c7900a88aedcffc83b479aa3a40260801c5b610200821615613cdd576ff987a7253ac413176f2b074cf7815e540260801c5b610400821615613cfd576ff3392b0822b70005940c7a398e4b70f30260801c5b610800821615613d1d576fe7159475a2c29b7443b29c7fa6e889d90260801c5b611000821615613d3d576fd097f3bdfd2022b8845ad8f792aa58250260801c5b612000821615613d5d576fa9f746462d870fdf8a65dc1f90e061e50260801c5b614000821615613d7d576f70d869a156d2a1b890bb3df62baf32f70260801c5b618000821615613d9d576f31be135f97d08fd981231505542fcfa60260801c5b62010000821615613dbe576f09aa508b5b7a84e1c677de54f3e99bc90260801c5b62020000821615613dde576e5d6af8dedb81196699c329225ee6040260801c5b62040000821615613dfd576d2216e584f5fa1ea926041bedfe980260801c5b62080000821615613e1a576b048a170391f7dc42444e8fa20260801c5b5f8460020b1315613e5857807fffffffffffffffffffffffffffffffffffffffffffffffffffffffffffffffff81613e5457613e54614b11565b0490505b640100000000810615613e6c576001613e6e565b5f5b60ff16602082901c0192505050919050565b5f80807fffffffffffffffffffffffffffffffffffffffffffffffffffffffffffffffff858709858702925082811083820303915050805f03613ed3575f8411613ec8575f80fd5b508290049050612772565b808411613ede575f80fd5b5f848688095f868103871696879004966002600389028118808a02820302808a02820302808a02820302808a02820302808a02820302808a02909103029181900381900460010186841190950394909402919094039290920491909117919091029150509392505050565b5f805f8060205f8651602088015f8a5af192503d91505f519050828015613f9557508115613f7a5780600114613f95565b5f8673ffffffffffffffffffffffffffffffffffffffff163b115b9695505050505050565b5f60208284031215613faf575f80fd5b81357fffffffff0000000000000000000000000000000000000000000000000000000081168114612772575f80fd5b73ffffffffffffffffffffffffffffffffffffffff811681146119cd575f80fd5b5f805f60608486031215614011575f80fd5b83359250602084013561402381613fde565b9150604084013561403381613fde565b809150509250925092565b5f805f60408486031215614050575f80fd5b83359250602084013567ffffffffffffffff8082111561406e575f80fd5b818601915086601f830112614081575f80fd5b81358181111561408f575f80fd5b8760206060830285010111156140a3575f80fd5b6020830194508093505050509250925092565b5f80604083850312156140c7575f80fd5b8235915060208301356140d981613fde565b809150509250929050565b815173ffffffffffffffffffffffffffffffffffffffff16815260208083015160ff169082015260408083015163ffffffff16908201526060810161087d565b5f60208284031215614134575f80fd5b5035919050565b602080825282518282018190525f9190848201906040850190845b818110156141af5761419c838551805173ffffffffffffffffffffffffffffffffffffffff16825260208082015160ff169083015260409081015163ffffffff16910152565b9284019260609290920191600101614156565b50909695505050505050565b80151581146119cd575f80fd5b5f8083601f8401126141d8575f80fd5b50813567ffffffffffffffff8111156141ef575f80fd5b60208301915083602082850101111561106d575f80fd5b5f805f805f805f8060c0898b03121561421d575f80fd5b88359750602089013561422f81613fde565b9650604089013595506060890135614246816141bb565b9450608089013567ffffffffffffffff80821115614262575f80fd5b61426e8c838d016141c8565b909650945060a08b0135915080821115614286575f80fd5b506142938b828c016141c8565b999c989b5096995094979396929594505050565b5f805f80608085870312156142ba575f80fd5b8435935060208501356142cc81613fde565b93969395505050506040820135916060013590565b7f4e487b71000000000000000000000000000000000000000000000000000000005f52604160045260245ffd5b6040516060810167ffffffffffffffff81118282101715614331576143316142e1565b60405290565b60405160a0810167ffffffffffffffff81118282101715614331576143316142e1565b604051601f82017fffffffffffffffffffffffffffffffffffffffffffffffffffffffffffffffe016810167ffffffffffffffff811182821017156143a1576143a16142e1565b604052919050565b5f67ffffffffffffffff8211156143c2576143c26142e1565b5060051b60200190565b60ff811681146119cd575f80fd5b63ffffffff811681146119cd575f80fd5b5f805f80608085870312156143fe575f80fd5b8435935060208086013567ffffffffffffffff81111561441c575f80fd5b8601601f8101881361442c575f80fd5b803561443f61443a826143a9565b61435a565b8181526060918202830184019184820191908b84111561445d575f80fd5b938501935b838510156144c05780858d031215614478575f80fd5b61448061430e565b853561448b81613fde565b81528587013561449a816143cc565b818801526040868101356144ad816143da565b9082015283529384019391850191614462565b50979a97995050505060408601359560600135949350505050565b5f602082840312156144eb575f80fd5b813561277281613fde565b5f805f8060608587031215614509575f80fd5b8435935060208501359250604085013567ffffffffffffffff81111561452d575f80fd5b614539878288016141c8565b95989497509550505050565b5f805f805f805f805f60e08a8c03121561455d575f80fd5b8935985060208a013561456f81613fde565b975060408a0135965060608a013561458681613fde565b955060808a0135945060a08a013567ffffffffffffffff808211156145a9575f80fd5b6145b58d838e016141c8565b909650945060c08c01359150808211156145cd575f80fd5b506145da8c828d016141c8565b915080935050809150509295985092959850929598565b5f60208284031215614601575f80fd5b815161277281613fde565b5f6020828403121561461c575f80fd5b815162ffffff81168114612772575f80fd5b5f6020828403121561463e575f80fd5b8151612772816143cc565b7f4e487b71000000000000000000000000000000000000000000000000000000005f52601160045260245ffd5b8082018082111561087d5761087d614649565b7f4e487b71000000000000000000000000000000000000000000000000000000005f52603260045260245ffd5b5f7fffffffffffffffffffffffffffffffffffffffffffffffffffffffffffffffff82036146e6576146e6614649565b5060010190565b81835281816020850137505f602082840101525f60207fffffffffffffffffffffffffffffffffffffffffffffffffffffffffffffffe0601f840116840101905092915050565b88815273ffffffffffffffffffffffffffffffffffffffff88166020820152866040820152851515606082015260c060808201525f61477760c0830186886146ed565b82810360a084015261478a8185876146ed565b9b9a5050505050505050505050565b8981525f73ffffffffffffffffffffffffffffffffffffffff808b16602084015289604084015280891660608401525086608083015260e060a08301526147e460e0830186886146ed565b82810360c08401526147f78185876146ed565b9c9b505050505050505050505050565b5f60208284031215614817575f80fd5b5051919050565b5f6020828403121561482e575f80fd5b8151612772816141bb565b805165ffffffffffff8116811461484e575f80fd5b919050565b5f5b8381101561486d578181015183820152602001614855565b50505f910152565b5f6020808385031215614886575f80fd5b825167ffffffffffffffff8082111561489d575f80fd5b9084019060a082870312156148b0575f80fd5b6148b8614337565b82518152838301516148c981613fde565b818501526148d960408401614839565b60408201526148ea60608401614839565b6060820152608083015182811115614900575f80fd5b80840193505086601f840112614914575f80fd5b825182811115614926576149266142e1565b614956857fffffffffffffffffffffffffffffffffffffffffffffffffffffffffffffffe0601f8401160161435a565b9250808352878582860101111561496b575f80fd5b61497a81868501878701614853565b50608081019190915295945050505050565b5f81518084526149a3816020860160208601614853565b601f017fffffffffffffffffffffffffffffffffffffffffffffffffffffffffffffffe0169290920160200192915050565b5f61010073ffffffffffffffffffffffffffffffffffffffff80871684528551818151166020860152816020820151166040860152604081015165ffffffffffff80821660608801528060608401511660808801525050508060208701511660a085015250604085015160c08401528060e0840152613f958184018561498c565b808202811582820484141761087d5761087d614649565b805161ffff8116811461484e575f80fd5b5f805f805f805f60e0888a031215614a94575f80fd5b8751614a9f81613fde565b8097505060208801518060020b8114614ab6575f80fd5b9550614ac460408901614a6d565b9450614ad260608901614a6d565b9350614ae060808901614a6d565b925060a0880151614af0816143cc565b60c0890151909250614b01816141bb565b8091505092959891949750929550565b7f4e487b71000000000000000000000000000000000000000000000000000000005f52601260045260245ffd5b5f82614b4c57614b4c614b11565b500490565b8181038181111561087d5761087d614649565b73ffffffffffffffffffffffffffffffffffffffff828116828216039080821115614b9157614b91614649565b5092915050565b73ffffffffffffffffffffffffffffffffffffffff818116838216019080821115614b9157614b91614649565b5f73ffffffffffffffffffffffffffffffffffffffff8088168352861515602084015285604084015280851660608401525060a06080830152614c0b60a083018461498c565b979650505050505050565b5f8060408385031215614c27575f80fd5b505080516020909101519092909150565b5f7f80000000000000000000000000000000000000000000000000000000000000008203614c6857614c68614649565b505f0390565b61ffff818116838216019080821115614b9157614b91614649565b5f61ffff80841680614c9d57614c9d614b11565b92169190910692915050565b8051600681900b811461484e575f80fd5b5f805f8060808587031215614ccd575f80fd5b8451614cd8816143da565b9350614ce660208601614ca9565b92506040850151614cf681613fde565b6060860151909250614d07816141bb565b939692955090935050565b602080825282518282018190525f9190848201906040850190845b818110156141af57835163ffffffff1683529284019291840191600101614d2d565b5f82601f830112614d5e575f80fd5b81516020614d6e61443a836143a9565b8083825260208201915060208460051b870101935086841115614d8f575f80fd5b602086015b84811015614db4578051614da781613fde565b8352918301918301614d94565b509695505050505050565b5f8060408385031215614dd0575f80fd5b825167ffffffffffffffff80821115614de7575f80fd5b818501915085601f830112614dfa575f80fd5b81516020614e0a61443a836143a9565b82815260059290921b84018101918181019089841115614e28575f80fd5b948201945b83861015614e4d57614e3e86614ca9565b82529482019490820190614e2d565b91880151919650909350505080821115614e65575f80fd5b50614e7285828601614d4f565b9150509250929050565b600682810b9082900b037fffffffffffffffffffffffffffffffffffffffffffffffffff800000000000008112667fffffffffffff8213171561087d5761087d614649565b5f8160060b8360060b80614ed757614ed7614b11565b7fffffffffffffffffffffffffffffffffffffffffffffffffffffffffffffffff81147fffffffffffffffffffffffffffffffffffffffffffffffffff8000000000000083141615614f2b57614f2b614649565b90059392505050565b5f8260060b80614f4657614f46614b11565b808360060b0791505092915050565b5f8160020b7fffffffffffffffffffffffffffffffffffffffffffffffffffffffffff8000008103614f8957614f89614649565b7fffffffffffffffffffffffffffffffffffffffffffffffffffffffffffffffff0192915050565b77ffffffffffffffffffffffffffffffffffffffffffffffff828116828216818102831692918115828504821417614feb57614feb614649565b50505092915050565b5f77ffffffffffffffffffffffffffffffffffffffffffffffff8084168061501e5761501e614b11565b9216919091049291505056fea2646970667358221220f0624515438fbd15b83e8a2ee331dae538db5fc083924d8cb013970a6925f3ac64736f6c63430008170033",
	"deployedBytecode": "0x",
	"gitCommit": "efd39189b49fbe46229888019a88150836b8b5ed"
}