{
	"_format": "sphinx-sol-ct-artifact-1",
	"merkleRoot": "0x9438d61df5718b9563f6fbebc6b969a736a88be17db45884c74df8581bd2e71b",
	"address": "0x87419f49c6b77109a8ab13647955180e4b23d9cc",
	"sourceName": "src/JBSwapTerminal.sol",
	"contractName": "JBSwapTerminal",
	"chainId": "0xaa37dc",
	"abi": [
		{
			"inputs": [
				{
					"internalType": "contract IJBDirectory",
					"name": "directory",
					"type": "address"
				},
				{
					"internalType": "contract IJBPermissions",
					"name": "permissions",
					"type": "address"
				},
				{
					"internalType": "contract IJBProjects",
					"name": "projects",
					"type": "address"
				},
				{
					"internalType": "contract IPermit2",
					"name": "permit2",
					"type": "address"
				},
				{
					"internalType": "address",
					"name": "owner",
					"type": "address"
				},
				{
					"internalType": "contract IWETH9",
					"name": "weth",
					"type": "address"
				},
				{
					"internalType": "address",
					"name": "tokenOut",
					"type": "address"
				},
				{
					"internalType": "contract IUniswapV3Factory",
					"name": "factory",
					"type": "address"
				}
			],
			"stateMutability": "nonpayable",
			"type": "constructor"
		},
		{
			"stateMutability": "payable",
			"type": "receive"
		},
		{
			"inputs": [],
			"name": "DEFAULT_PROJECT_ID",
			"outputs": [
				{
					"internalType": "uint256",
					"name": "",
					"type": "uint256"
				}
			],
			"stateMutability": "view",
			"type": "function"
		},
		{
			"inputs": [],
			"name": "DIRECTORY",
			"outputs": [
				{
					"internalType": "contract IJBDirectory",
					"name": "",
					"type": "address"
				}
			],
			"stateMutability": "view",
			"type": "function"
		},
		{
			"inputs": [],
			"name": "FACTORY",
			"outputs": [
				{
					"internalType": "contract IUniswapV3Factory",
					"name": "",
					"type": "address"
				}
			],
			"stateMutability": "view",
			"type": "function"
		},
		{
			"inputs": [],
			"name": "MAX_TWAP_SLIPPAGE_TOLERANCE",
			"outputs": [
				{
					"internalType": "uint256",
					"name": "",
					"type": "uint256"
				}
			],
			"stateMutability": "view",
			"type": "function"
		},
		{
			"inputs": [],
			"name": "MAX_TWAP_WINDOW",
			"outputs": [
				{
					"internalType": "uint256",
					"name": "",
					"type": "uint256"
				}
			],
			"stateMutability": "view",
			"type": "function"
		},
		{
			"inputs": [],
			"name": "MIN_TWAP_SLIPPAGE_TOLERANCE",
			"outputs": [
				{
					"internalType": "uint256",
					"name": "",
					"type": "uint256"
				}
			],
			"stateMutability": "view",
			"type": "function"
		},
		{
			"inputs": [],
			"name": "MIN_TWAP_WINDOW",
			"outputs": [
				{
					"internalType": "uint256",
					"name": "",
					"type": "uint256"
				}
			],
			"stateMutability": "view",
			"type": "function"
		},
		{
			"inputs": [],
			"name": "PERMISSIONS",
			"outputs": [
				{
					"internalType": "contract IJBPermissions",
					"name": "",
					"type": "address"
				}
			],
			"stateMutability": "view",
			"type": "function"
		},
		{
			"inputs": [],
			"name": "PERMIT2",
			"outputs": [
				{
					"internalType": "contract IPermit2",
					"name": "",
					"type": "address"
				}
			],
			"stateMutability": "view",
			"type": "function"
		},
		{
			"inputs": [],
			"name": "PROJECTS",
			"outputs": [
				{
					"internalType": "contract IJBProjects",
					"name": "",
					"type": "address"
				}
			],
			"stateMutability": "view",
			"type": "function"
		},
		{
			"inputs": [],
			"name": "SLIPPAGE_DENOMINATOR",
			"outputs": [
				{
					"internalType": "uint160",
					"name": "",
					"type": "uint160"
				}
			],
			"stateMutability": "view",
			"type": "function"
		},
		{
			"inputs": [],
			"name": "TOKEN_OUT",
			"outputs": [
				{
					"internalType": "address",
					"name": "",
					"type": "address"
				}
			],
			"stateMutability": "view",
			"type": "function"
		},
		{
			"inputs": [],
			"name": "WETH",
			"outputs": [
				{
					"internalType": "contract IWETH9",
					"name": "",
					"type": "address"
				}
			],
			"stateMutability": "view",
			"type": "function"
		},
		{
			"inputs": [
				{
					"internalType": "uint256",
					"name": "projectId",
					"type": "uint256"
				},
				{
					"internalType": "address",
					"name": "token",
					"type": "address"
				}
			],
			"name": "accountingContextForTokenOf",
			"outputs": [
				{
					"components": [
						{
							"internalType": "address",
							"name": "token",
							"type": "address"
						},
						{
							"internalType": "uint8",
							"name": "decimals",
							"type": "uint8"
						},
						{
							"internalType": "uint32",
							"name": "currency",
							"type": "uint32"
						}
					],
					"internalType": "struct JBAccountingContext",
					"name": "context",
					"type": "tuple"
				}
			],
			"stateMutability": "view",
			"type": "function"
		},
		{
			"inputs": [
				{
					"internalType": "uint256",
					"name": "projectId",
					"type": "uint256"
				}
			],
			"name": "accountingContextsOf",
			"outputs": [
				{
					"components": [
						{
							"internalType": "address",
							"name": "token",
							"type": "address"
						},
						{
							"internalType": "uint8",
							"name": "decimals",
							"type": "uint8"
						},
						{
							"internalType": "uint32",
							"name": "currency",
							"type": "uint32"
						}
					],
					"internalType": "struct JBAccountingContext[]",
					"name": "contexts",
					"type": "tuple[]"
				}
			],
			"stateMutability": "view",
			"type": "function"
		},
		{
			"inputs": [
				{
					"internalType": "uint256",
					"name": "projectId",
					"type": "uint256"
				},
				{
					"components": [
						{
							"internalType": "address",
							"name": "token",
							"type": "address"
						},
						{
							"internalType": "uint8",
							"name": "decimals",
							"type": "uint8"
						},
						{
							"internalType": "uint32",
							"name": "currency",
							"type": "uint32"
						}
					],
					"internalType": "struct JBAccountingContext[]",
					"name": "accountingContexts",
					"type": "tuple[]"
				}
			],
			"name": "addAccountingContextsFor",
			"outputs": [],
			"stateMutability": "nonpayable",
			"type": "function"
		},
		{
			"inputs": [
				{
					"internalType": "uint256",
					"name": "projectId",
					"type": "uint256"
				},
				{
					"internalType": "address",
					"name": "token",
					"type": "address"
				},
				{
					"internalType": "contract IUniswapV3Pool",
					"name": "pool",
					"type": "address"
				}
			],
			"name": "addDefaultPool",
			"outputs": [],
			"stateMutability": "nonpayable",
			"type": "function"
		},
		{
			"inputs": [
				{
					"internalType": "uint256",
					"name": "projectId",
					"type": "uint256"
				},
				{
					"internalType": "address",
					"name": "token",
					"type": "address"
				},
				{
					"internalType": "uint256",
					"name": "amount",
					"type": "uint256"
				},
				{
					"internalType": "bool",
					"name": "shouldReturnHeldFees",
					"type": "bool"
				},
				{
					"internalType": "string",
					"name": "memo",
					"type": "string"
				},
				{
					"internalType": "bytes",
					"name": "metadata",
					"type": "bytes"
				}
			],
			"name": "addToBalanceOf",
			"outputs": [],
			"stateMutability": "payable",
			"type": "function"
		},
		{
			"inputs": [
				{
					"internalType": "uint256",
					"name": "projectId",
					"type": "uint256"
				},
				{
					"internalType": "contract IUniswapV3Pool",
					"name": "pool",
					"type": "address"
				},
				{
					"internalType": "uint256",
					"name": "twapWindow",
					"type": "uint256"
				},
				{
					"internalType": "uint256",
					"name": "slippageTolerance",
					"type": "uint256"
				}
			],
			"name": "addTwapParamsFor",
			"outputs": [],
			"stateMutability": "nonpayable",
			"type": "function"
		},
		{
			"inputs": [
				{
					"internalType": "uint256",
					"name": "projectId",
					"type": "uint256"
				},
				{
					"components": [
						{
							"internalType": "address",
							"name": "token",
							"type": "address"
						},
						{
							"internalType": "uint8",
							"name": "decimals",
							"type": "uint8"
						},
						{
							"internalType": "uint32",
							"name": "currency",
							"type": "uint32"
						}
					],
					"internalType": "struct JBAccountingContext[]",
					"name": "accountingContexts",
					"type": "tuple[]"
				},
				{
					"internalType": "uint256",
					"name": "decimals",
					"type": "uint256"
				},
				{
					"internalType": "uint256",
					"name": "currency",
					"type": "uint256"
				}
			],
			"name": "currentSurplusOf",
			"outputs": [
				{
					"internalType": "uint256",
					"name": "",
					"type": "uint256"
				}
			],
			"stateMutability": "view",
			"type": "function"
		},
		{
			"inputs": [
				{
					"internalType": "uint256",
					"name": "projectId",
					"type": "uint256"
				},
				{
					"internalType": "address",
					"name": "tokenIn",
					"type": "address"
				}
			],
			"name": "getPoolFor",
			"outputs": [
				{
					"internalType": "contract IUniswapV3Pool",
					"name": "pool",
					"type": "address"
				},
				{
					"internalType": "bool",
					"name": "zeroForOne",
					"type": "bool"
				}
			],
			"stateMutability": "view",
			"type": "function"
		},
		{
			"inputs": [
				{
					"internalType": "uint256",
					"name": "projectId",
					"type": "uint256"
				},
				{
					"internalType": "address",
					"name": "token",
					"type": "address"
				},
				{
					"internalType": "contract IJBTerminal",
					"name": "to",
					"type": "address"
				}
			],
			"name": "migrateBalanceOf",
			"outputs": [
				{
					"internalType": "uint256",
					"name": "balance",
					"type": "uint256"
				}
			],
			"stateMutability": "nonpayable",
			"type": "function"
		},
		{
			"inputs": [],
			"name": "owner",
			"outputs": [
				{
					"internalType": "address",
					"name": "",
					"type": "address"
				}
			],
			"stateMutability": "view",
			"type": "function"
		},
		{
			"inputs": [
				{
					"internalType": "uint256",
					"name": "projectId",
					"type": "uint256"
				},
				{
					"internalType": "address",
					"name": "token",
					"type": "address"
				},
				{
					"internalType": "uint256",
					"name": "amount",
					"type": "uint256"
				},
				{
					"internalType": "address",
					"name": "beneficiary",
					"type": "address"
				},
				{
					"internalType": "uint256",
					"name": "minReturnedTokens",
					"type": "uint256"
				},
				{
					"internalType": "string",
					"name": "memo",
					"type": "string"
				},
				{
					"internalType": "bytes",
					"name": "metadata",
					"type": "bytes"
				}
			],
			"name": "pay",
			"outputs": [
				{
					"internalType": "uint256",
					"name": "",
					"type": "uint256"
				}
			],
			"stateMutability": "payable",
			"type": "function"
		},
		{
			"inputs": [],
			"name": "renounceOwnership",
			"outputs": [],
			"stateMutability": "nonpayable",
			"type": "function"
		},
		{
			"inputs": [
				{
					"internalType": "bytes4",
					"name": "interfaceId",
					"type": "bytes4"
				}
			],
			"name": "supportsInterface",
			"outputs": [
				{
					"internalType": "bool",
					"name": "",
					"type": "bool"
				}
			],
			"stateMutability": "view",
			"type": "function"
		},
		{
			"inputs": [
				{
					"internalType": "address",
					"name": "newOwner",
					"type": "address"
				}
			],
			"name": "transferOwnership",
			"outputs": [],
			"stateMutability": "nonpayable",
			"type": "function"
		},
		{
			"inputs": [
				{
					"internalType": "uint256",
					"name": "projectId",
					"type": "uint256"
				},
				{
					"internalType": "contract IUniswapV3Pool",
					"name": "pool",
					"type": "address"
				}
			],
			"name": "twapParamsOf",
			"outputs": [
				{
					"internalType": "uint32",
					"name": "",
					"type": "uint32"
				},
				{
					"internalType": "uint160",
					"name": "",
					"type": "uint160"
				}
			],
			"stateMutability": "view",
			"type": "function"
		},
		{
			"inputs": [
				{
					"internalType": "int256",
					"name": "amount0Delta",
					"type": "int256"
				},
				{
					"internalType": "int256",
					"name": "amount1Delta",
					"type": "int256"
				},
				{
					"internalType": "bytes",
					"name": "data",
					"type": "bytes"
				}
			],
			"name": "uniswapV3SwapCallback",
			"outputs": [],
			"stateMutability": "nonpayable",
			"type": "function"
		},
		{
			"anonymous": false,
			"inputs": [
				{
					"indexed": true,
					"internalType": "uint256",
					"name": "projectId",
					"type": "uint256"
				},
				{
					"indexed": false,
					"internalType": "uint256",
					"name": "amount",
					"type": "uint256"
				},
				{
					"indexed": false,
					"internalType": "uint256",
					"name": "returnedFees",
					"type": "uint256"
				},
				{
					"indexed": false,
					"internalType": "string",
					"name": "memo",
					"type": "string"
				},
				{
					"indexed": false,
					"internalType": "bytes",
					"name": "metadata",
					"type": "bytes"
				},
				{
					"indexed": false,
					"internalType": "address",
					"name": "caller",
					"type": "address"
				}
			],
			"name": "AddToBalance",
			"type": "event"
		},
		{
			"anonymous": false,
			"inputs": [
				{
					"indexed": true,
					"internalType": "contract IJBPayHook",
					"name": "hook",
					"type": "address"
				},
				{
					"components": [
						{
							"internalType": "address",
							"name": "payer",
							"type": "address"
						},
						{
							"internalType": "uint256",
							"name": "projectId",
							"type": "uint256"
						},
						{
							"internalType": "uint256",
							"name": "rulesetId",
							"type": "uint256"
						},
						{
							"components": [
								{
									"internalType": "address",
									"name": "token",
									"type": "address"
								},
								{
									"internalType": "uint8",
									"name": "decimals",
									"type": "uint8"
								},
								{
									"internalType": "uint32",
									"name": "currency",
									"type": "uint32"
								},
								{
									"internalType": "uint256",
									"name": "value",
									"type": "uint256"
								}
							],
							"internalType": "struct JBTokenAmount",
							"name": "amount",
							"type": "tuple"
						},
						{
							"components": [
								{
									"internalType": "address",
									"name": "token",
									"type": "address"
								},
								{
									"internalType": "uint8",
									"name": "decimals",
									"type": "uint8"
								},
								{
									"internalType": "uint32",
									"name": "currency",
									"type": "uint32"
								},
								{
									"internalType": "uint256",
									"name": "value",
									"type": "uint256"
								}
							],
							"internalType": "struct JBTokenAmount",
							"name": "forwardedAmount",
							"type": "tuple"
						},
						{
							"internalType": "uint256",
							"name": "weight",
							"type": "uint256"
						},
						{
							"internalType": "uint256",
							"name": "newlyIssuedTokenCount",
							"type": "uint256"
						},
						{
							"internalType": "address",
							"name": "beneficiary",
							"type": "address"
						},
						{
							"internalType": "bytes",
							"name": "hookMetadata",
							"type": "bytes"
						},
						{
							"internalType": "bytes",
							"name": "payerMetadata",
							"type": "bytes"
						}
					],
					"indexed": false,
					"internalType": "struct JBAfterPayRecordedContext",
					"name": "context",
					"type": "tuple"
				},
				{
					"indexed": false,
					"internalType": "uint256",
					"name": "specificationAmount",
					"type": "uint256"
				},
				{
					"indexed": false,
					"internalType": "address",
					"name": "caller",
					"type": "address"
				}
			],
			"name": "HookAfterRecordPay",
			"type": "event"
		},
		{
			"anonymous": false,
			"inputs": [
				{
					"indexed": true,
					"internalType": "uint256",
					"name": "projectId",
					"type": "uint256"
				},
				{
					"indexed": true,
					"internalType": "address",
					"name": "token",
					"type": "address"
				},
				{
					"indexed": true,
					"internalType": "contract IJBTerminal",
					"name": "to",
					"type": "address"
				},
				{
					"indexed": false,
					"internalType": "uint256",
					"name": "amount",
					"type": "uint256"
				},
				{
					"indexed": false,
					"internalType": "address",
					"name": "caller",
					"type": "address"
				}
			],
			"name": "MigrateTerminal",
			"type": "event"
		},
		{
			"anonymous": false,
			"inputs": [
				{
					"indexed": true,
					"internalType": "address",
					"name": "previousOwner",
					"type": "address"
				},
				{
					"indexed": true,
					"internalType": "address",
					"name": "newOwner",
					"type": "address"
				}
			],
			"name": "OwnershipTransferred",
			"type": "event"
		},
		{
			"anonymous": false,
			"inputs": [
				{
					"indexed": true,
					"internalType": "uint256",
					"name": "rulesetId",
					"type": "uint256"
				},
				{
					"indexed": true,
					"internalType": "uint256",
					"name": "rulesetCycleNumber",
					"type": "uint256"
				},
				{
					"indexed": true,
					"internalType": "uint256",
					"name": "projectId",
					"type": "uint256"
				},
				{
					"indexed": false,
					"internalType": "address",
					"name": "payer",
					"type": "address"
				},
				{
					"indexed": false,
					"internalType": "address",
					"name": "beneficiary",
					"type": "address"
				},
				{
					"indexed": false,
					"internalType": "uint256",
					"name": "amount",
					"type": "uint256"
				},
				{
					"indexed": false,
					"internalType": "uint256",
					"name": "newlyIssuedTokenCount",
					"type": "uint256"
				},
				{
					"indexed": false,
					"internalType": "string",
					"name": "memo",
					"type": "string"
				},
				{
					"indexed": false,
					"internalType": "bytes",
					"name": "metadata",
					"type": "bytes"
				},
				{
					"indexed": false,
					"internalType": "address",
					"name": "caller",
					"type": "address"
				}
			],
			"name": "Pay",
			"type": "event"
		},
		{
			"anonymous": false,
			"inputs": [
				{
					"indexed": true,
					"internalType": "uint256",
					"name": "projectId",
					"type": "uint256"
				},
				{
					"components": [
						{
							"internalType": "address",
							"name": "token",
							"type": "address"
						},
						{
							"internalType": "uint8",
							"name": "decimals",
							"type": "uint8"
						},
						{
							"internalType": "uint32",
							"name": "currency",
							"type": "uint32"
						}
					],
					"indexed": false,
					"internalType": "struct JBAccountingContext",
					"name": "context",
					"type": "tuple"
				},
				{
					"indexed": false,
					"internalType": "address",
					"name": "caller",
					"type": "address"
				}
			],
			"name": "SetAccountingContext",
			"type": "event"
		},
		{
			"inputs": [],
			"name": "FailedCall",
			"type": "error"
		},
		{
			"inputs": [
				{
					"internalType": "uint256",
					"name": "balance",
					"type": "uint256"
				},
				{
					"internalType": "uint256",
					"name": "needed",
					"type": "uint256"
				}
			],
			"name": "InsufficientBalance",
			"type": "error"
		},
		{
			"inputs": [
				{
					"internalType": "address",
					"name": "account",
					"type": "address"
				},
				{
					"internalType": "address",
					"name": "sender",
					"type": "address"
				},
				{
					"internalType": "uint256",
					"name": "projectId",
					"type": "uint256"
				},
				{
					"internalType": "uint256",
					"name": "permissionId",
					"type": "uint256"
				}
			],
			"name": "JBPermissioned_Unauthorized",
			"type": "error"
		},
		{
			"inputs": [
				{
					"internalType": "address",
					"name": "caller",
					"type": "address"
				}
			],
			"name": "JBSwapTerminal_CallerNotPool",
			"type": "error"
		},
		{
			"inputs": [
				{
					"internalType": "uint256",
					"name": "slippageTolerance",
					"type": "uint256"
				},
				{
					"internalType": "uint256",
					"name": "minSlippageTolerance",
					"type": "uint256"
				},
				{
					"internalType": "uint256",
					"name": "maxSlippageTolerance",
					"type": "uint256"
				}
			],
			"name": "JBSwapTerminal_InvalidTwapSlippageTolerance",
			"type": "error"
		},
		{
			"inputs": [
				{
					"internalType": "uint256",
					"name": "window",
					"type": "uint256"
				},
				{
					"internalType": "uint256",
					"name": "minWindow",
					"type": "uint256"
				},
				{
					"internalType": "uint256",
					"name": "maxWindow",
					"type": "uint256"
				}
			],
			"name": "JBSwapTerminal_InvalidTwapWindow",
			"type": "error"
		},
		{
			"inputs": [
				{
					"internalType": "uint256",
					"name": "projectId",
					"type": "uint256"
				},
				{
					"internalType": "address",
					"name": "token",
					"type": "address"
				}
			],
			"name": "JBSwapTerminal_NoDefaultPoolDefined",
			"type": "error"
		},
		{
			"inputs": [
				{
					"internalType": "uint256",
					"name": "value",
					"type": "uint256"
				}
			],
			"name": "JBSwapTerminal_NoMsgValueAllowed",
			"type": "error"
		},
		{
			"inputs": [
				{
					"internalType": "uint256",
					"name": "amount",
					"type": "uint256"
				},
				{
					"internalType": "uint256",
					"name": "allowance",
					"type": "uint256"
				}
			],
			"name": "JBSwapTerminal_PermitAllowanceNotEnough",
			"type": "error"
		},
		{
			"inputs": [
				{
					"internalType": "uint256",
					"name": "amount",
					"type": "uint256"
				},
				{
					"internalType": "uint256",
					"name": "minimum",
					"type": "uint256"
				}
			],
			"name": "JBSwapTerminal_SpecifiedSlippageExceeded",
			"type": "error"
		},
		{
			"inputs": [
				{
					"internalType": "uint256",
					"name": "projectId",
					"type": "uint256"
				},
				{
					"internalType": "address",
					"name": "token",
					"type": "address"
				}
			],
			"name": "JBSwapTerminal_TokenNotAccepted",
			"type": "error"
		},
		{
			"inputs": [
				{
					"internalType": "address",
					"name": "caller",
					"type": "address"
				}
			],
			"name": "JBSwapTerminal_UnexpectedCall",
			"type": "error"
		},
		{
			"inputs": [
				{
					"internalType": "address",
					"name": "pool",
					"type": "address"
				},
				{
					"internalType": "address",
					"name": "expectedPool",
					"type": "address"
				}
			],
			"name": "JBSwapTerminal_WrongPool",
			"type": "error"
		},
		{
			"inputs": [],
			"name": "JBSwapTerminal_ZeroToken",
			"type": "error"
		},
		{
			"inputs": [
				{
					"internalType": "address",
					"name": "owner",
					"type": "address"
				}
			],
			"name": "OwnableInvalidOwner",
			"type": "error"
		},
		{
			"inputs": [
				{
					"internalType": "address",
					"name": "account",
					"type": "address"
				}
			],
			"name": "OwnableUnauthorizedAccount",
			"type": "error"
		},
		{
			"inputs": [
				{
					"internalType": "address",
					"name": "token",
					"type": "address"
				}
			],
			"name": "SafeERC20FailedOperation",
			"type": "error"
		},
		{
			"inputs": [],
			"name": "T",
			"type": "error"
		}
	],
	"args": [],
	"solcInputHash": "d7ece9fcaffdc9e2c9cada56ec463d75",
	"bytecode": "0x6101806040523480156200001257600080fd5b506040516200550038038062005500833981016040819052620000359162000148565b6001600160a01b03808816608052849081166200006c57604051631e4fbdf760e01b81526000600482015260240160405180910390fd5b6200007781620000df565b506001600160a01b038216620000a057604051635cd24a5760e11b815260040160405180910390fd5b6001600160a01b0397881660a0529487166101005292861660e05285166101405250831661012081905261eeee146101605290911660c0525062000209565b600080546001600160a01b038381166001600160a01b0319831681178455604051919092169283917f8be0079c531659141344cd1fd0a4f28419497f9722a3daafe3b4186f6b6457e09190a35050565b6001600160a01b03811681146200014557600080fd5b50565b600080600080600080600080610100898b0312156200016657600080fd5b885162000173816200012f565b60208a015190985062000186816200012f565b60408a015190975062000199816200012f565b60608a0151909650620001ac816200012f565b60808a0151909550620001bf816200012f565b60a08a0151909450620001d2816200012f565b60c08a0151909350620001e5816200012f565b60e08a0151909250620001f8816200012f565b809150509295985092959890939650565b60805160a05160c05160e051610100516101205161014051610160516151cd62000333600039600081816120890152818161255a015281816127ad01526130980152600081816101e3015281816105a601528181611a6a01528181611bb0015281816120d4015281816125080152818161271a01526130eb01526000818161028f015281816115f4015281816116ed0152818161173e0152818161178501528181611ca001528181611d9901528181611dea01528181611e3101526120af01526000818161034b015281816108e60152611845015260008181610473015281816123a90152612c2d015260008181610394015281816109aa0152610b1601526000818161051e0152818161161f0152611ccd01526000818161068f0152611f5a01526151cd6000f3fe6080604052600436106101c65760003560e01c80637c5e9c24116100f7578063b88a92b411610095578063f2fde38b11610064578063f2fde38b1461065d578063f434c9141461067d578063fa461e33146106b1578063fef43257146106d157600080fd5b8063b88a92b4146105dd578063be6963f2146105f4578063e28b541114610614578063edb409501461063857600080fd5b80639e6eec05116100d15780639e6eec051461056b578063ac9051141461057e578063ad5c464814610594578063af471880146105c857600080fd5b80637c5e9c24146104c057806388bc2ef31461050c5780638da5cb5b1461054057600080fd5b80632dd3100011610164578063515a92931161013e578063515a9293146104345780636afdd85014610461578063715018a614610495578063754baf96146104aa57600080fd5b80632dd31000146103825780633a01714f146103b657806340873cb5146103e357600080fd5b806324e26dc5116101a057806324e26dc5146102f9578063253721c814610319578063293c4999146103395780632c1ae8821461036d57600080fd5b806301ffc9a7146102485780630392ef941461027d5780631a65893b146102d657600080fd5b36610243573373ffffffffffffffffffffffffffffffffffffffff7f00000000000000000000000000000000000000000000000000000000000000001614610241576040517fb320fe970000000000000000000000000000000000000000000000000000000081523360048201526024015b60405180910390fd5b005b600080fd5b34801561025457600080fd5b5061026861026336600461408d565b6106e4565b60405190151581526020015b60405180910390f35b34801561028957600080fd5b506102b17f000000000000000000000000000000000000000000000000000000000000000081565b60405173ffffffffffffffffffffffffffffffffffffffff9091168152602001610274565b3480156102e257600080fd5b506102eb607881565b604051908152602001610274565b34801561030557600080fd5b506102416103143660046140f1565b6108ad565b34801561032557600080fd5b50610241610334366004614133565b505050565b34801561034557600080fd5b506102b17f000000000000000000000000000000000000000000000000000000000000000081565b34801561037957600080fd5b506102eb600081565b34801561038e57600080fd5b506102b17f000000000000000000000000000000000000000000000000000000000000000081565b3480156103c257600080fd5b506103d66103d13660046141b2565b610ed9565b60405161027491906141e2565b3480156103ef57600080fd5b506104036103fe3660046141b2565b611021565b6040805163ffffffff909316835273ffffffffffffffffffffffffffffffffffffffff909116602083015201610274565b34801561044057600080fd5b5061045461044f366004614222565b6110b1565b604051610274919061423b565b34801561046d57600080fd5b506102b17f000000000000000000000000000000000000000000000000000000000000000081565b3480156104a157600080fd5b506102416114dc565b3480156104b657600080fd5b506102eb61232881565b3480156104cc57600080fd5b506104e06104db3660046141b2565b6114f0565b6040805173ffffffffffffffffffffffffffffffffffffffff9093168352901515602083015201610274565b34801561051857600080fd5b506102b17f000000000000000000000000000000000000000000000000000000000000000081565b34801561054c57600080fd5b5060005473ffffffffffffffffffffffffffffffffffffffff166102b1565b61024161057936600461430c565b6115b0565b34801561058a57600080fd5b506102b161271081565b3480156105a057600080fd5b506102b17f000000000000000000000000000000000000000000000000000000000000000081565b3480156105d457600080fd5b506102eb606481565b3480156105e957600080fd5b506102eb6202a30081565b34801561060057600080fd5b5061024161060f3660046143b4565b61180c565b34801561062057600080fd5b506102eb61062f3660046140f1565b60009392505050565b34801561064457600080fd5b506102eb610653366004614500565b6000949350505050565b34801561066957600080fd5b506102416106783660046145f8565b6119c9565b34801561068957600080fd5b506102b17f000000000000000000000000000000000000000000000000000000000000000081565b3480156106bd57600080fd5b506102416106cc366004614615565b611a2d565b6102eb6106df366004614668565b611c5c565b60007fffffffff0000000000000000000000000000000000000000000000000000000082167f21c9410700000000000000000000000000000000000000000000000000000000148061077757507fffffffff0000000000000000000000000000000000000000000000000000000082167f6afdd85000000000000000000000000000000000000000000000000000000000145b806107c357507fffffffff0000000000000000000000000000000000000000000000000000000082167f01ffc9a700000000000000000000000000000000000000000000000000000000145b8061080f57507fffffffff0000000000000000000000000000000000000000000000000000000082167ffa461e3300000000000000000000000000000000000000000000000000000000145b8061085b57507fffffffff0000000000000000000000000000000000000000000000000000000082167ff434c91400000000000000000000000000000000000000000000000000000000145b806108a757507fffffffff0000000000000000000000000000000000000000000000000000000082167f62e21b3800000000000000000000000000000000000000000000000000000000145b92915050565b8215610973576040517f6352211e0000000000000000000000000000000000000000000000000000000081526004810184905261096e907f000000000000000000000000000000000000000000000000000000000000000073ffffffffffffffffffffffffffffffffffffffff1690636352211e90602401602060405180830381865afa158015610942573d6000803e3d6000fd5b505050506040513d601f19601f82011682018060405250810190610966919061471c565b84601a611ecf565b61097b565b61097b612032565b6000610985612085565b905073ffffffffffffffffffffffffffffffffffffffff8082168482161090838116907f000000000000000000000000000000000000000000000000000000000000000016631698ee82836109da57846109dc565b865b846109e757876109e9565b855b8773ffffffffffffffffffffffffffffffffffffffff1663ddca3f436040518163ffffffff1660e01b8152600401602060405180830381865afa158015610a34573d6000803e3d6000fd5b505050506040513d601f19601f82011682018060405250810190610a589190614739565b6040517fffffffff0000000000000000000000000000000000000000000000000000000060e086901b16815273ffffffffffffffffffffffffffffffffffffffff938416600482015292909116602483015262ffffff166044820152606401602060405180830381865afa158015610ad4573d6000803e3d6000fd5b505050506040513d601f19601f82011682018060405250810190610af8919061471c565b73ffffffffffffffffffffffffffffffffffffffff1614610ccb57827f000000000000000000000000000000000000000000000000000000000000000073ffffffffffffffffffffffffffffffffffffffff16631698ee8283610b5b5784610b5d565b865b84610b685787610b6a565b855b8773ffffffffffffffffffffffffffffffffffffffff1663ddca3f436040518163ffffffff1660e01b8152600401602060405180830381865afa158015610bb5573d6000803e3d6000fd5b505050506040513d601f19601f82011682018060405250810190610bd99190614739565b6040517fffffffff0000000000000000000000000000000000000000000000000000000060e086901b16815273ffffffffffffffffffffffffffffffffffffffff938416600482015292909116602483015262ffffff166044820152606401602060405180830381865afa158015610c55573d6000803e3d6000fd5b505050506040513d601f19601f82011682018060405250810190610c79919061471c565b6040517fe2bbe4ec00000000000000000000000000000000000000000000000000000000815273ffffffffffffffffffffffffffffffffffffffff928316600482015291166024820152604401610238565b600085815260026020908152604080832073ffffffffffffffffffffffffffffffffffffffff8881168086529184529382902080547fffffffffffffffffffffffff00000000000000000000000000000000000000001694881694909417909355805160608101825283815281517f313ce5670000000000000000000000000000000000000000000000000000000081529151909384840193909263313ce56792600480830193928290030181865afa158015610d8c573d6000803e3d6000fd5b505050506040513d601f19601f82011682018060405250810190610db0919061475e565b60ff908116825263ffffffff80881660209384015260008981526001808552604080832073ffffffffffffffffffffffffffffffffffffffff9b8c16808552908752818420885181548a8a01519a8501519097167501000000000000000000000000000000000000000000027fffffffffffffff00000000ffffffffffffffffffffffffffffffffffffffffff9a90981674010000000000000000000000000000000000000000027fffffffffffffffffffffff0000000000000000000000000000000000000000009097169d169c909c179490941796909616939093179098559787526003825291862080549283018155865290942090930180547fffffffffffffffffffffffff000000000000000000000000000000000000000016909417909355505050565b6040805160608082018352600080835260208084018290529284018190528581526001835283812073ffffffffffffffffffffffffffffffffffffffff868116835290845290849020845192830185525490811680835274010000000000000000000000000000000000000000820460ff16938301939093527501000000000000000000000000000000000000000000900463ffffffff16928101929092526108a7575073ffffffffffffffffffffffffffffffffffffffff81811660009081527fa6eef7e35abe7026729641147f7915573c7e97b47efa546f5f6e3230263bcb49602090815260409182902082516060810184529054938416815274010000000000000000000000000000000000000000840460ff1691810191909152750100000000000000000000000000000000000000000090920463ffffffff169082015292915050565b600082815260046020908152604080832073ffffffffffffffffffffffffffffffffffffffff8516845290915281205481908082036110a1575073ffffffffffffffffffffffffffffffffffffffff831660009081527f17ef568e3e12ab5b9c7254a8d58478811de00f9e6eb34345acd53bf8fd09d3ec60205260409020545b915050602081901c5b9250929050565b600081815260036020908152604080832080548251818502810185019093528083526060949383018282801561111d57602002820191906000526020600020905b815473ffffffffffffffffffffffffffffffffffffffff1681526001909101906020018083116110f2575b50506000808052600360209081527f3617319a054d772f909f7c479a2cebe5066e836a939412e32403c99029b92eff805460408051828502810185019091528181529798509296955093509091508301828280156111b157602002820191906000526020600020905b815473ffffffffffffffffffffffffffffffffffffffff168152600190910190602001808311611186575b50505050509050805182516111c691906147aa565b67ffffffffffffffff8111156111de576111de6143f1565b60405190808252806020026020018201604052801561124757816020015b60408051606081018252600080825260208083018290529282015282527fffffffffffffffffffffffffffffffffffffffffffffffffffffffffffffffff9092019101816111fc5790505b50825190935060005b818110156113305760016000878152602001908152602001600020600085838151811061127f5761127f6147bd565b60209081029190910181015173ffffffffffffffffffffffffffffffffffffffff908116835282820193909352604091820160002082516060810184529054938416815274010000000000000000000000000000000000000000840460ff1691810191909152750100000000000000000000000000000000000000000090920463ffffffff1690820152855186908390811061131d5761131d6147bd565b6020908102919091010152600101611250565b5081518160005b828110156114c4576000805b858110156113c15786838151811061135d5761135d6147bd565b602002602001015173ffffffffffffffffffffffffffffffffffffffff1688828151811061138d5761138d6147bd565b602002602001015173ffffffffffffffffffffffffffffffffffffffff16036113b957600191506113c1565b600101611343565b50806114bb576000808052600160205286517fa6eef7e35abe7026729641147f7915573c7e97b47efa546f5f6e3230263bcb499190889085908110611408576114086147bd565b60209081029190910181015173ffffffffffffffffffffffffffffffffffffffff908116835282820193909352604091820160002082516060810184529054938416815274010000000000000000000000000000000000000000840460ff1691810191909152750100000000000000000000000000000000000000000090920463ffffffff1690820152888461149d816147ec565b9550815181106114af576114af6147bd565b60200260200101819052505b50600101611337565b5085518110156114d2578086525b5050505050919050565b6114e4612032565b6114ee60006120f6565b565b600082815260026020908152604080832073ffffffffffffffffffffffffffffffffffffffff808616855292528220541690816115715773ffffffffffffffffffffffffffffffffffffffff80841660009081527fac33ff75c19e70fe83507db0d683fd3465c996598dc972688b7ace676c89077b60205260409020541691505b611579612085565b73ffffffffffffffffffffffffffffffffffffffff168373ffffffffffffffffffffffffffffffffffffffff161090509250929050565b6040517f862026500000000000000000000000000000000000000000000000000000000081526004810189905273ffffffffffffffffffffffffffffffffffffffff7f0000000000000000000000000000000000000000000000000000000000000000811660248301526000917f000000000000000000000000000000000000000000000000000000000000000090911690638620265090604401602060405180830381865afa158015611668573d6000803e3d6000fd5b505050506040513d601f19601f8201168201806040525081019061168c919061471c565b905073ffffffffffffffffffffffffffffffffffffffff811661171a576040517fcf78a6fc000000000000000000000000000000000000000000000000000000008152600481018a905273ffffffffffffffffffffffffffffffffffffffff7f0000000000000000000000000000000000000000000000000000000000000000166024820152604401610238565b60006117348a8a61172d8c8c898961216b565b87876124de565b90506000611763837f0000000000000000000000000000000000000000000000000000000000000000846127a9565b90508273ffffffffffffffffffffffffffffffffffffffff16639e6eec05828d7f0000000000000000000000000000000000000000000000000000000000000000868d8d8d8d8d6040518a63ffffffff1660e01b81526004016117cd98979695949392919061486d565b6000604051808303818588803b1580156117e657600080fd5b505af11580156117fa573d6000803e3d6000fd5b50505050505050505050505050505050565b83156118d2576040517f6352211e000000000000000000000000000000000000000000000000000000008152600481018590526118cd907f000000000000000000000000000000000000000000000000000000000000000073ffffffffffffffffffffffffffffffffffffffff1690636352211e90602401602060405180830381865afa1580156118a1573d6000803e3d6000fd5b505050506040513d601f19601f820116820180604052508101906118c5919061471c565b85601b611ecf565b6118da565b6118da612032565b60788210806118eb57506202a30082115b15611935576040517f9442583100000000000000000000000000000000000000000000000000000000815260048101839052607860248201526202a3006044820152606401610238565b6064811080611945575061232881115b1561198e576040517f1f463fad00000000000000000000000000000000000000000000000000000000815260048101829052606460248201819052612328604483015201610238565b600093845260046020908152604080862073ffffffffffffffffffffffffffffffffffffffff9095168652938152929093209290911b179055565b6119d1612032565b73ffffffffffffffffffffffffffffffffffffffff8116611a21576040517f1e4fbdf700000000000000000000000000000000000000000000000000000000815260006004820152602401610238565b611a2a816120f6565b50565b600080611a3c838501856141b2565b9092509050600073ffffffffffffffffffffffffffffffffffffffff821661eeee14611a685781611a8a565b7f00000000000000000000000000000000000000000000000000000000000000005b600084815260026020908152604080832073ffffffffffffffffffffffffffffffffffffffff80861685529252909120549192501680611b0d575073ffffffffffffffffffffffffffffffffffffffff80821660009081527fac33ff75c19e70fe83507db0d683fd3465c996598dc972688b7ace676c89077b6020526040902054165b3373ffffffffffffffffffffffffffffffffffffffff821614611b5e576040517fbca42a54000000000000000000000000000000000000000000000000000000008152336004820152602401610238565b6000808912611b6d5788611b6f565b875b90507fffffffffffffffffffffffffffffffffffffffffffffffffffffffffffff111273ffffffffffffffffffffffffffffffffffffffff851601611c30577f000000000000000000000000000000000000000000000000000000000000000073ffffffffffffffffffffffffffffffffffffffff1663d0e30db0826040518263ffffffff1660e01b81526004016000604051808303818588803b158015611c1657600080fd5b505af1158015611c2a573d6000803e3d6000fd5b50505050505b611c5173ffffffffffffffffffffffffffffffffffffffff84163383612804565b505050505050505050565b6040517f86202650000000000000000000000000000000000000000000000000000000008152600481018a905273ffffffffffffffffffffffffffffffffffffffff7f00000000000000000000000000000000000000000000000000000000000000008116602483015260009182917f00000000000000000000000000000000000000000000000000000000000000001690638620265090604401602060405180830381865afa158015611d14573d6000803e3d6000fd5b505050506040513d601f19601f82011682018060405250810190611d38919061471c565b905073ffffffffffffffffffffffffffffffffffffffff8116611dc6576040517fcf78a6fc000000000000000000000000000000000000000000000000000000008152600481018c905273ffffffffffffffffffffffffffffffffffffffff7f0000000000000000000000000000000000000000000000000000000000000000166024820152604401610238565b6000611de08c8c611dd98e8e8a8a61216b565b88886124de565b90506000611e0f837f0000000000000000000000000000000000000000000000000000000000000000846127a9565b90508273ffffffffffffffffffffffffffffffffffffffff1663fef43257828f7f0000000000000000000000000000000000000000000000000000000000000000868f8f8f8f8f8f6040518b63ffffffff1660e01b8152600401611e7b999897969594939291906148d3565b60206040518083038185885af1158015611e99573d6000803e3d6000fd5b50505050506040513d601f19601f82011682018060405250810190611ebe9190614942565b9d9c50505050505050505050505050565b3373ffffffffffffffffffffffffffffffffffffffff84168114801590611fc757506040517f348b684e00000000000000000000000000000000000000000000000000000000815273ffffffffffffffffffffffffffffffffffffffff82811660048301528581166024830152604482018590526064820184905260016084830181905260a48301527f0000000000000000000000000000000000000000000000000000000000000000169063348b684e9060c401602060405180830381865afa158015611fa1573d6000803e3d6000fd5b505050506040513d601f19601f82011682018060405250810190611fc5919061495b565b155b1561202c576040517f264deeaa00000000000000000000000000000000000000000000000000000000815273ffffffffffffffffffffffffffffffffffffffff8086166004830152821660248201526044810184905260648101839052608401610238565b50505050565b60005473ffffffffffffffffffffffffffffffffffffffff1633146114ee576040517f118cdaa7000000000000000000000000000000000000000000000000000000008152336004820152602401610238565b60007f00000000000000000000000000000000000000000000000000000000000000006120d157507f000000000000000000000000000000000000000000000000000000000000000090565b507f000000000000000000000000000000000000000000000000000000000000000090565b6000805473ffffffffffffffffffffffffffffffffffffffff8381167fffffffffffffffffffffffff0000000000000000000000000000000000000000831681178455604051919092169283917f8be0079c531659141344cd1fd0a4f28419497f9722a3daafe3b4186f6b6457e09190a35050565b60007fffffffffffffffffffffffffffffffffffffffffffffffffffffffffffff111273ffffffffffffffffffffffffffffffffffffffff8616016121b15750346124d6565b34156121eb576040517f15f828f8000000000000000000000000000000000000000000000000000000008152346004820152602401610238565b60008061226b61222f6040518060400160405280600781526020017f7065726d69743200000000000000000000000000000000000000000000000000815250612885565b86868080601f01602080910402602001604051908101604052809392919081815260200183838082843760009201919091525061289992505050565b9150915081156124375760008180602001905181019061228b91906149b7565b9050806020015173ffffffffffffffffffffffffffffffffffffffff168711156123065760208101516040517f6efd58f80000000000000000000000000000000000000000000000000000000081526004810189905273ffffffffffffffffffffffffffffffffffffffff9091166024820152604401610238565b6000604051806060016040528060405180608001604052808c73ffffffffffffffffffffffffffffffffffffffff168152602001856020015173ffffffffffffffffffffffffffffffffffffffff168152602001856040015165ffffffffffff168152602001856060015165ffffffffffff1681525081526020013073ffffffffffffffffffffffffffffffffffffffff168152602001836000015181525090507f000000000000000000000000000000000000000000000000000000000000000073ffffffffffffffffffffffffffffffffffffffff16632b67b570338385608001516040518463ffffffff1660e01b815260040161240893929190614b1f565b600060405180830381600087803b15801561242257600080fd5b505af1925050508015612433575060015b5050505b61244333308989612a86565b6040517f70a0823100000000000000000000000000000000000000000000000000000000815230600482015273ffffffffffffffffffffffffffffffffffffffff8816906370a0823190602401602060405180830381865afa1580156124ad573d6000803e3d6000fd5b505050506040513d601f19601f820116820180604052508101906124d19190614942565b925050505b949350505050565b60008073ffffffffffffffffffffffffffffffffffffffff861661eeee146125065785612528565b7f00000000000000000000000000000000000000000000000000000000000000005b90506000612534612085565b905073ffffffffffffffffffffffffffffffffffffffff871661eeee14801561257a57507f00000000000000000000000000000000000000000000000000000000000000005b806125b057508073ffffffffffffffffffffffffffffffffffffffff168273ffffffffffffffffffffffffffffffffffffffff16145b156125bf5785925050506127a0565b6000806125d087878c878c88612c8f565b9150915060006126128a8a858773ffffffffffffffffffffffffffffffffffffffff168973ffffffffffffffffffffffffffffffffffffffff16108f87612f36565b6040517f70a0823100000000000000000000000000000000000000000000000000000000815230600482015290915060009073ffffffffffffffffffffffffffffffffffffffff8716906370a0823190602401602060405180830381865afa158015612682573d6000803e3d6000fd5b505050506040513d601f19601f820116820180604052508101906126a69190614942565b90508015612798577fffffffffffffffffffffffffffffffffffffffffffffffffffffffffffff111273ffffffffffffffffffffffffffffffffffffffff8c160161278c576040517f2e1a7d4d000000000000000000000000000000000000000000000000000000008152600481018290527f000000000000000000000000000000000000000000000000000000000000000073ffffffffffffffffffffffffffffffffffffffff1690632e1a7d4d90602401600060405180830381600087803b15801561277357600080fd5b505af1158015612787573d6000803e3d6000fd5b505050505b61279830338d84612a86565b509450505050505b95945050505050565b60007f0000000000000000000000000000000000000000000000000000000000000000156127d85750806127fd565b6127f973ffffffffffffffffffffffffffffffffffffffff84168584613169565b5060005b9392505050565b60405173ffffffffffffffffffffffffffffffffffffffff83811660248301526044820183905261033491859182169063a9059cbb906064015b604051602081830303815290604052915060e01b6020820180517bffffffffffffffffffffffffffffffffffffffffffffffffffffffff8381831617835250505050613219565b805160208201206000903060601b186108a7565b6000606060258351116128be57505060408051602081019091526000808252906110aa565b6000836128cd600460206147aa565b815181106128dd576128dd6147bd565b0160209081015160f81c91505b6000856128f86004846147aa565b81518110612908576129086147bd565b01602001517fff0000000000000000000000000000000000000000000000000000000000000016148015906129465750612943602083614ba1565b81105b15612a7d576000856129596004846147aa565b81518110612969576129696147bd565b016020908101518784019091015160f89190911c91507fffffffff0000000000000000000000000000000000000000000000000000000080891690821603612a735760006129b8602086614ba1565b6129c36009866147aa565b101580612a105750876129d76009866147aa565b815181106129e7576129e76147bd565b01602001517fff0000000000000000000000000000000000000000000000000000000000000016155b612a4957602088612a226009876147aa565b81518110612a3257612a326147bd565b0160200151612a44919060f81c614ba1565b612a4c565b87515b90506001612a6589612a5f602087614ba1565b846132bd565b9650965050505050506110aa565b50506005016128ea565b50509250929050565b3073ffffffffffffffffffffffffffffffffffffffff851603612b10577fffffffffffffffffffffffffffffffffffffffffffffffffffffffffffff111273ffffffffffffffffffffffffffffffffffffffff831601612aef57612aea8382613303565b61202c565b612aea73ffffffffffffffffffffffffffffffffffffffff83168483612804565b6040517fdd62ed3e00000000000000000000000000000000000000000000000000000000815273ffffffffffffffffffffffffffffffffffffffff858116600483015230602483015282919084169063dd62ed3e90604401602060405180830381865afa158015612b85573d6000803e3d6000fd5b505050506040513d601f19601f82011682018060405250810190612ba99190614942565b10612bd057612aea73ffffffffffffffffffffffffffffffffffffffff83168585846133b9565b6040517f36c7851600000000000000000000000000000000000000000000000000000000815273ffffffffffffffffffffffffffffffffffffffff85811660048301528481166024830152828116604483015283811660648301527f000000000000000000000000000000000000000000000000000000000000000016906336c7851690608401600060405180830381600087803b158015612c7157600080fd5b505af1158015612c85573d6000803e3d6000fd5b5050505050505050565b600084815260026020908152604080832073ffffffffffffffffffffffffffffffffffffffff808816855292528220541680612d63575073ffffffffffffffffffffffffffffffffffffffff80851660009081527fac33ff75c19e70fe83507db0d683fd3465c996598dc972688b7ace676c89077b60205260409020541680612d63576040517f891773860000000000000000000000000000000000000000000000000000000081526004810187905273ffffffffffffffffffffffffffffffffffffffff86166024820152604401610238565b600080612de3612da76040518060400160405280600c81526020017f71756f7465466f72537761700000000000000000000000000000000000000000815250612885565b8b8b8080601f01602080910402602001604051908101604052809392919081815260200183838082843760009201919091525061289992505050565b915091508115612e085780806020019051810190612e019190614942565b9350612f29565b600080612e158a86611021565b915091506000612e24866133ff565b90508263ffffffff168163ffffffff161015612e3e578092505b60008163ffffffff16600003612ecf5760008773ffffffffffffffffffffffffffffffffffffffff16633850c7bd6040518163ffffffff1660e01b815260040160e060405180830381865afa158015612e9b573d6000803e3d6000fd5b505050506040513d601f19601f82011682018060405250810190612ebf9190614bca565b50939650612edd95505050505050565b612ed98785613646565b5090505b612ee9818b8d8c61390a565b9750612710612f0e73ffffffffffffffffffffffffffffffffffffffff85168a614ba1565b612f189190614c92565b612f229089614ca6565b9750505050505b5050965096945050505050565b60008060008373ffffffffffffffffffffffffffffffffffffffff1663128acb0830888b8a612f8357612f7e600173fffd8963efd1fc6a506488495d951d5263988d26614cb9565b612f93565b612f936401000276a36001614ced565b8a8f604051602001612fc592919091825273ffffffffffffffffffffffffffffffffffffffff16602082015260400190565b6040516020818303038152906040526040518663ffffffff1660e01b8152600401612ff4959493929190614d1a565b60408051808303816000875af1158015613012573d6000803e3d6000fd5b505050506040513d601f19601f820116820180604052508101906130369190614d6c565b91509150856130455781613047565b805b61305090614d90565b925086831015613096576040517f371d1b7a0000000000000000000000000000000000000000000000000000000081526004810184905260248101889052604401610238565b7f00000000000000000000000000000000000000000000000000000000000000001561315d576040517f2e1a7d4d000000000000000000000000000000000000000000000000000000008152600481018490527f000000000000000000000000000000000000000000000000000000000000000073ffffffffffffffffffffffffffffffffffffffff1690632e1a7d4d90602401600060405180830381600087803b15801561314457600080fd5b505af1158015613158573d6000803e3d6000fd5b505050505b50509695505050505050565b6040517fdd62ed3e00000000000000000000000000000000000000000000000000000000815230600482015273ffffffffffffffffffffffffffffffffffffffff83811660248301526000919085169063dd62ed3e90604401602060405180830381865afa1580156131df573d6000803e3d6000fd5b505050506040513d601f19601f820116820180604052508101906132039190614942565b905061202c848461321485856147aa565b613ae0565b600080602060008451602086016000885af18061323c576040513d6000823e3d81fd5b50506000513d9150811561325457806001141561326e565b73ffffffffffffffffffffffffffffffffffffffff84163b155b1561202c576040517f5274afe700000000000000000000000000000000000000000000000000000000815273ffffffffffffffffffffffffffffffffffffffff85166004820152602401610238565b60608282036040519150602081830101604052808252508260208501016020820160005b848110156132f95782810151828201526020016132e1565b5050509392505050565b80471015613346576040517fcf47918100000000000000000000000000000000000000000000000000000000815247600482015260248101829052604401610238565b6000808373ffffffffffffffffffffffffffffffffffffffff168360405160006040518083038185875af1925050503d80600081146133a1576040519150601f19603f3d011682016040523d82523d6000602084013e6133a6565b606091505b50915091508161202c5761202c81613bb8565b60405173ffffffffffffffffffffffffffffffffffffffff848116602483015283811660448301526064820183905261202c9186918216906323b872dd9060840161283e565b60008060008373ffffffffffffffffffffffffffffffffffffffff16633850c7bd6040518163ffffffff1660e01b815260040160e060405180830381865afa15801561344f573d6000803e3d6000fd5b505050506040513d601f19601f820116820180604052508101906134739190614bca565b50505093509350505060008161ffff16116134ea576040517f08c379a000000000000000000000000000000000000000000000000000000000815260206004820152600260248201527f4e490000000000000000000000000000000000000000000000000000000000006044820152606401610238565b60008073ffffffffffffffffffffffffffffffffffffffff861663252c09d784613515876001614dc8565b61351f9190614de3565b6040517fffffffff0000000000000000000000000000000000000000000000000000000060e084901b16815261ffff9091166004820152602401608060405180830381865afa158015613576573d6000803e3d6000fd5b505050506040513d601f19601f8201168201806040525081019061359a9190614e16565b9350505091508061363b576040517f252c09d70000000000000000000000000000000000000000000000000000000081526000600482015273ffffffffffffffffffffffffffffffffffffffff87169063252c09d790602401608060405180830381865afa158015613610573d6000803e3d6000fd5b505050506040513d601f19601f820116820180604052508101906136349190614e16565b5091935050505b504203949350505050565b6000808263ffffffff166000036136b9576040517f08c379a000000000000000000000000000000000000000000000000000000000815260206004820152600260248201527f42500000000000000000000000000000000000000000000000000000000000006044820152606401610238565b60408051600280825260608201835260009260208301908036833701905050905083816000815181106136ee576136ee6147bd565b602002602001019063ffffffff16908163ffffffff168152505060008160018151811061371d5761371d6147bd565b602002602001019063ffffffff16908163ffffffff16815250506000808673ffffffffffffffffffffffffffffffffffffffff1663883bdbfd846040518263ffffffff1660e01b81526004016137739190614e71565b600060405180830381865afa158015613790573d6000803e3d6000fd5b505050506040513d6000823e601f3d9081017fffffffffffffffffffffffffffffffffffffffffffffffffffffffffffffffe01682016040526137d69190810190614f22565b915091506000826000815181106137ef576137ef6147bd565b60200260200101518360018151811061380a5761380a6147bd565b602002602001015161381c9190614fe5565b9050600082600081518110613833576138336147bd565b60200260200101518360018151811061384e5761384e6147bd565b60200260200101516138609190614cb9565b905061387263ffffffff89168361502a565b965060008260060b128015613898575061389263ffffffff89168361509e565b60060b15155b156138ab57866138a7816150c0565b9750505b60006138d173ffffffffffffffffffffffffffffffffffffffff63ffffffff8b1661511d565b90506138fb77ffffffffffffffffffffffffffffffffffffffff00000000602084901b1682615160565b96505050505050509250929050565b60008061391686613bfa565b90506fffffffffffffffffffffffffffffffff73ffffffffffffffffffffffffffffffffffffffff821611613a1557600061396773ffffffffffffffffffffffffffffffffffffffff831680614ba1565b90508373ffffffffffffffffffffffffffffffffffffffff168573ffffffffffffffffffffffffffffffffffffffff16106139d7576139d27801000000000000000000000000000000000000000000000000876fffffffffffffffffffffffffffffffff1683613f61565b613a0d565b613a0d81876fffffffffffffffffffffffffffffffff167801000000000000000000000000000000000000000000000000613f61565b925050613ad7565b6000613a4173ffffffffffffffffffffffffffffffffffffffff83168068010000000000000000613f61565b90508373ffffffffffffffffffffffffffffffffffffffff168573ffffffffffffffffffffffffffffffffffffffff1610613aa957613aa4700100000000000000000000000000000000876fffffffffffffffffffffffffffffffff1683613f61565b6124d1565b6124d181876fffffffffffffffffffffffffffffffff16700100000000000000000000000000000000613f61565b50949350505050565b6040805173ffffffffffffffffffffffffffffffffffffffff8416602482015260448082018490528251808303909101815260649091019091526020810180517bffffffffffffffffffffffffffffffffffffffffffffffffffffffff167f095ea7b300000000000000000000000000000000000000000000000000000000179052613b6c8482614031565b61202c5760405173ffffffffffffffffffffffffffffffffffffffff848116602483015260006044830152613bae91869182169063095ea7b39060640161283e565b61202c8482613219565b805115613bc85780518082602001fd5b6040517fd6bda27500000000000000000000000000000000000000000000000000000000815260040160405180910390fd5b60008060008360020b12613c11578260020b613c19565b8260020b6000035b9050620d89e8811115613c58576040517f2bc80f3a00000000000000000000000000000000000000000000000000000000815260040160405180910390fd5b600081600116600003613c7c57700100000000000000000000000000000000613c8e565b6ffffcb933bd6fad37aa2d162d1a5940015b70ffffffffffffffffffffffffffffffffff1690506002821615613cc2576ffff97272373d413259a46990580e213a0260801c5b6004821615613ce1576ffff2e50f5f656932ef12357cf3c7fdcc0260801c5b6008821615613d00576fffe5caca7e10e4e61c3624eaa0941cd00260801c5b6010821615613d1f576fffcb9843d60f6159c9db58835c9266440260801c5b6020821615613d3e576fff973b41fa98c081472e6896dfb254c00260801c5b6040821615613d5d576fff2ea16466c96a3843ec78b326b528610260801c5b6080821615613d7c576ffe5dee046a99a2a811c461f1969c30530260801c5b610100821615613d9c576ffcbe86c7900a88aedcffc83b479aa3a40260801c5b610200821615613dbc576ff987a7253ac413176f2b074cf7815e540260801c5b610400821615613ddc576ff3392b0822b70005940c7a398e4b70f30260801c5b610800821615613dfc576fe7159475a2c29b7443b29c7fa6e889d90260801c5b611000821615613e1c576fd097f3bdfd2022b8845ad8f792aa58250260801c5b612000821615613e3c576fa9f746462d870fdf8a65dc1f90e061e50260801c5b614000821615613e5c576f70d869a156d2a1b890bb3df62baf32f70260801c5b618000821615613e7c576f31be135f97d08fd981231505542fcfa60260801c5b62010000821615613e9d576f09aa508b5b7a84e1c677de54f3e99bc90260801c5b62020000821615613ebd576e5d6af8dedb81196699c329225ee6040260801c5b62040000821615613edc576d2216e584f5fa1ea926041bedfe980260801c5b62080000821615613ef9576b048a170391f7dc42444e8fa20260801c5b60008460020b1315613f3857807fffffffffffffffffffffffffffffffffffffffffffffffffffffffffffffffff81613f3457613f34614c63565b0490505b640100000000810615613f4c576001613f4f565b60005b60ff16602082901c0192505050919050565b600080807fffffffffffffffffffffffffffffffffffffffffffffffffffffffffffffffff85870985870292508281108382030391505080600003613fb85760008411613fad57600080fd5b5082900490506127fd565b808411613fc457600080fd5b6000848688096000868103871696879004966002600389028118808a02820302808a02820302808a02820302808a02820302808a02820302808a02909103029181900381900460010186841190950394909402919094039290920491909117919091029150509392505050565b6000806000806020600086516020880160008a5af192503d91506000519050828015614083575081156140675780600114614083565b60008673ffffffffffffffffffffffffffffffffffffffff163b115b9695505050505050565b60006020828403121561409f57600080fd5b81357fffffffff00000000000000000000000000000000000000000000000000000000811681146127fd57600080fd5b73ffffffffffffffffffffffffffffffffffffffff81168114611a2a57600080fd5b60008060006060848603121561410657600080fd5b833592506020840135614118816140cf565b91506040840135614128816140cf565b809150509250925092565b60008060006040848603121561414857600080fd5b83359250602084013567ffffffffffffffff8082111561416757600080fd5b818601915086601f83011261417b57600080fd5b81358181111561418a57600080fd5b87602060608302850101111561419f57600080fd5b6020830194508093505050509250925092565b600080604083850312156141c557600080fd5b8235915060208301356141d7816140cf565b809150509250929050565b815173ffffffffffffffffffffffffffffffffffffffff16815260208083015160ff169082015260408083015163ffffffff1690820152606081016108a7565b60006020828403121561423457600080fd5b5035919050565b6020808252825182820181905260009190848201906040850190845b818110156142b05761429d838551805173ffffffffffffffffffffffffffffffffffffffff16825260208082015160ff169083015260409081015163ffffffff16910152565b9284019260609290920191600101614257565b50909695505050505050565b8015158114611a2a57600080fd5b60008083601f8401126142dc57600080fd5b50813567ffffffffffffffff8111156142f457600080fd5b6020830191508360208285010111156110aa57600080fd5b60008060008060008060008060c0898b03121561432857600080fd5b88359750602089013561433a816140cf565b9650604089013595506060890135614351816142bc565b9450608089013567ffffffffffffffff8082111561436e57600080fd5b61437a8c838d016142ca565b909650945060a08b013591508082111561439357600080fd5b506143a08b828c016142ca565b999c989b5096995094979396929594505050565b600080600080608085870312156143ca57600080fd5b8435935060208501356143dc816140cf565b93969395505050506040820135916060013590565b7f4e487b7100000000000000000000000000000000000000000000000000000000600052604160045260246000fd5b6040516060810167ffffffffffffffff81118282101715614443576144436143f1565b60405290565b60405160a0810167ffffffffffffffff81118282101715614443576144436143f1565b604051601f82017fffffffffffffffffffffffffffffffffffffffffffffffffffffffffffffffe016810167ffffffffffffffff811182821017156144b3576144b36143f1565b604052919050565b600067ffffffffffffffff8211156144d5576144d56143f1565b5060051b60200190565b60ff81168114611a2a57600080fd5b63ffffffff81168114611a2a57600080fd5b6000806000806080858703121561451657600080fd5b8435935060208086013567ffffffffffffffff81111561453557600080fd5b8601601f8101881361454657600080fd5b8035614559614554826144bb565b61446c565b8181526060918202830184019184820191908b84111561457857600080fd5b938501935b838510156145dd5780858d0312156145955760008081fd5b61459d614420565b85356145a8816140cf565b8152858701356145b7816144df565b818801526040868101356145ca816144ee565b908201528352938401939185019161457d565b50979a97995050505060408601359560600135949350505050565b60006020828403121561460a57600080fd5b81356127fd816140cf565b6000806000806060858703121561462b57600080fd5b8435935060208501359250604085013567ffffffffffffffff81111561465057600080fd5b61465c878288016142ca565b95989497509550505050565b600080600080600080600080600060e08a8c03121561468657600080fd5b8935985060208a0135614698816140cf565b975060408a0135965060608a01356146af816140cf565b955060808a0135945060a08a013567ffffffffffffffff808211156146d357600080fd5b6146df8d838e016142ca565b909650945060c08c01359150808211156146f857600080fd5b506147058c828d016142ca565b915080935050809150509295985092959850929598565b60006020828403121561472e57600080fd5b81516127fd816140cf565b60006020828403121561474b57600080fd5b815162ffffff811681146127fd57600080fd5b60006020828403121561477057600080fd5b81516127fd816144df565b7f4e487b7100000000000000000000000000000000000000000000000000000000600052601160045260246000fd5b808201808211156108a7576108a761477b565b7f4e487b7100000000000000000000000000000000000000000000000000000000600052603260045260246000fd5b60007fffffffffffffffffffffffffffffffffffffffffffffffffffffffffffffffff820361481d5761481d61477b565b5060010190565b8183528181602085013750600060208284010152600060207fffffffffffffffffffffffffffffffffffffffffffffffffffffffffffffffe0601f840116840101905092915050565b88815273ffffffffffffffffffffffffffffffffffffffff88166020820152866040820152851515606082015260c0608082015260006148b160c083018688614824565b82810360a08401526148c4818587614824565b9b9a5050505050505050505050565b898152600073ffffffffffffffffffffffffffffffffffffffff808b16602084015289604084015280891660608401525086608083015260e060a083015261491f60e083018688614824565b82810360c0840152614932818587614824565b9c9b505050505050505050505050565b60006020828403121561495457600080fd5b5051919050565b60006020828403121561496d57600080fd5b81516127fd816142bc565b805165ffffffffffff8116811461498e57600080fd5b919050565b60005b838110156149ae578181015183820152602001614996565b50506000910152565b600060208083850312156149ca57600080fd5b825167ffffffffffffffff808211156149e257600080fd5b9084019060a082870312156149f657600080fd5b6149fe614449565b8251815283830151614a0f816140cf565b81850152614a1f60408401614978565b6040820152614a3060608401614978565b6060820152608083015182811115614a4757600080fd5b80840193505086601f840112614a5c57600080fd5b825182811115614a6e57614a6e6143f1565b614a9e857fffffffffffffffffffffffffffffffffffffffffffffffffffffffffffffffe0601f8401160161446c565b92508083528785828601011115614ab457600080fd5b614ac381868501878701614993565b50608081019190915295945050505050565b60008151808452614aed816020860160208601614993565b601f017fffffffffffffffffffffffffffffffffffffffffffffffffffffffffffffffe0169290920160200192915050565b600061010073ffffffffffffffffffffffffffffffffffffffff80871684528551818151166020860152816020820151166040860152604081015165ffffffffffff80821660608801528060608401511660808801525050508060208701511660a085015250604085015160c08401528060e084015261408381840185614ad5565b80820281158282048414176108a7576108a761477b565b805161ffff8116811461498e57600080fd5b600080600080600080600060e0888a031215614be557600080fd5b8751614bf0816140cf565b8097505060208801518060020b8114614c0857600080fd5b9550614c1660408901614bb8565b9450614c2460608901614bb8565b9350614c3260808901614bb8565b925060a0880151614c42816144df565b60c0890151909250614c53816142bc565b8091505092959891949750929550565b7f4e487b7100000000000000000000000000000000000000000000000000000000600052601260045260246000fd5b600082614ca157614ca1614c63565b500490565b818103818111156108a7576108a761477b565b73ffffffffffffffffffffffffffffffffffffffff828116828216039080821115614ce657614ce661477b565b5092915050565b73ffffffffffffffffffffffffffffffffffffffff818116838216019080821115614ce657614ce661477b565b600073ffffffffffffffffffffffffffffffffffffffff8088168352861515602084015285604084015280851660608401525060a06080830152614d6160a0830184614ad5565b979650505050505050565b60008060408385031215614d7f57600080fd5b505080516020909101519092909150565b60007f80000000000000000000000000000000000000000000000000000000000000008203614dc157614dc161477b565b5060000390565b61ffff818116838216019080821115614ce657614ce661477b565b600061ffff80841680614df857614df8614c63565b92169190910692915050565b8051600681900b811461498e57600080fd5b60008060008060808587031215614e2c57600080fd5b8451614e37816144ee565b9350614e4560208601614e04565b92506040850151614e55816140cf565b6060860151909250614e66816142bc565b939692955090935050565b6020808252825182820181905260009190848201906040850190845b818110156142b057835163ffffffff1683529284019291840191600101614e8d565b600082601f830112614ec057600080fd5b81516020614ed0614554836144bb565b8083825260208201915060208460051b870101935086841115614ef257600080fd5b602086015b84811015614f17578051614f0a816140cf565b8352918301918301614ef7565b509695505050505050565b60008060408385031215614f3557600080fd5b825167ffffffffffffffff80821115614f4d57600080fd5b818501915085601f830112614f6157600080fd5b81516020614f71614554836144bb565b82815260059290921b84018101918181019089841115614f9057600080fd5b948201945b83861015614fb557614fa686614e04565b82529482019490820190614f95565b91880151919650909350505080821115614fce57600080fd5b50614fdb85828601614eaf565b9150509250929050565b600682810b9082900b037fffffffffffffffffffffffffffffffffffffffffffffffffff800000000000008112667fffffffffffff821317156108a7576108a761477b565b60008160060b8360060b8061504157615041614c63565b7fffffffffffffffffffffffffffffffffffffffffffffffffffffffffffffffff81147fffffffffffffffffffffffffffffffffffffffffffffffffff80000000000000831416156150955761509561477b565b90059392505050565b60008260060b806150b1576150b1614c63565b808360060b0791505092915050565b60008160020b7fffffffffffffffffffffffffffffffffffffffffffffffffffffffffff80000081036150f5576150f561477b565b7fffffffffffffffffffffffffffffffffffffffffffffffffffffffffffffffff0192915050565b77ffffffffffffffffffffffffffffffffffffffffffffffff8281168282168181028316929181158285048214176151575761515761477b565b50505092915050565b600077ffffffffffffffffffffffffffffffffffffffffffffffff8084168061518b5761518b614c63565b9216919091049291505056fea26469706673582212209f5d3fd473066595622877124edb4575c002a4bb7af8e77cc557a54c1f5f93ee64736f6c63430008170033",
	"deployedBytecode": "0x",
	"gitCommit": "827ad9c73d15ec0f081db9b32d30a0cd405e2b91"
}