{
	"_format": "sphinx-sol-ct-artifact-1",
	"merkleRoot": "0x8b9802360a8c8e6e2f4a149e9bb6e8b63dd771fd0754238cb32c44fc10ab5c6c",
	"contractName": "JBSwapTerminal",
	"address": "0x6f3F8c5FE34E8D63713128b58a62986bf007CA56",
	"abi": [
		{
			"type": "constructor",
			"inputs": [
				{
					"name": "directory",
					"type": "address",
					"internalType": "contract IJBDirectory"
				},
				{
					"name": "permissions",
					"type": "address",
					"internalType": "contract IJBPermissions"
				},
				{
					"name": "projects",
					"type": "address",
					"internalType": "contract IJBProjects"
				},
				{
					"name": "permit2",
					"type": "address",
					"internalType": "contract IPermit2"
				},
				{
					"name": "owner",
					"type": "address",
					"internalType": "address"
				},
				{
					"name": "weth",
					"type": "address",
					"internalType": "contract IWETH9"
				},
				{
					"name": "tokenOut",
					"type": "address",
					"internalType": "address"
				},
				{
					"name": "factory",
					"type": "address",
					"internalType": "contract IUniswapV3Factory"
				}
			],
			"stateMutability": "nonpayable"
		},
		{
			"type": "receive",
			"stateMutability": "payable"
		},
		{
			"type": "function",
			"name": "DEFAULT_PROJECT_ID",
			"inputs": [],
			"outputs": [
				{
					"name": "",
					"type": "uint256",
					"internalType": "uint256"
				}
			],
			"stateMutability": "view"
		},
		{
			"type": "function",
			"name": "DIRECTORY",
			"inputs": [],
			"outputs": [
				{
					"name": "",
					"type": "address",
					"internalType": "contract IJBDirectory"
				}
			],
			"stateMutability": "view"
		},
		{
			"type": "function",
			"name": "FACTORY",
			"inputs": [],
			"outputs": [
				{
					"name": "",
					"type": "address",
					"internalType": "contract IUniswapV3Factory"
				}
			],
			"stateMutability": "view"
		},
		{
			"type": "function",
			"name": "PERMISSIONS",
			"inputs": [],
			"outputs": [
				{
					"name": "",
					"type": "address",
					"internalType": "contract IJBPermissions"
				}
			],
			"stateMutability": "view"
		},
		{
			"type": "function",
			"name": "PERMIT2",
			"inputs": [],
			"outputs": [
				{
					"name": "",
					"type": "address",
					"internalType": "contract IPermit2"
				}
			],
			"stateMutability": "view"
		},
		{
			"type": "function",
			"name": "PROJECTS",
			"inputs": [],
			"outputs": [
				{
					"name": "",
					"type": "address",
					"internalType": "contract IJBProjects"
				}
			],
			"stateMutability": "view"
		},
		{
			"type": "function",
			"name": "SLIPPAGE_DENOMINATOR",
			"inputs": [],
			"outputs": [
				{
					"name": "",
					"type": "uint160",
					"internalType": "uint160"
				}
			],
			"stateMutability": "view"
		},
		{
			"type": "function",
			"name": "TOKEN_OUT",
			"inputs": [],
			"outputs": [
				{
					"name": "",
					"type": "address",
					"internalType": "address"
				}
			],
			"stateMutability": "view"
		},
		{
			"type": "function",
			"name": "WETH",
			"inputs": [],
			"outputs": [
				{
					"name": "",
					"type": "address",
					"internalType": "contract IWETH9"
				}
			],
			"stateMutability": "view"
		},
		{
			"type": "function",
			"name": "accountingContextForTokenOf",
			"inputs": [
				{
					"name": "projectId",
					"type": "uint256",
					"internalType": "uint256"
				},
				{
					"name": "token",
					"type": "address",
					"internalType": "address"
				}
			],
			"outputs": [
				{
					"name": "context",
					"type": "tuple",
					"internalType": "struct JBAccountingContext",
					"components": [
						{
							"name": "token",
							"type": "address",
							"internalType": "address"
						},
						{
							"name": "decimals",
							"type": "uint8",
							"internalType": "uint8"
						},
						{
							"name": "currency",
							"type": "uint32",
							"internalType": "uint32"
						}
					]
				}
			],
			"stateMutability": "view"
		},
		{
			"type": "function",
			"name": "accountingContextsOf",
			"inputs": [
				{
					"name": "projectId",
					"type": "uint256",
					"internalType": "uint256"
				}
			],
			"outputs": [
				{
					"name": "contexts",
					"type": "tuple[]",
					"internalType": "struct JBAccountingContext[]",
					"components": [
						{
							"name": "token",
							"type": "address",
							"internalType": "address"
						},
						{
							"name": "decimals",
							"type": "uint8",
							"internalType": "uint8"
						},
						{
							"name": "currency",
							"type": "uint32",
							"internalType": "uint32"
						}
					]
				}
			],
			"stateMutability": "view"
		},
		{
			"type": "function",
			"name": "addAccountingContextsFor",
			"inputs": [
				{
					"name": "projectId",
					"type": "uint256",
					"internalType": "uint256"
				},
				{
					"name": "accountingContexts",
					"type": "tuple[]",
					"internalType": "struct JBAccountingContext[]",
					"components": [
						{
							"name": "token",
							"type": "address",
							"internalType": "address"
						},
						{
							"name": "decimals",
							"type": "uint8",
							"internalType": "uint8"
						},
						{
							"name": "currency",
							"type": "uint32",
							"internalType": "uint32"
						}
					]
				}
			],
			"outputs": [],
			"stateMutability": "nonpayable"
		},
		{
			"type": "function",
			"name": "addDefaultPool",
			"inputs": [
				{
					"name": "projectId",
					"type": "uint256",
					"internalType": "uint256"
				},
				{
					"name": "token",
					"type": "address",
					"internalType": "address"
				},
				{
					"name": "pool",
					"type": "address",
					"internalType": "contract IUniswapV3Pool"
				}
			],
			"outputs": [],
			"stateMutability": "nonpayable"
		},
		{
			"type": "function",
			"name": "addToBalanceOf",
			"inputs": [
				{
					"name": "projectId",
					"type": "uint256",
					"internalType": "uint256"
				},
				{
					"name": "token",
					"type": "address",
					"internalType": "address"
				},
				{
					"name": "amount",
					"type": "uint256",
					"internalType": "uint256"
				},
				{
					"name": "shouldReturnHeldFees",
					"type": "bool",
					"internalType": "bool"
				},
				{
					"name": "memo",
					"type": "string",
					"internalType": "string"
				},
				{
					"name": "metadata",
					"type": "bytes",
					"internalType": "bytes"
				}
			],
			"outputs": [],
			"stateMutability": "payable"
		},
		{
			"type": "function",
			"name": "addTwapParamsFor",
			"inputs": [
				{
					"name": "projectId",
					"type": "uint256",
					"internalType": "uint256"
				},
				{
					"name": "pool",
					"type": "address",
					"internalType": "contract IUniswapV3Pool"
				},
				{
					"name": "twapWindow",
					"type": "uint32",
					"internalType": "uint32"
				},
				{
					"name": "slippageTolerance",
					"type": "uint160",
					"internalType": "uint160"
				}
			],
			"outputs": [],
			"stateMutability": "nonpayable"
		},
		{
			"type": "function",
			"name": "currentSurplusOf",
			"inputs": [
				{
					"name": "projectId",
					"type": "uint256",
					"internalType": "uint256"
				},
				{
					"name": "",
					"type": "tuple[]",
					"internalType": "struct JBAccountingContext[]",
					"components": [
						{
							"name": "token",
							"type": "address",
							"internalType": "address"
						},
						{
							"name": "decimals",
							"type": "uint8",
							"internalType": "uint8"
						},
						{
							"name": "currency",
							"type": "uint32",
							"internalType": "uint32"
						}
					]
				},
				{
					"name": "decimals",
					"type": "uint256",
					"internalType": "uint256"
				},
				{
					"name": "currency",
					"type": "uint256",
					"internalType": "uint256"
				}
			],
			"outputs": [
				{
					"name": "",
					"type": "uint256",
					"internalType": "uint256"
				}
			],
			"stateMutability": "view"
		},
		{
			"type": "function",
			"name": "getPoolFor",
			"inputs": [
				{
					"name": "projectId",
					"type": "uint256",
					"internalType": "uint256"
				},
				{
					"name": "tokenIn",
					"type": "address",
					"internalType": "address"
				}
			],
			"outputs": [
				{
					"name": "pool",
					"type": "address",
					"internalType": "contract IUniswapV3Pool"
				},
				{
					"name": "zeroForOne",
					"type": "bool",
					"internalType": "bool"
				}
			],
			"stateMutability": "view"
		},
		{
			"type": "function",
			"name": "migrateBalanceOf",
			"inputs": [
				{
					"name": "projectId",
					"type": "uint256",
					"internalType": "uint256"
				},
				{
					"name": "token",
					"type": "address",
					"internalType": "address"
				},
				{
					"name": "to",
					"type": "address",
					"internalType": "contract IJBTerminal"
				}
			],
			"outputs": [
				{
					"name": "balance",
					"type": "uint256",
					"internalType": "uint256"
				}
			],
			"stateMutability": "nonpayable"
		},
		{
			"type": "function",
			"name": "owner",
			"inputs": [],
			"outputs": [
				{
					"name": "",
					"type": "address",
					"internalType": "address"
				}
			],
			"stateMutability": "view"
		},
		{
			"type": "function",
			"name": "pay",
			"inputs": [
				{
					"name": "projectId",
					"type": "uint256",
					"internalType": "uint256"
				},
				{
					"name": "token",
					"type": "address",
					"internalType": "address"
				},
				{
					"name": "amount",
					"type": "uint256",
					"internalType": "uint256"
				},
				{
					"name": "beneficiary",
					"type": "address",
					"internalType": "address"
				},
				{
					"name": "minReturnedTokens",
					"type": "uint256",
					"internalType": "uint256"
				},
				{
					"name": "memo",
					"type": "string",
					"internalType": "string"
				},
				{
					"name": "metadata",
					"type": "bytes",
					"internalType": "bytes"
				}
			],
			"outputs": [
				{
					"name": "",
					"type": "uint256",
					"internalType": "uint256"
				}
			],
			"stateMutability": "payable"
		},
		{
			"type": "function",
			"name": "renounceOwnership",
			"inputs": [],
			"outputs": [],
			"stateMutability": "nonpayable"
		},
		{
			"type": "function",
			"name": "supportsInterface",
			"inputs": [
				{
					"name": "interfaceId",
					"type": "bytes4",
					"internalType": "bytes4"
				}
			],
			"outputs": [
				{
					"name": "",
					"type": "bool",
					"internalType": "bool"
				}
			],
			"stateMutability": "view"
		},
		{
			"type": "function",
			"name": "transferOwnership",
			"inputs": [
				{
					"name": "newOwner",
					"type": "address",
					"internalType": "address"
				}
			],
			"outputs": [],
			"stateMutability": "nonpayable"
		},
		{
			"type": "function",
			"name": "twapParamsOf",
			"inputs": [
				{
					"name": "projectId",
					"type": "uint256",
					"internalType": "uint256"
				},
				{
					"name": "pool",
					"type": "address",
					"internalType": "contract IUniswapV3Pool"
				}
			],
			"outputs": [
				{
					"name": "",
					"type": "uint32",
					"internalType": "uint32"
				},
				{
					"name": "",
					"type": "uint160",
					"internalType": "uint160"
				}
			],
			"stateMutability": "view"
		},
		{
			"type": "function",
			"name": "uniswapV3SwapCallback",
			"inputs": [
				{
					"name": "amount0Delta",
					"type": "int256",
					"internalType": "int256"
				},
				{
					"name": "amount1Delta",
					"type": "int256",
					"internalType": "int256"
				},
				{
					"name": "data",
					"type": "bytes",
					"internalType": "bytes"
				}
			],
			"outputs": [],
			"stateMutability": "nonpayable"
		},
		{
			"type": "event",
			"name": "AddToBalance",
			"inputs": [
				{
					"name": "projectId",
					"type": "uint256",
					"indexed": true,
					"internalType": "uint256"
				},
				{
					"name": "amount",
					"type": "uint256",
					"indexed": false,
					"internalType": "uint256"
				},
				{
					"name": "returnedFees",
					"type": "uint256",
					"indexed": false,
					"internalType": "uint256"
				},
				{
					"name": "memo",
					"type": "string",
					"indexed": false,
					"internalType": "string"
				},
				{
					"name": "metadata",
					"type": "bytes",
					"indexed": false,
					"internalType": "bytes"
				},
				{
					"name": "caller",
					"type": "address",
					"indexed": false,
					"internalType": "address"
				}
			],
			"anonymous": false
		},
		{
			"type": "event",
			"name": "HookAfterRecordPay",
			"inputs": [
				{
					"name": "hook",
					"type": "address",
					"indexed": true,
					"internalType": "contract IJBPayHook"
				},
				{
					"name": "context",
					"type": "tuple",
					"indexed": false,
					"internalType": "struct JBAfterPayRecordedContext",
					"components": [
						{
							"name": "payer",
							"type": "address",
							"internalType": "address"
						},
						{
							"name": "projectId",
							"type": "uint256",
							"internalType": "uint256"
						},
						{
							"name": "rulesetId",
							"type": "uint256",
							"internalType": "uint256"
						},
						{
							"name": "amount",
							"type": "tuple",
							"internalType": "struct JBTokenAmount",
							"components": [
								{
									"name": "token",
									"type": "address",
									"internalType": "address"
								},
								{
									"name": "decimals",
									"type": "uint8",
									"internalType": "uint8"
								},
								{
									"name": "currency",
									"type": "uint32",
									"internalType": "uint32"
								},
								{
									"name": "value",
									"type": "uint256",
									"internalType": "uint256"
								}
							]
						},
						{
							"name": "forwardedAmount",
							"type": "tuple",
							"internalType": "struct JBTokenAmount",
							"components": [
								{
									"name": "token",
									"type": "address",
									"internalType": "address"
								},
								{
									"name": "decimals",
									"type": "uint8",
									"internalType": "uint8"
								},
								{
									"name": "currency",
									"type": "uint32",
									"internalType": "uint32"
								},
								{
									"name": "value",
									"type": "uint256",
									"internalType": "uint256"
								}
							]
						},
						{
							"name": "weight",
							"type": "uint256",
							"internalType": "uint256"
						},
						{
							"name": "newlyIssuedTokenCount",
							"type": "uint256",
							"internalType": "uint256"
						},
						{
							"name": "beneficiary",
							"type": "address",
							"internalType": "address"
						},
						{
							"name": "hookMetadata",
							"type": "bytes",
							"internalType": "bytes"
						},
						{
							"name": "payerMetadata",
							"type": "bytes",
							"internalType": "bytes"
						}
					]
				},
				{
					"name": "specificationAmount",
					"type": "uint256",
					"indexed": false,
					"internalType": "uint256"
				},
				{
					"name": "caller",
					"type": "address",
					"indexed": false,
					"internalType": "address"
				}
			],
			"anonymous": false
		},
		{
			"type": "event",
			"name": "MigrateTerminal",
			"inputs": [
				{
					"name": "projectId",
					"type": "uint256",
					"indexed": true,
					"internalType": "uint256"
				},
				{
					"name": "token",
					"type": "address",
					"indexed": true,
					"internalType": "address"
				},
				{
					"name": "to",
					"type": "address",
					"indexed": true,
					"internalType": "contract IJBTerminal"
				},
				{
					"name": "amount",
					"type": "uint256",
					"indexed": false,
					"internalType": "uint256"
				},
				{
					"name": "caller",
					"type": "address",
					"indexed": false,
					"internalType": "address"
				}
			],
			"anonymous": false
		},
		{
			"type": "event",
			"name": "OwnershipTransferred",
			"inputs": [
				{
					"name": "previousOwner",
					"type": "address",
					"indexed": true,
					"internalType": "address"
				},
				{
					"name": "newOwner",
					"type": "address",
					"indexed": true,
					"internalType": "address"
				}
			],
			"anonymous": false
		},
		{
			"type": "event",
			"name": "Pay",
			"inputs": [
				{
					"name": "rulesetId",
					"type": "uint256",
					"indexed": true,
					"internalType": "uint256"
				},
				{
					"name": "rulesetCycleNumber",
					"type": "uint256",
					"indexed": true,
					"internalType": "uint256"
				},
				{
					"name": "projectId",
					"type": "uint256",
					"indexed": true,
					"internalType": "uint256"
				},
				{
					"name": "payer",
					"type": "address",
					"indexed": false,
					"internalType": "address"
				},
				{
					"name": "beneficiary",
					"type": "address",
					"indexed": false,
					"internalType": "address"
				},
				{
					"name": "amount",
					"type": "uint256",
					"indexed": false,
					"internalType": "uint256"
				},
				{
					"name": "newlyIssuedTokenCount",
					"type": "uint256",
					"indexed": false,
					"internalType": "uint256"
				},
				{
					"name": "memo",
					"type": "string",
					"indexed": false,
					"internalType": "string"
				},
				{
					"name": "metadata",
					"type": "bytes",
					"indexed": false,
					"internalType": "bytes"
				},
				{
					"name": "caller",
					"type": "address",
					"indexed": false,
					"internalType": "address"
				}
			],
			"anonymous": false
		},
		{
			"type": "event",
			"name": "SetAccountingContext",
			"inputs": [
				{
					"name": "projectId",
					"type": "uint256",
					"indexed": true,
					"internalType": "uint256"
				},
				{
					"name": "context",
					"type": "tuple",
					"indexed": false,
					"internalType": "struct JBAccountingContext",
					"components": [
						{
							"name": "token",
							"type": "address",
							"internalType": "address"
						},
						{
							"name": "decimals",
							"type": "uint8",
							"internalType": "uint8"
						},
						{
							"name": "currency",
							"type": "uint32",
							"internalType": "uint32"
						}
					]
				},
				{
					"name": "caller",
					"type": "address",
					"indexed": false,
					"internalType": "address"
				}
			],
			"anonymous": false
		},
		{
			"type": "error",
			"name": "FailedCall",
			"inputs": []
		},
		{
			"type": "error",
			"name": "InsufficientBalance",
			"inputs": [
				{
					"name": "balance",
					"type": "uint256",
					"internalType": "uint256"
				},
				{
					"name": "needed",
					"type": "uint256",
					"internalType": "uint256"
				}
			]
		},
		{
			"type": "error",
			"name": "JBPermissioned_Unauthorized",
			"inputs": [
				{
					"name": "account",
					"type": "address",
					"internalType": "address"
				},
				{
					"name": "sender",
					"type": "address",
					"internalType": "address"
				},
				{
					"name": "projectId",
					"type": "uint256",
					"internalType": "uint256"
				},
				{
					"name": "permissionId",
					"type": "uint256",
					"internalType": "uint256"
				}
			]
		},
		{
			"type": "error",
			"name": "JBSwapTerminal_CallerNotPool",
			"inputs": [
				{
					"name": "caller",
					"type": "address",
					"internalType": "address"
				}
			]
		},
		{
			"type": "error",
			"name": "JBSwapTerminal_NoDefaultPoolDefined",
			"inputs": [
				{
					"name": "projectId",
					"type": "uint256",
					"internalType": "uint256"
				},
				{
					"name": "token",
					"type": "address",
					"internalType": "address"
				}
			]
		},
		{
			"type": "error",
			"name": "JBSwapTerminal_NoMsgValueAllowed",
			"inputs": [
				{
					"name": "value",
					"type": "uint256",
					"internalType": "uint256"
				}
			]
		},
		{
			"type": "error",
			"name": "JBSwapTerminal_PermitAllowanceNotEnough",
			"inputs": [
				{
					"name": "amount",
					"type": "uint256",
					"internalType": "uint256"
				},
				{
					"name": "allowance",
					"type": "uint256",
					"internalType": "uint256"
				}
			]
		},
		{
			"type": "error",
			"name": "JBSwapTerminal_SpecifiedSlippageExceeded",
			"inputs": [
				{
					"name": "amount",
					"type": "uint256",
					"internalType": "uint256"
				},
				{
					"name": "minimum",
					"type": "uint256",
					"internalType": "uint256"
				}
			]
		},
		{
			"type": "error",
			"name": "JBSwapTerminal_TokenNotAccepted",
			"inputs": [
				{
					"name": "projectId",
					"type": "uint256",
					"internalType": "uint256"
				},
				{
					"name": "token",
					"type": "address",
					"internalType": "address"
				}
			]
		},
		{
			"type": "error",
			"name": "JBSwapTerminal_UnexpectedCall",
			"inputs": [
				{
					"name": "caller",
					"type": "address",
					"internalType": "address"
				}
			]
		},
		{
			"type": "error",
			"name": "JBSwapTerminal_WrongPool",
			"inputs": [
				{
					"name": "pool",
					"type": "address",
					"internalType": "address"
				},
				{
					"name": "expectedPool",
					"type": "address",
					"internalType": "address"
				}
			]
		},
		{
			"type": "error",
			"name": "JBSwapTerminal_ZeroToken",
			"inputs": []
		},
		{
			"type": "error",
			"name": "OwnableInvalidOwner",
			"inputs": [
				{
					"name": "owner",
					"type": "address",
					"internalType": "address"
				}
			]
		},
		{
			"type": "error",
			"name": "OwnableUnauthorizedAccount",
			"inputs": [
				{
					"name": "account",
					"type": "address",
					"internalType": "address"
				}
			]
		},
		{
			"type": "error",
			"name": "SafeERC20FailedOperation",
			"inputs": [
				{
					"name": "token",
					"type": "address",
					"internalType": "address"
				}
			]
		},
		{
			"type": "error",
			"name": "T",
			"inputs": []
		}
	],
	"solcInputHash": "89df004932d8cd691b253db3d756ceeb",
	"args": [
		"0x5ADb234602D074064C216C1fDB23c6c2031F0C75",
		"0x4886C30C81a17a3A1084fd1812008fA0f71a20B9",
		"0x9B52A59F108e36cE0a8Eba595Eca22DbadbE655F",
		"0x000000000022D473030F116dDEE9F6B43aC78BA3",
		"0x823b92d6a4b2AED4b15675c7917c9f922ea8ADAD",
		"0x4200000000000000000000000000000000000006",
		"0x000000000000000000000000000000000000EEEe",
		"0x4752ba5DBc23f44D87826276BF6Fd6b1C372aD24"
	],
	"bytecode": "0x6101806040523480156200001257600080fd5b50604051620052f9380380620052f9833981016040819052620000359162000148565b6001600160a01b03808816608052849081166200006c57604051631e4fbdf760e01b81526000600482015260240160405180910390fd5b6200007781620000df565b506001600160a01b038216620000a057604051635cd24a5760e11b815260040160405180910390fd5b6001600160a01b0397881660a0529487166101005292861660e05285166101405250831661012081905261eeee146101605290911660c0525062000209565b600080546001600160a01b038381166001600160a01b0319831681178455604051919092169283917f8be0079c531659141344cd1fd0a4f28419497f9722a3daafe3b4186f6b6457e09190a35050565b6001600160a01b03811681146200014557600080fd5b50565b600080600080600080600080610100898b0312156200016657600080fd5b885162000173816200012f565b60208a015190985062000186816200012f565b60408a015190975062000199816200012f565b60608a0151909650620001ac816200012f565b60808a0151909550620001bf816200012f565b60a08a0151909450620001d2816200012f565b60c08a0151909350620001e5816200012f565b60e08a0151909250620001f8816200012f565b809150509295985092959890939650565b60805160a05160c05160e05161010051610120516101405161016051614fc66200033360003960008181611e9201528181612363015281816125b60152612ea10152600081816101b70152818161054f01528181611873015281816119b901528181611edd01528181612311015281816125230152612ef40152600081816102630152818161148d01528181611586015281816115d70152818161161e01528181611aa901528181611ba201528181611bf301528181611c3a0152611eb80152600081816102fc0152818161077f01526116de015260008181610432015281816121b20152612a360152600081816103530152818161084301526109af0152600081816104c7015281816114b80152611ad601526000818161060c0152611d630152614fc66000f3fe60806040526004361061019a5760003560e01c80637c5e9c24116100e1578063c361534c1161008a578063f2fde38b11610064578063f2fde38b146105da578063f434c914146105fa578063fa461e331461062e578063fef432571461064e57600080fd5b8063c361534c14610571578063e28b541114610591578063edb40950146105b557600080fd5b80639e6eec05116100bb5780639e6eec0514610514578063ac90511414610527578063ad5c46481461053d57600080fd5b80637c5e9c241461046957806388bc2ef3146104b55780638da5cb5b146104e957600080fd5b80632dd3100011610143578063515a92931161011d578063515a9293146103f35780636afdd85014610420578063715018a61461045457600080fd5b80632dd31000146103415780633a01714f1461037557806340873cb5146103a257600080fd5b8063253721c811610174578063253721c8146102ca578063293c4999146102ea5780632c1ae8821461031e57600080fd5b806301ffc9a71461021c5780630392ef941461025157806324e26dc5146102aa57600080fd5b36610217573373ffffffffffffffffffffffffffffffffffffffff7f00000000000000000000000000000000000000000000000000000000000000001614610215576040517fb320fe970000000000000000000000000000000000000000000000000000000081523360048201526024015b60405180910390fd5b005b600080fd5b34801561022857600080fd5b5061023c610237366004613e7b565b610661565b60405190151581526020015b60405180910390f35b34801561025d57600080fd5b506102857f000000000000000000000000000000000000000000000000000000000000000081565b60405173ffffffffffffffffffffffffffffffffffffffff9091168152602001610248565b3480156102b657600080fd5b506102156102c5366004613edf565b610746565b3480156102d657600080fd5b506102156102e5366004613f21565b505050565b3480156102f657600080fd5b506102857f000000000000000000000000000000000000000000000000000000000000000081565b34801561032a57600080fd5b50610333600081565b604051908152602001610248565b34801561034d57600080fd5b506102857f000000000000000000000000000000000000000000000000000000000000000081565b34801561038157600080fd5b50610395610390366004613fa0565b610d72565b6040516102489190613fd0565b3480156103ae57600080fd5b506103c26103bd366004613fa0565b610eba565b6040805163ffffffff909316835273ffffffffffffffffffffffffffffffffffffffff909116602083015201610248565b3480156103ff57600080fd5b5061041361040e366004614010565b610f4a565b6040516102489190614029565b34801561042c57600080fd5b506102857f000000000000000000000000000000000000000000000000000000000000000081565b34801561046057600080fd5b50610215611375565b34801561047557600080fd5b50610489610484366004613fa0565b611389565b6040805173ffffffffffffffffffffffffffffffffffffffff9093168352901515602083015201610248565b3480156104c157600080fd5b506102857f000000000000000000000000000000000000000000000000000000000000000081565b3480156104f557600080fd5b5060005473ffffffffffffffffffffffffffffffffffffffff16610285565b6102156105223660046140fa565b611449565b34801561053357600080fd5b5061028561271081565b34801561054957600080fd5b506102857f000000000000000000000000000000000000000000000000000000000000000081565b34801561057d57600080fd5b5061021561058c3660046141b4565b6116a5565b34801561059d57600080fd5b506103336105ac366004613edf565b60009392505050565b3480156105c157600080fd5b506103336105d0366004614304565b6000949350505050565b3480156105e657600080fd5b506102156105f53660046143fc565b6117d2565b34801561060657600080fd5b506102857f000000000000000000000000000000000000000000000000000000000000000081565b34801561063a57600080fd5b50610215610649366004614419565b611836565b61033361065c36600461446c565b611a65565b60007fffffffff0000000000000000000000000000000000000000000000000000000082167f21c941070000000000000000000000000000000000000000000000000000000014806106f457507fffffffff0000000000000000000000000000000000000000000000000000000082167f6afdd85000000000000000000000000000000000000000000000000000000000145b8061074057507fffffffff0000000000000000000000000000000000000000000000000000000082167f01ffc9a700000000000000000000000000000000000000000000000000000000145b92915050565b821561080c576040517f6352211e00000000000000000000000000000000000000000000000000000000815260048101849052610807907f000000000000000000000000000000000000000000000000000000000000000073ffffffffffffffffffffffffffffffffffffffff1690636352211e90602401602060405180830381865afa1580156107db573d6000803e3d6000fd5b505050506040513d601f19601f820116820180604052508101906107ff9190614520565b84601a611cd8565b610814565b610814611e3b565b600061081e611e8e565b905073ffffffffffffffffffffffffffffffffffffffff8082168482161090838116907f000000000000000000000000000000000000000000000000000000000000000016631698ee82836108735784610875565b865b846108805787610882565b855b8773ffffffffffffffffffffffffffffffffffffffff1663ddca3f436040518163ffffffff1660e01b8152600401602060405180830381865afa1580156108cd573d6000803e3d6000fd5b505050506040513d601f19601f820116820180604052508101906108f1919061453d565b6040517fffffffff0000000000000000000000000000000000000000000000000000000060e086901b16815273ffffffffffffffffffffffffffffffffffffffff938416600482015292909116602483015262ffffff166044820152606401602060405180830381865afa15801561096d573d6000803e3d6000fd5b505050506040513d601f19601f820116820180604052508101906109919190614520565b73ffffffffffffffffffffffffffffffffffffffff1614610b6457827f000000000000000000000000000000000000000000000000000000000000000073ffffffffffffffffffffffffffffffffffffffff16631698ee82836109f457846109f6565b865b84610a015787610a03565b855b8773ffffffffffffffffffffffffffffffffffffffff1663ddca3f436040518163ffffffff1660e01b8152600401602060405180830381865afa158015610a4e573d6000803e3d6000fd5b505050506040513d601f19601f82011682018060405250810190610a72919061453d565b6040517fffffffff0000000000000000000000000000000000000000000000000000000060e086901b16815273ffffffffffffffffffffffffffffffffffffffff938416600482015292909116602483015262ffffff166044820152606401602060405180830381865afa158015610aee573d6000803e3d6000fd5b505050506040513d601f19601f82011682018060405250810190610b129190614520565b6040517fe2bbe4ec00000000000000000000000000000000000000000000000000000000815273ffffffffffffffffffffffffffffffffffffffff92831660048201529116602482015260440161020c565b600085815260026020908152604080832073ffffffffffffffffffffffffffffffffffffffff8881168086529184529382902080547fffffffffffffffffffffffff00000000000000000000000000000000000000001694881694909417909355805160608101825283815281517f313ce5670000000000000000000000000000000000000000000000000000000081529151909384840193909263313ce56792600480830193928290030181865afa158015610c25573d6000803e3d6000fd5b505050506040513d601f19601f82011682018060405250810190610c499190614562565b60ff908116825263ffffffff80881660209384015260008981526001808552604080832073ffffffffffffffffffffffffffffffffffffffff9b8c16808552908752818420885181548a8a01519a8501519097167501000000000000000000000000000000000000000000027fffffffffffffff00000000ffffffffffffffffffffffffffffffffffffffffff9a90981674010000000000000000000000000000000000000000027fffffffffffffffffffffff0000000000000000000000000000000000000000009097169d169c909c179490941796909616939093179098559787526003825291862080549283018155865290942090930180547fffffffffffffffffffffffff000000000000000000000000000000000000000016909417909355505050565b6040805160608082018352600080835260208084018290529284018190528581526001835283812073ffffffffffffffffffffffffffffffffffffffff868116835290845290849020845192830185525490811680835274010000000000000000000000000000000000000000820460ff16938301939093527501000000000000000000000000000000000000000000900463ffffffff1692810192909252610740575073ffffffffffffffffffffffffffffffffffffffff81811660009081527fa6eef7e35abe7026729641147f7915573c7e97b47efa546f5f6e3230263bcb49602090815260409182902082516060810184529054938416815274010000000000000000000000000000000000000000840460ff1691810191909152750100000000000000000000000000000000000000000090920463ffffffff169082015292915050565b600082815260046020908152604080832073ffffffffffffffffffffffffffffffffffffffff851684529091528120548190808203610f3a575073ffffffffffffffffffffffffffffffffffffffff831660009081527f17ef568e3e12ab5b9c7254a8d58478811de00f9e6eb34345acd53bf8fd09d3ec60205260409020545b915050602081901c5b9250929050565b6000818152600360209081526040808320805482518185028101850190935280835260609493830182828015610fb657602002820191906000526020600020905b815473ffffffffffffffffffffffffffffffffffffffff168152600190910190602001808311610f8b575b50506000808052600360209081527f3617319a054d772f909f7c479a2cebe5066e836a939412e32403c99029b92eff8054604080518285028101850190915281815297985092969550935090915083018282801561104a57602002820191906000526020600020905b815473ffffffffffffffffffffffffffffffffffffffff16815260019091019060200180831161101f575b505050505090508051825161105f91906145ae565b67ffffffffffffffff81111561107757611077614207565b6040519080825280602002602001820160405280156110e057816020015b60408051606081018252600080825260208083018290529282015282527fffffffffffffffffffffffffffffffffffffffffffffffffffffffffffffffff9092019101816110955790505b50825190935060005b818110156111c957600160008781526020019081526020016000206000858381518110611118576111186145c1565b60209081029190910181015173ffffffffffffffffffffffffffffffffffffffff908116835282820193909352604091820160002082516060810184529054938416815274010000000000000000000000000000000000000000840460ff1691810191909152750100000000000000000000000000000000000000000090920463ffffffff169082015285518690839081106111b6576111b66145c1565b60209081029190910101526001016110e9565b5081518160005b8281101561135d576000805b8581101561125a578683815181106111f6576111f66145c1565b602002602001015173ffffffffffffffffffffffffffffffffffffffff16888281518110611226576112266145c1565b602002602001015173ffffffffffffffffffffffffffffffffffffffff1603611252576001915061125a565b6001016111dc565b5080611354576000808052600160205286517fa6eef7e35abe7026729641147f7915573c7e97b47efa546f5f6e3230263bcb4991908890859081106112a1576112a16145c1565b60209081029190910181015173ffffffffffffffffffffffffffffffffffffffff908116835282820193909352604091820160002082516060810184529054938416815274010000000000000000000000000000000000000000840460ff1691810191909152750100000000000000000000000000000000000000000090920463ffffffff16908201528884611336816145f0565b955081518110611348576113486145c1565b60200260200101819052505b506001016111d0565b50855181101561136b578086525b5050505050919050565b61137d611e3b565b6113876000611eff565b565b600082815260026020908152604080832073ffffffffffffffffffffffffffffffffffffffff8086168552925282205416908161140a5773ffffffffffffffffffffffffffffffffffffffff80841660009081527fac33ff75c19e70fe83507db0d683fd3465c996598dc972688b7ace676c89077b60205260409020541691505b611412611e8e565b73ffffffffffffffffffffffffffffffffffffffff168373ffffffffffffffffffffffffffffffffffffffff161090509250929050565b6040517f862026500000000000000000000000000000000000000000000000000000000081526004810189905273ffffffffffffffffffffffffffffffffffffffff7f0000000000000000000000000000000000000000000000000000000000000000811660248301526000917f000000000000000000000000000000000000000000000000000000000000000090911690638620265090604401602060405180830381865afa158015611501573d6000803e3d6000fd5b505050506040513d601f19601f820116820180604052508101906115259190614520565b905073ffffffffffffffffffffffffffffffffffffffff81166115b3576040517fcf78a6fc000000000000000000000000000000000000000000000000000000008152600481018a905273ffffffffffffffffffffffffffffffffffffffff7f000000000000000000000000000000000000000000000000000000000000000016602482015260440161020c565b60006115cd8a8a6115c68c8c8989611f74565b87876122e7565b905060006115fc837f0000000000000000000000000000000000000000000000000000000000000000846125b2565b90508273ffffffffffffffffffffffffffffffffffffffff16639e6eec05828d7f0000000000000000000000000000000000000000000000000000000000000000868d8d8d8d8d6040518a63ffffffff1660e01b8152600401611666989796959493929190614671565b6000604051808303818588803b15801561167f57600080fd5b505af1158015611693573d6000803e3d6000fd5b50505050505050505050505050505050565b831561176b576040517f6352211e00000000000000000000000000000000000000000000000000000000815260048101859052611766907f000000000000000000000000000000000000000000000000000000000000000073ffffffffffffffffffffffffffffffffffffffff1690636352211e90602401602060405180830381865afa15801561173a573d6000803e3d6000fd5b505050506040513d601f19601f8201168201806040525081019061175e9190614520565b85601b611cd8565b611773565b611773611e3b565b600093845260046020908152604080862073ffffffffffffffffffffffffffffffffffffffff959095168652938152929093209290911b77ffffffffffffffffffffffffffffffffffffffff000000001663ffffffff91909116179055565b6117da611e3b565b73ffffffffffffffffffffffffffffffffffffffff811661182a576040517f1e4fbdf70000000000000000000000000000000000000000000000000000000081526000600482015260240161020c565b61183381611eff565b50565b60008061184583850185613fa0565b9092509050600073ffffffffffffffffffffffffffffffffffffffff821661eeee146118715781611893565b7f00000000000000000000000000000000000000000000000000000000000000005b600084815260026020908152604080832073ffffffffffffffffffffffffffffffffffffffff80861685529252909120549192501680611916575073ffffffffffffffffffffffffffffffffffffffff80821660009081527fac33ff75c19e70fe83507db0d683fd3465c996598dc972688b7ace676c89077b6020526040902054165b3373ffffffffffffffffffffffffffffffffffffffff821614611967576040517fbca42a5400000000000000000000000000000000000000000000000000000000815233600482015260240161020c565b60008089126119765788611978565b875b90507fffffffffffffffffffffffffffffffffffffffffffffffffffffffffffff111273ffffffffffffffffffffffffffffffffffffffff851601611a39577f000000000000000000000000000000000000000000000000000000000000000073ffffffffffffffffffffffffffffffffffffffff1663d0e30db0826040518263ffffffff1660e01b81526004016000604051808303818588803b158015611a1f57600080fd5b505af1158015611a33573d6000803e3d6000fd5b50505050505b611a5a73ffffffffffffffffffffffffffffffffffffffff8416338361260d565b505050505050505050565b6040517f86202650000000000000000000000000000000000000000000000000000000008152600481018a905273ffffffffffffffffffffffffffffffffffffffff7f00000000000000000000000000000000000000000000000000000000000000008116602483015260009182917f00000000000000000000000000000000000000000000000000000000000000001690638620265090604401602060405180830381865afa158015611b1d573d6000803e3d6000fd5b505050506040513d601f19601f82011682018060405250810190611b419190614520565b905073ffffffffffffffffffffffffffffffffffffffff8116611bcf576040517fcf78a6fc000000000000000000000000000000000000000000000000000000008152600481018c905273ffffffffffffffffffffffffffffffffffffffff7f000000000000000000000000000000000000000000000000000000000000000016602482015260440161020c565b6000611be98c8c611be28e8e8a8a611f74565b88886122e7565b90506000611c18837f0000000000000000000000000000000000000000000000000000000000000000846125b2565b90508273ffffffffffffffffffffffffffffffffffffffff1663fef43257828f7f0000000000000000000000000000000000000000000000000000000000000000868f8f8f8f8f8f6040518b63ffffffff1660e01b8152600401611c84999897969594939291906146d7565b60206040518083038185885af1158015611ca2573d6000803e3d6000fd5b50505050506040513d601f19601f82011682018060405250810190611cc79190614746565b9d9c50505050505050505050505050565b3373ffffffffffffffffffffffffffffffffffffffff84168114801590611dd057506040517f348b684e00000000000000000000000000000000000000000000000000000000815273ffffffffffffffffffffffffffffffffffffffff82811660048301528581166024830152604482018590526064820184905260016084830181905260a48301527f0000000000000000000000000000000000000000000000000000000000000000169063348b684e9060c401602060405180830381865afa158015611daa573d6000803e3d6000fd5b505050506040513d601f19601f82011682018060405250810190611dce919061475f565b155b15611e35576040517f264deeaa00000000000000000000000000000000000000000000000000000000815273ffffffffffffffffffffffffffffffffffffffff808616600483015282166024820152604481018490526064810183905260840161020c565b50505050565b60005473ffffffffffffffffffffffffffffffffffffffff163314611387576040517f118cdaa700000000000000000000000000000000000000000000000000000000815233600482015260240161020c565b60007f0000000000000000000000000000000000000000000000000000000000000000611eda57507f000000000000000000000000000000000000000000000000000000000000000090565b507f000000000000000000000000000000000000000000000000000000000000000090565b6000805473ffffffffffffffffffffffffffffffffffffffff8381167fffffffffffffffffffffffff0000000000000000000000000000000000000000831681178455604051919092169283917f8be0079c531659141344cd1fd0a4f28419497f9722a3daafe3b4186f6b6457e09190a35050565b60007fffffffffffffffffffffffffffffffffffffffffffffffffffffffffffff111273ffffffffffffffffffffffffffffffffffffffff861601611fba5750346122df565b3415611ff4576040517f15f828f800000000000000000000000000000000000000000000000000000000815234600482015260240161020c565b6000806120746120386040518060400160405280600781526020017f7065726d6974320000000000000000000000000000000000000000000000000081525061268e565b86868080601f0160208091040260200160405190810160405280939291908181526020018383808284376000920191909152506126a292505050565b9150915081156122405760008180602001905181019061209491906147bb565b9050806020015173ffffffffffffffffffffffffffffffffffffffff1687111561210f5760208101516040517f6efd58f80000000000000000000000000000000000000000000000000000000081526004810189905273ffffffffffffffffffffffffffffffffffffffff909116602482015260440161020c565b6000604051806060016040528060405180608001604052808c73ffffffffffffffffffffffffffffffffffffffff168152602001856020015173ffffffffffffffffffffffffffffffffffffffff168152602001856040015165ffffffffffff168152602001856060015165ffffffffffff1681525081526020013073ffffffffffffffffffffffffffffffffffffffff168152602001836000015181525090507f000000000000000000000000000000000000000000000000000000000000000073ffffffffffffffffffffffffffffffffffffffff16632b67b570338385608001516040518463ffffffff1660e01b815260040161221193929190614923565b600060405180830381600087803b15801561222b57600080fd5b505af192505050801561223c575060015b5050505b61224c3330898961288f565b6040517f70a0823100000000000000000000000000000000000000000000000000000000815230600482015273ffffffffffffffffffffffffffffffffffffffff8816906370a0823190602401602060405180830381865afa1580156122b6573d6000803e3d6000fd5b505050506040513d601f19601f820116820180604052508101906122da9190614746565b925050505b949350505050565b60008073ffffffffffffffffffffffffffffffffffffffff861661eeee1461230f5785612331565b7f00000000000000000000000000000000000000000000000000000000000000005b9050600061233d611e8e565b905073ffffffffffffffffffffffffffffffffffffffff871661eeee14801561238357507f00000000000000000000000000000000000000000000000000000000000000005b806123b957508073ffffffffffffffffffffffffffffffffffffffff168273ffffffffffffffffffffffffffffffffffffffff16145b156123c85785925050506125a9565b6000806123d987878c878c88612a98565b91509150600061241b8a8a858773ffffffffffffffffffffffffffffffffffffffff168973ffffffffffffffffffffffffffffffffffffffff16108f87612d3f565b6040517f70a0823100000000000000000000000000000000000000000000000000000000815230600482015290915060009073ffffffffffffffffffffffffffffffffffffffff8716906370a0823190602401602060405180830381865afa15801561248b573d6000803e3d6000fd5b505050506040513d601f19601f820116820180604052508101906124af9190614746565b905080156125a1577fffffffffffffffffffffffffffffffffffffffffffffffffffffffffffff111273ffffffffffffffffffffffffffffffffffffffff8c1601612595576040517f2e1a7d4d000000000000000000000000000000000000000000000000000000008152600481018290527f000000000000000000000000000000000000000000000000000000000000000073ffffffffffffffffffffffffffffffffffffffff1690632e1a7d4d90602401600060405180830381600087803b15801561257c57600080fd5b505af1158015612590573d6000803e3d6000fd5b505050505b6125a130338d8461288f565b509450505050505b95945050505050565b60007f0000000000000000000000000000000000000000000000000000000000000000156125e1575080612606565b61260273ffffffffffffffffffffffffffffffffffffffff84168584612f72565b5060005b9392505050565b60405173ffffffffffffffffffffffffffffffffffffffff8381166024830152604482018390526102e591859182169063a9059cbb906064015b604051602081830303815290604052915060e01b6020820180517bffffffffffffffffffffffffffffffffffffffffffffffffffffffff8381831617835250505050613022565b805160208201206000903060601b18610740565b6000606060258351116126c75750506040805160208101909152600080825290610f43565b6000836126d6600460206145ae565b815181106126e6576126e66145c1565b0160209081015160f81c91505b6000856127016004846145ae565b81518110612711576127116145c1565b01602001517fff00000000000000000000000000000000000000000000000000000000000000161480159061274f575061274c6020836149a5565b81105b15612886576000856127626004846145ae565b81518110612772576127726145c1565b016020908101518784019091015160f89190911c91507fffffffff000000000000000000000000000000000000000000000000000000008089169082160361287c5760006127c16020866149a5565b6127cc6009866145ae565b1015806128195750876127e06009866145ae565b815181106127f0576127f06145c1565b01602001517fff0000000000000000000000000000000000000000000000000000000000000016155b6128525760208861282b6009876145ae565b8151811061283b5761283b6145c1565b016020015161284d919060f81c6149a5565b612855565b87515b9050600161286e896128686020876149a5565b846130c6565b965096505050505050610f43565b50506005016126f3565b50509250929050565b3073ffffffffffffffffffffffffffffffffffffffff851603612919577fffffffffffffffffffffffffffffffffffffffffffffffffffffffffffff111273ffffffffffffffffffffffffffffffffffffffff8316016128f8576128f3838261310c565b611e35565b6128f373ffffffffffffffffffffffffffffffffffffffff8316848361260d565b6040517fdd62ed3e00000000000000000000000000000000000000000000000000000000815273ffffffffffffffffffffffffffffffffffffffff858116600483015230602483015282919084169063dd62ed3e90604401602060405180830381865afa15801561298e573d6000803e3d6000fd5b505050506040513d601f19601f820116820180604052508101906129b29190614746565b106129d9576128f373ffffffffffffffffffffffffffffffffffffffff83168585846131e9565b6040517f36c7851600000000000000000000000000000000000000000000000000000000815273ffffffffffffffffffffffffffffffffffffffff85811660048301528481166024830152828116604483015283811660648301527f000000000000000000000000000000000000000000000000000000000000000016906336c7851690608401600060405180830381600087803b158015612a7a57600080fd5b505af1158015612a8e573d6000803e3d6000fd5b5050505050505050565b600084815260026020908152604080832073ffffffffffffffffffffffffffffffffffffffff808816855292528220541680612b6c575073ffffffffffffffffffffffffffffffffffffffff80851660009081527fac33ff75c19e70fe83507db0d683fd3465c996598dc972688b7ace676c89077b60205260409020541680612b6c576040517f891773860000000000000000000000000000000000000000000000000000000081526004810187905273ffffffffffffffffffffffffffffffffffffffff8616602482015260440161020c565b600080612bec612bb06040518060400160405280600c81526020017f71756f7465466f7253776170000000000000000000000000000000000000000081525061268e565b8b8b8080601f0160208091040260200160405190810160405280939291908181526020018383808284376000920191909152506126a292505050565b915091508115612c115780806020019051810190612c0a9190614746565b9350612d32565b600080612c1e8a86610eba565b915091506000612c2d8661322f565b90508263ffffffff168163ffffffff161015612c47578092505b60008163ffffffff16600003612cd85760008773ffffffffffffffffffffffffffffffffffffffff16633850c7bd6040518163ffffffff1660e01b815260040160e060405180830381865afa158015612ca4573d6000803e3d6000fd5b505050506040513d601f19601f82011682018060405250810190612cc891906149ce565b50939650612ce695505050505050565b612ce28785613476565b5090505b612cf2818b8d8c61373a565b9750612710612d1773ffffffffffffffffffffffffffffffffffffffff85168a6149a5565b612d219190614a96565b612d2b9089614aaa565b9750505050505b5050965096945050505050565b60008060008373ffffffffffffffffffffffffffffffffffffffff1663128acb0830888b8a612d8c57612d87600173fffd8963efd1fc6a506488495d951d5263988d26614abd565b612d9c565b612d9c6401000276a36001614af1565b8a8f604051602001612dce92919091825273ffffffffffffffffffffffffffffffffffffffff16602082015260400190565b6040516020818303038152906040526040518663ffffffff1660e01b8152600401612dfd959493929190614b1e565b60408051808303816000875af1158015612e1b573d6000803e3d6000fd5b505050506040513d601f19601f82011682018060405250810190612e3f9190614b70565b9150915085612e4e5781612e50565b805b612e5990614b94565b925086831015612e9f576040517f371d1b7a000000000000000000000000000000000000000000000000000000008152600481018490526024810188905260440161020c565b7f000000000000000000000000000000000000000000000000000000000000000015612f66576040517f2e1a7d4d000000000000000000000000000000000000000000000000000000008152600481018490527f000000000000000000000000000000000000000000000000000000000000000073ffffffffffffffffffffffffffffffffffffffff1690632e1a7d4d90602401600060405180830381600087803b158015612f4d57600080fd5b505af1158015612f61573d6000803e3d6000fd5b505050505b50509695505050505050565b6040517fdd62ed3e00000000000000000000000000000000000000000000000000000000815230600482015273ffffffffffffffffffffffffffffffffffffffff83811660248301526000919085169063dd62ed3e90604401602060405180830381865afa158015612fe8573d6000803e3d6000fd5b505050506040513d601f19601f8201168201806040525081019061300c9190614746565b9050611e35848461301d85856145ae565b613910565b600080602060008451602086016000885af180613045576040513d6000823e3d81fd5b50506000513d9150811561305d578060011415613077565b73ffffffffffffffffffffffffffffffffffffffff84163b155b15611e35576040517f5274afe700000000000000000000000000000000000000000000000000000000815273ffffffffffffffffffffffffffffffffffffffff8516600482015260240161020c565b60608282036040519150602081830101604052808252508260208501016020820160005b848110156131025782810151828201526020016130ea565b5050509392505050565b8047101561314f576040517fcf4791810000000000000000000000000000000000000000000000000000000081524760048201526024810182905260440161020c565b60008273ffffffffffffffffffffffffffffffffffffffff168260405160006040518083038185875af1925050503d80600081146131a9576040519150601f19603f3d011682016040523d82523d6000602084013e6131ae565b606091505b50509050806102e5576040517fd6bda27500000000000000000000000000000000000000000000000000000000815260040160405180910390fd5b60405173ffffffffffffffffffffffffffffffffffffffff8481166024830152838116604483015260648201839052611e359186918216906323b872dd90608401612647565b60008060008373ffffffffffffffffffffffffffffffffffffffff16633850c7bd6040518163ffffffff1660e01b815260040160e060405180830381865afa15801561327f573d6000803e3d6000fd5b505050506040513d601f19601f820116820180604052508101906132a391906149ce565b50505093509350505060008161ffff161161331a576040517f08c379a000000000000000000000000000000000000000000000000000000000815260206004820152600260248201527f4e49000000000000000000000000000000000000000000000000000000000000604482015260640161020c565b60008073ffffffffffffffffffffffffffffffffffffffff861663252c09d784613345876001614bcc565b61334f9190614be7565b6040517fffffffff0000000000000000000000000000000000000000000000000000000060e084901b16815261ffff9091166004820152602401608060405180830381865afa1580156133a6573d6000803e3d6000fd5b505050506040513d601f19601f820116820180604052508101906133ca9190614c1a565b9350505091508061346b576040517f252c09d70000000000000000000000000000000000000000000000000000000081526000600482015273ffffffffffffffffffffffffffffffffffffffff87169063252c09d790602401608060405180830381865afa158015613440573d6000803e3d6000fd5b505050506040513d601f19601f820116820180604052508101906134649190614c1a565b5091935050505b504203949350505050565b6000808263ffffffff166000036134e9576040517f08c379a000000000000000000000000000000000000000000000000000000000815260206004820152600260248201527f4250000000000000000000000000000000000000000000000000000000000000604482015260640161020c565b604080516002808252606082018352600092602083019080368337019050509050838160008151811061351e5761351e6145c1565b602002602001019063ffffffff16908163ffffffff168152505060008160018151811061354d5761354d6145c1565b602002602001019063ffffffff16908163ffffffff16815250506000808673ffffffffffffffffffffffffffffffffffffffff1663883bdbfd846040518263ffffffff1660e01b81526004016135a39190614c6a565b600060405180830381865afa1580156135c0573d6000803e3d6000fd5b505050506040513d6000823e601f3d9081017fffffffffffffffffffffffffffffffffffffffffffffffffffffffffffffffe01682016040526136069190810190614d1b565b9150915060008260008151811061361f5761361f6145c1565b60200260200101518360018151811061363a5761363a6145c1565b602002602001015161364c9190614dde565b9050600082600081518110613663576136636145c1565b60200260200101518360018151811061367e5761367e6145c1565b60200260200101516136909190614abd565b90506136a263ffffffff891683614e23565b965060008260060b1280156136c857506136c263ffffffff891683614e97565b60060b15155b156136db57866136d781614eb9565b9750505b600061370173ffffffffffffffffffffffffffffffffffffffff63ffffffff8b16614f16565b905061372b77ffffffffffffffffffffffffffffffffffffffff00000000602084901b1682614f59565b96505050505050509250929050565b600080613746866139e8565b90506fffffffffffffffffffffffffffffffff73ffffffffffffffffffffffffffffffffffffffff82161161384557600061379773ffffffffffffffffffffffffffffffffffffffff8316806149a5565b90508373ffffffffffffffffffffffffffffffffffffffff168573ffffffffffffffffffffffffffffffffffffffff1610613807576138027801000000000000000000000000000000000000000000000000876fffffffffffffffffffffffffffffffff1683613d4f565b61383d565b61383d81876fffffffffffffffffffffffffffffffff167801000000000000000000000000000000000000000000000000613d4f565b925050613907565b600061387173ffffffffffffffffffffffffffffffffffffffff83168068010000000000000000613d4f565b90508373ffffffffffffffffffffffffffffffffffffffff168573ffffffffffffffffffffffffffffffffffffffff16106138d9576138d4700100000000000000000000000000000000876fffffffffffffffffffffffffffffffff1683613d4f565b6122da565b6122da81876fffffffffffffffffffffffffffffffff16700100000000000000000000000000000000613d4f565b50949350505050565b6040805173ffffffffffffffffffffffffffffffffffffffff8416602482015260448082018490528251808303909101815260649091019091526020810180517bffffffffffffffffffffffffffffffffffffffffffffffffffffffff167f095ea7b30000000000000000000000000000000000000000000000000000000017905261399c8482613e1f565b611e355760405173ffffffffffffffffffffffffffffffffffffffff8481166024830152600060448301526139de91869182169063095ea7b390606401612647565b611e358482613022565b60008060008360020b126139ff578260020b613a07565b8260020b6000035b9050620d89e8811115613a46576040517f2bc80f3a00000000000000000000000000000000000000000000000000000000815260040160405180910390fd5b600081600116600003613a6a57700100000000000000000000000000000000613a7c565b6ffffcb933bd6fad37aa2d162d1a5940015b70ffffffffffffffffffffffffffffffffff1690506002821615613ab0576ffff97272373d413259a46990580e213a0260801c5b6004821615613acf576ffff2e50f5f656932ef12357cf3c7fdcc0260801c5b6008821615613aee576fffe5caca7e10e4e61c3624eaa0941cd00260801c5b6010821615613b0d576fffcb9843d60f6159c9db58835c9266440260801c5b6020821615613b2c576fff973b41fa98c081472e6896dfb254c00260801c5b6040821615613b4b576fff2ea16466c96a3843ec78b326b528610260801c5b6080821615613b6a576ffe5dee046a99a2a811c461f1969c30530260801c5b610100821615613b8a576ffcbe86c7900a88aedcffc83b479aa3a40260801c5b610200821615613baa576ff987a7253ac413176f2b074cf7815e540260801c5b610400821615613bca576ff3392b0822b70005940c7a398e4b70f30260801c5b610800821615613bea576fe7159475a2c29b7443b29c7fa6e889d90260801c5b611000821615613c0a576fd097f3bdfd2022b8845ad8f792aa58250260801c5b612000821615613c2a576fa9f746462d870fdf8a65dc1f90e061e50260801c5b614000821615613c4a576f70d869a156d2a1b890bb3df62baf32f70260801c5b618000821615613c6a576f31be135f97d08fd981231505542fcfa60260801c5b62010000821615613c8b576f09aa508b5b7a84e1c677de54f3e99bc90260801c5b62020000821615613cab576e5d6af8dedb81196699c329225ee6040260801c5b62040000821615613cca576d2216e584f5fa1ea926041bedfe980260801c5b62080000821615613ce7576b048a170391f7dc42444e8fa20260801c5b60008460020b1315613d2657807fffffffffffffffffffffffffffffffffffffffffffffffffffffffffffffffff81613d2257613d22614a67565b0490505b640100000000810615613d3a576001613d3d565b60005b60ff16602082901c0192505050919050565b600080807fffffffffffffffffffffffffffffffffffffffffffffffffffffffffffffffff85870985870292508281108382030391505080600003613da65760008411613d9b57600080fd5b508290049050612606565b808411613db257600080fd5b6000848688096000868103871696879004966002600389028118808a02820302808a02820302808a02820302808a02820302808a02820302808a02909103029181900381900460010186841190950394909402919094039290920491909117919091029150509392505050565b6000806000806020600086516020880160008a5af192503d91506000519050828015613e7157508115613e555780600114613e71565b60008673ffffffffffffffffffffffffffffffffffffffff163b115b9695505050505050565b600060208284031215613e8d57600080fd5b81357fffffffff000000000000000000000000000000000000000000000000000000008116811461260657600080fd5b73ffffffffffffffffffffffffffffffffffffffff8116811461183357600080fd5b600080600060608486031215613ef457600080fd5b833592506020840135613f0681613ebd565b91506040840135613f1681613ebd565b809150509250925092565b600080600060408486031215613f3657600080fd5b83359250602084013567ffffffffffffffff80821115613f5557600080fd5b818601915086601f830112613f6957600080fd5b813581811115613f7857600080fd5b876020606083028501011115613f8d57600080fd5b6020830194508093505050509250925092565b60008060408385031215613fb357600080fd5b823591506020830135613fc581613ebd565b809150509250929050565b815173ffffffffffffffffffffffffffffffffffffffff16815260208083015160ff169082015260408083015163ffffffff169082015260608101610740565b60006020828403121561402257600080fd5b5035919050565b6020808252825182820181905260009190848201906040850190845b8181101561409e5761408b838551805173ffffffffffffffffffffffffffffffffffffffff16825260208082015160ff169083015260409081015163ffffffff16910152565b9284019260609290920191600101614045565b50909695505050505050565b801515811461183357600080fd5b60008083601f8401126140ca57600080fd5b50813567ffffffffffffffff8111156140e257600080fd5b602083019150836020828501011115610f4357600080fd5b60008060008060008060008060c0898b03121561411657600080fd5b88359750602089013561412881613ebd565b965060408901359550606089013561413f816140aa565b9450608089013567ffffffffffffffff8082111561415c57600080fd5b6141688c838d016140b8565b909650945060a08b013591508082111561418157600080fd5b5061418e8b828c016140b8565b999c989b5096995094979396929594505050565b63ffffffff8116811461183357600080fd5b600080600080608085870312156141ca57600080fd5b8435935060208501356141dc81613ebd565b925060408501356141ec816141a2565b915060608501356141fc81613ebd565b939692955090935050565b7f4e487b7100000000000000000000000000000000000000000000000000000000600052604160045260246000fd5b6040516060810167ffffffffffffffff8111828210171561425957614259614207565b60405290565b60405160a0810167ffffffffffffffff8111828210171561425957614259614207565b604051601f82017fffffffffffffffffffffffffffffffffffffffffffffffffffffffffffffffe016810167ffffffffffffffff811182821017156142c9576142c9614207565b604052919050565b600067ffffffffffffffff8211156142eb576142eb614207565b5060051b60200190565b60ff8116811461183357600080fd5b6000806000806080858703121561431a57600080fd5b8435935060208086013567ffffffffffffffff81111561433957600080fd5b8601601f8101881361434a57600080fd5b803561435d614358826142d1565b614282565b8181526060918202830184019184820191908b84111561437c57600080fd5b938501935b838510156143e15780858d0312156143995760008081fd5b6143a1614236565b85356143ac81613ebd565b8152858701356143bb816142f5565b818801526040868101356143ce816141a2565b9082015283529384019391850191614381565b50979a97995050505060408601359560600135949350505050565b60006020828403121561440e57600080fd5b813561260681613ebd565b6000806000806060858703121561442f57600080fd5b8435935060208501359250604085013567ffffffffffffffff81111561445457600080fd5b614460878288016140b8565b95989497509550505050565b600080600080600080600080600060e08a8c03121561448a57600080fd5b8935985060208a013561449c81613ebd565b975060408a0135965060608a01356144b381613ebd565b955060808a0135945060a08a013567ffffffffffffffff808211156144d757600080fd5b6144e38d838e016140b8565b909650945060c08c01359150808211156144fc57600080fd5b506145098c828d016140b8565b915080935050809150509295985092959850929598565b60006020828403121561453257600080fd5b815161260681613ebd565b60006020828403121561454f57600080fd5b815162ffffff8116811461260657600080fd5b60006020828403121561457457600080fd5b8151612606816142f5565b7f4e487b7100000000000000000000000000000000000000000000000000000000600052601160045260246000fd5b808201808211156107405761074061457f565b7f4e487b7100000000000000000000000000000000000000000000000000000000600052603260045260246000fd5b60007fffffffffffffffffffffffffffffffffffffffffffffffffffffffffffffffff82036146215761462161457f565b5060010190565b8183528181602085013750600060208284010152600060207fffffffffffffffffffffffffffffffffffffffffffffffffffffffffffffffe0601f840116840101905092915050565b88815273ffffffffffffffffffffffffffffffffffffffff88166020820152866040820152851515606082015260c0608082015260006146b560c083018688614628565b82810360a08401526146c8818587614628565b9b9a5050505050505050505050565b898152600073ffffffffffffffffffffffffffffffffffffffff808b16602084015289604084015280891660608401525086608083015260e060a083015261472360e083018688614628565b82810360c0840152614736818587614628565b9c9b505050505050505050505050565b60006020828403121561475857600080fd5b5051919050565b60006020828403121561477157600080fd5b8151612606816140aa565b805165ffffffffffff8116811461479257600080fd5b919050565b60005b838110156147b257818101518382015260200161479a565b50506000910152565b600060208083850312156147ce57600080fd5b825167ffffffffffffffff808211156147e657600080fd5b9084019060a082870312156147fa57600080fd5b61480261425f565b825181528383015161481381613ebd565b818501526148236040840161477c565b60408201526148346060840161477c565b606082015260808301518281111561484b57600080fd5b80840193505086601f84011261486057600080fd5b82518281111561487257614872614207565b6148a2857fffffffffffffffffffffffffffffffffffffffffffffffffffffffffffffffe0601f84011601614282565b925080835287858286010111156148b857600080fd5b6148c781868501878701614797565b50608081019190915295945050505050565b600081518084526148f1816020860160208601614797565b601f017fffffffffffffffffffffffffffffffffffffffffffffffffffffffffffffffe0169290920160200192915050565b600061010073ffffffffffffffffffffffffffffffffffffffff80871684528551818151166020860152816020820151166040860152604081015165ffffffffffff80821660608801528060608401511660808801525050508060208701511660a085015250604085015160c08401528060e0840152613e71818401856148d9565b80820281158282048414176107405761074061457f565b805161ffff8116811461479257600080fd5b600080600080600080600060e0888a0312156149e957600080fd5b87516149f481613ebd565b8097505060208801518060020b8114614a0c57600080fd5b9550614a1a604089016149bc565b9450614a28606089016149bc565b9350614a36608089016149bc565b925060a0880151614a46816142f5565b60c0890151909250614a57816140aa565b8091505092959891949750929550565b7f4e487b7100000000000000000000000000000000000000000000000000000000600052601260045260246000fd5b600082614aa557614aa5614a67565b500490565b818103818111156107405761074061457f565b73ffffffffffffffffffffffffffffffffffffffff828116828216039080821115614aea57614aea61457f565b5092915050565b73ffffffffffffffffffffffffffffffffffffffff818116838216019080821115614aea57614aea61457f565b600073ffffffffffffffffffffffffffffffffffffffff8088168352861515602084015285604084015280851660608401525060a06080830152614b6560a08301846148d9565b979650505050505050565b60008060408385031215614b8357600080fd5b505080516020909101519092909150565b60007f80000000000000000000000000000000000000000000000000000000000000008203614bc557614bc561457f565b5060000390565b61ffff818116838216019080821115614aea57614aea61457f565b600061ffff80841680614bfc57614bfc614a67565b92169190910692915050565b8051600681900b811461479257600080fd5b60008060008060808587031215614c3057600080fd5b8451614c3b816141a2565b9350614c4960208601614c08565b92506040850151614c5981613ebd565b60608601519092506141fc816140aa565b6020808252825182820181905260009190848201906040850190845b8181101561409e57835163ffffffff1683529284019291840191600101614c86565b600082601f830112614cb957600080fd5b81516020614cc9614358836142d1565b8083825260208201915060208460051b870101935086841115614ceb57600080fd5b602086015b84811015614d10578051614d0381613ebd565b8352918301918301614cf0565b509695505050505050565b60008060408385031215614d2e57600080fd5b825167ffffffffffffffff80821115614d4657600080fd5b818501915085601f830112614d5a57600080fd5b81516020614d6a614358836142d1565b82815260059290921b84018101918181019089841115614d8957600080fd5b948201945b83861015614dae57614d9f86614c08565b82529482019490820190614d8e565b91880151919650909350505080821115614dc757600080fd5b50614dd485828601614ca8565b9150509250929050565b600682810b9082900b037fffffffffffffffffffffffffffffffffffffffffffffffffff800000000000008112667fffffffffffff821317156107405761074061457f565b60008160060b8360060b80614e3a57614e3a614a67565b7fffffffffffffffffffffffffffffffffffffffffffffffffffffffffffffffff81147fffffffffffffffffffffffffffffffffffffffffffffffffff8000000000000083141615614e8e57614e8e61457f565b90059392505050565b60008260060b80614eaa57614eaa614a67565b808360060b0791505092915050565b60008160020b7fffffffffffffffffffffffffffffffffffffffffffffffffffffffffff8000008103614eee57614eee61457f565b7fffffffffffffffffffffffffffffffffffffffffffffffffffffffffffffffff0192915050565b77ffffffffffffffffffffffffffffffffffffffffffffffff828116828216818102831692918115828504821417614f5057614f5061457f565b50505092915050565b600077ffffffffffffffffffffffffffffffffffffffffffffffff80841680614f8457614f84614a67565b9216919091049291505056fea264697066735822122078e2c224d73798ebbbc7b4858f5057b0623d92e1555330d12684d9c51cc64d6164736f6c63430008170033",
	"deployedBytecode": "0x60806040526004361061019a5760003560e01c80637c5e9c24116100e1578063c361534c1161008a578063f2fde38b11610064578063f2fde38b146105da578063f434c914146105fa578063fa461e331461062e578063fef432571461064e57600080fd5b8063c361534c14610571578063e28b541114610591578063edb40950146105b557600080fd5b80639e6eec05116100bb5780639e6eec0514610514578063ac90511414610527578063ad5c46481461053d57600080fd5b80637c5e9c241461046957806388bc2ef3146104b55780638da5cb5b146104e957600080fd5b80632dd3100011610143578063515a92931161011d578063515a9293146103f35780636afdd85014610420578063715018a61461045457600080fd5b80632dd31000146103415780633a01714f1461037557806340873cb5146103a257600080fd5b8063253721c811610174578063253721c8146102ca578063293c4999146102ea5780632c1ae8821461031e57600080fd5b806301ffc9a71461021c5780630392ef941461025157806324e26dc5146102aa57600080fd5b36610217573373ffffffffffffffffffffffffffffffffffffffff7f00000000000000000000000042000000000000000000000000000000000000061614610215576040517fb320fe970000000000000000000000000000000000000000000000000000000081523360048201526024015b60405180910390fd5b005b600080fd5b34801561022857600080fd5b5061023c610237366004613e7b565b610661565b60405190151581526020015b60405180910390f35b34801561025d57600080fd5b506102857f000000000000000000000000000000000000000000000000000000000000eeee81565b60405173ffffffffffffffffffffffffffffffffffffffff9091168152602001610248565b3480156102b657600080fd5b506102156102c5366004613edf565b610746565b3480156102d657600080fd5b506102156102e5366004613f21565b505050565b3480156102f657600080fd5b506102857f0000000000000000000000009b52a59f108e36ce0a8eba595eca22dbadbe655f81565b34801561032a57600080fd5b50610333600081565b604051908152602001610248565b34801561034d57600080fd5b506102857f0000000000000000000000004752ba5dbc23f44d87826276bf6fd6b1c372ad2481565b34801561038157600080fd5b50610395610390366004613fa0565b610d72565b6040516102489190613fd0565b3480156103ae57600080fd5b506103c26103bd366004613fa0565b610eba565b6040805163ffffffff909316835273ffffffffffffffffffffffffffffffffffffffff909116602083015201610248565b3480156103ff57600080fd5b5061041361040e366004614010565b610f4a565b6040516102489190614029565b34801561042c57600080fd5b506102857f000000000000000000000000000000000022d473030f116ddee9f6b43ac78ba381565b34801561046057600080fd5b50610215611375565b34801561047557600080fd5b50610489610484366004613fa0565b611389565b6040805173ffffffffffffffffffffffffffffffffffffffff9093168352901515602083015201610248565b3480156104c157600080fd5b506102857f0000000000000000000000005adb234602d074064c216c1fdb23c6c2031f0c7581565b3480156104f557600080fd5b5060005473ffffffffffffffffffffffffffffffffffffffff16610285565b6102156105223660046140fa565b611449565b34801561053357600080fd5b5061028561271081565b34801561054957600080fd5b506102857f000000000000000000000000420000000000000000000000000000000000000681565b34801561057d57600080fd5b5061021561058c3660046141b4565b6116a5565b34801561059d57600080fd5b506103336105ac366004613edf565b60009392505050565b3480156105c157600080fd5b506103336105d0366004614304565b6000949350505050565b3480156105e657600080fd5b506102156105f53660046143fc565b6117d2565b34801561060657600080fd5b506102857f0000000000000000000000004886c30c81a17a3a1084fd1812008fa0f71a20b981565b34801561063a57600080fd5b50610215610649366004614419565b611836565b61033361065c36600461446c565b611a65565b60007fffffffff0000000000000000000000000000000000000000000000000000000082167f21c941070000000000000000000000000000000000000000000000000000000014806106f457507fffffffff0000000000000000000000000000000000000000000000000000000082167f6afdd85000000000000000000000000000000000000000000000000000000000145b8061074057507fffffffff0000000000000000000000000000000000000000000000000000000082167f01ffc9a700000000000000000000000000000000000000000000000000000000145b92915050565b821561080c576040517f6352211e00000000000000000000000000000000000000000000000000000000815260048101849052610807907f0000000000000000000000009b52a59f108e36ce0a8eba595eca22dbadbe655f73ffffffffffffffffffffffffffffffffffffffff1690636352211e90602401602060405180830381865afa1580156107db573d6000803e3d6000fd5b505050506040513d601f19601f820116820180604052508101906107ff9190614520565b84601a611cd8565b610814565b610814611e3b565b600061081e611e8e565b905073ffffffffffffffffffffffffffffffffffffffff8082168482161090838116907f0000000000000000000000004752ba5dbc23f44d87826276bf6fd6b1c372ad2416631698ee82836108735784610875565b865b846108805787610882565b855b8773ffffffffffffffffffffffffffffffffffffffff1663ddca3f436040518163ffffffff1660e01b8152600401602060405180830381865afa1580156108cd573d6000803e3d6000fd5b505050506040513d601f19601f820116820180604052508101906108f1919061453d565b6040517fffffffff0000000000000000000000000000000000000000000000000000000060e086901b16815273ffffffffffffffffffffffffffffffffffffffff938416600482015292909116602483015262ffffff166044820152606401602060405180830381865afa15801561096d573d6000803e3d6000fd5b505050506040513d601f19601f820116820180604052508101906109919190614520565b73ffffffffffffffffffffffffffffffffffffffff1614610b6457827f0000000000000000000000004752ba5dbc23f44d87826276bf6fd6b1c372ad2473ffffffffffffffffffffffffffffffffffffffff16631698ee82836109f457846109f6565b865b84610a015787610a03565b855b8773ffffffffffffffffffffffffffffffffffffffff1663ddca3f436040518163ffffffff1660e01b8152600401602060405180830381865afa158015610a4e573d6000803e3d6000fd5b505050506040513d601f19601f82011682018060405250810190610a72919061453d565b6040517fffffffff0000000000000000000000000000000000000000000000000000000060e086901b16815273ffffffffffffffffffffffffffffffffffffffff938416600482015292909116602483015262ffffff166044820152606401602060405180830381865afa158015610aee573d6000803e3d6000fd5b505050506040513d601f19601f82011682018060405250810190610b129190614520565b6040517fe2bbe4ec00000000000000000000000000000000000000000000000000000000815273ffffffffffffffffffffffffffffffffffffffff92831660048201529116602482015260440161020c565b600085815260026020908152604080832073ffffffffffffffffffffffffffffffffffffffff8881168086529184529382902080547fffffffffffffffffffffffff00000000000000000000000000000000000000001694881694909417909355805160608101825283815281517f313ce5670000000000000000000000000000000000000000000000000000000081529151909384840193909263313ce56792600480830193928290030181865afa158015610c25573d6000803e3d6000fd5b505050506040513d601f19601f82011682018060405250810190610c499190614562565b60ff908116825263ffffffff80881660209384015260008981526001808552604080832073ffffffffffffffffffffffffffffffffffffffff9b8c16808552908752818420885181548a8a01519a8501519097167501000000000000000000000000000000000000000000027fffffffffffffff00000000ffffffffffffffffffffffffffffffffffffffffff9a90981674010000000000000000000000000000000000000000027fffffffffffffffffffffff0000000000000000000000000000000000000000009097169d169c909c179490941796909616939093179098559787526003825291862080549283018155865290942090930180547fffffffffffffffffffffffff000000000000000000000000000000000000000016909417909355505050565b6040805160608082018352600080835260208084018290529284018190528581526001835283812073ffffffffffffffffffffffffffffffffffffffff868116835290845290849020845192830185525490811680835274010000000000000000000000000000000000000000820460ff16938301939093527501000000000000000000000000000000000000000000900463ffffffff1692810192909252610740575073ffffffffffffffffffffffffffffffffffffffff81811660009081527fa6eef7e35abe7026729641147f7915573c7e97b47efa546f5f6e3230263bcb49602090815260409182902082516060810184529054938416815274010000000000000000000000000000000000000000840460ff1691810191909152750100000000000000000000000000000000000000000090920463ffffffff169082015292915050565b600082815260046020908152604080832073ffffffffffffffffffffffffffffffffffffffff851684529091528120548190808203610f3a575073ffffffffffffffffffffffffffffffffffffffff831660009081527f17ef568e3e12ab5b9c7254a8d58478811de00f9e6eb34345acd53bf8fd09d3ec60205260409020545b915050602081901c5b9250929050565b6000818152600360209081526040808320805482518185028101850190935280835260609493830182828015610fb657602002820191906000526020600020905b815473ffffffffffffffffffffffffffffffffffffffff168152600190910190602001808311610f8b575b50506000808052600360209081527f3617319a054d772f909f7c479a2cebe5066e836a939412e32403c99029b92eff8054604080518285028101850190915281815297985092969550935090915083018282801561104a57602002820191906000526020600020905b815473ffffffffffffffffffffffffffffffffffffffff16815260019091019060200180831161101f575b505050505090508051825161105f91906145ae565b67ffffffffffffffff81111561107757611077614207565b6040519080825280602002602001820160405280156110e057816020015b60408051606081018252600080825260208083018290529282015282527fffffffffffffffffffffffffffffffffffffffffffffffffffffffffffffffff9092019101816110955790505b50825190935060005b818110156111c957600160008781526020019081526020016000206000858381518110611118576111186145c1565b60209081029190910181015173ffffffffffffffffffffffffffffffffffffffff908116835282820193909352604091820160002082516060810184529054938416815274010000000000000000000000000000000000000000840460ff1691810191909152750100000000000000000000000000000000000000000090920463ffffffff169082015285518690839081106111b6576111b66145c1565b60209081029190910101526001016110e9565b5081518160005b8281101561135d576000805b8581101561125a578683815181106111f6576111f66145c1565b602002602001015173ffffffffffffffffffffffffffffffffffffffff16888281518110611226576112266145c1565b602002602001015173ffffffffffffffffffffffffffffffffffffffff1603611252576001915061125a565b6001016111dc565b5080611354576000808052600160205286517fa6eef7e35abe7026729641147f7915573c7e97b47efa546f5f6e3230263bcb4991908890859081106112a1576112a16145c1565b60209081029190910181015173ffffffffffffffffffffffffffffffffffffffff908116835282820193909352604091820160002082516060810184529054938416815274010000000000000000000000000000000000000000840460ff1691810191909152750100000000000000000000000000000000000000000090920463ffffffff16908201528884611336816145f0565b955081518110611348576113486145c1565b60200260200101819052505b506001016111d0565b50855181101561136b578086525b5050505050919050565b61137d611e3b565b6113876000611eff565b565b600082815260026020908152604080832073ffffffffffffffffffffffffffffffffffffffff8086168552925282205416908161140a5773ffffffffffffffffffffffffffffffffffffffff80841660009081527fac33ff75c19e70fe83507db0d683fd3465c996598dc972688b7ace676c89077b60205260409020541691505b611412611e8e565b73ffffffffffffffffffffffffffffffffffffffff168373ffffffffffffffffffffffffffffffffffffffff161090509250929050565b6040517f862026500000000000000000000000000000000000000000000000000000000081526004810189905273ffffffffffffffffffffffffffffffffffffffff7f000000000000000000000000000000000000000000000000000000000000eeee811660248301526000917f0000000000000000000000005adb234602d074064c216c1fdb23c6c2031f0c7590911690638620265090604401602060405180830381865afa158015611501573d6000803e3d6000fd5b505050506040513d601f19601f820116820180604052508101906115259190614520565b905073ffffffffffffffffffffffffffffffffffffffff81166115b3576040517fcf78a6fc000000000000000000000000000000000000000000000000000000008152600481018a905273ffffffffffffffffffffffffffffffffffffffff7f000000000000000000000000000000000000000000000000000000000000eeee16602482015260440161020c565b60006115cd8a8a6115c68c8c8989611f74565b87876122e7565b905060006115fc837f000000000000000000000000000000000000000000000000000000000000eeee846125b2565b90508273ffffffffffffffffffffffffffffffffffffffff16639e6eec05828d7f000000000000000000000000000000000000000000000000000000000000eeee868d8d8d8d8d6040518a63ffffffff1660e01b8152600401611666989796959493929190614671565b6000604051808303818588803b15801561167f57600080fd5b505af1158015611693573d6000803e3d6000fd5b50505050505050505050505050505050565b831561176b576040517f6352211e00000000000000000000000000000000000000000000000000000000815260048101859052611766907f0000000000000000000000009b52a59f108e36ce0a8eba595eca22dbadbe655f73ffffffffffffffffffffffffffffffffffffffff1690636352211e90602401602060405180830381865afa15801561173a573d6000803e3d6000fd5b505050506040513d601f19601f8201168201806040525081019061175e9190614520565b85601b611cd8565b611773565b611773611e3b565b600093845260046020908152604080862073ffffffffffffffffffffffffffffffffffffffff959095168652938152929093209290911b77ffffffffffffffffffffffffffffffffffffffff000000001663ffffffff91909116179055565b6117da611e3b565b73ffffffffffffffffffffffffffffffffffffffff811661182a576040517f1e4fbdf70000000000000000000000000000000000000000000000000000000081526000600482015260240161020c565b61183381611eff565b50565b60008061184583850185613fa0565b9092509050600073ffffffffffffffffffffffffffffffffffffffff821661eeee146118715781611893565b7f00000000000000000000000042000000000000000000000000000000000000065b600084815260026020908152604080832073ffffffffffffffffffffffffffffffffffffffff80861685529252909120549192501680611916575073ffffffffffffffffffffffffffffffffffffffff80821660009081527fac33ff75c19e70fe83507db0d683fd3465c996598dc972688b7ace676c89077b6020526040902054165b3373ffffffffffffffffffffffffffffffffffffffff821614611967576040517fbca42a5400000000000000000000000000000000000000000000000000000000815233600482015260240161020c565b60008089126119765788611978565b875b90507fffffffffffffffffffffffffffffffffffffffffffffffffffffffffffff111273ffffffffffffffffffffffffffffffffffffffff851601611a39577f000000000000000000000000420000000000000000000000000000000000000673ffffffffffffffffffffffffffffffffffffffff1663d0e30db0826040518263ffffffff1660e01b81526004016000604051808303818588803b158015611a1f57600080fd5b505af1158015611a33573d6000803e3d6000fd5b50505050505b611a5a73ffffffffffffffffffffffffffffffffffffffff8416338361260d565b505050505050505050565b6040517f86202650000000000000000000000000000000000000000000000000000000008152600481018a905273ffffffffffffffffffffffffffffffffffffffff7f000000000000000000000000000000000000000000000000000000000000eeee8116602483015260009182917f0000000000000000000000005adb234602d074064c216c1fdb23c6c2031f0c751690638620265090604401602060405180830381865afa158015611b1d573d6000803e3d6000fd5b505050506040513d601f19601f82011682018060405250810190611b419190614520565b905073ffffffffffffffffffffffffffffffffffffffff8116611bcf576040517fcf78a6fc000000000000000000000000000000000000000000000000000000008152600481018c905273ffffffffffffffffffffffffffffffffffffffff7f000000000000000000000000000000000000000000000000000000000000eeee16602482015260440161020c565b6000611be98c8c611be28e8e8a8a611f74565b88886122e7565b90506000611c18837f000000000000000000000000000000000000000000000000000000000000eeee846125b2565b90508273ffffffffffffffffffffffffffffffffffffffff1663fef43257828f7f000000000000000000000000000000000000000000000000000000000000eeee868f8f8f8f8f8f6040518b63ffffffff1660e01b8152600401611c84999897969594939291906146d7565b60206040518083038185885af1158015611ca2573d6000803e3d6000fd5b50505050506040513d601f19601f82011682018060405250810190611cc79190614746565b9d9c50505050505050505050505050565b3373ffffffffffffffffffffffffffffffffffffffff84168114801590611dd057506040517f348b684e00000000000000000000000000000000000000000000000000000000815273ffffffffffffffffffffffffffffffffffffffff82811660048301528581166024830152604482018590526064820184905260016084830181905260a48301527f0000000000000000000000004886c30c81a17a3a1084fd1812008fa0f71a20b9169063348b684e9060c401602060405180830381865afa158015611daa573d6000803e3d6000fd5b505050506040513d601f19601f82011682018060405250810190611dce919061475f565b155b15611e35576040517f264deeaa00000000000000000000000000000000000000000000000000000000815273ffffffffffffffffffffffffffffffffffffffff808616600483015282166024820152604481018490526064810183905260840161020c565b50505050565b60005473ffffffffffffffffffffffffffffffffffffffff163314611387576040517f118cdaa700000000000000000000000000000000000000000000000000000000815233600482015260240161020c565b60007f0000000000000000000000000000000000000000000000000000000000000001611eda57507f000000000000000000000000000000000000000000000000000000000000eeee90565b507f000000000000000000000000420000000000000000000000000000000000000690565b6000805473ffffffffffffffffffffffffffffffffffffffff8381167fffffffffffffffffffffffff0000000000000000000000000000000000000000831681178455604051919092169283917f8be0079c531659141344cd1fd0a4f28419497f9722a3daafe3b4186f6b6457e09190a35050565b60007fffffffffffffffffffffffffffffffffffffffffffffffffffffffffffff111273ffffffffffffffffffffffffffffffffffffffff861601611fba5750346122df565b3415611ff4576040517f15f828f800000000000000000000000000000000000000000000000000000000815234600482015260240161020c565b6000806120746120386040518060400160405280600781526020017f7065726d6974320000000000000000000000000000000000000000000000000081525061268e565b86868080601f0160208091040260200160405190810160405280939291908181526020018383808284376000920191909152506126a292505050565b9150915081156122405760008180602001905181019061209491906147bb565b9050806020015173ffffffffffffffffffffffffffffffffffffffff1687111561210f5760208101516040517f6efd58f80000000000000000000000000000000000000000000000000000000081526004810189905273ffffffffffffffffffffffffffffffffffffffff909116602482015260440161020c565b6000604051806060016040528060405180608001604052808c73ffffffffffffffffffffffffffffffffffffffff168152602001856020015173ffffffffffffffffffffffffffffffffffffffff168152602001856040015165ffffffffffff168152602001856060015165ffffffffffff1681525081526020013073ffffffffffffffffffffffffffffffffffffffff168152602001836000015181525090507f000000000000000000000000000000000022d473030f116ddee9f6b43ac78ba373ffffffffffffffffffffffffffffffffffffffff16632b67b570338385608001516040518463ffffffff1660e01b815260040161221193929190614923565b600060405180830381600087803b15801561222b57600080fd5b505af192505050801561223c575060015b5050505b61224c3330898961288f565b6040517f70a0823100000000000000000000000000000000000000000000000000000000815230600482015273ffffffffffffffffffffffffffffffffffffffff8816906370a0823190602401602060405180830381865afa1580156122b6573d6000803e3d6000fd5b505050506040513d601f19601f820116820180604052508101906122da9190614746565b925050505b949350505050565b60008073ffffffffffffffffffffffffffffffffffffffff861661eeee1461230f5785612331565b7f00000000000000000000000042000000000000000000000000000000000000065b9050600061233d611e8e565b905073ffffffffffffffffffffffffffffffffffffffff871661eeee14801561238357507f00000000000000000000000000000000000000000000000000000000000000015b806123b957508073ffffffffffffffffffffffffffffffffffffffff168273ffffffffffffffffffffffffffffffffffffffff16145b156123c85785925050506125a9565b6000806123d987878c878c88612a98565b91509150600061241b8a8a858773ffffffffffffffffffffffffffffffffffffffff168973ffffffffffffffffffffffffffffffffffffffff16108f87612d3f565b6040517f70a0823100000000000000000000000000000000000000000000000000000000815230600482015290915060009073ffffffffffffffffffffffffffffffffffffffff8716906370a0823190602401602060405180830381865afa15801561248b573d6000803e3d6000fd5b505050506040513d601f19601f820116820180604052508101906124af9190614746565b905080156125a1577fffffffffffffffffffffffffffffffffffffffffffffffffffffffffffff111273ffffffffffffffffffffffffffffffffffffffff8c1601612595576040517f2e1a7d4d000000000000000000000000000000000000000000000000000000008152600481018290527f000000000000000000000000420000000000000000000000000000000000000673ffffffffffffffffffffffffffffffffffffffff1690632e1a7d4d90602401600060405180830381600087803b15801561257c57600080fd5b505af1158015612590573d6000803e3d6000fd5b505050505b6125a130338d8461288f565b509450505050505b95945050505050565b60007f0000000000000000000000000000000000000000000000000000000000000001156125e1575080612606565b61260273ffffffffffffffffffffffffffffffffffffffff84168584612f72565b5060005b9392505050565b60405173ffffffffffffffffffffffffffffffffffffffff8381166024830152604482018390526102e591859182169063a9059cbb906064015b604051602081830303815290604052915060e01b6020820180517bffffffffffffffffffffffffffffffffffffffffffffffffffffffff8381831617835250505050613022565b805160208201206000903060601b18610740565b6000606060258351116126c75750506040805160208101909152600080825290610f43565b6000836126d6600460206145ae565b815181106126e6576126e66145c1565b0160209081015160f81c91505b6000856127016004846145ae565b81518110612711576127116145c1565b01602001517fff00000000000000000000000000000000000000000000000000000000000000161480159061274f575061274c6020836149a5565b81105b15612886576000856127626004846145ae565b81518110612772576127726145c1565b016020908101518784019091015160f89190911c91507fffffffff000000000000000000000000000000000000000000000000000000008089169082160361287c5760006127c16020866149a5565b6127cc6009866145ae565b1015806128195750876127e06009866145ae565b815181106127f0576127f06145c1565b01602001517fff0000000000000000000000000000000000000000000000000000000000000016155b6128525760208861282b6009876145ae565b8151811061283b5761283b6145c1565b016020015161284d919060f81c6149a5565b612855565b87515b9050600161286e896128686020876149a5565b846130c6565b965096505050505050610f43565b50506005016126f3565b50509250929050565b3073ffffffffffffffffffffffffffffffffffffffff851603612919577fffffffffffffffffffffffffffffffffffffffffffffffffffffffffffff111273ffffffffffffffffffffffffffffffffffffffff8316016128f8576128f3838261310c565b611e35565b6128f373ffffffffffffffffffffffffffffffffffffffff8316848361260d565b6040517fdd62ed3e00000000000000000000000000000000000000000000000000000000815273ffffffffffffffffffffffffffffffffffffffff858116600483015230602483015282919084169063dd62ed3e90604401602060405180830381865afa15801561298e573d6000803e3d6000fd5b505050506040513d601f19601f820116820180604052508101906129b29190614746565b106129d9576128f373ffffffffffffffffffffffffffffffffffffffff83168585846131e9565b6040517f36c7851600000000000000000000000000000000000000000000000000000000815273ffffffffffffffffffffffffffffffffffffffff85811660048301528481166024830152828116604483015283811660648301527f000000000000000000000000000000000022d473030f116ddee9f6b43ac78ba316906336c7851690608401600060405180830381600087803b158015612a7a57600080fd5b505af1158015612a8e573d6000803e3d6000fd5b5050505050505050565b600084815260026020908152604080832073ffffffffffffffffffffffffffffffffffffffff808816855292528220541680612b6c575073ffffffffffffffffffffffffffffffffffffffff80851660009081527fac33ff75c19e70fe83507db0d683fd3465c996598dc972688b7ace676c89077b60205260409020541680612b6c576040517f891773860000000000000000000000000000000000000000000000000000000081526004810187905273ffffffffffffffffffffffffffffffffffffffff8616602482015260440161020c565b600080612bec612bb06040518060400160405280600c81526020017f71756f7465466f7253776170000000000000000000000000000000000000000081525061268e565b8b8b8080601f0160208091040260200160405190810160405280939291908181526020018383808284376000920191909152506126a292505050565b915091508115612c115780806020019051810190612c0a9190614746565b9350612d32565b600080612c1e8a86610eba565b915091506000612c2d8661322f565b90508263ffffffff168163ffffffff161015612c47578092505b60008163ffffffff16600003612cd85760008773ffffffffffffffffffffffffffffffffffffffff16633850c7bd6040518163ffffffff1660e01b815260040160e060405180830381865afa158015612ca4573d6000803e3d6000fd5b505050506040513d601f19601f82011682018060405250810190612cc891906149ce565b50939650612ce695505050505050565b612ce28785613476565b5090505b612cf2818b8d8c61373a565b9750612710612d1773ffffffffffffffffffffffffffffffffffffffff85168a6149a5565b612d219190614a96565b612d2b9089614aaa565b9750505050505b5050965096945050505050565b60008060008373ffffffffffffffffffffffffffffffffffffffff1663128acb0830888b8a612d8c57612d87600173fffd8963efd1fc6a506488495d951d5263988d26614abd565b612d9c565b612d9c6401000276a36001614af1565b8a8f604051602001612dce92919091825273ffffffffffffffffffffffffffffffffffffffff16602082015260400190565b6040516020818303038152906040526040518663ffffffff1660e01b8152600401612dfd959493929190614b1e565b60408051808303816000875af1158015612e1b573d6000803e3d6000fd5b505050506040513d601f19601f82011682018060405250810190612e3f9190614b70565b9150915085612e4e5781612e50565b805b612e5990614b94565b925086831015612e9f576040517f371d1b7a000000000000000000000000000000000000000000000000000000008152600481018490526024810188905260440161020c565b7f000000000000000000000000000000000000000000000000000000000000000115612f66576040517f2e1a7d4d000000000000000000000000000000000000000000000000000000008152600481018490527f000000000000000000000000420000000000000000000000000000000000000673ffffffffffffffffffffffffffffffffffffffff1690632e1a7d4d90602401600060405180830381600087803b158015612f4d57600080fd5b505af1158015612f61573d6000803e3d6000fd5b505050505b50509695505050505050565b6040517fdd62ed3e00000000000000000000000000000000000000000000000000000000815230600482015273ffffffffffffffffffffffffffffffffffffffff83811660248301526000919085169063dd62ed3e90604401602060405180830381865afa158015612fe8573d6000803e3d6000fd5b505050506040513d601f19601f8201168201806040525081019061300c9190614746565b9050611e35848461301d85856145ae565b613910565b600080602060008451602086016000885af180613045576040513d6000823e3d81fd5b50506000513d9150811561305d578060011415613077565b73ffffffffffffffffffffffffffffffffffffffff84163b155b15611e35576040517f5274afe700000000000000000000000000000000000000000000000000000000815273ffffffffffffffffffffffffffffffffffffffff8516600482015260240161020c565b60608282036040519150602081830101604052808252508260208501016020820160005b848110156131025782810151828201526020016130ea565b5050509392505050565b8047101561314f576040517fcf4791810000000000000000000000000000000000000000000000000000000081524760048201526024810182905260440161020c565b60008273ffffffffffffffffffffffffffffffffffffffff168260405160006040518083038185875af1925050503d80600081146131a9576040519150601f19603f3d011682016040523d82523d6000602084013e6131ae565b606091505b50509050806102e5576040517fd6bda27500000000000000000000000000000000000000000000000000000000815260040160405180910390fd5b60405173ffffffffffffffffffffffffffffffffffffffff8481166024830152838116604483015260648201839052611e359186918216906323b872dd90608401612647565b60008060008373ffffffffffffffffffffffffffffffffffffffff16633850c7bd6040518163ffffffff1660e01b815260040160e060405180830381865afa15801561327f573d6000803e3d6000fd5b505050506040513d601f19601f820116820180604052508101906132a391906149ce565b50505093509350505060008161ffff161161331a576040517f08c379a000000000000000000000000000000000000000000000000000000000815260206004820152600260248201527f4e49000000000000000000000000000000000000000000000000000000000000604482015260640161020c565b60008073ffffffffffffffffffffffffffffffffffffffff861663252c09d784613345876001614bcc565b61334f9190614be7565b6040517fffffffff0000000000000000000000000000000000000000000000000000000060e084901b16815261ffff9091166004820152602401608060405180830381865afa1580156133a6573d6000803e3d6000fd5b505050506040513d601f19601f820116820180604052508101906133ca9190614c1a565b9350505091508061346b576040517f252c09d70000000000000000000000000000000000000000000000000000000081526000600482015273ffffffffffffffffffffffffffffffffffffffff87169063252c09d790602401608060405180830381865afa158015613440573d6000803e3d6000fd5b505050506040513d601f19601f820116820180604052508101906134649190614c1a565b5091935050505b504203949350505050565b6000808263ffffffff166000036134e9576040517f08c379a000000000000000000000000000000000000000000000000000000000815260206004820152600260248201527f4250000000000000000000000000000000000000000000000000000000000000604482015260640161020c565b604080516002808252606082018352600092602083019080368337019050509050838160008151811061351e5761351e6145c1565b602002602001019063ffffffff16908163ffffffff168152505060008160018151811061354d5761354d6145c1565b602002602001019063ffffffff16908163ffffffff16815250506000808673ffffffffffffffffffffffffffffffffffffffff1663883bdbfd846040518263ffffffff1660e01b81526004016135a39190614c6a565b600060405180830381865afa1580156135c0573d6000803e3d6000fd5b505050506040513d6000823e601f3d9081017fffffffffffffffffffffffffffffffffffffffffffffffffffffffffffffffe01682016040526136069190810190614d1b565b9150915060008260008151811061361f5761361f6145c1565b60200260200101518360018151811061363a5761363a6145c1565b602002602001015161364c9190614dde565b9050600082600081518110613663576136636145c1565b60200260200101518360018151811061367e5761367e6145c1565b60200260200101516136909190614abd565b90506136a263ffffffff891683614e23565b965060008260060b1280156136c857506136c263ffffffff891683614e97565b60060b15155b156136db57866136d781614eb9565b9750505b600061370173ffffffffffffffffffffffffffffffffffffffff63ffffffff8b16614f16565b905061372b77ffffffffffffffffffffffffffffffffffffffff00000000602084901b1682614f59565b96505050505050509250929050565b600080613746866139e8565b90506fffffffffffffffffffffffffffffffff73ffffffffffffffffffffffffffffffffffffffff82161161384557600061379773ffffffffffffffffffffffffffffffffffffffff8316806149a5565b90508373ffffffffffffffffffffffffffffffffffffffff168573ffffffffffffffffffffffffffffffffffffffff1610613807576138027801000000000000000000000000000000000000000000000000876fffffffffffffffffffffffffffffffff1683613d4f565b61383d565b61383d81876fffffffffffffffffffffffffffffffff167801000000000000000000000000000000000000000000000000613d4f565b925050613907565b600061387173ffffffffffffffffffffffffffffffffffffffff83168068010000000000000000613d4f565b90508373ffffffffffffffffffffffffffffffffffffffff168573ffffffffffffffffffffffffffffffffffffffff16106138d9576138d4700100000000000000000000000000000000876fffffffffffffffffffffffffffffffff1683613d4f565b6122da565b6122da81876fffffffffffffffffffffffffffffffff16700100000000000000000000000000000000613d4f565b50949350505050565b6040805173ffffffffffffffffffffffffffffffffffffffff8416602482015260448082018490528251808303909101815260649091019091526020810180517bffffffffffffffffffffffffffffffffffffffffffffffffffffffff167f095ea7b30000000000000000000000000000000000000000000000000000000017905261399c8482613e1f565b611e355760405173ffffffffffffffffffffffffffffffffffffffff8481166024830152600060448301526139de91869182169063095ea7b390606401612647565b611e358482613022565b60008060008360020b126139ff578260020b613a07565b8260020b6000035b9050620d89e8811115613a46576040517f2bc80f3a00000000000000000000000000000000000000000000000000000000815260040160405180910390fd5b600081600116600003613a6a57700100000000000000000000000000000000613a7c565b6ffffcb933bd6fad37aa2d162d1a5940015b70ffffffffffffffffffffffffffffffffff1690506002821615613ab0576ffff97272373d413259a46990580e213a0260801c5b6004821615613acf576ffff2e50f5f656932ef12357cf3c7fdcc0260801c5b6008821615613aee576fffe5caca7e10e4e61c3624eaa0941cd00260801c5b6010821615613b0d576fffcb9843d60f6159c9db58835c9266440260801c5b6020821615613b2c576fff973b41fa98c081472e6896dfb254c00260801c5b6040821615613b4b576fff2ea16466c96a3843ec78b326b528610260801c5b6080821615613b6a576ffe5dee046a99a2a811c461f1969c30530260801c5b610100821615613b8a576ffcbe86c7900a88aedcffc83b479aa3a40260801c5b610200821615613baa576ff987a7253ac413176f2b074cf7815e540260801c5b610400821615613bca576ff3392b0822b70005940c7a398e4b70f30260801c5b610800821615613bea576fe7159475a2c29b7443b29c7fa6e889d90260801c5b611000821615613c0a576fd097f3bdfd2022b8845ad8f792aa58250260801c5b612000821615613c2a576fa9f746462d870fdf8a65dc1f90e061e50260801c5b614000821615613c4a576f70d869a156d2a1b890bb3df62baf32f70260801c5b618000821615613c6a576f31be135f97d08fd981231505542fcfa60260801c5b62010000821615613c8b576f09aa508b5b7a84e1c677de54f3e99bc90260801c5b62020000821615613cab576e5d6af8dedb81196699c329225ee6040260801c5b62040000821615613cca576d2216e584f5fa1ea926041bedfe980260801c5b62080000821615613ce7576b048a170391f7dc42444e8fa20260801c5b60008460020b1315613d2657807fffffffffffffffffffffffffffffffffffffffffffffffffffffffffffffffff81613d2257613d22614a67565b0490505b640100000000810615613d3a576001613d3d565b60005b60ff16602082901c0192505050919050565b600080807fffffffffffffffffffffffffffffffffffffffffffffffffffffffffffffffff85870985870292508281108382030391505080600003613da65760008411613d9b57600080fd5b508290049050612606565b808411613db257600080fd5b6000848688096000868103871696879004966002600389028118808a02820302808a02820302808a02820302808a02820302808a02820302808a02909103029181900381900460010186841190950394909402919094039290920491909117919091029150509392505050565b6000806000806020600086516020880160008a5af192503d91506000519050828015613e7157508115613e555780600114613e71565b60008673ffffffffffffffffffffffffffffffffffffffff163b115b9695505050505050565b600060208284031215613e8d57600080fd5b81357fffffffff000000000000000000000000000000000000000000000000000000008116811461260657600080fd5b73ffffffffffffffffffffffffffffffffffffffff8116811461183357600080fd5b600080600060608486031215613ef457600080fd5b833592506020840135613f0681613ebd565b91506040840135613f1681613ebd565b809150509250925092565b600080600060408486031215613f3657600080fd5b83359250602084013567ffffffffffffffff80821115613f5557600080fd5b818601915086601f830112613f6957600080fd5b813581811115613f7857600080fd5b876020606083028501011115613f8d57600080fd5b6020830194508093505050509250925092565b60008060408385031215613fb357600080fd5b823591506020830135613fc581613ebd565b809150509250929050565b815173ffffffffffffffffffffffffffffffffffffffff16815260208083015160ff169082015260408083015163ffffffff169082015260608101610740565b60006020828403121561402257600080fd5b5035919050565b6020808252825182820181905260009190848201906040850190845b8181101561409e5761408b838551805173ffffffffffffffffffffffffffffffffffffffff16825260208082015160ff169083015260409081015163ffffffff16910152565b9284019260609290920191600101614045565b50909695505050505050565b801515811461183357600080fd5b60008083601f8401126140ca57600080fd5b50813567ffffffffffffffff8111156140e257600080fd5b602083019150836020828501011115610f4357600080fd5b60008060008060008060008060c0898b03121561411657600080fd5b88359750602089013561412881613ebd565b965060408901359550606089013561413f816140aa565b9450608089013567ffffffffffffffff8082111561415c57600080fd5b6141688c838d016140b8565b909650945060a08b013591508082111561418157600080fd5b5061418e8b828c016140b8565b999c989b5096995094979396929594505050565b63ffffffff8116811461183357600080fd5b600080600080608085870312156141ca57600080fd5b8435935060208501356141dc81613ebd565b925060408501356141ec816141a2565b915060608501356141fc81613ebd565b939692955090935050565b7f4e487b7100000000000000000000000000000000000000000000000000000000600052604160045260246000fd5b6040516060810167ffffffffffffffff8111828210171561425957614259614207565b60405290565b60405160a0810167ffffffffffffffff8111828210171561425957614259614207565b604051601f82017fffffffffffffffffffffffffffffffffffffffffffffffffffffffffffffffe016810167ffffffffffffffff811182821017156142c9576142c9614207565b604052919050565b600067ffffffffffffffff8211156142eb576142eb614207565b5060051b60200190565b60ff8116811461183357600080fd5b6000806000806080858703121561431a57600080fd5b8435935060208086013567ffffffffffffffff81111561433957600080fd5b8601601f8101881361434a57600080fd5b803561435d614358826142d1565b614282565b8181526060918202830184019184820191908b84111561437c57600080fd5b938501935b838510156143e15780858d0312156143995760008081fd5b6143a1614236565b85356143ac81613ebd565b8152858701356143bb816142f5565b818801526040868101356143ce816141a2565b9082015283529384019391850191614381565b50979a97995050505060408601359560600135949350505050565b60006020828403121561440e57600080fd5b813561260681613ebd565b6000806000806060858703121561442f57600080fd5b8435935060208501359250604085013567ffffffffffffffff81111561445457600080fd5b614460878288016140b8565b95989497509550505050565b600080600080600080600080600060e08a8c03121561448a57600080fd5b8935985060208a013561449c81613ebd565b975060408a0135965060608a01356144b381613ebd565b955060808a0135945060a08a013567ffffffffffffffff808211156144d757600080fd5b6144e38d838e016140b8565b909650945060c08c01359150808211156144fc57600080fd5b506145098c828d016140b8565b915080935050809150509295985092959850929598565b60006020828403121561453257600080fd5b815161260681613ebd565b60006020828403121561454f57600080fd5b815162ffffff8116811461260657600080fd5b60006020828403121561457457600080fd5b8151612606816142f5565b7f4e487b7100000000000000000000000000000000000000000000000000000000600052601160045260246000fd5b808201808211156107405761074061457f565b7f4e487b7100000000000000000000000000000000000000000000000000000000600052603260045260246000fd5b60007fffffffffffffffffffffffffffffffffffffffffffffffffffffffffffffffff82036146215761462161457f565b5060010190565b8183528181602085013750600060208284010152600060207fffffffffffffffffffffffffffffffffffffffffffffffffffffffffffffffe0601f840116840101905092915050565b88815273ffffffffffffffffffffffffffffffffffffffff88166020820152866040820152851515606082015260c0608082015260006146b560c083018688614628565b82810360a08401526146c8818587614628565b9b9a5050505050505050505050565b898152600073ffffffffffffffffffffffffffffffffffffffff808b16602084015289604084015280891660608401525086608083015260e060a083015261472360e083018688614628565b82810360c0840152614736818587614628565b9c9b505050505050505050505050565b60006020828403121561475857600080fd5b5051919050565b60006020828403121561477157600080fd5b8151612606816140aa565b805165ffffffffffff8116811461479257600080fd5b919050565b60005b838110156147b257818101518382015260200161479a565b50506000910152565b600060208083850312156147ce57600080fd5b825167ffffffffffffffff808211156147e657600080fd5b9084019060a082870312156147fa57600080fd5b61480261425f565b825181528383015161481381613ebd565b818501526148236040840161477c565b60408201526148346060840161477c565b606082015260808301518281111561484b57600080fd5b80840193505086601f84011261486057600080fd5b82518281111561487257614872614207565b6148a2857fffffffffffffffffffffffffffffffffffffffffffffffffffffffffffffffe0601f84011601614282565b925080835287858286010111156148b857600080fd5b6148c781868501878701614797565b50608081019190915295945050505050565b600081518084526148f1816020860160208601614797565b601f017fffffffffffffffffffffffffffffffffffffffffffffffffffffffffffffffe0169290920160200192915050565b600061010073ffffffffffffffffffffffffffffffffffffffff80871684528551818151166020860152816020820151166040860152604081015165ffffffffffff80821660608801528060608401511660808801525050508060208701511660a085015250604085015160c08401528060e0840152613e71818401856148d9565b80820281158282048414176107405761074061457f565b805161ffff8116811461479257600080fd5b600080600080600080600060e0888a0312156149e957600080fd5b87516149f481613ebd565b8097505060208801518060020b8114614a0c57600080fd5b9550614a1a604089016149bc565b9450614a28606089016149bc565b9350614a36608089016149bc565b925060a0880151614a46816142f5565b60c0890151909250614a57816140aa565b8091505092959891949750929550565b7f4e487b7100000000000000000000000000000000000000000000000000000000600052601260045260246000fd5b600082614aa557614aa5614a67565b500490565b818103818111156107405761074061457f565b73ffffffffffffffffffffffffffffffffffffffff828116828216039080821115614aea57614aea61457f565b5092915050565b73ffffffffffffffffffffffffffffffffffffffff818116838216019080821115614aea57614aea61457f565b600073ffffffffffffffffffffffffffffffffffffffff8088168352861515602084015285604084015280851660608401525060a06080830152614b6560a08301846148d9565b979650505050505050565b60008060408385031215614b8357600080fd5b505080516020909101519092909150565b60007f80000000000000000000000000000000000000000000000000000000000000008203614bc557614bc561457f565b5060000390565b61ffff818116838216019080821115614aea57614aea61457f565b600061ffff80841680614bfc57614bfc614a67565b92169190910692915050565b8051600681900b811461479257600080fd5b60008060008060808587031215614c3057600080fd5b8451614c3b816141a2565b9350614c4960208601614c08565b92506040850151614c5981613ebd565b60608601519092506141fc816140aa565b6020808252825182820181905260009190848201906040850190845b8181101561409e57835163ffffffff1683529284019291840191600101614c86565b600082601f830112614cb957600080fd5b81516020614cc9614358836142d1565b8083825260208201915060208460051b870101935086841115614ceb57600080fd5b602086015b84811015614d10578051614d0381613ebd565b8352918301918301614cf0565b509695505050505050565b60008060408385031215614d2e57600080fd5b825167ffffffffffffffff80821115614d4657600080fd5b818501915085601f830112614d5a57600080fd5b81516020614d6a614358836142d1565b82815260059290921b84018101918181019089841115614d8957600080fd5b948201945b83861015614dae57614d9f86614c08565b82529482019490820190614d8e565b91880151919650909350505080821115614dc757600080fd5b50614dd485828601614ca8565b9150509250929050565b600682810b9082900b037fffffffffffffffffffffffffffffffffffffffffffffffffff800000000000008112667fffffffffffff821317156107405761074061457f565b60008160060b8360060b80614e3a57614e3a614a67565b7fffffffffffffffffffffffffffffffffffffffffffffffffffffffffffffffff81147fffffffffffffffffffffffffffffffffffffffffffffffffff8000000000000083141615614e8e57614e8e61457f565b90059392505050565b60008260060b80614eaa57614eaa614a67565b808360060b0791505092915050565b60008160020b7fffffffffffffffffffffffffffffffffffffffffffffffffffffffffff8000008103614eee57614eee61457f565b7fffffffffffffffffffffffffffffffffffffffffffffffffffffffffffffffff0192915050565b77ffffffffffffffffffffffffffffffffffffffffffffffff828116828216818102831692918115828504821417614f5057614f5061457f565b50505092915050565b600077ffffffffffffffffffffffffffffffffffffffffffffffff80841680614f8457614f84614a67565b9216919091049291505056fea264697066735822122078e2c224d73798ebbbc7b4858f5057b0623d92e1555330d12684d9c51cc64d6164736f6c63430008170033",
	"devdoc": {
		"kind": "dev",
		"methods": {
			"accountingContextForTokenOf(uint256,address)": {
				"details": "Accounting contexts are set up in `addDefaultPool(...)`.",
				"params": {
					"projectId": "The ID of the project to get the accounting context for.",
					"token": "The address of the token to get the accounting context for."
				},
				"returns": {
					"context": "A `JBAccountingContext` containing the accounting context for the project ID and token."
				}
			},
			"accountingContextsOf(uint256)": {
				"details": "This includes both project-specific and generic accounting contexts, with the project-specific contexts         taking precedence.",
				"params": {
					"projectId": "The ID of the project to get the accounting contexts for."
				},
				"returns": {
					"contexts": "An array of `JBAccountingContext` containing the accounting contexts for the project ID."
				}
			},
			"addDefaultPool(uint256,address,address)": {
				"details": "The pool should have been deployed by the factory associated to this contract. We don't rely on create2 address as this terminal might be used on other chain, where the factory bytecode might differ or the main dex be a fork.",
				"params": {
					"pool": "The Uniswap V3 pool to set as the default for the specified token.",
					"projectId": "The ID of the project to set the default pool for. The project 0 acts as a catch-all, where non-set pools are defaulted to.",
					"token": "The address of the token to set the default pool for."
				}
			},
			"addToBalanceOf(uint256,address,uint256,bool,string,bytes)": {
				"details": "This function handles the token in transfer, potentially swaps the tokens to the desired output token, and then adds the swapped tokens to the project's balance in the specified terminal.",
				"params": {
					"amount": "The amount of tokens being paid in.",
					"memo": "A memo to pass along to the emitted event.",
					"metadata": "Bytes in `JBMetadataResolver`'s format which can contain additional data for the swap and adding to balance.",
					"projectId": "The ID of the project for which funds are being accepted and added to its balance.",
					"shouldReturnHeldFees": "A boolean to indicate whether held fees should be returned.",
					"token": "The address of the token being paid in."
				}
			},
			"addTwapParamsFor(uint256,address,uint32,uint160)": {
				"params": {
					"projectId": "The ID of the project to set the TWAP-based quote rules for.",
					"slippageTolerance": "The maximum spread allowed between the amount received and the TWAP (as a fraction out of `SLIPPAGE_DENOMINATOR`).",
					"twapWindow": "The period of time over which the TWAP is calculated, in seconds."
				}
			},
			"constructor": {
				"params": {
					"directory": "A contract storing directories of terminals and controllers for each project.",
					"factory": "A factory which creates Uniswap V3 pools.",
					"owner": "The owner of the contract.",
					"permissions": "A contract storing permissions.",
					"permit2": "A permit2 utility.",
					"projects": "A contract which mints ERC-721s that represent project ownership and transfers.",
					"tokenOut": "The token which flows out of this terminal (JBConstants.NATIVE_TOKEN for the chain native token)",
					"weth": "A contract which wraps the native token."
				}
			},
			"getPoolFor(uint256,address)": {
				"params": {
					"projectId": "The ID of the project to retrieve the default pool for.",
					"tokenIn": "The address of the token to retrieve the default pool for."
				},
				"returns": {
					"pool": "The default pool for the token, or the overall default pool for the token if the"
				}
			},
			"owner()": {
				"details": "Returns the address of the current owner."
			},
			"pay(uint256,address,uint256,address,uint256,string,bytes)": {
				"params": {
					"amount": "The amount of tokens being paid in, as a fixed point number with the same amount of decimals as the `token`. If `token` is the native token, `amount` is ignored and `msg.value` is used in its place.",
					"beneficiary": "The beneficiary address to pass along to the other terminal. If the other terminal mints tokens, for example, they will be minted for this address.",
					"memo": "A memo to pass along to the emitted event.",
					"metadata": "Bytes in `JBMetadataResolver`'s format which can contain a quote from the user/client. The quote should contain a minimum amount of tokens to receive from the swap and the pool to use. This metadata is also passed to the other terminal's emitted event, as well as its data hook and pay hook if applicable.",
					"minReturnedTokens": "The minimum number of project tokens expected in return, as a fixed point number with the same number of decimals as the other terminal. This value will be passed along to the other terminal.",
					"projectId": "The ID of the project being paid.",
					"token": "The address of the token being paid in."
				},
				"returns": {
					"_0": "The number of tokens received from the swap, as a fixed point number with the same amount of decimals as that token."
				}
			},
			"renounceOwnership()": {
				"details": "Leaves the contract without owner. It will not be possible to call `onlyOwner` functions. Can only be called by the current owner. NOTE: Renouncing ownership will leave the contract without an owner, thereby disabling any functionality that is only available to the owner."
			},
			"supportsInterface(bytes4)": {
				"details": "See {IERC165-supportsInterface}.",
				"params": {
					"interfaceId": "The ID of the interface to check for adherance to."
				},
				"returns": {
					"_0": "A flag indicating if the provided interface ID is supported."
				}
			},
			"transferOwnership(address)": {
				"details": "Transfers ownership of the contract to a new account (`newOwner`). Can only be called by the current owner."
			},
			"twapParamsOf(uint256,address)": {
				"params": {
					"projectId": "The ID of the project to retrieve TWAP parameters for."
				},
				"returns": {
					"_0": "twapWindow The period of time in the past to calculate the TWAP from.",
					"_1": "slippageTolerance The maximum allowed slippage tolerance when calculating the TWAP, as a fraction out of `SLIPPAGE_DENOMINATOR`."
				}
			},
			"uniswapV3SwapCallback(int256,int256,bytes)": {
				"details": "Only an uniswap v3 pool can call this function",
				"params": {
					"amount0Delta": "The amount of token 0 being used for the swap.",
					"amount1Delta": "The amount of token 1 being used for the swap.",
					"data": "Data passed in by the swap operation."
				}
			}
		},
		"version": 1
	},
	"userdoc": {
		"kind": "user",
		"methods": {
			"DEFAULT_PROJECT_ID()": {
				"notice": "The ID to store default values in."
			},
			"DIRECTORY()": {
				"notice": "The directory of terminals and controllers for `PROJECTS`."
			},
			"FACTORY()": {
				"notice": "The factory to use for creating new pools"
			},
			"PERMISSIONS()": {
				"notice": "A contract storing permissions."
			},
			"PERMIT2()": {
				"notice": "The permit2 utility."
			},
			"PROJECTS()": {
				"notice": "Mints ERC-721s that represent project ownership and transfers."
			},
			"SLIPPAGE_DENOMINATOR()": {
				"notice": "The denominator used when calculating TWAP slippage tolerance values."
			},
			"TOKEN_OUT()": {
				"notice": "The token which flows out of this terminal (JBConstants.NATIVE_TOKEN for the chain native token)"
			},
			"WETH()": {
				"notice": "The ERC-20 wrapper for the native token."
			},
			"accountingContextForTokenOf(uint256,address)": {
				"notice": "Get the accounting context for the specified project ID and token."
			},
			"accountingContextsOf(uint256)": {
				"notice": "Return all the accounting contexts for a specified project ID."
			},
			"addAccountingContextsFor(uint256,(address,uint8,uint32)[])": {
				"notice": "Empty implementation to satisfy the interface. Accounting contexts are set in `addDefaultPool(...)`."
			},
			"addDefaultPool(uint256,address,address)": {
				"notice": "Set a project's default pool and accounting context for the specified token. Only the project's owner, an address with `MODIFY_DEFAULT_POOL` permission from the owner or the terminal owner can call this function."
			},
			"addToBalanceOf(uint256,address,uint256,bool,string,bytes)": {
				"notice": "Accepts funds for a given project, swaps them if necessary, and adds them to the project's balance in the specified terminal."
			},
			"addTwapParamsFor(uint256,address,uint32,uint160)": {
				"notice": "Set the specified project's rules for calculating a quote based on the TWAP. Only the project's owner or an address with `MODIFY_TWAP_PARAMS` permission from the owner  or the terminal owner can call this function."
			},
			"currentSurplusOf(uint256,(address,uint8,uint32)[],uint256,uint256)": {
				"notice": "Empty implementation to satisfy the interface. This terminal has no surplus."
			},
			"getPoolFor(uint256,address)": {
				"notice": "Returns the default pool for a given project and token or, if a project has no default pool for the         token, the overal default pool for the token"
			},
			"migrateBalanceOf(uint256,address,address)": {
				"notice": "Empty implementation to satisfy the interface."
			},
			"pay(uint256,address,uint256,address,uint256,string,bytes)": {
				"notice": "Pay a project by swapping the incoming tokens for tokens that one of the project's other terminals accepts, passing along the funds received from the swap and the specified parameters."
			},
			"supportsInterface(bytes4)": {
				"notice": "Indicates if this contract adheres to the specified interface."
			},
			"twapParamsOf(uint256,address)": {
				"notice": "Returns the default twap parameters for a given pool project."
			},
			"uniswapV3SwapCallback(int256,int256,bytes)": {
				"notice": "The Uniswap v3 pool callback where the token transfer is expected to happen."
			}
		},
		"version": 1
	},
	"gitCommit": "795fd0d2bdbd8d3ba171ab88ca33bc6f4886f75d",
	"sourceName": "src/JBSwapTerminal.sol",
	"chainId": "11155420",
	"linkReferences": {},
	"deployedLinkReferences": {},
	"history": []
}