{
	"_format": "sphinx-sol-ct-artifact-1",
	"merkleRoot": "0x33d059bfed95a6c6cdf1f15c76f412063c3cc0f142083a9311696404fc310951",
	"contractName": "JBSwapTerminal",
	"address": "0x82d54160dd1dEBD315AE880E21A2d669747EDB59",
	"abi": [
		{
			"type": "constructor",
			"inputs": [
				{
					"name": "directory",
					"type": "address",
					"internalType": "contract IJBDirectory"
				},
				{
					"name": "permissions",
					"type": "address",
					"internalType": "contract IJBPermissions"
				},
				{
					"name": "projects",
					"type": "address",
					"internalType": "contract IJBProjects"
				},
				{
					"name": "permit2",
					"type": "address",
					"internalType": "contract IPermit2"
				},
				{
					"name": "owner",
					"type": "address",
					"internalType": "address"
				},
				{
					"name": "weth",
					"type": "address",
					"internalType": "contract IWETH9"
				},
				{
					"name": "tokenOut",
					"type": "address",
					"internalType": "address"
				},
				{
					"name": "factory",
					"type": "address",
					"internalType": "contract IUniswapV3Factory"
				}
			],
			"stateMutability": "nonpayable"
		},
		{
			"type": "receive",
			"stateMutability": "payable"
		},
		{
			"type": "function",
			"name": "DEFAULT_PROJECT_ID",
			"inputs": [],
			"outputs": [
				{
					"name": "",
					"type": "uint256",
					"internalType": "uint256"
				}
			],
			"stateMutability": "view"
		},
		{
			"type": "function",
			"name": "DIRECTORY",
			"inputs": [],
			"outputs": [
				{
					"name": "",
					"type": "address",
					"internalType": "contract IJBDirectory"
				}
			],
			"stateMutability": "view"
		},
		{
			"type": "function",
			"name": "FACTORY",
			"inputs": [],
			"outputs": [
				{
					"name": "",
					"type": "address",
					"internalType": "contract IUniswapV3Factory"
				}
			],
			"stateMutability": "view"
		},
		{
			"type": "function",
			"name": "PERMISSIONS",
			"inputs": [],
			"outputs": [
				{
					"name": "",
					"type": "address",
					"internalType": "contract IJBPermissions"
				}
			],
			"stateMutability": "view"
		},
		{
			"type": "function",
			"name": "PERMIT2",
			"inputs": [],
			"outputs": [
				{
					"name": "",
					"type": "address",
					"internalType": "contract IPermit2"
				}
			],
			"stateMutability": "view"
		},
		{
			"type": "function",
			"name": "PROJECTS",
			"inputs": [],
			"outputs": [
				{
					"name": "",
					"type": "address",
					"internalType": "contract IJBProjects"
				}
			],
			"stateMutability": "view"
		},
		{
			"type": "function",
			"name": "SLIPPAGE_DENOMINATOR",
			"inputs": [],
			"outputs": [
				{
					"name": "",
					"type": "uint160",
					"internalType": "uint160"
				}
			],
			"stateMutability": "view"
		},
		{
			"type": "function",
			"name": "TOKEN_OUT",
			"inputs": [],
			"outputs": [
				{
					"name": "",
					"type": "address",
					"internalType": "address"
				}
			],
			"stateMutability": "view"
		},
		{
			"type": "function",
			"name": "WETH",
			"inputs": [],
			"outputs": [
				{
					"name": "",
					"type": "address",
					"internalType": "contract IWETH9"
				}
			],
			"stateMutability": "view"
		},
		{
			"type": "function",
			"name": "accountingContextForTokenOf",
			"inputs": [
				{
					"name": "projectId",
					"type": "uint256",
					"internalType": "uint256"
				},
				{
					"name": "token",
					"type": "address",
					"internalType": "address"
				}
			],
			"outputs": [
				{
					"name": "context",
					"type": "tuple",
					"internalType": "struct JBAccountingContext",
					"components": [
						{
							"name": "token",
							"type": "address",
							"internalType": "address"
						},
						{
							"name": "decimals",
							"type": "uint8",
							"internalType": "uint8"
						},
						{
							"name": "currency",
							"type": "uint32",
							"internalType": "uint32"
						}
					]
				}
			],
			"stateMutability": "view"
		},
		{
			"type": "function",
			"name": "accountingContextsOf",
			"inputs": [
				{
					"name": "projectId",
					"type": "uint256",
					"internalType": "uint256"
				}
			],
			"outputs": [
				{
					"name": "contexts",
					"type": "tuple[]",
					"internalType": "struct JBAccountingContext[]",
					"components": [
						{
							"name": "token",
							"type": "address",
							"internalType": "address"
						},
						{
							"name": "decimals",
							"type": "uint8",
							"internalType": "uint8"
						},
						{
							"name": "currency",
							"type": "uint32",
							"internalType": "uint32"
						}
					]
				}
			],
			"stateMutability": "view"
		},
		{
			"type": "function",
			"name": "addAccountingContextsFor",
			"inputs": [
				{
					"name": "projectId",
					"type": "uint256",
					"internalType": "uint256"
				},
				{
					"name": "accountingContexts",
					"type": "tuple[]",
					"internalType": "struct JBAccountingContext[]",
					"components": [
						{
							"name": "token",
							"type": "address",
							"internalType": "address"
						},
						{
							"name": "decimals",
							"type": "uint8",
							"internalType": "uint8"
						},
						{
							"name": "currency",
							"type": "uint32",
							"internalType": "uint32"
						}
					]
				}
			],
			"outputs": [],
			"stateMutability": "nonpayable"
		},
		{
			"type": "function",
			"name": "addDefaultPool",
			"inputs": [
				{
					"name": "projectId",
					"type": "uint256",
					"internalType": "uint256"
				},
				{
					"name": "token",
					"type": "address",
					"internalType": "address"
				},
				{
					"name": "pool",
					"type": "address",
					"internalType": "contract IUniswapV3Pool"
				}
			],
			"outputs": [],
			"stateMutability": "nonpayable"
		},
		{
			"type": "function",
			"name": "addToBalanceOf",
			"inputs": [
				{
					"name": "projectId",
					"type": "uint256",
					"internalType": "uint256"
				},
				{
					"name": "token",
					"type": "address",
					"internalType": "address"
				},
				{
					"name": "amount",
					"type": "uint256",
					"internalType": "uint256"
				},
				{
					"name": "shouldReturnHeldFees",
					"type": "bool",
					"internalType": "bool"
				},
				{
					"name": "memo",
					"type": "string",
					"internalType": "string"
				},
				{
					"name": "metadata",
					"type": "bytes",
					"internalType": "bytes"
				}
			],
			"outputs": [],
			"stateMutability": "payable"
		},
		{
			"type": "function",
			"name": "addTwapParamsFor",
			"inputs": [
				{
					"name": "projectId",
					"type": "uint256",
					"internalType": "uint256"
				},
				{
					"name": "pool",
					"type": "address",
					"internalType": "contract IUniswapV3Pool"
				},
				{
					"name": "secondsAgo",
					"type": "uint32",
					"internalType": "uint32"
				},
				{
					"name": "slippageTolerance",
					"type": "uint160",
					"internalType": "uint160"
				}
			],
			"outputs": [],
			"stateMutability": "nonpayable"
		},
		{
			"type": "function",
			"name": "currentSurplusOf",
			"inputs": [
				{
					"name": "projectId",
					"type": "uint256",
					"internalType": "uint256"
				},
				{
					"name": "decimals",
					"type": "uint256",
					"internalType": "uint256"
				},
				{
					"name": "currency",
					"type": "uint256",
					"internalType": "uint256"
				}
			],
			"outputs": [
				{
					"name": "",
					"type": "uint256",
					"internalType": "uint256"
				}
			],
			"stateMutability": "view"
		},
		{
			"type": "function",
			"name": "getPoolFor",
			"inputs": [
				{
					"name": "projectId",
					"type": "uint256",
					"internalType": "uint256"
				},
				{
					"name": "tokenIn",
					"type": "address",
					"internalType": "address"
				}
			],
			"outputs": [
				{
					"name": "pool",
					"type": "address",
					"internalType": "contract IUniswapV3Pool"
				},
				{
					"name": "zeroForOne",
					"type": "bool",
					"internalType": "bool"
				}
			],
			"stateMutability": "view"
		},
		{
			"type": "function",
			"name": "migrateBalanceOf",
			"inputs": [
				{
					"name": "projectId",
					"type": "uint256",
					"internalType": "uint256"
				},
				{
					"name": "token",
					"type": "address",
					"internalType": "address"
				},
				{
					"name": "to",
					"type": "address",
					"internalType": "contract IJBTerminal"
				}
			],
			"outputs": [
				{
					"name": "balance",
					"type": "uint256",
					"internalType": "uint256"
				}
			],
			"stateMutability": "nonpayable"
		},
		{
			"type": "function",
			"name": "owner",
			"inputs": [],
			"outputs": [
				{
					"name": "",
					"type": "address",
					"internalType": "address"
				}
			],
			"stateMutability": "view"
		},
		{
			"type": "function",
			"name": "pay",
			"inputs": [
				{
					"name": "projectId",
					"type": "uint256",
					"internalType": "uint256"
				},
				{
					"name": "token",
					"type": "address",
					"internalType": "address"
				},
				{
					"name": "amount",
					"type": "uint256",
					"internalType": "uint256"
				},
				{
					"name": "beneficiary",
					"type": "address",
					"internalType": "address"
				},
				{
					"name": "minReturnedTokens",
					"type": "uint256",
					"internalType": "uint256"
				},
				{
					"name": "memo",
					"type": "string",
					"internalType": "string"
				},
				{
					"name": "metadata",
					"type": "bytes",
					"internalType": "bytes"
				}
			],
			"outputs": [
				{
					"name": "",
					"type": "uint256",
					"internalType": "uint256"
				}
			],
			"stateMutability": "payable"
		},
		{
			"type": "function",
			"name": "renounceOwnership",
			"inputs": [],
			"outputs": [],
			"stateMutability": "nonpayable"
		},
		{
			"type": "function",
			"name": "supportsInterface",
			"inputs": [
				{
					"name": "interfaceId",
					"type": "bytes4",
					"internalType": "bytes4"
				}
			],
			"outputs": [
				{
					"name": "",
					"type": "bool",
					"internalType": "bool"
				}
			],
			"stateMutability": "view"
		},
		{
			"type": "function",
			"name": "transferOwnership",
			"inputs": [
				{
					"name": "newOwner",
					"type": "address",
					"internalType": "address"
				}
			],
			"outputs": [],
			"stateMutability": "nonpayable"
		},
		{
			"type": "function",
			"name": "twapParamsOf",
			"inputs": [
				{
					"name": "projectId",
					"type": "uint256",
					"internalType": "uint256"
				},
				{
					"name": "pool",
					"type": "address",
					"internalType": "contract IUniswapV3Pool"
				}
			],
			"outputs": [
				{
					"name": "secondsAgo",
					"type": "uint32",
					"internalType": "uint32"
				},
				{
					"name": "slippageTolerance",
					"type": "uint160",
					"internalType": "uint160"
				}
			],
			"stateMutability": "view"
		},
		{
			"type": "function",
			"name": "uniswapV3SwapCallback",
			"inputs": [
				{
					"name": "amount0Delta",
					"type": "int256",
					"internalType": "int256"
				},
				{
					"name": "amount1Delta",
					"type": "int256",
					"internalType": "int256"
				},
				{
					"name": "data",
					"type": "bytes",
					"internalType": "bytes"
				}
			],
			"outputs": [],
			"stateMutability": "nonpayable"
		},
		{
			"type": "event",
			"name": "AddToBalance",
			"inputs": [
				{
					"name": "projectId",
					"type": "uint256",
					"indexed": true,
					"internalType": "uint256"
				},
				{
					"name": "amount",
					"type": "uint256",
					"indexed": false,
					"internalType": "uint256"
				},
				{
					"name": "returnedFees",
					"type": "uint256",
					"indexed": false,
					"internalType": "uint256"
				},
				{
					"name": "memo",
					"type": "string",
					"indexed": false,
					"internalType": "string"
				},
				{
					"name": "metadata",
					"type": "bytes",
					"indexed": false,
					"internalType": "bytes"
				},
				{
					"name": "caller",
					"type": "address",
					"indexed": false,
					"internalType": "address"
				}
			],
			"anonymous": false
		},
		{
			"type": "event",
			"name": "HookAfterRecordPay",
			"inputs": [
				{
					"name": "hook",
					"type": "address",
					"indexed": true,
					"internalType": "contract IJBPayHook"
				},
				{
					"name": "context",
					"type": "tuple",
					"indexed": false,
					"internalType": "struct JBAfterPayRecordedContext",
					"components": [
						{
							"name": "payer",
							"type": "address",
							"internalType": "address"
						},
						{
							"name": "projectId",
							"type": "uint256",
							"internalType": "uint256"
						},
						{
							"name": "rulesetId",
							"type": "uint256",
							"internalType": "uint256"
						},
						{
							"name": "amount",
							"type": "tuple",
							"internalType": "struct JBTokenAmount",
							"components": [
								{
									"name": "token",
									"type": "address",
									"internalType": "address"
								},
								{
									"name": "decimals",
									"type": "uint8",
									"internalType": "uint8"
								},
								{
									"name": "currency",
									"type": "uint32",
									"internalType": "uint32"
								},
								{
									"name": "value",
									"type": "uint256",
									"internalType": "uint256"
								}
							]
						},
						{
							"name": "forwardedAmount",
							"type": "tuple",
							"internalType": "struct JBTokenAmount",
							"components": [
								{
									"name": "token",
									"type": "address",
									"internalType": "address"
								},
								{
									"name": "decimals",
									"type": "uint8",
									"internalType": "uint8"
								},
								{
									"name": "currency",
									"type": "uint32",
									"internalType": "uint32"
								},
								{
									"name": "value",
									"type": "uint256",
									"internalType": "uint256"
								}
							]
						},
						{
							"name": "weight",
							"type": "uint256",
							"internalType": "uint256"
						},
						{
							"name": "projectTokenCount",
							"type": "uint256",
							"internalType": "uint256"
						},
						{
							"name": "beneficiary",
							"type": "address",
							"internalType": "address"
						},
						{
							"name": "hookMetadata",
							"type": "bytes",
							"internalType": "bytes"
						},
						{
							"name": "payerMetadata",
							"type": "bytes",
							"internalType": "bytes"
						}
					]
				},
				{
					"name": "specificationAmount",
					"type": "uint256",
					"indexed": false,
					"internalType": "uint256"
				},
				{
					"name": "caller",
					"type": "address",
					"indexed": false,
					"internalType": "address"
				}
			],
			"anonymous": false
		},
		{
			"type": "event",
			"name": "MigrateTerminal",
			"inputs": [
				{
					"name": "projectId",
					"type": "uint256",
					"indexed": true,
					"internalType": "uint256"
				},
				{
					"name": "token",
					"type": "address",
					"indexed": true,
					"internalType": "address"
				},
				{
					"name": "to",
					"type": "address",
					"indexed": true,
					"internalType": "contract IJBTerminal"
				},
				{
					"name": "amount",
					"type": "uint256",
					"indexed": false,
					"internalType": "uint256"
				},
				{
					"name": "caller",
					"type": "address",
					"indexed": false,
					"internalType": "address"
				}
			],
			"anonymous": false
		},
		{
			"type": "event",
			"name": "OwnershipTransferred",
			"inputs": [
				{
					"name": "previousOwner",
					"type": "address",
					"indexed": true,
					"internalType": "address"
				},
				{
					"name": "newOwner",
					"type": "address",
					"indexed": true,
					"internalType": "address"
				}
			],
			"anonymous": false
		},
		{
			"type": "event",
			"name": "Pay",
			"inputs": [
				{
					"name": "rulesetId",
					"type": "uint256",
					"indexed": true,
					"internalType": "uint256"
				},
				{
					"name": "rulesetCycleNumber",
					"type": "uint256",
					"indexed": true,
					"internalType": "uint256"
				},
				{
					"name": "projectId",
					"type": "uint256",
					"indexed": true,
					"internalType": "uint256"
				},
				{
					"name": "payer",
					"type": "address",
					"indexed": false,
					"internalType": "address"
				},
				{
					"name": "beneficiary",
					"type": "address",
					"indexed": false,
					"internalType": "address"
				},
				{
					"name": "amount",
					"type": "uint256",
					"indexed": false,
					"internalType": "uint256"
				},
				{
					"name": "beneficiaryTokenCount",
					"type": "uint256",
					"indexed": false,
					"internalType": "uint256"
				},
				{
					"name": "memo",
					"type": "string",
					"indexed": false,
					"internalType": "string"
				},
				{
					"name": "metadata",
					"type": "bytes",
					"indexed": false,
					"internalType": "bytes"
				},
				{
					"name": "caller",
					"type": "address",
					"indexed": false,
					"internalType": "address"
				}
			],
			"anonymous": false
		},
		{
			"type": "event",
			"name": "SetAccountingContext",
			"inputs": [
				{
					"name": "projectId",
					"type": "uint256",
					"indexed": true,
					"internalType": "uint256"
				},
				{
					"name": "context",
					"type": "tuple",
					"indexed": false,
					"internalType": "struct JBAccountingContext",
					"components": [
						{
							"name": "token",
							"type": "address",
							"internalType": "address"
						},
						{
							"name": "decimals",
							"type": "uint8",
							"internalType": "uint8"
						},
						{
							"name": "currency",
							"type": "uint32",
							"internalType": "uint32"
						}
					]
				},
				{
					"name": "caller",
					"type": "address",
					"indexed": false,
					"internalType": "address"
				}
			],
			"anonymous": false
		},
		{
			"type": "error",
			"name": "AddressEmptyCode",
			"inputs": [
				{
					"name": "target",
					"type": "address",
					"internalType": "address"
				}
			]
		},
		{
			"type": "error",
			"name": "AddressInsufficientBalance",
			"inputs": [
				{
					"name": "account",
					"type": "address",
					"internalType": "address"
				}
			]
		},
		{
			"type": "error",
			"name": "FailedInnerCall",
			"inputs": []
		},
		{
			"type": "error",
			"name": "JBPermissioned_Unauthorized",
			"inputs": [
				{
					"name": "account",
					"type": "address",
					"internalType": "address"
				},
				{
					"name": "sender",
					"type": "address",
					"internalType": "address"
				},
				{
					"name": "projectId",
					"type": "uint256",
					"internalType": "uint256"
				},
				{
					"name": "permissionId",
					"type": "uint256",
					"internalType": "uint256"
				}
			]
		},
		{
			"type": "error",
			"name": "JBSwapTerminal_CallerNotPool",
			"inputs": [
				{
					"name": "caller",
					"type": "address",
					"internalType": "address"
				}
			]
		},
		{
			"type": "error",
			"name": "JBSwapTerminal_NoDefaultPoolDefined",
			"inputs": [
				{
					"name": "projectId",
					"type": "uint256",
					"internalType": "uint256"
				},
				{
					"name": "token",
					"type": "address",
					"internalType": "address"
				}
			]
		},
		{
			"type": "error",
			"name": "JBSwapTerminal_NoMsgValueAllowed",
			"inputs": [
				{
					"name": "value",
					"type": "uint256",
					"internalType": "uint256"
				}
			]
		},
		{
			"type": "error",
			"name": "JBSwapTerminal_PermitAllowanceNotEnough",
			"inputs": [
				{
					"name": "amount",
					"type": "uint256",
					"internalType": "uint256"
				},
				{
					"name": "allowance",
					"type": "uint256",
					"internalType": "uint256"
				}
			]
		},
		{
			"type": "error",
			"name": "JBSwapTerminal_SpecifiedSlippageExceeded",
			"inputs": [
				{
					"name": "amount",
					"type": "uint256",
					"internalType": "uint256"
				},
				{
					"name": "minimum",
					"type": "uint256",
					"internalType": "uint256"
				}
			]
		},
		{
			"type": "error",
			"name": "JBSwapTerminal_TokenNotAccepted",
			"inputs": [
				{
					"name": "projectId",
					"type": "uint256",
					"internalType": "uint256"
				},
				{
					"name": "token",
					"type": "address",
					"internalType": "address"
				}
			]
		},
		{
			"type": "error",
			"name": "JBSwapTerminal_UnexpectedCall",
			"inputs": [
				{
					"name": "caller",
					"type": "address",
					"internalType": "address"
				}
			]
		},
		{
			"type": "error",
			"name": "JBSwapTerminal_WrongPool",
			"inputs": [
				{
					"name": "pool",
					"type": "address",
					"internalType": "address"
				},
				{
					"name": "expectedPool",
					"type": "address",
					"internalType": "address"
				}
			]
		},
		{
			"type": "error",
			"name": "JBSwapTerminal_ZeroToken",
			"inputs": []
		},
		{
			"type": "error",
			"name": "OwnableInvalidOwner",
			"inputs": [
				{
					"name": "owner",
					"type": "address",
					"internalType": "address"
				}
			]
		},
		{
			"type": "error",
			"name": "OwnableUnauthorizedAccount",
			"inputs": [
				{
					"name": "account",
					"type": "address",
					"internalType": "address"
				}
			]
		},
		{
			"type": "error",
			"name": "SafeERC20FailedOperation",
			"inputs": [
				{
					"name": "token",
					"type": "address",
					"internalType": "address"
				}
			]
		},
		{
			"type": "error",
			"name": "T",
			"inputs": []
		}
	],
	"solcInputHash": "8e573ef619a9ddb5f65821d0b6365f69",
	"args": [
		"0xE0B2860344bA476e12eD1d559656dA9D04F1AD22",
		"0x4CDb4200e4E65a277676Cd5E8d3c7C7C4dA7fBe5",
		"0xEcB62030E30Bb027F672F24692111492Ba2Bbc84",
		"0x000000000022D473030F116dDEE9F6B43aC78BA3",
		"0x823b92d6a4b2AED4b15675c7917c9f922ea8ADAD",
		"0x980B62Da83eFf3D4576C647993b0c1D7faf17c73",
		"0x000000000000000000000000000000000000EEEe",
		"0x248AB79Bbb9bC29bB72f7Cd42F17e054Fc40188e"
	],
	"bytecode": "0x6101806040523480156200001257600080fd5b506040516200505038038062005050833981016040819052620000359162000148565b6001600160a01b03808816608052849081166200006c57604051631e4fbdf760e01b81526000600482015260240160405180910390fd5b6200007781620000df565b506001600160a01b038216620000a057604051635cd24a5760e11b815260040160405180910390fd5b6001600160a01b0397881660a0529487166101005292861660e05285166101405250831661012081905261eeee146101605290911660c0525062000209565b600080546001600160a01b038381166001600160a01b0319831681178455604051919092169283917f8be0079c531659141344cd1fd0a4f28419497f9722a3daafe3b4186f6b6457e09190a35050565b6001600160a01b03811681146200014557600080fd5b50565b600080600080600080600080610100898b0312156200016657600080fd5b885162000173816200012f565b60208a015190985062000186816200012f565b60408a015190975062000199816200012f565b60608a0151909650620001ac816200012f565b60808a0151909550620001bf816200012f565b60a08a0151909450620001d2816200012f565b60c08a0151909350620001e5816200012f565b60e08a0151909250620001f8816200012f565b809150509295985092959890939650565b60805160a05160c05160e05161010051610120516101405161016051614d0f62000341600039600081816115f301528181611c3d01528181611ee3015281816123b4015281816126050152612e370152600081816101b70152818161054f01528181611896015281816119dc01528181611f2e01528181612362015281816125740152612e8a015260008181610263015281816114820152818161157b015281816115ca0152818161164101528181611acc01528181611bc501528181611c1401528181611c8b0152611f090152600081816102fc015281816107740152611701015260008181610432015281816122030152612a780152600081816103530152818161083801526109a40152600081816104c7015281816114ad0152611af90152600081816106020152611db40152614d0f6000f3fe60806040526004361061019a5760003560e01c80637c5e9c24116100e1578063c361534c1161008a578063f2fde38b11610064578063f2fde38b146105d0578063f434c914146105f0578063fa461e3314610624578063fef432571461064457600080fd5b8063c361534c14610571578063cc68012714610591578063e28b5411146105b557600080fd5b80639e6eec05116100bb5780639e6eec0514610514578063ac90511414610527578063ad5c46481461053d57600080fd5b80637c5e9c241461046957806388bc2ef3146104b55780638da5cb5b146104e957600080fd5b80632dd3100011610143578063515a92931161011d578063515a9293146103f35780636afdd85014610420578063715018a61461045457600080fd5b80632dd31000146103415780633a01714f1461037557806340873cb5146103a257600080fd5b8063253721c811610174578063253721c8146102ca578063293c4999146102ea5780632c1ae8821461031e57600080fd5b806301ffc9a71461021c5780630392ef941461025157806324e26dc5146102aa57600080fd5b36610217573373ffffffffffffffffffffffffffffffffffffffff7f00000000000000000000000000000000000000000000000000000000000000001614610215576040517fb320fe970000000000000000000000000000000000000000000000000000000081523360048201526024015b60405180910390fd5b005b600080fd5b34801561022857600080fd5b5061023c610237366004613dbf565b610657565b60405190151581526020015b60405180910390f35b34801561025d57600080fd5b506102857f000000000000000000000000000000000000000000000000000000000000000081565b60405173ffffffffffffffffffffffffffffffffffffffff9091168152602001610248565b3480156102b657600080fd5b506102156102c5366004613e23565b61073b565b3480156102d657600080fd5b506102156102e5366004613e65565b505050565b3480156102f657600080fd5b506102857f000000000000000000000000000000000000000000000000000000000000000081565b34801561032a57600080fd5b50610333600081565b604051908152602001610248565b34801561034d57600080fd5b506102857f000000000000000000000000000000000000000000000000000000000000000081565b34801561038157600080fd5b50610395610390366004613ee4565b610d67565b6040516102489190613f14565b3480156103ae57600080fd5b506103c26103bd366004613ee4565b610eaf565b6040805163ffffffff909316835273ffffffffffffffffffffffffffffffffffffffff909116602083015201610248565b3480156103ff57600080fd5b5061041361040e366004613f54565b610f3f565b6040516102489190613f6d565b34801561042c57600080fd5b506102857f000000000000000000000000000000000000000000000000000000000000000081565b34801561046057600080fd5b5061021561136a565b34801561047557600080fd5b50610489610484366004613ee4565b61137e565b6040805173ffffffffffffffffffffffffffffffffffffffff9093168352901515602083015201610248565b3480156104c157600080fd5b506102857f000000000000000000000000000000000000000000000000000000000000000081565b3480156104f557600080fd5b5060005473ffffffffffffffffffffffffffffffffffffffff16610285565b61021561052236600461403e565b61143e565b34801561053357600080fd5b5061028561271081565b34801561054957600080fd5b506102857f000000000000000000000000000000000000000000000000000000000000000081565b34801561057d57600080fd5b5061021561058c3660046140e6565b6116c8565b34801561059d57600080fd5b506103336105ac366004614142565b60009392505050565b3480156105c157600080fd5b506103336105ac366004613e23565b3480156105dc57600080fd5b506102156105eb36600461416e565b6117f5565b3480156105fc57600080fd5b506102857f000000000000000000000000000000000000000000000000000000000000000081565b34801561063057600080fd5b5061021561063f36600461418b565b611859565b6103336106523660046141de565b611a88565b60007fffffffff0000000000000000000000000000000000000000000000000000000082167e1549700000000000000000000000000000000000000000000000000000000014806106e957507fffffffff0000000000000000000000000000000000000000000000000000000082167f6afdd85000000000000000000000000000000000000000000000000000000000145b8061073557507fffffffff0000000000000000000000000000000000000000000000000000000082167f01ffc9a700000000000000000000000000000000000000000000000000000000145b92915050565b8215610801576040517f6352211e000000000000000000000000000000000000000000000000000000008152600481018490526107fc907f000000000000000000000000000000000000000000000000000000000000000073ffffffffffffffffffffffffffffffffffffffff1690636352211e90602401602060405180830381865afa1580156107d0573d6000803e3d6000fd5b505050506040513d601f19601f820116820180604052508101906107f49190614292565b84601a611d29565b610809565b610809611e8c565b6000610813611edf565b905073ffffffffffffffffffffffffffffffffffffffff8082168482161090838116907f000000000000000000000000000000000000000000000000000000000000000016631698ee8283610868578461086a565b865b846108755787610877565b855b8773ffffffffffffffffffffffffffffffffffffffff1663ddca3f436040518163ffffffff1660e01b8152600401602060405180830381865afa1580156108c2573d6000803e3d6000fd5b505050506040513d601f19601f820116820180604052508101906108e691906142af565b6040517fffffffff0000000000000000000000000000000000000000000000000000000060e086901b16815273ffffffffffffffffffffffffffffffffffffffff938416600482015292909116602483015262ffffff166044820152606401602060405180830381865afa158015610962573d6000803e3d6000fd5b505050506040513d601f19601f820116820180604052508101906109869190614292565b73ffffffffffffffffffffffffffffffffffffffff1614610b5957827f000000000000000000000000000000000000000000000000000000000000000073ffffffffffffffffffffffffffffffffffffffff16631698ee82836109e957846109eb565b865b846109f657876109f8565b855b8773ffffffffffffffffffffffffffffffffffffffff1663ddca3f436040518163ffffffff1660e01b8152600401602060405180830381865afa158015610a43573d6000803e3d6000fd5b505050506040513d601f19601f82011682018060405250810190610a6791906142af565b6040517fffffffff0000000000000000000000000000000000000000000000000000000060e086901b16815273ffffffffffffffffffffffffffffffffffffffff938416600482015292909116602483015262ffffff166044820152606401602060405180830381865afa158015610ae3573d6000803e3d6000fd5b505050506040513d601f19601f82011682018060405250810190610b079190614292565b6040517fe2bbe4ec00000000000000000000000000000000000000000000000000000000815273ffffffffffffffffffffffffffffffffffffffff92831660048201529116602482015260440161020c565b600085815260026020908152604080832073ffffffffffffffffffffffffffffffffffffffff8881168086529184529382902080547fffffffffffffffffffffffff00000000000000000000000000000000000000001694881694909417909355805160608101825283815281517f313ce5670000000000000000000000000000000000000000000000000000000081529151909384840193909263313ce56792600480830193928290030181865afa158015610c1a573d6000803e3d6000fd5b505050506040513d601f19601f82011682018060405250810190610c3e91906142d4565b60ff908116825263ffffffff80881660209384015260008981526001808552604080832073ffffffffffffffffffffffffffffffffffffffff9b8c16808552908752818420885181548a8a01519a8501519097167501000000000000000000000000000000000000000000027fffffffffffffff00000000ffffffffffffffffffffffffffffffffffffffffff9a90981674010000000000000000000000000000000000000000027fffffffffffffffffffffff0000000000000000000000000000000000000000009097169d169c909c179490941796909616939093179098559787526003825291862080549283018155865290942090930180547fffffffffffffffffffffffff000000000000000000000000000000000000000016909417909355505050565b6040805160608082018352600080835260208084018290529284018190528581526001835283812073ffffffffffffffffffffffffffffffffffffffff868116835290845290849020845192830185525490811680835274010000000000000000000000000000000000000000820460ff16938301939093527501000000000000000000000000000000000000000000900463ffffffff1692810192909252610735575073ffffffffffffffffffffffffffffffffffffffff81811660009081527fa6eef7e35abe7026729641147f7915573c7e97b47efa546f5f6e3230263bcb49602090815260409182902082516060810184529054938416815274010000000000000000000000000000000000000000840460ff1691810191909152750100000000000000000000000000000000000000000090920463ffffffff169082015292915050565b600082815260046020908152604080832073ffffffffffffffffffffffffffffffffffffffff851684529091528120548190808203610f2f575073ffffffffffffffffffffffffffffffffffffffff831660009081527f17ef568e3e12ab5b9c7254a8d58478811de00f9e6eb34345acd53bf8fd09d3ec60205260409020545b915050602081901c5b9250929050565b6000818152600360209081526040808320805482518185028101850190935280835260609493830182828015610fab57602002820191906000526020600020905b815473ffffffffffffffffffffffffffffffffffffffff168152600190910190602001808311610f80575b50506000808052600360209081527f3617319a054d772f909f7c479a2cebe5066e836a939412e32403c99029b92eff8054604080518285028101850190915281815297985092969550935090915083018282801561103f57602002820191906000526020600020905b815473ffffffffffffffffffffffffffffffffffffffff168152600190910190602001808311611014575b50505050509050805182516110549190614326565b67ffffffffffffffff81111561106c5761106c614339565b6040519080825280602002602001820160405280156110d557816020015b60408051606081018252600080825260208083018290529282015282527fffffffffffffffffffffffffffffffffffffffffffffffffffffffffffffffff90920191018161108a5790505b50825190935060005b818110156111be5760016000878152602001908152602001600020600085838151811061110d5761110d614368565b60209081029190910181015173ffffffffffffffffffffffffffffffffffffffff908116835282820193909352604091820160002082516060810184529054938416815274010000000000000000000000000000000000000000840460ff1691810191909152750100000000000000000000000000000000000000000090920463ffffffff169082015285518690839081106111ab576111ab614368565b60209081029190910101526001016110de565b5081518160005b82811015611352576000805b8581101561124f578683815181106111eb576111eb614368565b602002602001015173ffffffffffffffffffffffffffffffffffffffff1688828151811061121b5761121b614368565b602002602001015173ffffffffffffffffffffffffffffffffffffffff1603611247576001915061124f565b6001016111d1565b5080611349576000808052600160205286517fa6eef7e35abe7026729641147f7915573c7e97b47efa546f5f6e3230263bcb49919088908590811061129657611296614368565b60209081029190910181015173ffffffffffffffffffffffffffffffffffffffff908116835282820193909352604091820160002082516060810184529054938416815274010000000000000000000000000000000000000000840460ff1691810191909152750100000000000000000000000000000000000000000090920463ffffffff1690820152888461132b81614397565b95508151811061133d5761133d614368565b60200260200101819052505b506001016111c5565b508551811015611360578086525b5050505050919050565b611372611e8c565b61137c6000611f50565b565b600082815260026020908152604080832073ffffffffffffffffffffffffffffffffffffffff808616855292528220541690816113ff5773ffffffffffffffffffffffffffffffffffffffff80841660009081527fac33ff75c19e70fe83507db0d683fd3465c996598dc972688b7ace676c89077b60205260409020541691505b611407611edf565b73ffffffffffffffffffffffffffffffffffffffff168373ffffffffffffffffffffffffffffffffffffffff161090509250929050565b6040517f862026500000000000000000000000000000000000000000000000000000000081526004810189905273ffffffffffffffffffffffffffffffffffffffff7f0000000000000000000000000000000000000000000000000000000000000000811660248301526000917f000000000000000000000000000000000000000000000000000000000000000090911690638620265090604401602060405180830381865afa1580156114f6573d6000803e3d6000fd5b505050506040513d601f19601f8201168201806040525081019061151a9190614292565b905073ffffffffffffffffffffffffffffffffffffffff81166115a8576040517fcf78a6fc000000000000000000000000000000000000000000000000000000008152600481018a905273ffffffffffffffffffffffffffffffffffffffff7f000000000000000000000000000000000000000000000000000000000000000016602482015260440161020c565b60006115c28a8a6115bb8c8c8989611fc5565b8787612338565b90506115ef827f000000000000000000000000000000000000000000000000000000000000000083612603565b60007f000000000000000000000000000000000000000000000000000000000000000061161d57600061161f565b815b90508273ffffffffffffffffffffffffffffffffffffffff16639e6eec05828d7f0000000000000000000000000000000000000000000000000000000000000000868d8d8d8d8d6040518a63ffffffff1660e01b8152600401611689989796959493929190614418565b6000604051808303818588803b1580156116a257600080fd5b505af11580156116b6573d6000803e3d6000fd5b50505050505050505050505050505050565b831561178e576040517f6352211e00000000000000000000000000000000000000000000000000000000815260048101859052611789907f000000000000000000000000000000000000000000000000000000000000000073ffffffffffffffffffffffffffffffffffffffff1690636352211e90602401602060405180830381865afa15801561175d573d6000803e3d6000fd5b505050506040513d601f19601f820116820180604052508101906117819190614292565b85601b611d29565b611796565b611796611e8c565b600093845260046020908152604080862073ffffffffffffffffffffffffffffffffffffffff959095168652938152929093209290911b77ffffffffffffffffffffffffffffffffffffffff000000001663ffffffff91909116179055565b6117fd611e8c565b73ffffffffffffffffffffffffffffffffffffffff811661184d576040517f1e4fbdf70000000000000000000000000000000000000000000000000000000081526000600482015260240161020c565b61185681611f50565b50565b60008061186883850185613ee4565b9092509050600073ffffffffffffffffffffffffffffffffffffffff821661eeee1461189457816118b6565b7f00000000000000000000000000000000000000000000000000000000000000005b600084815260026020908152604080832073ffffffffffffffffffffffffffffffffffffffff80861685529252909120549192501680611939575073ffffffffffffffffffffffffffffffffffffffff80821660009081527fac33ff75c19e70fe83507db0d683fd3465c996598dc972688b7ace676c89077b6020526040902054165b3373ffffffffffffffffffffffffffffffffffffffff82161461198a576040517fbca42a5400000000000000000000000000000000000000000000000000000000815233600482015260240161020c565b6000808912611999578861199b565b875b90507fffffffffffffffffffffffffffffffffffffffffffffffffffffffffffff111273ffffffffffffffffffffffffffffffffffffffff851601611a5c577f000000000000000000000000000000000000000000000000000000000000000073ffffffffffffffffffffffffffffffffffffffff1663d0e30db0826040518263ffffffff1660e01b81526004016000604051808303818588803b158015611a4257600080fd5b505af1158015611a56573d6000803e3d6000fd5b50505050505b611a7d73ffffffffffffffffffffffffffffffffffffffff8416338361264f565b505050505050505050565b6040517f86202650000000000000000000000000000000000000000000000000000000008152600481018a905273ffffffffffffffffffffffffffffffffffffffff7f00000000000000000000000000000000000000000000000000000000000000008116602483015260009182917f00000000000000000000000000000000000000000000000000000000000000001690638620265090604401602060405180830381865afa158015611b40573d6000803e3d6000fd5b505050506040513d601f19601f82011682018060405250810190611b649190614292565b905073ffffffffffffffffffffffffffffffffffffffff8116611bf2576040517fcf78a6fc000000000000000000000000000000000000000000000000000000008152600481018c905273ffffffffffffffffffffffffffffffffffffffff7f000000000000000000000000000000000000000000000000000000000000000016602482015260440161020c565b6000611c0c8c8c611c058e8e8a8a611fc5565b8888612338565b9050611c39827f000000000000000000000000000000000000000000000000000000000000000083612603565b60007f0000000000000000000000000000000000000000000000000000000000000000611c67576000611c69565b815b90508273ffffffffffffffffffffffffffffffffffffffff1663fef43257828f7f0000000000000000000000000000000000000000000000000000000000000000868f8f8f8f8f8f6040518b63ffffffff1660e01b8152600401611cd59998979695949392919061447e565b60206040518083038185885af1158015611cf3573d6000803e3d6000fd5b50505050506040513d601f19601f82011682018060405250810190611d1891906144ed565b9d9c50505050505050505050505050565b3373ffffffffffffffffffffffffffffffffffffffff84168114801590611e2157506040517f348b684e00000000000000000000000000000000000000000000000000000000815273ffffffffffffffffffffffffffffffffffffffff82811660048301528581166024830152604482018590526064820184905260016084830181905260a48301527f0000000000000000000000000000000000000000000000000000000000000000169063348b684e9060c401602060405180830381865afa158015611dfb573d6000803e3d6000fd5b505050506040513d601f19601f82011682018060405250810190611e1f9190614506565b155b15611e86576040517f264deeaa00000000000000000000000000000000000000000000000000000000815273ffffffffffffffffffffffffffffffffffffffff808616600483015282166024820152604481018490526064810183905260840161020c565b50505050565b60005473ffffffffffffffffffffffffffffffffffffffff16331461137c576040517f118cdaa700000000000000000000000000000000000000000000000000000000815233600482015260240161020c565b60007f0000000000000000000000000000000000000000000000000000000000000000611f2b57507f000000000000000000000000000000000000000000000000000000000000000090565b507f000000000000000000000000000000000000000000000000000000000000000090565b6000805473ffffffffffffffffffffffffffffffffffffffff8381167fffffffffffffffffffffffff0000000000000000000000000000000000000000831681178455604051919092169283917f8be0079c531659141344cd1fd0a4f28419497f9722a3daafe3b4186f6b6457e09190a35050565b60007fffffffffffffffffffffffffffffffffffffffffffffffffffffffffffff111273ffffffffffffffffffffffffffffffffffffffff86160161200b575034612330565b3415612045576040517f15f828f800000000000000000000000000000000000000000000000000000000815234600482015260240161020c565b6000806120c56120896040518060400160405280600781526020017f7065726d697432000000000000000000000000000000000000000000000000008152506126d0565b86868080601f0160208091040260200160405190810160405280939291908181526020018383808284376000920191909152506126e492505050565b915091508115612291576000818060200190518101906120e591906145da565b9050806020015173ffffffffffffffffffffffffffffffffffffffff168711156121605760208101516040517f6efd58f80000000000000000000000000000000000000000000000000000000081526004810189905273ffffffffffffffffffffffffffffffffffffffff909116602482015260440161020c565b6000604051806060016040528060405180608001604052808c73ffffffffffffffffffffffffffffffffffffffff168152602001856020015173ffffffffffffffffffffffffffffffffffffffff168152602001856040015165ffffffffffff168152602001856060015165ffffffffffff1681525081526020013073ffffffffffffffffffffffffffffffffffffffff168152602001836000015181525090507f000000000000000000000000000000000000000000000000000000000000000073ffffffffffffffffffffffffffffffffffffffff16632b67b570338385608001516040518463ffffffff1660e01b815260040161226293929190614742565b600060405180830381600087803b15801561227c57600080fd5b505af192505050801561228d575060015b5050505b61229d333089896128d1565b6040517f70a0823100000000000000000000000000000000000000000000000000000000815230600482015273ffffffffffffffffffffffffffffffffffffffff8816906370a0823190602401602060405180830381865afa158015612307573d6000803e3d6000fd5b505050506040513d601f19601f8201168201806040525081019061232b91906144ed565b925050505b949350505050565b60008073ffffffffffffffffffffffffffffffffffffffff861661eeee146123605785612382565b7f00000000000000000000000000000000000000000000000000000000000000005b9050600061238e611edf565b905073ffffffffffffffffffffffffffffffffffffffff871661eeee1480156123d457507f00000000000000000000000000000000000000000000000000000000000000005b8061240a57508073ffffffffffffffffffffffffffffffffffffffff168273ffffffffffffffffffffffffffffffffffffffff16145b156124195785925050506125fa565b60008061242a87878c878c88612ada565b91509150600061246c8a8a858773ffffffffffffffffffffffffffffffffffffffff168973ffffffffffffffffffffffffffffffffffffffff16108f87612cd5565b6040517f70a0823100000000000000000000000000000000000000000000000000000000815230600482015290915060009073ffffffffffffffffffffffffffffffffffffffff8716906370a0823190602401602060405180830381865afa1580156124dc573d6000803e3d6000fd5b505050506040513d601f19601f8201168201806040525081019061250091906144ed565b905080156125f2577fffffffffffffffffffffffffffffffffffffffffffffffffffffffffffff111273ffffffffffffffffffffffffffffffffffffffff8c16016125e6576040517f2e1a7d4d000000000000000000000000000000000000000000000000000000008152600481018290527f000000000000000000000000000000000000000000000000000000000000000073ffffffffffffffffffffffffffffffffffffffff1690632e1a7d4d90602401600060405180830381600087803b1580156125cd57600080fd5b505af11580156125e1573d6000803e3d6000fd5b505050505b6125f230338d846128d1565b509450505050505b95945050505050565b7f00000000000000000000000000000000000000000000000000000000000000001561262e57505050565b6102e573ffffffffffffffffffffffffffffffffffffffff83168483612f08565b60405173ffffffffffffffffffffffffffffffffffffffff8381166024830152604482018390526102e591859182169063a9059cbb906064015b604051602081830303815290604052915060e01b6020820180517bffffffffffffffffffffffffffffffffffffffffffffffffffffffff8381831617835250505050612fb8565b805160208201206000903060601b18610735565b6000606060258351116127095750506040805160208101909152600080825290610f38565b60008361271860046020614326565b8151811061272857612728614368565b0160209081015160f81c91505b600085612743600484614326565b8151811061275357612753614368565b01602001517fff000000000000000000000000000000000000000000000000000000000000001614801590612791575061278e6020836147c4565b81105b156128c8576000856127a4600484614326565b815181106127b4576127b4614368565b016020908101518784019091015160f89190911c91507fffffffff00000000000000000000000000000000000000000000000000000000808916908216036128be5760006128036020866147c4565b61280e600986614326565b10158061285b575087612822600986614326565b8151811061283257612832614368565b01602001517fff0000000000000000000000000000000000000000000000000000000000000016155b6128945760208861286d600987614326565b8151811061287d5761287d614368565b016020015161288f919060f81c6147c4565b612897565b87515b905060016128b0896128aa6020876147c4565b8461304e565b965096505050505050610f38565b5050600501612735565b50509250929050565b3073ffffffffffffffffffffffffffffffffffffffff85160361295b577fffffffffffffffffffffffffffffffffffffffffffffffffffffffffffff111273ffffffffffffffffffffffffffffffffffffffff83160161293a576129358382613094565b611e86565b61293573ffffffffffffffffffffffffffffffffffffffff8316848361264f565b6040517fdd62ed3e00000000000000000000000000000000000000000000000000000000815273ffffffffffffffffffffffffffffffffffffffff858116600483015230602483015282919084169063dd62ed3e90604401602060405180830381865afa1580156129d0573d6000803e3d6000fd5b505050506040513d601f19601f820116820180604052508101906129f491906144ed565b10612a1b5761293573ffffffffffffffffffffffffffffffffffffffff831685858461316a565b6040517f36c7851600000000000000000000000000000000000000000000000000000000815273ffffffffffffffffffffffffffffffffffffffff85811660048301528481166024830152828116604483015283811660648301527f000000000000000000000000000000000000000000000000000000000000000016906336c7851690608401600060405180830381600087803b158015612abc57600080fd5b505af1158015612ad0573d6000803e3d6000fd5b5050505050505050565b600080600080612b5d612b216040518060400160405280600c81526020017f71756f7465466f725377617000000000000000000000000000000000000000008152506126d0565b8b8b8080601f0160208091040260200160405190810160405280939291908181526020018383808284376000920191909152506126e492505050565b915091508115612b855780806020019051810190612b7b91906147db565b9094509250612cc8565b600088815260026020908152604080832073ffffffffffffffffffffffffffffffffffffffff808c16855292529091205416925082612c5d5773ffffffffffffffffffffffffffffffffffffffff80881660009081527fac33ff75c19e70fe83507db0d683fd3465c996598dc972688b7ace676c89077b602052604090205416925082612c5d576040517f891773860000000000000000000000000000000000000000000000000000000081526004810189905273ffffffffffffffffffffffffffffffffffffffff8816602482015260440161020c565b600080612c6a8a86610eaf565b915091506000612c7a86846131b0565b509050612c89818a8c8b613474565b9650612710612cae73ffffffffffffffffffffffffffffffffffffffff8416896147c4565b612cb8919061482f565b612cc29088614843565b96505050505b5050965096945050505050565b60008060008373ffffffffffffffffffffffffffffffffffffffff1663128acb0830888b8a612d2257612d1d600173fffd8963efd1fc6a506488495d951d5263988d26614856565b612d32565b612d326401000276a3600161488a565b8a8f604051602001612d6492919091825273ffffffffffffffffffffffffffffffffffffffff16602082015260400190565b6040516020818303038152906040526040518663ffffffff1660e01b8152600401612d939594939291906148b7565b60408051808303816000875af1158015612db1573d6000803e3d6000fd5b505050506040513d601f19601f82011682018060405250810190612dd59190614909565b9150915085612de45781612de6565b805b612def9061492d565b925086831015612e35576040517f371d1b7a000000000000000000000000000000000000000000000000000000008152600481018490526024810188905260440161020c565b7f000000000000000000000000000000000000000000000000000000000000000015612efc576040517f2e1a7d4d000000000000000000000000000000000000000000000000000000008152600481018490527f000000000000000000000000000000000000000000000000000000000000000073ffffffffffffffffffffffffffffffffffffffff1690632e1a7d4d90602401600060405180830381600087803b158015612ee357600080fd5b505af1158015612ef7573d6000803e3d6000fd5b505050505b50509695505050505050565b6040517fdd62ed3e00000000000000000000000000000000000000000000000000000000815230600482015273ffffffffffffffffffffffffffffffffffffffff83811660248301526000919085169063dd62ed3e90604401602060405180830381865afa158015612f7e573d6000803e3d6000fd5b505050506040513d601f19601f82011682018060405250810190612fa291906144ed565b9050611e868484612fb38585614326565b61364a565b6000612fda73ffffffffffffffffffffffffffffffffffffffff841683613722565b90508051600014158015612fff575080806020019051810190612ffd9190614506565b155b156102e5576040517f5274afe700000000000000000000000000000000000000000000000000000000815273ffffffffffffffffffffffffffffffffffffffff8416600482015260240161020c565b60608282036040519150602081830101604052808252508260208501016020820160005b8481101561308a578281015182820152602001613072565b5050509392505050565b804710156130d0576040517fcd78605900000000000000000000000000000000000000000000000000000000815230600482015260240161020c565b60008273ffffffffffffffffffffffffffffffffffffffff168260405160006040518083038185875af1925050503d806000811461312a576040519150601f19603f3d011682016040523d82523d6000602084013e61312f565b606091505b50509050806102e5576040517f1425ea4200000000000000000000000000000000000000000000000000000000815260040160405180910390fd5b60405173ffffffffffffffffffffffffffffffffffffffff8481166024830152838116604483015260648201839052611e869186918216906323b872dd90608401612689565b6000808263ffffffff16600003613223576040517f08c379a000000000000000000000000000000000000000000000000000000000815260206004820152600260248201527f4250000000000000000000000000000000000000000000000000000000000000604482015260640161020c565b604080516002808252606082018352600092602083019080368337019050509050838160008151811061325857613258614368565b602002602001019063ffffffff16908163ffffffff168152505060008160018151811061328757613287614368565b602002602001019063ffffffff16908163ffffffff16815250506000808673ffffffffffffffffffffffffffffffffffffffff1663883bdbfd846040518263ffffffff1660e01b81526004016132dd9190614965565b600060405180830381865afa1580156132fa573d6000803e3d6000fd5b505050506040513d6000823e601f3d9081017fffffffffffffffffffffffffffffffffffffffffffffffffffffffffffffffe01682016040526133409190810190614a3f565b9150915060008260008151811061335957613359614368565b60200260200101518360018151811061337457613374614368565b60200260200101516133869190614b0b565b905060008260008151811061339d5761339d614368565b6020026020010151836001815181106133b8576133b8614368565b60200260200101516133ca9190614856565b90506133dc63ffffffff891683614b50565b965060008260060b12801561340257506133fc63ffffffff891683614bc4565b60060b15155b15613415578661341181614be6565b9750505b600061343b73ffffffffffffffffffffffffffffffffffffffff63ffffffff8b16614c43565b905061346577ffffffffffffffffffffffffffffffffffffffff00000000602084901b1682614c86565b96505050505050509250929050565b60008061348086613737565b90506fffffffffffffffffffffffffffffffff73ffffffffffffffffffffffffffffffffffffffff82161161357f5760006134d173ffffffffffffffffffffffffffffffffffffffff8316806147c4565b90508373ffffffffffffffffffffffffffffffffffffffff168573ffffffffffffffffffffffffffffffffffffffff16106135415761353c7801000000000000000000000000000000000000000000000000876fffffffffffffffffffffffffffffffff1683613a9e565b613577565b61357781876fffffffffffffffffffffffffffffffff167801000000000000000000000000000000000000000000000000613a9e565b925050613641565b60006135ab73ffffffffffffffffffffffffffffffffffffffff83168068010000000000000000613a9e565b90508373ffffffffffffffffffffffffffffffffffffffff168573ffffffffffffffffffffffffffffffffffffffff16106136135761360e700100000000000000000000000000000000876fffffffffffffffffffffffffffffffff1683613a9e565b61232b565b61232b81876fffffffffffffffffffffffffffffffff16700100000000000000000000000000000000613a9e565b50949350505050565b6040805173ffffffffffffffffffffffffffffffffffffffff8416602482015260448082018490528251808303909101815260649091019091526020810180517bffffffffffffffffffffffffffffffffffffffffffffffffffffffff167f095ea7b3000000000000000000000000000000000000000000000000000000001790526136d68482613b6e565b611e865760405173ffffffffffffffffffffffffffffffffffffffff84811660248301526000604483015261371891869182169063095ea7b390606401612689565b611e868482612fb8565b606061373083836000613c2b565b9392505050565b60008060008360020b1261374e578260020b613756565b8260020b6000035b9050620d89e8811115613795576040517f2bc80f3a00000000000000000000000000000000000000000000000000000000815260040160405180910390fd5b6000816001166000036137b9577001000000000000000000000000000000006137cb565b6ffffcb933bd6fad37aa2d162d1a5940015b70ffffffffffffffffffffffffffffffffff16905060028216156137ff576ffff97272373d413259a46990580e213a0260801c5b600482161561381e576ffff2e50f5f656932ef12357cf3c7fdcc0260801c5b600882161561383d576fffe5caca7e10e4e61c3624eaa0941cd00260801c5b601082161561385c576fffcb9843d60f6159c9db58835c9266440260801c5b602082161561387b576fff973b41fa98c081472e6896dfb254c00260801c5b604082161561389a576fff2ea16466c96a3843ec78b326b528610260801c5b60808216156138b9576ffe5dee046a99a2a811c461f1969c30530260801c5b6101008216156138d9576ffcbe86c7900a88aedcffc83b479aa3a40260801c5b6102008216156138f9576ff987a7253ac413176f2b074cf7815e540260801c5b610400821615613919576ff3392b0822b70005940c7a398e4b70f30260801c5b610800821615613939576fe7159475a2c29b7443b29c7fa6e889d90260801c5b611000821615613959576fd097f3bdfd2022b8845ad8f792aa58250260801c5b612000821615613979576fa9f746462d870fdf8a65dc1f90e061e50260801c5b614000821615613999576f70d869a156d2a1b890bb3df62baf32f70260801c5b6180008216156139b9576f31be135f97d08fd981231505542fcfa60260801c5b620100008216156139da576f09aa508b5b7a84e1c677de54f3e99bc90260801c5b620200008216156139fa576e5d6af8dedb81196699c329225ee6040260801c5b62040000821615613a19576d2216e584f5fa1ea926041bedfe980260801c5b62080000821615613a36576b048a170391f7dc42444e8fa20260801c5b60008460020b1315613a7557807fffffffffffffffffffffffffffffffffffffffffffffffffffffffffffffffff81613a7157613a71614800565b0490505b640100000000810615613a89576001613a8c565b60005b60ff16602082901c0192505050919050565b600080807fffffffffffffffffffffffffffffffffffffffffffffffffffffffffffffffff85870985870292508281108382030391505080600003613af55760008411613aea57600080fd5b508290049050613730565b808411613b0157600080fd5b6000848688096000868103871696879004966002600389028118808a02820302808a02820302808a02820302808a02820302808a02820302808a02909103029181900381900460010186841190950394909402919094039290920491909117919091029150509392505050565b60008060008473ffffffffffffffffffffffffffffffffffffffff1684604051613b989190614cbd565b6000604051808303816000865af19150503d8060008114613bd5576040519150601f19603f3d011682016040523d82523d6000602084013e613bda565b606091505b5091509150818015613c04575080511580613c04575080806020019051810190613c049190614506565b80156125fa57505050505073ffffffffffffffffffffffffffffffffffffffff163b151590565b606081471015613c69576040517fcd78605900000000000000000000000000000000000000000000000000000000815230600482015260240161020c565b6000808573ffffffffffffffffffffffffffffffffffffffff168486604051613c929190614cbd565b60006040518083038185875af1925050503d8060008114613ccf576040519150601f19603f3d011682016040523d82523d6000602084013e613cd4565b606091505b5091509150613ce4868383613cee565b9695505050505050565b606082613d0357613cfe82613d7d565b613730565b8151158015613d27575073ffffffffffffffffffffffffffffffffffffffff84163b155b15613d76576040517f9996b31500000000000000000000000000000000000000000000000000000000815273ffffffffffffffffffffffffffffffffffffffff8516600482015260240161020c565b5080613730565b805115613d8d5780518082602001fd5b6040517f1425ea4200000000000000000000000000000000000000000000000000000000815260040160405180910390fd5b600060208284031215613dd157600080fd5b81357fffffffff000000000000000000000000000000000000000000000000000000008116811461373057600080fd5b73ffffffffffffffffffffffffffffffffffffffff8116811461185657600080fd5b600080600060608486031215613e3857600080fd5b833592506020840135613e4a81613e01565b91506040840135613e5a81613e01565b809150509250925092565b600080600060408486031215613e7a57600080fd5b83359250602084013567ffffffffffffffff80821115613e9957600080fd5b818601915086601f830112613ead57600080fd5b813581811115613ebc57600080fd5b876020606083028501011115613ed157600080fd5b6020830194508093505050509250925092565b60008060408385031215613ef757600080fd5b823591506020830135613f0981613e01565b809150509250929050565b815173ffffffffffffffffffffffffffffffffffffffff16815260208083015160ff169082015260408083015163ffffffff169082015260608101610735565b600060208284031215613f6657600080fd5b5035919050565b6020808252825182820181905260009190848201906040850190845b81811015613fe257613fcf838551805173ffffffffffffffffffffffffffffffffffffffff16825260208082015160ff169083015260409081015163ffffffff16910152565b9284019260609290920191600101613f89565b50909695505050505050565b801515811461185657600080fd5b60008083601f84011261400e57600080fd5b50813567ffffffffffffffff81111561402657600080fd5b602083019150836020828501011115610f3857600080fd5b60008060008060008060008060c0898b03121561405a57600080fd5b88359750602089013561406c81613e01565b965060408901359550606089013561408381613fee565b9450608089013567ffffffffffffffff808211156140a057600080fd5b6140ac8c838d01613ffc565b909650945060a08b01359150808211156140c557600080fd5b506140d28b828c01613ffc565b999c989b5096995094979396929594505050565b600080600080608085870312156140fc57600080fd5b84359350602085013561410e81613e01565b9250604085013563ffffffff8116811461412757600080fd5b9150606085013561413781613e01565b939692955090935050565b60008060006060848603121561415757600080fd5b505081359360208301359350604090920135919050565b60006020828403121561418057600080fd5b813561373081613e01565b600080600080606085870312156141a157600080fd5b8435935060208501359250604085013567ffffffffffffffff8111156141c657600080fd5b6141d287828801613ffc565b95989497509550505050565b600080600080600080600080600060e08a8c0312156141fc57600080fd5b8935985060208a013561420e81613e01565b975060408a0135965060608a013561422581613e01565b955060808a0135945060a08a013567ffffffffffffffff8082111561424957600080fd5b6142558d838e01613ffc565b909650945060c08c013591508082111561426e57600080fd5b5061427b8c828d01613ffc565b915080935050809150509295985092959850929598565b6000602082840312156142a457600080fd5b815161373081613e01565b6000602082840312156142c157600080fd5b815162ffffff8116811461373057600080fd5b6000602082840312156142e657600080fd5b815160ff8116811461373057600080fd5b7f4e487b7100000000000000000000000000000000000000000000000000000000600052601160045260246000fd5b80820180821115610735576107356142f7565b7f4e487b7100000000000000000000000000000000000000000000000000000000600052604160045260246000fd5b7f4e487b7100000000000000000000000000000000000000000000000000000000600052603260045260246000fd5b60007fffffffffffffffffffffffffffffffffffffffffffffffffffffffffffffffff82036143c8576143c86142f7565b5060010190565b8183528181602085013750600060208284010152600060207fffffffffffffffffffffffffffffffffffffffffffffffffffffffffffffffe0601f840116840101905092915050565b88815273ffffffffffffffffffffffffffffffffffffffff88166020820152866040820152851515606082015260c06080820152600061445c60c0830186886143cf565b82810360a084015261446f8185876143cf565b9b9a5050505050505050505050565b898152600073ffffffffffffffffffffffffffffffffffffffff808b16602084015289604084015280891660608401525086608083015260e060a08301526144ca60e0830186886143cf565b82810360c08401526144dd8185876143cf565b9c9b505050505050505050505050565b6000602082840312156144ff57600080fd5b5051919050565b60006020828403121561451857600080fd5b815161373081613fee565b60405160a0810167ffffffffffffffff8111828210171561454657614546614339565b60405290565b604051601f82017fffffffffffffffffffffffffffffffffffffffffffffffffffffffffffffffe016810167ffffffffffffffff8111828210171561459357614593614339565b604052919050565b805165ffffffffffff811681146145b157600080fd5b919050565b60005b838110156145d15781810151838201526020016145b9565b50506000910152565b600060208083850312156145ed57600080fd5b825167ffffffffffffffff8082111561460557600080fd5b9084019060a0828703121561461957600080fd5b614621614523565b825181528383015161463281613e01565b818501526146426040840161459b565b60408201526146536060840161459b565b606082015260808301518281111561466a57600080fd5b80840193505086601f84011261467f57600080fd5b82518281111561469157614691614339565b6146c1857fffffffffffffffffffffffffffffffffffffffffffffffffffffffffffffffe0601f8401160161454c565b925080835287858286010111156146d757600080fd5b6146e6818685018787016145b6565b50608081019190915295945050505050565b600081518084526147108160208601602086016145b6565b601f017fffffffffffffffffffffffffffffffffffffffffffffffffffffffffffffffe0169290920160200192915050565b600061010073ffffffffffffffffffffffffffffffffffffffff80871684528551818151166020860152816020820151166040860152604081015165ffffffffffff80821660608801528060608401511660808801525050508060208701511660a085015250604085015160c08401528060e0840152613ce4818401856146f8565b8082028115828204841417610735576107356142f7565b600080604083850312156147ee57600080fd5b825191506020830151613f0981613e01565b7f4e487b7100000000000000000000000000000000000000000000000000000000600052601260045260246000fd5b60008261483e5761483e614800565b500490565b81810381811115610735576107356142f7565b73ffffffffffffffffffffffffffffffffffffffff828116828216039080821115614883576148836142f7565b5092915050565b73ffffffffffffffffffffffffffffffffffffffff818116838216019080821115614883576148836142f7565b600073ffffffffffffffffffffffffffffffffffffffff8088168352861515602084015285604084015280851660608401525060a060808301526148fe60a08301846146f8565b979650505050505050565b6000806040838503121561491c57600080fd5b505080516020909101519092909150565b60007f8000000000000000000000000000000000000000000000000000000000000000820361495e5761495e6142f7565b5060000390565b6020808252825182820181905260009190848201906040850190845b81811015613fe257835163ffffffff1683529284019291840191600101614981565b600067ffffffffffffffff8211156149bd576149bd614339565b5060051b60200190565b600082601f8301126149d857600080fd5b815160206149ed6149e8836149a3565b61454c565b8083825260208201915060208460051b870101935086841115614a0f57600080fd5b602086015b84811015614a34578051614a2781613e01565b8352918301918301614a14565b509695505050505050565b60008060408385031215614a5257600080fd5b825167ffffffffffffffff80821115614a6a57600080fd5b818501915085601f830112614a7e57600080fd5b81516020614a8e6149e8836149a3565b82815260059290921b84018101918181019089841115614aad57600080fd5b948201945b83861015614adb5785518060060b8114614acc5760008081fd5b82529482019490820190614ab2565b91880151919650909350505080821115614af457600080fd5b50614b01858286016149c7565b9150509250929050565b600682810b9082900b037fffffffffffffffffffffffffffffffffffffffffffffffffff800000000000008112667fffffffffffff82131715610735576107356142f7565b60008160060b8360060b80614b6757614b67614800565b7fffffffffffffffffffffffffffffffffffffffffffffffffffffffffffffffff81147fffffffffffffffffffffffffffffffffffffffffffffffffff8000000000000083141615614bbb57614bbb6142f7565b90059392505050565b60008260060b80614bd757614bd7614800565b808360060b0791505092915050565b60008160020b7fffffffffffffffffffffffffffffffffffffffffffffffffffffffffff8000008103614c1b57614c1b6142f7565b7fffffffffffffffffffffffffffffffffffffffffffffffffffffffffffffffff0192915050565b77ffffffffffffffffffffffffffffffffffffffffffffffff828116828216818102831692918115828504821417614c7d57614c7d6142f7565b50505092915050565b600077ffffffffffffffffffffffffffffffffffffffffffffffff80841680614cb157614cb1614800565b92169190910492915050565b60008251614ccf8184602087016145b6565b919091019291505056fea2646970667358221220048de60ddf6ee9f2d7f60066cf6f8e96993d799a0434ade2937e3de6de90196a64736f6c63430008170033",
	"deployedBytecode": "0x60806040526004361061019a5760003560e01c80637c5e9c24116100e1578063c361534c1161008a578063f2fde38b11610064578063f2fde38b146105d0578063f434c914146105f0578063fa461e3314610624578063fef432571461064457600080fd5b8063c361534c14610571578063cc68012714610591578063e28b5411146105b557600080fd5b80639e6eec05116100bb5780639e6eec0514610514578063ac90511414610527578063ad5c46481461053d57600080fd5b80637c5e9c241461046957806388bc2ef3146104b55780638da5cb5b146104e957600080fd5b80632dd3100011610143578063515a92931161011d578063515a9293146103f35780636afdd85014610420578063715018a61461045457600080fd5b80632dd31000146103415780633a01714f1461037557806340873cb5146103a257600080fd5b8063253721c811610174578063253721c8146102ca578063293c4999146102ea5780632c1ae8821461031e57600080fd5b806301ffc9a71461021c5780630392ef941461025157806324e26dc5146102aa57600080fd5b36610217573373ffffffffffffffffffffffffffffffffffffffff7f000000000000000000000000980b62da83eff3d4576c647993b0c1d7faf17c731614610215576040517fb320fe970000000000000000000000000000000000000000000000000000000081523360048201526024015b60405180910390fd5b005b600080fd5b34801561022857600080fd5b5061023c610237366004613dbf565b610657565b60405190151581526020015b60405180910390f35b34801561025d57600080fd5b506102857f000000000000000000000000000000000000000000000000000000000000eeee81565b60405173ffffffffffffffffffffffffffffffffffffffff9091168152602001610248565b3480156102b657600080fd5b506102156102c5366004613e23565b61073b565b3480156102d657600080fd5b506102156102e5366004613e65565b505050565b3480156102f657600080fd5b506102857f000000000000000000000000ecb62030e30bb027f672f24692111492ba2bbc8481565b34801561032a57600080fd5b50610333600081565b604051908152602001610248565b34801561034d57600080fd5b506102857f000000000000000000000000248ab79bbb9bc29bb72f7cd42f17e054fc40188e81565b34801561038157600080fd5b50610395610390366004613ee4565b610d67565b6040516102489190613f14565b3480156103ae57600080fd5b506103c26103bd366004613ee4565b610eaf565b6040805163ffffffff909316835273ffffffffffffffffffffffffffffffffffffffff909116602083015201610248565b3480156103ff57600080fd5b5061041361040e366004613f54565b610f3f565b6040516102489190613f6d565b34801561042c57600080fd5b506102857f000000000000000000000000000000000022d473030f116ddee9f6b43ac78ba381565b34801561046057600080fd5b5061021561136a565b34801561047557600080fd5b50610489610484366004613ee4565b61137e565b6040805173ffffffffffffffffffffffffffffffffffffffff9093168352901515602083015201610248565b3480156104c157600080fd5b506102857f000000000000000000000000e0b2860344ba476e12ed1d559656da9d04f1ad2281565b3480156104f557600080fd5b5060005473ffffffffffffffffffffffffffffffffffffffff16610285565b61021561052236600461403e565b61143e565b34801561053357600080fd5b5061028561271081565b34801561054957600080fd5b506102857f000000000000000000000000980b62da83eff3d4576c647993b0c1d7faf17c7381565b34801561057d57600080fd5b5061021561058c3660046140e6565b6116c8565b34801561059d57600080fd5b506103336105ac366004614142565b60009392505050565b3480156105c157600080fd5b506103336105ac366004613e23565b3480156105dc57600080fd5b506102156105eb36600461416e565b6117f5565b3480156105fc57600080fd5b506102857f0000000000000000000000004cdb4200e4e65a277676cd5e8d3c7c7c4da7fbe581565b34801561063057600080fd5b5061021561063f36600461418b565b611859565b6103336106523660046141de565b611a88565b60007fffffffff0000000000000000000000000000000000000000000000000000000082167e1549700000000000000000000000000000000000000000000000000000000014806106e957507fffffffff0000000000000000000000000000000000000000000000000000000082167f6afdd85000000000000000000000000000000000000000000000000000000000145b8061073557507fffffffff0000000000000000000000000000000000000000000000000000000082167f01ffc9a700000000000000000000000000000000000000000000000000000000145b92915050565b8215610801576040517f6352211e000000000000000000000000000000000000000000000000000000008152600481018490526107fc907f000000000000000000000000ecb62030e30bb027f672f24692111492ba2bbc8473ffffffffffffffffffffffffffffffffffffffff1690636352211e90602401602060405180830381865afa1580156107d0573d6000803e3d6000fd5b505050506040513d601f19601f820116820180604052508101906107f49190614292565b84601a611d29565b610809565b610809611e8c565b6000610813611edf565b905073ffffffffffffffffffffffffffffffffffffffff8082168482161090838116907f000000000000000000000000248ab79bbb9bc29bb72f7cd42f17e054fc40188e16631698ee8283610868578461086a565b865b846108755787610877565b855b8773ffffffffffffffffffffffffffffffffffffffff1663ddca3f436040518163ffffffff1660e01b8152600401602060405180830381865afa1580156108c2573d6000803e3d6000fd5b505050506040513d601f19601f820116820180604052508101906108e691906142af565b6040517fffffffff0000000000000000000000000000000000000000000000000000000060e086901b16815273ffffffffffffffffffffffffffffffffffffffff938416600482015292909116602483015262ffffff166044820152606401602060405180830381865afa158015610962573d6000803e3d6000fd5b505050506040513d601f19601f820116820180604052508101906109869190614292565b73ffffffffffffffffffffffffffffffffffffffff1614610b5957827f000000000000000000000000248ab79bbb9bc29bb72f7cd42f17e054fc40188e73ffffffffffffffffffffffffffffffffffffffff16631698ee82836109e957846109eb565b865b846109f657876109f8565b855b8773ffffffffffffffffffffffffffffffffffffffff1663ddca3f436040518163ffffffff1660e01b8152600401602060405180830381865afa158015610a43573d6000803e3d6000fd5b505050506040513d601f19601f82011682018060405250810190610a6791906142af565b6040517fffffffff0000000000000000000000000000000000000000000000000000000060e086901b16815273ffffffffffffffffffffffffffffffffffffffff938416600482015292909116602483015262ffffff166044820152606401602060405180830381865afa158015610ae3573d6000803e3d6000fd5b505050506040513d601f19601f82011682018060405250810190610b079190614292565b6040517fe2bbe4ec00000000000000000000000000000000000000000000000000000000815273ffffffffffffffffffffffffffffffffffffffff92831660048201529116602482015260440161020c565b600085815260026020908152604080832073ffffffffffffffffffffffffffffffffffffffff8881168086529184529382902080547fffffffffffffffffffffffff00000000000000000000000000000000000000001694881694909417909355805160608101825283815281517f313ce5670000000000000000000000000000000000000000000000000000000081529151909384840193909263313ce56792600480830193928290030181865afa158015610c1a573d6000803e3d6000fd5b505050506040513d601f19601f82011682018060405250810190610c3e91906142d4565b60ff908116825263ffffffff80881660209384015260008981526001808552604080832073ffffffffffffffffffffffffffffffffffffffff9b8c16808552908752818420885181548a8a01519a8501519097167501000000000000000000000000000000000000000000027fffffffffffffff00000000ffffffffffffffffffffffffffffffffffffffffff9a90981674010000000000000000000000000000000000000000027fffffffffffffffffffffff0000000000000000000000000000000000000000009097169d169c909c179490941796909616939093179098559787526003825291862080549283018155865290942090930180547fffffffffffffffffffffffff000000000000000000000000000000000000000016909417909355505050565b6040805160608082018352600080835260208084018290529284018190528581526001835283812073ffffffffffffffffffffffffffffffffffffffff868116835290845290849020845192830185525490811680835274010000000000000000000000000000000000000000820460ff16938301939093527501000000000000000000000000000000000000000000900463ffffffff1692810192909252610735575073ffffffffffffffffffffffffffffffffffffffff81811660009081527fa6eef7e35abe7026729641147f7915573c7e97b47efa546f5f6e3230263bcb49602090815260409182902082516060810184529054938416815274010000000000000000000000000000000000000000840460ff1691810191909152750100000000000000000000000000000000000000000090920463ffffffff169082015292915050565b600082815260046020908152604080832073ffffffffffffffffffffffffffffffffffffffff851684529091528120548190808203610f2f575073ffffffffffffffffffffffffffffffffffffffff831660009081527f17ef568e3e12ab5b9c7254a8d58478811de00f9e6eb34345acd53bf8fd09d3ec60205260409020545b915050602081901c5b9250929050565b6000818152600360209081526040808320805482518185028101850190935280835260609493830182828015610fab57602002820191906000526020600020905b815473ffffffffffffffffffffffffffffffffffffffff168152600190910190602001808311610f80575b50506000808052600360209081527f3617319a054d772f909f7c479a2cebe5066e836a939412e32403c99029b92eff8054604080518285028101850190915281815297985092969550935090915083018282801561103f57602002820191906000526020600020905b815473ffffffffffffffffffffffffffffffffffffffff168152600190910190602001808311611014575b50505050509050805182516110549190614326565b67ffffffffffffffff81111561106c5761106c614339565b6040519080825280602002602001820160405280156110d557816020015b60408051606081018252600080825260208083018290529282015282527fffffffffffffffffffffffffffffffffffffffffffffffffffffffffffffffff90920191018161108a5790505b50825190935060005b818110156111be5760016000878152602001908152602001600020600085838151811061110d5761110d614368565b60209081029190910181015173ffffffffffffffffffffffffffffffffffffffff908116835282820193909352604091820160002082516060810184529054938416815274010000000000000000000000000000000000000000840460ff1691810191909152750100000000000000000000000000000000000000000090920463ffffffff169082015285518690839081106111ab576111ab614368565b60209081029190910101526001016110de565b5081518160005b82811015611352576000805b8581101561124f578683815181106111eb576111eb614368565b602002602001015173ffffffffffffffffffffffffffffffffffffffff1688828151811061121b5761121b614368565b602002602001015173ffffffffffffffffffffffffffffffffffffffff1603611247576001915061124f565b6001016111d1565b5080611349576000808052600160205286517fa6eef7e35abe7026729641147f7915573c7e97b47efa546f5f6e3230263bcb49919088908590811061129657611296614368565b60209081029190910181015173ffffffffffffffffffffffffffffffffffffffff908116835282820193909352604091820160002082516060810184529054938416815274010000000000000000000000000000000000000000840460ff1691810191909152750100000000000000000000000000000000000000000090920463ffffffff1690820152888461132b81614397565b95508151811061133d5761133d614368565b60200260200101819052505b506001016111c5565b508551811015611360578086525b5050505050919050565b611372611e8c565b61137c6000611f50565b565b600082815260026020908152604080832073ffffffffffffffffffffffffffffffffffffffff808616855292528220541690816113ff5773ffffffffffffffffffffffffffffffffffffffff80841660009081527fac33ff75c19e70fe83507db0d683fd3465c996598dc972688b7ace676c89077b60205260409020541691505b611407611edf565b73ffffffffffffffffffffffffffffffffffffffff168373ffffffffffffffffffffffffffffffffffffffff161090509250929050565b6040517f862026500000000000000000000000000000000000000000000000000000000081526004810189905273ffffffffffffffffffffffffffffffffffffffff7f000000000000000000000000000000000000000000000000000000000000eeee811660248301526000917f000000000000000000000000e0b2860344ba476e12ed1d559656da9d04f1ad2290911690638620265090604401602060405180830381865afa1580156114f6573d6000803e3d6000fd5b505050506040513d601f19601f8201168201806040525081019061151a9190614292565b905073ffffffffffffffffffffffffffffffffffffffff81166115a8576040517fcf78a6fc000000000000000000000000000000000000000000000000000000008152600481018a905273ffffffffffffffffffffffffffffffffffffffff7f000000000000000000000000000000000000000000000000000000000000eeee16602482015260440161020c565b60006115c28a8a6115bb8c8c8989611fc5565b8787612338565b90506115ef827f000000000000000000000000000000000000000000000000000000000000eeee83612603565b60007f000000000000000000000000000000000000000000000000000000000000000161161d57600061161f565b815b90508273ffffffffffffffffffffffffffffffffffffffff16639e6eec05828d7f000000000000000000000000000000000000000000000000000000000000eeee868d8d8d8d8d6040518a63ffffffff1660e01b8152600401611689989796959493929190614418565b6000604051808303818588803b1580156116a257600080fd5b505af11580156116b6573d6000803e3d6000fd5b50505050505050505050505050505050565b831561178e576040517f6352211e00000000000000000000000000000000000000000000000000000000815260048101859052611789907f000000000000000000000000ecb62030e30bb027f672f24692111492ba2bbc8473ffffffffffffffffffffffffffffffffffffffff1690636352211e90602401602060405180830381865afa15801561175d573d6000803e3d6000fd5b505050506040513d601f19601f820116820180604052508101906117819190614292565b85601b611d29565b611796565b611796611e8c565b600093845260046020908152604080862073ffffffffffffffffffffffffffffffffffffffff959095168652938152929093209290911b77ffffffffffffffffffffffffffffffffffffffff000000001663ffffffff91909116179055565b6117fd611e8c565b73ffffffffffffffffffffffffffffffffffffffff811661184d576040517f1e4fbdf70000000000000000000000000000000000000000000000000000000081526000600482015260240161020c565b61185681611f50565b50565b60008061186883850185613ee4565b9092509050600073ffffffffffffffffffffffffffffffffffffffff821661eeee1461189457816118b6565b7f000000000000000000000000980b62da83eff3d4576c647993b0c1d7faf17c735b600084815260026020908152604080832073ffffffffffffffffffffffffffffffffffffffff80861685529252909120549192501680611939575073ffffffffffffffffffffffffffffffffffffffff80821660009081527fac33ff75c19e70fe83507db0d683fd3465c996598dc972688b7ace676c89077b6020526040902054165b3373ffffffffffffffffffffffffffffffffffffffff82161461198a576040517fbca42a5400000000000000000000000000000000000000000000000000000000815233600482015260240161020c565b6000808912611999578861199b565b875b90507fffffffffffffffffffffffffffffffffffffffffffffffffffffffffffff111273ffffffffffffffffffffffffffffffffffffffff851601611a5c577f000000000000000000000000980b62da83eff3d4576c647993b0c1d7faf17c7373ffffffffffffffffffffffffffffffffffffffff1663d0e30db0826040518263ffffffff1660e01b81526004016000604051808303818588803b158015611a4257600080fd5b505af1158015611a56573d6000803e3d6000fd5b50505050505b611a7d73ffffffffffffffffffffffffffffffffffffffff8416338361264f565b505050505050505050565b6040517f86202650000000000000000000000000000000000000000000000000000000008152600481018a905273ffffffffffffffffffffffffffffffffffffffff7f000000000000000000000000000000000000000000000000000000000000eeee8116602483015260009182917f000000000000000000000000e0b2860344ba476e12ed1d559656da9d04f1ad221690638620265090604401602060405180830381865afa158015611b40573d6000803e3d6000fd5b505050506040513d601f19601f82011682018060405250810190611b649190614292565b905073ffffffffffffffffffffffffffffffffffffffff8116611bf2576040517fcf78a6fc000000000000000000000000000000000000000000000000000000008152600481018c905273ffffffffffffffffffffffffffffffffffffffff7f000000000000000000000000000000000000000000000000000000000000eeee16602482015260440161020c565b6000611c0c8c8c611c058e8e8a8a611fc5565b8888612338565b9050611c39827f000000000000000000000000000000000000000000000000000000000000eeee83612603565b60007f0000000000000000000000000000000000000000000000000000000000000001611c67576000611c69565b815b90508273ffffffffffffffffffffffffffffffffffffffff1663fef43257828f7f000000000000000000000000000000000000000000000000000000000000eeee868f8f8f8f8f8f6040518b63ffffffff1660e01b8152600401611cd59998979695949392919061447e565b60206040518083038185885af1158015611cf3573d6000803e3d6000fd5b50505050506040513d601f19601f82011682018060405250810190611d1891906144ed565b9d9c50505050505050505050505050565b3373ffffffffffffffffffffffffffffffffffffffff84168114801590611e2157506040517f348b684e00000000000000000000000000000000000000000000000000000000815273ffffffffffffffffffffffffffffffffffffffff82811660048301528581166024830152604482018590526064820184905260016084830181905260a48301527f0000000000000000000000004cdb4200e4e65a277676cd5e8d3c7c7c4da7fbe5169063348b684e9060c401602060405180830381865afa158015611dfb573d6000803e3d6000fd5b505050506040513d601f19601f82011682018060405250810190611e1f9190614506565b155b15611e86576040517f264deeaa00000000000000000000000000000000000000000000000000000000815273ffffffffffffffffffffffffffffffffffffffff808616600483015282166024820152604481018490526064810183905260840161020c565b50505050565b60005473ffffffffffffffffffffffffffffffffffffffff16331461137c576040517f118cdaa700000000000000000000000000000000000000000000000000000000815233600482015260240161020c565b60007f0000000000000000000000000000000000000000000000000000000000000001611f2b57507f000000000000000000000000000000000000000000000000000000000000eeee90565b507f000000000000000000000000980b62da83eff3d4576c647993b0c1d7faf17c7390565b6000805473ffffffffffffffffffffffffffffffffffffffff8381167fffffffffffffffffffffffff0000000000000000000000000000000000000000831681178455604051919092169283917f8be0079c531659141344cd1fd0a4f28419497f9722a3daafe3b4186f6b6457e09190a35050565b60007fffffffffffffffffffffffffffffffffffffffffffffffffffffffffffff111273ffffffffffffffffffffffffffffffffffffffff86160161200b575034612330565b3415612045576040517f15f828f800000000000000000000000000000000000000000000000000000000815234600482015260240161020c565b6000806120c56120896040518060400160405280600781526020017f7065726d697432000000000000000000000000000000000000000000000000008152506126d0565b86868080601f0160208091040260200160405190810160405280939291908181526020018383808284376000920191909152506126e492505050565b915091508115612291576000818060200190518101906120e591906145da565b9050806020015173ffffffffffffffffffffffffffffffffffffffff168711156121605760208101516040517f6efd58f80000000000000000000000000000000000000000000000000000000081526004810189905273ffffffffffffffffffffffffffffffffffffffff909116602482015260440161020c565b6000604051806060016040528060405180608001604052808c73ffffffffffffffffffffffffffffffffffffffff168152602001856020015173ffffffffffffffffffffffffffffffffffffffff168152602001856040015165ffffffffffff168152602001856060015165ffffffffffff1681525081526020013073ffffffffffffffffffffffffffffffffffffffff168152602001836000015181525090507f000000000000000000000000000000000022d473030f116ddee9f6b43ac78ba373ffffffffffffffffffffffffffffffffffffffff16632b67b570338385608001516040518463ffffffff1660e01b815260040161226293929190614742565b600060405180830381600087803b15801561227c57600080fd5b505af192505050801561228d575060015b5050505b61229d333089896128d1565b6040517f70a0823100000000000000000000000000000000000000000000000000000000815230600482015273ffffffffffffffffffffffffffffffffffffffff8816906370a0823190602401602060405180830381865afa158015612307573d6000803e3d6000fd5b505050506040513d601f19601f8201168201806040525081019061232b91906144ed565b925050505b949350505050565b60008073ffffffffffffffffffffffffffffffffffffffff861661eeee146123605785612382565b7f000000000000000000000000980b62da83eff3d4576c647993b0c1d7faf17c735b9050600061238e611edf565b905073ffffffffffffffffffffffffffffffffffffffff871661eeee1480156123d457507f00000000000000000000000000000000000000000000000000000000000000015b8061240a57508073ffffffffffffffffffffffffffffffffffffffff168273ffffffffffffffffffffffffffffffffffffffff16145b156124195785925050506125fa565b60008061242a87878c878c88612ada565b91509150600061246c8a8a858773ffffffffffffffffffffffffffffffffffffffff168973ffffffffffffffffffffffffffffffffffffffff16108f87612cd5565b6040517f70a0823100000000000000000000000000000000000000000000000000000000815230600482015290915060009073ffffffffffffffffffffffffffffffffffffffff8716906370a0823190602401602060405180830381865afa1580156124dc573d6000803e3d6000fd5b505050506040513d601f19601f8201168201806040525081019061250091906144ed565b905080156125f2577fffffffffffffffffffffffffffffffffffffffffffffffffffffffffffff111273ffffffffffffffffffffffffffffffffffffffff8c16016125e6576040517f2e1a7d4d000000000000000000000000000000000000000000000000000000008152600481018290527f000000000000000000000000980b62da83eff3d4576c647993b0c1d7faf17c7373ffffffffffffffffffffffffffffffffffffffff1690632e1a7d4d90602401600060405180830381600087803b1580156125cd57600080fd5b505af11580156125e1573d6000803e3d6000fd5b505050505b6125f230338d846128d1565b509450505050505b95945050505050565b7f00000000000000000000000000000000000000000000000000000000000000011561262e57505050565b6102e573ffffffffffffffffffffffffffffffffffffffff83168483612f08565b60405173ffffffffffffffffffffffffffffffffffffffff8381166024830152604482018390526102e591859182169063a9059cbb906064015b604051602081830303815290604052915060e01b6020820180517bffffffffffffffffffffffffffffffffffffffffffffffffffffffff8381831617835250505050612fb8565b805160208201206000903060601b18610735565b6000606060258351116127095750506040805160208101909152600080825290610f38565b60008361271860046020614326565b8151811061272857612728614368565b0160209081015160f81c91505b600085612743600484614326565b8151811061275357612753614368565b01602001517fff000000000000000000000000000000000000000000000000000000000000001614801590612791575061278e6020836147c4565b81105b156128c8576000856127a4600484614326565b815181106127b4576127b4614368565b016020908101518784019091015160f89190911c91507fffffffff00000000000000000000000000000000000000000000000000000000808916908216036128be5760006128036020866147c4565b61280e600986614326565b10158061285b575087612822600986614326565b8151811061283257612832614368565b01602001517fff0000000000000000000000000000000000000000000000000000000000000016155b6128945760208861286d600987614326565b8151811061287d5761287d614368565b016020015161288f919060f81c6147c4565b612897565b87515b905060016128b0896128aa6020876147c4565b8461304e565b965096505050505050610f38565b5050600501612735565b50509250929050565b3073ffffffffffffffffffffffffffffffffffffffff85160361295b577fffffffffffffffffffffffffffffffffffffffffffffffffffffffffffff111273ffffffffffffffffffffffffffffffffffffffff83160161293a576129358382613094565b611e86565b61293573ffffffffffffffffffffffffffffffffffffffff8316848361264f565b6040517fdd62ed3e00000000000000000000000000000000000000000000000000000000815273ffffffffffffffffffffffffffffffffffffffff858116600483015230602483015282919084169063dd62ed3e90604401602060405180830381865afa1580156129d0573d6000803e3d6000fd5b505050506040513d601f19601f820116820180604052508101906129f491906144ed565b10612a1b5761293573ffffffffffffffffffffffffffffffffffffffff831685858461316a565b6040517f36c7851600000000000000000000000000000000000000000000000000000000815273ffffffffffffffffffffffffffffffffffffffff85811660048301528481166024830152828116604483015283811660648301527f000000000000000000000000000000000022d473030f116ddee9f6b43ac78ba316906336c7851690608401600060405180830381600087803b158015612abc57600080fd5b505af1158015612ad0573d6000803e3d6000fd5b5050505050505050565b600080600080612b5d612b216040518060400160405280600c81526020017f71756f7465466f725377617000000000000000000000000000000000000000008152506126d0565b8b8b8080601f0160208091040260200160405190810160405280939291908181526020018383808284376000920191909152506126e492505050565b915091508115612b855780806020019051810190612b7b91906147db565b9094509250612cc8565b600088815260026020908152604080832073ffffffffffffffffffffffffffffffffffffffff808c16855292529091205416925082612c5d5773ffffffffffffffffffffffffffffffffffffffff80881660009081527fac33ff75c19e70fe83507db0d683fd3465c996598dc972688b7ace676c89077b602052604090205416925082612c5d576040517f891773860000000000000000000000000000000000000000000000000000000081526004810189905273ffffffffffffffffffffffffffffffffffffffff8816602482015260440161020c565b600080612c6a8a86610eaf565b915091506000612c7a86846131b0565b509050612c89818a8c8b613474565b9650612710612cae73ffffffffffffffffffffffffffffffffffffffff8416896147c4565b612cb8919061482f565b612cc29088614843565b96505050505b5050965096945050505050565b60008060008373ffffffffffffffffffffffffffffffffffffffff1663128acb0830888b8a612d2257612d1d600173fffd8963efd1fc6a506488495d951d5263988d26614856565b612d32565b612d326401000276a3600161488a565b8a8f604051602001612d6492919091825273ffffffffffffffffffffffffffffffffffffffff16602082015260400190565b6040516020818303038152906040526040518663ffffffff1660e01b8152600401612d939594939291906148b7565b60408051808303816000875af1158015612db1573d6000803e3d6000fd5b505050506040513d601f19601f82011682018060405250810190612dd59190614909565b9150915085612de45781612de6565b805b612def9061492d565b925086831015612e35576040517f371d1b7a000000000000000000000000000000000000000000000000000000008152600481018490526024810188905260440161020c565b7f000000000000000000000000000000000000000000000000000000000000000115612efc576040517f2e1a7d4d000000000000000000000000000000000000000000000000000000008152600481018490527f000000000000000000000000980b62da83eff3d4576c647993b0c1d7faf17c7373ffffffffffffffffffffffffffffffffffffffff1690632e1a7d4d90602401600060405180830381600087803b158015612ee357600080fd5b505af1158015612ef7573d6000803e3d6000fd5b505050505b50509695505050505050565b6040517fdd62ed3e00000000000000000000000000000000000000000000000000000000815230600482015273ffffffffffffffffffffffffffffffffffffffff83811660248301526000919085169063dd62ed3e90604401602060405180830381865afa158015612f7e573d6000803e3d6000fd5b505050506040513d601f19601f82011682018060405250810190612fa291906144ed565b9050611e868484612fb38585614326565b61364a565b6000612fda73ffffffffffffffffffffffffffffffffffffffff841683613722565b90508051600014158015612fff575080806020019051810190612ffd9190614506565b155b156102e5576040517f5274afe700000000000000000000000000000000000000000000000000000000815273ffffffffffffffffffffffffffffffffffffffff8416600482015260240161020c565b60608282036040519150602081830101604052808252508260208501016020820160005b8481101561308a578281015182820152602001613072565b5050509392505050565b804710156130d0576040517fcd78605900000000000000000000000000000000000000000000000000000000815230600482015260240161020c565b60008273ffffffffffffffffffffffffffffffffffffffff168260405160006040518083038185875af1925050503d806000811461312a576040519150601f19603f3d011682016040523d82523d6000602084013e61312f565b606091505b50509050806102e5576040517f1425ea4200000000000000000000000000000000000000000000000000000000815260040160405180910390fd5b60405173ffffffffffffffffffffffffffffffffffffffff8481166024830152838116604483015260648201839052611e869186918216906323b872dd90608401612689565b6000808263ffffffff16600003613223576040517f08c379a000000000000000000000000000000000000000000000000000000000815260206004820152600260248201527f4250000000000000000000000000000000000000000000000000000000000000604482015260640161020c565b604080516002808252606082018352600092602083019080368337019050509050838160008151811061325857613258614368565b602002602001019063ffffffff16908163ffffffff168152505060008160018151811061328757613287614368565b602002602001019063ffffffff16908163ffffffff16815250506000808673ffffffffffffffffffffffffffffffffffffffff1663883bdbfd846040518263ffffffff1660e01b81526004016132dd9190614965565b600060405180830381865afa1580156132fa573d6000803e3d6000fd5b505050506040513d6000823e601f3d9081017fffffffffffffffffffffffffffffffffffffffffffffffffffffffffffffffe01682016040526133409190810190614a3f565b9150915060008260008151811061335957613359614368565b60200260200101518360018151811061337457613374614368565b60200260200101516133869190614b0b565b905060008260008151811061339d5761339d614368565b6020026020010151836001815181106133b8576133b8614368565b60200260200101516133ca9190614856565b90506133dc63ffffffff891683614b50565b965060008260060b12801561340257506133fc63ffffffff891683614bc4565b60060b15155b15613415578661341181614be6565b9750505b600061343b73ffffffffffffffffffffffffffffffffffffffff63ffffffff8b16614c43565b905061346577ffffffffffffffffffffffffffffffffffffffff00000000602084901b1682614c86565b96505050505050509250929050565b60008061348086613737565b90506fffffffffffffffffffffffffffffffff73ffffffffffffffffffffffffffffffffffffffff82161161357f5760006134d173ffffffffffffffffffffffffffffffffffffffff8316806147c4565b90508373ffffffffffffffffffffffffffffffffffffffff168573ffffffffffffffffffffffffffffffffffffffff16106135415761353c7801000000000000000000000000000000000000000000000000876fffffffffffffffffffffffffffffffff1683613a9e565b613577565b61357781876fffffffffffffffffffffffffffffffff167801000000000000000000000000000000000000000000000000613a9e565b925050613641565b60006135ab73ffffffffffffffffffffffffffffffffffffffff83168068010000000000000000613a9e565b90508373ffffffffffffffffffffffffffffffffffffffff168573ffffffffffffffffffffffffffffffffffffffff16106136135761360e700100000000000000000000000000000000876fffffffffffffffffffffffffffffffff1683613a9e565b61232b565b61232b81876fffffffffffffffffffffffffffffffff16700100000000000000000000000000000000613a9e565b50949350505050565b6040805173ffffffffffffffffffffffffffffffffffffffff8416602482015260448082018490528251808303909101815260649091019091526020810180517bffffffffffffffffffffffffffffffffffffffffffffffffffffffff167f095ea7b3000000000000000000000000000000000000000000000000000000001790526136d68482613b6e565b611e865760405173ffffffffffffffffffffffffffffffffffffffff84811660248301526000604483015261371891869182169063095ea7b390606401612689565b611e868482612fb8565b606061373083836000613c2b565b9392505050565b60008060008360020b1261374e578260020b613756565b8260020b6000035b9050620d89e8811115613795576040517f2bc80f3a00000000000000000000000000000000000000000000000000000000815260040160405180910390fd5b6000816001166000036137b9577001000000000000000000000000000000006137cb565b6ffffcb933bd6fad37aa2d162d1a5940015b70ffffffffffffffffffffffffffffffffff16905060028216156137ff576ffff97272373d413259a46990580e213a0260801c5b600482161561381e576ffff2e50f5f656932ef12357cf3c7fdcc0260801c5b600882161561383d576fffe5caca7e10e4e61c3624eaa0941cd00260801c5b601082161561385c576fffcb9843d60f6159c9db58835c9266440260801c5b602082161561387b576fff973b41fa98c081472e6896dfb254c00260801c5b604082161561389a576fff2ea16466c96a3843ec78b326b528610260801c5b60808216156138b9576ffe5dee046a99a2a811c461f1969c30530260801c5b6101008216156138d9576ffcbe86c7900a88aedcffc83b479aa3a40260801c5b6102008216156138f9576ff987a7253ac413176f2b074cf7815e540260801c5b610400821615613919576ff3392b0822b70005940c7a398e4b70f30260801c5b610800821615613939576fe7159475a2c29b7443b29c7fa6e889d90260801c5b611000821615613959576fd097f3bdfd2022b8845ad8f792aa58250260801c5b612000821615613979576fa9f746462d870fdf8a65dc1f90e061e50260801c5b614000821615613999576f70d869a156d2a1b890bb3df62baf32f70260801c5b6180008216156139b9576f31be135f97d08fd981231505542fcfa60260801c5b620100008216156139da576f09aa508b5b7a84e1c677de54f3e99bc90260801c5b620200008216156139fa576e5d6af8dedb81196699c329225ee6040260801c5b62040000821615613a19576d2216e584f5fa1ea926041bedfe980260801c5b62080000821615613a36576b048a170391f7dc42444e8fa20260801c5b60008460020b1315613a7557807fffffffffffffffffffffffffffffffffffffffffffffffffffffffffffffffff81613a7157613a71614800565b0490505b640100000000810615613a89576001613a8c565b60005b60ff16602082901c0192505050919050565b600080807fffffffffffffffffffffffffffffffffffffffffffffffffffffffffffffffff85870985870292508281108382030391505080600003613af55760008411613aea57600080fd5b508290049050613730565b808411613b0157600080fd5b6000848688096000868103871696879004966002600389028118808a02820302808a02820302808a02820302808a02820302808a02820302808a02909103029181900381900460010186841190950394909402919094039290920491909117919091029150509392505050565b60008060008473ffffffffffffffffffffffffffffffffffffffff1684604051613b989190614cbd565b6000604051808303816000865af19150503d8060008114613bd5576040519150601f19603f3d011682016040523d82523d6000602084013e613bda565b606091505b5091509150818015613c04575080511580613c04575080806020019051810190613c049190614506565b80156125fa57505050505073ffffffffffffffffffffffffffffffffffffffff163b151590565b606081471015613c69576040517fcd78605900000000000000000000000000000000000000000000000000000000815230600482015260240161020c565b6000808573ffffffffffffffffffffffffffffffffffffffff168486604051613c929190614cbd565b60006040518083038185875af1925050503d8060008114613ccf576040519150601f19603f3d011682016040523d82523d6000602084013e613cd4565b606091505b5091509150613ce4868383613cee565b9695505050505050565b606082613d0357613cfe82613d7d565b613730565b8151158015613d27575073ffffffffffffffffffffffffffffffffffffffff84163b155b15613d76576040517f9996b31500000000000000000000000000000000000000000000000000000000815273ffffffffffffffffffffffffffffffffffffffff8516600482015260240161020c565b5080613730565b805115613d8d5780518082602001fd5b6040517f1425ea4200000000000000000000000000000000000000000000000000000000815260040160405180910390fd5b600060208284031215613dd157600080fd5b81357fffffffff000000000000000000000000000000000000000000000000000000008116811461373057600080fd5b73ffffffffffffffffffffffffffffffffffffffff8116811461185657600080fd5b600080600060608486031215613e3857600080fd5b833592506020840135613e4a81613e01565b91506040840135613e5a81613e01565b809150509250925092565b600080600060408486031215613e7a57600080fd5b83359250602084013567ffffffffffffffff80821115613e9957600080fd5b818601915086601f830112613ead57600080fd5b813581811115613ebc57600080fd5b876020606083028501011115613ed157600080fd5b6020830194508093505050509250925092565b60008060408385031215613ef757600080fd5b823591506020830135613f0981613e01565b809150509250929050565b815173ffffffffffffffffffffffffffffffffffffffff16815260208083015160ff169082015260408083015163ffffffff169082015260608101610735565b600060208284031215613f6657600080fd5b5035919050565b6020808252825182820181905260009190848201906040850190845b81811015613fe257613fcf838551805173ffffffffffffffffffffffffffffffffffffffff16825260208082015160ff169083015260409081015163ffffffff16910152565b9284019260609290920191600101613f89565b50909695505050505050565b801515811461185657600080fd5b60008083601f84011261400e57600080fd5b50813567ffffffffffffffff81111561402657600080fd5b602083019150836020828501011115610f3857600080fd5b60008060008060008060008060c0898b03121561405a57600080fd5b88359750602089013561406c81613e01565b965060408901359550606089013561408381613fee565b9450608089013567ffffffffffffffff808211156140a057600080fd5b6140ac8c838d01613ffc565b909650945060a08b01359150808211156140c557600080fd5b506140d28b828c01613ffc565b999c989b5096995094979396929594505050565b600080600080608085870312156140fc57600080fd5b84359350602085013561410e81613e01565b9250604085013563ffffffff8116811461412757600080fd5b9150606085013561413781613e01565b939692955090935050565b60008060006060848603121561415757600080fd5b505081359360208301359350604090920135919050565b60006020828403121561418057600080fd5b813561373081613e01565b600080600080606085870312156141a157600080fd5b8435935060208501359250604085013567ffffffffffffffff8111156141c657600080fd5b6141d287828801613ffc565b95989497509550505050565b600080600080600080600080600060e08a8c0312156141fc57600080fd5b8935985060208a013561420e81613e01565b975060408a0135965060608a013561422581613e01565b955060808a0135945060a08a013567ffffffffffffffff8082111561424957600080fd5b6142558d838e01613ffc565b909650945060c08c013591508082111561426e57600080fd5b5061427b8c828d01613ffc565b915080935050809150509295985092959850929598565b6000602082840312156142a457600080fd5b815161373081613e01565b6000602082840312156142c157600080fd5b815162ffffff8116811461373057600080fd5b6000602082840312156142e657600080fd5b815160ff8116811461373057600080fd5b7f4e487b7100000000000000000000000000000000000000000000000000000000600052601160045260246000fd5b80820180821115610735576107356142f7565b7f4e487b7100000000000000000000000000000000000000000000000000000000600052604160045260246000fd5b7f4e487b7100000000000000000000000000000000000000000000000000000000600052603260045260246000fd5b60007fffffffffffffffffffffffffffffffffffffffffffffffffffffffffffffffff82036143c8576143c86142f7565b5060010190565b8183528181602085013750600060208284010152600060207fffffffffffffffffffffffffffffffffffffffffffffffffffffffffffffffe0601f840116840101905092915050565b88815273ffffffffffffffffffffffffffffffffffffffff88166020820152866040820152851515606082015260c06080820152600061445c60c0830186886143cf565b82810360a084015261446f8185876143cf565b9b9a5050505050505050505050565b898152600073ffffffffffffffffffffffffffffffffffffffff808b16602084015289604084015280891660608401525086608083015260e060a08301526144ca60e0830186886143cf565b82810360c08401526144dd8185876143cf565b9c9b505050505050505050505050565b6000602082840312156144ff57600080fd5b5051919050565b60006020828403121561451857600080fd5b815161373081613fee565b60405160a0810167ffffffffffffffff8111828210171561454657614546614339565b60405290565b604051601f82017fffffffffffffffffffffffffffffffffffffffffffffffffffffffffffffffe016810167ffffffffffffffff8111828210171561459357614593614339565b604052919050565b805165ffffffffffff811681146145b157600080fd5b919050565b60005b838110156145d15781810151838201526020016145b9565b50506000910152565b600060208083850312156145ed57600080fd5b825167ffffffffffffffff8082111561460557600080fd5b9084019060a0828703121561461957600080fd5b614621614523565b825181528383015161463281613e01565b818501526146426040840161459b565b60408201526146536060840161459b565b606082015260808301518281111561466a57600080fd5b80840193505086601f84011261467f57600080fd5b82518281111561469157614691614339565b6146c1857fffffffffffffffffffffffffffffffffffffffffffffffffffffffffffffffe0601f8401160161454c565b925080835287858286010111156146d757600080fd5b6146e6818685018787016145b6565b50608081019190915295945050505050565b600081518084526147108160208601602086016145b6565b601f017fffffffffffffffffffffffffffffffffffffffffffffffffffffffffffffffe0169290920160200192915050565b600061010073ffffffffffffffffffffffffffffffffffffffff80871684528551818151166020860152816020820151166040860152604081015165ffffffffffff80821660608801528060608401511660808801525050508060208701511660a085015250604085015160c08401528060e0840152613ce4818401856146f8565b8082028115828204841417610735576107356142f7565b600080604083850312156147ee57600080fd5b825191506020830151613f0981613e01565b7f4e487b7100000000000000000000000000000000000000000000000000000000600052601260045260246000fd5b60008261483e5761483e614800565b500490565b81810381811115610735576107356142f7565b73ffffffffffffffffffffffffffffffffffffffff828116828216039080821115614883576148836142f7565b5092915050565b73ffffffffffffffffffffffffffffffffffffffff818116838216019080821115614883576148836142f7565b600073ffffffffffffffffffffffffffffffffffffffff8088168352861515602084015285604084015280851660608401525060a060808301526148fe60a08301846146f8565b979650505050505050565b6000806040838503121561491c57600080fd5b505080516020909101519092909150565b60007f8000000000000000000000000000000000000000000000000000000000000000820361495e5761495e6142f7565b5060000390565b6020808252825182820181905260009190848201906040850190845b81811015613fe257835163ffffffff1683529284019291840191600101614981565b600067ffffffffffffffff8211156149bd576149bd614339565b5060051b60200190565b600082601f8301126149d857600080fd5b815160206149ed6149e8836149a3565b61454c565b8083825260208201915060208460051b870101935086841115614a0f57600080fd5b602086015b84811015614a34578051614a2781613e01565b8352918301918301614a14565b509695505050505050565b60008060408385031215614a5257600080fd5b825167ffffffffffffffff80821115614a6a57600080fd5b818501915085601f830112614a7e57600080fd5b81516020614a8e6149e8836149a3565b82815260059290921b84018101918181019089841115614aad57600080fd5b948201945b83861015614adb5785518060060b8114614acc5760008081fd5b82529482019490820190614ab2565b91880151919650909350505080821115614af457600080fd5b50614b01858286016149c7565b9150509250929050565b600682810b9082900b037fffffffffffffffffffffffffffffffffffffffffffffffffff800000000000008112667fffffffffffff82131715610735576107356142f7565b60008160060b8360060b80614b6757614b67614800565b7fffffffffffffffffffffffffffffffffffffffffffffffffffffffffffffffff81147fffffffffffffffffffffffffffffffffffffffffffffffffff8000000000000083141615614bbb57614bbb6142f7565b90059392505050565b60008260060b80614bd757614bd7614800565b808360060b0791505092915050565b60008160020b7fffffffffffffffffffffffffffffffffffffffffffffffffffffffffff8000008103614c1b57614c1b6142f7565b7fffffffffffffffffffffffffffffffffffffffffffffffffffffffffffffffff0192915050565b77ffffffffffffffffffffffffffffffffffffffffffffffff828116828216818102831692918115828504821417614c7d57614c7d6142f7565b50505092915050565b600077ffffffffffffffffffffffffffffffffffffffffffffffff80841680614cb157614cb1614800565b92169190910492915050565b60008251614ccf8184602087016145b6565b919091019291505056fea2646970667358221220048de60ddf6ee9f2d7f60066cf6f8e96993d799a0434ade2937e3de6de90196a64736f6c63430008170033",
	"devdoc": {
		"kind": "dev",
		"methods": {
			"accountingContextForTokenOf(uint256,address)": {
				"details": "Accounting contexts are set up in `addDefaultPool(...)`.",
				"params": {
					"projectId": "The ID of the project to get the accounting context for.",
					"token": "The address of the token to get the accounting context for."
				},
				"returns": {
					"context": "A `JBAccountingContext` containing the accounting context for the project ID and token."
				}
			},
			"accountingContextsOf(uint256)": {
				"details": "This includes both project-specific and generic accounting contexts, with the project-specific contexts         taking precedence.",
				"params": {
					"projectId": "The ID of the project to get the accounting contexts for."
				},
				"returns": {
					"contexts": "An array of `JBAccountingContext` containing the accounting contexts for the project ID."
				}
			},
			"addDefaultPool(uint256,address,address)": {
				"details": "The pool should have been deployed by the factory associated to this contract. We don't rely on create2 address as this terminal might be used on other chain, where the factory bytecode might differ or the main dex be a fork.",
				"params": {
					"pool": "The Uniswap V3 pool to set as the default for the specified token.",
					"projectId": "The ID of the project to set the default pool for. The project 0 acts as a catch-all, where non-set pools are defaulted to.",
					"token": "The address of the token to set the default pool for."
				}
			},
			"addToBalanceOf(uint256,address,uint256,bool,string,bytes)": {
				"details": "This function handles the token in transfer, potentially swaps the tokens to the desired output token, and then adds the swapped tokens to the project's balance in the specified terminal.",
				"params": {
					"amount": "The amount of tokens being paid in.",
					"memo": "A memo to pass along to the emitted event.",
					"metadata": "Bytes in `JBMetadataResolver`'s format which can contain additional data for the swap and adding to balance.",
					"projectId": "The ID of the project for which funds are being accepted and added to its balance.",
					"shouldReturnHeldFees": "A boolean to indicate whether held fees should be returned.",
					"token": "The address of the token being paid in."
				}
			},
			"addTwapParamsFor(uint256,address,uint32,uint160)": {
				"params": {
					"projectId": "The ID of the project to set the TWAP-based quote rules for.",
					"secondsAgo": "The period of time over which the TWAP is calculated, in seconds.",
					"slippageTolerance": "The maximum spread allowed between the amount received and the TWAP (as a fraction out of `SLIPPAGE_DENOMINATOR`)."
				}
			},
			"constructor": {
				"params": {
					"directory": "A contract storing directories of terminals and controllers for each project.",
					"factory": "A factory which creates Uniswap V3 pools.",
					"owner": "The owner of the contract.",
					"permissions": "A contract storing permissions.",
					"permit2": "A permit2 utility.",
					"projects": "A contract which mints ERC-721s that represent project ownership and transfers.",
					"tokenOut": "The token which flows out of this terminal (JBConstants.NATIVE_TOKEN for the chain native token)",
					"weth": "A contract which wraps the native token."
				}
			},
			"getPoolFor(uint256,address)": {
				"params": {
					"projectId": "The ID of the project to retrieve the default pool for.",
					"tokenIn": "The address of the token to retrieve the default pool for."
				},
				"returns": {
					"pool": "The default pool for the token, or the overall default pool for the token if the"
				}
			},
			"owner()": {
				"details": "Returns the address of the current owner."
			},
			"pay(uint256,address,uint256,address,uint256,string,bytes)": {
				"params": {
					"amount": "The amount of tokens being paid in, as a fixed point number with the same amount of decimals as the `token`. If `token` is the native token, `amount` is ignored and `msg.value` is used in its place.",
					"beneficiary": "The beneficiary address to pass along to the other terminal. If the other terminal mints tokens, for example, they will be minted for this address.",
					"memo": "A memo to pass along to the emitted event.",
					"metadata": "Bytes in `JBMetadataResolver`'s format which can contain a quote from the user/client. The quote should contain a minimum amount of tokens to receive from the swap and the pool to use. This metadata is also passed to the other terminal's emitted event, as well as its data hook and pay hook if applicable.",
					"minReturnedTokens": "The minimum number of project tokens expected in return, as a fixed point number with the same number of decimals as the other terminal. This value will be passed along to the other terminal.",
					"projectId": "The ID of the project being paid.",
					"token": "The address of the token being paid in."
				},
				"returns": {
					"_0": "The number of tokens received from the swap, as a fixed point number with the same amount of decimals as that token."
				}
			},
			"renounceOwnership()": {
				"details": "Leaves the contract without owner. It will not be possible to call `onlyOwner` functions. Can only be called by the current owner. NOTE: Renouncing ownership will leave the contract without an owner, thereby disabling any functionality that is only available to the owner."
			},
			"supportsInterface(bytes4)": {
				"details": "See {IERC165-supportsInterface}.",
				"params": {
					"interfaceId": "The ID of the interface to check for adherance to."
				},
				"returns": {
					"_0": "A flag indicating if the provided interface ID is supported."
				}
			},
			"transferOwnership(address)": {
				"details": "Transfers ownership of the contract to a new account (`newOwner`). Can only be called by the current owner."
			},
			"twapParamsOf(uint256,address)": {
				"params": {
					"projectId": "The ID of the project to retrieve TWAP parameters for."
				},
				"returns": {
					"secondsAgo": "The period of time in the past to calculate the TWAP from.",
					"slippageTolerance": "The maximum allowed slippage tolerance when calculating the TWAP, as a fraction out of `SLIPPAGE_DENOMINATOR`."
				}
			},
			"uniswapV3SwapCallback(int256,int256,bytes)": {
				"details": "Only an uniswap v3 pool can call this function",
				"params": {
					"amount0Delta": "The amount of token 0 being used for the swap.",
					"amount1Delta": "The amount of token 1 being used for the swap.",
					"data": "Data passed in by the swap operation."
				}
			}
		},
		"version": 1
	},
	"userdoc": {
		"kind": "user",
		"methods": {
			"DEFAULT_PROJECT_ID()": {
				"notice": "The ID to store default values in."
			},
			"DIRECTORY()": {
				"notice": "The directory of terminals and controllers for `PROJECTS`."
			},
			"FACTORY()": {
				"notice": "The factory to use for creating new pools"
			},
			"PERMISSIONS()": {
				"notice": "A contract storing permissions."
			},
			"PERMIT2()": {
				"notice": "The permit2 utility."
			},
			"PROJECTS()": {
				"notice": "Mints ERC-721s that represent project ownership and transfers."
			},
			"SLIPPAGE_DENOMINATOR()": {
				"notice": "The denominator used when calculating TWAP slippage tolerance values."
			},
			"TOKEN_OUT()": {
				"notice": "The token which flows out of this terminal (JBConstants.NATIVE_TOKEN for the chain native token)"
			},
			"WETH()": {
				"notice": "The ERC-20 wrapper for the native token."
			},
			"accountingContextForTokenOf(uint256,address)": {
				"notice": "Get the accounting context for the specified project ID and token."
			},
			"accountingContextsOf(uint256)": {
				"notice": "Return all the accounting contexts for a specified project ID."
			},
			"addAccountingContextsFor(uint256,(address,uint8,uint32)[])": {
				"notice": "Empty implementation to satisfy the interface. Accounting contexts are set in `addDefaultPool(...)`."
			},
			"addDefaultPool(uint256,address,address)": {
				"notice": "Set a project's default pool and accounting context for the specified token. Only the project's owner, an address with `MODIFY_DEFAULT_POOL` permission from the owner or the terminal owner can call this function."
			},
			"addToBalanceOf(uint256,address,uint256,bool,string,bytes)": {
				"notice": "Accepts funds for a given project, swaps them if necessary, and adds them to the project's balance in the specified terminal."
			},
			"addTwapParamsFor(uint256,address,uint32,uint160)": {
				"notice": "Set the specified project's rules for calculating a quote based on the TWAP. Only the project's owner or an address with `MODIFY_TWAP_PARAMS` permission from the owner  or the terminal owner can call this function."
			},
			"currentSurplusOf(uint256,uint256,uint256)": {
				"notice": "Empty implementation to satisfy the interface. This terminal has no surplus."
			},
			"getPoolFor(uint256,address)": {
				"notice": "Returns the default pool for a given project and token or, if a project has no default pool for the         token, the overal default pool for the token"
			},
			"migrateBalanceOf(uint256,address,address)": {
				"notice": "Empty implementation to satisfy the interface."
			},
			"pay(uint256,address,uint256,address,uint256,string,bytes)": {
				"notice": "Pay a project by swapping the incoming tokens for tokens that one of the project's other terminals accepts, passing along the funds received from the swap and the specified parameters."
			},
			"supportsInterface(bytes4)": {
				"notice": "Indicates if this contract adheres to the specified interface."
			},
			"twapParamsOf(uint256,address)": {
				"notice": "Returns the default twap parameters for a given pool project."
			},
			"uniswapV3SwapCallback(int256,int256,bytes)": {
				"notice": "The Uniswap v3 pool callback where the token transfer is expected to happen."
			}
		},
		"version": 1
	},
	"gitCommit": "a056550bda6a44a5c6ceb3e875c162a0de439034",
	"sourceName": "src/JBSwapTerminal.sol",
	"chainId": "421614",
	"linkReferences": {},
	"deployedLinkReferences": {},
	"history": []
}